{
	"contracts/Orders.sol": {
		"Marketplace": {
			"abi": [
				{
					"inputs": [
						{
							"internalType": "address",
							"name": "_nftContractAddress",
							"type": "address"
						},
						{
							"internalType": "uint256",
							"name": "_commissionPercent",
							"type": "uint256"
						}
					],
					"stateMutability": "nonpayable",
					"type": "constructor"
				},
				{
					"anonymous": false,
					"inputs": [
						{
							"indexed": false,
							"internalType": "uint256",
							"name": "newPercent",
							"type": "uint256"
						}
					],
					"name": "CommissionUpdated",
					"type": "event"
				},
				{
					"anonymous": false,
					"inputs": [
						{
							"indexed": false,
							"internalType": "uint256",
							"name": "amount",
							"type": "uint256"
						},
						{
							"indexed": true,
							"internalType": "address",
							"name": "recipient",
							"type": "address"
						}
					],
					"name": "FundsWithdrawn",
					"type": "event"
				},
				{
					"anonymous": false,
					"inputs": [
						{
							"indexed": true,
							"internalType": "uint256",
							"name": "id",
							"type": "uint256"
						},
						{
							"indexed": true,
							"internalType": "address",
							"name": "seller",
							"type": "address"
						}
					],
					"name": "ListingCancelled",
					"type": "event"
				},
				{
					"anonymous": false,
					"inputs": [
						{
							"indexed": true,
							"internalType": "uint256",
							"name": "id",
							"type": "uint256"
						},
						{
							"indexed": true,
							"internalType": "address",
							"name": "seller",
							"type": "address"
						},
						{
							"indexed": false,
							"internalType": "uint256",
							"name": "tokenId",
							"type": "uint256"
						},
						{
							"indexed": false,
							"internalType": "uint256",
							"name": "price",
							"type": "uint256"
						},
						{
							"indexed": false,
							"internalType": "uint256",
							"name": "timestamp",
							"type": "uint256"
						}
					],
					"name": "ListingCreated",
					"type": "event"
				},
				{
					"anonymous": false,
					"inputs": [
						{
							"indexed": true,
							"internalType": "uint256",
							"name": "id",
							"type": "uint256"
						},
						{
							"indexed": true,
							"internalType": "address",
							"name": "buyer",
							"type": "address"
						},
						{
							"indexed": false,
							"internalType": "uint256",
							"name": "tokenId",
							"type": "uint256"
						},
						{
							"indexed": false,
							"internalType": "uint256",
							"name": "price",
							"type": "uint256"
						},
						{
							"indexed": false,
							"internalType": "uint256",
							"name": "timestamp",
							"type": "uint256"
						}
					],
					"name": "PurchaseCompleted",
					"type": "event"
				},
				{
					"inputs": [],
					"name": "MAX_COMMISSION",
					"outputs": [
						{
							"internalType": "uint256",
							"name": "",
							"type": "uint256"
						}
					],
					"stateMutability": "view",
					"type": "function"
				},
				{
					"inputs": [
						{
							"internalType": "uint256",
							"name": "_listingId",
							"type": "uint256"
						}
					],
					"name": "cancelListing",
					"outputs": [],
					"stateMutability": "nonpayable",
					"type": "function"
				},
				{
					"inputs": [],
					"name": "commissionPercent",
					"outputs": [
						{
							"internalType": "uint256",
							"name": "",
							"type": "uint256"
						}
					],
					"stateMutability": "view",
					"type": "function"
				},
				{
					"inputs": [
						{
							"internalType": "uint128",
							"name": "_tokenId",
							"type": "uint128"
						},
						{
							"internalType": "uint128",
							"name": "_price",
							"type": "uint128"
						}
					],
					"name": "createListing",
					"outputs": [],
					"stateMutability": "nonpayable",
					"type": "function"
				},
				{
					"inputs": [
						{
							"internalType": "uint256",
							"name": "_tokenId",
							"type": "uint256"
						}
					],
					"name": "getListingId",
					"outputs": [
						{
							"internalType": "uint256",
							"name": "",
							"type": "uint256"
						}
					],
					"stateMutability": "view",
					"type": "function"
				},
				{
					"inputs": [
						{
							"internalType": "address",
							"name": "_seller",
							"type": "address"
						}
					],
					"name": "getListingsBySeller",
					"outputs": [
						{
							"components": [
								{
									"internalType": "address",
									"name": "seller",
									"type": "address"
								},
								{
									"internalType": "uint128",
									"name": "tokenId",
									"type": "uint128"
								},
								{
									"internalType": "uint128",
									"name": "price",
									"type": "uint128"
								},
								{
									"internalType": "bool",
									"name": "isActive",
									"type": "bool"
								}
							],
							"internalType": "struct Marketplace.Listing[]",
							"name": "",
							"type": "tuple[]"
						}
					],
					"stateMutability": "view",
					"type": "function"
				},
				{
					"inputs": [
						{
							"internalType": "uint256",
							"name": "_tokenId",
							"type": "uint256"
						}
					],
					"name": "isTokenListed",
					"outputs": [
						{
							"internalType": "bool",
							"name": "",
							"type": "bool"
						}
					],
					"stateMutability": "view",
					"type": "function"
				},
				{
					"inputs": [
						{
							"internalType": "uint256",
							"name": "",
							"type": "uint256"
						}
					],
					"name": "listings",
					"outputs": [
						{
							"internalType": "address",
							"name": "seller",
							"type": "address"
						},
						{
							"internalType": "uint128",
							"name": "tokenId",
							"type": "uint128"
						},
						{
							"internalType": "uint128",
							"name": "price",
							"type": "uint128"
						},
						{
							"internalType": "bool",
							"name": "isActive",
							"type": "bool"
						}
					],
					"stateMutability": "view",
					"type": "function"
				},
				{
					"inputs": [],
					"name": "nftContract",
					"outputs": [
						{
							"internalType": "contract IERC721",
							"name": "",
							"type": "address"
						}
					],
					"stateMutability": "view",
					"type": "function"
				},
				{
					"inputs": [],
					"name": "nftEnumerable",
					"outputs": [
						{
							"internalType": "contract IERC721Enumerable",
							"name": "",
							"type": "address"
						}
					],
					"stateMutability": "view",
					"type": "function"
				},
				{
					"inputs": [],
					"name": "owner",
					"outputs": [
						{
							"internalType": "address payable",
							"name": "",
							"type": "address"
						}
					],
					"stateMutability": "view",
					"type": "function"
				},
				{
					"inputs": [
						{
							"internalType": "address",
							"name": "",
							"type": "address"
						}
					],
					"name": "pendingWithdrawals",
					"outputs": [
						{
							"internalType": "uint256",
							"name": "",
							"type": "uint256"
						}
					],
					"stateMutability": "view",
					"type": "function"
				},
				{
					"inputs": [
						{
							"internalType": "uint256",
							"name": "_listingId",
							"type": "uint256"
						}
					],
					"name": "purchaseListing",
					"outputs": [],
					"stateMutability": "payable",
					"type": "function"
				},
				{
					"inputs": [
						{
							"internalType": "uint256",
							"name": "_newPercent",
							"type": "uint256"
						}
					],
					"name": "setCommissionPercent",
					"outputs": [],
					"stateMutability": "nonpayable",
					"type": "function"
				},
				{
					"inputs": [
						{
							"internalType": "address",
							"name": "_owner",
							"type": "address"
						},
						{
							"internalType": "uint256",
							"name": "index",
							"type": "uint256"
						}
					],
					"name": "tokenOfOwnerByIndex",
					"outputs": [
						{
							"internalType": "uint256",
							"name": "",
							"type": "uint256"
						}
					],
					"stateMutability": "view",
					"type": "function"
				},
				{
					"inputs": [],
					"name": "withdrawFunds",
					"outputs": [],
					"stateMutability": "nonpayable",
					"type": "function"
				},
				{
					"stateMutability": "payable",
					"type": "receive"
				}
			],
			"devdoc": {
				"details": "This contract facilitates the listing and sale of ERC721 tokens with added enumerable support.",
				"kind": "dev",
				"methods": {
					"cancelListing(uint256)": {
						"params": {
							"_listingId": "ID of the listing to cancel."
						}
					},
					"constructor": {
						"details": "Initializes the marketplace with an ERC721 contract and commission percentage.",
						"params": {
							"_commissionPercent": "Marketplace commission percentage (in basis points).",
							"_nftContractAddress": "Address of the ERC721 token contract."
						}
					},
					"createListing(uint128,uint128)": {
						"params": {
							"_price": "Sale price in wei.",
							"_tokenId": "ID of the token to sell."
						}
					},
					"getListingId(uint256)": {
						"params": {
							"_tokenId": "The token ID to check."
						},
						"returns": {
							"_0": "The listing ID if the token is listed, 0 otherwise."
						}
					},
					"getListingsBySeller(address)": {
						"params": {
							"_seller": "The address of the seller."
						},
						"returns": {
							"_0": "Array of seller's listings."
						}
					},
					"isTokenListed(uint256)": {
						"params": {
							"_tokenId": "The token ID to check."
						},
						"returns": {
							"_0": "bool Whether the token is listed."
						}
					},
					"purchaseListing(uint256)": {
						"params": {
							"_listingId": "ID of the listing to purchase."
						}
					},
					"setCommissionPercent(uint256)": {
						"params": {
							"_newPercent": "New commission percentage in basis points."
						}
					},
					"tokenOfOwnerByIndex(address,uint256)": {
						"params": {
							"_owner": "Address of the token owner.",
							"index": "Index in the owner's token list."
						},
						"returns": {
							"_0": "The token ID at the given index."
						}
					}
				},
				"stateVariables": {
					"listings": {
						"details": "Stores all listings by their unique ID."
					},
					"pendingWithdrawals": {
						"details": "Pending withdrawals for sellers and owner."
					},
					"sellerListings": {
						"details": "Maps seller addresses to their active listings"
					},
					"tokenToListingId": {
						"details": "Maps token IDs to their active listing ID."
					}
				},
				"title": "NFT Marketplace",
				"version": 1
			},
			"evm": {
				"assembly": "    /* \"contracts/Orders.sol\":347:8943  contract Marketplace {... */\n  mstore(0x40, 0xe0)\n    /* \"contracts/Orders.sol\":2904:3351  constructor(address _nftContractAddress, uint256 _commissionPercent) {... */\n  callvalue\n  dup1\n  iszero\n  tag_1\n  jumpi\n  0x00\n  dup1\n  revert\ntag_1:\n  pop\n  mload(0x40)\n  sub(codesize, bytecodeSize)\n  dup1\n  bytecodeSize\n  dup4\n  codecopy\n  dup2\n  dup2\n  add\n  0x40\n  mstore\n  dup2\n  add\n  swap1\n  tag_2\n  swap2\n  swap1\n  tag_3\n  jump\t// in\ntag_2:\n    /* \"contracts/Orders.sol\":3023:3024  0 */\n  0x00\n    /* \"contracts/Orders.sol\":2992:3025  _nftContractAddress != address(0) */\n  0xffffffffffffffffffffffffffffffffffffffff\n  and\n    /* \"contracts/Orders.sol\":2992:3011  _nftContractAddress */\n  dup3\n    /* \"contracts/Orders.sol\":2992:3025  _nftContractAddress != address(0) */\n  0xffffffffffffffffffffffffffffffffffffffff\n  and\n  sub\n    /* \"contracts/Orders.sol\":2984:3049  require(_nftContractAddress != address(0), \"Invalid NFT address\") */\n  tag_6\n  jumpi\n  mload(0x40)\n  0x08c379a000000000000000000000000000000000000000000000000000000000\n  dup2\n  mstore\n  0x04\n  add\n  tag_7\n  swap1\n  tag_8\n  jump\t// in\ntag_7:\n  mload(0x40)\n  dup1\n  swap2\n  sub\n  swap1\n  revert\ntag_6:\n    /* \"contracts/Orders.sol\":892:896  5000 */\n  0x1388\n    /* \"contracts/Orders.sol\":3068:3086  _commissionPercent */\n  dup2\n    /* \"contracts/Orders.sol\":3068:3104  _commissionPercent <= MAX_COMMISSION */\n  gt\n  iszero\n    /* \"contracts/Orders.sol\":3060:3128  require(_commissionPercent <= MAX_COMMISSION, \"Commission too high\") */\n  tag_9\n  jumpi\n  mload(0x40)\n  0x08c379a000000000000000000000000000000000000000000000000000000000\n  dup2\n  mstore\n  0x04\n  add\n  tag_10\n  swap1\n  tag_11\n  jump\t// in\ntag_10:\n  mload(0x40)\n  dup1\n  swap2\n  sub\n  swap1\n  revert\ntag_9:\n    /* \"contracts/Orders.sol\":3165:3175  msg.sender */\n  caller\n    /* \"contracts/Orders.sol\":3149:3176  owner = payable(msg.sender) */\n  0xffffffffffffffffffffffffffffffffffffffff\n  and\n  0x80\n  dup2\n  0xffffffffffffffffffffffffffffffffffffffff\n  and\n  dup2\n  mstore\n  pop\n  pop\n    /* \"contracts/Orders.sol\":3209:3228  _nftContractAddress */\n  dup2\n    /* \"contracts/Orders.sol\":3187:3229  nftContract = IERC721(_nftContractAddress) */\n  0xffffffffffffffffffffffffffffffffffffffff\n  and\n  0xa0\n  dup2\n  0xffffffffffffffffffffffffffffffffffffffff\n  and\n  dup2\n  mstore\n  pop\n  pop\n    /* \"contracts/Orders.sol\":3274:3293  _nftContractAddress */\n  dup2\n    /* \"contracts/Orders.sol\":3240:3294  nftEnumerable = IERC721Enumerable(_nftContractAddress) */\n  0xffffffffffffffffffffffffffffffffffffffff\n  and\n  0xc0\n  dup2\n  0xffffffffffffffffffffffffffffffffffffffff\n  and\n  dup2\n  mstore\n  pop\n  pop\n    /* \"contracts/Orders.sol\":3325:3343  _commissionPercent */\n  dup1\n    /* \"contracts/Orders.sol\":3305:3322  commissionPercent */\n  0x00\n    /* \"contracts/Orders.sol\":3305:3343  commissionPercent = _commissionPercent */\n  dup2\n  swap1\n  sstore\n  pop\n    /* \"contracts/Orders.sol\":2904:3351  constructor(address _nftContractAddress, uint256 _commissionPercent) {... */\n  pop\n  pop\n    /* \"contracts/Orders.sol\":347:8943  contract Marketplace {... */\n  jump(tag_12)\n    /* \"#utility.yul\":88:205   */\ntag_14:\n    /* \"#utility.yul\":197:198   */\n  0x00\n    /* \"#utility.yul\":194:195   */\n  dup1\n    /* \"#utility.yul\":187:199   */\n  revert\n    /* \"#utility.yul\":334:460   */\ntag_16:\n    /* \"#utility.yul\":371:378   */\n  0x00\n    /* \"#utility.yul\":411:453   */\n  0xffffffffffffffffffffffffffffffffffffffff\n    /* \"#utility.yul\":404:409   */\n  dup3\n    /* \"#utility.yul\":400:454   */\n  and\n    /* \"#utility.yul\":389:454   */\n  swap1\n  pop\n    /* \"#utility.yul\":334:460   */\n  swap2\n  swap1\n  pop\n  jump\t// out\n    /* \"#utility.yul\":466:562   */\ntag_17:\n    /* \"#utility.yul\":503:510   */\n  0x00\n    /* \"#utility.yul\":532:556   */\n  tag_34\n    /* \"#utility.yul\":550:555   */\n  dup3\n    /* \"#utility.yul\":532:556   */\n  tag_16\n  jump\t// in\ntag_34:\n    /* \"#utility.yul\":521:556   */\n  swap1\n  pop\n    /* \"#utility.yul\":466:562   */\n  swap2\n  swap1\n  pop\n  jump\t// out\n    /* \"#utility.yul\":568:690   */\ntag_18:\n    /* \"#utility.yul\":641:665   */\n  tag_36\n    /* \"#utility.yul\":659:664   */\n  dup2\n    /* \"#utility.yul\":641:665   */\n  tag_17\n  jump\t// in\ntag_36:\n    /* \"#utility.yul\":634:639   */\n  dup2\n    /* \"#utility.yul\":631:666   */\n  eq\n    /* \"#utility.yul\":621:684   */\n  tag_37\n  jumpi\n    /* \"#utility.yul\":680:681   */\n  0x00\n    /* \"#utility.yul\":677:678   */\n  dup1\n    /* \"#utility.yul\":670:682   */\n  revert\n    /* \"#utility.yul\":621:684   */\ntag_37:\n    /* \"#utility.yul\":568:690   */\n  pop\n  jump\t// out\n    /* \"#utility.yul\":696:839   */\ntag_19:\n    /* \"#utility.yul\":753:758   */\n  0x00\n    /* \"#utility.yul\":784:790   */\n  dup2\n    /* \"#utility.yul\":778:791   */\n  mload\n    /* \"#utility.yul\":769:791   */\n  swap1\n  pop\n    /* \"#utility.yul\":800:833   */\n  tag_39\n    /* \"#utility.yul\":827:832   */\n  dup2\n    /* \"#utility.yul\":800:833   */\n  tag_18\n  jump\t// in\ntag_39:\n    /* \"#utility.yul\":696:839   */\n  swap3\n  swap2\n  pop\n  pop\n  jump\t// out\n    /* \"#utility.yul\":845:922   */\ntag_20:\n    /* \"#utility.yul\":882:889   */\n  0x00\n    /* \"#utility.yul\":911:916   */\n  dup2\n    /* \"#utility.yul\":900:916   */\n  swap1\n  pop\n    /* \"#utility.yul\":845:922   */\n  swap2\n  swap1\n  pop\n  jump\t// out\n    /* \"#utility.yul\":928:1050   */\ntag_21:\n    /* \"#utility.yul\":1001:1025   */\n  tag_42\n    /* \"#utility.yul\":1019:1024   */\n  dup2\n    /* \"#utility.yul\":1001:1025   */\n  tag_20\n  jump\t// in\ntag_42:\n    /* \"#utility.yul\":994:999   */\n  dup2\n    /* \"#utility.yul\":991:1026   */\n  eq\n    /* \"#utility.yul\":981:1044   */\n  tag_43\n  jumpi\n    /* \"#utility.yul\":1040:1041   */\n  0x00\n    /* \"#utility.yul\":1037:1038   */\n  dup1\n    /* \"#utility.yul\":1030:1042   */\n  revert\n    /* \"#utility.yul\":981:1044   */\ntag_43:\n    /* \"#utility.yul\":928:1050   */\n  pop\n  jump\t// out\n    /* \"#utility.yul\":1056:1199   */\ntag_22:\n    /* \"#utility.yul\":1113:1118   */\n  0x00\n    /* \"#utility.yul\":1144:1150   */\n  dup2\n    /* \"#utility.yul\":1138:1151   */\n  mload\n    /* \"#utility.yul\":1129:1151   */\n  swap1\n  pop\n    /* \"#utility.yul\":1160:1193   */\n  tag_45\n    /* \"#utility.yul\":1187:1192   */\n  dup2\n    /* \"#utility.yul\":1160:1193   */\n  tag_21\n  jump\t// in\ntag_45:\n    /* \"#utility.yul\":1056:1199   */\n  swap3\n  swap2\n  pop\n  pop\n  jump\t// out\n    /* \"#utility.yul\":1205:1712   */\ntag_3:\n    /* \"#utility.yul\":1284:1290   */\n  0x00\n    /* \"#utility.yul\":1292:1298   */\n  dup1\n    /* \"#utility.yul\":1341:1343   */\n  0x40\n    /* \"#utility.yul\":1329:1338   */\n  dup4\n    /* \"#utility.yul\":1320:1327   */\n  dup6\n    /* \"#utility.yul\":1316:1339   */\n  sub\n    /* \"#utility.yul\":1312:1344   */\n  slt\n    /* \"#utility.yul\":1309:1428   */\n  iszero\n  tag_47\n  jumpi\n    /* \"#utility.yul\":1347:1426   */\n  tag_48\n  tag_14\n  jump\t// in\ntag_48:\n    /* \"#utility.yul\":1309:1428   */\ntag_47:\n    /* \"#utility.yul\":1467:1468   */\n  0x00\n    /* \"#utility.yul\":1492:1556   */\n  tag_49\n    /* \"#utility.yul\":1548:1555   */\n  dup6\n    /* \"#utility.yul\":1539:1545   */\n  dup3\n    /* \"#utility.yul\":1528:1537   */\n  dup7\n    /* \"#utility.yul\":1524:1546   */\n  add\n    /* \"#utility.yul\":1492:1556   */\n  tag_19\n  jump\t// in\ntag_49:\n    /* \"#utility.yul\":1482:1556   */\n  swap3\n  pop\n    /* \"#utility.yul\":1438:1566   */\n  pop\n    /* \"#utility.yul\":1605:1607   */\n  0x20\n    /* \"#utility.yul\":1631:1695   */\n  tag_50\n    /* \"#utility.yul\":1687:1694   */\n  dup6\n    /* \"#utility.yul\":1678:1684   */\n  dup3\n    /* \"#utility.yul\":1667:1676   */\n  dup7\n    /* \"#utility.yul\":1663:1685   */\n  add\n    /* \"#utility.yul\":1631:1695   */\n  tag_22\n  jump\t// in\ntag_50:\n    /* \"#utility.yul\":1621:1695   */\n  swap2\n  pop\n    /* \"#utility.yul\":1576:1705   */\n  pop\n    /* \"#utility.yul\":1205:1712   */\n  swap3\n  pop\n  swap3\n  swap1\n  pop\n  jump\t// out\n    /* \"#utility.yul\":1718:1887   */\ntag_23:\n    /* \"#utility.yul\":1802:1813   */\n  0x00\n    /* \"#utility.yul\":1836:1842   */\n  dup3\n    /* \"#utility.yul\":1831:1834   */\n  dup3\n    /* \"#utility.yul\":1824:1843   */\n  mstore\n    /* \"#utility.yul\":1876:1880   */\n  0x20\n    /* \"#utility.yul\":1871:1874   */\n  dup3\n    /* \"#utility.yul\":1867:1881   */\n  add\n    /* \"#utility.yul\":1852:1881   */\n  swap1\n  pop\n    /* \"#utility.yul\":1718:1887   */\n  swap3\n  swap2\n  pop\n  pop\n  jump\t// out\n    /* \"#utility.yul\":1893:2062   */\ntag_24:\n    /* \"#utility.yul\":2033:2054   */\n  0x496e76616c6964204e4654206164647265737300000000000000000000000000\n    /* \"#utility.yul\":2029:2030   */\n  0x00\n    /* \"#utility.yul\":2021:2027   */\n  dup3\n    /* \"#utility.yul\":2017:2031   */\n  add\n    /* \"#utility.yul\":2010:2055   */\n  mstore\n    /* \"#utility.yul\":1893:2062   */\n  pop\n  jump\t// out\n    /* \"#utility.yul\":2068:2434   */\ntag_25:\n    /* \"#utility.yul\":2210:2213   */\n  0x00\n    /* \"#utility.yul\":2231:2298   */\n  tag_54\n    /* \"#utility.yul\":2295:2297   */\n  0x13\n    /* \"#utility.yul\":2290:2293   */\n  dup4\n    /* \"#utility.yul\":2231:2298   */\n  tag_23\n  jump\t// in\ntag_54:\n    /* \"#utility.yul\":2224:2298   */\n  swap2\n  pop\n    /* \"#utility.yul\":2307:2400   */\n  tag_55\n    /* \"#utility.yul\":2396:2399   */\n  dup3\n    /* \"#utility.yul\":2307:2400   */\n  tag_24\n  jump\t// in\ntag_55:\n    /* \"#utility.yul\":2425:2427   */\n  0x20\n    /* \"#utility.yul\":2420:2423   */\n  dup3\n    /* \"#utility.yul\":2416:2428   */\n  add\n    /* \"#utility.yul\":2409:2428   */\n  swap1\n  pop\n    /* \"#utility.yul\":2068:2434   */\n  swap2\n  swap1\n  pop\n  jump\t// out\n    /* \"#utility.yul\":2440:2859   */\ntag_8:\n    /* \"#utility.yul\":2606:2610   */\n  0x00\n    /* \"#utility.yul\":2644:2646   */\n  0x20\n    /* \"#utility.yul\":2633:2642   */\n  dup3\n    /* \"#utility.yul\":2629:2647   */\n  add\n    /* \"#utility.yul\":2621:2647   */\n  swap1\n  pop\n    /* \"#utility.yul\":2693:2702   */\n  dup2\n    /* \"#utility.yul\":2687:2691   */\n  dup2\n    /* \"#utility.yul\":2683:2703   */\n  sub\n    /* \"#utility.yul\":2679:2680   */\n  0x00\n    /* \"#utility.yul\":2668:2677   */\n  dup4\n    /* \"#utility.yul\":2664:2681   */\n  add\n    /* \"#utility.yul\":2657:2704   */\n  mstore\n    /* \"#utility.yul\":2721:2852   */\n  tag_57\n    /* \"#utility.yul\":2847:2851   */\n  dup2\n    /* \"#utility.yul\":2721:2852   */\n  tag_25\n  jump\t// in\ntag_57:\n    /* \"#utility.yul\":2713:2852   */\n  swap1\n  pop\n    /* \"#utility.yul\":2440:2859   */\n  swap2\n  swap1\n  pop\n  jump\t// out\n    /* \"#utility.yul\":2865:3034   */\ntag_26:\n    /* \"#utility.yul\":3005:3026   */\n  0x436f6d6d697373696f6e20746f6f206869676800000000000000000000000000\n    /* \"#utility.yul\":3001:3002   */\n  0x00\n    /* \"#utility.yul\":2993:2999   */\n  dup3\n    /* \"#utility.yul\":2989:3003   */\n  add\n    /* \"#utility.yul\":2982:3027   */\n  mstore\n    /* \"#utility.yul\":2865:3034   */\n  pop\n  jump\t// out\n    /* \"#utility.yul\":3040:3406   */\ntag_27:\n    /* \"#utility.yul\":3182:3185   */\n  0x00\n    /* \"#utility.yul\":3203:3270   */\n  tag_60\n    /* \"#utility.yul\":3267:3269   */\n  0x13\n    /* \"#utility.yul\":3262:3265   */\n  dup4\n    /* \"#utility.yul\":3203:3270   */\n  tag_23\n  jump\t// in\ntag_60:\n    /* \"#utility.yul\":3196:3270   */\n  swap2\n  pop\n    /* \"#utility.yul\":3279:3372   */\n  tag_61\n    /* \"#utility.yul\":3368:3371   */\n  dup3\n    /* \"#utility.yul\":3279:3372   */\n  tag_26\n  jump\t// in\ntag_61:\n    /* \"#utility.yul\":3397:3399   */\n  0x20\n    /* \"#utility.yul\":3392:3395   */\n  dup3\n    /* \"#utility.yul\":3388:3400   */\n  add\n    /* \"#utility.yul\":3381:3400   */\n  swap1\n  pop\n    /* \"#utility.yul\":3040:3406   */\n  swap2\n  swap1\n  pop\n  jump\t// out\n    /* \"#utility.yul\":3412:3831   */\ntag_11:\n    /* \"#utility.yul\":3578:3582   */\n  0x00\n    /* \"#utility.yul\":3616:3618   */\n  0x20\n    /* \"#utility.yul\":3605:3614   */\n  dup3\n    /* \"#utility.yul\":3601:3619   */\n  add\n    /* \"#utility.yul\":3593:3619   */\n  swap1\n  pop\n    /* \"#utility.yul\":3665:3674   */\n  dup2\n    /* \"#utility.yul\":3659:3663   */\n  dup2\n    /* \"#utility.yul\":3655:3675   */\n  sub\n    /* \"#utility.yul\":3651:3652   */\n  0x00\n    /* \"#utility.yul\":3640:3649   */\n  dup4\n    /* \"#utility.yul\":3636:3653   */\n  add\n    /* \"#utility.yul\":3629:3676   */\n  mstore\n    /* \"#utility.yul\":3693:3824   */\n  tag_63\n    /* \"#utility.yul\":3819:3823   */\n  dup2\n    /* \"#utility.yul\":3693:3824   */\n  tag_27\n  jump\t// in\ntag_63:\n    /* \"#utility.yul\":3685:3824   */\n  swap1\n  pop\n    /* \"#utility.yul\":3412:3831   */\n  swap2\n  swap1\n  pop\n  jump\t// out\n    /* \"contracts/Orders.sol\":347:8943  contract Marketplace {... */\ntag_12:\n  mload(0x80)\n  mload(0xa0)\n  mload(0xc0)\n  codecopy(0x00, dataOffset(sub_0), dataSize(sub_0))\n  0x00\n  assignImmutable(\"0x84b3f9c1584778fd0609bd44bae524185bcc8a7d9057a78c14d22945c29b7555\")\n  0x00\n  assignImmutable(\"0xd665d3e31f8da4f93255a62fad5ad42e8302e9c9a226187d84d77d13775d3867\")\n  0x00\n  assignImmutable(\"0x7250aaa7e48e376ad351a6e6358b82b301c238eb6d491d8aad7b3212de4449d6\")\n  return(0x00, dataSize(sub_0))\nstop\n\nsub_0: assembly {\n        /* \"contracts/Orders.sol\":347:8943  contract Marketplace {... */\n      mstore(0x40, 0x80)\n      jumpi(tag_1, lt(calldatasize, 0x04))\n      shr(0xe0, calldataload(0x00))\n      dup1\n      0x9acaa6fb\n      gt\n      tag_19\n      jumpi\n      dup1\n      0xd56d229d\n      gt\n      tag_20\n      jumpi\n      dup1\n      0xd56d229d\n      eq\n      tag_15\n      jumpi\n      dup1\n      0xd8cba251\n      eq\n      tag_16\n      jumpi\n      dup1\n      0xde74e57b\n      eq\n      tag_17\n      jumpi\n      dup1\n      0xf3f43703\n      eq\n      tag_18\n      jumpi\n      jump(tag_2)\n    tag_20:\n      dup1\n      0x9acaa6fb\n      eq\n      tag_11\n      jumpi\n      dup1\n      0x9b83cddc\n      eq\n      tag_12\n      jumpi\n      dup1\n      0xae97dde8\n      eq\n      tag_13\n      jumpi\n      dup1\n      0xcc85a55b\n      eq\n      tag_14\n      jumpi\n      jump(tag_2)\n    tag_19:\n      dup1\n      0x404a9ab8\n      gt\n      tag_21\n      jumpi\n      dup1\n      0x404a9ab8\n      eq\n      tag_7\n      jumpi\n      dup1\n      0x51e61b25\n      eq\n      tag_8\n      jumpi\n      dup1\n      0x77d3550b\n      eq\n      tag_9\n      jumpi\n      dup1\n      0x8da5cb5b\n      eq\n      tag_10\n      jumpi\n      jump(tag_2)\n    tag_21:\n      dup1\n      0x169d5a7d\n      eq\n      tag_3\n      jumpi\n      dup1\n      0x24600fc3\n      eq\n      tag_4\n      jumpi\n      dup1\n      0x2f745c59\n      eq\n      tag_5\n      jumpi\n      dup1\n      0x305a67a8\n      eq\n      tag_6\n      jumpi\n      jump(tag_2)\n    tag_1:\n      jumpi(tag_2, calldatasize)\n      stop\n    tag_2:\n      0x00\n      dup1\n      revert\n        /* \"contracts/Orders.sol\":4731:6023  function purchaseListing(uint256 _listingId) external payable{... */\n    tag_3:\n      tag_24\n      0x04\n      dup1\n      calldatasize\n      sub\n      dup2\n      add\n      swap1\n      tag_25\n      swap2\n      swap1\n      tag_26\n      jump\t// in\n    tag_25:\n      tag_27\n      jump\t// in\n    tag_24:\n      stop\n        /* \"contracts/Orders.sol\":6994:7379  function withdrawFunds() external onlyOwner {... */\n    tag_4:\n      callvalue\n      dup1\n      iszero\n      tag_28\n      jumpi\n      0x00\n      dup1\n      revert\n    tag_28:\n      pop\n      tag_29\n      tag_30\n      jump\t// in\n    tag_29:\n      stop\n        /* \"contracts/Orders.sol\":7636:7837  function tokenOfOwnerByIndex(address _owner, uint256 index) ... */\n    tag_5:\n      callvalue\n      dup1\n      iszero\n      tag_31\n      jumpi\n      0x00\n      dup1\n      revert\n    tag_31:\n      pop\n      tag_32\n      0x04\n      dup1\n      calldatasize\n      sub\n      dup2\n      add\n      swap1\n      tag_33\n      swap2\n      swap1\n      tag_34\n      jump\t// in\n    tag_33:\n      tag_35\n      jump\t// in\n    tag_32:\n      mload(0x40)\n      tag_36\n      swap2\n      swap1\n      tag_37\n      jump\t// in\n    tag_36:\n      mload(0x40)\n      dup1\n      swap2\n      sub\n      swap1\n      return\n        /* \"contracts/Orders.sol\":6147:6530  function cancelListing(uint256 _listingId) external {... */\n    tag_6:\n      callvalue\n      dup1\n      iszero\n      tag_38\n      jumpi\n      0x00\n      dup1\n      revert\n    tag_38:\n      pop\n      tag_39\n      0x04\n      dup1\n      calldatasize\n      sub\n      dup2\n      add\n      swap1\n      tag_40\n      swap2\n      swap1\n      tag_26\n      jump\t// in\n    tag_40:\n      tag_41\n      jump\t// in\n    tag_39:\n      stop\n        /* \"contracts/Orders.sol\":6689:6927  function setCommissionPercent(uint256 _newPercent) external onlyOwner {... */\n    tag_7:\n      callvalue\n      dup1\n      iszero\n      tag_42\n      jumpi\n      0x00\n      dup1\n      revert\n    tag_42:\n      pop\n      tag_43\n      0x04\n      dup1\n      calldatasize\n      sub\n      dup2\n      add\n      swap1\n      tag_44\n      swap2\n      swap1\n      tag_26\n      jump\t// in\n    tag_44:\n      tag_45\n      jump\t// in\n    tag_43:\n      stop\n        /* \"contracts/Orders.sol\":1415:1463  IERC721Enumerable public immutable nftEnumerable */\n    tag_8:\n      callvalue\n      dup1\n      iszero\n      tag_46\n      jumpi\n      0x00\n      dup1\n      revert\n    tag_46:\n      pop\n      tag_47\n      tag_48\n      jump\t// in\n    tag_47:\n      mload(0x40)\n      tag_49\n      swap2\n      swap1\n      tag_50\n      jump\t// in\n    tag_49:\n      mload(0x40)\n      dup1\n      swap2\n      sub\n      swap1\n      return\n        /* \"contracts/Orders.sol\":748:780  uint256 public commissionPercent */\n    tag_9:\n      callvalue\n      dup1\n      iszero\n      tag_51\n      jumpi\n      0x00\n      dup1\n      revert\n    tag_51:\n      pop\n      tag_52\n      tag_53\n      jump\t// in\n    tag_52:\n      mload(0x40)\n      tag_54\n      swap2\n      swap1\n      tag_37\n      jump\t// in\n    tag_54:\n      mload(0x40)\n      dup1\n      swap2\n      sub\n      swap1\n      return\n        /* \"contracts/Orders.sol\":606:644  address payable public immutable owner */\n    tag_10:\n      callvalue\n      dup1\n      iszero\n      tag_55\n      jumpi\n      0x00\n      dup1\n      revert\n    tag_55:\n      pop\n      tag_56\n      tag_57\n      jump\t// in\n    tag_56:\n      mload(0x40)\n      tag_58\n      swap2\n      swap1\n      tag_59\n      jump\t// in\n    tag_58:\n      mload(0x40)\n      dup1\n      swap2\n      sub\n      swap1\n      return\n        /* \"contracts/Orders.sol\":3517:4591  function createListing(uint128 _tokenId, uint128 _price) external {... */\n    tag_11:\n      callvalue\n      dup1\n      iszero\n      tag_60\n      jumpi\n      0x00\n      dup1\n      revert\n    tag_60:\n      pop\n      tag_61\n      0x04\n      dup1\n      calldatasize\n      sub\n      dup2\n      add\n      swap1\n      tag_62\n      swap2\n      swap1\n      tag_63\n      jump\t// in\n    tag_62:\n      tag_64\n      jump\t// in\n    tag_61:\n      stop\n        /* \"contracts/Orders.sol\":8015:8196  function isTokenListed(uint256 _tokenId) external view returns (bool) {... */\n    tag_12:\n      callvalue\n      dup1\n      iszero\n      tag_65\n      jumpi\n      0x00\n      dup1\n      revert\n    tag_65:\n      pop\n      tag_66\n      0x04\n      dup1\n      calldatasize\n      sub\n      dup2\n      add\n      swap1\n      tag_67\n      swap2\n      swap1\n      tag_26\n      jump\t// in\n    tag_67:\n      tag_68\n      jump\t// in\n    tag_66:\n      mload(0x40)\n      tag_69\n      swap2\n      swap1\n      tag_70\n      jump\t// in\n    tag_69:\n      mload(0x40)\n      dup1\n      swap2\n      sub\n      swap1\n      return\n        /* \"contracts/Orders.sol\":851:896  uint256 public constant MAX_COMMISSION = 5000 */\n    tag_13:\n      callvalue\n      dup1\n      iszero\n      tag_71\n      jumpi\n      0x00\n      dup1\n      revert\n    tag_71:\n      pop\n      tag_72\n      tag_73\n      jump\t// in\n    tag_72:\n      mload(0x40)\n      tag_74\n      swap2\n      swap1\n      tag_37\n      jump\t// in\n    tag_74:\n      mload(0x40)\n      dup1\n      swap2\n      sub\n      swap1\n      return\n        /* \"contracts/Orders.sol\":8399:8523  function getListingId(uint256 _tokenId) external view returns (uint256) {... */\n    tag_14:\n      callvalue\n      dup1\n      iszero\n      tag_75\n      jumpi\n      0x00\n      dup1\n      revert\n    tag_75:\n      pop\n      tag_76\n      0x04\n      dup1\n      calldatasize\n      sub\n      dup2\n      add\n      swap1\n      tag_77\n      swap2\n      swap1\n      tag_26\n      jump\t// in\n    tag_77:\n      tag_78\n      jump\t// in\n    tag_76:\n      mload(0x40)\n      tag_79\n      swap2\n      swap1\n      tag_37\n      jump\t// in\n    tag_79:\n      mload(0x40)\n      dup1\n      swap2\n      sub\n      swap1\n      return\n        /* \"contracts/Orders.sol\":1306:1342  IERC721 public immutable nftContract */\n    tag_15:\n      callvalue\n      dup1\n      iszero\n      tag_80\n      jumpi\n      0x00\n      dup1\n      revert\n    tag_80:\n      pop\n      tag_81\n      tag_82\n      jump\t// in\n    tag_81:\n      mload(0x40)\n      tag_83\n      swap2\n      swap1\n      tag_84\n      jump\t// in\n    tag_83:\n      mload(0x40)\n      dup1\n      swap2\n      sub\n      swap1\n      return\n        /* \"contracts/Orders.sol\":8697:8833  function getListingsBySeller(address _seller) external view returns (Listing[] memory) {... */\n    tag_16:\n      callvalue\n      dup1\n      iszero\n      tag_85\n      jumpi\n      0x00\n      dup1\n      revert\n    tag_85:\n      pop\n      tag_86\n      0x04\n      dup1\n      calldatasize\n      sub\n      dup2\n      add\n      swap1\n      tag_87\n      swap2\n      swap1\n      tag_88\n      jump\t// in\n    tag_87:\n      tag_89\n      jump\t// in\n    tag_86:\n      mload(0x40)\n      tag_90\n      swap2\n      swap1\n      tag_91\n      jump\t// in\n    tag_90:\n      mload(0x40)\n      dup1\n      swap2\n      sub\n      swap1\n      return\n        /* \"contracts/Orders.sol\":959:1002  mapping(uint256 => Listing) public listings */\n    tag_17:\n      callvalue\n      dup1\n      iszero\n      tag_92\n      jumpi\n      0x00\n      dup1\n      revert\n    tag_92:\n      pop\n      tag_93\n      0x04\n      dup1\n      calldatasize\n      sub\n      dup2\n      add\n      swap1\n      tag_94\n      swap2\n      swap1\n      tag_26\n      jump\t// in\n    tag_94:\n      tag_95\n      jump\t// in\n    tag_93:\n      mload(0x40)\n      tag_96\n      swap5\n      swap4\n      swap3\n      swap2\n      swap1\n      tag_97\n      jump\t// in\n    tag_96:\n      mload(0x40)\n      dup1\n      swap2\n      sub\n      swap1\n      return\n        /* \"contracts/Orders.sol\":1186:1239  mapping(address => uint256) public pendingWithdrawals */\n    tag_18:\n      callvalue\n      dup1\n      iszero\n      tag_98\n      jumpi\n      0x00\n      dup1\n      revert\n    tag_98:\n      pop\n      tag_99\n      0x04\n      dup1\n      calldatasize\n      sub\n      dup2\n      add\n      swap1\n      tag_100\n      swap2\n      swap1\n      tag_88\n      jump\t// in\n    tag_100:\n      tag_101\n      jump\t// in\n    tag_99:\n      mload(0x40)\n      tag_102\n      swap2\n      swap1\n      tag_37\n      jump\t// in\n    tag_102:\n      mload(0x40)\n      dup1\n      swap2\n      sub\n      swap1\n      return\n        /* \"contracts/Orders.sol\":4731:6023  function purchaseListing(uint256 _listingId) external payable{... */\n    tag_27:\n        /* \"contracts/Orders.sol\":4803:4826  Listing storage listing */\n      0x00\n        /* \"contracts/Orders.sol\":4829:4837  listings */\n      0x01\n        /* \"contracts/Orders.sol\":4829:4849  listings[_listingId] */\n      0x00\n        /* \"contracts/Orders.sol\":4838:4848  _listingId */\n      dup4\n        /* \"contracts/Orders.sol\":4829:4849  listings[_listingId] */\n      dup2\n      mstore\n      0x20\n      add\n      swap1\n      dup2\n      mstore\n      0x20\n      add\n      0x00\n      keccak256\n        /* \"contracts/Orders.sol\":4803:4849  Listing storage listing = listings[_listingId] */\n      swap1\n      pop\n        /* \"contracts/Orders.sol\":4868:4875  listing */\n      dup1\n        /* \"contracts/Orders.sol\":4868:4884  listing.isActive */\n      0x02\n      add\n      0x00\n      swap1\n      sload\n      swap1\n      0x0100\n      exp\n      swap1\n      div\n      0xff\n      and\n        /* \"contracts/Orders.sol\":4860:4907  require(listing.isActive, \"Listing not active\") */\n      tag_104\n      jumpi\n      mload(0x40)\n      0x08c379a000000000000000000000000000000000000000000000000000000000\n      dup2\n      mstore\n      0x04\n      add\n      tag_105\n      swap1\n      tag_106\n      jump\t// in\n    tag_105:\n      mload(0x40)\n      dup1\n      swap2\n      sub\n      swap1\n      revert\n    tag_104:\n        /* \"contracts/Orders.sol\":4939:4946  listing */\n      dup1\n        /* \"contracts/Orders.sol\":4939:4952  listing.price */\n      0x01\n      add\n      0x10\n      swap1\n      sload\n      swap1\n      0x0100\n      exp\n      swap1\n      div\n      0xffffffffffffffffffffffffffffffff\n      and\n        /* \"contracts/Orders.sol\":4926:4952  msg.value >= listing.price */\n      0xffffffffffffffffffffffffffffffff\n      and\n        /* \"contracts/Orders.sol\":4926:4935  msg.value */\n      callvalue\n        /* \"contracts/Orders.sol\":4926:4952  msg.value >= listing.price */\n      lt\n      iszero\n        /* \"contracts/Orders.sol\":4918:4977  require(msg.value >= listing.price, \"Insufficient payment\") */\n      tag_107\n      jumpi\n      mload(0x40)\n      0x08c379a000000000000000000000000000000000000000000000000000000000\n      dup2\n      mstore\n      0x04\n      add\n      tag_108\n      swap1\n      tag_109\n      jump\t// in\n    tag_108:\n      mload(0x40)\n      dup1\n      swap2\n      sub\n      swap1\n      revert\n    tag_107:\n        /* \"contracts/Orders.sol\":5010:5017  listing */\n      dup1\n        /* \"contracts/Orders.sol\":5010:5024  listing.seller */\n      0x00\n      add\n      0x00\n      swap1\n      sload\n      swap1\n      0x0100\n      exp\n      swap1\n      div\n      0xffffffffffffffffffffffffffffffffffffffff\n      and\n        /* \"contracts/Orders.sol\":4996:5024  msg.sender != listing.seller */\n      0xffffffffffffffffffffffffffffffffffffffff\n      and\n        /* \"contracts/Orders.sol\":4996:5006  msg.sender */\n      caller\n        /* \"contracts/Orders.sol\":4996:5024  msg.sender != listing.seller */\n      0xffffffffffffffffffffffffffffffffffffffff\n      and\n      sub\n        /* \"contracts/Orders.sol\":4988:5051  require(msg.sender != listing.seller, \"Cannot buy own listing\") */\n      tag_110\n      jumpi\n      mload(0x40)\n      0x08c379a000000000000000000000000000000000000000000000000000000000\n      dup2\n      mstore\n      0x04\n      add\n      tag_111\n      swap1\n      tag_112\n      jump\t// in\n    tag_111:\n      mload(0x40)\n      dup1\n      swap2\n      sub\n      swap1\n      revert\n    tag_110:\n        /* \"contracts/Orders.sol\":5064:5088  uint256 commissionAmount */\n      0x00\n        /* \"contracts/Orders.sol\":5125:5130  10000 */\n      0x2710\n        /* \"contracts/Orders.sol\":5104:5121  commissionPercent */\n      sload(0x00)\n        /* \"contracts/Orders.sol\":5092:5101  msg.value */\n      callvalue\n        /* \"contracts/Orders.sol\":5092:5121  msg.value * commissionPercent */\n      tag_113\n      swap2\n      swap1\n      tag_114\n      jump\t// in\n    tag_113:\n        /* \"contracts/Orders.sol\":5091:5130  (msg.value * commissionPercent) / 10000 */\n      tag_115\n      swap2\n      swap1\n      tag_116\n      jump\t// in\n    tag_115:\n        /* \"contracts/Orders.sol\":5064:5130  uint256 commissionAmount = (msg.value * commissionPercent) / 10000 */\n      swap1\n      pop\n        /* \"contracts/Orders.sol\":5141:5161  uint256 sellerAmount */\n      0x00\n        /* \"contracts/Orders.sol\":5176:5192  commissionAmount */\n      dup2\n        /* \"contracts/Orders.sol\":5164:5173  msg.value */\n      callvalue\n        /* \"contracts/Orders.sol\":5164:5192  msg.value - commissionAmount */\n      tag_117\n      swap2\n      swap1\n      tag_118\n      jump\t// in\n    tag_117:\n        /* \"contracts/Orders.sol\":5141:5192  uint256 sellerAmount = msg.value - commissionAmount */\n      swap1\n      pop\n        /* \"contracts/Orders.sol\":5267:5274  listing */\n      dup3\n        /* \"contracts/Orders.sol\":5267:5281  listing.seller */\n      0x00\n      add\n      0x00\n      swap1\n      sload\n      swap1\n      0x0100\n      exp\n      swap1\n      div\n      0xffffffffffffffffffffffffffffffffffffffff\n      and\n        /* \"contracts/Orders.sol\":5227:5281  nftContract.ownerOf(listing.tokenId) == listing.seller */\n      0xffffffffffffffffffffffffffffffffffffffff\n      and\n        /* \"contracts/Orders.sol\":5227:5238  nftContract */\n      immutable(\"0xd665d3e31f8da4f93255a62fad5ad42e8302e9c9a226187d84d77d13775d3867\")\n        /* \"contracts/Orders.sol\":5227:5246  nftContract.ownerOf */\n      0xffffffffffffffffffffffffffffffffffffffff\n      and\n      0x6352211e\n        /* \"contracts/Orders.sol\":5247:5254  listing */\n      dup6\n        /* \"contracts/Orders.sol\":5247:5262  listing.tokenId */\n      0x01\n      add\n      0x00\n      swap1\n      sload\n      swap1\n      0x0100\n      exp\n      swap1\n      div\n      0xffffffffffffffffffffffffffffffff\n      and\n        /* \"contracts/Orders.sol\":5227:5263  nftContract.ownerOf(listing.tokenId) */\n      mload(0x40)\n      dup3\n      0xffffffff\n      and\n      0xe0\n      shl\n      dup2\n      mstore\n      0x04\n      add\n      tag_119\n      swap2\n      swap1\n      tag_120\n      jump\t// in\n    tag_119:\n      0x20\n      mload(0x40)\n      dup1\n      dup4\n      sub\n      dup2\n      dup7\n      gas\n      staticcall\n      iszero\n      dup1\n      iszero\n      tag_122\n      jumpi\n      returndatasize\n      0x00\n      dup1\n      returndatacopy\n      revert(0x00, returndatasize)\n    tag_122:\n      pop\n      pop\n      pop\n      pop\n      mload(0x40)\n      returndatasize\n      not(0x1f)\n      0x1f\n      dup3\n      add\n      and\n      dup3\n      add\n      dup1\n      0x40\n      mstore\n      pop\n      dup2\n      add\n      swap1\n      tag_123\n      swap2\n      swap1\n      tag_124\n      jump\t// in\n    tag_123:\n        /* \"contracts/Orders.sol\":5227:5281  nftContract.ownerOf(listing.tokenId) == listing.seller */\n      0xffffffffffffffffffffffffffffffffffffffff\n      and\n      eq\n        /* \"contracts/Orders.sol\":5205:5334  require(... */\n      tag_125\n      jumpi\n      mload(0x40)\n      0x08c379a000000000000000000000000000000000000000000000000000000000\n      dup2\n      mstore\n      0x04\n      add\n      tag_126\n      swap1\n      tag_127\n      jump\t// in\n    tag_126:\n      mload(0x40)\n      dup1\n      swap2\n      sub\n      swap1\n      revert\n    tag_125:\n        /* \"contracts/Orders.sol\":5367:5378  nftContract */\n      immutable(\"0xd665d3e31f8da4f93255a62fad5ad42e8302e9c9a226187d84d77d13775d3867\")\n        /* \"contracts/Orders.sol\":5367:5395  nftContract.isApprovedForAll */\n      0xffffffffffffffffffffffffffffffffffffffff\n      and\n      0xe985e9c5\n        /* \"contracts/Orders.sol\":5396:5403  listing */\n      dup5\n        /* \"contracts/Orders.sol\":5396:5410  listing.seller */\n      0x00\n      add\n      0x00\n      swap1\n      sload\n      swap1\n      0x0100\n      exp\n      swap1\n      div\n      0xffffffffffffffffffffffffffffffffffffffff\n      and\n        /* \"contracts/Orders.sol\":5420:5424  this */\n      address\n        /* \"contracts/Orders.sol\":5367:5426  nftContract.isApprovedForAll(listing.seller, address(this)) */\n      mload(0x40)\n      dup4\n      0xffffffff\n      and\n      0xe0\n      shl\n      dup2\n      mstore\n      0x04\n      add\n      tag_128\n      swap3\n      swap2\n      swap1\n      tag_129\n      jump\t// in\n    tag_128:\n      0x20\n      mload(0x40)\n      dup1\n      dup4\n      sub\n      dup2\n      dup7\n      gas\n      staticcall\n      iszero\n      dup1\n      iszero\n      tag_131\n      jumpi\n      returndatasize\n      0x00\n      dup1\n      returndatacopy\n      revert(0x00, returndatasize)\n    tag_131:\n      pop\n      pop\n      pop\n      pop\n      mload(0x40)\n      returndatasize\n      not(0x1f)\n      0x1f\n      dup3\n      add\n      and\n      dup3\n      add\n      dup1\n      0x40\n      mstore\n      pop\n      dup2\n      add\n      swap1\n      tag_132\n      swap2\n      swap1\n      tag_133\n      jump\t// in\n    tag_132:\n        /* \"contracts/Orders.sol\":5367:5500  nftContract.isApprovedForAll(listing.seller, address(this)) ||... */\n      dup1\n      tag_134\n      jumpi\n      pop\n        /* \"contracts/Orders.sol\":5495:5499  this */\n      address\n        /* \"contracts/Orders.sol\":5443:5500  nftContract.getApproved(listing.tokenId) == address(this) */\n      0xffffffffffffffffffffffffffffffffffffffff\n      and\n        /* \"contracts/Orders.sol\":5443:5454  nftContract */\n      immutable(\"0xd665d3e31f8da4f93255a62fad5ad42e8302e9c9a226187d84d77d13775d3867\")\n        /* \"contracts/Orders.sol\":5443:5466  nftContract.getApproved */\n      0xffffffffffffffffffffffffffffffffffffffff\n      and\n      0x081812fc\n        /* \"contracts/Orders.sol\":5467:5474  listing */\n      dup6\n        /* \"contracts/Orders.sol\":5467:5482  listing.tokenId */\n      0x01\n      add\n      0x00\n      swap1\n      sload\n      swap1\n      0x0100\n      exp\n      swap1\n      div\n      0xffffffffffffffffffffffffffffffff\n      and\n        /* \"contracts/Orders.sol\":5443:5483  nftContract.getApproved(listing.tokenId) */\n      mload(0x40)\n      dup3\n      0xffffffff\n      and\n      0xe0\n      shl\n      dup2\n      mstore\n      0x04\n      add\n      tag_135\n      swap2\n      swap1\n      tag_120\n      jump\t// in\n    tag_135:\n      0x20\n      mload(0x40)\n      dup1\n      dup4\n      sub\n      dup2\n      dup7\n      gas\n      staticcall\n      iszero\n      dup1\n      iszero\n      tag_137\n      jumpi\n      returndatasize\n      0x00\n      dup1\n      returndatacopy\n      revert(0x00, returndatasize)\n    tag_137:\n      pop\n      pop\n      pop\n      pop\n      mload(0x40)\n      returndatasize\n      not(0x1f)\n      0x1f\n      dup3\n      add\n      and\n      dup3\n      add\n      dup1\n      0x40\n      mstore\n      pop\n      dup2\n      add\n      swap1\n      tag_138\n      swap2\n      swap1\n      tag_124\n      jump\t// in\n    tag_138:\n        /* \"contracts/Orders.sol\":5443:5500  nftContract.getApproved(listing.tokenId) == address(this) */\n      0xffffffffffffffffffffffffffffffffffffffff\n      and\n      eq\n        /* \"contracts/Orders.sol\":5367:5500  nftContract.isApprovedForAll(listing.seller, address(this)) ||... */\n    tag_134:\n        /* \"contracts/Orders.sol\":5345:5540  require(... */\n      tag_139\n      jumpi\n      mload(0x40)\n      0x08c379a000000000000000000000000000000000000000000000000000000000\n      dup2\n      mstore\n      0x04\n      add\n      tag_140\n      swap1\n      tag_141\n      jump\t// in\n    tag_140:\n      mload(0x40)\n      dup1\n      swap2\n      sub\n      swap1\n      revert\n    tag_139:\n        /* \"contracts/Orders.sol\":5572:5577  false */\n      0x00\n        /* \"contracts/Orders.sol\":5553:5560  listing */\n      dup4\n        /* \"contracts/Orders.sol\":5553:5569  listing.isActive */\n      0x02\n      add\n      0x00\n        /* \"contracts/Orders.sol\":5553:5577  listing.isActive = false */\n      0x0100\n      exp\n      dup2\n      sload\n      dup2\n      0xff\n      mul\n      not\n      and\n      swap1\n      dup4\n      iszero\n      iszero\n      mul\n      or\n      swap1\n      sstore\n      pop\n        /* \"contracts/Orders.sol\":5595:5611  tokenToListingId */\n      0x02\n        /* \"contracts/Orders.sol\":5595:5628  tokenToListingId[listing.tokenId] */\n      0x00\n        /* \"contracts/Orders.sol\":5612:5619  listing */\n      dup5\n        /* \"contracts/Orders.sol\":5612:5627  listing.tokenId */\n      0x01\n      add\n      0x00\n      swap1\n      sload\n      swap1\n      0x0100\n      exp\n      swap1\n      div\n      0xffffffffffffffffffffffffffffffff\n      and\n        /* \"contracts/Orders.sol\":5595:5628  tokenToListingId[listing.tokenId] */\n      0xffffffffffffffffffffffffffffffff\n      and\n      dup2\n      mstore\n      0x20\n      add\n      swap1\n      dup2\n      mstore\n      0x20\n      add\n      0x00\n      keccak256\n        /* \"contracts/Orders.sol\":5588:5628  delete tokenToListingId[listing.tokenId] */\n      0x00\n      swap1\n      sstore\n        /* \"contracts/Orders.sol\":5668:5684  commissionAmount */\n      dup2\n        /* \"contracts/Orders.sol\":5639:5657  pendingWithdrawals */\n      0x03\n        /* \"contracts/Orders.sol\":5639:5664  pendingWithdrawals[owner] */\n      0x00\n        /* \"contracts/Orders.sol\":5658:5663  owner */\n      immutable(\"0x7250aaa7e48e376ad351a6e6358b82b301c238eb6d491d8aad7b3212de4449d6\")\n        /* \"contracts/Orders.sol\":5639:5664  pendingWithdrawals[owner] */\n      0xffffffffffffffffffffffffffffffffffffffff\n      and\n      0xffffffffffffffffffffffffffffffffffffffff\n      and\n      dup2\n      mstore\n      0x20\n      add\n      swap1\n      dup2\n      mstore\n      0x20\n      add\n      0x00\n      keccak256\n      0x00\n        /* \"contracts/Orders.sol\":5639:5684  pendingWithdrawals[owner] += commissionAmount */\n      dup3\n      dup3\n      sload\n      tag_142\n      swap2\n      swap1\n      tag_143\n      jump\t// in\n    tag_142:\n      swap3\n      pop\n      pop\n      dup2\n      swap1\n      sstore\n      pop\n        /* \"contracts/Orders.sol\":5733:5745  sellerAmount */\n      dup1\n        /* \"contracts/Orders.sol\":5695:5713  pendingWithdrawals */\n      0x03\n        /* \"contracts/Orders.sol\":5695:5729  pendingWithdrawals[listing.seller] */\n      0x00\n        /* \"contracts/Orders.sol\":5714:5721  listing */\n      dup6\n        /* \"contracts/Orders.sol\":5714:5728  listing.seller */\n      0x00\n      add\n      0x00\n      swap1\n      sload\n      swap1\n      0x0100\n      exp\n      swap1\n      div\n      0xffffffffffffffffffffffffffffffffffffffff\n      and\n        /* \"contracts/Orders.sol\":5695:5729  pendingWithdrawals[listing.seller] */\n      0xffffffffffffffffffffffffffffffffffffffff\n      and\n      0xffffffffffffffffffffffffffffffffffffffff\n      and\n      dup2\n      mstore\n      0x20\n      add\n      swap1\n      dup2\n      mstore\n      0x20\n      add\n      0x00\n      keccak256\n      0x00\n        /* \"contracts/Orders.sol\":5695:5745  pendingWithdrawals[listing.seller] += sellerAmount */\n      dup3\n      dup3\n      sload\n      tag_144\n      swap2\n      swap1\n      tag_143\n      jump\t// in\n    tag_144:\n      swap3\n      pop\n      pop\n      dup2\n      swap1\n      sstore\n      pop\n        /* \"contracts/Orders.sol\":5758:5769  nftContract */\n      immutable(\"0xd665d3e31f8da4f93255a62fad5ad42e8302e9c9a226187d84d77d13775d3867\")\n        /* \"contracts/Orders.sol\":5758:5786  nftContract.safeTransferFrom */\n      0xffffffffffffffffffffffffffffffffffffffff\n      and\n      0x42842e0e\n        /* \"contracts/Orders.sol\":5787:5794  listing */\n      dup5\n        /* \"contracts/Orders.sol\":5787:5801  listing.seller */\n      0x00\n      add\n      0x00\n      swap1\n      sload\n      swap1\n      0x0100\n      exp\n      swap1\n      div\n      0xffffffffffffffffffffffffffffffffffffffff\n      and\n        /* \"contracts/Orders.sol\":5803:5813  msg.sender */\n      caller\n        /* \"contracts/Orders.sol\":5815:5822  listing */\n      dup7\n        /* \"contracts/Orders.sol\":5815:5830  listing.tokenId */\n      0x01\n      add\n      0x00\n      swap1\n      sload\n      swap1\n      0x0100\n      exp\n      swap1\n      div\n      0xffffffffffffffffffffffffffffffff\n      and\n        /* \"contracts/Orders.sol\":5758:5831  nftContract.safeTransferFrom(listing.seller, msg.sender, listing.tokenId) */\n      mload(0x40)\n      dup5\n      0xffffffff\n      and\n      0xe0\n      shl\n      dup2\n      mstore\n      0x04\n      add\n      tag_145\n      swap4\n      swap3\n      swap2\n      swap1\n      tag_146\n      jump\t// in\n    tag_145:\n      0x00\n      mload(0x40)\n      dup1\n      dup4\n      sub\n      dup2\n      0x00\n      dup8\n      dup1\n      extcodesize\n      iszero\n      dup1\n      iszero\n      tag_147\n      jumpi\n      0x00\n      dup1\n      revert\n    tag_147:\n      pop\n      gas\n      call\n      iszero\n      dup1\n      iszero\n      tag_149\n      jumpi\n      returndatasize\n      0x00\n      dup1\n      returndatacopy\n      revert(0x00, returndatasize)\n    tag_149:\n      pop\n      pop\n      pop\n      pop\n        /* \"contracts/Orders.sol\":5906:5916  msg.sender */\n      caller\n        /* \"contracts/Orders.sol\":5849:6015  PurchaseCompleted(... */\n      0xffffffffffffffffffffffffffffffffffffffff\n      and\n        /* \"contracts/Orders.sol\":5881:5891  _listingId */\n      dup5\n        /* \"contracts/Orders.sol\":5849:6015  PurchaseCompleted(... */\n      0xe29b93709a7ac5e91a6057482d1df985483725988417e08dec23377234003c80\n        /* \"contracts/Orders.sol\":5931:5938  listing */\n      dup6\n        /* \"contracts/Orders.sol\":5931:5946  listing.tokenId */\n      0x01\n      add\n      0x00\n      swap1\n      sload\n      swap1\n      0x0100\n      exp\n      swap1\n      div\n      0xffffffffffffffffffffffffffffffff\n      and\n        /* \"contracts/Orders.sol\":5961:5968  listing */\n      dup7\n        /* \"contracts/Orders.sol\":5961:5974  listing.price */\n      0x01\n      add\n      0x10\n      swap1\n      sload\n      swap1\n      0x0100\n      exp\n      swap1\n      div\n      0xffffffffffffffffffffffffffffffff\n      and\n        /* \"contracts/Orders.sol\":5989:6004  block.timestamp */\n      timestamp\n        /* \"contracts/Orders.sol\":5849:6015  PurchaseCompleted(... */\n      mload(0x40)\n      tag_150\n      swap4\n      swap3\n      swap2\n      swap1\n      tag_151\n      jump\t// in\n    tag_150:\n      mload(0x40)\n      dup1\n      swap2\n      sub\n      swap1\n      log3\n        /* \"contracts/Orders.sol\":4792:6023  {... */\n      pop\n      pop\n      pop\n        /* \"contracts/Orders.sol\":4731:6023  function purchaseListing(uint256 _listingId) external payable{... */\n      pop\n      jump\t// out\n        /* \"contracts/Orders.sol\":6994:7379  function withdrawFunds() external onlyOwner {... */\n    tag_30:\n        /* \"contracts/Orders.sol\":2586:2591  owner */\n      immutable(\"0x7250aaa7e48e376ad351a6e6358b82b301c238eb6d491d8aad7b3212de4449d6\")\n        /* \"contracts/Orders.sol\":2572:2591  msg.sender == owner */\n      0xffffffffffffffffffffffffffffffffffffffff\n      and\n        /* \"contracts/Orders.sol\":2572:2582  msg.sender */\n      caller\n        /* \"contracts/Orders.sol\":2572:2591  msg.sender == owner */\n      0xffffffffffffffffffffffffffffffffffffffff\n      and\n      eq\n        /* \"contracts/Orders.sol\":2564:2606  require(msg.sender == owner, \"Only owner\") */\n      tag_153\n      jumpi\n      mload(0x40)\n      0x08c379a000000000000000000000000000000000000000000000000000000000\n      dup2\n      mstore\n      0x04\n      add\n      tag_154\n      swap1\n      tag_155\n      jump\t// in\n    tag_154:\n      mload(0x40)\n      dup1\n      swap2\n      sub\n      swap1\n      revert\n    tag_153:\n        /* \"contracts/Orders.sol\":7049:7063  uint256 amount */\n      0x00\n        /* \"contracts/Orders.sol\":7066:7084  pendingWithdrawals */\n      0x03\n        /* \"contracts/Orders.sol\":7066:7096  pendingWithdrawals[msg.sender] */\n      0x00\n        /* \"contracts/Orders.sol\":7085:7095  msg.sender */\n      caller\n        /* \"contracts/Orders.sol\":7066:7096  pendingWithdrawals[msg.sender] */\n      0xffffffffffffffffffffffffffffffffffffffff\n      and\n      0xffffffffffffffffffffffffffffffffffffffff\n      and\n      dup2\n      mstore\n      0x20\n      add\n      swap1\n      dup2\n      mstore\n      0x20\n      add\n      0x00\n      keccak256\n      sload\n        /* \"contracts/Orders.sol\":7049:7096  uint256 amount = pendingWithdrawals[msg.sender] */\n      swap1\n      pop\n        /* \"contracts/Orders.sol\":7124:7125  0 */\n      0x00\n        /* \"contracts/Orders.sol\":7115:7121  amount */\n      dup2\n        /* \"contracts/Orders.sol\":7115:7125  amount > 0 */\n      gt\n        /* \"contracts/Orders.sol\":7107:7150  require(amount > 0, \"No funds to withdraw\") */\n      tag_157\n      jumpi\n      mload(0x40)\n      0x08c379a000000000000000000000000000000000000000000000000000000000\n      dup2\n      mstore\n      0x04\n      add\n      tag_158\n      swap1\n      tag_159\n      jump\t// in\n    tag_158:\n      mload(0x40)\n      dup1\n      swap2\n      sub\n      swap1\n      revert\n    tag_157:\n        /* \"contracts/Orders.sol\":7197:7198  0 */\n      0x00\n        /* \"contracts/Orders.sol\":7164:7182  pendingWithdrawals */\n      0x03\n        /* \"contracts/Orders.sol\":7164:7194  pendingWithdrawals[msg.sender] */\n      0x00\n        /* \"contracts/Orders.sol\":7183:7193  msg.sender */\n      caller\n        /* \"contracts/Orders.sol\":7164:7194  pendingWithdrawals[msg.sender] */\n      0xffffffffffffffffffffffffffffffffffffffff\n      and\n      0xffffffffffffffffffffffffffffffffffffffff\n      and\n      dup2\n      mstore\n      0x20\n      add\n      swap1\n      dup2\n      mstore\n      0x20\n      add\n      0x00\n      keccak256\n        /* \"contracts/Orders.sol\":7164:7198  pendingWithdrawals[msg.sender] = 0 */\n      dup2\n      swap1\n      sstore\n      pop\n        /* \"contracts/Orders.sol\":7212:7224  bool success */\n      0x00\n        /* \"contracts/Orders.sol\":7238:7248  msg.sender */\n      caller\n        /* \"contracts/Orders.sol\":7230:7254  payable(msg.sender).call */\n      0xffffffffffffffffffffffffffffffffffffffff\n      and\n        /* \"contracts/Orders.sol\":7262:7268  amount */\n      dup3\n        /* \"contracts/Orders.sol\":7230:7273  payable(msg.sender).call{value: amount}(\"\") */\n      mload(0x40)\n      tag_160\n      swap1\n      tag_161\n      jump\t// in\n    tag_160:\n      0x00\n      mload(0x40)\n      dup1\n      dup4\n      sub\n      dup2\n      dup6\n      dup8\n      gas\n      call\n      swap3\n      pop\n      pop\n      pop\n      returndatasize\n      dup1\n      0x00\n      dup2\n      eq\n      tag_164\n      jumpi\n      mload(0x40)\n      swap2\n      pop\n      and(add(returndatasize, 0x3f), not(0x1f))\n      dup3\n      add\n      0x40\n      mstore\n      returndatasize\n      dup3\n      mstore\n      returndatasize\n      0x00\n      0x20\n      dup5\n      add\n      returndatacopy\n      jump(tag_163)\n    tag_164:\n      0x60\n      swap2\n      pop\n    tag_163:\n      pop\n        /* \"contracts/Orders.sol\":7211:7273  (bool success, ) = payable(msg.sender).call{value: amount}(\"\") */\n      pop\n      swap1\n      pop\n        /* \"contracts/Orders.sol\":7292:7299  success */\n      dup1\n        /* \"contracts/Orders.sol\":7284:7319  require(success, \"Transfer failed\") */\n      tag_165\n      jumpi\n      mload(0x40)\n      0x08c379a000000000000000000000000000000000000000000000000000000000\n      dup2\n      mstore\n      0x04\n      add\n      tag_166\n      swap1\n      tag_167\n      jump\t// in\n    tag_166:\n      mload(0x40)\n      dup1\n      swap2\n      sub\n      swap1\n      revert\n    tag_165:\n        /* \"contracts/Orders.sol\":7360:7370  msg.sender */\n      caller\n        /* \"contracts/Orders.sol\":7337:7371  FundsWithdrawn(amount, msg.sender) */\n      0xffffffffffffffffffffffffffffffffffffffff\n      and\n      0x6141b54b56b8a52a8c6f5cd2a857f6117b18ffbf4d46bd3106f300a839cbf5ea\n        /* \"contracts/Orders.sol\":7352:7358  amount */\n      dup4\n        /* \"contracts/Orders.sol\":7337:7371  FundsWithdrawn(amount, msg.sender) */\n      mload(0x40)\n      tag_168\n      swap2\n      swap1\n      tag_37\n      jump\t// in\n    tag_168:\n      mload(0x40)\n      dup1\n      swap2\n      sub\n      swap1\n      log2\n        /* \"contracts/Orders.sol\":7038:7379  {... */\n      pop\n      pop\n        /* \"contracts/Orders.sol\":6994:7379  function withdrawFunds() external onlyOwner {... */\n      jump\t// out\n        /* \"contracts/Orders.sol\":7636:7837  function tokenOfOwnerByIndex(address _owner, uint256 index) ... */\n    tag_35:\n        /* \"contracts/Orders.sol\":7748:7755  uint256 */\n      0x00\n        /* \"contracts/Orders.sol\":7781:7794  nftEnumerable */\n      immutable(\"0x84b3f9c1584778fd0609bd44bae524185bcc8a7d9057a78c14d22945c29b7555\")\n        /* \"contracts/Orders.sol\":7781:7814  nftEnumerable.tokenOfOwnerByIndex */\n      0xffffffffffffffffffffffffffffffffffffffff\n      and\n      0x2f745c59\n        /* \"contracts/Orders.sol\":7815:7821  _owner */\n      dup5\n        /* \"contracts/Orders.sol\":7823:7828  index */\n      dup5\n        /* \"contracts/Orders.sol\":7781:7829  nftEnumerable.tokenOfOwnerByIndex(_owner, index) */\n      mload(0x40)\n      dup4\n      0xffffffff\n      and\n      0xe0\n      shl\n      dup2\n      mstore\n      0x04\n      add\n      tag_170\n      swap3\n      swap2\n      swap1\n      tag_171\n      jump\t// in\n    tag_170:\n      0x20\n      mload(0x40)\n      dup1\n      dup4\n      sub\n      dup2\n      dup7\n      gas\n      staticcall\n      iszero\n      dup1\n      iszero\n      tag_173\n      jumpi\n      returndatasize\n      0x00\n      dup1\n      returndatacopy\n      revert(0x00, returndatasize)\n    tag_173:\n      pop\n      pop\n      pop\n      pop\n      mload(0x40)\n      returndatasize\n      not(0x1f)\n      0x1f\n      dup3\n      add\n      and\n      dup3\n      add\n      dup1\n      0x40\n      mstore\n      pop\n      dup2\n      add\n      swap1\n      tag_174\n      swap2\n      swap1\n      tag_175\n      jump\t// in\n    tag_174:\n        /* \"contracts/Orders.sol\":7774:7829  return nftEnumerable.tokenOfOwnerByIndex(_owner, index) */\n      swap1\n      pop\n        /* \"contracts/Orders.sol\":7636:7837  function tokenOfOwnerByIndex(address _owner, uint256 index) ... */\n      swap3\n      swap2\n      pop\n      pop\n      jump\t// out\n        /* \"contracts/Orders.sol\":6147:6530  function cancelListing(uint256 _listingId) external {... */\n    tag_41:\n        /* \"contracts/Orders.sol\":6210:6233  Listing storage listing */\n      0x00\n        /* \"contracts/Orders.sol\":6236:6244  listings */\n      0x01\n        /* \"contracts/Orders.sol\":6236:6256  listings[_listingId] */\n      0x00\n        /* \"contracts/Orders.sol\":6245:6255  _listingId */\n      dup4\n        /* \"contracts/Orders.sol\":6236:6256  listings[_listingId] */\n      dup2\n      mstore\n      0x20\n      add\n      swap1\n      dup2\n      mstore\n      0x20\n      add\n      0x00\n      keccak256\n        /* \"contracts/Orders.sol\":6210:6256  Listing storage listing = listings[_listingId] */\n      swap1\n      pop\n        /* \"contracts/Orders.sol\":6275:6282  listing */\n      dup1\n        /* \"contracts/Orders.sol\":6275:6291  listing.isActive */\n      0x02\n      add\n      0x00\n      swap1\n      sload\n      swap1\n      0x0100\n      exp\n      swap1\n      div\n      0xff\n      and\n        /* \"contracts/Orders.sol\":6267:6314  require(listing.isActive, \"Listing not active\") */\n      tag_177\n      jumpi\n      mload(0x40)\n      0x08c379a000000000000000000000000000000000000000000000000000000000\n      dup2\n      mstore\n      0x04\n      add\n      tag_178\n      swap1\n      tag_106\n      jump\t// in\n    tag_178:\n      mload(0x40)\n      dup1\n      swap2\n      sub\n      swap1\n      revert\n    tag_177:\n        /* \"contracts/Orders.sol\":6351:6361  msg.sender */\n      caller\n        /* \"contracts/Orders.sol\":6333:6361  listing.seller == msg.sender */\n      0xffffffffffffffffffffffffffffffffffffffff\n      and\n        /* \"contracts/Orders.sol\":6333:6340  listing */\n      dup2\n        /* \"contracts/Orders.sol\":6333:6347  listing.seller */\n      0x00\n      add\n      0x00\n      swap1\n      sload\n      swap1\n      0x0100\n      exp\n      swap1\n      div\n      0xffffffffffffffffffffffffffffffffffffffff\n      and\n        /* \"contracts/Orders.sol\":6333:6361  listing.seller == msg.sender */\n      0xffffffffffffffffffffffffffffffffffffffff\n      and\n      eq\n        /* \"contracts/Orders.sol\":6325:6376  require(listing.seller == msg.sender, \"Not seller\") */\n      tag_179\n      jumpi\n      mload(0x40)\n      0x08c379a000000000000000000000000000000000000000000000000000000000\n      dup2\n      mstore\n      0x04\n      add\n      tag_180\n      swap1\n      tag_181\n      jump\t// in\n    tag_180:\n      mload(0x40)\n      dup1\n      swap2\n      sub\n      swap1\n      revert\n    tag_179:\n        /* \"contracts/Orders.sol\":6408:6413  false */\n      0x00\n        /* \"contracts/Orders.sol\":6389:6396  listing */\n      dup2\n        /* \"contracts/Orders.sol\":6389:6405  listing.isActive */\n      0x02\n      add\n      0x00\n        /* \"contracts/Orders.sol\":6389:6413  listing.isActive = false */\n      0x0100\n      exp\n      dup2\n      sload\n      dup2\n      0xff\n      mul\n      not\n      and\n      swap1\n      dup4\n      iszero\n      iszero\n      mul\n      or\n      swap1\n      sstore\n      pop\n        /* \"contracts/Orders.sol\":6431:6447  tokenToListingId */\n      0x02\n        /* \"contracts/Orders.sol\":6431:6464  tokenToListingId[listing.tokenId] */\n      0x00\n        /* \"contracts/Orders.sol\":6448:6455  listing */\n      dup3\n        /* \"contracts/Orders.sol\":6448:6463  listing.tokenId */\n      0x01\n      add\n      0x00\n      swap1\n      sload\n      swap1\n      0x0100\n      exp\n      swap1\n      div\n      0xffffffffffffffffffffffffffffffff\n      and\n        /* \"contracts/Orders.sol\":6431:6464  tokenToListingId[listing.tokenId] */\n      0xffffffffffffffffffffffffffffffff\n      and\n      dup2\n      mstore\n      0x20\n      add\n      swap1\n      dup2\n      mstore\n      0x20\n      add\n      0x00\n      keccak256\n        /* \"contracts/Orders.sol\":6424:6464  delete tokenToListingId[listing.tokenId] */\n      0x00\n      swap1\n      sstore\n        /* \"contracts/Orders.sol\":6511:6521  msg.sender */\n      caller\n        /* \"contracts/Orders.sol\":6482:6522  ListingCancelled(_listingId, msg.sender) */\n      0xffffffffffffffffffffffffffffffffffffffff\n      and\n        /* \"contracts/Orders.sol\":6499:6509  _listingId */\n      dup3\n        /* \"contracts/Orders.sol\":6482:6522  ListingCancelled(_listingId, msg.sender) */\n      0x8e25282255ab31897df2b0456bb993ac7f84d376861aefd84901d2d63a7428a2\n      mload(0x40)\n      mload(0x40)\n      dup1\n      swap2\n      sub\n      swap1\n      log3\n        /* \"contracts/Orders.sol\":6199:6530  {... */\n      pop\n        /* \"contracts/Orders.sol\":6147:6530  function cancelListing(uint256 _listingId) external {... */\n      pop\n      jump\t// out\n        /* \"contracts/Orders.sol\":6689:6927  function setCommissionPercent(uint256 _newPercent) external onlyOwner {... */\n    tag_45:\n        /* \"contracts/Orders.sol\":2586:2591  owner */\n      immutable(\"0x7250aaa7e48e376ad351a6e6358b82b301c238eb6d491d8aad7b3212de4449d6\")\n        /* \"contracts/Orders.sol\":2572:2591  msg.sender == owner */\n      0xffffffffffffffffffffffffffffffffffffffff\n      and\n        /* \"contracts/Orders.sol\":2572:2582  msg.sender */\n      caller\n        /* \"contracts/Orders.sol\":2572:2591  msg.sender == owner */\n      0xffffffffffffffffffffffffffffffffffffffff\n      and\n      eq\n        /* \"contracts/Orders.sol\":2564:2606  require(msg.sender == owner, \"Only owner\") */\n      tag_183\n      jumpi\n      mload(0x40)\n      0x08c379a000000000000000000000000000000000000000000000000000000000\n      dup2\n      mstore\n      0x04\n      add\n      tag_184\n      swap1\n      tag_155\n      jump\t// in\n    tag_184:\n      mload(0x40)\n      dup1\n      swap2\n      sub\n      swap1\n      revert\n    tag_183:\n        /* \"contracts/Orders.sol\":892:896  5000 */\n      0x1388\n        /* \"contracts/Orders.sol\":6778:6789  _newPercent */\n      dup2\n        /* \"contracts/Orders.sol\":6778:6807  _newPercent <= MAX_COMMISSION */\n      gt\n      iszero\n        /* \"contracts/Orders.sol\":6770:6831  require(_newPercent <= MAX_COMMISSION, \"Commission too high\") */\n      tag_186\n      jumpi\n      mload(0x40)\n      0x08c379a000000000000000000000000000000000000000000000000000000000\n      dup2\n      mstore\n      0x04\n      add\n      tag_187\n      swap1\n      tag_188\n      jump\t// in\n    tag_187:\n      mload(0x40)\n      dup1\n      swap2\n      sub\n      swap1\n      revert\n    tag_186:\n        /* \"contracts/Orders.sol\":6862:6873  _newPercent */\n      dup1\n        /* \"contracts/Orders.sol\":6842:6859  commissionPercent */\n      0x00\n        /* \"contracts/Orders.sol\":6842:6873  commissionPercent = _newPercent */\n      dup2\n      swap1\n      sstore\n      pop\n        /* \"contracts/Orders.sol\":6889:6919  CommissionUpdated(_newPercent) */\n      0x13f60dd2b588490608c3ff1932a3daeb4087f3d5af04b97e5c2a16b5b4c0302e\n        /* \"contracts/Orders.sol\":6907:6918  _newPercent */\n      dup2\n        /* \"contracts/Orders.sol\":6889:6919  CommissionUpdated(_newPercent) */\n      mload(0x40)\n      tag_189\n      swap2\n      swap1\n      tag_37\n      jump\t// in\n    tag_189:\n      mload(0x40)\n      dup1\n      swap2\n      sub\n      swap1\n      log1\n        /* \"contracts/Orders.sol\":6689:6927  function setCommissionPercent(uint256 _newPercent) external onlyOwner {... */\n      pop\n      jump\t// out\n        /* \"contracts/Orders.sol\":1415:1463  IERC721Enumerable public immutable nftEnumerable */\n    tag_48:\n      immutable(\"0x84b3f9c1584778fd0609bd44bae524185bcc8a7d9057a78c14d22945c29b7555\")\n      dup2\n      jump\t// out\n        /* \"contracts/Orders.sol\":748:780  uint256 public commissionPercent */\n    tag_53:\n      sload(0x00)\n      dup2\n      jump\t// out\n        /* \"contracts/Orders.sol\":606:644  address payable public immutable owner */\n    tag_57:\n      immutable(\"0x7250aaa7e48e376ad351a6e6358b82b301c238eb6d491d8aad7b3212de4449d6\")\n      dup2\n      jump\t// out\n        /* \"contracts/Orders.sol\":3517:4591  function createListing(uint128 _tokenId, uint128 _price) external {... */\n    tag_64:\n        /* \"contracts/Orders.sol\":3611:3612  0 */\n      0x00\n        /* \"contracts/Orders.sol\":3602:3608  _price */\n      dup2\n        /* \"contracts/Orders.sol\":3602:3612  _price > 0 */\n      0xffffffffffffffffffffffffffffffff\n      and\n      gt\n        /* \"contracts/Orders.sol\":3594:3634  require(_price > 0, \"Price must be > 0\") */\n      tag_191\n      jumpi\n      mload(0x40)\n      0x08c379a000000000000000000000000000000000000000000000000000000000\n      dup2\n      mstore\n      0x04\n      add\n      tag_192\n      swap1\n      tag_193\n      jump\t// in\n    tag_192:\n      mload(0x40)\n      dup1\n      swap2\n      sub\n      swap1\n      revert\n    tag_191:\n        /* \"contracts/Orders.sol\":3655:3673  address tokenOwner */\n      0x00\n        /* \"contracts/Orders.sol\":3676:3687  nftContract */\n      immutable(\"0xd665d3e31f8da4f93255a62fad5ad42e8302e9c9a226187d84d77d13775d3867\")\n        /* \"contracts/Orders.sol\":3676:3695  nftContract.ownerOf */\n      0xffffffffffffffffffffffffffffffffffffffff\n      and\n      0x6352211e\n        /* \"contracts/Orders.sol\":3696:3704  _tokenId */\n      dup5\n        /* \"contracts/Orders.sol\":3676:3705  nftContract.ownerOf(_tokenId) */\n      mload(0x40)\n      dup3\n      0xffffffff\n      and\n      0xe0\n      shl\n      dup2\n      mstore\n      0x04\n      add\n      tag_194\n      swap2\n      swap1\n      tag_120\n      jump\t// in\n    tag_194:\n      0x20\n      mload(0x40)\n      dup1\n      dup4\n      sub\n      dup2\n      dup7\n      gas\n      staticcall\n      iszero\n      dup1\n      iszero\n      tag_196\n      jumpi\n      returndatasize\n      0x00\n      dup1\n      returndatacopy\n      revert(0x00, returndatasize)\n    tag_196:\n      pop\n      pop\n      pop\n      pop\n      mload(0x40)\n      returndatasize\n      not(0x1f)\n      0x1f\n      dup3\n      add\n      and\n      dup3\n      add\n      dup1\n      0x40\n      mstore\n      pop\n      dup2\n      add\n      swap1\n      tag_197\n      swap2\n      swap1\n      tag_124\n      jump\t// in\n    tag_197:\n        /* \"contracts/Orders.sol\":3655:3705  address tokenOwner = nftContract.ownerOf(_tokenId) */\n      swap1\n      pop\n        /* \"contracts/Orders.sol\":3738:3748  msg.sender */\n      caller\n        /* \"contracts/Orders.sol\":3724:3748  tokenOwner == msg.sender */\n      0xffffffffffffffffffffffffffffffffffffffff\n      and\n        /* \"contracts/Orders.sol\":3724:3734  tokenOwner */\n      dup2\n        /* \"contracts/Orders.sol\":3724:3748  tokenOwner == msg.sender */\n      0xffffffffffffffffffffffffffffffffffffffff\n      and\n      eq\n        /* \"contracts/Orders.sol\":3716:3768  require(tokenOwner == msg.sender, \"Not token owner\") */\n      tag_198\n      jumpi\n      mload(0x40)\n      0x08c379a000000000000000000000000000000000000000000000000000000000\n      dup2\n      mstore\n      0x04\n      add\n      tag_199\n      swap1\n      tag_200\n      jump\t// in\n    tag_199:\n      mload(0x40)\n      dup1\n      swap2\n      sub\n      swap1\n      revert\n    tag_198:\n        /* \"contracts/Orders.sol\":3811:3822  nftContract */\n      immutable(\"0xd665d3e31f8da4f93255a62fad5ad42e8302e9c9a226187d84d77d13775d3867\")\n        /* \"contracts/Orders.sol\":3811:3839  nftContract.isApprovedForAll */\n      0xffffffffffffffffffffffffffffffffffffffff\n      and\n      0xe985e9c5\n        /* \"contracts/Orders.sol\":3840:3850  msg.sender */\n      caller\n        /* \"contracts/Orders.sol\":3860:3864  this */\n      address\n        /* \"contracts/Orders.sol\":3811:3866  nftContract.isApprovedForAll(msg.sender, address(this)) */\n      mload(0x40)\n      dup4\n      0xffffffff\n      and\n      0xe0\n      shl\n      dup2\n      mstore\n      0x04\n      add\n      tag_201\n      swap3\n      swap2\n      swap1\n      tag_129\n      jump\t// in\n    tag_201:\n      0x20\n      mload(0x40)\n      dup1\n      dup4\n      sub\n      dup2\n      dup7\n      gas\n      staticcall\n      iszero\n      dup1\n      iszero\n      tag_203\n      jumpi\n      returndatasize\n      0x00\n      dup1\n      returndatacopy\n      revert(0x00, returndatasize)\n    tag_203:\n      pop\n      pop\n      pop\n      pop\n      mload(0x40)\n      returndatasize\n      not(0x1f)\n      0x1f\n      dup3\n      add\n      and\n      dup3\n      add\n      dup1\n      0x40\n      mstore\n      pop\n      dup2\n      add\n      swap1\n      tag_204\n      swap2\n      swap1\n      tag_133\n      jump\t// in\n    tag_204:\n        /* \"contracts/Orders.sol\":3811:3933  nftContract.isApprovedForAll(msg.sender, address(this)) ||... */\n      dup1\n      tag_205\n      jumpi\n      pop\n        /* \"contracts/Orders.sol\":3928:3932  this */\n      address\n        /* \"contracts/Orders.sol\":3883:3933  nftContract.getApproved(_tokenId) == address(this) */\n      0xffffffffffffffffffffffffffffffffffffffff\n      and\n        /* \"contracts/Orders.sol\":3883:3894  nftContract */\n      immutable(\"0xd665d3e31f8da4f93255a62fad5ad42e8302e9c9a226187d84d77d13775d3867\")\n        /* \"contracts/Orders.sol\":3883:3906  nftContract.getApproved */\n      0xffffffffffffffffffffffffffffffffffffffff\n      and\n      0x081812fc\n        /* \"contracts/Orders.sol\":3907:3915  _tokenId */\n      dup6\n        /* \"contracts/Orders.sol\":3883:3916  nftContract.getApproved(_tokenId) */\n      mload(0x40)\n      dup3\n      0xffffffff\n      and\n      0xe0\n      shl\n      dup2\n      mstore\n      0x04\n      add\n      tag_206\n      swap2\n      swap1\n      tag_120\n      jump\t// in\n    tag_206:\n      0x20\n      mload(0x40)\n      dup1\n      dup4\n      sub\n      dup2\n      dup7\n      gas\n      staticcall\n      iszero\n      dup1\n      iszero\n      tag_208\n      jumpi\n      returndatasize\n      0x00\n      dup1\n      returndatacopy\n      revert(0x00, returndatasize)\n    tag_208:\n      pop\n      pop\n      pop\n      pop\n      mload(0x40)\n      returndatasize\n      not(0x1f)\n      0x1f\n      dup3\n      add\n      and\n      dup3\n      add\n      dup1\n      0x40\n      mstore\n      pop\n      dup2\n      add\n      swap1\n      tag_209\n      swap2\n      swap1\n      tag_124\n      jump\t// in\n    tag_209:\n        /* \"contracts/Orders.sol\":3883:3933  nftContract.getApproved(_tokenId) == address(this) */\n      0xffffffffffffffffffffffffffffffffffffffff\n      and\n      eq\n        /* \"contracts/Orders.sol\":3811:3933  nftContract.isApprovedForAll(msg.sender, address(this)) ||... */\n    tag_205:\n        /* \"contracts/Orders.sol\":3789:3973  require(... */\n      tag_210\n      jumpi\n      mload(0x40)\n      0x08c379a000000000000000000000000000000000000000000000000000000000\n      dup2\n      mstore\n      0x04\n      add\n      tag_211\n      swap1\n      tag_141\n      jump\t// in\n    tag_211:\n      mload(0x40)\n      dup1\n      swap2\n      sub\n      swap1\n      revert\n    tag_210:\n        /* \"contracts/Orders.sol\":4024:4025  0 */\n      0x00\n        /* \"contracts/Orders.sol\":3994:4010  tokenToListingId */\n      0x02\n        /* \"contracts/Orders.sol\":3994:4020  tokenToListingId[_tokenId] */\n      0x00\n        /* \"contracts/Orders.sol\":4011:4019  _tokenId */\n      dup6\n        /* \"contracts/Orders.sol\":3994:4020  tokenToListingId[_tokenId] */\n      0xffffffffffffffffffffffffffffffff\n      and\n      dup2\n      mstore\n      0x20\n      add\n      swap1\n      dup2\n      mstore\n      0x20\n      add\n      0x00\n      keccak256\n      sload\n        /* \"contracts/Orders.sol\":3994:4025  tokenToListingId[_tokenId] == 0 */\n      eq\n        /* \"contracts/Orders.sol\":3986:4044  require(tokenToListingId[_tokenId] == 0, \"Already listed\") */\n      tag_212\n      jumpi\n      mload(0x40)\n      0x08c379a000000000000000000000000000000000000000000000000000000000\n      dup2\n      mstore\n      0x04\n      add\n      tag_213\n      swap1\n      tag_214\n      jump\t// in\n    tag_213:\n      mload(0x40)\n      dup1\n      swap2\n      sub\n      swap1\n      revert\n    tag_212:\n        /* \"contracts/Orders.sol\":4057:4074  uint256 listingId */\n      0x00\n        /* \"contracts/Orders.sol\":4126:4134  _tokenId */\n      dup4\n        /* \"contracts/Orders.sol\":4149:4159  msg.sender */\n      caller\n        /* \"contracts/Orders.sol\":4174:4189  block.timestamp */\n      timestamp\n        /* \"contracts/Orders.sol\":4095:4200  abi.encodePacked(... */\n      add(0x20, mload(0x40))\n      tag_215\n      swap4\n      swap3\n      swap2\n      swap1\n      tag_216\n      jump\t// in\n    tag_215:\n      mload(0x40)\n      0x20\n      dup2\n      dup4\n      sub\n      sub\n      dup2\n      mstore\n      swap1\n      0x40\n      mstore\n        /* \"contracts/Orders.sol\":4085:4201  keccak256(abi.encodePacked(... */\n      dup1\n      mload\n      swap1\n      0x20\n      add\n      keccak256\n        /* \"contracts/Orders.sol\":4077:4202  uint256(keccak256(abi.encodePacked(... */\n      0x00\n      shr\n        /* \"contracts/Orders.sol\":4057:4202  uint256 listingId = uint256(keccak256(abi.encodePacked(... */\n      swap1\n      pop\n        /* \"contracts/Orders.sol\":4237:4379  Listing({... */\n      mload(0x40)\n      dup1\n      0x80\n      add\n      0x40\n      mstore\n      dup1\n        /* \"contracts/Orders.sol\":4268:4278  msg.sender */\n      caller\n        /* \"contracts/Orders.sol\":4237:4379  Listing({... */\n      0xffffffffffffffffffffffffffffffffffffffff\n      and\n      dup2\n      mstore\n      0x20\n      add\n        /* \"contracts/Orders.sol\":4302:4310  _tokenId */\n      dup6\n        /* \"contracts/Orders.sol\":4237:4379  Listing({... */\n      0xffffffffffffffffffffffffffffffff\n      and\n      dup2\n      mstore\n      0x20\n      add\n        /* \"contracts/Orders.sol\":4332:4338  _price */\n      dup5\n        /* \"contracts/Orders.sol\":4237:4379  Listing({... */\n      0xffffffffffffffffffffffffffffffff\n      and\n      dup2\n      mstore\n      0x20\n      add\n        /* \"contracts/Orders.sol\":4363:4367  true */\n      0x01\n        /* \"contracts/Orders.sol\":4237:4379  Listing({... */\n      iszero\n      iszero\n      dup2\n      mstore\n      pop\n        /* \"contracts/Orders.sol\":4215:4223  listings */\n      0x01\n        /* \"contracts/Orders.sol\":4215:4234  listings[listingId] */\n      0x00\n        /* \"contracts/Orders.sol\":4224:4233  listingId */\n      dup4\n        /* \"contracts/Orders.sol\":4215:4234  listings[listingId] */\n      dup2\n      mstore\n      0x20\n      add\n      swap1\n      dup2\n      mstore\n      0x20\n      add\n      0x00\n      keccak256\n        /* \"contracts/Orders.sol\":4215:4379  listings[listingId] = Listing({... */\n      0x00\n      dup3\n      add\n      mload\n      dup2\n      0x00\n      add\n      exp(0x0100, 0x00)\n      dup2\n      sload\n      dup2\n      0xffffffffffffffffffffffffffffffffffffffff\n      mul\n      not\n      and\n      swap1\n      dup4\n      0xffffffffffffffffffffffffffffffffffffffff\n      and\n      mul\n      or\n      swap1\n      sstore\n      pop\n      0x20\n      dup3\n      add\n      mload\n      dup2\n      0x01\n      add\n      exp(0x0100, 0x00)\n      dup2\n      sload\n      dup2\n      0xffffffffffffffffffffffffffffffff\n      mul\n      not\n      and\n      swap1\n      dup4\n      0xffffffffffffffffffffffffffffffff\n      and\n      mul\n      or\n      swap1\n      sstore\n      pop\n      0x40\n      dup3\n      add\n      mload\n      dup2\n      0x01\n      add\n      exp(0x0100, 0x10)\n      dup2\n      sload\n      dup2\n      0xffffffffffffffffffffffffffffffff\n      mul\n      not\n      and\n      swap1\n      dup4\n      0xffffffffffffffffffffffffffffffff\n      and\n      mul\n      or\n      swap1\n      sstore\n      pop\n      0x60\n      dup3\n      add\n      mload\n      dup2\n      0x02\n      add\n      exp(0x0100, 0x00)\n      dup2\n      sload\n      dup2\n      0xff\n      mul\n      not\n      and\n      swap1\n      dup4\n      iszero\n      iszero\n      mul\n      or\n      swap1\n      sstore\n      pop\n      swap1\n      pop\n      pop\n        /* \"contracts/Orders.sol\":4421:4430  listingId */\n      dup1\n        /* \"contracts/Orders.sol\":4392:4408  tokenToListingId */\n      0x02\n        /* \"contracts/Orders.sol\":4392:4418  tokenToListingId[_tokenId] */\n      0x00\n        /* \"contracts/Orders.sol\":4409:4417  _tokenId */\n      dup7\n        /* \"contracts/Orders.sol\":4392:4418  tokenToListingId[_tokenId] */\n      0xffffffffffffffffffffffffffffffff\n      and\n      dup2\n      mstore\n      0x20\n      add\n      swap1\n      dup2\n      mstore\n      0x20\n      add\n      0x00\n      keccak256\n        /* \"contracts/Orders.sol\":4392:4430  tokenToListingId[_tokenId] = listingId */\n      dup2\n      swap1\n      sstore\n      pop\n        /* \"contracts/Orders.sol\":4441:4455  sellerListings */\n      0x04\n        /* \"contracts/Orders.sol\":4441:4467  sellerListings[msg.sender] */\n      0x00\n        /* \"contracts/Orders.sol\":4456:4466  msg.sender */\n      caller\n        /* \"contracts/Orders.sol\":4441:4467  sellerListings[msg.sender] */\n      0xffffffffffffffffffffffffffffffffffffffff\n      and\n      0xffffffffffffffffffffffffffffffffffffffff\n      and\n      dup2\n      mstore\n      0x20\n      add\n      swap1\n      dup2\n      mstore\n      0x20\n      add\n      0x00\n      keccak256\n        /* \"contracts/Orders.sol\":4473:4481  listings */\n      0x01\n        /* \"contracts/Orders.sol\":4473:4492  listings[listingId] */\n      0x00\n        /* \"contracts/Orders.sol\":4482:4491  listingId */\n      dup4\n        /* \"contracts/Orders.sol\":4473:4492  listings[listingId] */\n      dup2\n      mstore\n      0x20\n      add\n      swap1\n      dup2\n      mstore\n      0x20\n      add\n      0x00\n      keccak256\n        /* \"contracts/Orders.sol\":4441:4493  sellerListings[msg.sender].push(listings[listingId]) */\n      swap1\n      dup1\n      0x01\n      dup2\n      sload\n      add\n      dup1\n      dup3\n      sstore\n      dup1\n      swap2\n      pop\n      pop\n      0x01\n      swap1\n      sub\n      swap1\n      0x00\n      mstore\n      keccak256(0x00, 0x20)\n      swap1\n      0x03\n      mul\n      add\n      0x00\n      swap1\n      swap2\n      swap1\n      swap2\n      swap1\n      swap2\n      pop\n      0x00\n      dup3\n      add\n      0x00\n      swap1\n      sload\n      swap1\n      0x0100\n      exp\n      swap1\n      div\n      0xffffffffffffffffffffffffffffffffffffffff\n      and\n      dup2\n      0x00\n      add\n      exp(0x0100, 0x00)\n      dup2\n      sload\n      dup2\n      0xffffffffffffffffffffffffffffffffffffffff\n      mul\n      not\n      and\n      swap1\n      dup4\n      0xffffffffffffffffffffffffffffffffffffffff\n      and\n      mul\n      or\n      swap1\n      sstore\n      pop\n      0x01\n      dup3\n      add\n      0x00\n      swap1\n      sload\n      swap1\n      0x0100\n      exp\n      swap1\n      div\n      0xffffffffffffffffffffffffffffffff\n      and\n      dup2\n      0x01\n      add\n      exp(0x0100, 0x00)\n      dup2\n      sload\n      dup2\n      0xffffffffffffffffffffffffffffffff\n      mul\n      not\n      and\n      swap1\n      dup4\n      0xffffffffffffffffffffffffffffffff\n      and\n      mul\n      or\n      swap1\n      sstore\n      pop\n      0x01\n      dup3\n      add\n      0x10\n      swap1\n      sload\n      swap1\n      0x0100\n      exp\n      swap1\n      div\n      0xffffffffffffffffffffffffffffffff\n      and\n      dup2\n      0x01\n      add\n      exp(0x0100, 0x10)\n      dup2\n      sload\n      dup2\n      0xffffffffffffffffffffffffffffffff\n      mul\n      not\n      and\n      swap1\n      dup4\n      0xffffffffffffffffffffffffffffffff\n      and\n      mul\n      or\n      swap1\n      sstore\n      pop\n      0x02\n      dup3\n      add\n      0x00\n      swap1\n      sload\n      swap1\n      0x0100\n      exp\n      swap1\n      div\n      0xff\n      and\n      dup2\n      0x02\n      add\n      exp(0x0100, 0x00)\n      dup2\n      sload\n      dup2\n      0xff\n      mul\n      not\n      and\n      swap1\n      dup4\n      iszero\n      iszero\n      mul\n      or\n      swap1\n      sstore\n      pop\n      pop\n      pop\n        /* \"contracts/Orders.sol\":4537:4547  msg.sender */\n      caller\n        /* \"contracts/Orders.sol\":4511:4583  ListingCreated(listingId, msg.sender, _tokenId, _price, block.timestamp) */\n      0xffffffffffffffffffffffffffffffffffffffff\n      and\n        /* \"contracts/Orders.sol\":4526:4535  listingId */\n      dup2\n        /* \"contracts/Orders.sol\":4511:4583  ListingCreated(listingId, msg.sender, _tokenId, _price, block.timestamp) */\n      0xa3941cfa07eecf2734875ab71cea0e47395be644da6e17b039a7e29efba74ef9\n        /* \"contracts/Orders.sol\":4549:4557  _tokenId */\n      dup7\n        /* \"contracts/Orders.sol\":4559:4565  _price */\n      dup7\n        /* \"contracts/Orders.sol\":4567:4582  block.timestamp */\n      timestamp\n        /* \"contracts/Orders.sol\":4511:4583  ListingCreated(listingId, msg.sender, _tokenId, _price, block.timestamp) */\n      mload(0x40)\n      tag_218\n      swap4\n      swap3\n      swap2\n      swap1\n      tag_151\n      jump\t// in\n    tag_218:\n      mload(0x40)\n      dup1\n      swap2\n      sub\n      swap1\n      log3\n        /* \"contracts/Orders.sol\":3583:4591  {... */\n      pop\n      pop\n        /* \"contracts/Orders.sol\":3517:4591  function createListing(uint128 _tokenId, uint128 _price) external {... */\n      pop\n      pop\n      jump\t// out\n        /* \"contracts/Orders.sol\":8015:8196  function isTokenListed(uint256 _tokenId) external view returns (bool) {... */\n    tag_68:\n        /* \"contracts/Orders.sol\":8079:8083  bool */\n      0x00\n        /* \"contracts/Orders.sol\":8096:8113  uint256 listingId */\n      dup1\n        /* \"contracts/Orders.sol\":8116:8132  tokenToListingId */\n      0x02\n        /* \"contracts/Orders.sol\":8116:8142  tokenToListingId[_tokenId] */\n      0x00\n        /* \"contracts/Orders.sol\":8133:8141  _tokenId */\n      dup5\n        /* \"contracts/Orders.sol\":8116:8142  tokenToListingId[_tokenId] */\n      dup2\n      mstore\n      0x20\n      add\n      swap1\n      dup2\n      mstore\n      0x20\n      add\n      0x00\n      keccak256\n      sload\n        /* \"contracts/Orders.sol\":8096:8142  uint256 listingId = tokenToListingId[_tokenId] */\n      swap1\n      pop\n        /* \"contracts/Orders.sol\":8160:8168  listings */\n      0x01\n        /* \"contracts/Orders.sol\":8160:8179  listings[listingId] */\n      0x00\n        /* \"contracts/Orders.sol\":8169:8178  listingId */\n      dup3\n        /* \"contracts/Orders.sol\":8160:8179  listings[listingId] */\n      dup2\n      mstore\n      0x20\n      add\n      swap1\n      dup2\n      mstore\n      0x20\n      add\n      0x00\n      keccak256\n        /* \"contracts/Orders.sol\":8160:8188  listings[listingId].isActive */\n      0x02\n      add\n      0x00\n      swap1\n      sload\n      swap1\n      0x0100\n      exp\n      swap1\n      div\n      0xff\n      and\n        /* \"contracts/Orders.sol\":8153:8188  return listings[listingId].isActive */\n      swap2\n      pop\n      pop\n        /* \"contracts/Orders.sol\":8015:8196  function isTokenListed(uint256 _tokenId) external view returns (bool) {... */\n      swap2\n      swap1\n      pop\n      jump\t// out\n        /* \"contracts/Orders.sol\":851:896  uint256 public constant MAX_COMMISSION = 5000 */\n    tag_73:\n        /* \"contracts/Orders.sol\":892:896  5000 */\n      0x1388\n        /* \"contracts/Orders.sol\":851:896  uint256 public constant MAX_COMMISSION = 5000 */\n      dup2\n      jump\t// out\n        /* \"contracts/Orders.sol\":8399:8523  function getListingId(uint256 _tokenId) external view returns (uint256) {... */\n    tag_78:\n        /* \"contracts/Orders.sol\":8462:8469  uint256 */\n      0x00\n        /* \"contracts/Orders.sol\":8489:8505  tokenToListingId */\n      0x02\n        /* \"contracts/Orders.sol\":8489:8515  tokenToListingId[_tokenId] */\n      0x00\n        /* \"contracts/Orders.sol\":8506:8514  _tokenId */\n      dup4\n        /* \"contracts/Orders.sol\":8489:8515  tokenToListingId[_tokenId] */\n      dup2\n      mstore\n      0x20\n      add\n      swap1\n      dup2\n      mstore\n      0x20\n      add\n      0x00\n      keccak256\n      sload\n        /* \"contracts/Orders.sol\":8482:8515  return tokenToListingId[_tokenId] */\n      swap1\n      pop\n        /* \"contracts/Orders.sol\":8399:8523  function getListingId(uint256 _tokenId) external view returns (uint256) {... */\n      swap2\n      swap1\n      pop\n      jump\t// out\n        /* \"contracts/Orders.sol\":1306:1342  IERC721 public immutable nftContract */\n    tag_82:\n      immutable(\"0xd665d3e31f8da4f93255a62fad5ad42e8302e9c9a226187d84d77d13775d3867\")\n      dup2\n      jump\t// out\n        /* \"contracts/Orders.sol\":8697:8833  function getListingsBySeller(address _seller) external view returns (Listing[] memory) {... */\n    tag_89:\n        /* \"contracts/Orders.sol\":8766:8782  Listing[] memory */\n      0x60\n        /* \"contracts/Orders.sol\":8802:8816  sellerListings */\n      0x04\n        /* \"contracts/Orders.sol\":8802:8825  sellerListings[_seller] */\n      0x00\n        /* \"contracts/Orders.sol\":8817:8824  _seller */\n      dup4\n        /* \"contracts/Orders.sol\":8802:8825  sellerListings[_seller] */\n      0xffffffffffffffffffffffffffffffffffffffff\n      and\n      0xffffffffffffffffffffffffffffffffffffffff\n      and\n      dup2\n      mstore\n      0x20\n      add\n      swap1\n      dup2\n      mstore\n      0x20\n      add\n      0x00\n      keccak256\n        /* \"contracts/Orders.sol\":8795:8825  return sellerListings[_seller] */\n      dup1\n      sload\n      dup1\n      0x20\n      mul\n      0x20\n      add\n      mload(0x40)\n      swap1\n      dup2\n      add\n      0x40\n      mstore\n      dup1\n      swap3\n      swap2\n      swap1\n      dup2\n      dup2\n      mstore\n      0x20\n      add\n      0x00\n      swap1\n    tag_222:\n      dup3\n      dup3\n      lt\n      iszero\n      tag_223\n      jumpi\n      dup4\n      dup3\n      swap1\n      0x00\n      mstore\n      keccak256(0x00, 0x20)\n      swap1\n      0x03\n      mul\n      add\n      mload(0x40)\n      dup1\n      0x80\n      add\n      0x40\n      mstore\n      swap1\n      dup2\n      0x00\n      dup3\n      add\n      0x00\n      swap1\n      sload\n      swap1\n      0x0100\n      exp\n      swap1\n      div\n      0xffffffffffffffffffffffffffffffffffffffff\n      and\n      0xffffffffffffffffffffffffffffffffffffffff\n      and\n      0xffffffffffffffffffffffffffffffffffffffff\n      and\n      dup2\n      mstore\n      0x20\n      add\n      0x01\n      dup3\n      add\n      0x00\n      swap1\n      sload\n      swap1\n      0x0100\n      exp\n      swap1\n      div\n      0xffffffffffffffffffffffffffffffff\n      and\n      0xffffffffffffffffffffffffffffffff\n      and\n      0xffffffffffffffffffffffffffffffff\n      and\n      dup2\n      mstore\n      0x20\n      add\n      0x01\n      dup3\n      add\n      0x10\n      swap1\n      sload\n      swap1\n      0x0100\n      exp\n      swap1\n      div\n      0xffffffffffffffffffffffffffffffff\n      and\n      0xffffffffffffffffffffffffffffffff\n      and\n      0xffffffffffffffffffffffffffffffff\n      and\n      dup2\n      mstore\n      0x20\n      add\n      0x02\n      dup3\n      add\n      0x00\n      swap1\n      sload\n      swap1\n      0x0100\n      exp\n      swap1\n      div\n      0xff\n      and\n      iszero\n      iszero\n      iszero\n      iszero\n      dup2\n      mstore\n      pop\n      pop\n      dup2\n      mstore\n      0x20\n      add\n      swap1\n      0x01\n      add\n      swap1\n      jump(tag_222)\n    tag_223:\n      pop\n      pop\n      pop\n      pop\n      swap1\n      pop\n        /* \"contracts/Orders.sol\":8697:8833  function getListingsBySeller(address _seller) external view returns (Listing[] memory) {... */\n      swap2\n      swap1\n      pop\n      jump\t// out\n        /* \"contracts/Orders.sol\":959:1002  mapping(uint256 => Listing) public listings */\n    tag_95:\n      mstore(0x20, 0x01)\n      dup1\n      0x00\n      mstore\n      keccak256(0x00, 0x40)\n      0x00\n      swap2\n      pop\n      swap1\n      pop\n      dup1\n      0x00\n      add\n      0x00\n      swap1\n      sload\n      swap1\n      0x0100\n      exp\n      swap1\n      div\n      0xffffffffffffffffffffffffffffffffffffffff\n      and\n      swap1\n      dup1\n      0x01\n      add\n      0x00\n      swap1\n      sload\n      swap1\n      0x0100\n      exp\n      swap1\n      div\n      0xffffffffffffffffffffffffffffffff\n      and\n      swap1\n      dup1\n      0x01\n      add\n      0x10\n      swap1\n      sload\n      swap1\n      0x0100\n      exp\n      swap1\n      div\n      0xffffffffffffffffffffffffffffffff\n      and\n      swap1\n      dup1\n      0x02\n      add\n      0x00\n      swap1\n      sload\n      swap1\n      0x0100\n      exp\n      swap1\n      div\n      0xff\n      and\n      swap1\n      pop\n      dup5\n      jump\t// out\n        /* \"contracts/Orders.sol\":1186:1239  mapping(address => uint256) public pendingWithdrawals */\n    tag_101:\n      mstore(0x20, 0x03)\n      dup1\n      0x00\n      mstore\n      keccak256(0x00, 0x40)\n      0x00\n      swap2\n      pop\n      swap1\n      pop\n      sload\n      dup2\n      jump\t// out\n        /* \"#utility.yul\":88:205   */\n    tag_226:\n        /* \"#utility.yul\":197:198   */\n      0x00\n        /* \"#utility.yul\":194:195   */\n      dup1\n        /* \"#utility.yul\":187:199   */\n      revert\n        /* \"#utility.yul\":334:411   */\n    tag_228:\n        /* \"#utility.yul\":371:378   */\n      0x00\n        /* \"#utility.yul\":400:405   */\n      dup2\n        /* \"#utility.yul\":389:405   */\n      swap1\n      pop\n        /* \"#utility.yul\":334:411   */\n      swap2\n      swap1\n      pop\n      jump\t// out\n        /* \"#utility.yul\":417:539   */\n    tag_229:\n        /* \"#utility.yul\":490:514   */\n      tag_315\n        /* \"#utility.yul\":508:513   */\n      dup2\n        /* \"#utility.yul\":490:514   */\n      tag_228\n      jump\t// in\n    tag_315:\n        /* \"#utility.yul\":483:488   */\n      dup2\n        /* \"#utility.yul\":480:515   */\n      eq\n        /* \"#utility.yul\":470:533   */\n      tag_316\n      jumpi\n        /* \"#utility.yul\":529:530   */\n      0x00\n        /* \"#utility.yul\":526:527   */\n      dup1\n        /* \"#utility.yul\":519:531   */\n      revert\n        /* \"#utility.yul\":470:533   */\n    tag_316:\n        /* \"#utility.yul\":417:539   */\n      pop\n      jump\t// out\n        /* \"#utility.yul\":545:684   */\n    tag_230:\n        /* \"#utility.yul\":591:596   */\n      0x00\n        /* \"#utility.yul\":629:635   */\n      dup2\n        /* \"#utility.yul\":616:636   */\n      calldataload\n        /* \"#utility.yul\":607:636   */\n      swap1\n      pop\n        /* \"#utility.yul\":645:678   */\n      tag_318\n        /* \"#utility.yul\":672:677   */\n      dup2\n        /* \"#utility.yul\":645:678   */\n      tag_229\n      jump\t// in\n    tag_318:\n        /* \"#utility.yul\":545:684   */\n      swap3\n      swap2\n      pop\n      pop\n      jump\t// out\n        /* \"#utility.yul\":690:1019   */\n    tag_26:\n        /* \"#utility.yul\":749:755   */\n      0x00\n        /* \"#utility.yul\":798:800   */\n      0x20\n        /* \"#utility.yul\":786:795   */\n      dup3\n        /* \"#utility.yul\":777:784   */\n      dup5\n        /* \"#utility.yul\":773:796   */\n      sub\n        /* \"#utility.yul\":769:801   */\n      slt\n        /* \"#utility.yul\":766:885   */\n      iszero\n      tag_320\n      jumpi\n        /* \"#utility.yul\":804:883   */\n      tag_321\n      tag_226\n      jump\t// in\n    tag_321:\n        /* \"#utility.yul\":766:885   */\n    tag_320:\n        /* \"#utility.yul\":924:925   */\n      0x00\n        /* \"#utility.yul\":949:1002   */\n      tag_322\n        /* \"#utility.yul\":994:1001   */\n      dup5\n        /* \"#utility.yul\":985:991   */\n      dup3\n        /* \"#utility.yul\":974:983   */\n      dup6\n        /* \"#utility.yul\":970:992   */\n      add\n        /* \"#utility.yul\":949:1002   */\n      tag_230\n      jump\t// in\n    tag_322:\n        /* \"#utility.yul\":939:1002   */\n      swap2\n      pop\n        /* \"#utility.yul\":895:1012   */\n      pop\n        /* \"#utility.yul\":690:1019   */\n      swap3\n      swap2\n      pop\n      pop\n      jump\t// out\n        /* \"#utility.yul\":1025:1151   */\n    tag_231:\n        /* \"#utility.yul\":1062:1069   */\n      0x00\n        /* \"#utility.yul\":1102:1144   */\n      0xffffffffffffffffffffffffffffffffffffffff\n        /* \"#utility.yul\":1095:1100   */\n      dup3\n        /* \"#utility.yul\":1091:1145   */\n      and\n        /* \"#utility.yul\":1080:1145   */\n      swap1\n      pop\n        /* \"#utility.yul\":1025:1151   */\n      swap2\n      swap1\n      pop\n      jump\t// out\n        /* \"#utility.yul\":1157:1253   */\n    tag_232:\n        /* \"#utility.yul\":1194:1201   */\n      0x00\n        /* \"#utility.yul\":1223:1247   */\n      tag_325\n        /* \"#utility.yul\":1241:1246   */\n      dup3\n        /* \"#utility.yul\":1223:1247   */\n      tag_231\n      jump\t// in\n    tag_325:\n        /* \"#utility.yul\":1212:1247   */\n      swap1\n      pop\n        /* \"#utility.yul\":1157:1253   */\n      swap2\n      swap1\n      pop\n      jump\t// out\n        /* \"#utility.yul\":1259:1381   */\n    tag_233:\n        /* \"#utility.yul\":1332:1356   */\n      tag_327\n        /* \"#utility.yul\":1350:1355   */\n      dup2\n        /* \"#utility.yul\":1332:1356   */\n      tag_232\n      jump\t// in\n    tag_327:\n        /* \"#utility.yul\":1325:1330   */\n      dup2\n        /* \"#utility.yul\":1322:1357   */\n      eq\n        /* \"#utility.yul\":1312:1375   */\n      tag_328\n      jumpi\n        /* \"#utility.yul\":1371:1372   */\n      0x00\n        /* \"#utility.yul\":1368:1369   */\n      dup1\n        /* \"#utility.yul\":1361:1373   */\n      revert\n        /* \"#utility.yul\":1312:1375   */\n    tag_328:\n        /* \"#utility.yul\":1259:1381   */\n      pop\n      jump\t// out\n        /* \"#utility.yul\":1387:1526   */\n    tag_234:\n        /* \"#utility.yul\":1433:1438   */\n      0x00\n        /* \"#utility.yul\":1471:1477   */\n      dup2\n        /* \"#utility.yul\":1458:1478   */\n      calldataload\n        /* \"#utility.yul\":1449:1478   */\n      swap1\n      pop\n        /* \"#utility.yul\":1487:1520   */\n      tag_330\n        /* \"#utility.yul\":1514:1519   */\n      dup2\n        /* \"#utility.yul\":1487:1520   */\n      tag_233\n      jump\t// in\n    tag_330:\n        /* \"#utility.yul\":1387:1526   */\n      swap3\n      swap2\n      pop\n      pop\n      jump\t// out\n        /* \"#utility.yul\":1532:2006   */\n    tag_34:\n        /* \"#utility.yul\":1600:1606   */\n      0x00\n        /* \"#utility.yul\":1608:1614   */\n      dup1\n        /* \"#utility.yul\":1657:1659   */\n      0x40\n        /* \"#utility.yul\":1645:1654   */\n      dup4\n        /* \"#utility.yul\":1636:1643   */\n      dup6\n        /* \"#utility.yul\":1632:1655   */\n      sub\n        /* \"#utility.yul\":1628:1660   */\n      slt\n        /* \"#utility.yul\":1625:1744   */\n      iszero\n      tag_332\n      jumpi\n        /* \"#utility.yul\":1663:1742   */\n      tag_333\n      tag_226\n      jump\t// in\n    tag_333:\n        /* \"#utility.yul\":1625:1744   */\n    tag_332:\n        /* \"#utility.yul\":1783:1784   */\n      0x00\n        /* \"#utility.yul\":1808:1861   */\n      tag_334\n        /* \"#utility.yul\":1853:1860   */\n      dup6\n        /* \"#utility.yul\":1844:1850   */\n      dup3\n        /* \"#utility.yul\":1833:1842   */\n      dup7\n        /* \"#utility.yul\":1829:1851   */\n      add\n        /* \"#utility.yul\":1808:1861   */\n      tag_234\n      jump\t// in\n    tag_334:\n        /* \"#utility.yul\":1798:1861   */\n      swap3\n      pop\n        /* \"#utility.yul\":1754:1871   */\n      pop\n        /* \"#utility.yul\":1910:1912   */\n      0x20\n        /* \"#utility.yul\":1936:1989   */\n      tag_335\n        /* \"#utility.yul\":1981:1988   */\n      dup6\n        /* \"#utility.yul\":1972:1978   */\n      dup3\n        /* \"#utility.yul\":1961:1970   */\n      dup7\n        /* \"#utility.yul\":1957:1979   */\n      add\n        /* \"#utility.yul\":1936:1989   */\n      tag_230\n      jump\t// in\n    tag_335:\n        /* \"#utility.yul\":1926:1989   */\n      swap2\n      pop\n        /* \"#utility.yul\":1881:1999   */\n      pop\n        /* \"#utility.yul\":1532:2006   */\n      swap3\n      pop\n      swap3\n      swap1\n      pop\n      jump\t// out\n        /* \"#utility.yul\":2012:2130   */\n    tag_235:\n        /* \"#utility.yul\":2099:2123   */\n      tag_337\n        /* \"#utility.yul\":2117:2122   */\n      dup2\n        /* \"#utility.yul\":2099:2123   */\n      tag_228\n      jump\t// in\n    tag_337:\n        /* \"#utility.yul\":2094:2097   */\n      dup3\n        /* \"#utility.yul\":2087:2124   */\n      mstore\n        /* \"#utility.yul\":2012:2130   */\n      pop\n      pop\n      jump\t// out\n        /* \"#utility.yul\":2136:2358   */\n    tag_37:\n        /* \"#utility.yul\":2229:2233   */\n      0x00\n        /* \"#utility.yul\":2267:2269   */\n      0x20\n        /* \"#utility.yul\":2256:2265   */\n      dup3\n        /* \"#utility.yul\":2252:2270   */\n      add\n        /* \"#utility.yul\":2244:2270   */\n      swap1\n      pop\n        /* \"#utility.yul\":2280:2351   */\n      tag_339\n        /* \"#utility.yul\":2348:2349   */\n      0x00\n        /* \"#utility.yul\":2337:2346   */\n      dup4\n        /* \"#utility.yul\":2333:2350   */\n      add\n        /* \"#utility.yul\":2324:2330   */\n      dup5\n        /* \"#utility.yul\":2280:2351   */\n      tag_235\n      jump\t// in\n    tag_339:\n        /* \"#utility.yul\":2136:2358   */\n      swap3\n      swap2\n      pop\n      pop\n      jump\t// out\n        /* \"#utility.yul\":2364:2424   */\n    tag_236:\n        /* \"#utility.yul\":2392:2395   */\n      0x00\n        /* \"#utility.yul\":2413:2418   */\n      dup2\n        /* \"#utility.yul\":2406:2418   */\n      swap1\n      pop\n        /* \"#utility.yul\":2364:2424   */\n      swap2\n      swap1\n      pop\n      jump\t// out\n        /* \"#utility.yul\":2430:2572   */\n    tag_237:\n        /* \"#utility.yul\":2480:2489   */\n      0x00\n        /* \"#utility.yul\":2513:2566   */\n      tag_342\n        /* \"#utility.yul\":2531:2565   */\n      tag_343\n        /* \"#utility.yul\":2540:2564   */\n      tag_344\n        /* \"#utility.yul\":2558:2563   */\n      dup5\n        /* \"#utility.yul\":2540:2564   */\n      tag_231\n      jump\t// in\n    tag_344:\n        /* \"#utility.yul\":2531:2565   */\n      tag_236\n      jump\t// in\n    tag_343:\n        /* \"#utility.yul\":2513:2566   */\n      tag_231\n      jump\t// in\n    tag_342:\n        /* \"#utility.yul\":2500:2566   */\n      swap1\n      pop\n        /* \"#utility.yul\":2430:2572   */\n      swap2\n      swap1\n      pop\n      jump\t// out\n        /* \"#utility.yul\":2578:2704   */\n    tag_238:\n        /* \"#utility.yul\":2628:2637   */\n      0x00\n        /* \"#utility.yul\":2661:2698   */\n      tag_346\n        /* \"#utility.yul\":2692:2697   */\n      dup3\n        /* \"#utility.yul\":2661:2698   */\n      tag_237\n      jump\t// in\n    tag_346:\n        /* \"#utility.yul\":2648:2698   */\n      swap1\n      pop\n        /* \"#utility.yul\":2578:2704   */\n      swap2\n      swap1\n      pop\n      jump\t// out\n        /* \"#utility.yul\":2710:2861   */\n    tag_239:\n        /* \"#utility.yul\":2785:2794   */\n      0x00\n        /* \"#utility.yul\":2818:2855   */\n      tag_348\n        /* \"#utility.yul\":2849:2854   */\n      dup3\n        /* \"#utility.yul\":2818:2855   */\n      tag_238\n      jump\t// in\n    tag_348:\n        /* \"#utility.yul\":2805:2855   */\n      swap1\n      pop\n        /* \"#utility.yul\":2710:2861   */\n      swap2\n      swap1\n      pop\n      jump\t// out\n        /* \"#utility.yul\":2867:3048   */\n    tag_240:\n        /* \"#utility.yul\":2979:3041   */\n      tag_350\n        /* \"#utility.yul\":3035:3040   */\n      dup2\n        /* \"#utility.yul\":2979:3041   */\n      tag_239\n      jump\t// in\n    tag_350:\n        /* \"#utility.yul\":2974:2977   */\n      dup3\n        /* \"#utility.yul\":2967:3042   */\n      mstore\n        /* \"#utility.yul\":2867:3048   */\n      pop\n      pop\n      jump\t// out\n        /* \"#utility.yul\":3054:3326   */\n    tag_50:\n        /* \"#utility.yul\":3172:3176   */\n      0x00\n        /* \"#utility.yul\":3210:3212   */\n      0x20\n        /* \"#utility.yul\":3199:3208   */\n      dup3\n        /* \"#utility.yul\":3195:3213   */\n      add\n        /* \"#utility.yul\":3187:3213   */\n      swap1\n      pop\n        /* \"#utility.yul\":3223:3319   */\n      tag_352\n        /* \"#utility.yul\":3316:3317   */\n      0x00\n        /* \"#utility.yul\":3305:3314   */\n      dup4\n        /* \"#utility.yul\":3301:3318   */\n      add\n        /* \"#utility.yul\":3292:3298   */\n      dup5\n        /* \"#utility.yul\":3223:3319   */\n      tag_240\n      jump\t// in\n    tag_352:\n        /* \"#utility.yul\":3054:3326   */\n      swap3\n      swap2\n      pop\n      pop\n      jump\t// out\n        /* \"#utility.yul\":3332:3436   */\n    tag_241:\n        /* \"#utility.yul\":3377:3384   */\n      0x00\n        /* \"#utility.yul\":3406:3430   */\n      tag_354\n        /* \"#utility.yul\":3424:3429   */\n      dup3\n        /* \"#utility.yul\":3406:3430   */\n      tag_231\n      jump\t// in\n    tag_354:\n        /* \"#utility.yul\":3395:3430   */\n      swap1\n      pop\n        /* \"#utility.yul\":3332:3436   */\n      swap2\n      swap1\n      pop\n      jump\t// out\n        /* \"#utility.yul\":3442:3584   */\n    tag_242:\n        /* \"#utility.yul\":3545:3577   */\n      tag_356\n        /* \"#utility.yul\":3571:3576   */\n      dup2\n        /* \"#utility.yul\":3545:3577   */\n      tag_241\n      jump\t// in\n    tag_356:\n        /* \"#utility.yul\":3540:3543   */\n      dup3\n        /* \"#utility.yul\":3533:3578   */\n      mstore\n        /* \"#utility.yul\":3442:3584   */\n      pop\n      pop\n      jump\t// out\n        /* \"#utility.yul\":3590:3844   */\n    tag_59:\n        /* \"#utility.yul\":3699:3703   */\n      0x00\n        /* \"#utility.yul\":3737:3739   */\n      0x20\n        /* \"#utility.yul\":3726:3735   */\n      dup3\n        /* \"#utility.yul\":3722:3740   */\n      add\n        /* \"#utility.yul\":3714:3740   */\n      swap1\n      pop\n        /* \"#utility.yul\":3750:3837   */\n      tag_358\n        /* \"#utility.yul\":3834:3835   */\n      0x00\n        /* \"#utility.yul\":3823:3832   */\n      dup4\n        /* \"#utility.yul\":3819:3836   */\n      add\n        /* \"#utility.yul\":3810:3816   */\n      dup5\n        /* \"#utility.yul\":3750:3837   */\n      tag_242\n      jump\t// in\n    tag_358:\n        /* \"#utility.yul\":3590:3844   */\n      swap3\n      swap2\n      pop\n      pop\n      jump\t// out\n        /* \"#utility.yul\":3850:3968   */\n    tag_243:\n        /* \"#utility.yul\":3887:3894   */\n      0x00\n        /* \"#utility.yul\":3927:3961   */\n      0xffffffffffffffffffffffffffffffff\n        /* \"#utility.yul\":3920:3925   */\n      dup3\n        /* \"#utility.yul\":3916:3962   */\n      and\n        /* \"#utility.yul\":3905:3962   */\n      swap1\n      pop\n        /* \"#utility.yul\":3850:3968   */\n      swap2\n      swap1\n      pop\n      jump\t// out\n        /* \"#utility.yul\":3974:4096   */\n    tag_244:\n        /* \"#utility.yul\":4047:4071   */\n      tag_361\n        /* \"#utility.yul\":4065:4070   */\n      dup2\n        /* \"#utility.yul\":4047:4071   */\n      tag_243\n      jump\t// in\n    tag_361:\n        /* \"#utility.yul\":4040:4045   */\n      dup2\n        /* \"#utility.yul\":4037:4072   */\n      eq\n        /* \"#utility.yul\":4027:4090   */\n      tag_362\n      jumpi\n        /* \"#utility.yul\":4086:4087   */\n      0x00\n        /* \"#utility.yul\":4083:4084   */\n      dup1\n        /* \"#utility.yul\":4076:4088   */\n      revert\n        /* \"#utility.yul\":4027:4090   */\n    tag_362:\n        /* \"#utility.yul\":3974:4096   */\n      pop\n      jump\t// out\n        /* \"#utility.yul\":4102:4241   */\n    tag_245:\n        /* \"#utility.yul\":4148:4153   */\n      0x00\n        /* \"#utility.yul\":4186:4192   */\n      dup2\n        /* \"#utility.yul\":4173:4193   */\n      calldataload\n        /* \"#utility.yul\":4164:4193   */\n      swap1\n      pop\n        /* \"#utility.yul\":4202:4235   */\n      tag_364\n        /* \"#utility.yul\":4229:4234   */\n      dup2\n        /* \"#utility.yul\":4202:4235   */\n      tag_244\n      jump\t// in\n    tag_364:\n        /* \"#utility.yul\":4102:4241   */\n      swap3\n      swap2\n      pop\n      pop\n      jump\t// out\n        /* \"#utility.yul\":4247:4721   */\n    tag_63:\n        /* \"#utility.yul\":4315:4321   */\n      0x00\n        /* \"#utility.yul\":4323:4329   */\n      dup1\n        /* \"#utility.yul\":4372:4374   */\n      0x40\n        /* \"#utility.yul\":4360:4369   */\n      dup4\n        /* \"#utility.yul\":4351:4358   */\n      dup6\n        /* \"#utility.yul\":4347:4370   */\n      sub\n        /* \"#utility.yul\":4343:4375   */\n      slt\n        /* \"#utility.yul\":4340:4459   */\n      iszero\n      tag_366\n      jumpi\n        /* \"#utility.yul\":4378:4457   */\n      tag_367\n      tag_226\n      jump\t// in\n    tag_367:\n        /* \"#utility.yul\":4340:4459   */\n    tag_366:\n        /* \"#utility.yul\":4498:4499   */\n      0x00\n        /* \"#utility.yul\":4523:4576   */\n      tag_368\n        /* \"#utility.yul\":4568:4575   */\n      dup6\n        /* \"#utility.yul\":4559:4565   */\n      dup3\n        /* \"#utility.yul\":4548:4557   */\n      dup7\n        /* \"#utility.yul\":4544:4566   */\n      add\n        /* \"#utility.yul\":4523:4576   */\n      tag_245\n      jump\t// in\n    tag_368:\n        /* \"#utility.yul\":4513:4576   */\n      swap3\n      pop\n        /* \"#utility.yul\":4469:4586   */\n      pop\n        /* \"#utility.yul\":4625:4627   */\n      0x20\n        /* \"#utility.yul\":4651:4704   */\n      tag_369\n        /* \"#utility.yul\":4696:4703   */\n      dup6\n        /* \"#utility.yul\":4687:4693   */\n      dup3\n        /* \"#utility.yul\":4676:4685   */\n      dup7\n        /* \"#utility.yul\":4672:4694   */\n      add\n        /* \"#utility.yul\":4651:4704   */\n      tag_245\n      jump\t// in\n    tag_369:\n        /* \"#utility.yul\":4641:4704   */\n      swap2\n      pop\n        /* \"#utility.yul\":4596:4714   */\n      pop\n        /* \"#utility.yul\":4247:4721   */\n      swap3\n      pop\n      swap3\n      swap1\n      pop\n      jump\t// out\n        /* \"#utility.yul\":4727:4817   */\n    tag_246:\n        /* \"#utility.yul\":4761:4768   */\n      0x00\n        /* \"#utility.yul\":4804:4809   */\n      dup2\n        /* \"#utility.yul\":4797:4810   */\n      iszero\n        /* \"#utility.yul\":4790:4811   */\n      iszero\n        /* \"#utility.yul\":4779:4811   */\n      swap1\n      pop\n        /* \"#utility.yul\":4727:4817   */\n      swap2\n      swap1\n      pop\n      jump\t// out\n        /* \"#utility.yul\":4823:4932   */\n    tag_247:\n        /* \"#utility.yul\":4904:4925   */\n      tag_372\n        /* \"#utility.yul\":4919:4924   */\n      dup2\n        /* \"#utility.yul\":4904:4925   */\n      tag_246\n      jump\t// in\n    tag_372:\n        /* \"#utility.yul\":4899:4902   */\n      dup3\n        /* \"#utility.yul\":4892:4926   */\n      mstore\n        /* \"#utility.yul\":4823:4932   */\n      pop\n      pop\n      jump\t// out\n        /* \"#utility.yul\":4938:5148   */\n    tag_70:\n        /* \"#utility.yul\":5025:5029   */\n      0x00\n        /* \"#utility.yul\":5063:5065   */\n      0x20\n        /* \"#utility.yul\":5052:5061   */\n      dup3\n        /* \"#utility.yul\":5048:5066   */\n      add\n        /* \"#utility.yul\":5040:5066   */\n      swap1\n      pop\n        /* \"#utility.yul\":5076:5141   */\n      tag_374\n        /* \"#utility.yul\":5138:5139   */\n      0x00\n        /* \"#utility.yul\":5127:5136   */\n      dup4\n        /* \"#utility.yul\":5123:5140   */\n      add\n        /* \"#utility.yul\":5114:5120   */\n      dup5\n        /* \"#utility.yul\":5076:5141   */\n      tag_247\n      jump\t// in\n    tag_374:\n        /* \"#utility.yul\":4938:5148   */\n      swap3\n      swap2\n      pop\n      pop\n      jump\t// out\n        /* \"#utility.yul\":5154:5295   */\n    tag_248:\n        /* \"#utility.yul\":5219:5228   */\n      0x00\n        /* \"#utility.yul\":5252:5289   */\n      tag_376\n        /* \"#utility.yul\":5283:5288   */\n      dup3\n        /* \"#utility.yul\":5252:5289   */\n      tag_238\n      jump\t// in\n    tag_376:\n        /* \"#utility.yul\":5239:5289   */\n      swap1\n      pop\n        /* \"#utility.yul\":5154:5295   */\n      swap2\n      swap1\n      pop\n      jump\t// out\n        /* \"#utility.yul\":5301:5462   */\n    tag_249:\n        /* \"#utility.yul\":5403:5455   */\n      tag_378\n        /* \"#utility.yul\":5449:5454   */\n      dup2\n        /* \"#utility.yul\":5403:5455   */\n      tag_248\n      jump\t// in\n    tag_378:\n        /* \"#utility.yul\":5398:5401   */\n      dup3\n        /* \"#utility.yul\":5391:5456   */\n      mstore\n        /* \"#utility.yul\":5301:5462   */\n      pop\n      pop\n      jump\t// out\n        /* \"#utility.yul\":5468:5720   */\n    tag_84:\n        /* \"#utility.yul\":5576:5580   */\n      0x00\n        /* \"#utility.yul\":5614:5616   */\n      0x20\n        /* \"#utility.yul\":5603:5612   */\n      dup3\n        /* \"#utility.yul\":5599:5617   */\n      add\n        /* \"#utility.yul\":5591:5617   */\n      swap1\n      pop\n        /* \"#utility.yul\":5627:5713   */\n      tag_380\n        /* \"#utility.yul\":5710:5711   */\n      0x00\n        /* \"#utility.yul\":5699:5708   */\n      dup4\n        /* \"#utility.yul\":5695:5712   */\n      add\n        /* \"#utility.yul\":5686:5692   */\n      dup5\n        /* \"#utility.yul\":5627:5713   */\n      tag_249\n      jump\t// in\n    tag_380:\n        /* \"#utility.yul\":5468:5720   */\n      swap3\n      swap2\n      pop\n      pop\n      jump\t// out\n        /* \"#utility.yul\":5726:6055   */\n    tag_88:\n        /* \"#utility.yul\":5785:5791   */\n      0x00\n        /* \"#utility.yul\":5834:5836   */\n      0x20\n        /* \"#utility.yul\":5822:5831   */\n      dup3\n        /* \"#utility.yul\":5813:5820   */\n      dup5\n        /* \"#utility.yul\":5809:5832   */\n      sub\n        /* \"#utility.yul\":5805:5837   */\n      slt\n        /* \"#utility.yul\":5802:5921   */\n      iszero\n      tag_382\n      jumpi\n        /* \"#utility.yul\":5840:5919   */\n      tag_383\n      tag_226\n      jump\t// in\n    tag_383:\n        /* \"#utility.yul\":5802:5921   */\n    tag_382:\n        /* \"#utility.yul\":5960:5961   */\n      0x00\n        /* \"#utility.yul\":5985:6038   */\n      tag_384\n        /* \"#utility.yul\":6030:6037   */\n      dup5\n        /* \"#utility.yul\":6021:6027   */\n      dup3\n        /* \"#utility.yul\":6010:6019   */\n      dup6\n        /* \"#utility.yul\":6006:6028   */\n      add\n        /* \"#utility.yul\":5985:6038   */\n      tag_234\n      jump\t// in\n    tag_384:\n        /* \"#utility.yul\":5975:6038   */\n      swap2\n      pop\n        /* \"#utility.yul\":5931:6048   */\n      pop\n        /* \"#utility.yul\":5726:6055   */\n      swap3\n      swap2\n      pop\n      pop\n      jump\t// out\n        /* \"#utility.yul\":6061:6199   */\n    tag_250:\n        /* \"#utility.yul\":6152:6158   */\n      0x00\n        /* \"#utility.yul\":6186:6191   */\n      dup2\n        /* \"#utility.yul\":6180:6192   */\n      mload\n        /* \"#utility.yul\":6170:6192   */\n      swap1\n      pop\n        /* \"#utility.yul\":6061:6199   */\n      swap2\n      swap1\n      pop\n      jump\t// out\n        /* \"#utility.yul\":6205:6413   */\n    tag_251:\n        /* \"#utility.yul\":6328:6339   */\n      0x00\n        /* \"#utility.yul\":6362:6368   */\n      dup3\n        /* \"#utility.yul\":6357:6360   */\n      dup3\n        /* \"#utility.yul\":6350:6369   */\n      mstore\n        /* \"#utility.yul\":6402:6406   */\n      0x20\n        /* \"#utility.yul\":6397:6400   */\n      dup3\n        /* \"#utility.yul\":6393:6407   */\n      add\n        /* \"#utility.yul\":6378:6407   */\n      swap1\n      pop\n        /* \"#utility.yul\":6205:6413   */\n      swap3\n      swap2\n      pop\n      pop\n      jump\t// out\n        /* \"#utility.yul\":6419:6575   */\n    tag_252:\n        /* \"#utility.yul\":6510:6514   */\n      0x00\n        /* \"#utility.yul\":6533:6536   */\n      dup2\n        /* \"#utility.yul\":6525:6536   */\n      swap1\n      pop\n        /* \"#utility.yul\":6563:6567   */\n      0x20\n        /* \"#utility.yul\":6558:6561   */\n      dup3\n        /* \"#utility.yul\":6554:6568   */\n      add\n        /* \"#utility.yul\":6546:6568   */\n      swap1\n      pop\n        /* \"#utility.yul\":6419:6575   */\n      swap2\n      swap1\n      pop\n      jump\t// out\n        /* \"#utility.yul\":6581:6689   */\n    tag_253:\n        /* \"#utility.yul\":6658:6682   */\n      tag_389\n        /* \"#utility.yul\":6676:6681   */\n      dup2\n        /* \"#utility.yul\":6658:6682   */\n      tag_232\n      jump\t// in\n    tag_389:\n        /* \"#utility.yul\":6653:6656   */\n      dup3\n        /* \"#utility.yul\":6646:6683   */\n      mstore\n        /* \"#utility.yul\":6581:6689   */\n      pop\n      pop\n      jump\t// out\n        /* \"#utility.yul\":6695:6803   */\n    tag_254:\n        /* \"#utility.yul\":6772:6796   */\n      tag_391\n        /* \"#utility.yul\":6790:6795   */\n      dup2\n        /* \"#utility.yul\":6772:6796   */\n      tag_243\n      jump\t// in\n    tag_391:\n        /* \"#utility.yul\":6767:6770   */\n      dup3\n        /* \"#utility.yul\":6760:6797   */\n      mstore\n        /* \"#utility.yul\":6695:6803   */\n      pop\n      pop\n      jump\t// out\n        /* \"#utility.yul\":6809:6908   */\n    tag_255:\n        /* \"#utility.yul\":6880:6901   */\n      tag_393\n        /* \"#utility.yul\":6895:6900   */\n      dup2\n        /* \"#utility.yul\":6880:6901   */\n      tag_246\n      jump\t// in\n    tag_393:\n        /* \"#utility.yul\":6875:6878   */\n      dup3\n        /* \"#utility.yul\":6868:6902   */\n      mstore\n        /* \"#utility.yul\":6809:6908   */\n      pop\n      pop\n      jump\t// out\n        /* \"#utility.yul\":6978:7825   */\n    tag_256:\n        /* \"#utility.yul\":7113:7117   */\n      0x80\n        /* \"#utility.yul\":7108:7111   */\n      dup3\n        /* \"#utility.yul\":7104:7118   */\n      add\n        /* \"#utility.yul\":7202:7206   */\n      0x00\n        /* \"#utility.yul\":7195:7200   */\n      dup3\n        /* \"#utility.yul\":7191:7207   */\n      add\n        /* \"#utility.yul\":7185:7208   */\n      mload\n        /* \"#utility.yul\":7221:7284   */\n      tag_395\n        /* \"#utility.yul\":7278:7282   */\n      0x00\n        /* \"#utility.yul\":7273:7276   */\n      dup6\n        /* \"#utility.yul\":7269:7283   */\n      add\n        /* \"#utility.yul\":7255:7267   */\n      dup3\n        /* \"#utility.yul\":7221:7284   */\n      tag_253\n      jump\t// in\n    tag_395:\n        /* \"#utility.yul\":7128:7294   */\n      pop\n        /* \"#utility.yul\":7379:7383   */\n      0x20\n        /* \"#utility.yul\":7372:7377   */\n      dup3\n        /* \"#utility.yul\":7368:7384   */\n      add\n        /* \"#utility.yul\":7362:7385   */\n      mload\n        /* \"#utility.yul\":7398:7461   */\n      tag_396\n        /* \"#utility.yul\":7455:7459   */\n      0x20\n        /* \"#utility.yul\":7450:7453   */\n      dup6\n        /* \"#utility.yul\":7446:7460   */\n      add\n        /* \"#utility.yul\":7432:7444   */\n      dup3\n        /* \"#utility.yul\":7398:7461   */\n      tag_254\n      jump\t// in\n    tag_396:\n        /* \"#utility.yul\":7304:7471   */\n      pop\n        /* \"#utility.yul\":7554:7558   */\n      0x40\n        /* \"#utility.yul\":7547:7552   */\n      dup3\n        /* \"#utility.yul\":7543:7559   */\n      add\n        /* \"#utility.yul\":7537:7560   */\n      mload\n        /* \"#utility.yul\":7573:7636   */\n      tag_397\n        /* \"#utility.yul\":7630:7634   */\n      0x40\n        /* \"#utility.yul\":7625:7628   */\n      dup6\n        /* \"#utility.yul\":7621:7635   */\n      add\n        /* \"#utility.yul\":7607:7619   */\n      dup3\n        /* \"#utility.yul\":7573:7636   */\n      tag_254\n      jump\t// in\n    tag_397:\n        /* \"#utility.yul\":7481:7646   */\n      pop\n        /* \"#utility.yul\":7732:7736   */\n      0x60\n        /* \"#utility.yul\":7725:7730   */\n      dup3\n        /* \"#utility.yul\":7721:7737   */\n      add\n        /* \"#utility.yul\":7715:7738   */\n      mload\n        /* \"#utility.yul\":7751:7808   */\n      tag_398\n        /* \"#utility.yul\":7802:7806   */\n      0x60\n        /* \"#utility.yul\":7797:7800   */\n      dup6\n        /* \"#utility.yul\":7793:7807   */\n      add\n        /* \"#utility.yul\":7779:7791   */\n      dup3\n        /* \"#utility.yul\":7751:7808   */\n      tag_255\n      jump\t// in\n    tag_398:\n        /* \"#utility.yul\":7656:7818   */\n      pop\n        /* \"#utility.yul\":7082:7825   */\n      pop\n        /* \"#utility.yul\":6978:7825   */\n      pop\n      pop\n      jump\t// out\n        /* \"#utility.yul\":7831:8106   */\n    tag_257:\n        /* \"#utility.yul\":7948:7958   */\n      0x00\n        /* \"#utility.yul\":7969:8063   */\n      tag_400\n        /* \"#utility.yul\":8059:8062   */\n      dup4\n        /* \"#utility.yul\":8051:8057   */\n      dup4\n        /* \"#utility.yul\":7969:8063   */\n      tag_256\n      jump\t// in\n    tag_400:\n        /* \"#utility.yul\":8095:8099   */\n      0x80\n        /* \"#utility.yul\":8090:8093   */\n      dup4\n        /* \"#utility.yul\":8086:8100   */\n      add\n        /* \"#utility.yul\":8072:8100   */\n      swap1\n      pop\n        /* \"#utility.yul\":7831:8106   */\n      swap3\n      swap2\n      pop\n      pop\n      jump\t// out\n        /* \"#utility.yul\":8112:8249   */\n    tag_258:\n        /* \"#utility.yul\":8206:8210   */\n      0x00\n        /* \"#utility.yul\":8238:8242   */\n      0x20\n        /* \"#utility.yul\":8233:8236   */\n      dup3\n        /* \"#utility.yul\":8229:8243   */\n      add\n        /* \"#utility.yul\":8221:8243   */\n      swap1\n      pop\n        /* \"#utility.yul\":8112:8249   */\n      swap2\n      swap1\n      pop\n      jump\t// out\n        /* \"#utility.yul\":8323:9247   */\n    tag_259:\n        /* \"#utility.yul\":8490:8493   */\n      0x00\n        /* \"#utility.yul\":8519:8597   */\n      tag_403\n        /* \"#utility.yul\":8591:8596   */\n      dup3\n        /* \"#utility.yul\":8519:8597   */\n      tag_250\n      jump\t// in\n    tag_403:\n        /* \"#utility.yul\":8613:8723   */\n      tag_404\n        /* \"#utility.yul\":8716:8722   */\n      dup2\n        /* \"#utility.yul\":8711:8714   */\n      dup6\n        /* \"#utility.yul\":8613:8723   */\n      tag_251\n      jump\t// in\n    tag_404:\n        /* \"#utility.yul\":8606:8723   */\n      swap4\n      pop\n        /* \"#utility.yul\":8747:8827   */\n      tag_405\n        /* \"#utility.yul\":8821:8826   */\n      dup4\n        /* \"#utility.yul\":8747:8827   */\n      tag_252\n      jump\t// in\n    tag_405:\n        /* \"#utility.yul\":8850:8857   */\n      dup1\n        /* \"#utility.yul\":8881:8882   */\n      0x00\n        /* \"#utility.yul\":8866:9222   */\n    tag_406:\n        /* \"#utility.yul\":8891:8897   */\n      dup4\n        /* \"#utility.yul\":8888:8889   */\n      dup2\n        /* \"#utility.yul\":8885:8898   */\n      lt\n        /* \"#utility.yul\":8866:9222   */\n      iszero\n      tag_408\n      jumpi\n        /* \"#utility.yul\":8967:8973   */\n      dup2\n        /* \"#utility.yul\":8961:8974   */\n      mload\n        /* \"#utility.yul\":8994:9105   */\n      tag_409\n        /* \"#utility.yul\":9101:9104   */\n      dup9\n        /* \"#utility.yul\":9086:9099   */\n      dup3\n        /* \"#utility.yul\":8994:9105   */\n      tag_257\n      jump\t// in\n    tag_409:\n        /* \"#utility.yul\":8987:9105   */\n      swap8\n      pop\n        /* \"#utility.yul\":9128:9212   */\n      tag_410\n        /* \"#utility.yul\":9205:9211   */\n      dup4\n        /* \"#utility.yul\":9128:9212   */\n      tag_258\n      jump\t// in\n    tag_410:\n        /* \"#utility.yul\":9118:9212   */\n      swap3\n      pop\n        /* \"#utility.yul\":8926:9222   */\n      pop\n        /* \"#utility.yul\":8913:8914   */\n      0x01\n        /* \"#utility.yul\":8910:8911   */\n      dup2\n        /* \"#utility.yul\":8906:8915   */\n      add\n        /* \"#utility.yul\":8901:8915   */\n      swap1\n      pop\n        /* \"#utility.yul\":8866:9222   */\n      jump(tag_406)\n    tag_408:\n        /* \"#utility.yul\":8870:8884   */\n      pop\n        /* \"#utility.yul\":9238:9241   */\n      dup6\n        /* \"#utility.yul\":9231:9241   */\n      swap4\n      pop\n        /* \"#utility.yul\":8495:9247   */\n      pop\n      pop\n      pop\n        /* \"#utility.yul\":8323:9247   */\n      swap3\n      swap2\n      pop\n      pop\n      jump\t// out\n        /* \"#utility.yul\":9253:9722   */\n    tag_91:\n        /* \"#utility.yul\":9444:9448   */\n      0x00\n        /* \"#utility.yul\":9482:9484   */\n      0x20\n        /* \"#utility.yul\":9471:9480   */\n      dup3\n        /* \"#utility.yul\":9467:9485   */\n      add\n        /* \"#utility.yul\":9459:9485   */\n      swap1\n      pop\n        /* \"#utility.yul\":9531:9540   */\n      dup2\n        /* \"#utility.yul\":9525:9529   */\n      dup2\n        /* \"#utility.yul\":9521:9541   */\n      sub\n        /* \"#utility.yul\":9517:9518   */\n      0x00\n        /* \"#utility.yul\":9506:9515   */\n      dup4\n        /* \"#utility.yul\":9502:9519   */\n      add\n        /* \"#utility.yul\":9495:9542   */\n      mstore\n        /* \"#utility.yul\":9559:9715   */\n      tag_412\n        /* \"#utility.yul\":9710:9714   */\n      dup2\n        /* \"#utility.yul\":9701:9707   */\n      dup5\n        /* \"#utility.yul\":9559:9715   */\n      tag_259\n      jump\t// in\n    tag_412:\n        /* \"#utility.yul\":9551:9715   */\n      swap1\n      pop\n        /* \"#utility.yul\":9253:9722   */\n      swap3\n      swap2\n      pop\n      pop\n      jump\t// out\n        /* \"#utility.yul\":9728:9846   */\n    tag_260:\n        /* \"#utility.yul\":9815:9839   */\n      tag_414\n        /* \"#utility.yul\":9833:9838   */\n      dup2\n        /* \"#utility.yul\":9815:9839   */\n      tag_232\n      jump\t// in\n    tag_414:\n        /* \"#utility.yul\":9810:9813   */\n      dup3\n        /* \"#utility.yul\":9803:9840   */\n      mstore\n        /* \"#utility.yul\":9728:9846   */\n      pop\n      pop\n      jump\t// out\n        /* \"#utility.yul\":9852:9970   */\n    tag_261:\n        /* \"#utility.yul\":9939:9963   */\n      tag_416\n        /* \"#utility.yul\":9957:9962   */\n      dup2\n        /* \"#utility.yul\":9939:9963   */\n      tag_243\n      jump\t// in\n    tag_416:\n        /* \"#utility.yul\":9934:9937   */\n      dup3\n        /* \"#utility.yul\":9927:9964   */\n      mstore\n        /* \"#utility.yul\":9852:9970   */\n      pop\n      pop\n      jump\t// out\n        /* \"#utility.yul\":9976:10517   */\n    tag_97:\n        /* \"#utility.yul\":10147:10151   */\n      0x00\n        /* \"#utility.yul\":10185:10188   */\n      0x80\n        /* \"#utility.yul\":10174:10183   */\n      dup3\n        /* \"#utility.yul\":10170:10189   */\n      add\n        /* \"#utility.yul\":10162:10189   */\n      swap1\n      pop\n        /* \"#utility.yul\":10199:10270   */\n      tag_418\n        /* \"#utility.yul\":10267:10268   */\n      0x00\n        /* \"#utility.yul\":10256:10265   */\n      dup4\n        /* \"#utility.yul\":10252:10269   */\n      add\n        /* \"#utility.yul\":10243:10249   */\n      dup8\n        /* \"#utility.yul\":10199:10270   */\n      tag_260\n      jump\t// in\n    tag_418:\n        /* \"#utility.yul\":10280:10352   */\n      tag_419\n        /* \"#utility.yul\":10348:10350   */\n      0x20\n        /* \"#utility.yul\":10337:10346   */\n      dup4\n        /* \"#utility.yul\":10333:10351   */\n      add\n        /* \"#utility.yul\":10324:10330   */\n      dup7\n        /* \"#utility.yul\":10280:10352   */\n      tag_261\n      jump\t// in\n    tag_419:\n        /* \"#utility.yul\":10362:10434   */\n      tag_420\n        /* \"#utility.yul\":10430:10432   */\n      0x40\n        /* \"#utility.yul\":10419:10428   */\n      dup4\n        /* \"#utility.yul\":10415:10433   */\n      add\n        /* \"#utility.yul\":10406:10412   */\n      dup6\n        /* \"#utility.yul\":10362:10434   */\n      tag_261\n      jump\t// in\n    tag_420:\n        /* \"#utility.yul\":10444:10510   */\n      tag_421\n        /* \"#utility.yul\":10506:10508   */\n      0x60\n        /* \"#utility.yul\":10495:10504   */\n      dup4\n        /* \"#utility.yul\":10491:10509   */\n      add\n        /* \"#utility.yul\":10482:10488   */\n      dup5\n        /* \"#utility.yul\":10444:10510   */\n      tag_247\n      jump\t// in\n    tag_421:\n        /* \"#utility.yul\":9976:10517   */\n      swap6\n      swap5\n      pop\n      pop\n      pop\n      pop\n      pop\n      jump\t// out\n        /* \"#utility.yul\":10523:10692   */\n    tag_262:\n        /* \"#utility.yul\":10607:10618   */\n      0x00\n        /* \"#utility.yul\":10641:10647   */\n      dup3\n        /* \"#utility.yul\":10636:10639   */\n      dup3\n        /* \"#utility.yul\":10629:10648   */\n      mstore\n        /* \"#utility.yul\":10681:10685   */\n      0x20\n        /* \"#utility.yul\":10676:10679   */\n      dup3\n        /* \"#utility.yul\":10672:10686   */\n      add\n        /* \"#utility.yul\":10657:10686   */\n      swap1\n      pop\n        /* \"#utility.yul\":10523:10692   */\n      swap3\n      swap2\n      pop\n      pop\n      jump\t// out\n        /* \"#utility.yul\":10698:10866   */\n    tag_263:\n        /* \"#utility.yul\":10838:10858   */\n      0x4c697374696e67206e6f74206163746976650000000000000000000000000000\n        /* \"#utility.yul\":10834:10835   */\n      0x00\n        /* \"#utility.yul\":10826:10832   */\n      dup3\n        /* \"#utility.yul\":10822:10836   */\n      add\n        /* \"#utility.yul\":10815:10859   */\n      mstore\n        /* \"#utility.yul\":10698:10866   */\n      pop\n      jump\t// out\n        /* \"#utility.yul\":10872:11238   */\n    tag_264:\n        /* \"#utility.yul\":11014:11017   */\n      0x00\n        /* \"#utility.yul\":11035:11102   */\n      tag_425\n        /* \"#utility.yul\":11099:11101   */\n      0x12\n        /* \"#utility.yul\":11094:11097   */\n      dup4\n        /* \"#utility.yul\":11035:11102   */\n      tag_262\n      jump\t// in\n    tag_425:\n        /* \"#utility.yul\":11028:11102   */\n      swap2\n      pop\n        /* \"#utility.yul\":11111:11204   */\n      tag_426\n        /* \"#utility.yul\":11200:11203   */\n      dup3\n        /* \"#utility.yul\":11111:11204   */\n      tag_263\n      jump\t// in\n    tag_426:\n        /* \"#utility.yul\":11229:11231   */\n      0x20\n        /* \"#utility.yul\":11224:11227   */\n      dup3\n        /* \"#utility.yul\":11220:11232   */\n      add\n        /* \"#utility.yul\":11213:11232   */\n      swap1\n      pop\n        /* \"#utility.yul\":10872:11238   */\n      swap2\n      swap1\n      pop\n      jump\t// out\n        /* \"#utility.yul\":11244:11663   */\n    tag_106:\n        /* \"#utility.yul\":11410:11414   */\n      0x00\n        /* \"#utility.yul\":11448:11450   */\n      0x20\n        /* \"#utility.yul\":11437:11446   */\n      dup3\n        /* \"#utility.yul\":11433:11451   */\n      add\n        /* \"#utility.yul\":11425:11451   */\n      swap1\n      pop\n        /* \"#utility.yul\":11497:11506   */\n      dup2\n        /* \"#utility.yul\":11491:11495   */\n      dup2\n        /* \"#utility.yul\":11487:11507   */\n      sub\n        /* \"#utility.yul\":11483:11484   */\n      0x00\n        /* \"#utility.yul\":11472:11481   */\n      dup4\n        /* \"#utility.yul\":11468:11485   */\n      add\n        /* \"#utility.yul\":11461:11508   */\n      mstore\n        /* \"#utility.yul\":11525:11656   */\n      tag_428\n        /* \"#utility.yul\":11651:11655   */\n      dup2\n        /* \"#utility.yul\":11525:11656   */\n      tag_264\n      jump\t// in\n    tag_428:\n        /* \"#utility.yul\":11517:11656   */\n      swap1\n      pop\n        /* \"#utility.yul\":11244:11663   */\n      swap2\n      swap1\n      pop\n      jump\t// out\n        /* \"#utility.yul\":11669:11839   */\n    tag_265:\n        /* \"#utility.yul\":11809:11831   */\n      0x496e73756666696369656e74207061796d656e74000000000000000000000000\n        /* \"#utility.yul\":11805:11806   */\n      0x00\n        /* \"#utility.yul\":11797:11803   */\n      dup3\n        /* \"#utility.yul\":11793:11807   */\n      add\n        /* \"#utility.yul\":11786:11832   */\n      mstore\n        /* \"#utility.yul\":11669:11839   */\n      pop\n      jump\t// out\n        /* \"#utility.yul\":11845:12211   */\n    tag_266:\n        /* \"#utility.yul\":11987:11990   */\n      0x00\n        /* \"#utility.yul\":12008:12075   */\n      tag_431\n        /* \"#utility.yul\":12072:12074   */\n      0x14\n        /* \"#utility.yul\":12067:12070   */\n      dup4\n        /* \"#utility.yul\":12008:12075   */\n      tag_262\n      jump\t// in\n    tag_431:\n        /* \"#utility.yul\":12001:12075   */\n      swap2\n      pop\n        /* \"#utility.yul\":12084:12177   */\n      tag_432\n        /* \"#utility.yul\":12173:12176   */\n      dup3\n        /* \"#utility.yul\":12084:12177   */\n      tag_265\n      jump\t// in\n    tag_432:\n        /* \"#utility.yul\":12202:12204   */\n      0x20\n        /* \"#utility.yul\":12197:12200   */\n      dup3\n        /* \"#utility.yul\":12193:12205   */\n      add\n        /* \"#utility.yul\":12186:12205   */\n      swap1\n      pop\n        /* \"#utility.yul\":11845:12211   */\n      swap2\n      swap1\n      pop\n      jump\t// out\n        /* \"#utility.yul\":12217:12636   */\n    tag_109:\n        /* \"#utility.yul\":12383:12387   */\n      0x00\n        /* \"#utility.yul\":12421:12423   */\n      0x20\n        /* \"#utility.yul\":12410:12419   */\n      dup3\n        /* \"#utility.yul\":12406:12424   */\n      add\n        /* \"#utility.yul\":12398:12424   */\n      swap1\n      pop\n        /* \"#utility.yul\":12470:12479   */\n      dup2\n        /* \"#utility.yul\":12464:12468   */\n      dup2\n        /* \"#utility.yul\":12460:12480   */\n      sub\n        /* \"#utility.yul\":12456:12457   */\n      0x00\n        /* \"#utility.yul\":12445:12454   */\n      dup4\n        /* \"#utility.yul\":12441:12458   */\n      add\n        /* \"#utility.yul\":12434:12481   */\n      mstore\n        /* \"#utility.yul\":12498:12629   */\n      tag_434\n        /* \"#utility.yul\":12624:12628   */\n      dup2\n        /* \"#utility.yul\":12498:12629   */\n      tag_266\n      jump\t// in\n    tag_434:\n        /* \"#utility.yul\":12490:12629   */\n      swap1\n      pop\n        /* \"#utility.yul\":12217:12636   */\n      swap2\n      swap1\n      pop\n      jump\t// out\n        /* \"#utility.yul\":12642:12814   */\n    tag_267:\n        /* \"#utility.yul\":12782:12806   */\n      0x43616e6e6f7420627579206f776e206c697374696e6700000000000000000000\n        /* \"#utility.yul\":12778:12779   */\n      0x00\n        /* \"#utility.yul\":12770:12776   */\n      dup3\n        /* \"#utility.yul\":12766:12780   */\n      add\n        /* \"#utility.yul\":12759:12807   */\n      mstore\n        /* \"#utility.yul\":12642:12814   */\n      pop\n      jump\t// out\n        /* \"#utility.yul\":12820:13186   */\n    tag_268:\n        /* \"#utility.yul\":12962:12965   */\n      0x00\n        /* \"#utility.yul\":12983:13050   */\n      tag_437\n        /* \"#utility.yul\":13047:13049   */\n      0x16\n        /* \"#utility.yul\":13042:13045   */\n      dup4\n        /* \"#utility.yul\":12983:13050   */\n      tag_262\n      jump\t// in\n    tag_437:\n        /* \"#utility.yul\":12976:13050   */\n      swap2\n      pop\n        /* \"#utility.yul\":13059:13152   */\n      tag_438\n        /* \"#utility.yul\":13148:13151   */\n      dup3\n        /* \"#utility.yul\":13059:13152   */\n      tag_267\n      jump\t// in\n    tag_438:\n        /* \"#utility.yul\":13177:13179   */\n      0x20\n        /* \"#utility.yul\":13172:13175   */\n      dup3\n        /* \"#utility.yul\":13168:13180   */\n      add\n        /* \"#utility.yul\":13161:13180   */\n      swap1\n      pop\n        /* \"#utility.yul\":12820:13186   */\n      swap2\n      swap1\n      pop\n      jump\t// out\n        /* \"#utility.yul\":13192:13611   */\n    tag_112:\n        /* \"#utility.yul\":13358:13362   */\n      0x00\n        /* \"#utility.yul\":13396:13398   */\n      0x20\n        /* \"#utility.yul\":13385:13394   */\n      dup3\n        /* \"#utility.yul\":13381:13399   */\n      add\n        /* \"#utility.yul\":13373:13399   */\n      swap1\n      pop\n        /* \"#utility.yul\":13445:13454   */\n      dup2\n        /* \"#utility.yul\":13439:13443   */\n      dup2\n        /* \"#utility.yul\":13435:13455   */\n      sub\n        /* \"#utility.yul\":13431:13432   */\n      0x00\n        /* \"#utility.yul\":13420:13429   */\n      dup4\n        /* \"#utility.yul\":13416:13433   */\n      add\n        /* \"#utility.yul\":13409:13456   */\n      mstore\n        /* \"#utility.yul\":13473:13604   */\n      tag_440\n        /* \"#utility.yul\":13599:13603   */\n      dup2\n        /* \"#utility.yul\":13473:13604   */\n      tag_268\n      jump\t// in\n    tag_440:\n        /* \"#utility.yul\":13465:13604   */\n      swap1\n      pop\n        /* \"#utility.yul\":13192:13611   */\n      swap2\n      swap1\n      pop\n      jump\t// out\n        /* \"#utility.yul\":13617:13797   */\n    tag_269:\n        /* \"#utility.yul\":13665:13742   */\n      0x4e487b7100000000000000000000000000000000000000000000000000000000\n        /* \"#utility.yul\":13662:13663   */\n      0x00\n        /* \"#utility.yul\":13655:13743   */\n      mstore\n        /* \"#utility.yul\":13762:13766   */\n      0x11\n        /* \"#utility.yul\":13759:13760   */\n      0x04\n        /* \"#utility.yul\":13752:13767   */\n      mstore\n        /* \"#utility.yul\":13786:13790   */\n      0x24\n        /* \"#utility.yul\":13783:13784   */\n      0x00\n        /* \"#utility.yul\":13776:13791   */\n      revert\n        /* \"#utility.yul\":13803:14213   */\n    tag_114:\n        /* \"#utility.yul\":13843:13850   */\n      0x00\n        /* \"#utility.yul\":13866:13886   */\n      tag_443\n        /* \"#utility.yul\":13884:13885   */\n      dup3\n        /* \"#utility.yul\":13866:13886   */\n      tag_228\n      jump\t// in\n    tag_443:\n        /* \"#utility.yul\":13861:13886   */\n      swap2\n      pop\n        /* \"#utility.yul\":13900:13920   */\n      tag_444\n        /* \"#utility.yul\":13918:13919   */\n      dup4\n        /* \"#utility.yul\":13900:13920   */\n      tag_228\n      jump\t// in\n    tag_444:\n        /* \"#utility.yul\":13895:13920   */\n      swap3\n      pop\n        /* \"#utility.yul\":13955:13956   */\n      dup3\n        /* \"#utility.yul\":13952:13953   */\n      dup3\n        /* \"#utility.yul\":13948:13957   */\n      mul\n        /* \"#utility.yul\":13977:14007   */\n      tag_445\n        /* \"#utility.yul\":13995:14006   */\n      dup2\n        /* \"#utility.yul\":13977:14007   */\n      tag_228\n      jump\t// in\n    tag_445:\n        /* \"#utility.yul\":13966:14007   */\n      swap2\n      pop\n        /* \"#utility.yul\":14156:14157   */\n      dup3\n        /* \"#utility.yul\":14147:14154   */\n      dup3\n        /* \"#utility.yul\":14143:14158   */\n      div\n        /* \"#utility.yul\":14140:14141   */\n      dup5\n        /* \"#utility.yul\":14137:14159   */\n      eq\n        /* \"#utility.yul\":14117:14118   */\n      dup4\n        /* \"#utility.yul\":14110:14119   */\n      iszero\n        /* \"#utility.yul\":14090:14173   */\n      or\n        /* \"#utility.yul\":14067:14206   */\n      tag_446\n      jumpi\n        /* \"#utility.yul\":14186:14204   */\n      tag_447\n      tag_269\n      jump\t// in\n    tag_447:\n        /* \"#utility.yul\":14067:14206   */\n    tag_446:\n        /* \"#utility.yul\":13851:14213   */\n      pop\n        /* \"#utility.yul\":13803:14213   */\n      swap3\n      swap2\n      pop\n      pop\n      jump\t// out\n        /* \"#utility.yul\":14219:14399   */\n    tag_270:\n        /* \"#utility.yul\":14267:14344   */\n      0x4e487b7100000000000000000000000000000000000000000000000000000000\n        /* \"#utility.yul\":14264:14265   */\n      0x00\n        /* \"#utility.yul\":14257:14345   */\n      mstore\n        /* \"#utility.yul\":14364:14368   */\n      0x12\n        /* \"#utility.yul\":14361:14362   */\n      0x04\n        /* \"#utility.yul\":14354:14369   */\n      mstore\n        /* \"#utility.yul\":14388:14392   */\n      0x24\n        /* \"#utility.yul\":14385:14386   */\n      0x00\n        /* \"#utility.yul\":14378:14393   */\n      revert\n        /* \"#utility.yul\":14405:14590   */\n    tag_116:\n        /* \"#utility.yul\":14445:14446   */\n      0x00\n        /* \"#utility.yul\":14462:14482   */\n      tag_450\n        /* \"#utility.yul\":14480:14481   */\n      dup3\n        /* \"#utility.yul\":14462:14482   */\n      tag_228\n      jump\t// in\n    tag_450:\n        /* \"#utility.yul\":14457:14482   */\n      swap2\n      pop\n        /* \"#utility.yul\":14496:14516   */\n      tag_451\n        /* \"#utility.yul\":14514:14515   */\n      dup4\n        /* \"#utility.yul\":14496:14516   */\n      tag_228\n      jump\t// in\n    tag_451:\n        /* \"#utility.yul\":14491:14516   */\n      swap3\n      pop\n        /* \"#utility.yul\":14535:14536   */\n      dup3\n        /* \"#utility.yul\":14525:14560   */\n      tag_452\n      jumpi\n        /* \"#utility.yul\":14540:14558   */\n      tag_453\n      tag_270\n      jump\t// in\n    tag_453:\n        /* \"#utility.yul\":14525:14560   */\n    tag_452:\n        /* \"#utility.yul\":14582:14583   */\n      dup3\n        /* \"#utility.yul\":14579:14580   */\n      dup3\n        /* \"#utility.yul\":14575:14584   */\n      div\n        /* \"#utility.yul\":14570:14584   */\n      swap1\n      pop\n        /* \"#utility.yul\":14405:14590   */\n      swap3\n      swap2\n      pop\n      pop\n      jump\t// out\n        /* \"#utility.yul\":14596:14790   */\n    tag_118:\n        /* \"#utility.yul\":14636:14640   */\n      0x00\n        /* \"#utility.yul\":14656:14676   */\n      tag_455\n        /* \"#utility.yul\":14674:14675   */\n      dup3\n        /* \"#utility.yul\":14656:14676   */\n      tag_228\n      jump\t// in\n    tag_455:\n        /* \"#utility.yul\":14651:14676   */\n      swap2\n      pop\n        /* \"#utility.yul\":14690:14710   */\n      tag_456\n        /* \"#utility.yul\":14708:14709   */\n      dup4\n        /* \"#utility.yul\":14690:14710   */\n      tag_228\n      jump\t// in\n    tag_456:\n        /* \"#utility.yul\":14685:14710   */\n      swap3\n      pop\n        /* \"#utility.yul\":14734:14735   */\n      dup3\n        /* \"#utility.yul\":14731:14732   */\n      dup3\n        /* \"#utility.yul\":14727:14736   */\n      sub\n        /* \"#utility.yul\":14719:14736   */\n      swap1\n      pop\n        /* \"#utility.yul\":14758:14759   */\n      dup2\n        /* \"#utility.yul\":14752:14756   */\n      dup2\n        /* \"#utility.yul\":14749:14760   */\n      gt\n        /* \"#utility.yul\":14746:14783   */\n      iszero\n      tag_457\n      jumpi\n        /* \"#utility.yul\":14763:14781   */\n      tag_458\n      tag_269\n      jump\t// in\n    tag_458:\n        /* \"#utility.yul\":14746:14783   */\n    tag_457:\n        /* \"#utility.yul\":14596:14790   */\n      swap3\n      swap2\n      pop\n      pop\n      jump\t// out\n        /* \"#utility.yul\":14796:14938   */\n    tag_271:\n        /* \"#utility.yul\":14846:14855   */\n      0x00\n        /* \"#utility.yul\":14879:14932   */\n      tag_460\n        /* \"#utility.yul\":14897:14931   */\n      tag_461\n        /* \"#utility.yul\":14906:14930   */\n      tag_462\n        /* \"#utility.yul\":14924:14929   */\n      dup5\n        /* \"#utility.yul\":14906:14930   */\n      tag_243\n      jump\t// in\n    tag_462:\n        /* \"#utility.yul\":14897:14931   */\n      tag_236\n      jump\t// in\n    tag_461:\n        /* \"#utility.yul\":14879:14932   */\n      tag_228\n      jump\t// in\n    tag_460:\n        /* \"#utility.yul\":14866:14932   */\n      swap1\n      pop\n        /* \"#utility.yul\":14796:14938   */\n      swap2\n      swap1\n      pop\n      jump\t// out\n        /* \"#utility.yul\":14944:15075   */\n    tag_272:\n        /* \"#utility.yul\":15031:15068   */\n      tag_464\n        /* \"#utility.yul\":15062:15067   */\n      dup2\n        /* \"#utility.yul\":15031:15068   */\n      tag_271\n      jump\t// in\n    tag_464:\n        /* \"#utility.yul\":15026:15029   */\n      dup3\n        /* \"#utility.yul\":15019:15069   */\n      mstore\n        /* \"#utility.yul\":14944:15075   */\n      pop\n      pop\n      jump\t// out\n        /* \"#utility.yul\":15081:15303   */\n    tag_120:\n        /* \"#utility.yul\":15174:15178   */\n      0x00\n        /* \"#utility.yul\":15212:15214   */\n      0x20\n        /* \"#utility.yul\":15201:15210   */\n      dup3\n        /* \"#utility.yul\":15197:15215   */\n      add\n        /* \"#utility.yul\":15189:15215   */\n      swap1\n      pop\n        /* \"#utility.yul\":15225:15296   */\n      tag_466\n        /* \"#utility.yul\":15293:15294   */\n      0x00\n        /* \"#utility.yul\":15282:15291   */\n      dup4\n        /* \"#utility.yul\":15278:15295   */\n      add\n        /* \"#utility.yul\":15269:15275   */\n      dup5\n        /* \"#utility.yul\":15225:15296   */\n      tag_272\n      jump\t// in\n    tag_466:\n        /* \"#utility.yul\":15081:15303   */\n      swap3\n      swap2\n      pop\n      pop\n      jump\t// out\n        /* \"#utility.yul\":15309:15452   */\n    tag_273:\n        /* \"#utility.yul\":15366:15371   */\n      0x00\n        /* \"#utility.yul\":15397:15403   */\n      dup2\n        /* \"#utility.yul\":15391:15404   */\n      mload\n        /* \"#utility.yul\":15382:15404   */\n      swap1\n      pop\n        /* \"#utility.yul\":15413:15446   */\n      tag_468\n        /* \"#utility.yul\":15440:15445   */\n      dup2\n        /* \"#utility.yul\":15413:15446   */\n      tag_233\n      jump\t// in\n    tag_468:\n        /* \"#utility.yul\":15309:15452   */\n      swap3\n      swap2\n      pop\n      pop\n      jump\t// out\n        /* \"#utility.yul\":15458:15809   */\n    tag_124:\n        /* \"#utility.yul\":15528:15534   */\n      0x00\n        /* \"#utility.yul\":15577:15579   */\n      0x20\n        /* \"#utility.yul\":15565:15574   */\n      dup3\n        /* \"#utility.yul\":15556:15563   */\n      dup5\n        /* \"#utility.yul\":15552:15575   */\n      sub\n        /* \"#utility.yul\":15548:15580   */\n      slt\n        /* \"#utility.yul\":15545:15664   */\n      iszero\n      tag_470\n      jumpi\n        /* \"#utility.yul\":15583:15662   */\n      tag_471\n      tag_226\n      jump\t// in\n    tag_471:\n        /* \"#utility.yul\":15545:15664   */\n    tag_470:\n        /* \"#utility.yul\":15703:15704   */\n      0x00\n        /* \"#utility.yul\":15728:15792   */\n      tag_472\n        /* \"#utility.yul\":15784:15791   */\n      dup5\n        /* \"#utility.yul\":15775:15781   */\n      dup3\n        /* \"#utility.yul\":15764:15773   */\n      dup6\n        /* \"#utility.yul\":15760:15782   */\n      add\n        /* \"#utility.yul\":15728:15792   */\n      tag_273\n      jump\t// in\n    tag_472:\n        /* \"#utility.yul\":15718:15792   */\n      swap2\n      pop\n        /* \"#utility.yul\":15674:15802   */\n      pop\n        /* \"#utility.yul\":15458:15809   */\n      swap3\n      swap2\n      pop\n      pop\n      jump\t// out\n        /* \"#utility.yul\":15815:15990   */\n    tag_274:\n        /* \"#utility.yul\":15955:15982   */\n      0x53656c6c6572206e6f206c6f6e676572206f776e73204e465400000000000000\n        /* \"#utility.yul\":15951:15952   */\n      0x00\n        /* \"#utility.yul\":15943:15949   */\n      dup3\n        /* \"#utility.yul\":15939:15953   */\n      add\n        /* \"#utility.yul\":15932:15983   */\n      mstore\n        /* \"#utility.yul\":15815:15990   */\n      pop\n      jump\t// out\n        /* \"#utility.yul\":15996:16362   */\n    tag_275:\n        /* \"#utility.yul\":16138:16141   */\n      0x00\n        /* \"#utility.yul\":16159:16226   */\n      tag_475\n        /* \"#utility.yul\":16223:16225   */\n      0x19\n        /* \"#utility.yul\":16218:16221   */\n      dup4\n        /* \"#utility.yul\":16159:16226   */\n      tag_262\n      jump\t// in\n    tag_475:\n        /* \"#utility.yul\":16152:16226   */\n      swap2\n      pop\n        /* \"#utility.yul\":16235:16328   */\n      tag_476\n        /* \"#utility.yul\":16324:16327   */\n      dup3\n        /* \"#utility.yul\":16235:16328   */\n      tag_274\n      jump\t// in\n    tag_476:\n        /* \"#utility.yul\":16353:16355   */\n      0x20\n        /* \"#utility.yul\":16348:16351   */\n      dup3\n        /* \"#utility.yul\":16344:16356   */\n      add\n        /* \"#utility.yul\":16337:16356   */\n      swap1\n      pop\n        /* \"#utility.yul\":15996:16362   */\n      swap2\n      swap1\n      pop\n      jump\t// out\n        /* \"#utility.yul\":16368:16787   */\n    tag_127:\n        /* \"#utility.yul\":16534:16538   */\n      0x00\n        /* \"#utility.yul\":16572:16574   */\n      0x20\n        /* \"#utility.yul\":16561:16570   */\n      dup3\n        /* \"#utility.yul\":16557:16575   */\n      add\n        /* \"#utility.yul\":16549:16575   */\n      swap1\n      pop\n        /* \"#utility.yul\":16621:16630   */\n      dup2\n        /* \"#utility.yul\":16615:16619   */\n      dup2\n        /* \"#utility.yul\":16611:16631   */\n      sub\n        /* \"#utility.yul\":16607:16608   */\n      0x00\n        /* \"#utility.yul\":16596:16605   */\n      dup4\n        /* \"#utility.yul\":16592:16609   */\n      add\n        /* \"#utility.yul\":16585:16632   */\n      mstore\n        /* \"#utility.yul\":16649:16780   */\n      tag_478\n        /* \"#utility.yul\":16775:16779   */\n      dup2\n        /* \"#utility.yul\":16649:16780   */\n      tag_275\n      jump\t// in\n    tag_478:\n        /* \"#utility.yul\":16641:16780   */\n      swap1\n      pop\n        /* \"#utility.yul\":16368:16787   */\n      swap2\n      swap1\n      pop\n      jump\t// out\n        /* \"#utility.yul\":16793:17125   */\n    tag_129:\n        /* \"#utility.yul\":16914:16918   */\n      0x00\n        /* \"#utility.yul\":16952:16954   */\n      0x40\n        /* \"#utility.yul\":16941:16950   */\n      dup3\n        /* \"#utility.yul\":16937:16955   */\n      add\n        /* \"#utility.yul\":16929:16955   */\n      swap1\n      pop\n        /* \"#utility.yul\":16965:17036   */\n      tag_480\n        /* \"#utility.yul\":17033:17034   */\n      0x00\n        /* \"#utility.yul\":17022:17031   */\n      dup4\n        /* \"#utility.yul\":17018:17035   */\n      add\n        /* \"#utility.yul\":17009:17015   */\n      dup6\n        /* \"#utility.yul\":16965:17036   */\n      tag_260\n      jump\t// in\n    tag_480:\n        /* \"#utility.yul\":17046:17118   */\n      tag_481\n        /* \"#utility.yul\":17114:17116   */\n      0x20\n        /* \"#utility.yul\":17103:17112   */\n      dup4\n        /* \"#utility.yul\":17099:17117   */\n      add\n        /* \"#utility.yul\":17090:17096   */\n      dup5\n        /* \"#utility.yul\":17046:17118   */\n      tag_260\n      jump\t// in\n    tag_481:\n        /* \"#utility.yul\":16793:17125   */\n      swap4\n      swap3\n      pop\n      pop\n      pop\n      jump\t// out\n        /* \"#utility.yul\":17131:17247   */\n    tag_276:\n        /* \"#utility.yul\":17201:17222   */\n      tag_483\n        /* \"#utility.yul\":17216:17221   */\n      dup2\n        /* \"#utility.yul\":17201:17222   */\n      tag_246\n      jump\t// in\n    tag_483:\n        /* \"#utility.yul\":17194:17199   */\n      dup2\n        /* \"#utility.yul\":17191:17223   */\n      eq\n        /* \"#utility.yul\":17181:17241   */\n      tag_484\n      jumpi\n        /* \"#utility.yul\":17237:17238   */\n      0x00\n        /* \"#utility.yul\":17234:17235   */\n      dup1\n        /* \"#utility.yul\":17227:17239   */\n      revert\n        /* \"#utility.yul\":17181:17241   */\n    tag_484:\n        /* \"#utility.yul\":17131:17247   */\n      pop\n      jump\t// out\n        /* \"#utility.yul\":17253:17390   */\n    tag_277:\n        /* \"#utility.yul\":17307:17312   */\n      0x00\n        /* \"#utility.yul\":17338:17344   */\n      dup2\n        /* \"#utility.yul\":17332:17345   */\n      mload\n        /* \"#utility.yul\":17323:17345   */\n      swap1\n      pop\n        /* \"#utility.yul\":17354:17384   */\n      tag_486\n        /* \"#utility.yul\":17378:17383   */\n      dup2\n        /* \"#utility.yul\":17354:17384   */\n      tag_276\n      jump\t// in\n    tag_486:\n        /* \"#utility.yul\":17253:17390   */\n      swap3\n      swap2\n      pop\n      pop\n      jump\t// out\n        /* \"#utility.yul\":17396:17741   */\n    tag_133:\n        /* \"#utility.yul\":17463:17469   */\n      0x00\n        /* \"#utility.yul\":17512:17514   */\n      0x20\n        /* \"#utility.yul\":17500:17509   */\n      dup3\n        /* \"#utility.yul\":17491:17498   */\n      dup5\n        /* \"#utility.yul\":17487:17510   */\n      sub\n        /* \"#utility.yul\":17483:17515   */\n      slt\n        /* \"#utility.yul\":17480:17599   */\n      iszero\n      tag_488\n      jumpi\n        /* \"#utility.yul\":17518:17597   */\n      tag_489\n      tag_226\n      jump\t// in\n    tag_489:\n        /* \"#utility.yul\":17480:17599   */\n    tag_488:\n        /* \"#utility.yul\":17638:17639   */\n      0x00\n        /* \"#utility.yul\":17663:17724   */\n      tag_490\n        /* \"#utility.yul\":17716:17723   */\n      dup5\n        /* \"#utility.yul\":17707:17713   */\n      dup3\n        /* \"#utility.yul\":17696:17705   */\n      dup6\n        /* \"#utility.yul\":17692:17714   */\n      add\n        /* \"#utility.yul\":17663:17724   */\n      tag_277\n      jump\t// in\n    tag_490:\n        /* \"#utility.yul\":17653:17724   */\n      swap2\n      pop\n        /* \"#utility.yul\":17609:17734   */\n      pop\n        /* \"#utility.yul\":17396:17741   */\n      swap3\n      swap2\n      pop\n      pop\n      jump\t// out\n        /* \"#utility.yul\":17747:17909   */\n    tag_278:\n        /* \"#utility.yul\":17887:17901   */\n      0x4e6f7420617070726f7665640000000000000000000000000000000000000000\n        /* \"#utility.yul\":17883:17884   */\n      0x00\n        /* \"#utility.yul\":17875:17881   */\n      dup3\n        /* \"#utility.yul\":17871:17885   */\n      add\n        /* \"#utility.yul\":17864:17902   */\n      mstore\n        /* \"#utility.yul\":17747:17909   */\n      pop\n      jump\t// out\n        /* \"#utility.yul\":17915:18281   */\n    tag_279:\n        /* \"#utility.yul\":18057:18060   */\n      0x00\n        /* \"#utility.yul\":18078:18145   */\n      tag_493\n        /* \"#utility.yul\":18142:18144   */\n      0x0c\n        /* \"#utility.yul\":18137:18140   */\n      dup4\n        /* \"#utility.yul\":18078:18145   */\n      tag_262\n      jump\t// in\n    tag_493:\n        /* \"#utility.yul\":18071:18145   */\n      swap2\n      pop\n        /* \"#utility.yul\":18154:18247   */\n      tag_494\n        /* \"#utility.yul\":18243:18246   */\n      dup3\n        /* \"#utility.yul\":18154:18247   */\n      tag_278\n      jump\t// in\n    tag_494:\n        /* \"#utility.yul\":18272:18274   */\n      0x20\n        /* \"#utility.yul\":18267:18270   */\n      dup3\n        /* \"#utility.yul\":18263:18275   */\n      add\n        /* \"#utility.yul\":18256:18275   */\n      swap1\n      pop\n        /* \"#utility.yul\":17915:18281   */\n      swap2\n      swap1\n      pop\n      jump\t// out\n        /* \"#utility.yul\":18287:18706   */\n    tag_141:\n        /* \"#utility.yul\":18453:18457   */\n      0x00\n        /* \"#utility.yul\":18491:18493   */\n      0x20\n        /* \"#utility.yul\":18480:18489   */\n      dup3\n        /* \"#utility.yul\":18476:18494   */\n      add\n        /* \"#utility.yul\":18468:18494   */\n      swap1\n      pop\n        /* \"#utility.yul\":18540:18549   */\n      dup2\n        /* \"#utility.yul\":18534:18538   */\n      dup2\n        /* \"#utility.yul\":18530:18550   */\n      sub\n        /* \"#utility.yul\":18526:18527   */\n      0x00\n        /* \"#utility.yul\":18515:18524   */\n      dup4\n        /* \"#utility.yul\":18511:18528   */\n      add\n        /* \"#utility.yul\":18504:18551   */\n      mstore\n        /* \"#utility.yul\":18568:18699   */\n      tag_496\n        /* \"#utility.yul\":18694:18698   */\n      dup2\n        /* \"#utility.yul\":18568:18699   */\n      tag_279\n      jump\t// in\n    tag_496:\n        /* \"#utility.yul\":18560:18699   */\n      swap1\n      pop\n        /* \"#utility.yul\":18287:18706   */\n      swap2\n      swap1\n      pop\n      jump\t// out\n        /* \"#utility.yul\":18712:18903   */\n    tag_143:\n        /* \"#utility.yul\":18752:18755   */\n      0x00\n        /* \"#utility.yul\":18771:18791   */\n      tag_498\n        /* \"#utility.yul\":18789:18790   */\n      dup3\n        /* \"#utility.yul\":18771:18791   */\n      tag_228\n      jump\t// in\n    tag_498:\n        /* \"#utility.yul\":18766:18791   */\n      swap2\n      pop\n        /* \"#utility.yul\":18805:18825   */\n      tag_499\n        /* \"#utility.yul\":18823:18824   */\n      dup4\n        /* \"#utility.yul\":18805:18825   */\n      tag_228\n      jump\t// in\n    tag_499:\n        /* \"#utility.yul\":18800:18825   */\n      swap3\n      pop\n        /* \"#utility.yul\":18848:18849   */\n      dup3\n        /* \"#utility.yul\":18845:18846   */\n      dup3\n        /* \"#utility.yul\":18841:18850   */\n      add\n        /* \"#utility.yul\":18834:18850   */\n      swap1\n      pop\n        /* \"#utility.yul\":18869:18872   */\n      dup1\n        /* \"#utility.yul\":18866:18867   */\n      dup3\n        /* \"#utility.yul\":18863:18873   */\n      gt\n        /* \"#utility.yul\":18860:18896   */\n      iszero\n      tag_500\n      jumpi\n        /* \"#utility.yul\":18876:18894   */\n      tag_501\n      tag_269\n      jump\t// in\n    tag_501:\n        /* \"#utility.yul\":18860:18896   */\n    tag_500:\n        /* \"#utility.yul\":18712:18903   */\n      swap3\n      swap2\n      pop\n      pop\n      jump\t// out\n        /* \"#utility.yul\":18909:19351   */\n    tag_146:\n        /* \"#utility.yul\":19058:19062   */\n      0x00\n        /* \"#utility.yul\":19096:19098   */\n      0x60\n        /* \"#utility.yul\":19085:19094   */\n      dup3\n        /* \"#utility.yul\":19081:19099   */\n      add\n        /* \"#utility.yul\":19073:19099   */\n      swap1\n      pop\n        /* \"#utility.yul\":19109:19180   */\n      tag_503\n        /* \"#utility.yul\":19177:19178   */\n      0x00\n        /* \"#utility.yul\":19166:19175   */\n      dup4\n        /* \"#utility.yul\":19162:19179   */\n      add\n        /* \"#utility.yul\":19153:19159   */\n      dup7\n        /* \"#utility.yul\":19109:19180   */\n      tag_260\n      jump\t// in\n    tag_503:\n        /* \"#utility.yul\":19190:19262   */\n      tag_504\n        /* \"#utility.yul\":19258:19260   */\n      0x20\n        /* \"#utility.yul\":19247:19256   */\n      dup4\n        /* \"#utility.yul\":19243:19261   */\n      add\n        /* \"#utility.yul\":19234:19240   */\n      dup6\n        /* \"#utility.yul\":19190:19262   */\n      tag_260\n      jump\t// in\n    tag_504:\n        /* \"#utility.yul\":19272:19344   */\n      tag_505\n        /* \"#utility.yul\":19340:19342   */\n      0x40\n        /* \"#utility.yul\":19329:19338   */\n      dup4\n        /* \"#utility.yul\":19325:19343   */\n      add\n        /* \"#utility.yul\":19316:19322   */\n      dup5\n        /* \"#utility.yul\":19272:19344   */\n      tag_272\n      jump\t// in\n    tag_505:\n        /* \"#utility.yul\":18909:19351   */\n      swap5\n      swap4\n      pop\n      pop\n      pop\n      pop\n      jump\t// out\n        /* \"#utility.yul\":19357:19799   */\n    tag_151:\n        /* \"#utility.yul\":19506:19510   */\n      0x00\n        /* \"#utility.yul\":19544:19546   */\n      0x60\n        /* \"#utility.yul\":19533:19542   */\n      dup3\n        /* \"#utility.yul\":19529:19547   */\n      add\n        /* \"#utility.yul\":19521:19547   */\n      swap1\n      pop\n        /* \"#utility.yul\":19557:19628   */\n      tag_507\n        /* \"#utility.yul\":19625:19626   */\n      0x00\n        /* \"#utility.yul\":19614:19623   */\n      dup4\n        /* \"#utility.yul\":19610:19627   */\n      add\n        /* \"#utility.yul\":19601:19607   */\n      dup7\n        /* \"#utility.yul\":19557:19628   */\n      tag_272\n      jump\t// in\n    tag_507:\n        /* \"#utility.yul\":19638:19710   */\n      tag_508\n        /* \"#utility.yul\":19706:19708   */\n      0x20\n        /* \"#utility.yul\":19695:19704   */\n      dup4\n        /* \"#utility.yul\":19691:19709   */\n      add\n        /* \"#utility.yul\":19682:19688   */\n      dup6\n        /* \"#utility.yul\":19638:19710   */\n      tag_272\n      jump\t// in\n    tag_508:\n        /* \"#utility.yul\":19720:19792   */\n      tag_509\n        /* \"#utility.yul\":19788:19790   */\n      0x40\n        /* \"#utility.yul\":19777:19786   */\n      dup4\n        /* \"#utility.yul\":19773:19791   */\n      add\n        /* \"#utility.yul\":19764:19770   */\n      dup5\n        /* \"#utility.yul\":19720:19792   */\n      tag_235\n      jump\t// in\n    tag_509:\n        /* \"#utility.yul\":19357:19799   */\n      swap5\n      swap4\n      pop\n      pop\n      pop\n      pop\n      jump\t// out\n        /* \"#utility.yul\":19805:19965   */\n    tag_280:\n        /* \"#utility.yul\":19945:19957   */\n      0x4f6e6c79206f776e657200000000000000000000000000000000000000000000\n        /* \"#utility.yul\":19941:19942   */\n      0x00\n        /* \"#utility.yul\":19933:19939   */\n      dup3\n        /* \"#utility.yul\":19929:19943   */\n      add\n        /* \"#utility.yul\":19922:19958   */\n      mstore\n        /* \"#utility.yul\":19805:19965   */\n      pop\n      jump\t// out\n        /* \"#utility.yul\":19971:20337   */\n    tag_281:\n        /* \"#utility.yul\":20113:20116   */\n      0x00\n        /* \"#utility.yul\":20134:20201   */\n      tag_512\n        /* \"#utility.yul\":20198:20200   */\n      0x0a\n        /* \"#utility.yul\":20193:20196   */\n      dup4\n        /* \"#utility.yul\":20134:20201   */\n      tag_262\n      jump\t// in\n    tag_512:\n        /* \"#utility.yul\":20127:20201   */\n      swap2\n      pop\n        /* \"#utility.yul\":20210:20303   */\n      tag_513\n        /* \"#utility.yul\":20299:20302   */\n      dup3\n        /* \"#utility.yul\":20210:20303   */\n      tag_280\n      jump\t// in\n    tag_513:\n        /* \"#utility.yul\":20328:20330   */\n      0x20\n        /* \"#utility.yul\":20323:20326   */\n      dup3\n        /* \"#utility.yul\":20319:20331   */\n      add\n        /* \"#utility.yul\":20312:20331   */\n      swap1\n      pop\n        /* \"#utility.yul\":19971:20337   */\n      swap2\n      swap1\n      pop\n      jump\t// out\n        /* \"#utility.yul\":20343:20762   */\n    tag_155:\n        /* \"#utility.yul\":20509:20513   */\n      0x00\n        /* \"#utility.yul\":20547:20549   */\n      0x20\n        /* \"#utility.yul\":20536:20545   */\n      dup3\n        /* \"#utility.yul\":20532:20550   */\n      add\n        /* \"#utility.yul\":20524:20550   */\n      swap1\n      pop\n        /* \"#utility.yul\":20596:20605   */\n      dup2\n        /* \"#utility.yul\":20590:20594   */\n      dup2\n        /* \"#utility.yul\":20586:20606   */\n      sub\n        /* \"#utility.yul\":20582:20583   */\n      0x00\n        /* \"#utility.yul\":20571:20580   */\n      dup4\n        /* \"#utility.yul\":20567:20584   */\n      add\n        /* \"#utility.yul\":20560:20607   */\n      mstore\n        /* \"#utility.yul\":20624:20755   */\n      tag_515\n        /* \"#utility.yul\":20750:20754   */\n      dup2\n        /* \"#utility.yul\":20624:20755   */\n      tag_281\n      jump\t// in\n    tag_515:\n        /* \"#utility.yul\":20616:20755   */\n      swap1\n      pop\n        /* \"#utility.yul\":20343:20762   */\n      swap2\n      swap1\n      pop\n      jump\t// out\n        /* \"#utility.yul\":20768:20938   */\n    tag_282:\n        /* \"#utility.yul\":20908:20930   */\n      0x4e6f2066756e647320746f207769746864726177000000000000000000000000\n        /* \"#utility.yul\":20904:20905   */\n      0x00\n        /* \"#utility.yul\":20896:20902   */\n      dup3\n        /* \"#utility.yul\":20892:20906   */\n      add\n        /* \"#utility.yul\":20885:20931   */\n      mstore\n        /* \"#utility.yul\":20768:20938   */\n      pop\n      jump\t// out\n        /* \"#utility.yul\":20944:21310   */\n    tag_283:\n        /* \"#utility.yul\":21086:21089   */\n      0x00\n        /* \"#utility.yul\":21107:21174   */\n      tag_518\n        /* \"#utility.yul\":21171:21173   */\n      0x14\n        /* \"#utility.yul\":21166:21169   */\n      dup4\n        /* \"#utility.yul\":21107:21174   */\n      tag_262\n      jump\t// in\n    tag_518:\n        /* \"#utility.yul\":21100:21174   */\n      swap2\n      pop\n        /* \"#utility.yul\":21183:21276   */\n      tag_519\n        /* \"#utility.yul\":21272:21275   */\n      dup3\n        /* \"#utility.yul\":21183:21276   */\n      tag_282\n      jump\t// in\n    tag_519:\n        /* \"#utility.yul\":21301:21303   */\n      0x20\n        /* \"#utility.yul\":21296:21299   */\n      dup3\n        /* \"#utility.yul\":21292:21304   */\n      add\n        /* \"#utility.yul\":21285:21304   */\n      swap1\n      pop\n        /* \"#utility.yul\":20944:21310   */\n      swap2\n      swap1\n      pop\n      jump\t// out\n        /* \"#utility.yul\":21316:21735   */\n    tag_159:\n        /* \"#utility.yul\":21482:21486   */\n      0x00\n        /* \"#utility.yul\":21520:21522   */\n      0x20\n        /* \"#utility.yul\":21509:21518   */\n      dup3\n        /* \"#utility.yul\":21505:21523   */\n      add\n        /* \"#utility.yul\":21497:21523   */\n      swap1\n      pop\n        /* \"#utility.yul\":21569:21578   */\n      dup2\n        /* \"#utility.yul\":21563:21567   */\n      dup2\n        /* \"#utility.yul\":21559:21579   */\n      sub\n        /* \"#utility.yul\":21555:21556   */\n      0x00\n        /* \"#utility.yul\":21544:21553   */\n      dup4\n        /* \"#utility.yul\":21540:21557   */\n      add\n        /* \"#utility.yul\":21533:21580   */\n      mstore\n        /* \"#utility.yul\":21597:21728   */\n      tag_521\n        /* \"#utility.yul\":21723:21727   */\n      dup2\n        /* \"#utility.yul\":21597:21728   */\n      tag_283\n      jump\t// in\n    tag_521:\n        /* \"#utility.yul\":21589:21728   */\n      swap1\n      pop\n        /* \"#utility.yul\":21316:21735   */\n      swap2\n      swap1\n      pop\n      jump\t// out\n        /* \"#utility.yul\":21741:21888   */\n    tag_284:\n        /* \"#utility.yul\":21842:21853   */\n      0x00\n        /* \"#utility.yul\":21879:21882   */\n      dup2\n        /* \"#utility.yul\":21864:21882   */\n      swap1\n      pop\n        /* \"#utility.yul\":21741:21888   */\n      swap3\n      swap2\n      pop\n      pop\n      jump\t// out\n        /* \"#utility.yul\":21894:22008   */\n    tag_285:\n      pop\n      jump\t// out\n        /* \"#utility.yul\":22014:22412   */\n    tag_286:\n        /* \"#utility.yul\":22173:22176   */\n      0x00\n        /* \"#utility.yul\":22194:22277   */\n      tag_525\n        /* \"#utility.yul\":22275:22276   */\n      0x00\n        /* \"#utility.yul\":22270:22273   */\n      dup4\n        /* \"#utility.yul\":22194:22277   */\n      tag_284\n      jump\t// in\n    tag_525:\n        /* \"#utility.yul\":22187:22277   */\n      swap2\n      pop\n        /* \"#utility.yul\":22286:22379   */\n      tag_526\n        /* \"#utility.yul\":22375:22378   */\n      dup3\n        /* \"#utility.yul\":22286:22379   */\n      tag_285\n      jump\t// in\n    tag_526:\n        /* \"#utility.yul\":22404:22405   */\n      0x00\n        /* \"#utility.yul\":22399:22402   */\n      dup3\n        /* \"#utility.yul\":22395:22406   */\n      add\n        /* \"#utility.yul\":22388:22406   */\n      swap1\n      pop\n        /* \"#utility.yul\":22014:22412   */\n      swap2\n      swap1\n      pop\n      jump\t// out\n        /* \"#utility.yul\":22418:22797   */\n    tag_161:\n        /* \"#utility.yul\":22602:22605   */\n      0x00\n        /* \"#utility.yul\":22624:22771   */\n      tag_528\n        /* \"#utility.yul\":22767:22770   */\n      dup3\n        /* \"#utility.yul\":22624:22771   */\n      tag_286\n      jump\t// in\n    tag_528:\n        /* \"#utility.yul\":22617:22771   */\n      swap2\n      pop\n        /* \"#utility.yul\":22788:22791   */\n      dup2\n        /* \"#utility.yul\":22781:22791   */\n      swap1\n      pop\n        /* \"#utility.yul\":22418:22797   */\n      swap2\n      swap1\n      pop\n      jump\t// out\n        /* \"#utility.yul\":22803:22968   */\n    tag_287:\n        /* \"#utility.yul\":22943:22960   */\n      0x5472616e73666572206661696c65640000000000000000000000000000000000\n        /* \"#utility.yul\":22939:22940   */\n      0x00\n        /* \"#utility.yul\":22931:22937   */\n      dup3\n        /* \"#utility.yul\":22927:22941   */\n      add\n        /* \"#utility.yul\":22920:22961   */\n      mstore\n        /* \"#utility.yul\":22803:22968   */\n      pop\n      jump\t// out\n        /* \"#utility.yul\":22974:23340   */\n    tag_288:\n        /* \"#utility.yul\":23116:23119   */\n      0x00\n        /* \"#utility.yul\":23137:23204   */\n      tag_531\n        /* \"#utility.yul\":23201:23203   */\n      0x0f\n        /* \"#utility.yul\":23196:23199   */\n      dup4\n        /* \"#utility.yul\":23137:23204   */\n      tag_262\n      jump\t// in\n    tag_531:\n        /* \"#utility.yul\":23130:23204   */\n      swap2\n      pop\n        /* \"#utility.yul\":23213:23306   */\n      tag_532\n        /* \"#utility.yul\":23302:23305   */\n      dup3\n        /* \"#utility.yul\":23213:23306   */\n      tag_287\n      jump\t// in\n    tag_532:\n        /* \"#utility.yul\":23331:23333   */\n      0x20\n        /* \"#utility.yul\":23326:23329   */\n      dup3\n        /* \"#utility.yul\":23322:23334   */\n      add\n        /* \"#utility.yul\":23315:23334   */\n      swap1\n      pop\n        /* \"#utility.yul\":22974:23340   */\n      swap2\n      swap1\n      pop\n      jump\t// out\n        /* \"#utility.yul\":23346:23765   */\n    tag_167:\n        /* \"#utility.yul\":23512:23516   */\n      0x00\n        /* \"#utility.yul\":23550:23552   */\n      0x20\n        /* \"#utility.yul\":23539:23548   */\n      dup3\n        /* \"#utility.yul\":23535:23553   */\n      add\n        /* \"#utility.yul\":23527:23553   */\n      swap1\n      pop\n        /* \"#utility.yul\":23599:23608   */\n      dup2\n        /* \"#utility.yul\":23593:23597   */\n      dup2\n        /* \"#utility.yul\":23589:23609   */\n      sub\n        /* \"#utility.yul\":23585:23586   */\n      0x00\n        /* \"#utility.yul\":23574:23583   */\n      dup4\n        /* \"#utility.yul\":23570:23587   */\n      add\n        /* \"#utility.yul\":23563:23610   */\n      mstore\n        /* \"#utility.yul\":23627:23758   */\n      tag_534\n        /* \"#utility.yul\":23753:23757   */\n      dup2\n        /* \"#utility.yul\":23627:23758   */\n      tag_288\n      jump\t// in\n    tag_534:\n        /* \"#utility.yul\":23619:23758   */\n      swap1\n      pop\n        /* \"#utility.yul\":23346:23765   */\n      swap2\n      swap1\n      pop\n      jump\t// out\n        /* \"#utility.yul\":23771:24103   */\n    tag_171:\n        /* \"#utility.yul\":23892:23896   */\n      0x00\n        /* \"#utility.yul\":23930:23932   */\n      0x40\n        /* \"#utility.yul\":23919:23928   */\n      dup3\n        /* \"#utility.yul\":23915:23933   */\n      add\n        /* \"#utility.yul\":23907:23933   */\n      swap1\n      pop\n        /* \"#utility.yul\":23943:24014   */\n      tag_536\n        /* \"#utility.yul\":24011:24012   */\n      0x00\n        /* \"#utility.yul\":24000:24009   */\n      dup4\n        /* \"#utility.yul\":23996:24013   */\n      add\n        /* \"#utility.yul\":23987:23993   */\n      dup6\n        /* \"#utility.yul\":23943:24014   */\n      tag_260\n      jump\t// in\n    tag_536:\n        /* \"#utility.yul\":24024:24096   */\n      tag_537\n        /* \"#utility.yul\":24092:24094   */\n      0x20\n        /* \"#utility.yul\":24081:24090   */\n      dup4\n        /* \"#utility.yul\":24077:24095   */\n      add\n        /* \"#utility.yul\":24068:24074   */\n      dup5\n        /* \"#utility.yul\":24024:24096   */\n      tag_235\n      jump\t// in\n    tag_537:\n        /* \"#utility.yul\":23771:24103   */\n      swap4\n      swap3\n      pop\n      pop\n      pop\n      jump\t// out\n        /* \"#utility.yul\":24109:24252   */\n    tag_289:\n        /* \"#utility.yul\":24166:24171   */\n      0x00\n        /* \"#utility.yul\":24197:24203   */\n      dup2\n        /* \"#utility.yul\":24191:24204   */\n      mload\n        /* \"#utility.yul\":24182:24204   */\n      swap1\n      pop\n        /* \"#utility.yul\":24213:24246   */\n      tag_539\n        /* \"#utility.yul\":24240:24245   */\n      dup2\n        /* \"#utility.yul\":24213:24246   */\n      tag_229\n      jump\t// in\n    tag_539:\n        /* \"#utility.yul\":24109:24252   */\n      swap3\n      swap2\n      pop\n      pop\n      jump\t// out\n        /* \"#utility.yul\":24258:24609   */\n    tag_175:\n        /* \"#utility.yul\":24328:24334   */\n      0x00\n        /* \"#utility.yul\":24377:24379   */\n      0x20\n        /* \"#utility.yul\":24365:24374   */\n      dup3\n        /* \"#utility.yul\":24356:24363   */\n      dup5\n        /* \"#utility.yul\":24352:24375   */\n      sub\n        /* \"#utility.yul\":24348:24380   */\n      slt\n        /* \"#utility.yul\":24345:24464   */\n      iszero\n      tag_541\n      jumpi\n        /* \"#utility.yul\":24383:24462   */\n      tag_542\n      tag_226\n      jump\t// in\n    tag_542:\n        /* \"#utility.yul\":24345:24464   */\n    tag_541:\n        /* \"#utility.yul\":24503:24504   */\n      0x00\n        /* \"#utility.yul\":24528:24592   */\n      tag_543\n        /* \"#utility.yul\":24584:24591   */\n      dup5\n        /* \"#utility.yul\":24575:24581   */\n      dup3\n        /* \"#utility.yul\":24564:24573   */\n      dup6\n        /* \"#utility.yul\":24560:24582   */\n      add\n        /* \"#utility.yul\":24528:24592   */\n      tag_289\n      jump\t// in\n    tag_543:\n        /* \"#utility.yul\":24518:24592   */\n      swap2\n      pop\n        /* \"#utility.yul\":24474:24602   */\n      pop\n        /* \"#utility.yul\":24258:24609   */\n      swap3\n      swap2\n      pop\n      pop\n      jump\t// out\n        /* \"#utility.yul\":24615:24775   */\n    tag_290:\n        /* \"#utility.yul\":24755:24767   */\n      0x4e6f742073656c6c657200000000000000000000000000000000000000000000\n        /* \"#utility.yul\":24751:24752   */\n      0x00\n        /* \"#utility.yul\":24743:24749   */\n      dup3\n        /* \"#utility.yul\":24739:24753   */\n      add\n        /* \"#utility.yul\":24732:24768   */\n      mstore\n        /* \"#utility.yul\":24615:24775   */\n      pop\n      jump\t// out\n        /* \"#utility.yul\":24781:25147   */\n    tag_291:\n        /* \"#utility.yul\":24923:24926   */\n      0x00\n        /* \"#utility.yul\":24944:25011   */\n      tag_546\n        /* \"#utility.yul\":25008:25010   */\n      0x0a\n        /* \"#utility.yul\":25003:25006   */\n      dup4\n        /* \"#utility.yul\":24944:25011   */\n      tag_262\n      jump\t// in\n    tag_546:\n        /* \"#utility.yul\":24937:25011   */\n      swap2\n      pop\n        /* \"#utility.yul\":25020:25113   */\n      tag_547\n        /* \"#utility.yul\":25109:25112   */\n      dup3\n        /* \"#utility.yul\":25020:25113   */\n      tag_290\n      jump\t// in\n    tag_547:\n        /* \"#utility.yul\":25138:25140   */\n      0x20\n        /* \"#utility.yul\":25133:25136   */\n      dup3\n        /* \"#utility.yul\":25129:25141   */\n      add\n        /* \"#utility.yul\":25122:25141   */\n      swap1\n      pop\n        /* \"#utility.yul\":24781:25147   */\n      swap2\n      swap1\n      pop\n      jump\t// out\n        /* \"#utility.yul\":25153:25572   */\n    tag_181:\n        /* \"#utility.yul\":25319:25323   */\n      0x00\n        /* \"#utility.yul\":25357:25359   */\n      0x20\n        /* \"#utility.yul\":25346:25355   */\n      dup3\n        /* \"#utility.yul\":25342:25360   */\n      add\n        /* \"#utility.yul\":25334:25360   */\n      swap1\n      pop\n        /* \"#utility.yul\":25406:25415   */\n      dup2\n        /* \"#utility.yul\":25400:25404   */\n      dup2\n        /* \"#utility.yul\":25396:25416   */\n      sub\n        /* \"#utility.yul\":25392:25393   */\n      0x00\n        /* \"#utility.yul\":25381:25390   */\n      dup4\n        /* \"#utility.yul\":25377:25394   */\n      add\n        /* \"#utility.yul\":25370:25417   */\n      mstore\n        /* \"#utility.yul\":25434:25565   */\n      tag_549\n        /* \"#utility.yul\":25560:25564   */\n      dup2\n        /* \"#utility.yul\":25434:25565   */\n      tag_291\n      jump\t// in\n    tag_549:\n        /* \"#utility.yul\":25426:25565   */\n      swap1\n      pop\n        /* \"#utility.yul\":25153:25572   */\n      swap2\n      swap1\n      pop\n      jump\t// out\n        /* \"#utility.yul\":25578:25747   */\n    tag_292:\n        /* \"#utility.yul\":25718:25739   */\n      0x436f6d6d697373696f6e20746f6f206869676800000000000000000000000000\n        /* \"#utility.yul\":25714:25715   */\n      0x00\n        /* \"#utility.yul\":25706:25712   */\n      dup3\n        /* \"#utility.yul\":25702:25716   */\n      add\n        /* \"#utility.yul\":25695:25740   */\n      mstore\n        /* \"#utility.yul\":25578:25747   */\n      pop\n      jump\t// out\n        /* \"#utility.yul\":25753:26119   */\n    tag_293:\n        /* \"#utility.yul\":25895:25898   */\n      0x00\n        /* \"#utility.yul\":25916:25983   */\n      tag_552\n        /* \"#utility.yul\":25980:25982   */\n      0x13\n        /* \"#utility.yul\":25975:25978   */\n      dup4\n        /* \"#utility.yul\":25916:25983   */\n      tag_262\n      jump\t// in\n    tag_552:\n        /* \"#utility.yul\":25909:25983   */\n      swap2\n      pop\n        /* \"#utility.yul\":25992:26085   */\n      tag_553\n        /* \"#utility.yul\":26081:26084   */\n      dup3\n        /* \"#utility.yul\":25992:26085   */\n      tag_292\n      jump\t// in\n    tag_553:\n        /* \"#utility.yul\":26110:26112   */\n      0x20\n        /* \"#utility.yul\":26105:26108   */\n      dup3\n        /* \"#utility.yul\":26101:26113   */\n      add\n        /* \"#utility.yul\":26094:26113   */\n      swap1\n      pop\n        /* \"#utility.yul\":25753:26119   */\n      swap2\n      swap1\n      pop\n      jump\t// out\n        /* \"#utility.yul\":26125:26544   */\n    tag_188:\n        /* \"#utility.yul\":26291:26295   */\n      0x00\n        /* \"#utility.yul\":26329:26331   */\n      0x20\n        /* \"#utility.yul\":26318:26327   */\n      dup3\n        /* \"#utility.yul\":26314:26332   */\n      add\n        /* \"#utility.yul\":26306:26332   */\n      swap1\n      pop\n        /* \"#utility.yul\":26378:26387   */\n      dup2\n        /* \"#utility.yul\":26372:26376   */\n      dup2\n        /* \"#utility.yul\":26368:26388   */\n      sub\n        /* \"#utility.yul\":26364:26365   */\n      0x00\n        /* \"#utility.yul\":26353:26362   */\n      dup4\n        /* \"#utility.yul\":26349:26366   */\n      add\n        /* \"#utility.yul\":26342:26389   */\n      mstore\n        /* \"#utility.yul\":26406:26537   */\n      tag_555\n        /* \"#utility.yul\":26532:26536   */\n      dup2\n        /* \"#utility.yul\":26406:26537   */\n      tag_293\n      jump\t// in\n    tag_555:\n        /* \"#utility.yul\":26398:26537   */\n      swap1\n      pop\n        /* \"#utility.yul\":26125:26544   */\n      swap2\n      swap1\n      pop\n      jump\t// out\n        /* \"#utility.yul\":26550:26717   */\n    tag_294:\n        /* \"#utility.yul\":26690:26709   */\n      0x5072696365206d757374206265203e2030000000000000000000000000000000\n        /* \"#utility.yul\":26686:26687   */\n      0x00\n        /* \"#utility.yul\":26678:26684   */\n      dup3\n        /* \"#utility.yul\":26674:26688   */\n      add\n        /* \"#utility.yul\":26667:26710   */\n      mstore\n        /* \"#utility.yul\":26550:26717   */\n      pop\n      jump\t// out\n        /* \"#utility.yul\":26723:27089   */\n    tag_295:\n        /* \"#utility.yul\":26865:26868   */\n      0x00\n        /* \"#utility.yul\":26886:26953   */\n      tag_558\n        /* \"#utility.yul\":26950:26952   */\n      0x11\n        /* \"#utility.yul\":26945:26948   */\n      dup4\n        /* \"#utility.yul\":26886:26953   */\n      tag_262\n      jump\t// in\n    tag_558:\n        /* \"#utility.yul\":26879:26953   */\n      swap2\n      pop\n        /* \"#utility.yul\":26962:27055   */\n      tag_559\n        /* \"#utility.yul\":27051:27054   */\n      dup3\n        /* \"#utility.yul\":26962:27055   */\n      tag_294\n      jump\t// in\n    tag_559:\n        /* \"#utility.yul\":27080:27082   */\n      0x20\n        /* \"#utility.yul\":27075:27078   */\n      dup3\n        /* \"#utility.yul\":27071:27083   */\n      add\n        /* \"#utility.yul\":27064:27083   */\n      swap1\n      pop\n        /* \"#utility.yul\":26723:27089   */\n      swap2\n      swap1\n      pop\n      jump\t// out\n        /* \"#utility.yul\":27095:27514   */\n    tag_193:\n        /* \"#utility.yul\":27261:27265   */\n      0x00\n        /* \"#utility.yul\":27299:27301   */\n      0x20\n        /* \"#utility.yul\":27288:27297   */\n      dup3\n        /* \"#utility.yul\":27284:27302   */\n      add\n        /* \"#utility.yul\":27276:27302   */\n      swap1\n      pop\n        /* \"#utility.yul\":27348:27357   */\n      dup2\n        /* \"#utility.yul\":27342:27346   */\n      dup2\n        /* \"#utility.yul\":27338:27358   */\n      sub\n        /* \"#utility.yul\":27334:27335   */\n      0x00\n        /* \"#utility.yul\":27323:27332   */\n      dup4\n        /* \"#utility.yul\":27319:27336   */\n      add\n        /* \"#utility.yul\":27312:27359   */\n      mstore\n        /* \"#utility.yul\":27376:27507   */\n      tag_561\n        /* \"#utility.yul\":27502:27506   */\n      dup2\n        /* \"#utility.yul\":27376:27507   */\n      tag_295\n      jump\t// in\n    tag_561:\n        /* \"#utility.yul\":27368:27507   */\n      swap1\n      pop\n        /* \"#utility.yul\":27095:27514   */\n      swap2\n      swap1\n      pop\n      jump\t// out\n        /* \"#utility.yul\":27520:27685   */\n    tag_296:\n        /* \"#utility.yul\":27660:27677   */\n      0x4e6f7420746f6b656e206f776e65720000000000000000000000000000000000\n        /* \"#utility.yul\":27656:27657   */\n      0x00\n        /* \"#utility.yul\":27648:27654   */\n      dup3\n        /* \"#utility.yul\":27644:27658   */\n      add\n        /* \"#utility.yul\":27637:27678   */\n      mstore\n        /* \"#utility.yul\":27520:27685   */\n      pop\n      jump\t// out\n        /* \"#utility.yul\":27691:28057   */\n    tag_297:\n        /* \"#utility.yul\":27833:27836   */\n      0x00\n        /* \"#utility.yul\":27854:27921   */\n      tag_564\n        /* \"#utility.yul\":27918:27920   */\n      0x0f\n        /* \"#utility.yul\":27913:27916   */\n      dup4\n        /* \"#utility.yul\":27854:27921   */\n      tag_262\n      jump\t// in\n    tag_564:\n        /* \"#utility.yul\":27847:27921   */\n      swap2\n      pop\n        /* \"#utility.yul\":27930:28023   */\n      tag_565\n        /* \"#utility.yul\":28019:28022   */\n      dup3\n        /* \"#utility.yul\":27930:28023   */\n      tag_296\n      jump\t// in\n    tag_565:\n        /* \"#utility.yul\":28048:28050   */\n      0x20\n        /* \"#utility.yul\":28043:28046   */\n      dup3\n        /* \"#utility.yul\":28039:28051   */\n      add\n        /* \"#utility.yul\":28032:28051   */\n      swap1\n      pop\n        /* \"#utility.yul\":27691:28057   */\n      swap2\n      swap1\n      pop\n      jump\t// out\n        /* \"#utility.yul\":28063:28482   */\n    tag_200:\n        /* \"#utility.yul\":28229:28233   */\n      0x00\n        /* \"#utility.yul\":28267:28269   */\n      0x20\n        /* \"#utility.yul\":28256:28265   */\n      dup3\n        /* \"#utility.yul\":28252:28270   */\n      add\n        /* \"#utility.yul\":28244:28270   */\n      swap1\n      pop\n        /* \"#utility.yul\":28316:28325   */\n      dup2\n        /* \"#utility.yul\":28310:28314   */\n      dup2\n        /* \"#utility.yul\":28306:28326   */\n      sub\n        /* \"#utility.yul\":28302:28303   */\n      0x00\n        /* \"#utility.yul\":28291:28300   */\n      dup4\n        /* \"#utility.yul\":28287:28304   */\n      add\n        /* \"#utility.yul\":28280:28327   */\n      mstore\n        /* \"#utility.yul\":28344:28475   */\n      tag_567\n        /* \"#utility.yul\":28470:28474   */\n      dup2\n        /* \"#utility.yul\":28344:28475   */\n      tag_297\n      jump\t// in\n    tag_567:\n        /* \"#utility.yul\":28336:28475   */\n      swap1\n      pop\n        /* \"#utility.yul\":28063:28482   */\n      swap2\n      swap1\n      pop\n      jump\t// out\n        /* \"#utility.yul\":28488:28652   */\n    tag_298:\n        /* \"#utility.yul\":28628:28644   */\n      0x416c7265616479206c6973746564000000000000000000000000000000000000\n        /* \"#utility.yul\":28624:28625   */\n      0x00\n        /* \"#utility.yul\":28616:28622   */\n      dup3\n        /* \"#utility.yul\":28612:28626   */\n      add\n        /* \"#utility.yul\":28605:28645   */\n      mstore\n        /* \"#utility.yul\":28488:28652   */\n      pop\n      jump\t// out\n        /* \"#utility.yul\":28658:29024   */\n    tag_299:\n        /* \"#utility.yul\":28800:28803   */\n      0x00\n        /* \"#utility.yul\":28821:28888   */\n      tag_570\n        /* \"#utility.yul\":28885:28887   */\n      0x0e\n        /* \"#utility.yul\":28880:28883   */\n      dup4\n        /* \"#utility.yul\":28821:28888   */\n      tag_262\n      jump\t// in\n    tag_570:\n        /* \"#utility.yul\":28814:28888   */\n      swap2\n      pop\n        /* \"#utility.yul\":28897:28990   */\n      tag_571\n        /* \"#utility.yul\":28986:28989   */\n      dup3\n        /* \"#utility.yul\":28897:28990   */\n      tag_298\n      jump\t// in\n    tag_571:\n        /* \"#utility.yul\":29015:29017   */\n      0x20\n        /* \"#utility.yul\":29010:29013   */\n      dup3\n        /* \"#utility.yul\":29006:29018   */\n      add\n        /* \"#utility.yul\":28999:29018   */\n      swap1\n      pop\n        /* \"#utility.yul\":28658:29024   */\n      swap2\n      swap1\n      pop\n      jump\t// out\n        /* \"#utility.yul\":29030:29449   */\n    tag_214:\n        /* \"#utility.yul\":29196:29200   */\n      0x00\n        /* \"#utility.yul\":29234:29236   */\n      0x20\n        /* \"#utility.yul\":29223:29232   */\n      dup3\n        /* \"#utility.yul\":29219:29237   */\n      add\n        /* \"#utility.yul\":29211:29237   */\n      swap1\n      pop\n        /* \"#utility.yul\":29283:29292   */\n      dup2\n        /* \"#utility.yul\":29277:29281   */\n      dup2\n        /* \"#utility.yul\":29273:29293   */\n      sub\n        /* \"#utility.yul\":29269:29270   */\n      0x00\n        /* \"#utility.yul\":29258:29267   */\n      dup4\n        /* \"#utility.yul\":29254:29271   */\n      add\n        /* \"#utility.yul\":29247:29294   */\n      mstore\n        /* \"#utility.yul\":29311:29442   */\n      tag_573\n        /* \"#utility.yul\":29437:29441   */\n      dup2\n        /* \"#utility.yul\":29311:29442   */\n      tag_299\n      jump\t// in\n    tag_573:\n        /* \"#utility.yul\":29303:29442   */\n      swap1\n      pop\n        /* \"#utility.yul\":29030:29449   */\n      swap2\n      swap1\n      pop\n      jump\t// out\n        /* \"#utility.yul\":29455:29551   */\n    tag_300:\n        /* \"#utility.yul\":29489:29497   */\n      0x00\n        /* \"#utility.yul\":29538:29543   */\n      dup2\n        /* \"#utility.yul\":29533:29536   */\n      0x80\n        /* \"#utility.yul\":29529:29544   */\n      shl\n        /* \"#utility.yul\":29508:29544   */\n      swap1\n      pop\n        /* \"#utility.yul\":29455:29551   */\n      swap2\n      swap1\n      pop\n      jump\t// out\n        /* \"#utility.yul\":29557:29652   */\n    tag_301:\n        /* \"#utility.yul\":29596:29603   */\n      0x00\n        /* \"#utility.yul\":29625:29646   */\n      tag_576\n        /* \"#utility.yul\":29640:29645   */\n      dup3\n        /* \"#utility.yul\":29625:29646   */\n      tag_300\n      jump\t// in\n    tag_576:\n        /* \"#utility.yul\":29614:29646   */\n      swap1\n      pop\n        /* \"#utility.yul\":29557:29652   */\n      swap2\n      swap1\n      pop\n      jump\t// out\n        /* \"#utility.yul\":29658:29815   */\n    tag_302:\n        /* \"#utility.yul\":29763:29808   */\n      tag_578\n        /* \"#utility.yul\":29783:29807   */\n      tag_579\n        /* \"#utility.yul\":29801:29806   */\n      dup3\n        /* \"#utility.yul\":29783:29807   */\n      tag_243\n      jump\t// in\n    tag_579:\n        /* \"#utility.yul\":29763:29808   */\n      tag_301\n      jump\t// in\n    tag_578:\n        /* \"#utility.yul\":29758:29761   */\n      dup3\n        /* \"#utility.yul\":29751:29809   */\n      mstore\n        /* \"#utility.yul\":29658:29815   */\n      pop\n      pop\n      jump\t// out\n        /* \"#utility.yul\":29821:29915   */\n    tag_303:\n        /* \"#utility.yul\":29854:29862   */\n      0x00\n        /* \"#utility.yul\":29902:29907   */\n      dup2\n        /* \"#utility.yul\":29898:29900   */\n      0x60\n        /* \"#utility.yul\":29894:29908   */\n      shl\n        /* \"#utility.yul\":29873:29908   */\n      swap1\n      pop\n        /* \"#utility.yul\":29821:29915   */\n      swap2\n      swap1\n      pop\n      jump\t// out\n        /* \"#utility.yul\":29921:30015   */\n    tag_304:\n        /* \"#utility.yul\":29960:29967   */\n      0x00\n        /* \"#utility.yul\":29989:30009   */\n      tag_582\n        /* \"#utility.yul\":30003:30008   */\n      dup3\n        /* \"#utility.yul\":29989:30009   */\n      tag_303\n      jump\t// in\n    tag_582:\n        /* \"#utility.yul\":29978:30009   */\n      swap1\n      pop\n        /* \"#utility.yul\":29921:30015   */\n      swap2\n      swap1\n      pop\n      jump\t// out\n        /* \"#utility.yul\":30021:30121   */\n    tag_305:\n        /* \"#utility.yul\":30060:30067   */\n      0x00\n        /* \"#utility.yul\":30089:30115   */\n      tag_584\n        /* \"#utility.yul\":30109:30114   */\n      dup3\n        /* \"#utility.yul\":30089:30115   */\n      tag_304\n      jump\t// in\n    tag_584:\n        /* \"#utility.yul\":30078:30115   */\n      swap1\n      pop\n        /* \"#utility.yul\":30021:30121   */\n      swap2\n      swap1\n      pop\n      jump\t// out\n        /* \"#utility.yul\":30127:30284   */\n    tag_306:\n        /* \"#utility.yul\":30232:30277   */\n      tag_586\n        /* \"#utility.yul\":30252:30276   */\n      tag_587\n        /* \"#utility.yul\":30270:30275   */\n      dup3\n        /* \"#utility.yul\":30252:30276   */\n      tag_232\n      jump\t// in\n    tag_587:\n        /* \"#utility.yul\":30232:30277   */\n      tag_305\n      jump\t// in\n    tag_586:\n        /* \"#utility.yul\":30227:30230   */\n      dup3\n        /* \"#utility.yul\":30220:30278   */\n      mstore\n        /* \"#utility.yul\":30127:30284   */\n      pop\n      pop\n      jump\t// out\n        /* \"#utility.yul\":30290:30369   */\n    tag_307:\n        /* \"#utility.yul\":30329:30336   */\n      0x00\n        /* \"#utility.yul\":30358:30363   */\n      dup2\n        /* \"#utility.yul\":30347:30363   */\n      swap1\n      pop\n        /* \"#utility.yul\":30290:30369   */\n      swap2\n      swap1\n      pop\n      jump\t// out\n        /* \"#utility.yul\":30375:30532   */\n    tag_308:\n        /* \"#utility.yul\":30480:30525   */\n      tag_590\n        /* \"#utility.yul\":30500:30524   */\n      tag_591\n        /* \"#utility.yul\":30518:30523   */\n      dup3\n        /* \"#utility.yul\":30500:30524   */\n      tag_228\n      jump\t// in\n    tag_591:\n        /* \"#utility.yul\":30480:30525   */\n      tag_307\n      jump\t// in\n    tag_590:\n        /* \"#utility.yul\":30475:30478   */\n      dup3\n        /* \"#utility.yul\":30468:30526   */\n      mstore\n        /* \"#utility.yul\":30375:30532   */\n      pop\n      pop\n      jump\t// out\n        /* \"#utility.yul\":30538:31076   */\n    tag_216:\n        /* \"#utility.yul\":30706:30709   */\n      0x00\n        /* \"#utility.yul\":30721:30796   */\n      tag_593\n        /* \"#utility.yul\":30792:30795   */\n      dup3\n        /* \"#utility.yul\":30783:30789   */\n      dup7\n        /* \"#utility.yul\":30721:30796   */\n      tag_302\n      jump\t// in\n    tag_593:\n        /* \"#utility.yul\":30821:30823   */\n      0x10\n        /* \"#utility.yul\":30816:30819   */\n      dup3\n        /* \"#utility.yul\":30812:30824   */\n      add\n        /* \"#utility.yul\":30805:30824   */\n      swap2\n      pop\n        /* \"#utility.yul\":30834:30909   */\n      tag_594\n        /* \"#utility.yul\":30905:30908   */\n      dup3\n        /* \"#utility.yul\":30896:30902   */\n      dup6\n        /* \"#utility.yul\":30834:30909   */\n      tag_306\n      jump\t// in\n    tag_594:\n        /* \"#utility.yul\":30934:30936   */\n      0x14\n        /* \"#utility.yul\":30929:30932   */\n      dup3\n        /* \"#utility.yul\":30925:30937   */\n      add\n        /* \"#utility.yul\":30918:30937   */\n      swap2\n      pop\n        /* \"#utility.yul\":30947:31022   */\n      tag_595\n        /* \"#utility.yul\":31018:31021   */\n      dup3\n        /* \"#utility.yul\":31009:31015   */\n      dup5\n        /* \"#utility.yul\":30947:31022   */\n      tag_308\n      jump\t// in\n    tag_595:\n        /* \"#utility.yul\":31047:31049   */\n      0x20\n        /* \"#utility.yul\":31042:31045   */\n      dup3\n        /* \"#utility.yul\":31038:31050   */\n      add\n        /* \"#utility.yul\":31031:31050   */\n      swap2\n      pop\n        /* \"#utility.yul\":31067:31070   */\n      dup2\n        /* \"#utility.yul\":31060:31070   */\n      swap1\n      pop\n        /* \"#utility.yul\":30538:31076   */\n      swap5\n      swap4\n      pop\n      pop\n      pop\n      pop\n      jump\t// out\n\n    auxdata: 0xa2646970667358221220e659449cbdf23244f5605d04d97b91eb62895e980be597079280ca658d80d93f64736f6c63430008160033\n}\n",
				"bytecode": {
					"linkReferences": {},
					"object": "60e060405234801562000010575f80fd5b5060405162002d3e38038062002d3e833981810160405281019062000036919062000236565b5f73ffffffffffffffffffffffffffffffffffffffff168273ffffffffffffffffffffffffffffffffffffffff1603620000a7576040517f08c379a00000000000000000000000000000000000000000000000000000000081526004016200009e90620002d9565b60405180910390fd5b611388811115620000ef576040517f08c379a0000000000000000000000000000000000000000000000000000000008152600401620000e69062000347565b60405180910390fd5b3373ffffffffffffffffffffffffffffffffffffffff1660808173ffffffffffffffffffffffffffffffffffffffff16815250508173ffffffffffffffffffffffffffffffffffffffff1660a08173ffffffffffffffffffffffffffffffffffffffff16815250508173ffffffffffffffffffffffffffffffffffffffff1660c08173ffffffffffffffffffffffffffffffffffffffff1681525050805f81905550505062000367565b5f80fd5b5f73ffffffffffffffffffffffffffffffffffffffff82169050919050565b5f620001c8826200019d565b9050919050565b620001da81620001bc565b8114620001e5575f80fd5b50565b5f81519050620001f881620001cf565b92915050565b5f819050919050565b6200021281620001fe565b81146200021d575f80fd5b50565b5f81519050620002308162000207565b92915050565b5f80604083850312156200024f576200024e62000199565b5b5f6200025e85828601620001e8565b9250506020620002718582860162000220565b9150509250929050565b5f82825260208201905092915050565b7f496e76616c6964204e46542061646472657373000000000000000000000000005f82015250565b5f620002c16013836200027b565b9150620002ce826200028b565b602082019050919050565b5f6020820190508181035f830152620002f281620002b3565b9050919050565b7f436f6d6d697373696f6e20746f6f2068696768000000000000000000000000005f82015250565b5f6200032f6013836200027b565b91506200033c82620002f9565b602082019050919050565b5f6020820190508181035f830152620003608162000321565b9050919050565b60805160a05160c05161295f620003df5f395f8181610da501526110f601525f81816105b8015281816106c50152818161079e015281816109f401528181611198015281816112a00152818161135701526118c501525f818161091001528181610b5701528181610fe3015261111f015261295f5ff3fe6080604052600436106100f6575f3560e01c80639acaa6fb11610089578063d56d229d11610058578063d56d229d14610307578063d8cba25114610331578063de74e57b1461036d578063f3f43703146103ac576100fd565b80639acaa6fb1461023d5780639b83cddc14610265578063ae97dde8146102a1578063cc85a55b146102cb576100fd565b8063404a9ab8116100c5578063404a9ab81461019757806351e61b25146101bf57806377d3550b146101e95780638da5cb5b14610213576100fd565b8063169d5a7d1461010157806324600fc31461011d5780632f745c5914610133578063305a67a81461016f576100fd565b366100fd57005b5f80fd5b61011b60048036038101906101169190611b5b565b6103e8565b005b348015610128575f80fd5b50610131610b55565b005b34801561013e575f80fd5b5061015960048036038101906101549190611be0565b610da2565b6040516101669190611c2d565b60405180910390f35b34801561017a575f80fd5b5061019560048036038101906101909190611b5b565b610e45565b005b3480156101a2575f80fd5b506101bd60048036038101906101b89190611b5b565b610fe1565b005b3480156101ca575f80fd5b506101d36110f4565b6040516101e09190611ca1565b60405180910390f35b3480156101f4575f80fd5b506101fd611118565b60405161020a9190611c2d565b60405180910390f35b34801561021e575f80fd5b5061022761111d565b6040516102349190611cda565b60405180910390f35b348015610248575f80fd5b50610263600480360381019061025e9190611d38565b611141565b005b348015610270575f80fd5b5061028b60048036038101906102869190611b5b565b611864565b6040516102989190611d90565b60405180910390f35b3480156102ac575f80fd5b506102b56118a3565b6040516102c29190611c2d565b60405180910390f35b3480156102d6575f80fd5b506102f160048036038101906102ec9190611b5b565b6118a9565b6040516102fe9190611c2d565b60405180910390f35b348015610312575f80fd5b5061031b6118c3565b6040516103289190611dc9565b60405180910390f35b34801561033c575f80fd5b5061035760048036038101906103529190611de2565b6118e7565b6040516103649190611f35565b60405180910390f35b348015610378575f80fd5b50610393600480360381019061038e9190611b5b565b611a81565b6040516103a39493929190611f73565b60405180910390f35b3480156103b7575f80fd5b506103d260048036038101906103cd9190611de2565b611b0f565b6040516103df9190611c2d565b60405180910390f35b5f60015f8381526020019081526020015f209050806002015f9054906101000a900460ff1661044c576040517f08c379a000000000000000000000000000000000000000000000000000000000815260040161044390612010565b60405180910390fd5b8060010160109054906101000a90046fffffffffffffffffffffffffffffffff166fffffffffffffffffffffffffffffffff163410156104c1576040517f08c379a00000000000000000000000000000000000000000000000000000000081526004016104b890612078565b60405180910390fd5b805f015f9054906101000a900473ffffffffffffffffffffffffffffffffffffffff1673ffffffffffffffffffffffffffffffffffffffff163373ffffffffffffffffffffffffffffffffffffffff1603610551576040517f08c379a0000000000000000000000000000000000000000000000000000000008152600401610548906120e0565b60405180910390fd5b5f6127105f5434610562919061212b565b61056c9190612199565b90505f813461057b91906121c9565b9050825f015f9054906101000a900473ffffffffffffffffffffffffffffffffffffffff1673ffffffffffffffffffffffffffffffffffffffff167f000000000000000000000000000000000000000000000000000000000000000073ffffffffffffffffffffffffffffffffffffffff16636352211e856001015f9054906101000a90046fffffffffffffffffffffffffffffffff166040518263ffffffff1660e01b815260040161062e919061222c565b602060405180830381865afa158015610649573d5f803e3d5ffd5b505050506040513d601f19601f8201168201806040525081019061066d9190612259565b73ffffffffffffffffffffffffffffffffffffffff16146106c3576040517f08c379a00000000000000000000000000000000000000000000000000000000081526004016106ba906122ce565b60405180910390fd5b7f000000000000000000000000000000000000000000000000000000000000000073ffffffffffffffffffffffffffffffffffffffff1663e985e9c5845f015f9054906101000a900473ffffffffffffffffffffffffffffffffffffffff16306040518363ffffffff1660e01b81526004016107409291906122ec565b602060405180830381865afa15801561075b573d5f803e3d5ffd5b505050506040513d601f19601f8201168201806040525081019061077f919061233d565b8061086b57503073ffffffffffffffffffffffffffffffffffffffff167f000000000000000000000000000000000000000000000000000000000000000073ffffffffffffffffffffffffffffffffffffffff1663081812fc856001015f9054906101000a90046fffffffffffffffffffffffffffffffff166040518263ffffffff1660e01b8152600401610814919061222c565b602060405180830381865afa15801561082f573d5f803e3d5ffd5b505050506040513d601f19601f820116820180604052508101906108539190612259565b73ffffffffffffffffffffffffffffffffffffffff16145b6108aa576040517f08c379a00000000000000000000000000000000000000000000000000000000081526004016108a1906123b2565b60405180910390fd5b5f836002015f6101000a81548160ff02191690831515021790555060025f846001015f9054906101000a90046fffffffffffffffffffffffffffffffff166fffffffffffffffffffffffffffffffff1681526020019081526020015f205f90558160035f7f000000000000000000000000000000000000000000000000000000000000000073ffffffffffffffffffffffffffffffffffffffff1673ffffffffffffffffffffffffffffffffffffffff1681526020019081526020015f205f82825461097691906123d0565b925050819055508060035f855f015f9054906101000a900473ffffffffffffffffffffffffffffffffffffffff1673ffffffffffffffffffffffffffffffffffffffff1673ffffffffffffffffffffffffffffffffffffffff1681526020019081526020015f205f8282546109eb91906123d0565b925050819055507f000000000000000000000000000000000000000000000000000000000000000073ffffffffffffffffffffffffffffffffffffffff166342842e0e845f015f9054906101000a900473ffffffffffffffffffffffffffffffffffffffff1633866001015f9054906101000a90046fffffffffffffffffffffffffffffffff166040518463ffffffff1660e01b8152600401610a9093929190612403565b5f604051808303815f87803b158015610aa7575f80fd5b505af1158015610ab9573d5f803e3d5ffd5b505050503373ffffffffffffffffffffffffffffffffffffffff16847fe29b93709a7ac5e91a6057482d1df985483725988417e08dec23377234003c80856001015f9054906101000a90046fffffffffffffffffffffffffffffffff168660010160109054906101000a90046fffffffffffffffffffffffffffffffff1642604051610b4793929190612438565b60405180910390a350505050565b7f000000000000000000000000000000000000000000000000000000000000000073ffffffffffffffffffffffffffffffffffffffff163373ffffffffffffffffffffffffffffffffffffffff1614610be3576040517f08c379a0000000000000000000000000000000000000000000000000000000008152600401610bda906124b7565b60405180910390fd5b5f60035f3373ffffffffffffffffffffffffffffffffffffffff1673ffffffffffffffffffffffffffffffffffffffff1681526020019081526020015f205490505f8111610c66576040517f08c379a0000000000000000000000000000000000000000000000000000000008152600401610c5d9061251f565b60405180910390fd5b5f60035f3373ffffffffffffffffffffffffffffffffffffffff1673ffffffffffffffffffffffffffffffffffffffff1681526020019081526020015f20819055505f3373ffffffffffffffffffffffffffffffffffffffff1682604051610ccd9061256a565b5f6040518083038185875af1925050503d805f8114610d07576040519150601f19603f3d011682016040523d82523d5f602084013e610d0c565b606091505b5050905080610d50576040517f08c379a0000000000000000000000000000000000000000000000000000000008152600401610d47906125c8565b60405180910390fd5b3373ffffffffffffffffffffffffffffffffffffffff167f6141b54b56b8a52a8c6f5cd2a857f6117b18ffbf4d46bd3106f300a839cbf5ea83604051610d969190611c2d565b60405180910390a25050565b5f7f000000000000000000000000000000000000000000000000000000000000000073ffffffffffffffffffffffffffffffffffffffff16632f745c5984846040518363ffffffff1660e01b8152600401610dfe9291906125e6565b602060405180830381865afa158015610e19573d5f803e3d5ffd5b505050506040513d601f19601f82011682018060405250810190610e3d9190612621565b905092915050565b5f60015f8381526020019081526020015f209050806002015f9054906101000a900460ff16610ea9576040517f08c379a0000000000000000000000000000000000000000000000000000000008152600401610ea090612010565b60405180910390fd5b3373ffffffffffffffffffffffffffffffffffffffff16815f015f9054906101000a900473ffffffffffffffffffffffffffffffffffffffff1673ffffffffffffffffffffffffffffffffffffffff1614610f39576040517f08c379a0000000000000000000000000000000000000000000000000000000008152600401610f3090612696565b60405180910390fd5b5f816002015f6101000a81548160ff02191690831515021790555060025f826001015f9054906101000a90046fffffffffffffffffffffffffffffffff166fffffffffffffffffffffffffffffffff1681526020019081526020015f205f90553373ffffffffffffffffffffffffffffffffffffffff16827f8e25282255ab31897df2b0456bb993ac7f84d376861aefd84901d2d63a7428a260405160405180910390a35050565b7f000000000000000000000000000000000000000000000000000000000000000073ffffffffffffffffffffffffffffffffffffffff163373ffffffffffffffffffffffffffffffffffffffff161461106f576040517f08c379a0000000000000000000000000000000000000000000000000000000008152600401611066906124b7565b60405180910390fd5b6113888111156110b4576040517f08c379a00000000000000000000000000000000000000000000000000000000081526004016110ab906126fe565b60405180910390fd5b805f819055507f13f60dd2b588490608c3ff1932a3daeb4087f3d5af04b97e5c2a16b5b4c0302e816040516110e99190611c2d565b60405180910390a150565b7f000000000000000000000000000000000000000000000000000000000000000081565b5f5481565b7f000000000000000000000000000000000000000000000000000000000000000081565b5f816fffffffffffffffffffffffffffffffff1611611195576040517f08c379a000000000000000000000000000000000000000000000000000000000815260040161118c90612766565b60405180910390fd5b5f7f000000000000000000000000000000000000000000000000000000000000000073ffffffffffffffffffffffffffffffffffffffff16636352211e846040518263ffffffff1660e01b81526004016111ef919061222c565b602060405180830381865afa15801561120a573d5f803e3d5ffd5b505050506040513d601f19601f8201168201806040525081019061122e9190612259565b90503373ffffffffffffffffffffffffffffffffffffffff168173ffffffffffffffffffffffffffffffffffffffff161461129e576040517f08c379a0000000000000000000000000000000000000000000000000000000008152600401611295906127ce565b60405180910390fd5b7f000000000000000000000000000000000000000000000000000000000000000073ffffffffffffffffffffffffffffffffffffffff1663e985e9c533306040518363ffffffff1660e01b81526004016112f99291906122ec565b602060405180830381865afa158015611314573d5f803e3d5ffd5b505050506040513d601f19601f82011682018060405250810190611338919061233d565b8061140557503073ffffffffffffffffffffffffffffffffffffffff167f000000000000000000000000000000000000000000000000000000000000000073ffffffffffffffffffffffffffffffffffffffff1663081812fc856040518263ffffffff1660e01b81526004016113ae919061222c565b602060405180830381865afa1580156113c9573d5f803e3d5ffd5b505050506040513d601f19601f820116820180604052508101906113ed9190612259565b73ffffffffffffffffffffffffffffffffffffffff16145b611444576040517f08c379a000000000000000000000000000000000000000000000000000000000815260040161143b906123b2565b60405180910390fd5b5f60025f856fffffffffffffffffffffffffffffffff1681526020019081526020015f2054146114a9576040517f08c379a00000000000000000000000000000000000000000000000000000000081526004016114a090612836565b60405180910390fd5b5f8333426040516020016114bf939291906128ed565b604051602081830303815290604052805190602001205f1c905060405180608001604052803373ffffffffffffffffffffffffffffffffffffffff168152602001856fffffffffffffffffffffffffffffffff168152602001846fffffffffffffffffffffffffffffffff1681526020016001151581525060015f8381526020019081526020015f205f820151815f015f6101000a81548173ffffffffffffffffffffffffffffffffffffffff021916908373ffffffffffffffffffffffffffffffffffffffff1602179055506020820151816001015f6101000a8154816fffffffffffffffffffffffffffffffff02191690836fffffffffffffffffffffffffffffffff16021790555060408201518160010160106101000a8154816fffffffffffffffffffffffffffffffff02191690836fffffffffffffffffffffffffffffffff1602179055506060820151816002015f6101000a81548160ff0219169083151502179055509050508060025f866fffffffffffffffffffffffffffffffff1681526020019081526020015f208190555060045f3373ffffffffffffffffffffffffffffffffffffffff1673ffffffffffffffffffffffffffffffffffffffff1681526020019081526020015f2060015f8381526020019081526020015f20908060018154018082558091505060019003905f5260205f2090600302015f909190919091505f82015f9054906101000a900473ffffffffffffffffffffffffffffffffffffffff16815f015f6101000a81548173ffffffffffffffffffffffffffffffffffffffff021916908373ffffffffffffffffffffffffffffffffffffffff160217905550600182015f9054906101000a90046fffffffffffffffffffffffffffffffff16816001015f6101000a8154816fffffffffffffffffffffffffffffffff02191690836fffffffffffffffffffffffffffffffff1602179055506001820160109054906101000a90046fffffffffffffffffffffffffffffffff168160010160106101000a8154816fffffffffffffffffffffffffffffffff02191690836fffffffffffffffffffffffffffffffff160217905550600282015f9054906101000a900460ff16816002015f6101000a81548160ff02191690831515021790555050503373ffffffffffffffffffffffffffffffffffffffff16817fa3941cfa07eecf2734875ab71cea0e47395be644da6e17b039a7e29efba74ef986864260405161185693929190612438565b60405180910390a350505050565b5f8060025f8481526020019081526020015f2054905060015f8281526020019081526020015f206002015f9054906101000a900460ff16915050919050565b61138881565b5f60025f8381526020019081526020015f20549050919050565b7f000000000000000000000000000000000000000000000000000000000000000081565b606060045f8373ffffffffffffffffffffffffffffffffffffffff1673ffffffffffffffffffffffffffffffffffffffff1681526020019081526020015f20805480602002602001604051908101604052809291908181526020015f905b82821015611a76578382905f5260205f2090600302016040518060800160405290815f82015f9054906101000a900473ffffffffffffffffffffffffffffffffffffffff1673ffffffffffffffffffffffffffffffffffffffff1673ffffffffffffffffffffffffffffffffffffffff168152602001600182015f9054906101000a90046fffffffffffffffffffffffffffffffff166fffffffffffffffffffffffffffffffff166fffffffffffffffffffffffffffffffff1681526020016001820160109054906101000a90046fffffffffffffffffffffffffffffffff166fffffffffffffffffffffffffffffffff166fffffffffffffffffffffffffffffffff168152602001600282015f9054906101000a900460ff16151515158152505081526020019060010190611945565b505050509050919050565b6001602052805f5260405f205f91509050805f015f9054906101000a900473ffffffffffffffffffffffffffffffffffffffff1690806001015f9054906101000a90046fffffffffffffffffffffffffffffffff16908060010160109054906101000a90046fffffffffffffffffffffffffffffffff1690806002015f9054906101000a900460ff16905084565b6003602052805f5260405f205f915090505481565b5f80fd5b5f819050919050565b611b3a81611b28565b8114611b44575f80fd5b50565b5f81359050611b5581611b31565b92915050565b5f60208284031215611b7057611b6f611b24565b5b5f611b7d84828501611b47565b91505092915050565b5f73ffffffffffffffffffffffffffffffffffffffff82169050919050565b5f611baf82611b86565b9050919050565b611bbf81611ba5565b8114611bc9575f80fd5b50565b5f81359050611bda81611bb6565b92915050565b5f8060408385031215611bf657611bf5611b24565b5b5f611c0385828601611bcc565b9250506020611c1485828601611b47565b9150509250929050565b611c2781611b28565b82525050565b5f602082019050611c405f830184611c1e565b92915050565b5f819050919050565b5f611c69611c64611c5f84611b86565b611c46565b611b86565b9050919050565b5f611c7a82611c4f565b9050919050565b5f611c8b82611c70565b9050919050565b611c9b81611c81565b82525050565b5f602082019050611cb45f830184611c92565b92915050565b5f611cc482611b86565b9050919050565b611cd481611cba565b82525050565b5f602082019050611ced5f830184611ccb565b92915050565b5f6fffffffffffffffffffffffffffffffff82169050919050565b611d1781611cf3565b8114611d21575f80fd5b50565b5f81359050611d3281611d0e565b92915050565b5f8060408385031215611d4e57611d4d611b24565b5b5f611d5b85828601611d24565b9250506020611d6c85828601611d24565b9150509250929050565b5f8115159050919050565b611d8a81611d76565b82525050565b5f602082019050611da35f830184611d81565b92915050565b5f611db382611c70565b9050919050565b611dc381611da9565b82525050565b5f602082019050611ddc5f830184611dba565b92915050565b5f60208284031215611df757611df6611b24565b5b5f611e0484828501611bcc565b91505092915050565b5f81519050919050565b5f82825260208201905092915050565b5f819050602082019050919050565b611e3f81611ba5565b82525050565b611e4e81611cf3565b82525050565b611e5d81611d76565b82525050565b608082015f820151611e775f850182611e36565b506020820151611e8a6020850182611e45565b506040820151611e9d6040850182611e45565b506060820151611eb06060850182611e54565b50505050565b5f611ec18383611e63565b60808301905092915050565b5f602082019050919050565b5f611ee382611e0d565b611eed8185611e17565b9350611ef883611e27565b805f5b83811015611f28578151611f0f8882611eb6565b9750611f1a83611ecd565b925050600181019050611efb565b5085935050505092915050565b5f6020820190508181035f830152611f4d8184611ed9565b905092915050565b611f5e81611ba5565b82525050565b611f6d81611cf3565b82525050565b5f608082019050611f865f830187611f55565b611f936020830186611f64565b611fa06040830185611f64565b611fad6060830184611d81565b95945050505050565b5f82825260208201905092915050565b7f4c697374696e67206e6f742061637469766500000000000000000000000000005f82015250565b5f611ffa601283611fb6565b915061200582611fc6565b602082019050919050565b5f6020820190508181035f83015261202781611fee565b9050919050565b7f496e73756666696369656e74207061796d656e740000000000000000000000005f82015250565b5f612062601483611fb6565b915061206d8261202e565b602082019050919050565b5f6020820190508181035f83015261208f81612056565b9050919050565b7f43616e6e6f7420627579206f776e206c697374696e67000000000000000000005f82015250565b5f6120ca601683611fb6565b91506120d582612096565b602082019050919050565b5f6020820190508181035f8301526120f7816120be565b9050919050565b7f4e487b71000000000000000000000000000000000000000000000000000000005f52601160045260245ffd5b5f61213582611b28565b915061214083611b28565b925082820261214e81611b28565b91508282048414831517612165576121646120fe565b5b5092915050565b7f4e487b71000000000000000000000000000000000000000000000000000000005f52601260045260245ffd5b5f6121a382611b28565b91506121ae83611b28565b9250826121be576121bd61216c565b5b828204905092915050565b5f6121d382611b28565b91506121de83611b28565b92508282039050818111156121f6576121f56120fe565b5b92915050565b5f61221661221161220c84611cf3565b611c46565b611b28565b9050919050565b612226816121fc565b82525050565b5f60208201905061223f5f83018461221d565b92915050565b5f8151905061225381611bb6565b92915050565b5f6020828403121561226e5761226d611b24565b5b5f61227b84828501612245565b91505092915050565b7f53656c6c6572206e6f206c6f6e676572206f776e73204e4654000000000000005f82015250565b5f6122b8601983611fb6565b91506122c382612284565b602082019050919050565b5f6020820190508181035f8301526122e5816122ac565b9050919050565b5f6040820190506122ff5f830185611f55565b61230c6020830184611f55565b9392505050565b61231c81611d76565b8114612326575f80fd5b50565b5f8151905061233781612313565b92915050565b5f6020828403121561235257612351611b24565b5b5f61235f84828501612329565b91505092915050565b7f4e6f7420617070726f76656400000000000000000000000000000000000000005f82015250565b5f61239c600c83611fb6565b91506123a782612368565b602082019050919050565b5f6020820190508181035f8301526123c981612390565b9050919050565b5f6123da82611b28565b91506123e583611b28565b92508282019050808211156123fd576123fc6120fe565b5b92915050565b5f6060820190506124165f830186611f55565b6124236020830185611f55565b612430604083018461221d565b949350505050565b5f60608201905061244b5f83018661221d565b612458602083018561221d565b6124656040830184611c1e565b949350505050565b7f4f6e6c79206f776e6572000000000000000000000000000000000000000000005f82015250565b5f6124a1600a83611fb6565b91506124ac8261246d565b602082019050919050565b5f6020820190508181035f8301526124ce81612495565b9050919050565b7f4e6f2066756e647320746f2077697468647261770000000000000000000000005f82015250565b5f612509601483611fb6565b9150612514826124d5565b602082019050919050565b5f6020820190508181035f830152612536816124fd565b9050919050565b5f81905092915050565b50565b5f6125555f8361253d565b915061256082612547565b5f82019050919050565b5f6125748261254a565b9150819050919050565b7f5472616e73666572206661696c656400000000000000000000000000000000005f82015250565b5f6125b2600f83611fb6565b91506125bd8261257e565b602082019050919050565b5f6020820190508181035f8301526125df816125a6565b9050919050565b5f6040820190506125f95f830185611f55565b6126066020830184611c1e565b9392505050565b5f8151905061261b81611b31565b92915050565b5f6020828403121561263657612635611b24565b5b5f6126438482850161260d565b91505092915050565b7f4e6f742073656c6c6572000000000000000000000000000000000000000000005f82015250565b5f612680600a83611fb6565b915061268b8261264c565b602082019050919050565b5f6020820190508181035f8301526126ad81612674565b9050919050565b7f436f6d6d697373696f6e20746f6f2068696768000000000000000000000000005f82015250565b5f6126e8601383611fb6565b91506126f3826126b4565b602082019050919050565b5f6020820190508181035f830152612715816126dc565b9050919050565b7f5072696365206d757374206265203e20300000000000000000000000000000005f82015250565b5f612750601183611fb6565b915061275b8261271c565b602082019050919050565b5f6020820190508181035f83015261277d81612744565b9050919050565b7f4e6f7420746f6b656e206f776e657200000000000000000000000000000000005f82015250565b5f6127b8600f83611fb6565b91506127c382612784565b602082019050919050565b5f6020820190508181035f8301526127e5816127ac565b9050919050565b7f416c7265616479206c69737465640000000000000000000000000000000000005f82015250565b5f612820600e83611fb6565b915061282b826127ec565b602082019050919050565b5f6020820190508181035f83015261284d81612814565b9050919050565b5f8160801b9050919050565b5f61286a82612854565b9050919050565b61288261287d82611cf3565b612860565b82525050565b5f8160601b9050919050565b5f61289e82612888565b9050919050565b5f6128af82612894565b9050919050565b6128c76128c282611ba5565b6128a5565b82525050565b5f819050919050565b6128e76128e282611b28565b6128cd565b82525050565b5f6128f88286612871565b60108201915061290882856128b6565b60148201915061291882846128d6565b60208201915081905094935050505056fea2646970667358221220e659449cbdf23244f5605d04d97b91eb62895e980be597079280ca658d80d93f64736f6c63430008160033",
					"opcodes": "PUSH1 0xE0 PUSH1 0x40 MSTORE CALLVALUE DUP1 ISZERO PUSH3 0x10 JUMPI PUSH0 DUP1 REVERT JUMPDEST POP PUSH1 0x40 MLOAD PUSH3 0x2D3E CODESIZE SUB DUP1 PUSH3 0x2D3E DUP4 CODECOPY DUP2 DUP2 ADD PUSH1 0x40 MSTORE DUP2 ADD SWAP1 PUSH3 0x36 SWAP2 SWAP1 PUSH3 0x236 JUMP JUMPDEST PUSH0 PUSH20 0xFFFFFFFFFFFFFFFFFFFFFFFFFFFFFFFFFFFFFFFF AND DUP3 PUSH20 0xFFFFFFFFFFFFFFFFFFFFFFFFFFFFFFFFFFFFFFFF AND SUB PUSH3 0xA7 JUMPI PUSH1 0x40 MLOAD PUSH32 0x8C379A000000000000000000000000000000000000000000000000000000000 DUP2 MSTORE PUSH1 0x4 ADD PUSH3 0x9E SWAP1 PUSH3 0x2D9 JUMP JUMPDEST PUSH1 0x40 MLOAD DUP1 SWAP2 SUB SWAP1 REVERT JUMPDEST PUSH2 0x1388 DUP2 GT ISZERO PUSH3 0xEF JUMPI PUSH1 0x40 MLOAD PUSH32 0x8C379A000000000000000000000000000000000000000000000000000000000 DUP2 MSTORE PUSH1 0x4 ADD PUSH3 0xE6 SWAP1 PUSH3 0x347 JUMP JUMPDEST PUSH1 0x40 MLOAD DUP1 SWAP2 SUB SWAP1 REVERT JUMPDEST CALLER PUSH20 0xFFFFFFFFFFFFFFFFFFFFFFFFFFFFFFFFFFFFFFFF AND PUSH1 0x80 DUP2 PUSH20 0xFFFFFFFFFFFFFFFFFFFFFFFFFFFFFFFFFFFFFFFF AND DUP2 MSTORE POP POP DUP2 PUSH20 0xFFFFFFFFFFFFFFFFFFFFFFFFFFFFFFFFFFFFFFFF AND PUSH1 0xA0 DUP2 PUSH20 0xFFFFFFFFFFFFFFFFFFFFFFFFFFFFFFFFFFFFFFFF AND DUP2 MSTORE POP POP DUP2 PUSH20 0xFFFFFFFFFFFFFFFFFFFFFFFFFFFFFFFFFFFFFFFF AND PUSH1 0xC0 DUP2 PUSH20 0xFFFFFFFFFFFFFFFFFFFFFFFFFFFFFFFFFFFFFFFF AND DUP2 MSTORE POP POP DUP1 PUSH0 DUP2 SWAP1 SSTORE POP POP POP PUSH3 0x367 JUMP JUMPDEST PUSH0 DUP1 REVERT JUMPDEST PUSH0 PUSH20 0xFFFFFFFFFFFFFFFFFFFFFFFFFFFFFFFFFFFFFFFF DUP3 AND SWAP1 POP SWAP2 SWAP1 POP JUMP JUMPDEST PUSH0 PUSH3 0x1C8 DUP3 PUSH3 0x19D JUMP JUMPDEST SWAP1 POP SWAP2 SWAP1 POP JUMP JUMPDEST PUSH3 0x1DA DUP2 PUSH3 0x1BC JUMP JUMPDEST DUP2 EQ PUSH3 0x1E5 JUMPI PUSH0 DUP1 REVERT JUMPDEST POP JUMP JUMPDEST PUSH0 DUP2 MLOAD SWAP1 POP PUSH3 0x1F8 DUP2 PUSH3 0x1CF JUMP JUMPDEST SWAP3 SWAP2 POP POP JUMP JUMPDEST PUSH0 DUP2 SWAP1 POP SWAP2 SWAP1 POP JUMP JUMPDEST PUSH3 0x212 DUP2 PUSH3 0x1FE JUMP JUMPDEST DUP2 EQ PUSH3 0x21D JUMPI PUSH0 DUP1 REVERT JUMPDEST POP JUMP JUMPDEST PUSH0 DUP2 MLOAD SWAP1 POP PUSH3 0x230 DUP2 PUSH3 0x207 JUMP JUMPDEST SWAP3 SWAP2 POP POP JUMP JUMPDEST PUSH0 DUP1 PUSH1 0x40 DUP4 DUP6 SUB SLT ISZERO PUSH3 0x24F JUMPI PUSH3 0x24E PUSH3 0x199 JUMP JUMPDEST JUMPDEST PUSH0 PUSH3 0x25E DUP6 DUP3 DUP7 ADD PUSH3 0x1E8 JUMP JUMPDEST SWAP3 POP POP PUSH1 0x20 PUSH3 0x271 DUP6 DUP3 DUP7 ADD PUSH3 0x220 JUMP JUMPDEST SWAP2 POP POP SWAP3 POP SWAP3 SWAP1 POP JUMP JUMPDEST PUSH0 DUP3 DUP3 MSTORE PUSH1 0x20 DUP3 ADD SWAP1 POP SWAP3 SWAP2 POP POP JUMP JUMPDEST PUSH32 0x496E76616C6964204E4654206164647265737300000000000000000000000000 PUSH0 DUP3 ADD MSTORE POP JUMP JUMPDEST PUSH0 PUSH3 0x2C1 PUSH1 0x13 DUP4 PUSH3 0x27B JUMP JUMPDEST SWAP2 POP PUSH3 0x2CE DUP3 PUSH3 0x28B JUMP JUMPDEST PUSH1 0x20 DUP3 ADD SWAP1 POP SWAP2 SWAP1 POP JUMP JUMPDEST PUSH0 PUSH1 0x20 DUP3 ADD SWAP1 POP DUP2 DUP2 SUB PUSH0 DUP4 ADD MSTORE PUSH3 0x2F2 DUP2 PUSH3 0x2B3 JUMP JUMPDEST SWAP1 POP SWAP2 SWAP1 POP JUMP JUMPDEST PUSH32 0x436F6D6D697373696F6E20746F6F206869676800000000000000000000000000 PUSH0 DUP3 ADD MSTORE POP JUMP JUMPDEST PUSH0 PUSH3 0x32F PUSH1 0x13 DUP4 PUSH3 0x27B JUMP JUMPDEST SWAP2 POP PUSH3 0x33C DUP3 PUSH3 0x2F9 JUMP JUMPDEST PUSH1 0x20 DUP3 ADD SWAP1 POP SWAP2 SWAP1 POP JUMP JUMPDEST PUSH0 PUSH1 0x20 DUP3 ADD SWAP1 POP DUP2 DUP2 SUB PUSH0 DUP4 ADD MSTORE PUSH3 0x360 DUP2 PUSH3 0x321 JUMP JUMPDEST SWAP1 POP SWAP2 SWAP1 POP JUMP JUMPDEST PUSH1 0x80 MLOAD PUSH1 0xA0 MLOAD PUSH1 0xC0 MLOAD PUSH2 0x295F PUSH3 0x3DF PUSH0 CODECOPY PUSH0 DUP2 DUP2 PUSH2 0xDA5 ADD MSTORE PUSH2 0x10F6 ADD MSTORE PUSH0 DUP2 DUP2 PUSH2 0x5B8 ADD MSTORE DUP2 DUP2 PUSH2 0x6C5 ADD MSTORE DUP2 DUP2 PUSH2 0x79E ADD MSTORE DUP2 DUP2 PUSH2 0x9F4 ADD MSTORE DUP2 DUP2 PUSH2 0x1198 ADD MSTORE DUP2 DUP2 PUSH2 0x12A0 ADD MSTORE DUP2 DUP2 PUSH2 0x1357 ADD MSTORE PUSH2 0x18C5 ADD MSTORE PUSH0 DUP2 DUP2 PUSH2 0x910 ADD MSTORE DUP2 DUP2 PUSH2 0xB57 ADD MSTORE DUP2 DUP2 PUSH2 0xFE3 ADD MSTORE PUSH2 0x111F ADD MSTORE PUSH2 0x295F PUSH0 RETURN INVALID PUSH1 0x80 PUSH1 0x40 MSTORE PUSH1 0x4 CALLDATASIZE LT PUSH2 0xF6 JUMPI PUSH0 CALLDATALOAD PUSH1 0xE0 SHR DUP1 PUSH4 0x9ACAA6FB GT PUSH2 0x89 JUMPI DUP1 PUSH4 0xD56D229D GT PUSH2 0x58 JUMPI DUP1 PUSH4 0xD56D229D EQ PUSH2 0x307 JUMPI DUP1 PUSH4 0xD8CBA251 EQ PUSH2 0x331 JUMPI DUP1 PUSH4 0xDE74E57B EQ PUSH2 0x36D JUMPI DUP1 PUSH4 0xF3F43703 EQ PUSH2 0x3AC JUMPI PUSH2 0xFD JUMP JUMPDEST DUP1 PUSH4 0x9ACAA6FB EQ PUSH2 0x23D JUMPI DUP1 PUSH4 0x9B83CDDC EQ PUSH2 0x265 JUMPI DUP1 PUSH4 0xAE97DDE8 EQ PUSH2 0x2A1 JUMPI DUP1 PUSH4 0xCC85A55B EQ PUSH2 0x2CB JUMPI PUSH2 0xFD JUMP JUMPDEST DUP1 PUSH4 0x404A9AB8 GT PUSH2 0xC5 JUMPI DUP1 PUSH4 0x404A9AB8 EQ PUSH2 0x197 JUMPI DUP1 PUSH4 0x51E61B25 EQ PUSH2 0x1BF JUMPI DUP1 PUSH4 0x77D3550B EQ PUSH2 0x1E9 JUMPI DUP1 PUSH4 0x8DA5CB5B EQ PUSH2 0x213 JUMPI PUSH2 0xFD JUMP JUMPDEST DUP1 PUSH4 0x169D5A7D EQ PUSH2 0x101 JUMPI DUP1 PUSH4 0x24600FC3 EQ PUSH2 0x11D JUMPI DUP1 PUSH4 0x2F745C59 EQ PUSH2 0x133 JUMPI DUP1 PUSH4 0x305A67A8 EQ PUSH2 0x16F JUMPI PUSH2 0xFD JUMP JUMPDEST CALLDATASIZE PUSH2 0xFD JUMPI STOP JUMPDEST PUSH0 DUP1 REVERT JUMPDEST PUSH2 0x11B PUSH1 0x4 DUP1 CALLDATASIZE SUB DUP2 ADD SWAP1 PUSH2 0x116 SWAP2 SWAP1 PUSH2 0x1B5B JUMP JUMPDEST PUSH2 0x3E8 JUMP JUMPDEST STOP JUMPDEST CALLVALUE DUP1 ISZERO PUSH2 0x128 JUMPI PUSH0 DUP1 REVERT JUMPDEST POP PUSH2 0x131 PUSH2 0xB55 JUMP JUMPDEST STOP JUMPDEST CALLVALUE DUP1 ISZERO PUSH2 0x13E JUMPI PUSH0 DUP1 REVERT JUMPDEST POP PUSH2 0x159 PUSH1 0x4 DUP1 CALLDATASIZE SUB DUP2 ADD SWAP1 PUSH2 0x154 SWAP2 SWAP1 PUSH2 0x1BE0 JUMP JUMPDEST PUSH2 0xDA2 JUMP JUMPDEST PUSH1 0x40 MLOAD PUSH2 0x166 SWAP2 SWAP1 PUSH2 0x1C2D JUMP JUMPDEST PUSH1 0x40 MLOAD DUP1 SWAP2 SUB SWAP1 RETURN JUMPDEST CALLVALUE DUP1 ISZERO PUSH2 0x17A JUMPI PUSH0 DUP1 REVERT JUMPDEST POP PUSH2 0x195 PUSH1 0x4 DUP1 CALLDATASIZE SUB DUP2 ADD SWAP1 PUSH2 0x190 SWAP2 SWAP1 PUSH2 0x1B5B JUMP JUMPDEST PUSH2 0xE45 JUMP JUMPDEST STOP JUMPDEST CALLVALUE DUP1 ISZERO PUSH2 0x1A2 JUMPI PUSH0 DUP1 REVERT JUMPDEST POP PUSH2 0x1BD PUSH1 0x4 DUP1 CALLDATASIZE SUB DUP2 ADD SWAP1 PUSH2 0x1B8 SWAP2 SWAP1 PUSH2 0x1B5B JUMP JUMPDEST PUSH2 0xFE1 JUMP JUMPDEST STOP JUMPDEST CALLVALUE DUP1 ISZERO PUSH2 0x1CA JUMPI PUSH0 DUP1 REVERT JUMPDEST POP PUSH2 0x1D3 PUSH2 0x10F4 JUMP JUMPDEST PUSH1 0x40 MLOAD PUSH2 0x1E0 SWAP2 SWAP1 PUSH2 0x1CA1 JUMP JUMPDEST PUSH1 0x40 MLOAD DUP1 SWAP2 SUB SWAP1 RETURN JUMPDEST CALLVALUE DUP1 ISZERO PUSH2 0x1F4 JUMPI PUSH0 DUP1 REVERT JUMPDEST POP PUSH2 0x1FD PUSH2 0x1118 JUMP JUMPDEST PUSH1 0x40 MLOAD PUSH2 0x20A SWAP2 SWAP1 PUSH2 0x1C2D JUMP JUMPDEST PUSH1 0x40 MLOAD DUP1 SWAP2 SUB SWAP1 RETURN JUMPDEST CALLVALUE DUP1 ISZERO PUSH2 0x21E JUMPI PUSH0 DUP1 REVERT JUMPDEST POP PUSH2 0x227 PUSH2 0x111D JUMP JUMPDEST PUSH1 0x40 MLOAD PUSH2 0x234 SWAP2 SWAP1 PUSH2 0x1CDA JUMP JUMPDEST PUSH1 0x40 MLOAD DUP1 SWAP2 SUB SWAP1 RETURN JUMPDEST CALLVALUE DUP1 ISZERO PUSH2 0x248 JUMPI PUSH0 DUP1 REVERT JUMPDEST POP PUSH2 0x263 PUSH1 0x4 DUP1 CALLDATASIZE SUB DUP2 ADD SWAP1 PUSH2 0x25E SWAP2 SWAP1 PUSH2 0x1D38 JUMP JUMPDEST PUSH2 0x1141 JUMP JUMPDEST STOP JUMPDEST CALLVALUE DUP1 ISZERO PUSH2 0x270 JUMPI PUSH0 DUP1 REVERT JUMPDEST POP PUSH2 0x28B PUSH1 0x4 DUP1 CALLDATASIZE SUB DUP2 ADD SWAP1 PUSH2 0x286 SWAP2 SWAP1 PUSH2 0x1B5B JUMP JUMPDEST PUSH2 0x1864 JUMP JUMPDEST PUSH1 0x40 MLOAD PUSH2 0x298 SWAP2 SWAP1 PUSH2 0x1D90 JUMP JUMPDEST PUSH1 0x40 MLOAD DUP1 SWAP2 SUB SWAP1 RETURN JUMPDEST CALLVALUE DUP1 ISZERO PUSH2 0x2AC JUMPI PUSH0 DUP1 REVERT JUMPDEST POP PUSH2 0x2B5 PUSH2 0x18A3 JUMP JUMPDEST PUSH1 0x40 MLOAD PUSH2 0x2C2 SWAP2 SWAP1 PUSH2 0x1C2D JUMP JUMPDEST PUSH1 0x40 MLOAD DUP1 SWAP2 SUB SWAP1 RETURN JUMPDEST CALLVALUE DUP1 ISZERO PUSH2 0x2D6 JUMPI PUSH0 DUP1 REVERT JUMPDEST POP PUSH2 0x2F1 PUSH1 0x4 DUP1 CALLDATASIZE SUB DUP2 ADD SWAP1 PUSH2 0x2EC SWAP2 SWAP1 PUSH2 0x1B5B JUMP JUMPDEST PUSH2 0x18A9 JUMP JUMPDEST PUSH1 0x40 MLOAD PUSH2 0x2FE SWAP2 SWAP1 PUSH2 0x1C2D JUMP JUMPDEST PUSH1 0x40 MLOAD DUP1 SWAP2 SUB SWAP1 RETURN JUMPDEST CALLVALUE DUP1 ISZERO PUSH2 0x312 JUMPI PUSH0 DUP1 REVERT JUMPDEST POP PUSH2 0x31B PUSH2 0x18C3 JUMP JUMPDEST PUSH1 0x40 MLOAD PUSH2 0x328 SWAP2 SWAP1 PUSH2 0x1DC9 JUMP JUMPDEST PUSH1 0x40 MLOAD DUP1 SWAP2 SUB SWAP1 RETURN JUMPDEST CALLVALUE DUP1 ISZERO PUSH2 0x33C JUMPI PUSH0 DUP1 REVERT JUMPDEST POP PUSH2 0x357 PUSH1 0x4 DUP1 CALLDATASIZE SUB DUP2 ADD SWAP1 PUSH2 0x352 SWAP2 SWAP1 PUSH2 0x1DE2 JUMP JUMPDEST PUSH2 0x18E7 JUMP JUMPDEST PUSH1 0x40 MLOAD PUSH2 0x364 SWAP2 SWAP1 PUSH2 0x1F35 JUMP JUMPDEST PUSH1 0x40 MLOAD DUP1 SWAP2 SUB SWAP1 RETURN JUMPDEST CALLVALUE DUP1 ISZERO PUSH2 0x378 JUMPI PUSH0 DUP1 REVERT JUMPDEST POP PUSH2 0x393 PUSH1 0x4 DUP1 CALLDATASIZE SUB DUP2 ADD SWAP1 PUSH2 0x38E SWAP2 SWAP1 PUSH2 0x1B5B JUMP JUMPDEST PUSH2 0x1A81 JUMP JUMPDEST PUSH1 0x40 MLOAD PUSH2 0x3A3 SWAP5 SWAP4 SWAP3 SWAP2 SWAP1 PUSH2 0x1F73 JUMP JUMPDEST PUSH1 0x40 MLOAD DUP1 SWAP2 SUB SWAP1 RETURN JUMPDEST CALLVALUE DUP1 ISZERO PUSH2 0x3B7 JUMPI PUSH0 DUP1 REVERT JUMPDEST POP PUSH2 0x3D2 PUSH1 0x4 DUP1 CALLDATASIZE SUB DUP2 ADD SWAP1 PUSH2 0x3CD SWAP2 SWAP1 PUSH2 0x1DE2 JUMP JUMPDEST PUSH2 0x1B0F JUMP JUMPDEST PUSH1 0x40 MLOAD PUSH2 0x3DF SWAP2 SWAP1 PUSH2 0x1C2D JUMP JUMPDEST PUSH1 0x40 MLOAD DUP1 SWAP2 SUB SWAP1 RETURN JUMPDEST PUSH0 PUSH1 0x1 PUSH0 DUP4 DUP2 MSTORE PUSH1 0x20 ADD SWAP1 DUP2 MSTORE PUSH1 0x20 ADD PUSH0 KECCAK256 SWAP1 POP DUP1 PUSH1 0x2 ADD PUSH0 SWAP1 SLOAD SWAP1 PUSH2 0x100 EXP SWAP1 DIV PUSH1 0xFF AND PUSH2 0x44C JUMPI PUSH1 0x40 MLOAD PUSH32 0x8C379A000000000000000000000000000000000000000000000000000000000 DUP2 MSTORE PUSH1 0x4 ADD PUSH2 0x443 SWAP1 PUSH2 0x2010 JUMP JUMPDEST PUSH1 0x40 MLOAD DUP1 SWAP2 SUB SWAP1 REVERT JUMPDEST DUP1 PUSH1 0x1 ADD PUSH1 0x10 SWAP1 SLOAD SWAP1 PUSH2 0x100 EXP SWAP1 DIV PUSH16 0xFFFFFFFFFFFFFFFFFFFFFFFFFFFFFFFF AND PUSH16 0xFFFFFFFFFFFFFFFFFFFFFFFFFFFFFFFF AND CALLVALUE LT ISZERO PUSH2 0x4C1 JUMPI PUSH1 0x40 MLOAD PUSH32 0x8C379A000000000000000000000000000000000000000000000000000000000 DUP2 MSTORE PUSH1 0x4 ADD PUSH2 0x4B8 SWAP1 PUSH2 0x2078 JUMP JUMPDEST PUSH1 0x40 MLOAD DUP1 SWAP2 SUB SWAP1 REVERT JUMPDEST DUP1 PUSH0 ADD PUSH0 SWAP1 SLOAD SWAP1 PUSH2 0x100 EXP SWAP1 DIV PUSH20 0xFFFFFFFFFFFFFFFFFFFFFFFFFFFFFFFFFFFFFFFF AND PUSH20 0xFFFFFFFFFFFFFFFFFFFFFFFFFFFFFFFFFFFFFFFF AND CALLER PUSH20 0xFFFFFFFFFFFFFFFFFFFFFFFFFFFFFFFFFFFFFFFF AND SUB PUSH2 0x551 JUMPI PUSH1 0x40 MLOAD PUSH32 0x8C379A000000000000000000000000000000000000000000000000000000000 DUP2 MSTORE PUSH1 0x4 ADD PUSH2 0x548 SWAP1 PUSH2 0x20E0 JUMP JUMPDEST PUSH1 0x40 MLOAD DUP1 SWAP2 SUB SWAP1 REVERT JUMPDEST PUSH0 PUSH2 0x2710 PUSH0 SLOAD CALLVALUE PUSH2 0x562 SWAP2 SWAP1 PUSH2 0x212B JUMP JUMPDEST PUSH2 0x56C SWAP2 SWAP1 PUSH2 0x2199 JUMP JUMPDEST SWAP1 POP PUSH0 DUP2 CALLVALUE PUSH2 0x57B SWAP2 SWAP1 PUSH2 0x21C9 JUMP JUMPDEST SWAP1 POP DUP3 PUSH0 ADD PUSH0 SWAP1 SLOAD SWAP1 PUSH2 0x100 EXP SWAP1 DIV PUSH20 0xFFFFFFFFFFFFFFFFFFFFFFFFFFFFFFFFFFFFFFFF AND PUSH20 0xFFFFFFFFFFFFFFFFFFFFFFFFFFFFFFFFFFFFFFFF AND PUSH32 0x0 PUSH20 0xFFFFFFFFFFFFFFFFFFFFFFFFFFFFFFFFFFFFFFFF AND PUSH4 0x6352211E DUP6 PUSH1 0x1 ADD PUSH0 SWAP1 SLOAD SWAP1 PUSH2 0x100 EXP SWAP1 DIV PUSH16 0xFFFFFFFFFFFFFFFFFFFFFFFFFFFFFFFF AND PUSH1 0x40 MLOAD DUP3 PUSH4 0xFFFFFFFF AND PUSH1 0xE0 SHL DUP2 MSTORE PUSH1 0x4 ADD PUSH2 0x62E SWAP2 SWAP1 PUSH2 0x222C JUMP JUMPDEST PUSH1 0x20 PUSH1 0x40 MLOAD DUP1 DUP4 SUB DUP2 DUP7 GAS STATICCALL ISZERO DUP1 ISZERO PUSH2 0x649 JUMPI RETURNDATASIZE PUSH0 DUP1 RETURNDATACOPY RETURNDATASIZE PUSH0 REVERT JUMPDEST POP POP POP POP PUSH1 0x40 MLOAD RETURNDATASIZE PUSH1 0x1F NOT PUSH1 0x1F DUP3 ADD AND DUP3 ADD DUP1 PUSH1 0x40 MSTORE POP DUP2 ADD SWAP1 PUSH2 0x66D SWAP2 SWAP1 PUSH2 0x2259 JUMP JUMPDEST PUSH20 0xFFFFFFFFFFFFFFFFFFFFFFFFFFFFFFFFFFFFFFFF AND EQ PUSH2 0x6C3 JUMPI PUSH1 0x40 MLOAD PUSH32 0x8C379A000000000000000000000000000000000000000000000000000000000 DUP2 MSTORE PUSH1 0x4 ADD PUSH2 0x6BA SWAP1 PUSH2 0x22CE JUMP JUMPDEST PUSH1 0x40 MLOAD DUP1 SWAP2 SUB SWAP1 REVERT JUMPDEST PUSH32 0x0 PUSH20 0xFFFFFFFFFFFFFFFFFFFFFFFFFFFFFFFFFFFFFFFF AND PUSH4 0xE985E9C5 DUP5 PUSH0 ADD PUSH0 SWAP1 SLOAD SWAP1 PUSH2 0x100 EXP SWAP1 DIV PUSH20 0xFFFFFFFFFFFFFFFFFFFFFFFFFFFFFFFFFFFFFFFF AND ADDRESS PUSH1 0x40 MLOAD DUP4 PUSH4 0xFFFFFFFF AND PUSH1 0xE0 SHL DUP2 MSTORE PUSH1 0x4 ADD PUSH2 0x740 SWAP3 SWAP2 SWAP1 PUSH2 0x22EC JUMP JUMPDEST PUSH1 0x20 PUSH1 0x40 MLOAD DUP1 DUP4 SUB DUP2 DUP7 GAS STATICCALL ISZERO DUP1 ISZERO PUSH2 0x75B JUMPI RETURNDATASIZE PUSH0 DUP1 RETURNDATACOPY RETURNDATASIZE PUSH0 REVERT JUMPDEST POP POP POP POP PUSH1 0x40 MLOAD RETURNDATASIZE PUSH1 0x1F NOT PUSH1 0x1F DUP3 ADD AND DUP3 ADD DUP1 PUSH1 0x40 MSTORE POP DUP2 ADD SWAP1 PUSH2 0x77F SWAP2 SWAP1 PUSH2 0x233D JUMP JUMPDEST DUP1 PUSH2 0x86B JUMPI POP ADDRESS PUSH20 0xFFFFFFFFFFFFFFFFFFFFFFFFFFFFFFFFFFFFFFFF AND PUSH32 0x0 PUSH20 0xFFFFFFFFFFFFFFFFFFFFFFFFFFFFFFFFFFFFFFFF AND PUSH4 0x81812FC DUP6 PUSH1 0x1 ADD PUSH0 SWAP1 SLOAD SWAP1 PUSH2 0x100 EXP SWAP1 DIV PUSH16 0xFFFFFFFFFFFFFFFFFFFFFFFFFFFFFFFF AND PUSH1 0x40 MLOAD DUP3 PUSH4 0xFFFFFFFF AND PUSH1 0xE0 SHL DUP2 MSTORE PUSH1 0x4 ADD PUSH2 0x814 SWAP2 SWAP1 PUSH2 0x222C JUMP JUMPDEST PUSH1 0x20 PUSH1 0x40 MLOAD DUP1 DUP4 SUB DUP2 DUP7 GAS STATICCALL ISZERO DUP1 ISZERO PUSH2 0x82F JUMPI RETURNDATASIZE PUSH0 DUP1 RETURNDATACOPY RETURNDATASIZE PUSH0 REVERT JUMPDEST POP POP POP POP PUSH1 0x40 MLOAD RETURNDATASIZE PUSH1 0x1F NOT PUSH1 0x1F DUP3 ADD AND DUP3 ADD DUP1 PUSH1 0x40 MSTORE POP DUP2 ADD SWAP1 PUSH2 0x853 SWAP2 SWAP1 PUSH2 0x2259 JUMP JUMPDEST PUSH20 0xFFFFFFFFFFFFFFFFFFFFFFFFFFFFFFFFFFFFFFFF AND EQ JUMPDEST PUSH2 0x8AA JUMPI PUSH1 0x40 MLOAD PUSH32 0x8C379A000000000000000000000000000000000000000000000000000000000 DUP2 MSTORE PUSH1 0x4 ADD PUSH2 0x8A1 SWAP1 PUSH2 0x23B2 JUMP JUMPDEST PUSH1 0x40 MLOAD DUP1 SWAP2 SUB SWAP1 REVERT JUMPDEST PUSH0 DUP4 PUSH1 0x2 ADD PUSH0 PUSH2 0x100 EXP DUP2 SLOAD DUP2 PUSH1 0xFF MUL NOT AND SWAP1 DUP4 ISZERO ISZERO MUL OR SWAP1 SSTORE POP PUSH1 0x2 PUSH0 DUP5 PUSH1 0x1 ADD PUSH0 SWAP1 SLOAD SWAP1 PUSH2 0x100 EXP SWAP1 DIV PUSH16 0xFFFFFFFFFFFFFFFFFFFFFFFFFFFFFFFF AND PUSH16 0xFFFFFFFFFFFFFFFFFFFFFFFFFFFFFFFF AND DUP2 MSTORE PUSH1 0x20 ADD SWAP1 DUP2 MSTORE PUSH1 0x20 ADD PUSH0 KECCAK256 PUSH0 SWAP1 SSTORE DUP2 PUSH1 0x3 PUSH0 PUSH32 0x0 PUSH20 0xFFFFFFFFFFFFFFFFFFFFFFFFFFFFFFFFFFFFFFFF AND PUSH20 0xFFFFFFFFFFFFFFFFFFFFFFFFFFFFFFFFFFFFFFFF AND DUP2 MSTORE PUSH1 0x20 ADD SWAP1 DUP2 MSTORE PUSH1 0x20 ADD PUSH0 KECCAK256 PUSH0 DUP3 DUP3 SLOAD PUSH2 0x976 SWAP2 SWAP1 PUSH2 0x23D0 JUMP JUMPDEST SWAP3 POP POP DUP2 SWAP1 SSTORE POP DUP1 PUSH1 0x3 PUSH0 DUP6 PUSH0 ADD PUSH0 SWAP1 SLOAD SWAP1 PUSH2 0x100 EXP SWAP1 DIV PUSH20 0xFFFFFFFFFFFFFFFFFFFFFFFFFFFFFFFFFFFFFFFF AND PUSH20 0xFFFFFFFFFFFFFFFFFFFFFFFFFFFFFFFFFFFFFFFF AND PUSH20 0xFFFFFFFFFFFFFFFFFFFFFFFFFFFFFFFFFFFFFFFF AND DUP2 MSTORE PUSH1 0x20 ADD SWAP1 DUP2 MSTORE PUSH1 0x20 ADD PUSH0 KECCAK256 PUSH0 DUP3 DUP3 SLOAD PUSH2 0x9EB SWAP2 SWAP1 PUSH2 0x23D0 JUMP JUMPDEST SWAP3 POP POP DUP2 SWAP1 SSTORE POP PUSH32 0x0 PUSH20 0xFFFFFFFFFFFFFFFFFFFFFFFFFFFFFFFFFFFFFFFF AND PUSH4 0x42842E0E DUP5 PUSH0 ADD PUSH0 SWAP1 SLOAD SWAP1 PUSH2 0x100 EXP SWAP1 DIV PUSH20 0xFFFFFFFFFFFFFFFFFFFFFFFFFFFFFFFFFFFFFFFF AND CALLER DUP7 PUSH1 0x1 ADD PUSH0 SWAP1 SLOAD SWAP1 PUSH2 0x100 EXP SWAP1 DIV PUSH16 0xFFFFFFFFFFFFFFFFFFFFFFFFFFFFFFFF AND PUSH1 0x40 MLOAD DUP5 PUSH4 0xFFFFFFFF AND PUSH1 0xE0 SHL DUP2 MSTORE PUSH1 0x4 ADD PUSH2 0xA90 SWAP4 SWAP3 SWAP2 SWAP1 PUSH2 0x2403 JUMP JUMPDEST PUSH0 PUSH1 0x40 MLOAD DUP1 DUP4 SUB DUP2 PUSH0 DUP8 DUP1 EXTCODESIZE ISZERO DUP1 ISZERO PUSH2 0xAA7 JUMPI PUSH0 DUP1 REVERT JUMPDEST POP GAS CALL ISZERO DUP1 ISZERO PUSH2 0xAB9 JUMPI RETURNDATASIZE PUSH0 DUP1 RETURNDATACOPY RETURNDATASIZE PUSH0 REVERT JUMPDEST POP POP POP POP CALLER PUSH20 0xFFFFFFFFFFFFFFFFFFFFFFFFFFFFFFFFFFFFFFFF AND DUP5 PUSH32 0xE29B93709A7AC5E91A6057482D1DF985483725988417E08DEC23377234003C80 DUP6 PUSH1 0x1 ADD PUSH0 SWAP1 SLOAD SWAP1 PUSH2 0x100 EXP SWAP1 DIV PUSH16 0xFFFFFFFFFFFFFFFFFFFFFFFFFFFFFFFF AND DUP7 PUSH1 0x1 ADD PUSH1 0x10 SWAP1 SLOAD SWAP1 PUSH2 0x100 EXP SWAP1 DIV PUSH16 0xFFFFFFFFFFFFFFFFFFFFFFFFFFFFFFFF AND TIMESTAMP PUSH1 0x40 MLOAD PUSH2 0xB47 SWAP4 SWAP3 SWAP2 SWAP1 PUSH2 0x2438 JUMP JUMPDEST PUSH1 0x40 MLOAD DUP1 SWAP2 SUB SWAP1 LOG3 POP POP POP POP JUMP JUMPDEST PUSH32 0x0 PUSH20 0xFFFFFFFFFFFFFFFFFFFFFFFFFFFFFFFFFFFFFFFF AND CALLER PUSH20 0xFFFFFFFFFFFFFFFFFFFFFFFFFFFFFFFFFFFFFFFF AND EQ PUSH2 0xBE3 JUMPI PUSH1 0x40 MLOAD PUSH32 0x8C379A000000000000000000000000000000000000000000000000000000000 DUP2 MSTORE PUSH1 0x4 ADD PUSH2 0xBDA SWAP1 PUSH2 0x24B7 JUMP JUMPDEST PUSH1 0x40 MLOAD DUP1 SWAP2 SUB SWAP1 REVERT JUMPDEST PUSH0 PUSH1 0x3 PUSH0 CALLER PUSH20 0xFFFFFFFFFFFFFFFFFFFFFFFFFFFFFFFFFFFFFFFF AND PUSH20 0xFFFFFFFFFFFFFFFFFFFFFFFFFFFFFFFFFFFFFFFF AND DUP2 MSTORE PUSH1 0x20 ADD SWAP1 DUP2 MSTORE PUSH1 0x20 ADD PUSH0 KECCAK256 SLOAD SWAP1 POP PUSH0 DUP2 GT PUSH2 0xC66 JUMPI PUSH1 0x40 MLOAD PUSH32 0x8C379A000000000000000000000000000000000000000000000000000000000 DUP2 MSTORE PUSH1 0x4 ADD PUSH2 0xC5D SWAP1 PUSH2 0x251F JUMP JUMPDEST PUSH1 0x40 MLOAD DUP1 SWAP2 SUB SWAP1 REVERT JUMPDEST PUSH0 PUSH1 0x3 PUSH0 CALLER PUSH20 0xFFFFFFFFFFFFFFFFFFFFFFFFFFFFFFFFFFFFFFFF AND PUSH20 0xFFFFFFFFFFFFFFFFFFFFFFFFFFFFFFFFFFFFFFFF AND DUP2 MSTORE PUSH1 0x20 ADD SWAP1 DUP2 MSTORE PUSH1 0x20 ADD PUSH0 KECCAK256 DUP2 SWAP1 SSTORE POP PUSH0 CALLER PUSH20 0xFFFFFFFFFFFFFFFFFFFFFFFFFFFFFFFFFFFFFFFF AND DUP3 PUSH1 0x40 MLOAD PUSH2 0xCCD SWAP1 PUSH2 0x256A JUMP JUMPDEST PUSH0 PUSH1 0x40 MLOAD DUP1 DUP4 SUB DUP2 DUP6 DUP8 GAS CALL SWAP3 POP POP POP RETURNDATASIZE DUP1 PUSH0 DUP2 EQ PUSH2 0xD07 JUMPI PUSH1 0x40 MLOAD SWAP2 POP PUSH1 0x1F NOT PUSH1 0x3F RETURNDATASIZE ADD AND DUP3 ADD PUSH1 0x40 MSTORE RETURNDATASIZE DUP3 MSTORE RETURNDATASIZE PUSH0 PUSH1 0x20 DUP5 ADD RETURNDATACOPY PUSH2 0xD0C JUMP JUMPDEST PUSH1 0x60 SWAP2 POP JUMPDEST POP POP SWAP1 POP DUP1 PUSH2 0xD50 JUMPI PUSH1 0x40 MLOAD PUSH32 0x8C379A000000000000000000000000000000000000000000000000000000000 DUP2 MSTORE PUSH1 0x4 ADD PUSH2 0xD47 SWAP1 PUSH2 0x25C8 JUMP JUMPDEST PUSH1 0x40 MLOAD DUP1 SWAP2 SUB SWAP1 REVERT JUMPDEST CALLER PUSH20 0xFFFFFFFFFFFFFFFFFFFFFFFFFFFFFFFFFFFFFFFF AND PUSH32 0x6141B54B56B8A52A8C6F5CD2A857F6117B18FFBF4D46BD3106F300A839CBF5EA DUP4 PUSH1 0x40 MLOAD PUSH2 0xD96 SWAP2 SWAP1 PUSH2 0x1C2D JUMP JUMPDEST PUSH1 0x40 MLOAD DUP1 SWAP2 SUB SWAP1 LOG2 POP POP JUMP JUMPDEST PUSH0 PUSH32 0x0 PUSH20 0xFFFFFFFFFFFFFFFFFFFFFFFFFFFFFFFFFFFFFFFF AND PUSH4 0x2F745C59 DUP5 DUP5 PUSH1 0x40 MLOAD DUP4 PUSH4 0xFFFFFFFF AND PUSH1 0xE0 SHL DUP2 MSTORE PUSH1 0x4 ADD PUSH2 0xDFE SWAP3 SWAP2 SWAP1 PUSH2 0x25E6 JUMP JUMPDEST PUSH1 0x20 PUSH1 0x40 MLOAD DUP1 DUP4 SUB DUP2 DUP7 GAS STATICCALL ISZERO DUP1 ISZERO PUSH2 0xE19 JUMPI RETURNDATASIZE PUSH0 DUP1 RETURNDATACOPY RETURNDATASIZE PUSH0 REVERT JUMPDEST POP POP POP POP PUSH1 0x40 MLOAD RETURNDATASIZE PUSH1 0x1F NOT PUSH1 0x1F DUP3 ADD AND DUP3 ADD DUP1 PUSH1 0x40 MSTORE POP DUP2 ADD SWAP1 PUSH2 0xE3D SWAP2 SWAP1 PUSH2 0x2621 JUMP JUMPDEST SWAP1 POP SWAP3 SWAP2 POP POP JUMP JUMPDEST PUSH0 PUSH1 0x1 PUSH0 DUP4 DUP2 MSTORE PUSH1 0x20 ADD SWAP1 DUP2 MSTORE PUSH1 0x20 ADD PUSH0 KECCAK256 SWAP1 POP DUP1 PUSH1 0x2 ADD PUSH0 SWAP1 SLOAD SWAP1 PUSH2 0x100 EXP SWAP1 DIV PUSH1 0xFF AND PUSH2 0xEA9 JUMPI PUSH1 0x40 MLOAD PUSH32 0x8C379A000000000000000000000000000000000000000000000000000000000 DUP2 MSTORE PUSH1 0x4 ADD PUSH2 0xEA0 SWAP1 PUSH2 0x2010 JUMP JUMPDEST PUSH1 0x40 MLOAD DUP1 SWAP2 SUB SWAP1 REVERT JUMPDEST CALLER PUSH20 0xFFFFFFFFFFFFFFFFFFFFFFFFFFFFFFFFFFFFFFFF AND DUP2 PUSH0 ADD PUSH0 SWAP1 SLOAD SWAP1 PUSH2 0x100 EXP SWAP1 DIV PUSH20 0xFFFFFFFFFFFFFFFFFFFFFFFFFFFFFFFFFFFFFFFF AND PUSH20 0xFFFFFFFFFFFFFFFFFFFFFFFFFFFFFFFFFFFFFFFF AND EQ PUSH2 0xF39 JUMPI PUSH1 0x40 MLOAD PUSH32 0x8C379A000000000000000000000000000000000000000000000000000000000 DUP2 MSTORE PUSH1 0x4 ADD PUSH2 0xF30 SWAP1 PUSH2 0x2696 JUMP JUMPDEST PUSH1 0x40 MLOAD DUP1 SWAP2 SUB SWAP1 REVERT JUMPDEST PUSH0 DUP2 PUSH1 0x2 ADD PUSH0 PUSH2 0x100 EXP DUP2 SLOAD DUP2 PUSH1 0xFF MUL NOT AND SWAP1 DUP4 ISZERO ISZERO MUL OR SWAP1 SSTORE POP PUSH1 0x2 PUSH0 DUP3 PUSH1 0x1 ADD PUSH0 SWAP1 SLOAD SWAP1 PUSH2 0x100 EXP SWAP1 DIV PUSH16 0xFFFFFFFFFFFFFFFFFFFFFFFFFFFFFFFF AND PUSH16 0xFFFFFFFFFFFFFFFFFFFFFFFFFFFFFFFF AND DUP2 MSTORE PUSH1 0x20 ADD SWAP1 DUP2 MSTORE PUSH1 0x20 ADD PUSH0 KECCAK256 PUSH0 SWAP1 SSTORE CALLER PUSH20 0xFFFFFFFFFFFFFFFFFFFFFFFFFFFFFFFFFFFFFFFF AND DUP3 PUSH32 0x8E25282255AB31897DF2B0456BB993AC7F84D376861AEFD84901D2D63A7428A2 PUSH1 0x40 MLOAD PUSH1 0x40 MLOAD DUP1 SWAP2 SUB SWAP1 LOG3 POP POP JUMP JUMPDEST PUSH32 0x0 PUSH20 0xFFFFFFFFFFFFFFFFFFFFFFFFFFFFFFFFFFFFFFFF AND CALLER PUSH20 0xFFFFFFFFFFFFFFFFFFFFFFFFFFFFFFFFFFFFFFFF AND EQ PUSH2 0x106F JUMPI PUSH1 0x40 MLOAD PUSH32 0x8C379A000000000000000000000000000000000000000000000000000000000 DUP2 MSTORE PUSH1 0x4 ADD PUSH2 0x1066 SWAP1 PUSH2 0x24B7 JUMP JUMPDEST PUSH1 0x40 MLOAD DUP1 SWAP2 SUB SWAP1 REVERT JUMPDEST PUSH2 0x1388 DUP2 GT ISZERO PUSH2 0x10B4 JUMPI PUSH1 0x40 MLOAD PUSH32 0x8C379A000000000000000000000000000000000000000000000000000000000 DUP2 MSTORE PUSH1 0x4 ADD PUSH2 0x10AB SWAP1 PUSH2 0x26FE JUMP JUMPDEST PUSH1 0x40 MLOAD DUP1 SWAP2 SUB SWAP1 REVERT JUMPDEST DUP1 PUSH0 DUP2 SWAP1 SSTORE POP PUSH32 0x13F60DD2B588490608C3FF1932A3DAEB4087F3D5AF04B97E5C2A16B5B4C0302E DUP2 PUSH1 0x40 MLOAD PUSH2 0x10E9 SWAP2 SWAP1 PUSH2 0x1C2D JUMP JUMPDEST PUSH1 0x40 MLOAD DUP1 SWAP2 SUB SWAP1 LOG1 POP JUMP JUMPDEST PUSH32 0x0 DUP2 JUMP JUMPDEST PUSH0 SLOAD DUP2 JUMP JUMPDEST PUSH32 0x0 DUP2 JUMP JUMPDEST PUSH0 DUP2 PUSH16 0xFFFFFFFFFFFFFFFFFFFFFFFFFFFFFFFF AND GT PUSH2 0x1195 JUMPI PUSH1 0x40 MLOAD PUSH32 0x8C379A000000000000000000000000000000000000000000000000000000000 DUP2 MSTORE PUSH1 0x4 ADD PUSH2 0x118C SWAP1 PUSH2 0x2766 JUMP JUMPDEST PUSH1 0x40 MLOAD DUP1 SWAP2 SUB SWAP1 REVERT JUMPDEST PUSH0 PUSH32 0x0 PUSH20 0xFFFFFFFFFFFFFFFFFFFFFFFFFFFFFFFFFFFFFFFF AND PUSH4 0x6352211E DUP5 PUSH1 0x40 MLOAD DUP3 PUSH4 0xFFFFFFFF AND PUSH1 0xE0 SHL DUP2 MSTORE PUSH1 0x4 ADD PUSH2 0x11EF SWAP2 SWAP1 PUSH2 0x222C JUMP JUMPDEST PUSH1 0x20 PUSH1 0x40 MLOAD DUP1 DUP4 SUB DUP2 DUP7 GAS STATICCALL ISZERO DUP1 ISZERO PUSH2 0x120A JUMPI RETURNDATASIZE PUSH0 DUP1 RETURNDATACOPY RETURNDATASIZE PUSH0 REVERT JUMPDEST POP POP POP POP PUSH1 0x40 MLOAD RETURNDATASIZE PUSH1 0x1F NOT PUSH1 0x1F DUP3 ADD AND DUP3 ADD DUP1 PUSH1 0x40 MSTORE POP DUP2 ADD SWAP1 PUSH2 0x122E SWAP2 SWAP1 PUSH2 0x2259 JUMP JUMPDEST SWAP1 POP CALLER PUSH20 0xFFFFFFFFFFFFFFFFFFFFFFFFFFFFFFFFFFFFFFFF AND DUP2 PUSH20 0xFFFFFFFFFFFFFFFFFFFFFFFFFFFFFFFFFFFFFFFF AND EQ PUSH2 0x129E JUMPI PUSH1 0x40 MLOAD PUSH32 0x8C379A000000000000000000000000000000000000000000000000000000000 DUP2 MSTORE PUSH1 0x4 ADD PUSH2 0x1295 SWAP1 PUSH2 0x27CE JUMP JUMPDEST PUSH1 0x40 MLOAD DUP1 SWAP2 SUB SWAP1 REVERT JUMPDEST PUSH32 0x0 PUSH20 0xFFFFFFFFFFFFFFFFFFFFFFFFFFFFFFFFFFFFFFFF AND PUSH4 0xE985E9C5 CALLER ADDRESS PUSH1 0x40 MLOAD DUP4 PUSH4 0xFFFFFFFF AND PUSH1 0xE0 SHL DUP2 MSTORE PUSH1 0x4 ADD PUSH2 0x12F9 SWAP3 SWAP2 SWAP1 PUSH2 0x22EC JUMP JUMPDEST PUSH1 0x20 PUSH1 0x40 MLOAD DUP1 DUP4 SUB DUP2 DUP7 GAS STATICCALL ISZERO DUP1 ISZERO PUSH2 0x1314 JUMPI RETURNDATASIZE PUSH0 DUP1 RETURNDATACOPY RETURNDATASIZE PUSH0 REVERT JUMPDEST POP POP POP POP PUSH1 0x40 MLOAD RETURNDATASIZE PUSH1 0x1F NOT PUSH1 0x1F DUP3 ADD AND DUP3 ADD DUP1 PUSH1 0x40 MSTORE POP DUP2 ADD SWAP1 PUSH2 0x1338 SWAP2 SWAP1 PUSH2 0x233D JUMP JUMPDEST DUP1 PUSH2 0x1405 JUMPI POP ADDRESS PUSH20 0xFFFFFFFFFFFFFFFFFFFFFFFFFFFFFFFFFFFFFFFF AND PUSH32 0x0 PUSH20 0xFFFFFFFFFFFFFFFFFFFFFFFFFFFFFFFFFFFFFFFF AND PUSH4 0x81812FC DUP6 PUSH1 0x40 MLOAD DUP3 PUSH4 0xFFFFFFFF AND PUSH1 0xE0 SHL DUP2 MSTORE PUSH1 0x4 ADD PUSH2 0x13AE SWAP2 SWAP1 PUSH2 0x222C JUMP JUMPDEST PUSH1 0x20 PUSH1 0x40 MLOAD DUP1 DUP4 SUB DUP2 DUP7 GAS STATICCALL ISZERO DUP1 ISZERO PUSH2 0x13C9 JUMPI RETURNDATASIZE PUSH0 DUP1 RETURNDATACOPY RETURNDATASIZE PUSH0 REVERT JUMPDEST POP POP POP POP PUSH1 0x40 MLOAD RETURNDATASIZE PUSH1 0x1F NOT PUSH1 0x1F DUP3 ADD AND DUP3 ADD DUP1 PUSH1 0x40 MSTORE POP DUP2 ADD SWAP1 PUSH2 0x13ED SWAP2 SWAP1 PUSH2 0x2259 JUMP JUMPDEST PUSH20 0xFFFFFFFFFFFFFFFFFFFFFFFFFFFFFFFFFFFFFFFF AND EQ JUMPDEST PUSH2 0x1444 JUMPI PUSH1 0x40 MLOAD PUSH32 0x8C379A000000000000000000000000000000000000000000000000000000000 DUP2 MSTORE PUSH1 0x4 ADD PUSH2 0x143B SWAP1 PUSH2 0x23B2 JUMP JUMPDEST PUSH1 0x40 MLOAD DUP1 SWAP2 SUB SWAP1 REVERT JUMPDEST PUSH0 PUSH1 0x2 PUSH0 DUP6 PUSH16 0xFFFFFFFFFFFFFFFFFFFFFFFFFFFFFFFF AND DUP2 MSTORE PUSH1 0x20 ADD SWAP1 DUP2 MSTORE PUSH1 0x20 ADD PUSH0 KECCAK256 SLOAD EQ PUSH2 0x14A9 JUMPI PUSH1 0x40 MLOAD PUSH32 0x8C379A000000000000000000000000000000000000000000000000000000000 DUP2 MSTORE PUSH1 0x4 ADD PUSH2 0x14A0 SWAP1 PUSH2 0x2836 JUMP JUMPDEST PUSH1 0x40 MLOAD DUP1 SWAP2 SUB SWAP1 REVERT JUMPDEST PUSH0 DUP4 CALLER TIMESTAMP PUSH1 0x40 MLOAD PUSH1 0x20 ADD PUSH2 0x14BF SWAP4 SWAP3 SWAP2 SWAP1 PUSH2 0x28ED JUMP JUMPDEST PUSH1 0x40 MLOAD PUSH1 0x20 DUP2 DUP4 SUB SUB DUP2 MSTORE SWAP1 PUSH1 0x40 MSTORE DUP1 MLOAD SWAP1 PUSH1 0x20 ADD KECCAK256 PUSH0 SHR SWAP1 POP PUSH1 0x40 MLOAD DUP1 PUSH1 0x80 ADD PUSH1 0x40 MSTORE DUP1 CALLER PUSH20 0xFFFFFFFFFFFFFFFFFFFFFFFFFFFFFFFFFFFFFFFF AND DUP2 MSTORE PUSH1 0x20 ADD DUP6 PUSH16 0xFFFFFFFFFFFFFFFFFFFFFFFFFFFFFFFF AND DUP2 MSTORE PUSH1 0x20 ADD DUP5 PUSH16 0xFFFFFFFFFFFFFFFFFFFFFFFFFFFFFFFF AND DUP2 MSTORE PUSH1 0x20 ADD PUSH1 0x1 ISZERO ISZERO DUP2 MSTORE POP PUSH1 0x1 PUSH0 DUP4 DUP2 MSTORE PUSH1 0x20 ADD SWAP1 DUP2 MSTORE PUSH1 0x20 ADD PUSH0 KECCAK256 PUSH0 DUP3 ADD MLOAD DUP2 PUSH0 ADD PUSH0 PUSH2 0x100 EXP DUP2 SLOAD DUP2 PUSH20 0xFFFFFFFFFFFFFFFFFFFFFFFFFFFFFFFFFFFFFFFF MUL NOT AND SWAP1 DUP4 PUSH20 0xFFFFFFFFFFFFFFFFFFFFFFFFFFFFFFFFFFFFFFFF AND MUL OR SWAP1 SSTORE POP PUSH1 0x20 DUP3 ADD MLOAD DUP2 PUSH1 0x1 ADD PUSH0 PUSH2 0x100 EXP DUP2 SLOAD DUP2 PUSH16 0xFFFFFFFFFFFFFFFFFFFFFFFFFFFFFFFF MUL NOT AND SWAP1 DUP4 PUSH16 0xFFFFFFFFFFFFFFFFFFFFFFFFFFFFFFFF AND MUL OR SWAP1 SSTORE POP PUSH1 0x40 DUP3 ADD MLOAD DUP2 PUSH1 0x1 ADD PUSH1 0x10 PUSH2 0x100 EXP DUP2 SLOAD DUP2 PUSH16 0xFFFFFFFFFFFFFFFFFFFFFFFFFFFFFFFF MUL NOT AND SWAP1 DUP4 PUSH16 0xFFFFFFFFFFFFFFFFFFFFFFFFFFFFFFFF AND MUL OR SWAP1 SSTORE POP PUSH1 0x60 DUP3 ADD MLOAD DUP2 PUSH1 0x2 ADD PUSH0 PUSH2 0x100 EXP DUP2 SLOAD DUP2 PUSH1 0xFF MUL NOT AND SWAP1 DUP4 ISZERO ISZERO MUL OR SWAP1 SSTORE POP SWAP1 POP POP DUP1 PUSH1 0x2 PUSH0 DUP7 PUSH16 0xFFFFFFFFFFFFFFFFFFFFFFFFFFFFFFFF AND DUP2 MSTORE PUSH1 0x20 ADD SWAP1 DUP2 MSTORE PUSH1 0x20 ADD PUSH0 KECCAK256 DUP2 SWAP1 SSTORE POP PUSH1 0x4 PUSH0 CALLER PUSH20 0xFFFFFFFFFFFFFFFFFFFFFFFFFFFFFFFFFFFFFFFF AND PUSH20 0xFFFFFFFFFFFFFFFFFFFFFFFFFFFFFFFFFFFFFFFF AND DUP2 MSTORE PUSH1 0x20 ADD SWAP1 DUP2 MSTORE PUSH1 0x20 ADD PUSH0 KECCAK256 PUSH1 0x1 PUSH0 DUP4 DUP2 MSTORE PUSH1 0x20 ADD SWAP1 DUP2 MSTORE PUSH1 0x20 ADD PUSH0 KECCAK256 SWAP1 DUP1 PUSH1 0x1 DUP2 SLOAD ADD DUP1 DUP3 SSTORE DUP1 SWAP2 POP POP PUSH1 0x1 SWAP1 SUB SWAP1 PUSH0 MSTORE PUSH1 0x20 PUSH0 KECCAK256 SWAP1 PUSH1 0x3 MUL ADD PUSH0 SWAP1 SWAP2 SWAP1 SWAP2 SWAP1 SWAP2 POP PUSH0 DUP3 ADD PUSH0 SWAP1 SLOAD SWAP1 PUSH2 0x100 EXP SWAP1 DIV PUSH20 0xFFFFFFFFFFFFFFFFFFFFFFFFFFFFFFFFFFFFFFFF AND DUP2 PUSH0 ADD PUSH0 PUSH2 0x100 EXP DUP2 SLOAD DUP2 PUSH20 0xFFFFFFFFFFFFFFFFFFFFFFFFFFFFFFFFFFFFFFFF MUL NOT AND SWAP1 DUP4 PUSH20 0xFFFFFFFFFFFFFFFFFFFFFFFFFFFFFFFFFFFFFFFF AND MUL OR SWAP1 SSTORE POP PUSH1 0x1 DUP3 ADD PUSH0 SWAP1 SLOAD SWAP1 PUSH2 0x100 EXP SWAP1 DIV PUSH16 0xFFFFFFFFFFFFFFFFFFFFFFFFFFFFFFFF AND DUP2 PUSH1 0x1 ADD PUSH0 PUSH2 0x100 EXP DUP2 SLOAD DUP2 PUSH16 0xFFFFFFFFFFFFFFFFFFFFFFFFFFFFFFFF MUL NOT AND SWAP1 DUP4 PUSH16 0xFFFFFFFFFFFFFFFFFFFFFFFFFFFFFFFF AND MUL OR SWAP1 SSTORE POP PUSH1 0x1 DUP3 ADD PUSH1 0x10 SWAP1 SLOAD SWAP1 PUSH2 0x100 EXP SWAP1 DIV PUSH16 0xFFFFFFFFFFFFFFFFFFFFFFFFFFFFFFFF AND DUP2 PUSH1 0x1 ADD PUSH1 0x10 PUSH2 0x100 EXP DUP2 SLOAD DUP2 PUSH16 0xFFFFFFFFFFFFFFFFFFFFFFFFFFFFFFFF MUL NOT AND SWAP1 DUP4 PUSH16 0xFFFFFFFFFFFFFFFFFFFFFFFFFFFFFFFF AND MUL OR SWAP1 SSTORE POP PUSH1 0x2 DUP3 ADD PUSH0 SWAP1 SLOAD SWAP1 PUSH2 0x100 EXP SWAP1 DIV PUSH1 0xFF AND DUP2 PUSH1 0x2 ADD PUSH0 PUSH2 0x100 EXP DUP2 SLOAD DUP2 PUSH1 0xFF MUL NOT AND SWAP1 DUP4 ISZERO ISZERO MUL OR SWAP1 SSTORE POP POP POP CALLER PUSH20 0xFFFFFFFFFFFFFFFFFFFFFFFFFFFFFFFFFFFFFFFF AND DUP2 PUSH32 0xA3941CFA07EECF2734875AB71CEA0E47395BE644DA6E17B039A7E29EFBA74EF9 DUP7 DUP7 TIMESTAMP PUSH1 0x40 MLOAD PUSH2 0x1856 SWAP4 SWAP3 SWAP2 SWAP1 PUSH2 0x2438 JUMP JUMPDEST PUSH1 0x40 MLOAD DUP1 SWAP2 SUB SWAP1 LOG3 POP POP POP POP JUMP JUMPDEST PUSH0 DUP1 PUSH1 0x2 PUSH0 DUP5 DUP2 MSTORE PUSH1 0x20 ADD SWAP1 DUP2 MSTORE PUSH1 0x20 ADD PUSH0 KECCAK256 SLOAD SWAP1 POP PUSH1 0x1 PUSH0 DUP3 DUP2 MSTORE PUSH1 0x20 ADD SWAP1 DUP2 MSTORE PUSH1 0x20 ADD PUSH0 KECCAK256 PUSH1 0x2 ADD PUSH0 SWAP1 SLOAD SWAP1 PUSH2 0x100 EXP SWAP1 DIV PUSH1 0xFF AND SWAP2 POP POP SWAP2 SWAP1 POP JUMP JUMPDEST PUSH2 0x1388 DUP2 JUMP JUMPDEST PUSH0 PUSH1 0x2 PUSH0 DUP4 DUP2 MSTORE PUSH1 0x20 ADD SWAP1 DUP2 MSTORE PUSH1 0x20 ADD PUSH0 KECCAK256 SLOAD SWAP1 POP SWAP2 SWAP1 POP JUMP JUMPDEST PUSH32 0x0 DUP2 JUMP JUMPDEST PUSH1 0x60 PUSH1 0x4 PUSH0 DUP4 PUSH20 0xFFFFFFFFFFFFFFFFFFFFFFFFFFFFFFFFFFFFFFFF AND PUSH20 0xFFFFFFFFFFFFFFFFFFFFFFFFFFFFFFFFFFFFFFFF AND DUP2 MSTORE PUSH1 0x20 ADD SWAP1 DUP2 MSTORE PUSH1 0x20 ADD PUSH0 KECCAK256 DUP1 SLOAD DUP1 PUSH1 0x20 MUL PUSH1 0x20 ADD PUSH1 0x40 MLOAD SWAP1 DUP2 ADD PUSH1 0x40 MSTORE DUP1 SWAP3 SWAP2 SWAP1 DUP2 DUP2 MSTORE PUSH1 0x20 ADD PUSH0 SWAP1 JUMPDEST DUP3 DUP3 LT ISZERO PUSH2 0x1A76 JUMPI DUP4 DUP3 SWAP1 PUSH0 MSTORE PUSH1 0x20 PUSH0 KECCAK256 SWAP1 PUSH1 0x3 MUL ADD PUSH1 0x40 MLOAD DUP1 PUSH1 0x80 ADD PUSH1 0x40 MSTORE SWAP1 DUP2 PUSH0 DUP3 ADD PUSH0 SWAP1 SLOAD SWAP1 PUSH2 0x100 EXP SWAP1 DIV PUSH20 0xFFFFFFFFFFFFFFFFFFFFFFFFFFFFFFFFFFFFFFFF AND PUSH20 0xFFFFFFFFFFFFFFFFFFFFFFFFFFFFFFFFFFFFFFFF AND PUSH20 0xFFFFFFFFFFFFFFFFFFFFFFFFFFFFFFFFFFFFFFFF AND DUP2 MSTORE PUSH1 0x20 ADD PUSH1 0x1 DUP3 ADD PUSH0 SWAP1 SLOAD SWAP1 PUSH2 0x100 EXP SWAP1 DIV PUSH16 0xFFFFFFFFFFFFFFFFFFFFFFFFFFFFFFFF AND PUSH16 0xFFFFFFFFFFFFFFFFFFFFFFFFFFFFFFFF AND PUSH16 0xFFFFFFFFFFFFFFFFFFFFFFFFFFFFFFFF AND DUP2 MSTORE PUSH1 0x20 ADD PUSH1 0x1 DUP3 ADD PUSH1 0x10 SWAP1 SLOAD SWAP1 PUSH2 0x100 EXP SWAP1 DIV PUSH16 0xFFFFFFFFFFFFFFFFFFFFFFFFFFFFFFFF AND PUSH16 0xFFFFFFFFFFFFFFFFFFFFFFFFFFFFFFFF AND PUSH16 0xFFFFFFFFFFFFFFFFFFFFFFFFFFFFFFFF AND DUP2 MSTORE PUSH1 0x20 ADD PUSH1 0x2 DUP3 ADD PUSH0 SWAP1 SLOAD SWAP1 PUSH2 0x100 EXP SWAP1 DIV PUSH1 0xFF AND ISZERO ISZERO ISZERO ISZERO DUP2 MSTORE POP POP DUP2 MSTORE PUSH1 0x20 ADD SWAP1 PUSH1 0x1 ADD SWAP1 PUSH2 0x1945 JUMP JUMPDEST POP POP POP POP SWAP1 POP SWAP2 SWAP1 POP JUMP JUMPDEST PUSH1 0x1 PUSH1 0x20 MSTORE DUP1 PUSH0 MSTORE PUSH1 0x40 PUSH0 KECCAK256 PUSH0 SWAP2 POP SWAP1 POP DUP1 PUSH0 ADD PUSH0 SWAP1 SLOAD SWAP1 PUSH2 0x100 EXP SWAP1 DIV PUSH20 0xFFFFFFFFFFFFFFFFFFFFFFFFFFFFFFFFFFFFFFFF AND SWAP1 DUP1 PUSH1 0x1 ADD PUSH0 SWAP1 SLOAD SWAP1 PUSH2 0x100 EXP SWAP1 DIV PUSH16 0xFFFFFFFFFFFFFFFFFFFFFFFFFFFFFFFF AND SWAP1 DUP1 PUSH1 0x1 ADD PUSH1 0x10 SWAP1 SLOAD SWAP1 PUSH2 0x100 EXP SWAP1 DIV PUSH16 0xFFFFFFFFFFFFFFFFFFFFFFFFFFFFFFFF AND SWAP1 DUP1 PUSH1 0x2 ADD PUSH0 SWAP1 SLOAD SWAP1 PUSH2 0x100 EXP SWAP1 DIV PUSH1 0xFF AND SWAP1 POP DUP5 JUMP JUMPDEST PUSH1 0x3 PUSH1 0x20 MSTORE DUP1 PUSH0 MSTORE PUSH1 0x40 PUSH0 KECCAK256 PUSH0 SWAP2 POP SWAP1 POP SLOAD DUP2 JUMP JUMPDEST PUSH0 DUP1 REVERT JUMPDEST PUSH0 DUP2 SWAP1 POP SWAP2 SWAP1 POP JUMP JUMPDEST PUSH2 0x1B3A DUP2 PUSH2 0x1B28 JUMP JUMPDEST DUP2 EQ PUSH2 0x1B44 JUMPI PUSH0 DUP1 REVERT JUMPDEST POP JUMP JUMPDEST PUSH0 DUP2 CALLDATALOAD SWAP1 POP PUSH2 0x1B55 DUP2 PUSH2 0x1B31 JUMP JUMPDEST SWAP3 SWAP2 POP POP JUMP JUMPDEST PUSH0 PUSH1 0x20 DUP3 DUP5 SUB SLT ISZERO PUSH2 0x1B70 JUMPI PUSH2 0x1B6F PUSH2 0x1B24 JUMP JUMPDEST JUMPDEST PUSH0 PUSH2 0x1B7D DUP5 DUP3 DUP6 ADD PUSH2 0x1B47 JUMP JUMPDEST SWAP2 POP POP SWAP3 SWAP2 POP POP JUMP JUMPDEST PUSH0 PUSH20 0xFFFFFFFFFFFFFFFFFFFFFFFFFFFFFFFFFFFFFFFF DUP3 AND SWAP1 POP SWAP2 SWAP1 POP JUMP JUMPDEST PUSH0 PUSH2 0x1BAF DUP3 PUSH2 0x1B86 JUMP JUMPDEST SWAP1 POP SWAP2 SWAP1 POP JUMP JUMPDEST PUSH2 0x1BBF DUP2 PUSH2 0x1BA5 JUMP JUMPDEST DUP2 EQ PUSH2 0x1BC9 JUMPI PUSH0 DUP1 REVERT JUMPDEST POP JUMP JUMPDEST PUSH0 DUP2 CALLDATALOAD SWAP1 POP PUSH2 0x1BDA DUP2 PUSH2 0x1BB6 JUMP JUMPDEST SWAP3 SWAP2 POP POP JUMP JUMPDEST PUSH0 DUP1 PUSH1 0x40 DUP4 DUP6 SUB SLT ISZERO PUSH2 0x1BF6 JUMPI PUSH2 0x1BF5 PUSH2 0x1B24 JUMP JUMPDEST JUMPDEST PUSH0 PUSH2 0x1C03 DUP6 DUP3 DUP7 ADD PUSH2 0x1BCC JUMP JUMPDEST SWAP3 POP POP PUSH1 0x20 PUSH2 0x1C14 DUP6 DUP3 DUP7 ADD PUSH2 0x1B47 JUMP JUMPDEST SWAP2 POP POP SWAP3 POP SWAP3 SWAP1 POP JUMP JUMPDEST PUSH2 0x1C27 DUP2 PUSH2 0x1B28 JUMP JUMPDEST DUP3 MSTORE POP POP JUMP JUMPDEST PUSH0 PUSH1 0x20 DUP3 ADD SWAP1 POP PUSH2 0x1C40 PUSH0 DUP4 ADD DUP5 PUSH2 0x1C1E JUMP JUMPDEST SWAP3 SWAP2 POP POP JUMP JUMPDEST PUSH0 DUP2 SWAP1 POP SWAP2 SWAP1 POP JUMP JUMPDEST PUSH0 PUSH2 0x1C69 PUSH2 0x1C64 PUSH2 0x1C5F DUP5 PUSH2 0x1B86 JUMP JUMPDEST PUSH2 0x1C46 JUMP JUMPDEST PUSH2 0x1B86 JUMP JUMPDEST SWAP1 POP SWAP2 SWAP1 POP JUMP JUMPDEST PUSH0 PUSH2 0x1C7A DUP3 PUSH2 0x1C4F JUMP JUMPDEST SWAP1 POP SWAP2 SWAP1 POP JUMP JUMPDEST PUSH0 PUSH2 0x1C8B DUP3 PUSH2 0x1C70 JUMP JUMPDEST SWAP1 POP SWAP2 SWAP1 POP JUMP JUMPDEST PUSH2 0x1C9B DUP2 PUSH2 0x1C81 JUMP JUMPDEST DUP3 MSTORE POP POP JUMP JUMPDEST PUSH0 PUSH1 0x20 DUP3 ADD SWAP1 POP PUSH2 0x1CB4 PUSH0 DUP4 ADD DUP5 PUSH2 0x1C92 JUMP JUMPDEST SWAP3 SWAP2 POP POP JUMP JUMPDEST PUSH0 PUSH2 0x1CC4 DUP3 PUSH2 0x1B86 JUMP JUMPDEST SWAP1 POP SWAP2 SWAP1 POP JUMP JUMPDEST PUSH2 0x1CD4 DUP2 PUSH2 0x1CBA JUMP JUMPDEST DUP3 MSTORE POP POP JUMP JUMPDEST PUSH0 PUSH1 0x20 DUP3 ADD SWAP1 POP PUSH2 0x1CED PUSH0 DUP4 ADD DUP5 PUSH2 0x1CCB JUMP JUMPDEST SWAP3 SWAP2 POP POP JUMP JUMPDEST PUSH0 PUSH16 0xFFFFFFFFFFFFFFFFFFFFFFFFFFFFFFFF DUP3 AND SWAP1 POP SWAP2 SWAP1 POP JUMP JUMPDEST PUSH2 0x1D17 DUP2 PUSH2 0x1CF3 JUMP JUMPDEST DUP2 EQ PUSH2 0x1D21 JUMPI PUSH0 DUP1 REVERT JUMPDEST POP JUMP JUMPDEST PUSH0 DUP2 CALLDATALOAD SWAP1 POP PUSH2 0x1D32 DUP2 PUSH2 0x1D0E JUMP JUMPDEST SWAP3 SWAP2 POP POP JUMP JUMPDEST PUSH0 DUP1 PUSH1 0x40 DUP4 DUP6 SUB SLT ISZERO PUSH2 0x1D4E JUMPI PUSH2 0x1D4D PUSH2 0x1B24 JUMP JUMPDEST JUMPDEST PUSH0 PUSH2 0x1D5B DUP6 DUP3 DUP7 ADD PUSH2 0x1D24 JUMP JUMPDEST SWAP3 POP POP PUSH1 0x20 PUSH2 0x1D6C DUP6 DUP3 DUP7 ADD PUSH2 0x1D24 JUMP JUMPDEST SWAP2 POP POP SWAP3 POP SWAP3 SWAP1 POP JUMP JUMPDEST PUSH0 DUP2 ISZERO ISZERO SWAP1 POP SWAP2 SWAP1 POP JUMP JUMPDEST PUSH2 0x1D8A DUP2 PUSH2 0x1D76 JUMP JUMPDEST DUP3 MSTORE POP POP JUMP JUMPDEST PUSH0 PUSH1 0x20 DUP3 ADD SWAP1 POP PUSH2 0x1DA3 PUSH0 DUP4 ADD DUP5 PUSH2 0x1D81 JUMP JUMPDEST SWAP3 SWAP2 POP POP JUMP JUMPDEST PUSH0 PUSH2 0x1DB3 DUP3 PUSH2 0x1C70 JUMP JUMPDEST SWAP1 POP SWAP2 SWAP1 POP JUMP JUMPDEST PUSH2 0x1DC3 DUP2 PUSH2 0x1DA9 JUMP JUMPDEST DUP3 MSTORE POP POP JUMP JUMPDEST PUSH0 PUSH1 0x20 DUP3 ADD SWAP1 POP PUSH2 0x1DDC PUSH0 DUP4 ADD DUP5 PUSH2 0x1DBA JUMP JUMPDEST SWAP3 SWAP2 POP POP JUMP JUMPDEST PUSH0 PUSH1 0x20 DUP3 DUP5 SUB SLT ISZERO PUSH2 0x1DF7 JUMPI PUSH2 0x1DF6 PUSH2 0x1B24 JUMP JUMPDEST JUMPDEST PUSH0 PUSH2 0x1E04 DUP5 DUP3 DUP6 ADD PUSH2 0x1BCC JUMP JUMPDEST SWAP2 POP POP SWAP3 SWAP2 POP POP JUMP JUMPDEST PUSH0 DUP2 MLOAD SWAP1 POP SWAP2 SWAP1 POP JUMP JUMPDEST PUSH0 DUP3 DUP3 MSTORE PUSH1 0x20 DUP3 ADD SWAP1 POP SWAP3 SWAP2 POP POP JUMP JUMPDEST PUSH0 DUP2 SWAP1 POP PUSH1 0x20 DUP3 ADD SWAP1 POP SWAP2 SWAP1 POP JUMP JUMPDEST PUSH2 0x1E3F DUP2 PUSH2 0x1BA5 JUMP JUMPDEST DUP3 MSTORE POP POP JUMP JUMPDEST PUSH2 0x1E4E DUP2 PUSH2 0x1CF3 JUMP JUMPDEST DUP3 MSTORE POP POP JUMP JUMPDEST PUSH2 0x1E5D DUP2 PUSH2 0x1D76 JUMP JUMPDEST DUP3 MSTORE POP POP JUMP JUMPDEST PUSH1 0x80 DUP3 ADD PUSH0 DUP3 ADD MLOAD PUSH2 0x1E77 PUSH0 DUP6 ADD DUP3 PUSH2 0x1E36 JUMP JUMPDEST POP PUSH1 0x20 DUP3 ADD MLOAD PUSH2 0x1E8A PUSH1 0x20 DUP6 ADD DUP3 PUSH2 0x1E45 JUMP JUMPDEST POP PUSH1 0x40 DUP3 ADD MLOAD PUSH2 0x1E9D PUSH1 0x40 DUP6 ADD DUP3 PUSH2 0x1E45 JUMP JUMPDEST POP PUSH1 0x60 DUP3 ADD MLOAD PUSH2 0x1EB0 PUSH1 0x60 DUP6 ADD DUP3 PUSH2 0x1E54 JUMP JUMPDEST POP POP POP POP JUMP JUMPDEST PUSH0 PUSH2 0x1EC1 DUP4 DUP4 PUSH2 0x1E63 JUMP JUMPDEST PUSH1 0x80 DUP4 ADD SWAP1 POP SWAP3 SWAP2 POP POP JUMP JUMPDEST PUSH0 PUSH1 0x20 DUP3 ADD SWAP1 POP SWAP2 SWAP1 POP JUMP JUMPDEST PUSH0 PUSH2 0x1EE3 DUP3 PUSH2 0x1E0D JUMP JUMPDEST PUSH2 0x1EED DUP2 DUP6 PUSH2 0x1E17 JUMP JUMPDEST SWAP4 POP PUSH2 0x1EF8 DUP4 PUSH2 0x1E27 JUMP JUMPDEST DUP1 PUSH0 JUMPDEST DUP4 DUP2 LT ISZERO PUSH2 0x1F28 JUMPI DUP2 MLOAD PUSH2 0x1F0F DUP9 DUP3 PUSH2 0x1EB6 JUMP JUMPDEST SWAP8 POP PUSH2 0x1F1A DUP4 PUSH2 0x1ECD JUMP JUMPDEST SWAP3 POP POP PUSH1 0x1 DUP2 ADD SWAP1 POP PUSH2 0x1EFB JUMP JUMPDEST POP DUP6 SWAP4 POP POP POP POP SWAP3 SWAP2 POP POP JUMP JUMPDEST PUSH0 PUSH1 0x20 DUP3 ADD SWAP1 POP DUP2 DUP2 SUB PUSH0 DUP4 ADD MSTORE PUSH2 0x1F4D DUP2 DUP5 PUSH2 0x1ED9 JUMP JUMPDEST SWAP1 POP SWAP3 SWAP2 POP POP JUMP JUMPDEST PUSH2 0x1F5E DUP2 PUSH2 0x1BA5 JUMP JUMPDEST DUP3 MSTORE POP POP JUMP JUMPDEST PUSH2 0x1F6D DUP2 PUSH2 0x1CF3 JUMP JUMPDEST DUP3 MSTORE POP POP JUMP JUMPDEST PUSH0 PUSH1 0x80 DUP3 ADD SWAP1 POP PUSH2 0x1F86 PUSH0 DUP4 ADD DUP8 PUSH2 0x1F55 JUMP JUMPDEST PUSH2 0x1F93 PUSH1 0x20 DUP4 ADD DUP7 PUSH2 0x1F64 JUMP JUMPDEST PUSH2 0x1FA0 PUSH1 0x40 DUP4 ADD DUP6 PUSH2 0x1F64 JUMP JUMPDEST PUSH2 0x1FAD PUSH1 0x60 DUP4 ADD DUP5 PUSH2 0x1D81 JUMP JUMPDEST SWAP6 SWAP5 POP POP POP POP POP JUMP JUMPDEST PUSH0 DUP3 DUP3 MSTORE PUSH1 0x20 DUP3 ADD SWAP1 POP SWAP3 SWAP2 POP POP JUMP JUMPDEST PUSH32 0x4C697374696E67206E6F74206163746976650000000000000000000000000000 PUSH0 DUP3 ADD MSTORE POP JUMP JUMPDEST PUSH0 PUSH2 0x1FFA PUSH1 0x12 DUP4 PUSH2 0x1FB6 JUMP JUMPDEST SWAP2 POP PUSH2 0x2005 DUP3 PUSH2 0x1FC6 JUMP JUMPDEST PUSH1 0x20 DUP3 ADD SWAP1 POP SWAP2 SWAP1 POP JUMP JUMPDEST PUSH0 PUSH1 0x20 DUP3 ADD SWAP1 POP DUP2 DUP2 SUB PUSH0 DUP4 ADD MSTORE PUSH2 0x2027 DUP2 PUSH2 0x1FEE JUMP JUMPDEST SWAP1 POP SWAP2 SWAP1 POP JUMP JUMPDEST PUSH32 0x496E73756666696369656E74207061796D656E74000000000000000000000000 PUSH0 DUP3 ADD MSTORE POP JUMP JUMPDEST PUSH0 PUSH2 0x2062 PUSH1 0x14 DUP4 PUSH2 0x1FB6 JUMP JUMPDEST SWAP2 POP PUSH2 0x206D DUP3 PUSH2 0x202E JUMP JUMPDEST PUSH1 0x20 DUP3 ADD SWAP1 POP SWAP2 SWAP1 POP JUMP JUMPDEST PUSH0 PUSH1 0x20 DUP3 ADD SWAP1 POP DUP2 DUP2 SUB PUSH0 DUP4 ADD MSTORE PUSH2 0x208F DUP2 PUSH2 0x2056 JUMP JUMPDEST SWAP1 POP SWAP2 SWAP1 POP JUMP JUMPDEST PUSH32 0x43616E6E6F7420627579206F776E206C697374696E6700000000000000000000 PUSH0 DUP3 ADD MSTORE POP JUMP JUMPDEST PUSH0 PUSH2 0x20CA PUSH1 0x16 DUP4 PUSH2 0x1FB6 JUMP JUMPDEST SWAP2 POP PUSH2 0x20D5 DUP3 PUSH2 0x2096 JUMP JUMPDEST PUSH1 0x20 DUP3 ADD SWAP1 POP SWAP2 SWAP1 POP JUMP JUMPDEST PUSH0 PUSH1 0x20 DUP3 ADD SWAP1 POP DUP2 DUP2 SUB PUSH0 DUP4 ADD MSTORE PUSH2 0x20F7 DUP2 PUSH2 0x20BE JUMP JUMPDEST SWAP1 POP SWAP2 SWAP1 POP JUMP JUMPDEST PUSH32 0x4E487B7100000000000000000000000000000000000000000000000000000000 PUSH0 MSTORE PUSH1 0x11 PUSH1 0x4 MSTORE PUSH1 0x24 PUSH0 REVERT JUMPDEST PUSH0 PUSH2 0x2135 DUP3 PUSH2 0x1B28 JUMP JUMPDEST SWAP2 POP PUSH2 0x2140 DUP4 PUSH2 0x1B28 JUMP JUMPDEST SWAP3 POP DUP3 DUP3 MUL PUSH2 0x214E DUP2 PUSH2 0x1B28 JUMP JUMPDEST SWAP2 POP DUP3 DUP3 DIV DUP5 EQ DUP4 ISZERO OR PUSH2 0x2165 JUMPI PUSH2 0x2164 PUSH2 0x20FE JUMP JUMPDEST JUMPDEST POP SWAP3 SWAP2 POP POP JUMP JUMPDEST PUSH32 0x4E487B7100000000000000000000000000000000000000000000000000000000 PUSH0 MSTORE PUSH1 0x12 PUSH1 0x4 MSTORE PUSH1 0x24 PUSH0 REVERT JUMPDEST PUSH0 PUSH2 0x21A3 DUP3 PUSH2 0x1B28 JUMP JUMPDEST SWAP2 POP PUSH2 0x21AE DUP4 PUSH2 0x1B28 JUMP JUMPDEST SWAP3 POP DUP3 PUSH2 0x21BE JUMPI PUSH2 0x21BD PUSH2 0x216C JUMP JUMPDEST JUMPDEST DUP3 DUP3 DIV SWAP1 POP SWAP3 SWAP2 POP POP JUMP JUMPDEST PUSH0 PUSH2 0x21D3 DUP3 PUSH2 0x1B28 JUMP JUMPDEST SWAP2 POP PUSH2 0x21DE DUP4 PUSH2 0x1B28 JUMP JUMPDEST SWAP3 POP DUP3 DUP3 SUB SWAP1 POP DUP2 DUP2 GT ISZERO PUSH2 0x21F6 JUMPI PUSH2 0x21F5 PUSH2 0x20FE JUMP JUMPDEST JUMPDEST SWAP3 SWAP2 POP POP JUMP JUMPDEST PUSH0 PUSH2 0x2216 PUSH2 0x2211 PUSH2 0x220C DUP5 PUSH2 0x1CF3 JUMP JUMPDEST PUSH2 0x1C46 JUMP JUMPDEST PUSH2 0x1B28 JUMP JUMPDEST SWAP1 POP SWAP2 SWAP1 POP JUMP JUMPDEST PUSH2 0x2226 DUP2 PUSH2 0x21FC JUMP JUMPDEST DUP3 MSTORE POP POP JUMP JUMPDEST PUSH0 PUSH1 0x20 DUP3 ADD SWAP1 POP PUSH2 0x223F PUSH0 DUP4 ADD DUP5 PUSH2 0x221D JUMP JUMPDEST SWAP3 SWAP2 POP POP JUMP JUMPDEST PUSH0 DUP2 MLOAD SWAP1 POP PUSH2 0x2253 DUP2 PUSH2 0x1BB6 JUMP JUMPDEST SWAP3 SWAP2 POP POP JUMP JUMPDEST PUSH0 PUSH1 0x20 DUP3 DUP5 SUB SLT ISZERO PUSH2 0x226E JUMPI PUSH2 0x226D PUSH2 0x1B24 JUMP JUMPDEST JUMPDEST PUSH0 PUSH2 0x227B DUP5 DUP3 DUP6 ADD PUSH2 0x2245 JUMP JUMPDEST SWAP2 POP POP SWAP3 SWAP2 POP POP JUMP JUMPDEST PUSH32 0x53656C6C6572206E6F206C6F6E676572206F776E73204E465400000000000000 PUSH0 DUP3 ADD MSTORE POP JUMP JUMPDEST PUSH0 PUSH2 0x22B8 PUSH1 0x19 DUP4 PUSH2 0x1FB6 JUMP JUMPDEST SWAP2 POP PUSH2 0x22C3 DUP3 PUSH2 0x2284 JUMP JUMPDEST PUSH1 0x20 DUP3 ADD SWAP1 POP SWAP2 SWAP1 POP JUMP JUMPDEST PUSH0 PUSH1 0x20 DUP3 ADD SWAP1 POP DUP2 DUP2 SUB PUSH0 DUP4 ADD MSTORE PUSH2 0x22E5 DUP2 PUSH2 0x22AC JUMP JUMPDEST SWAP1 POP SWAP2 SWAP1 POP JUMP JUMPDEST PUSH0 PUSH1 0x40 DUP3 ADD SWAP1 POP PUSH2 0x22FF PUSH0 DUP4 ADD DUP6 PUSH2 0x1F55 JUMP JUMPDEST PUSH2 0x230C PUSH1 0x20 DUP4 ADD DUP5 PUSH2 0x1F55 JUMP JUMPDEST SWAP4 SWAP3 POP POP POP JUMP JUMPDEST PUSH2 0x231C DUP2 PUSH2 0x1D76 JUMP JUMPDEST DUP2 EQ PUSH2 0x2326 JUMPI PUSH0 DUP1 REVERT JUMPDEST POP JUMP JUMPDEST PUSH0 DUP2 MLOAD SWAP1 POP PUSH2 0x2337 DUP2 PUSH2 0x2313 JUMP JUMPDEST SWAP3 SWAP2 POP POP JUMP JUMPDEST PUSH0 PUSH1 0x20 DUP3 DUP5 SUB SLT ISZERO PUSH2 0x2352 JUMPI PUSH2 0x2351 PUSH2 0x1B24 JUMP JUMPDEST JUMPDEST PUSH0 PUSH2 0x235F DUP5 DUP3 DUP6 ADD PUSH2 0x2329 JUMP JUMPDEST SWAP2 POP POP SWAP3 SWAP2 POP POP JUMP JUMPDEST PUSH32 0x4E6F7420617070726F7665640000000000000000000000000000000000000000 PUSH0 DUP3 ADD MSTORE POP JUMP JUMPDEST PUSH0 PUSH2 0x239C PUSH1 0xC DUP4 PUSH2 0x1FB6 JUMP JUMPDEST SWAP2 POP PUSH2 0x23A7 DUP3 PUSH2 0x2368 JUMP JUMPDEST PUSH1 0x20 DUP3 ADD SWAP1 POP SWAP2 SWAP1 POP JUMP JUMPDEST PUSH0 PUSH1 0x20 DUP3 ADD SWAP1 POP DUP2 DUP2 SUB PUSH0 DUP4 ADD MSTORE PUSH2 0x23C9 DUP2 PUSH2 0x2390 JUMP JUMPDEST SWAP1 POP SWAP2 SWAP1 POP JUMP JUMPDEST PUSH0 PUSH2 0x23DA DUP3 PUSH2 0x1B28 JUMP JUMPDEST SWAP2 POP PUSH2 0x23E5 DUP4 PUSH2 0x1B28 JUMP JUMPDEST SWAP3 POP DUP3 DUP3 ADD SWAP1 POP DUP1 DUP3 GT ISZERO PUSH2 0x23FD JUMPI PUSH2 0x23FC PUSH2 0x20FE JUMP JUMPDEST JUMPDEST SWAP3 SWAP2 POP POP JUMP JUMPDEST PUSH0 PUSH1 0x60 DUP3 ADD SWAP1 POP PUSH2 0x2416 PUSH0 DUP4 ADD DUP7 PUSH2 0x1F55 JUMP JUMPDEST PUSH2 0x2423 PUSH1 0x20 DUP4 ADD DUP6 PUSH2 0x1F55 JUMP JUMPDEST PUSH2 0x2430 PUSH1 0x40 DUP4 ADD DUP5 PUSH2 0x221D JUMP JUMPDEST SWAP5 SWAP4 POP POP POP POP JUMP JUMPDEST PUSH0 PUSH1 0x60 DUP3 ADD SWAP1 POP PUSH2 0x244B PUSH0 DUP4 ADD DUP7 PUSH2 0x221D JUMP JUMPDEST PUSH2 0x2458 PUSH1 0x20 DUP4 ADD DUP6 PUSH2 0x221D JUMP JUMPDEST PUSH2 0x2465 PUSH1 0x40 DUP4 ADD DUP5 PUSH2 0x1C1E JUMP JUMPDEST SWAP5 SWAP4 POP POP POP POP JUMP JUMPDEST PUSH32 0x4F6E6C79206F776E657200000000000000000000000000000000000000000000 PUSH0 DUP3 ADD MSTORE POP JUMP JUMPDEST PUSH0 PUSH2 0x24A1 PUSH1 0xA DUP4 PUSH2 0x1FB6 JUMP JUMPDEST SWAP2 POP PUSH2 0x24AC DUP3 PUSH2 0x246D JUMP JUMPDEST PUSH1 0x20 DUP3 ADD SWAP1 POP SWAP2 SWAP1 POP JUMP JUMPDEST PUSH0 PUSH1 0x20 DUP3 ADD SWAP1 POP DUP2 DUP2 SUB PUSH0 DUP4 ADD MSTORE PUSH2 0x24CE DUP2 PUSH2 0x2495 JUMP JUMPDEST SWAP1 POP SWAP2 SWAP1 POP JUMP JUMPDEST PUSH32 0x4E6F2066756E647320746F207769746864726177000000000000000000000000 PUSH0 DUP3 ADD MSTORE POP JUMP JUMPDEST PUSH0 PUSH2 0x2509 PUSH1 0x14 DUP4 PUSH2 0x1FB6 JUMP JUMPDEST SWAP2 POP PUSH2 0x2514 DUP3 PUSH2 0x24D5 JUMP JUMPDEST PUSH1 0x20 DUP3 ADD SWAP1 POP SWAP2 SWAP1 POP JUMP JUMPDEST PUSH0 PUSH1 0x20 DUP3 ADD SWAP1 POP DUP2 DUP2 SUB PUSH0 DUP4 ADD MSTORE PUSH2 0x2536 DUP2 PUSH2 0x24FD JUMP JUMPDEST SWAP1 POP SWAP2 SWAP1 POP JUMP JUMPDEST PUSH0 DUP2 SWAP1 POP SWAP3 SWAP2 POP POP JUMP JUMPDEST POP JUMP JUMPDEST PUSH0 PUSH2 0x2555 PUSH0 DUP4 PUSH2 0x253D JUMP JUMPDEST SWAP2 POP PUSH2 0x2560 DUP3 PUSH2 0x2547 JUMP JUMPDEST PUSH0 DUP3 ADD SWAP1 POP SWAP2 SWAP1 POP JUMP JUMPDEST PUSH0 PUSH2 0x2574 DUP3 PUSH2 0x254A JUMP JUMPDEST SWAP2 POP DUP2 SWAP1 POP SWAP2 SWAP1 POP JUMP JUMPDEST PUSH32 0x5472616E73666572206661696C65640000000000000000000000000000000000 PUSH0 DUP3 ADD MSTORE POP JUMP JUMPDEST PUSH0 PUSH2 0x25B2 PUSH1 0xF DUP4 PUSH2 0x1FB6 JUMP JUMPDEST SWAP2 POP PUSH2 0x25BD DUP3 PUSH2 0x257E JUMP JUMPDEST PUSH1 0x20 DUP3 ADD SWAP1 POP SWAP2 SWAP1 POP JUMP JUMPDEST PUSH0 PUSH1 0x20 DUP3 ADD SWAP1 POP DUP2 DUP2 SUB PUSH0 DUP4 ADD MSTORE PUSH2 0x25DF DUP2 PUSH2 0x25A6 JUMP JUMPDEST SWAP1 POP SWAP2 SWAP1 POP JUMP JUMPDEST PUSH0 PUSH1 0x40 DUP3 ADD SWAP1 POP PUSH2 0x25F9 PUSH0 DUP4 ADD DUP6 PUSH2 0x1F55 JUMP JUMPDEST PUSH2 0x2606 PUSH1 0x20 DUP4 ADD DUP5 PUSH2 0x1C1E JUMP JUMPDEST SWAP4 SWAP3 POP POP POP JUMP JUMPDEST PUSH0 DUP2 MLOAD SWAP1 POP PUSH2 0x261B DUP2 PUSH2 0x1B31 JUMP JUMPDEST SWAP3 SWAP2 POP POP JUMP JUMPDEST PUSH0 PUSH1 0x20 DUP3 DUP5 SUB SLT ISZERO PUSH2 0x2636 JUMPI PUSH2 0x2635 PUSH2 0x1B24 JUMP JUMPDEST JUMPDEST PUSH0 PUSH2 0x2643 DUP5 DUP3 DUP6 ADD PUSH2 0x260D JUMP JUMPDEST SWAP2 POP POP SWAP3 SWAP2 POP POP JUMP JUMPDEST PUSH32 0x4E6F742073656C6C657200000000000000000000000000000000000000000000 PUSH0 DUP3 ADD MSTORE POP JUMP JUMPDEST PUSH0 PUSH2 0x2680 PUSH1 0xA DUP4 PUSH2 0x1FB6 JUMP JUMPDEST SWAP2 POP PUSH2 0x268B DUP3 PUSH2 0x264C JUMP JUMPDEST PUSH1 0x20 DUP3 ADD SWAP1 POP SWAP2 SWAP1 POP JUMP JUMPDEST PUSH0 PUSH1 0x20 DUP3 ADD SWAP1 POP DUP2 DUP2 SUB PUSH0 DUP4 ADD MSTORE PUSH2 0x26AD DUP2 PUSH2 0x2674 JUMP JUMPDEST SWAP1 POP SWAP2 SWAP1 POP JUMP JUMPDEST PUSH32 0x436F6D6D697373696F6E20746F6F206869676800000000000000000000000000 PUSH0 DUP3 ADD MSTORE POP JUMP JUMPDEST PUSH0 PUSH2 0x26E8 PUSH1 0x13 DUP4 PUSH2 0x1FB6 JUMP JUMPDEST SWAP2 POP PUSH2 0x26F3 DUP3 PUSH2 0x26B4 JUMP JUMPDEST PUSH1 0x20 DUP3 ADD SWAP1 POP SWAP2 SWAP1 POP JUMP JUMPDEST PUSH0 PUSH1 0x20 DUP3 ADD SWAP1 POP DUP2 DUP2 SUB PUSH0 DUP4 ADD MSTORE PUSH2 0x2715 DUP2 PUSH2 0x26DC JUMP JUMPDEST SWAP1 POP SWAP2 SWAP1 POP JUMP JUMPDEST PUSH32 0x5072696365206D757374206265203E2030000000000000000000000000000000 PUSH0 DUP3 ADD MSTORE POP JUMP JUMPDEST PUSH0 PUSH2 0x2750 PUSH1 0x11 DUP4 PUSH2 0x1FB6 JUMP JUMPDEST SWAP2 POP PUSH2 0x275B DUP3 PUSH2 0x271C JUMP JUMPDEST PUSH1 0x20 DUP3 ADD SWAP1 POP SWAP2 SWAP1 POP JUMP JUMPDEST PUSH0 PUSH1 0x20 DUP3 ADD SWAP1 POP DUP2 DUP2 SUB PUSH0 DUP4 ADD MSTORE PUSH2 0x277D DUP2 PUSH2 0x2744 JUMP JUMPDEST SWAP1 POP SWAP2 SWAP1 POP JUMP JUMPDEST PUSH32 0x4E6F7420746F6B656E206F776E65720000000000000000000000000000000000 PUSH0 DUP3 ADD MSTORE POP JUMP JUMPDEST PUSH0 PUSH2 0x27B8 PUSH1 0xF DUP4 PUSH2 0x1FB6 JUMP JUMPDEST SWAP2 POP PUSH2 0x27C3 DUP3 PUSH2 0x2784 JUMP JUMPDEST PUSH1 0x20 DUP3 ADD SWAP1 POP SWAP2 SWAP1 POP JUMP JUMPDEST PUSH0 PUSH1 0x20 DUP3 ADD SWAP1 POP DUP2 DUP2 SUB PUSH0 DUP4 ADD MSTORE PUSH2 0x27E5 DUP2 PUSH2 0x27AC JUMP JUMPDEST SWAP1 POP SWAP2 SWAP1 POP JUMP JUMPDEST PUSH32 0x416C7265616479206C6973746564000000000000000000000000000000000000 PUSH0 DUP3 ADD MSTORE POP JUMP JUMPDEST PUSH0 PUSH2 0x2820 PUSH1 0xE DUP4 PUSH2 0x1FB6 JUMP JUMPDEST SWAP2 POP PUSH2 0x282B DUP3 PUSH2 0x27EC JUMP JUMPDEST PUSH1 0x20 DUP3 ADD SWAP1 POP SWAP2 SWAP1 POP JUMP JUMPDEST PUSH0 PUSH1 0x20 DUP3 ADD SWAP1 POP DUP2 DUP2 SUB PUSH0 DUP4 ADD MSTORE PUSH2 0x284D DUP2 PUSH2 0x2814 JUMP JUMPDEST SWAP1 POP SWAP2 SWAP1 POP JUMP JUMPDEST PUSH0 DUP2 PUSH1 0x80 SHL SWAP1 POP SWAP2 SWAP1 POP JUMP JUMPDEST PUSH0 PUSH2 0x286A DUP3 PUSH2 0x2854 JUMP JUMPDEST SWAP1 POP SWAP2 SWAP1 POP JUMP JUMPDEST PUSH2 0x2882 PUSH2 0x287D DUP3 PUSH2 0x1CF3 JUMP JUMPDEST PUSH2 0x2860 JUMP JUMPDEST DUP3 MSTORE POP POP JUMP JUMPDEST PUSH0 DUP2 PUSH1 0x60 SHL SWAP1 POP SWAP2 SWAP1 POP JUMP JUMPDEST PUSH0 PUSH2 0x289E DUP3 PUSH2 0x2888 JUMP JUMPDEST SWAP1 POP SWAP2 SWAP1 POP JUMP JUMPDEST PUSH0 PUSH2 0x28AF DUP3 PUSH2 0x2894 JUMP JUMPDEST SWAP1 POP SWAP2 SWAP1 POP JUMP JUMPDEST PUSH2 0x28C7 PUSH2 0x28C2 DUP3 PUSH2 0x1BA5 JUMP JUMPDEST PUSH2 0x28A5 JUMP JUMPDEST DUP3 MSTORE POP POP JUMP JUMPDEST PUSH0 DUP2 SWAP1 POP SWAP2 SWAP1 POP JUMP JUMPDEST PUSH2 0x28E7 PUSH2 0x28E2 DUP3 PUSH2 0x1B28 JUMP JUMPDEST PUSH2 0x28CD JUMP JUMPDEST DUP3 MSTORE POP POP JUMP JUMPDEST PUSH0 PUSH2 0x28F8 DUP3 DUP7 PUSH2 0x2871 JUMP JUMPDEST PUSH1 0x10 DUP3 ADD SWAP2 POP PUSH2 0x2908 DUP3 DUP6 PUSH2 0x28B6 JUMP JUMPDEST PUSH1 0x14 DUP3 ADD SWAP2 POP PUSH2 0x2918 DUP3 DUP5 PUSH2 0x28D6 JUMP JUMPDEST PUSH1 0x20 DUP3 ADD SWAP2 POP DUP2 SWAP1 POP SWAP5 SWAP4 POP POP POP POP JUMP INVALID LOG2 PUSH5 0x6970667358 0x22 SLT KECCAK256 0xE6 MSIZE PREVRANDAO SWAP13 0xBD CALLCODE ORIGIN PREVRANDAO CREATE2 PUSH1 0x5D DIV 0xD9 PUSH28 0x91EB62895E980BE597079280CA658D80D93F64736F6C634300081600 CALLER "
				},
				"gasEstimates": {
					"creation": {
						"codeDepositCost": "2118200",
						"executionCost": "infinite",
						"totalCost": "infinite"
					},
					"external": {
						"MAX_COMMISSION()": "392",
						"cancelListing(uint256)": "37951",
						"commissionPercent()": "2491",
						"createListing(uint128,uint128)": "infinite",
						"getListingId(uint256)": "infinite",
						"getListingsBySeller(address)": "infinite",
						"isTokenListed(uint256)": "5050",
						"listings(uint256)": "infinite",
						"nftContract()": "infinite",
						"nftEnumerable()": "infinite",
						"owner()": "infinite",
						"pendingWithdrawals(address)": "2890",
						"purchaseListing(uint256)": "infinite",
						"setCommissionPercent(uint256)": "infinite",
						"tokenOfOwnerByIndex(address,uint256)": "infinite",
						"withdrawFunds()": "infinite"
					}
				},
				"methodIdentifiers": {
					"MAX_COMMISSION()": "ae97dde8",
					"cancelListing(uint256)": "305a67a8",
					"commissionPercent()": "77d3550b",
					"createListing(uint128,uint128)": "9acaa6fb",
					"getListingId(uint256)": "cc85a55b",
					"getListingsBySeller(address)": "d8cba251",
					"isTokenListed(uint256)": "9b83cddc",
					"listings(uint256)": "de74e57b",
					"nftContract()": "d56d229d",
					"nftEnumerable()": "51e61b25",
					"owner()": "8da5cb5b",
					"pendingWithdrawals(address)": "f3f43703",
					"purchaseListing(uint256)": "169d5a7d",
					"setCommissionPercent(uint256)": "404a9ab8",
					"tokenOfOwnerByIndex(address,uint256)": "2f745c59",
					"withdrawFunds()": "24600fc3"
				}
			},
			"storageLayout": {
				"storage": [
					{
						"astId": 181,
						"contract": "contracts/Orders.sol:Marketplace",
						"label": "commissionPercent",
						"offset": 0,
						"slot": "0",
						"type": "t_uint256"
					},
					{
						"astId": 191,
						"contract": "contracts/Orders.sol:Marketplace",
						"label": "listings",
						"offset": 0,
						"slot": "1",
						"type": "t_mapping(t_uint256,t_struct(Listing)175_storage)"
					},
					{
						"astId": 196,
						"contract": "contracts/Orders.sol:Marketplace",
						"label": "tokenToListingId",
						"offset": 0,
						"slot": "2",
						"type": "t_mapping(t_uint256,t_uint256)"
					},
					{
						"astId": 201,
						"contract": "contracts/Orders.sol:Marketplace",
						"label": "pendingWithdrawals",
						"offset": 0,
						"slot": "3",
						"type": "t_mapping(t_address,t_uint256)"
					},
					{
						"astId": 216,
						"contract": "contracts/Orders.sol:Marketplace",
						"label": "sellerListings",
						"offset": 0,
						"slot": "4",
						"type": "t_mapping(t_address,t_array(t_struct(Listing)175_storage)dyn_storage)"
					}
				],
				"types": {
					"t_address": {
						"encoding": "inplace",
						"label": "address",
						"numberOfBytes": "20"
					},
					"t_array(t_struct(Listing)175_storage)dyn_storage": {
						"base": "t_struct(Listing)175_storage",
						"encoding": "dynamic_array",
						"label": "struct Marketplace.Listing[]",
						"numberOfBytes": "32"
					},
					"t_bool": {
						"encoding": "inplace",
						"label": "bool",
						"numberOfBytes": "1"
					},
					"t_mapping(t_address,t_array(t_struct(Listing)175_storage)dyn_storage)": {
						"encoding": "mapping",
						"key": "t_address",
						"label": "mapping(address => struct Marketplace.Listing[])",
						"numberOfBytes": "32",
						"value": "t_array(t_struct(Listing)175_storage)dyn_storage"
					},
					"t_mapping(t_address,t_uint256)": {
						"encoding": "mapping",
						"key": "t_address",
						"label": "mapping(address => uint256)",
						"numberOfBytes": "32",
						"value": "t_uint256"
					},
					"t_mapping(t_uint256,t_struct(Listing)175_storage)": {
						"encoding": "mapping",
						"key": "t_uint256",
						"label": "mapping(uint256 => struct Marketplace.Listing)",
						"numberOfBytes": "32",
						"value": "t_struct(Listing)175_storage"
					},
					"t_mapping(t_uint256,t_uint256)": {
						"encoding": "mapping",
						"key": "t_uint256",
						"label": "mapping(uint256 => uint256)",
						"numberOfBytes": "32",
						"value": "t_uint256"
					},
					"t_struct(Listing)175_storage": {
						"encoding": "inplace",
						"label": "struct Marketplace.Listing",
						"members": [
							{
								"astId": 168,
								"contract": "contracts/Orders.sol:Marketplace",
								"label": "seller",
								"offset": 0,
								"slot": "0",
								"type": "t_address"
							},
							{
								"astId": 170,
								"contract": "contracts/Orders.sol:Marketplace",
								"label": "tokenId",
								"offset": 0,
								"slot": "1",
								"type": "t_uint128"
							},
							{
								"astId": 172,
								"contract": "contracts/Orders.sol:Marketplace",
								"label": "price",
								"offset": 16,
								"slot": "1",
								"type": "t_uint128"
							},
							{
								"astId": 174,
								"contract": "contracts/Orders.sol:Marketplace",
								"label": "isActive",
								"offset": 0,
								"slot": "2",
								"type": "t_bool"
							}
						],
						"numberOfBytes": "96"
					},
					"t_uint128": {
						"encoding": "inplace",
						"label": "uint128",
						"numberOfBytes": "16"
					},
					"t_uint256": {
						"encoding": "inplace",
						"label": "uint256",
						"numberOfBytes": "32"
					}
				}
			},
			"userdoc": {
				"events": {
					"CommissionUpdated(uint256)": {
						"notice": "Event emitted when the marketplace commission is updated."
					},
					"FundsWithdrawn(uint256,address)": {
						"notice": "Event emitted when funds are withdrawn."
					},
					"ListingCancelled(uint256,address)": {
						"notice": "Event emitted when a listing is cancelled."
					},
					"ListingCreated(uint256,address,uint256,uint256,uint256)": {
						"notice": "Event emitted when a new listing is created."
					},
					"PurchaseCompleted(uint256,address,uint256,uint256,uint256)": {
						"notice": "Event emitted when an NFT is purchased."
					}
				},
				"kind": "user",
				"methods": {
					"MAX_COMMISSION()": {
						"notice": "Maximum commission percentage allowed (50%)."
					},
					"cancelListing(uint256)": {
						"notice": "Cancels an active listing."
					},
					"commissionPercent()": {
						"notice": "Commission percentage charged by the marketplace (in basis points, 100 = 1%)."
					},
					"createListing(uint128,uint128)": {
						"notice": "Creates a listing to sell an NFT."
					},
					"getListingId(uint256)": {
						"notice": "Gets the listing ID for a token if it exists."
					},
					"getListingsBySeller(address)": {
						"notice": "Gets all listings for a given seller."
					},
					"isTokenListed(uint256)": {
						"notice": "Checks if a token is currently listed."
					},
					"nftContract()": {
						"notice": "Interface for the ERC721 token contract."
					},
					"nftEnumerable()": {
						"notice": "Interface for enumerable ERC721 functionality."
					},
					"owner()": {
						"notice": "Owner of the marketplace."
					},
					"purchaseListing(uint256)": {
						"notice": "Purchases an NFT from an active listing."
					},
					"setCommissionPercent(uint256)": {
						"notice": "Updates the marketplace commission percentage."
					},
					"tokenOfOwnerByIndex(address,uint256)": {
						"notice": "Returns the token ID owned by `_owner` at a specific `index`."
					},
					"withdrawFunds()": {
						"notice": "Withdraws pending funds."
					}
				},
				"version": 1
			}
		}
	}
}