{
	"contracts/Orders.sol": {
		"Marketplace": {
			"abi": [
				{
					"inputs": [
						{
							"internalType": "address",
							"name": "_usdtTokenAddress",
							"type": "address"
						},
						{
							"internalType": "uint8",
							"name": "_commissionPercent",
							"type": "uint8"
						}
					],
					"stateMutability": "nonpayable",
					"type": "constructor"
				},
				{
					"anonymous": false,
					"inputs": [
						{
							"indexed": true,
							"internalType": "uint256",
							"name": "listingId",
							"type": "uint256"
						},
						{
							"indexed": true,
							"internalType": "address",
							"name": "seller",
							"type": "address"
						},
						{
							"indexed": false,
							"internalType": "uint256",
							"name": "amount",
							"type": "uint256"
						}
					],
					"name": "EscrowReleased",
					"type": "event"
				},
				{
					"anonymous": false,
					"inputs": [
						{
							"indexed": true,
							"internalType": "uint256",
							"name": "id",
							"type": "uint256"
						},
						{
							"indexed": true,
							"internalType": "address",
							"name": "seller",
							"type": "address"
						},
						{
							"indexed": false,
							"internalType": "string",
							"name": "title",
							"type": "string"
						},
						{
							"indexed": false,
							"internalType": "uint256",
							"name": "price",
							"type": "uint256"
						}
					],
					"name": "ListingCreated",
					"type": "event"
				},
				{
					"anonymous": false,
					"inputs": [
						{
							"indexed": true,
							"internalType": "uint256",
							"name": "id",
							"type": "uint256"
						},
						{
							"indexed": true,
							"internalType": "address",
							"name": "buyer",
							"type": "address"
						},
						{
							"indexed": false,
							"internalType": "uint256",
							"name": "price",
							"type": "uint256"
						}
					],
					"name": "PurchaseCancelled",
					"type": "event"
				},
				{
					"anonymous": false,
					"inputs": [
						{
							"indexed": true,
							"internalType": "uint256",
							"name": "id",
							"type": "uint256"
						},
						{
							"indexed": true,
							"internalType": "address",
							"name": "buyer",
							"type": "address"
						},
						{
							"indexed": false,
							"internalType": "uint256",
							"name": "price",
							"type": "uint256"
						}
					],
					"name": "PurchaseCompleted",
					"type": "event"
				},
				{
					"inputs": [
						{
							"internalType": "uint256",
							"name": "_listingId",
							"type": "uint256"
						}
					],
					"name": "cancelPurchase",
					"outputs": [],
					"stateMutability": "nonpayable",
					"type": "function"
				},
				{
					"inputs": [],
					"name": "commissionPercent",
					"outputs": [
						{
							"internalType": "uint256",
							"name": "",
							"type": "uint256"
						}
					],
					"stateMutability": "view",
					"type": "function"
				},
				{
					"inputs": [
						{
							"internalType": "uint256",
							"name": "_listingId",
							"type": "uint256"
						}
					],
					"name": "confirmPurchase",
					"outputs": [],
					"stateMutability": "nonpayable",
					"type": "function"
				},
				{
					"inputs": [
						{
							"internalType": "string",
							"name": "_title",
							"type": "string"
						},
						{
							"internalType": "string",
							"name": "_description",
							"type": "string"
						},
						{
							"internalType": "string",
							"name": "_imageIPFSHash",
							"type": "string"
						},
						{
							"internalType": "uint256",
							"name": "_price",
							"type": "uint256"
						}
					],
					"name": "createListing",
					"outputs": [],
					"stateMutability": "nonpayable",
					"type": "function"
				},
				{
					"inputs": [
						{
							"internalType": "uint256",
							"name": "",
							"type": "uint256"
						}
					],
					"name": "escrowAmount",
					"outputs": [
						{
							"internalType": "uint256",
							"name": "",
							"type": "uint256"
						}
					],
					"stateMutability": "view",
					"type": "function"
				},
				{
					"inputs": [
						{
							"internalType": "uint256",
							"name": "",
							"type": "uint256"
						}
					],
					"name": "escrowBuyer",
					"outputs": [
						{
							"internalType": "address",
							"name": "",
							"type": "address"
						}
					],
					"stateMutability": "view",
					"type": "function"
				},
				{
					"inputs": [],
					"name": "listingCount",
					"outputs": [
						{
							"internalType": "uint256",
							"name": "",
							"type": "uint256"
						}
					],
					"stateMutability": "view",
					"type": "function"
				},
				{
					"inputs": [
						{
							"internalType": "uint256",
							"name": "",
							"type": "uint256"
						}
					],
					"name": "listings",
					"outputs": [
						{
							"internalType": "uint256",
							"name": "id",
							"type": "uint256"
						},
						{
							"internalType": "address",
							"name": "seller",
							"type": "address"
						},
						{
							"internalType": "string",
							"name": "title",
							"type": "string"
						},
						{
							"internalType": "string",
							"name": "description",
							"type": "string"
						},
						{
							"internalType": "string",
							"name": "imageIPFSHash",
							"type": "string"
						},
						{
							"internalType": "uint256",
							"name": "price",
							"type": "uint256"
						},
						{
							"internalType": "bool",
							"name": "sold",
							"type": "bool"
						}
					],
					"stateMutability": "view",
					"type": "function"
				},
				{
					"inputs": [
						{
							"internalType": "uint256",
							"name": "",
							"type": "uint256"
						}
					],
					"name": "orders",
					"outputs": [
						{
							"internalType": "bool",
							"name": "isConfirmed",
							"type": "bool"
						}
					],
					"stateMutability": "view",
					"type": "function"
				},
				{
					"inputs": [],
					"name": "owner",
					"outputs": [
						{
							"internalType": "address",
							"name": "",
							"type": "address"
						}
					],
					"stateMutability": "view",
					"type": "function"
				},
				{
					"inputs": [
						{
							"internalType": "uint256",
							"name": "_listingId",
							"type": "uint256"
						}
					],
					"name": "purchaseListing",
					"outputs": [],
					"stateMutability": "nonpayable",
					"type": "function"
				},
				{
					"inputs": [
						{
							"internalType": "uint256",
							"name": "_newPercent",
							"type": "uint256"
						}
					],
					"name": "setCommissionPercent",
					"outputs": [],
					"stateMutability": "nonpayable",
					"type": "function"
				},
				{
					"inputs": [],
					"name": "totalOrders",
					"outputs": [
						{
							"internalType": "uint256",
							"name": "",
							"type": "uint256"
						}
					],
					"stateMutability": "view",
					"type": "function"
				},
				{
					"inputs": [],
					"name": "usdtToken",
					"outputs": [
						{
							"internalType": "contract IERC20",
							"name": "",
							"type": "address"
						}
					],
					"stateMutability": "view",
					"type": "function"
				},
				{
					"inputs": [],
					"name": "withdrawToken",
					"outputs": [],
					"stateMutability": "nonpayable",
					"type": "function"
				}
			],
			"devdoc": {
				"kind": "dev",
				"methods": {},
				"version": 1
			},
			"evm": {
				"assembly": "    /* \"contracts/Orders.sol\":124:6967  contract Marketplace {... */\n  mstore(0x40, 0x80)\n    /* \"contracts/Orders.sol\":1674:1994  constructor(address _usdtTokenAddress, uint8 _commissionPercent) {... */\n  callvalue\n  dup1\n  iszero\n  tag_1\n  jumpi\n  revert(0x00, 0x00)\ntag_1:\n  pop\n  mload(0x40)\n  sub(codesize, bytecodeSize)\n  dup1\n  bytecodeSize\n  dup4\n  codecopy\n  dup2\n  dup2\n  add\n  0x40\n  mstore\n  dup2\n  add\n  swap1\n  tag_2\n  swap2\n  swap1\n  tag_3\n  jump\t// in\ntag_2:\n    /* \"contracts/Orders.sol\":1758:1768  msg.sender */\n  caller\n    /* \"contracts/Orders.sol\":1750:1755  owner */\n  0x00\n  0x00\n    /* \"contracts/Orders.sol\":1750:1768  owner = msg.sender */\n  0x0100\n  exp\n  dup2\n  sload\n  dup2\n  0xffffffffffffffffffffffffffffffffffffffff\n  mul\n  not\n  and\n  swap1\n  dup4\n  0xffffffffffffffffffffffffffffffffffffffff\n  and\n  mul\n  or\n  swap1\n  sstore\n  pop\n    /* \"contracts/Orders.sol\":1866:1883  _usdtTokenAddress */\n  dup2\n    /* \"contracts/Orders.sol\":1847:1856  usdtToken */\n  0x06\n  0x00\n    /* \"contracts/Orders.sol\":1847:1884  usdtToken = IERC20(_usdtTokenAddress) */\n  0x0100\n  exp\n  dup2\n  sload\n  dup2\n  0xffffffffffffffffffffffffffffffffffffffff\n  mul\n  not\n  and\n  swap1\n  dup4\n  0xffffffffffffffffffffffffffffffffffffffff\n  and\n  mul\n  or\n  swap1\n  sstore\n  pop\n    /* \"contracts/Orders.sol\":1968:1986  _commissionPercent */\n  dup1\n    /* \"contracts/Orders.sol\":1948:1986  commissionPercent = _commissionPercent */\n  0xff\n  and\n    /* \"contracts/Orders.sol\":1948:1965  commissionPercent */\n  0x03\n    /* \"contracts/Orders.sol\":1948:1986  commissionPercent = _commissionPercent */\n  dup2\n  swap1\n  sstore\n  pop\n    /* \"contracts/Orders.sol\":1674:1994  constructor(address _usdtTokenAddress, uint8 _commissionPercent) {... */\n  pop\n  pop\n    /* \"contracts/Orders.sol\":124:6967  contract Marketplace {... */\n  jump(tag_6)\n    /* \"#utility.yul\":88:205   */\ntag_8:\n    /* \"#utility.yul\":197:198   */\n  0x00\n    /* \"#utility.yul\":194:195   */\n  0x00\n    /* \"#utility.yul\":187:199   */\n  revert\n    /* \"#utility.yul\":334:460   */\ntag_10:\n    /* \"#utility.yul\":371:378   */\n  0x00\n    /* \"#utility.yul\":411:453   */\n  0xffffffffffffffffffffffffffffffffffffffff\n    /* \"#utility.yul\":404:409   */\n  dup3\n    /* \"#utility.yul\":400:454   */\n  and\n    /* \"#utility.yul\":389:454   */\n  swap1\n  pop\n    /* \"#utility.yul\":334:460   */\n  swap2\n  swap1\n  pop\n  jump\t// out\n    /* \"#utility.yul\":466:562   */\ntag_11:\n    /* \"#utility.yul\":503:510   */\n  0x00\n    /* \"#utility.yul\":532:556   */\n  tag_23\n    /* \"#utility.yul\":550:555   */\n  dup3\n    /* \"#utility.yul\":532:556   */\n  tag_10\n  jump\t// in\ntag_23:\n    /* \"#utility.yul\":521:556   */\n  swap1\n  pop\n    /* \"#utility.yul\":466:562   */\n  swap2\n  swap1\n  pop\n  jump\t// out\n    /* \"#utility.yul\":568:690   */\ntag_12:\n    /* \"#utility.yul\":641:665   */\n  tag_25\n    /* \"#utility.yul\":659:664   */\n  dup2\n    /* \"#utility.yul\":641:665   */\n  tag_11\n  jump\t// in\ntag_25:\n    /* \"#utility.yul\":634:639   */\n  dup2\n    /* \"#utility.yul\":631:666   */\n  eq\n    /* \"#utility.yul\":621:684   */\n  tag_26\n  jumpi\n    /* \"#utility.yul\":680:681   */\n  0x00\n    /* \"#utility.yul\":677:678   */\n  0x00\n    /* \"#utility.yul\":670:682   */\n  revert\n    /* \"#utility.yul\":621:684   */\ntag_26:\n    /* \"#utility.yul\":568:690   */\n  pop\n  jump\t// out\n    /* \"#utility.yul\":696:839   */\ntag_13:\n    /* \"#utility.yul\":753:758   */\n  0x00\n    /* \"#utility.yul\":784:790   */\n  dup2\n    /* \"#utility.yul\":778:791   */\n  mload\n    /* \"#utility.yul\":769:791   */\n  swap1\n  pop\n    /* \"#utility.yul\":800:833   */\n  tag_28\n    /* \"#utility.yul\":827:832   */\n  dup2\n    /* \"#utility.yul\":800:833   */\n  tag_12\n  jump\t// in\ntag_28:\n    /* \"#utility.yul\":696:839   */\n  swap3\n  swap2\n  pop\n  pop\n  jump\t// out\n    /* \"#utility.yul\":845:931   */\ntag_14:\n    /* \"#utility.yul\":880:887   */\n  0x00\n    /* \"#utility.yul\":920:924   */\n  0xff\n    /* \"#utility.yul\":913:918   */\n  dup3\n    /* \"#utility.yul\":909:925   */\n  and\n    /* \"#utility.yul\":898:925   */\n  swap1\n  pop\n    /* \"#utility.yul\":845:931   */\n  swap2\n  swap1\n  pop\n  jump\t// out\n    /* \"#utility.yul\":937:1055   */\ntag_15:\n    /* \"#utility.yul\":1008:1030   */\n  tag_31\n    /* \"#utility.yul\":1024:1029   */\n  dup2\n    /* \"#utility.yul\":1008:1030   */\n  tag_14\n  jump\t// in\ntag_31:\n    /* \"#utility.yul\":1001:1006   */\n  dup2\n    /* \"#utility.yul\":998:1031   */\n  eq\n    /* \"#utility.yul\":988:1049   */\n  tag_32\n  jumpi\n    /* \"#utility.yul\":1045:1046   */\n  0x00\n    /* \"#utility.yul\":1042:1043   */\n  0x00\n    /* \"#utility.yul\":1035:1047   */\n  revert\n    /* \"#utility.yul\":988:1049   */\ntag_32:\n    /* \"#utility.yul\":937:1055   */\n  pop\n  jump\t// out\n    /* \"#utility.yul\":1061:1200   */\ntag_16:\n    /* \"#utility.yul\":1116:1121   */\n  0x00\n    /* \"#utility.yul\":1147:1153   */\n  dup2\n    /* \"#utility.yul\":1141:1154   */\n  mload\n    /* \"#utility.yul\":1132:1154   */\n  swap1\n  pop\n    /* \"#utility.yul\":1163:1194   */\n  tag_34\n    /* \"#utility.yul\":1188:1193   */\n  dup2\n    /* \"#utility.yul\":1163:1194   */\n  tag_15\n  jump\t// in\ntag_34:\n    /* \"#utility.yul\":1061:1200   */\n  swap3\n  swap2\n  pop\n  pop\n  jump\t// out\n    /* \"#utility.yul\":1206:1709   */\ntag_3:\n    /* \"#utility.yul\":1283:1289   */\n  0x00\n    /* \"#utility.yul\":1291:1297   */\n  0x00\n    /* \"#utility.yul\":1340:1342   */\n  0x40\n    /* \"#utility.yul\":1328:1337   */\n  dup4\n    /* \"#utility.yul\":1319:1326   */\n  dup6\n    /* \"#utility.yul\":1315:1338   */\n  sub\n    /* \"#utility.yul\":1311:1343   */\n  slt\n    /* \"#utility.yul\":1308:1427   */\n  iszero\n  tag_36\n  jumpi\n    /* \"#utility.yul\":1346:1425   */\n  tag_37\n  tag_8\n  jump\t// in\ntag_37:\n    /* \"#utility.yul\":1308:1427   */\ntag_36:\n    /* \"#utility.yul\":1466:1467   */\n  0x00\n    /* \"#utility.yul\":1491:1555   */\n  tag_38\n    /* \"#utility.yul\":1547:1554   */\n  dup6\n    /* \"#utility.yul\":1538:1544   */\n  dup3\n    /* \"#utility.yul\":1527:1536   */\n  dup7\n    /* \"#utility.yul\":1523:1545   */\n  add\n    /* \"#utility.yul\":1491:1555   */\n  tag_13\n  jump\t// in\ntag_38:\n    /* \"#utility.yul\":1481:1555   */\n  swap3\n  pop\n    /* \"#utility.yul\":1437:1565   */\n  pop\n    /* \"#utility.yul\":1604:1606   */\n  0x20\n    /* \"#utility.yul\":1630:1692   */\n  tag_39\n    /* \"#utility.yul\":1684:1691   */\n  dup6\n    /* \"#utility.yul\":1675:1681   */\n  dup3\n    /* \"#utility.yul\":1664:1673   */\n  dup7\n    /* \"#utility.yul\":1660:1682   */\n  add\n    /* \"#utility.yul\":1630:1692   */\n  tag_16\n  jump\t// in\ntag_39:\n    /* \"#utility.yul\":1620:1692   */\n  swap2\n  pop\n    /* \"#utility.yul\":1575:1702   */\n  pop\n    /* \"#utility.yul\":1206:1709   */\n  swap3\n  pop\n  swap3\n  swap1\n  pop\n  jump\t// out\n    /* \"contracts/Orders.sol\":124:6967  contract Marketplace {... */\ntag_6:\n  dataSize(sub_0)\n  dup1\n  dataOffset(sub_0)\n  0x00\n  codecopy\n  0x00\n  return\nstop\n\nsub_0: assembly {\n        /* \"contracts/Orders.sol\":124:6967  contract Marketplace {... */\n      mstore(0x40, 0x80)\n      callvalue\n      dup1\n      iszero\n      tag_1\n      jumpi\n      revert(0x00, 0x00)\n    tag_1:\n      pop\n      jumpi(tag_2, lt(calldatasize, 0x04))\n      shr(0xe0, calldataload(0x00))\n      dup1\n      0x77d3550b\n      gt\n      tag_18\n      jumpi\n      dup1\n      0xa9b07c26\n      gt\n      tag_19\n      jumpi\n      dup1\n      0xa9b07c26\n      eq\n      tag_14\n      jumpi\n      dup1\n      0xc3634ddc\n      eq\n      tag_15\n      jumpi\n      dup1\n      0xca628c78\n      eq\n      tag_16\n      jumpi\n      dup1\n      0xde74e57b\n      eq\n      tag_17\n      jumpi\n      jump(tag_2)\n    tag_19:\n      dup1\n      0x77d3550b\n      eq\n      tag_10\n      jumpi\n      dup1\n      0x8da5cb5b\n      eq\n      tag_11\n      jumpi\n      dup1\n      0xa85c38ef\n      eq\n      tag_12\n      jumpi\n      dup1\n      0xa98ad46c\n      eq\n      tag_13\n      jumpi\n      jump(tag_2)\n    tag_18:\n      dup1\n      0x451d4107\n      gt\n      tag_20\n      jumpi\n      dup1\n      0x451d4107\n      eq\n      tag_6\n      jumpi\n      dup1\n      0x4d24e902\n      eq\n      tag_7\n      jumpi\n      dup1\n      0x5d19e56c\n      eq\n      tag_8\n      jumpi\n      dup1\n      0x6c5d4bec\n      eq\n      tag_9\n      jumpi\n      jump(tag_2)\n    tag_20:\n      dup1\n      0x169d5a7d\n      eq\n      tag_3\n      jumpi\n      dup1\n      0x1d834409\n      eq\n      tag_4\n      jumpi\n      dup1\n      0x404a9ab8\n      eq\n      tag_5\n      jumpi\n    tag_2:\n      revert(0x00, 0x00)\n        /* \"contracts/Orders.sol\":3059:4415  function purchaseListing(uint _listingId) public {... */\n    tag_3:\n      tag_21\n      0x04\n      dup1\n      calldatasize\n      sub\n      dup2\n      add\n      swap1\n      tag_22\n      swap2\n      swap1\n      tag_23\n      jump\t// in\n    tag_22:\n      tag_24\n      jump\t// in\n    tag_21:\n      stop\n        /* \"contracts/Orders.sol\":512:538  uint256 public totalOrders */\n    tag_4:\n      tag_25\n      tag_26\n      jump\t// in\n    tag_25:\n      mload(0x40)\n      tag_27\n      swap2\n      swap1\n      tag_28\n      jump\t// in\n    tag_27:\n      mload(0x40)\n      dup1\n      swap2\n      sub\n      swap1\n      return\n        /* \"contracts/Orders.sol\":4559:4810  function setCommissionPercent(uint _newPercent) public {... */\n    tag_5:\n      tag_29\n      0x04\n      dup1\n      calldatasize\n      sub\n      dup2\n      add\n      swap1\n      tag_30\n      swap2\n      swap1\n      tag_23\n      jump\t// in\n    tag_30:\n      tag_31\n      jump\t// in\n    tag_29:\n      stop\n        /* \"contracts/Orders.sol\":2048:2953  function createListing(... */\n    tag_6:\n      tag_32\n      0x04\n      dup1\n      calldatasize\n      sub\n      dup2\n      add\n      swap1\n      tag_33\n      swap2\n      swap1\n      tag_34\n      jump\t// in\n    tag_33:\n      tag_35\n      jump\t// in\n    tag_32:\n      stop\n        /* \"contracts/Orders.sol\":4943:5737  function confirmPurchase(uint _listingId) public {... */\n    tag_7:\n      tag_36\n      0x04\n      dup1\n      calldatasize\n      sub\n      dup2\n      add\n      swap1\n      tag_37\n      swap2\n      swap1\n      tag_23\n      jump\t// in\n    tag_37:\n      tag_38\n      jump\t// in\n    tag_36:\n      stop\n        /* \"contracts/Orders.sol\":1029:1070  mapping(uint => uint) public escrowAmount */\n    tag_8:\n      tag_39\n      0x04\n      dup1\n      calldatasize\n      sub\n      dup2\n      add\n      swap1\n      tag_40\n      swap2\n      swap1\n      tag_23\n      jump\t// in\n    tag_40:\n      tag_41\n      jump\t// in\n    tag_39:\n      mload(0x40)\n      tag_42\n      swap2\n      swap1\n      tag_28\n      jump\t// in\n    tag_42:\n      mload(0x40)\n      dup1\n      swap2\n      sub\n      swap1\n      return\n        /* \"contracts/Orders.sol\":979:1022  mapping(uint => address) public escrowBuyer */\n    tag_9:\n      tag_43\n      0x04\n      dup1\n      calldatasize\n      sub\n      dup2\n      add\n      swap1\n      tag_44\n      swap2\n      swap1\n      tag_23\n      jump\t// in\n    tag_44:\n      tag_45\n      jump\t// in\n    tag_43:\n      mload(0x40)\n      tag_46\n      swap2\n      swap1\n      tag_47\n      jump\t// in\n    tag_46:\n      mload(0x40)\n      dup1\n      swap2\n      sub\n      swap1\n      return\n        /* \"contracts/Orders.sol\":545:574  uint public commissionPercent */\n    tag_10:\n      tag_48\n      tag_49\n      jump\t// in\n    tag_48:\n      mload(0x40)\n      tag_50\n      swap2\n      swap1\n      tag_28\n      jump\t// in\n    tag_50:\n      mload(0x40)\n      dup1\n      swap2\n      sub\n      swap1\n      return\n        /* \"contracts/Orders.sol\":454:474  address public owner */\n    tag_11:\n      tag_51\n      tag_52\n      jump\t// in\n    tag_51:\n      mload(0x40)\n      tag_53\n      swap2\n      swap1\n      tag_47\n      jump\t// in\n    tag_53:\n      mload(0x40)\n      dup1\n      swap2\n      sub\n      swap1\n      return\n        /* \"contracts/Orders.sol\":666:702  mapping(uint => Order) public orders */\n    tag_12:\n      tag_54\n      0x04\n      dup1\n      calldatasize\n      sub\n      dup2\n      add\n      swap1\n      tag_55\n      swap2\n      swap1\n      tag_23\n      jump\t// in\n    tag_55:\n      tag_56\n      jump\t// in\n    tag_54:\n      mload(0x40)\n      tag_57\n      swap2\n      swap1\n      tag_58\n      jump\t// in\n    tag_57:\n      mload(0x40)\n      dup1\n      swap2\n      sub\n      swap1\n      return\n        /* \"contracts/Orders.sol\":883:906  IERC20 public usdtToken */\n    tag_13:\n      tag_59\n      tag_60\n      jump\t// in\n    tag_59:\n      mload(0x40)\n      tag_61\n      swap2\n      swap1\n      tag_62\n      jump\t// in\n    tag_61:\n      mload(0x40)\n      dup1\n      swap2\n      sub\n      swap1\n      return\n        /* \"contracts/Orders.sol\":481:505  uint public listingCount */\n    tag_14:\n      tag_63\n      tag_64\n      jump\t// in\n    tag_63:\n      mload(0x40)\n      tag_65\n      swap2\n      swap1\n      tag_28\n      jump\t// in\n    tag_65:\n      mload(0x40)\n      dup1\n      swap2\n      sub\n      swap1\n      return\n        /* \"contracts/Orders.sol\":5833:6575  function cancelPurchase(uint _listingId) public {... */\n    tag_15:\n      tag_66\n      0x04\n      dup1\n      calldatasize\n      sub\n      dup2\n      add\n      swap1\n      tag_67\n      swap2\n      swap1\n      tag_23\n      jump\t// in\n    tag_67:\n      tag_68\n      jump\t// in\n    tag_66:\n      stop\n        /* \"contracts/Orders.sol\":6690:6964  function withdrawToken() public onlyOwner {... */\n    tag_16:\n      tag_69\n      tag_70\n      jump\t// in\n    tag_69:\n      stop\n        /* \"contracts/Orders.sol\":619:659  mapping(uint => Listing) public listings */\n    tag_17:\n      tag_71\n      0x04\n      dup1\n      calldatasize\n      sub\n      dup2\n      add\n      swap1\n      tag_72\n      swap2\n      swap1\n      tag_23\n      jump\t// in\n    tag_72:\n      tag_73\n      jump\t// in\n    tag_71:\n      mload(0x40)\n      tag_74\n      swap8\n      swap7\n      swap6\n      swap5\n      swap4\n      swap3\n      swap2\n      swap1\n      tag_75\n      jump\t// in\n    tag_74:\n      mload(0x40)\n      dup1\n      swap2\n      sub\n      swap1\n      return\n        /* \"contracts/Orders.sol\":3059:4415  function purchaseListing(uint _listingId) public {... */\n    tag_24:\n        /* \"contracts/Orders.sol\":3119:3142  Listing storage listing */\n      0x00\n        /* \"contracts/Orders.sol\":3145:3153  listings */\n      0x04\n        /* \"contracts/Orders.sol\":3145:3165  listings[_listingId] */\n      0x00\n        /* \"contracts/Orders.sol\":3154:3164  _listingId */\n      dup4\n        /* \"contracts/Orders.sol\":3145:3165  listings[_listingId] */\n      dup2\n      mstore\n      0x20\n      add\n      swap1\n      dup2\n      mstore\n      0x20\n      add\n      0x00\n      keccak256\n        /* \"contracts/Orders.sol\":3119:3165  Listing storage listing = listings[_listingId] */\n      swap1\n      pop\n        /* \"contracts/Orders.sol\":3197:3198  0 */\n      0x00\n        /* \"contracts/Orders.sol\":3184:3194  _listingId */\n      dup3\n        /* \"contracts/Orders.sol\":3184:3198  _listingId > 0 */\n      gt\n        /* \"contracts/Orders.sol\":3184:3228  _listingId > 0 && _listingId <= listingCount */\n      dup1\n      iszero\n      tag_77\n      jumpi\n      pop\n        /* \"contracts/Orders.sol\":3216:3228  listingCount */\n      sload(0x01)\n        /* \"contracts/Orders.sol\":3202:3212  _listingId */\n      dup3\n        /* \"contracts/Orders.sol\":3202:3228  _listingId <= listingCount */\n      gt\n      iszero\n        /* \"contracts/Orders.sol\":3184:3228  _listingId > 0 && _listingId <= listingCount */\n    tag_77:\n        /* \"contracts/Orders.sol\":3176:3251  require(_listingId > 0 && _listingId <= listingCount, \"Invalid listing ID\") */\n      tag_78\n      jumpi\n      mload(0x40)\n      0x08c379a000000000000000000000000000000000000000000000000000000000\n      dup2\n      mstore\n      0x04\n      add\n      tag_79\n      swap1\n      tag_80\n      jump\t// in\n    tag_79:\n      mload(0x40)\n      dup1\n      swap2\n      sub\n      swap1\n      revert\n    tag_78:\n        /* \"contracts/Orders.sol\":3271:3278  listing */\n      dup1\n        /* \"contracts/Orders.sol\":3271:3283  listing.sold */\n      0x06\n      add\n      0x00\n      swap1\n      sload\n      swap1\n      0x0100\n      exp\n      swap1\n      div\n      0xff\n      and\n        /* \"contracts/Orders.sol\":3270:3283  !listing.sold */\n      iszero\n        /* \"contracts/Orders.sol\":3262:3305  require(!listing.sold, \"Item already sold\") */\n      tag_81\n      jumpi\n      mload(0x40)\n      0x08c379a000000000000000000000000000000000000000000000000000000000\n      dup2\n      mstore\n      0x04\n      add\n      tag_82\n      swap1\n      tag_83\n      jump\t// in\n    tag_82:\n      mload(0x40)\n      dup1\n      swap2\n      sub\n      swap1\n      revert\n    tag_81:\n        /* \"contracts/Orders.sol\":3388:3395  listing */\n      dup1\n        /* \"contracts/Orders.sol\":3388:3401  listing.price */\n      0x05\n      add\n      sload\n        /* \"contracts/Orders.sol\":3338:3347  usdtToken */\n      0x06\n      0x00\n      swap1\n      sload\n      swap1\n      0x0100\n      exp\n      swap1\n      div\n      0xffffffffffffffffffffffffffffffffffffffff\n      and\n        /* \"contracts/Orders.sol\":3338:3357  usdtToken.allowance */\n      0xffffffffffffffffffffffffffffffffffffffff\n      and\n      0xdd62ed3e\n        /* \"contracts/Orders.sol\":3358:3368  msg.sender */\n      caller\n        /* \"contracts/Orders.sol\":3378:3382  this */\n      address\n        /* \"contracts/Orders.sol\":3338:3384  usdtToken.allowance(msg.sender, address(this)) */\n      mload(0x40)\n      dup4\n      0xffffffff\n      and\n      0xe0\n      shl\n      dup2\n      mstore\n      0x04\n      add\n      tag_84\n      swap3\n      swap2\n      swap1\n      tag_85\n      jump\t// in\n    tag_84:\n      0x20\n      mload(0x40)\n      dup1\n      dup4\n      sub\n      dup2\n      dup7\n      gas\n      staticcall\n      iszero\n      dup1\n      iszero\n      tag_87\n      jumpi\n      returndatacopy(0x00, 0x00, returndatasize)\n      revert(0x00, returndatasize)\n    tag_87:\n      pop\n      pop\n      pop\n      pop\n      mload(0x40)\n      returndatasize\n      not(0x1f)\n      0x1f\n      dup3\n      add\n      and\n      dup3\n      add\n      dup1\n      0x40\n      mstore\n      pop\n      dup2\n      add\n      swap1\n      tag_88\n      swap2\n      swap1\n      tag_89\n      jump\t// in\n    tag_88:\n        /* \"contracts/Orders.sol\":3338:3401  usdtToken.allowance(msg.sender, address(this)) >= listing.price */\n      lt\n      iszero\n        /* \"contracts/Orders.sol\":3316:3449  require(... */\n      tag_90\n      jumpi\n      mload(0x40)\n      0x08c379a000000000000000000000000000000000000000000000000000000000\n      dup2\n      mstore\n      0x04\n      add\n      tag_91\n      swap1\n      tag_92\n      jump\t// in\n    tag_91:\n      mload(0x40)\n      dup1\n      swap2\n      sub\n      swap1\n      revert\n    tag_90:\n        /* \"contracts/Orders.sol\":3516:3537  uint commissionAmount */\n      0x00\n        /* \"contracts/Orders.sol\":3578:3581  100 */\n      0x64\n        /* \"contracts/Orders.sol\":3557:3574  commissionPercent */\n      sload(0x03)\n        /* \"contracts/Orders.sol\":3541:3548  listing */\n      dup4\n        /* \"contracts/Orders.sol\":3541:3554  listing.price */\n      0x05\n      add\n      sload\n        /* \"contracts/Orders.sol\":3541:3574  listing.price * commissionPercent */\n      tag_93\n      swap2\n      swap1\n      tag_94\n      jump\t// in\n    tag_93:\n        /* \"contracts/Orders.sol\":3540:3581  (listing.price * commissionPercent) / 100 */\n      tag_95\n      swap2\n      swap1\n      tag_96\n      jump\t// in\n    tag_95:\n        /* \"contracts/Orders.sol\":3516:3581  uint commissionAmount = (listing.price * commissionPercent) / 100 */\n      swap1\n      pop\n        /* \"contracts/Orders.sol\":3592:3609  uint sellerAmount */\n      0x00\n        /* \"contracts/Orders.sol\":3628:3644  commissionAmount */\n      dup2\n        /* \"contracts/Orders.sol\":3612:3619  listing */\n      dup4\n        /* \"contracts/Orders.sol\":3612:3625  listing.price */\n      0x05\n      add\n      sload\n        /* \"contracts/Orders.sol\":3612:3644  listing.price - commissionAmount */\n      tag_97\n      swap2\n      swap1\n      tag_98\n      jump\t// in\n    tag_97:\n        /* \"contracts/Orders.sol\":3592:3644  uint sellerAmount = listing.price - commissionAmount */\n      swap1\n      pop\n        /* \"contracts/Orders.sol\":3758:3770  bool success */\n      0x00\n        /* \"contracts/Orders.sol\":3773:3782  usdtToken */\n      0x06\n      0x00\n      swap1\n      sload\n      swap1\n      0x0100\n      exp\n      swap1\n      div\n      0xffffffffffffffffffffffffffffffffffffffff\n      and\n        /* \"contracts/Orders.sol\":3773:3795  usdtToken.transferFrom */\n      0xffffffffffffffffffffffffffffffffffffffff\n      and\n      0x23b872dd\n        /* \"contracts/Orders.sol\":3796:3806  msg.sender */\n      caller\n        /* \"contracts/Orders.sol\":3816:3820  this */\n      address\n        /* \"contracts/Orders.sol\":3823:3830  listing */\n      dup8\n        /* \"contracts/Orders.sol\":3823:3836  listing.price */\n      0x05\n      add\n      sload\n        /* \"contracts/Orders.sol\":3773:3837  usdtToken.transferFrom(msg.sender, address(this), listing.price) */\n      mload(0x40)\n      dup5\n      0xffffffff\n      and\n      0xe0\n      shl\n      dup2\n      mstore\n      0x04\n      add\n      tag_99\n      swap4\n      swap3\n      swap2\n      swap1\n      tag_100\n      jump\t// in\n    tag_99:\n      0x20\n      mload(0x40)\n      dup1\n      dup4\n      sub\n      dup2\n      0x00\n      dup8\n      gas\n      call\n      iszero\n      dup1\n      iszero\n      tag_102\n      jumpi\n      returndatacopy(0x00, 0x00, returndatasize)\n      revert(0x00, returndatasize)\n    tag_102:\n      pop\n      pop\n      pop\n      pop\n      mload(0x40)\n      returndatasize\n      not(0x1f)\n      0x1f\n      dup3\n      add\n      and\n      dup3\n      add\n      dup1\n      0x40\n      mstore\n      pop\n      dup2\n      add\n      swap1\n      tag_103\n      swap2\n      swap1\n      tag_104\n      jump\t// in\n    tag_103:\n        /* \"contracts/Orders.sol\":3758:3837  bool success = usdtToken.transferFrom(msg.sender, address(this), listing.price) */\n      swap1\n      pop\n        /* \"contracts/Orders.sol\":3856:3863  success */\n      dup1\n        /* \"contracts/Orders.sol\":3848:3883  require(success, \"Transfer failed\") */\n      tag_105\n      jumpi\n      mload(0x40)\n      0x08c379a000000000000000000000000000000000000000000000000000000000\n      dup2\n      mstore\n      0x04\n      add\n      tag_106\n      swap1\n      tag_107\n      jump\t// in\n    tag_106:\n      mload(0x40)\n      dup1\n      swap2\n      sub\n      swap1\n      revert\n    tag_105:\n        /* \"contracts/Orders.sol\":3992:4001  usdtToken */\n      0x06\n      0x00\n      swap1\n      sload\n      swap1\n      0x0100\n      exp\n      swap1\n      div\n      0xffffffffffffffffffffffffffffffffffffffff\n      and\n        /* \"contracts/Orders.sol\":3992:4010  usdtToken.transfer */\n      0xffffffffffffffffffffffffffffffffffffffff\n      and\n      0xa9059cbb\n        /* \"contracts/Orders.sol\":4011:4016  owner */\n      0x00\n      0x00\n      swap1\n      sload\n      swap1\n      0x0100\n      exp\n      swap1\n      div\n      0xffffffffffffffffffffffffffffffffffffffff\n      and\n        /* \"contracts/Orders.sol\":4018:4034  commissionAmount */\n      dup6\n        /* \"contracts/Orders.sol\":3992:4035  usdtToken.transfer(owner, commissionAmount) */\n      mload(0x40)\n      dup4\n      0xffffffff\n      and\n      0xe0\n      shl\n      dup2\n      mstore\n      0x04\n      add\n      tag_108\n      swap3\n      swap2\n      swap1\n      tag_109\n      jump\t// in\n    tag_108:\n      0x20\n      mload(0x40)\n      dup1\n      dup4\n      sub\n      dup2\n      0x00\n      dup8\n      gas\n      call\n      iszero\n      dup1\n      iszero\n      tag_111\n      jumpi\n      returndatacopy(0x00, 0x00, returndatasize)\n      revert(0x00, returndatasize)\n    tag_111:\n      pop\n      pop\n      pop\n      pop\n      mload(0x40)\n      returndatasize\n      not(0x1f)\n      0x1f\n      dup3\n      add\n      and\n      dup3\n      add\n      dup1\n      0x40\n      mstore\n      pop\n      dup2\n      add\n      swap1\n      tag_112\n      swap2\n      swap1\n      tag_104\n      jump\t// in\n    tag_112:\n        /* \"contracts/Orders.sol\":3982:4035  success = usdtToken.transfer(owner, commissionAmount) */\n      swap1\n      pop\n        /* \"contracts/Orders.sol\":4054:4061  success */\n      dup1\n        /* \"contracts/Orders.sol\":4046:4092  require(success, \"Commission transfer failed\") */\n      tag_113\n      jumpi\n      mload(0x40)\n      0x08c379a000000000000000000000000000000000000000000000000000000000\n      dup2\n      mstore\n      0x04\n      add\n      tag_114\n      swap1\n      tag_115\n      jump\t// in\n    tag_114:\n      mload(0x40)\n      dup1\n      swap2\n      sub\n      swap1\n      revert\n    tag_113:\n        /* \"contracts/Orders.sol\":4201:4210  usdtToken */\n      0x06\n      0x00\n      swap1\n      sload\n      swap1\n      0x0100\n      exp\n      swap1\n      div\n      0xffffffffffffffffffffffffffffffffffffffff\n      and\n        /* \"contracts/Orders.sol\":4201:4219  usdtToken.transfer */\n      0xffffffffffffffffffffffffffffffffffffffff\n      and\n      0xa9059cbb\n        /* \"contracts/Orders.sol\":4220:4227  listing */\n      dup6\n        /* \"contracts/Orders.sol\":4220:4234  listing.seller */\n      0x01\n      add\n      0x00\n      swap1\n      sload\n      swap1\n      0x0100\n      exp\n      swap1\n      div\n      0xffffffffffffffffffffffffffffffffffffffff\n      and\n        /* \"contracts/Orders.sol\":4236:4248  sellerAmount */\n      dup5\n        /* \"contracts/Orders.sol\":4201:4249  usdtToken.transfer(listing.seller, sellerAmount) */\n      mload(0x40)\n      dup4\n      0xffffffff\n      and\n      0xe0\n      shl\n      dup2\n      mstore\n      0x04\n      add\n      tag_116\n      swap3\n      swap2\n      swap1\n      tag_109\n      jump\t// in\n    tag_116:\n      0x20\n      mload(0x40)\n      dup1\n      dup4\n      sub\n      dup2\n      0x00\n      dup8\n      gas\n      call\n      iszero\n      dup1\n      iszero\n      tag_118\n      jumpi\n      returndatacopy(0x00, 0x00, returndatasize)\n      revert(0x00, returndatasize)\n    tag_118:\n      pop\n      pop\n      pop\n      pop\n      mload(0x40)\n      returndatasize\n      not(0x1f)\n      0x1f\n      dup3\n      add\n      and\n      dup3\n      add\n      dup1\n      0x40\n      mstore\n      pop\n      dup2\n      add\n      swap1\n      tag_119\n      swap2\n      swap1\n      tag_104\n      jump\t// in\n    tag_119:\n        /* \"contracts/Orders.sol\":4191:4249  success = usdtToken.transfer(listing.seller, sellerAmount) */\n      swap1\n      pop\n        /* \"contracts/Orders.sol\":4268:4275  success */\n      dup1\n        /* \"contracts/Orders.sol\":4260:4301  require(success, \"Seller payment failed\") */\n      tag_120\n      jumpi\n      mload(0x40)\n      0x08c379a000000000000000000000000000000000000000000000000000000000\n      dup2\n      mstore\n      0x04\n      add\n      tag_121\n      swap1\n      tag_122\n      jump\t// in\n    tag_121:\n      mload(0x40)\n      dup1\n      swap2\n      sub\n      swap1\n      revert\n    tag_120:\n        /* \"contracts/Orders.sol\":4329:4333  true */\n      0x01\n        /* \"contracts/Orders.sol\":4314:4321  listing */\n      dup5\n        /* \"contracts/Orders.sol\":4314:4326  listing.sold */\n      0x06\n      add\n      0x00\n        /* \"contracts/Orders.sol\":4314:4333  listing.sold = true */\n      0x0100\n      exp\n      dup2\n      sload\n      dup2\n      0xff\n      mul\n      not\n      and\n      swap1\n      dup4\n      iszero\n      iszero\n      mul\n      or\n      swap1\n      sstore\n      pop\n        /* \"contracts/Orders.sol\":4381:4391  msg.sender */\n      caller\n        /* \"contracts/Orders.sol\":4351:4407  PurchaseCompleted(_listingId, msg.sender, listing.price) */\n      0xffffffffffffffffffffffffffffffffffffffff\n      and\n        /* \"contracts/Orders.sol\":4369:4379  _listingId */\n      dup6\n        /* \"contracts/Orders.sol\":4351:4407  PurchaseCompleted(_listingId, msg.sender, listing.price) */\n      0x3915b4ab4f4d3ad54079c20a1bb2159e875d3d5b673d4dc93986f956d2581189\n        /* \"contracts/Orders.sol\":4393:4400  listing */\n      dup7\n        /* \"contracts/Orders.sol\":4393:4406  listing.price */\n      0x05\n      add\n      sload\n        /* \"contracts/Orders.sol\":4351:4407  PurchaseCompleted(_listingId, msg.sender, listing.price) */\n      mload(0x40)\n      tag_123\n      swap2\n      swap1\n      tag_28\n      jump\t// in\n    tag_123:\n      mload(0x40)\n      dup1\n      swap2\n      sub\n      swap1\n      log3\n        /* \"contracts/Orders.sol\":3108:4415  {... */\n      pop\n      pop\n      pop\n      pop\n        /* \"contracts/Orders.sol\":3059:4415  function purchaseListing(uint _listingId) public {... */\n      pop\n      jump\t// out\n        /* \"contracts/Orders.sol\":512:538  uint256 public totalOrders */\n    tag_26:\n      sload(0x02)\n      dup2\n      jump\t// out\n        /* \"contracts/Orders.sol\":4559:4810  function setCommissionPercent(uint _newPercent) public {... */\n    tag_31:\n        /* \"contracts/Orders.sol\":4647:4652  owner */\n      0x00\n      0x00\n      swap1\n      sload\n      swap1\n      0x0100\n      exp\n      swap1\n      div\n      0xffffffffffffffffffffffffffffffffffffffff\n      and\n        /* \"contracts/Orders.sol\":4633:4652  msg.sender == owner */\n      0xffffffffffffffffffffffffffffffffffffffff\n      and\n        /* \"contracts/Orders.sol\":4633:4643  msg.sender */\n      caller\n        /* \"contracts/Orders.sol\":4633:4652  msg.sender == owner */\n      0xffffffffffffffffffffffffffffffffffffffff\n      and\n      eq\n        /* \"contracts/Orders.sol\":4625:4689  require(msg.sender == owner, \"Only owner can change commission\") */\n      tag_125\n      jumpi\n      mload(0x40)\n      0x08c379a000000000000000000000000000000000000000000000000000000000\n      dup2\n      mstore\n      0x04\n      add\n      tag_126\n      swap1\n      tag_127\n      jump\t// in\n    tag_126:\n      mload(0x40)\n      dup1\n      swap2\n      sub\n      swap1\n      revert\n    tag_125:\n        /* \"contracts/Orders.sol\":4723:4726  100 */\n      0x64\n        /* \"contracts/Orders.sol\":4708:4719  _newPercent */\n      dup2\n        /* \"contracts/Orders.sol\":4708:4726  _newPercent <= 100 */\n      gt\n      iszero\n        /* \"contracts/Orders.sol\":4700:4760  require(_newPercent <= 100, \"Commission cannot exceed 100%\") */\n      tag_128\n      jumpi\n      mload(0x40)\n      0x08c379a000000000000000000000000000000000000000000000000000000000\n      dup2\n      mstore\n      0x04\n      add\n      tag_129\n      swap1\n      tag_130\n      jump\t// in\n    tag_129:\n      mload(0x40)\n      dup1\n      swap2\n      sub\n      swap1\n      revert\n    tag_128:\n        /* \"contracts/Orders.sol\":4791:4802  _newPercent */\n      dup1\n        /* \"contracts/Orders.sol\":4771:4788  commissionPercent */\n      0x03\n        /* \"contracts/Orders.sol\":4771:4802  commissionPercent = _newPercent */\n      dup2\n      swap1\n      sstore\n      pop\n        /* \"contracts/Orders.sol\":4559:4810  function setCommissionPercent(uint _newPercent) public {... */\n      pop\n      jump\t// out\n        /* \"contracts/Orders.sol\":2048:2953  function createListing(... */\n    tag_35:\n        /* \"contracts/Orders.sol\":2242:2243  0 */\n      0x00\n        /* \"contracts/Orders.sol\":2233:2239  _price */\n      dup2\n        /* \"contracts/Orders.sol\":2233:2243  _price > 0 */\n      gt\n        /* \"contracts/Orders.sol\":2225:2276  require(_price > 0, \"Price must be greater than 0\") */\n      tag_132\n      jumpi\n      mload(0x40)\n      0x08c379a000000000000000000000000000000000000000000000000000000000\n      dup2\n      mstore\n      0x04\n      add\n      tag_133\n      swap1\n      tag_134\n      jump\t// in\n    tag_133:\n      mload(0x40)\n      dup1\n      swap2\n      sub\n      swap1\n      revert\n    tag_132:\n        /* \"contracts/Orders.sol\":2318:2319  0 */\n      0x00\n        /* \"contracts/Orders.sol\":2301:2307  _title */\n      dup5\n        /* \"contracts/Orders.sol\":2295:2315  bytes(_title).length */\n      mload\n        /* \"contracts/Orders.sol\":2295:2319  bytes(_title).length > 0 */\n      gt\n        /* \"contracts/Orders.sol\":2287:2345  require(bytes(_title).length > 0, \"Title cannot be empty\") */\n      tag_135\n      jumpi\n      mload(0x40)\n      0x08c379a000000000000000000000000000000000000000000000000000000000\n      dup2\n      mstore\n      0x04\n      add\n      tag_136\n      swap1\n      tag_137\n      jump\t// in\n    tag_136:\n      mload(0x40)\n      dup1\n      swap2\n      sub\n      swap1\n      revert\n    tag_135:\n        /* \"contracts/Orders.sol\":2393:2394  0 */\n      0x00\n        /* \"contracts/Orders.sol\":2370:2382  _description */\n      dup4\n        /* \"contracts/Orders.sol\":2364:2390  bytes(_description).length */\n      mload\n        /* \"contracts/Orders.sol\":2364:2394  bytes(_description).length > 0 */\n      gt\n        /* \"contracts/Orders.sol\":2356:2426  require(bytes(_description).length > 0, \"Description cannot be empty\") */\n      tag_138\n      jumpi\n      mload(0x40)\n      0x08c379a000000000000000000000000000000000000000000000000000000000\n      dup2\n      mstore\n      0x04\n      add\n      tag_139\n      swap1\n      tag_140\n      jump\t// in\n    tag_139:\n      mload(0x40)\n      dup1\n      swap2\n      sub\n      swap1\n      revert\n    tag_138:\n        /* \"contracts/Orders.sol\":2515:2519  1e18 */\n      0x0de0b6b3a7640000\n        /* \"contracts/Orders.sol\":2505:2511  _price */\n      dup2\n        /* \"contracts/Orders.sol\":2505:2519  _price <= 1e18 */\n      gt\n      iszero\n        /* \"contracts/Orders.sol\":2497:2541  require(_price <= 1e18, \"Price is too high\") */\n      tag_141\n      jumpi\n      mload(0x40)\n      0x08c379a000000000000000000000000000000000000000000000000000000000\n      dup2\n      mstore\n      0x04\n      add\n      tag_142\n      swap1\n      tag_143\n      jump\t// in\n    tag_142:\n      mload(0x40)\n      dup1\n      swap2\n      sub\n      swap1\n      revert\n    tag_141:\n        /* \"contracts/Orders.sol\":2633:2645  listingCount */\n      0x01\n      0x00\n        /* \"contracts/Orders.sol\":2633:2647  listingCount++ */\n      dup2\n      sload\n      dup1\n      swap3\n      swap2\n      swap1\n      tag_144\n      swap1\n      tag_145\n      jump\t// in\n    tag_144:\n      swap2\n      swap1\n      pop\n      sstore\n      pop\n        /* \"contracts/Orders.sol\":2683:2871  Listing(... */\n      mload(0x40)\n      dup1\n      0xe0\n      add\n      0x40\n      mstore\n      dup1\n        /* \"contracts/Orders.sol\":2705:2717  listingCount */\n      sload(0x01)\n        /* \"contracts/Orders.sol\":2683:2871  Listing(... */\n      dup2\n      mstore\n      0x20\n      add\n        /* \"contracts/Orders.sol\":2732:2742  msg.sender */\n      caller\n        /* \"contracts/Orders.sol\":2683:2871  Listing(... */\n      0xffffffffffffffffffffffffffffffffffffffff\n      and\n      dup2\n      mstore\n      0x20\n      add\n        /* \"contracts/Orders.sol\":2757:2763  _title */\n      dup6\n        /* \"contracts/Orders.sol\":2683:2871  Listing(... */\n      dup2\n      mstore\n      0x20\n      add\n        /* \"contracts/Orders.sol\":2778:2790  _description */\n      dup5\n        /* \"contracts/Orders.sol\":2683:2871  Listing(... */\n      dup2\n      mstore\n      0x20\n      add\n        /* \"contracts/Orders.sol\":2805:2819  _imageIPFSHash */\n      dup4\n        /* \"contracts/Orders.sol\":2683:2871  Listing(... */\n      dup2\n      mstore\n      0x20\n      add\n        /* \"contracts/Orders.sol\":2834:2840  _price */\n      dup3\n        /* \"contracts/Orders.sol\":2683:2871  Listing(... */\n      dup2\n      mstore\n      0x20\n      add\n        /* \"contracts/Orders.sol\":2855:2860  false */\n      0x00\n        /* \"contracts/Orders.sol\":2683:2871  Listing(... */\n      iszero\n      iszero\n      dup2\n      mstore\n      pop\n        /* \"contracts/Orders.sol\":2658:2666  listings */\n      0x04\n        /* \"contracts/Orders.sol\":2658:2680  listings[listingCount] */\n      0x00\n        /* \"contracts/Orders.sol\":2667:2679  listingCount */\n      sload(0x01)\n        /* \"contracts/Orders.sol\":2658:2680  listings[listingCount] */\n      dup2\n      mstore\n      0x20\n      add\n      swap1\n      dup2\n      mstore\n      0x20\n      add\n      0x00\n      keccak256\n        /* \"contracts/Orders.sol\":2658:2871  listings[listingCount] = Listing(... */\n      0x00\n      dup3\n      add\n      mload\n      dup2\n      0x00\n      add\n      sstore\n      0x20\n      dup3\n      add\n      mload\n      dup2\n      0x01\n      add\n      exp(0x0100, 0x00)\n      dup2\n      sload\n      dup2\n      0xffffffffffffffffffffffffffffffffffffffff\n      mul\n      not\n      and\n      swap1\n      dup4\n      0xffffffffffffffffffffffffffffffffffffffff\n      and\n      mul\n      or\n      swap1\n      sstore\n      pop\n      0x40\n      dup3\n      add\n      mload\n      dup2\n      0x02\n      add\n      swap1\n      dup2\n      tag_146\n      swap2\n      swap1\n      tag_147\n      jump\t// in\n    tag_146:\n      pop\n      0x60\n      dup3\n      add\n      mload\n      dup2\n      0x03\n      add\n      swap1\n      dup2\n      tag_148\n      swap2\n      swap1\n      tag_147\n      jump\t// in\n    tag_148:\n      pop\n      0x80\n      dup3\n      add\n      mload\n      dup2\n      0x04\n      add\n      swap1\n      dup2\n      tag_149\n      swap2\n      swap1\n      tag_147\n      jump\t// in\n    tag_149:\n      pop\n      0xa0\n      dup3\n      add\n      mload\n      dup2\n      0x05\n      add\n      sstore\n      0xc0\n      dup3\n      add\n      mload\n      dup2\n      0x06\n      add\n      exp(0x0100, 0x00)\n      dup2\n      sload\n      dup2\n      0xff\n      mul\n      not\n      and\n      swap1\n      dup4\n      iszero\n      iszero\n      mul\n      or\n      swap1\n      sstore\n      pop\n      swap1\n      pop\n      pop\n        /* \"contracts/Orders.sol\":2918:2928  msg.sender */\n      caller\n        /* \"contracts/Orders.sol\":2889:2945  ListingCreated(listingCount, msg.sender, _title, _price) */\n      0xffffffffffffffffffffffffffffffffffffffff\n      and\n        /* \"contracts/Orders.sol\":2904:2916  listingCount */\n      sload(0x01)\n        /* \"contracts/Orders.sol\":2889:2945  ListingCreated(listingCount, msg.sender, _title, _price) */\n      0x6b7a3194eaddce2be5200d10785a15a5cd14a78b827cf902f4d23c35e6bd73f8\n        /* \"contracts/Orders.sol\":2930:2936  _title */\n      dup7\n        /* \"contracts/Orders.sol\":2938:2944  _price */\n      dup5\n        /* \"contracts/Orders.sol\":2889:2945  ListingCreated(listingCount, msg.sender, _title, _price) */\n      mload(0x40)\n      tag_150\n      swap3\n      swap2\n      swap1\n      tag_151\n      jump\t// in\n    tag_150:\n      mload(0x40)\n      dup1\n      swap2\n      sub\n      swap1\n      log3\n        /* \"contracts/Orders.sol\":2048:2953  function createListing(... */\n      pop\n      pop\n      pop\n      pop\n      jump\t// out\n        /* \"contracts/Orders.sol\":4943:5737  function confirmPurchase(uint _listingId) public {... */\n    tag_38:\n        /* \"contracts/Orders.sol\":5052:5062  msg.sender */\n      caller\n        /* \"contracts/Orders.sol\":5025:5062  escrowBuyer[_listingId] == msg.sender */\n      0xffffffffffffffffffffffffffffffffffffffff\n      and\n        /* \"contracts/Orders.sol\":5025:5036  escrowBuyer */\n      0x07\n        /* \"contracts/Orders.sol\":5025:5048  escrowBuyer[_listingId] */\n      0x00\n        /* \"contracts/Orders.sol\":5037:5047  _listingId */\n      dup4\n        /* \"contracts/Orders.sol\":5025:5048  escrowBuyer[_listingId] */\n      dup2\n      mstore\n      0x20\n      add\n      swap1\n      dup2\n      mstore\n      0x20\n      add\n      0x00\n      keccak256\n      0x00\n      swap1\n      sload\n      swap1\n      0x0100\n      exp\n      swap1\n      div\n      0xffffffffffffffffffffffffffffffffffffffff\n      and\n        /* \"contracts/Orders.sol\":5025:5062  escrowBuyer[_listingId] == msg.sender */\n      0xffffffffffffffffffffffffffffffffffffffff\n      and\n      eq\n        /* \"contracts/Orders.sol\":5003:5121  require(... */\n      tag_153\n      jumpi\n      mload(0x40)\n      0x08c379a000000000000000000000000000000000000000000000000000000000\n      dup2\n      mstore\n      0x04\n      add\n      tag_154\n      swap1\n      tag_155\n      jump\t// in\n    tag_154:\n      mload(0x40)\n      dup1\n      swap2\n      sub\n      swap1\n      revert\n    tag_153:\n        /* \"contracts/Orders.sol\":5167:5168  0 */\n      0x00\n        /* \"contracts/Orders.sol\":5140:5152  escrowAmount */\n      0x08\n        /* \"contracts/Orders.sol\":5140:5164  escrowAmount[_listingId] */\n      0x00\n        /* \"contracts/Orders.sol\":5153:5163  _listingId */\n      dup4\n        /* \"contracts/Orders.sol\":5140:5164  escrowAmount[_listingId] */\n      dup2\n      mstore\n      0x20\n      add\n      swap1\n      dup2\n      mstore\n      0x20\n      add\n      0x00\n      keccak256\n      sload\n        /* \"contracts/Orders.sol\":5140:5168  escrowAmount[_listingId] > 0 */\n      gt\n        /* \"contracts/Orders.sol\":5132:5191  require(escrowAmount[_listingId] > 0, \"No funds in escrow\") */\n      tag_156\n      jumpi\n      mload(0x40)\n      0x08c379a000000000000000000000000000000000000000000000000000000000\n      dup2\n      mstore\n      0x04\n      add\n      tag_157\n      swap1\n      tag_158\n      jump\t// in\n    tag_157:\n      mload(0x40)\n      dup1\n      swap2\n      sub\n      swap1\n      revert\n    tag_156:\n        /* \"contracts/Orders.sol\":5210:5218  listings */\n      0x04\n        /* \"contracts/Orders.sol\":5210:5230  listings[_listingId] */\n      0x00\n        /* \"contracts/Orders.sol\":5219:5229  _listingId */\n      dup3\n        /* \"contracts/Orders.sol\":5210:5230  listings[_listingId] */\n      dup2\n      mstore\n      0x20\n      add\n      swap1\n      dup2\n      mstore\n      0x20\n      add\n      0x00\n      keccak256\n        /* \"contracts/Orders.sol\":5210:5235  listings[_listingId].sold */\n      0x06\n      add\n      0x00\n      swap1\n      sload\n      swap1\n      0x0100\n      exp\n      swap1\n      div\n      0xff\n      and\n        /* \"contracts/Orders.sol\":5202:5263  require(listings[_listingId].sold, \"Listing is not sold yet\") */\n      tag_159\n      jumpi\n      mload(0x40)\n      0x08c379a000000000000000000000000000000000000000000000000000000000\n      dup2\n      mstore\n      0x04\n      add\n      tag_160\n      swap1\n      tag_161\n      jump\t// in\n    tag_160:\n      mload(0x40)\n      dup1\n      swap2\n      sub\n      swap1\n      revert\n    tag_159:\n        /* \"contracts/Orders.sol\":5276:5299  Listing storage listing */\n      0x00\n        /* \"contracts/Orders.sol\":5302:5310  listings */\n      0x04\n        /* \"contracts/Orders.sol\":5302:5322  listings[_listingId] */\n      0x00\n        /* \"contracts/Orders.sol\":5311:5321  _listingId */\n      dup4\n        /* \"contracts/Orders.sol\":5302:5322  listings[_listingId] */\n      dup2\n      mstore\n      0x20\n      add\n      swap1\n      dup2\n      mstore\n      0x20\n      add\n      0x00\n      keccak256\n        /* \"contracts/Orders.sol\":5276:5322  Listing storage listing = listings[_listingId] */\n      swap1\n      pop\n        /* \"contracts/Orders.sol\":5379:5391  bool success */\n      0x00\n        /* \"contracts/Orders.sol\":5394:5403  usdtToken */\n      0x06\n      0x00\n      swap1\n      sload\n      swap1\n      0x0100\n      exp\n      swap1\n      div\n      0xffffffffffffffffffffffffffffffffffffffff\n      and\n        /* \"contracts/Orders.sol\":5394:5412  usdtToken.transfer */\n      0xffffffffffffffffffffffffffffffffffffffff\n      and\n      0xa9059cbb\n        /* \"contracts/Orders.sol\":5413:5420  listing */\n      dup4\n        /* \"contracts/Orders.sol\":5413:5427  listing.seller */\n      0x01\n      add\n      0x00\n      swap1\n      sload\n      swap1\n      0x0100\n      exp\n      swap1\n      div\n      0xffffffffffffffffffffffffffffffffffffffff\n      and\n        /* \"contracts/Orders.sol\":5429:5441  escrowAmount */\n      0x08\n        /* \"contracts/Orders.sol\":5429:5453  escrowAmount[_listingId] */\n      0x00\n        /* \"contracts/Orders.sol\":5442:5452  _listingId */\n      dup8\n        /* \"contracts/Orders.sol\":5429:5453  escrowAmount[_listingId] */\n      dup2\n      mstore\n      0x20\n      add\n      swap1\n      dup2\n      mstore\n      0x20\n      add\n      0x00\n      keccak256\n      sload\n        /* \"contracts/Orders.sol\":5394:5454  usdtToken.transfer(listing.seller, escrowAmount[_listingId]) */\n      mload(0x40)\n      dup4\n      0xffffffff\n      and\n      0xe0\n      shl\n      dup2\n      mstore\n      0x04\n      add\n      tag_162\n      swap3\n      swap2\n      swap1\n      tag_109\n      jump\t// in\n    tag_162:\n      0x20\n      mload(0x40)\n      dup1\n      dup4\n      sub\n      dup2\n      0x00\n      dup8\n      gas\n      call\n      iszero\n      dup1\n      iszero\n      tag_164\n      jumpi\n      returndatacopy(0x00, 0x00, returndatasize)\n      revert(0x00, returndatasize)\n    tag_164:\n      pop\n      pop\n      pop\n      pop\n      mload(0x40)\n      returndatasize\n      not(0x1f)\n      0x1f\n      dup3\n      add\n      and\n      dup3\n      add\n      dup1\n      0x40\n      mstore\n      pop\n      dup2\n      add\n      swap1\n      tag_165\n      swap2\n      swap1\n      tag_104\n      jump\t// in\n    tag_165:\n        /* \"contracts/Orders.sol\":5379:5454  bool success = usdtToken.transfer(listing.seller, escrowAmount[_listingId]) */\n      swap1\n      pop\n        /* \"contracts/Orders.sol\":5473:5480  success */\n      dup1\n        /* \"contracts/Orders.sol\":5465:5515  require(success, \"USDT transfer to seller failed\") */\n      tag_166\n      jumpi\n      mload(0x40)\n      0x08c379a000000000000000000000000000000000000000000000000000000000\n      dup2\n      mstore\n      0x04\n      add\n      tag_167\n      swap1\n      tag_168\n      jump\t// in\n    tag_167:\n      mload(0x40)\n      dup1\n      swap2\n      sub\n      swap1\n      revert\n    tag_166:\n        /* \"contracts/Orders.sol\":5595:5596  0 */\n      0x00\n        /* \"contracts/Orders.sol\":5568:5580  escrowAmount */\n      0x08\n        /* \"contracts/Orders.sol\":5568:5592  escrowAmount[_listingId] */\n      0x00\n        /* \"contracts/Orders.sol\":5581:5591  _listingId */\n      dup6\n        /* \"contracts/Orders.sol\":5568:5592  escrowAmount[_listingId] */\n      dup2\n      mstore\n      0x20\n      add\n      swap1\n      dup2\n      mstore\n      0x20\n      add\n      0x00\n      keccak256\n        /* \"contracts/Orders.sol\":5568:5596  escrowAmount[_listingId] = 0 */\n      dup2\n      swap1\n      sstore\n      pop\n        /* \"contracts/Orders.sol\":5641:5642  0 */\n      0x00\n        /* \"contracts/Orders.sol\":5607:5618  escrowBuyer */\n      0x07\n        /* \"contracts/Orders.sol\":5607:5630  escrowBuyer[_listingId] */\n      0x00\n        /* \"contracts/Orders.sol\":5619:5629  _listingId */\n      dup6\n        /* \"contracts/Orders.sol\":5607:5630  escrowBuyer[_listingId] */\n      dup2\n      mstore\n      0x20\n      add\n      swap1\n      dup2\n      mstore\n      0x20\n      add\n      0x00\n      keccak256\n      0x00\n        /* \"contracts/Orders.sol\":5607:5643  escrowBuyer[_listingId] = address(0) */\n      0x0100\n      exp\n      dup2\n      sload\n      dup2\n      0xffffffffffffffffffffffffffffffffffffffff\n      mul\n      not\n      and\n      swap1\n      dup4\n      0xffffffffffffffffffffffffffffffffffffffff\n      and\n      mul\n      or\n      swap1\n      sstore\n      pop\n        /* \"contracts/Orders.sol\":5688:5695  listing */\n      dup2\n        /* \"contracts/Orders.sol\":5688:5702  listing.seller */\n      0x01\n      add\n      0x00\n      swap1\n      sload\n      swap1\n      0x0100\n      exp\n      swap1\n      div\n      0xffffffffffffffffffffffffffffffffffffffff\n      and\n        /* \"contracts/Orders.sol\":5661:5729  EscrowReleased(_listingId, listing.seller, escrowAmount[_listingId]) */\n      0xffffffffffffffffffffffffffffffffffffffff\n      and\n        /* \"contracts/Orders.sol\":5676:5686  _listingId */\n      dup4\n        /* \"contracts/Orders.sol\":5661:5729  EscrowReleased(_listingId, listing.seller, escrowAmount[_listingId]) */\n      0x6244ed823ca6be0f11bc890c3fafcf3c29cb23420c14243642e930b5e07e6d0a\n        /* \"contracts/Orders.sol\":5704:5716  escrowAmount */\n      0x08\n        /* \"contracts/Orders.sol\":5704:5728  escrowAmount[_listingId] */\n      0x00\n        /* \"contracts/Orders.sol\":5717:5727  _listingId */\n      dup8\n        /* \"contracts/Orders.sol\":5704:5728  escrowAmount[_listingId] */\n      dup2\n      mstore\n      0x20\n      add\n      swap1\n      dup2\n      mstore\n      0x20\n      add\n      0x00\n      keccak256\n      sload\n        /* \"contracts/Orders.sol\":5661:5729  EscrowReleased(_listingId, listing.seller, escrowAmount[_listingId]) */\n      mload(0x40)\n      tag_169\n      swap2\n      swap1\n      tag_28\n      jump\t// in\n    tag_169:\n      mload(0x40)\n      dup1\n      swap2\n      sub\n      swap1\n      log3\n        /* \"contracts/Orders.sol\":4992:5737  {... */\n      pop\n      pop\n        /* \"contracts/Orders.sol\":4943:5737  function confirmPurchase(uint _listingId) public {... */\n      pop\n      jump\t// out\n        /* \"contracts/Orders.sol\":1029:1070  mapping(uint => uint) public escrowAmount */\n    tag_41:\n      mstore(0x20, 0x08)\n      dup1\n      0x00\n      mstore\n      keccak256(0x00, 0x40)\n      0x00\n      swap2\n      pop\n      swap1\n      pop\n      sload\n      dup2\n      jump\t// out\n        /* \"contracts/Orders.sol\":979:1022  mapping(uint => address) public escrowBuyer */\n    tag_45:\n      mstore(0x20, 0x07)\n      dup1\n      0x00\n      mstore\n      keccak256(0x00, 0x40)\n      0x00\n      swap2\n      pop\n      sload\n      swap1\n      0x0100\n      exp\n      swap1\n      div\n      0xffffffffffffffffffffffffffffffffffffffff\n      and\n      dup2\n      jump\t// out\n        /* \"contracts/Orders.sol\":545:574  uint public commissionPercent */\n    tag_49:\n      sload(0x03)\n      dup2\n      jump\t// out\n        /* \"contracts/Orders.sol\":454:474  address public owner */\n    tag_52:\n      0x00\n      0x00\n      swap1\n      sload\n      swap1\n      0x0100\n      exp\n      swap1\n      div\n      0xffffffffffffffffffffffffffffffffffffffff\n      and\n      dup2\n      jump\t// out\n        /* \"contracts/Orders.sol\":666:702  mapping(uint => Order) public orders */\n    tag_56:\n      mstore(0x20, 0x05)\n      dup1\n      0x00\n      mstore\n      keccak256(0x00, 0x40)\n      0x00\n      swap2\n      pop\n      swap1\n      pop\n      dup1\n      0x00\n      add\n      0x00\n      swap1\n      sload\n      swap1\n      0x0100\n      exp\n      swap1\n      div\n      0xff\n      and\n      swap1\n      pop\n      dup2\n      jump\t// out\n        /* \"contracts/Orders.sol\":883:906  IERC20 public usdtToken */\n    tag_60:\n      0x06\n      0x00\n      swap1\n      sload\n      swap1\n      0x0100\n      exp\n      swap1\n      div\n      0xffffffffffffffffffffffffffffffffffffffff\n      and\n      dup2\n      jump\t// out\n        /* \"contracts/Orders.sol\":481:505  uint public listingCount */\n    tag_64:\n      sload(0x01)\n      dup2\n      jump\t// out\n        /* \"contracts/Orders.sol\":5833:6575  function cancelPurchase(uint _listingId) public {... */\n    tag_68:\n        /* \"contracts/Orders.sol\":5927:5937  msg.sender */\n      caller\n        /* \"contracts/Orders.sol\":5900:5937  escrowBuyer[_listingId] == msg.sender */\n      0xffffffffffffffffffffffffffffffffffffffff\n      and\n        /* \"contracts/Orders.sol\":5900:5911  escrowBuyer */\n      0x07\n        /* \"contracts/Orders.sol\":5900:5923  escrowBuyer[_listingId] */\n      0x00\n        /* \"contracts/Orders.sol\":5912:5922  _listingId */\n      dup4\n        /* \"contracts/Orders.sol\":5900:5923  escrowBuyer[_listingId] */\n      dup2\n      mstore\n      0x20\n      add\n      swap1\n      dup2\n      mstore\n      0x20\n      add\n      0x00\n      keccak256\n      0x00\n      swap1\n      sload\n      swap1\n      0x0100\n      exp\n      swap1\n      div\n      0xffffffffffffffffffffffffffffffffffffffff\n      and\n        /* \"contracts/Orders.sol\":5900:5937  escrowBuyer[_listingId] == msg.sender */\n      0xffffffffffffffffffffffffffffffffffffffff\n      and\n      eq\n        /* \"contracts/Orders.sol\":5892:5967  require(escrowBuyer[_listingId] == msg.sender, \"Only the buyer can cancel\") */\n      tag_171\n      jumpi\n      mload(0x40)\n      0x08c379a000000000000000000000000000000000000000000000000000000000\n      dup2\n      mstore\n      0x04\n      add\n      tag_172\n      swap1\n      tag_173\n      jump\t// in\n    tag_172:\n      mload(0x40)\n      dup1\n      swap2\n      sub\n      swap1\n      revert\n    tag_171:\n        /* \"contracts/Orders.sol\":6013:6014  0 */\n      0x00\n        /* \"contracts/Orders.sol\":5986:5998  escrowAmount */\n      0x08\n        /* \"contracts/Orders.sol\":5986:6010  escrowAmount[_listingId] */\n      0x00\n        /* \"contracts/Orders.sol\":5999:6009  _listingId */\n      dup4\n        /* \"contracts/Orders.sol\":5986:6010  escrowAmount[_listingId] */\n      dup2\n      mstore\n      0x20\n      add\n      swap1\n      dup2\n      mstore\n      0x20\n      add\n      0x00\n      keccak256\n      sload\n        /* \"contracts/Orders.sol\":5986:6014  escrowAmount[_listingId] > 0 */\n      gt\n        /* \"contracts/Orders.sol\":5978:6037  require(escrowAmount[_listingId] > 0, \"No funds in escrow\") */\n      tag_174\n      jumpi\n      mload(0x40)\n      0x08c379a000000000000000000000000000000000000000000000000000000000\n      dup2\n      mstore\n      0x04\n      add\n      tag_175\n      swap1\n      tag_158\n      jump\t// in\n    tag_175:\n      mload(0x40)\n      dup1\n      swap2\n      sub\n      swap1\n      revert\n    tag_174:\n        /* \"contracts/Orders.sol\":6057:6065  listings */\n      0x04\n        /* \"contracts/Orders.sol\":6057:6077  listings[_listingId] */\n      0x00\n        /* \"contracts/Orders.sol\":6066:6076  _listingId */\n      dup3\n        /* \"contracts/Orders.sol\":6057:6077  listings[_listingId] */\n      dup2\n      mstore\n      0x20\n      add\n      swap1\n      dup2\n      mstore\n      0x20\n      add\n      0x00\n      keccak256\n        /* \"contracts/Orders.sol\":6057:6082  listings[_listingId].sold */\n      0x06\n      add\n      0x00\n      swap1\n      sload\n      swap1\n      0x0100\n      exp\n      swap1\n      div\n      0xff\n      and\n        /* \"contracts/Orders.sol\":6056:6082  !listings[_listingId].sold */\n      iszero\n        /* \"contracts/Orders.sol\":6048:6119  require(!listings[_listingId].sold, \"Cannot cancel, item already sold\") */\n      tag_176\n      jumpi\n      mload(0x40)\n      0x08c379a000000000000000000000000000000000000000000000000000000000\n      dup2\n      mstore\n      0x04\n      add\n      tag_177\n      swap1\n      tag_178\n      jump\t// in\n    tag_177:\n      mload(0x40)\n      dup1\n      swap2\n      sub\n      swap1\n      revert\n    tag_176:\n        /* \"contracts/Orders.sol\":6132:6143  uint amount */\n      0x00\n        /* \"contracts/Orders.sol\":6146:6158  escrowAmount */\n      0x08\n        /* \"contracts/Orders.sol\":6146:6170  escrowAmount[_listingId] */\n      0x00\n        /* \"contracts/Orders.sol\":6159:6169  _listingId */\n      dup4\n        /* \"contracts/Orders.sol\":6146:6170  escrowAmount[_listingId] */\n      dup2\n      mstore\n      0x20\n      add\n      swap1\n      dup2\n      mstore\n      0x20\n      add\n      0x00\n      keccak256\n      sload\n        /* \"contracts/Orders.sol\":6132:6170  uint amount = escrowAmount[_listingId] */\n      swap1\n      pop\n        /* \"contracts/Orders.sol\":6246:6258  bool success */\n      0x00\n        /* \"contracts/Orders.sol\":6261:6270  usdtToken */\n      0x06\n      0x00\n      swap1\n      sload\n      swap1\n      0x0100\n      exp\n      swap1\n      div\n      0xffffffffffffffffffffffffffffffffffffffff\n      and\n        /* \"contracts/Orders.sol\":6261:6279  usdtToken.transfer */\n      0xffffffffffffffffffffffffffffffffffffffff\n      and\n      0xa9059cbb\n        /* \"contracts/Orders.sol\":6280:6291  escrowBuyer */\n      0x07\n        /* \"contracts/Orders.sol\":6280:6303  escrowBuyer[_listingId] */\n      0x00\n        /* \"contracts/Orders.sol\":6292:6302  _listingId */\n      dup7\n        /* \"contracts/Orders.sol\":6280:6303  escrowBuyer[_listingId] */\n      dup2\n      mstore\n      0x20\n      add\n      swap1\n      dup2\n      mstore\n      0x20\n      add\n      0x00\n      keccak256\n      0x00\n      swap1\n      sload\n      swap1\n      0x0100\n      exp\n      swap1\n      div\n      0xffffffffffffffffffffffffffffffffffffffff\n      and\n        /* \"contracts/Orders.sol\":6305:6311  amount */\n      dup5\n        /* \"contracts/Orders.sol\":6261:6312  usdtToken.transfer(escrowBuyer[_listingId], amount) */\n      mload(0x40)\n      dup4\n      0xffffffff\n      and\n      0xe0\n      shl\n      dup2\n      mstore\n      0x04\n      add\n      tag_179\n      swap3\n      swap2\n      swap1\n      tag_109\n      jump\t// in\n    tag_179:\n      0x20\n      mload(0x40)\n      dup1\n      dup4\n      sub\n      dup2\n      0x00\n      dup8\n      gas\n      call\n      iszero\n      dup1\n      iszero\n      tag_181\n      jumpi\n      returndatacopy(0x00, 0x00, returndatasize)\n      revert(0x00, returndatasize)\n    tag_181:\n      pop\n      pop\n      pop\n      pop\n      mload(0x40)\n      returndatasize\n      not(0x1f)\n      0x1f\n      dup3\n      add\n      and\n      dup3\n      add\n      dup1\n      0x40\n      mstore\n      pop\n      dup2\n      add\n      swap1\n      tag_182\n      swap2\n      swap1\n      tag_104\n      jump\t// in\n    tag_182:\n        /* \"contracts/Orders.sol\":6246:6312  bool success = usdtToken.transfer(escrowBuyer[_listingId], amount) */\n      swap1\n      pop\n        /* \"contracts/Orders.sol\":6331:6338  success */\n      dup1\n        /* \"contracts/Orders.sol\":6323:6372  require(success, \"USDT transfer to buyer failed\") */\n      tag_183\n      jumpi\n      mload(0x40)\n      0x08c379a000000000000000000000000000000000000000000000000000000000\n      dup2\n      mstore\n      0x04\n      add\n      tag_184\n      swap1\n      tag_185\n      jump\t// in\n    tag_184:\n      mload(0x40)\n      dup1\n      swap2\n      sub\n      swap1\n      revert\n    tag_183:\n        /* \"contracts/Orders.sol\":6452:6453  0 */\n      0x00\n        /* \"contracts/Orders.sol\":6425:6437  escrowAmount */\n      0x08\n        /* \"contracts/Orders.sol\":6425:6449  escrowAmount[_listingId] */\n      0x00\n        /* \"contracts/Orders.sol\":6438:6448  _listingId */\n      dup6\n        /* \"contracts/Orders.sol\":6425:6449  escrowAmount[_listingId] */\n      dup2\n      mstore\n      0x20\n      add\n      swap1\n      dup2\n      mstore\n      0x20\n      add\n      0x00\n      keccak256\n        /* \"contracts/Orders.sol\":6425:6453  escrowAmount[_listingId] = 0 */\n      dup2\n      swap1\n      sstore\n      pop\n        /* \"contracts/Orders.sol\":6498:6499  0 */\n      0x00\n        /* \"contracts/Orders.sol\":6464:6475  escrowBuyer */\n      0x07\n        /* \"contracts/Orders.sol\":6464:6487  escrowBuyer[_listingId] */\n      0x00\n        /* \"contracts/Orders.sol\":6476:6486  _listingId */\n      dup6\n        /* \"contracts/Orders.sol\":6464:6487  escrowBuyer[_listingId] */\n      dup2\n      mstore\n      0x20\n      add\n      swap1\n      dup2\n      mstore\n      0x20\n      add\n      0x00\n      keccak256\n      0x00\n        /* \"contracts/Orders.sol\":6464:6500  escrowBuyer[_listingId] = address(0) */\n      0x0100\n      exp\n      dup2\n      sload\n      dup2\n      0xffffffffffffffffffffffffffffffffffffffff\n      mul\n      not\n      and\n      swap1\n      dup4\n      0xffffffffffffffffffffffffffffffffffffffff\n      and\n      mul\n      or\n      swap1\n      sstore\n      pop\n        /* \"contracts/Orders.sol\":6548:6558  msg.sender */\n      caller\n        /* \"contracts/Orders.sol\":6518:6567  PurchaseCancelled(_listingId, msg.sender, amount) */\n      0xffffffffffffffffffffffffffffffffffffffff\n      and\n        /* \"contracts/Orders.sol\":6536:6546  _listingId */\n      dup4\n        /* \"contracts/Orders.sol\":6518:6567  PurchaseCancelled(_listingId, msg.sender, amount) */\n      0x83559618a86943fdd7e8104a56312f188df6d0e149a9868b514871d05ac785fb\n        /* \"contracts/Orders.sol\":6560:6566  amount */\n      dup5\n        /* \"contracts/Orders.sol\":6518:6567  PurchaseCancelled(_listingId, msg.sender, amount) */\n      mload(0x40)\n      tag_186\n      swap2\n      swap1\n      tag_28\n      jump\t// in\n    tag_186:\n      mload(0x40)\n      dup1\n      swap2\n      sub\n      swap1\n      log3\n        /* \"contracts/Orders.sol\":5881:6575  {... */\n      pop\n      pop\n        /* \"contracts/Orders.sol\":5833:6575  function cancelPurchase(uint _listingId) public {... */\n      pop\n      jump\t// out\n        /* \"contracts/Orders.sol\":6690:6964  function withdrawToken() public onlyOwner {... */\n    tag_70:\n        /* \"contracts/Orders.sol\":1598:1603  owner */\n      0x00\n      0x00\n      swap1\n      sload\n      swap1\n      0x0100\n      exp\n      swap1\n      div\n      0xffffffffffffffffffffffffffffffffffffffff\n      and\n        /* \"contracts/Orders.sol\":1584:1603  msg.sender == owner */\n      0xffffffffffffffffffffffffffffffffffffffff\n      and\n        /* \"contracts/Orders.sol\":1584:1594  msg.sender */\n      caller\n        /* \"contracts/Orders.sol\":1584:1603  msg.sender == owner */\n      0xffffffffffffffffffffffffffffffffffffffff\n      and\n      eq\n        /* \"contracts/Orders.sol\":1576:1646  require(msg.sender == owner, \"Only the owner can perform this action\") */\n      tag_188\n      jumpi\n      mload(0x40)\n      0x08c379a000000000000000000000000000000000000000000000000000000000\n      dup2\n      mstore\n      0x04\n      add\n      tag_189\n      swap1\n      tag_190\n      jump\t// in\n    tag_189:\n      mload(0x40)\n      dup1\n      swap2\n      sub\n      swap1\n      revert\n    tag_188:\n        /* \"contracts/Orders.sol\":6743:6755  uint balance */\n      0x00\n        /* \"contracts/Orders.sol\":6758:6767  usdtToken */\n      0x06\n      0x00\n      swap1\n      sload\n      swap1\n      0x0100\n      exp\n      swap1\n      div\n      0xffffffffffffffffffffffffffffffffffffffff\n      and\n        /* \"contracts/Orders.sol\":6758:6777  usdtToken.balanceOf */\n      0xffffffffffffffffffffffffffffffffffffffff\n      and\n      0x70a08231\n        /* \"contracts/Orders.sol\":6786:6790  this */\n      address\n        /* \"contracts/Orders.sol\":6758:6792  usdtToken.balanceOf(address(this)) */\n      mload(0x40)\n      dup3\n      0xffffffff\n      and\n      0xe0\n      shl\n      dup2\n      mstore\n      0x04\n      add\n      tag_192\n      swap2\n      swap1\n      tag_47\n      jump\t// in\n    tag_192:\n      0x20\n      mload(0x40)\n      dup1\n      dup4\n      sub\n      dup2\n      dup7\n      gas\n      staticcall\n      iszero\n      dup1\n      iszero\n      tag_194\n      jumpi\n      returndatacopy(0x00, 0x00, returndatasize)\n      revert(0x00, returndatasize)\n    tag_194:\n      pop\n      pop\n      pop\n      pop\n      mload(0x40)\n      returndatasize\n      not(0x1f)\n      0x1f\n      dup3\n      add\n      and\n      dup3\n      add\n      dup1\n      0x40\n      mstore\n      pop\n      dup2\n      add\n      swap1\n      tag_195\n      swap2\n      swap1\n      tag_89\n      jump\t// in\n    tag_195:\n        /* \"contracts/Orders.sol\":6743:6792  uint balance = usdtToken.balanceOf(address(this)) */\n      swap1\n      pop\n        /* \"contracts/Orders.sol\":6821:6822  0 */\n      0x00\n        /* \"contracts/Orders.sol\":6811:6818  balance */\n      dup2\n        /* \"contracts/Orders.sol\":6811:6822  balance > 0 */\n      gt\n        /* \"contracts/Orders.sol\":6803:6848  require(balance > 0, \"No tokens to withdraw\") */\n      tag_196\n      jumpi\n      mload(0x40)\n      0x08c379a000000000000000000000000000000000000000000000000000000000\n      dup2\n      mstore\n      0x04\n      add\n      tag_197\n      swap1\n      tag_198\n      jump\t// in\n    tag_197:\n      mload(0x40)\n      dup1\n      swap2\n      sub\n      swap1\n      revert\n    tag_196:\n        /* \"contracts/Orders.sol\":6861:6873  bool success */\n      0x00\n        /* \"contracts/Orders.sol\":6876:6885  usdtToken */\n      0x06\n      0x00\n      swap1\n      sload\n      swap1\n      0x0100\n      exp\n      swap1\n      div\n      0xffffffffffffffffffffffffffffffffffffffff\n      and\n        /* \"contracts/Orders.sol\":6876:6894  usdtToken.transfer */\n      0xffffffffffffffffffffffffffffffffffffffff\n      and\n      0xa9059cbb\n        /* \"contracts/Orders.sol\":6895:6900  owner */\n      0x00\n      0x00\n      swap1\n      sload\n      swap1\n      0x0100\n      exp\n      swap1\n      div\n      0xffffffffffffffffffffffffffffffffffffffff\n      and\n        /* \"contracts/Orders.sol\":6902:6909  balance */\n      dup5\n        /* \"contracts/Orders.sol\":6876:6910  usdtToken.transfer(owner, balance) */\n      mload(0x40)\n      dup4\n      0xffffffff\n      and\n      0xe0\n      shl\n      dup2\n      mstore\n      0x04\n      add\n      tag_199\n      swap3\n      swap2\n      swap1\n      tag_109\n      jump\t// in\n    tag_199:\n      0x20\n      mload(0x40)\n      dup1\n      dup4\n      sub\n      dup2\n      0x00\n      dup8\n      gas\n      call\n      iszero\n      dup1\n      iszero\n      tag_201\n      jumpi\n      returndatacopy(0x00, 0x00, returndatasize)\n      revert(0x00, returndatasize)\n    tag_201:\n      pop\n      pop\n      pop\n      pop\n      mload(0x40)\n      returndatasize\n      not(0x1f)\n      0x1f\n      dup3\n      add\n      and\n      dup3\n      add\n      dup1\n      0x40\n      mstore\n      pop\n      dup2\n      add\n      swap1\n      tag_202\n      swap2\n      swap1\n      tag_104\n      jump\t// in\n    tag_202:\n        /* \"contracts/Orders.sol\":6861:6910  bool success = usdtToken.transfer(owner, balance) */\n      swap1\n      pop\n        /* \"contracts/Orders.sol\":6929:6936  success */\n      dup1\n        /* \"contracts/Orders.sol\":6921:6956  require(success, \"Withdraw failed\") */\n      tag_203\n      jumpi\n      mload(0x40)\n      0x08c379a000000000000000000000000000000000000000000000000000000000\n      dup2\n      mstore\n      0x04\n      add\n      tag_204\n      swap1\n      tag_205\n      jump\t// in\n    tag_204:\n      mload(0x40)\n      dup1\n      swap2\n      sub\n      swap1\n      revert\n    tag_203:\n        /* \"contracts/Orders.sol\":6732:6964  {... */\n      pop\n      pop\n        /* \"contracts/Orders.sol\":6690:6964  function withdrawToken() public onlyOwner {... */\n      jump\t// out\n        /* \"contracts/Orders.sol\":619:659  mapping(uint => Listing) public listings */\n    tag_73:\n      mstore(0x20, 0x04)\n      dup1\n      0x00\n      mstore\n      keccak256(0x00, 0x40)\n      0x00\n      swap2\n      pop\n      swap1\n      pop\n      dup1\n      0x00\n      add\n      sload\n      swap1\n      dup1\n      0x01\n      add\n      0x00\n      swap1\n      sload\n      swap1\n      0x0100\n      exp\n      swap1\n      div\n      0xffffffffffffffffffffffffffffffffffffffff\n      and\n      swap1\n      dup1\n      0x02\n      add\n      dup1\n      sload\n      tag_206\n      swap1\n      tag_207\n      jump\t// in\n    tag_206:\n      dup1\n      0x1f\n      add\n      0x20\n      dup1\n      swap2\n      div\n      mul\n      0x20\n      add\n      mload(0x40)\n      swap1\n      dup2\n      add\n      0x40\n      mstore\n      dup1\n      swap3\n      swap2\n      swap1\n      dup2\n      dup2\n      mstore\n      0x20\n      add\n      dup3\n      dup1\n      sload\n      tag_208\n      swap1\n      tag_207\n      jump\t// in\n    tag_208:\n      dup1\n      iszero\n      tag_209\n      jumpi\n      dup1\n      0x1f\n      lt\n      tag_210\n      jumpi\n      0x0100\n      dup1\n      dup4\n      sload\n      div\n      mul\n      dup4\n      mstore\n      swap2\n      0x20\n      add\n      swap2\n      jump(tag_209)\n    tag_210:\n      dup3\n      add\n      swap2\n      swap1\n      0x00\n      mstore\n      keccak256(0x00, 0x20)\n      swap1\n    tag_211:\n      dup2\n      sload\n      dup2\n      mstore\n      swap1\n      0x01\n      add\n      swap1\n      0x20\n      add\n      dup1\n      dup4\n      gt\n      tag_211\n      jumpi\n      dup3\n      swap1\n      sub\n      0x1f\n      and\n      dup3\n      add\n      swap2\n    tag_209:\n      pop\n      pop\n      pop\n      pop\n      pop\n      swap1\n      dup1\n      0x03\n      add\n      dup1\n      sload\n      tag_212\n      swap1\n      tag_207\n      jump\t// in\n    tag_212:\n      dup1\n      0x1f\n      add\n      0x20\n      dup1\n      swap2\n      div\n      mul\n      0x20\n      add\n      mload(0x40)\n      swap1\n      dup2\n      add\n      0x40\n      mstore\n      dup1\n      swap3\n      swap2\n      swap1\n      dup2\n      dup2\n      mstore\n      0x20\n      add\n      dup3\n      dup1\n      sload\n      tag_213\n      swap1\n      tag_207\n      jump\t// in\n    tag_213:\n      dup1\n      iszero\n      tag_214\n      jumpi\n      dup1\n      0x1f\n      lt\n      tag_215\n      jumpi\n      0x0100\n      dup1\n      dup4\n      sload\n      div\n      mul\n      dup4\n      mstore\n      swap2\n      0x20\n      add\n      swap2\n      jump(tag_214)\n    tag_215:\n      dup3\n      add\n      swap2\n      swap1\n      0x00\n      mstore\n      keccak256(0x00, 0x20)\n      swap1\n    tag_216:\n      dup2\n      sload\n      dup2\n      mstore\n      swap1\n      0x01\n      add\n      swap1\n      0x20\n      add\n      dup1\n      dup4\n      gt\n      tag_216\n      jumpi\n      dup3\n      swap1\n      sub\n      0x1f\n      and\n      dup3\n      add\n      swap2\n    tag_214:\n      pop\n      pop\n      pop\n      pop\n      pop\n      swap1\n      dup1\n      0x04\n      add\n      dup1\n      sload\n      tag_217\n      swap1\n      tag_207\n      jump\t// in\n    tag_217:\n      dup1\n      0x1f\n      add\n      0x20\n      dup1\n      swap2\n      div\n      mul\n      0x20\n      add\n      mload(0x40)\n      swap1\n      dup2\n      add\n      0x40\n      mstore\n      dup1\n      swap3\n      swap2\n      swap1\n      dup2\n      dup2\n      mstore\n      0x20\n      add\n      dup3\n      dup1\n      sload\n      tag_218\n      swap1\n      tag_207\n      jump\t// in\n    tag_218:\n      dup1\n      iszero\n      tag_219\n      jumpi\n      dup1\n      0x1f\n      lt\n      tag_220\n      jumpi\n      0x0100\n      dup1\n      dup4\n      sload\n      div\n      mul\n      dup4\n      mstore\n      swap2\n      0x20\n      add\n      swap2\n      jump(tag_219)\n    tag_220:\n      dup3\n      add\n      swap2\n      swap1\n      0x00\n      mstore\n      keccak256(0x00, 0x20)\n      swap1\n    tag_221:\n      dup2\n      sload\n      dup2\n      mstore\n      swap1\n      0x01\n      add\n      swap1\n      0x20\n      add\n      dup1\n      dup4\n      gt\n      tag_221\n      jumpi\n      dup3\n      swap1\n      sub\n      0x1f\n      and\n      dup3\n      add\n      swap2\n    tag_219:\n      pop\n      pop\n      pop\n      pop\n      pop\n      swap1\n      dup1\n      0x05\n      add\n      sload\n      swap1\n      dup1\n      0x06\n      add\n      0x00\n      swap1\n      sload\n      swap1\n      0x0100\n      exp\n      swap1\n      div\n      0xff\n      and\n      swap1\n      pop\n      dup8\n      jump\t// out\n        /* \"#utility.yul\":7:82   */\n    tag_222:\n        /* \"#utility.yul\":40:46   */\n      0x00\n        /* \"#utility.yul\":73:75   */\n      0x40\n        /* \"#utility.yul\":67:76   */\n      mload\n        /* \"#utility.yul\":57:76   */\n      swap1\n      pop\n        /* \"#utility.yul\":7:82   */\n      swap1\n      jump\t// out\n        /* \"#utility.yul\":88:205   */\n    tag_223:\n        /* \"#utility.yul\":197:198   */\n      0x00\n        /* \"#utility.yul\":194:195   */\n      0x00\n        /* \"#utility.yul\":187:199   */\n      revert\n        /* \"#utility.yul\":211:328   */\n    tag_224:\n        /* \"#utility.yul\":320:321   */\n      0x00\n        /* \"#utility.yul\":317:318   */\n      0x00\n        /* \"#utility.yul\":310:322   */\n      revert\n        /* \"#utility.yul\":334:411   */\n    tag_225:\n        /* \"#utility.yul\":371:378   */\n      0x00\n        /* \"#utility.yul\":400:405   */\n      dup2\n        /* \"#utility.yul\":389:405   */\n      swap1\n      pop\n        /* \"#utility.yul\":334:411   */\n      swap2\n      swap1\n      pop\n      jump\t// out\n        /* \"#utility.yul\":417:539   */\n    tag_226:\n        /* \"#utility.yul\":490:514   */\n      tag_323\n        /* \"#utility.yul\":508:513   */\n      dup2\n        /* \"#utility.yul\":490:514   */\n      tag_225\n      jump\t// in\n    tag_323:\n        /* \"#utility.yul\":483:488   */\n      dup2\n        /* \"#utility.yul\":480:515   */\n      eq\n        /* \"#utility.yul\":470:533   */\n      tag_324\n      jumpi\n        /* \"#utility.yul\":529:530   */\n      0x00\n        /* \"#utility.yul\":526:527   */\n      0x00\n        /* \"#utility.yul\":519:531   */\n      revert\n        /* \"#utility.yul\":470:533   */\n    tag_324:\n        /* \"#utility.yul\":417:539   */\n      pop\n      jump\t// out\n        /* \"#utility.yul\":545:684   */\n    tag_227:\n        /* \"#utility.yul\":591:596   */\n      0x00\n        /* \"#utility.yul\":629:635   */\n      dup2\n        /* \"#utility.yul\":616:636   */\n      calldataload\n        /* \"#utility.yul\":607:636   */\n      swap1\n      pop\n        /* \"#utility.yul\":645:678   */\n      tag_326\n        /* \"#utility.yul\":672:677   */\n      dup2\n        /* \"#utility.yul\":645:678   */\n      tag_226\n      jump\t// in\n    tag_326:\n        /* \"#utility.yul\":545:684   */\n      swap3\n      swap2\n      pop\n      pop\n      jump\t// out\n        /* \"#utility.yul\":690:1019   */\n    tag_23:\n        /* \"#utility.yul\":749:755   */\n      0x00\n        /* \"#utility.yul\":798:800   */\n      0x20\n        /* \"#utility.yul\":786:795   */\n      dup3\n        /* \"#utility.yul\":777:784   */\n      dup5\n        /* \"#utility.yul\":773:796   */\n      sub\n        /* \"#utility.yul\":769:801   */\n      slt\n        /* \"#utility.yul\":766:885   */\n      iszero\n      tag_328\n      jumpi\n        /* \"#utility.yul\":804:883   */\n      tag_329\n      tag_223\n      jump\t// in\n    tag_329:\n        /* \"#utility.yul\":766:885   */\n    tag_328:\n        /* \"#utility.yul\":924:925   */\n      0x00\n        /* \"#utility.yul\":949:1002   */\n      tag_330\n        /* \"#utility.yul\":994:1001   */\n      dup5\n        /* \"#utility.yul\":985:991   */\n      dup3\n        /* \"#utility.yul\":974:983   */\n      dup6\n        /* \"#utility.yul\":970:992   */\n      add\n        /* \"#utility.yul\":949:1002   */\n      tag_227\n      jump\t// in\n    tag_330:\n        /* \"#utility.yul\":939:1002   */\n      swap2\n      pop\n        /* \"#utility.yul\":895:1012   */\n      pop\n        /* \"#utility.yul\":690:1019   */\n      swap3\n      swap2\n      pop\n      pop\n      jump\t// out\n        /* \"#utility.yul\":1025:1143   */\n    tag_228:\n        /* \"#utility.yul\":1112:1136   */\n      tag_332\n        /* \"#utility.yul\":1130:1135   */\n      dup2\n        /* \"#utility.yul\":1112:1136   */\n      tag_225\n      jump\t// in\n    tag_332:\n        /* \"#utility.yul\":1107:1110   */\n      dup3\n        /* \"#utility.yul\":1100:1137   */\n      mstore\n        /* \"#utility.yul\":1025:1143   */\n      pop\n      pop\n      jump\t// out\n        /* \"#utility.yul\":1149:1371   */\n    tag_28:\n        /* \"#utility.yul\":1242:1246   */\n      0x00\n        /* \"#utility.yul\":1280:1282   */\n      0x20\n        /* \"#utility.yul\":1269:1278   */\n      dup3\n        /* \"#utility.yul\":1265:1283   */\n      add\n        /* \"#utility.yul\":1257:1283   */\n      swap1\n      pop\n        /* \"#utility.yul\":1293:1364   */\n      tag_334\n        /* \"#utility.yul\":1361:1362   */\n      0x00\n        /* \"#utility.yul\":1350:1359   */\n      dup4\n        /* \"#utility.yul\":1346:1363   */\n      add\n        /* \"#utility.yul\":1337:1343   */\n      dup5\n        /* \"#utility.yul\":1293:1364   */\n      tag_228\n      jump\t// in\n    tag_334:\n        /* \"#utility.yul\":1149:1371   */\n      swap3\n      swap2\n      pop\n      pop\n      jump\t// out\n        /* \"#utility.yul\":1377:1494   */\n    tag_229:\n        /* \"#utility.yul\":1486:1487   */\n      0x00\n        /* \"#utility.yul\":1483:1484   */\n      0x00\n        /* \"#utility.yul\":1476:1488   */\n      revert\n        /* \"#utility.yul\":1500:1617   */\n    tag_230:\n        /* \"#utility.yul\":1609:1610   */\n      0x00\n        /* \"#utility.yul\":1606:1607   */\n      0x00\n        /* \"#utility.yul\":1599:1611   */\n      revert\n        /* \"#utility.yul\":1623:1725   */\n    tag_231:\n        /* \"#utility.yul\":1664:1670   */\n      0x00\n        /* \"#utility.yul\":1715:1717   */\n      0x1f\n        /* \"#utility.yul\":1711:1718   */\n      not\n        /* \"#utility.yul\":1706:1708   */\n      0x1f\n        /* \"#utility.yul\":1699:1704   */\n      dup4\n        /* \"#utility.yul\":1695:1709   */\n      add\n        /* \"#utility.yul\":1691:1719   */\n      and\n        /* \"#utility.yul\":1681:1719   */\n      swap1\n      pop\n        /* \"#utility.yul\":1623:1725   */\n      swap2\n      swap1\n      pop\n      jump\t// out\n        /* \"#utility.yul\":1731:1911   */\n    tag_232:\n        /* \"#utility.yul\":1779:1856   */\n      0x4e487b7100000000000000000000000000000000000000000000000000000000\n        /* \"#utility.yul\":1776:1777   */\n      0x00\n        /* \"#utility.yul\":1769:1857   */\n      mstore\n        /* \"#utility.yul\":1876:1880   */\n      0x41\n        /* \"#utility.yul\":1873:1874   */\n      0x04\n        /* \"#utility.yul\":1866:1881   */\n      mstore\n        /* \"#utility.yul\":1900:1904   */\n      0x24\n        /* \"#utility.yul\":1897:1898   */\n      0x00\n        /* \"#utility.yul\":1890:1905   */\n      revert\n        /* \"#utility.yul\":1917:2198   */\n    tag_233:\n        /* \"#utility.yul\":2000:2027   */\n      tag_340\n        /* \"#utility.yul\":2022:2026   */\n      dup3\n        /* \"#utility.yul\":2000:2027   */\n      tag_231\n      jump\t// in\n    tag_340:\n        /* \"#utility.yul\":1992:1998   */\n      dup2\n        /* \"#utility.yul\":1988:2028   */\n      add\n        /* \"#utility.yul\":2130:2136   */\n      dup2\n        /* \"#utility.yul\":2118:2128   */\n      dup2\n        /* \"#utility.yul\":2115:2137   */\n      lt\n        /* \"#utility.yul\":2094:2112   */\n      0xffffffffffffffff\n        /* \"#utility.yul\":2082:2092   */\n      dup3\n        /* \"#utility.yul\":2079:2113   */\n      gt\n        /* \"#utility.yul\":2076:2138   */\n      or\n        /* \"#utility.yul\":2073:2161   */\n      iszero\n      tag_341\n      jumpi\n        /* \"#utility.yul\":2141:2159   */\n      tag_342\n      tag_232\n      jump\t// in\n    tag_342:\n        /* \"#utility.yul\":2073:2161   */\n    tag_341:\n        /* \"#utility.yul\":2181:2191   */\n      dup1\n        /* \"#utility.yul\":2177:2179   */\n      0x40\n        /* \"#utility.yul\":2170:2192   */\n      mstore\n        /* \"#utility.yul\":1960:2198   */\n      pop\n        /* \"#utility.yul\":1917:2198   */\n      pop\n      pop\n      jump\t// out\n        /* \"#utility.yul\":2204:2333   */\n    tag_234:\n        /* \"#utility.yul\":2238:2244   */\n      0x00\n        /* \"#utility.yul\":2265:2285   */\n      tag_344\n      tag_222\n      jump\t// in\n    tag_344:\n        /* \"#utility.yul\":2255:2285   */\n      swap1\n      pop\n        /* \"#utility.yul\":2294:2327   */\n      tag_345\n        /* \"#utility.yul\":2322:2326   */\n      dup3\n        /* \"#utility.yul\":2314:2320   */\n      dup3\n        /* \"#utility.yul\":2294:2327   */\n      tag_233\n      jump\t// in\n    tag_345:\n        /* \"#utility.yul\":2204:2333   */\n      swap2\n      swap1\n      pop\n      jump\t// out\n        /* \"#utility.yul\":2339:2647   */\n    tag_235:\n        /* \"#utility.yul\":2401:2405   */\n      0x00\n        /* \"#utility.yul\":2491:2509   */\n      0xffffffffffffffff\n        /* \"#utility.yul\":2483:2489   */\n      dup3\n        /* \"#utility.yul\":2480:2510   */\n      gt\n        /* \"#utility.yul\":2477:2533   */\n      iszero\n      tag_347\n      jumpi\n        /* \"#utility.yul\":2513:2531   */\n      tag_348\n      tag_232\n      jump\t// in\n    tag_348:\n        /* \"#utility.yul\":2477:2533   */\n    tag_347:\n        /* \"#utility.yul\":2551:2580   */\n      tag_349\n        /* \"#utility.yul\":2573:2579   */\n      dup3\n        /* \"#utility.yul\":2551:2580   */\n      tag_231\n      jump\t// in\n    tag_349:\n        /* \"#utility.yul\":2543:2580   */\n      swap1\n      pop\n        /* \"#utility.yul\":2635:2639   */\n      0x20\n        /* \"#utility.yul\":2629:2633   */\n      dup2\n        /* \"#utility.yul\":2625:2640   */\n      add\n        /* \"#utility.yul\":2617:2640   */\n      swap1\n      pop\n        /* \"#utility.yul\":2339:2647   */\n      swap2\n      swap1\n      pop\n      jump\t// out\n        /* \"#utility.yul\":2653:2801   */\n    tag_236:\n        /* \"#utility.yul\":2751:2757   */\n      dup3\n        /* \"#utility.yul\":2746:2749   */\n      dup2\n        /* \"#utility.yul\":2741:2744   */\n      dup4\n        /* \"#utility.yul\":2728:2758   */\n      calldatacopy\n        /* \"#utility.yul\":2792:2793   */\n      0x00\n        /* \"#utility.yul\":2783:2789   */\n      dup4\n        /* \"#utility.yul\":2778:2781   */\n      dup4\n        /* \"#utility.yul\":2774:2790   */\n      add\n        /* \"#utility.yul\":2767:2794   */\n      mstore\n        /* \"#utility.yul\":2653:2801   */\n      pop\n      pop\n      pop\n      jump\t// out\n        /* \"#utility.yul\":2807:3232   */\n    tag_237:\n        /* \"#utility.yul\":2885:2890   */\n      0x00\n        /* \"#utility.yul\":2910:2976   */\n      tag_352\n        /* \"#utility.yul\":2926:2975   */\n      tag_353\n        /* \"#utility.yul\":2968:2974   */\n      dup5\n        /* \"#utility.yul\":2926:2975   */\n      tag_235\n      jump\t// in\n    tag_353:\n        /* \"#utility.yul\":2910:2976   */\n      tag_234\n      jump\t// in\n    tag_352:\n        /* \"#utility.yul\":2901:2976   */\n      swap1\n      pop\n        /* \"#utility.yul\":2999:3005   */\n      dup3\n        /* \"#utility.yul\":2992:2997   */\n      dup2\n        /* \"#utility.yul\":2985:3006   */\n      mstore\n        /* \"#utility.yul\":3037:3041   */\n      0x20\n        /* \"#utility.yul\":3030:3035   */\n      dup2\n        /* \"#utility.yul\":3026:3042   */\n      add\n        /* \"#utility.yul\":3075:3078   */\n      dup5\n        /* \"#utility.yul\":3066:3072   */\n      dup5\n        /* \"#utility.yul\":3061:3064   */\n      dup5\n        /* \"#utility.yul\":3057:3073   */\n      add\n        /* \"#utility.yul\":3054:3079   */\n      gt\n        /* \"#utility.yul\":3051:3163   */\n      iszero\n      tag_354\n      jumpi\n        /* \"#utility.yul\":3082:3161   */\n      tag_355\n      tag_230\n      jump\t// in\n    tag_355:\n        /* \"#utility.yul\":3051:3163   */\n    tag_354:\n        /* \"#utility.yul\":3172:3226   */\n      tag_356\n        /* \"#utility.yul\":3219:3225   */\n      dup5\n        /* \"#utility.yul\":3214:3217   */\n      dup3\n        /* \"#utility.yul\":3209:3212   */\n      dup6\n        /* \"#utility.yul\":3172:3226   */\n      tag_236\n      jump\t// in\n    tag_356:\n        /* \"#utility.yul\":2891:3232   */\n      pop\n        /* \"#utility.yul\":2807:3232   */\n      swap4\n      swap3\n      pop\n      pop\n      pop\n      jump\t// out\n        /* \"#utility.yul\":3252:3592   */\n    tag_238:\n        /* \"#utility.yul\":3308:3313   */\n      0x00\n        /* \"#utility.yul\":3357:3360   */\n      dup3\n        /* \"#utility.yul\":3350:3354   */\n      0x1f\n        /* \"#utility.yul\":3342:3348   */\n      dup4\n        /* \"#utility.yul\":3338:3355   */\n      add\n        /* \"#utility.yul\":3334:3361   */\n      slt\n        /* \"#utility.yul\":3324:3446   */\n      tag_358\n      jumpi\n        /* \"#utility.yul\":3365:3444   */\n      tag_359\n      tag_229\n      jump\t// in\n    tag_359:\n        /* \"#utility.yul\":3324:3446   */\n    tag_358:\n        /* \"#utility.yul\":3482:3488   */\n      dup2\n        /* \"#utility.yul\":3469:3489   */\n      calldataload\n        /* \"#utility.yul\":3507:3586   */\n      tag_360\n        /* \"#utility.yul\":3582:3585   */\n      dup5\n        /* \"#utility.yul\":3574:3580   */\n      dup3\n        /* \"#utility.yul\":3567:3571   */\n      0x20\n        /* \"#utility.yul\":3559:3565   */\n      dup7\n        /* \"#utility.yul\":3555:3572   */\n      add\n        /* \"#utility.yul\":3507:3586   */\n      tag_237\n      jump\t// in\n    tag_360:\n        /* \"#utility.yul\":3498:3586   */\n      swap2\n      pop\n        /* \"#utility.yul\":3314:3592   */\n      pop\n        /* \"#utility.yul\":3252:3592   */\n      swap3\n      swap2\n      pop\n      pop\n      jump\t// out\n        /* \"#utility.yul\":3598:4903   */\n    tag_34:\n        /* \"#utility.yul\":3714:3720   */\n      0x00\n        /* \"#utility.yul\":3722:3728   */\n      0x00\n        /* \"#utility.yul\":3730:3736   */\n      0x00\n        /* \"#utility.yul\":3738:3744   */\n      0x00\n        /* \"#utility.yul\":3787:3790   */\n      0x80\n        /* \"#utility.yul\":3775:3784   */\n      dup6\n        /* \"#utility.yul\":3766:3773   */\n      dup8\n        /* \"#utility.yul\":3762:3785   */\n      sub\n        /* \"#utility.yul\":3758:3791   */\n      slt\n        /* \"#utility.yul\":3755:3875   */\n      iszero\n      tag_362\n      jumpi\n        /* \"#utility.yul\":3794:3873   */\n      tag_363\n      tag_223\n      jump\t// in\n    tag_363:\n        /* \"#utility.yul\":3755:3875   */\n    tag_362:\n        /* \"#utility.yul\":3942:3943   */\n      0x00\n        /* \"#utility.yul\":3931:3940   */\n      dup6\n        /* \"#utility.yul\":3927:3944   */\n      add\n        /* \"#utility.yul\":3914:3945   */\n      calldataload\n        /* \"#utility.yul\":3972:3990   */\n      0xffffffffffffffff\n        /* \"#utility.yul\":3964:3970   */\n      dup2\n        /* \"#utility.yul\":3961:3991   */\n      gt\n        /* \"#utility.yul\":3958:4075   */\n      iszero\n      tag_364\n      jumpi\n        /* \"#utility.yul\":3994:4073   */\n      tag_365\n      tag_224\n      jump\t// in\n    tag_365:\n        /* \"#utility.yul\":3958:4075   */\n    tag_364:\n        /* \"#utility.yul\":4099:4162   */\n      tag_366\n        /* \"#utility.yul\":4154:4161   */\n      dup8\n        /* \"#utility.yul\":4145:4151   */\n      dup3\n        /* \"#utility.yul\":4134:4143   */\n      dup9\n        /* \"#utility.yul\":4130:4152   */\n      add\n        /* \"#utility.yul\":4099:4162   */\n      tag_238\n      jump\t// in\n    tag_366:\n        /* \"#utility.yul\":4089:4162   */\n      swap5\n      pop\n        /* \"#utility.yul\":3885:4172   */\n      pop\n        /* \"#utility.yul\":4239:4241   */\n      0x20\n        /* \"#utility.yul\":4228:4237   */\n      dup6\n        /* \"#utility.yul\":4224:4242   */\n      add\n        /* \"#utility.yul\":4211:4243   */\n      calldataload\n        /* \"#utility.yul\":4270:4288   */\n      0xffffffffffffffff\n        /* \"#utility.yul\":4262:4268   */\n      dup2\n        /* \"#utility.yul\":4259:4289   */\n      gt\n        /* \"#utility.yul\":4256:4373   */\n      iszero\n      tag_367\n      jumpi\n        /* \"#utility.yul\":4292:4371   */\n      tag_368\n      tag_224\n      jump\t// in\n    tag_368:\n        /* \"#utility.yul\":4256:4373   */\n    tag_367:\n        /* \"#utility.yul\":4397:4460   */\n      tag_369\n        /* \"#utility.yul\":4452:4459   */\n      dup8\n        /* \"#utility.yul\":4443:4449   */\n      dup3\n        /* \"#utility.yul\":4432:4441   */\n      dup9\n        /* \"#utility.yul\":4428:4450   */\n      add\n        /* \"#utility.yul\":4397:4460   */\n      tag_238\n      jump\t// in\n    tag_369:\n        /* \"#utility.yul\":4387:4460   */\n      swap4\n      pop\n        /* \"#utility.yul\":4182:4470   */\n      pop\n        /* \"#utility.yul\":4537:4539   */\n      0x40\n        /* \"#utility.yul\":4526:4535   */\n      dup6\n        /* \"#utility.yul\":4522:4540   */\n      add\n        /* \"#utility.yul\":4509:4541   */\n      calldataload\n        /* \"#utility.yul\":4568:4586   */\n      0xffffffffffffffff\n        /* \"#utility.yul\":4560:4566   */\n      dup2\n        /* \"#utility.yul\":4557:4587   */\n      gt\n        /* \"#utility.yul\":4554:4671   */\n      iszero\n      tag_370\n      jumpi\n        /* \"#utility.yul\":4590:4669   */\n      tag_371\n      tag_224\n      jump\t// in\n    tag_371:\n        /* \"#utility.yul\":4554:4671   */\n    tag_370:\n        /* \"#utility.yul\":4695:4758   */\n      tag_372\n        /* \"#utility.yul\":4750:4757   */\n      dup8\n        /* \"#utility.yul\":4741:4747   */\n      dup3\n        /* \"#utility.yul\":4730:4739   */\n      dup9\n        /* \"#utility.yul\":4726:4748   */\n      add\n        /* \"#utility.yul\":4695:4758   */\n      tag_238\n      jump\t// in\n    tag_372:\n        /* \"#utility.yul\":4685:4758   */\n      swap3\n      pop\n        /* \"#utility.yul\":4480:4768   */\n      pop\n        /* \"#utility.yul\":4807:4809   */\n      0x60\n        /* \"#utility.yul\":4833:4886   */\n      tag_373\n        /* \"#utility.yul\":4878:4885   */\n      dup8\n        /* \"#utility.yul\":4869:4875   */\n      dup3\n        /* \"#utility.yul\":4858:4867   */\n      dup9\n        /* \"#utility.yul\":4854:4876   */\n      add\n        /* \"#utility.yul\":4833:4886   */\n      tag_227\n      jump\t// in\n    tag_373:\n        /* \"#utility.yul\":4823:4886   */\n      swap2\n      pop\n        /* \"#utility.yul\":4778:4896   */\n      pop\n        /* \"#utility.yul\":3598:4903   */\n      swap3\n      swap6\n      swap2\n      swap5\n      pop\n      swap3\n      pop\n      jump\t// out\n        /* \"#utility.yul\":4909:5035   */\n    tag_239:\n        /* \"#utility.yul\":4946:4953   */\n      0x00\n        /* \"#utility.yul\":4986:5028   */\n      0xffffffffffffffffffffffffffffffffffffffff\n        /* \"#utility.yul\":4979:4984   */\n      dup3\n        /* \"#utility.yul\":4975:5029   */\n      and\n        /* \"#utility.yul\":4964:5029   */\n      swap1\n      pop\n        /* \"#utility.yul\":4909:5035   */\n      swap2\n      swap1\n      pop\n      jump\t// out\n        /* \"#utility.yul\":5041:5137   */\n    tag_240:\n        /* \"#utility.yul\":5078:5085   */\n      0x00\n        /* \"#utility.yul\":5107:5131   */\n      tag_376\n        /* \"#utility.yul\":5125:5130   */\n      dup3\n        /* \"#utility.yul\":5107:5131   */\n      tag_239\n      jump\t// in\n    tag_376:\n        /* \"#utility.yul\":5096:5131   */\n      swap1\n      pop\n        /* \"#utility.yul\":5041:5137   */\n      swap2\n      swap1\n      pop\n      jump\t// out\n        /* \"#utility.yul\":5143:5261   */\n    tag_241:\n        /* \"#utility.yul\":5230:5254   */\n      tag_378\n        /* \"#utility.yul\":5248:5253   */\n      dup2\n        /* \"#utility.yul\":5230:5254   */\n      tag_240\n      jump\t// in\n    tag_378:\n        /* \"#utility.yul\":5225:5228   */\n      dup3\n        /* \"#utility.yul\":5218:5255   */\n      mstore\n        /* \"#utility.yul\":5143:5261   */\n      pop\n      pop\n      jump\t// out\n        /* \"#utility.yul\":5267:5489   */\n    tag_47:\n        /* \"#utility.yul\":5360:5364   */\n      0x00\n        /* \"#utility.yul\":5398:5400   */\n      0x20\n        /* \"#utility.yul\":5387:5396   */\n      dup3\n        /* \"#utility.yul\":5383:5401   */\n      add\n        /* \"#utility.yul\":5375:5401   */\n      swap1\n      pop\n        /* \"#utility.yul\":5411:5482   */\n      tag_380\n        /* \"#utility.yul\":5479:5480   */\n      0x00\n        /* \"#utility.yul\":5468:5477   */\n      dup4\n        /* \"#utility.yul\":5464:5481   */\n      add\n        /* \"#utility.yul\":5455:5461   */\n      dup5\n        /* \"#utility.yul\":5411:5482   */\n      tag_241\n      jump\t// in\n    tag_380:\n        /* \"#utility.yul\":5267:5489   */\n      swap3\n      swap2\n      pop\n      pop\n      jump\t// out\n        /* \"#utility.yul\":5495:5585   */\n    tag_242:\n        /* \"#utility.yul\":5529:5536   */\n      0x00\n        /* \"#utility.yul\":5572:5577   */\n      dup2\n        /* \"#utility.yul\":5565:5578   */\n      iszero\n        /* \"#utility.yul\":5558:5579   */\n      iszero\n        /* \"#utility.yul\":5547:5579   */\n      swap1\n      pop\n        /* \"#utility.yul\":5495:5585   */\n      swap2\n      swap1\n      pop\n      jump\t// out\n        /* \"#utility.yul\":5591:5700   */\n    tag_243:\n        /* \"#utility.yul\":5672:5693   */\n      tag_383\n        /* \"#utility.yul\":5687:5692   */\n      dup2\n        /* \"#utility.yul\":5672:5693   */\n      tag_242\n      jump\t// in\n    tag_383:\n        /* \"#utility.yul\":5667:5670   */\n      dup3\n        /* \"#utility.yul\":5660:5694   */\n      mstore\n        /* \"#utility.yul\":5591:5700   */\n      pop\n      pop\n      jump\t// out\n        /* \"#utility.yul\":5706:5916   */\n    tag_58:\n        /* \"#utility.yul\":5793:5797   */\n      0x00\n        /* \"#utility.yul\":5831:5833   */\n      0x20\n        /* \"#utility.yul\":5820:5829   */\n      dup3\n        /* \"#utility.yul\":5816:5834   */\n      add\n        /* \"#utility.yul\":5808:5834   */\n      swap1\n      pop\n        /* \"#utility.yul\":5844:5909   */\n      tag_385\n        /* \"#utility.yul\":5906:5907   */\n      0x00\n        /* \"#utility.yul\":5895:5904   */\n      dup4\n        /* \"#utility.yul\":5891:5908   */\n      add\n        /* \"#utility.yul\":5882:5888   */\n      dup5\n        /* \"#utility.yul\":5844:5909   */\n      tag_243\n      jump\t// in\n    tag_385:\n        /* \"#utility.yul\":5706:5916   */\n      swap3\n      swap2\n      pop\n      pop\n      jump\t// out\n        /* \"#utility.yul\":5922:5982   */\n    tag_244:\n        /* \"#utility.yul\":5950:5953   */\n      0x00\n        /* \"#utility.yul\":5971:5976   */\n      dup2\n        /* \"#utility.yul\":5964:5976   */\n      swap1\n      pop\n        /* \"#utility.yul\":5922:5982   */\n      swap2\n      swap1\n      pop\n      jump\t// out\n        /* \"#utility.yul\":5988:6130   */\n    tag_245:\n        /* \"#utility.yul\":6038:6047   */\n      0x00\n        /* \"#utility.yul\":6071:6124   */\n      tag_388\n        /* \"#utility.yul\":6089:6123   */\n      tag_389\n        /* \"#utility.yul\":6098:6122   */\n      tag_390\n        /* \"#utility.yul\":6116:6121   */\n      dup5\n        /* \"#utility.yul\":6098:6122   */\n      tag_239\n      jump\t// in\n    tag_390:\n        /* \"#utility.yul\":6089:6123   */\n      tag_244\n      jump\t// in\n    tag_389:\n        /* \"#utility.yul\":6071:6124   */\n      tag_239\n      jump\t// in\n    tag_388:\n        /* \"#utility.yul\":6058:6124   */\n      swap1\n      pop\n        /* \"#utility.yul\":5988:6130   */\n      swap2\n      swap1\n      pop\n      jump\t// out\n        /* \"#utility.yul\":6136:6262   */\n    tag_246:\n        /* \"#utility.yul\":6186:6195   */\n      0x00\n        /* \"#utility.yul\":6219:6256   */\n      tag_392\n        /* \"#utility.yul\":6250:6255   */\n      dup3\n        /* \"#utility.yul\":6219:6256   */\n      tag_245\n      jump\t// in\n    tag_392:\n        /* \"#utility.yul\":6206:6256   */\n      swap1\n      pop\n        /* \"#utility.yul\":6136:6262   */\n      swap2\n      swap1\n      pop\n      jump\t// out\n        /* \"#utility.yul\":6268:6407   */\n    tag_247:\n        /* \"#utility.yul\":6331:6340   */\n      0x00\n        /* \"#utility.yul\":6364:6401   */\n      tag_394\n        /* \"#utility.yul\":6395:6400   */\n      dup3\n        /* \"#utility.yul\":6364:6401   */\n      tag_246\n      jump\t// in\n    tag_394:\n        /* \"#utility.yul\":6351:6401   */\n      swap1\n      pop\n        /* \"#utility.yul\":6268:6407   */\n      swap2\n      swap1\n      pop\n      jump\t// out\n        /* \"#utility.yul\":6413:6570   */\n    tag_248:\n        /* \"#utility.yul\":6513:6563   */\n      tag_396\n        /* \"#utility.yul\":6557:6562   */\n      dup2\n        /* \"#utility.yul\":6513:6563   */\n      tag_247\n      jump\t// in\n    tag_396:\n        /* \"#utility.yul\":6508:6511   */\n      dup3\n        /* \"#utility.yul\":6501:6564   */\n      mstore\n        /* \"#utility.yul\":6413:6570   */\n      pop\n      pop\n      jump\t// out\n        /* \"#utility.yul\":6576:6824   */\n    tag_62:\n        /* \"#utility.yul\":6682:6686   */\n      0x00\n        /* \"#utility.yul\":6720:6722   */\n      0x20\n        /* \"#utility.yul\":6709:6718   */\n      dup3\n        /* \"#utility.yul\":6705:6723   */\n      add\n        /* \"#utility.yul\":6697:6723   */\n      swap1\n      pop\n        /* \"#utility.yul\":6733:6817   */\n      tag_398\n        /* \"#utility.yul\":6814:6815   */\n      0x00\n        /* \"#utility.yul\":6803:6812   */\n      dup4\n        /* \"#utility.yul\":6799:6816   */\n      add\n        /* \"#utility.yul\":6790:6796   */\n      dup5\n        /* \"#utility.yul\":6733:6817   */\n      tag_248\n      jump\t// in\n    tag_398:\n        /* \"#utility.yul\":6576:6824   */\n      swap3\n      swap2\n      pop\n      pop\n      jump\t// out\n        /* \"#utility.yul\":6830:6929   */\n    tag_249:\n        /* \"#utility.yul\":6882:6888   */\n      0x00\n        /* \"#utility.yul\":6916:6921   */\n      dup2\n        /* \"#utility.yul\":6910:6922   */\n      mload\n        /* \"#utility.yul\":6900:6922   */\n      swap1\n      pop\n        /* \"#utility.yul\":6830:6929   */\n      swap2\n      swap1\n      pop\n      jump\t// out\n        /* \"#utility.yul\":6935:7104   */\n    tag_250:\n        /* \"#utility.yul\":7019:7030   */\n      0x00\n        /* \"#utility.yul\":7053:7059   */\n      dup3\n        /* \"#utility.yul\":7048:7051   */\n      dup3\n        /* \"#utility.yul\":7041:7060   */\n      mstore\n        /* \"#utility.yul\":7093:7097   */\n      0x20\n        /* \"#utility.yul\":7088:7091   */\n      dup3\n        /* \"#utility.yul\":7084:7098   */\n      add\n        /* \"#utility.yul\":7069:7098   */\n      swap1\n      pop\n        /* \"#utility.yul\":6935:7104   */\n      swap3\n      swap2\n      pop\n      pop\n      jump\t// out\n        /* \"#utility.yul\":7110:7249   */\n    tag_251:\n        /* \"#utility.yul\":7199:7205   */\n      dup3\n        /* \"#utility.yul\":7194:7197   */\n      dup2\n        /* \"#utility.yul\":7189:7192   */\n      dup4\n        /* \"#utility.yul\":7183:7206   */\n      mcopy\n        /* \"#utility.yul\":7240:7241   */\n      0x00\n        /* \"#utility.yul\":7231:7237   */\n      dup4\n        /* \"#utility.yul\":7226:7229   */\n      dup4\n        /* \"#utility.yul\":7222:7238   */\n      add\n        /* \"#utility.yul\":7215:7242   */\n      mstore\n        /* \"#utility.yul\":7110:7249   */\n      pop\n      pop\n      pop\n      jump\t// out\n        /* \"#utility.yul\":7255:7632   */\n    tag_252:\n        /* \"#utility.yul\":7343:7346   */\n      0x00\n        /* \"#utility.yul\":7371:7410   */\n      tag_403\n        /* \"#utility.yul\":7404:7409   */\n      dup3\n        /* \"#utility.yul\":7371:7410   */\n      tag_249\n      jump\t// in\n    tag_403:\n        /* \"#utility.yul\":7426:7497   */\n      tag_404\n        /* \"#utility.yul\":7490:7496   */\n      dup2\n        /* \"#utility.yul\":7485:7488   */\n      dup6\n        /* \"#utility.yul\":7426:7497   */\n      tag_250\n      jump\t// in\n    tag_404:\n        /* \"#utility.yul\":7419:7497   */\n      swap4\n      pop\n        /* \"#utility.yul\":7506:7571   */\n      tag_405\n        /* \"#utility.yul\":7564:7570   */\n      dup2\n        /* \"#utility.yul\":7559:7562   */\n      dup6\n        /* \"#utility.yul\":7552:7556   */\n      0x20\n        /* \"#utility.yul\":7545:7550   */\n      dup7\n        /* \"#utility.yul\":7541:7557   */\n      add\n        /* \"#utility.yul\":7506:7571   */\n      tag_251\n      jump\t// in\n    tag_405:\n        /* \"#utility.yul\":7596:7625   */\n      tag_406\n        /* \"#utility.yul\":7618:7624   */\n      dup2\n        /* \"#utility.yul\":7596:7625   */\n      tag_231\n      jump\t// in\n    tag_406:\n        /* \"#utility.yul\":7591:7594   */\n      dup5\n        /* \"#utility.yul\":7587:7626   */\n      add\n        /* \"#utility.yul\":7580:7626   */\n      swap2\n      pop\n        /* \"#utility.yul\":7347:7632   */\n      pop\n        /* \"#utility.yul\":7255:7632   */\n      swap3\n      swap2\n      pop\n      pop\n      jump\t// out\n        /* \"#utility.yul\":7638:8785   */\n    tag_75:\n        /* \"#utility.yul\":7953:7957   */\n      0x00\n        /* \"#utility.yul\":7991:7994   */\n      0xe0\n        /* \"#utility.yul\":7980:7989   */\n      dup3\n        /* \"#utility.yul\":7976:7995   */\n      add\n        /* \"#utility.yul\":7968:7995   */\n      swap1\n      pop\n        /* \"#utility.yul\":8005:8076   */\n      tag_408\n        /* \"#utility.yul\":8073:8074   */\n      0x00\n        /* \"#utility.yul\":8062:8071   */\n      dup4\n        /* \"#utility.yul\":8058:8075   */\n      add\n        /* \"#utility.yul\":8049:8055   */\n      dup11\n        /* \"#utility.yul\":8005:8076   */\n      tag_228\n      jump\t// in\n    tag_408:\n        /* \"#utility.yul\":8086:8158   */\n      tag_409\n        /* \"#utility.yul\":8154:8156   */\n      0x20\n        /* \"#utility.yul\":8143:8152   */\n      dup4\n        /* \"#utility.yul\":8139:8157   */\n      add\n        /* \"#utility.yul\":8130:8136   */\n      dup10\n        /* \"#utility.yul\":8086:8158   */\n      tag_241\n      jump\t// in\n    tag_409:\n        /* \"#utility.yul\":8205:8214   */\n      dup2\n        /* \"#utility.yul\":8199:8203   */\n      dup2\n        /* \"#utility.yul\":8195:8215   */\n      sub\n        /* \"#utility.yul\":8190:8192   */\n      0x40\n        /* \"#utility.yul\":8179:8188   */\n      dup4\n        /* \"#utility.yul\":8175:8193   */\n      add\n        /* \"#utility.yul\":8168:8216   */\n      mstore\n        /* \"#utility.yul\":8233:8311   */\n      tag_410\n        /* \"#utility.yul\":8306:8310   */\n      dup2\n        /* \"#utility.yul\":8297:8303   */\n      dup9\n        /* \"#utility.yul\":8233:8311   */\n      tag_252\n      jump\t// in\n    tag_410:\n        /* \"#utility.yul\":8225:8311   */\n      swap1\n      pop\n        /* \"#utility.yul\":8358:8367   */\n      dup2\n        /* \"#utility.yul\":8352:8356   */\n      dup2\n        /* \"#utility.yul\":8348:8368   */\n      sub\n        /* \"#utility.yul\":8343:8345   */\n      0x60\n        /* \"#utility.yul\":8332:8341   */\n      dup4\n        /* \"#utility.yul\":8328:8346   */\n      add\n        /* \"#utility.yul\":8321:8369   */\n      mstore\n        /* \"#utility.yul\":8386:8464   */\n      tag_411\n        /* \"#utility.yul\":8459:8463   */\n      dup2\n        /* \"#utility.yul\":8450:8456   */\n      dup8\n        /* \"#utility.yul\":8386:8464   */\n      tag_252\n      jump\t// in\n    tag_411:\n        /* \"#utility.yul\":8378:8464   */\n      swap1\n      pop\n        /* \"#utility.yul\":8512:8521   */\n      dup2\n        /* \"#utility.yul\":8506:8510   */\n      dup2\n        /* \"#utility.yul\":8502:8522   */\n      sub\n        /* \"#utility.yul\":8496:8499   */\n      0x80\n        /* \"#utility.yul\":8485:8494   */\n      dup4\n        /* \"#utility.yul\":8481:8500   */\n      add\n        /* \"#utility.yul\":8474:8523   */\n      mstore\n        /* \"#utility.yul\":8540:8618   */\n      tag_412\n        /* \"#utility.yul\":8613:8617   */\n      dup2\n        /* \"#utility.yul\":8604:8610   */\n      dup7\n        /* \"#utility.yul\":8540:8618   */\n      tag_252\n      jump\t// in\n    tag_412:\n        /* \"#utility.yul\":8532:8618   */\n      swap1\n      pop\n        /* \"#utility.yul\":8628:8701   */\n      tag_413\n        /* \"#utility.yul\":8696:8699   */\n      0xa0\n        /* \"#utility.yul\":8685:8694   */\n      dup4\n        /* \"#utility.yul\":8681:8700   */\n      add\n        /* \"#utility.yul\":8672:8678   */\n      dup6\n        /* \"#utility.yul\":8628:8701   */\n      tag_228\n      jump\t// in\n    tag_413:\n        /* \"#utility.yul\":8711:8778   */\n      tag_414\n        /* \"#utility.yul\":8773:8776   */\n      0xc0\n        /* \"#utility.yul\":8762:8771   */\n      dup4\n        /* \"#utility.yul\":8758:8777   */\n      add\n        /* \"#utility.yul\":8749:8755   */\n      dup5\n        /* \"#utility.yul\":8711:8778   */\n      tag_243\n      jump\t// in\n    tag_414:\n        /* \"#utility.yul\":7638:8785   */\n      swap9\n      swap8\n      pop\n      pop\n      pop\n      pop\n      pop\n      pop\n      pop\n      pop\n      jump\t// out\n        /* \"#utility.yul\":8791:8959   */\n    tag_253:\n        /* \"#utility.yul\":8931:8951   */\n      0x496e76616c6964206c697374696e672049440000000000000000000000000000\n        /* \"#utility.yul\":8927:8928   */\n      0x00\n        /* \"#utility.yul\":8919:8925   */\n      dup3\n        /* \"#utility.yul\":8915:8929   */\n      add\n        /* \"#utility.yul\":8908:8952   */\n      mstore\n        /* \"#utility.yul\":8791:8959   */\n      pop\n      jump\t// out\n        /* \"#utility.yul\":8965:9331   */\n    tag_254:\n        /* \"#utility.yul\":9107:9110   */\n      0x00\n        /* \"#utility.yul\":9128:9195   */\n      tag_417\n        /* \"#utility.yul\":9192:9194   */\n      0x12\n        /* \"#utility.yul\":9187:9190   */\n      dup4\n        /* \"#utility.yul\":9128:9195   */\n      tag_250\n      jump\t// in\n    tag_417:\n        /* \"#utility.yul\":9121:9195   */\n      swap2\n      pop\n        /* \"#utility.yul\":9204:9297   */\n      tag_418\n        /* \"#utility.yul\":9293:9296   */\n      dup3\n        /* \"#utility.yul\":9204:9297   */\n      tag_253\n      jump\t// in\n    tag_418:\n        /* \"#utility.yul\":9322:9324   */\n      0x20\n        /* \"#utility.yul\":9317:9320   */\n      dup3\n        /* \"#utility.yul\":9313:9325   */\n      add\n        /* \"#utility.yul\":9306:9325   */\n      swap1\n      pop\n        /* \"#utility.yul\":8965:9331   */\n      swap2\n      swap1\n      pop\n      jump\t// out\n        /* \"#utility.yul\":9337:9756   */\n    tag_80:\n        /* \"#utility.yul\":9503:9507   */\n      0x00\n        /* \"#utility.yul\":9541:9543   */\n      0x20\n        /* \"#utility.yul\":9530:9539   */\n      dup3\n        /* \"#utility.yul\":9526:9544   */\n      add\n        /* \"#utility.yul\":9518:9544   */\n      swap1\n      pop\n        /* \"#utility.yul\":9590:9599   */\n      dup2\n        /* \"#utility.yul\":9584:9588   */\n      dup2\n        /* \"#utility.yul\":9580:9600   */\n      sub\n        /* \"#utility.yul\":9576:9577   */\n      0x00\n        /* \"#utility.yul\":9565:9574   */\n      dup4\n        /* \"#utility.yul\":9561:9578   */\n      add\n        /* \"#utility.yul\":9554:9601   */\n      mstore\n        /* \"#utility.yul\":9618:9749   */\n      tag_420\n        /* \"#utility.yul\":9744:9748   */\n      dup2\n        /* \"#utility.yul\":9618:9749   */\n      tag_254\n      jump\t// in\n    tag_420:\n        /* \"#utility.yul\":9610:9749   */\n      swap1\n      pop\n        /* \"#utility.yul\":9337:9756   */\n      swap2\n      swap1\n      pop\n      jump\t// out\n        /* \"#utility.yul\":9762:9929   */\n    tag_255:\n        /* \"#utility.yul\":9902:9921   */\n      0x4974656d20616c726561647920736f6c64000000000000000000000000000000\n        /* \"#utility.yul\":9898:9899   */\n      0x00\n        /* \"#utility.yul\":9890:9896   */\n      dup3\n        /* \"#utility.yul\":9886:9900   */\n      add\n        /* \"#utility.yul\":9879:9922   */\n      mstore\n        /* \"#utility.yul\":9762:9929   */\n      pop\n      jump\t// out\n        /* \"#utility.yul\":9935:10301   */\n    tag_256:\n        /* \"#utility.yul\":10077:10080   */\n      0x00\n        /* \"#utility.yul\":10098:10165   */\n      tag_423\n        /* \"#utility.yul\":10162:10164   */\n      0x11\n        /* \"#utility.yul\":10157:10160   */\n      dup4\n        /* \"#utility.yul\":10098:10165   */\n      tag_250\n      jump\t// in\n    tag_423:\n        /* \"#utility.yul\":10091:10165   */\n      swap2\n      pop\n        /* \"#utility.yul\":10174:10267   */\n      tag_424\n        /* \"#utility.yul\":10263:10266   */\n      dup3\n        /* \"#utility.yul\":10174:10267   */\n      tag_255\n      jump\t// in\n    tag_424:\n        /* \"#utility.yul\":10292:10294   */\n      0x20\n        /* \"#utility.yul\":10287:10290   */\n      dup3\n        /* \"#utility.yul\":10283:10295   */\n      add\n        /* \"#utility.yul\":10276:10295   */\n      swap1\n      pop\n        /* \"#utility.yul\":9935:10301   */\n      swap2\n      swap1\n      pop\n      jump\t// out\n        /* \"#utility.yul\":10307:10726   */\n    tag_83:\n        /* \"#utility.yul\":10473:10477   */\n      0x00\n        /* \"#utility.yul\":10511:10513   */\n      0x20\n        /* \"#utility.yul\":10500:10509   */\n      dup3\n        /* \"#utility.yul\":10496:10514   */\n      add\n        /* \"#utility.yul\":10488:10514   */\n      swap1\n      pop\n        /* \"#utility.yul\":10560:10569   */\n      dup2\n        /* \"#utility.yul\":10554:10558   */\n      dup2\n        /* \"#utility.yul\":10550:10570   */\n      sub\n        /* \"#utility.yul\":10546:10547   */\n      0x00\n        /* \"#utility.yul\":10535:10544   */\n      dup4\n        /* \"#utility.yul\":10531:10548   */\n      add\n        /* \"#utility.yul\":10524:10571   */\n      mstore\n        /* \"#utility.yul\":10588:10719   */\n      tag_426\n        /* \"#utility.yul\":10714:10718   */\n      dup2\n        /* \"#utility.yul\":10588:10719   */\n      tag_256\n      jump\t// in\n    tag_426:\n        /* \"#utility.yul\":10580:10719   */\n      swap1\n      pop\n        /* \"#utility.yul\":10307:10726   */\n      swap2\n      swap1\n      pop\n      jump\t// out\n        /* \"#utility.yul\":10732:11064   */\n    tag_85:\n        /* \"#utility.yul\":10853:10857   */\n      0x00\n        /* \"#utility.yul\":10891:10893   */\n      0x40\n        /* \"#utility.yul\":10880:10889   */\n      dup3\n        /* \"#utility.yul\":10876:10894   */\n      add\n        /* \"#utility.yul\":10868:10894   */\n      swap1\n      pop\n        /* \"#utility.yul\":10904:10975   */\n      tag_428\n        /* \"#utility.yul\":10972:10973   */\n      0x00\n        /* \"#utility.yul\":10961:10970   */\n      dup4\n        /* \"#utility.yul\":10957:10974   */\n      add\n        /* \"#utility.yul\":10948:10954   */\n      dup6\n        /* \"#utility.yul\":10904:10975   */\n      tag_241\n      jump\t// in\n    tag_428:\n        /* \"#utility.yul\":10985:11057   */\n      tag_429\n        /* \"#utility.yul\":11053:11055   */\n      0x20\n        /* \"#utility.yul\":11042:11051   */\n      dup4\n        /* \"#utility.yul\":11038:11056   */\n      add\n        /* \"#utility.yul\":11029:11035   */\n      dup5\n        /* \"#utility.yul\":10985:11057   */\n      tag_241\n      jump\t// in\n    tag_429:\n        /* \"#utility.yul\":10732:11064   */\n      swap4\n      swap3\n      pop\n      pop\n      pop\n      jump\t// out\n        /* \"#utility.yul\":11070:11213   */\n    tag_257:\n        /* \"#utility.yul\":11127:11132   */\n      0x00\n        /* \"#utility.yul\":11158:11164   */\n      dup2\n        /* \"#utility.yul\":11152:11165   */\n      mload\n        /* \"#utility.yul\":11143:11165   */\n      swap1\n      pop\n        /* \"#utility.yul\":11174:11207   */\n      tag_431\n        /* \"#utility.yul\":11201:11206   */\n      dup2\n        /* \"#utility.yul\":11174:11207   */\n      tag_226\n      jump\t// in\n    tag_431:\n        /* \"#utility.yul\":11070:11213   */\n      swap3\n      swap2\n      pop\n      pop\n      jump\t// out\n        /* \"#utility.yul\":11219:11570   */\n    tag_89:\n        /* \"#utility.yul\":11289:11295   */\n      0x00\n        /* \"#utility.yul\":11338:11340   */\n      0x20\n        /* \"#utility.yul\":11326:11335   */\n      dup3\n        /* \"#utility.yul\":11317:11324   */\n      dup5\n        /* \"#utility.yul\":11313:11336   */\n      sub\n        /* \"#utility.yul\":11309:11341   */\n      slt\n        /* \"#utility.yul\":11306:11425   */\n      iszero\n      tag_433\n      jumpi\n        /* \"#utility.yul\":11344:11423   */\n      tag_434\n      tag_223\n      jump\t// in\n    tag_434:\n        /* \"#utility.yul\":11306:11425   */\n    tag_433:\n        /* \"#utility.yul\":11464:11465   */\n      0x00\n        /* \"#utility.yul\":11489:11553   */\n      tag_435\n        /* \"#utility.yul\":11545:11552   */\n      dup5\n        /* \"#utility.yul\":11536:11542   */\n      dup3\n        /* \"#utility.yul\":11525:11534   */\n      dup6\n        /* \"#utility.yul\":11521:11543   */\n      add\n        /* \"#utility.yul\":11489:11553   */\n      tag_257\n      jump\t// in\n    tag_435:\n        /* \"#utility.yul\":11479:11553   */\n      swap2\n      pop\n        /* \"#utility.yul\":11435:11563   */\n      pop\n        /* \"#utility.yul\":11219:11570   */\n      swap3\n      swap2\n      pop\n      pop\n      jump\t// out\n        /* \"#utility.yul\":11576:11746   */\n    tag_258:\n        /* \"#utility.yul\":11716:11738   */\n      0x4e6f7420656e6f75676820616c6c6f77616e6365000000000000000000000000\n        /* \"#utility.yul\":11712:11713   */\n      0x00\n        /* \"#utility.yul\":11704:11710   */\n      dup3\n        /* \"#utility.yul\":11700:11714   */\n      add\n        /* \"#utility.yul\":11693:11739   */\n      mstore\n        /* \"#utility.yul\":11576:11746   */\n      pop\n      jump\t// out\n        /* \"#utility.yul\":11752:12118   */\n    tag_259:\n        /* \"#utility.yul\":11894:11897   */\n      0x00\n        /* \"#utility.yul\":11915:11982   */\n      tag_438\n        /* \"#utility.yul\":11979:11981   */\n      0x14\n        /* \"#utility.yul\":11974:11977   */\n      dup4\n        /* \"#utility.yul\":11915:11982   */\n      tag_250\n      jump\t// in\n    tag_438:\n        /* \"#utility.yul\":11908:11982   */\n      swap2\n      pop\n        /* \"#utility.yul\":11991:12084   */\n      tag_439\n        /* \"#utility.yul\":12080:12083   */\n      dup3\n        /* \"#utility.yul\":11991:12084   */\n      tag_258\n      jump\t// in\n    tag_439:\n        /* \"#utility.yul\":12109:12111   */\n      0x20\n        /* \"#utility.yul\":12104:12107   */\n      dup3\n        /* \"#utility.yul\":12100:12112   */\n      add\n        /* \"#utility.yul\":12093:12112   */\n      swap1\n      pop\n        /* \"#utility.yul\":11752:12118   */\n      swap2\n      swap1\n      pop\n      jump\t// out\n        /* \"#utility.yul\":12124:12543   */\n    tag_92:\n        /* \"#utility.yul\":12290:12294   */\n      0x00\n        /* \"#utility.yul\":12328:12330   */\n      0x20\n        /* \"#utility.yul\":12317:12326   */\n      dup3\n        /* \"#utility.yul\":12313:12331   */\n      add\n        /* \"#utility.yul\":12305:12331   */\n      swap1\n      pop\n        /* \"#utility.yul\":12377:12386   */\n      dup2\n        /* \"#utility.yul\":12371:12375   */\n      dup2\n        /* \"#utility.yul\":12367:12387   */\n      sub\n        /* \"#utility.yul\":12363:12364   */\n      0x00\n        /* \"#utility.yul\":12352:12361   */\n      dup4\n        /* \"#utility.yul\":12348:12365   */\n      add\n        /* \"#utility.yul\":12341:12388   */\n      mstore\n        /* \"#utility.yul\":12405:12536   */\n      tag_441\n        /* \"#utility.yul\":12531:12535   */\n      dup2\n        /* \"#utility.yul\":12405:12536   */\n      tag_259\n      jump\t// in\n    tag_441:\n        /* \"#utility.yul\":12397:12536   */\n      swap1\n      pop\n        /* \"#utility.yul\":12124:12543   */\n      swap2\n      swap1\n      pop\n      jump\t// out\n        /* \"#utility.yul\":12549:12729   */\n    tag_260:\n        /* \"#utility.yul\":12597:12674   */\n      0x4e487b7100000000000000000000000000000000000000000000000000000000\n        /* \"#utility.yul\":12594:12595   */\n      0x00\n        /* \"#utility.yul\":12587:12675   */\n      mstore\n        /* \"#utility.yul\":12694:12698   */\n      0x11\n        /* \"#utility.yul\":12691:12692   */\n      0x04\n        /* \"#utility.yul\":12684:12699   */\n      mstore\n        /* \"#utility.yul\":12718:12722   */\n      0x24\n        /* \"#utility.yul\":12715:12716   */\n      0x00\n        /* \"#utility.yul\":12708:12723   */\n      revert\n        /* \"#utility.yul\":12735:13145   */\n    tag_94:\n        /* \"#utility.yul\":12775:12782   */\n      0x00\n        /* \"#utility.yul\":12798:12818   */\n      tag_444\n        /* \"#utility.yul\":12816:12817   */\n      dup3\n        /* \"#utility.yul\":12798:12818   */\n      tag_225\n      jump\t// in\n    tag_444:\n        /* \"#utility.yul\":12793:12818   */\n      swap2\n      pop\n        /* \"#utility.yul\":12832:12852   */\n      tag_445\n        /* \"#utility.yul\":12850:12851   */\n      dup4\n        /* \"#utility.yul\":12832:12852   */\n      tag_225\n      jump\t// in\n    tag_445:\n        /* \"#utility.yul\":12827:12852   */\n      swap3\n      pop\n        /* \"#utility.yul\":12887:12888   */\n      dup3\n        /* \"#utility.yul\":12884:12885   */\n      dup3\n        /* \"#utility.yul\":12880:12889   */\n      mul\n        /* \"#utility.yul\":12909:12939   */\n      tag_446\n        /* \"#utility.yul\":12927:12938   */\n      dup2\n        /* \"#utility.yul\":12909:12939   */\n      tag_225\n      jump\t// in\n    tag_446:\n        /* \"#utility.yul\":12898:12939   */\n      swap2\n      pop\n        /* \"#utility.yul\":13088:13089   */\n      dup3\n        /* \"#utility.yul\":13079:13086   */\n      dup3\n        /* \"#utility.yul\":13075:13090   */\n      div\n        /* \"#utility.yul\":13072:13073   */\n      dup5\n        /* \"#utility.yul\":13069:13091   */\n      eq\n        /* \"#utility.yul\":13049:13050   */\n      dup4\n        /* \"#utility.yul\":13042:13051   */\n      iszero\n        /* \"#utility.yul\":13022:13105   */\n      or\n        /* \"#utility.yul\":12999:13138   */\n      tag_447\n      jumpi\n        /* \"#utility.yul\":13118:13136   */\n      tag_448\n      tag_260\n      jump\t// in\n    tag_448:\n        /* \"#utility.yul\":12999:13138   */\n    tag_447:\n        /* \"#utility.yul\":12783:13145   */\n      pop\n        /* \"#utility.yul\":12735:13145   */\n      swap3\n      swap2\n      pop\n      pop\n      jump\t// out\n        /* \"#utility.yul\":13151:13331   */\n    tag_261:\n        /* \"#utility.yul\":13199:13276   */\n      0x4e487b7100000000000000000000000000000000000000000000000000000000\n        /* \"#utility.yul\":13196:13197   */\n      0x00\n        /* \"#utility.yul\":13189:13277   */\n      mstore\n        /* \"#utility.yul\":13296:13300   */\n      0x12\n        /* \"#utility.yul\":13293:13294   */\n      0x04\n        /* \"#utility.yul\":13286:13301   */\n      mstore\n        /* \"#utility.yul\":13320:13324   */\n      0x24\n        /* \"#utility.yul\":13317:13318   */\n      0x00\n        /* \"#utility.yul\":13310:13325   */\n      revert\n        /* \"#utility.yul\":13337:13522   */\n    tag_96:\n        /* \"#utility.yul\":13377:13378   */\n      0x00\n        /* \"#utility.yul\":13394:13414   */\n      tag_451\n        /* \"#utility.yul\":13412:13413   */\n      dup3\n        /* \"#utility.yul\":13394:13414   */\n      tag_225\n      jump\t// in\n    tag_451:\n        /* \"#utility.yul\":13389:13414   */\n      swap2\n      pop\n        /* \"#utility.yul\":13428:13448   */\n      tag_452\n        /* \"#utility.yul\":13446:13447   */\n      dup4\n        /* \"#utility.yul\":13428:13448   */\n      tag_225\n      jump\t// in\n    tag_452:\n        /* \"#utility.yul\":13423:13448   */\n      swap3\n      pop\n        /* \"#utility.yul\":13467:13468   */\n      dup3\n        /* \"#utility.yul\":13457:13492   */\n      tag_453\n      jumpi\n        /* \"#utility.yul\":13472:13490   */\n      tag_454\n      tag_261\n      jump\t// in\n    tag_454:\n        /* \"#utility.yul\":13457:13492   */\n    tag_453:\n        /* \"#utility.yul\":13514:13515   */\n      dup3\n        /* \"#utility.yul\":13511:13512   */\n      dup3\n        /* \"#utility.yul\":13507:13516   */\n      div\n        /* \"#utility.yul\":13502:13516   */\n      swap1\n      pop\n        /* \"#utility.yul\":13337:13522   */\n      swap3\n      swap2\n      pop\n      pop\n      jump\t// out\n        /* \"#utility.yul\":13528:13722   */\n    tag_98:\n        /* \"#utility.yul\":13568:13572   */\n      0x00\n        /* \"#utility.yul\":13588:13608   */\n      tag_456\n        /* \"#utility.yul\":13606:13607   */\n      dup3\n        /* \"#utility.yul\":13588:13608   */\n      tag_225\n      jump\t// in\n    tag_456:\n        /* \"#utility.yul\":13583:13608   */\n      swap2\n      pop\n        /* \"#utility.yul\":13622:13642   */\n      tag_457\n        /* \"#utility.yul\":13640:13641   */\n      dup4\n        /* \"#utility.yul\":13622:13642   */\n      tag_225\n      jump\t// in\n    tag_457:\n        /* \"#utility.yul\":13617:13642   */\n      swap3\n      pop\n        /* \"#utility.yul\":13666:13667   */\n      dup3\n        /* \"#utility.yul\":13663:13664   */\n      dup3\n        /* \"#utility.yul\":13659:13668   */\n      sub\n        /* \"#utility.yul\":13651:13668   */\n      swap1\n      pop\n        /* \"#utility.yul\":13690:13691   */\n      dup2\n        /* \"#utility.yul\":13684:13688   */\n      dup2\n        /* \"#utility.yul\":13681:13692   */\n      gt\n        /* \"#utility.yul\":13678:13715   */\n      iszero\n      tag_458\n      jumpi\n        /* \"#utility.yul\":13695:13713   */\n      tag_459\n      tag_260\n      jump\t// in\n    tag_459:\n        /* \"#utility.yul\":13678:13715   */\n    tag_458:\n        /* \"#utility.yul\":13528:13722   */\n      swap3\n      swap2\n      pop\n      pop\n      jump\t// out\n        /* \"#utility.yul\":13728:14170   */\n    tag_100:\n        /* \"#utility.yul\":13877:13881   */\n      0x00\n        /* \"#utility.yul\":13915:13917   */\n      0x60\n        /* \"#utility.yul\":13904:13913   */\n      dup3\n        /* \"#utility.yul\":13900:13918   */\n      add\n        /* \"#utility.yul\":13892:13918   */\n      swap1\n      pop\n        /* \"#utility.yul\":13928:13999   */\n      tag_461\n        /* \"#utility.yul\":13996:13997   */\n      0x00\n        /* \"#utility.yul\":13985:13994   */\n      dup4\n        /* \"#utility.yul\":13981:13998   */\n      add\n        /* \"#utility.yul\":13972:13978   */\n      dup7\n        /* \"#utility.yul\":13928:13999   */\n      tag_241\n      jump\t// in\n    tag_461:\n        /* \"#utility.yul\":14009:14081   */\n      tag_462\n        /* \"#utility.yul\":14077:14079   */\n      0x20\n        /* \"#utility.yul\":14066:14075   */\n      dup4\n        /* \"#utility.yul\":14062:14080   */\n      add\n        /* \"#utility.yul\":14053:14059   */\n      dup6\n        /* \"#utility.yul\":14009:14081   */\n      tag_241\n      jump\t// in\n    tag_462:\n        /* \"#utility.yul\":14091:14163   */\n      tag_463\n        /* \"#utility.yul\":14159:14161   */\n      0x40\n        /* \"#utility.yul\":14148:14157   */\n      dup4\n        /* \"#utility.yul\":14144:14162   */\n      add\n        /* \"#utility.yul\":14135:14141   */\n      dup5\n        /* \"#utility.yul\":14091:14163   */\n      tag_228\n      jump\t// in\n    tag_463:\n        /* \"#utility.yul\":13728:14170   */\n      swap5\n      swap4\n      pop\n      pop\n      pop\n      pop\n      jump\t// out\n        /* \"#utility.yul\":14176:14292   */\n    tag_262:\n        /* \"#utility.yul\":14246:14267   */\n      tag_465\n        /* \"#utility.yul\":14261:14266   */\n      dup2\n        /* \"#utility.yul\":14246:14267   */\n      tag_242\n      jump\t// in\n    tag_465:\n        /* \"#utility.yul\":14239:14244   */\n      dup2\n        /* \"#utility.yul\":14236:14268   */\n      eq\n        /* \"#utility.yul\":14226:14286   */\n      tag_466\n      jumpi\n        /* \"#utility.yul\":14282:14283   */\n      0x00\n        /* \"#utility.yul\":14279:14280   */\n      0x00\n        /* \"#utility.yul\":14272:14284   */\n      revert\n        /* \"#utility.yul\":14226:14286   */\n    tag_466:\n        /* \"#utility.yul\":14176:14292   */\n      pop\n      jump\t// out\n        /* \"#utility.yul\":14298:14435   */\n    tag_263:\n        /* \"#utility.yul\":14352:14357   */\n      0x00\n        /* \"#utility.yul\":14383:14389   */\n      dup2\n        /* \"#utility.yul\":14377:14390   */\n      mload\n        /* \"#utility.yul\":14368:14390   */\n      swap1\n      pop\n        /* \"#utility.yul\":14399:14429   */\n      tag_468\n        /* \"#utility.yul\":14423:14428   */\n      dup2\n        /* \"#utility.yul\":14399:14429   */\n      tag_262\n      jump\t// in\n    tag_468:\n        /* \"#utility.yul\":14298:14435   */\n      swap3\n      swap2\n      pop\n      pop\n      jump\t// out\n        /* \"#utility.yul\":14441:14786   */\n    tag_104:\n        /* \"#utility.yul\":14508:14514   */\n      0x00\n        /* \"#utility.yul\":14557:14559   */\n      0x20\n        /* \"#utility.yul\":14545:14554   */\n      dup3\n        /* \"#utility.yul\":14536:14543   */\n      dup5\n        /* \"#utility.yul\":14532:14555   */\n      sub\n        /* \"#utility.yul\":14528:14560   */\n      slt\n        /* \"#utility.yul\":14525:14644   */\n      iszero\n      tag_470\n      jumpi\n        /* \"#utility.yul\":14563:14642   */\n      tag_471\n      tag_223\n      jump\t// in\n    tag_471:\n        /* \"#utility.yul\":14525:14644   */\n    tag_470:\n        /* \"#utility.yul\":14683:14684   */\n      0x00\n        /* \"#utility.yul\":14708:14769   */\n      tag_472\n        /* \"#utility.yul\":14761:14768   */\n      dup5\n        /* \"#utility.yul\":14752:14758   */\n      dup3\n        /* \"#utility.yul\":14741:14750   */\n      dup6\n        /* \"#utility.yul\":14737:14759   */\n      add\n        /* \"#utility.yul\":14708:14769   */\n      tag_263\n      jump\t// in\n    tag_472:\n        /* \"#utility.yul\":14698:14769   */\n      swap2\n      pop\n        /* \"#utility.yul\":14654:14779   */\n      pop\n        /* \"#utility.yul\":14441:14786   */\n      swap3\n      swap2\n      pop\n      pop\n      jump\t// out\n        /* \"#utility.yul\":14792:14957   */\n    tag_264:\n        /* \"#utility.yul\":14932:14949   */\n      0x5472616e73666572206661696c65640000000000000000000000000000000000\n        /* \"#utility.yul\":14928:14929   */\n      0x00\n        /* \"#utility.yul\":14920:14926   */\n      dup3\n        /* \"#utility.yul\":14916:14930   */\n      add\n        /* \"#utility.yul\":14909:14950   */\n      mstore\n        /* \"#utility.yul\":14792:14957   */\n      pop\n      jump\t// out\n        /* \"#utility.yul\":14963:15329   */\n    tag_265:\n        /* \"#utility.yul\":15105:15108   */\n      0x00\n        /* \"#utility.yul\":15126:15193   */\n      tag_475\n        /* \"#utility.yul\":15190:15192   */\n      0x0f\n        /* \"#utility.yul\":15185:15188   */\n      dup4\n        /* \"#utility.yul\":15126:15193   */\n      tag_250\n      jump\t// in\n    tag_475:\n        /* \"#utility.yul\":15119:15193   */\n      swap2\n      pop\n        /* \"#utility.yul\":15202:15295   */\n      tag_476\n        /* \"#utility.yul\":15291:15294   */\n      dup3\n        /* \"#utility.yul\":15202:15295   */\n      tag_264\n      jump\t// in\n    tag_476:\n        /* \"#utility.yul\":15320:15322   */\n      0x20\n        /* \"#utility.yul\":15315:15318   */\n      dup3\n        /* \"#utility.yul\":15311:15323   */\n      add\n        /* \"#utility.yul\":15304:15323   */\n      swap1\n      pop\n        /* \"#utility.yul\":14963:15329   */\n      swap2\n      swap1\n      pop\n      jump\t// out\n        /* \"#utility.yul\":15335:15754   */\n    tag_107:\n        /* \"#utility.yul\":15501:15505   */\n      0x00\n        /* \"#utility.yul\":15539:15541   */\n      0x20\n        /* \"#utility.yul\":15528:15537   */\n      dup3\n        /* \"#utility.yul\":15524:15542   */\n      add\n        /* \"#utility.yul\":15516:15542   */\n      swap1\n      pop\n        /* \"#utility.yul\":15588:15597   */\n      dup2\n        /* \"#utility.yul\":15582:15586   */\n      dup2\n        /* \"#utility.yul\":15578:15598   */\n      sub\n        /* \"#utility.yul\":15574:15575   */\n      0x00\n        /* \"#utility.yul\":15563:15572   */\n      dup4\n        /* \"#utility.yul\":15559:15576   */\n      add\n        /* \"#utility.yul\":15552:15599   */\n      mstore\n        /* \"#utility.yul\":15616:15747   */\n      tag_478\n        /* \"#utility.yul\":15742:15746   */\n      dup2\n        /* \"#utility.yul\":15616:15747   */\n      tag_265\n      jump\t// in\n    tag_478:\n        /* \"#utility.yul\":15608:15747   */\n      swap1\n      pop\n        /* \"#utility.yul\":15335:15754   */\n      swap2\n      swap1\n      pop\n      jump\t// out\n        /* \"#utility.yul\":15760:16092   */\n    tag_109:\n        /* \"#utility.yul\":15881:15885   */\n      0x00\n        /* \"#utility.yul\":15919:15921   */\n      0x40\n        /* \"#utility.yul\":15908:15917   */\n      dup3\n        /* \"#utility.yul\":15904:15922   */\n      add\n        /* \"#utility.yul\":15896:15922   */\n      swap1\n      pop\n        /* \"#utility.yul\":15932:16003   */\n      tag_480\n        /* \"#utility.yul\":16000:16001   */\n      0x00\n        /* \"#utility.yul\":15989:15998   */\n      dup4\n        /* \"#utility.yul\":15985:16002   */\n      add\n        /* \"#utility.yul\":15976:15982   */\n      dup6\n        /* \"#utility.yul\":15932:16003   */\n      tag_241\n      jump\t// in\n    tag_480:\n        /* \"#utility.yul\":16013:16085   */\n      tag_481\n        /* \"#utility.yul\":16081:16083   */\n      0x20\n        /* \"#utility.yul\":16070:16079   */\n      dup4\n        /* \"#utility.yul\":16066:16084   */\n      add\n        /* \"#utility.yul\":16057:16063   */\n      dup5\n        /* \"#utility.yul\":16013:16085   */\n      tag_228\n      jump\t// in\n    tag_481:\n        /* \"#utility.yul\":15760:16092   */\n      swap4\n      swap3\n      pop\n      pop\n      pop\n      jump\t// out\n        /* \"#utility.yul\":16098:16274   */\n    tag_266:\n        /* \"#utility.yul\":16238:16266   */\n      0x436f6d6d697373696f6e207472616e73666572206661696c6564000000000000\n        /* \"#utility.yul\":16234:16235   */\n      0x00\n        /* \"#utility.yul\":16226:16232   */\n      dup3\n        /* \"#utility.yul\":16222:16236   */\n      add\n        /* \"#utility.yul\":16215:16267   */\n      mstore\n        /* \"#utility.yul\":16098:16274   */\n      pop\n      jump\t// out\n        /* \"#utility.yul\":16280:16646   */\n    tag_267:\n        /* \"#utility.yul\":16422:16425   */\n      0x00\n        /* \"#utility.yul\":16443:16510   */\n      tag_484\n        /* \"#utility.yul\":16507:16509   */\n      0x1a\n        /* \"#utility.yul\":16502:16505   */\n      dup4\n        /* \"#utility.yul\":16443:16510   */\n      tag_250\n      jump\t// in\n    tag_484:\n        /* \"#utility.yul\":16436:16510   */\n      swap2\n      pop\n        /* \"#utility.yul\":16519:16612   */\n      tag_485\n        /* \"#utility.yul\":16608:16611   */\n      dup3\n        /* \"#utility.yul\":16519:16612   */\n      tag_266\n      jump\t// in\n    tag_485:\n        /* \"#utility.yul\":16637:16639   */\n      0x20\n        /* \"#utility.yul\":16632:16635   */\n      dup3\n        /* \"#utility.yul\":16628:16640   */\n      add\n        /* \"#utility.yul\":16621:16640   */\n      swap1\n      pop\n        /* \"#utility.yul\":16280:16646   */\n      swap2\n      swap1\n      pop\n      jump\t// out\n        /* \"#utility.yul\":16652:17071   */\n    tag_115:\n        /* \"#utility.yul\":16818:16822   */\n      0x00\n        /* \"#utility.yul\":16856:16858   */\n      0x20\n        /* \"#utility.yul\":16845:16854   */\n      dup3\n        /* \"#utility.yul\":16841:16859   */\n      add\n        /* \"#utility.yul\":16833:16859   */\n      swap1\n      pop\n        /* \"#utility.yul\":16905:16914   */\n      dup2\n        /* \"#utility.yul\":16899:16903   */\n      dup2\n        /* \"#utility.yul\":16895:16915   */\n      sub\n        /* \"#utility.yul\":16891:16892   */\n      0x00\n        /* \"#utility.yul\":16880:16889   */\n      dup4\n        /* \"#utility.yul\":16876:16893   */\n      add\n        /* \"#utility.yul\":16869:16916   */\n      mstore\n        /* \"#utility.yul\":16933:17064   */\n      tag_487\n        /* \"#utility.yul\":17059:17063   */\n      dup2\n        /* \"#utility.yul\":16933:17064   */\n      tag_267\n      jump\t// in\n    tag_487:\n        /* \"#utility.yul\":16925:17064   */\n      swap1\n      pop\n        /* \"#utility.yul\":16652:17071   */\n      swap2\n      swap1\n      pop\n      jump\t// out\n        /* \"#utility.yul\":17077:17248   */\n    tag_268:\n        /* \"#utility.yul\":17217:17240   */\n      0x53656c6c6572207061796d656e74206661696c65640000000000000000000000\n        /* \"#utility.yul\":17213:17214   */\n      0x00\n        /* \"#utility.yul\":17205:17211   */\n      dup3\n        /* \"#utility.yul\":17201:17215   */\n      add\n        /* \"#utility.yul\":17194:17241   */\n      mstore\n        /* \"#utility.yul\":17077:17248   */\n      pop\n      jump\t// out\n        /* \"#utility.yul\":17254:17620   */\n    tag_269:\n        /* \"#utility.yul\":17396:17399   */\n      0x00\n        /* \"#utility.yul\":17417:17484   */\n      tag_490\n        /* \"#utility.yul\":17481:17483   */\n      0x15\n        /* \"#utility.yul\":17476:17479   */\n      dup4\n        /* \"#utility.yul\":17417:17484   */\n      tag_250\n      jump\t// in\n    tag_490:\n        /* \"#utility.yul\":17410:17484   */\n      swap2\n      pop\n        /* \"#utility.yul\":17493:17586   */\n      tag_491\n        /* \"#utility.yul\":17582:17585   */\n      dup3\n        /* \"#utility.yul\":17493:17586   */\n      tag_268\n      jump\t// in\n    tag_491:\n        /* \"#utility.yul\":17611:17613   */\n      0x20\n        /* \"#utility.yul\":17606:17609   */\n      dup3\n        /* \"#utility.yul\":17602:17614   */\n      add\n        /* \"#utility.yul\":17595:17614   */\n      swap1\n      pop\n        /* \"#utility.yul\":17254:17620   */\n      swap2\n      swap1\n      pop\n      jump\t// out\n        /* \"#utility.yul\":17626:18045   */\n    tag_122:\n        /* \"#utility.yul\":17792:17796   */\n      0x00\n        /* \"#utility.yul\":17830:17832   */\n      0x20\n        /* \"#utility.yul\":17819:17828   */\n      dup3\n        /* \"#utility.yul\":17815:17833   */\n      add\n        /* \"#utility.yul\":17807:17833   */\n      swap1\n      pop\n        /* \"#utility.yul\":17879:17888   */\n      dup2\n        /* \"#utility.yul\":17873:17877   */\n      dup2\n        /* \"#utility.yul\":17869:17889   */\n      sub\n        /* \"#utility.yul\":17865:17866   */\n      0x00\n        /* \"#utility.yul\":17854:17863   */\n      dup4\n        /* \"#utility.yul\":17850:17867   */\n      add\n        /* \"#utility.yul\":17843:17890   */\n      mstore\n        /* \"#utility.yul\":17907:18038   */\n      tag_493\n        /* \"#utility.yul\":18033:18037   */\n      dup2\n        /* \"#utility.yul\":17907:18038   */\n      tag_269\n      jump\t// in\n    tag_493:\n        /* \"#utility.yul\":17899:18038   */\n      swap1\n      pop\n        /* \"#utility.yul\":17626:18045   */\n      swap2\n      swap1\n      pop\n      jump\t// out\n        /* \"#utility.yul\":18051:18233   */\n    tag_270:\n        /* \"#utility.yul\":18191:18225   */\n      0x4f6e6c79206f776e65722063616e206368616e676520636f6d6d697373696f6e\n        /* \"#utility.yul\":18187:18188   */\n      0x00\n        /* \"#utility.yul\":18179:18185   */\n      dup3\n        /* \"#utility.yul\":18175:18189   */\n      add\n        /* \"#utility.yul\":18168:18226   */\n      mstore\n        /* \"#utility.yul\":18051:18233   */\n      pop\n      jump\t// out\n        /* \"#utility.yul\":18239:18605   */\n    tag_271:\n        /* \"#utility.yul\":18381:18384   */\n      0x00\n        /* \"#utility.yul\":18402:18469   */\n      tag_496\n        /* \"#utility.yul\":18466:18468   */\n      0x20\n        /* \"#utility.yul\":18461:18464   */\n      dup4\n        /* \"#utility.yul\":18402:18469   */\n      tag_250\n      jump\t// in\n    tag_496:\n        /* \"#utility.yul\":18395:18469   */\n      swap2\n      pop\n        /* \"#utility.yul\":18478:18571   */\n      tag_497\n        /* \"#utility.yul\":18567:18570   */\n      dup3\n        /* \"#utility.yul\":18478:18571   */\n      tag_270\n      jump\t// in\n    tag_497:\n        /* \"#utility.yul\":18596:18598   */\n      0x20\n        /* \"#utility.yul\":18591:18594   */\n      dup3\n        /* \"#utility.yul\":18587:18599   */\n      add\n        /* \"#utility.yul\":18580:18599   */\n      swap1\n      pop\n        /* \"#utility.yul\":18239:18605   */\n      swap2\n      swap1\n      pop\n      jump\t// out\n        /* \"#utility.yul\":18611:19030   */\n    tag_127:\n        /* \"#utility.yul\":18777:18781   */\n      0x00\n        /* \"#utility.yul\":18815:18817   */\n      0x20\n        /* \"#utility.yul\":18804:18813   */\n      dup3\n        /* \"#utility.yul\":18800:18818   */\n      add\n        /* \"#utility.yul\":18792:18818   */\n      swap1\n      pop\n        /* \"#utility.yul\":18864:18873   */\n      dup2\n        /* \"#utility.yul\":18858:18862   */\n      dup2\n        /* \"#utility.yul\":18854:18874   */\n      sub\n        /* \"#utility.yul\":18850:18851   */\n      0x00\n        /* \"#utility.yul\":18839:18848   */\n      dup4\n        /* \"#utility.yul\":18835:18852   */\n      add\n        /* \"#utility.yul\":18828:18875   */\n      mstore\n        /* \"#utility.yul\":18892:19023   */\n      tag_499\n        /* \"#utility.yul\":19018:19022   */\n      dup2\n        /* \"#utility.yul\":18892:19023   */\n      tag_271\n      jump\t// in\n    tag_499:\n        /* \"#utility.yul\":18884:19023   */\n      swap1\n      pop\n        /* \"#utility.yul\":18611:19030   */\n      swap2\n      swap1\n      pop\n      jump\t// out\n        /* \"#utility.yul\":19036:19215   */\n    tag_272:\n        /* \"#utility.yul\":19176:19207   */\n      0x436f6d6d697373696f6e2063616e6e6f74206578636565642031303025000000\n        /* \"#utility.yul\":19172:19173   */\n      0x00\n        /* \"#utility.yul\":19164:19170   */\n      dup3\n        /* \"#utility.yul\":19160:19174   */\n      add\n        /* \"#utility.yul\":19153:19208   */\n      mstore\n        /* \"#utility.yul\":19036:19215   */\n      pop\n      jump\t// out\n        /* \"#utility.yul\":19221:19587   */\n    tag_273:\n        /* \"#utility.yul\":19363:19366   */\n      0x00\n        /* \"#utility.yul\":19384:19451   */\n      tag_502\n        /* \"#utility.yul\":19448:19450   */\n      0x1d\n        /* \"#utility.yul\":19443:19446   */\n      dup4\n        /* \"#utility.yul\":19384:19451   */\n      tag_250\n      jump\t// in\n    tag_502:\n        /* \"#utility.yul\":19377:19451   */\n      swap2\n      pop\n        /* \"#utility.yul\":19460:19553   */\n      tag_503\n        /* \"#utility.yul\":19549:19552   */\n      dup3\n        /* \"#utility.yul\":19460:19553   */\n      tag_272\n      jump\t// in\n    tag_503:\n        /* \"#utility.yul\":19578:19580   */\n      0x20\n        /* \"#utility.yul\":19573:19576   */\n      dup3\n        /* \"#utility.yul\":19569:19581   */\n      add\n        /* \"#utility.yul\":19562:19581   */\n      swap1\n      pop\n        /* \"#utility.yul\":19221:19587   */\n      swap2\n      swap1\n      pop\n      jump\t// out\n        /* \"#utility.yul\":19593:20012   */\n    tag_130:\n        /* \"#utility.yul\":19759:19763   */\n      0x00\n        /* \"#utility.yul\":19797:19799   */\n      0x20\n        /* \"#utility.yul\":19786:19795   */\n      dup3\n        /* \"#utility.yul\":19782:19800   */\n      add\n        /* \"#utility.yul\":19774:19800   */\n      swap1\n      pop\n        /* \"#utility.yul\":19846:19855   */\n      dup2\n        /* \"#utility.yul\":19840:19844   */\n      dup2\n        /* \"#utility.yul\":19836:19856   */\n      sub\n        /* \"#utility.yul\":19832:19833   */\n      0x00\n        /* \"#utility.yul\":19821:19830   */\n      dup4\n        /* \"#utility.yul\":19817:19834   */\n      add\n        /* \"#utility.yul\":19810:19857   */\n      mstore\n        /* \"#utility.yul\":19874:20005   */\n      tag_505\n        /* \"#utility.yul\":20000:20004   */\n      dup2\n        /* \"#utility.yul\":19874:20005   */\n      tag_273\n      jump\t// in\n    tag_505:\n        /* \"#utility.yul\":19866:20005   */\n      swap1\n      pop\n        /* \"#utility.yul\":19593:20012   */\n      swap2\n      swap1\n      pop\n      jump\t// out\n        /* \"#utility.yul\":20018:20196   */\n    tag_274:\n        /* \"#utility.yul\":20158:20188   */\n      0x5072696365206d7573742062652067726561746572207468616e203000000000\n        /* \"#utility.yul\":20154:20155   */\n      0x00\n        /* \"#utility.yul\":20146:20152   */\n      dup3\n        /* \"#utility.yul\":20142:20156   */\n      add\n        /* \"#utility.yul\":20135:20189   */\n      mstore\n        /* \"#utility.yul\":20018:20196   */\n      pop\n      jump\t// out\n        /* \"#utility.yul\":20202:20568   */\n    tag_275:\n        /* \"#utility.yul\":20344:20347   */\n      0x00\n        /* \"#utility.yul\":20365:20432   */\n      tag_508\n        /* \"#utility.yul\":20429:20431   */\n      0x1c\n        /* \"#utility.yul\":20424:20427   */\n      dup4\n        /* \"#utility.yul\":20365:20432   */\n      tag_250\n      jump\t// in\n    tag_508:\n        /* \"#utility.yul\":20358:20432   */\n      swap2\n      pop\n        /* \"#utility.yul\":20441:20534   */\n      tag_509\n        /* \"#utility.yul\":20530:20533   */\n      dup3\n        /* \"#utility.yul\":20441:20534   */\n      tag_274\n      jump\t// in\n    tag_509:\n        /* \"#utility.yul\":20559:20561   */\n      0x20\n        /* \"#utility.yul\":20554:20557   */\n      dup3\n        /* \"#utility.yul\":20550:20562   */\n      add\n        /* \"#utility.yul\":20543:20562   */\n      swap1\n      pop\n        /* \"#utility.yul\":20202:20568   */\n      swap2\n      swap1\n      pop\n      jump\t// out\n        /* \"#utility.yul\":20574:20993   */\n    tag_134:\n        /* \"#utility.yul\":20740:20744   */\n      0x00\n        /* \"#utility.yul\":20778:20780   */\n      0x20\n        /* \"#utility.yul\":20767:20776   */\n      dup3\n        /* \"#utility.yul\":20763:20781   */\n      add\n        /* \"#utility.yul\":20755:20781   */\n      swap1\n      pop\n        /* \"#utility.yul\":20827:20836   */\n      dup2\n        /* \"#utility.yul\":20821:20825   */\n      dup2\n        /* \"#utility.yul\":20817:20837   */\n      sub\n        /* \"#utility.yul\":20813:20814   */\n      0x00\n        /* \"#utility.yul\":20802:20811   */\n      dup4\n        /* \"#utility.yul\":20798:20815   */\n      add\n        /* \"#utility.yul\":20791:20838   */\n      mstore\n        /* \"#utility.yul\":20855:20986   */\n      tag_511\n        /* \"#utility.yul\":20981:20985   */\n      dup2\n        /* \"#utility.yul\":20855:20986   */\n      tag_275\n      jump\t// in\n    tag_511:\n        /* \"#utility.yul\":20847:20986   */\n      swap1\n      pop\n        /* \"#utility.yul\":20574:20993   */\n      swap2\n      swap1\n      pop\n      jump\t// out\n        /* \"#utility.yul\":20999:21170   */\n    tag_276:\n        /* \"#utility.yul\":21139:21162   */\n      0x5469746c652063616e6e6f7420626520656d7074790000000000000000000000\n        /* \"#utility.yul\":21135:21136   */\n      0x00\n        /* \"#utility.yul\":21127:21133   */\n      dup3\n        /* \"#utility.yul\":21123:21137   */\n      add\n        /* \"#utility.yul\":21116:21163   */\n      mstore\n        /* \"#utility.yul\":20999:21170   */\n      pop\n      jump\t// out\n        /* \"#utility.yul\":21176:21542   */\n    tag_277:\n        /* \"#utility.yul\":21318:21321   */\n      0x00\n        /* \"#utility.yul\":21339:21406   */\n      tag_514\n        /* \"#utility.yul\":21403:21405   */\n      0x15\n        /* \"#utility.yul\":21398:21401   */\n      dup4\n        /* \"#utility.yul\":21339:21406   */\n      tag_250\n      jump\t// in\n    tag_514:\n        /* \"#utility.yul\":21332:21406   */\n      swap2\n      pop\n        /* \"#utility.yul\":21415:21508   */\n      tag_515\n        /* \"#utility.yul\":21504:21507   */\n      dup3\n        /* \"#utility.yul\":21415:21508   */\n      tag_276\n      jump\t// in\n    tag_515:\n        /* \"#utility.yul\":21533:21535   */\n      0x20\n        /* \"#utility.yul\":21528:21531   */\n      dup3\n        /* \"#utility.yul\":21524:21536   */\n      add\n        /* \"#utility.yul\":21517:21536   */\n      swap1\n      pop\n        /* \"#utility.yul\":21176:21542   */\n      swap2\n      swap1\n      pop\n      jump\t// out\n        /* \"#utility.yul\":21548:21967   */\n    tag_137:\n        /* \"#utility.yul\":21714:21718   */\n      0x00\n        /* \"#utility.yul\":21752:21754   */\n      0x20\n        /* \"#utility.yul\":21741:21750   */\n      dup3\n        /* \"#utility.yul\":21737:21755   */\n      add\n        /* \"#utility.yul\":21729:21755   */\n      swap1\n      pop\n        /* \"#utility.yul\":21801:21810   */\n      dup2\n        /* \"#utility.yul\":21795:21799   */\n      dup2\n        /* \"#utility.yul\":21791:21811   */\n      sub\n        /* \"#utility.yul\":21787:21788   */\n      0x00\n        /* \"#utility.yul\":21776:21785   */\n      dup4\n        /* \"#utility.yul\":21772:21789   */\n      add\n        /* \"#utility.yul\":21765:21812   */\n      mstore\n        /* \"#utility.yul\":21829:21960   */\n      tag_517\n        /* \"#utility.yul\":21955:21959   */\n      dup2\n        /* \"#utility.yul\":21829:21960   */\n      tag_277\n      jump\t// in\n    tag_517:\n        /* \"#utility.yul\":21821:21960   */\n      swap1\n      pop\n        /* \"#utility.yul\":21548:21967   */\n      swap2\n      swap1\n      pop\n      jump\t// out\n        /* \"#utility.yul\":21973:22150   */\n    tag_278:\n        /* \"#utility.yul\":22113:22142   */\n      0x4465736372697074696f6e2063616e6e6f7420626520656d7074790000000000\n        /* \"#utility.yul\":22109:22110   */\n      0x00\n        /* \"#utility.yul\":22101:22107   */\n      dup3\n        /* \"#utility.yul\":22097:22111   */\n      add\n        /* \"#utility.yul\":22090:22143   */\n      mstore\n        /* \"#utility.yul\":21973:22150   */\n      pop\n      jump\t// out\n        /* \"#utility.yul\":22156:22522   */\n    tag_279:\n        /* \"#utility.yul\":22298:22301   */\n      0x00\n        /* \"#utility.yul\":22319:22386   */\n      tag_520\n        /* \"#utility.yul\":22383:22385   */\n      0x1b\n        /* \"#utility.yul\":22378:22381   */\n      dup4\n        /* \"#utility.yul\":22319:22386   */\n      tag_250\n      jump\t// in\n    tag_520:\n        /* \"#utility.yul\":22312:22386   */\n      swap2\n      pop\n        /* \"#utility.yul\":22395:22488   */\n      tag_521\n        /* \"#utility.yul\":22484:22487   */\n      dup3\n        /* \"#utility.yul\":22395:22488   */\n      tag_278\n      jump\t// in\n    tag_521:\n        /* \"#utility.yul\":22513:22515   */\n      0x20\n        /* \"#utility.yul\":22508:22511   */\n      dup3\n        /* \"#utility.yul\":22504:22516   */\n      add\n        /* \"#utility.yul\":22497:22516   */\n      swap1\n      pop\n        /* \"#utility.yul\":22156:22522   */\n      swap2\n      swap1\n      pop\n      jump\t// out\n        /* \"#utility.yul\":22528:22947   */\n    tag_140:\n        /* \"#utility.yul\":22694:22698   */\n      0x00\n        /* \"#utility.yul\":22732:22734   */\n      0x20\n        /* \"#utility.yul\":22721:22730   */\n      dup3\n        /* \"#utility.yul\":22717:22735   */\n      add\n        /* \"#utility.yul\":22709:22735   */\n      swap1\n      pop\n        /* \"#utility.yul\":22781:22790   */\n      dup2\n        /* \"#utility.yul\":22775:22779   */\n      dup2\n        /* \"#utility.yul\":22771:22791   */\n      sub\n        /* \"#utility.yul\":22767:22768   */\n      0x00\n        /* \"#utility.yul\":22756:22765   */\n      dup4\n        /* \"#utility.yul\":22752:22769   */\n      add\n        /* \"#utility.yul\":22745:22792   */\n      mstore\n        /* \"#utility.yul\":22809:22940   */\n      tag_523\n        /* \"#utility.yul\":22935:22939   */\n      dup2\n        /* \"#utility.yul\":22809:22940   */\n      tag_279\n      jump\t// in\n    tag_523:\n        /* \"#utility.yul\":22801:22940   */\n      swap1\n      pop\n        /* \"#utility.yul\":22528:22947   */\n      swap2\n      swap1\n      pop\n      jump\t// out\n        /* \"#utility.yul\":22953:23120   */\n    tag_280:\n        /* \"#utility.yul\":23093:23112   */\n      0x507269636520697320746f6f2068696768000000000000000000000000000000\n        /* \"#utility.yul\":23089:23090   */\n      0x00\n        /* \"#utility.yul\":23081:23087   */\n      dup3\n        /* \"#utility.yul\":23077:23091   */\n      add\n        /* \"#utility.yul\":23070:23113   */\n      mstore\n        /* \"#utility.yul\":22953:23120   */\n      pop\n      jump\t// out\n        /* \"#utility.yul\":23126:23492   */\n    tag_281:\n        /* \"#utility.yul\":23268:23271   */\n      0x00\n        /* \"#utility.yul\":23289:23356   */\n      tag_526\n        /* \"#utility.yul\":23353:23355   */\n      0x11\n        /* \"#utility.yul\":23348:23351   */\n      dup4\n        /* \"#utility.yul\":23289:23356   */\n      tag_250\n      jump\t// in\n    tag_526:\n        /* \"#utility.yul\":23282:23356   */\n      swap2\n      pop\n        /* \"#utility.yul\":23365:23458   */\n      tag_527\n        /* \"#utility.yul\":23454:23457   */\n      dup3\n        /* \"#utility.yul\":23365:23458   */\n      tag_280\n      jump\t// in\n    tag_527:\n        /* \"#utility.yul\":23483:23485   */\n      0x20\n        /* \"#utility.yul\":23478:23481   */\n      dup3\n        /* \"#utility.yul\":23474:23486   */\n      add\n        /* \"#utility.yul\":23467:23486   */\n      swap1\n      pop\n        /* \"#utility.yul\":23126:23492   */\n      swap2\n      swap1\n      pop\n      jump\t// out\n        /* \"#utility.yul\":23498:23917   */\n    tag_143:\n        /* \"#utility.yul\":23664:23668   */\n      0x00\n        /* \"#utility.yul\":23702:23704   */\n      0x20\n        /* \"#utility.yul\":23691:23700   */\n      dup3\n        /* \"#utility.yul\":23687:23705   */\n      add\n        /* \"#utility.yul\":23679:23705   */\n      swap1\n      pop\n        /* \"#utility.yul\":23751:23760   */\n      dup2\n        /* \"#utility.yul\":23745:23749   */\n      dup2\n        /* \"#utility.yul\":23741:23761   */\n      sub\n        /* \"#utility.yul\":23737:23738   */\n      0x00\n        /* \"#utility.yul\":23726:23735   */\n      dup4\n        /* \"#utility.yul\":23722:23739   */\n      add\n        /* \"#utility.yul\":23715:23762   */\n      mstore\n        /* \"#utility.yul\":23779:23910   */\n      tag_529\n        /* \"#utility.yul\":23905:23909   */\n      dup2\n        /* \"#utility.yul\":23779:23910   */\n      tag_281\n      jump\t// in\n    tag_529:\n        /* \"#utility.yul\":23771:23910   */\n      swap1\n      pop\n        /* \"#utility.yul\":23498:23917   */\n      swap2\n      swap1\n      pop\n      jump\t// out\n        /* \"#utility.yul\":23923:24156   */\n    tag_145:\n        /* \"#utility.yul\":23962:23965   */\n      0x00\n        /* \"#utility.yul\":23985:24009   */\n      tag_531\n        /* \"#utility.yul\":24003:24008   */\n      dup3\n        /* \"#utility.yul\":23985:24009   */\n      tag_225\n      jump\t// in\n    tag_531:\n        /* \"#utility.yul\":23976:24009   */\n      swap2\n      pop\n        /* \"#utility.yul\":24031:24097   */\n      0xffffffffffffffffffffffffffffffffffffffffffffffffffffffffffffffff\n        /* \"#utility.yul\":24024:24029   */\n      dup3\n        /* \"#utility.yul\":24021:24098   */\n      sub\n        /* \"#utility.yul\":24018:24121   */\n      tag_532\n      jumpi\n        /* \"#utility.yul\":24101:24119   */\n      tag_533\n      tag_260\n      jump\t// in\n    tag_533:\n        /* \"#utility.yul\":24018:24121   */\n    tag_532:\n        /* \"#utility.yul\":24148:24149   */\n      0x01\n        /* \"#utility.yul\":24141:24146   */\n      dup3\n        /* \"#utility.yul\":24137:24150   */\n      add\n        /* \"#utility.yul\":24130:24150   */\n      swap1\n      pop\n        /* \"#utility.yul\":23923:24156   */\n      swap2\n      swap1\n      pop\n      jump\t// out\n        /* \"#utility.yul\":24162:24342   */\n    tag_282:\n        /* \"#utility.yul\":24210:24287   */\n      0x4e487b7100000000000000000000000000000000000000000000000000000000\n        /* \"#utility.yul\":24207:24208   */\n      0x00\n        /* \"#utility.yul\":24200:24288   */\n      mstore\n        /* \"#utility.yul\":24307:24311   */\n      0x22\n        /* \"#utility.yul\":24304:24305   */\n      0x04\n        /* \"#utility.yul\":24297:24312   */\n      mstore\n        /* \"#utility.yul\":24331:24335   */\n      0x24\n        /* \"#utility.yul\":24328:24329   */\n      0x00\n        /* \"#utility.yul\":24321:24336   */\n      revert\n        /* \"#utility.yul\":24348:24668   */\n    tag_207:\n        /* \"#utility.yul\":24392:24398   */\n      0x00\n        /* \"#utility.yul\":24429:24430   */\n      0x02\n        /* \"#utility.yul\":24423:24427   */\n      dup3\n        /* \"#utility.yul\":24419:24431   */\n      div\n        /* \"#utility.yul\":24409:24431   */\n      swap1\n      pop\n        /* \"#utility.yul\":24476:24477   */\n      0x01\n        /* \"#utility.yul\":24470:24474   */\n      dup3\n        /* \"#utility.yul\":24466:24478   */\n      and\n        /* \"#utility.yul\":24497:24515   */\n      dup1\n        /* \"#utility.yul\":24487:24568   */\n      tag_536\n      jumpi\n        /* \"#utility.yul\":24553:24557   */\n      0x7f\n        /* \"#utility.yul\":24545:24551   */\n      dup3\n        /* \"#utility.yul\":24541:24558   */\n      and\n        /* \"#utility.yul\":24531:24558   */\n      swap2\n      pop\n        /* \"#utility.yul\":24487:24568   */\n    tag_536:\n        /* \"#utility.yul\":24615:24617   */\n      0x20\n        /* \"#utility.yul\":24607:24613   */\n      dup3\n        /* \"#utility.yul\":24604:24618   */\n      lt\n        /* \"#utility.yul\":24584:24602   */\n      dup2\n        /* \"#utility.yul\":24581:24619   */\n      sub\n        /* \"#utility.yul\":24578:24662   */\n      tag_537\n      jumpi\n        /* \"#utility.yul\":24634:24652   */\n      tag_538\n      tag_282\n      jump\t// in\n    tag_538:\n        /* \"#utility.yul\":24578:24662   */\n    tag_537:\n        /* \"#utility.yul\":24399:24668   */\n      pop\n        /* \"#utility.yul\":24348:24668   */\n      swap2\n      swap1\n      pop\n      jump\t// out\n        /* \"#utility.yul\":24674:24815   */\n    tag_283:\n        /* \"#utility.yul\":24723:24727   */\n      0x00\n        /* \"#utility.yul\":24746:24749   */\n      dup2\n        /* \"#utility.yul\":24738:24749   */\n      swap1\n      pop\n        /* \"#utility.yul\":24769:24772   */\n      dup2\n        /* \"#utility.yul\":24766:24767   */\n      0x00\n        /* \"#utility.yul\":24759:24773   */\n      mstore\n        /* \"#utility.yul\":24803:24807   */\n      0x20\n        /* \"#utility.yul\":24800:24801   */\n      0x00\n        /* \"#utility.yul\":24790:24808   */\n      keccak256\n        /* \"#utility.yul\":24782:24808   */\n      swap1\n      pop\n        /* \"#utility.yul\":24674:24815   */\n      swap2\n      swap1\n      pop\n      jump\t// out\n        /* \"#utility.yul\":24821:24914   */\n    tag_284:\n        /* \"#utility.yul\":24858:24864   */\n      0x00\n        /* \"#utility.yul\":24905:24907   */\n      0x20\n        /* \"#utility.yul\":24900:24902   */\n      0x1f\n        /* \"#utility.yul\":24893:24898   */\n      dup4\n        /* \"#utility.yul\":24889:24903   */\n      add\n        /* \"#utility.yul\":24885:24908   */\n      div\n        /* \"#utility.yul\":24875:24908   */\n      swap1\n      pop\n        /* \"#utility.yul\":24821:24914   */\n      swap2\n      swap1\n      pop\n      jump\t// out\n        /* \"#utility.yul\":24920:25027   */\n    tag_285:\n        /* \"#utility.yul\":24964:24972   */\n      0x00\n        /* \"#utility.yul\":25014:25019   */\n      dup3\n        /* \"#utility.yul\":25008:25012   */\n      dup3\n        /* \"#utility.yul\":25004:25020   */\n      shl\n        /* \"#utility.yul\":24983:25020   */\n      swap1\n      pop\n        /* \"#utility.yul\":24920:25027   */\n      swap3\n      swap2\n      pop\n      pop\n      jump\t// out\n        /* \"#utility.yul\":25033:25426   */\n    tag_286:\n        /* \"#utility.yul\":25102:25108   */\n      0x00\n        /* \"#utility.yul\":25152:25153   */\n      0x08\n        /* \"#utility.yul\":25140:25150   */\n      dup4\n        /* \"#utility.yul\":25136:25154   */\n      mul\n        /* \"#utility.yul\":25175:25272   */\n      tag_543\n        /* \"#utility.yul\":25205:25271   */\n      0xffffffffffffffffffffffffffffffffffffffffffffffffffffffffffffffff\n        /* \"#utility.yul\":25194:25203   */\n      dup3\n        /* \"#utility.yul\":25175:25272   */\n      tag_285\n      jump\t// in\n    tag_543:\n        /* \"#utility.yul\":25293:25332   */\n      tag_544\n        /* \"#utility.yul\":25323:25331   */\n      dup7\n        /* \"#utility.yul\":25312:25321   */\n      dup4\n        /* \"#utility.yul\":25293:25332   */\n      tag_285\n      jump\t// in\n    tag_544:\n        /* \"#utility.yul\":25281:25332   */\n      swap6\n      pop\n        /* \"#utility.yul\":25365:25369   */\n      dup1\n        /* \"#utility.yul\":25361:25370   */\n      not\n        /* \"#utility.yul\":25354:25359   */\n      dup5\n        /* \"#utility.yul\":25350:25371   */\n      and\n        /* \"#utility.yul\":25341:25371   */\n      swap4\n      pop\n        /* \"#utility.yul\":25414:25418   */\n      dup1\n        /* \"#utility.yul\":25404:25412   */\n      dup7\n        /* \"#utility.yul\":25400:25419   */\n      and\n        /* \"#utility.yul\":25393:25398   */\n      dup5\n        /* \"#utility.yul\":25390:25420   */\n      or\n        /* \"#utility.yul\":25380:25420   */\n      swap3\n      pop\n        /* \"#utility.yul\":25109:25426   */\n      pop\n      pop\n        /* \"#utility.yul\":25033:25426   */\n      swap4\n      swap3\n      pop\n      pop\n      pop\n      jump\t// out\n        /* \"#utility.yul\":25432:25574   */\n    tag_287:\n        /* \"#utility.yul\":25482:25491   */\n      0x00\n        /* \"#utility.yul\":25515:25568   */\n      tag_546\n        /* \"#utility.yul\":25533:25567   */\n      tag_547\n        /* \"#utility.yul\":25542:25566   */\n      tag_548\n        /* \"#utility.yul\":25560:25565   */\n      dup5\n        /* \"#utility.yul\":25542:25566   */\n      tag_225\n      jump\t// in\n    tag_548:\n        /* \"#utility.yul\":25533:25567   */\n      tag_244\n      jump\t// in\n    tag_547:\n        /* \"#utility.yul\":25515:25568   */\n      tag_225\n      jump\t// in\n    tag_546:\n        /* \"#utility.yul\":25502:25568   */\n      swap1\n      pop\n        /* \"#utility.yul\":25432:25574   */\n      swap2\n      swap1\n      pop\n      jump\t// out\n        /* \"#utility.yul\":25580:25655   */\n    tag_288:\n        /* \"#utility.yul\":25623:25626   */\n      0x00\n        /* \"#utility.yul\":25644:25649   */\n      dup2\n        /* \"#utility.yul\":25637:25649   */\n      swap1\n      pop\n        /* \"#utility.yul\":25580:25655   */\n      swap2\n      swap1\n      pop\n      jump\t// out\n        /* \"#utility.yul\":25661:25930   */\n    tag_289:\n        /* \"#utility.yul\":25771:25810   */\n      tag_551\n        /* \"#utility.yul\":25802:25809   */\n      dup4\n        /* \"#utility.yul\":25771:25810   */\n      tag_287\n      jump\t// in\n    tag_551:\n        /* \"#utility.yul\":25832:25923   */\n      tag_552\n        /* \"#utility.yul\":25881:25922   */\n      tag_553\n        /* \"#utility.yul\":25905:25921   */\n      dup3\n        /* \"#utility.yul\":25881:25922   */\n      tag_288\n      jump\t// in\n    tag_553:\n        /* \"#utility.yul\":25873:25879   */\n      dup5\n        /* \"#utility.yul\":25866:25870   */\n      dup5\n        /* \"#utility.yul\":25860:25871   */\n      sload\n        /* \"#utility.yul\":25832:25923   */\n      tag_286\n      jump\t// in\n    tag_552:\n        /* \"#utility.yul\":25826:25830   */\n      dup3\n        /* \"#utility.yul\":25819:25924   */\n      sstore\n        /* \"#utility.yul\":25737:25930   */\n      pop\n        /* \"#utility.yul\":25661:25930   */\n      pop\n      pop\n      pop\n      jump\t// out\n        /* \"#utility.yul\":25936:26009   */\n    tag_290:\n        /* \"#utility.yul\":25981:25984   */\n      0x00\n        /* \"#utility.yul\":26002:26003   */\n      0x00\n        /* \"#utility.yul\":25995:26003   */\n      swap1\n      pop\n        /* \"#utility.yul\":25936:26009   */\n      swap1\n      jump\t// out\n        /* \"#utility.yul\":26015:26204   */\n    tag_291:\n        /* \"#utility.yul\":26092:26124   */\n      tag_556\n      tag_290\n      jump\t// in\n    tag_556:\n        /* \"#utility.yul\":26133:26198   */\n      tag_557\n        /* \"#utility.yul\":26191:26197   */\n      dup2\n        /* \"#utility.yul\":26183:26189   */\n      dup5\n        /* \"#utility.yul\":26177:26181   */\n      dup5\n        /* \"#utility.yul\":26133:26198   */\n      tag_289\n      jump\t// in\n    tag_557:\n        /* \"#utility.yul\":26068:26204   */\n      pop\n        /* \"#utility.yul\":26015:26204   */\n      pop\n      pop\n      jump\t// out\n        /* \"#utility.yul\":26210:26396   */\n    tag_292:\n        /* \"#utility.yul\":26270:26390   */\n    tag_559:\n        /* \"#utility.yul\":26287:26290   */\n      dup2\n        /* \"#utility.yul\":26280:26285   */\n      dup2\n        /* \"#utility.yul\":26277:26291   */\n      lt\n        /* \"#utility.yul\":26270:26390   */\n      iszero\n      tag_561\n      jumpi\n        /* \"#utility.yul\":26341:26380   */\n      tag_562\n        /* \"#utility.yul\":26378:26379   */\n      0x00\n        /* \"#utility.yul\":26371:26376   */\n      dup3\n        /* \"#utility.yul\":26341:26380   */\n      tag_291\n      jump\t// in\n    tag_562:\n        /* \"#utility.yul\":26314:26315   */\n      0x01\n        /* \"#utility.yul\":26307:26312   */\n      dup2\n        /* \"#utility.yul\":26303:26316   */\n      add\n        /* \"#utility.yul\":26294:26316   */\n      swap1\n      pop\n        /* \"#utility.yul\":26270:26390   */\n      jump(tag_559)\n    tag_561:\n        /* \"#utility.yul\":26210:26396   */\n      pop\n      pop\n      jump\t// out\n        /* \"#utility.yul\":26402:26945   */\n    tag_293:\n        /* \"#utility.yul\":26503:26505   */\n      0x1f\n        /* \"#utility.yul\":26498:26501   */\n      dup3\n        /* \"#utility.yul\":26495:26506   */\n      gt\n        /* \"#utility.yul\":26492:26938   */\n      iszero\n      tag_564\n      jumpi\n        /* \"#utility.yul\":26537:26575   */\n      tag_565\n        /* \"#utility.yul\":26569:26574   */\n      dup2\n        /* \"#utility.yul\":26537:26575   */\n      tag_283\n      jump\t// in\n    tag_565:\n        /* \"#utility.yul\":26621:26650   */\n      tag_566\n        /* \"#utility.yul\":26639:26649   */\n      dup5\n        /* \"#utility.yul\":26621:26650   */\n      tag_284\n      jump\t// in\n    tag_566:\n        /* \"#utility.yul\":26611:26619   */\n      dup2\n        /* \"#utility.yul\":26607:26651   */\n      add\n        /* \"#utility.yul\":26804:26806   */\n      0x20\n        /* \"#utility.yul\":26792:26802   */\n      dup6\n        /* \"#utility.yul\":26789:26807   */\n      lt\n        /* \"#utility.yul\":26786:26835   */\n      iszero\n      tag_567\n      jumpi\n        /* \"#utility.yul\":26825:26833   */\n      dup2\n        /* \"#utility.yul\":26810:26833   */\n      swap1\n      pop\n        /* \"#utility.yul\":26786:26835   */\n    tag_567:\n        /* \"#utility.yul\":26848:26928   */\n      tag_568\n        /* \"#utility.yul\":26904:26926   */\n      tag_569\n        /* \"#utility.yul\":26922:26925   */\n      dup6\n        /* \"#utility.yul\":26904:26926   */\n      tag_284\n      jump\t// in\n    tag_569:\n        /* \"#utility.yul\":26894:26902   */\n      dup4\n        /* \"#utility.yul\":26890:26927   */\n      add\n        /* \"#utility.yul\":26877:26888   */\n      dup3\n        /* \"#utility.yul\":26848:26928   */\n      tag_292\n      jump\t// in\n    tag_568:\n        /* \"#utility.yul\":26507:26938   */\n      pop\n      pop\n        /* \"#utility.yul\":26492:26938   */\n    tag_564:\n        /* \"#utility.yul\":26402:26945   */\n      pop\n      pop\n      pop\n      jump\t// out\n        /* \"#utility.yul\":26951:27068   */\n    tag_294:\n        /* \"#utility.yul\":27005:27013   */\n      0x00\n        /* \"#utility.yul\":27055:27060   */\n      dup3\n        /* \"#utility.yul\":27049:27053   */\n      dup3\n        /* \"#utility.yul\":27045:27061   */\n      shr\n        /* \"#utility.yul\":27024:27061   */\n      swap1\n      pop\n        /* \"#utility.yul\":26951:27068   */\n      swap3\n      swap2\n      pop\n      pop\n      jump\t// out\n        /* \"#utility.yul\":27074:27243   */\n    tag_295:\n        /* \"#utility.yul\":27118:27124   */\n      0x00\n        /* \"#utility.yul\":27151:27202   */\n      tag_572\n        /* \"#utility.yul\":27199:27200   */\n      0x00\n        /* \"#utility.yul\":27195:27201   */\n      not\n        /* \"#utility.yul\":27187:27192   */\n      dup5\n        /* \"#utility.yul\":27184:27185   */\n      0x08\n        /* \"#utility.yul\":27180:27193   */\n      mul\n        /* \"#utility.yul\":27151:27202   */\n      tag_294\n      jump\t// in\n    tag_572:\n        /* \"#utility.yul\":27147:27203   */\n      not\n        /* \"#utility.yul\":27232:27236   */\n      dup1\n        /* \"#utility.yul\":27226:27230   */\n      dup4\n        /* \"#utility.yul\":27222:27237   */\n      and\n        /* \"#utility.yul\":27212:27237   */\n      swap2\n      pop\n        /* \"#utility.yul\":27125:27243   */\n      pop\n        /* \"#utility.yul\":27074:27243   */\n      swap3\n      swap2\n      pop\n      pop\n      jump\t// out\n        /* \"#utility.yul\":27248:27543   */\n    tag_296:\n        /* \"#utility.yul\":27324:27328   */\n      0x00\n        /* \"#utility.yul\":27470:27499   */\n      tag_574\n        /* \"#utility.yul\":27495:27498   */\n      dup4\n        /* \"#utility.yul\":27489:27493   */\n      dup4\n        /* \"#utility.yul\":27470:27499   */\n      tag_295\n      jump\t// in\n    tag_574:\n        /* \"#utility.yul\":27462:27499   */\n      swap2\n      pop\n        /* \"#utility.yul\":27532:27535   */\n      dup3\n        /* \"#utility.yul\":27529:27530   */\n      0x02\n        /* \"#utility.yul\":27525:27536   */\n      mul\n        /* \"#utility.yul\":27519:27523   */\n      dup3\n        /* \"#utility.yul\":27516:27537   */\n      or\n        /* \"#utility.yul\":27508:27537   */\n      swap1\n      pop\n        /* \"#utility.yul\":27248:27543   */\n      swap3\n      swap2\n      pop\n      pop\n      jump\t// out\n        /* \"#utility.yul\":27548:28943   */\n    tag_147:\n        /* \"#utility.yul\":27665:27702   */\n      tag_576\n        /* \"#utility.yul\":27698:27701   */\n      dup3\n        /* \"#utility.yul\":27665:27702   */\n      tag_249\n      jump\t// in\n    tag_576:\n        /* \"#utility.yul\":27767:27785   */\n      0xffffffffffffffff\n        /* \"#utility.yul\":27759:27765   */\n      dup2\n        /* \"#utility.yul\":27756:27786   */\n      gt\n        /* \"#utility.yul\":27753:27809   */\n      iszero\n      tag_577\n      jumpi\n        /* \"#utility.yul\":27789:27807   */\n      tag_578\n      tag_232\n      jump\t// in\n    tag_578:\n        /* \"#utility.yul\":27753:27809   */\n    tag_577:\n        /* \"#utility.yul\":27833:27871   */\n      tag_579\n        /* \"#utility.yul\":27865:27869   */\n      dup3\n        /* \"#utility.yul\":27859:27870   */\n      sload\n        /* \"#utility.yul\":27833:27871   */\n      tag_207\n      jump\t// in\n    tag_579:\n        /* \"#utility.yul\":27918:27985   */\n      tag_580\n        /* \"#utility.yul\":27978:27984   */\n      dup3\n        /* \"#utility.yul\":27970:27976   */\n      dup3\n        /* \"#utility.yul\":27964:27968   */\n      dup6\n        /* \"#utility.yul\":27918:27985   */\n      tag_293\n      jump\t// in\n    tag_580:\n        /* \"#utility.yul\":28012:28013   */\n      0x00\n        /* \"#utility.yul\":28036:28040   */\n      0x20\n        /* \"#utility.yul\":28023:28040   */\n      swap1\n      pop\n        /* \"#utility.yul\":28068:28070   */\n      0x1f\n        /* \"#utility.yul\":28060:28066   */\n      dup4\n        /* \"#utility.yul\":28057:28071   */\n      gt\n        /* \"#utility.yul\":28085:28086   */\n      0x01\n        /* \"#utility.yul\":28080:28698   */\n      dup2\n      eq\n      tag_582\n      jumpi\n        /* \"#utility.yul\":28742:28743   */\n      0x00\n        /* \"#utility.yul\":28759:28765   */\n      dup5\n        /* \"#utility.yul\":28756:28833   */\n      iszero\n      tag_583\n      jumpi\n        /* \"#utility.yul\":28808:28817   */\n      dup3\n        /* \"#utility.yul\":28803:28806   */\n      dup8\n        /* \"#utility.yul\":28799:28818   */\n      add\n        /* \"#utility.yul\":28793:28819   */\n      mload\n        /* \"#utility.yul\":28784:28819   */\n      swap1\n      pop\n        /* \"#utility.yul\":28756:28833   */\n    tag_583:\n        /* \"#utility.yul\":28859:28926   */\n      tag_584\n        /* \"#utility.yul\":28919:28925   */\n      dup6\n        /* \"#utility.yul\":28912:28917   */\n      dup3\n        /* \"#utility.yul\":28859:28926   */\n      tag_296\n      jump\t// in\n    tag_584:\n        /* \"#utility.yul\":28853:28857   */\n      dup7\n        /* \"#utility.yul\":28846:28927   */\n      sstore\n        /* \"#utility.yul\":28715:28937   */\n      pop\n        /* \"#utility.yul\":28050:28937   */\n      jump(tag_581)\n        /* \"#utility.yul\":28080:28698   */\n    tag_582:\n        /* \"#utility.yul\":28132:28136   */\n      0x1f\n        /* \"#utility.yul\":28128:28137   */\n      not\n        /* \"#utility.yul\":28120:28126   */\n      dup5\n        /* \"#utility.yul\":28116:28138   */\n      and\n        /* \"#utility.yul\":28166:28203   */\n      tag_585\n        /* \"#utility.yul\":28198:28202   */\n      dup7\n        /* \"#utility.yul\":28166:28203   */\n      tag_283\n      jump\t// in\n    tag_585:\n        /* \"#utility.yul\":28225:28226   */\n      0x00\n        /* \"#utility.yul\":28239:28447   */\n    tag_586:\n        /* \"#utility.yul\":28253:28260   */\n      dup3\n        /* \"#utility.yul\":28250:28251   */\n      dup2\n        /* \"#utility.yul\":28247:28261   */\n      lt\n        /* \"#utility.yul\":28239:28447   */\n      iszero\n      tag_588\n      jumpi\n        /* \"#utility.yul\":28332:28341   */\n      dup5\n        /* \"#utility.yul\":28327:28330   */\n      dup10\n        /* \"#utility.yul\":28323:28342   */\n      add\n        /* \"#utility.yul\":28317:28343   */\n      mload\n        /* \"#utility.yul\":28309:28315   */\n      dup3\n        /* \"#utility.yul\":28302:28344   */\n      sstore\n        /* \"#utility.yul\":28383:28384   */\n      0x01\n        /* \"#utility.yul\":28375:28381   */\n      dup3\n        /* \"#utility.yul\":28371:28385   */\n      add\n        /* \"#utility.yul\":28361:28385   */\n      swap2\n      pop\n        /* \"#utility.yul\":28430:28432   */\n      0x20\n        /* \"#utility.yul\":28419:28428   */\n      dup6\n        /* \"#utility.yul\":28415:28433   */\n      add\n        /* \"#utility.yul\":28402:28433   */\n      swap5\n      pop\n        /* \"#utility.yul\":28276:28280   */\n      0x20\n        /* \"#utility.yul\":28273:28274   */\n      dup2\n        /* \"#utility.yul\":28269:28281   */\n      add\n        /* \"#utility.yul\":28264:28281   */\n      swap1\n      pop\n        /* \"#utility.yul\":28239:28447   */\n      jump(tag_586)\n    tag_588:\n        /* \"#utility.yul\":28475:28481   */\n      dup7\n        /* \"#utility.yul\":28466:28473   */\n      dup4\n        /* \"#utility.yul\":28463:28482   */\n      lt\n        /* \"#utility.yul\":28460:28639   */\n      iszero\n      tag_589\n      jumpi\n        /* \"#utility.yul\":28533:28542   */\n      dup5\n        /* \"#utility.yul\":28528:28531   */\n      dup10\n        /* \"#utility.yul\":28524:28543   */\n      add\n        /* \"#utility.yul\":28518:28544   */\n      mload\n        /* \"#utility.yul\":28576:28624   */\n      tag_590\n        /* \"#utility.yul\":28618:28622   */\n      0x1f\n        /* \"#utility.yul\":28610:28616   */\n      dup10\n        /* \"#utility.yul\":28606:28623   */\n      and\n        /* \"#utility.yul\":28595:28604   */\n      dup3\n        /* \"#utility.yul\":28576:28624   */\n      tag_295\n      jump\t// in\n    tag_590:\n        /* \"#utility.yul\":28568:28574   */\n      dup4\n        /* \"#utility.yul\":28561:28625   */\n      sstore\n        /* \"#utility.yul\":28483:28639   */\n      pop\n        /* \"#utility.yul\":28460:28639   */\n    tag_589:\n        /* \"#utility.yul\":28685:28686   */\n      0x01\n        /* \"#utility.yul\":28681:28682   */\n      0x02\n        /* \"#utility.yul\":28673:28679   */\n      dup9\n        /* \"#utility.yul\":28669:28683   */\n      mul\n        /* \"#utility.yul\":28665:28687   */\n      add\n        /* \"#utility.yul\":28659:28663   */\n      dup9\n        /* \"#utility.yul\":28652:28688   */\n      sstore\n        /* \"#utility.yul\":28087:28698   */\n      pop\n      pop\n      pop\n        /* \"#utility.yul\":28050:28937   */\n    tag_581:\n      pop\n        /* \"#utility.yul\":27640:28943   */\n      pop\n      pop\n      pop\n        /* \"#utility.yul\":27548:28943   */\n      pop\n      pop\n      jump\t// out\n        /* \"#utility.yul\":28949:29372   */\n    tag_151:\n        /* \"#utility.yul\":29090:29094   */\n      0x00\n        /* \"#utility.yul\":29128:29130   */\n      0x40\n        /* \"#utility.yul\":29117:29126   */\n      dup3\n        /* \"#utility.yul\":29113:29131   */\n      add\n        /* \"#utility.yul\":29105:29131   */\n      swap1\n      pop\n        /* \"#utility.yul\":29177:29186   */\n      dup2\n        /* \"#utility.yul\":29171:29175   */\n      dup2\n        /* \"#utility.yul\":29167:29187   */\n      sub\n        /* \"#utility.yul\":29163:29164   */\n      0x00\n        /* \"#utility.yul\":29152:29161   */\n      dup4\n        /* \"#utility.yul\":29148:29165   */\n      add\n        /* \"#utility.yul\":29141:29188   */\n      mstore\n        /* \"#utility.yul\":29205:29283   */\n      tag_592\n        /* \"#utility.yul\":29278:29282   */\n      dup2\n        /* \"#utility.yul\":29269:29275   */\n      dup6\n        /* \"#utility.yul\":29205:29283   */\n      tag_252\n      jump\t// in\n    tag_592:\n        /* \"#utility.yul\":29197:29283   */\n      swap1\n      pop\n        /* \"#utility.yul\":29293:29365   */\n      tag_593\n        /* \"#utility.yul\":29361:29363   */\n      0x20\n        /* \"#utility.yul\":29350:29359   */\n      dup4\n        /* \"#utility.yul\":29346:29364   */\n      add\n        /* \"#utility.yul\":29337:29343   */\n      dup5\n        /* \"#utility.yul\":29293:29365   */\n      tag_228\n      jump\t// in\n    tag_593:\n        /* \"#utility.yul\":28949:29372   */\n      swap4\n      swap3\n      pop\n      pop\n      pop\n      jump\t// out\n        /* \"#utility.yul\":29378:29559   */\n    tag_297:\n        /* \"#utility.yul\":29518:29551   */\n      0x4f6e6c792062757965722063616e20636f6e6669726d20707572636861736500\n        /* \"#utility.yul\":29514:29515   */\n      0x00\n        /* \"#utility.yul\":29506:29512   */\n      dup3\n        /* \"#utility.yul\":29502:29516   */\n      add\n        /* \"#utility.yul\":29495:29552   */\n      mstore\n        /* \"#utility.yul\":29378:29559   */\n      pop\n      jump\t// out\n        /* \"#utility.yul\":29565:29931   */\n    tag_298:\n        /* \"#utility.yul\":29707:29710   */\n      0x00\n        /* \"#utility.yul\":29728:29795   */\n      tag_596\n        /* \"#utility.yul\":29792:29794   */\n      0x1f\n        /* \"#utility.yul\":29787:29790   */\n      dup4\n        /* \"#utility.yul\":29728:29795   */\n      tag_250\n      jump\t// in\n    tag_596:\n        /* \"#utility.yul\":29721:29795   */\n      swap2\n      pop\n        /* \"#utility.yul\":29804:29897   */\n      tag_597\n        /* \"#utility.yul\":29893:29896   */\n      dup3\n        /* \"#utility.yul\":29804:29897   */\n      tag_297\n      jump\t// in\n    tag_597:\n        /* \"#utility.yul\":29922:29924   */\n      0x20\n        /* \"#utility.yul\":29917:29920   */\n      dup3\n        /* \"#utility.yul\":29913:29925   */\n      add\n        /* \"#utility.yul\":29906:29925   */\n      swap1\n      pop\n        /* \"#utility.yul\":29565:29931   */\n      swap2\n      swap1\n      pop\n      jump\t// out\n        /* \"#utility.yul\":29937:30356   */\n    tag_155:\n        /* \"#utility.yul\":30103:30107   */\n      0x00\n        /* \"#utility.yul\":30141:30143   */\n      0x20\n        /* \"#utility.yul\":30130:30139   */\n      dup3\n        /* \"#utility.yul\":30126:30144   */\n      add\n        /* \"#utility.yul\":30118:30144   */\n      swap1\n      pop\n        /* \"#utility.yul\":30190:30199   */\n      dup2\n        /* \"#utility.yul\":30184:30188   */\n      dup2\n        /* \"#utility.yul\":30180:30200   */\n      sub\n        /* \"#utility.yul\":30176:30177   */\n      0x00\n        /* \"#utility.yul\":30165:30174   */\n      dup4\n        /* \"#utility.yul\":30161:30178   */\n      add\n        /* \"#utility.yul\":30154:30201   */\n      mstore\n        /* \"#utility.yul\":30218:30349   */\n      tag_599\n        /* \"#utility.yul\":30344:30348   */\n      dup2\n        /* \"#utility.yul\":30218:30349   */\n      tag_298\n      jump\t// in\n    tag_599:\n        /* \"#utility.yul\":30210:30349   */\n      swap1\n      pop\n        /* \"#utility.yul\":29937:30356   */\n      swap2\n      swap1\n      pop\n      jump\t// out\n        /* \"#utility.yul\":30362:30530   */\n    tag_299:\n        /* \"#utility.yul\":30502:30522   */\n      0x4e6f2066756e647320696e20657363726f770000000000000000000000000000\n        /* \"#utility.yul\":30498:30499   */\n      0x00\n        /* \"#utility.yul\":30490:30496   */\n      dup3\n        /* \"#utility.yul\":30486:30500   */\n      add\n        /* \"#utility.yul\":30479:30523   */\n      mstore\n        /* \"#utility.yul\":30362:30530   */\n      pop\n      jump\t// out\n        /* \"#utility.yul\":30536:30902   */\n    tag_300:\n        /* \"#utility.yul\":30678:30681   */\n      0x00\n        /* \"#utility.yul\":30699:30766   */\n      tag_602\n        /* \"#utility.yul\":30763:30765   */\n      0x12\n        /* \"#utility.yul\":30758:30761   */\n      dup4\n        /* \"#utility.yul\":30699:30766   */\n      tag_250\n      jump\t// in\n    tag_602:\n        /* \"#utility.yul\":30692:30766   */\n      swap2\n      pop\n        /* \"#utility.yul\":30775:30868   */\n      tag_603\n        /* \"#utility.yul\":30864:30867   */\n      dup3\n        /* \"#utility.yul\":30775:30868   */\n      tag_299\n      jump\t// in\n    tag_603:\n        /* \"#utility.yul\":30893:30895   */\n      0x20\n        /* \"#utility.yul\":30888:30891   */\n      dup3\n        /* \"#utility.yul\":30884:30896   */\n      add\n        /* \"#utility.yul\":30877:30896   */\n      swap1\n      pop\n        /* \"#utility.yul\":30536:30902   */\n      swap2\n      swap1\n      pop\n      jump\t// out\n        /* \"#utility.yul\":30908:31327   */\n    tag_158:\n        /* \"#utility.yul\":31074:31078   */\n      0x00\n        /* \"#utility.yul\":31112:31114   */\n      0x20\n        /* \"#utility.yul\":31101:31110   */\n      dup3\n        /* \"#utility.yul\":31097:31115   */\n      add\n        /* \"#utility.yul\":31089:31115   */\n      swap1\n      pop\n        /* \"#utility.yul\":31161:31170   */\n      dup2\n        /* \"#utility.yul\":31155:31159   */\n      dup2\n        /* \"#utility.yul\":31151:31171   */\n      sub\n        /* \"#utility.yul\":31147:31148   */\n      0x00\n        /* \"#utility.yul\":31136:31145   */\n      dup4\n        /* \"#utility.yul\":31132:31149   */\n      add\n        /* \"#utility.yul\":31125:31172   */\n      mstore\n        /* \"#utility.yul\":31189:31320   */\n      tag_605\n        /* \"#utility.yul\":31315:31319   */\n      dup2\n        /* \"#utility.yul\":31189:31320   */\n      tag_300\n      jump\t// in\n    tag_605:\n        /* \"#utility.yul\":31181:31320   */\n      swap1\n      pop\n        /* \"#utility.yul\":30908:31327   */\n      swap2\n      swap1\n      pop\n      jump\t// out\n        /* \"#utility.yul\":31333:31506   */\n    tag_301:\n        /* \"#utility.yul\":31473:31498   */\n      0x4c697374696e67206973206e6f7420736f6c6420796574000000000000000000\n        /* \"#utility.yul\":31469:31470   */\n      0x00\n        /* \"#utility.yul\":31461:31467   */\n      dup3\n        /* \"#utility.yul\":31457:31471   */\n      add\n        /* \"#utility.yul\":31450:31499   */\n      mstore\n        /* \"#utility.yul\":31333:31506   */\n      pop\n      jump\t// out\n        /* \"#utility.yul\":31512:31878   */\n    tag_302:\n        /* \"#utility.yul\":31654:31657   */\n      0x00\n        /* \"#utility.yul\":31675:31742   */\n      tag_608\n        /* \"#utility.yul\":31739:31741   */\n      0x17\n        /* \"#utility.yul\":31734:31737   */\n      dup4\n        /* \"#utility.yul\":31675:31742   */\n      tag_250\n      jump\t// in\n    tag_608:\n        /* \"#utility.yul\":31668:31742   */\n      swap2\n      pop\n        /* \"#utility.yul\":31751:31844   */\n      tag_609\n        /* \"#utility.yul\":31840:31843   */\n      dup3\n        /* \"#utility.yul\":31751:31844   */\n      tag_301\n      jump\t// in\n    tag_609:\n        /* \"#utility.yul\":31869:31871   */\n      0x20\n        /* \"#utility.yul\":31864:31867   */\n      dup3\n        /* \"#utility.yul\":31860:31872   */\n      add\n        /* \"#utility.yul\":31853:31872   */\n      swap1\n      pop\n        /* \"#utility.yul\":31512:31878   */\n      swap2\n      swap1\n      pop\n      jump\t// out\n        /* \"#utility.yul\":31884:32303   */\n    tag_161:\n        /* \"#utility.yul\":32050:32054   */\n      0x00\n        /* \"#utility.yul\":32088:32090   */\n      0x20\n        /* \"#utility.yul\":32077:32086   */\n      dup3\n        /* \"#utility.yul\":32073:32091   */\n      add\n        /* \"#utility.yul\":32065:32091   */\n      swap1\n      pop\n        /* \"#utility.yul\":32137:32146   */\n      dup2\n        /* \"#utility.yul\":32131:32135   */\n      dup2\n        /* \"#utility.yul\":32127:32147   */\n      sub\n        /* \"#utility.yul\":32123:32124   */\n      0x00\n        /* \"#utility.yul\":32112:32121   */\n      dup4\n        /* \"#utility.yul\":32108:32125   */\n      add\n        /* \"#utility.yul\":32101:32148   */\n      mstore\n        /* \"#utility.yul\":32165:32296   */\n      tag_611\n        /* \"#utility.yul\":32291:32295   */\n      dup2\n        /* \"#utility.yul\":32165:32296   */\n      tag_302\n      jump\t// in\n    tag_611:\n        /* \"#utility.yul\":32157:32296   */\n      swap1\n      pop\n        /* \"#utility.yul\":31884:32303   */\n      swap2\n      swap1\n      pop\n      jump\t// out\n        /* \"#utility.yul\":32309:32489   */\n    tag_303:\n        /* \"#utility.yul\":32449:32481   */\n      0x55534454207472616e7366657220746f2073656c6c6572206661696c65640000\n        /* \"#utility.yul\":32445:32446   */\n      0x00\n        /* \"#utility.yul\":32437:32443   */\n      dup3\n        /* \"#utility.yul\":32433:32447   */\n      add\n        /* \"#utility.yul\":32426:32482   */\n      mstore\n        /* \"#utility.yul\":32309:32489   */\n      pop\n      jump\t// out\n        /* \"#utility.yul\":32495:32861   */\n    tag_304:\n        /* \"#utility.yul\":32637:32640   */\n      0x00\n        /* \"#utility.yul\":32658:32725   */\n      tag_614\n        /* \"#utility.yul\":32722:32724   */\n      0x1e\n        /* \"#utility.yul\":32717:32720   */\n      dup4\n        /* \"#utility.yul\":32658:32725   */\n      tag_250\n      jump\t// in\n    tag_614:\n        /* \"#utility.yul\":32651:32725   */\n      swap2\n      pop\n        /* \"#utility.yul\":32734:32827   */\n      tag_615\n        /* \"#utility.yul\":32823:32826   */\n      dup3\n        /* \"#utility.yul\":32734:32827   */\n      tag_303\n      jump\t// in\n    tag_615:\n        /* \"#utility.yul\":32852:32854   */\n      0x20\n        /* \"#utility.yul\":32847:32850   */\n      dup3\n        /* \"#utility.yul\":32843:32855   */\n      add\n        /* \"#utility.yul\":32836:32855   */\n      swap1\n      pop\n        /* \"#utility.yul\":32495:32861   */\n      swap2\n      swap1\n      pop\n      jump\t// out\n        /* \"#utility.yul\":32867:33286   */\n    tag_168:\n        /* \"#utility.yul\":33033:33037   */\n      0x00\n        /* \"#utility.yul\":33071:33073   */\n      0x20\n        /* \"#utility.yul\":33060:33069   */\n      dup3\n        /* \"#utility.yul\":33056:33074   */\n      add\n        /* \"#utility.yul\":33048:33074   */\n      swap1\n      pop\n        /* \"#utility.yul\":33120:33129   */\n      dup2\n        /* \"#utility.yul\":33114:33118   */\n      dup2\n        /* \"#utility.yul\":33110:33130   */\n      sub\n        /* \"#utility.yul\":33106:33107   */\n      0x00\n        /* \"#utility.yul\":33095:33104   */\n      dup4\n        /* \"#utility.yul\":33091:33108   */\n      add\n        /* \"#utility.yul\":33084:33131   */\n      mstore\n        /* \"#utility.yul\":33148:33279   */\n      tag_617\n        /* \"#utility.yul\":33274:33278   */\n      dup2\n        /* \"#utility.yul\":33148:33279   */\n      tag_304\n      jump\t// in\n    tag_617:\n        /* \"#utility.yul\":33140:33279   */\n      swap1\n      pop\n        /* \"#utility.yul\":32867:33286   */\n      swap2\n      swap1\n      pop\n      jump\t// out\n        /* \"#utility.yul\":33292:33467   */\n    tag_305:\n        /* \"#utility.yul\":33432:33459   */\n      0x4f6e6c79207468652062757965722063616e2063616e63656c00000000000000\n        /* \"#utility.yul\":33428:33429   */\n      0x00\n        /* \"#utility.yul\":33420:33426   */\n      dup3\n        /* \"#utility.yul\":33416:33430   */\n      add\n        /* \"#utility.yul\":33409:33460   */\n      mstore\n        /* \"#utility.yul\":33292:33467   */\n      pop\n      jump\t// out\n        /* \"#utility.yul\":33473:33839   */\n    tag_306:\n        /* \"#utility.yul\":33615:33618   */\n      0x00\n        /* \"#utility.yul\":33636:33703   */\n      tag_620\n        /* \"#utility.yul\":33700:33702   */\n      0x19\n        /* \"#utility.yul\":33695:33698   */\n      dup4\n        /* \"#utility.yul\":33636:33703   */\n      tag_250\n      jump\t// in\n    tag_620:\n        /* \"#utility.yul\":33629:33703   */\n      swap2\n      pop\n        /* \"#utility.yul\":33712:33805   */\n      tag_621\n        /* \"#utility.yul\":33801:33804   */\n      dup3\n        /* \"#utility.yul\":33712:33805   */\n      tag_305\n      jump\t// in\n    tag_621:\n        /* \"#utility.yul\":33830:33832   */\n      0x20\n        /* \"#utility.yul\":33825:33828   */\n      dup3\n        /* \"#utility.yul\":33821:33833   */\n      add\n        /* \"#utility.yul\":33814:33833   */\n      swap1\n      pop\n        /* \"#utility.yul\":33473:33839   */\n      swap2\n      swap1\n      pop\n      jump\t// out\n        /* \"#utility.yul\":33845:34264   */\n    tag_173:\n        /* \"#utility.yul\":34011:34015   */\n      0x00\n        /* \"#utility.yul\":34049:34051   */\n      0x20\n        /* \"#utility.yul\":34038:34047   */\n      dup3\n        /* \"#utility.yul\":34034:34052   */\n      add\n        /* \"#utility.yul\":34026:34052   */\n      swap1\n      pop\n        /* \"#utility.yul\":34098:34107   */\n      dup2\n        /* \"#utility.yul\":34092:34096   */\n      dup2\n        /* \"#utility.yul\":34088:34108   */\n      sub\n        /* \"#utility.yul\":34084:34085   */\n      0x00\n        /* \"#utility.yul\":34073:34082   */\n      dup4\n        /* \"#utility.yul\":34069:34086   */\n      add\n        /* \"#utility.yul\":34062:34109   */\n      mstore\n        /* \"#utility.yul\":34126:34257   */\n      tag_623\n        /* \"#utility.yul\":34252:34256   */\n      dup2\n        /* \"#utility.yul\":34126:34257   */\n      tag_306\n      jump\t// in\n    tag_623:\n        /* \"#utility.yul\":34118:34257   */\n      swap1\n      pop\n        /* \"#utility.yul\":33845:34264   */\n      swap2\n      swap1\n      pop\n      jump\t// out\n        /* \"#utility.yul\":34270:34452   */\n    tag_307:\n        /* \"#utility.yul\":34410:34444   */\n      0x43616e6e6f742063616e63656c2c206974656d20616c726561647920736f6c64\n        /* \"#utility.yul\":34406:34407   */\n      0x00\n        /* \"#utility.yul\":34398:34404   */\n      dup3\n        /* \"#utility.yul\":34394:34408   */\n      add\n        /* \"#utility.yul\":34387:34445   */\n      mstore\n        /* \"#utility.yul\":34270:34452   */\n      pop\n      jump\t// out\n        /* \"#utility.yul\":34458:34824   */\n    tag_308:\n        /* \"#utility.yul\":34600:34603   */\n      0x00\n        /* \"#utility.yul\":34621:34688   */\n      tag_626\n        /* \"#utility.yul\":34685:34687   */\n      0x20\n        /* \"#utility.yul\":34680:34683   */\n      dup4\n        /* \"#utility.yul\":34621:34688   */\n      tag_250\n      jump\t// in\n    tag_626:\n        /* \"#utility.yul\":34614:34688   */\n      swap2\n      pop\n        /* \"#utility.yul\":34697:34790   */\n      tag_627\n        /* \"#utility.yul\":34786:34789   */\n      dup3\n        /* \"#utility.yul\":34697:34790   */\n      tag_307\n      jump\t// in\n    tag_627:\n        /* \"#utility.yul\":34815:34817   */\n      0x20\n        /* \"#utility.yul\":34810:34813   */\n      dup3\n        /* \"#utility.yul\":34806:34818   */\n      add\n        /* \"#utility.yul\":34799:34818   */\n      swap1\n      pop\n        /* \"#utility.yul\":34458:34824   */\n      swap2\n      swap1\n      pop\n      jump\t// out\n        /* \"#utility.yul\":34830:35249   */\n    tag_178:\n        /* \"#utility.yul\":34996:35000   */\n      0x00\n        /* \"#utility.yul\":35034:35036   */\n      0x20\n        /* \"#utility.yul\":35023:35032   */\n      dup3\n        /* \"#utility.yul\":35019:35037   */\n      add\n        /* \"#utility.yul\":35011:35037   */\n      swap1\n      pop\n        /* \"#utility.yul\":35083:35092   */\n      dup2\n        /* \"#utility.yul\":35077:35081   */\n      dup2\n        /* \"#utility.yul\":35073:35093   */\n      sub\n        /* \"#utility.yul\":35069:35070   */\n      0x00\n        /* \"#utility.yul\":35058:35067   */\n      dup4\n        /* \"#utility.yul\":35054:35071   */\n      add\n        /* \"#utility.yul\":35047:35094   */\n      mstore\n        /* \"#utility.yul\":35111:35242   */\n      tag_629\n        /* \"#utility.yul\":35237:35241   */\n      dup2\n        /* \"#utility.yul\":35111:35242   */\n      tag_308\n      jump\t// in\n    tag_629:\n        /* \"#utility.yul\":35103:35242   */\n      swap1\n      pop\n        /* \"#utility.yul\":34830:35249   */\n      swap2\n      swap1\n      pop\n      jump\t// out\n        /* \"#utility.yul\":35255:35434   */\n    tag_309:\n        /* \"#utility.yul\":35395:35426   */\n      0x55534454207472616e7366657220746f206275796572206661696c6564000000\n        /* \"#utility.yul\":35391:35392   */\n      0x00\n        /* \"#utility.yul\":35383:35389   */\n      dup3\n        /* \"#utility.yul\":35379:35393   */\n      add\n        /* \"#utility.yul\":35372:35427   */\n      mstore\n        /* \"#utility.yul\":35255:35434   */\n      pop\n      jump\t// out\n        /* \"#utility.yul\":35440:35806   */\n    tag_310:\n        /* \"#utility.yul\":35582:35585   */\n      0x00\n        /* \"#utility.yul\":35603:35670   */\n      tag_632\n        /* \"#utility.yul\":35667:35669   */\n      0x1d\n        /* \"#utility.yul\":35662:35665   */\n      dup4\n        /* \"#utility.yul\":35603:35670   */\n      tag_250\n      jump\t// in\n    tag_632:\n        /* \"#utility.yul\":35596:35670   */\n      swap2\n      pop\n        /* \"#utility.yul\":35679:35772   */\n      tag_633\n        /* \"#utility.yul\":35768:35771   */\n      dup3\n        /* \"#utility.yul\":35679:35772   */\n      tag_309\n      jump\t// in\n    tag_633:\n        /* \"#utility.yul\":35797:35799   */\n      0x20\n        /* \"#utility.yul\":35792:35795   */\n      dup3\n        /* \"#utility.yul\":35788:35800   */\n      add\n        /* \"#utility.yul\":35781:35800   */\n      swap1\n      pop\n        /* \"#utility.yul\":35440:35806   */\n      swap2\n      swap1\n      pop\n      jump\t// out\n        /* \"#utility.yul\":35812:36231   */\n    tag_185:\n        /* \"#utility.yul\":35978:35982   */\n      0x00\n        /* \"#utility.yul\":36016:36018   */\n      0x20\n        /* \"#utility.yul\":36005:36014   */\n      dup3\n        /* \"#utility.yul\":36001:36019   */\n      add\n        /* \"#utility.yul\":35993:36019   */\n      swap1\n      pop\n        /* \"#utility.yul\":36065:36074   */\n      dup2\n        /* \"#utility.yul\":36059:36063   */\n      dup2\n        /* \"#utility.yul\":36055:36075   */\n      sub\n        /* \"#utility.yul\":36051:36052   */\n      0x00\n        /* \"#utility.yul\":36040:36049   */\n      dup4\n        /* \"#utility.yul\":36036:36053   */\n      add\n        /* \"#utility.yul\":36029:36076   */\n      mstore\n        /* \"#utility.yul\":36093:36224   */\n      tag_635\n        /* \"#utility.yul\":36219:36223   */\n      dup2\n        /* \"#utility.yul\":36093:36224   */\n      tag_310\n      jump\t// in\n    tag_635:\n        /* \"#utility.yul\":36085:36224   */\n      swap1\n      pop\n        /* \"#utility.yul\":35812:36231   */\n      swap2\n      swap1\n      pop\n      jump\t// out\n        /* \"#utility.yul\":36237:36462   */\n    tag_311:\n        /* \"#utility.yul\":36377:36411   */\n      0x4f6e6c7920746865206f776e65722063616e20706572666f726d207468697320\n        /* \"#utility.yul\":36373:36374   */\n      0x00\n        /* \"#utility.yul\":36365:36371   */\n      dup3\n        /* \"#utility.yul\":36361:36375   */\n      add\n        /* \"#utility.yul\":36354:36412   */\n      mstore\n        /* \"#utility.yul\":36446:36454   */\n      0x616374696f6e0000000000000000000000000000000000000000000000000000\n        /* \"#utility.yul\":36441:36443   */\n      0x20\n        /* \"#utility.yul\":36433:36439   */\n      dup3\n        /* \"#utility.yul\":36429:36444   */\n      add\n        /* \"#utility.yul\":36422:36455   */\n      mstore\n        /* \"#utility.yul\":36237:36462   */\n      pop\n      jump\t// out\n        /* \"#utility.yul\":36468:36834   */\n    tag_312:\n        /* \"#utility.yul\":36610:36613   */\n      0x00\n        /* \"#utility.yul\":36631:36698   */\n      tag_638\n        /* \"#utility.yul\":36695:36697   */\n      0x26\n        /* \"#utility.yul\":36690:36693   */\n      dup4\n        /* \"#utility.yul\":36631:36698   */\n      tag_250\n      jump\t// in\n    tag_638:\n        /* \"#utility.yul\":36624:36698   */\n      swap2\n      pop\n        /* \"#utility.yul\":36707:36800   */\n      tag_639\n        /* \"#utility.yul\":36796:36799   */\n      dup3\n        /* \"#utility.yul\":36707:36800   */\n      tag_311\n      jump\t// in\n    tag_639:\n        /* \"#utility.yul\":36825:36827   */\n      0x40\n        /* \"#utility.yul\":36820:36823   */\n      dup3\n        /* \"#utility.yul\":36816:36828   */\n      add\n        /* \"#utility.yul\":36809:36828   */\n      swap1\n      pop\n        /* \"#utility.yul\":36468:36834   */\n      swap2\n      swap1\n      pop\n      jump\t// out\n        /* \"#utility.yul\":36840:37259   */\n    tag_190:\n        /* \"#utility.yul\":37006:37010   */\n      0x00\n        /* \"#utility.yul\":37044:37046   */\n      0x20\n        /* \"#utility.yul\":37033:37042   */\n      dup3\n        /* \"#utility.yul\":37029:37047   */\n      add\n        /* \"#utility.yul\":37021:37047   */\n      swap1\n      pop\n        /* \"#utility.yul\":37093:37102   */\n      dup2\n        /* \"#utility.yul\":37087:37091   */\n      dup2\n        /* \"#utility.yul\":37083:37103   */\n      sub\n        /* \"#utility.yul\":37079:37080   */\n      0x00\n        /* \"#utility.yul\":37068:37077   */\n      dup4\n        /* \"#utility.yul\":37064:37081   */\n      add\n        /* \"#utility.yul\":37057:37104   */\n      mstore\n        /* \"#utility.yul\":37121:37252   */\n      tag_641\n        /* \"#utility.yul\":37247:37251   */\n      dup2\n        /* \"#utility.yul\":37121:37252   */\n      tag_312\n      jump\t// in\n    tag_641:\n        /* \"#utility.yul\":37113:37252   */\n      swap1\n      pop\n        /* \"#utility.yul\":36840:37259   */\n      swap2\n      swap1\n      pop\n      jump\t// out\n        /* \"#utility.yul\":37265:37436   */\n    tag_313:\n        /* \"#utility.yul\":37405:37428   */\n      0x4e6f20746f6b656e7320746f2077697468647261770000000000000000000000\n        /* \"#utility.yul\":37401:37402   */\n      0x00\n        /* \"#utility.yul\":37393:37399   */\n      dup3\n        /* \"#utility.yul\":37389:37403   */\n      add\n        /* \"#utility.yul\":37382:37429   */\n      mstore\n        /* \"#utility.yul\":37265:37436   */\n      pop\n      jump\t// out\n        /* \"#utility.yul\":37442:37808   */\n    tag_314:\n        /* \"#utility.yul\":37584:37587   */\n      0x00\n        /* \"#utility.yul\":37605:37672   */\n      tag_644\n        /* \"#utility.yul\":37669:37671   */\n      0x15\n        /* \"#utility.yul\":37664:37667   */\n      dup4\n        /* \"#utility.yul\":37605:37672   */\n      tag_250\n      jump\t// in\n    tag_644:\n        /* \"#utility.yul\":37598:37672   */\n      swap2\n      pop\n        /* \"#utility.yul\":37681:37774   */\n      tag_645\n        /* \"#utility.yul\":37770:37773   */\n      dup3\n        /* \"#utility.yul\":37681:37774   */\n      tag_313\n      jump\t// in\n    tag_645:\n        /* \"#utility.yul\":37799:37801   */\n      0x20\n        /* \"#utility.yul\":37794:37797   */\n      dup3\n        /* \"#utility.yul\":37790:37802   */\n      add\n        /* \"#utility.yul\":37783:37802   */\n      swap1\n      pop\n        /* \"#utility.yul\":37442:37808   */\n      swap2\n      swap1\n      pop\n      jump\t// out\n        /* \"#utility.yul\":37814:38233   */\n    tag_198:\n        /* \"#utility.yul\":37980:37984   */\n      0x00\n        /* \"#utility.yul\":38018:38020   */\n      0x20\n        /* \"#utility.yul\":38007:38016   */\n      dup3\n        /* \"#utility.yul\":38003:38021   */\n      add\n        /* \"#utility.yul\":37995:38021   */\n      swap1\n      pop\n        /* \"#utility.yul\":38067:38076   */\n      dup2\n        /* \"#utility.yul\":38061:38065   */\n      dup2\n        /* \"#utility.yul\":38057:38077   */\n      sub\n        /* \"#utility.yul\":38053:38054   */\n      0x00\n        /* \"#utility.yul\":38042:38051   */\n      dup4\n        /* \"#utility.yul\":38038:38055   */\n      add\n        /* \"#utility.yul\":38031:38078   */\n      mstore\n        /* \"#utility.yul\":38095:38226   */\n      tag_647\n        /* \"#utility.yul\":38221:38225   */\n      dup2\n        /* \"#utility.yul\":38095:38226   */\n      tag_314\n      jump\t// in\n    tag_647:\n        /* \"#utility.yul\":38087:38226   */\n      swap1\n      pop\n        /* \"#utility.yul\":37814:38233   */\n      swap2\n      swap1\n      pop\n      jump\t// out\n        /* \"#utility.yul\":38239:38404   */\n    tag_315:\n        /* \"#utility.yul\":38379:38396   */\n      0x5769746864726177206661696c65640000000000000000000000000000000000\n        /* \"#utility.yul\":38375:38376   */\n      0x00\n        /* \"#utility.yul\":38367:38373   */\n      dup3\n        /* \"#utility.yul\":38363:38377   */\n      add\n        /* \"#utility.yul\":38356:38397   */\n      mstore\n        /* \"#utility.yul\":38239:38404   */\n      pop\n      jump\t// out\n        /* \"#utility.yul\":38410:38776   */\n    tag_316:\n        /* \"#utility.yul\":38552:38555   */\n      0x00\n        /* \"#utility.yul\":38573:38640   */\n      tag_650\n        /* \"#utility.yul\":38637:38639   */\n      0x0f\n        /* \"#utility.yul\":38632:38635   */\n      dup4\n        /* \"#utility.yul\":38573:38640   */\n      tag_250\n      jump\t// in\n    tag_650:\n        /* \"#utility.yul\":38566:38640   */\n      swap2\n      pop\n        /* \"#utility.yul\":38649:38742   */\n      tag_651\n        /* \"#utility.yul\":38738:38741   */\n      dup3\n        /* \"#utility.yul\":38649:38742   */\n      tag_315\n      jump\t// in\n    tag_651:\n        /* \"#utility.yul\":38767:38769   */\n      0x20\n        /* \"#utility.yul\":38762:38765   */\n      dup3\n        /* \"#utility.yul\":38758:38770   */\n      add\n        /* \"#utility.yul\":38751:38770   */\n      swap1\n      pop\n        /* \"#utility.yul\":38410:38776   */\n      swap2\n      swap1\n      pop\n      jump\t// out\n        /* \"#utility.yul\":38782:39201   */\n    tag_205:\n        /* \"#utility.yul\":38948:38952   */\n      0x00\n        /* \"#utility.yul\":38986:38988   */\n      0x20\n        /* \"#utility.yul\":38975:38984   */\n      dup3\n        /* \"#utility.yul\":38971:38989   */\n      add\n        /* \"#utility.yul\":38963:38989   */\n      swap1\n      pop\n        /* \"#utility.yul\":39035:39044   */\n      dup2\n        /* \"#utility.yul\":39029:39033   */\n      dup2\n        /* \"#utility.yul\":39025:39045   */\n      sub\n        /* \"#utility.yul\":39021:39022   */\n      0x00\n        /* \"#utility.yul\":39010:39019   */\n      dup4\n        /* \"#utility.yul\":39006:39023   */\n      add\n        /* \"#utility.yul\":38999:39046   */\n      mstore\n        /* \"#utility.yul\":39063:39194   */\n      tag_653\n        /* \"#utility.yul\":39189:39193   */\n      dup2\n        /* \"#utility.yul\":39063:39194   */\n      tag_316\n      jump\t// in\n    tag_653:\n        /* \"#utility.yul\":39055:39194   */\n      swap1\n      pop\n        /* \"#utility.yul\":38782:39201   */\n      swap2\n      swap1\n      pop\n      jump\t// out\n\n    auxdata: 0xa26469706673582212208a26ddbc75e510a8a85c441d958a29061122895b8d37932f90b68067d18e9e5e64736f6c634300081c0033\n}\n",
				"bytecode": {
					"linkReferences": {},
					"object": "608060405234801561000f575f5ffd5b50604051612bf1380380612bf183398181016040528101906100319190610155565b335f5f6101000a81548173ffffffffffffffffffffffffffffffffffffffff021916908373ffffffffffffffffffffffffffffffffffffffff1602179055508160065f6101000a81548173ffffffffffffffffffffffffffffffffffffffff021916908373ffffffffffffffffffffffffffffffffffffffff1602179055508060ff166003819055505050610193565b5f5ffd5b5f73ffffffffffffffffffffffffffffffffffffffff82169050919050565b5f6100ee826100c5565b9050919050565b6100fe816100e4565b8114610108575f5ffd5b50565b5f81519050610119816100f5565b92915050565b5f60ff82169050919050565b6101348161011f565b811461013e575f5ffd5b50565b5f8151905061014f8161012b565b92915050565b5f5f6040838503121561016b5761016a6100c1565b5b5f6101788582860161010b565b925050602061018985828601610141565b9150509250929050565b612a51806101a05f395ff3fe608060405234801561000f575f5ffd5b50600436106100f3575f3560e01c806377d3550b11610095578063a9b07c2611610064578063a9b07c261461026f578063c3634ddc1461028d578063ca628c78146102a9578063de74e57b146102b3576100f3565b806377d3550b146101e55780638da5cb5b14610203578063a85c38ef14610221578063a98ad46c14610251576100f3565b8063451d4107116100d1578063451d41071461014d5780634d24e902146101695780635d19e56c146101855780636c5d4bec146101b5576100f3565b8063169d5a7d146100f75780631d83440914610113578063404a9ab814610131575b5f5ffd5b610111600480360381019061010c9190611790565b6102e9565b005b61011b61080d565b60405161012891906117ca565b60405180910390f35b61014b60048036038101906101469190611790565b610813565b005b6101676004803603810190610162919061191f565b6108ef565b005b610183600480360381019061017e9190611790565b610b8e565b005b61019f600480360381019061019a9190611790565b610ef3565b6040516101ac91906117ca565b60405180910390f35b6101cf60048036038101906101ca9190611790565b610f08565b6040516101dc9190611a16565b60405180910390f35b6101ed610f38565b6040516101fa91906117ca565b60405180910390f35b61020b610f3e565b6040516102189190611a16565b60405180910390f35b61023b60048036038101906102369190611790565b610f62565b6040516102489190611a49565b60405180910390f35b610259610f88565b6040516102669190611abd565b60405180910390f35b610277610fad565b60405161028491906117ca565b60405180910390f35b6102a760048036038101906102a29190611790565b610fb3565b005b6102b16112e2565b005b6102cd60048036038101906102c89190611790565b611551565b6040516102e09796959493929190611b36565b60405180910390f35b5f60045f8381526020019081526020015f2090505f8211801561030e57506001548211155b61034d576040517f08c379a000000000000000000000000000000000000000000000000000000000815260040161034490611c02565b60405180910390fd5b806006015f9054906101000a900460ff161561039e576040517f08c379a000000000000000000000000000000000000000000000000000000000815260040161039590611c6a565b60405180910390fd5b806005015460065f9054906101000a900473ffffffffffffffffffffffffffffffffffffffff1673ffffffffffffffffffffffffffffffffffffffff1663dd62ed3e33306040518363ffffffff1660e01b81526004016103ff929190611c88565b602060405180830381865afa15801561041a573d5f5f3e3d5ffd5b505050506040513d601f19601f8201168201806040525081019061043e9190611cc3565b101561047f576040517f08c379a000000000000000000000000000000000000000000000000000000000815260040161047690611d38565b60405180910390fd5b5f606460035483600501546104949190611d83565b61049e9190611df1565b90505f8183600501546104b19190611e21565b90505f60065f9054906101000a900473ffffffffffffffffffffffffffffffffffffffff1673ffffffffffffffffffffffffffffffffffffffff166323b872dd333087600501546040518463ffffffff1660e01b815260040161051693929190611e54565b6020604051808303815f875af1158015610532573d5f5f3e3d5ffd5b505050506040513d601f19601f820116820180604052508101906105569190611eb3565b905080610598576040517f08c379a000000000000000000000000000000000000000000000000000000000815260040161058f90611f28565b60405180910390fd5b60065f9054906101000a900473ffffffffffffffffffffffffffffffffffffffff1673ffffffffffffffffffffffffffffffffffffffff1663a9059cbb5f5f9054906101000a900473ffffffffffffffffffffffffffffffffffffffff16856040518363ffffffff1660e01b8152600401610614929190611f46565b6020604051808303815f875af1158015610630573d5f5f3e3d5ffd5b505050506040513d601f19601f820116820180604052508101906106549190611eb3565b905080610696576040517f08c379a000000000000000000000000000000000000000000000000000000000815260040161068d90611fb7565b60405180910390fd5b60065f9054906101000a900473ffffffffffffffffffffffffffffffffffffffff1673ffffffffffffffffffffffffffffffffffffffff1663a9059cbb856001015f9054906101000a900473ffffffffffffffffffffffffffffffffffffffff16846040518363ffffffff1660e01b8152600401610715929190611f46565b6020604051808303815f875af1158015610731573d5f5f3e3d5ffd5b505050506040513d601f19601f820116820180604052508101906107559190611eb3565b905080610797576040517f08c379a000000000000000000000000000000000000000000000000000000000815260040161078e9061201f565b60405180910390fd5b6001846006015f6101000a81548160ff0219169083151502179055503373ffffffffffffffffffffffffffffffffffffffff16857f3915b4ab4f4d3ad54079c20a1bb2159e875d3d5b673d4dc93986f956d258118986600501546040516107fe91906117ca565b60405180910390a35050505050565b60025481565b5f5f9054906101000a900473ffffffffffffffffffffffffffffffffffffffff1673ffffffffffffffffffffffffffffffffffffffff163373ffffffffffffffffffffffffffffffffffffffff16146108a1576040517f08c379a000000000000000000000000000000000000000000000000000000000815260040161089890612087565b60405180910390fd5b60648111156108e5576040517f08c379a00000000000000000000000000000000000000000000000000000000081526004016108dc906120ef565b60405180910390fd5b8060038190555050565b5f8111610931576040517f08c379a000000000000000000000000000000000000000000000000000000000815260040161092890612157565b60405180910390fd5b5f845111610974576040517f08c379a000000000000000000000000000000000000000000000000000000000815260040161096b906121bf565b60405180910390fd5b5f8351116109b7576040517f08c379a00000000000000000000000000000000000000000000000000000000081526004016109ae90612227565b60405180910390fd5b670de0b6b3a7640000811115610a02576040517f08c379a00000000000000000000000000000000000000000000000000000000081526004016109f99061228f565b60405180910390fd5b60015f815480929190610a14906122ad565b91905055506040518060e0016040528060015481526020013373ffffffffffffffffffffffffffffffffffffffff1681526020018581526020018481526020018381526020018281526020015f151581525060045f60015481526020019081526020015f205f820151815f01556020820151816001015f6101000a81548173ffffffffffffffffffffffffffffffffffffffff021916908373ffffffffffffffffffffffffffffffffffffffff1602179055506040820151816002019081610adc91906124e8565b506060820151816003019081610af291906124e8565b506080820151816004019081610b0891906124e8565b5060a0820151816005015560c0820151816006015f6101000a81548160ff0219169083151502179055509050503373ffffffffffffffffffffffffffffffffffffffff166001547f6b7a3194eaddce2be5200d10785a15a5cd14a78b827cf902f4d23c35e6bd73f88684604051610b809291906125b7565b60405180910390a350505050565b3373ffffffffffffffffffffffffffffffffffffffff1660075f8381526020019081526020015f205f9054906101000a900473ffffffffffffffffffffffffffffffffffffffff1673ffffffffffffffffffffffffffffffffffffffff1614610c2c576040517f08c379a0000000000000000000000000000000000000000000000000000000008152600401610c239061262f565b60405180910390fd5b5f60085f8381526020019081526020015f205411610c7f576040517f08c379a0000000000000000000000000000000000000000000000000000000008152600401610c7690612697565b60405180910390fd5b60045f8281526020019081526020015f206006015f9054906101000a900460ff16610cdf576040517f08c379a0000000000000000000000000000000000000000000000000000000008152600401610cd6906126ff565b60405180910390fd5b5f60045f8381526020019081526020015f2090505f60065f9054906101000a900473ffffffffffffffffffffffffffffffffffffffff1673ffffffffffffffffffffffffffffffffffffffff1663a9059cbb836001015f9054906101000a900473ffffffffffffffffffffffffffffffffffffffff1660085f8781526020019081526020015f20546040518363ffffffff1660e01b8152600401610d84929190611f46565b6020604051808303815f875af1158015610da0573d5f5f3e3d5ffd5b505050506040513d601f19601f82011682018060405250810190610dc49190611eb3565b905080610e06576040517f08c379a0000000000000000000000000000000000000000000000000000000008152600401610dfd90612767565b60405180910390fd5b5f60085f8581526020019081526020015f20819055505f60075f8581526020019081526020015f205f6101000a81548173ffffffffffffffffffffffffffffffffffffffff021916908373ffffffffffffffffffffffffffffffffffffffff160217905550816001015f9054906101000a900473ffffffffffffffffffffffffffffffffffffffff1673ffffffffffffffffffffffffffffffffffffffff16837f6244ed823ca6be0f11bc890c3fafcf3c29cb23420c14243642e930b5e07e6d0a60085f8781526020019081526020015f2054604051610ee691906117ca565b60405180910390a3505050565b6008602052805f5260405f205f915090505481565b6007602052805f5260405f205f915054906101000a900473ffffffffffffffffffffffffffffffffffffffff1681565b60035481565b5f5f9054906101000a900473ffffffffffffffffffffffffffffffffffffffff1681565b6005602052805f5260405f205f91509050805f015f9054906101000a900460ff16905081565b60065f9054906101000a900473ffffffffffffffffffffffffffffffffffffffff1681565b60015481565b3373ffffffffffffffffffffffffffffffffffffffff1660075f8381526020019081526020015f205f9054906101000a900473ffffffffffffffffffffffffffffffffffffffff1673ffffffffffffffffffffffffffffffffffffffff1614611051576040517f08c379a0000000000000000000000000000000000000000000000000000000008152600401611048906127cf565b60405180910390fd5b5f60085f8381526020019081526020015f2054116110a4576040517f08c379a000000000000000000000000000000000000000000000000000000000815260040161109b90612697565b60405180910390fd5b60045f8281526020019081526020015f206006015f9054906101000a900460ff1615611105576040517f08c379a00000000000000000000000000000000000000000000000000000000081526004016110fc90612837565b60405180910390fd5b5f60085f8381526020019081526020015f205490505f60065f9054906101000a900473ffffffffffffffffffffffffffffffffffffffff1673ffffffffffffffffffffffffffffffffffffffff1663a9059cbb60075f8681526020019081526020015f205f9054906101000a900473ffffffffffffffffffffffffffffffffffffffff16846040518363ffffffff1660e01b81526004016111a7929190611f46565b6020604051808303815f875af11580156111c3573d5f5f3e3d5ffd5b505050506040513d601f19601f820116820180604052508101906111e79190611eb3565b905080611229576040517f08c379a00000000000000000000000000000000000000000000000000000000081526004016112209061289f565b60405180910390fd5b5f60085f8581526020019081526020015f20819055505f60075f8581526020019081526020015f205f6101000a81548173ffffffffffffffffffffffffffffffffffffffff021916908373ffffffffffffffffffffffffffffffffffffffff1602179055503373ffffffffffffffffffffffffffffffffffffffff16837f83559618a86943fdd7e8104a56312f188df6d0e149a9868b514871d05ac785fb846040516112d591906117ca565b60405180910390a3505050565b5f5f9054906101000a900473ffffffffffffffffffffffffffffffffffffffff1673ffffffffffffffffffffffffffffffffffffffff163373ffffffffffffffffffffffffffffffffffffffff1614611370576040517f08c379a00000000000000000000000000000000000000000000000000000000081526004016113679061292d565b60405180910390fd5b5f60065f9054906101000a900473ffffffffffffffffffffffffffffffffffffffff1673ffffffffffffffffffffffffffffffffffffffff166370a08231306040518263ffffffff1660e01b81526004016113cb9190611a16565b602060405180830381865afa1580156113e6573d5f5f3e3d5ffd5b505050506040513d601f19601f8201168201806040525081019061140a9190611cc3565b90505f811161144e576040517f08c379a000000000000000000000000000000000000000000000000000000000815260040161144590612995565b60405180910390fd5b5f60065f9054906101000a900473ffffffffffffffffffffffffffffffffffffffff1673ffffffffffffffffffffffffffffffffffffffff1663a9059cbb5f5f9054906101000a900473ffffffffffffffffffffffffffffffffffffffff16846040518363ffffffff1660e01b81526004016114cb929190611f46565b6020604051808303815f875af11580156114e7573d5f5f3e3d5ffd5b505050506040513d601f19601f8201168201806040525081019061150b9190611eb3565b90508061154d576040517f08c379a0000000000000000000000000000000000000000000000000000000008152600401611544906129fd565b60405180910390fd5b5050565b6004602052805f5260405f205f91509050805f015490806001015f9054906101000a900473ffffffffffffffffffffffffffffffffffffffff169080600201805461159b90612321565b80601f01602080910402602001604051908101604052809291908181526020018280546115c790612321565b80156116125780601f106115e957610100808354040283529160200191611612565b820191905f5260205f20905b8154815290600101906020018083116115f557829003601f168201915b50505050509080600301805461162790612321565b80601f016020809104026020016040519081016040528092919081815260200182805461165390612321565b801561169e5780601f106116755761010080835404028352916020019161169e565b820191905f5260205f20905b81548152906001019060200180831161168157829003601f168201915b5050505050908060040180546116b390612321565b80601f01602080910402602001604051908101604052809291908181526020018280546116df90612321565b801561172a5780601f106117015761010080835404028352916020019161172a565b820191905f5260205f20905b81548152906001019060200180831161170d57829003601f168201915b505050505090806005015490806006015f9054906101000a900460ff16905087565b5f604051905090565b5f5ffd5b5f5ffd5b5f819050919050565b61176f8161175d565b8114611779575f5ffd5b50565b5f8135905061178a81611766565b92915050565b5f602082840312156117a5576117a4611755565b5b5f6117b28482850161177c565b91505092915050565b6117c48161175d565b82525050565b5f6020820190506117dd5f8301846117bb565b92915050565b5f5ffd5b5f5ffd5b5f601f19601f8301169050919050565b7f4e487b71000000000000000000000000000000000000000000000000000000005f52604160045260245ffd5b611831826117eb565b810181811067ffffffffffffffff821117156118505761184f6117fb565b5b80604052505050565b5f61186261174c565b905061186e8282611828565b919050565b5f67ffffffffffffffff82111561188d5761188c6117fb565b5b611896826117eb565b9050602081019050919050565b828183375f83830152505050565b5f6118c36118be84611873565b611859565b9050828152602081018484840111156118df576118de6117e7565b5b6118ea8482856118a3565b509392505050565b5f82601f830112611906576119056117e3565b5b81356119168482602086016118b1565b91505092915050565b5f5f5f5f6080858703121561193757611936611755565b5b5f85013567ffffffffffffffff81111561195457611953611759565b5b611960878288016118f2565b945050602085013567ffffffffffffffff81111561198157611980611759565b5b61198d878288016118f2565b935050604085013567ffffffffffffffff8111156119ae576119ad611759565b5b6119ba878288016118f2565b92505060606119cb8782880161177c565b91505092959194509250565b5f73ffffffffffffffffffffffffffffffffffffffff82169050919050565b5f611a00826119d7565b9050919050565b611a10816119f6565b82525050565b5f602082019050611a295f830184611a07565b92915050565b5f8115159050919050565b611a4381611a2f565b82525050565b5f602082019050611a5c5f830184611a3a565b92915050565b5f819050919050565b5f611a85611a80611a7b846119d7565b611a62565b6119d7565b9050919050565b5f611a9682611a6b565b9050919050565b5f611aa782611a8c565b9050919050565b611ab781611a9d565b82525050565b5f602082019050611ad05f830184611aae565b92915050565b5f81519050919050565b5f82825260208201905092915050565b8281835e5f83830152505050565b5f611b0882611ad6565b611b128185611ae0565b9350611b22818560208601611af0565b611b2b816117eb565b840191505092915050565b5f60e082019050611b495f83018a6117bb565b611b566020830189611a07565b8181036040830152611b688188611afe565b90508181036060830152611b7c8187611afe565b90508181036080830152611b908186611afe565b9050611b9f60a08301856117bb565b611bac60c0830184611a3a565b98975050505050505050565b7f496e76616c6964206c697374696e6720494400000000000000000000000000005f82015250565b5f611bec601283611ae0565b9150611bf782611bb8565b602082019050919050565b5f6020820190508181035f830152611c1981611be0565b9050919050565b7f4974656d20616c726561647920736f6c640000000000000000000000000000005f82015250565b5f611c54601183611ae0565b9150611c5f82611c20565b602082019050919050565b5f6020820190508181035f830152611c8181611c48565b9050919050565b5f604082019050611c9b5f830185611a07565b611ca86020830184611a07565b9392505050565b5f81519050611cbd81611766565b92915050565b5f60208284031215611cd857611cd7611755565b5b5f611ce584828501611caf565b91505092915050565b7f4e6f7420656e6f75676820616c6c6f77616e63650000000000000000000000005f82015250565b5f611d22601483611ae0565b9150611d2d82611cee565b602082019050919050565b5f6020820190508181035f830152611d4f81611d16565b9050919050565b7f4e487b71000000000000000000000000000000000000000000000000000000005f52601160045260245ffd5b5f611d8d8261175d565b9150611d988361175d565b9250828202611da68161175d565b91508282048414831517611dbd57611dbc611d56565b5b5092915050565b7f4e487b71000000000000000000000000000000000000000000000000000000005f52601260045260245ffd5b5f611dfb8261175d565b9150611e068361175d565b925082611e1657611e15611dc4565b5b828204905092915050565b5f611e2b8261175d565b9150611e368361175d565b9250828203905081811115611e4e57611e4d611d56565b5b92915050565b5f606082019050611e675f830186611a07565b611e746020830185611a07565b611e8160408301846117bb565b949350505050565b611e9281611a2f565b8114611e9c575f5ffd5b50565b5f81519050611ead81611e89565b92915050565b5f60208284031215611ec857611ec7611755565b5b5f611ed584828501611e9f565b91505092915050565b7f5472616e73666572206661696c656400000000000000000000000000000000005f82015250565b5f611f12600f83611ae0565b9150611f1d82611ede565b602082019050919050565b5f6020820190508181035f830152611f3f81611f06565b9050919050565b5f604082019050611f595f830185611a07565b611f6660208301846117bb565b9392505050565b7f436f6d6d697373696f6e207472616e73666572206661696c65640000000000005f82015250565b5f611fa1601a83611ae0565b9150611fac82611f6d565b602082019050919050565b5f6020820190508181035f830152611fce81611f95565b9050919050565b7f53656c6c6572207061796d656e74206661696c656400000000000000000000005f82015250565b5f612009601583611ae0565b915061201482611fd5565b602082019050919050565b5f6020820190508181035f83015261203681611ffd565b9050919050565b7f4f6e6c79206f776e65722063616e206368616e676520636f6d6d697373696f6e5f82015250565b5f612071602083611ae0565b915061207c8261203d565b602082019050919050565b5f6020820190508181035f83015261209e81612065565b9050919050565b7f436f6d6d697373696f6e2063616e6e6f742065786365656420313030250000005f82015250565b5f6120d9601d83611ae0565b91506120e4826120a5565b602082019050919050565b5f6020820190508181035f830152612106816120cd565b9050919050565b7f5072696365206d7573742062652067726561746572207468616e2030000000005f82015250565b5f612141601c83611ae0565b915061214c8261210d565b602082019050919050565b5f6020820190508181035f83015261216e81612135565b9050919050565b7f5469746c652063616e6e6f7420626520656d70747900000000000000000000005f82015250565b5f6121a9601583611ae0565b91506121b482612175565b602082019050919050565b5f6020820190508181035f8301526121d68161219d565b9050919050565b7f4465736372697074696f6e2063616e6e6f7420626520656d70747900000000005f82015250565b5f612211601b83611ae0565b915061221c826121dd565b602082019050919050565b5f6020820190508181035f83015261223e81612205565b9050919050565b7f507269636520697320746f6f20686967680000000000000000000000000000005f82015250565b5f612279601183611ae0565b915061228482612245565b602082019050919050565b5f6020820190508181035f8301526122a68161226d565b9050919050565b5f6122b78261175d565b91507fffffffffffffffffffffffffffffffffffffffffffffffffffffffffffffffff82036122e9576122e8611d56565b5b600182019050919050565b7f4e487b71000000000000000000000000000000000000000000000000000000005f52602260045260245ffd5b5f600282049050600182168061233857607f821691505b60208210810361234b5761234a6122f4565b5b50919050565b5f819050815f5260205f209050919050565b5f6020601f8301049050919050565b5f82821b905092915050565b5f600883026123ad7fffffffffffffffffffffffffffffffffffffffffffffffffffffffffffffffff82612372565b6123b78683612372565b95508019841693508086168417925050509392505050565b5f6123e96123e46123df8461175d565b611a62565b61175d565b9050919050565b5f819050919050565b612402836123cf565b61241661240e826123f0565b84845461237e565b825550505050565b5f5f905090565b61242d61241e565b6124388184846123f9565b505050565b5b8181101561245b576124505f82612425565b60018101905061243e565b5050565b601f8211156124a05761247181612351565b61247a84612363565b81016020851015612489578190505b61249d61249585612363565b83018261243d565b50505b505050565b5f82821c905092915050565b5f6124c05f19846008026124a5565b1980831691505092915050565b5f6124d883836124b1565b9150826002028217905092915050565b6124f182611ad6565b67ffffffffffffffff81111561250a576125096117fb565b5b6125148254612321565b61251f82828561245f565b5f60209050601f831160018114612550575f841561253e578287015190505b61254885826124cd565b8655506125af565b601f19841661255e86612351565b5f5b8281101561258557848901518255600182019150602085019450602081019050612560565b868310156125a2578489015161259e601f8916826124b1565b8355505b6001600288020188555050505b505050505050565b5f6040820190508181035f8301526125cf8185611afe565b90506125de60208301846117bb565b9392505050565b7f4f6e6c792062757965722063616e20636f6e6669726d207075726368617365005f82015250565b5f612619601f83611ae0565b9150612624826125e5565b602082019050919050565b5f6020820190508181035f8301526126468161260d565b9050919050565b7f4e6f2066756e647320696e20657363726f7700000000000000000000000000005f82015250565b5f612681601283611ae0565b915061268c8261264d565b602082019050919050565b5f6020820190508181035f8301526126ae81612675565b9050919050565b7f4c697374696e67206973206e6f7420736f6c64207965740000000000000000005f82015250565b5f6126e9601783611ae0565b91506126f4826126b5565b602082019050919050565b5f6020820190508181035f830152612716816126dd565b9050919050565b7f55534454207472616e7366657220746f2073656c6c6572206661696c656400005f82015250565b5f612751601e83611ae0565b915061275c8261271d565b602082019050919050565b5f6020820190508181035f83015261277e81612745565b9050919050565b7f4f6e6c79207468652062757965722063616e2063616e63656c000000000000005f82015250565b5f6127b9601983611ae0565b91506127c482612785565b602082019050919050565b5f6020820190508181035f8301526127e6816127ad565b9050919050565b7f43616e6e6f742063616e63656c2c206974656d20616c726561647920736f6c645f82015250565b5f612821602083611ae0565b915061282c826127ed565b602082019050919050565b5f6020820190508181035f83015261284e81612815565b9050919050565b7f55534454207472616e7366657220746f206275796572206661696c65640000005f82015250565b5f612889601d83611ae0565b915061289482612855565b602082019050919050565b5f6020820190508181035f8301526128b68161287d565b9050919050565b7f4f6e6c7920746865206f776e65722063616e20706572666f726d2074686973205f8201527f616374696f6e0000000000000000000000000000000000000000000000000000602082015250565b5f612917602683611ae0565b9150612922826128bd565b604082019050919050565b5f6020820190508181035f8301526129448161290b565b9050919050565b7f4e6f20746f6b656e7320746f20776974686472617700000000000000000000005f82015250565b5f61297f601583611ae0565b915061298a8261294b565b602082019050919050565b5f6020820190508181035f8301526129ac81612973565b9050919050565b7f5769746864726177206661696c656400000000000000000000000000000000005f82015250565b5f6129e7600f83611ae0565b91506129f2826129b3565b602082019050919050565b5f6020820190508181035f830152612a14816129db565b905091905056fea26469706673582212208a26ddbc75e510a8a85c441d958a29061122895b8d37932f90b68067d18e9e5e64736f6c634300081c0033",
					"opcodes": "PUSH1 0x80 PUSH1 0x40 MSTORE CALLVALUE DUP1 ISZERO PUSH2 0xF JUMPI PUSH0 PUSH0 REVERT JUMPDEST POP PUSH1 0x40 MLOAD PUSH2 0x2BF1 CODESIZE SUB DUP1 PUSH2 0x2BF1 DUP4 CODECOPY DUP2 DUP2 ADD PUSH1 0x40 MSTORE DUP2 ADD SWAP1 PUSH2 0x31 SWAP2 SWAP1 PUSH2 0x155 JUMP JUMPDEST CALLER PUSH0 PUSH0 PUSH2 0x100 EXP DUP2 SLOAD DUP2 PUSH20 0xFFFFFFFFFFFFFFFFFFFFFFFFFFFFFFFFFFFFFFFF MUL NOT AND SWAP1 DUP4 PUSH20 0xFFFFFFFFFFFFFFFFFFFFFFFFFFFFFFFFFFFFFFFF AND MUL OR SWAP1 SSTORE POP DUP2 PUSH1 0x6 PUSH0 PUSH2 0x100 EXP DUP2 SLOAD DUP2 PUSH20 0xFFFFFFFFFFFFFFFFFFFFFFFFFFFFFFFFFFFFFFFF MUL NOT AND SWAP1 DUP4 PUSH20 0xFFFFFFFFFFFFFFFFFFFFFFFFFFFFFFFFFFFFFFFF AND MUL OR SWAP1 SSTORE POP DUP1 PUSH1 0xFF AND PUSH1 0x3 DUP2 SWAP1 SSTORE POP POP POP PUSH2 0x193 JUMP JUMPDEST PUSH0 PUSH0 REVERT JUMPDEST PUSH0 PUSH20 0xFFFFFFFFFFFFFFFFFFFFFFFFFFFFFFFFFFFFFFFF DUP3 AND SWAP1 POP SWAP2 SWAP1 POP JUMP JUMPDEST PUSH0 PUSH2 0xEE DUP3 PUSH2 0xC5 JUMP JUMPDEST SWAP1 POP SWAP2 SWAP1 POP JUMP JUMPDEST PUSH2 0xFE DUP2 PUSH2 0xE4 JUMP JUMPDEST DUP2 EQ PUSH2 0x108 JUMPI PUSH0 PUSH0 REVERT JUMPDEST POP JUMP JUMPDEST PUSH0 DUP2 MLOAD SWAP1 POP PUSH2 0x119 DUP2 PUSH2 0xF5 JUMP JUMPDEST SWAP3 SWAP2 POP POP JUMP JUMPDEST PUSH0 PUSH1 0xFF DUP3 AND SWAP1 POP SWAP2 SWAP1 POP JUMP JUMPDEST PUSH2 0x134 DUP2 PUSH2 0x11F JUMP JUMPDEST DUP2 EQ PUSH2 0x13E JUMPI PUSH0 PUSH0 REVERT JUMPDEST POP JUMP JUMPDEST PUSH0 DUP2 MLOAD SWAP1 POP PUSH2 0x14F DUP2 PUSH2 0x12B JUMP JUMPDEST SWAP3 SWAP2 POP POP JUMP JUMPDEST PUSH0 PUSH0 PUSH1 0x40 DUP4 DUP6 SUB SLT ISZERO PUSH2 0x16B JUMPI PUSH2 0x16A PUSH2 0xC1 JUMP JUMPDEST JUMPDEST PUSH0 PUSH2 0x178 DUP6 DUP3 DUP7 ADD PUSH2 0x10B JUMP JUMPDEST SWAP3 POP POP PUSH1 0x20 PUSH2 0x189 DUP6 DUP3 DUP7 ADD PUSH2 0x141 JUMP JUMPDEST SWAP2 POP POP SWAP3 POP SWAP3 SWAP1 POP JUMP JUMPDEST PUSH2 0x2A51 DUP1 PUSH2 0x1A0 PUSH0 CODECOPY PUSH0 RETURN INVALID PUSH1 0x80 PUSH1 0x40 MSTORE CALLVALUE DUP1 ISZERO PUSH2 0xF JUMPI PUSH0 PUSH0 REVERT JUMPDEST POP PUSH1 0x4 CALLDATASIZE LT PUSH2 0xF3 JUMPI PUSH0 CALLDATALOAD PUSH1 0xE0 SHR DUP1 PUSH4 0x77D3550B GT PUSH2 0x95 JUMPI DUP1 PUSH4 0xA9B07C26 GT PUSH2 0x64 JUMPI DUP1 PUSH4 0xA9B07C26 EQ PUSH2 0x26F JUMPI DUP1 PUSH4 0xC3634DDC EQ PUSH2 0x28D JUMPI DUP1 PUSH4 0xCA628C78 EQ PUSH2 0x2A9 JUMPI DUP1 PUSH4 0xDE74E57B EQ PUSH2 0x2B3 JUMPI PUSH2 0xF3 JUMP JUMPDEST DUP1 PUSH4 0x77D3550B EQ PUSH2 0x1E5 JUMPI DUP1 PUSH4 0x8DA5CB5B EQ PUSH2 0x203 JUMPI DUP1 PUSH4 0xA85C38EF EQ PUSH2 0x221 JUMPI DUP1 PUSH4 0xA98AD46C EQ PUSH2 0x251 JUMPI PUSH2 0xF3 JUMP JUMPDEST DUP1 PUSH4 0x451D4107 GT PUSH2 0xD1 JUMPI DUP1 PUSH4 0x451D4107 EQ PUSH2 0x14D JUMPI DUP1 PUSH4 0x4D24E902 EQ PUSH2 0x169 JUMPI DUP1 PUSH4 0x5D19E56C EQ PUSH2 0x185 JUMPI DUP1 PUSH4 0x6C5D4BEC EQ PUSH2 0x1B5 JUMPI PUSH2 0xF3 JUMP JUMPDEST DUP1 PUSH4 0x169D5A7D EQ PUSH2 0xF7 JUMPI DUP1 PUSH4 0x1D834409 EQ PUSH2 0x113 JUMPI DUP1 PUSH4 0x404A9AB8 EQ PUSH2 0x131 JUMPI JUMPDEST PUSH0 PUSH0 REVERT JUMPDEST PUSH2 0x111 PUSH1 0x4 DUP1 CALLDATASIZE SUB DUP2 ADD SWAP1 PUSH2 0x10C SWAP2 SWAP1 PUSH2 0x1790 JUMP JUMPDEST PUSH2 0x2E9 JUMP JUMPDEST STOP JUMPDEST PUSH2 0x11B PUSH2 0x80D JUMP JUMPDEST PUSH1 0x40 MLOAD PUSH2 0x128 SWAP2 SWAP1 PUSH2 0x17CA JUMP JUMPDEST PUSH1 0x40 MLOAD DUP1 SWAP2 SUB SWAP1 RETURN JUMPDEST PUSH2 0x14B PUSH1 0x4 DUP1 CALLDATASIZE SUB DUP2 ADD SWAP1 PUSH2 0x146 SWAP2 SWAP1 PUSH2 0x1790 JUMP JUMPDEST PUSH2 0x813 JUMP JUMPDEST STOP JUMPDEST PUSH2 0x167 PUSH1 0x4 DUP1 CALLDATASIZE SUB DUP2 ADD SWAP1 PUSH2 0x162 SWAP2 SWAP1 PUSH2 0x191F JUMP JUMPDEST PUSH2 0x8EF JUMP JUMPDEST STOP JUMPDEST PUSH2 0x183 PUSH1 0x4 DUP1 CALLDATASIZE SUB DUP2 ADD SWAP1 PUSH2 0x17E SWAP2 SWAP1 PUSH2 0x1790 JUMP JUMPDEST PUSH2 0xB8E JUMP JUMPDEST STOP JUMPDEST PUSH2 0x19F PUSH1 0x4 DUP1 CALLDATASIZE SUB DUP2 ADD SWAP1 PUSH2 0x19A SWAP2 SWAP1 PUSH2 0x1790 JUMP JUMPDEST PUSH2 0xEF3 JUMP JUMPDEST PUSH1 0x40 MLOAD PUSH2 0x1AC SWAP2 SWAP1 PUSH2 0x17CA JUMP JUMPDEST PUSH1 0x40 MLOAD DUP1 SWAP2 SUB SWAP1 RETURN JUMPDEST PUSH2 0x1CF PUSH1 0x4 DUP1 CALLDATASIZE SUB DUP2 ADD SWAP1 PUSH2 0x1CA SWAP2 SWAP1 PUSH2 0x1790 JUMP JUMPDEST PUSH2 0xF08 JUMP JUMPDEST PUSH1 0x40 MLOAD PUSH2 0x1DC SWAP2 SWAP1 PUSH2 0x1A16 JUMP JUMPDEST PUSH1 0x40 MLOAD DUP1 SWAP2 SUB SWAP1 RETURN JUMPDEST PUSH2 0x1ED PUSH2 0xF38 JUMP JUMPDEST PUSH1 0x40 MLOAD PUSH2 0x1FA SWAP2 SWAP1 PUSH2 0x17CA JUMP JUMPDEST PUSH1 0x40 MLOAD DUP1 SWAP2 SUB SWAP1 RETURN JUMPDEST PUSH2 0x20B PUSH2 0xF3E JUMP JUMPDEST PUSH1 0x40 MLOAD PUSH2 0x218 SWAP2 SWAP1 PUSH2 0x1A16 JUMP JUMPDEST PUSH1 0x40 MLOAD DUP1 SWAP2 SUB SWAP1 RETURN JUMPDEST PUSH2 0x23B PUSH1 0x4 DUP1 CALLDATASIZE SUB DUP2 ADD SWAP1 PUSH2 0x236 SWAP2 SWAP1 PUSH2 0x1790 JUMP JUMPDEST PUSH2 0xF62 JUMP JUMPDEST PUSH1 0x40 MLOAD PUSH2 0x248 SWAP2 SWAP1 PUSH2 0x1A49 JUMP JUMPDEST PUSH1 0x40 MLOAD DUP1 SWAP2 SUB SWAP1 RETURN JUMPDEST PUSH2 0x259 PUSH2 0xF88 JUMP JUMPDEST PUSH1 0x40 MLOAD PUSH2 0x266 SWAP2 SWAP1 PUSH2 0x1ABD JUMP JUMPDEST PUSH1 0x40 MLOAD DUP1 SWAP2 SUB SWAP1 RETURN JUMPDEST PUSH2 0x277 PUSH2 0xFAD JUMP JUMPDEST PUSH1 0x40 MLOAD PUSH2 0x284 SWAP2 SWAP1 PUSH2 0x17CA JUMP JUMPDEST PUSH1 0x40 MLOAD DUP1 SWAP2 SUB SWAP1 RETURN JUMPDEST PUSH2 0x2A7 PUSH1 0x4 DUP1 CALLDATASIZE SUB DUP2 ADD SWAP1 PUSH2 0x2A2 SWAP2 SWAP1 PUSH2 0x1790 JUMP JUMPDEST PUSH2 0xFB3 JUMP JUMPDEST STOP JUMPDEST PUSH2 0x2B1 PUSH2 0x12E2 JUMP JUMPDEST STOP JUMPDEST PUSH2 0x2CD PUSH1 0x4 DUP1 CALLDATASIZE SUB DUP2 ADD SWAP1 PUSH2 0x2C8 SWAP2 SWAP1 PUSH2 0x1790 JUMP JUMPDEST PUSH2 0x1551 JUMP JUMPDEST PUSH1 0x40 MLOAD PUSH2 0x2E0 SWAP8 SWAP7 SWAP6 SWAP5 SWAP4 SWAP3 SWAP2 SWAP1 PUSH2 0x1B36 JUMP JUMPDEST PUSH1 0x40 MLOAD DUP1 SWAP2 SUB SWAP1 RETURN JUMPDEST PUSH0 PUSH1 0x4 PUSH0 DUP4 DUP2 MSTORE PUSH1 0x20 ADD SWAP1 DUP2 MSTORE PUSH1 0x20 ADD PUSH0 KECCAK256 SWAP1 POP PUSH0 DUP3 GT DUP1 ISZERO PUSH2 0x30E JUMPI POP PUSH1 0x1 SLOAD DUP3 GT ISZERO JUMPDEST PUSH2 0x34D JUMPI PUSH1 0x40 MLOAD PUSH32 0x8C379A000000000000000000000000000000000000000000000000000000000 DUP2 MSTORE PUSH1 0x4 ADD PUSH2 0x344 SWAP1 PUSH2 0x1C02 JUMP JUMPDEST PUSH1 0x40 MLOAD DUP1 SWAP2 SUB SWAP1 REVERT JUMPDEST DUP1 PUSH1 0x6 ADD PUSH0 SWAP1 SLOAD SWAP1 PUSH2 0x100 EXP SWAP1 DIV PUSH1 0xFF AND ISZERO PUSH2 0x39E JUMPI PUSH1 0x40 MLOAD PUSH32 0x8C379A000000000000000000000000000000000000000000000000000000000 DUP2 MSTORE PUSH1 0x4 ADD PUSH2 0x395 SWAP1 PUSH2 0x1C6A JUMP JUMPDEST PUSH1 0x40 MLOAD DUP1 SWAP2 SUB SWAP1 REVERT JUMPDEST DUP1 PUSH1 0x5 ADD SLOAD PUSH1 0x6 PUSH0 SWAP1 SLOAD SWAP1 PUSH2 0x100 EXP SWAP1 DIV PUSH20 0xFFFFFFFFFFFFFFFFFFFFFFFFFFFFFFFFFFFFFFFF AND PUSH20 0xFFFFFFFFFFFFFFFFFFFFFFFFFFFFFFFFFFFFFFFF AND PUSH4 0xDD62ED3E CALLER ADDRESS PUSH1 0x40 MLOAD DUP4 PUSH4 0xFFFFFFFF AND PUSH1 0xE0 SHL DUP2 MSTORE PUSH1 0x4 ADD PUSH2 0x3FF SWAP3 SWAP2 SWAP1 PUSH2 0x1C88 JUMP JUMPDEST PUSH1 0x20 PUSH1 0x40 MLOAD DUP1 DUP4 SUB DUP2 DUP7 GAS STATICCALL ISZERO DUP1 ISZERO PUSH2 0x41A JUMPI RETURNDATASIZE PUSH0 PUSH0 RETURNDATACOPY RETURNDATASIZE PUSH0 REVERT JUMPDEST POP POP POP POP PUSH1 0x40 MLOAD RETURNDATASIZE PUSH1 0x1F NOT PUSH1 0x1F DUP3 ADD AND DUP3 ADD DUP1 PUSH1 0x40 MSTORE POP DUP2 ADD SWAP1 PUSH2 0x43E SWAP2 SWAP1 PUSH2 0x1CC3 JUMP JUMPDEST LT ISZERO PUSH2 0x47F JUMPI PUSH1 0x40 MLOAD PUSH32 0x8C379A000000000000000000000000000000000000000000000000000000000 DUP2 MSTORE PUSH1 0x4 ADD PUSH2 0x476 SWAP1 PUSH2 0x1D38 JUMP JUMPDEST PUSH1 0x40 MLOAD DUP1 SWAP2 SUB SWAP1 REVERT JUMPDEST PUSH0 PUSH1 0x64 PUSH1 0x3 SLOAD DUP4 PUSH1 0x5 ADD SLOAD PUSH2 0x494 SWAP2 SWAP1 PUSH2 0x1D83 JUMP JUMPDEST PUSH2 0x49E SWAP2 SWAP1 PUSH2 0x1DF1 JUMP JUMPDEST SWAP1 POP PUSH0 DUP2 DUP4 PUSH1 0x5 ADD SLOAD PUSH2 0x4B1 SWAP2 SWAP1 PUSH2 0x1E21 JUMP JUMPDEST SWAP1 POP PUSH0 PUSH1 0x6 PUSH0 SWAP1 SLOAD SWAP1 PUSH2 0x100 EXP SWAP1 DIV PUSH20 0xFFFFFFFFFFFFFFFFFFFFFFFFFFFFFFFFFFFFFFFF AND PUSH20 0xFFFFFFFFFFFFFFFFFFFFFFFFFFFFFFFFFFFFFFFF AND PUSH4 0x23B872DD CALLER ADDRESS DUP8 PUSH1 0x5 ADD SLOAD PUSH1 0x40 MLOAD DUP5 PUSH4 0xFFFFFFFF AND PUSH1 0xE0 SHL DUP2 MSTORE PUSH1 0x4 ADD PUSH2 0x516 SWAP4 SWAP3 SWAP2 SWAP1 PUSH2 0x1E54 JUMP JUMPDEST PUSH1 0x20 PUSH1 0x40 MLOAD DUP1 DUP4 SUB DUP2 PUSH0 DUP8 GAS CALL ISZERO DUP1 ISZERO PUSH2 0x532 JUMPI RETURNDATASIZE PUSH0 PUSH0 RETURNDATACOPY RETURNDATASIZE PUSH0 REVERT JUMPDEST POP POP POP POP PUSH1 0x40 MLOAD RETURNDATASIZE PUSH1 0x1F NOT PUSH1 0x1F DUP3 ADD AND DUP3 ADD DUP1 PUSH1 0x40 MSTORE POP DUP2 ADD SWAP1 PUSH2 0x556 SWAP2 SWAP1 PUSH2 0x1EB3 JUMP JUMPDEST SWAP1 POP DUP1 PUSH2 0x598 JUMPI PUSH1 0x40 MLOAD PUSH32 0x8C379A000000000000000000000000000000000000000000000000000000000 DUP2 MSTORE PUSH1 0x4 ADD PUSH2 0x58F SWAP1 PUSH2 0x1F28 JUMP JUMPDEST PUSH1 0x40 MLOAD DUP1 SWAP2 SUB SWAP1 REVERT JUMPDEST PUSH1 0x6 PUSH0 SWAP1 SLOAD SWAP1 PUSH2 0x100 EXP SWAP1 DIV PUSH20 0xFFFFFFFFFFFFFFFFFFFFFFFFFFFFFFFFFFFFFFFF AND PUSH20 0xFFFFFFFFFFFFFFFFFFFFFFFFFFFFFFFFFFFFFFFF AND PUSH4 0xA9059CBB PUSH0 PUSH0 SWAP1 SLOAD SWAP1 PUSH2 0x100 EXP SWAP1 DIV PUSH20 0xFFFFFFFFFFFFFFFFFFFFFFFFFFFFFFFFFFFFFFFF AND DUP6 PUSH1 0x40 MLOAD DUP4 PUSH4 0xFFFFFFFF AND PUSH1 0xE0 SHL DUP2 MSTORE PUSH1 0x4 ADD PUSH2 0x614 SWAP3 SWAP2 SWAP1 PUSH2 0x1F46 JUMP JUMPDEST PUSH1 0x20 PUSH1 0x40 MLOAD DUP1 DUP4 SUB DUP2 PUSH0 DUP8 GAS CALL ISZERO DUP1 ISZERO PUSH2 0x630 JUMPI RETURNDATASIZE PUSH0 PUSH0 RETURNDATACOPY RETURNDATASIZE PUSH0 REVERT JUMPDEST POP POP POP POP PUSH1 0x40 MLOAD RETURNDATASIZE PUSH1 0x1F NOT PUSH1 0x1F DUP3 ADD AND DUP3 ADD DUP1 PUSH1 0x40 MSTORE POP DUP2 ADD SWAP1 PUSH2 0x654 SWAP2 SWAP1 PUSH2 0x1EB3 JUMP JUMPDEST SWAP1 POP DUP1 PUSH2 0x696 JUMPI PUSH1 0x40 MLOAD PUSH32 0x8C379A000000000000000000000000000000000000000000000000000000000 DUP2 MSTORE PUSH1 0x4 ADD PUSH2 0x68D SWAP1 PUSH2 0x1FB7 JUMP JUMPDEST PUSH1 0x40 MLOAD DUP1 SWAP2 SUB SWAP1 REVERT JUMPDEST PUSH1 0x6 PUSH0 SWAP1 SLOAD SWAP1 PUSH2 0x100 EXP SWAP1 DIV PUSH20 0xFFFFFFFFFFFFFFFFFFFFFFFFFFFFFFFFFFFFFFFF AND PUSH20 0xFFFFFFFFFFFFFFFFFFFFFFFFFFFFFFFFFFFFFFFF AND PUSH4 0xA9059CBB DUP6 PUSH1 0x1 ADD PUSH0 SWAP1 SLOAD SWAP1 PUSH2 0x100 EXP SWAP1 DIV PUSH20 0xFFFFFFFFFFFFFFFFFFFFFFFFFFFFFFFFFFFFFFFF AND DUP5 PUSH1 0x40 MLOAD DUP4 PUSH4 0xFFFFFFFF AND PUSH1 0xE0 SHL DUP2 MSTORE PUSH1 0x4 ADD PUSH2 0x715 SWAP3 SWAP2 SWAP1 PUSH2 0x1F46 JUMP JUMPDEST PUSH1 0x20 PUSH1 0x40 MLOAD DUP1 DUP4 SUB DUP2 PUSH0 DUP8 GAS CALL ISZERO DUP1 ISZERO PUSH2 0x731 JUMPI RETURNDATASIZE PUSH0 PUSH0 RETURNDATACOPY RETURNDATASIZE PUSH0 REVERT JUMPDEST POP POP POP POP PUSH1 0x40 MLOAD RETURNDATASIZE PUSH1 0x1F NOT PUSH1 0x1F DUP3 ADD AND DUP3 ADD DUP1 PUSH1 0x40 MSTORE POP DUP2 ADD SWAP1 PUSH2 0x755 SWAP2 SWAP1 PUSH2 0x1EB3 JUMP JUMPDEST SWAP1 POP DUP1 PUSH2 0x797 JUMPI PUSH1 0x40 MLOAD PUSH32 0x8C379A000000000000000000000000000000000000000000000000000000000 DUP2 MSTORE PUSH1 0x4 ADD PUSH2 0x78E SWAP1 PUSH2 0x201F JUMP JUMPDEST PUSH1 0x40 MLOAD DUP1 SWAP2 SUB SWAP1 REVERT JUMPDEST PUSH1 0x1 DUP5 PUSH1 0x6 ADD PUSH0 PUSH2 0x100 EXP DUP2 SLOAD DUP2 PUSH1 0xFF MUL NOT AND SWAP1 DUP4 ISZERO ISZERO MUL OR SWAP1 SSTORE POP CALLER PUSH20 0xFFFFFFFFFFFFFFFFFFFFFFFFFFFFFFFFFFFFFFFF AND DUP6 PUSH32 0x3915B4AB4F4D3AD54079C20A1BB2159E875D3D5B673D4DC93986F956D2581189 DUP7 PUSH1 0x5 ADD SLOAD PUSH1 0x40 MLOAD PUSH2 0x7FE SWAP2 SWAP1 PUSH2 0x17CA JUMP JUMPDEST PUSH1 0x40 MLOAD DUP1 SWAP2 SUB SWAP1 LOG3 POP POP POP POP POP JUMP JUMPDEST PUSH1 0x2 SLOAD DUP2 JUMP JUMPDEST PUSH0 PUSH0 SWAP1 SLOAD SWAP1 PUSH2 0x100 EXP SWAP1 DIV PUSH20 0xFFFFFFFFFFFFFFFFFFFFFFFFFFFFFFFFFFFFFFFF AND PUSH20 0xFFFFFFFFFFFFFFFFFFFFFFFFFFFFFFFFFFFFFFFF AND CALLER PUSH20 0xFFFFFFFFFFFFFFFFFFFFFFFFFFFFFFFFFFFFFFFF AND EQ PUSH2 0x8A1 JUMPI PUSH1 0x40 MLOAD PUSH32 0x8C379A000000000000000000000000000000000000000000000000000000000 DUP2 MSTORE PUSH1 0x4 ADD PUSH2 0x898 SWAP1 PUSH2 0x2087 JUMP JUMPDEST PUSH1 0x40 MLOAD DUP1 SWAP2 SUB SWAP1 REVERT JUMPDEST PUSH1 0x64 DUP2 GT ISZERO PUSH2 0x8E5 JUMPI PUSH1 0x40 MLOAD PUSH32 0x8C379A000000000000000000000000000000000000000000000000000000000 DUP2 MSTORE PUSH1 0x4 ADD PUSH2 0x8DC SWAP1 PUSH2 0x20EF JUMP JUMPDEST PUSH1 0x40 MLOAD DUP1 SWAP2 SUB SWAP1 REVERT JUMPDEST DUP1 PUSH1 0x3 DUP2 SWAP1 SSTORE POP POP JUMP JUMPDEST PUSH0 DUP2 GT PUSH2 0x931 JUMPI PUSH1 0x40 MLOAD PUSH32 0x8C379A000000000000000000000000000000000000000000000000000000000 DUP2 MSTORE PUSH1 0x4 ADD PUSH2 0x928 SWAP1 PUSH2 0x2157 JUMP JUMPDEST PUSH1 0x40 MLOAD DUP1 SWAP2 SUB SWAP1 REVERT JUMPDEST PUSH0 DUP5 MLOAD GT PUSH2 0x974 JUMPI PUSH1 0x40 MLOAD PUSH32 0x8C379A000000000000000000000000000000000000000000000000000000000 DUP2 MSTORE PUSH1 0x4 ADD PUSH2 0x96B SWAP1 PUSH2 0x21BF JUMP JUMPDEST PUSH1 0x40 MLOAD DUP1 SWAP2 SUB SWAP1 REVERT JUMPDEST PUSH0 DUP4 MLOAD GT PUSH2 0x9B7 JUMPI PUSH1 0x40 MLOAD PUSH32 0x8C379A000000000000000000000000000000000000000000000000000000000 DUP2 MSTORE PUSH1 0x4 ADD PUSH2 0x9AE SWAP1 PUSH2 0x2227 JUMP JUMPDEST PUSH1 0x40 MLOAD DUP1 SWAP2 SUB SWAP1 REVERT JUMPDEST PUSH8 0xDE0B6B3A7640000 DUP2 GT ISZERO PUSH2 0xA02 JUMPI PUSH1 0x40 MLOAD PUSH32 0x8C379A000000000000000000000000000000000000000000000000000000000 DUP2 MSTORE PUSH1 0x4 ADD PUSH2 0x9F9 SWAP1 PUSH2 0x228F JUMP JUMPDEST PUSH1 0x40 MLOAD DUP1 SWAP2 SUB SWAP1 REVERT JUMPDEST PUSH1 0x1 PUSH0 DUP2 SLOAD DUP1 SWAP3 SWAP2 SWAP1 PUSH2 0xA14 SWAP1 PUSH2 0x22AD JUMP JUMPDEST SWAP2 SWAP1 POP SSTORE POP PUSH1 0x40 MLOAD DUP1 PUSH1 0xE0 ADD PUSH1 0x40 MSTORE DUP1 PUSH1 0x1 SLOAD DUP2 MSTORE PUSH1 0x20 ADD CALLER PUSH20 0xFFFFFFFFFFFFFFFFFFFFFFFFFFFFFFFFFFFFFFFF AND DUP2 MSTORE PUSH1 0x20 ADD DUP6 DUP2 MSTORE PUSH1 0x20 ADD DUP5 DUP2 MSTORE PUSH1 0x20 ADD DUP4 DUP2 MSTORE PUSH1 0x20 ADD DUP3 DUP2 MSTORE PUSH1 0x20 ADD PUSH0 ISZERO ISZERO DUP2 MSTORE POP PUSH1 0x4 PUSH0 PUSH1 0x1 SLOAD DUP2 MSTORE PUSH1 0x20 ADD SWAP1 DUP2 MSTORE PUSH1 0x20 ADD PUSH0 KECCAK256 PUSH0 DUP3 ADD MLOAD DUP2 PUSH0 ADD SSTORE PUSH1 0x20 DUP3 ADD MLOAD DUP2 PUSH1 0x1 ADD PUSH0 PUSH2 0x100 EXP DUP2 SLOAD DUP2 PUSH20 0xFFFFFFFFFFFFFFFFFFFFFFFFFFFFFFFFFFFFFFFF MUL NOT AND SWAP1 DUP4 PUSH20 0xFFFFFFFFFFFFFFFFFFFFFFFFFFFFFFFFFFFFFFFF AND MUL OR SWAP1 SSTORE POP PUSH1 0x40 DUP3 ADD MLOAD DUP2 PUSH1 0x2 ADD SWAP1 DUP2 PUSH2 0xADC SWAP2 SWAP1 PUSH2 0x24E8 JUMP JUMPDEST POP PUSH1 0x60 DUP3 ADD MLOAD DUP2 PUSH1 0x3 ADD SWAP1 DUP2 PUSH2 0xAF2 SWAP2 SWAP1 PUSH2 0x24E8 JUMP JUMPDEST POP PUSH1 0x80 DUP3 ADD MLOAD DUP2 PUSH1 0x4 ADD SWAP1 DUP2 PUSH2 0xB08 SWAP2 SWAP1 PUSH2 0x24E8 JUMP JUMPDEST POP PUSH1 0xA0 DUP3 ADD MLOAD DUP2 PUSH1 0x5 ADD SSTORE PUSH1 0xC0 DUP3 ADD MLOAD DUP2 PUSH1 0x6 ADD PUSH0 PUSH2 0x100 EXP DUP2 SLOAD DUP2 PUSH1 0xFF MUL NOT AND SWAP1 DUP4 ISZERO ISZERO MUL OR SWAP1 SSTORE POP SWAP1 POP POP CALLER PUSH20 0xFFFFFFFFFFFFFFFFFFFFFFFFFFFFFFFFFFFFFFFF AND PUSH1 0x1 SLOAD PUSH32 0x6B7A3194EADDCE2BE5200D10785A15A5CD14A78B827CF902F4D23C35E6BD73F8 DUP7 DUP5 PUSH1 0x40 MLOAD PUSH2 0xB80 SWAP3 SWAP2 SWAP1 PUSH2 0x25B7 JUMP JUMPDEST PUSH1 0x40 MLOAD DUP1 SWAP2 SUB SWAP1 LOG3 POP POP POP POP JUMP JUMPDEST CALLER PUSH20 0xFFFFFFFFFFFFFFFFFFFFFFFFFFFFFFFFFFFFFFFF AND PUSH1 0x7 PUSH0 DUP4 DUP2 MSTORE PUSH1 0x20 ADD SWAP1 DUP2 MSTORE PUSH1 0x20 ADD PUSH0 KECCAK256 PUSH0 SWAP1 SLOAD SWAP1 PUSH2 0x100 EXP SWAP1 DIV PUSH20 0xFFFFFFFFFFFFFFFFFFFFFFFFFFFFFFFFFFFFFFFF AND PUSH20 0xFFFFFFFFFFFFFFFFFFFFFFFFFFFFFFFFFFFFFFFF AND EQ PUSH2 0xC2C JUMPI PUSH1 0x40 MLOAD PUSH32 0x8C379A000000000000000000000000000000000000000000000000000000000 DUP2 MSTORE PUSH1 0x4 ADD PUSH2 0xC23 SWAP1 PUSH2 0x262F JUMP JUMPDEST PUSH1 0x40 MLOAD DUP1 SWAP2 SUB SWAP1 REVERT JUMPDEST PUSH0 PUSH1 0x8 PUSH0 DUP4 DUP2 MSTORE PUSH1 0x20 ADD SWAP1 DUP2 MSTORE PUSH1 0x20 ADD PUSH0 KECCAK256 SLOAD GT PUSH2 0xC7F JUMPI PUSH1 0x40 MLOAD PUSH32 0x8C379A000000000000000000000000000000000000000000000000000000000 DUP2 MSTORE PUSH1 0x4 ADD PUSH2 0xC76 SWAP1 PUSH2 0x2697 JUMP JUMPDEST PUSH1 0x40 MLOAD DUP1 SWAP2 SUB SWAP1 REVERT JUMPDEST PUSH1 0x4 PUSH0 DUP3 DUP2 MSTORE PUSH1 0x20 ADD SWAP1 DUP2 MSTORE PUSH1 0x20 ADD PUSH0 KECCAK256 PUSH1 0x6 ADD PUSH0 SWAP1 SLOAD SWAP1 PUSH2 0x100 EXP SWAP1 DIV PUSH1 0xFF AND PUSH2 0xCDF JUMPI PUSH1 0x40 MLOAD PUSH32 0x8C379A000000000000000000000000000000000000000000000000000000000 DUP2 MSTORE PUSH1 0x4 ADD PUSH2 0xCD6 SWAP1 PUSH2 0x26FF JUMP JUMPDEST PUSH1 0x40 MLOAD DUP1 SWAP2 SUB SWAP1 REVERT JUMPDEST PUSH0 PUSH1 0x4 PUSH0 DUP4 DUP2 MSTORE PUSH1 0x20 ADD SWAP1 DUP2 MSTORE PUSH1 0x20 ADD PUSH0 KECCAK256 SWAP1 POP PUSH0 PUSH1 0x6 PUSH0 SWAP1 SLOAD SWAP1 PUSH2 0x100 EXP SWAP1 DIV PUSH20 0xFFFFFFFFFFFFFFFFFFFFFFFFFFFFFFFFFFFFFFFF AND PUSH20 0xFFFFFFFFFFFFFFFFFFFFFFFFFFFFFFFFFFFFFFFF AND PUSH4 0xA9059CBB DUP4 PUSH1 0x1 ADD PUSH0 SWAP1 SLOAD SWAP1 PUSH2 0x100 EXP SWAP1 DIV PUSH20 0xFFFFFFFFFFFFFFFFFFFFFFFFFFFFFFFFFFFFFFFF AND PUSH1 0x8 PUSH0 DUP8 DUP2 MSTORE PUSH1 0x20 ADD SWAP1 DUP2 MSTORE PUSH1 0x20 ADD PUSH0 KECCAK256 SLOAD PUSH1 0x40 MLOAD DUP4 PUSH4 0xFFFFFFFF AND PUSH1 0xE0 SHL DUP2 MSTORE PUSH1 0x4 ADD PUSH2 0xD84 SWAP3 SWAP2 SWAP1 PUSH2 0x1F46 JUMP JUMPDEST PUSH1 0x20 PUSH1 0x40 MLOAD DUP1 DUP4 SUB DUP2 PUSH0 DUP8 GAS CALL ISZERO DUP1 ISZERO PUSH2 0xDA0 JUMPI RETURNDATASIZE PUSH0 PUSH0 RETURNDATACOPY RETURNDATASIZE PUSH0 REVERT JUMPDEST POP POP POP POP PUSH1 0x40 MLOAD RETURNDATASIZE PUSH1 0x1F NOT PUSH1 0x1F DUP3 ADD AND DUP3 ADD DUP1 PUSH1 0x40 MSTORE POP DUP2 ADD SWAP1 PUSH2 0xDC4 SWAP2 SWAP1 PUSH2 0x1EB3 JUMP JUMPDEST SWAP1 POP DUP1 PUSH2 0xE06 JUMPI PUSH1 0x40 MLOAD PUSH32 0x8C379A000000000000000000000000000000000000000000000000000000000 DUP2 MSTORE PUSH1 0x4 ADD PUSH2 0xDFD SWAP1 PUSH2 0x2767 JUMP JUMPDEST PUSH1 0x40 MLOAD DUP1 SWAP2 SUB SWAP1 REVERT JUMPDEST PUSH0 PUSH1 0x8 PUSH0 DUP6 DUP2 MSTORE PUSH1 0x20 ADD SWAP1 DUP2 MSTORE PUSH1 0x20 ADD PUSH0 KECCAK256 DUP2 SWAP1 SSTORE POP PUSH0 PUSH1 0x7 PUSH0 DUP6 DUP2 MSTORE PUSH1 0x20 ADD SWAP1 DUP2 MSTORE PUSH1 0x20 ADD PUSH0 KECCAK256 PUSH0 PUSH2 0x100 EXP DUP2 SLOAD DUP2 PUSH20 0xFFFFFFFFFFFFFFFFFFFFFFFFFFFFFFFFFFFFFFFF MUL NOT AND SWAP1 DUP4 PUSH20 0xFFFFFFFFFFFFFFFFFFFFFFFFFFFFFFFFFFFFFFFF AND MUL OR SWAP1 SSTORE POP DUP2 PUSH1 0x1 ADD PUSH0 SWAP1 SLOAD SWAP1 PUSH2 0x100 EXP SWAP1 DIV PUSH20 0xFFFFFFFFFFFFFFFFFFFFFFFFFFFFFFFFFFFFFFFF AND PUSH20 0xFFFFFFFFFFFFFFFFFFFFFFFFFFFFFFFFFFFFFFFF AND DUP4 PUSH32 0x6244ED823CA6BE0F11BC890C3FAFCF3C29CB23420C14243642E930B5E07E6D0A PUSH1 0x8 PUSH0 DUP8 DUP2 MSTORE PUSH1 0x20 ADD SWAP1 DUP2 MSTORE PUSH1 0x20 ADD PUSH0 KECCAK256 SLOAD PUSH1 0x40 MLOAD PUSH2 0xEE6 SWAP2 SWAP1 PUSH2 0x17CA JUMP JUMPDEST PUSH1 0x40 MLOAD DUP1 SWAP2 SUB SWAP1 LOG3 POP POP POP JUMP JUMPDEST PUSH1 0x8 PUSH1 0x20 MSTORE DUP1 PUSH0 MSTORE PUSH1 0x40 PUSH0 KECCAK256 PUSH0 SWAP2 POP SWAP1 POP SLOAD DUP2 JUMP JUMPDEST PUSH1 0x7 PUSH1 0x20 MSTORE DUP1 PUSH0 MSTORE PUSH1 0x40 PUSH0 KECCAK256 PUSH0 SWAP2 POP SLOAD SWAP1 PUSH2 0x100 EXP SWAP1 DIV PUSH20 0xFFFFFFFFFFFFFFFFFFFFFFFFFFFFFFFFFFFFFFFF AND DUP2 JUMP JUMPDEST PUSH1 0x3 SLOAD DUP2 JUMP JUMPDEST PUSH0 PUSH0 SWAP1 SLOAD SWAP1 PUSH2 0x100 EXP SWAP1 DIV PUSH20 0xFFFFFFFFFFFFFFFFFFFFFFFFFFFFFFFFFFFFFFFF AND DUP2 JUMP JUMPDEST PUSH1 0x5 PUSH1 0x20 MSTORE DUP1 PUSH0 MSTORE PUSH1 0x40 PUSH0 KECCAK256 PUSH0 SWAP2 POP SWAP1 POP DUP1 PUSH0 ADD PUSH0 SWAP1 SLOAD SWAP1 PUSH2 0x100 EXP SWAP1 DIV PUSH1 0xFF AND SWAP1 POP DUP2 JUMP JUMPDEST PUSH1 0x6 PUSH0 SWAP1 SLOAD SWAP1 PUSH2 0x100 EXP SWAP1 DIV PUSH20 0xFFFFFFFFFFFFFFFFFFFFFFFFFFFFFFFFFFFFFFFF AND DUP2 JUMP JUMPDEST PUSH1 0x1 SLOAD DUP2 JUMP JUMPDEST CALLER PUSH20 0xFFFFFFFFFFFFFFFFFFFFFFFFFFFFFFFFFFFFFFFF AND PUSH1 0x7 PUSH0 DUP4 DUP2 MSTORE PUSH1 0x20 ADD SWAP1 DUP2 MSTORE PUSH1 0x20 ADD PUSH0 KECCAK256 PUSH0 SWAP1 SLOAD SWAP1 PUSH2 0x100 EXP SWAP1 DIV PUSH20 0xFFFFFFFFFFFFFFFFFFFFFFFFFFFFFFFFFFFFFFFF AND PUSH20 0xFFFFFFFFFFFFFFFFFFFFFFFFFFFFFFFFFFFFFFFF AND EQ PUSH2 0x1051 JUMPI PUSH1 0x40 MLOAD PUSH32 0x8C379A000000000000000000000000000000000000000000000000000000000 DUP2 MSTORE PUSH1 0x4 ADD PUSH2 0x1048 SWAP1 PUSH2 0x27CF JUMP JUMPDEST PUSH1 0x40 MLOAD DUP1 SWAP2 SUB SWAP1 REVERT JUMPDEST PUSH0 PUSH1 0x8 PUSH0 DUP4 DUP2 MSTORE PUSH1 0x20 ADD SWAP1 DUP2 MSTORE PUSH1 0x20 ADD PUSH0 KECCAK256 SLOAD GT PUSH2 0x10A4 JUMPI PUSH1 0x40 MLOAD PUSH32 0x8C379A000000000000000000000000000000000000000000000000000000000 DUP2 MSTORE PUSH1 0x4 ADD PUSH2 0x109B SWAP1 PUSH2 0x2697 JUMP JUMPDEST PUSH1 0x40 MLOAD DUP1 SWAP2 SUB SWAP1 REVERT JUMPDEST PUSH1 0x4 PUSH0 DUP3 DUP2 MSTORE PUSH1 0x20 ADD SWAP1 DUP2 MSTORE PUSH1 0x20 ADD PUSH0 KECCAK256 PUSH1 0x6 ADD PUSH0 SWAP1 SLOAD SWAP1 PUSH2 0x100 EXP SWAP1 DIV PUSH1 0xFF AND ISZERO PUSH2 0x1105 JUMPI PUSH1 0x40 MLOAD PUSH32 0x8C379A000000000000000000000000000000000000000000000000000000000 DUP2 MSTORE PUSH1 0x4 ADD PUSH2 0x10FC SWAP1 PUSH2 0x2837 JUMP JUMPDEST PUSH1 0x40 MLOAD DUP1 SWAP2 SUB SWAP1 REVERT JUMPDEST PUSH0 PUSH1 0x8 PUSH0 DUP4 DUP2 MSTORE PUSH1 0x20 ADD SWAP1 DUP2 MSTORE PUSH1 0x20 ADD PUSH0 KECCAK256 SLOAD SWAP1 POP PUSH0 PUSH1 0x6 PUSH0 SWAP1 SLOAD SWAP1 PUSH2 0x100 EXP SWAP1 DIV PUSH20 0xFFFFFFFFFFFFFFFFFFFFFFFFFFFFFFFFFFFFFFFF AND PUSH20 0xFFFFFFFFFFFFFFFFFFFFFFFFFFFFFFFFFFFFFFFF AND PUSH4 0xA9059CBB PUSH1 0x7 PUSH0 DUP7 DUP2 MSTORE PUSH1 0x20 ADD SWAP1 DUP2 MSTORE PUSH1 0x20 ADD PUSH0 KECCAK256 PUSH0 SWAP1 SLOAD SWAP1 PUSH2 0x100 EXP SWAP1 DIV PUSH20 0xFFFFFFFFFFFFFFFFFFFFFFFFFFFFFFFFFFFFFFFF AND DUP5 PUSH1 0x40 MLOAD DUP4 PUSH4 0xFFFFFFFF AND PUSH1 0xE0 SHL DUP2 MSTORE PUSH1 0x4 ADD PUSH2 0x11A7 SWAP3 SWAP2 SWAP1 PUSH2 0x1F46 JUMP JUMPDEST PUSH1 0x20 PUSH1 0x40 MLOAD DUP1 DUP4 SUB DUP2 PUSH0 DUP8 GAS CALL ISZERO DUP1 ISZERO PUSH2 0x11C3 JUMPI RETURNDATASIZE PUSH0 PUSH0 RETURNDATACOPY RETURNDATASIZE PUSH0 REVERT JUMPDEST POP POP POP POP PUSH1 0x40 MLOAD RETURNDATASIZE PUSH1 0x1F NOT PUSH1 0x1F DUP3 ADD AND DUP3 ADD DUP1 PUSH1 0x40 MSTORE POP DUP2 ADD SWAP1 PUSH2 0x11E7 SWAP2 SWAP1 PUSH2 0x1EB3 JUMP JUMPDEST SWAP1 POP DUP1 PUSH2 0x1229 JUMPI PUSH1 0x40 MLOAD PUSH32 0x8C379A000000000000000000000000000000000000000000000000000000000 DUP2 MSTORE PUSH1 0x4 ADD PUSH2 0x1220 SWAP1 PUSH2 0x289F JUMP JUMPDEST PUSH1 0x40 MLOAD DUP1 SWAP2 SUB SWAP1 REVERT JUMPDEST PUSH0 PUSH1 0x8 PUSH0 DUP6 DUP2 MSTORE PUSH1 0x20 ADD SWAP1 DUP2 MSTORE PUSH1 0x20 ADD PUSH0 KECCAK256 DUP2 SWAP1 SSTORE POP PUSH0 PUSH1 0x7 PUSH0 DUP6 DUP2 MSTORE PUSH1 0x20 ADD SWAP1 DUP2 MSTORE PUSH1 0x20 ADD PUSH0 KECCAK256 PUSH0 PUSH2 0x100 EXP DUP2 SLOAD DUP2 PUSH20 0xFFFFFFFFFFFFFFFFFFFFFFFFFFFFFFFFFFFFFFFF MUL NOT AND SWAP1 DUP4 PUSH20 0xFFFFFFFFFFFFFFFFFFFFFFFFFFFFFFFFFFFFFFFF AND MUL OR SWAP1 SSTORE POP CALLER PUSH20 0xFFFFFFFFFFFFFFFFFFFFFFFFFFFFFFFFFFFFFFFF AND DUP4 PUSH32 0x83559618A86943FDD7E8104A56312F188DF6D0E149A9868B514871D05AC785FB DUP5 PUSH1 0x40 MLOAD PUSH2 0x12D5 SWAP2 SWAP1 PUSH2 0x17CA JUMP JUMPDEST PUSH1 0x40 MLOAD DUP1 SWAP2 SUB SWAP1 LOG3 POP POP POP JUMP JUMPDEST PUSH0 PUSH0 SWAP1 SLOAD SWAP1 PUSH2 0x100 EXP SWAP1 DIV PUSH20 0xFFFFFFFFFFFFFFFFFFFFFFFFFFFFFFFFFFFFFFFF AND PUSH20 0xFFFFFFFFFFFFFFFFFFFFFFFFFFFFFFFFFFFFFFFF AND CALLER PUSH20 0xFFFFFFFFFFFFFFFFFFFFFFFFFFFFFFFFFFFFFFFF AND EQ PUSH2 0x1370 JUMPI PUSH1 0x40 MLOAD PUSH32 0x8C379A000000000000000000000000000000000000000000000000000000000 DUP2 MSTORE PUSH1 0x4 ADD PUSH2 0x1367 SWAP1 PUSH2 0x292D JUMP JUMPDEST PUSH1 0x40 MLOAD DUP1 SWAP2 SUB SWAP1 REVERT JUMPDEST PUSH0 PUSH1 0x6 PUSH0 SWAP1 SLOAD SWAP1 PUSH2 0x100 EXP SWAP1 DIV PUSH20 0xFFFFFFFFFFFFFFFFFFFFFFFFFFFFFFFFFFFFFFFF AND PUSH20 0xFFFFFFFFFFFFFFFFFFFFFFFFFFFFFFFFFFFFFFFF AND PUSH4 0x70A08231 ADDRESS PUSH1 0x40 MLOAD DUP3 PUSH4 0xFFFFFFFF AND PUSH1 0xE0 SHL DUP2 MSTORE PUSH1 0x4 ADD PUSH2 0x13CB SWAP2 SWAP1 PUSH2 0x1A16 JUMP JUMPDEST PUSH1 0x20 PUSH1 0x40 MLOAD DUP1 DUP4 SUB DUP2 DUP7 GAS STATICCALL ISZERO DUP1 ISZERO PUSH2 0x13E6 JUMPI RETURNDATASIZE PUSH0 PUSH0 RETURNDATACOPY RETURNDATASIZE PUSH0 REVERT JUMPDEST POP POP POP POP PUSH1 0x40 MLOAD RETURNDATASIZE PUSH1 0x1F NOT PUSH1 0x1F DUP3 ADD AND DUP3 ADD DUP1 PUSH1 0x40 MSTORE POP DUP2 ADD SWAP1 PUSH2 0x140A SWAP2 SWAP1 PUSH2 0x1CC3 JUMP JUMPDEST SWAP1 POP PUSH0 DUP2 GT PUSH2 0x144E JUMPI PUSH1 0x40 MLOAD PUSH32 0x8C379A000000000000000000000000000000000000000000000000000000000 DUP2 MSTORE PUSH1 0x4 ADD PUSH2 0x1445 SWAP1 PUSH2 0x2995 JUMP JUMPDEST PUSH1 0x40 MLOAD DUP1 SWAP2 SUB SWAP1 REVERT JUMPDEST PUSH0 PUSH1 0x6 PUSH0 SWAP1 SLOAD SWAP1 PUSH2 0x100 EXP SWAP1 DIV PUSH20 0xFFFFFFFFFFFFFFFFFFFFFFFFFFFFFFFFFFFFFFFF AND PUSH20 0xFFFFFFFFFFFFFFFFFFFFFFFFFFFFFFFFFFFFFFFF AND PUSH4 0xA9059CBB PUSH0 PUSH0 SWAP1 SLOAD SWAP1 PUSH2 0x100 EXP SWAP1 DIV PUSH20 0xFFFFFFFFFFFFFFFFFFFFFFFFFFFFFFFFFFFFFFFF AND DUP5 PUSH1 0x40 MLOAD DUP4 PUSH4 0xFFFFFFFF AND PUSH1 0xE0 SHL DUP2 MSTORE PUSH1 0x4 ADD PUSH2 0x14CB SWAP3 SWAP2 SWAP1 PUSH2 0x1F46 JUMP JUMPDEST PUSH1 0x20 PUSH1 0x40 MLOAD DUP1 DUP4 SUB DUP2 PUSH0 DUP8 GAS CALL ISZERO DUP1 ISZERO PUSH2 0x14E7 JUMPI RETURNDATASIZE PUSH0 PUSH0 RETURNDATACOPY RETURNDATASIZE PUSH0 REVERT JUMPDEST POP POP POP POP PUSH1 0x40 MLOAD RETURNDATASIZE PUSH1 0x1F NOT PUSH1 0x1F DUP3 ADD AND DUP3 ADD DUP1 PUSH1 0x40 MSTORE POP DUP2 ADD SWAP1 PUSH2 0x150B SWAP2 SWAP1 PUSH2 0x1EB3 JUMP JUMPDEST SWAP1 POP DUP1 PUSH2 0x154D JUMPI PUSH1 0x40 MLOAD PUSH32 0x8C379A000000000000000000000000000000000000000000000000000000000 DUP2 MSTORE PUSH1 0x4 ADD PUSH2 0x1544 SWAP1 PUSH2 0x29FD JUMP JUMPDEST PUSH1 0x40 MLOAD DUP1 SWAP2 SUB SWAP1 REVERT JUMPDEST POP POP JUMP JUMPDEST PUSH1 0x4 PUSH1 0x20 MSTORE DUP1 PUSH0 MSTORE PUSH1 0x40 PUSH0 KECCAK256 PUSH0 SWAP2 POP SWAP1 POP DUP1 PUSH0 ADD SLOAD SWAP1 DUP1 PUSH1 0x1 ADD PUSH0 SWAP1 SLOAD SWAP1 PUSH2 0x100 EXP SWAP1 DIV PUSH20 0xFFFFFFFFFFFFFFFFFFFFFFFFFFFFFFFFFFFFFFFF AND SWAP1 DUP1 PUSH1 0x2 ADD DUP1 SLOAD PUSH2 0x159B SWAP1 PUSH2 0x2321 JUMP JUMPDEST DUP1 PUSH1 0x1F ADD PUSH1 0x20 DUP1 SWAP2 DIV MUL PUSH1 0x20 ADD PUSH1 0x40 MLOAD SWAP1 DUP2 ADD PUSH1 0x40 MSTORE DUP1 SWAP3 SWAP2 SWAP1 DUP2 DUP2 MSTORE PUSH1 0x20 ADD DUP3 DUP1 SLOAD PUSH2 0x15C7 SWAP1 PUSH2 0x2321 JUMP JUMPDEST DUP1 ISZERO PUSH2 0x1612 JUMPI DUP1 PUSH1 0x1F LT PUSH2 0x15E9 JUMPI PUSH2 0x100 DUP1 DUP4 SLOAD DIV MUL DUP4 MSTORE SWAP2 PUSH1 0x20 ADD SWAP2 PUSH2 0x1612 JUMP JUMPDEST DUP3 ADD SWAP2 SWAP1 PUSH0 MSTORE PUSH1 0x20 PUSH0 KECCAK256 SWAP1 JUMPDEST DUP2 SLOAD DUP2 MSTORE SWAP1 PUSH1 0x1 ADD SWAP1 PUSH1 0x20 ADD DUP1 DUP4 GT PUSH2 0x15F5 JUMPI DUP3 SWAP1 SUB PUSH1 0x1F AND DUP3 ADD SWAP2 JUMPDEST POP POP POP POP POP SWAP1 DUP1 PUSH1 0x3 ADD DUP1 SLOAD PUSH2 0x1627 SWAP1 PUSH2 0x2321 JUMP JUMPDEST DUP1 PUSH1 0x1F ADD PUSH1 0x20 DUP1 SWAP2 DIV MUL PUSH1 0x20 ADD PUSH1 0x40 MLOAD SWAP1 DUP2 ADD PUSH1 0x40 MSTORE DUP1 SWAP3 SWAP2 SWAP1 DUP2 DUP2 MSTORE PUSH1 0x20 ADD DUP3 DUP1 SLOAD PUSH2 0x1653 SWAP1 PUSH2 0x2321 JUMP JUMPDEST DUP1 ISZERO PUSH2 0x169E JUMPI DUP1 PUSH1 0x1F LT PUSH2 0x1675 JUMPI PUSH2 0x100 DUP1 DUP4 SLOAD DIV MUL DUP4 MSTORE SWAP2 PUSH1 0x20 ADD SWAP2 PUSH2 0x169E JUMP JUMPDEST DUP3 ADD SWAP2 SWAP1 PUSH0 MSTORE PUSH1 0x20 PUSH0 KECCAK256 SWAP1 JUMPDEST DUP2 SLOAD DUP2 MSTORE SWAP1 PUSH1 0x1 ADD SWAP1 PUSH1 0x20 ADD DUP1 DUP4 GT PUSH2 0x1681 JUMPI DUP3 SWAP1 SUB PUSH1 0x1F AND DUP3 ADD SWAP2 JUMPDEST POP POP POP POP POP SWAP1 DUP1 PUSH1 0x4 ADD DUP1 SLOAD PUSH2 0x16B3 SWAP1 PUSH2 0x2321 JUMP JUMPDEST DUP1 PUSH1 0x1F ADD PUSH1 0x20 DUP1 SWAP2 DIV MUL PUSH1 0x20 ADD PUSH1 0x40 MLOAD SWAP1 DUP2 ADD PUSH1 0x40 MSTORE DUP1 SWAP3 SWAP2 SWAP1 DUP2 DUP2 MSTORE PUSH1 0x20 ADD DUP3 DUP1 SLOAD PUSH2 0x16DF SWAP1 PUSH2 0x2321 JUMP JUMPDEST DUP1 ISZERO PUSH2 0x172A JUMPI DUP1 PUSH1 0x1F LT PUSH2 0x1701 JUMPI PUSH2 0x100 DUP1 DUP4 SLOAD DIV MUL DUP4 MSTORE SWAP2 PUSH1 0x20 ADD SWAP2 PUSH2 0x172A JUMP JUMPDEST DUP3 ADD SWAP2 SWAP1 PUSH0 MSTORE PUSH1 0x20 PUSH0 KECCAK256 SWAP1 JUMPDEST DUP2 SLOAD DUP2 MSTORE SWAP1 PUSH1 0x1 ADD SWAP1 PUSH1 0x20 ADD DUP1 DUP4 GT PUSH2 0x170D JUMPI DUP3 SWAP1 SUB PUSH1 0x1F AND DUP3 ADD SWAP2 JUMPDEST POP POP POP POP POP SWAP1 DUP1 PUSH1 0x5 ADD SLOAD SWAP1 DUP1 PUSH1 0x6 ADD PUSH0 SWAP1 SLOAD SWAP1 PUSH2 0x100 EXP SWAP1 DIV PUSH1 0xFF AND SWAP1 POP DUP8 JUMP JUMPDEST PUSH0 PUSH1 0x40 MLOAD SWAP1 POP SWAP1 JUMP JUMPDEST PUSH0 PUSH0 REVERT JUMPDEST PUSH0 PUSH0 REVERT JUMPDEST PUSH0 DUP2 SWAP1 POP SWAP2 SWAP1 POP JUMP JUMPDEST PUSH2 0x176F DUP2 PUSH2 0x175D JUMP JUMPDEST DUP2 EQ PUSH2 0x1779 JUMPI PUSH0 PUSH0 REVERT JUMPDEST POP JUMP JUMPDEST PUSH0 DUP2 CALLDATALOAD SWAP1 POP PUSH2 0x178A DUP2 PUSH2 0x1766 JUMP JUMPDEST SWAP3 SWAP2 POP POP JUMP JUMPDEST PUSH0 PUSH1 0x20 DUP3 DUP5 SUB SLT ISZERO PUSH2 0x17A5 JUMPI PUSH2 0x17A4 PUSH2 0x1755 JUMP JUMPDEST JUMPDEST PUSH0 PUSH2 0x17B2 DUP5 DUP3 DUP6 ADD PUSH2 0x177C JUMP JUMPDEST SWAP2 POP POP SWAP3 SWAP2 POP POP JUMP JUMPDEST PUSH2 0x17C4 DUP2 PUSH2 0x175D JUMP JUMPDEST DUP3 MSTORE POP POP JUMP JUMPDEST PUSH0 PUSH1 0x20 DUP3 ADD SWAP1 POP PUSH2 0x17DD PUSH0 DUP4 ADD DUP5 PUSH2 0x17BB JUMP JUMPDEST SWAP3 SWAP2 POP POP JUMP JUMPDEST PUSH0 PUSH0 REVERT JUMPDEST PUSH0 PUSH0 REVERT JUMPDEST PUSH0 PUSH1 0x1F NOT PUSH1 0x1F DUP4 ADD AND SWAP1 POP SWAP2 SWAP1 POP JUMP JUMPDEST PUSH32 0x4E487B7100000000000000000000000000000000000000000000000000000000 PUSH0 MSTORE PUSH1 0x41 PUSH1 0x4 MSTORE PUSH1 0x24 PUSH0 REVERT JUMPDEST PUSH2 0x1831 DUP3 PUSH2 0x17EB JUMP JUMPDEST DUP2 ADD DUP2 DUP2 LT PUSH8 0xFFFFFFFFFFFFFFFF DUP3 GT OR ISZERO PUSH2 0x1850 JUMPI PUSH2 0x184F PUSH2 0x17FB JUMP JUMPDEST JUMPDEST DUP1 PUSH1 0x40 MSTORE POP POP POP JUMP JUMPDEST PUSH0 PUSH2 0x1862 PUSH2 0x174C JUMP JUMPDEST SWAP1 POP PUSH2 0x186E DUP3 DUP3 PUSH2 0x1828 JUMP JUMPDEST SWAP2 SWAP1 POP JUMP JUMPDEST PUSH0 PUSH8 0xFFFFFFFFFFFFFFFF DUP3 GT ISZERO PUSH2 0x188D JUMPI PUSH2 0x188C PUSH2 0x17FB JUMP JUMPDEST JUMPDEST PUSH2 0x1896 DUP3 PUSH2 0x17EB JUMP JUMPDEST SWAP1 POP PUSH1 0x20 DUP2 ADD SWAP1 POP SWAP2 SWAP1 POP JUMP JUMPDEST DUP3 DUP2 DUP4 CALLDATACOPY PUSH0 DUP4 DUP4 ADD MSTORE POP POP POP JUMP JUMPDEST PUSH0 PUSH2 0x18C3 PUSH2 0x18BE DUP5 PUSH2 0x1873 JUMP JUMPDEST PUSH2 0x1859 JUMP JUMPDEST SWAP1 POP DUP3 DUP2 MSTORE PUSH1 0x20 DUP2 ADD DUP5 DUP5 DUP5 ADD GT ISZERO PUSH2 0x18DF JUMPI PUSH2 0x18DE PUSH2 0x17E7 JUMP JUMPDEST JUMPDEST PUSH2 0x18EA DUP5 DUP3 DUP6 PUSH2 0x18A3 JUMP JUMPDEST POP SWAP4 SWAP3 POP POP POP JUMP JUMPDEST PUSH0 DUP3 PUSH1 0x1F DUP4 ADD SLT PUSH2 0x1906 JUMPI PUSH2 0x1905 PUSH2 0x17E3 JUMP JUMPDEST JUMPDEST DUP2 CALLDATALOAD PUSH2 0x1916 DUP5 DUP3 PUSH1 0x20 DUP7 ADD PUSH2 0x18B1 JUMP JUMPDEST SWAP2 POP POP SWAP3 SWAP2 POP POP JUMP JUMPDEST PUSH0 PUSH0 PUSH0 PUSH0 PUSH1 0x80 DUP6 DUP8 SUB SLT ISZERO PUSH2 0x1937 JUMPI PUSH2 0x1936 PUSH2 0x1755 JUMP JUMPDEST JUMPDEST PUSH0 DUP6 ADD CALLDATALOAD PUSH8 0xFFFFFFFFFFFFFFFF DUP2 GT ISZERO PUSH2 0x1954 JUMPI PUSH2 0x1953 PUSH2 0x1759 JUMP JUMPDEST JUMPDEST PUSH2 0x1960 DUP8 DUP3 DUP9 ADD PUSH2 0x18F2 JUMP JUMPDEST SWAP5 POP POP PUSH1 0x20 DUP6 ADD CALLDATALOAD PUSH8 0xFFFFFFFFFFFFFFFF DUP2 GT ISZERO PUSH2 0x1981 JUMPI PUSH2 0x1980 PUSH2 0x1759 JUMP JUMPDEST JUMPDEST PUSH2 0x198D DUP8 DUP3 DUP9 ADD PUSH2 0x18F2 JUMP JUMPDEST SWAP4 POP POP PUSH1 0x40 DUP6 ADD CALLDATALOAD PUSH8 0xFFFFFFFFFFFFFFFF DUP2 GT ISZERO PUSH2 0x19AE JUMPI PUSH2 0x19AD PUSH2 0x1759 JUMP JUMPDEST JUMPDEST PUSH2 0x19BA DUP8 DUP3 DUP9 ADD PUSH2 0x18F2 JUMP JUMPDEST SWAP3 POP POP PUSH1 0x60 PUSH2 0x19CB DUP8 DUP3 DUP9 ADD PUSH2 0x177C JUMP JUMPDEST SWAP2 POP POP SWAP3 SWAP6 SWAP2 SWAP5 POP SWAP3 POP JUMP JUMPDEST PUSH0 PUSH20 0xFFFFFFFFFFFFFFFFFFFFFFFFFFFFFFFFFFFFFFFF DUP3 AND SWAP1 POP SWAP2 SWAP1 POP JUMP JUMPDEST PUSH0 PUSH2 0x1A00 DUP3 PUSH2 0x19D7 JUMP JUMPDEST SWAP1 POP SWAP2 SWAP1 POP JUMP JUMPDEST PUSH2 0x1A10 DUP2 PUSH2 0x19F6 JUMP JUMPDEST DUP3 MSTORE POP POP JUMP JUMPDEST PUSH0 PUSH1 0x20 DUP3 ADD SWAP1 POP PUSH2 0x1A29 PUSH0 DUP4 ADD DUP5 PUSH2 0x1A07 JUMP JUMPDEST SWAP3 SWAP2 POP POP JUMP JUMPDEST PUSH0 DUP2 ISZERO ISZERO SWAP1 POP SWAP2 SWAP1 POP JUMP JUMPDEST PUSH2 0x1A43 DUP2 PUSH2 0x1A2F JUMP JUMPDEST DUP3 MSTORE POP POP JUMP JUMPDEST PUSH0 PUSH1 0x20 DUP3 ADD SWAP1 POP PUSH2 0x1A5C PUSH0 DUP4 ADD DUP5 PUSH2 0x1A3A JUMP JUMPDEST SWAP3 SWAP2 POP POP JUMP JUMPDEST PUSH0 DUP2 SWAP1 POP SWAP2 SWAP1 POP JUMP JUMPDEST PUSH0 PUSH2 0x1A85 PUSH2 0x1A80 PUSH2 0x1A7B DUP5 PUSH2 0x19D7 JUMP JUMPDEST PUSH2 0x1A62 JUMP JUMPDEST PUSH2 0x19D7 JUMP JUMPDEST SWAP1 POP SWAP2 SWAP1 POP JUMP JUMPDEST PUSH0 PUSH2 0x1A96 DUP3 PUSH2 0x1A6B JUMP JUMPDEST SWAP1 POP SWAP2 SWAP1 POP JUMP JUMPDEST PUSH0 PUSH2 0x1AA7 DUP3 PUSH2 0x1A8C JUMP JUMPDEST SWAP1 POP SWAP2 SWAP1 POP JUMP JUMPDEST PUSH2 0x1AB7 DUP2 PUSH2 0x1A9D JUMP JUMPDEST DUP3 MSTORE POP POP JUMP JUMPDEST PUSH0 PUSH1 0x20 DUP3 ADD SWAP1 POP PUSH2 0x1AD0 PUSH0 DUP4 ADD DUP5 PUSH2 0x1AAE JUMP JUMPDEST SWAP3 SWAP2 POP POP JUMP JUMPDEST PUSH0 DUP2 MLOAD SWAP1 POP SWAP2 SWAP1 POP JUMP JUMPDEST PUSH0 DUP3 DUP3 MSTORE PUSH1 0x20 DUP3 ADD SWAP1 POP SWAP3 SWAP2 POP POP JUMP JUMPDEST DUP3 DUP2 DUP4 MCOPY PUSH0 DUP4 DUP4 ADD MSTORE POP POP POP JUMP JUMPDEST PUSH0 PUSH2 0x1B08 DUP3 PUSH2 0x1AD6 JUMP JUMPDEST PUSH2 0x1B12 DUP2 DUP6 PUSH2 0x1AE0 JUMP JUMPDEST SWAP4 POP PUSH2 0x1B22 DUP2 DUP6 PUSH1 0x20 DUP7 ADD PUSH2 0x1AF0 JUMP JUMPDEST PUSH2 0x1B2B DUP2 PUSH2 0x17EB JUMP JUMPDEST DUP5 ADD SWAP2 POP POP SWAP3 SWAP2 POP POP JUMP JUMPDEST PUSH0 PUSH1 0xE0 DUP3 ADD SWAP1 POP PUSH2 0x1B49 PUSH0 DUP4 ADD DUP11 PUSH2 0x17BB JUMP JUMPDEST PUSH2 0x1B56 PUSH1 0x20 DUP4 ADD DUP10 PUSH2 0x1A07 JUMP JUMPDEST DUP2 DUP2 SUB PUSH1 0x40 DUP4 ADD MSTORE PUSH2 0x1B68 DUP2 DUP9 PUSH2 0x1AFE JUMP JUMPDEST SWAP1 POP DUP2 DUP2 SUB PUSH1 0x60 DUP4 ADD MSTORE PUSH2 0x1B7C DUP2 DUP8 PUSH2 0x1AFE JUMP JUMPDEST SWAP1 POP DUP2 DUP2 SUB PUSH1 0x80 DUP4 ADD MSTORE PUSH2 0x1B90 DUP2 DUP7 PUSH2 0x1AFE JUMP JUMPDEST SWAP1 POP PUSH2 0x1B9F PUSH1 0xA0 DUP4 ADD DUP6 PUSH2 0x17BB JUMP JUMPDEST PUSH2 0x1BAC PUSH1 0xC0 DUP4 ADD DUP5 PUSH2 0x1A3A JUMP JUMPDEST SWAP9 SWAP8 POP POP POP POP POP POP POP POP JUMP JUMPDEST PUSH32 0x496E76616C6964206C697374696E672049440000000000000000000000000000 PUSH0 DUP3 ADD MSTORE POP JUMP JUMPDEST PUSH0 PUSH2 0x1BEC PUSH1 0x12 DUP4 PUSH2 0x1AE0 JUMP JUMPDEST SWAP2 POP PUSH2 0x1BF7 DUP3 PUSH2 0x1BB8 JUMP JUMPDEST PUSH1 0x20 DUP3 ADD SWAP1 POP SWAP2 SWAP1 POP JUMP JUMPDEST PUSH0 PUSH1 0x20 DUP3 ADD SWAP1 POP DUP2 DUP2 SUB PUSH0 DUP4 ADD MSTORE PUSH2 0x1C19 DUP2 PUSH2 0x1BE0 JUMP JUMPDEST SWAP1 POP SWAP2 SWAP1 POP JUMP JUMPDEST PUSH32 0x4974656D20616C726561647920736F6C64000000000000000000000000000000 PUSH0 DUP3 ADD MSTORE POP JUMP JUMPDEST PUSH0 PUSH2 0x1C54 PUSH1 0x11 DUP4 PUSH2 0x1AE0 JUMP JUMPDEST SWAP2 POP PUSH2 0x1C5F DUP3 PUSH2 0x1C20 JUMP JUMPDEST PUSH1 0x20 DUP3 ADD SWAP1 POP SWAP2 SWAP1 POP JUMP JUMPDEST PUSH0 PUSH1 0x20 DUP3 ADD SWAP1 POP DUP2 DUP2 SUB PUSH0 DUP4 ADD MSTORE PUSH2 0x1C81 DUP2 PUSH2 0x1C48 JUMP JUMPDEST SWAP1 POP SWAP2 SWAP1 POP JUMP JUMPDEST PUSH0 PUSH1 0x40 DUP3 ADD SWAP1 POP PUSH2 0x1C9B PUSH0 DUP4 ADD DUP6 PUSH2 0x1A07 JUMP JUMPDEST PUSH2 0x1CA8 PUSH1 0x20 DUP4 ADD DUP5 PUSH2 0x1A07 JUMP JUMPDEST SWAP4 SWAP3 POP POP POP JUMP JUMPDEST PUSH0 DUP2 MLOAD SWAP1 POP PUSH2 0x1CBD DUP2 PUSH2 0x1766 JUMP JUMPDEST SWAP3 SWAP2 POP POP JUMP JUMPDEST PUSH0 PUSH1 0x20 DUP3 DUP5 SUB SLT ISZERO PUSH2 0x1CD8 JUMPI PUSH2 0x1CD7 PUSH2 0x1755 JUMP JUMPDEST JUMPDEST PUSH0 PUSH2 0x1CE5 DUP5 DUP3 DUP6 ADD PUSH2 0x1CAF JUMP JUMPDEST SWAP2 POP POP SWAP3 SWAP2 POP POP JUMP JUMPDEST PUSH32 0x4E6F7420656E6F75676820616C6C6F77616E6365000000000000000000000000 PUSH0 DUP3 ADD MSTORE POP JUMP JUMPDEST PUSH0 PUSH2 0x1D22 PUSH1 0x14 DUP4 PUSH2 0x1AE0 JUMP JUMPDEST SWAP2 POP PUSH2 0x1D2D DUP3 PUSH2 0x1CEE JUMP JUMPDEST PUSH1 0x20 DUP3 ADD SWAP1 POP SWAP2 SWAP1 POP JUMP JUMPDEST PUSH0 PUSH1 0x20 DUP3 ADD SWAP1 POP DUP2 DUP2 SUB PUSH0 DUP4 ADD MSTORE PUSH2 0x1D4F DUP2 PUSH2 0x1D16 JUMP JUMPDEST SWAP1 POP SWAP2 SWAP1 POP JUMP JUMPDEST PUSH32 0x4E487B7100000000000000000000000000000000000000000000000000000000 PUSH0 MSTORE PUSH1 0x11 PUSH1 0x4 MSTORE PUSH1 0x24 PUSH0 REVERT JUMPDEST PUSH0 PUSH2 0x1D8D DUP3 PUSH2 0x175D JUMP JUMPDEST SWAP2 POP PUSH2 0x1D98 DUP4 PUSH2 0x175D JUMP JUMPDEST SWAP3 POP DUP3 DUP3 MUL PUSH2 0x1DA6 DUP2 PUSH2 0x175D JUMP JUMPDEST SWAP2 POP DUP3 DUP3 DIV DUP5 EQ DUP4 ISZERO OR PUSH2 0x1DBD JUMPI PUSH2 0x1DBC PUSH2 0x1D56 JUMP JUMPDEST JUMPDEST POP SWAP3 SWAP2 POP POP JUMP JUMPDEST PUSH32 0x4E487B7100000000000000000000000000000000000000000000000000000000 PUSH0 MSTORE PUSH1 0x12 PUSH1 0x4 MSTORE PUSH1 0x24 PUSH0 REVERT JUMPDEST PUSH0 PUSH2 0x1DFB DUP3 PUSH2 0x175D JUMP JUMPDEST SWAP2 POP PUSH2 0x1E06 DUP4 PUSH2 0x175D JUMP JUMPDEST SWAP3 POP DUP3 PUSH2 0x1E16 JUMPI PUSH2 0x1E15 PUSH2 0x1DC4 JUMP JUMPDEST JUMPDEST DUP3 DUP3 DIV SWAP1 POP SWAP3 SWAP2 POP POP JUMP JUMPDEST PUSH0 PUSH2 0x1E2B DUP3 PUSH2 0x175D JUMP JUMPDEST SWAP2 POP PUSH2 0x1E36 DUP4 PUSH2 0x175D JUMP JUMPDEST SWAP3 POP DUP3 DUP3 SUB SWAP1 POP DUP2 DUP2 GT ISZERO PUSH2 0x1E4E JUMPI PUSH2 0x1E4D PUSH2 0x1D56 JUMP JUMPDEST JUMPDEST SWAP3 SWAP2 POP POP JUMP JUMPDEST PUSH0 PUSH1 0x60 DUP3 ADD SWAP1 POP PUSH2 0x1E67 PUSH0 DUP4 ADD DUP7 PUSH2 0x1A07 JUMP JUMPDEST PUSH2 0x1E74 PUSH1 0x20 DUP4 ADD DUP6 PUSH2 0x1A07 JUMP JUMPDEST PUSH2 0x1E81 PUSH1 0x40 DUP4 ADD DUP5 PUSH2 0x17BB JUMP JUMPDEST SWAP5 SWAP4 POP POP POP POP JUMP JUMPDEST PUSH2 0x1E92 DUP2 PUSH2 0x1A2F JUMP JUMPDEST DUP2 EQ PUSH2 0x1E9C JUMPI PUSH0 PUSH0 REVERT JUMPDEST POP JUMP JUMPDEST PUSH0 DUP2 MLOAD SWAP1 POP PUSH2 0x1EAD DUP2 PUSH2 0x1E89 JUMP JUMPDEST SWAP3 SWAP2 POP POP JUMP JUMPDEST PUSH0 PUSH1 0x20 DUP3 DUP5 SUB SLT ISZERO PUSH2 0x1EC8 JUMPI PUSH2 0x1EC7 PUSH2 0x1755 JUMP JUMPDEST JUMPDEST PUSH0 PUSH2 0x1ED5 DUP5 DUP3 DUP6 ADD PUSH2 0x1E9F JUMP JUMPDEST SWAP2 POP POP SWAP3 SWAP2 POP POP JUMP JUMPDEST PUSH32 0x5472616E73666572206661696C65640000000000000000000000000000000000 PUSH0 DUP3 ADD MSTORE POP JUMP JUMPDEST PUSH0 PUSH2 0x1F12 PUSH1 0xF DUP4 PUSH2 0x1AE0 JUMP JUMPDEST SWAP2 POP PUSH2 0x1F1D DUP3 PUSH2 0x1EDE JUMP JUMPDEST PUSH1 0x20 DUP3 ADD SWAP1 POP SWAP2 SWAP1 POP JUMP JUMPDEST PUSH0 PUSH1 0x20 DUP3 ADD SWAP1 POP DUP2 DUP2 SUB PUSH0 DUP4 ADD MSTORE PUSH2 0x1F3F DUP2 PUSH2 0x1F06 JUMP JUMPDEST SWAP1 POP SWAP2 SWAP1 POP JUMP JUMPDEST PUSH0 PUSH1 0x40 DUP3 ADD SWAP1 POP PUSH2 0x1F59 PUSH0 DUP4 ADD DUP6 PUSH2 0x1A07 JUMP JUMPDEST PUSH2 0x1F66 PUSH1 0x20 DUP4 ADD DUP5 PUSH2 0x17BB JUMP JUMPDEST SWAP4 SWAP3 POP POP POP JUMP JUMPDEST PUSH32 0x436F6D6D697373696F6E207472616E73666572206661696C6564000000000000 PUSH0 DUP3 ADD MSTORE POP JUMP JUMPDEST PUSH0 PUSH2 0x1FA1 PUSH1 0x1A DUP4 PUSH2 0x1AE0 JUMP JUMPDEST SWAP2 POP PUSH2 0x1FAC DUP3 PUSH2 0x1F6D JUMP JUMPDEST PUSH1 0x20 DUP3 ADD SWAP1 POP SWAP2 SWAP1 POP JUMP JUMPDEST PUSH0 PUSH1 0x20 DUP3 ADD SWAP1 POP DUP2 DUP2 SUB PUSH0 DUP4 ADD MSTORE PUSH2 0x1FCE DUP2 PUSH2 0x1F95 JUMP JUMPDEST SWAP1 POP SWAP2 SWAP1 POP JUMP JUMPDEST PUSH32 0x53656C6C6572207061796D656E74206661696C65640000000000000000000000 PUSH0 DUP3 ADD MSTORE POP JUMP JUMPDEST PUSH0 PUSH2 0x2009 PUSH1 0x15 DUP4 PUSH2 0x1AE0 JUMP JUMPDEST SWAP2 POP PUSH2 0x2014 DUP3 PUSH2 0x1FD5 JUMP JUMPDEST PUSH1 0x20 DUP3 ADD SWAP1 POP SWAP2 SWAP1 POP JUMP JUMPDEST PUSH0 PUSH1 0x20 DUP3 ADD SWAP1 POP DUP2 DUP2 SUB PUSH0 DUP4 ADD MSTORE PUSH2 0x2036 DUP2 PUSH2 0x1FFD JUMP JUMPDEST SWAP1 POP SWAP2 SWAP1 POP JUMP JUMPDEST PUSH32 0x4F6E6C79206F776E65722063616E206368616E676520636F6D6D697373696F6E PUSH0 DUP3 ADD MSTORE POP JUMP JUMPDEST PUSH0 PUSH2 0x2071 PUSH1 0x20 DUP4 PUSH2 0x1AE0 JUMP JUMPDEST SWAP2 POP PUSH2 0x207C DUP3 PUSH2 0x203D JUMP JUMPDEST PUSH1 0x20 DUP3 ADD SWAP1 POP SWAP2 SWAP1 POP JUMP JUMPDEST PUSH0 PUSH1 0x20 DUP3 ADD SWAP1 POP DUP2 DUP2 SUB PUSH0 DUP4 ADD MSTORE PUSH2 0x209E DUP2 PUSH2 0x2065 JUMP JUMPDEST SWAP1 POP SWAP2 SWAP1 POP JUMP JUMPDEST PUSH32 0x436F6D6D697373696F6E2063616E6E6F74206578636565642031303025000000 PUSH0 DUP3 ADD MSTORE POP JUMP JUMPDEST PUSH0 PUSH2 0x20D9 PUSH1 0x1D DUP4 PUSH2 0x1AE0 JUMP JUMPDEST SWAP2 POP PUSH2 0x20E4 DUP3 PUSH2 0x20A5 JUMP JUMPDEST PUSH1 0x20 DUP3 ADD SWAP1 POP SWAP2 SWAP1 POP JUMP JUMPDEST PUSH0 PUSH1 0x20 DUP3 ADD SWAP1 POP DUP2 DUP2 SUB PUSH0 DUP4 ADD MSTORE PUSH2 0x2106 DUP2 PUSH2 0x20CD JUMP JUMPDEST SWAP1 POP SWAP2 SWAP1 POP JUMP JUMPDEST PUSH32 0x5072696365206D7573742062652067726561746572207468616E203000000000 PUSH0 DUP3 ADD MSTORE POP JUMP JUMPDEST PUSH0 PUSH2 0x2141 PUSH1 0x1C DUP4 PUSH2 0x1AE0 JUMP JUMPDEST SWAP2 POP PUSH2 0x214C DUP3 PUSH2 0x210D JUMP JUMPDEST PUSH1 0x20 DUP3 ADD SWAP1 POP SWAP2 SWAP1 POP JUMP JUMPDEST PUSH0 PUSH1 0x20 DUP3 ADD SWAP1 POP DUP2 DUP2 SUB PUSH0 DUP4 ADD MSTORE PUSH2 0x216E DUP2 PUSH2 0x2135 JUMP JUMPDEST SWAP1 POP SWAP2 SWAP1 POP JUMP JUMPDEST PUSH32 0x5469746C652063616E6E6F7420626520656D7074790000000000000000000000 PUSH0 DUP3 ADD MSTORE POP JUMP JUMPDEST PUSH0 PUSH2 0x21A9 PUSH1 0x15 DUP4 PUSH2 0x1AE0 JUMP JUMPDEST SWAP2 POP PUSH2 0x21B4 DUP3 PUSH2 0x2175 JUMP JUMPDEST PUSH1 0x20 DUP3 ADD SWAP1 POP SWAP2 SWAP1 POP JUMP JUMPDEST PUSH0 PUSH1 0x20 DUP3 ADD SWAP1 POP DUP2 DUP2 SUB PUSH0 DUP4 ADD MSTORE PUSH2 0x21D6 DUP2 PUSH2 0x219D JUMP JUMPDEST SWAP1 POP SWAP2 SWAP1 POP JUMP JUMPDEST PUSH32 0x4465736372697074696F6E2063616E6E6F7420626520656D7074790000000000 PUSH0 DUP3 ADD MSTORE POP JUMP JUMPDEST PUSH0 PUSH2 0x2211 PUSH1 0x1B DUP4 PUSH2 0x1AE0 JUMP JUMPDEST SWAP2 POP PUSH2 0x221C DUP3 PUSH2 0x21DD JUMP JUMPDEST PUSH1 0x20 DUP3 ADD SWAP1 POP SWAP2 SWAP1 POP JUMP JUMPDEST PUSH0 PUSH1 0x20 DUP3 ADD SWAP1 POP DUP2 DUP2 SUB PUSH0 DUP4 ADD MSTORE PUSH2 0x223E DUP2 PUSH2 0x2205 JUMP JUMPDEST SWAP1 POP SWAP2 SWAP1 POP JUMP JUMPDEST PUSH32 0x507269636520697320746F6F2068696768000000000000000000000000000000 PUSH0 DUP3 ADD MSTORE POP JUMP JUMPDEST PUSH0 PUSH2 0x2279 PUSH1 0x11 DUP4 PUSH2 0x1AE0 JUMP JUMPDEST SWAP2 POP PUSH2 0x2284 DUP3 PUSH2 0x2245 JUMP JUMPDEST PUSH1 0x20 DUP3 ADD SWAP1 POP SWAP2 SWAP1 POP JUMP JUMPDEST PUSH0 PUSH1 0x20 DUP3 ADD SWAP1 POP DUP2 DUP2 SUB PUSH0 DUP4 ADD MSTORE PUSH2 0x22A6 DUP2 PUSH2 0x226D JUMP JUMPDEST SWAP1 POP SWAP2 SWAP1 POP JUMP JUMPDEST PUSH0 PUSH2 0x22B7 DUP3 PUSH2 0x175D JUMP JUMPDEST SWAP2 POP PUSH32 0xFFFFFFFFFFFFFFFFFFFFFFFFFFFFFFFFFFFFFFFFFFFFFFFFFFFFFFFFFFFFFFFF DUP3 SUB PUSH2 0x22E9 JUMPI PUSH2 0x22E8 PUSH2 0x1D56 JUMP JUMPDEST JUMPDEST PUSH1 0x1 DUP3 ADD SWAP1 POP SWAP2 SWAP1 POP JUMP JUMPDEST PUSH32 0x4E487B7100000000000000000000000000000000000000000000000000000000 PUSH0 MSTORE PUSH1 0x22 PUSH1 0x4 MSTORE PUSH1 0x24 PUSH0 REVERT JUMPDEST PUSH0 PUSH1 0x2 DUP3 DIV SWAP1 POP PUSH1 0x1 DUP3 AND DUP1 PUSH2 0x2338 JUMPI PUSH1 0x7F DUP3 AND SWAP2 POP JUMPDEST PUSH1 0x20 DUP3 LT DUP2 SUB PUSH2 0x234B JUMPI PUSH2 0x234A PUSH2 0x22F4 JUMP JUMPDEST JUMPDEST POP SWAP2 SWAP1 POP JUMP JUMPDEST PUSH0 DUP2 SWAP1 POP DUP2 PUSH0 MSTORE PUSH1 0x20 PUSH0 KECCAK256 SWAP1 POP SWAP2 SWAP1 POP JUMP JUMPDEST PUSH0 PUSH1 0x20 PUSH1 0x1F DUP4 ADD DIV SWAP1 POP SWAP2 SWAP1 POP JUMP JUMPDEST PUSH0 DUP3 DUP3 SHL SWAP1 POP SWAP3 SWAP2 POP POP JUMP JUMPDEST PUSH0 PUSH1 0x8 DUP4 MUL PUSH2 0x23AD PUSH32 0xFFFFFFFFFFFFFFFFFFFFFFFFFFFFFFFFFFFFFFFFFFFFFFFFFFFFFFFFFFFFFFFF DUP3 PUSH2 0x2372 JUMP JUMPDEST PUSH2 0x23B7 DUP7 DUP4 PUSH2 0x2372 JUMP JUMPDEST SWAP6 POP DUP1 NOT DUP5 AND SWAP4 POP DUP1 DUP7 AND DUP5 OR SWAP3 POP POP POP SWAP4 SWAP3 POP POP POP JUMP JUMPDEST PUSH0 PUSH2 0x23E9 PUSH2 0x23E4 PUSH2 0x23DF DUP5 PUSH2 0x175D JUMP JUMPDEST PUSH2 0x1A62 JUMP JUMPDEST PUSH2 0x175D JUMP JUMPDEST SWAP1 POP SWAP2 SWAP1 POP JUMP JUMPDEST PUSH0 DUP2 SWAP1 POP SWAP2 SWAP1 POP JUMP JUMPDEST PUSH2 0x2402 DUP4 PUSH2 0x23CF JUMP JUMPDEST PUSH2 0x2416 PUSH2 0x240E DUP3 PUSH2 0x23F0 JUMP JUMPDEST DUP5 DUP5 SLOAD PUSH2 0x237E JUMP JUMPDEST DUP3 SSTORE POP POP POP POP JUMP JUMPDEST PUSH0 PUSH0 SWAP1 POP SWAP1 JUMP JUMPDEST PUSH2 0x242D PUSH2 0x241E JUMP JUMPDEST PUSH2 0x2438 DUP2 DUP5 DUP5 PUSH2 0x23F9 JUMP JUMPDEST POP POP POP JUMP JUMPDEST JUMPDEST DUP2 DUP2 LT ISZERO PUSH2 0x245B JUMPI PUSH2 0x2450 PUSH0 DUP3 PUSH2 0x2425 JUMP JUMPDEST PUSH1 0x1 DUP2 ADD SWAP1 POP PUSH2 0x243E JUMP JUMPDEST POP POP JUMP JUMPDEST PUSH1 0x1F DUP3 GT ISZERO PUSH2 0x24A0 JUMPI PUSH2 0x2471 DUP2 PUSH2 0x2351 JUMP JUMPDEST PUSH2 0x247A DUP5 PUSH2 0x2363 JUMP JUMPDEST DUP2 ADD PUSH1 0x20 DUP6 LT ISZERO PUSH2 0x2489 JUMPI DUP2 SWAP1 POP JUMPDEST PUSH2 0x249D PUSH2 0x2495 DUP6 PUSH2 0x2363 JUMP JUMPDEST DUP4 ADD DUP3 PUSH2 0x243D JUMP JUMPDEST POP POP JUMPDEST POP POP POP JUMP JUMPDEST PUSH0 DUP3 DUP3 SHR SWAP1 POP SWAP3 SWAP2 POP POP JUMP JUMPDEST PUSH0 PUSH2 0x24C0 PUSH0 NOT DUP5 PUSH1 0x8 MUL PUSH2 0x24A5 JUMP JUMPDEST NOT DUP1 DUP4 AND SWAP2 POP POP SWAP3 SWAP2 POP POP JUMP JUMPDEST PUSH0 PUSH2 0x24D8 DUP4 DUP4 PUSH2 0x24B1 JUMP JUMPDEST SWAP2 POP DUP3 PUSH1 0x2 MUL DUP3 OR SWAP1 POP SWAP3 SWAP2 POP POP JUMP JUMPDEST PUSH2 0x24F1 DUP3 PUSH2 0x1AD6 JUMP JUMPDEST PUSH8 0xFFFFFFFFFFFFFFFF DUP2 GT ISZERO PUSH2 0x250A JUMPI PUSH2 0x2509 PUSH2 0x17FB JUMP JUMPDEST JUMPDEST PUSH2 0x2514 DUP3 SLOAD PUSH2 0x2321 JUMP JUMPDEST PUSH2 0x251F DUP3 DUP3 DUP6 PUSH2 0x245F JUMP JUMPDEST PUSH0 PUSH1 0x20 SWAP1 POP PUSH1 0x1F DUP4 GT PUSH1 0x1 DUP2 EQ PUSH2 0x2550 JUMPI PUSH0 DUP5 ISZERO PUSH2 0x253E JUMPI DUP3 DUP8 ADD MLOAD SWAP1 POP JUMPDEST PUSH2 0x2548 DUP6 DUP3 PUSH2 0x24CD JUMP JUMPDEST DUP7 SSTORE POP PUSH2 0x25AF JUMP JUMPDEST PUSH1 0x1F NOT DUP5 AND PUSH2 0x255E DUP7 PUSH2 0x2351 JUMP JUMPDEST PUSH0 JUMPDEST DUP3 DUP2 LT ISZERO PUSH2 0x2585 JUMPI DUP5 DUP10 ADD MLOAD DUP3 SSTORE PUSH1 0x1 DUP3 ADD SWAP2 POP PUSH1 0x20 DUP6 ADD SWAP5 POP PUSH1 0x20 DUP2 ADD SWAP1 POP PUSH2 0x2560 JUMP JUMPDEST DUP7 DUP4 LT ISZERO PUSH2 0x25A2 JUMPI DUP5 DUP10 ADD MLOAD PUSH2 0x259E PUSH1 0x1F DUP10 AND DUP3 PUSH2 0x24B1 JUMP JUMPDEST DUP4 SSTORE POP JUMPDEST PUSH1 0x1 PUSH1 0x2 DUP9 MUL ADD DUP9 SSTORE POP POP POP JUMPDEST POP POP POP POP POP POP JUMP JUMPDEST PUSH0 PUSH1 0x40 DUP3 ADD SWAP1 POP DUP2 DUP2 SUB PUSH0 DUP4 ADD MSTORE PUSH2 0x25CF DUP2 DUP6 PUSH2 0x1AFE JUMP JUMPDEST SWAP1 POP PUSH2 0x25DE PUSH1 0x20 DUP4 ADD DUP5 PUSH2 0x17BB JUMP JUMPDEST SWAP4 SWAP3 POP POP POP JUMP JUMPDEST PUSH32 0x4F6E6C792062757965722063616E20636F6E6669726D20707572636861736500 PUSH0 DUP3 ADD MSTORE POP JUMP JUMPDEST PUSH0 PUSH2 0x2619 PUSH1 0x1F DUP4 PUSH2 0x1AE0 JUMP JUMPDEST SWAP2 POP PUSH2 0x2624 DUP3 PUSH2 0x25E5 JUMP JUMPDEST PUSH1 0x20 DUP3 ADD SWAP1 POP SWAP2 SWAP1 POP JUMP JUMPDEST PUSH0 PUSH1 0x20 DUP3 ADD SWAP1 POP DUP2 DUP2 SUB PUSH0 DUP4 ADD MSTORE PUSH2 0x2646 DUP2 PUSH2 0x260D JUMP JUMPDEST SWAP1 POP SWAP2 SWAP1 POP JUMP JUMPDEST PUSH32 0x4E6F2066756E647320696E20657363726F770000000000000000000000000000 PUSH0 DUP3 ADD MSTORE POP JUMP JUMPDEST PUSH0 PUSH2 0x2681 PUSH1 0x12 DUP4 PUSH2 0x1AE0 JUMP JUMPDEST SWAP2 POP PUSH2 0x268C DUP3 PUSH2 0x264D JUMP JUMPDEST PUSH1 0x20 DUP3 ADD SWAP1 POP SWAP2 SWAP1 POP JUMP JUMPDEST PUSH0 PUSH1 0x20 DUP3 ADD SWAP1 POP DUP2 DUP2 SUB PUSH0 DUP4 ADD MSTORE PUSH2 0x26AE DUP2 PUSH2 0x2675 JUMP JUMPDEST SWAP1 POP SWAP2 SWAP1 POP JUMP JUMPDEST PUSH32 0x4C697374696E67206973206E6F7420736F6C6420796574000000000000000000 PUSH0 DUP3 ADD MSTORE POP JUMP JUMPDEST PUSH0 PUSH2 0x26E9 PUSH1 0x17 DUP4 PUSH2 0x1AE0 JUMP JUMPDEST SWAP2 POP PUSH2 0x26F4 DUP3 PUSH2 0x26B5 JUMP JUMPDEST PUSH1 0x20 DUP3 ADD SWAP1 POP SWAP2 SWAP1 POP JUMP JUMPDEST PUSH0 PUSH1 0x20 DUP3 ADD SWAP1 POP DUP2 DUP2 SUB PUSH0 DUP4 ADD MSTORE PUSH2 0x2716 DUP2 PUSH2 0x26DD JUMP JUMPDEST SWAP1 POP SWAP2 SWAP1 POP JUMP JUMPDEST PUSH32 0x55534454207472616E7366657220746F2073656C6C6572206661696C65640000 PUSH0 DUP3 ADD MSTORE POP JUMP JUMPDEST PUSH0 PUSH2 0x2751 PUSH1 0x1E DUP4 PUSH2 0x1AE0 JUMP JUMPDEST SWAP2 POP PUSH2 0x275C DUP3 PUSH2 0x271D JUMP JUMPDEST PUSH1 0x20 DUP3 ADD SWAP1 POP SWAP2 SWAP1 POP JUMP JUMPDEST PUSH0 PUSH1 0x20 DUP3 ADD SWAP1 POP DUP2 DUP2 SUB PUSH0 DUP4 ADD MSTORE PUSH2 0x277E DUP2 PUSH2 0x2745 JUMP JUMPDEST SWAP1 POP SWAP2 SWAP1 POP JUMP JUMPDEST PUSH32 0x4F6E6C79207468652062757965722063616E2063616E63656C00000000000000 PUSH0 DUP3 ADD MSTORE POP JUMP JUMPDEST PUSH0 PUSH2 0x27B9 PUSH1 0x19 DUP4 PUSH2 0x1AE0 JUMP JUMPDEST SWAP2 POP PUSH2 0x27C4 DUP3 PUSH2 0x2785 JUMP JUMPDEST PUSH1 0x20 DUP3 ADD SWAP1 POP SWAP2 SWAP1 POP JUMP JUMPDEST PUSH0 PUSH1 0x20 DUP3 ADD SWAP1 POP DUP2 DUP2 SUB PUSH0 DUP4 ADD MSTORE PUSH2 0x27E6 DUP2 PUSH2 0x27AD JUMP JUMPDEST SWAP1 POP SWAP2 SWAP1 POP JUMP JUMPDEST PUSH32 0x43616E6E6F742063616E63656C2C206974656D20616C726561647920736F6C64 PUSH0 DUP3 ADD MSTORE POP JUMP JUMPDEST PUSH0 PUSH2 0x2821 PUSH1 0x20 DUP4 PUSH2 0x1AE0 JUMP JUMPDEST SWAP2 POP PUSH2 0x282C DUP3 PUSH2 0x27ED JUMP JUMPDEST PUSH1 0x20 DUP3 ADD SWAP1 POP SWAP2 SWAP1 POP JUMP JUMPDEST PUSH0 PUSH1 0x20 DUP3 ADD SWAP1 POP DUP2 DUP2 SUB PUSH0 DUP4 ADD MSTORE PUSH2 0x284E DUP2 PUSH2 0x2815 JUMP JUMPDEST SWAP1 POP SWAP2 SWAP1 POP JUMP JUMPDEST PUSH32 0x55534454207472616E7366657220746F206275796572206661696C6564000000 PUSH0 DUP3 ADD MSTORE POP JUMP JUMPDEST PUSH0 PUSH2 0x2889 PUSH1 0x1D DUP4 PUSH2 0x1AE0 JUMP JUMPDEST SWAP2 POP PUSH2 0x2894 DUP3 PUSH2 0x2855 JUMP JUMPDEST PUSH1 0x20 DUP3 ADD SWAP1 POP SWAP2 SWAP1 POP JUMP JUMPDEST PUSH0 PUSH1 0x20 DUP3 ADD SWAP1 POP DUP2 DUP2 SUB PUSH0 DUP4 ADD MSTORE PUSH2 0x28B6 DUP2 PUSH2 0x287D JUMP JUMPDEST SWAP1 POP SWAP2 SWAP1 POP JUMP JUMPDEST PUSH32 0x4F6E6C7920746865206F776E65722063616E20706572666F726D207468697320 PUSH0 DUP3 ADD MSTORE PUSH32 0x616374696F6E0000000000000000000000000000000000000000000000000000 PUSH1 0x20 DUP3 ADD MSTORE POP JUMP JUMPDEST PUSH0 PUSH2 0x2917 PUSH1 0x26 DUP4 PUSH2 0x1AE0 JUMP JUMPDEST SWAP2 POP PUSH2 0x2922 DUP3 PUSH2 0x28BD JUMP JUMPDEST PUSH1 0x40 DUP3 ADD SWAP1 POP SWAP2 SWAP1 POP JUMP JUMPDEST PUSH0 PUSH1 0x20 DUP3 ADD SWAP1 POP DUP2 DUP2 SUB PUSH0 DUP4 ADD MSTORE PUSH2 0x2944 DUP2 PUSH2 0x290B JUMP JUMPDEST SWAP1 POP SWAP2 SWAP1 POP JUMP JUMPDEST PUSH32 0x4E6F20746F6B656E7320746F2077697468647261770000000000000000000000 PUSH0 DUP3 ADD MSTORE POP JUMP JUMPDEST PUSH0 PUSH2 0x297F PUSH1 0x15 DUP4 PUSH2 0x1AE0 JUMP JUMPDEST SWAP2 POP PUSH2 0x298A DUP3 PUSH2 0x294B JUMP JUMPDEST PUSH1 0x20 DUP3 ADD SWAP1 POP SWAP2 SWAP1 POP JUMP JUMPDEST PUSH0 PUSH1 0x20 DUP3 ADD SWAP1 POP DUP2 DUP2 SUB PUSH0 DUP4 ADD MSTORE PUSH2 0x29AC DUP2 PUSH2 0x2973 JUMP JUMPDEST SWAP1 POP SWAP2 SWAP1 POP JUMP JUMPDEST PUSH32 0x5769746864726177206661696C65640000000000000000000000000000000000 PUSH0 DUP3 ADD MSTORE POP JUMP JUMPDEST PUSH0 PUSH2 0x29E7 PUSH1 0xF DUP4 PUSH2 0x1AE0 JUMP JUMPDEST SWAP2 POP PUSH2 0x29F2 DUP3 PUSH2 0x29B3 JUMP JUMPDEST PUSH1 0x20 DUP3 ADD SWAP1 POP SWAP2 SWAP1 POP JUMP JUMPDEST PUSH0 PUSH1 0x20 DUP3 ADD SWAP1 POP DUP2 DUP2 SUB PUSH0 DUP4 ADD MSTORE PUSH2 0x2A14 DUP2 PUSH2 0x29DB JUMP JUMPDEST SWAP1 POP SWAP2 SWAP1 POP JUMP INVALID LOG2 PUSH5 0x6970667358 0x22 SLT KECCAK256 DUP11 0x26 0xDD 0xBC PUSH22 0xE510A8A85C441D958A29061122895B8D37932F90B680 PUSH8 0xD18E9E5E64736F6C PUSH4 0x4300081C STOP CALLER "
				},
				"gasEstimates": {
					"creation": {
						"codeDepositCost": "2166600",
						"executionCost": "infinite",
						"totalCost": "infinite"
					},
					"external": {
						"cancelPurchase(uint256)": "infinite",
						"commissionPercent()": "2448",
						"confirmPurchase(uint256)": "infinite",
						"createListing(string,string,string,uint256)": "infinite",
						"escrowAmount(uint256)": "infinite",
						"escrowBuyer(uint256)": "2916",
						"listingCount()": "2447",
						"listings(uint256)": "infinite",
						"orders(uint256)": "2875",
						"owner()": "2552",
						"purchaseListing(uint256)": "infinite",
						"setCommissionPercent(uint256)": "24777",
						"totalOrders()": "2471",
						"usdtToken()": "infinite",
						"withdrawToken()": "infinite"
					}
				},
				"methodIdentifiers": {
					"cancelPurchase(uint256)": "c3634ddc",
					"commissionPercent()": "77d3550b",
					"confirmPurchase(uint256)": "4d24e902",
					"createListing(string,string,string,uint256)": "451d4107",
					"escrowAmount(uint256)": "5d19e56c",
					"escrowBuyer(uint256)": "6c5d4bec",
					"listingCount()": "a9b07c26",
					"listings(uint256)": "de74e57b",
					"orders(uint256)": "a85c38ef",
					"owner()": "8da5cb5b",
					"purchaseListing(uint256)": "169d5a7d",
					"setCommissionPercent(uint256)": "404a9ab8",
					"totalOrders()": "1d834409",
					"usdtToken()": "a98ad46c",
					"withdrawToken()": "ca628c78"
				}
			},
			"storageLayout": {
				"storage": [
					{
						"astId": 100,
						"contract": "contracts/Orders.sol:Marketplace",
						"label": "owner",
						"offset": 0,
						"slot": "0",
						"type": "t_address"
					},
					{
						"astId": 102,
						"contract": "contracts/Orders.sol:Marketplace",
						"label": "listingCount",
						"offset": 0,
						"slot": "1",
						"type": "t_uint256"
					},
					{
						"astId": 104,
						"contract": "contracts/Orders.sol:Marketplace",
						"label": "totalOrders",
						"offset": 0,
						"slot": "2",
						"type": "t_uint256"
					},
					{
						"astId": 106,
						"contract": "contracts/Orders.sol:Marketplace",
						"label": "commissionPercent",
						"offset": 0,
						"slot": "3",
						"type": "t_uint256"
					},
					{
						"astId": 111,
						"contract": "contracts/Orders.sol:Marketplace",
						"label": "listings",
						"offset": 0,
						"slot": "4",
						"type": "t_mapping(t_uint256,t_struct(Listing)95_storage)"
					},
					{
						"astId": 116,
						"contract": "contracts/Orders.sol:Marketplace",
						"label": "orders",
						"offset": 0,
						"slot": "5",
						"type": "t_mapping(t_uint256,t_struct(Order)98_storage)"
					},
					{
						"astId": 119,
						"contract": "contracts/Orders.sol:Marketplace",
						"label": "usdtToken",
						"offset": 0,
						"slot": "6",
						"type": "t_contract(IERC20)77"
					},
					{
						"astId": 123,
						"contract": "contracts/Orders.sol:Marketplace",
						"label": "escrowBuyer",
						"offset": 0,
						"slot": "7",
						"type": "t_mapping(t_uint256,t_address)"
					},
					{
						"astId": 127,
						"contract": "contracts/Orders.sol:Marketplace",
						"label": "escrowAmount",
						"offset": 0,
						"slot": "8",
						"type": "t_mapping(t_uint256,t_uint256)"
					}
				],
				"types": {
					"t_address": {
						"encoding": "inplace",
						"label": "address",
						"numberOfBytes": "20"
					},
					"t_bool": {
						"encoding": "inplace",
						"label": "bool",
						"numberOfBytes": "1"
					},
					"t_contract(IERC20)77": {
						"encoding": "inplace",
						"label": "contract IERC20",
						"numberOfBytes": "20"
					},
					"t_mapping(t_uint256,t_address)": {
						"encoding": "mapping",
						"key": "t_uint256",
						"label": "mapping(uint256 => address)",
						"numberOfBytes": "32",
						"value": "t_address"
					},
					"t_mapping(t_uint256,t_struct(Listing)95_storage)": {
						"encoding": "mapping",
						"key": "t_uint256",
						"label": "mapping(uint256 => struct Marketplace.Listing)",
						"numberOfBytes": "32",
						"value": "t_struct(Listing)95_storage"
					},
					"t_mapping(t_uint256,t_struct(Order)98_storage)": {
						"encoding": "mapping",
						"key": "t_uint256",
						"label": "mapping(uint256 => struct Marketplace.Order)",
						"numberOfBytes": "32",
						"value": "t_struct(Order)98_storage"
					},
					"t_mapping(t_uint256,t_uint256)": {
						"encoding": "mapping",
						"key": "t_uint256",
						"label": "mapping(uint256 => uint256)",
						"numberOfBytes": "32",
						"value": "t_uint256"
					},
					"t_string_storage": {
						"encoding": "bytes",
						"label": "string",
						"numberOfBytes": "32"
					},
					"t_struct(Listing)95_storage": {
						"encoding": "inplace",
						"label": "struct Marketplace.Listing",
						"members": [
							{
								"astId": 82,
								"contract": "contracts/Orders.sol:Marketplace",
								"label": "id",
								"offset": 0,
								"slot": "0",
								"type": "t_uint256"
							},
							{
								"astId": 84,
								"contract": "contracts/Orders.sol:Marketplace",
								"label": "seller",
								"offset": 0,
								"slot": "1",
								"type": "t_address"
							},
							{
								"astId": 86,
								"contract": "contracts/Orders.sol:Marketplace",
								"label": "title",
								"offset": 0,
								"slot": "2",
								"type": "t_string_storage"
							},
							{
								"astId": 88,
								"contract": "contracts/Orders.sol:Marketplace",
								"label": "description",
								"offset": 0,
								"slot": "3",
								"type": "t_string_storage"
							},
							{
								"astId": 90,
								"contract": "contracts/Orders.sol:Marketplace",
								"label": "imageIPFSHash",
								"offset": 0,
								"slot": "4",
								"type": "t_string_storage"
							},
							{
								"astId": 92,
								"contract": "contracts/Orders.sol:Marketplace",
								"label": "price",
								"offset": 0,
								"slot": "5",
								"type": "t_uint256"
							},
							{
								"astId": 94,
								"contract": "contracts/Orders.sol:Marketplace",
								"label": "sold",
								"offset": 0,
								"slot": "6",
								"type": "t_bool"
							}
						],
						"numberOfBytes": "224"
					},
					"t_struct(Order)98_storage": {
						"encoding": "inplace",
						"label": "struct Marketplace.Order",
						"members": [
							{
								"astId": 97,
								"contract": "contracts/Orders.sol:Marketplace",
								"label": "isConfirmed",
								"offset": 0,
								"slot": "0",
								"type": "t_bool"
							}
						],
						"numberOfBytes": "32"
					},
					"t_uint256": {
						"encoding": "inplace",
						"label": "uint256",
						"numberOfBytes": "32"
					}
				}
			},
			"userdoc": {
				"kind": "user",
				"methods": {},
				"version": 1
			}
		}
	}
}