{
	"contracts/Orders.sol": {
		"Marketplace": {
			"abi": [
				{
					"inputs": [
						{
							"internalType": "address",
							"name": "_nftContractAddress",
							"type": "address"
						},
						{
							"internalType": "uint256",
							"name": "_commissionPercent",
							"type": "uint256"
						}
					],
					"stateMutability": "nonpayable",
					"type": "constructor"
				},
				{
					"anonymous": false,
					"inputs": [
						{
							"indexed": false,
							"internalType": "uint256",
							"name": "newPercent",
							"type": "uint256"
						}
					],
					"name": "CommissionUpdated",
					"type": "event"
				},
				{
					"anonymous": false,
					"inputs": [
						{
							"indexed": false,
							"internalType": "string",
							"name": "message",
							"type": "string"
						}
					],
					"name": "Debug",
					"type": "event"
				},
				{
					"anonymous": false,
					"inputs": [
						{
							"indexed": false,
							"internalType": "uint256",
							"name": "amount",
							"type": "uint256"
						},
						{
							"indexed": true,
							"internalType": "address",
							"name": "owner",
							"type": "address"
						}
					],
					"name": "FundsWithdrawn",
					"type": "event"
				},
				{
					"anonymous": false,
					"inputs": [
						{
							"indexed": true,
							"internalType": "uint256",
							"name": "id",
							"type": "uint256"
						},
						{
							"indexed": true,
							"internalType": "address",
							"name": "seller",
							"type": "address"
						}
					],
					"name": "ListingCancelled",
					"type": "event"
				},
				{
					"anonymous": false,
					"inputs": [
						{
							"indexed": true,
							"internalType": "uint256",
							"name": "id",
							"type": "uint256"
						},
						{
							"indexed": true,
							"internalType": "address",
							"name": "seller",
							"type": "address"
						},
						{
							"indexed": false,
							"internalType": "uint256",
							"name": "tokenId",
							"type": "uint256"
						},
						{
							"indexed": false,
							"internalType": "uint256",
							"name": "price",
							"type": "uint256"
						}
					],
					"name": "ListingCreated",
					"type": "event"
				},
				{
					"anonymous": false,
					"inputs": [
						{
							"indexed": true,
							"internalType": "uint256",
							"name": "id",
							"type": "uint256"
						},
						{
							"indexed": true,
							"internalType": "address",
							"name": "buyer",
							"type": "address"
						},
						{
							"indexed": false,
							"internalType": "uint256",
							"name": "tokenId",
							"type": "uint256"
						},
						{
							"indexed": false,
							"internalType": "uint256",
							"name": "price",
							"type": "uint256"
						}
					],
					"name": "PurchaseCompleted",
					"type": "event"
				},
				{
					"inputs": [
						{
							"internalType": "uint256",
							"name": "_listingId",
							"type": "uint256"
						}
					],
					"name": "cancelListing",
					"outputs": [],
					"stateMutability": "nonpayable",
					"type": "function"
				},
				{
					"inputs": [],
					"name": "commissionPercent",
					"outputs": [
						{
							"internalType": "uint256",
							"name": "",
							"type": "uint256"
						}
					],
					"stateMutability": "view",
					"type": "function"
				},
				{
					"inputs": [
						{
							"internalType": "uint128",
							"name": "_tokenId",
							"type": "uint128"
						},
						{
							"internalType": "uint128",
							"name": "_price",
							"type": "uint128"
						}
					],
					"name": "createListing",
					"outputs": [],
					"stateMutability": "nonpayable",
					"type": "function"
				},
				{
					"inputs": [
						{
							"internalType": "uint256",
							"name": "",
							"type": "uint256"
						}
					],
					"name": "listings",
					"outputs": [
						{
							"internalType": "address",
							"name": "seller",
							"type": "address"
						},
						{
							"internalType": "uint128",
							"name": "tokenId",
							"type": "uint128"
						},
						{
							"internalType": "uint128",
							"name": "price",
							"type": "uint128"
						}
					],
					"stateMutability": "view",
					"type": "function"
				},
				{
					"inputs": [],
					"name": "nftContract",
					"outputs": [
						{
							"internalType": "contract IERC721",
							"name": "",
							"type": "address"
						}
					],
					"stateMutability": "view",
					"type": "function"
				},
				{
					"inputs": [],
					"name": "nftEnumerable",
					"outputs": [
						{
							"internalType": "contract IERC721Enumerable",
							"name": "",
							"type": "address"
						}
					],
					"stateMutability": "view",
					"type": "function"
				},
				{
					"inputs": [],
					"name": "owner",
					"outputs": [
						{
							"internalType": "address payable",
							"name": "",
							"type": "address"
						}
					],
					"stateMutability": "view",
					"type": "function"
				},
				{
					"inputs": [
						{
							"internalType": "uint256",
							"name": "_listingId",
							"type": "uint256"
						}
					],
					"name": "purchaseListing",
					"outputs": [],
					"stateMutability": "payable",
					"type": "function"
				},
				{
					"inputs": [
						{
							"internalType": "uint256",
							"name": "_newPercent",
							"type": "uint256"
						}
					],
					"name": "setCommissionPercent",
					"outputs": [],
					"stateMutability": "nonpayable",
					"type": "function"
				},
				{
					"inputs": [
						{
							"internalType": "address",
							"name": "_owner",
							"type": "address"
						},
						{
							"internalType": "uint256",
							"name": "index",
							"type": "uint256"
						}
					],
					"name": "tokenOfOwnerByIndex",
					"outputs": [
						{
							"internalType": "uint256",
							"name": "tokenId",
							"type": "uint256"
						}
					],
					"stateMutability": "view",
					"type": "function"
				},
				{
					"inputs": [],
					"name": "withdrawFunds",
					"outputs": [],
					"stateMutability": "nonpayable",
					"type": "function"
				},
				{
					"stateMutability": "payable",
					"type": "receive"
				}
			],
			"devdoc": {
				"details": "This contract facilitates the listing and sale of ERC721 tokens with added enumerable support.",
				"kind": "dev",
				"methods": {
					"cancelListing(uint256)": {
						"params": {
							"_listingId": "ID of the listing to cancel."
						}
					},
					"constructor": {
						"details": "Initializes the marketplace with an ERC721 contract and commission percentage.",
						"params": {
							"_commissionPercent": "Marketplace commission percentage.",
							"_nftContractAddress": "Address of the ERC721 token contract."
						}
					},
					"createListing(uint128,uint128)": {
						"params": {
							"_price": "Sale price in wei.",
							"_tokenId": "ID of the token to sell."
						}
					},
					"purchaseListing(uint256)": {
						"params": {
							"_listingId": "ID of the listing to purchase."
						}
					},
					"setCommissionPercent(uint256)": {
						"params": {
							"_newPercent": "New commission percentage."
						}
					},
					"tokenOfOwnerByIndex(address,uint256)": {
						"params": {
							"_owner": "Address of the token owner.",
							"index": "Index in the list of the `_owner`'s tokens."
						},
						"returns": {
							"tokenId": "The ID of the token owned by the `_owner` at the given index."
						}
					}
				},
				"stateVariables": {
					"listings": {
						"details": "Stores all listings by their unique ID."
					},
					"unlocked": {
						"details": "Reentrancy guard modifier."
					}
				},
				"title": "NFT Marketplace",
				"version": 1
			},
			"evm": {
				"assembly": "    /* \"contracts/Orders.sol\":339:7166  contract Marketplace {... */\n  mstore(0x40, 0x80)\n    /* \"contracts/Orders.sol\":2068:2069  1 */\n  0x01\n    /* \"contracts/Orders.sol\":2041:2069  uint256 private unlocked = 1 */\n  0x05\n  sstore\n    /* \"contracts/Orders.sol\":2499:2853  constructor(address _nftContractAddress, uint256 _commissionPercent) {... */\n  callvalue\n  dup1\n  iszero\n  tag_1\n  jumpi\n  0x00\n  dup1\n  revert\ntag_1:\n  pop\n  mload(0x40)\n  sub(codesize, bytecodeSize)\n  dup1\n  bytecodeSize\n  dup4\n  codecopy\n  dup2\n  dup2\n  add\n  0x40\n  mstore\n  dup2\n  add\n  swap1\n  tag_2\n  swap2\n  swap1\n  tag_3\n  jump\t// in\ntag_2:\n    /* \"contracts/Orders.sol\":2608:2611  100 */\n  0x64\n    /* \"contracts/Orders.sol\":2586:2604  _commissionPercent */\n  dup2\n    /* \"contracts/Orders.sol\":2586:2611  _commissionPercent <= 100 */\n  gt\n  iszero\n    /* \"contracts/Orders.sol\":2578:2645  require(_commissionPercent <= 100, \"Commission cannot exceed 100%\") */\n  tag_6\n  jumpi\n  mload(0x40)\n  0x08c379a000000000000000000000000000000000000000000000000000000000\n  dup2\n  mstore\n  0x04\n  add\n  tag_7\n  swap1\n  tag_8\n  jump\t// in\ntag_7:\n  mload(0x40)\n  dup1\n  swap2\n  sub\n  swap1\n  revert\ntag_6:\n    /* \"contracts/Orders.sol\":2671:2681  msg.sender */\n  caller\n    /* \"contracts/Orders.sol\":2655:2660  owner */\n  0x00\n  dup1\n    /* \"contracts/Orders.sol\":2655:2682  owner = payable(msg.sender) */\n  0x0100\n  exp\n  dup2\n  sload\n  dup2\n  0xffffffffffffffffffffffffffffffffffffffff\n  mul\n  not\n  and\n  swap1\n  dup4\n  0xffffffffffffffffffffffffffffffffffffffff\n  and\n  mul\n  or\n  swap1\n  sstore\n  pop\n    /* \"contracts/Orders.sol\":2714:2733  _nftContractAddress */\n  dup2\n    /* \"contracts/Orders.sol\":2692:2703  nftContract */\n  0x03\n  0x00\n    /* \"contracts/Orders.sol\":2692:2734  nftContract = IERC721(_nftContractAddress) */\n  0x0100\n  exp\n  dup2\n  sload\n  dup2\n  0xffffffffffffffffffffffffffffffffffffffff\n  mul\n  not\n  and\n  swap1\n  dup4\n  0xffffffffffffffffffffffffffffffffffffffff\n  and\n  mul\n  or\n  swap1\n  sstore\n  pop\n    /* \"contracts/Orders.sol\":2778:2797  _nftContractAddress */\n  dup2\n    /* \"contracts/Orders.sol\":2744:2757  nftEnumerable */\n  0x04\n  0x00\n    /* \"contracts/Orders.sol\":2744:2798  nftEnumerable = IERC721Enumerable(_nftContractAddress) */\n  0x0100\n  exp\n  dup2\n  sload\n  dup2\n  0xffffffffffffffffffffffffffffffffffffffff\n  mul\n  not\n  and\n  swap1\n  dup4\n  0xffffffffffffffffffffffffffffffffffffffff\n  and\n  mul\n  or\n  swap1\n  sstore\n  pop\n    /* \"contracts/Orders.sol\":2828:2846  _commissionPercent */\n  dup1\n    /* \"contracts/Orders.sol\":2808:2825  commissionPercent */\n  0x01\n    /* \"contracts/Orders.sol\":2808:2846  commissionPercent = _commissionPercent */\n  dup2\n  swap1\n  sstore\n  pop\n    /* \"contracts/Orders.sol\":2499:2853  constructor(address _nftContractAddress, uint256 _commissionPercent) {... */\n  pop\n  pop\n    /* \"contracts/Orders.sol\":339:7166  contract Marketplace {... */\n  jump(tag_9)\n    /* \"#utility.yul\":88:205   */\ntag_11:\n    /* \"#utility.yul\":197:198   */\n  0x00\n    /* \"#utility.yul\":194:195   */\n  dup1\n    /* \"#utility.yul\":187:199   */\n  revert\n    /* \"#utility.yul\":334:460   */\ntag_13:\n    /* \"#utility.yul\":371:378   */\n  0x00\n    /* \"#utility.yul\":411:453   */\n  0xffffffffffffffffffffffffffffffffffffffff\n    /* \"#utility.yul\":404:409   */\n  dup3\n    /* \"#utility.yul\":400:454   */\n  and\n    /* \"#utility.yul\":389:454   */\n  swap1\n  pop\n    /* \"#utility.yul\":334:460   */\n  swap2\n  swap1\n  pop\n  jump\t// out\n    /* \"#utility.yul\":466:562   */\ntag_14:\n    /* \"#utility.yul\":503:510   */\n  0x00\n    /* \"#utility.yul\":532:556   */\n  tag_29\n    /* \"#utility.yul\":550:555   */\n  dup3\n    /* \"#utility.yul\":532:556   */\n  tag_13\n  jump\t// in\ntag_29:\n    /* \"#utility.yul\":521:556   */\n  swap1\n  pop\n    /* \"#utility.yul\":466:562   */\n  swap2\n  swap1\n  pop\n  jump\t// out\n    /* \"#utility.yul\":568:690   */\ntag_15:\n    /* \"#utility.yul\":641:665   */\n  tag_31\n    /* \"#utility.yul\":659:664   */\n  dup2\n    /* \"#utility.yul\":641:665   */\n  tag_14\n  jump\t// in\ntag_31:\n    /* \"#utility.yul\":634:639   */\n  dup2\n    /* \"#utility.yul\":631:666   */\n  eq\n    /* \"#utility.yul\":621:684   */\n  tag_32\n  jumpi\n    /* \"#utility.yul\":680:681   */\n  0x00\n    /* \"#utility.yul\":677:678   */\n  dup1\n    /* \"#utility.yul\":670:682   */\n  revert\n    /* \"#utility.yul\":621:684   */\ntag_32:\n    /* \"#utility.yul\":568:690   */\n  pop\n  jump\t// out\n    /* \"#utility.yul\":696:839   */\ntag_16:\n    /* \"#utility.yul\":753:758   */\n  0x00\n    /* \"#utility.yul\":784:790   */\n  dup2\n    /* \"#utility.yul\":778:791   */\n  mload\n    /* \"#utility.yul\":769:791   */\n  swap1\n  pop\n    /* \"#utility.yul\":800:833   */\n  tag_34\n    /* \"#utility.yul\":827:832   */\n  dup2\n    /* \"#utility.yul\":800:833   */\n  tag_15\n  jump\t// in\ntag_34:\n    /* \"#utility.yul\":696:839   */\n  swap3\n  swap2\n  pop\n  pop\n  jump\t// out\n    /* \"#utility.yul\":845:922   */\ntag_17:\n    /* \"#utility.yul\":882:889   */\n  0x00\n    /* \"#utility.yul\":911:916   */\n  dup2\n    /* \"#utility.yul\":900:916   */\n  swap1\n  pop\n    /* \"#utility.yul\":845:922   */\n  swap2\n  swap1\n  pop\n  jump\t// out\n    /* \"#utility.yul\":928:1050   */\ntag_18:\n    /* \"#utility.yul\":1001:1025   */\n  tag_37\n    /* \"#utility.yul\":1019:1024   */\n  dup2\n    /* \"#utility.yul\":1001:1025   */\n  tag_17\n  jump\t// in\ntag_37:\n    /* \"#utility.yul\":994:999   */\n  dup2\n    /* \"#utility.yul\":991:1026   */\n  eq\n    /* \"#utility.yul\":981:1044   */\n  tag_38\n  jumpi\n    /* \"#utility.yul\":1040:1041   */\n  0x00\n    /* \"#utility.yul\":1037:1038   */\n  dup1\n    /* \"#utility.yul\":1030:1042   */\n  revert\n    /* \"#utility.yul\":981:1044   */\ntag_38:\n    /* \"#utility.yul\":928:1050   */\n  pop\n  jump\t// out\n    /* \"#utility.yul\":1056:1199   */\ntag_19:\n    /* \"#utility.yul\":1113:1118   */\n  0x00\n    /* \"#utility.yul\":1144:1150   */\n  dup2\n    /* \"#utility.yul\":1138:1151   */\n  mload\n    /* \"#utility.yul\":1129:1151   */\n  swap1\n  pop\n    /* \"#utility.yul\":1160:1193   */\n  tag_40\n    /* \"#utility.yul\":1187:1192   */\n  dup2\n    /* \"#utility.yul\":1160:1193   */\n  tag_18\n  jump\t// in\ntag_40:\n    /* \"#utility.yul\":1056:1199   */\n  swap3\n  swap2\n  pop\n  pop\n  jump\t// out\n    /* \"#utility.yul\":1205:1712   */\ntag_3:\n    /* \"#utility.yul\":1284:1290   */\n  0x00\n    /* \"#utility.yul\":1292:1298   */\n  dup1\n    /* \"#utility.yul\":1341:1343   */\n  0x40\n    /* \"#utility.yul\":1329:1338   */\n  dup4\n    /* \"#utility.yul\":1320:1327   */\n  dup6\n    /* \"#utility.yul\":1316:1339   */\n  sub\n    /* \"#utility.yul\":1312:1344   */\n  slt\n    /* \"#utility.yul\":1309:1428   */\n  iszero\n  tag_42\n  jumpi\n    /* \"#utility.yul\":1347:1426   */\n  tag_43\n  tag_11\n  jump\t// in\ntag_43:\n    /* \"#utility.yul\":1309:1428   */\ntag_42:\n    /* \"#utility.yul\":1467:1468   */\n  0x00\n    /* \"#utility.yul\":1492:1556   */\n  tag_44\n    /* \"#utility.yul\":1548:1555   */\n  dup6\n    /* \"#utility.yul\":1539:1545   */\n  dup3\n    /* \"#utility.yul\":1528:1537   */\n  dup7\n    /* \"#utility.yul\":1524:1546   */\n  add\n    /* \"#utility.yul\":1492:1556   */\n  tag_16\n  jump\t// in\ntag_44:\n    /* \"#utility.yul\":1482:1556   */\n  swap3\n  pop\n    /* \"#utility.yul\":1438:1566   */\n  pop\n    /* \"#utility.yul\":1605:1607   */\n  0x20\n    /* \"#utility.yul\":1631:1695   */\n  tag_45\n    /* \"#utility.yul\":1687:1694   */\n  dup6\n    /* \"#utility.yul\":1678:1684   */\n  dup3\n    /* \"#utility.yul\":1667:1676   */\n  dup7\n    /* \"#utility.yul\":1663:1685   */\n  add\n    /* \"#utility.yul\":1631:1695   */\n  tag_19\n  jump\t// in\ntag_45:\n    /* \"#utility.yul\":1621:1695   */\n  swap2\n  pop\n    /* \"#utility.yul\":1576:1705   */\n  pop\n    /* \"#utility.yul\":1205:1712   */\n  swap3\n  pop\n  swap3\n  swap1\n  pop\n  jump\t// out\n    /* \"#utility.yul\":1718:1887   */\ntag_20:\n    /* \"#utility.yul\":1802:1813   */\n  0x00\n    /* \"#utility.yul\":1836:1842   */\n  dup3\n    /* \"#utility.yul\":1831:1834   */\n  dup3\n    /* \"#utility.yul\":1824:1843   */\n  mstore\n    /* \"#utility.yul\":1876:1880   */\n  0x20\n    /* \"#utility.yul\":1871:1874   */\n  dup3\n    /* \"#utility.yul\":1867:1881   */\n  add\n    /* \"#utility.yul\":1852:1881   */\n  swap1\n  pop\n    /* \"#utility.yul\":1718:1887   */\n  swap3\n  swap2\n  pop\n  pop\n  jump\t// out\n    /* \"#utility.yul\":1893:2072   */\ntag_21:\n    /* \"#utility.yul\":2033:2064   */\n  0x436f6d6d697373696f6e2063616e6e6f74206578636565642031303025000000\n    /* \"#utility.yul\":2029:2030   */\n  0x00\n    /* \"#utility.yul\":2021:2027   */\n  dup3\n    /* \"#utility.yul\":2017:2031   */\n  add\n    /* \"#utility.yul\":2010:2065   */\n  mstore\n    /* \"#utility.yul\":1893:2072   */\n  pop\n  jump\t// out\n    /* \"#utility.yul\":2078:2444   */\ntag_22:\n    /* \"#utility.yul\":2220:2223   */\n  0x00\n    /* \"#utility.yul\":2241:2308   */\n  tag_49\n    /* \"#utility.yul\":2305:2307   */\n  0x1d\n    /* \"#utility.yul\":2300:2303   */\n  dup4\n    /* \"#utility.yul\":2241:2308   */\n  tag_20\n  jump\t// in\ntag_49:\n    /* \"#utility.yul\":2234:2308   */\n  swap2\n  pop\n    /* \"#utility.yul\":2317:2410   */\n  tag_50\n    /* \"#utility.yul\":2406:2409   */\n  dup3\n    /* \"#utility.yul\":2317:2410   */\n  tag_21\n  jump\t// in\ntag_50:\n    /* \"#utility.yul\":2435:2437   */\n  0x20\n    /* \"#utility.yul\":2430:2433   */\n  dup3\n    /* \"#utility.yul\":2426:2438   */\n  add\n    /* \"#utility.yul\":2419:2438   */\n  swap1\n  pop\n    /* \"#utility.yul\":2078:2444   */\n  swap2\n  swap1\n  pop\n  jump\t// out\n    /* \"#utility.yul\":2450:2869   */\ntag_8:\n    /* \"#utility.yul\":2616:2620   */\n  0x00\n    /* \"#utility.yul\":2654:2656   */\n  0x20\n    /* \"#utility.yul\":2643:2652   */\n  dup3\n    /* \"#utility.yul\":2639:2657   */\n  add\n    /* \"#utility.yul\":2631:2657   */\n  swap1\n  pop\n    /* \"#utility.yul\":2703:2712   */\n  dup2\n    /* \"#utility.yul\":2697:2701   */\n  dup2\n    /* \"#utility.yul\":2693:2713   */\n  sub\n    /* \"#utility.yul\":2689:2690   */\n  0x00\n    /* \"#utility.yul\":2678:2687   */\n  dup4\n    /* \"#utility.yul\":2674:2691   */\n  add\n    /* \"#utility.yul\":2667:2714   */\n  mstore\n    /* \"#utility.yul\":2731:2862   */\n  tag_52\n    /* \"#utility.yul\":2857:2861   */\n  dup2\n    /* \"#utility.yul\":2731:2862   */\n  tag_22\n  jump\t// in\ntag_52:\n    /* \"#utility.yul\":2723:2862   */\n  swap1\n  pop\n    /* \"#utility.yul\":2450:2869   */\n  swap2\n  swap1\n  pop\n  jump\t// out\n    /* \"contracts/Orders.sol\":339:7166  contract Marketplace {... */\ntag_9:\n  dataSize(sub_0)\n  dup1\n  dataOffset(sub_0)\n  0x00\n  codecopy\n  0x00\n  return\nstop\n\nsub_0: assembly {\n        /* \"contracts/Orders.sol\":339:7166  contract Marketplace {... */\n      mstore(0x40, 0x80)\n      jumpi(tag_1, lt(calldatasize, 0x04))\n      shr(0xe0, calldataload(0x00))\n      dup1\n      0x51e61b25\n      gt\n      tag_14\n      jumpi\n      dup1\n      0x51e61b25\n      eq\n      tag_8\n      jumpi\n      dup1\n      0x77d3550b\n      eq\n      tag_9\n      jumpi\n      dup1\n      0x8da5cb5b\n      eq\n      tag_10\n      jumpi\n      dup1\n      0x9acaa6fb\n      eq\n      tag_11\n      jumpi\n      dup1\n      0xd56d229d\n      eq\n      tag_12\n      jumpi\n      dup1\n      0xde74e57b\n      eq\n      tag_13\n      jumpi\n      jump(tag_2)\n    tag_14:\n      dup1\n      0x169d5a7d\n      eq\n      tag_3\n      jumpi\n      dup1\n      0x24600fc3\n      eq\n      tag_4\n      jumpi\n      dup1\n      0x2f745c59\n      eq\n      tag_5\n      jumpi\n      dup1\n      0x305a67a8\n      eq\n      tag_6\n      jumpi\n      dup1\n      0x404a9ab8\n      eq\n      tag_7\n      jumpi\n      jump(tag_2)\n    tag_1:\n      jumpi(tag_2, calldatasize)\n      stop\n    tag_2:\n      0x00\n      dup1\n      revert\n        /* \"contracts/Orders.sol\":4279:5437  function purchaseListing(uint256 _listingId) external payable nonReentrant {... */\n    tag_3:\n      tag_17\n      0x04\n      dup1\n      calldatasize\n      sub\n      dup2\n      add\n      swap1\n      tag_18\n      swap2\n      swap1\n      tag_19\n      jump\t// in\n    tag_18:\n      tag_20\n      jump\t// in\n    tag_17:\n      stop\n        /* \"contracts/Orders.sol\":6351:6669  function withdrawFunds() external onlyOwner nonReentrant {... */\n    tag_4:\n      callvalue\n      dup1\n      iszero\n      tag_21\n      jumpi\n      0x00\n      dup1\n      revert\n    tag_21:\n      pop\n      tag_22\n      tag_23\n      jump\t// in\n    tag_22:\n      stop\n        /* \"contracts/Orders.sol\":6966:7164  function tokenOfOwnerByIndex(address _owner, uint256 index)... */\n    tag_5:\n      callvalue\n      dup1\n      iszero\n      tag_24\n      jumpi\n      0x00\n      dup1\n      revert\n    tag_24:\n      pop\n      tag_25\n      0x04\n      dup1\n      calldatasize\n      sub\n      dup2\n      add\n      swap1\n      tag_26\n      swap2\n      swap1\n      tag_27\n      jump\t// in\n    tag_26:\n      tag_28\n      jump\t// in\n    tag_25:\n      mload(0x40)\n      tag_29\n      swap2\n      swap1\n      tag_30\n      jump\t// in\n    tag_29:\n      mload(0x40)\n      dup1\n      swap2\n      sub\n      swap1\n      return\n        /* \"contracts/Orders.sol\":5555:5904  function cancelListing(uint256 _listingId) external {... */\n    tag_6:\n      callvalue\n      dup1\n      iszero\n      tag_31\n      jumpi\n      0x00\n      dup1\n      revert\n    tag_31:\n      pop\n      tag_32\n      0x04\n      dup1\n      calldatasize\n      sub\n      dup2\n      add\n      swap1\n      tag_33\n      swap2\n      swap1\n      tag_19\n      jump\t// in\n    tag_33:\n      tag_34\n      jump\t// in\n    tag_32:\n      stop\n        /* \"contracts/Orders.sol\":6041:6275  function setCommissionPercent(uint256 _newPercent) external onlyOwner {... */\n    tag_7:\n      callvalue\n      dup1\n      iszero\n      tag_35\n      jumpi\n      0x00\n      dup1\n      revert\n    tag_35:\n      pop\n      tag_36\n      0x04\n      dup1\n      calldatasize\n      sub\n      dup2\n      add\n      swap1\n      tag_37\n      swap2\n      swap1\n      tag_19\n      jump\t// in\n    tag_37:\n      tag_38\n      jump\t// in\n    tag_36:\n      stop\n        /* \"contracts/Orders.sol\":961:999  IERC721Enumerable public nftEnumerable */\n    tag_8:\n      callvalue\n      dup1\n      iszero\n      tag_39\n      jumpi\n      0x00\n      dup1\n      revert\n    tag_39:\n      pop\n      tag_40\n      tag_41\n      jump\t// in\n    tag_40:\n      mload(0x40)\n      tag_42\n      swap2\n      swap1\n      tag_43\n      jump\t// in\n    tag_42:\n      mload(0x40)\n      dup1\n      swap2\n      sub\n      swap1\n      return\n        /* \"contracts/Orders.sol\":666:698  uint256 public commissionPercent */\n    tag_9:\n      callvalue\n      dup1\n      iszero\n      tag_44\n      jumpi\n      0x00\n      dup1\n      revert\n    tag_44:\n      pop\n      tag_45\n      tag_46\n      jump\t// in\n    tag_45:\n      mload(0x40)\n      tag_47\n      swap2\n      swap1\n      tag_30\n      jump\t// in\n    tag_47:\n      mload(0x40)\n      dup1\n      swap2\n      sub\n      swap1\n      return\n        /* \"contracts/Orders.sol\":565:593  address payable public owner */\n    tag_10:\n      callvalue\n      dup1\n      iszero\n      tag_48\n      jumpi\n      0x00\n      dup1\n      revert\n    tag_48:\n      pop\n      tag_49\n      tag_50\n      jump\t// in\n    tag_49:\n      mload(0x40)\n      tag_51\n      swap2\n      swap1\n      tag_52\n      jump\t// in\n    tag_51:\n      mload(0x40)\n      dup1\n      swap2\n      sub\n      swap1\n      return\n        /* \"contracts/Orders.sol\":3012:4111  function createListing(uint128 _tokenId, uint128 _price) external {... */\n    tag_11:\n      callvalue\n      dup1\n      iszero\n      tag_53\n      jumpi\n      0x00\n      dup1\n      revert\n    tag_53:\n      pop\n      tag_54\n      0x04\n      dup1\n      calldatasize\n      sub\n      dup2\n      add\n      swap1\n      tag_55\n      swap2\n      swap1\n      tag_56\n      jump\t// in\n    tag_55:\n      tag_57\n      jump\t// in\n    tag_54:\n      stop\n        /* \"contracts/Orders.sol\":865:891  IERC721 public nftContract */\n    tag_12:\n      callvalue\n      dup1\n      iszero\n      tag_58\n      jumpi\n      0x00\n      dup1\n      revert\n    tag_58:\n      pop\n      tag_59\n      tag_60\n      jump\t// in\n    tag_59:\n      mload(0x40)\n      tag_61\n      swap2\n      swap1\n      tag_62\n      jump\t// in\n    tag_61:\n      mload(0x40)\n      dup1\n      swap2\n      sub\n      swap1\n      return\n        /* \"contracts/Orders.sol\":758:801  mapping(uint256 => Listing) public listings */\n    tag_13:\n      callvalue\n      dup1\n      iszero\n      tag_63\n      jumpi\n      0x00\n      dup1\n      revert\n    tag_63:\n      pop\n      tag_64\n      0x04\n      dup1\n      calldatasize\n      sub\n      dup2\n      add\n      swap1\n      tag_65\n      swap2\n      swap1\n      tag_19\n      jump\t// in\n    tag_65:\n      tag_66\n      jump\t// in\n    tag_64:\n      mload(0x40)\n      tag_67\n      swap4\n      swap3\n      swap2\n      swap1\n      tag_68\n      jump\t// in\n    tag_67:\n      mload(0x40)\n      dup1\n      swap2\n      sub\n      swap1\n      return\n        /* \"contracts/Orders.sol\":4279:5437  function purchaseListing(uint256 _listingId) external payable nonReentrant {... */\n    tag_20:\n        /* \"contracts/Orders.sol\":2129:2130  1 */\n      0x01\n        /* \"contracts/Orders.sol\":2117:2125  unlocked */\n      sload(0x05)\n        /* \"contracts/Orders.sol\":2117:2130  unlocked == 1 */\n      eq\n        /* \"contracts/Orders.sol\":2109:2149  require(unlocked == 1, \"Reentrant call\") */\n      tag_70\n      jumpi\n      mload(0x40)\n      0x08c379a000000000000000000000000000000000000000000000000000000000\n      dup2\n      mstore\n      0x04\n      add\n      tag_71\n      swap1\n      tag_72\n      jump\t// in\n    tag_71:\n      mload(0x40)\n      dup1\n      swap2\n      sub\n      swap1\n      revert\n    tag_70:\n        /* \"contracts/Orders.sol\":2170:2171  0 */\n      0x00\n        /* \"contracts/Orders.sol\":2159:2167  unlocked */\n      0x05\n        /* \"contracts/Orders.sol\":2159:2171  unlocked = 0 */\n      dup2\n      swap1\n      sstore\n      pop\n        /* \"contracts/Orders.sol\":4364:4387  Listing storage listing */\n      0x00\n        /* \"contracts/Orders.sol\":4390:4398  listings */\n      0x02\n        /* \"contracts/Orders.sol\":4390:4410  listings[_listingId] */\n      0x00\n        /* \"contracts/Orders.sol\":4399:4409  _listingId */\n      dup4\n        /* \"contracts/Orders.sol\":4390:4410  listings[_listingId] */\n      dup2\n      mstore\n      0x20\n      add\n      swap1\n      dup2\n      mstore\n      0x20\n      add\n      0x00\n      keccak256\n        /* \"contracts/Orders.sol\":4364:4410  Listing storage listing = listings[_listingId] */\n      swap1\n      pop\n        /* \"contracts/Orders.sol\":4444:4445  0 */\n      0x00\n        /* \"contracts/Orders.sol\":4428:4435  listing */\n      dup2\n        /* \"contracts/Orders.sol\":4428:4441  listing.price */\n      0x01\n      add\n      0x10\n      swap1\n      sload\n      swap1\n      0x0100\n      exp\n      swap1\n      div\n      0xffffffffffffffffffffffffffffffff\n      and\n        /* \"contracts/Orders.sol\":4428:4445  listing.price > 0 */\n      0xffffffffffffffffffffffffffffffff\n      and\n      gt\n        /* \"contracts/Orders.sol\":4420:4477  require(listing.price > 0, \"Invalid or inactive listing\") */\n      tag_74\n      jumpi\n      mload(0x40)\n      0x08c379a000000000000000000000000000000000000000000000000000000000\n      dup2\n      mstore\n      0x04\n      add\n      tag_75\n      swap1\n      tag_76\n      jump\t// in\n    tag_75:\n      mload(0x40)\n      dup1\n      swap2\n      sub\n      swap1\n      revert\n    tag_74:\n        /* \"contracts/Orders.sol\":4508:4515  listing */\n      dup1\n        /* \"contracts/Orders.sol\":4508:4521  listing.price */\n      0x01\n      add\n      0x10\n      swap1\n      sload\n      swap1\n      0x0100\n      exp\n      swap1\n      div\n      0xffffffffffffffffffffffffffffffff\n      and\n        /* \"contracts/Orders.sol\":4495:4521  msg.value == listing.price */\n      0xffffffffffffffffffffffffffffffff\n      and\n        /* \"contracts/Orders.sol\":4495:4504  msg.value */\n      callvalue\n        /* \"contracts/Orders.sol\":4495:4521  msg.value == listing.price */\n      eq\n        /* \"contracts/Orders.sol\":4487:4550  require(msg.value == listing.price, \"Incorrect payment amount\") */\n      tag_77\n      jumpi\n      mload(0x40)\n      0x08c379a000000000000000000000000000000000000000000000000000000000\n      dup2\n      mstore\n      0x04\n      add\n      tag_78\n      swap1\n      tag_79\n      jump\t// in\n    tag_78:\n      mload(0x40)\n      dup1\n      swap2\n      sub\n      swap1\n      revert\n    tag_77:\n        /* \"contracts/Orders.sol\":4561:4585  uint256 commissionAmount */\n      0x00\n        /* \"contracts/Orders.sol\":4622:4625  100 */\n      0x64\n        /* \"contracts/Orders.sol\":4601:4618  commissionPercent */\n      sload(0x01)\n        /* \"contracts/Orders.sol\":4589:4598  msg.value */\n      callvalue\n        /* \"contracts/Orders.sol\":4589:4618  msg.value * commissionPercent */\n      tag_80\n      swap2\n      swap1\n      tag_81\n      jump\t// in\n    tag_80:\n        /* \"contracts/Orders.sol\":4588:4625  (msg.value * commissionPercent) / 100 */\n      tag_82\n      swap2\n      swap1\n      tag_83\n      jump\t// in\n    tag_82:\n        /* \"contracts/Orders.sol\":4561:4625  uint256 commissionAmount = (msg.value * commissionPercent) / 100 */\n      swap1\n      pop\n        /* \"contracts/Orders.sol\":4635:4655  uint256 sellerAmount */\n      0x00\n        /* \"contracts/Orders.sol\":4670:4686  commissionAmount */\n      dup2\n        /* \"contracts/Orders.sol\":4658:4667  msg.value */\n      callvalue\n        /* \"contracts/Orders.sol\":4658:4686  msg.value - commissionAmount */\n      tag_84\n      swap2\n      swap1\n      tag_85\n      jump\t// in\n    tag_84:\n        /* \"contracts/Orders.sol\":4635:4686  uint256 sellerAmount = msg.value - commissionAmount */\n      swap1\n      pop\n        /* \"contracts/Orders.sol\":4738:4757  bool commissionSent */\n      0x00\n        /* \"contracts/Orders.sol\":4763:4768  owner */\n      dup1\n      0x00\n      swap1\n      sload\n      swap1\n      0x0100\n      exp\n      swap1\n      div\n      0xffffffffffffffffffffffffffffffffffffffff\n      and\n        /* \"contracts/Orders.sol\":4763:4773  owner.call */\n      0xffffffffffffffffffffffffffffffffffffffff\n      and\n        /* \"contracts/Orders.sol\":4781:4797  commissionAmount */\n      dup4\n        /* \"contracts/Orders.sol\":4763:4802  owner.call{value: commissionAmount}(\"\") */\n      mload(0x40)\n      tag_86\n      swap1\n      tag_87\n      jump\t// in\n    tag_86:\n      0x00\n      mload(0x40)\n      dup1\n      dup4\n      sub\n      dup2\n      dup6\n      dup8\n      gas\n      call\n      swap3\n      pop\n      pop\n      pop\n      returndatasize\n      dup1\n      0x00\n      dup2\n      eq\n      tag_90\n      jumpi\n      mload(0x40)\n      swap2\n      pop\n      and(add(returndatasize, 0x3f), not(0x1f))\n      dup3\n      add\n      0x40\n      mstore\n      returndatasize\n      dup3\n      mstore\n      returndatasize\n      0x00\n      0x20\n      dup5\n      add\n      returndatacopy\n      jump(tag_89)\n    tag_90:\n      0x60\n      swap2\n      pop\n    tag_89:\n      pop\n        /* \"contracts/Orders.sol\":4737:4802  (bool commissionSent, ) = owner.call{value: commissionAmount}(\"\") */\n      pop\n      swap1\n      pop\n        /* \"contracts/Orders.sol\":4820:4834  commissionSent */\n      dup1\n        /* \"contracts/Orders.sol\":4812:4864  require(commissionSent, \"Failed to send commission\") */\n      tag_91\n      jumpi\n      mload(0x40)\n      0x08c379a000000000000000000000000000000000000000000000000000000000\n      dup2\n      mstore\n      0x04\n      add\n      tag_92\n      swap1\n      tag_93\n      jump\t// in\n    tag_92:\n      mload(0x40)\n      dup1\n      swap2\n      sub\n      swap1\n      revert\n    tag_91:\n        /* \"contracts/Orders.sol\":4914:4929  bool sellerPaid */\n      0x00\n        /* \"contracts/Orders.sol\":4935:4942  listing */\n      dup5\n        /* \"contracts/Orders.sol\":4935:4949  listing.seller */\n      0x00\n      add\n      0x00\n      swap1\n      sload\n      swap1\n      0x0100\n      exp\n      swap1\n      div\n      0xffffffffffffffffffffffffffffffffffffffff\n      and\n        /* \"contracts/Orders.sol\":4935:4954  listing.seller.call */\n      0xffffffffffffffffffffffffffffffffffffffff\n      and\n        /* \"contracts/Orders.sol\":4962:4974  sellerAmount */\n      dup4\n        /* \"contracts/Orders.sol\":4935:4979  listing.seller.call{value: sellerAmount}(\"\") */\n      mload(0x40)\n      tag_94\n      swap1\n      tag_87\n      jump\t// in\n    tag_94:\n      0x00\n      mload(0x40)\n      dup1\n      dup4\n      sub\n      dup2\n      dup6\n      dup8\n      gas\n      call\n      swap3\n      pop\n      pop\n      pop\n      returndatasize\n      dup1\n      0x00\n      dup2\n      eq\n      tag_97\n      jumpi\n      mload(0x40)\n      swap2\n      pop\n      and(add(returndatasize, 0x3f), not(0x1f))\n      dup3\n      add\n      0x40\n      mstore\n      returndatasize\n      dup3\n      mstore\n      returndatasize\n      0x00\n      0x20\n      dup5\n      add\n      returndatacopy\n      jump(tag_96)\n    tag_97:\n      0x60\n      swap2\n      pop\n    tag_96:\n      pop\n        /* \"contracts/Orders.sol\":4913:4979  (bool sellerPaid, ) = listing.seller.call{value: sellerAmount}(\"\") */\n      pop\n      swap1\n      pop\n        /* \"contracts/Orders.sol\":4997:5007  sellerPaid */\n      dup1\n        /* \"contracts/Orders.sol\":4989:5044  require(sellerPaid, \"Failed to send payment to seller\") */\n      tag_98\n      jumpi\n      mload(0x40)\n      0x08c379a000000000000000000000000000000000000000000000000000000000\n      dup2\n      mstore\n      0x04\n      add\n      tag_99\n      swap1\n      tag_100\n      jump\t// in\n    tag_99:\n      mload(0x40)\n      dup1\n      swap2\n      sub\n      swap1\n      revert\n    tag_98:\n        /* \"contracts/Orders.sol\":5088:5099  nftContract */\n      0x03\n      0x00\n      swap1\n      sload\n      swap1\n      0x0100\n      exp\n      swap1\n      div\n      0xffffffffffffffffffffffffffffffffffffffff\n      and\n        /* \"contracts/Orders.sol\":5088:5116  nftContract.safeTransferFrom */\n      0xffffffffffffffffffffffffffffffffffffffff\n      and\n      0x42842e0e\n        /* \"contracts/Orders.sol\":5130:5137  listing */\n      dup7\n        /* \"contracts/Orders.sol\":5130:5144  listing.seller */\n      0x00\n      add\n      0x00\n      swap1\n      sload\n      swap1\n      0x0100\n      exp\n      swap1\n      div\n      0xffffffffffffffffffffffffffffffffffffffff\n      and\n        /* \"contracts/Orders.sol\":5158:5168  msg.sender */\n      caller\n        /* \"contracts/Orders.sol\":5182:5189  listing */\n      dup9\n        /* \"contracts/Orders.sol\":5182:5197  listing.tokenId */\n      0x01\n      add\n      0x00\n      swap1\n      sload\n      swap1\n      0x0100\n      exp\n      swap1\n      div\n      0xffffffffffffffffffffffffffffffff\n      and\n        /* \"contracts/Orders.sol\":5088:5207  nftContract.safeTransferFrom(... */\n      mload(0x40)\n      dup5\n      0xffffffff\n      and\n      0xe0\n      shl\n      dup2\n      mstore\n      0x04\n      add\n      tag_101\n      swap4\n      swap3\n      swap2\n      swap1\n      tag_102\n      jump\t// in\n    tag_101:\n      0x00\n      mload(0x40)\n      dup1\n      dup4\n      sub\n      dup2\n      0x00\n      dup8\n      dup1\n      extcodesize\n      iszero\n      dup1\n      iszero\n      tag_103\n      jumpi\n      0x00\n      dup1\n      revert\n    tag_103:\n      pop\n      gas\n      call\n      iszero\n      dup1\n      iszero\n      tag_105\n      jumpi\n      returndatasize\n      0x00\n      dup1\n      returndatacopy\n      revert(0x00, returndatasize)\n    tag_105:\n      pop\n      pop\n      pop\n      pop\n        /* \"contracts/Orders.sol\":5278:5288  msg.sender */\n      caller\n        /* \"contracts/Orders.sol\":5223:5354  PurchaseCompleted(... */\n      0xffffffffffffffffffffffffffffffffffffffff\n      and\n        /* \"contracts/Orders.sol\":5254:5264  _listingId */\n      dup7\n        /* \"contracts/Orders.sol\":5223:5354  PurchaseCompleted(... */\n      0x8a851ef52cc28a8639e6693c30f783523b6305558901b362a7e4f6369ecec90b\n        /* \"contracts/Orders.sol\":5302:5309  listing */\n      dup8\n        /* \"contracts/Orders.sol\":5302:5317  listing.tokenId */\n      0x01\n      add\n      0x00\n      swap1\n      sload\n      swap1\n      0x0100\n      exp\n      swap1\n      div\n      0xffffffffffffffffffffffffffffffff\n      and\n        /* \"contracts/Orders.sol\":5331:5338  listing */\n      dup9\n        /* \"contracts/Orders.sol\":5331:5344  listing.price */\n      0x01\n      add\n      0x10\n      swap1\n      sload\n      swap1\n      0x0100\n      exp\n      swap1\n      div\n      0xffffffffffffffffffffffffffffffff\n      and\n        /* \"contracts/Orders.sol\":5223:5354  PurchaseCompleted(... */\n      mload(0x40)\n      tag_106\n      swap3\n      swap2\n      swap1\n      tag_107\n      jump\t// in\n    tag_106:\n      mload(0x40)\n      dup1\n      swap2\n      sub\n      swap1\n      log3\n        /* \"contracts/Orders.sol\":5410:5418  listings */\n      0x02\n        /* \"contracts/Orders.sol\":5410:5430  listings[_listingId] */\n      0x00\n        /* \"contracts/Orders.sol\":5419:5429  _listingId */\n      dup8\n        /* \"contracts/Orders.sol\":5410:5430  listings[_listingId] */\n      dup2\n      mstore\n      0x20\n      add\n      swap1\n      dup2\n      mstore\n      0x20\n      add\n      0x00\n      keccak256\n      0x00\n        /* \"contracts/Orders.sol\":5403:5430  delete listings[_listingId] */\n      dup1\n      dup3\n      add\n      exp(0x0100, 0x00)\n      dup2\n      sload\n      swap1\n      0xffffffffffffffffffffffffffffffffffffffff\n      mul\n      not\n      and\n      swap1\n      sstore\n      0x01\n      dup3\n      add\n      exp(0x0100, 0x00)\n      dup2\n      sload\n      swap1\n      0xffffffffffffffffffffffffffffffff\n      mul\n      not\n      and\n      swap1\n      sstore\n      0x01\n      dup3\n      add\n      exp(0x0100, 0x10)\n      dup2\n      sload\n      swap1\n      0xffffffffffffffffffffffffffffffff\n      mul\n      not\n      and\n      swap1\n      sstore\n      pop\n      pop\n        /* \"contracts/Orders.sol\":4354:5437  {... */\n      pop\n      pop\n      pop\n      pop\n      pop\n        /* \"contracts/Orders.sol\":2203:2204  1 */\n      0x01\n        /* \"contracts/Orders.sol\":2192:2200  unlocked */\n      0x05\n        /* \"contracts/Orders.sol\":2192:2204  unlocked = 1 */\n      dup2\n      swap1\n      sstore\n      pop\n        /* \"contracts/Orders.sol\":4279:5437  function purchaseListing(uint256 _listingId) external payable nonReentrant {... */\n      pop\n      jump\t// out\n        /* \"contracts/Orders.sol\":6351:6669  function withdrawFunds() external onlyOwner nonReentrant {... */\n    tag_23:\n        /* \"contracts/Orders.sol\":1929:1934  owner */\n      0x00\n      dup1\n      sload\n      swap1\n      0x0100\n      exp\n      swap1\n      div\n      0xffffffffffffffffffffffffffffffffffffffff\n      and\n        /* \"contracts/Orders.sol\":1915:1934  msg.sender == owner */\n      0xffffffffffffffffffffffffffffffffffffffff\n      and\n        /* \"contracts/Orders.sol\":1915:1925  msg.sender */\n      caller\n        /* \"contracts/Orders.sol\":1915:1934  msg.sender == owner */\n      0xffffffffffffffffffffffffffffffffffffffff\n      and\n      eq\n        /* \"contracts/Orders.sol\":1907:1977  require(msg.sender == owner, \"Only the owner can perform this action\") */\n      tag_109\n      jumpi\n      mload(0x40)\n      0x08c379a000000000000000000000000000000000000000000000000000000000\n      dup2\n      mstore\n      0x04\n      add\n      tag_110\n      swap1\n      tag_111\n      jump\t// in\n    tag_110:\n      mload(0x40)\n      dup1\n      swap2\n      sub\n      swap1\n      revert\n    tag_109:\n        /* \"contracts/Orders.sol\":2129:2130  1 */\n      0x01\n        /* \"contracts/Orders.sol\":2117:2125  unlocked */\n      sload(0x05)\n        /* \"contracts/Orders.sol\":2117:2130  unlocked == 1 */\n      eq\n        /* \"contracts/Orders.sol\":2109:2149  require(unlocked == 1, \"Reentrant call\") */\n      tag_113\n      jumpi\n      mload(0x40)\n      0x08c379a000000000000000000000000000000000000000000000000000000000\n      dup2\n      mstore\n      0x04\n      add\n      tag_114\n      swap1\n      tag_72\n      jump\t// in\n    tag_114:\n      mload(0x40)\n      dup1\n      swap2\n      sub\n      swap1\n      revert\n    tag_113:\n        /* \"contracts/Orders.sol\":2170:2171  0 */\n      0x00\n        /* \"contracts/Orders.sol\":2159:2167  unlocked */\n      0x05\n        /* \"contracts/Orders.sol\":2159:2171  unlocked = 0 */\n      dup2\n      swap1\n      sstore\n      pop\n        /* \"contracts/Orders.sol\":6418:6433  uint256 balance */\n      0x00\n        /* \"contracts/Orders.sol\":6436:6457  address(this).balance */\n      selfbalance\n        /* \"contracts/Orders.sol\":6418:6457  uint256 balance = address(this).balance */\n      swap1\n      pop\n        /* \"contracts/Orders.sol\":6485:6486  0 */\n      0x00\n        /* \"contracts/Orders.sol\":6475:6482  balance */\n      dup2\n        /* \"contracts/Orders.sol\":6475:6486  balance > 0 */\n      gt\n        /* \"contracts/Orders.sol\":6467:6511  require(balance > 0, \"No funds to withdraw\") */\n      tag_116\n      jumpi\n      mload(0x40)\n      0x08c379a000000000000000000000000000000000000000000000000000000000\n      dup2\n      mstore\n      0x04\n      add\n      tag_117\n      swap1\n      tag_118\n      jump\t// in\n    tag_117:\n      mload(0x40)\n      dup1\n      swap2\n      sub\n      swap1\n      revert\n    tag_116:\n        /* \"contracts/Orders.sol\":6523:6535  bool success */\n      0x00\n        /* \"contracts/Orders.sol\":6541:6546  owner */\n      dup1\n      0x00\n      swap1\n      sload\n      swap1\n      0x0100\n      exp\n      swap1\n      div\n      0xffffffffffffffffffffffffffffffffffffffff\n      and\n        /* \"contracts/Orders.sol\":6541:6551  owner.call */\n      0xffffffffffffffffffffffffffffffffffffffff\n      and\n        /* \"contracts/Orders.sol\":6559:6566  balance */\n      dup3\n        /* \"contracts/Orders.sol\":6541:6571  owner.call{value: balance}(\"\") */\n      mload(0x40)\n      tag_119\n      swap1\n      tag_87\n      jump\t// in\n    tag_119:\n      0x00\n      mload(0x40)\n      dup1\n      dup4\n      sub\n      dup2\n      dup6\n      dup8\n      gas\n      call\n      swap3\n      pop\n      pop\n      pop\n      returndatasize\n      dup1\n      0x00\n      dup2\n      eq\n      tag_122\n      jumpi\n      mload(0x40)\n      swap2\n      pop\n      and(add(returndatasize, 0x3f), not(0x1f))\n      dup3\n      add\n      0x40\n      mstore\n      returndatasize\n      dup3\n      mstore\n      returndatasize\n      0x00\n      0x20\n      dup5\n      add\n      returndatacopy\n      jump(tag_121)\n    tag_122:\n      0x60\n      swap2\n      pop\n    tag_121:\n      pop\n        /* \"contracts/Orders.sol\":6522:6571  (bool success, ) = owner.call{value: balance}(\"\") */\n      pop\n      swap1\n      pop\n        /* \"contracts/Orders.sol\":6589:6596  success */\n      dup1\n        /* \"contracts/Orders.sol\":6581:6616  require(success, \"Withdraw failed\") */\n      tag_123\n      jumpi\n      mload(0x40)\n      0x08c379a000000000000000000000000000000000000000000000000000000000\n      dup2\n      mstore\n      0x04\n      add\n      tag_124\n      swap1\n      tag_125\n      jump\t// in\n    tag_124:\n      mload(0x40)\n      dup1\n      swap2\n      sub\n      swap1\n      revert\n    tag_123:\n        /* \"contracts/Orders.sol\":6656:6661  owner */\n      0x00\n      dup1\n      sload\n      swap1\n      0x0100\n      exp\n      swap1\n      div\n      0xffffffffffffffffffffffffffffffffffffffff\n      and\n        /* \"contracts/Orders.sol\":6632:6662  FundsWithdrawn(balance, owner) */\n      0xffffffffffffffffffffffffffffffffffffffff\n      and\n      0x6141b54b56b8a52a8c6f5cd2a857f6117b18ffbf4d46bd3106f300a839cbf5ea\n        /* \"contracts/Orders.sol\":6647:6654  balance */\n      dup4\n        /* \"contracts/Orders.sol\":6632:6662  FundsWithdrawn(balance, owner) */\n      mload(0x40)\n      tag_126\n      swap2\n      swap1\n      tag_30\n      jump\t// in\n    tag_126:\n      mload(0x40)\n      dup1\n      swap2\n      sub\n      swap1\n      log2\n        /* \"contracts/Orders.sol\":6408:6669  {... */\n      pop\n      pop\n        /* \"contracts/Orders.sol\":2203:2204  1 */\n      0x01\n        /* \"contracts/Orders.sol\":2192:2200  unlocked */\n      0x05\n        /* \"contracts/Orders.sol\":2192:2204  unlocked = 1 */\n      dup2\n      swap1\n      sstore\n      pop\n        /* \"contracts/Orders.sol\":6351:6669  function withdrawFunds() external onlyOwner nonReentrant {... */\n      jump\t// out\n        /* \"contracts/Orders.sol\":6966:7164  function tokenOfOwnerByIndex(address _owner, uint256 index)... */\n    tag_28:\n        /* \"contracts/Orders.sol\":7071:7086  uint256 tokenId */\n      0x00\n        /* \"contracts/Orders.sol\":7109:7122  nftEnumerable */\n      0x04\n      0x00\n      swap1\n      sload\n      swap1\n      0x0100\n      exp\n      swap1\n      div\n      0xffffffffffffffffffffffffffffffffffffffff\n      and\n        /* \"contracts/Orders.sol\":7109:7142  nftEnumerable.tokenOfOwnerByIndex */\n      0xffffffffffffffffffffffffffffffffffffffff\n      and\n      0x2f745c59\n        /* \"contracts/Orders.sol\":7143:7149  _owner */\n      dup5\n        /* \"contracts/Orders.sol\":7151:7156  index */\n      dup5\n        /* \"contracts/Orders.sol\":7109:7157  nftEnumerable.tokenOfOwnerByIndex(_owner, index) */\n      mload(0x40)\n      dup4\n      0xffffffff\n      and\n      0xe0\n      shl\n      dup2\n      mstore\n      0x04\n      add\n      tag_128\n      swap3\n      swap2\n      swap1\n      tag_129\n      jump\t// in\n    tag_128:\n      0x20\n      mload(0x40)\n      dup1\n      dup4\n      sub\n      dup2\n      dup7\n      gas\n      staticcall\n      iszero\n      dup1\n      iszero\n      tag_131\n      jumpi\n      returndatasize\n      0x00\n      dup1\n      returndatacopy\n      revert(0x00, returndatasize)\n    tag_131:\n      pop\n      pop\n      pop\n      pop\n      mload(0x40)\n      returndatasize\n      not(0x1f)\n      0x1f\n      dup3\n      add\n      and\n      dup3\n      add\n      dup1\n      0x40\n      mstore\n      pop\n      dup2\n      add\n      swap1\n      tag_132\n      swap2\n      swap1\n      tag_133\n      jump\t// in\n    tag_132:\n        /* \"contracts/Orders.sol\":7102:7157  return nftEnumerable.tokenOfOwnerByIndex(_owner, index) */\n      swap1\n      pop\n        /* \"contracts/Orders.sol\":6966:7164  function tokenOfOwnerByIndex(address _owner, uint256 index)... */\n      swap3\n      swap2\n      pop\n      pop\n      jump\t// out\n        /* \"contracts/Orders.sol\":5555:5904  function cancelListing(uint256 _listingId) external {... */\n    tag_34:\n        /* \"contracts/Orders.sol\":5617:5640  Listing storage listing */\n      0x00\n        /* \"contracts/Orders.sol\":5643:5651  listings */\n      0x02\n        /* \"contracts/Orders.sol\":5643:5663  listings[_listingId] */\n      0x00\n        /* \"contracts/Orders.sol\":5652:5662  _listingId */\n      dup4\n        /* \"contracts/Orders.sol\":5643:5663  listings[_listingId] */\n      dup2\n      mstore\n      0x20\n      add\n      swap1\n      dup2\n      mstore\n      0x20\n      add\n      0x00\n      keccak256\n        /* \"contracts/Orders.sol\":5617:5663  Listing storage listing = listings[_listingId] */\n      swap1\n      pop\n        /* \"contracts/Orders.sol\":5697:5698  0 */\n      0x00\n        /* \"contracts/Orders.sol\":5681:5688  listing */\n      dup2\n        /* \"contracts/Orders.sol\":5681:5694  listing.price */\n      0x01\n      add\n      0x10\n      swap1\n      sload\n      swap1\n      0x0100\n      exp\n      swap1\n      div\n      0xffffffffffffffffffffffffffffffff\n      and\n        /* \"contracts/Orders.sol\":5681:5698  listing.price > 0 */\n      0xffffffffffffffffffffffffffffffff\n      and\n      gt\n        /* \"contracts/Orders.sol\":5673:5730  require(listing.price > 0, \"Invalid or inactive listing\") */\n      tag_135\n      jumpi\n      mload(0x40)\n      0x08c379a000000000000000000000000000000000000000000000000000000000\n      dup2\n      mstore\n      0x04\n      add\n      tag_136\n      swap1\n      tag_76\n      jump\t// in\n    tag_136:\n      mload(0x40)\n      dup1\n      swap2\n      sub\n      swap1\n      revert\n    tag_135:\n        /* \"contracts/Orders.sol\":5766:5776  msg.sender */\n      caller\n        /* \"contracts/Orders.sol\":5748:5776  listing.seller == msg.sender */\n      0xffffffffffffffffffffffffffffffffffffffff\n      and\n        /* \"contracts/Orders.sol\":5748:5755  listing */\n      dup2\n        /* \"contracts/Orders.sol\":5748:5762  listing.seller */\n      0x00\n      add\n      0x00\n      swap1\n      sload\n      swap1\n      0x0100\n      exp\n      swap1\n      div\n      0xffffffffffffffffffffffffffffffffffffffff\n      and\n        /* \"contracts/Orders.sol\":5748:5776  listing.seller == msg.sender */\n      0xffffffffffffffffffffffffffffffffffffffff\n      and\n      eq\n        /* \"contracts/Orders.sol\":5740:5803  require(listing.seller == msg.sender, \"You are not the seller\") */\n      tag_137\n      jumpi\n      mload(0x40)\n      0x08c379a000000000000000000000000000000000000000000000000000000000\n      dup2\n      mstore\n      0x04\n      add\n      tag_138\n      swap1\n      tag_139\n      jump\t// in\n    tag_138:\n      mload(0x40)\n      dup1\n      swap2\n      sub\n      swap1\n      revert\n    tag_137:\n        /* \"contracts/Orders.sol\":5821:5829  listings */\n      0x02\n        /* \"contracts/Orders.sol\":5821:5841  listings[_listingId] */\n      0x00\n        /* \"contracts/Orders.sol\":5830:5840  _listingId */\n      dup4\n        /* \"contracts/Orders.sol\":5821:5841  listings[_listingId] */\n      dup2\n      mstore\n      0x20\n      add\n      swap1\n      dup2\n      mstore\n      0x20\n      add\n      0x00\n      keccak256\n      0x00\n        /* \"contracts/Orders.sol\":5814:5841  delete listings[_listingId] */\n      dup1\n      dup3\n      add\n      exp(0x0100, 0x00)\n      dup2\n      sload\n      swap1\n      0xffffffffffffffffffffffffffffffffffffffff\n      mul\n      not\n      and\n      swap1\n      sstore\n      0x01\n      dup3\n      add\n      exp(0x0100, 0x00)\n      dup2\n      sload\n      swap1\n      0xffffffffffffffffffffffffffffffff\n      mul\n      not\n      and\n      swap1\n      sstore\n      0x01\n      dup3\n      add\n      exp(0x0100, 0x10)\n      dup2\n      sload\n      swap1\n      0xffffffffffffffffffffffffffffffff\n      mul\n      not\n      and\n      swap1\n      sstore\n      pop\n      pop\n        /* \"contracts/Orders.sol\":5886:5896  msg.sender */\n      caller\n        /* \"contracts/Orders.sol\":5857:5897  ListingCancelled(_listingId, msg.sender) */\n      0xffffffffffffffffffffffffffffffffffffffff\n      and\n        /* \"contracts/Orders.sol\":5874:5884  _listingId */\n      dup3\n        /* \"contracts/Orders.sol\":5857:5897  ListingCancelled(_listingId, msg.sender) */\n      0x8e25282255ab31897df2b0456bb993ac7f84d376861aefd84901d2d63a7428a2\n      mload(0x40)\n      mload(0x40)\n      dup1\n      swap2\n      sub\n      swap1\n      log3\n        /* \"contracts/Orders.sol\":5607:5904  {... */\n      pop\n        /* \"contracts/Orders.sol\":5555:5904  function cancelListing(uint256 _listingId) external {... */\n      pop\n      jump\t// out\n        /* \"contracts/Orders.sol\":6041:6275  function setCommissionPercent(uint256 _newPercent) external onlyOwner {... */\n    tag_38:\n        /* \"contracts/Orders.sol\":1929:1934  owner */\n      0x00\n      dup1\n      sload\n      swap1\n      0x0100\n      exp\n      swap1\n      div\n      0xffffffffffffffffffffffffffffffffffffffff\n      and\n        /* \"contracts/Orders.sol\":1915:1934  msg.sender == owner */\n      0xffffffffffffffffffffffffffffffffffffffff\n      and\n        /* \"contracts/Orders.sol\":1915:1925  msg.sender */\n      caller\n        /* \"contracts/Orders.sol\":1915:1934  msg.sender == owner */\n      0xffffffffffffffffffffffffffffffffffffffff\n      and\n      eq\n        /* \"contracts/Orders.sol\":1907:1977  require(msg.sender == owner, \"Only the owner can perform this action\") */\n      tag_141\n      jumpi\n      mload(0x40)\n      0x08c379a000000000000000000000000000000000000000000000000000000000\n      dup2\n      mstore\n      0x04\n      add\n      tag_142\n      swap1\n      tag_111\n      jump\t// in\n    tag_142:\n      mload(0x40)\n      dup1\n      swap2\n      sub\n      swap1\n      revert\n    tag_141:\n        /* \"contracts/Orders.sol\":6144:6147  100 */\n      0x64\n        /* \"contracts/Orders.sol\":6129:6140  _newPercent */\n      dup2\n        /* \"contracts/Orders.sol\":6129:6147  _newPercent <= 100 */\n      gt\n      iszero\n        /* \"contracts/Orders.sol\":6121:6181  require(_newPercent <= 100, \"Commission cannot exceed 100%\") */\n      tag_144\n      jumpi\n      mload(0x40)\n      0x08c379a000000000000000000000000000000000000000000000000000000000\n      dup2\n      mstore\n      0x04\n      add\n      tag_145\n      swap1\n      tag_146\n      jump\t// in\n    tag_145:\n      mload(0x40)\n      dup1\n      swap2\n      sub\n      swap1\n      revert\n    tag_144:\n        /* \"contracts/Orders.sol\":6211:6222  _newPercent */\n      dup1\n        /* \"contracts/Orders.sol\":6191:6208  commissionPercent */\n      0x01\n        /* \"contracts/Orders.sol\":6191:6222  commissionPercent = _newPercent */\n      dup2\n      swap1\n      sstore\n      pop\n        /* \"contracts/Orders.sol\":6238:6268  CommissionUpdated(_newPercent) */\n      0x13f60dd2b588490608c3ff1932a3daeb4087f3d5af04b97e5c2a16b5b4c0302e\n        /* \"contracts/Orders.sol\":6256:6267  _newPercent */\n      dup2\n        /* \"contracts/Orders.sol\":6238:6268  CommissionUpdated(_newPercent) */\n      mload(0x40)\n      tag_147\n      swap2\n      swap1\n      tag_30\n      jump\t// in\n    tag_147:\n      mload(0x40)\n      dup1\n      swap2\n      sub\n      swap1\n      log1\n        /* \"contracts/Orders.sol\":6041:6275  function setCommissionPercent(uint256 _newPercent) external onlyOwner {... */\n      pop\n      jump\t// out\n        /* \"contracts/Orders.sol\":961:999  IERC721Enumerable public nftEnumerable */\n    tag_41:\n      0x04\n      0x00\n      swap1\n      sload\n      swap1\n      0x0100\n      exp\n      swap1\n      div\n      0xffffffffffffffffffffffffffffffffffffffff\n      and\n      dup2\n      jump\t// out\n        /* \"contracts/Orders.sol\":666:698  uint256 public commissionPercent */\n    tag_46:\n      sload(0x01)\n      dup2\n      jump\t// out\n        /* \"contracts/Orders.sol\":565:593  address payable public owner */\n    tag_50:\n      0x00\n      dup1\n      sload\n      swap1\n      0x0100\n      exp\n      swap1\n      div\n      0xffffffffffffffffffffffffffffffffffffffff\n      and\n      dup2\n      jump\t// out\n        /* \"contracts/Orders.sol\":3012:4111  function createListing(uint128 _tokenId, uint128 _price) external {... */\n    tag_57:\n        /* \"contracts/Orders.sol\":3105:3106  0 */\n      0x00\n        /* \"contracts/Orders.sol\":3096:3102  _price */\n      dup2\n        /* \"contracts/Orders.sol\":3096:3106  _price > 0 */\n      0xffffffffffffffffffffffffffffffff\n      and\n      gt\n        /* \"contracts/Orders.sol\":3088:3139  require(_price > 0, \"Price must be greater than 0\") */\n      tag_149\n      jumpi\n      mload(0x40)\n      0x08c379a000000000000000000000000000000000000000000000000000000000\n      dup2\n      mstore\n      0x04\n      add\n      tag_150\n      swap1\n      tag_151\n      jump\t// in\n    tag_150:\n      mload(0x40)\n      dup1\n      swap2\n      sub\n      swap1\n      revert\n    tag_149:\n        /* \"contracts/Orders.sol\":3154:3181  Debug(\"Passed price check\") */\n      0x7cdb51e9dbbc205231228146c3246e7f914aa6d4a33170e43ecc8e3593481d1a\n      mload(0x40)\n      tag_152\n      swap1\n      tag_153\n      jump\t// in\n    tag_152:\n      mload(0x40)\n      dup1\n      swap2\n      sub\n      swap1\n      log1\n        /* \"contracts/Orders.sol\":3192:3210  address tokenOwner */\n      0x00\n        /* \"contracts/Orders.sol\":3213:3224  nftContract */\n      0x03\n      0x00\n      swap1\n      sload\n      swap1\n      0x0100\n      exp\n      swap1\n      div\n      0xffffffffffffffffffffffffffffffffffffffff\n      and\n        /* \"contracts/Orders.sol\":3213:3232  nftContract.ownerOf */\n      0xffffffffffffffffffffffffffffffffffffffff\n      and\n      0x6352211e\n        /* \"contracts/Orders.sol\":3233:3241  _tokenId */\n      dup5\n        /* \"contracts/Orders.sol\":3213:3242  nftContract.ownerOf(_tokenId) */\n      mload(0x40)\n      dup3\n      0xffffffff\n      and\n      0xe0\n      shl\n      dup2\n      mstore\n      0x04\n      add\n      tag_154\n      swap2\n      swap1\n      tag_155\n      jump\t// in\n    tag_154:\n      0x20\n      mload(0x40)\n      dup1\n      dup4\n      sub\n      dup2\n      dup7\n      gas\n      staticcall\n      iszero\n      dup1\n      iszero\n      tag_157\n      jumpi\n      returndatasize\n      0x00\n      dup1\n      returndatacopy\n      revert(0x00, returndatasize)\n    tag_157:\n      pop\n      pop\n      pop\n      pop\n      mload(0x40)\n      returndatasize\n      not(0x1f)\n      0x1f\n      dup3\n      add\n      and\n      dup3\n      add\n      dup1\n      0x40\n      mstore\n      pop\n      dup2\n      add\n      swap1\n      tag_158\n      swap2\n      swap1\n      tag_159\n      jump\t// in\n    tag_158:\n        /* \"contracts/Orders.sol\":3192:3242  address tokenOwner = nftContract.ownerOf(_tokenId) */\n      swap1\n      pop\n        /* \"contracts/Orders.sol\":3257:3281  Debug(\"Owner retrieved\") */\n      0x7cdb51e9dbbc205231228146c3246e7f914aa6d4a33170e43ecc8e3593481d1a\n      mload(0x40)\n      tag_160\n      swap1\n      tag_161\n      jump\t// in\n    tag_160:\n      mload(0x40)\n      dup1\n      swap2\n      sub\n      swap1\n      log1\n        /* \"contracts/Orders.sol\":3327:3337  msg.sender */\n      caller\n        /* \"contracts/Orders.sol\":3313:3337  tokenOwner == msg.sender */\n      0xffffffffffffffffffffffffffffffffffffffff\n      and\n        /* \"contracts/Orders.sol\":3313:3323  tokenOwner */\n      dup2\n        /* \"contracts/Orders.sol\":3313:3337  tokenOwner == msg.sender */\n      0xffffffffffffffffffffffffffffffffffffffff\n      and\n      eq\n        /* \"contracts/Orders.sol\":3292:3398  require(... */\n      tag_162\n      jumpi\n      mload(0x40)\n      0x08c379a000000000000000000000000000000000000000000000000000000000\n      dup2\n      mstore\n      0x04\n      add\n      tag_163\n      swap1\n      tag_164\n      jump\t// in\n    tag_163:\n      mload(0x40)\n      dup1\n      swap2\n      sub\n      swap1\n      revert\n    tag_162:\n        /* \"contracts/Orders.sol\":3413:3440  Debug(\"Ownership verified\") */\n      0x7cdb51e9dbbc205231228146c3246e7f914aa6d4a33170e43ecc8e3593481d1a\n      mload(0x40)\n      tag_165\n      swap1\n      tag_166\n      jump\t// in\n    tag_165:\n      mload(0x40)\n      dup1\n      swap2\n      sub\n      swap1\n      log1\n        /* \"contracts/Orders.sol\":3451:3466  bool isApproved */\n      0x00\n        /* \"contracts/Orders.sol\":3515:3519  this */\n      address\n        /* \"contracts/Orders.sol\":3470:3520  nftContract.getApproved(_tokenId) == address(this) */\n      0xffffffffffffffffffffffffffffffffffffffff\n      and\n        /* \"contracts/Orders.sol\":3470:3481  nftContract */\n      0x03\n      0x00\n      swap1\n      sload\n      swap1\n      0x0100\n      exp\n      swap1\n      div\n      0xffffffffffffffffffffffffffffffffffffffff\n      and\n        /* \"contracts/Orders.sol\":3470:3493  nftContract.getApproved */\n      0xffffffffffffffffffffffffffffffffffffffff\n      and\n      0x081812fc\n        /* \"contracts/Orders.sol\":3494:3502  _tokenId */\n      dup7\n        /* \"contracts/Orders.sol\":3470:3503  nftContract.getApproved(_tokenId) */\n      mload(0x40)\n      dup3\n      0xffffffff\n      and\n      0xe0\n      shl\n      dup2\n      mstore\n      0x04\n      add\n      tag_167\n      swap2\n      swap1\n      tag_155\n      jump\t// in\n    tag_167:\n      0x20\n      mload(0x40)\n      dup1\n      dup4\n      sub\n      dup2\n      dup7\n      gas\n      staticcall\n      iszero\n      dup1\n      iszero\n      tag_169\n      jumpi\n      returndatasize\n      0x00\n      dup1\n      returndatacopy\n      revert(0x00, returndatasize)\n    tag_169:\n      pop\n      pop\n      pop\n      pop\n      mload(0x40)\n      returndatasize\n      not(0x1f)\n      0x1f\n      dup3\n      add\n      and\n      dup3\n      add\n      dup1\n      0x40\n      mstore\n      pop\n      dup2\n      add\n      swap1\n      tag_170\n      swap2\n      swap1\n      tag_159\n      jump\t// in\n    tag_170:\n        /* \"contracts/Orders.sol\":3470:3520  nftContract.getApproved(_tokenId) == address(this) */\n      0xffffffffffffffffffffffffffffffffffffffff\n      and\n      eq\n        /* \"contracts/Orders.sol\":3470:3591  nftContract.getApproved(_tokenId) == address(this) ||... */\n      dup1\n      tag_171\n      jumpi\n      pop\n        /* \"contracts/Orders.sol\":3536:3547  nftContract */\n      0x03\n      0x00\n      swap1\n      sload\n      swap1\n      0x0100\n      exp\n      swap1\n      div\n      0xffffffffffffffffffffffffffffffffffffffff\n      and\n        /* \"contracts/Orders.sol\":3536:3564  nftContract.isApprovedForAll */\n      0xffffffffffffffffffffffffffffffffffffffff\n      and\n      0xe985e9c5\n        /* \"contracts/Orders.sol\":3565:3575  msg.sender */\n      caller\n        /* \"contracts/Orders.sol\":3585:3589  this */\n      address\n        /* \"contracts/Orders.sol\":3536:3591  nftContract.isApprovedForAll(msg.sender, address(this)) */\n      mload(0x40)\n      dup4\n      0xffffffff\n      and\n      0xe0\n      shl\n      dup2\n      mstore\n      0x04\n      add\n      tag_172\n      swap3\n      swap2\n      swap1\n      tag_173\n      jump\t// in\n    tag_172:\n      0x20\n      mload(0x40)\n      dup1\n      dup4\n      sub\n      dup2\n      dup7\n      gas\n      staticcall\n      iszero\n      dup1\n      iszero\n      tag_175\n      jumpi\n      returndatasize\n      0x00\n      dup1\n      returndatacopy\n      revert(0x00, returndatasize)\n    tag_175:\n      pop\n      pop\n      pop\n      pop\n      mload(0x40)\n      returndatasize\n      not(0x1f)\n      0x1f\n      dup3\n      add\n      and\n      dup3\n      add\n      dup1\n      0x40\n      mstore\n      pop\n      dup2\n      add\n      swap1\n      tag_176\n      swap2\n      swap1\n      tag_177\n      jump\t// in\n    tag_176:\n        /* \"contracts/Orders.sol\":3470:3591  nftContract.getApproved(_tokenId) == address(this) ||... */\n    tag_171:\n        /* \"contracts/Orders.sol\":3451:3592  bool isApproved = (nftContract.getApproved(_tokenId) == address(this) ||... */\n      swap1\n      pop\n        /* \"contracts/Orders.sol\":3623:3633  isApproved */\n      dup1\n        /* \"contracts/Orders.sol\":3602:3709  require(... */\n      tag_178\n      jumpi\n      mload(0x40)\n      0x08c379a000000000000000000000000000000000000000000000000000000000\n      dup2\n      mstore\n      0x04\n      add\n      tag_179\n      swap1\n      tag_180\n      jump\t// in\n    tag_179:\n      mload(0x40)\n      dup1\n      swap2\n      sub\n      swap1\n      revert\n    tag_178:\n        /* \"contracts/Orders.sol\":3724:3750  Debug(\"Approval verified\") */\n      0x7cdb51e9dbbc205231228146c3246e7f914aa6d4a33170e43ecc8e3593481d1a\n      mload(0x40)\n      tag_181\n      swap1\n      tag_182\n      jump\t// in\n    tag_181:\n      mload(0x40)\n      dup1\n      swap2\n      sub\n      swap1\n      log1\n        /* \"contracts/Orders.sol\":3761:3771  uint256 id */\n      0x00\n        /* \"contracts/Orders.sol\":3809:3817  _tokenId */\n      dup5\n        /* \"contracts/Orders.sol\":3819:3829  msg.sender */\n      caller\n        /* \"contracts/Orders.sol\":3792:3830  abi.encodePacked(_tokenId, msg.sender) */\n      add(0x20, mload(0x40))\n      tag_183\n      swap3\n      swap2\n      swap1\n      tag_184\n      jump\t// in\n    tag_183:\n      mload(0x40)\n      0x20\n      dup2\n      dup4\n      sub\n      sub\n      dup2\n      mstore\n      swap1\n      0x40\n      mstore\n        /* \"contracts/Orders.sol\":3782:3831  keccak256(abi.encodePacked(_tokenId, msg.sender)) */\n      dup1\n      mload\n      swap1\n      0x20\n      add\n      keccak256\n        /* \"contracts/Orders.sol\":3774:3832  uint256(keccak256(abi.encodePacked(_tokenId, msg.sender))) */\n      0x00\n      shr\n        /* \"contracts/Orders.sol\":3761:3832  uint256 id = uint256(keccak256(abi.encodePacked(_tokenId, msg.sender))) */\n      swap1\n      pop\n        /* \"contracts/Orders.sol\":3881:3882  0 */\n      0x00\n        /* \"contracts/Orders.sol\":3850:3883  listings[id].seller == address(0) */\n      0xffffffffffffffffffffffffffffffffffffffff\n      and\n        /* \"contracts/Orders.sol\":3850:3858  listings */\n      0x02\n        /* \"contracts/Orders.sol\":3850:3862  listings[id] */\n      0x00\n        /* \"contracts/Orders.sol\":3859:3861  id */\n      dup4\n        /* \"contracts/Orders.sol\":3850:3862  listings[id] */\n      dup2\n      mstore\n      0x20\n      add\n      swap1\n      dup2\n      mstore\n      0x20\n      add\n      0x00\n      keccak256\n        /* \"contracts/Orders.sol\":3850:3869  listings[id].seller */\n      0x00\n      add\n      0x00\n      swap1\n      sload\n      swap1\n      0x0100\n      exp\n      swap1\n      div\n      0xffffffffffffffffffffffffffffffffffffffff\n      and\n        /* \"contracts/Orders.sol\":3850:3883  listings[id].seller == address(0) */\n      0xffffffffffffffffffffffffffffffffffffffff\n      and\n      eq\n        /* \"contracts/Orders.sol\":3842:3910  require(listings[id].seller == address(0), \"Listing already exists\") */\n      tag_185\n      jumpi\n      mload(0x40)\n      0x08c379a000000000000000000000000000000000000000000000000000000000\n      dup2\n      mstore\n      0x04\n      add\n      tag_186\n      swap1\n      tag_187\n      jump\t// in\n    tag_186:\n      mload(0x40)\n      dup1\n      swap2\n      sub\n      swap1\n      revert\n    tag_185:\n        /* \"contracts/Orders.sol\":3925:3960  Debug(\"Unique listing ID verified\") */\n      0x7cdb51e9dbbc205231228146c3246e7f914aa6d4a33170e43ecc8e3593481d1a\n      mload(0x40)\n      tag_188\n      swap1\n      tag_189\n      jump\t// in\n    tag_188:\n      mload(0x40)\n      dup1\n      swap2\n      sub\n      swap1\n      log1\n        /* \"contracts/Orders.sol\":3986:4041  Listing(msg.sender, uint128(_tokenId), uint128(_price)) */\n      mload(0x40)\n      dup1\n      0x60\n      add\n      0x40\n      mstore\n      dup1\n        /* \"contracts/Orders.sol\":3994:4004  msg.sender */\n      caller\n        /* \"contracts/Orders.sol\":3986:4041  Listing(msg.sender, uint128(_tokenId), uint128(_price)) */\n      0xffffffffffffffffffffffffffffffffffffffff\n      and\n      dup2\n      mstore\n      0x20\n      add\n        /* \"contracts/Orders.sol\":4014:4022  _tokenId */\n      dup7\n        /* \"contracts/Orders.sol\":3986:4041  Listing(msg.sender, uint128(_tokenId), uint128(_price)) */\n      0xffffffffffffffffffffffffffffffff\n      and\n      dup2\n      mstore\n      0x20\n      add\n        /* \"contracts/Orders.sol\":4033:4039  _price */\n      dup6\n        /* \"contracts/Orders.sol\":3986:4041  Listing(msg.sender, uint128(_tokenId), uint128(_price)) */\n      0xffffffffffffffffffffffffffffffff\n      and\n      dup2\n      mstore\n      pop\n        /* \"contracts/Orders.sol\":3971:3979  listings */\n      0x02\n        /* \"contracts/Orders.sol\":3971:3983  listings[id] */\n      0x00\n        /* \"contracts/Orders.sol\":3980:3982  id */\n      dup4\n        /* \"contracts/Orders.sol\":3971:3983  listings[id] */\n      dup2\n      mstore\n      0x20\n      add\n      swap1\n      dup2\n      mstore\n      0x20\n      add\n      0x00\n      keccak256\n        /* \"contracts/Orders.sol\":3971:4041  listings[id] = Listing(msg.sender, uint128(_tokenId), uint128(_price)) */\n      0x00\n      dup3\n      add\n      mload\n      dup2\n      0x00\n      add\n      exp(0x0100, 0x00)\n      dup2\n      sload\n      dup2\n      0xffffffffffffffffffffffffffffffffffffffff\n      mul\n      not\n      and\n      swap1\n      dup4\n      0xffffffffffffffffffffffffffffffffffffffff\n      and\n      mul\n      or\n      swap1\n      sstore\n      pop\n      0x20\n      dup3\n      add\n      mload\n      dup2\n      0x01\n      add\n      exp(0x0100, 0x00)\n      dup2\n      sload\n      dup2\n      0xffffffffffffffffffffffffffffffff\n      mul\n      not\n      and\n      swap1\n      dup4\n      0xffffffffffffffffffffffffffffffff\n      and\n      mul\n      or\n      swap1\n      sstore\n      pop\n      0x40\n      dup3\n      add\n      mload\n      dup2\n      0x01\n      add\n      exp(0x0100, 0x10)\n      dup2\n      sload\n      dup2\n      0xffffffffffffffffffffffffffffffff\n      mul\n      not\n      and\n      swap1\n      dup4\n      0xffffffffffffffffffffffffffffffff\n      and\n      mul\n      or\n      swap1\n      sstore\n      pop\n      swap1\n      pop\n      pop\n        /* \"contracts/Orders.sol\":4075:4085  msg.sender */\n      caller\n        /* \"contracts/Orders.sol\":4056:4104  ListingCreated(id, msg.sender, _tokenId, _price) */\n      0xffffffffffffffffffffffffffffffffffffffff\n      and\n        /* \"contracts/Orders.sol\":4071:4073  id */\n      dup2\n        /* \"contracts/Orders.sol\":4056:4104  ListingCreated(id, msg.sender, _tokenId, _price) */\n      0x12dc294b81a709d694b1337a350a12a00076c19a77a25aab67a5f0c07e0f164d\n        /* \"contracts/Orders.sol\":4087:4095  _tokenId */\n      dup8\n        /* \"contracts/Orders.sol\":4097:4103  _price */\n      dup8\n        /* \"contracts/Orders.sol\":4056:4104  ListingCreated(id, msg.sender, _tokenId, _price) */\n      mload(0x40)\n      tag_190\n      swap3\n      swap2\n      swap1\n      tag_107\n      jump\t// in\n    tag_190:\n      mload(0x40)\n      dup1\n      swap2\n      sub\n      swap1\n      log3\n        /* \"contracts/Orders.sol\":3078:4111  {... */\n      pop\n      pop\n      pop\n        /* \"contracts/Orders.sol\":3012:4111  function createListing(uint128 _tokenId, uint128 _price) external {... */\n      pop\n      pop\n      jump\t// out\n        /* \"contracts/Orders.sol\":865:891  IERC721 public nftContract */\n    tag_60:\n      0x03\n      0x00\n      swap1\n      sload\n      swap1\n      0x0100\n      exp\n      swap1\n      div\n      0xffffffffffffffffffffffffffffffffffffffff\n      and\n      dup2\n      jump\t// out\n        /* \"contracts/Orders.sol\":758:801  mapping(uint256 => Listing) public listings */\n    tag_66:\n      mstore(0x20, 0x02)\n      dup1\n      0x00\n      mstore\n      keccak256(0x00, 0x40)\n      0x00\n      swap2\n      pop\n      swap1\n      pop\n      dup1\n      0x00\n      add\n      0x00\n      swap1\n      sload\n      swap1\n      0x0100\n      exp\n      swap1\n      div\n      0xffffffffffffffffffffffffffffffffffffffff\n      and\n      swap1\n      dup1\n      0x01\n      add\n      0x00\n      swap1\n      sload\n      swap1\n      0x0100\n      exp\n      swap1\n      div\n      0xffffffffffffffffffffffffffffffff\n      and\n      swap1\n      dup1\n      0x01\n      add\n      0x10\n      swap1\n      sload\n      swap1\n      0x0100\n      exp\n      swap1\n      div\n      0xffffffffffffffffffffffffffffffff\n      and\n      swap1\n      pop\n      dup4\n      jump\t// out\n        /* \"#utility.yul\":88:205   */\n    tag_192:\n        /* \"#utility.yul\":197:198   */\n      0x00\n        /* \"#utility.yul\":194:195   */\n      dup1\n        /* \"#utility.yul\":187:199   */\n      revert\n        /* \"#utility.yul\":334:411   */\n    tag_194:\n        /* \"#utility.yul\":371:378   */\n      0x00\n        /* \"#utility.yul\":400:405   */\n      dup2\n        /* \"#utility.yul\":389:405   */\n      swap1\n      pop\n        /* \"#utility.yul\":334:411   */\n      swap2\n      swap1\n      pop\n      jump\t// out\n        /* \"#utility.yul\":417:539   */\n    tag_195:\n        /* \"#utility.yul\":490:514   */\n      tag_280\n        /* \"#utility.yul\":508:513   */\n      dup2\n        /* \"#utility.yul\":490:514   */\n      tag_194\n      jump\t// in\n    tag_280:\n        /* \"#utility.yul\":483:488   */\n      dup2\n        /* \"#utility.yul\":480:515   */\n      eq\n        /* \"#utility.yul\":470:533   */\n      tag_281\n      jumpi\n        /* \"#utility.yul\":529:530   */\n      0x00\n        /* \"#utility.yul\":526:527   */\n      dup1\n        /* \"#utility.yul\":519:531   */\n      revert\n        /* \"#utility.yul\":470:533   */\n    tag_281:\n        /* \"#utility.yul\":417:539   */\n      pop\n      jump\t// out\n        /* \"#utility.yul\":545:684   */\n    tag_196:\n        /* \"#utility.yul\":591:596   */\n      0x00\n        /* \"#utility.yul\":629:635   */\n      dup2\n        /* \"#utility.yul\":616:636   */\n      calldataload\n        /* \"#utility.yul\":607:636   */\n      swap1\n      pop\n        /* \"#utility.yul\":645:678   */\n      tag_283\n        /* \"#utility.yul\":672:677   */\n      dup2\n        /* \"#utility.yul\":645:678   */\n      tag_195\n      jump\t// in\n    tag_283:\n        /* \"#utility.yul\":545:684   */\n      swap3\n      swap2\n      pop\n      pop\n      jump\t// out\n        /* \"#utility.yul\":690:1019   */\n    tag_19:\n        /* \"#utility.yul\":749:755   */\n      0x00\n        /* \"#utility.yul\":798:800   */\n      0x20\n        /* \"#utility.yul\":786:795   */\n      dup3\n        /* \"#utility.yul\":777:784   */\n      dup5\n        /* \"#utility.yul\":773:796   */\n      sub\n        /* \"#utility.yul\":769:801   */\n      slt\n        /* \"#utility.yul\":766:885   */\n      iszero\n      tag_285\n      jumpi\n        /* \"#utility.yul\":804:883   */\n      tag_286\n      tag_192\n      jump\t// in\n    tag_286:\n        /* \"#utility.yul\":766:885   */\n    tag_285:\n        /* \"#utility.yul\":924:925   */\n      0x00\n        /* \"#utility.yul\":949:1002   */\n      tag_287\n        /* \"#utility.yul\":994:1001   */\n      dup5\n        /* \"#utility.yul\":985:991   */\n      dup3\n        /* \"#utility.yul\":974:983   */\n      dup6\n        /* \"#utility.yul\":970:992   */\n      add\n        /* \"#utility.yul\":949:1002   */\n      tag_196\n      jump\t// in\n    tag_287:\n        /* \"#utility.yul\":939:1002   */\n      swap2\n      pop\n        /* \"#utility.yul\":895:1012   */\n      pop\n        /* \"#utility.yul\":690:1019   */\n      swap3\n      swap2\n      pop\n      pop\n      jump\t// out\n        /* \"#utility.yul\":1025:1151   */\n    tag_197:\n        /* \"#utility.yul\":1062:1069   */\n      0x00\n        /* \"#utility.yul\":1102:1144   */\n      0xffffffffffffffffffffffffffffffffffffffff\n        /* \"#utility.yul\":1095:1100   */\n      dup3\n        /* \"#utility.yul\":1091:1145   */\n      and\n        /* \"#utility.yul\":1080:1145   */\n      swap1\n      pop\n        /* \"#utility.yul\":1025:1151   */\n      swap2\n      swap1\n      pop\n      jump\t// out\n        /* \"#utility.yul\":1157:1253   */\n    tag_198:\n        /* \"#utility.yul\":1194:1201   */\n      0x00\n        /* \"#utility.yul\":1223:1247   */\n      tag_290\n        /* \"#utility.yul\":1241:1246   */\n      dup3\n        /* \"#utility.yul\":1223:1247   */\n      tag_197\n      jump\t// in\n    tag_290:\n        /* \"#utility.yul\":1212:1247   */\n      swap1\n      pop\n        /* \"#utility.yul\":1157:1253   */\n      swap2\n      swap1\n      pop\n      jump\t// out\n        /* \"#utility.yul\":1259:1381   */\n    tag_199:\n        /* \"#utility.yul\":1332:1356   */\n      tag_292\n        /* \"#utility.yul\":1350:1355   */\n      dup2\n        /* \"#utility.yul\":1332:1356   */\n      tag_198\n      jump\t// in\n    tag_292:\n        /* \"#utility.yul\":1325:1330   */\n      dup2\n        /* \"#utility.yul\":1322:1357   */\n      eq\n        /* \"#utility.yul\":1312:1375   */\n      tag_293\n      jumpi\n        /* \"#utility.yul\":1371:1372   */\n      0x00\n        /* \"#utility.yul\":1368:1369   */\n      dup1\n        /* \"#utility.yul\":1361:1373   */\n      revert\n        /* \"#utility.yul\":1312:1375   */\n    tag_293:\n        /* \"#utility.yul\":1259:1381   */\n      pop\n      jump\t// out\n        /* \"#utility.yul\":1387:1526   */\n    tag_200:\n        /* \"#utility.yul\":1433:1438   */\n      0x00\n        /* \"#utility.yul\":1471:1477   */\n      dup2\n        /* \"#utility.yul\":1458:1478   */\n      calldataload\n        /* \"#utility.yul\":1449:1478   */\n      swap1\n      pop\n        /* \"#utility.yul\":1487:1520   */\n      tag_295\n        /* \"#utility.yul\":1514:1519   */\n      dup2\n        /* \"#utility.yul\":1487:1520   */\n      tag_199\n      jump\t// in\n    tag_295:\n        /* \"#utility.yul\":1387:1526   */\n      swap3\n      swap2\n      pop\n      pop\n      jump\t// out\n        /* \"#utility.yul\":1532:2006   */\n    tag_27:\n        /* \"#utility.yul\":1600:1606   */\n      0x00\n        /* \"#utility.yul\":1608:1614   */\n      dup1\n        /* \"#utility.yul\":1657:1659   */\n      0x40\n        /* \"#utility.yul\":1645:1654   */\n      dup4\n        /* \"#utility.yul\":1636:1643   */\n      dup6\n        /* \"#utility.yul\":1632:1655   */\n      sub\n        /* \"#utility.yul\":1628:1660   */\n      slt\n        /* \"#utility.yul\":1625:1744   */\n      iszero\n      tag_297\n      jumpi\n        /* \"#utility.yul\":1663:1742   */\n      tag_298\n      tag_192\n      jump\t// in\n    tag_298:\n        /* \"#utility.yul\":1625:1744   */\n    tag_297:\n        /* \"#utility.yul\":1783:1784   */\n      0x00\n        /* \"#utility.yul\":1808:1861   */\n      tag_299\n        /* \"#utility.yul\":1853:1860   */\n      dup6\n        /* \"#utility.yul\":1844:1850   */\n      dup3\n        /* \"#utility.yul\":1833:1842   */\n      dup7\n        /* \"#utility.yul\":1829:1851   */\n      add\n        /* \"#utility.yul\":1808:1861   */\n      tag_200\n      jump\t// in\n    tag_299:\n        /* \"#utility.yul\":1798:1861   */\n      swap3\n      pop\n        /* \"#utility.yul\":1754:1871   */\n      pop\n        /* \"#utility.yul\":1910:1912   */\n      0x20\n        /* \"#utility.yul\":1936:1989   */\n      tag_300\n        /* \"#utility.yul\":1981:1988   */\n      dup6\n        /* \"#utility.yul\":1972:1978   */\n      dup3\n        /* \"#utility.yul\":1961:1970   */\n      dup7\n        /* \"#utility.yul\":1957:1979   */\n      add\n        /* \"#utility.yul\":1936:1989   */\n      tag_196\n      jump\t// in\n    tag_300:\n        /* \"#utility.yul\":1926:1989   */\n      swap2\n      pop\n        /* \"#utility.yul\":1881:1999   */\n      pop\n        /* \"#utility.yul\":1532:2006   */\n      swap3\n      pop\n      swap3\n      swap1\n      pop\n      jump\t// out\n        /* \"#utility.yul\":2012:2130   */\n    tag_201:\n        /* \"#utility.yul\":2099:2123   */\n      tag_302\n        /* \"#utility.yul\":2117:2122   */\n      dup2\n        /* \"#utility.yul\":2099:2123   */\n      tag_194\n      jump\t// in\n    tag_302:\n        /* \"#utility.yul\":2094:2097   */\n      dup3\n        /* \"#utility.yul\":2087:2124   */\n      mstore\n        /* \"#utility.yul\":2012:2130   */\n      pop\n      pop\n      jump\t// out\n        /* \"#utility.yul\":2136:2358   */\n    tag_30:\n        /* \"#utility.yul\":2229:2233   */\n      0x00\n        /* \"#utility.yul\":2267:2269   */\n      0x20\n        /* \"#utility.yul\":2256:2265   */\n      dup3\n        /* \"#utility.yul\":2252:2270   */\n      add\n        /* \"#utility.yul\":2244:2270   */\n      swap1\n      pop\n        /* \"#utility.yul\":2280:2351   */\n      tag_304\n        /* \"#utility.yul\":2348:2349   */\n      0x00\n        /* \"#utility.yul\":2337:2346   */\n      dup4\n        /* \"#utility.yul\":2333:2350   */\n      add\n        /* \"#utility.yul\":2324:2330   */\n      dup5\n        /* \"#utility.yul\":2280:2351   */\n      tag_201\n      jump\t// in\n    tag_304:\n        /* \"#utility.yul\":2136:2358   */\n      swap3\n      swap2\n      pop\n      pop\n      jump\t// out\n        /* \"#utility.yul\":2364:2424   */\n    tag_202:\n        /* \"#utility.yul\":2392:2395   */\n      0x00\n        /* \"#utility.yul\":2413:2418   */\n      dup2\n        /* \"#utility.yul\":2406:2418   */\n      swap1\n      pop\n        /* \"#utility.yul\":2364:2424   */\n      swap2\n      swap1\n      pop\n      jump\t// out\n        /* \"#utility.yul\":2430:2572   */\n    tag_203:\n        /* \"#utility.yul\":2480:2489   */\n      0x00\n        /* \"#utility.yul\":2513:2566   */\n      tag_307\n        /* \"#utility.yul\":2531:2565   */\n      tag_308\n        /* \"#utility.yul\":2540:2564   */\n      tag_309\n        /* \"#utility.yul\":2558:2563   */\n      dup5\n        /* \"#utility.yul\":2540:2564   */\n      tag_197\n      jump\t// in\n    tag_309:\n        /* \"#utility.yul\":2531:2565   */\n      tag_202\n      jump\t// in\n    tag_308:\n        /* \"#utility.yul\":2513:2566   */\n      tag_197\n      jump\t// in\n    tag_307:\n        /* \"#utility.yul\":2500:2566   */\n      swap1\n      pop\n        /* \"#utility.yul\":2430:2572   */\n      swap2\n      swap1\n      pop\n      jump\t// out\n        /* \"#utility.yul\":2578:2704   */\n    tag_204:\n        /* \"#utility.yul\":2628:2637   */\n      0x00\n        /* \"#utility.yul\":2661:2698   */\n      tag_311\n        /* \"#utility.yul\":2692:2697   */\n      dup3\n        /* \"#utility.yul\":2661:2698   */\n      tag_203\n      jump\t// in\n    tag_311:\n        /* \"#utility.yul\":2648:2698   */\n      swap1\n      pop\n        /* \"#utility.yul\":2578:2704   */\n      swap2\n      swap1\n      pop\n      jump\t// out\n        /* \"#utility.yul\":2710:2861   */\n    tag_205:\n        /* \"#utility.yul\":2785:2794   */\n      0x00\n        /* \"#utility.yul\":2818:2855   */\n      tag_313\n        /* \"#utility.yul\":2849:2854   */\n      dup3\n        /* \"#utility.yul\":2818:2855   */\n      tag_204\n      jump\t// in\n    tag_313:\n        /* \"#utility.yul\":2805:2855   */\n      swap1\n      pop\n        /* \"#utility.yul\":2710:2861   */\n      swap2\n      swap1\n      pop\n      jump\t// out\n        /* \"#utility.yul\":2867:3048   */\n    tag_206:\n        /* \"#utility.yul\":2979:3041   */\n      tag_315\n        /* \"#utility.yul\":3035:3040   */\n      dup2\n        /* \"#utility.yul\":2979:3041   */\n      tag_205\n      jump\t// in\n    tag_315:\n        /* \"#utility.yul\":2974:2977   */\n      dup3\n        /* \"#utility.yul\":2967:3042   */\n      mstore\n        /* \"#utility.yul\":2867:3048   */\n      pop\n      pop\n      jump\t// out\n        /* \"#utility.yul\":3054:3326   */\n    tag_43:\n        /* \"#utility.yul\":3172:3176   */\n      0x00\n        /* \"#utility.yul\":3210:3212   */\n      0x20\n        /* \"#utility.yul\":3199:3208   */\n      dup3\n        /* \"#utility.yul\":3195:3213   */\n      add\n        /* \"#utility.yul\":3187:3213   */\n      swap1\n      pop\n        /* \"#utility.yul\":3223:3319   */\n      tag_317\n        /* \"#utility.yul\":3316:3317   */\n      0x00\n        /* \"#utility.yul\":3305:3314   */\n      dup4\n        /* \"#utility.yul\":3301:3318   */\n      add\n        /* \"#utility.yul\":3292:3298   */\n      dup5\n        /* \"#utility.yul\":3223:3319   */\n      tag_206\n      jump\t// in\n    tag_317:\n        /* \"#utility.yul\":3054:3326   */\n      swap3\n      swap2\n      pop\n      pop\n      jump\t// out\n        /* \"#utility.yul\":3332:3436   */\n    tag_207:\n        /* \"#utility.yul\":3377:3384   */\n      0x00\n        /* \"#utility.yul\":3406:3430   */\n      tag_319\n        /* \"#utility.yul\":3424:3429   */\n      dup3\n        /* \"#utility.yul\":3406:3430   */\n      tag_197\n      jump\t// in\n    tag_319:\n        /* \"#utility.yul\":3395:3430   */\n      swap1\n      pop\n        /* \"#utility.yul\":3332:3436   */\n      swap2\n      swap1\n      pop\n      jump\t// out\n        /* \"#utility.yul\":3442:3584   */\n    tag_208:\n        /* \"#utility.yul\":3545:3577   */\n      tag_321\n        /* \"#utility.yul\":3571:3576   */\n      dup2\n        /* \"#utility.yul\":3545:3577   */\n      tag_207\n      jump\t// in\n    tag_321:\n        /* \"#utility.yul\":3540:3543   */\n      dup3\n        /* \"#utility.yul\":3533:3578   */\n      mstore\n        /* \"#utility.yul\":3442:3584   */\n      pop\n      pop\n      jump\t// out\n        /* \"#utility.yul\":3590:3844   */\n    tag_52:\n        /* \"#utility.yul\":3699:3703   */\n      0x00\n        /* \"#utility.yul\":3737:3739   */\n      0x20\n        /* \"#utility.yul\":3726:3735   */\n      dup3\n        /* \"#utility.yul\":3722:3740   */\n      add\n        /* \"#utility.yul\":3714:3740   */\n      swap1\n      pop\n        /* \"#utility.yul\":3750:3837   */\n      tag_323\n        /* \"#utility.yul\":3834:3835   */\n      0x00\n        /* \"#utility.yul\":3823:3832   */\n      dup4\n        /* \"#utility.yul\":3819:3836   */\n      add\n        /* \"#utility.yul\":3810:3816   */\n      dup5\n        /* \"#utility.yul\":3750:3837   */\n      tag_208\n      jump\t// in\n    tag_323:\n        /* \"#utility.yul\":3590:3844   */\n      swap3\n      swap2\n      pop\n      pop\n      jump\t// out\n        /* \"#utility.yul\":3850:3968   */\n    tag_209:\n        /* \"#utility.yul\":3887:3894   */\n      0x00\n        /* \"#utility.yul\":3927:3961   */\n      0xffffffffffffffffffffffffffffffff\n        /* \"#utility.yul\":3920:3925   */\n      dup3\n        /* \"#utility.yul\":3916:3962   */\n      and\n        /* \"#utility.yul\":3905:3962   */\n      swap1\n      pop\n        /* \"#utility.yul\":3850:3968   */\n      swap2\n      swap1\n      pop\n      jump\t// out\n        /* \"#utility.yul\":3974:4096   */\n    tag_210:\n        /* \"#utility.yul\":4047:4071   */\n      tag_326\n        /* \"#utility.yul\":4065:4070   */\n      dup2\n        /* \"#utility.yul\":4047:4071   */\n      tag_209\n      jump\t// in\n    tag_326:\n        /* \"#utility.yul\":4040:4045   */\n      dup2\n        /* \"#utility.yul\":4037:4072   */\n      eq\n        /* \"#utility.yul\":4027:4090   */\n      tag_327\n      jumpi\n        /* \"#utility.yul\":4086:4087   */\n      0x00\n        /* \"#utility.yul\":4083:4084   */\n      dup1\n        /* \"#utility.yul\":4076:4088   */\n      revert\n        /* \"#utility.yul\":4027:4090   */\n    tag_327:\n        /* \"#utility.yul\":3974:4096   */\n      pop\n      jump\t// out\n        /* \"#utility.yul\":4102:4241   */\n    tag_211:\n        /* \"#utility.yul\":4148:4153   */\n      0x00\n        /* \"#utility.yul\":4186:4192   */\n      dup2\n        /* \"#utility.yul\":4173:4193   */\n      calldataload\n        /* \"#utility.yul\":4164:4193   */\n      swap1\n      pop\n        /* \"#utility.yul\":4202:4235   */\n      tag_329\n        /* \"#utility.yul\":4229:4234   */\n      dup2\n        /* \"#utility.yul\":4202:4235   */\n      tag_210\n      jump\t// in\n    tag_329:\n        /* \"#utility.yul\":4102:4241   */\n      swap3\n      swap2\n      pop\n      pop\n      jump\t// out\n        /* \"#utility.yul\":4247:4721   */\n    tag_56:\n        /* \"#utility.yul\":4315:4321   */\n      0x00\n        /* \"#utility.yul\":4323:4329   */\n      dup1\n        /* \"#utility.yul\":4372:4374   */\n      0x40\n        /* \"#utility.yul\":4360:4369   */\n      dup4\n        /* \"#utility.yul\":4351:4358   */\n      dup6\n        /* \"#utility.yul\":4347:4370   */\n      sub\n        /* \"#utility.yul\":4343:4375   */\n      slt\n        /* \"#utility.yul\":4340:4459   */\n      iszero\n      tag_331\n      jumpi\n        /* \"#utility.yul\":4378:4457   */\n      tag_332\n      tag_192\n      jump\t// in\n    tag_332:\n        /* \"#utility.yul\":4340:4459   */\n    tag_331:\n        /* \"#utility.yul\":4498:4499   */\n      0x00\n        /* \"#utility.yul\":4523:4576   */\n      tag_333\n        /* \"#utility.yul\":4568:4575   */\n      dup6\n        /* \"#utility.yul\":4559:4565   */\n      dup3\n        /* \"#utility.yul\":4548:4557   */\n      dup7\n        /* \"#utility.yul\":4544:4566   */\n      add\n        /* \"#utility.yul\":4523:4576   */\n      tag_211\n      jump\t// in\n    tag_333:\n        /* \"#utility.yul\":4513:4576   */\n      swap3\n      pop\n        /* \"#utility.yul\":4469:4586   */\n      pop\n        /* \"#utility.yul\":4625:4627   */\n      0x20\n        /* \"#utility.yul\":4651:4704   */\n      tag_334\n        /* \"#utility.yul\":4696:4703   */\n      dup6\n        /* \"#utility.yul\":4687:4693   */\n      dup3\n        /* \"#utility.yul\":4676:4685   */\n      dup7\n        /* \"#utility.yul\":4672:4694   */\n      add\n        /* \"#utility.yul\":4651:4704   */\n      tag_211\n      jump\t// in\n    tag_334:\n        /* \"#utility.yul\":4641:4704   */\n      swap2\n      pop\n        /* \"#utility.yul\":4596:4714   */\n      pop\n        /* \"#utility.yul\":4247:4721   */\n      swap3\n      pop\n      swap3\n      swap1\n      pop\n      jump\t// out\n        /* \"#utility.yul\":4727:4868   */\n    tag_212:\n        /* \"#utility.yul\":4792:4801   */\n      0x00\n        /* \"#utility.yul\":4825:4862   */\n      tag_336\n        /* \"#utility.yul\":4856:4861   */\n      dup3\n        /* \"#utility.yul\":4825:4862   */\n      tag_204\n      jump\t// in\n    tag_336:\n        /* \"#utility.yul\":4812:4862   */\n      swap1\n      pop\n        /* \"#utility.yul\":4727:4868   */\n      swap2\n      swap1\n      pop\n      jump\t// out\n        /* \"#utility.yul\":4874:5035   */\n    tag_213:\n        /* \"#utility.yul\":4976:5028   */\n      tag_338\n        /* \"#utility.yul\":5022:5027   */\n      dup2\n        /* \"#utility.yul\":4976:5028   */\n      tag_212\n      jump\t// in\n    tag_338:\n        /* \"#utility.yul\":4971:4974   */\n      dup3\n        /* \"#utility.yul\":4964:5029   */\n      mstore\n        /* \"#utility.yul\":4874:5035   */\n      pop\n      pop\n      jump\t// out\n        /* \"#utility.yul\":5041:5293   */\n    tag_62:\n        /* \"#utility.yul\":5149:5153   */\n      0x00\n        /* \"#utility.yul\":5187:5189   */\n      0x20\n        /* \"#utility.yul\":5176:5185   */\n      dup3\n        /* \"#utility.yul\":5172:5190   */\n      add\n        /* \"#utility.yul\":5164:5190   */\n      swap1\n      pop\n        /* \"#utility.yul\":5200:5286   */\n      tag_340\n        /* \"#utility.yul\":5283:5284   */\n      0x00\n        /* \"#utility.yul\":5272:5281   */\n      dup4\n        /* \"#utility.yul\":5268:5285   */\n      add\n        /* \"#utility.yul\":5259:5265   */\n      dup5\n        /* \"#utility.yul\":5200:5286   */\n      tag_213\n      jump\t// in\n    tag_340:\n        /* \"#utility.yul\":5041:5293   */\n      swap3\n      swap2\n      pop\n      pop\n      jump\t// out\n        /* \"#utility.yul\":5299:5417   */\n    tag_214:\n        /* \"#utility.yul\":5386:5410   */\n      tag_342\n        /* \"#utility.yul\":5404:5409   */\n      dup2\n        /* \"#utility.yul\":5386:5410   */\n      tag_198\n      jump\t// in\n    tag_342:\n        /* \"#utility.yul\":5381:5384   */\n      dup3\n        /* \"#utility.yul\":5374:5411   */\n      mstore\n        /* \"#utility.yul\":5299:5417   */\n      pop\n      pop\n      jump\t// out\n        /* \"#utility.yul\":5423:5541   */\n    tag_215:\n        /* \"#utility.yul\":5510:5534   */\n      tag_344\n        /* \"#utility.yul\":5528:5533   */\n      dup2\n        /* \"#utility.yul\":5510:5534   */\n      tag_209\n      jump\t// in\n    tag_344:\n        /* \"#utility.yul\":5505:5508   */\n      dup3\n        /* \"#utility.yul\":5498:5535   */\n      mstore\n        /* \"#utility.yul\":5423:5541   */\n      pop\n      pop\n      jump\t// out\n        /* \"#utility.yul\":5547:5989   */\n    tag_68:\n        /* \"#utility.yul\":5696:5700   */\n      0x00\n        /* \"#utility.yul\":5734:5736   */\n      0x60\n        /* \"#utility.yul\":5723:5732   */\n      dup3\n        /* \"#utility.yul\":5719:5737   */\n      add\n        /* \"#utility.yul\":5711:5737   */\n      swap1\n      pop\n        /* \"#utility.yul\":5747:5818   */\n      tag_346\n        /* \"#utility.yul\":5815:5816   */\n      0x00\n        /* \"#utility.yul\":5804:5813   */\n      dup4\n        /* \"#utility.yul\":5800:5817   */\n      add\n        /* \"#utility.yul\":5791:5797   */\n      dup7\n        /* \"#utility.yul\":5747:5818   */\n      tag_214\n      jump\t// in\n    tag_346:\n        /* \"#utility.yul\":5828:5900   */\n      tag_347\n        /* \"#utility.yul\":5896:5898   */\n      0x20\n        /* \"#utility.yul\":5885:5894   */\n      dup4\n        /* \"#utility.yul\":5881:5899   */\n      add\n        /* \"#utility.yul\":5872:5878   */\n      dup6\n        /* \"#utility.yul\":5828:5900   */\n      tag_215\n      jump\t// in\n    tag_347:\n        /* \"#utility.yul\":5910:5982   */\n      tag_348\n        /* \"#utility.yul\":5978:5980   */\n      0x40\n        /* \"#utility.yul\":5967:5976   */\n      dup4\n        /* \"#utility.yul\":5963:5981   */\n      add\n        /* \"#utility.yul\":5954:5960   */\n      dup5\n        /* \"#utility.yul\":5910:5982   */\n      tag_215\n      jump\t// in\n    tag_348:\n        /* \"#utility.yul\":5547:5989   */\n      swap5\n      swap4\n      pop\n      pop\n      pop\n      pop\n      jump\t// out\n        /* \"#utility.yul\":5995:6164   */\n    tag_216:\n        /* \"#utility.yul\":6079:6090   */\n      0x00\n        /* \"#utility.yul\":6113:6119   */\n      dup3\n        /* \"#utility.yul\":6108:6111   */\n      dup3\n        /* \"#utility.yul\":6101:6120   */\n      mstore\n        /* \"#utility.yul\":6153:6157   */\n      0x20\n        /* \"#utility.yul\":6148:6151   */\n      dup3\n        /* \"#utility.yul\":6144:6158   */\n      add\n        /* \"#utility.yul\":6129:6158   */\n      swap1\n      pop\n        /* \"#utility.yul\":5995:6164   */\n      swap3\n      swap2\n      pop\n      pop\n      jump\t// out\n        /* \"#utility.yul\":6170:6334   */\n    tag_217:\n        /* \"#utility.yul\":6310:6326   */\n      0x5265656e7472616e742063616c6c000000000000000000000000000000000000\n        /* \"#utility.yul\":6306:6307   */\n      0x00\n        /* \"#utility.yul\":6298:6304   */\n      dup3\n        /* \"#utility.yul\":6294:6308   */\n      add\n        /* \"#utility.yul\":6287:6327   */\n      mstore\n        /* \"#utility.yul\":6170:6334   */\n      pop\n      jump\t// out\n        /* \"#utility.yul\":6340:6706   */\n    tag_218:\n        /* \"#utility.yul\":6482:6485   */\n      0x00\n        /* \"#utility.yul\":6503:6570   */\n      tag_352\n        /* \"#utility.yul\":6567:6569   */\n      0x0e\n        /* \"#utility.yul\":6562:6565   */\n      dup4\n        /* \"#utility.yul\":6503:6570   */\n      tag_216\n      jump\t// in\n    tag_352:\n        /* \"#utility.yul\":6496:6570   */\n      swap2\n      pop\n        /* \"#utility.yul\":6579:6672   */\n      tag_353\n        /* \"#utility.yul\":6668:6671   */\n      dup3\n        /* \"#utility.yul\":6579:6672   */\n      tag_217\n      jump\t// in\n    tag_353:\n        /* \"#utility.yul\":6697:6699   */\n      0x20\n        /* \"#utility.yul\":6692:6695   */\n      dup3\n        /* \"#utility.yul\":6688:6700   */\n      add\n        /* \"#utility.yul\":6681:6700   */\n      swap1\n      pop\n        /* \"#utility.yul\":6340:6706   */\n      swap2\n      swap1\n      pop\n      jump\t// out\n        /* \"#utility.yul\":6712:7131   */\n    tag_72:\n        /* \"#utility.yul\":6878:6882   */\n      0x00\n        /* \"#utility.yul\":6916:6918   */\n      0x20\n        /* \"#utility.yul\":6905:6914   */\n      dup3\n        /* \"#utility.yul\":6901:6919   */\n      add\n        /* \"#utility.yul\":6893:6919   */\n      swap1\n      pop\n        /* \"#utility.yul\":6965:6974   */\n      dup2\n        /* \"#utility.yul\":6959:6963   */\n      dup2\n        /* \"#utility.yul\":6955:6975   */\n      sub\n        /* \"#utility.yul\":6951:6952   */\n      0x00\n        /* \"#utility.yul\":6940:6949   */\n      dup4\n        /* \"#utility.yul\":6936:6953   */\n      add\n        /* \"#utility.yul\":6929:6976   */\n      mstore\n        /* \"#utility.yul\":6993:7124   */\n      tag_355\n        /* \"#utility.yul\":7119:7123   */\n      dup2\n        /* \"#utility.yul\":6993:7124   */\n      tag_218\n      jump\t// in\n    tag_355:\n        /* \"#utility.yul\":6985:7124   */\n      swap1\n      pop\n        /* \"#utility.yul\":6712:7131   */\n      swap2\n      swap1\n      pop\n      jump\t// out\n        /* \"#utility.yul\":7137:7314   */\n    tag_219:\n        /* \"#utility.yul\":7277:7306   */\n      0x496e76616c6964206f7220696e616374697665206c697374696e670000000000\n        /* \"#utility.yul\":7273:7274   */\n      0x00\n        /* \"#utility.yul\":7265:7271   */\n      dup3\n        /* \"#utility.yul\":7261:7275   */\n      add\n        /* \"#utility.yul\":7254:7307   */\n      mstore\n        /* \"#utility.yul\":7137:7314   */\n      pop\n      jump\t// out\n        /* \"#utility.yul\":7320:7686   */\n    tag_220:\n        /* \"#utility.yul\":7462:7465   */\n      0x00\n        /* \"#utility.yul\":7483:7550   */\n      tag_358\n        /* \"#utility.yul\":7547:7549   */\n      0x1b\n        /* \"#utility.yul\":7542:7545   */\n      dup4\n        /* \"#utility.yul\":7483:7550   */\n      tag_216\n      jump\t// in\n    tag_358:\n        /* \"#utility.yul\":7476:7550   */\n      swap2\n      pop\n        /* \"#utility.yul\":7559:7652   */\n      tag_359\n        /* \"#utility.yul\":7648:7651   */\n      dup3\n        /* \"#utility.yul\":7559:7652   */\n      tag_219\n      jump\t// in\n    tag_359:\n        /* \"#utility.yul\":7677:7679   */\n      0x20\n        /* \"#utility.yul\":7672:7675   */\n      dup3\n        /* \"#utility.yul\":7668:7680   */\n      add\n        /* \"#utility.yul\":7661:7680   */\n      swap1\n      pop\n        /* \"#utility.yul\":7320:7686   */\n      swap2\n      swap1\n      pop\n      jump\t// out\n        /* \"#utility.yul\":7692:8111   */\n    tag_76:\n        /* \"#utility.yul\":7858:7862   */\n      0x00\n        /* \"#utility.yul\":7896:7898   */\n      0x20\n        /* \"#utility.yul\":7885:7894   */\n      dup3\n        /* \"#utility.yul\":7881:7899   */\n      add\n        /* \"#utility.yul\":7873:7899   */\n      swap1\n      pop\n        /* \"#utility.yul\":7945:7954   */\n      dup2\n        /* \"#utility.yul\":7939:7943   */\n      dup2\n        /* \"#utility.yul\":7935:7955   */\n      sub\n        /* \"#utility.yul\":7931:7932   */\n      0x00\n        /* \"#utility.yul\":7920:7929   */\n      dup4\n        /* \"#utility.yul\":7916:7933   */\n      add\n        /* \"#utility.yul\":7909:7956   */\n      mstore\n        /* \"#utility.yul\":7973:8104   */\n      tag_361\n        /* \"#utility.yul\":8099:8103   */\n      dup2\n        /* \"#utility.yul\":7973:8104   */\n      tag_220\n      jump\t// in\n    tag_361:\n        /* \"#utility.yul\":7965:8104   */\n      swap1\n      pop\n        /* \"#utility.yul\":7692:8111   */\n      swap2\n      swap1\n      pop\n      jump\t// out\n        /* \"#utility.yul\":8117:8291   */\n    tag_221:\n        /* \"#utility.yul\":8257:8283   */\n      0x496e636f7272656374207061796d656e7420616d6f756e740000000000000000\n        /* \"#utility.yul\":8253:8254   */\n      0x00\n        /* \"#utility.yul\":8245:8251   */\n      dup3\n        /* \"#utility.yul\":8241:8255   */\n      add\n        /* \"#utility.yul\":8234:8284   */\n      mstore\n        /* \"#utility.yul\":8117:8291   */\n      pop\n      jump\t// out\n        /* \"#utility.yul\":8297:8663   */\n    tag_222:\n        /* \"#utility.yul\":8439:8442   */\n      0x00\n        /* \"#utility.yul\":8460:8527   */\n      tag_364\n        /* \"#utility.yul\":8524:8526   */\n      0x18\n        /* \"#utility.yul\":8519:8522   */\n      dup4\n        /* \"#utility.yul\":8460:8527   */\n      tag_216\n      jump\t// in\n    tag_364:\n        /* \"#utility.yul\":8453:8527   */\n      swap2\n      pop\n        /* \"#utility.yul\":8536:8629   */\n      tag_365\n        /* \"#utility.yul\":8625:8628   */\n      dup3\n        /* \"#utility.yul\":8536:8629   */\n      tag_221\n      jump\t// in\n    tag_365:\n        /* \"#utility.yul\":8654:8656   */\n      0x20\n        /* \"#utility.yul\":8649:8652   */\n      dup3\n        /* \"#utility.yul\":8645:8657   */\n      add\n        /* \"#utility.yul\":8638:8657   */\n      swap1\n      pop\n        /* \"#utility.yul\":8297:8663   */\n      swap2\n      swap1\n      pop\n      jump\t// out\n        /* \"#utility.yul\":8669:9088   */\n    tag_79:\n        /* \"#utility.yul\":8835:8839   */\n      0x00\n        /* \"#utility.yul\":8873:8875   */\n      0x20\n        /* \"#utility.yul\":8862:8871   */\n      dup3\n        /* \"#utility.yul\":8858:8876   */\n      add\n        /* \"#utility.yul\":8850:8876   */\n      swap1\n      pop\n        /* \"#utility.yul\":8922:8931   */\n      dup2\n        /* \"#utility.yul\":8916:8920   */\n      dup2\n        /* \"#utility.yul\":8912:8932   */\n      sub\n        /* \"#utility.yul\":8908:8909   */\n      0x00\n        /* \"#utility.yul\":8897:8906   */\n      dup4\n        /* \"#utility.yul\":8893:8910   */\n      add\n        /* \"#utility.yul\":8886:8933   */\n      mstore\n        /* \"#utility.yul\":8950:9081   */\n      tag_367\n        /* \"#utility.yul\":9076:9080   */\n      dup2\n        /* \"#utility.yul\":8950:9081   */\n      tag_222\n      jump\t// in\n    tag_367:\n        /* \"#utility.yul\":8942:9081   */\n      swap1\n      pop\n        /* \"#utility.yul\":8669:9088   */\n      swap2\n      swap1\n      pop\n      jump\t// out\n        /* \"#utility.yul\":9094:9274   */\n    tag_223:\n        /* \"#utility.yul\":9142:9219   */\n      0x4e487b7100000000000000000000000000000000000000000000000000000000\n        /* \"#utility.yul\":9139:9140   */\n      0x00\n        /* \"#utility.yul\":9132:9220   */\n      mstore\n        /* \"#utility.yul\":9239:9243   */\n      0x11\n        /* \"#utility.yul\":9236:9237   */\n      0x04\n        /* \"#utility.yul\":9229:9244   */\n      mstore\n        /* \"#utility.yul\":9263:9267   */\n      0x24\n        /* \"#utility.yul\":9260:9261   */\n      0x00\n        /* \"#utility.yul\":9253:9268   */\n      revert\n        /* \"#utility.yul\":9280:9690   */\n    tag_81:\n        /* \"#utility.yul\":9320:9327   */\n      0x00\n        /* \"#utility.yul\":9343:9363   */\n      tag_370\n        /* \"#utility.yul\":9361:9362   */\n      dup3\n        /* \"#utility.yul\":9343:9363   */\n      tag_194\n      jump\t// in\n    tag_370:\n        /* \"#utility.yul\":9338:9363   */\n      swap2\n      pop\n        /* \"#utility.yul\":9377:9397   */\n      tag_371\n        /* \"#utility.yul\":9395:9396   */\n      dup4\n        /* \"#utility.yul\":9377:9397   */\n      tag_194\n      jump\t// in\n    tag_371:\n        /* \"#utility.yul\":9372:9397   */\n      swap3\n      pop\n        /* \"#utility.yul\":9432:9433   */\n      dup3\n        /* \"#utility.yul\":9429:9430   */\n      dup3\n        /* \"#utility.yul\":9425:9434   */\n      mul\n        /* \"#utility.yul\":9454:9484   */\n      tag_372\n        /* \"#utility.yul\":9472:9483   */\n      dup2\n        /* \"#utility.yul\":9454:9484   */\n      tag_194\n      jump\t// in\n    tag_372:\n        /* \"#utility.yul\":9443:9484   */\n      swap2\n      pop\n        /* \"#utility.yul\":9633:9634   */\n      dup3\n        /* \"#utility.yul\":9624:9631   */\n      dup3\n        /* \"#utility.yul\":9620:9635   */\n      div\n        /* \"#utility.yul\":9617:9618   */\n      dup5\n        /* \"#utility.yul\":9614:9636   */\n      eq\n        /* \"#utility.yul\":9594:9595   */\n      dup4\n        /* \"#utility.yul\":9587:9596   */\n      iszero\n        /* \"#utility.yul\":9567:9650   */\n      or\n        /* \"#utility.yul\":9544:9683   */\n      tag_373\n      jumpi\n        /* \"#utility.yul\":9663:9681   */\n      tag_374\n      tag_223\n      jump\t// in\n    tag_374:\n        /* \"#utility.yul\":9544:9683   */\n    tag_373:\n        /* \"#utility.yul\":9328:9690   */\n      pop\n        /* \"#utility.yul\":9280:9690   */\n      swap3\n      swap2\n      pop\n      pop\n      jump\t// out\n        /* \"#utility.yul\":9696:9876   */\n    tag_224:\n        /* \"#utility.yul\":9744:9821   */\n      0x4e487b7100000000000000000000000000000000000000000000000000000000\n        /* \"#utility.yul\":9741:9742   */\n      0x00\n        /* \"#utility.yul\":9734:9822   */\n      mstore\n        /* \"#utility.yul\":9841:9845   */\n      0x12\n        /* \"#utility.yul\":9838:9839   */\n      0x04\n        /* \"#utility.yul\":9831:9846   */\n      mstore\n        /* \"#utility.yul\":9865:9869   */\n      0x24\n        /* \"#utility.yul\":9862:9863   */\n      0x00\n        /* \"#utility.yul\":9855:9870   */\n      revert\n        /* \"#utility.yul\":9882:10067   */\n    tag_83:\n        /* \"#utility.yul\":9922:9923   */\n      0x00\n        /* \"#utility.yul\":9939:9959   */\n      tag_377\n        /* \"#utility.yul\":9957:9958   */\n      dup3\n        /* \"#utility.yul\":9939:9959   */\n      tag_194\n      jump\t// in\n    tag_377:\n        /* \"#utility.yul\":9934:9959   */\n      swap2\n      pop\n        /* \"#utility.yul\":9973:9993   */\n      tag_378\n        /* \"#utility.yul\":9991:9992   */\n      dup4\n        /* \"#utility.yul\":9973:9993   */\n      tag_194\n      jump\t// in\n    tag_378:\n        /* \"#utility.yul\":9968:9993   */\n      swap3\n      pop\n        /* \"#utility.yul\":10012:10013   */\n      dup3\n        /* \"#utility.yul\":10002:10037   */\n      tag_379\n      jumpi\n        /* \"#utility.yul\":10017:10035   */\n      tag_380\n      tag_224\n      jump\t// in\n    tag_380:\n        /* \"#utility.yul\":10002:10037   */\n    tag_379:\n        /* \"#utility.yul\":10059:10060   */\n      dup3\n        /* \"#utility.yul\":10056:10057   */\n      dup3\n        /* \"#utility.yul\":10052:10061   */\n      div\n        /* \"#utility.yul\":10047:10061   */\n      swap1\n      pop\n        /* \"#utility.yul\":9882:10067   */\n      swap3\n      swap2\n      pop\n      pop\n      jump\t// out\n        /* \"#utility.yul\":10073:10267   */\n    tag_85:\n        /* \"#utility.yul\":10113:10117   */\n      0x00\n        /* \"#utility.yul\":10133:10153   */\n      tag_382\n        /* \"#utility.yul\":10151:10152   */\n      dup3\n        /* \"#utility.yul\":10133:10153   */\n      tag_194\n      jump\t// in\n    tag_382:\n        /* \"#utility.yul\":10128:10153   */\n      swap2\n      pop\n        /* \"#utility.yul\":10167:10187   */\n      tag_383\n        /* \"#utility.yul\":10185:10186   */\n      dup4\n        /* \"#utility.yul\":10167:10187   */\n      tag_194\n      jump\t// in\n    tag_383:\n        /* \"#utility.yul\":10162:10187   */\n      swap3\n      pop\n        /* \"#utility.yul\":10211:10212   */\n      dup3\n        /* \"#utility.yul\":10208:10209   */\n      dup3\n        /* \"#utility.yul\":10204:10213   */\n      sub\n        /* \"#utility.yul\":10196:10213   */\n      swap1\n      pop\n        /* \"#utility.yul\":10235:10236   */\n      dup2\n        /* \"#utility.yul\":10229:10233   */\n      dup2\n        /* \"#utility.yul\":10226:10237   */\n      gt\n        /* \"#utility.yul\":10223:10260   */\n      iszero\n      tag_384\n      jumpi\n        /* \"#utility.yul\":10240:10258   */\n      tag_385\n      tag_223\n      jump\t// in\n    tag_385:\n        /* \"#utility.yul\":10223:10260   */\n    tag_384:\n        /* \"#utility.yul\":10073:10267   */\n      swap3\n      swap2\n      pop\n      pop\n      jump\t// out\n        /* \"#utility.yul\":10273:10420   */\n    tag_225:\n        /* \"#utility.yul\":10374:10385   */\n      0x00\n        /* \"#utility.yul\":10411:10414   */\n      dup2\n        /* \"#utility.yul\":10396:10414   */\n      swap1\n      pop\n        /* \"#utility.yul\":10273:10420   */\n      swap3\n      swap2\n      pop\n      pop\n      jump\t// out\n        /* \"#utility.yul\":10426:10540   */\n    tag_226:\n      pop\n      jump\t// out\n        /* \"#utility.yul\":10546:10944   */\n    tag_227:\n        /* \"#utility.yul\":10705:10708   */\n      0x00\n        /* \"#utility.yul\":10726:10809   */\n      tag_389\n        /* \"#utility.yul\":10807:10808   */\n      0x00\n        /* \"#utility.yul\":10802:10805   */\n      dup4\n        /* \"#utility.yul\":10726:10809   */\n      tag_225\n      jump\t// in\n    tag_389:\n        /* \"#utility.yul\":10719:10809   */\n      swap2\n      pop\n        /* \"#utility.yul\":10818:10911   */\n      tag_390\n        /* \"#utility.yul\":10907:10910   */\n      dup3\n        /* \"#utility.yul\":10818:10911   */\n      tag_226\n      jump\t// in\n    tag_390:\n        /* \"#utility.yul\":10936:10937   */\n      0x00\n        /* \"#utility.yul\":10931:10934   */\n      dup3\n        /* \"#utility.yul\":10927:10938   */\n      add\n        /* \"#utility.yul\":10920:10938   */\n      swap1\n      pop\n        /* \"#utility.yul\":10546:10944   */\n      swap2\n      swap1\n      pop\n      jump\t// out\n        /* \"#utility.yul\":10950:11329   */\n    tag_87:\n        /* \"#utility.yul\":11134:11137   */\n      0x00\n        /* \"#utility.yul\":11156:11303   */\n      tag_392\n        /* \"#utility.yul\":11299:11302   */\n      dup3\n        /* \"#utility.yul\":11156:11303   */\n      tag_227\n      jump\t// in\n    tag_392:\n        /* \"#utility.yul\":11149:11303   */\n      swap2\n      pop\n        /* \"#utility.yul\":11320:11323   */\n      dup2\n        /* \"#utility.yul\":11313:11323   */\n      swap1\n      pop\n        /* \"#utility.yul\":10950:11329   */\n      swap2\n      swap1\n      pop\n      jump\t// out\n        /* \"#utility.yul\":11335:11510   */\n    tag_228:\n        /* \"#utility.yul\":11475:11502   */\n      0x4661696c656420746f2073656e6420636f6d6d697373696f6e00000000000000\n        /* \"#utility.yul\":11471:11472   */\n      0x00\n        /* \"#utility.yul\":11463:11469   */\n      dup3\n        /* \"#utility.yul\":11459:11473   */\n      add\n        /* \"#utility.yul\":11452:11503   */\n      mstore\n        /* \"#utility.yul\":11335:11510   */\n      pop\n      jump\t// out\n        /* \"#utility.yul\":11516:11882   */\n    tag_229:\n        /* \"#utility.yul\":11658:11661   */\n      0x00\n        /* \"#utility.yul\":11679:11746   */\n      tag_395\n        /* \"#utility.yul\":11743:11745   */\n      0x19\n        /* \"#utility.yul\":11738:11741   */\n      dup4\n        /* \"#utility.yul\":11679:11746   */\n      tag_216\n      jump\t// in\n    tag_395:\n        /* \"#utility.yul\":11672:11746   */\n      swap2\n      pop\n        /* \"#utility.yul\":11755:11848   */\n      tag_396\n        /* \"#utility.yul\":11844:11847   */\n      dup3\n        /* \"#utility.yul\":11755:11848   */\n      tag_228\n      jump\t// in\n    tag_396:\n        /* \"#utility.yul\":11873:11875   */\n      0x20\n        /* \"#utility.yul\":11868:11871   */\n      dup3\n        /* \"#utility.yul\":11864:11876   */\n      add\n        /* \"#utility.yul\":11857:11876   */\n      swap1\n      pop\n        /* \"#utility.yul\":11516:11882   */\n      swap2\n      swap1\n      pop\n      jump\t// out\n        /* \"#utility.yul\":11888:12307   */\n    tag_93:\n        /* \"#utility.yul\":12054:12058   */\n      0x00\n        /* \"#utility.yul\":12092:12094   */\n      0x20\n        /* \"#utility.yul\":12081:12090   */\n      dup3\n        /* \"#utility.yul\":12077:12095   */\n      add\n        /* \"#utility.yul\":12069:12095   */\n      swap1\n      pop\n        /* \"#utility.yul\":12141:12150   */\n      dup2\n        /* \"#utility.yul\":12135:12139   */\n      dup2\n        /* \"#utility.yul\":12131:12151   */\n      sub\n        /* \"#utility.yul\":12127:12128   */\n      0x00\n        /* \"#utility.yul\":12116:12125   */\n      dup4\n        /* \"#utility.yul\":12112:12129   */\n      add\n        /* \"#utility.yul\":12105:12152   */\n      mstore\n        /* \"#utility.yul\":12169:12300   */\n      tag_398\n        /* \"#utility.yul\":12295:12299   */\n      dup2\n        /* \"#utility.yul\":12169:12300   */\n      tag_229\n      jump\t// in\n    tag_398:\n        /* \"#utility.yul\":12161:12300   */\n      swap1\n      pop\n        /* \"#utility.yul\":11888:12307   */\n      swap2\n      swap1\n      pop\n      jump\t// out\n        /* \"#utility.yul\":12313:12495   */\n    tag_230:\n        /* \"#utility.yul\":12453:12487   */\n      0x4661696c656420746f2073656e64207061796d656e7420746f2073656c6c6572\n        /* \"#utility.yul\":12449:12450   */\n      0x00\n        /* \"#utility.yul\":12441:12447   */\n      dup3\n        /* \"#utility.yul\":12437:12451   */\n      add\n        /* \"#utility.yul\":12430:12488   */\n      mstore\n        /* \"#utility.yul\":12313:12495   */\n      pop\n      jump\t// out\n        /* \"#utility.yul\":12501:12867   */\n    tag_231:\n        /* \"#utility.yul\":12643:12646   */\n      0x00\n        /* \"#utility.yul\":12664:12731   */\n      tag_401\n        /* \"#utility.yul\":12728:12730   */\n      0x20\n        /* \"#utility.yul\":12723:12726   */\n      dup4\n        /* \"#utility.yul\":12664:12731   */\n      tag_216\n      jump\t// in\n    tag_401:\n        /* \"#utility.yul\":12657:12731   */\n      swap2\n      pop\n        /* \"#utility.yul\":12740:12833   */\n      tag_402\n        /* \"#utility.yul\":12829:12832   */\n      dup3\n        /* \"#utility.yul\":12740:12833   */\n      tag_230\n      jump\t// in\n    tag_402:\n        /* \"#utility.yul\":12858:12860   */\n      0x20\n        /* \"#utility.yul\":12853:12856   */\n      dup3\n        /* \"#utility.yul\":12849:12861   */\n      add\n        /* \"#utility.yul\":12842:12861   */\n      swap1\n      pop\n        /* \"#utility.yul\":12501:12867   */\n      swap2\n      swap1\n      pop\n      jump\t// out\n        /* \"#utility.yul\":12873:13292   */\n    tag_100:\n        /* \"#utility.yul\":13039:13043   */\n      0x00\n        /* \"#utility.yul\":13077:13079   */\n      0x20\n        /* \"#utility.yul\":13066:13075   */\n      dup3\n        /* \"#utility.yul\":13062:13080   */\n      add\n        /* \"#utility.yul\":13054:13080   */\n      swap1\n      pop\n        /* \"#utility.yul\":13126:13135   */\n      dup2\n        /* \"#utility.yul\":13120:13124   */\n      dup2\n        /* \"#utility.yul\":13116:13136   */\n      sub\n        /* \"#utility.yul\":13112:13113   */\n      0x00\n        /* \"#utility.yul\":13101:13110   */\n      dup4\n        /* \"#utility.yul\":13097:13114   */\n      add\n        /* \"#utility.yul\":13090:13137   */\n      mstore\n        /* \"#utility.yul\":13154:13285   */\n      tag_404\n        /* \"#utility.yul\":13280:13284   */\n      dup2\n        /* \"#utility.yul\":13154:13285   */\n      tag_231\n      jump\t// in\n    tag_404:\n        /* \"#utility.yul\":13146:13285   */\n      swap1\n      pop\n        /* \"#utility.yul\":12873:13292   */\n      swap2\n      swap1\n      pop\n      jump\t// out\n        /* \"#utility.yul\":13298:13440   */\n    tag_232:\n        /* \"#utility.yul\":13348:13357   */\n      0x00\n        /* \"#utility.yul\":13381:13434   */\n      tag_406\n        /* \"#utility.yul\":13399:13433   */\n      tag_407\n        /* \"#utility.yul\":13408:13432   */\n      tag_408\n        /* \"#utility.yul\":13426:13431   */\n      dup5\n        /* \"#utility.yul\":13408:13432   */\n      tag_209\n      jump\t// in\n    tag_408:\n        /* \"#utility.yul\":13399:13433   */\n      tag_202\n      jump\t// in\n    tag_407:\n        /* \"#utility.yul\":13381:13434   */\n      tag_194\n      jump\t// in\n    tag_406:\n        /* \"#utility.yul\":13368:13434   */\n      swap1\n      pop\n        /* \"#utility.yul\":13298:13440   */\n      swap2\n      swap1\n      pop\n      jump\t// out\n        /* \"#utility.yul\":13446:13577   */\n    tag_233:\n        /* \"#utility.yul\":13533:13570   */\n      tag_410\n        /* \"#utility.yul\":13564:13569   */\n      dup2\n        /* \"#utility.yul\":13533:13570   */\n      tag_232\n      jump\t// in\n    tag_410:\n        /* \"#utility.yul\":13528:13531   */\n      dup3\n        /* \"#utility.yul\":13521:13571   */\n      mstore\n        /* \"#utility.yul\":13446:13577   */\n      pop\n      pop\n      jump\t// out\n        /* \"#utility.yul\":13583:14025   */\n    tag_102:\n        /* \"#utility.yul\":13732:13736   */\n      0x00\n        /* \"#utility.yul\":13770:13772   */\n      0x60\n        /* \"#utility.yul\":13759:13768   */\n      dup3\n        /* \"#utility.yul\":13755:13773   */\n      add\n        /* \"#utility.yul\":13747:13773   */\n      swap1\n      pop\n        /* \"#utility.yul\":13783:13854   */\n      tag_412\n        /* \"#utility.yul\":13851:13852   */\n      0x00\n        /* \"#utility.yul\":13840:13849   */\n      dup4\n        /* \"#utility.yul\":13836:13853   */\n      add\n        /* \"#utility.yul\":13827:13833   */\n      dup7\n        /* \"#utility.yul\":13783:13854   */\n      tag_214\n      jump\t// in\n    tag_412:\n        /* \"#utility.yul\":13864:13936   */\n      tag_413\n        /* \"#utility.yul\":13932:13934   */\n      0x20\n        /* \"#utility.yul\":13921:13930   */\n      dup4\n        /* \"#utility.yul\":13917:13935   */\n      add\n        /* \"#utility.yul\":13908:13914   */\n      dup6\n        /* \"#utility.yul\":13864:13936   */\n      tag_214\n      jump\t// in\n    tag_413:\n        /* \"#utility.yul\":13946:14018   */\n      tag_414\n        /* \"#utility.yul\":14014:14016   */\n      0x40\n        /* \"#utility.yul\":14003:14012   */\n      dup4\n        /* \"#utility.yul\":13999:14017   */\n      add\n        /* \"#utility.yul\":13990:13996   */\n      dup5\n        /* \"#utility.yul\":13946:14018   */\n      tag_233\n      jump\t// in\n    tag_414:\n        /* \"#utility.yul\":13583:14025   */\n      swap5\n      swap4\n      pop\n      pop\n      pop\n      pop\n      jump\t// out\n        /* \"#utility.yul\":14031:14363   */\n    tag_107:\n        /* \"#utility.yul\":14152:14156   */\n      0x00\n        /* \"#utility.yul\":14190:14192   */\n      0x40\n        /* \"#utility.yul\":14179:14188   */\n      dup3\n        /* \"#utility.yul\":14175:14193   */\n      add\n        /* \"#utility.yul\":14167:14193   */\n      swap1\n      pop\n        /* \"#utility.yul\":14203:14274   */\n      tag_416\n        /* \"#utility.yul\":14271:14272   */\n      0x00\n        /* \"#utility.yul\":14260:14269   */\n      dup4\n        /* \"#utility.yul\":14256:14273   */\n      add\n        /* \"#utility.yul\":14247:14253   */\n      dup6\n        /* \"#utility.yul\":14203:14274   */\n      tag_233\n      jump\t// in\n    tag_416:\n        /* \"#utility.yul\":14284:14356   */\n      tag_417\n        /* \"#utility.yul\":14352:14354   */\n      0x20\n        /* \"#utility.yul\":14341:14350   */\n      dup4\n        /* \"#utility.yul\":14337:14355   */\n      add\n        /* \"#utility.yul\":14328:14334   */\n      dup5\n        /* \"#utility.yul\":14284:14356   */\n      tag_233\n      jump\t// in\n    tag_417:\n        /* \"#utility.yul\":14031:14363   */\n      swap4\n      swap3\n      pop\n      pop\n      pop\n      jump\t// out\n        /* \"#utility.yul\":14369:14594   */\n    tag_234:\n        /* \"#utility.yul\":14509:14543   */\n      0x4f6e6c7920746865206f776e65722063616e20706572666f726d207468697320\n        /* \"#utility.yul\":14505:14506   */\n      0x00\n        /* \"#utility.yul\":14497:14503   */\n      dup3\n        /* \"#utility.yul\":14493:14507   */\n      add\n        /* \"#utility.yul\":14486:14544   */\n      mstore\n        /* \"#utility.yul\":14578:14586   */\n      0x616374696f6e0000000000000000000000000000000000000000000000000000\n        /* \"#utility.yul\":14573:14575   */\n      0x20\n        /* \"#utility.yul\":14565:14571   */\n      dup3\n        /* \"#utility.yul\":14561:14576   */\n      add\n        /* \"#utility.yul\":14554:14587   */\n      mstore\n        /* \"#utility.yul\":14369:14594   */\n      pop\n      jump\t// out\n        /* \"#utility.yul\":14600:14966   */\n    tag_235:\n        /* \"#utility.yul\":14742:14745   */\n      0x00\n        /* \"#utility.yul\":14763:14830   */\n      tag_420\n        /* \"#utility.yul\":14827:14829   */\n      0x26\n        /* \"#utility.yul\":14822:14825   */\n      dup4\n        /* \"#utility.yul\":14763:14830   */\n      tag_216\n      jump\t// in\n    tag_420:\n        /* \"#utility.yul\":14756:14830   */\n      swap2\n      pop\n        /* \"#utility.yul\":14839:14932   */\n      tag_421\n        /* \"#utility.yul\":14928:14931   */\n      dup3\n        /* \"#utility.yul\":14839:14932   */\n      tag_234\n      jump\t// in\n    tag_421:\n        /* \"#utility.yul\":14957:14959   */\n      0x40\n        /* \"#utility.yul\":14952:14955   */\n      dup3\n        /* \"#utility.yul\":14948:14960   */\n      add\n        /* \"#utility.yul\":14941:14960   */\n      swap1\n      pop\n        /* \"#utility.yul\":14600:14966   */\n      swap2\n      swap1\n      pop\n      jump\t// out\n        /* \"#utility.yul\":14972:15391   */\n    tag_111:\n        /* \"#utility.yul\":15138:15142   */\n      0x00\n        /* \"#utility.yul\":15176:15178   */\n      0x20\n        /* \"#utility.yul\":15165:15174   */\n      dup3\n        /* \"#utility.yul\":15161:15179   */\n      add\n        /* \"#utility.yul\":15153:15179   */\n      swap1\n      pop\n        /* \"#utility.yul\":15225:15234   */\n      dup2\n        /* \"#utility.yul\":15219:15223   */\n      dup2\n        /* \"#utility.yul\":15215:15235   */\n      sub\n        /* \"#utility.yul\":15211:15212   */\n      0x00\n        /* \"#utility.yul\":15200:15209   */\n      dup4\n        /* \"#utility.yul\":15196:15213   */\n      add\n        /* \"#utility.yul\":15189:15236   */\n      mstore\n        /* \"#utility.yul\":15253:15384   */\n      tag_423\n        /* \"#utility.yul\":15379:15383   */\n      dup2\n        /* \"#utility.yul\":15253:15384   */\n      tag_235\n      jump\t// in\n    tag_423:\n        /* \"#utility.yul\":15245:15384   */\n      swap1\n      pop\n        /* \"#utility.yul\":14972:15391   */\n      swap2\n      swap1\n      pop\n      jump\t// out\n        /* \"#utility.yul\":15397:15567   */\n    tag_236:\n        /* \"#utility.yul\":15537:15559   */\n      0x4e6f2066756e647320746f207769746864726177000000000000000000000000\n        /* \"#utility.yul\":15533:15534   */\n      0x00\n        /* \"#utility.yul\":15525:15531   */\n      dup3\n        /* \"#utility.yul\":15521:15535   */\n      add\n        /* \"#utility.yul\":15514:15560   */\n      mstore\n        /* \"#utility.yul\":15397:15567   */\n      pop\n      jump\t// out\n        /* \"#utility.yul\":15573:15939   */\n    tag_237:\n        /* \"#utility.yul\":15715:15718   */\n      0x00\n        /* \"#utility.yul\":15736:15803   */\n      tag_426\n        /* \"#utility.yul\":15800:15802   */\n      0x14\n        /* \"#utility.yul\":15795:15798   */\n      dup4\n        /* \"#utility.yul\":15736:15803   */\n      tag_216\n      jump\t// in\n    tag_426:\n        /* \"#utility.yul\":15729:15803   */\n      swap2\n      pop\n        /* \"#utility.yul\":15812:15905   */\n      tag_427\n        /* \"#utility.yul\":15901:15904   */\n      dup3\n        /* \"#utility.yul\":15812:15905   */\n      tag_236\n      jump\t// in\n    tag_427:\n        /* \"#utility.yul\":15930:15932   */\n      0x20\n        /* \"#utility.yul\":15925:15928   */\n      dup3\n        /* \"#utility.yul\":15921:15933   */\n      add\n        /* \"#utility.yul\":15914:15933   */\n      swap1\n      pop\n        /* \"#utility.yul\":15573:15939   */\n      swap2\n      swap1\n      pop\n      jump\t// out\n        /* \"#utility.yul\":15945:16364   */\n    tag_118:\n        /* \"#utility.yul\":16111:16115   */\n      0x00\n        /* \"#utility.yul\":16149:16151   */\n      0x20\n        /* \"#utility.yul\":16138:16147   */\n      dup3\n        /* \"#utility.yul\":16134:16152   */\n      add\n        /* \"#utility.yul\":16126:16152   */\n      swap1\n      pop\n        /* \"#utility.yul\":16198:16207   */\n      dup2\n        /* \"#utility.yul\":16192:16196   */\n      dup2\n        /* \"#utility.yul\":16188:16208   */\n      sub\n        /* \"#utility.yul\":16184:16185   */\n      0x00\n        /* \"#utility.yul\":16173:16182   */\n      dup4\n        /* \"#utility.yul\":16169:16186   */\n      add\n        /* \"#utility.yul\":16162:16209   */\n      mstore\n        /* \"#utility.yul\":16226:16357   */\n      tag_429\n        /* \"#utility.yul\":16352:16356   */\n      dup2\n        /* \"#utility.yul\":16226:16357   */\n      tag_237\n      jump\t// in\n    tag_429:\n        /* \"#utility.yul\":16218:16357   */\n      swap1\n      pop\n        /* \"#utility.yul\":15945:16364   */\n      swap2\n      swap1\n      pop\n      jump\t// out\n        /* \"#utility.yul\":16370:16535   */\n    tag_238:\n        /* \"#utility.yul\":16510:16527   */\n      0x5769746864726177206661696c65640000000000000000000000000000000000\n        /* \"#utility.yul\":16506:16507   */\n      0x00\n        /* \"#utility.yul\":16498:16504   */\n      dup3\n        /* \"#utility.yul\":16494:16508   */\n      add\n        /* \"#utility.yul\":16487:16528   */\n      mstore\n        /* \"#utility.yul\":16370:16535   */\n      pop\n      jump\t// out\n        /* \"#utility.yul\":16541:16907   */\n    tag_239:\n        /* \"#utility.yul\":16683:16686   */\n      0x00\n        /* \"#utility.yul\":16704:16771   */\n      tag_432\n        /* \"#utility.yul\":16768:16770   */\n      0x0f\n        /* \"#utility.yul\":16763:16766   */\n      dup4\n        /* \"#utility.yul\":16704:16771   */\n      tag_216\n      jump\t// in\n    tag_432:\n        /* \"#utility.yul\":16697:16771   */\n      swap2\n      pop\n        /* \"#utility.yul\":16780:16873   */\n      tag_433\n        /* \"#utility.yul\":16869:16872   */\n      dup3\n        /* \"#utility.yul\":16780:16873   */\n      tag_238\n      jump\t// in\n    tag_433:\n        /* \"#utility.yul\":16898:16900   */\n      0x20\n        /* \"#utility.yul\":16893:16896   */\n      dup3\n        /* \"#utility.yul\":16889:16901   */\n      add\n        /* \"#utility.yul\":16882:16901   */\n      swap1\n      pop\n        /* \"#utility.yul\":16541:16907   */\n      swap2\n      swap1\n      pop\n      jump\t// out\n        /* \"#utility.yul\":16913:17332   */\n    tag_125:\n        /* \"#utility.yul\":17079:17083   */\n      0x00\n        /* \"#utility.yul\":17117:17119   */\n      0x20\n        /* \"#utility.yul\":17106:17115   */\n      dup3\n        /* \"#utility.yul\":17102:17120   */\n      add\n        /* \"#utility.yul\":17094:17120   */\n      swap1\n      pop\n        /* \"#utility.yul\":17166:17175   */\n      dup2\n        /* \"#utility.yul\":17160:17164   */\n      dup2\n        /* \"#utility.yul\":17156:17176   */\n      sub\n        /* \"#utility.yul\":17152:17153   */\n      0x00\n        /* \"#utility.yul\":17141:17150   */\n      dup4\n        /* \"#utility.yul\":17137:17154   */\n      add\n        /* \"#utility.yul\":17130:17177   */\n      mstore\n        /* \"#utility.yul\":17194:17325   */\n      tag_435\n        /* \"#utility.yul\":17320:17324   */\n      dup2\n        /* \"#utility.yul\":17194:17325   */\n      tag_239\n      jump\t// in\n    tag_435:\n        /* \"#utility.yul\":17186:17325   */\n      swap1\n      pop\n        /* \"#utility.yul\":16913:17332   */\n      swap2\n      swap1\n      pop\n      jump\t// out\n        /* \"#utility.yul\":17338:17670   */\n    tag_129:\n        /* \"#utility.yul\":17459:17463   */\n      0x00\n        /* \"#utility.yul\":17497:17499   */\n      0x40\n        /* \"#utility.yul\":17486:17495   */\n      dup3\n        /* \"#utility.yul\":17482:17500   */\n      add\n        /* \"#utility.yul\":17474:17500   */\n      swap1\n      pop\n        /* \"#utility.yul\":17510:17581   */\n      tag_437\n        /* \"#utility.yul\":17578:17579   */\n      0x00\n        /* \"#utility.yul\":17567:17576   */\n      dup4\n        /* \"#utility.yul\":17563:17580   */\n      add\n        /* \"#utility.yul\":17554:17560   */\n      dup6\n        /* \"#utility.yul\":17510:17581   */\n      tag_214\n      jump\t// in\n    tag_437:\n        /* \"#utility.yul\":17591:17663   */\n      tag_438\n        /* \"#utility.yul\":17659:17661   */\n      0x20\n        /* \"#utility.yul\":17648:17657   */\n      dup4\n        /* \"#utility.yul\":17644:17662   */\n      add\n        /* \"#utility.yul\":17635:17641   */\n      dup5\n        /* \"#utility.yul\":17591:17663   */\n      tag_201\n      jump\t// in\n    tag_438:\n        /* \"#utility.yul\":17338:17670   */\n      swap4\n      swap3\n      pop\n      pop\n      pop\n      jump\t// out\n        /* \"#utility.yul\":17676:17819   */\n    tag_240:\n        /* \"#utility.yul\":17733:17738   */\n      0x00\n        /* \"#utility.yul\":17764:17770   */\n      dup2\n        /* \"#utility.yul\":17758:17771   */\n      mload\n        /* \"#utility.yul\":17749:17771   */\n      swap1\n      pop\n        /* \"#utility.yul\":17780:17813   */\n      tag_440\n        /* \"#utility.yul\":17807:17812   */\n      dup2\n        /* \"#utility.yul\":17780:17813   */\n      tag_195\n      jump\t// in\n    tag_440:\n        /* \"#utility.yul\":17676:17819   */\n      swap3\n      swap2\n      pop\n      pop\n      jump\t// out\n        /* \"#utility.yul\":17825:18176   */\n    tag_133:\n        /* \"#utility.yul\":17895:17901   */\n      0x00\n        /* \"#utility.yul\":17944:17946   */\n      0x20\n        /* \"#utility.yul\":17932:17941   */\n      dup3\n        /* \"#utility.yul\":17923:17930   */\n      dup5\n        /* \"#utility.yul\":17919:17942   */\n      sub\n        /* \"#utility.yul\":17915:17947   */\n      slt\n        /* \"#utility.yul\":17912:18031   */\n      iszero\n      tag_442\n      jumpi\n        /* \"#utility.yul\":17950:18029   */\n      tag_443\n      tag_192\n      jump\t// in\n    tag_443:\n        /* \"#utility.yul\":17912:18031   */\n    tag_442:\n        /* \"#utility.yul\":18070:18071   */\n      0x00\n        /* \"#utility.yul\":18095:18159   */\n      tag_444\n        /* \"#utility.yul\":18151:18158   */\n      dup5\n        /* \"#utility.yul\":18142:18148   */\n      dup3\n        /* \"#utility.yul\":18131:18140   */\n      dup6\n        /* \"#utility.yul\":18127:18149   */\n      add\n        /* \"#utility.yul\":18095:18159   */\n      tag_240\n      jump\t// in\n    tag_444:\n        /* \"#utility.yul\":18085:18159   */\n      swap2\n      pop\n        /* \"#utility.yul\":18041:18169   */\n      pop\n        /* \"#utility.yul\":17825:18176   */\n      swap3\n      swap2\n      pop\n      pop\n      jump\t// out\n        /* \"#utility.yul\":18182:18354   */\n    tag_241:\n        /* \"#utility.yul\":18322:18346   */\n      0x596f7520617265206e6f74207468652073656c6c657200000000000000000000\n        /* \"#utility.yul\":18318:18319   */\n      0x00\n        /* \"#utility.yul\":18310:18316   */\n      dup3\n        /* \"#utility.yul\":18306:18320   */\n      add\n        /* \"#utility.yul\":18299:18347   */\n      mstore\n        /* \"#utility.yul\":18182:18354   */\n      pop\n      jump\t// out\n        /* \"#utility.yul\":18360:18726   */\n    tag_242:\n        /* \"#utility.yul\":18502:18505   */\n      0x00\n        /* \"#utility.yul\":18523:18590   */\n      tag_447\n        /* \"#utility.yul\":18587:18589   */\n      0x16\n        /* \"#utility.yul\":18582:18585   */\n      dup4\n        /* \"#utility.yul\":18523:18590   */\n      tag_216\n      jump\t// in\n    tag_447:\n        /* \"#utility.yul\":18516:18590   */\n      swap2\n      pop\n        /* \"#utility.yul\":18599:18692   */\n      tag_448\n        /* \"#utility.yul\":18688:18691   */\n      dup3\n        /* \"#utility.yul\":18599:18692   */\n      tag_241\n      jump\t// in\n    tag_448:\n        /* \"#utility.yul\":18717:18719   */\n      0x20\n        /* \"#utility.yul\":18712:18715   */\n      dup3\n        /* \"#utility.yul\":18708:18720   */\n      add\n        /* \"#utility.yul\":18701:18720   */\n      swap1\n      pop\n        /* \"#utility.yul\":18360:18726   */\n      swap2\n      swap1\n      pop\n      jump\t// out\n        /* \"#utility.yul\":18732:19151   */\n    tag_139:\n        /* \"#utility.yul\":18898:18902   */\n      0x00\n        /* \"#utility.yul\":18936:18938   */\n      0x20\n        /* \"#utility.yul\":18925:18934   */\n      dup3\n        /* \"#utility.yul\":18921:18939   */\n      add\n        /* \"#utility.yul\":18913:18939   */\n      swap1\n      pop\n        /* \"#utility.yul\":18985:18994   */\n      dup2\n        /* \"#utility.yul\":18979:18983   */\n      dup2\n        /* \"#utility.yul\":18975:18995   */\n      sub\n        /* \"#utility.yul\":18971:18972   */\n      0x00\n        /* \"#utility.yul\":18960:18969   */\n      dup4\n        /* \"#utility.yul\":18956:18973   */\n      add\n        /* \"#utility.yul\":18949:18996   */\n      mstore\n        /* \"#utility.yul\":19013:19144   */\n      tag_450\n        /* \"#utility.yul\":19139:19143   */\n      dup2\n        /* \"#utility.yul\":19013:19144   */\n      tag_242\n      jump\t// in\n    tag_450:\n        /* \"#utility.yul\":19005:19144   */\n      swap1\n      pop\n        /* \"#utility.yul\":18732:19151   */\n      swap2\n      swap1\n      pop\n      jump\t// out\n        /* \"#utility.yul\":19157:19336   */\n    tag_243:\n        /* \"#utility.yul\":19297:19328   */\n      0x436f6d6d697373696f6e2063616e6e6f74206578636565642031303025000000\n        /* \"#utility.yul\":19293:19294   */\n      0x00\n        /* \"#utility.yul\":19285:19291   */\n      dup3\n        /* \"#utility.yul\":19281:19295   */\n      add\n        /* \"#utility.yul\":19274:19329   */\n      mstore\n        /* \"#utility.yul\":19157:19336   */\n      pop\n      jump\t// out\n        /* \"#utility.yul\":19342:19708   */\n    tag_244:\n        /* \"#utility.yul\":19484:19487   */\n      0x00\n        /* \"#utility.yul\":19505:19572   */\n      tag_453\n        /* \"#utility.yul\":19569:19571   */\n      0x1d\n        /* \"#utility.yul\":19564:19567   */\n      dup4\n        /* \"#utility.yul\":19505:19572   */\n      tag_216\n      jump\t// in\n    tag_453:\n        /* \"#utility.yul\":19498:19572   */\n      swap2\n      pop\n        /* \"#utility.yul\":19581:19674   */\n      tag_454\n        /* \"#utility.yul\":19670:19673   */\n      dup3\n        /* \"#utility.yul\":19581:19674   */\n      tag_243\n      jump\t// in\n    tag_454:\n        /* \"#utility.yul\":19699:19701   */\n      0x20\n        /* \"#utility.yul\":19694:19697   */\n      dup3\n        /* \"#utility.yul\":19690:19702   */\n      add\n        /* \"#utility.yul\":19683:19702   */\n      swap1\n      pop\n        /* \"#utility.yul\":19342:19708   */\n      swap2\n      swap1\n      pop\n      jump\t// out\n        /* \"#utility.yul\":19714:20133   */\n    tag_146:\n        /* \"#utility.yul\":19880:19884   */\n      0x00\n        /* \"#utility.yul\":19918:19920   */\n      0x20\n        /* \"#utility.yul\":19907:19916   */\n      dup3\n        /* \"#utility.yul\":19903:19921   */\n      add\n        /* \"#utility.yul\":19895:19921   */\n      swap1\n      pop\n        /* \"#utility.yul\":19967:19976   */\n      dup2\n        /* \"#utility.yul\":19961:19965   */\n      dup2\n        /* \"#utility.yul\":19957:19977   */\n      sub\n        /* \"#utility.yul\":19953:19954   */\n      0x00\n        /* \"#utility.yul\":19942:19951   */\n      dup4\n        /* \"#utility.yul\":19938:19955   */\n      add\n        /* \"#utility.yul\":19931:19978   */\n      mstore\n        /* \"#utility.yul\":19995:20126   */\n      tag_456\n        /* \"#utility.yul\":20121:20125   */\n      dup2\n        /* \"#utility.yul\":19995:20126   */\n      tag_244\n      jump\t// in\n    tag_456:\n        /* \"#utility.yul\":19987:20126   */\n      swap1\n      pop\n        /* \"#utility.yul\":19714:20133   */\n      swap2\n      swap1\n      pop\n      jump\t// out\n        /* \"#utility.yul\":20139:20317   */\n    tag_245:\n        /* \"#utility.yul\":20279:20309   */\n      0x5072696365206d7573742062652067726561746572207468616e203000000000\n        /* \"#utility.yul\":20275:20276   */\n      0x00\n        /* \"#utility.yul\":20267:20273   */\n      dup3\n        /* \"#utility.yul\":20263:20277   */\n      add\n        /* \"#utility.yul\":20256:20310   */\n      mstore\n        /* \"#utility.yul\":20139:20317   */\n      pop\n      jump\t// out\n        /* \"#utility.yul\":20323:20689   */\n    tag_246:\n        /* \"#utility.yul\":20465:20468   */\n      0x00\n        /* \"#utility.yul\":20486:20553   */\n      tag_459\n        /* \"#utility.yul\":20550:20552   */\n      0x1c\n        /* \"#utility.yul\":20545:20548   */\n      dup4\n        /* \"#utility.yul\":20486:20553   */\n      tag_216\n      jump\t// in\n    tag_459:\n        /* \"#utility.yul\":20479:20553   */\n      swap2\n      pop\n        /* \"#utility.yul\":20562:20655   */\n      tag_460\n        /* \"#utility.yul\":20651:20654   */\n      dup3\n        /* \"#utility.yul\":20562:20655   */\n      tag_245\n      jump\t// in\n    tag_460:\n        /* \"#utility.yul\":20680:20682   */\n      0x20\n        /* \"#utility.yul\":20675:20678   */\n      dup3\n        /* \"#utility.yul\":20671:20683   */\n      add\n        /* \"#utility.yul\":20664:20683   */\n      swap1\n      pop\n        /* \"#utility.yul\":20323:20689   */\n      swap2\n      swap1\n      pop\n      jump\t// out\n        /* \"#utility.yul\":20695:21114   */\n    tag_151:\n        /* \"#utility.yul\":20861:20865   */\n      0x00\n        /* \"#utility.yul\":20899:20901   */\n      0x20\n        /* \"#utility.yul\":20888:20897   */\n      dup3\n        /* \"#utility.yul\":20884:20902   */\n      add\n        /* \"#utility.yul\":20876:20902   */\n      swap1\n      pop\n        /* \"#utility.yul\":20948:20957   */\n      dup2\n        /* \"#utility.yul\":20942:20946   */\n      dup2\n        /* \"#utility.yul\":20938:20958   */\n      sub\n        /* \"#utility.yul\":20934:20935   */\n      0x00\n        /* \"#utility.yul\":20923:20932   */\n      dup4\n        /* \"#utility.yul\":20919:20936   */\n      add\n        /* \"#utility.yul\":20912:20959   */\n      mstore\n        /* \"#utility.yul\":20976:21107   */\n      tag_462\n        /* \"#utility.yul\":21102:21106   */\n      dup2\n        /* \"#utility.yul\":20976:21107   */\n      tag_246\n      jump\t// in\n    tag_462:\n        /* \"#utility.yul\":20968:21107   */\n      swap1\n      pop\n        /* \"#utility.yul\":20695:21114   */\n      swap2\n      swap1\n      pop\n      jump\t// out\n        /* \"#utility.yul\":21120:21288   */\n    tag_247:\n        /* \"#utility.yul\":21260:21280   */\n      0x50617373656420707269636520636865636b0000000000000000000000000000\n        /* \"#utility.yul\":21256:21257   */\n      0x00\n        /* \"#utility.yul\":21248:21254   */\n      dup3\n        /* \"#utility.yul\":21244:21258   */\n      add\n        /* \"#utility.yul\":21237:21281   */\n      mstore\n        /* \"#utility.yul\":21120:21288   */\n      pop\n      jump\t// out\n        /* \"#utility.yul\":21294:21660   */\n    tag_248:\n        /* \"#utility.yul\":21436:21439   */\n      0x00\n        /* \"#utility.yul\":21457:21524   */\n      tag_465\n        /* \"#utility.yul\":21521:21523   */\n      0x12\n        /* \"#utility.yul\":21516:21519   */\n      dup4\n        /* \"#utility.yul\":21457:21524   */\n      tag_216\n      jump\t// in\n    tag_465:\n        /* \"#utility.yul\":21450:21524   */\n      swap2\n      pop\n        /* \"#utility.yul\":21533:21626   */\n      tag_466\n        /* \"#utility.yul\":21622:21625   */\n      dup3\n        /* \"#utility.yul\":21533:21626   */\n      tag_247\n      jump\t// in\n    tag_466:\n        /* \"#utility.yul\":21651:21653   */\n      0x20\n        /* \"#utility.yul\":21646:21649   */\n      dup3\n        /* \"#utility.yul\":21642:21654   */\n      add\n        /* \"#utility.yul\":21635:21654   */\n      swap1\n      pop\n        /* \"#utility.yul\":21294:21660   */\n      swap2\n      swap1\n      pop\n      jump\t// out\n        /* \"#utility.yul\":21666:22085   */\n    tag_153:\n        /* \"#utility.yul\":21832:21836   */\n      0x00\n        /* \"#utility.yul\":21870:21872   */\n      0x20\n        /* \"#utility.yul\":21859:21868   */\n      dup3\n        /* \"#utility.yul\":21855:21873   */\n      add\n        /* \"#utility.yul\":21847:21873   */\n      swap1\n      pop\n        /* \"#utility.yul\":21919:21928   */\n      dup2\n        /* \"#utility.yul\":21913:21917   */\n      dup2\n        /* \"#utility.yul\":21909:21929   */\n      sub\n        /* \"#utility.yul\":21905:21906   */\n      0x00\n        /* \"#utility.yul\":21894:21903   */\n      dup4\n        /* \"#utility.yul\":21890:21907   */\n      add\n        /* \"#utility.yul\":21883:21930   */\n      mstore\n        /* \"#utility.yul\":21947:22078   */\n      tag_468\n        /* \"#utility.yul\":22073:22077   */\n      dup2\n        /* \"#utility.yul\":21947:22078   */\n      tag_248\n      jump\t// in\n    tag_468:\n        /* \"#utility.yul\":21939:22078   */\n      swap1\n      pop\n        /* \"#utility.yul\":21666:22085   */\n      swap2\n      swap1\n      pop\n      jump\t// out\n        /* \"#utility.yul\":22091:22313   */\n    tag_155:\n        /* \"#utility.yul\":22184:22188   */\n      0x00\n        /* \"#utility.yul\":22222:22224   */\n      0x20\n        /* \"#utility.yul\":22211:22220   */\n      dup3\n        /* \"#utility.yul\":22207:22225   */\n      add\n        /* \"#utility.yul\":22199:22225   */\n      swap1\n      pop\n        /* \"#utility.yul\":22235:22306   */\n      tag_470\n        /* \"#utility.yul\":22303:22304   */\n      0x00\n        /* \"#utility.yul\":22292:22301   */\n      dup4\n        /* \"#utility.yul\":22288:22305   */\n      add\n        /* \"#utility.yul\":22279:22285   */\n      dup5\n        /* \"#utility.yul\":22235:22306   */\n      tag_233\n      jump\t// in\n    tag_470:\n        /* \"#utility.yul\":22091:22313   */\n      swap3\n      swap2\n      pop\n      pop\n      jump\t// out\n        /* \"#utility.yul\":22319:22462   */\n    tag_249:\n        /* \"#utility.yul\":22376:22381   */\n      0x00\n        /* \"#utility.yul\":22407:22413   */\n      dup2\n        /* \"#utility.yul\":22401:22414   */\n      mload\n        /* \"#utility.yul\":22392:22414   */\n      swap1\n      pop\n        /* \"#utility.yul\":22423:22456   */\n      tag_472\n        /* \"#utility.yul\":22450:22455   */\n      dup2\n        /* \"#utility.yul\":22423:22456   */\n      tag_199\n      jump\t// in\n    tag_472:\n        /* \"#utility.yul\":22319:22462   */\n      swap3\n      swap2\n      pop\n      pop\n      jump\t// out\n        /* \"#utility.yul\":22468:22819   */\n    tag_159:\n        /* \"#utility.yul\":22538:22544   */\n      0x00\n        /* \"#utility.yul\":22587:22589   */\n      0x20\n        /* \"#utility.yul\":22575:22584   */\n      dup3\n        /* \"#utility.yul\":22566:22573   */\n      dup5\n        /* \"#utility.yul\":22562:22585   */\n      sub\n        /* \"#utility.yul\":22558:22590   */\n      slt\n        /* \"#utility.yul\":22555:22674   */\n      iszero\n      tag_474\n      jumpi\n        /* \"#utility.yul\":22593:22672   */\n      tag_475\n      tag_192\n      jump\t// in\n    tag_475:\n        /* \"#utility.yul\":22555:22674   */\n    tag_474:\n        /* \"#utility.yul\":22713:22714   */\n      0x00\n        /* \"#utility.yul\":22738:22802   */\n      tag_476\n        /* \"#utility.yul\":22794:22801   */\n      dup5\n        /* \"#utility.yul\":22785:22791   */\n      dup3\n        /* \"#utility.yul\":22774:22783   */\n      dup6\n        /* \"#utility.yul\":22770:22792   */\n      add\n        /* \"#utility.yul\":22738:22802   */\n      tag_249\n      jump\t// in\n    tag_476:\n        /* \"#utility.yul\":22728:22802   */\n      swap2\n      pop\n        /* \"#utility.yul\":22684:22812   */\n      pop\n        /* \"#utility.yul\":22468:22819   */\n      swap3\n      swap2\n      pop\n      pop\n      jump\t// out\n        /* \"#utility.yul\":22825:22990   */\n    tag_250:\n        /* \"#utility.yul\":22965:22982   */\n      0x4f776e6572207265747269657665640000000000000000000000000000000000\n        /* \"#utility.yul\":22961:22962   */\n      0x00\n        /* \"#utility.yul\":22953:22959   */\n      dup3\n        /* \"#utility.yul\":22949:22963   */\n      add\n        /* \"#utility.yul\":22942:22983   */\n      mstore\n        /* \"#utility.yul\":22825:22990   */\n      pop\n      jump\t// out\n        /* \"#utility.yul\":22996:23362   */\n    tag_251:\n        /* \"#utility.yul\":23138:23141   */\n      0x00\n        /* \"#utility.yul\":23159:23226   */\n      tag_479\n        /* \"#utility.yul\":23223:23225   */\n      0x0f\n        /* \"#utility.yul\":23218:23221   */\n      dup4\n        /* \"#utility.yul\":23159:23226   */\n      tag_216\n      jump\t// in\n    tag_479:\n        /* \"#utility.yul\":23152:23226   */\n      swap2\n      pop\n        /* \"#utility.yul\":23235:23328   */\n      tag_480\n        /* \"#utility.yul\":23324:23327   */\n      dup3\n        /* \"#utility.yul\":23235:23328   */\n      tag_250\n      jump\t// in\n    tag_480:\n        /* \"#utility.yul\":23353:23355   */\n      0x20\n        /* \"#utility.yul\":23348:23351   */\n      dup3\n        /* \"#utility.yul\":23344:23356   */\n      add\n        /* \"#utility.yul\":23337:23356   */\n      swap1\n      pop\n        /* \"#utility.yul\":22996:23362   */\n      swap2\n      swap1\n      pop\n      jump\t// out\n        /* \"#utility.yul\":23368:23787   */\n    tag_161:\n        /* \"#utility.yul\":23534:23538   */\n      0x00\n        /* \"#utility.yul\":23572:23574   */\n      0x20\n        /* \"#utility.yul\":23561:23570   */\n      dup3\n        /* \"#utility.yul\":23557:23575   */\n      add\n        /* \"#utility.yul\":23549:23575   */\n      swap1\n      pop\n        /* \"#utility.yul\":23621:23630   */\n      dup2\n        /* \"#utility.yul\":23615:23619   */\n      dup2\n        /* \"#utility.yul\":23611:23631   */\n      sub\n        /* \"#utility.yul\":23607:23608   */\n      0x00\n        /* \"#utility.yul\":23596:23605   */\n      dup4\n        /* \"#utility.yul\":23592:23609   */\n      add\n        /* \"#utility.yul\":23585:23632   */\n      mstore\n        /* \"#utility.yul\":23649:23780   */\n      tag_482\n        /* \"#utility.yul\":23775:23779   */\n      dup2\n        /* \"#utility.yul\":23649:23780   */\n      tag_251\n      jump\t// in\n    tag_482:\n        /* \"#utility.yul\":23641:23780   */\n      swap1\n      pop\n        /* \"#utility.yul\":23368:23787   */\n      swap2\n      swap1\n      pop\n      jump\t// out\n        /* \"#utility.yul\":23793:24015   */\n    tag_252:\n        /* \"#utility.yul\":23933:23967   */\n      0x596f7520617265206e6f7420746865206f776e6572206f66207468697320746f\n        /* \"#utility.yul\":23929:23930   */\n      0x00\n        /* \"#utility.yul\":23921:23927   */\n      dup3\n        /* \"#utility.yul\":23917:23931   */\n      add\n        /* \"#utility.yul\":23910:23968   */\n      mstore\n        /* \"#utility.yul\":24002:24007   */\n      0x6b656e0000000000000000000000000000000000000000000000000000000000\n        /* \"#utility.yul\":23997:23999   */\n      0x20\n        /* \"#utility.yul\":23989:23995   */\n      dup3\n        /* \"#utility.yul\":23985:24000   */\n      add\n        /* \"#utility.yul\":23978:24008   */\n      mstore\n        /* \"#utility.yul\":23793:24015   */\n      pop\n      jump\t// out\n        /* \"#utility.yul\":24021:24387   */\n    tag_253:\n        /* \"#utility.yul\":24163:24166   */\n      0x00\n        /* \"#utility.yul\":24184:24251   */\n      tag_485\n        /* \"#utility.yul\":24248:24250   */\n      0x23\n        /* \"#utility.yul\":24243:24246   */\n      dup4\n        /* \"#utility.yul\":24184:24251   */\n      tag_216\n      jump\t// in\n    tag_485:\n        /* \"#utility.yul\":24177:24251   */\n      swap2\n      pop\n        /* \"#utility.yul\":24260:24353   */\n      tag_486\n        /* \"#utility.yul\":24349:24352   */\n      dup3\n        /* \"#utility.yul\":24260:24353   */\n      tag_252\n      jump\t// in\n    tag_486:\n        /* \"#utility.yul\":24378:24380   */\n      0x40\n        /* \"#utility.yul\":24373:24376   */\n      dup3\n        /* \"#utility.yul\":24369:24381   */\n      add\n        /* \"#utility.yul\":24362:24381   */\n      swap1\n      pop\n        /* \"#utility.yul\":24021:24387   */\n      swap2\n      swap1\n      pop\n      jump\t// out\n        /* \"#utility.yul\":24393:24812   */\n    tag_164:\n        /* \"#utility.yul\":24559:24563   */\n      0x00\n        /* \"#utility.yul\":24597:24599   */\n      0x20\n        /* \"#utility.yul\":24586:24595   */\n      dup3\n        /* \"#utility.yul\":24582:24600   */\n      add\n        /* \"#utility.yul\":24574:24600   */\n      swap1\n      pop\n        /* \"#utility.yul\":24646:24655   */\n      dup2\n        /* \"#utility.yul\":24640:24644   */\n      dup2\n        /* \"#utility.yul\":24636:24656   */\n      sub\n        /* \"#utility.yul\":24632:24633   */\n      0x00\n        /* \"#utility.yul\":24621:24630   */\n      dup4\n        /* \"#utility.yul\":24617:24634   */\n      add\n        /* \"#utility.yul\":24610:24657   */\n      mstore\n        /* \"#utility.yul\":24674:24805   */\n      tag_488\n        /* \"#utility.yul\":24800:24804   */\n      dup2\n        /* \"#utility.yul\":24674:24805   */\n      tag_253\n      jump\t// in\n    tag_488:\n        /* \"#utility.yul\":24666:24805   */\n      swap1\n      pop\n        /* \"#utility.yul\":24393:24812   */\n      swap2\n      swap1\n      pop\n      jump\t// out\n        /* \"#utility.yul\":24818:24986   */\n    tag_254:\n        /* \"#utility.yul\":24958:24978   */\n      0x4f776e6572736869702076657269666965640000000000000000000000000000\n        /* \"#utility.yul\":24954:24955   */\n      0x00\n        /* \"#utility.yul\":24946:24952   */\n      dup3\n        /* \"#utility.yul\":24942:24956   */\n      add\n        /* \"#utility.yul\":24935:24979   */\n      mstore\n        /* \"#utility.yul\":24818:24986   */\n      pop\n      jump\t// out\n        /* \"#utility.yul\":24992:25358   */\n    tag_255:\n        /* \"#utility.yul\":25134:25137   */\n      0x00\n        /* \"#utility.yul\":25155:25222   */\n      tag_491\n        /* \"#utility.yul\":25219:25221   */\n      0x12\n        /* \"#utility.yul\":25214:25217   */\n      dup4\n        /* \"#utility.yul\":25155:25222   */\n      tag_216\n      jump\t// in\n    tag_491:\n        /* \"#utility.yul\":25148:25222   */\n      swap2\n      pop\n        /* \"#utility.yul\":25231:25324   */\n      tag_492\n        /* \"#utility.yul\":25320:25323   */\n      dup3\n        /* \"#utility.yul\":25231:25324   */\n      tag_254\n      jump\t// in\n    tag_492:\n        /* \"#utility.yul\":25349:25351   */\n      0x20\n        /* \"#utility.yul\":25344:25347   */\n      dup3\n        /* \"#utility.yul\":25340:25352   */\n      add\n        /* \"#utility.yul\":25333:25352   */\n      swap1\n      pop\n        /* \"#utility.yul\":24992:25358   */\n      swap2\n      swap1\n      pop\n      jump\t// out\n        /* \"#utility.yul\":25364:25783   */\n    tag_166:\n        /* \"#utility.yul\":25530:25534   */\n      0x00\n        /* \"#utility.yul\":25568:25570   */\n      0x20\n        /* \"#utility.yul\":25557:25566   */\n      dup3\n        /* \"#utility.yul\":25553:25571   */\n      add\n        /* \"#utility.yul\":25545:25571   */\n      swap1\n      pop\n        /* \"#utility.yul\":25617:25626   */\n      dup2\n        /* \"#utility.yul\":25611:25615   */\n      dup2\n        /* \"#utility.yul\":25607:25627   */\n      sub\n        /* \"#utility.yul\":25603:25604   */\n      0x00\n        /* \"#utility.yul\":25592:25601   */\n      dup4\n        /* \"#utility.yul\":25588:25605   */\n      add\n        /* \"#utility.yul\":25581:25628   */\n      mstore\n        /* \"#utility.yul\":25645:25776   */\n      tag_494\n        /* \"#utility.yul\":25771:25775   */\n      dup2\n        /* \"#utility.yul\":25645:25776   */\n      tag_255\n      jump\t// in\n    tag_494:\n        /* \"#utility.yul\":25637:25776   */\n      swap1\n      pop\n        /* \"#utility.yul\":25364:25783   */\n      swap2\n      swap1\n      pop\n      jump\t// out\n        /* \"#utility.yul\":25789:26121   */\n    tag_173:\n        /* \"#utility.yul\":25910:25914   */\n      0x00\n        /* \"#utility.yul\":25948:25950   */\n      0x40\n        /* \"#utility.yul\":25937:25946   */\n      dup3\n        /* \"#utility.yul\":25933:25951   */\n      add\n        /* \"#utility.yul\":25925:25951   */\n      swap1\n      pop\n        /* \"#utility.yul\":25961:26032   */\n      tag_496\n        /* \"#utility.yul\":26029:26030   */\n      0x00\n        /* \"#utility.yul\":26018:26027   */\n      dup4\n        /* \"#utility.yul\":26014:26031   */\n      add\n        /* \"#utility.yul\":26005:26011   */\n      dup6\n        /* \"#utility.yul\":25961:26032   */\n      tag_214\n      jump\t// in\n    tag_496:\n        /* \"#utility.yul\":26042:26114   */\n      tag_497\n        /* \"#utility.yul\":26110:26112   */\n      0x20\n        /* \"#utility.yul\":26099:26108   */\n      dup4\n        /* \"#utility.yul\":26095:26113   */\n      add\n        /* \"#utility.yul\":26086:26092   */\n      dup5\n        /* \"#utility.yul\":26042:26114   */\n      tag_214\n      jump\t// in\n    tag_497:\n        /* \"#utility.yul\":25789:26121   */\n      swap4\n      swap3\n      pop\n      pop\n      pop\n      jump\t// out\n        /* \"#utility.yul\":26127:26217   */\n    tag_256:\n        /* \"#utility.yul\":26161:26168   */\n      0x00\n        /* \"#utility.yul\":26204:26209   */\n      dup2\n        /* \"#utility.yul\":26197:26210   */\n      iszero\n        /* \"#utility.yul\":26190:26211   */\n      iszero\n        /* \"#utility.yul\":26179:26211   */\n      swap1\n      pop\n        /* \"#utility.yul\":26127:26217   */\n      swap2\n      swap1\n      pop\n      jump\t// out\n        /* \"#utility.yul\":26223:26339   */\n    tag_257:\n        /* \"#utility.yul\":26293:26314   */\n      tag_500\n        /* \"#utility.yul\":26308:26313   */\n      dup2\n        /* \"#utility.yul\":26293:26314   */\n      tag_256\n      jump\t// in\n    tag_500:\n        /* \"#utility.yul\":26286:26291   */\n      dup2\n        /* \"#utility.yul\":26283:26315   */\n      eq\n        /* \"#utility.yul\":26273:26333   */\n      tag_501\n      jumpi\n        /* \"#utility.yul\":26329:26330   */\n      0x00\n        /* \"#utility.yul\":26326:26327   */\n      dup1\n        /* \"#utility.yul\":26319:26331   */\n      revert\n        /* \"#utility.yul\":26273:26333   */\n    tag_501:\n        /* \"#utility.yul\":26223:26339   */\n      pop\n      jump\t// out\n        /* \"#utility.yul\":26345:26482   */\n    tag_258:\n        /* \"#utility.yul\":26399:26404   */\n      0x00\n        /* \"#utility.yul\":26430:26436   */\n      dup2\n        /* \"#utility.yul\":26424:26437   */\n      mload\n        /* \"#utility.yul\":26415:26437   */\n      swap1\n      pop\n        /* \"#utility.yul\":26446:26476   */\n      tag_503\n        /* \"#utility.yul\":26470:26475   */\n      dup2\n        /* \"#utility.yul\":26446:26476   */\n      tag_257\n      jump\t// in\n    tag_503:\n        /* \"#utility.yul\":26345:26482   */\n      swap3\n      swap2\n      pop\n      pop\n      jump\t// out\n        /* \"#utility.yul\":26488:26833   */\n    tag_177:\n        /* \"#utility.yul\":26555:26561   */\n      0x00\n        /* \"#utility.yul\":26604:26606   */\n      0x20\n        /* \"#utility.yul\":26592:26601   */\n      dup3\n        /* \"#utility.yul\":26583:26590   */\n      dup5\n        /* \"#utility.yul\":26579:26602   */\n      sub\n        /* \"#utility.yul\":26575:26607   */\n      slt\n        /* \"#utility.yul\":26572:26691   */\n      iszero\n      tag_505\n      jumpi\n        /* \"#utility.yul\":26610:26689   */\n      tag_506\n      tag_192\n      jump\t// in\n    tag_506:\n        /* \"#utility.yul\":26572:26691   */\n    tag_505:\n        /* \"#utility.yul\":26730:26731   */\n      0x00\n        /* \"#utility.yul\":26755:26816   */\n      tag_507\n        /* \"#utility.yul\":26808:26815   */\n      dup5\n        /* \"#utility.yul\":26799:26805   */\n      dup3\n        /* \"#utility.yul\":26788:26797   */\n      dup6\n        /* \"#utility.yul\":26784:26806   */\n      add\n        /* \"#utility.yul\":26755:26816   */\n      tag_258\n      jump\t// in\n    tag_507:\n        /* \"#utility.yul\":26745:26816   */\n      swap2\n      pop\n        /* \"#utility.yul\":26701:26826   */\n      pop\n        /* \"#utility.yul\":26488:26833   */\n      swap3\n      swap2\n      pop\n      pop\n      jump\t// out\n        /* \"#utility.yul\":26839:27076   */\n    tag_259:\n        /* \"#utility.yul\":26979:27013   */\n      0x4d61726b6574706c616365206973206e6f7420617070726f76656420746f2074\n        /* \"#utility.yul\":26975:26976   */\n      0x00\n        /* \"#utility.yul\":26967:26973   */\n      dup3\n        /* \"#utility.yul\":26963:26977   */\n      add\n        /* \"#utility.yul\":26956:27014   */\n      mstore\n        /* \"#utility.yul\":27048:27068   */\n      0x72616e73666572207468697320746f6b656e0000000000000000000000000000\n        /* \"#utility.yul\":27043:27045   */\n      0x20\n        /* \"#utility.yul\":27035:27041   */\n      dup3\n        /* \"#utility.yul\":27031:27046   */\n      add\n        /* \"#utility.yul\":27024:27069   */\n      mstore\n        /* \"#utility.yul\":26839:27076   */\n      pop\n      jump\t// out\n        /* \"#utility.yul\":27082:27448   */\n    tag_260:\n        /* \"#utility.yul\":27224:27227   */\n      0x00\n        /* \"#utility.yul\":27245:27312   */\n      tag_510\n        /* \"#utility.yul\":27309:27311   */\n      0x32\n        /* \"#utility.yul\":27304:27307   */\n      dup4\n        /* \"#utility.yul\":27245:27312   */\n      tag_216\n      jump\t// in\n    tag_510:\n        /* \"#utility.yul\":27238:27312   */\n      swap2\n      pop\n        /* \"#utility.yul\":27321:27414   */\n      tag_511\n        /* \"#utility.yul\":27410:27413   */\n      dup3\n        /* \"#utility.yul\":27321:27414   */\n      tag_259\n      jump\t// in\n    tag_511:\n        /* \"#utility.yul\":27439:27441   */\n      0x40\n        /* \"#utility.yul\":27434:27437   */\n      dup3\n        /* \"#utility.yul\":27430:27442   */\n      add\n        /* \"#utility.yul\":27423:27442   */\n      swap1\n      pop\n        /* \"#utility.yul\":27082:27448   */\n      swap2\n      swap1\n      pop\n      jump\t// out\n        /* \"#utility.yul\":27454:27873   */\n    tag_180:\n        /* \"#utility.yul\":27620:27624   */\n      0x00\n        /* \"#utility.yul\":27658:27660   */\n      0x20\n        /* \"#utility.yul\":27647:27656   */\n      dup3\n        /* \"#utility.yul\":27643:27661   */\n      add\n        /* \"#utility.yul\":27635:27661   */\n      swap1\n      pop\n        /* \"#utility.yul\":27707:27716   */\n      dup2\n        /* \"#utility.yul\":27701:27705   */\n      dup2\n        /* \"#utility.yul\":27697:27717   */\n      sub\n        /* \"#utility.yul\":27693:27694   */\n      0x00\n        /* \"#utility.yul\":27682:27691   */\n      dup4\n        /* \"#utility.yul\":27678:27695   */\n      add\n        /* \"#utility.yul\":27671:27718   */\n      mstore\n        /* \"#utility.yul\":27735:27866   */\n      tag_513\n        /* \"#utility.yul\":27861:27865   */\n      dup2\n        /* \"#utility.yul\":27735:27866   */\n      tag_260\n      jump\t// in\n    tag_513:\n        /* \"#utility.yul\":27727:27866   */\n      swap1\n      pop\n        /* \"#utility.yul\":27454:27873   */\n      swap2\n      swap1\n      pop\n      jump\t// out\n        /* \"#utility.yul\":27879:28046   */\n    tag_261:\n        /* \"#utility.yul\":28019:28038   */\n      0x417070726f76616c207665726966696564000000000000000000000000000000\n        /* \"#utility.yul\":28015:28016   */\n      0x00\n        /* \"#utility.yul\":28007:28013   */\n      dup3\n        /* \"#utility.yul\":28003:28017   */\n      add\n        /* \"#utility.yul\":27996:28039   */\n      mstore\n        /* \"#utility.yul\":27879:28046   */\n      pop\n      jump\t// out\n        /* \"#utility.yul\":28052:28418   */\n    tag_262:\n        /* \"#utility.yul\":28194:28197   */\n      0x00\n        /* \"#utility.yul\":28215:28282   */\n      tag_516\n        /* \"#utility.yul\":28279:28281   */\n      0x11\n        /* \"#utility.yul\":28274:28277   */\n      dup4\n        /* \"#utility.yul\":28215:28282   */\n      tag_216\n      jump\t// in\n    tag_516:\n        /* \"#utility.yul\":28208:28282   */\n      swap2\n      pop\n        /* \"#utility.yul\":28291:28384   */\n      tag_517\n        /* \"#utility.yul\":28380:28383   */\n      dup3\n        /* \"#utility.yul\":28291:28384   */\n      tag_261\n      jump\t// in\n    tag_517:\n        /* \"#utility.yul\":28409:28411   */\n      0x20\n        /* \"#utility.yul\":28404:28407   */\n      dup3\n        /* \"#utility.yul\":28400:28412   */\n      add\n        /* \"#utility.yul\":28393:28412   */\n      swap1\n      pop\n        /* \"#utility.yul\":28052:28418   */\n      swap2\n      swap1\n      pop\n      jump\t// out\n        /* \"#utility.yul\":28424:28843   */\n    tag_182:\n        /* \"#utility.yul\":28590:28594   */\n      0x00\n        /* \"#utility.yul\":28628:28630   */\n      0x20\n        /* \"#utility.yul\":28617:28626   */\n      dup3\n        /* \"#utility.yul\":28613:28631   */\n      add\n        /* \"#utility.yul\":28605:28631   */\n      swap1\n      pop\n        /* \"#utility.yul\":28677:28686   */\n      dup2\n        /* \"#utility.yul\":28671:28675   */\n      dup2\n        /* \"#utility.yul\":28667:28687   */\n      sub\n        /* \"#utility.yul\":28663:28664   */\n      0x00\n        /* \"#utility.yul\":28652:28661   */\n      dup4\n        /* \"#utility.yul\":28648:28665   */\n      add\n        /* \"#utility.yul\":28641:28688   */\n      mstore\n        /* \"#utility.yul\":28705:28836   */\n      tag_519\n        /* \"#utility.yul\":28831:28835   */\n      dup2\n        /* \"#utility.yul\":28705:28836   */\n      tag_262\n      jump\t// in\n    tag_519:\n        /* \"#utility.yul\":28697:28836   */\n      swap1\n      pop\n        /* \"#utility.yul\":28424:28843   */\n      swap2\n      swap1\n      pop\n      jump\t// out\n        /* \"#utility.yul\":28849:28945   */\n    tag_263:\n        /* \"#utility.yul\":28883:28891   */\n      0x00\n        /* \"#utility.yul\":28932:28937   */\n      dup2\n        /* \"#utility.yul\":28927:28930   */\n      0x80\n        /* \"#utility.yul\":28923:28938   */\n      shl\n        /* \"#utility.yul\":28902:28938   */\n      swap1\n      pop\n        /* \"#utility.yul\":28849:28945   */\n      swap2\n      swap1\n      pop\n      jump\t// out\n        /* \"#utility.yul\":28951:29046   */\n    tag_264:\n        /* \"#utility.yul\":28990:28997   */\n      0x00\n        /* \"#utility.yul\":29019:29040   */\n      tag_522\n        /* \"#utility.yul\":29034:29039   */\n      dup3\n        /* \"#utility.yul\":29019:29040   */\n      tag_263\n      jump\t// in\n    tag_522:\n        /* \"#utility.yul\":29008:29040   */\n      swap1\n      pop\n        /* \"#utility.yul\":28951:29046   */\n      swap2\n      swap1\n      pop\n      jump\t// out\n        /* \"#utility.yul\":29052:29209   */\n    tag_265:\n        /* \"#utility.yul\":29157:29202   */\n      tag_524\n        /* \"#utility.yul\":29177:29201   */\n      tag_525\n        /* \"#utility.yul\":29195:29200   */\n      dup3\n        /* \"#utility.yul\":29177:29201   */\n      tag_209\n      jump\t// in\n    tag_525:\n        /* \"#utility.yul\":29157:29202   */\n      tag_264\n      jump\t// in\n    tag_524:\n        /* \"#utility.yul\":29152:29155   */\n      dup3\n        /* \"#utility.yul\":29145:29203   */\n      mstore\n        /* \"#utility.yul\":29052:29209   */\n      pop\n      pop\n      jump\t// out\n        /* \"#utility.yul\":29215:29309   */\n    tag_266:\n        /* \"#utility.yul\":29248:29256   */\n      0x00\n        /* \"#utility.yul\":29296:29301   */\n      dup2\n        /* \"#utility.yul\":29292:29294   */\n      0x60\n        /* \"#utility.yul\":29288:29302   */\n      shl\n        /* \"#utility.yul\":29267:29302   */\n      swap1\n      pop\n        /* \"#utility.yul\":29215:29309   */\n      swap2\n      swap1\n      pop\n      jump\t// out\n        /* \"#utility.yul\":29315:29409   */\n    tag_267:\n        /* \"#utility.yul\":29354:29361   */\n      0x00\n        /* \"#utility.yul\":29383:29403   */\n      tag_528\n        /* \"#utility.yul\":29397:29402   */\n      dup3\n        /* \"#utility.yul\":29383:29403   */\n      tag_266\n      jump\t// in\n    tag_528:\n        /* \"#utility.yul\":29372:29403   */\n      swap1\n      pop\n        /* \"#utility.yul\":29315:29409   */\n      swap2\n      swap1\n      pop\n      jump\t// out\n        /* \"#utility.yul\":29415:29515   */\n    tag_268:\n        /* \"#utility.yul\":29454:29461   */\n      0x00\n        /* \"#utility.yul\":29483:29509   */\n      tag_530\n        /* \"#utility.yul\":29503:29508   */\n      dup3\n        /* \"#utility.yul\":29483:29509   */\n      tag_267\n      jump\t// in\n    tag_530:\n        /* \"#utility.yul\":29472:29509   */\n      swap1\n      pop\n        /* \"#utility.yul\":29415:29515   */\n      swap2\n      swap1\n      pop\n      jump\t// out\n        /* \"#utility.yul\":29521:29678   */\n    tag_269:\n        /* \"#utility.yul\":29626:29671   */\n      tag_532\n        /* \"#utility.yul\":29646:29670   */\n      tag_533\n        /* \"#utility.yul\":29664:29669   */\n      dup3\n        /* \"#utility.yul\":29646:29670   */\n      tag_198\n      jump\t// in\n    tag_533:\n        /* \"#utility.yul\":29626:29671   */\n      tag_268\n      jump\t// in\n    tag_532:\n        /* \"#utility.yul\":29621:29624   */\n      dup3\n        /* \"#utility.yul\":29614:29672   */\n      mstore\n        /* \"#utility.yul\":29521:29678   */\n      pop\n      pop\n      jump\t// out\n        /* \"#utility.yul\":29684:30081   */\n    tag_184:\n        /* \"#utility.yul\":29824:29827   */\n      0x00\n        /* \"#utility.yul\":29839:29914   */\n      tag_535\n        /* \"#utility.yul\":29910:29913   */\n      dup3\n        /* \"#utility.yul\":29901:29907   */\n      dup6\n        /* \"#utility.yul\":29839:29914   */\n      tag_265\n      jump\t// in\n    tag_535:\n        /* \"#utility.yul\":29939:29941   */\n      0x10\n        /* \"#utility.yul\":29934:29937   */\n      dup3\n        /* \"#utility.yul\":29930:29942   */\n      add\n        /* \"#utility.yul\":29923:29942   */\n      swap2\n      pop\n        /* \"#utility.yul\":29952:30027   */\n      tag_536\n        /* \"#utility.yul\":30023:30026   */\n      dup3\n        /* \"#utility.yul\":30014:30020   */\n      dup5\n        /* \"#utility.yul\":29952:30027   */\n      tag_269\n      jump\t// in\n    tag_536:\n        /* \"#utility.yul\":30052:30054   */\n      0x14\n        /* \"#utility.yul\":30047:30050   */\n      dup3\n        /* \"#utility.yul\":30043:30055   */\n      add\n        /* \"#utility.yul\":30036:30055   */\n      swap2\n      pop\n        /* \"#utility.yul\":30072:30075   */\n      dup2\n        /* \"#utility.yul\":30065:30075   */\n      swap1\n      pop\n        /* \"#utility.yul\":29684:30081   */\n      swap4\n      swap3\n      pop\n      pop\n      pop\n      jump\t// out\n        /* \"#utility.yul\":30087:30259   */\n    tag_270:\n        /* \"#utility.yul\":30227:30251   */\n      0x4c697374696e6720616c72656164792065786973747300000000000000000000\n        /* \"#utility.yul\":30223:30224   */\n      0x00\n        /* \"#utility.yul\":30215:30221   */\n      dup3\n        /* \"#utility.yul\":30211:30225   */\n      add\n        /* \"#utility.yul\":30204:30252   */\n      mstore\n        /* \"#utility.yul\":30087:30259   */\n      pop\n      jump\t// out\n        /* \"#utility.yul\":30265:30631   */\n    tag_271:\n        /* \"#utility.yul\":30407:30410   */\n      0x00\n        /* \"#utility.yul\":30428:30495   */\n      tag_539\n        /* \"#utility.yul\":30492:30494   */\n      0x16\n        /* \"#utility.yul\":30487:30490   */\n      dup4\n        /* \"#utility.yul\":30428:30495   */\n      tag_216\n      jump\t// in\n    tag_539:\n        /* \"#utility.yul\":30421:30495   */\n      swap2\n      pop\n        /* \"#utility.yul\":30504:30597   */\n      tag_540\n        /* \"#utility.yul\":30593:30596   */\n      dup3\n        /* \"#utility.yul\":30504:30597   */\n      tag_270\n      jump\t// in\n    tag_540:\n        /* \"#utility.yul\":30622:30624   */\n      0x20\n        /* \"#utility.yul\":30617:30620   */\n      dup3\n        /* \"#utility.yul\":30613:30625   */\n      add\n        /* \"#utility.yul\":30606:30625   */\n      swap1\n      pop\n        /* \"#utility.yul\":30265:30631   */\n      swap2\n      swap1\n      pop\n      jump\t// out\n        /* \"#utility.yul\":30637:31056   */\n    tag_187:\n        /* \"#utility.yul\":30803:30807   */\n      0x00\n        /* \"#utility.yul\":30841:30843   */\n      0x20\n        /* \"#utility.yul\":30830:30839   */\n      dup3\n        /* \"#utility.yul\":30826:30844   */\n      add\n        /* \"#utility.yul\":30818:30844   */\n      swap1\n      pop\n        /* \"#utility.yul\":30890:30899   */\n      dup2\n        /* \"#utility.yul\":30884:30888   */\n      dup2\n        /* \"#utility.yul\":30880:30900   */\n      sub\n        /* \"#utility.yul\":30876:30877   */\n      0x00\n        /* \"#utility.yul\":30865:30874   */\n      dup4\n        /* \"#utility.yul\":30861:30878   */\n      add\n        /* \"#utility.yul\":30854:30901   */\n      mstore\n        /* \"#utility.yul\":30918:31049   */\n      tag_542\n        /* \"#utility.yul\":31044:31048   */\n      dup2\n        /* \"#utility.yul\":30918:31049   */\n      tag_271\n      jump\t// in\n    tag_542:\n        /* \"#utility.yul\":30910:31049   */\n      swap1\n      pop\n        /* \"#utility.yul\":30637:31056   */\n      swap2\n      swap1\n      pop\n      jump\t// out\n        /* \"#utility.yul\":31062:31238   */\n    tag_272:\n        /* \"#utility.yul\":31202:31230   */\n      0x556e69717565206c697374696e67204944207665726966696564000000000000\n        /* \"#utility.yul\":31198:31199   */\n      0x00\n        /* \"#utility.yul\":31190:31196   */\n      dup3\n        /* \"#utility.yul\":31186:31200   */\n      add\n        /* \"#utility.yul\":31179:31231   */\n      mstore\n        /* \"#utility.yul\":31062:31238   */\n      pop\n      jump\t// out\n        /* \"#utility.yul\":31244:31610   */\n    tag_273:\n        /* \"#utility.yul\":31386:31389   */\n      0x00\n        /* \"#utility.yul\":31407:31474   */\n      tag_545\n        /* \"#utility.yul\":31471:31473   */\n      0x1a\n        /* \"#utility.yul\":31466:31469   */\n      dup4\n        /* \"#utility.yul\":31407:31474   */\n      tag_216\n      jump\t// in\n    tag_545:\n        /* \"#utility.yul\":31400:31474   */\n      swap2\n      pop\n        /* \"#utility.yul\":31483:31576   */\n      tag_546\n        /* \"#utility.yul\":31572:31575   */\n      dup3\n        /* \"#utility.yul\":31483:31576   */\n      tag_272\n      jump\t// in\n    tag_546:\n        /* \"#utility.yul\":31601:31603   */\n      0x20\n        /* \"#utility.yul\":31596:31599   */\n      dup3\n        /* \"#utility.yul\":31592:31604   */\n      add\n        /* \"#utility.yul\":31585:31604   */\n      swap1\n      pop\n        /* \"#utility.yul\":31244:31610   */\n      swap2\n      swap1\n      pop\n      jump\t// out\n        /* \"#utility.yul\":31616:32035   */\n    tag_189:\n        /* \"#utility.yul\":31782:31786   */\n      0x00\n        /* \"#utility.yul\":31820:31822   */\n      0x20\n        /* \"#utility.yul\":31809:31818   */\n      dup3\n        /* \"#utility.yul\":31805:31823   */\n      add\n        /* \"#utility.yul\":31797:31823   */\n      swap1\n      pop\n        /* \"#utility.yul\":31869:31878   */\n      dup2\n        /* \"#utility.yul\":31863:31867   */\n      dup2\n        /* \"#utility.yul\":31859:31879   */\n      sub\n        /* \"#utility.yul\":31855:31856   */\n      0x00\n        /* \"#utility.yul\":31844:31853   */\n      dup4\n        /* \"#utility.yul\":31840:31857   */\n      add\n        /* \"#utility.yul\":31833:31880   */\n      mstore\n        /* \"#utility.yul\":31897:32028   */\n      tag_548\n        /* \"#utility.yul\":32023:32027   */\n      dup2\n        /* \"#utility.yul\":31897:32028   */\n      tag_273\n      jump\t// in\n    tag_548:\n        /* \"#utility.yul\":31889:32028   */\n      swap1\n      pop\n        /* \"#utility.yul\":31616:32035   */\n      swap2\n      swap1\n      pop\n      jump\t// out\n\n    auxdata: 0xa26469706673582212206c9844aff5bfae48dc148f033ab0a21c559949806511c3e2337e01cacaaad20264736f6c63430008140033\n}\n",
				"bytecode": {
					"linkReferences": {},
					"object": "6080604052600160055534801562000015575f80fd5b506040516200266c3803806200266c83398181016040528101906200003b9190620001ed565b606481111562000082576040517f08c379a0000000000000000000000000000000000000000000000000000000008152600401620000799062000290565b60405180910390fd5b335f806101000a81548173ffffffffffffffffffffffffffffffffffffffff021916908373ffffffffffffffffffffffffffffffffffffffff1602179055508160035f6101000a81548173ffffffffffffffffffffffffffffffffffffffff021916908373ffffffffffffffffffffffffffffffffffffffff1602179055508160045f6101000a81548173ffffffffffffffffffffffffffffffffffffffff021916908373ffffffffffffffffffffffffffffffffffffffff160217905550806001819055505050620002b0565b5f80fd5b5f73ffffffffffffffffffffffffffffffffffffffff82169050919050565b5f6200017f8262000154565b9050919050565b620001918162000173565b81146200019c575f80fd5b50565b5f81519050620001af8162000186565b92915050565b5f819050919050565b620001c981620001b5565b8114620001d4575f80fd5b50565b5f81519050620001e781620001be565b92915050565b5f806040838503121562000206576200020562000150565b5b5f62000215858286016200019f565b92505060206200022885828601620001d7565b9150509250929050565b5f82825260208201905092915050565b7f436f6d6d697373696f6e2063616e6e6f742065786365656420313030250000005f82015250565b5f62000278601d8362000232565b9150620002858262000242565b602082019050919050565b5f6020820190508181035f830152620002a9816200026a565b9050919050565b6123ae80620002be5f395ff3fe60806040526004361061009f575f3560e01c806351e61b251161006357806351e61b251461016857806377d3550b146101925780638da5cb5b146101bc5780639acaa6fb146101e6578063d56d229d1461020e578063de74e57b14610238576100a6565b8063169d5a7d146100aa57806324600fc3146100c65780632f745c59146100dc578063305a67a814610118578063404a9ab814610140576100a6565b366100a657005b5f80fd5b6100c460048036038101906100bf91906114e3565b610276565b005b3480156100d1575f80fd5b506100da610766565b005b3480156100e7575f80fd5b5061010260048036038101906100fd9190611568565b6109c6565b60405161010f91906115b5565b60405180910390f35b348015610123575f80fd5b5061013e600480360381019061013991906114e3565b610a6a565b005b34801561014b575f80fd5b50610166600480360381019061016191906114e3565b610c48565b005b348015610173575f80fd5b5061017c610d5a565b6040516101899190611629565b60405180910390f35b34801561019d575f80fd5b506101a6610d7f565b6040516101b391906115b5565b60405180910390f35b3480156101c7575f80fd5b506101d0610d85565b6040516101dd9190611662565b60405180910390f35b3480156101f1575f80fd5b5061020c600480360381019061020791906116c0565b610da8565b005b348015610219575f80fd5b5061022261140b565b60405161022f919061171e565b60405180910390f35b348015610243575f80fd5b5061025e600480360381019061025991906114e3565b611430565b60405161026d93929190611755565b60405180910390f35b6001600554146102bb576040517f08c379a00000000000000000000000000000000000000000000000000000000081526004016102b2906117e4565b60405180910390fd5b5f6005819055505f60025f8381526020019081526020015f2090505f8160010160109054906101000a90046fffffffffffffffffffffffffffffffff166fffffffffffffffffffffffffffffffff161161034a576040517f08c379a00000000000000000000000000000000000000000000000000000000081526004016103419061184c565b60405180910390fd5b8060010160109054906101000a90046fffffffffffffffffffffffffffffffff166fffffffffffffffffffffffffffffffff1634146103be576040517f08c379a00000000000000000000000000000000000000000000000000000000081526004016103b5906118b4565b60405180910390fd5b5f6064600154346103cf91906118ff565b6103d9919061196d565b90505f81346103e8919061199d565b90505f805f9054906101000a900473ffffffffffffffffffffffffffffffffffffffff1673ffffffffffffffffffffffffffffffffffffffff168360405161042f906119fd565b5f6040518083038185875af1925050503d805f8114610469576040519150601f19603f3d011682016040523d82523d5f602084013e61046e565b606091505b50509050806104b2576040517f08c379a00000000000000000000000000000000000000000000000000000000081526004016104a990611a5b565b60405180910390fd5b5f845f015f9054906101000a900473ffffffffffffffffffffffffffffffffffffffff1673ffffffffffffffffffffffffffffffffffffffff16836040516104f9906119fd565b5f6040518083038185875af1925050503d805f8114610533576040519150601f19603f3d011682016040523d82523d5f602084013e610538565b606091505b505090508061057c576040517f08c379a000000000000000000000000000000000000000000000000000000000815260040161057390611ac3565b60405180910390fd5b60035f9054906101000a900473ffffffffffffffffffffffffffffffffffffffff1673ffffffffffffffffffffffffffffffffffffffff166342842e0e865f015f9054906101000a900473ffffffffffffffffffffffffffffffffffffffff1633886001015f9054906101000a90046fffffffffffffffffffffffffffffffff166040518463ffffffff1660e01b815260040161061b93929190611b11565b5f604051808303815f87803b158015610632575f80fd5b505af1158015610644573d5f803e3d5ffd5b505050503373ffffffffffffffffffffffffffffffffffffffff16867f8a851ef52cc28a8639e6693c30f783523b6305558901b362a7e4f6369ecec90b876001015f9054906101000a90046fffffffffffffffffffffffffffffffff168860010160109054906101000a90046fffffffffffffffffffffffffffffffff166040516106d0929190611b46565b60405180910390a360025f8781526020019081526020015f205f8082015f6101000a81549073ffffffffffffffffffffffffffffffffffffffff0219169055600182015f6101000a8154906fffffffffffffffffffffffffffffffff02191690556001820160106101000a8154906fffffffffffffffffffffffffffffffff021916905550505050505050600160058190555050565b5f8054906101000a900473ffffffffffffffffffffffffffffffffffffffff1673ffffffffffffffffffffffffffffffffffffffff163373ffffffffffffffffffffffffffffffffffffffff16146107f3576040517f08c379a00000000000000000000000000000000000000000000000000000000081526004016107ea90611bdd565b60405180910390fd5b600160055414610838576040517f08c379a000000000000000000000000000000000000000000000000000000000815260040161082f906117e4565b60405180910390fd5b5f6005819055505f4790505f8111610885576040517f08c379a000000000000000000000000000000000000000000000000000000000815260040161087c90611c45565b60405180910390fd5b5f805f9054906101000a900473ffffffffffffffffffffffffffffffffffffffff1673ffffffffffffffffffffffffffffffffffffffff16826040516108ca906119fd565b5f6040518083038185875af1925050503d805f8114610904576040519150601f19603f3d011682016040523d82523d5f602084013e610909565b606091505b505090508061094d576040517f08c379a000000000000000000000000000000000000000000000000000000000815260040161094490611cad565b60405180910390fd5b5f8054906101000a900473ffffffffffffffffffffffffffffffffffffffff1673ffffffffffffffffffffffffffffffffffffffff167f6141b54b56b8a52a8c6f5cd2a857f6117b18ffbf4d46bd3106f300a839cbf5ea836040516109b291906115b5565b60405180910390a250506001600581905550565b5f60045f9054906101000a900473ffffffffffffffffffffffffffffffffffffffff1673ffffffffffffffffffffffffffffffffffffffff16632f745c5984846040518363ffffffff1660e01b8152600401610a23929190611ccb565b602060405180830381865afa158015610a3e573d5f803e3d5ffd5b505050506040513d601f19601f82011682018060405250810190610a629190611d06565b905092915050565b5f60025f8381526020019081526020015f2090505f8160010160109054906101000a90046fffffffffffffffffffffffffffffffff166fffffffffffffffffffffffffffffffff1611610af2576040517f08c379a0000000000000000000000000000000000000000000000000000000008152600401610ae99061184c565b60405180910390fd5b3373ffffffffffffffffffffffffffffffffffffffff16815f015f9054906101000a900473ffffffffffffffffffffffffffffffffffffffff1673ffffffffffffffffffffffffffffffffffffffff1614610b82576040517f08c379a0000000000000000000000000000000000000000000000000000000008152600401610b7990611d7b565b60405180910390fd5b60025f8381526020019081526020015f205f8082015f6101000a81549073ffffffffffffffffffffffffffffffffffffffff0219169055600182015f6101000a8154906fffffffffffffffffffffffffffffffff02191690556001820160106101000a8154906fffffffffffffffffffffffffffffffff021916905550503373ffffffffffffffffffffffffffffffffffffffff16827f8e25282255ab31897df2b0456bb993ac7f84d376861aefd84901d2d63a7428a260405160405180910390a35050565b5f8054906101000a900473ffffffffffffffffffffffffffffffffffffffff1673ffffffffffffffffffffffffffffffffffffffff163373ffffffffffffffffffffffffffffffffffffffff1614610cd5576040517f08c379a0000000000000000000000000000000000000000000000000000000008152600401610ccc90611bdd565b60405180910390fd5b6064811115610d19576040517f08c379a0000000000000000000000000000000000000000000000000000000008152600401610d1090611de3565b60405180910390fd5b806001819055507f13f60dd2b588490608c3ff1932a3daeb4087f3d5af04b97e5c2a16b5b4c0302e81604051610d4f91906115b5565b60405180910390a150565b60045f9054906101000a900473ffffffffffffffffffffffffffffffffffffffff1681565b60015481565b5f8054906101000a900473ffffffffffffffffffffffffffffffffffffffff1681565b5f816fffffffffffffffffffffffffffffffff1611610dfc576040517f08c379a0000000000000000000000000000000000000000000000000000000008152600401610df390611e4b565b60405180910390fd5b7f7cdb51e9dbbc205231228146c3246e7f914aa6d4a33170e43ecc8e3593481d1a604051610e2990611eb3565b60405180910390a15f60035f9054906101000a900473ffffffffffffffffffffffffffffffffffffffff1673ffffffffffffffffffffffffffffffffffffffff16636352211e846040518263ffffffff1660e01b8152600401610e8c9190611ed1565b602060405180830381865afa158015610ea7573d5f803e3d5ffd5b505050506040513d601f19601f82011682018060405250810190610ecb9190611efe565b90507f7cdb51e9dbbc205231228146c3246e7f914aa6d4a33170e43ecc8e3593481d1a604051610efa90611f73565b60405180910390a13373ffffffffffffffffffffffffffffffffffffffff168173ffffffffffffffffffffffffffffffffffffffff1614610f70576040517f08c379a0000000000000000000000000000000000000000000000000000000008152600401610f6790612001565b60405180910390fd5b7f7cdb51e9dbbc205231228146c3246e7f914aa6d4a33170e43ecc8e3593481d1a604051610f9d90612069565b60405180910390a15f3073ffffffffffffffffffffffffffffffffffffffff1660035f9054906101000a900473ffffffffffffffffffffffffffffffffffffffff1673ffffffffffffffffffffffffffffffffffffffff1663081812fc866040518263ffffffff1660e01b81526004016110179190611ed1565b602060405180830381865afa158015611032573d5f803e3d5ffd5b505050506040513d601f19601f820116820180604052508101906110569190611efe565b73ffffffffffffffffffffffffffffffffffffffff16148061110f575060035f9054906101000a900473ffffffffffffffffffffffffffffffffffffffff1673ffffffffffffffffffffffffffffffffffffffff1663e985e9c533306040518363ffffffff1660e01b81526004016110cf929190612087565b602060405180830381865afa1580156110ea573d5f803e3d5ffd5b505050506040513d601f19601f8201168201806040525081019061110e91906120e3565b5b905080611151576040517f08c379a00000000000000000000000000000000000000000000000000000000081526004016111489061217e565b60405180910390fd5b7f7cdb51e9dbbc205231228146c3246e7f914aa6d4a33170e43ecc8e3593481d1a60405161117e906121e6565b60405180910390a15f843360405160200161119a92919061227d565b604051602081830303815290604052805190602001205f1c90505f73ffffffffffffffffffffffffffffffffffffffff1660025f8381526020019081526020015f205f015f9054906101000a900473ffffffffffffffffffffffffffffffffffffffff1673ffffffffffffffffffffffffffffffffffffffff1614611254576040517f08c379a000000000000000000000000000000000000000000000000000000000815260040161124b906122f2565b60405180910390fd5b7f7cdb51e9dbbc205231228146c3246e7f914aa6d4a33170e43ecc8e3593481d1a6040516112819061235a565b60405180910390a160405180606001604052803373ffffffffffffffffffffffffffffffffffffffff168152602001866fffffffffffffffffffffffffffffffff168152602001856fffffffffffffffffffffffffffffffff1681525060025f8381526020019081526020015f205f820151815f015f6101000a81548173ffffffffffffffffffffffffffffffffffffffff021916908373ffffffffffffffffffffffffffffffffffffffff1602179055506020820151816001015f6101000a8154816fffffffffffffffffffffffffffffffff02191690836fffffffffffffffffffffffffffffffff16021790555060408201518160010160106101000a8154816fffffffffffffffffffffffffffffffff02191690836fffffffffffffffffffffffffffffffff1602179055509050503373ffffffffffffffffffffffffffffffffffffffff16817f12dc294b81a709d694b1337a350a12a00076c19a77a25aab67a5f0c07e0f164d87876040516113fc929190611b46565b60405180910390a35050505050565b60035f9054906101000a900473ffffffffffffffffffffffffffffffffffffffff1681565b6002602052805f5260405f205f91509050805f015f9054906101000a900473ffffffffffffffffffffffffffffffffffffffff1690806001015f9054906101000a90046fffffffffffffffffffffffffffffffff16908060010160109054906101000a90046fffffffffffffffffffffffffffffffff16905083565b5f80fd5b5f819050919050565b6114c2816114b0565b81146114cc575f80fd5b50565b5f813590506114dd816114b9565b92915050565b5f602082840312156114f8576114f76114ac565b5b5f611505848285016114cf565b91505092915050565b5f73ffffffffffffffffffffffffffffffffffffffff82169050919050565b5f6115378261150e565b9050919050565b6115478161152d565b8114611551575f80fd5b50565b5f813590506115628161153e565b92915050565b5f806040838503121561157e5761157d6114ac565b5b5f61158b85828601611554565b925050602061159c858286016114cf565b9150509250929050565b6115af816114b0565b82525050565b5f6020820190506115c85f8301846115a6565b92915050565b5f819050919050565b5f6115f16115ec6115e78461150e565b6115ce565b61150e565b9050919050565b5f611602826115d7565b9050919050565b5f611613826115f8565b9050919050565b61162381611609565b82525050565b5f60208201905061163c5f83018461161a565b92915050565b5f61164c8261150e565b9050919050565b61165c81611642565b82525050565b5f6020820190506116755f830184611653565b92915050565b5f6fffffffffffffffffffffffffffffffff82169050919050565b61169f8161167b565b81146116a9575f80fd5b50565b5f813590506116ba81611696565b92915050565b5f80604083850312156116d6576116d56114ac565b5b5f6116e3858286016116ac565b92505060206116f4858286016116ac565b9150509250929050565b5f611708826115f8565b9050919050565b611718816116fe565b82525050565b5f6020820190506117315f83018461170f565b92915050565b6117408161152d565b82525050565b61174f8161167b565b82525050565b5f6060820190506117685f830186611737565b6117756020830185611746565b6117826040830184611746565b949350505050565b5f82825260208201905092915050565b7f5265656e7472616e742063616c6c0000000000000000000000000000000000005f82015250565b5f6117ce600e8361178a565b91506117d98261179a565b602082019050919050565b5f6020820190508181035f8301526117fb816117c2565b9050919050565b7f496e76616c6964206f7220696e616374697665206c697374696e6700000000005f82015250565b5f611836601b8361178a565b915061184182611802565b602082019050919050565b5f6020820190508181035f8301526118638161182a565b9050919050565b7f496e636f7272656374207061796d656e7420616d6f756e7400000000000000005f82015250565b5f61189e60188361178a565b91506118a98261186a565b602082019050919050565b5f6020820190508181035f8301526118cb81611892565b9050919050565b7f4e487b71000000000000000000000000000000000000000000000000000000005f52601160045260245ffd5b5f611909826114b0565b9150611914836114b0565b9250828202611922816114b0565b91508282048414831517611939576119386118d2565b5b5092915050565b7f4e487b71000000000000000000000000000000000000000000000000000000005f52601260045260245ffd5b5f611977826114b0565b9150611982836114b0565b92508261199257611991611940565b5b828204905092915050565b5f6119a7826114b0565b91506119b2836114b0565b92508282039050818111156119ca576119c96118d2565b5b92915050565b5f81905092915050565b50565b5f6119e85f836119d0565b91506119f3826119da565b5f82019050919050565b5f611a07826119dd565b9150819050919050565b7f4661696c656420746f2073656e6420636f6d6d697373696f6e000000000000005f82015250565b5f611a4560198361178a565b9150611a5082611a11565b602082019050919050565b5f6020820190508181035f830152611a7281611a39565b9050919050565b7f4661696c656420746f2073656e64207061796d656e7420746f2073656c6c65725f82015250565b5f611aad60208361178a565b9150611ab882611a79565b602082019050919050565b5f6020820190508181035f830152611ada81611aa1565b9050919050565b5f611afb611af6611af18461167b565b6115ce565b6114b0565b9050919050565b611b0b81611ae1565b82525050565b5f606082019050611b245f830186611737565b611b316020830185611737565b611b3e6040830184611b02565b949350505050565b5f604082019050611b595f830185611b02565b611b666020830184611b02565b9392505050565b7f4f6e6c7920746865206f776e65722063616e20706572666f726d2074686973205f8201527f616374696f6e0000000000000000000000000000000000000000000000000000602082015250565b5f611bc760268361178a565b9150611bd282611b6d565b604082019050919050565b5f6020820190508181035f830152611bf481611bbb565b9050919050565b7f4e6f2066756e647320746f2077697468647261770000000000000000000000005f82015250565b5f611c2f60148361178a565b9150611c3a82611bfb565b602082019050919050565b5f6020820190508181035f830152611c5c81611c23565b9050919050565b7f5769746864726177206661696c656400000000000000000000000000000000005f82015250565b5f611c97600f8361178a565b9150611ca282611c63565b602082019050919050565b5f6020820190508181035f830152611cc481611c8b565b9050919050565b5f604082019050611cde5f830185611737565b611ceb60208301846115a6565b9392505050565b5f81519050611d00816114b9565b92915050565b5f60208284031215611d1b57611d1a6114ac565b5b5f611d2884828501611cf2565b91505092915050565b7f596f7520617265206e6f74207468652073656c6c6572000000000000000000005f82015250565b5f611d6560168361178a565b9150611d7082611d31565b602082019050919050565b5f6020820190508181035f830152611d9281611d59565b9050919050565b7f436f6d6d697373696f6e2063616e6e6f742065786365656420313030250000005f82015250565b5f611dcd601d8361178a565b9150611dd882611d99565b602082019050919050565b5f6020820190508181035f830152611dfa81611dc1565b9050919050565b7f5072696365206d7573742062652067726561746572207468616e2030000000005f82015250565b5f611e35601c8361178a565b9150611e4082611e01565b602082019050919050565b5f6020820190508181035f830152611e6281611e29565b9050919050565b7f50617373656420707269636520636865636b00000000000000000000000000005f82015250565b5f611e9d60128361178a565b9150611ea882611e69565b602082019050919050565b5f6020820190508181035f830152611eca81611e91565b9050919050565b5f602082019050611ee45f830184611b02565b92915050565b5f81519050611ef88161153e565b92915050565b5f60208284031215611f1357611f126114ac565b5b5f611f2084828501611eea565b91505092915050565b7f4f776e65722072657472696576656400000000000000000000000000000000005f82015250565b5f611f5d600f8361178a565b9150611f6882611f29565b602082019050919050565b5f6020820190508181035f830152611f8a81611f51565b9050919050565b7f596f7520617265206e6f7420746865206f776e6572206f66207468697320746f5f8201527f6b656e0000000000000000000000000000000000000000000000000000000000602082015250565b5f611feb60238361178a565b9150611ff682611f91565b604082019050919050565b5f6020820190508181035f83015261201881611fdf565b9050919050565b7f4f776e65727368697020766572696669656400000000000000000000000000005f82015250565b5f61205360128361178a565b915061205e8261201f565b602082019050919050565b5f6020820190508181035f83015261208081612047565b9050919050565b5f60408201905061209a5f830185611737565b6120a76020830184611737565b9392505050565b5f8115159050919050565b6120c2816120ae565b81146120cc575f80fd5b50565b5f815190506120dd816120b9565b92915050565b5f602082840312156120f8576120f76114ac565b5b5f612105848285016120cf565b91505092915050565b7f4d61726b6574706c616365206973206e6f7420617070726f76656420746f20745f8201527f72616e73666572207468697320746f6b656e0000000000000000000000000000602082015250565b5f61216860328361178a565b91506121738261210e565b604082019050919050565b5f6020820190508181035f8301526121958161215c565b9050919050565b7f417070726f76616c2076657269666965640000000000000000000000000000005f82015250565b5f6121d060118361178a565b91506121db8261219c565b602082019050919050565b5f6020820190508181035f8301526121fd816121c4565b9050919050565b5f8160801b9050919050565b5f61221a82612204565b9050919050565b61223261222d8261167b565b612210565b82525050565b5f8160601b9050919050565b5f61224e82612238565b9050919050565b5f61225f82612244565b9050919050565b6122776122728261152d565b612255565b82525050565b5f6122888285612221565b6010820191506122988284612266565b6014820191508190509392505050565b7f4c697374696e6720616c726561647920657869737473000000000000000000005f82015250565b5f6122dc60168361178a565b91506122e7826122a8565b602082019050919050565b5f6020820190508181035f830152612309816122d0565b9050919050565b7f556e69717565206c697374696e672049442076657269666965640000000000005f82015250565b5f612344601a8361178a565b915061234f82612310565b602082019050919050565b5f6020820190508181035f83015261237181612338565b905091905056fea26469706673582212206c9844aff5bfae48dc148f033ab0a21c559949806511c3e2337e01cacaaad20264736f6c63430008140033",
					"opcodes": "PUSH1 0x80 PUSH1 0x40 MSTORE PUSH1 0x1 PUSH1 0x5 SSTORE CALLVALUE DUP1 ISZERO PUSH3 0x15 JUMPI PUSH0 DUP1 REVERT JUMPDEST POP PUSH1 0x40 MLOAD PUSH3 0x266C CODESIZE SUB DUP1 PUSH3 0x266C DUP4 CODECOPY DUP2 DUP2 ADD PUSH1 0x40 MSTORE DUP2 ADD SWAP1 PUSH3 0x3B SWAP2 SWAP1 PUSH3 0x1ED JUMP JUMPDEST PUSH1 0x64 DUP2 GT ISZERO PUSH3 0x82 JUMPI PUSH1 0x40 MLOAD PUSH32 0x8C379A000000000000000000000000000000000000000000000000000000000 DUP2 MSTORE PUSH1 0x4 ADD PUSH3 0x79 SWAP1 PUSH3 0x290 JUMP JUMPDEST PUSH1 0x40 MLOAD DUP1 SWAP2 SUB SWAP1 REVERT JUMPDEST CALLER PUSH0 DUP1 PUSH2 0x100 EXP DUP2 SLOAD DUP2 PUSH20 0xFFFFFFFFFFFFFFFFFFFFFFFFFFFFFFFFFFFFFFFF MUL NOT AND SWAP1 DUP4 PUSH20 0xFFFFFFFFFFFFFFFFFFFFFFFFFFFFFFFFFFFFFFFF AND MUL OR SWAP1 SSTORE POP DUP2 PUSH1 0x3 PUSH0 PUSH2 0x100 EXP DUP2 SLOAD DUP2 PUSH20 0xFFFFFFFFFFFFFFFFFFFFFFFFFFFFFFFFFFFFFFFF MUL NOT AND SWAP1 DUP4 PUSH20 0xFFFFFFFFFFFFFFFFFFFFFFFFFFFFFFFFFFFFFFFF AND MUL OR SWAP1 SSTORE POP DUP2 PUSH1 0x4 PUSH0 PUSH2 0x100 EXP DUP2 SLOAD DUP2 PUSH20 0xFFFFFFFFFFFFFFFFFFFFFFFFFFFFFFFFFFFFFFFF MUL NOT AND SWAP1 DUP4 PUSH20 0xFFFFFFFFFFFFFFFFFFFFFFFFFFFFFFFFFFFFFFFF AND MUL OR SWAP1 SSTORE POP DUP1 PUSH1 0x1 DUP2 SWAP1 SSTORE POP POP POP PUSH3 0x2B0 JUMP JUMPDEST PUSH0 DUP1 REVERT JUMPDEST PUSH0 PUSH20 0xFFFFFFFFFFFFFFFFFFFFFFFFFFFFFFFFFFFFFFFF DUP3 AND SWAP1 POP SWAP2 SWAP1 POP JUMP JUMPDEST PUSH0 PUSH3 0x17F DUP3 PUSH3 0x154 JUMP JUMPDEST SWAP1 POP SWAP2 SWAP1 POP JUMP JUMPDEST PUSH3 0x191 DUP2 PUSH3 0x173 JUMP JUMPDEST DUP2 EQ PUSH3 0x19C JUMPI PUSH0 DUP1 REVERT JUMPDEST POP JUMP JUMPDEST PUSH0 DUP2 MLOAD SWAP1 POP PUSH3 0x1AF DUP2 PUSH3 0x186 JUMP JUMPDEST SWAP3 SWAP2 POP POP JUMP JUMPDEST PUSH0 DUP2 SWAP1 POP SWAP2 SWAP1 POP JUMP JUMPDEST PUSH3 0x1C9 DUP2 PUSH3 0x1B5 JUMP JUMPDEST DUP2 EQ PUSH3 0x1D4 JUMPI PUSH0 DUP1 REVERT JUMPDEST POP JUMP JUMPDEST PUSH0 DUP2 MLOAD SWAP1 POP PUSH3 0x1E7 DUP2 PUSH3 0x1BE JUMP JUMPDEST SWAP3 SWAP2 POP POP JUMP JUMPDEST PUSH0 DUP1 PUSH1 0x40 DUP4 DUP6 SUB SLT ISZERO PUSH3 0x206 JUMPI PUSH3 0x205 PUSH3 0x150 JUMP JUMPDEST JUMPDEST PUSH0 PUSH3 0x215 DUP6 DUP3 DUP7 ADD PUSH3 0x19F JUMP JUMPDEST SWAP3 POP POP PUSH1 0x20 PUSH3 0x228 DUP6 DUP3 DUP7 ADD PUSH3 0x1D7 JUMP JUMPDEST SWAP2 POP POP SWAP3 POP SWAP3 SWAP1 POP JUMP JUMPDEST PUSH0 DUP3 DUP3 MSTORE PUSH1 0x20 DUP3 ADD SWAP1 POP SWAP3 SWAP2 POP POP JUMP JUMPDEST PUSH32 0x436F6D6D697373696F6E2063616E6E6F74206578636565642031303025000000 PUSH0 DUP3 ADD MSTORE POP JUMP JUMPDEST PUSH0 PUSH3 0x278 PUSH1 0x1D DUP4 PUSH3 0x232 JUMP JUMPDEST SWAP2 POP PUSH3 0x285 DUP3 PUSH3 0x242 JUMP JUMPDEST PUSH1 0x20 DUP3 ADD SWAP1 POP SWAP2 SWAP1 POP JUMP JUMPDEST PUSH0 PUSH1 0x20 DUP3 ADD SWAP1 POP DUP2 DUP2 SUB PUSH0 DUP4 ADD MSTORE PUSH3 0x2A9 DUP2 PUSH3 0x26A JUMP JUMPDEST SWAP1 POP SWAP2 SWAP1 POP JUMP JUMPDEST PUSH2 0x23AE DUP1 PUSH3 0x2BE PUSH0 CODECOPY PUSH0 RETURN INVALID PUSH1 0x80 PUSH1 0x40 MSTORE PUSH1 0x4 CALLDATASIZE LT PUSH2 0x9F JUMPI PUSH0 CALLDATALOAD PUSH1 0xE0 SHR DUP1 PUSH4 0x51E61B25 GT PUSH2 0x63 JUMPI DUP1 PUSH4 0x51E61B25 EQ PUSH2 0x168 JUMPI DUP1 PUSH4 0x77D3550B EQ PUSH2 0x192 JUMPI DUP1 PUSH4 0x8DA5CB5B EQ PUSH2 0x1BC JUMPI DUP1 PUSH4 0x9ACAA6FB EQ PUSH2 0x1E6 JUMPI DUP1 PUSH4 0xD56D229D EQ PUSH2 0x20E JUMPI DUP1 PUSH4 0xDE74E57B EQ PUSH2 0x238 JUMPI PUSH2 0xA6 JUMP JUMPDEST DUP1 PUSH4 0x169D5A7D EQ PUSH2 0xAA JUMPI DUP1 PUSH4 0x24600FC3 EQ PUSH2 0xC6 JUMPI DUP1 PUSH4 0x2F745C59 EQ PUSH2 0xDC JUMPI DUP1 PUSH4 0x305A67A8 EQ PUSH2 0x118 JUMPI DUP1 PUSH4 0x404A9AB8 EQ PUSH2 0x140 JUMPI PUSH2 0xA6 JUMP JUMPDEST CALLDATASIZE PUSH2 0xA6 JUMPI STOP JUMPDEST PUSH0 DUP1 REVERT JUMPDEST PUSH2 0xC4 PUSH1 0x4 DUP1 CALLDATASIZE SUB DUP2 ADD SWAP1 PUSH2 0xBF SWAP2 SWAP1 PUSH2 0x14E3 JUMP JUMPDEST PUSH2 0x276 JUMP JUMPDEST STOP JUMPDEST CALLVALUE DUP1 ISZERO PUSH2 0xD1 JUMPI PUSH0 DUP1 REVERT JUMPDEST POP PUSH2 0xDA PUSH2 0x766 JUMP JUMPDEST STOP JUMPDEST CALLVALUE DUP1 ISZERO PUSH2 0xE7 JUMPI PUSH0 DUP1 REVERT JUMPDEST POP PUSH2 0x102 PUSH1 0x4 DUP1 CALLDATASIZE SUB DUP2 ADD SWAP1 PUSH2 0xFD SWAP2 SWAP1 PUSH2 0x1568 JUMP JUMPDEST PUSH2 0x9C6 JUMP JUMPDEST PUSH1 0x40 MLOAD PUSH2 0x10F SWAP2 SWAP1 PUSH2 0x15B5 JUMP JUMPDEST PUSH1 0x40 MLOAD DUP1 SWAP2 SUB SWAP1 RETURN JUMPDEST CALLVALUE DUP1 ISZERO PUSH2 0x123 JUMPI PUSH0 DUP1 REVERT JUMPDEST POP PUSH2 0x13E PUSH1 0x4 DUP1 CALLDATASIZE SUB DUP2 ADD SWAP1 PUSH2 0x139 SWAP2 SWAP1 PUSH2 0x14E3 JUMP JUMPDEST PUSH2 0xA6A JUMP JUMPDEST STOP JUMPDEST CALLVALUE DUP1 ISZERO PUSH2 0x14B JUMPI PUSH0 DUP1 REVERT JUMPDEST POP PUSH2 0x166 PUSH1 0x4 DUP1 CALLDATASIZE SUB DUP2 ADD SWAP1 PUSH2 0x161 SWAP2 SWAP1 PUSH2 0x14E3 JUMP JUMPDEST PUSH2 0xC48 JUMP JUMPDEST STOP JUMPDEST CALLVALUE DUP1 ISZERO PUSH2 0x173 JUMPI PUSH0 DUP1 REVERT JUMPDEST POP PUSH2 0x17C PUSH2 0xD5A JUMP JUMPDEST PUSH1 0x40 MLOAD PUSH2 0x189 SWAP2 SWAP1 PUSH2 0x1629 JUMP JUMPDEST PUSH1 0x40 MLOAD DUP1 SWAP2 SUB SWAP1 RETURN JUMPDEST CALLVALUE DUP1 ISZERO PUSH2 0x19D JUMPI PUSH0 DUP1 REVERT JUMPDEST POP PUSH2 0x1A6 PUSH2 0xD7F JUMP JUMPDEST PUSH1 0x40 MLOAD PUSH2 0x1B3 SWAP2 SWAP1 PUSH2 0x15B5 JUMP JUMPDEST PUSH1 0x40 MLOAD DUP1 SWAP2 SUB SWAP1 RETURN JUMPDEST CALLVALUE DUP1 ISZERO PUSH2 0x1C7 JUMPI PUSH0 DUP1 REVERT JUMPDEST POP PUSH2 0x1D0 PUSH2 0xD85 JUMP JUMPDEST PUSH1 0x40 MLOAD PUSH2 0x1DD SWAP2 SWAP1 PUSH2 0x1662 JUMP JUMPDEST PUSH1 0x40 MLOAD DUP1 SWAP2 SUB SWAP1 RETURN JUMPDEST CALLVALUE DUP1 ISZERO PUSH2 0x1F1 JUMPI PUSH0 DUP1 REVERT JUMPDEST POP PUSH2 0x20C PUSH1 0x4 DUP1 CALLDATASIZE SUB DUP2 ADD SWAP1 PUSH2 0x207 SWAP2 SWAP1 PUSH2 0x16C0 JUMP JUMPDEST PUSH2 0xDA8 JUMP JUMPDEST STOP JUMPDEST CALLVALUE DUP1 ISZERO PUSH2 0x219 JUMPI PUSH0 DUP1 REVERT JUMPDEST POP PUSH2 0x222 PUSH2 0x140B JUMP JUMPDEST PUSH1 0x40 MLOAD PUSH2 0x22F SWAP2 SWAP1 PUSH2 0x171E JUMP JUMPDEST PUSH1 0x40 MLOAD DUP1 SWAP2 SUB SWAP1 RETURN JUMPDEST CALLVALUE DUP1 ISZERO PUSH2 0x243 JUMPI PUSH0 DUP1 REVERT JUMPDEST POP PUSH2 0x25E PUSH1 0x4 DUP1 CALLDATASIZE SUB DUP2 ADD SWAP1 PUSH2 0x259 SWAP2 SWAP1 PUSH2 0x14E3 JUMP JUMPDEST PUSH2 0x1430 JUMP JUMPDEST PUSH1 0x40 MLOAD PUSH2 0x26D SWAP4 SWAP3 SWAP2 SWAP1 PUSH2 0x1755 JUMP JUMPDEST PUSH1 0x40 MLOAD DUP1 SWAP2 SUB SWAP1 RETURN JUMPDEST PUSH1 0x1 PUSH1 0x5 SLOAD EQ PUSH2 0x2BB JUMPI PUSH1 0x40 MLOAD PUSH32 0x8C379A000000000000000000000000000000000000000000000000000000000 DUP2 MSTORE PUSH1 0x4 ADD PUSH2 0x2B2 SWAP1 PUSH2 0x17E4 JUMP JUMPDEST PUSH1 0x40 MLOAD DUP1 SWAP2 SUB SWAP1 REVERT JUMPDEST PUSH0 PUSH1 0x5 DUP2 SWAP1 SSTORE POP PUSH0 PUSH1 0x2 PUSH0 DUP4 DUP2 MSTORE PUSH1 0x20 ADD SWAP1 DUP2 MSTORE PUSH1 0x20 ADD PUSH0 KECCAK256 SWAP1 POP PUSH0 DUP2 PUSH1 0x1 ADD PUSH1 0x10 SWAP1 SLOAD SWAP1 PUSH2 0x100 EXP SWAP1 DIV PUSH16 0xFFFFFFFFFFFFFFFFFFFFFFFFFFFFFFFF AND PUSH16 0xFFFFFFFFFFFFFFFFFFFFFFFFFFFFFFFF AND GT PUSH2 0x34A JUMPI PUSH1 0x40 MLOAD PUSH32 0x8C379A000000000000000000000000000000000000000000000000000000000 DUP2 MSTORE PUSH1 0x4 ADD PUSH2 0x341 SWAP1 PUSH2 0x184C JUMP JUMPDEST PUSH1 0x40 MLOAD DUP1 SWAP2 SUB SWAP1 REVERT JUMPDEST DUP1 PUSH1 0x1 ADD PUSH1 0x10 SWAP1 SLOAD SWAP1 PUSH2 0x100 EXP SWAP1 DIV PUSH16 0xFFFFFFFFFFFFFFFFFFFFFFFFFFFFFFFF AND PUSH16 0xFFFFFFFFFFFFFFFFFFFFFFFFFFFFFFFF AND CALLVALUE EQ PUSH2 0x3BE JUMPI PUSH1 0x40 MLOAD PUSH32 0x8C379A000000000000000000000000000000000000000000000000000000000 DUP2 MSTORE PUSH1 0x4 ADD PUSH2 0x3B5 SWAP1 PUSH2 0x18B4 JUMP JUMPDEST PUSH1 0x40 MLOAD DUP1 SWAP2 SUB SWAP1 REVERT JUMPDEST PUSH0 PUSH1 0x64 PUSH1 0x1 SLOAD CALLVALUE PUSH2 0x3CF SWAP2 SWAP1 PUSH2 0x18FF JUMP JUMPDEST PUSH2 0x3D9 SWAP2 SWAP1 PUSH2 0x196D JUMP JUMPDEST SWAP1 POP PUSH0 DUP2 CALLVALUE PUSH2 0x3E8 SWAP2 SWAP1 PUSH2 0x199D JUMP JUMPDEST SWAP1 POP PUSH0 DUP1 PUSH0 SWAP1 SLOAD SWAP1 PUSH2 0x100 EXP SWAP1 DIV PUSH20 0xFFFFFFFFFFFFFFFFFFFFFFFFFFFFFFFFFFFFFFFF AND PUSH20 0xFFFFFFFFFFFFFFFFFFFFFFFFFFFFFFFFFFFFFFFF AND DUP4 PUSH1 0x40 MLOAD PUSH2 0x42F SWAP1 PUSH2 0x19FD JUMP JUMPDEST PUSH0 PUSH1 0x40 MLOAD DUP1 DUP4 SUB DUP2 DUP6 DUP8 GAS CALL SWAP3 POP POP POP RETURNDATASIZE DUP1 PUSH0 DUP2 EQ PUSH2 0x469 JUMPI PUSH1 0x40 MLOAD SWAP2 POP PUSH1 0x1F NOT PUSH1 0x3F RETURNDATASIZE ADD AND DUP3 ADD PUSH1 0x40 MSTORE RETURNDATASIZE DUP3 MSTORE RETURNDATASIZE PUSH0 PUSH1 0x20 DUP5 ADD RETURNDATACOPY PUSH2 0x46E JUMP JUMPDEST PUSH1 0x60 SWAP2 POP JUMPDEST POP POP SWAP1 POP DUP1 PUSH2 0x4B2 JUMPI PUSH1 0x40 MLOAD PUSH32 0x8C379A000000000000000000000000000000000000000000000000000000000 DUP2 MSTORE PUSH1 0x4 ADD PUSH2 0x4A9 SWAP1 PUSH2 0x1A5B JUMP JUMPDEST PUSH1 0x40 MLOAD DUP1 SWAP2 SUB SWAP1 REVERT JUMPDEST PUSH0 DUP5 PUSH0 ADD PUSH0 SWAP1 SLOAD SWAP1 PUSH2 0x100 EXP SWAP1 DIV PUSH20 0xFFFFFFFFFFFFFFFFFFFFFFFFFFFFFFFFFFFFFFFF AND PUSH20 0xFFFFFFFFFFFFFFFFFFFFFFFFFFFFFFFFFFFFFFFF AND DUP4 PUSH1 0x40 MLOAD PUSH2 0x4F9 SWAP1 PUSH2 0x19FD JUMP JUMPDEST PUSH0 PUSH1 0x40 MLOAD DUP1 DUP4 SUB DUP2 DUP6 DUP8 GAS CALL SWAP3 POP POP POP RETURNDATASIZE DUP1 PUSH0 DUP2 EQ PUSH2 0x533 JUMPI PUSH1 0x40 MLOAD SWAP2 POP PUSH1 0x1F NOT PUSH1 0x3F RETURNDATASIZE ADD AND DUP3 ADD PUSH1 0x40 MSTORE RETURNDATASIZE DUP3 MSTORE RETURNDATASIZE PUSH0 PUSH1 0x20 DUP5 ADD RETURNDATACOPY PUSH2 0x538 JUMP JUMPDEST PUSH1 0x60 SWAP2 POP JUMPDEST POP POP SWAP1 POP DUP1 PUSH2 0x57C JUMPI PUSH1 0x40 MLOAD PUSH32 0x8C379A000000000000000000000000000000000000000000000000000000000 DUP2 MSTORE PUSH1 0x4 ADD PUSH2 0x573 SWAP1 PUSH2 0x1AC3 JUMP JUMPDEST PUSH1 0x40 MLOAD DUP1 SWAP2 SUB SWAP1 REVERT JUMPDEST PUSH1 0x3 PUSH0 SWAP1 SLOAD SWAP1 PUSH2 0x100 EXP SWAP1 DIV PUSH20 0xFFFFFFFFFFFFFFFFFFFFFFFFFFFFFFFFFFFFFFFF AND PUSH20 0xFFFFFFFFFFFFFFFFFFFFFFFFFFFFFFFFFFFFFFFF AND PUSH4 0x42842E0E DUP7 PUSH0 ADD PUSH0 SWAP1 SLOAD SWAP1 PUSH2 0x100 EXP SWAP1 DIV PUSH20 0xFFFFFFFFFFFFFFFFFFFFFFFFFFFFFFFFFFFFFFFF AND CALLER DUP9 PUSH1 0x1 ADD PUSH0 SWAP1 SLOAD SWAP1 PUSH2 0x100 EXP SWAP1 DIV PUSH16 0xFFFFFFFFFFFFFFFFFFFFFFFFFFFFFFFF AND PUSH1 0x40 MLOAD DUP5 PUSH4 0xFFFFFFFF AND PUSH1 0xE0 SHL DUP2 MSTORE PUSH1 0x4 ADD PUSH2 0x61B SWAP4 SWAP3 SWAP2 SWAP1 PUSH2 0x1B11 JUMP JUMPDEST PUSH0 PUSH1 0x40 MLOAD DUP1 DUP4 SUB DUP2 PUSH0 DUP8 DUP1 EXTCODESIZE ISZERO DUP1 ISZERO PUSH2 0x632 JUMPI PUSH0 DUP1 REVERT JUMPDEST POP GAS CALL ISZERO DUP1 ISZERO PUSH2 0x644 JUMPI RETURNDATASIZE PUSH0 DUP1 RETURNDATACOPY RETURNDATASIZE PUSH0 REVERT JUMPDEST POP POP POP POP CALLER PUSH20 0xFFFFFFFFFFFFFFFFFFFFFFFFFFFFFFFFFFFFFFFF AND DUP7 PUSH32 0x8A851EF52CC28A8639E6693C30F783523B6305558901B362A7E4F6369ECEC90B DUP8 PUSH1 0x1 ADD PUSH0 SWAP1 SLOAD SWAP1 PUSH2 0x100 EXP SWAP1 DIV PUSH16 0xFFFFFFFFFFFFFFFFFFFFFFFFFFFFFFFF AND DUP9 PUSH1 0x1 ADD PUSH1 0x10 SWAP1 SLOAD SWAP1 PUSH2 0x100 EXP SWAP1 DIV PUSH16 0xFFFFFFFFFFFFFFFFFFFFFFFFFFFFFFFF AND PUSH1 0x40 MLOAD PUSH2 0x6D0 SWAP3 SWAP2 SWAP1 PUSH2 0x1B46 JUMP JUMPDEST PUSH1 0x40 MLOAD DUP1 SWAP2 SUB SWAP1 LOG3 PUSH1 0x2 PUSH0 DUP8 DUP2 MSTORE PUSH1 0x20 ADD SWAP1 DUP2 MSTORE PUSH1 0x20 ADD PUSH0 KECCAK256 PUSH0 DUP1 DUP3 ADD PUSH0 PUSH2 0x100 EXP DUP2 SLOAD SWAP1 PUSH20 0xFFFFFFFFFFFFFFFFFFFFFFFFFFFFFFFFFFFFFFFF MUL NOT AND SWAP1 SSTORE PUSH1 0x1 DUP3 ADD PUSH0 PUSH2 0x100 EXP DUP2 SLOAD SWAP1 PUSH16 0xFFFFFFFFFFFFFFFFFFFFFFFFFFFFFFFF MUL NOT AND SWAP1 SSTORE PUSH1 0x1 DUP3 ADD PUSH1 0x10 PUSH2 0x100 EXP DUP2 SLOAD SWAP1 PUSH16 0xFFFFFFFFFFFFFFFFFFFFFFFFFFFFFFFF MUL NOT AND SWAP1 SSTORE POP POP POP POP POP POP POP PUSH1 0x1 PUSH1 0x5 DUP2 SWAP1 SSTORE POP POP JUMP JUMPDEST PUSH0 DUP1 SLOAD SWAP1 PUSH2 0x100 EXP SWAP1 DIV PUSH20 0xFFFFFFFFFFFFFFFFFFFFFFFFFFFFFFFFFFFFFFFF AND PUSH20 0xFFFFFFFFFFFFFFFFFFFFFFFFFFFFFFFFFFFFFFFF AND CALLER PUSH20 0xFFFFFFFFFFFFFFFFFFFFFFFFFFFFFFFFFFFFFFFF AND EQ PUSH2 0x7F3 JUMPI PUSH1 0x40 MLOAD PUSH32 0x8C379A000000000000000000000000000000000000000000000000000000000 DUP2 MSTORE PUSH1 0x4 ADD PUSH2 0x7EA SWAP1 PUSH2 0x1BDD JUMP JUMPDEST PUSH1 0x40 MLOAD DUP1 SWAP2 SUB SWAP1 REVERT JUMPDEST PUSH1 0x1 PUSH1 0x5 SLOAD EQ PUSH2 0x838 JUMPI PUSH1 0x40 MLOAD PUSH32 0x8C379A000000000000000000000000000000000000000000000000000000000 DUP2 MSTORE PUSH1 0x4 ADD PUSH2 0x82F SWAP1 PUSH2 0x17E4 JUMP JUMPDEST PUSH1 0x40 MLOAD DUP1 SWAP2 SUB SWAP1 REVERT JUMPDEST PUSH0 PUSH1 0x5 DUP2 SWAP1 SSTORE POP PUSH0 SELFBALANCE SWAP1 POP PUSH0 DUP2 GT PUSH2 0x885 JUMPI PUSH1 0x40 MLOAD PUSH32 0x8C379A000000000000000000000000000000000000000000000000000000000 DUP2 MSTORE PUSH1 0x4 ADD PUSH2 0x87C SWAP1 PUSH2 0x1C45 JUMP JUMPDEST PUSH1 0x40 MLOAD DUP1 SWAP2 SUB SWAP1 REVERT JUMPDEST PUSH0 DUP1 PUSH0 SWAP1 SLOAD SWAP1 PUSH2 0x100 EXP SWAP1 DIV PUSH20 0xFFFFFFFFFFFFFFFFFFFFFFFFFFFFFFFFFFFFFFFF AND PUSH20 0xFFFFFFFFFFFFFFFFFFFFFFFFFFFFFFFFFFFFFFFF AND DUP3 PUSH1 0x40 MLOAD PUSH2 0x8CA SWAP1 PUSH2 0x19FD JUMP JUMPDEST PUSH0 PUSH1 0x40 MLOAD DUP1 DUP4 SUB DUP2 DUP6 DUP8 GAS CALL SWAP3 POP POP POP RETURNDATASIZE DUP1 PUSH0 DUP2 EQ PUSH2 0x904 JUMPI PUSH1 0x40 MLOAD SWAP2 POP PUSH1 0x1F NOT PUSH1 0x3F RETURNDATASIZE ADD AND DUP3 ADD PUSH1 0x40 MSTORE RETURNDATASIZE DUP3 MSTORE RETURNDATASIZE PUSH0 PUSH1 0x20 DUP5 ADD RETURNDATACOPY PUSH2 0x909 JUMP JUMPDEST PUSH1 0x60 SWAP2 POP JUMPDEST POP POP SWAP1 POP DUP1 PUSH2 0x94D JUMPI PUSH1 0x40 MLOAD PUSH32 0x8C379A000000000000000000000000000000000000000000000000000000000 DUP2 MSTORE PUSH1 0x4 ADD PUSH2 0x944 SWAP1 PUSH2 0x1CAD JUMP JUMPDEST PUSH1 0x40 MLOAD DUP1 SWAP2 SUB SWAP1 REVERT JUMPDEST PUSH0 DUP1 SLOAD SWAP1 PUSH2 0x100 EXP SWAP1 DIV PUSH20 0xFFFFFFFFFFFFFFFFFFFFFFFFFFFFFFFFFFFFFFFF AND PUSH20 0xFFFFFFFFFFFFFFFFFFFFFFFFFFFFFFFFFFFFFFFF AND PUSH32 0x6141B54B56B8A52A8C6F5CD2A857F6117B18FFBF4D46BD3106F300A839CBF5EA DUP4 PUSH1 0x40 MLOAD PUSH2 0x9B2 SWAP2 SWAP1 PUSH2 0x15B5 JUMP JUMPDEST PUSH1 0x40 MLOAD DUP1 SWAP2 SUB SWAP1 LOG2 POP POP PUSH1 0x1 PUSH1 0x5 DUP2 SWAP1 SSTORE POP JUMP JUMPDEST PUSH0 PUSH1 0x4 PUSH0 SWAP1 SLOAD SWAP1 PUSH2 0x100 EXP SWAP1 DIV PUSH20 0xFFFFFFFFFFFFFFFFFFFFFFFFFFFFFFFFFFFFFFFF AND PUSH20 0xFFFFFFFFFFFFFFFFFFFFFFFFFFFFFFFFFFFFFFFF AND PUSH4 0x2F745C59 DUP5 DUP5 PUSH1 0x40 MLOAD DUP4 PUSH4 0xFFFFFFFF AND PUSH1 0xE0 SHL DUP2 MSTORE PUSH1 0x4 ADD PUSH2 0xA23 SWAP3 SWAP2 SWAP1 PUSH2 0x1CCB JUMP JUMPDEST PUSH1 0x20 PUSH1 0x40 MLOAD DUP1 DUP4 SUB DUP2 DUP7 GAS STATICCALL ISZERO DUP1 ISZERO PUSH2 0xA3E JUMPI RETURNDATASIZE PUSH0 DUP1 RETURNDATACOPY RETURNDATASIZE PUSH0 REVERT JUMPDEST POP POP POP POP PUSH1 0x40 MLOAD RETURNDATASIZE PUSH1 0x1F NOT PUSH1 0x1F DUP3 ADD AND DUP3 ADD DUP1 PUSH1 0x40 MSTORE POP DUP2 ADD SWAP1 PUSH2 0xA62 SWAP2 SWAP1 PUSH2 0x1D06 JUMP JUMPDEST SWAP1 POP SWAP3 SWAP2 POP POP JUMP JUMPDEST PUSH0 PUSH1 0x2 PUSH0 DUP4 DUP2 MSTORE PUSH1 0x20 ADD SWAP1 DUP2 MSTORE PUSH1 0x20 ADD PUSH0 KECCAK256 SWAP1 POP PUSH0 DUP2 PUSH1 0x1 ADD PUSH1 0x10 SWAP1 SLOAD SWAP1 PUSH2 0x100 EXP SWAP1 DIV PUSH16 0xFFFFFFFFFFFFFFFFFFFFFFFFFFFFFFFF AND PUSH16 0xFFFFFFFFFFFFFFFFFFFFFFFFFFFFFFFF AND GT PUSH2 0xAF2 JUMPI PUSH1 0x40 MLOAD PUSH32 0x8C379A000000000000000000000000000000000000000000000000000000000 DUP2 MSTORE PUSH1 0x4 ADD PUSH2 0xAE9 SWAP1 PUSH2 0x184C JUMP JUMPDEST PUSH1 0x40 MLOAD DUP1 SWAP2 SUB SWAP1 REVERT JUMPDEST CALLER PUSH20 0xFFFFFFFFFFFFFFFFFFFFFFFFFFFFFFFFFFFFFFFF AND DUP2 PUSH0 ADD PUSH0 SWAP1 SLOAD SWAP1 PUSH2 0x100 EXP SWAP1 DIV PUSH20 0xFFFFFFFFFFFFFFFFFFFFFFFFFFFFFFFFFFFFFFFF AND PUSH20 0xFFFFFFFFFFFFFFFFFFFFFFFFFFFFFFFFFFFFFFFF AND EQ PUSH2 0xB82 JUMPI PUSH1 0x40 MLOAD PUSH32 0x8C379A000000000000000000000000000000000000000000000000000000000 DUP2 MSTORE PUSH1 0x4 ADD PUSH2 0xB79 SWAP1 PUSH2 0x1D7B JUMP JUMPDEST PUSH1 0x40 MLOAD DUP1 SWAP2 SUB SWAP1 REVERT JUMPDEST PUSH1 0x2 PUSH0 DUP4 DUP2 MSTORE PUSH1 0x20 ADD SWAP1 DUP2 MSTORE PUSH1 0x20 ADD PUSH0 KECCAK256 PUSH0 DUP1 DUP3 ADD PUSH0 PUSH2 0x100 EXP DUP2 SLOAD SWAP1 PUSH20 0xFFFFFFFFFFFFFFFFFFFFFFFFFFFFFFFFFFFFFFFF MUL NOT AND SWAP1 SSTORE PUSH1 0x1 DUP3 ADD PUSH0 PUSH2 0x100 EXP DUP2 SLOAD SWAP1 PUSH16 0xFFFFFFFFFFFFFFFFFFFFFFFFFFFFFFFF MUL NOT AND SWAP1 SSTORE PUSH1 0x1 DUP3 ADD PUSH1 0x10 PUSH2 0x100 EXP DUP2 SLOAD SWAP1 PUSH16 0xFFFFFFFFFFFFFFFFFFFFFFFFFFFFFFFF MUL NOT AND SWAP1 SSTORE POP POP CALLER PUSH20 0xFFFFFFFFFFFFFFFFFFFFFFFFFFFFFFFFFFFFFFFF AND DUP3 PUSH32 0x8E25282255AB31897DF2B0456BB993AC7F84D376861AEFD84901D2D63A7428A2 PUSH1 0x40 MLOAD PUSH1 0x40 MLOAD DUP1 SWAP2 SUB SWAP1 LOG3 POP POP JUMP JUMPDEST PUSH0 DUP1 SLOAD SWAP1 PUSH2 0x100 EXP SWAP1 DIV PUSH20 0xFFFFFFFFFFFFFFFFFFFFFFFFFFFFFFFFFFFFFFFF AND PUSH20 0xFFFFFFFFFFFFFFFFFFFFFFFFFFFFFFFFFFFFFFFF AND CALLER PUSH20 0xFFFFFFFFFFFFFFFFFFFFFFFFFFFFFFFFFFFFFFFF AND EQ PUSH2 0xCD5 JUMPI PUSH1 0x40 MLOAD PUSH32 0x8C379A000000000000000000000000000000000000000000000000000000000 DUP2 MSTORE PUSH1 0x4 ADD PUSH2 0xCCC SWAP1 PUSH2 0x1BDD JUMP JUMPDEST PUSH1 0x40 MLOAD DUP1 SWAP2 SUB SWAP1 REVERT JUMPDEST PUSH1 0x64 DUP2 GT ISZERO PUSH2 0xD19 JUMPI PUSH1 0x40 MLOAD PUSH32 0x8C379A000000000000000000000000000000000000000000000000000000000 DUP2 MSTORE PUSH1 0x4 ADD PUSH2 0xD10 SWAP1 PUSH2 0x1DE3 JUMP JUMPDEST PUSH1 0x40 MLOAD DUP1 SWAP2 SUB SWAP1 REVERT JUMPDEST DUP1 PUSH1 0x1 DUP2 SWAP1 SSTORE POP PUSH32 0x13F60DD2B588490608C3FF1932A3DAEB4087F3D5AF04B97E5C2A16B5B4C0302E DUP2 PUSH1 0x40 MLOAD PUSH2 0xD4F SWAP2 SWAP1 PUSH2 0x15B5 JUMP JUMPDEST PUSH1 0x40 MLOAD DUP1 SWAP2 SUB SWAP1 LOG1 POP JUMP JUMPDEST PUSH1 0x4 PUSH0 SWAP1 SLOAD SWAP1 PUSH2 0x100 EXP SWAP1 DIV PUSH20 0xFFFFFFFFFFFFFFFFFFFFFFFFFFFFFFFFFFFFFFFF AND DUP2 JUMP JUMPDEST PUSH1 0x1 SLOAD DUP2 JUMP JUMPDEST PUSH0 DUP1 SLOAD SWAP1 PUSH2 0x100 EXP SWAP1 DIV PUSH20 0xFFFFFFFFFFFFFFFFFFFFFFFFFFFFFFFFFFFFFFFF AND DUP2 JUMP JUMPDEST PUSH0 DUP2 PUSH16 0xFFFFFFFFFFFFFFFFFFFFFFFFFFFFFFFF AND GT PUSH2 0xDFC JUMPI PUSH1 0x40 MLOAD PUSH32 0x8C379A000000000000000000000000000000000000000000000000000000000 DUP2 MSTORE PUSH1 0x4 ADD PUSH2 0xDF3 SWAP1 PUSH2 0x1E4B JUMP JUMPDEST PUSH1 0x40 MLOAD DUP1 SWAP2 SUB SWAP1 REVERT JUMPDEST PUSH32 0x7CDB51E9DBBC205231228146C3246E7F914AA6D4A33170E43ECC8E3593481D1A PUSH1 0x40 MLOAD PUSH2 0xE29 SWAP1 PUSH2 0x1EB3 JUMP JUMPDEST PUSH1 0x40 MLOAD DUP1 SWAP2 SUB SWAP1 LOG1 PUSH0 PUSH1 0x3 PUSH0 SWAP1 SLOAD SWAP1 PUSH2 0x100 EXP SWAP1 DIV PUSH20 0xFFFFFFFFFFFFFFFFFFFFFFFFFFFFFFFFFFFFFFFF AND PUSH20 0xFFFFFFFFFFFFFFFFFFFFFFFFFFFFFFFFFFFFFFFF AND PUSH4 0x6352211E DUP5 PUSH1 0x40 MLOAD DUP3 PUSH4 0xFFFFFFFF AND PUSH1 0xE0 SHL DUP2 MSTORE PUSH1 0x4 ADD PUSH2 0xE8C SWAP2 SWAP1 PUSH2 0x1ED1 JUMP JUMPDEST PUSH1 0x20 PUSH1 0x40 MLOAD DUP1 DUP4 SUB DUP2 DUP7 GAS STATICCALL ISZERO DUP1 ISZERO PUSH2 0xEA7 JUMPI RETURNDATASIZE PUSH0 DUP1 RETURNDATACOPY RETURNDATASIZE PUSH0 REVERT JUMPDEST POP POP POP POP PUSH1 0x40 MLOAD RETURNDATASIZE PUSH1 0x1F NOT PUSH1 0x1F DUP3 ADD AND DUP3 ADD DUP1 PUSH1 0x40 MSTORE POP DUP2 ADD SWAP1 PUSH2 0xECB SWAP2 SWAP1 PUSH2 0x1EFE JUMP JUMPDEST SWAP1 POP PUSH32 0x7CDB51E9DBBC205231228146C3246E7F914AA6D4A33170E43ECC8E3593481D1A PUSH1 0x40 MLOAD PUSH2 0xEFA SWAP1 PUSH2 0x1F73 JUMP JUMPDEST PUSH1 0x40 MLOAD DUP1 SWAP2 SUB SWAP1 LOG1 CALLER PUSH20 0xFFFFFFFFFFFFFFFFFFFFFFFFFFFFFFFFFFFFFFFF AND DUP2 PUSH20 0xFFFFFFFFFFFFFFFFFFFFFFFFFFFFFFFFFFFFFFFF AND EQ PUSH2 0xF70 JUMPI PUSH1 0x40 MLOAD PUSH32 0x8C379A000000000000000000000000000000000000000000000000000000000 DUP2 MSTORE PUSH1 0x4 ADD PUSH2 0xF67 SWAP1 PUSH2 0x2001 JUMP JUMPDEST PUSH1 0x40 MLOAD DUP1 SWAP2 SUB SWAP1 REVERT JUMPDEST PUSH32 0x7CDB51E9DBBC205231228146C3246E7F914AA6D4A33170E43ECC8E3593481D1A PUSH1 0x40 MLOAD PUSH2 0xF9D SWAP1 PUSH2 0x2069 JUMP JUMPDEST PUSH1 0x40 MLOAD DUP1 SWAP2 SUB SWAP1 LOG1 PUSH0 ADDRESS PUSH20 0xFFFFFFFFFFFFFFFFFFFFFFFFFFFFFFFFFFFFFFFF AND PUSH1 0x3 PUSH0 SWAP1 SLOAD SWAP1 PUSH2 0x100 EXP SWAP1 DIV PUSH20 0xFFFFFFFFFFFFFFFFFFFFFFFFFFFFFFFFFFFFFFFF AND PUSH20 0xFFFFFFFFFFFFFFFFFFFFFFFFFFFFFFFFFFFFFFFF AND PUSH4 0x81812FC DUP7 PUSH1 0x40 MLOAD DUP3 PUSH4 0xFFFFFFFF AND PUSH1 0xE0 SHL DUP2 MSTORE PUSH1 0x4 ADD PUSH2 0x1017 SWAP2 SWAP1 PUSH2 0x1ED1 JUMP JUMPDEST PUSH1 0x20 PUSH1 0x40 MLOAD DUP1 DUP4 SUB DUP2 DUP7 GAS STATICCALL ISZERO DUP1 ISZERO PUSH2 0x1032 JUMPI RETURNDATASIZE PUSH0 DUP1 RETURNDATACOPY RETURNDATASIZE PUSH0 REVERT JUMPDEST POP POP POP POP PUSH1 0x40 MLOAD RETURNDATASIZE PUSH1 0x1F NOT PUSH1 0x1F DUP3 ADD AND DUP3 ADD DUP1 PUSH1 0x40 MSTORE POP DUP2 ADD SWAP1 PUSH2 0x1056 SWAP2 SWAP1 PUSH2 0x1EFE JUMP JUMPDEST PUSH20 0xFFFFFFFFFFFFFFFFFFFFFFFFFFFFFFFFFFFFFFFF AND EQ DUP1 PUSH2 0x110F JUMPI POP PUSH1 0x3 PUSH0 SWAP1 SLOAD SWAP1 PUSH2 0x100 EXP SWAP1 DIV PUSH20 0xFFFFFFFFFFFFFFFFFFFFFFFFFFFFFFFFFFFFFFFF AND PUSH20 0xFFFFFFFFFFFFFFFFFFFFFFFFFFFFFFFFFFFFFFFF AND PUSH4 0xE985E9C5 CALLER ADDRESS PUSH1 0x40 MLOAD DUP4 PUSH4 0xFFFFFFFF AND PUSH1 0xE0 SHL DUP2 MSTORE PUSH1 0x4 ADD PUSH2 0x10CF SWAP3 SWAP2 SWAP1 PUSH2 0x2087 JUMP JUMPDEST PUSH1 0x20 PUSH1 0x40 MLOAD DUP1 DUP4 SUB DUP2 DUP7 GAS STATICCALL ISZERO DUP1 ISZERO PUSH2 0x10EA JUMPI RETURNDATASIZE PUSH0 DUP1 RETURNDATACOPY RETURNDATASIZE PUSH0 REVERT JUMPDEST POP POP POP POP PUSH1 0x40 MLOAD RETURNDATASIZE PUSH1 0x1F NOT PUSH1 0x1F DUP3 ADD AND DUP3 ADD DUP1 PUSH1 0x40 MSTORE POP DUP2 ADD SWAP1 PUSH2 0x110E SWAP2 SWAP1 PUSH2 0x20E3 JUMP JUMPDEST JUMPDEST SWAP1 POP DUP1 PUSH2 0x1151 JUMPI PUSH1 0x40 MLOAD PUSH32 0x8C379A000000000000000000000000000000000000000000000000000000000 DUP2 MSTORE PUSH1 0x4 ADD PUSH2 0x1148 SWAP1 PUSH2 0x217E JUMP JUMPDEST PUSH1 0x40 MLOAD DUP1 SWAP2 SUB SWAP1 REVERT JUMPDEST PUSH32 0x7CDB51E9DBBC205231228146C3246E7F914AA6D4A33170E43ECC8E3593481D1A PUSH1 0x40 MLOAD PUSH2 0x117E SWAP1 PUSH2 0x21E6 JUMP JUMPDEST PUSH1 0x40 MLOAD DUP1 SWAP2 SUB SWAP1 LOG1 PUSH0 DUP5 CALLER PUSH1 0x40 MLOAD PUSH1 0x20 ADD PUSH2 0x119A SWAP3 SWAP2 SWAP1 PUSH2 0x227D JUMP JUMPDEST PUSH1 0x40 MLOAD PUSH1 0x20 DUP2 DUP4 SUB SUB DUP2 MSTORE SWAP1 PUSH1 0x40 MSTORE DUP1 MLOAD SWAP1 PUSH1 0x20 ADD KECCAK256 PUSH0 SHR SWAP1 POP PUSH0 PUSH20 0xFFFFFFFFFFFFFFFFFFFFFFFFFFFFFFFFFFFFFFFF AND PUSH1 0x2 PUSH0 DUP4 DUP2 MSTORE PUSH1 0x20 ADD SWAP1 DUP2 MSTORE PUSH1 0x20 ADD PUSH0 KECCAK256 PUSH0 ADD PUSH0 SWAP1 SLOAD SWAP1 PUSH2 0x100 EXP SWAP1 DIV PUSH20 0xFFFFFFFFFFFFFFFFFFFFFFFFFFFFFFFFFFFFFFFF AND PUSH20 0xFFFFFFFFFFFFFFFFFFFFFFFFFFFFFFFFFFFFFFFF AND EQ PUSH2 0x1254 JUMPI PUSH1 0x40 MLOAD PUSH32 0x8C379A000000000000000000000000000000000000000000000000000000000 DUP2 MSTORE PUSH1 0x4 ADD PUSH2 0x124B SWAP1 PUSH2 0x22F2 JUMP JUMPDEST PUSH1 0x40 MLOAD DUP1 SWAP2 SUB SWAP1 REVERT JUMPDEST PUSH32 0x7CDB51E9DBBC205231228146C3246E7F914AA6D4A33170E43ECC8E3593481D1A PUSH1 0x40 MLOAD PUSH2 0x1281 SWAP1 PUSH2 0x235A JUMP JUMPDEST PUSH1 0x40 MLOAD DUP1 SWAP2 SUB SWAP1 LOG1 PUSH1 0x40 MLOAD DUP1 PUSH1 0x60 ADD PUSH1 0x40 MSTORE DUP1 CALLER PUSH20 0xFFFFFFFFFFFFFFFFFFFFFFFFFFFFFFFFFFFFFFFF AND DUP2 MSTORE PUSH1 0x20 ADD DUP7 PUSH16 0xFFFFFFFFFFFFFFFFFFFFFFFFFFFFFFFF AND DUP2 MSTORE PUSH1 0x20 ADD DUP6 PUSH16 0xFFFFFFFFFFFFFFFFFFFFFFFFFFFFFFFF AND DUP2 MSTORE POP PUSH1 0x2 PUSH0 DUP4 DUP2 MSTORE PUSH1 0x20 ADD SWAP1 DUP2 MSTORE PUSH1 0x20 ADD PUSH0 KECCAK256 PUSH0 DUP3 ADD MLOAD DUP2 PUSH0 ADD PUSH0 PUSH2 0x100 EXP DUP2 SLOAD DUP2 PUSH20 0xFFFFFFFFFFFFFFFFFFFFFFFFFFFFFFFFFFFFFFFF MUL NOT AND SWAP1 DUP4 PUSH20 0xFFFFFFFFFFFFFFFFFFFFFFFFFFFFFFFFFFFFFFFF AND MUL OR SWAP1 SSTORE POP PUSH1 0x20 DUP3 ADD MLOAD DUP2 PUSH1 0x1 ADD PUSH0 PUSH2 0x100 EXP DUP2 SLOAD DUP2 PUSH16 0xFFFFFFFFFFFFFFFFFFFFFFFFFFFFFFFF MUL NOT AND SWAP1 DUP4 PUSH16 0xFFFFFFFFFFFFFFFFFFFFFFFFFFFFFFFF AND MUL OR SWAP1 SSTORE POP PUSH1 0x40 DUP3 ADD MLOAD DUP2 PUSH1 0x1 ADD PUSH1 0x10 PUSH2 0x100 EXP DUP2 SLOAD DUP2 PUSH16 0xFFFFFFFFFFFFFFFFFFFFFFFFFFFFFFFF MUL NOT AND SWAP1 DUP4 PUSH16 0xFFFFFFFFFFFFFFFFFFFFFFFFFFFFFFFF AND MUL OR SWAP1 SSTORE POP SWAP1 POP POP CALLER PUSH20 0xFFFFFFFFFFFFFFFFFFFFFFFFFFFFFFFFFFFFFFFF AND DUP2 PUSH32 0x12DC294B81A709D694B1337A350A12A00076C19A77A25AAB67A5F0C07E0F164D DUP8 DUP8 PUSH1 0x40 MLOAD PUSH2 0x13FC SWAP3 SWAP2 SWAP1 PUSH2 0x1B46 JUMP JUMPDEST PUSH1 0x40 MLOAD DUP1 SWAP2 SUB SWAP1 LOG3 POP POP POP POP POP JUMP JUMPDEST PUSH1 0x3 PUSH0 SWAP1 SLOAD SWAP1 PUSH2 0x100 EXP SWAP1 DIV PUSH20 0xFFFFFFFFFFFFFFFFFFFFFFFFFFFFFFFFFFFFFFFF AND DUP2 JUMP JUMPDEST PUSH1 0x2 PUSH1 0x20 MSTORE DUP1 PUSH0 MSTORE PUSH1 0x40 PUSH0 KECCAK256 PUSH0 SWAP2 POP SWAP1 POP DUP1 PUSH0 ADD PUSH0 SWAP1 SLOAD SWAP1 PUSH2 0x100 EXP SWAP1 DIV PUSH20 0xFFFFFFFFFFFFFFFFFFFFFFFFFFFFFFFFFFFFFFFF AND SWAP1 DUP1 PUSH1 0x1 ADD PUSH0 SWAP1 SLOAD SWAP1 PUSH2 0x100 EXP SWAP1 DIV PUSH16 0xFFFFFFFFFFFFFFFFFFFFFFFFFFFFFFFF AND SWAP1 DUP1 PUSH1 0x1 ADD PUSH1 0x10 SWAP1 SLOAD SWAP1 PUSH2 0x100 EXP SWAP1 DIV PUSH16 0xFFFFFFFFFFFFFFFFFFFFFFFFFFFFFFFF AND SWAP1 POP DUP4 JUMP JUMPDEST PUSH0 DUP1 REVERT JUMPDEST PUSH0 DUP2 SWAP1 POP SWAP2 SWAP1 POP JUMP JUMPDEST PUSH2 0x14C2 DUP2 PUSH2 0x14B0 JUMP JUMPDEST DUP2 EQ PUSH2 0x14CC JUMPI PUSH0 DUP1 REVERT JUMPDEST POP JUMP JUMPDEST PUSH0 DUP2 CALLDATALOAD SWAP1 POP PUSH2 0x14DD DUP2 PUSH2 0x14B9 JUMP JUMPDEST SWAP3 SWAP2 POP POP JUMP JUMPDEST PUSH0 PUSH1 0x20 DUP3 DUP5 SUB SLT ISZERO PUSH2 0x14F8 JUMPI PUSH2 0x14F7 PUSH2 0x14AC JUMP JUMPDEST JUMPDEST PUSH0 PUSH2 0x1505 DUP5 DUP3 DUP6 ADD PUSH2 0x14CF JUMP JUMPDEST SWAP2 POP POP SWAP3 SWAP2 POP POP JUMP JUMPDEST PUSH0 PUSH20 0xFFFFFFFFFFFFFFFFFFFFFFFFFFFFFFFFFFFFFFFF DUP3 AND SWAP1 POP SWAP2 SWAP1 POP JUMP JUMPDEST PUSH0 PUSH2 0x1537 DUP3 PUSH2 0x150E JUMP JUMPDEST SWAP1 POP SWAP2 SWAP1 POP JUMP JUMPDEST PUSH2 0x1547 DUP2 PUSH2 0x152D JUMP JUMPDEST DUP2 EQ PUSH2 0x1551 JUMPI PUSH0 DUP1 REVERT JUMPDEST POP JUMP JUMPDEST PUSH0 DUP2 CALLDATALOAD SWAP1 POP PUSH2 0x1562 DUP2 PUSH2 0x153E JUMP JUMPDEST SWAP3 SWAP2 POP POP JUMP JUMPDEST PUSH0 DUP1 PUSH1 0x40 DUP4 DUP6 SUB SLT ISZERO PUSH2 0x157E JUMPI PUSH2 0x157D PUSH2 0x14AC JUMP JUMPDEST JUMPDEST PUSH0 PUSH2 0x158B DUP6 DUP3 DUP7 ADD PUSH2 0x1554 JUMP JUMPDEST SWAP3 POP POP PUSH1 0x20 PUSH2 0x159C DUP6 DUP3 DUP7 ADD PUSH2 0x14CF JUMP JUMPDEST SWAP2 POP POP SWAP3 POP SWAP3 SWAP1 POP JUMP JUMPDEST PUSH2 0x15AF DUP2 PUSH2 0x14B0 JUMP JUMPDEST DUP3 MSTORE POP POP JUMP JUMPDEST PUSH0 PUSH1 0x20 DUP3 ADD SWAP1 POP PUSH2 0x15C8 PUSH0 DUP4 ADD DUP5 PUSH2 0x15A6 JUMP JUMPDEST SWAP3 SWAP2 POP POP JUMP JUMPDEST PUSH0 DUP2 SWAP1 POP SWAP2 SWAP1 POP JUMP JUMPDEST PUSH0 PUSH2 0x15F1 PUSH2 0x15EC PUSH2 0x15E7 DUP5 PUSH2 0x150E JUMP JUMPDEST PUSH2 0x15CE JUMP JUMPDEST PUSH2 0x150E JUMP JUMPDEST SWAP1 POP SWAP2 SWAP1 POP JUMP JUMPDEST PUSH0 PUSH2 0x1602 DUP3 PUSH2 0x15D7 JUMP JUMPDEST SWAP1 POP SWAP2 SWAP1 POP JUMP JUMPDEST PUSH0 PUSH2 0x1613 DUP3 PUSH2 0x15F8 JUMP JUMPDEST SWAP1 POP SWAP2 SWAP1 POP JUMP JUMPDEST PUSH2 0x1623 DUP2 PUSH2 0x1609 JUMP JUMPDEST DUP3 MSTORE POP POP JUMP JUMPDEST PUSH0 PUSH1 0x20 DUP3 ADD SWAP1 POP PUSH2 0x163C PUSH0 DUP4 ADD DUP5 PUSH2 0x161A JUMP JUMPDEST SWAP3 SWAP2 POP POP JUMP JUMPDEST PUSH0 PUSH2 0x164C DUP3 PUSH2 0x150E JUMP JUMPDEST SWAP1 POP SWAP2 SWAP1 POP JUMP JUMPDEST PUSH2 0x165C DUP2 PUSH2 0x1642 JUMP JUMPDEST DUP3 MSTORE POP POP JUMP JUMPDEST PUSH0 PUSH1 0x20 DUP3 ADD SWAP1 POP PUSH2 0x1675 PUSH0 DUP4 ADD DUP5 PUSH2 0x1653 JUMP JUMPDEST SWAP3 SWAP2 POP POP JUMP JUMPDEST PUSH0 PUSH16 0xFFFFFFFFFFFFFFFFFFFFFFFFFFFFFFFF DUP3 AND SWAP1 POP SWAP2 SWAP1 POP JUMP JUMPDEST PUSH2 0x169F DUP2 PUSH2 0x167B JUMP JUMPDEST DUP2 EQ PUSH2 0x16A9 JUMPI PUSH0 DUP1 REVERT JUMPDEST POP JUMP JUMPDEST PUSH0 DUP2 CALLDATALOAD SWAP1 POP PUSH2 0x16BA DUP2 PUSH2 0x1696 JUMP JUMPDEST SWAP3 SWAP2 POP POP JUMP JUMPDEST PUSH0 DUP1 PUSH1 0x40 DUP4 DUP6 SUB SLT ISZERO PUSH2 0x16D6 JUMPI PUSH2 0x16D5 PUSH2 0x14AC JUMP JUMPDEST JUMPDEST PUSH0 PUSH2 0x16E3 DUP6 DUP3 DUP7 ADD PUSH2 0x16AC JUMP JUMPDEST SWAP3 POP POP PUSH1 0x20 PUSH2 0x16F4 DUP6 DUP3 DUP7 ADD PUSH2 0x16AC JUMP JUMPDEST SWAP2 POP POP SWAP3 POP SWAP3 SWAP1 POP JUMP JUMPDEST PUSH0 PUSH2 0x1708 DUP3 PUSH2 0x15F8 JUMP JUMPDEST SWAP1 POP SWAP2 SWAP1 POP JUMP JUMPDEST PUSH2 0x1718 DUP2 PUSH2 0x16FE JUMP JUMPDEST DUP3 MSTORE POP POP JUMP JUMPDEST PUSH0 PUSH1 0x20 DUP3 ADD SWAP1 POP PUSH2 0x1731 PUSH0 DUP4 ADD DUP5 PUSH2 0x170F JUMP JUMPDEST SWAP3 SWAP2 POP POP JUMP JUMPDEST PUSH2 0x1740 DUP2 PUSH2 0x152D JUMP JUMPDEST DUP3 MSTORE POP POP JUMP JUMPDEST PUSH2 0x174F DUP2 PUSH2 0x167B JUMP JUMPDEST DUP3 MSTORE POP POP JUMP JUMPDEST PUSH0 PUSH1 0x60 DUP3 ADD SWAP1 POP PUSH2 0x1768 PUSH0 DUP4 ADD DUP7 PUSH2 0x1737 JUMP JUMPDEST PUSH2 0x1775 PUSH1 0x20 DUP4 ADD DUP6 PUSH2 0x1746 JUMP JUMPDEST PUSH2 0x1782 PUSH1 0x40 DUP4 ADD DUP5 PUSH2 0x1746 JUMP JUMPDEST SWAP5 SWAP4 POP POP POP POP JUMP JUMPDEST PUSH0 DUP3 DUP3 MSTORE PUSH1 0x20 DUP3 ADD SWAP1 POP SWAP3 SWAP2 POP POP JUMP JUMPDEST PUSH32 0x5265656E7472616E742063616C6C000000000000000000000000000000000000 PUSH0 DUP3 ADD MSTORE POP JUMP JUMPDEST PUSH0 PUSH2 0x17CE PUSH1 0xE DUP4 PUSH2 0x178A JUMP JUMPDEST SWAP2 POP PUSH2 0x17D9 DUP3 PUSH2 0x179A JUMP JUMPDEST PUSH1 0x20 DUP3 ADD SWAP1 POP SWAP2 SWAP1 POP JUMP JUMPDEST PUSH0 PUSH1 0x20 DUP3 ADD SWAP1 POP DUP2 DUP2 SUB PUSH0 DUP4 ADD MSTORE PUSH2 0x17FB DUP2 PUSH2 0x17C2 JUMP JUMPDEST SWAP1 POP SWAP2 SWAP1 POP JUMP JUMPDEST PUSH32 0x496E76616C6964206F7220696E616374697665206C697374696E670000000000 PUSH0 DUP3 ADD MSTORE POP JUMP JUMPDEST PUSH0 PUSH2 0x1836 PUSH1 0x1B DUP4 PUSH2 0x178A JUMP JUMPDEST SWAP2 POP PUSH2 0x1841 DUP3 PUSH2 0x1802 JUMP JUMPDEST PUSH1 0x20 DUP3 ADD SWAP1 POP SWAP2 SWAP1 POP JUMP JUMPDEST PUSH0 PUSH1 0x20 DUP3 ADD SWAP1 POP DUP2 DUP2 SUB PUSH0 DUP4 ADD MSTORE PUSH2 0x1863 DUP2 PUSH2 0x182A JUMP JUMPDEST SWAP1 POP SWAP2 SWAP1 POP JUMP JUMPDEST PUSH32 0x496E636F7272656374207061796D656E7420616D6F756E740000000000000000 PUSH0 DUP3 ADD MSTORE POP JUMP JUMPDEST PUSH0 PUSH2 0x189E PUSH1 0x18 DUP4 PUSH2 0x178A JUMP JUMPDEST SWAP2 POP PUSH2 0x18A9 DUP3 PUSH2 0x186A JUMP JUMPDEST PUSH1 0x20 DUP3 ADD SWAP1 POP SWAP2 SWAP1 POP JUMP JUMPDEST PUSH0 PUSH1 0x20 DUP3 ADD SWAP1 POP DUP2 DUP2 SUB PUSH0 DUP4 ADD MSTORE PUSH2 0x18CB DUP2 PUSH2 0x1892 JUMP JUMPDEST SWAP1 POP SWAP2 SWAP1 POP JUMP JUMPDEST PUSH32 0x4E487B7100000000000000000000000000000000000000000000000000000000 PUSH0 MSTORE PUSH1 0x11 PUSH1 0x4 MSTORE PUSH1 0x24 PUSH0 REVERT JUMPDEST PUSH0 PUSH2 0x1909 DUP3 PUSH2 0x14B0 JUMP JUMPDEST SWAP2 POP PUSH2 0x1914 DUP4 PUSH2 0x14B0 JUMP JUMPDEST SWAP3 POP DUP3 DUP3 MUL PUSH2 0x1922 DUP2 PUSH2 0x14B0 JUMP JUMPDEST SWAP2 POP DUP3 DUP3 DIV DUP5 EQ DUP4 ISZERO OR PUSH2 0x1939 JUMPI PUSH2 0x1938 PUSH2 0x18D2 JUMP JUMPDEST JUMPDEST POP SWAP3 SWAP2 POP POP JUMP JUMPDEST PUSH32 0x4E487B7100000000000000000000000000000000000000000000000000000000 PUSH0 MSTORE PUSH1 0x12 PUSH1 0x4 MSTORE PUSH1 0x24 PUSH0 REVERT JUMPDEST PUSH0 PUSH2 0x1977 DUP3 PUSH2 0x14B0 JUMP JUMPDEST SWAP2 POP PUSH2 0x1982 DUP4 PUSH2 0x14B0 JUMP JUMPDEST SWAP3 POP DUP3 PUSH2 0x1992 JUMPI PUSH2 0x1991 PUSH2 0x1940 JUMP JUMPDEST JUMPDEST DUP3 DUP3 DIV SWAP1 POP SWAP3 SWAP2 POP POP JUMP JUMPDEST PUSH0 PUSH2 0x19A7 DUP3 PUSH2 0x14B0 JUMP JUMPDEST SWAP2 POP PUSH2 0x19B2 DUP4 PUSH2 0x14B0 JUMP JUMPDEST SWAP3 POP DUP3 DUP3 SUB SWAP1 POP DUP2 DUP2 GT ISZERO PUSH2 0x19CA JUMPI PUSH2 0x19C9 PUSH2 0x18D2 JUMP JUMPDEST JUMPDEST SWAP3 SWAP2 POP POP JUMP JUMPDEST PUSH0 DUP2 SWAP1 POP SWAP3 SWAP2 POP POP JUMP JUMPDEST POP JUMP JUMPDEST PUSH0 PUSH2 0x19E8 PUSH0 DUP4 PUSH2 0x19D0 JUMP JUMPDEST SWAP2 POP PUSH2 0x19F3 DUP3 PUSH2 0x19DA JUMP JUMPDEST PUSH0 DUP3 ADD SWAP1 POP SWAP2 SWAP1 POP JUMP JUMPDEST PUSH0 PUSH2 0x1A07 DUP3 PUSH2 0x19DD JUMP JUMPDEST SWAP2 POP DUP2 SWAP1 POP SWAP2 SWAP1 POP JUMP JUMPDEST PUSH32 0x4661696C656420746F2073656E6420636F6D6D697373696F6E00000000000000 PUSH0 DUP3 ADD MSTORE POP JUMP JUMPDEST PUSH0 PUSH2 0x1A45 PUSH1 0x19 DUP4 PUSH2 0x178A JUMP JUMPDEST SWAP2 POP PUSH2 0x1A50 DUP3 PUSH2 0x1A11 JUMP JUMPDEST PUSH1 0x20 DUP3 ADD SWAP1 POP SWAP2 SWAP1 POP JUMP JUMPDEST PUSH0 PUSH1 0x20 DUP3 ADD SWAP1 POP DUP2 DUP2 SUB PUSH0 DUP4 ADD MSTORE PUSH2 0x1A72 DUP2 PUSH2 0x1A39 JUMP JUMPDEST SWAP1 POP SWAP2 SWAP1 POP JUMP JUMPDEST PUSH32 0x4661696C656420746F2073656E64207061796D656E7420746F2073656C6C6572 PUSH0 DUP3 ADD MSTORE POP JUMP JUMPDEST PUSH0 PUSH2 0x1AAD PUSH1 0x20 DUP4 PUSH2 0x178A JUMP JUMPDEST SWAP2 POP PUSH2 0x1AB8 DUP3 PUSH2 0x1A79 JUMP JUMPDEST PUSH1 0x20 DUP3 ADD SWAP1 POP SWAP2 SWAP1 POP JUMP JUMPDEST PUSH0 PUSH1 0x20 DUP3 ADD SWAP1 POP DUP2 DUP2 SUB PUSH0 DUP4 ADD MSTORE PUSH2 0x1ADA DUP2 PUSH2 0x1AA1 JUMP JUMPDEST SWAP1 POP SWAP2 SWAP1 POP JUMP JUMPDEST PUSH0 PUSH2 0x1AFB PUSH2 0x1AF6 PUSH2 0x1AF1 DUP5 PUSH2 0x167B JUMP JUMPDEST PUSH2 0x15CE JUMP JUMPDEST PUSH2 0x14B0 JUMP JUMPDEST SWAP1 POP SWAP2 SWAP1 POP JUMP JUMPDEST PUSH2 0x1B0B DUP2 PUSH2 0x1AE1 JUMP JUMPDEST DUP3 MSTORE POP POP JUMP JUMPDEST PUSH0 PUSH1 0x60 DUP3 ADD SWAP1 POP PUSH2 0x1B24 PUSH0 DUP4 ADD DUP7 PUSH2 0x1737 JUMP JUMPDEST PUSH2 0x1B31 PUSH1 0x20 DUP4 ADD DUP6 PUSH2 0x1737 JUMP JUMPDEST PUSH2 0x1B3E PUSH1 0x40 DUP4 ADD DUP5 PUSH2 0x1B02 JUMP JUMPDEST SWAP5 SWAP4 POP POP POP POP JUMP JUMPDEST PUSH0 PUSH1 0x40 DUP3 ADD SWAP1 POP PUSH2 0x1B59 PUSH0 DUP4 ADD DUP6 PUSH2 0x1B02 JUMP JUMPDEST PUSH2 0x1B66 PUSH1 0x20 DUP4 ADD DUP5 PUSH2 0x1B02 JUMP JUMPDEST SWAP4 SWAP3 POP POP POP JUMP JUMPDEST PUSH32 0x4F6E6C7920746865206F776E65722063616E20706572666F726D207468697320 PUSH0 DUP3 ADD MSTORE PUSH32 0x616374696F6E0000000000000000000000000000000000000000000000000000 PUSH1 0x20 DUP3 ADD MSTORE POP JUMP JUMPDEST PUSH0 PUSH2 0x1BC7 PUSH1 0x26 DUP4 PUSH2 0x178A JUMP JUMPDEST SWAP2 POP PUSH2 0x1BD2 DUP3 PUSH2 0x1B6D JUMP JUMPDEST PUSH1 0x40 DUP3 ADD SWAP1 POP SWAP2 SWAP1 POP JUMP JUMPDEST PUSH0 PUSH1 0x20 DUP3 ADD SWAP1 POP DUP2 DUP2 SUB PUSH0 DUP4 ADD MSTORE PUSH2 0x1BF4 DUP2 PUSH2 0x1BBB JUMP JUMPDEST SWAP1 POP SWAP2 SWAP1 POP JUMP JUMPDEST PUSH32 0x4E6F2066756E647320746F207769746864726177000000000000000000000000 PUSH0 DUP3 ADD MSTORE POP JUMP JUMPDEST PUSH0 PUSH2 0x1C2F PUSH1 0x14 DUP4 PUSH2 0x178A JUMP JUMPDEST SWAP2 POP PUSH2 0x1C3A DUP3 PUSH2 0x1BFB JUMP JUMPDEST PUSH1 0x20 DUP3 ADD SWAP1 POP SWAP2 SWAP1 POP JUMP JUMPDEST PUSH0 PUSH1 0x20 DUP3 ADD SWAP1 POP DUP2 DUP2 SUB PUSH0 DUP4 ADD MSTORE PUSH2 0x1C5C DUP2 PUSH2 0x1C23 JUMP JUMPDEST SWAP1 POP SWAP2 SWAP1 POP JUMP JUMPDEST PUSH32 0x5769746864726177206661696C65640000000000000000000000000000000000 PUSH0 DUP3 ADD MSTORE POP JUMP JUMPDEST PUSH0 PUSH2 0x1C97 PUSH1 0xF DUP4 PUSH2 0x178A JUMP JUMPDEST SWAP2 POP PUSH2 0x1CA2 DUP3 PUSH2 0x1C63 JUMP JUMPDEST PUSH1 0x20 DUP3 ADD SWAP1 POP SWAP2 SWAP1 POP JUMP JUMPDEST PUSH0 PUSH1 0x20 DUP3 ADD SWAP1 POP DUP2 DUP2 SUB PUSH0 DUP4 ADD MSTORE PUSH2 0x1CC4 DUP2 PUSH2 0x1C8B JUMP JUMPDEST SWAP1 POP SWAP2 SWAP1 POP JUMP JUMPDEST PUSH0 PUSH1 0x40 DUP3 ADD SWAP1 POP PUSH2 0x1CDE PUSH0 DUP4 ADD DUP6 PUSH2 0x1737 JUMP JUMPDEST PUSH2 0x1CEB PUSH1 0x20 DUP4 ADD DUP5 PUSH2 0x15A6 JUMP JUMPDEST SWAP4 SWAP3 POP POP POP JUMP JUMPDEST PUSH0 DUP2 MLOAD SWAP1 POP PUSH2 0x1D00 DUP2 PUSH2 0x14B9 JUMP JUMPDEST SWAP3 SWAP2 POP POP JUMP JUMPDEST PUSH0 PUSH1 0x20 DUP3 DUP5 SUB SLT ISZERO PUSH2 0x1D1B JUMPI PUSH2 0x1D1A PUSH2 0x14AC JUMP JUMPDEST JUMPDEST PUSH0 PUSH2 0x1D28 DUP5 DUP3 DUP6 ADD PUSH2 0x1CF2 JUMP JUMPDEST SWAP2 POP POP SWAP3 SWAP2 POP POP JUMP JUMPDEST PUSH32 0x596F7520617265206E6F74207468652073656C6C657200000000000000000000 PUSH0 DUP3 ADD MSTORE POP JUMP JUMPDEST PUSH0 PUSH2 0x1D65 PUSH1 0x16 DUP4 PUSH2 0x178A JUMP JUMPDEST SWAP2 POP PUSH2 0x1D70 DUP3 PUSH2 0x1D31 JUMP JUMPDEST PUSH1 0x20 DUP3 ADD SWAP1 POP SWAP2 SWAP1 POP JUMP JUMPDEST PUSH0 PUSH1 0x20 DUP3 ADD SWAP1 POP DUP2 DUP2 SUB PUSH0 DUP4 ADD MSTORE PUSH2 0x1D92 DUP2 PUSH2 0x1D59 JUMP JUMPDEST SWAP1 POP SWAP2 SWAP1 POP JUMP JUMPDEST PUSH32 0x436F6D6D697373696F6E2063616E6E6F74206578636565642031303025000000 PUSH0 DUP3 ADD MSTORE POP JUMP JUMPDEST PUSH0 PUSH2 0x1DCD PUSH1 0x1D DUP4 PUSH2 0x178A JUMP JUMPDEST SWAP2 POP PUSH2 0x1DD8 DUP3 PUSH2 0x1D99 JUMP JUMPDEST PUSH1 0x20 DUP3 ADD SWAP1 POP SWAP2 SWAP1 POP JUMP JUMPDEST PUSH0 PUSH1 0x20 DUP3 ADD SWAP1 POP DUP2 DUP2 SUB PUSH0 DUP4 ADD MSTORE PUSH2 0x1DFA DUP2 PUSH2 0x1DC1 JUMP JUMPDEST SWAP1 POP SWAP2 SWAP1 POP JUMP JUMPDEST PUSH32 0x5072696365206D7573742062652067726561746572207468616E203000000000 PUSH0 DUP3 ADD MSTORE POP JUMP JUMPDEST PUSH0 PUSH2 0x1E35 PUSH1 0x1C DUP4 PUSH2 0x178A JUMP JUMPDEST SWAP2 POP PUSH2 0x1E40 DUP3 PUSH2 0x1E01 JUMP JUMPDEST PUSH1 0x20 DUP3 ADD SWAP1 POP SWAP2 SWAP1 POP JUMP JUMPDEST PUSH0 PUSH1 0x20 DUP3 ADD SWAP1 POP DUP2 DUP2 SUB PUSH0 DUP4 ADD MSTORE PUSH2 0x1E62 DUP2 PUSH2 0x1E29 JUMP JUMPDEST SWAP1 POP SWAP2 SWAP1 POP JUMP JUMPDEST PUSH32 0x50617373656420707269636520636865636B0000000000000000000000000000 PUSH0 DUP3 ADD MSTORE POP JUMP JUMPDEST PUSH0 PUSH2 0x1E9D PUSH1 0x12 DUP4 PUSH2 0x178A JUMP JUMPDEST SWAP2 POP PUSH2 0x1EA8 DUP3 PUSH2 0x1E69 JUMP JUMPDEST PUSH1 0x20 DUP3 ADD SWAP1 POP SWAP2 SWAP1 POP JUMP JUMPDEST PUSH0 PUSH1 0x20 DUP3 ADD SWAP1 POP DUP2 DUP2 SUB PUSH0 DUP4 ADD MSTORE PUSH2 0x1ECA DUP2 PUSH2 0x1E91 JUMP JUMPDEST SWAP1 POP SWAP2 SWAP1 POP JUMP JUMPDEST PUSH0 PUSH1 0x20 DUP3 ADD SWAP1 POP PUSH2 0x1EE4 PUSH0 DUP4 ADD DUP5 PUSH2 0x1B02 JUMP JUMPDEST SWAP3 SWAP2 POP POP JUMP JUMPDEST PUSH0 DUP2 MLOAD SWAP1 POP PUSH2 0x1EF8 DUP2 PUSH2 0x153E JUMP JUMPDEST SWAP3 SWAP2 POP POP JUMP JUMPDEST PUSH0 PUSH1 0x20 DUP3 DUP5 SUB SLT ISZERO PUSH2 0x1F13 JUMPI PUSH2 0x1F12 PUSH2 0x14AC JUMP JUMPDEST JUMPDEST PUSH0 PUSH2 0x1F20 DUP5 DUP3 DUP6 ADD PUSH2 0x1EEA JUMP JUMPDEST SWAP2 POP POP SWAP3 SWAP2 POP POP JUMP JUMPDEST PUSH32 0x4F776E6572207265747269657665640000000000000000000000000000000000 PUSH0 DUP3 ADD MSTORE POP JUMP JUMPDEST PUSH0 PUSH2 0x1F5D PUSH1 0xF DUP4 PUSH2 0x178A JUMP JUMPDEST SWAP2 POP PUSH2 0x1F68 DUP3 PUSH2 0x1F29 JUMP JUMPDEST PUSH1 0x20 DUP3 ADD SWAP1 POP SWAP2 SWAP1 POP JUMP JUMPDEST PUSH0 PUSH1 0x20 DUP3 ADD SWAP1 POP DUP2 DUP2 SUB PUSH0 DUP4 ADD MSTORE PUSH2 0x1F8A DUP2 PUSH2 0x1F51 JUMP JUMPDEST SWAP1 POP SWAP2 SWAP1 POP JUMP JUMPDEST PUSH32 0x596F7520617265206E6F7420746865206F776E6572206F66207468697320746F PUSH0 DUP3 ADD MSTORE PUSH32 0x6B656E0000000000000000000000000000000000000000000000000000000000 PUSH1 0x20 DUP3 ADD MSTORE POP JUMP JUMPDEST PUSH0 PUSH2 0x1FEB PUSH1 0x23 DUP4 PUSH2 0x178A JUMP JUMPDEST SWAP2 POP PUSH2 0x1FF6 DUP3 PUSH2 0x1F91 JUMP JUMPDEST PUSH1 0x40 DUP3 ADD SWAP1 POP SWAP2 SWAP1 POP JUMP JUMPDEST PUSH0 PUSH1 0x20 DUP3 ADD SWAP1 POP DUP2 DUP2 SUB PUSH0 DUP4 ADD MSTORE PUSH2 0x2018 DUP2 PUSH2 0x1FDF JUMP JUMPDEST SWAP1 POP SWAP2 SWAP1 POP JUMP JUMPDEST PUSH32 0x4F776E6572736869702076657269666965640000000000000000000000000000 PUSH0 DUP3 ADD MSTORE POP JUMP JUMPDEST PUSH0 PUSH2 0x2053 PUSH1 0x12 DUP4 PUSH2 0x178A JUMP JUMPDEST SWAP2 POP PUSH2 0x205E DUP3 PUSH2 0x201F JUMP JUMPDEST PUSH1 0x20 DUP3 ADD SWAP1 POP SWAP2 SWAP1 POP JUMP JUMPDEST PUSH0 PUSH1 0x20 DUP3 ADD SWAP1 POP DUP2 DUP2 SUB PUSH0 DUP4 ADD MSTORE PUSH2 0x2080 DUP2 PUSH2 0x2047 JUMP JUMPDEST SWAP1 POP SWAP2 SWAP1 POP JUMP JUMPDEST PUSH0 PUSH1 0x40 DUP3 ADD SWAP1 POP PUSH2 0x209A PUSH0 DUP4 ADD DUP6 PUSH2 0x1737 JUMP JUMPDEST PUSH2 0x20A7 PUSH1 0x20 DUP4 ADD DUP5 PUSH2 0x1737 JUMP JUMPDEST SWAP4 SWAP3 POP POP POP JUMP JUMPDEST PUSH0 DUP2 ISZERO ISZERO SWAP1 POP SWAP2 SWAP1 POP JUMP JUMPDEST PUSH2 0x20C2 DUP2 PUSH2 0x20AE JUMP JUMPDEST DUP2 EQ PUSH2 0x20CC JUMPI PUSH0 DUP1 REVERT JUMPDEST POP JUMP JUMPDEST PUSH0 DUP2 MLOAD SWAP1 POP PUSH2 0x20DD DUP2 PUSH2 0x20B9 JUMP JUMPDEST SWAP3 SWAP2 POP POP JUMP JUMPDEST PUSH0 PUSH1 0x20 DUP3 DUP5 SUB SLT ISZERO PUSH2 0x20F8 JUMPI PUSH2 0x20F7 PUSH2 0x14AC JUMP JUMPDEST JUMPDEST PUSH0 PUSH2 0x2105 DUP5 DUP3 DUP6 ADD PUSH2 0x20CF JUMP JUMPDEST SWAP2 POP POP SWAP3 SWAP2 POP POP JUMP JUMPDEST PUSH32 0x4D61726B6574706C616365206973206E6F7420617070726F76656420746F2074 PUSH0 DUP3 ADD MSTORE PUSH32 0x72616E73666572207468697320746F6B656E0000000000000000000000000000 PUSH1 0x20 DUP3 ADD MSTORE POP JUMP JUMPDEST PUSH0 PUSH2 0x2168 PUSH1 0x32 DUP4 PUSH2 0x178A JUMP JUMPDEST SWAP2 POP PUSH2 0x2173 DUP3 PUSH2 0x210E JUMP JUMPDEST PUSH1 0x40 DUP3 ADD SWAP1 POP SWAP2 SWAP1 POP JUMP JUMPDEST PUSH0 PUSH1 0x20 DUP3 ADD SWAP1 POP DUP2 DUP2 SUB PUSH0 DUP4 ADD MSTORE PUSH2 0x2195 DUP2 PUSH2 0x215C JUMP JUMPDEST SWAP1 POP SWAP2 SWAP1 POP JUMP JUMPDEST PUSH32 0x417070726F76616C207665726966696564000000000000000000000000000000 PUSH0 DUP3 ADD MSTORE POP JUMP JUMPDEST PUSH0 PUSH2 0x21D0 PUSH1 0x11 DUP4 PUSH2 0x178A JUMP JUMPDEST SWAP2 POP PUSH2 0x21DB DUP3 PUSH2 0x219C JUMP JUMPDEST PUSH1 0x20 DUP3 ADD SWAP1 POP SWAP2 SWAP1 POP JUMP JUMPDEST PUSH0 PUSH1 0x20 DUP3 ADD SWAP1 POP DUP2 DUP2 SUB PUSH0 DUP4 ADD MSTORE PUSH2 0x21FD DUP2 PUSH2 0x21C4 JUMP JUMPDEST SWAP1 POP SWAP2 SWAP1 POP JUMP JUMPDEST PUSH0 DUP2 PUSH1 0x80 SHL SWAP1 POP SWAP2 SWAP1 POP JUMP JUMPDEST PUSH0 PUSH2 0x221A DUP3 PUSH2 0x2204 JUMP JUMPDEST SWAP1 POP SWAP2 SWAP1 POP JUMP JUMPDEST PUSH2 0x2232 PUSH2 0x222D DUP3 PUSH2 0x167B JUMP JUMPDEST PUSH2 0x2210 JUMP JUMPDEST DUP3 MSTORE POP POP JUMP JUMPDEST PUSH0 DUP2 PUSH1 0x60 SHL SWAP1 POP SWAP2 SWAP1 POP JUMP JUMPDEST PUSH0 PUSH2 0x224E DUP3 PUSH2 0x2238 JUMP JUMPDEST SWAP1 POP SWAP2 SWAP1 POP JUMP JUMPDEST PUSH0 PUSH2 0x225F DUP3 PUSH2 0x2244 JUMP JUMPDEST SWAP1 POP SWAP2 SWAP1 POP JUMP JUMPDEST PUSH2 0x2277 PUSH2 0x2272 DUP3 PUSH2 0x152D JUMP JUMPDEST PUSH2 0x2255 JUMP JUMPDEST DUP3 MSTORE POP POP JUMP JUMPDEST PUSH0 PUSH2 0x2288 DUP3 DUP6 PUSH2 0x2221 JUMP JUMPDEST PUSH1 0x10 DUP3 ADD SWAP2 POP PUSH2 0x2298 DUP3 DUP5 PUSH2 0x2266 JUMP JUMPDEST PUSH1 0x14 DUP3 ADD SWAP2 POP DUP2 SWAP1 POP SWAP4 SWAP3 POP POP POP JUMP JUMPDEST PUSH32 0x4C697374696E6720616C72656164792065786973747300000000000000000000 PUSH0 DUP3 ADD MSTORE POP JUMP JUMPDEST PUSH0 PUSH2 0x22DC PUSH1 0x16 DUP4 PUSH2 0x178A JUMP JUMPDEST SWAP2 POP PUSH2 0x22E7 DUP3 PUSH2 0x22A8 JUMP JUMPDEST PUSH1 0x20 DUP3 ADD SWAP1 POP SWAP2 SWAP1 POP JUMP JUMPDEST PUSH0 PUSH1 0x20 DUP3 ADD SWAP1 POP DUP2 DUP2 SUB PUSH0 DUP4 ADD MSTORE PUSH2 0x2309 DUP2 PUSH2 0x22D0 JUMP JUMPDEST SWAP1 POP SWAP2 SWAP1 POP JUMP JUMPDEST PUSH32 0x556E69717565206C697374696E67204944207665726966696564000000000000 PUSH0 DUP3 ADD MSTORE POP JUMP JUMPDEST PUSH0 PUSH2 0x2344 PUSH1 0x1A DUP4 PUSH2 0x178A JUMP JUMPDEST SWAP2 POP PUSH2 0x234F DUP3 PUSH2 0x2310 JUMP JUMPDEST PUSH1 0x20 DUP3 ADD SWAP1 POP SWAP2 SWAP1 POP JUMP JUMPDEST PUSH0 PUSH1 0x20 DUP3 ADD SWAP1 POP DUP2 DUP2 SUB PUSH0 DUP4 ADD MSTORE PUSH2 0x2371 DUP2 PUSH2 0x2338 JUMP JUMPDEST SWAP1 POP SWAP2 SWAP1 POP JUMP INVALID LOG2 PUSH5 0x6970667358 0x22 SLT KECCAK256 PUSH13 0x9844AFF5BFAE48DC148F033AB0 LOG2 SHR SSTORE SWAP10 0x49 DUP1 PUSH6 0x11C3E2337E01 0xCA 0xCA 0xAA 0xD2 MUL PUSH5 0x736F6C6343 STOP ADDMOD EQ STOP CALLER "
				},
				"gasEstimates": {
					"creation": {
						"codeDepositCost": "1826800",
						"executionCost": "infinite",
						"totalCost": "infinite"
					},
					"external": {
						"cancelListing(uint256)": "62265",
						"commissionPercent()": "2447",
						"createListing(uint128,uint128)": "infinite",
						"listings(uint256)": "infinite",
						"nftContract()": "infinite",
						"nftEnumerable()": "infinite",
						"owner()": "2549",
						"purchaseListing(uint256)": "infinite",
						"setCommissionPercent(uint256)": "infinite",
						"tokenOfOwnerByIndex(address,uint256)": "infinite",
						"withdrawFunds()": "infinite"
					}
				},
				"methodIdentifiers": {
					"cancelListing(uint256)": "305a67a8",
					"commissionPercent()": "77d3550b",
					"createListing(uint128,uint128)": "9acaa6fb",
					"listings(uint256)": "de74e57b",
					"nftContract()": "d56d229d",
					"nftEnumerable()": "51e61b25",
					"owner()": "8da5cb5b",
					"purchaseListing(uint256)": "169d5a7d",
					"setCommissionPercent(uint256)": "404a9ab8",
					"tokenOfOwnerByIndex(address,uint256)": "2f745c59",
					"withdrawFunds()": "24600fc3"
				}
			},
			"storageLayout": {
				"storage": [
					{
						"astId": 176,
						"contract": "contracts/Orders.sol:Marketplace",
						"label": "owner",
						"offset": 0,
						"slot": "0",
						"type": "t_address_payable"
					},
					{
						"astId": 179,
						"contract": "contracts/Orders.sol:Marketplace",
						"label": "commissionPercent",
						"offset": 0,
						"slot": "1",
						"type": "t_uint256"
					},
					{
						"astId": 185,
						"contract": "contracts/Orders.sol:Marketplace",
						"label": "listings",
						"offset": 0,
						"slot": "2",
						"type": "t_mapping(t_uint256,t_struct(Listing)173_storage)"
					},
					{
						"astId": 189,
						"contract": "contracts/Orders.sol:Marketplace",
						"label": "nftContract",
						"offset": 0,
						"slot": "3",
						"type": "t_contract(IERC721)116"
					},
					{
						"astId": 193,
						"contract": "contracts/Orders.sol:Marketplace",
						"label": "nftEnumerable",
						"offset": 0,
						"slot": "4",
						"type": "t_contract(IERC721Enumerable)148"
					},
					{
						"astId": 251,
						"contract": "contracts/Orders.sol:Marketplace",
						"label": "unlocked",
						"offset": 0,
						"slot": "5",
						"type": "t_uint256"
					}
				],
				"types": {
					"t_address": {
						"encoding": "inplace",
						"label": "address",
						"numberOfBytes": "20"
					},
					"t_address_payable": {
						"encoding": "inplace",
						"label": "address payable",
						"numberOfBytes": "20"
					},
					"t_contract(IERC721)116": {
						"encoding": "inplace",
						"label": "contract IERC721",
						"numberOfBytes": "20"
					},
					"t_contract(IERC721Enumerable)148": {
						"encoding": "inplace",
						"label": "contract IERC721Enumerable",
						"numberOfBytes": "20"
					},
					"t_mapping(t_uint256,t_struct(Listing)173_storage)": {
						"encoding": "mapping",
						"key": "t_uint256",
						"label": "mapping(uint256 => struct Marketplace.Listing)",
						"numberOfBytes": "32",
						"value": "t_struct(Listing)173_storage"
					},
					"t_struct(Listing)173_storage": {
						"encoding": "inplace",
						"label": "struct Marketplace.Listing",
						"members": [
							{
								"astId": 168,
								"contract": "contracts/Orders.sol:Marketplace",
								"label": "seller",
								"offset": 0,
								"slot": "0",
								"type": "t_address"
							},
							{
								"astId": 170,
								"contract": "contracts/Orders.sol:Marketplace",
								"label": "tokenId",
								"offset": 0,
								"slot": "1",
								"type": "t_uint128"
							},
							{
								"astId": 172,
								"contract": "contracts/Orders.sol:Marketplace",
								"label": "price",
								"offset": 16,
								"slot": "1",
								"type": "t_uint128"
							}
						],
						"numberOfBytes": "64"
					},
					"t_uint128": {
						"encoding": "inplace",
						"label": "uint128",
						"numberOfBytes": "16"
					},
					"t_uint256": {
						"encoding": "inplace",
						"label": "uint256",
						"numberOfBytes": "32"
					}
				}
			},
			"userdoc": {
				"events": {
					"CommissionUpdated(uint256)": {
						"notice": "Event emitted when the marketplace commission is updated."
					},
					"FundsWithdrawn(uint256,address)": {
						"notice": "Event emitted when funds are withdrawn from the contract."
					},
					"ListingCancelled(uint256,address)": {
						"notice": "Event emitted when a listing is cancelled."
					},
					"ListingCreated(uint256,address,uint256,uint256)": {
						"notice": "Event emitted when a new listing is created."
					},
					"PurchaseCompleted(uint256,address,uint256,uint256)": {
						"notice": "Event emitted when an NFT is purchased."
					}
				},
				"kind": "user",
				"methods": {
					"cancelListing(uint256)": {
						"notice": "Cancels an active listing."
					},
					"commissionPercent()": {
						"notice": "Commission percentage charged by the marketplace."
					},
					"createListing(uint128,uint128)": {
						"notice": "Creates a listing to sell an NFT."
					},
					"nftContract()": {
						"notice": "Interface for the ERC721 token contract."
					},
					"nftEnumerable()": {
						"notice": "Interface for enumerable ERC721 functionality."
					},
					"owner()": {
						"notice": "Owner of the marketplace."
					},
					"purchaseListing(uint256)": {
						"notice": "Purchases an NFT from an active listing."
					},
					"setCommissionPercent(uint256)": {
						"notice": "Updates the marketplace commission percentage."
					},
					"tokenOfOwnerByIndex(address,uint256)": {
						"notice": "Returns the token ID owned by `_owner` at a specific `index`."
					},
					"withdrawFunds()": {
						"notice": "Withdraws all funds from the contract."
					}
				},
				"version": 1
			}
		}
	}
}