{
	"contracts/Orders.sol": {
		"Marketplace": {
			"abi": [
				{
					"inputs": [
						{
							"internalType": "address",
							"name": "_nftContractAddress",
							"type": "address"
						},
						{
							"internalType": "uint256",
							"name": "_commissionPercent",
							"type": "uint256"
						}
					],
					"stateMutability": "nonpayable",
					"type": "constructor"
				},
				{
					"inputs": [],
					"name": "AlreadyListed",
					"type": "error"
				},
				{
					"inputs": [],
					"name": "CannotBuyOwnListing",
					"type": "error"
				},
				{
					"inputs": [
						{
							"internalType": "uint256",
							"name": "_amount",
							"type": "uint256"
						},
						{
							"internalType": "uint256",
							"name": "_pendingWithdrawals",
							"type": "uint256"
						}
					],
					"name": "InsufficientFunds",
					"type": "error"
				},
				{
					"inputs": [
						{
							"internalType": "uint256",
							"name": "_price",
							"type": "uint256"
						},
						{
							"internalType": "uint256",
							"name": "_amount",
							"type": "uint256"
						}
					],
					"name": "InsufficientPayment",
					"type": "error"
				},
				{
					"inputs": [],
					"name": "NotActive",
					"type": "error"
				},
				{
					"inputs": [],
					"name": "NotApproved",
					"type": "error"
				},
				{
					"inputs": [],
					"name": "NotEnoughFunds",
					"type": "error"
				},
				{
					"inputs": [
						{
							"internalType": "address",
							"name": "_owner",
							"type": "address"
						}
					],
					"name": "NotOwner",
					"type": "error"
				},
				{
					"inputs": [
						{
							"internalType": "address",
							"name": "_seller",
							"type": "address"
						}
					],
					"name": "NotSeller",
					"type": "error"
				},
				{
					"inputs": [
						{
							"internalType": "address",
							"name": "_ownerToken",
							"type": "address"
						}
					],
					"name": "NotTokenOwner",
					"type": "error"
				},
				{
					"anonymous": false,
					"inputs": [
						{
							"indexed": false,
							"internalType": "uint256",
							"name": "newPercent",
							"type": "uint256"
						}
					],
					"name": "CommissionUpdated",
					"type": "event"
				},
				{
					"anonymous": false,
					"inputs": [
						{
							"indexed": false,
							"internalType": "uint256",
							"name": "amount",
							"type": "uint256"
						},
						{
							"indexed": true,
							"internalType": "address",
							"name": "recipient",
							"type": "address"
						}
					],
					"name": "FundsWithdrawn",
					"type": "event"
				},
				{
					"anonymous": false,
					"inputs": [
						{
							"indexed": true,
							"internalType": "uint256",
							"name": "id",
							"type": "uint256"
						},
						{
							"indexed": true,
							"internalType": "address",
							"name": "seller",
							"type": "address"
						}
					],
					"name": "ListingCancelled",
					"type": "event"
				},
				{
					"anonymous": false,
					"inputs": [
						{
							"indexed": true,
							"internalType": "uint256",
							"name": "id",
							"type": "uint256"
						},
						{
							"indexed": true,
							"internalType": "address",
							"name": "seller",
							"type": "address"
						},
						{
							"indexed": false,
							"internalType": "uint256",
							"name": "tokenId",
							"type": "uint256"
						},
						{
							"indexed": false,
							"internalType": "uint256",
							"name": "price",
							"type": "uint256"
						},
						{
							"indexed": false,
							"internalType": "uint256",
							"name": "timestamp",
							"type": "uint256"
						}
					],
					"name": "ListingCreated",
					"type": "event"
				},
				{
					"anonymous": false,
					"inputs": [
						{
							"indexed": true,
							"internalType": "uint256",
							"name": "tokenID",
							"type": "uint256"
						},
						{
							"indexed": true,
							"internalType": "address",
							"name": "owner",
							"type": "address"
						},
						{
							"indexed": false,
							"internalType": "uint256",
							"name": "timestamp",
							"type": "uint256"
						}
					],
					"name": "NFTDelete",
					"type": "event"
				},
				{
					"anonymous": false,
					"inputs": [
						{
							"indexed": true,
							"internalType": "uint256",
							"name": "id",
							"type": "uint256"
						},
						{
							"indexed": true,
							"internalType": "address",
							"name": "buyer",
							"type": "address"
						},
						{
							"indexed": false,
							"internalType": "uint256",
							"name": "tokenId",
							"type": "uint256"
						},
						{
							"indexed": false,
							"internalType": "uint256",
							"name": "price",
							"type": "uint256"
						},
						{
							"indexed": false,
							"internalType": "uint256",
							"name": "timestamp",
							"type": "uint256"
						}
					],
					"name": "PurchaseCompleted",
					"type": "event"
				},
				{
					"inputs": [],
					"name": "MAX_COMMISSION",
					"outputs": [
						{
							"internalType": "uint256",
							"name": "",
							"type": "uint256"
						}
					],
					"stateMutability": "view",
					"type": "function"
				},
				{
					"inputs": [
						{
							"internalType": "uint256",
							"name": "_listingId",
							"type": "uint256"
						}
					],
					"name": "cancelListing",
					"outputs": [],
					"stateMutability": "nonpayable",
					"type": "function"
				},
				{
					"inputs": [],
					"name": "commissionPercent",
					"outputs": [
						{
							"internalType": "uint256",
							"name": "",
							"type": "uint256"
						}
					],
					"stateMutability": "view",
					"type": "function"
				},
				{
					"inputs": [
						{
							"internalType": "uint128",
							"name": "_tokenId",
							"type": "uint128"
						},
						{
							"internalType": "uint128",
							"name": "_price",
							"type": "uint128"
						}
					],
					"name": "createListing",
					"outputs": [],
					"stateMutability": "nonpayable",
					"type": "function"
				},
				{
					"inputs": [
						{
							"internalType": "uint256",
							"name": "_tokenId",
							"type": "uint256"
						}
					],
					"name": "deleteListing",
					"outputs": [],
					"stateMutability": "nonpayable",
					"type": "function"
				},
				{
					"inputs": [
						{
							"internalType": "uint256",
							"name": "_tokenId",
							"type": "uint256"
						}
					],
					"name": "getListingId",
					"outputs": [
						{
							"internalType": "uint256",
							"name": "",
							"type": "uint256"
						}
					],
					"stateMutability": "view",
					"type": "function"
				},
				{
					"inputs": [
						{
							"internalType": "address",
							"name": "_seller",
							"type": "address"
						}
					],
					"name": "getListingsBySeller",
					"outputs": [
						{
							"components": [
								{
									"internalType": "address",
									"name": "seller",
									"type": "address"
								},
								{
									"internalType": "uint128",
									"name": "tokenId",
									"type": "uint128"
								},
								{
									"internalType": "uint128",
									"name": "price",
									"type": "uint128"
								},
								{
									"internalType": "bool",
									"name": "isActive",
									"type": "bool"
								}
							],
							"internalType": "struct Marketplace.Listing[]",
							"name": "",
							"type": "tuple[]"
						}
					],
					"stateMutability": "view",
					"type": "function"
				},
				{
					"inputs": [
						{
							"internalType": "uint256",
							"name": "_tokenId",
							"type": "uint256"
						}
					],
					"name": "isTokenListed",
					"outputs": [
						{
							"internalType": "bool",
							"name": "",
							"type": "bool"
						}
					],
					"stateMutability": "view",
					"type": "function"
				},
				{
					"inputs": [
						{
							"internalType": "uint256",
							"name": "",
							"type": "uint256"
						}
					],
					"name": "listings",
					"outputs": [
						{
							"internalType": "address",
							"name": "seller",
							"type": "address"
						},
						{
							"internalType": "uint128",
							"name": "tokenId",
							"type": "uint128"
						},
						{
							"internalType": "uint128",
							"name": "price",
							"type": "uint128"
						},
						{
							"internalType": "bool",
							"name": "isActive",
							"type": "bool"
						}
					],
					"stateMutability": "view",
					"type": "function"
				},
				{
					"inputs": [],
					"name": "nftContract",
					"outputs": [
						{
							"internalType": "contract IERC721",
							"name": "",
							"type": "address"
						}
					],
					"stateMutability": "view",
					"type": "function"
				},
				{
					"inputs": [],
					"name": "nftEnumerable",
					"outputs": [
						{
							"internalType": "contract IERC721Enumerable",
							"name": "",
							"type": "address"
						}
					],
					"stateMutability": "view",
					"type": "function"
				},
				{
					"inputs": [],
					"name": "owner",
					"outputs": [
						{
							"internalType": "address payable",
							"name": "",
							"type": "address"
						}
					],
					"stateMutability": "view",
					"type": "function"
				},
				{
					"inputs": [
						{
							"internalType": "address",
							"name": "",
							"type": "address"
						}
					],
					"name": "pendingWithdrawals",
					"outputs": [
						{
							"internalType": "uint256",
							"name": "",
							"type": "uint256"
						}
					],
					"stateMutability": "view",
					"type": "function"
				},
				{
					"inputs": [
						{
							"internalType": "uint256",
							"name": "_listingId",
							"type": "uint256"
						}
					],
					"name": "purchaseListing",
					"outputs": [],
					"stateMutability": "payable",
					"type": "function"
				},
				{
					"inputs": [
						{
							"internalType": "uint256",
							"name": "_newPercent",
							"type": "uint256"
						}
					],
					"name": "setCommissionPercent",
					"outputs": [],
					"stateMutability": "nonpayable",
					"type": "function"
				},
				{
					"inputs": [
						{
							"internalType": "address",
							"name": "_owner",
							"type": "address"
						},
						{
							"internalType": "uint256",
							"name": "index",
							"type": "uint256"
						}
					],
					"name": "tokenOfOwnerByIndex",
					"outputs": [
						{
							"internalType": "uint256",
							"name": "",
							"type": "uint256"
						}
					],
					"stateMutability": "view",
					"type": "function"
				},
				{
					"inputs": [
						{
							"internalType": "address payable",
							"name": "_to",
							"type": "address"
						},
						{
							"internalType": "uint256",
							"name": "_amount",
							"type": "uint256"
						}
					],
					"name": "withdraw",
					"outputs": [],
					"stateMutability": "nonpayable",
					"type": "function"
				},
				{
					"inputs": [],
					"name": "withdrawFunds",
					"outputs": [],
					"stateMutability": "nonpayable",
					"type": "function"
				},
				{
					"stateMutability": "payable",
					"type": "receive"
				}
			],
			"devdoc": {
				"details": "This contract facilitates the listing and sale of ERC721 tokens with added enumerable support.",
				"errors": {
					"NotOwner(address)": [
						{
							"details": "Custom errors"
						}
					]
				},
				"kind": "dev",
				"methods": {
					"cancelListing(uint256)": {
						"params": {
							"_listingId": "ID of the listing to cancel."
						}
					},
					"constructor": {
						"details": "Initializes the marketplace with an ERC721 contract and commission percentage.",
						"params": {
							"_commissionPercent": "Marketplace commission percentage (in basis points).",
							"_nftContractAddress": "Address of the ERC721 token contract."
						}
					},
					"createListing(uint128,uint128)": {
						"params": {
							"_price": "Sale price in wei.",
							"_tokenId": "ID of the token to sell."
						}
					},
					"deleteListing(uint256)": {
						"params": {
							"_tokenId": "The token ID to delete."
						}
					},
					"getListingId(uint256)": {
						"params": {
							"_tokenId": "The token ID to check."
						},
						"returns": {
							"_0": "The listing ID if the token is listed, 0 otherwise."
						}
					},
					"getListingsBySeller(address)": {
						"params": {
							"_seller": "The address of the seller."
						},
						"returns": {
							"_0": "Array of seller's listings."
						}
					},
					"isTokenListed(uint256)": {
						"params": {
							"_tokenId": "The token ID to check."
						},
						"returns": {
							"_0": "bool Whether the token is listed."
						}
					},
					"purchaseListing(uint256)": {
						"params": {
							"_listingId": "ID of the listing to purchase."
						}
					},
					"setCommissionPercent(uint256)": {
						"params": {
							"_newPercent": "New commission percentage in basis points."
						}
					},
					"tokenOfOwnerByIndex(address,uint256)": {
						"params": {
							"_owner": "Address of the token owner.",
							"index": "Index in the owner's token list."
						},
						"returns": {
							"_0": "The token ID at the given index."
						}
					},
					"withdraw(address,uint256)": {
						"params": {
							"_amount": "Amount of funds to withdraw.",
							"_to": "Address to send the funds to."
						}
					}
				},
				"stateVariables": {
					"listings": {
						"details": "Stores all listings by their unique ID."
					},
					"pendingWithdrawals": {
						"details": "Pending withdrawals for sellers and owner."
					},
					"sellerListings": {
						"details": "Maps seller addresses to their active listings"
					},
					"tokenToListingId": {
						"details": "Maps token IDs to their active listing ID."
					}
				},
				"title": "NFT Marketplace",
				"version": 1
			},
			"evm": {
				"assembly": "    /* \"contracts/Orders.sol\":347:11923  contract Marketplace {... */\n  mstore(0x40, 0xe0)\n    /* \"contracts/Orders.sol\":4318:4765  constructor(address _nftContractAddress, uint256 _commissionPercent) {... */\n  callvalue\n  dup1\n  iszero\n  tag_1\n  jumpi\n  0x00\n  dup1\n  revert\ntag_1:\n  pop\n  mload(0x40)\n  sub(codesize, bytecodeSize)\n  dup1\n  bytecodeSize\n  dup4\n  codecopy\n  dup2\n  dup2\n  add\n  0x40\n  mstore\n  dup2\n  add\n  swap1\n  tag_2\n  swap2\n  swap1\n  tag_3\n  jump\t// in\ntag_2:\n    /* \"contracts/Orders.sol\":4437:4438  0 */\n  0x00\n    /* \"contracts/Orders.sol\":4406:4439  _nftContractAddress != address(0) */\n  0xffffffffffffffffffffffffffffffffffffffff\n  and\n    /* \"contracts/Orders.sol\":4406:4425  _nftContractAddress */\n  dup3\n    /* \"contracts/Orders.sol\":4406:4439  _nftContractAddress != address(0) */\n  0xffffffffffffffffffffffffffffffffffffffff\n  and\n  sub\n    /* \"contracts/Orders.sol\":4398:4463  require(_nftContractAddress != address(0), \"Invalid NFT address\") */\n  tag_6\n  jumpi\n  mload(0x40)\n  0x08c379a000000000000000000000000000000000000000000000000000000000\n  dup2\n  mstore\n  0x04\n  add\n  tag_7\n  swap1\n  tag_8\n  jump\t// in\ntag_7:\n  mload(0x40)\n  dup1\n  swap2\n  sub\n  swap1\n  revert\ntag_6:\n    /* \"contracts/Orders.sol\":2082:2086  5000 */\n  0x1388\n    /* \"contracts/Orders.sol\":4482:4500  _commissionPercent */\n  dup2\n    /* \"contracts/Orders.sol\":4482:4518  _commissionPercent <= MAX_COMMISSION */\n  gt\n  iszero\n    /* \"contracts/Orders.sol\":4474:4542  require(_commissionPercent <= MAX_COMMISSION, \"Commission too high\") */\n  tag_9\n  jumpi\n  mload(0x40)\n  0x08c379a000000000000000000000000000000000000000000000000000000000\n  dup2\n  mstore\n  0x04\n  add\n  tag_10\n  swap1\n  tag_11\n  jump\t// in\ntag_10:\n  mload(0x40)\n  dup1\n  swap2\n  sub\n  swap1\n  revert\ntag_9:\n    /* \"contracts/Orders.sol\":4579:4589  msg.sender */\n  caller\n    /* \"contracts/Orders.sol\":4563:4590  owner = payable(msg.sender) */\n  0xffffffffffffffffffffffffffffffffffffffff\n  and\n  0x80\n  dup2\n  0xffffffffffffffffffffffffffffffffffffffff\n  and\n  dup2\n  mstore\n  pop\n  pop\n    /* \"contracts/Orders.sol\":4623:4642  _nftContractAddress */\n  dup2\n    /* \"contracts/Orders.sol\":4601:4643  nftContract = IERC721(_nftContractAddress) */\n  0xffffffffffffffffffffffffffffffffffffffff\n  and\n  0xa0\n  dup2\n  0xffffffffffffffffffffffffffffffffffffffff\n  and\n  dup2\n  mstore\n  pop\n  pop\n    /* \"contracts/Orders.sol\":4688:4707  _nftContractAddress */\n  dup2\n    /* \"contracts/Orders.sol\":4654:4708  nftEnumerable = IERC721Enumerable(_nftContractAddress) */\n  0xffffffffffffffffffffffffffffffffffffffff\n  and\n  0xc0\n  dup2\n  0xffffffffffffffffffffffffffffffffffffffff\n  and\n  dup2\n  mstore\n  pop\n  pop\n    /* \"contracts/Orders.sol\":4739:4757  _commissionPercent */\n  dup1\n    /* \"contracts/Orders.sol\":4719:4736  commissionPercent */\n  0x00\n    /* \"contracts/Orders.sol\":4719:4757  commissionPercent = _commissionPercent */\n  dup2\n  swap1\n  sstore\n  pop\n    /* \"contracts/Orders.sol\":4318:4765  constructor(address _nftContractAddress, uint256 _commissionPercent) {... */\n  pop\n  pop\n    /* \"contracts/Orders.sol\":347:11923  contract Marketplace {... */\n  jump(tag_12)\n    /* \"#utility.yul\":88:205   */\ntag_14:\n    /* \"#utility.yul\":197:198   */\n  0x00\n    /* \"#utility.yul\":194:195   */\n  dup1\n    /* \"#utility.yul\":187:199   */\n  revert\n    /* \"#utility.yul\":334:460   */\ntag_16:\n    /* \"#utility.yul\":371:378   */\n  0x00\n    /* \"#utility.yul\":411:453   */\n  0xffffffffffffffffffffffffffffffffffffffff\n    /* \"#utility.yul\":404:409   */\n  dup3\n    /* \"#utility.yul\":400:454   */\n  and\n    /* \"#utility.yul\":389:454   */\n  swap1\n  pop\n    /* \"#utility.yul\":334:460   */\n  swap2\n  swap1\n  pop\n  jump\t// out\n    /* \"#utility.yul\":466:562   */\ntag_17:\n    /* \"#utility.yul\":503:510   */\n  0x00\n    /* \"#utility.yul\":532:556   */\n  tag_34\n    /* \"#utility.yul\":550:555   */\n  dup3\n    /* \"#utility.yul\":532:556   */\n  tag_16\n  jump\t// in\ntag_34:\n    /* \"#utility.yul\":521:556   */\n  swap1\n  pop\n    /* \"#utility.yul\":466:562   */\n  swap2\n  swap1\n  pop\n  jump\t// out\n    /* \"#utility.yul\":568:690   */\ntag_18:\n    /* \"#utility.yul\":641:665   */\n  tag_36\n    /* \"#utility.yul\":659:664   */\n  dup2\n    /* \"#utility.yul\":641:665   */\n  tag_17\n  jump\t// in\ntag_36:\n    /* \"#utility.yul\":634:639   */\n  dup2\n    /* \"#utility.yul\":631:666   */\n  eq\n    /* \"#utility.yul\":621:684   */\n  tag_37\n  jumpi\n    /* \"#utility.yul\":680:681   */\n  0x00\n    /* \"#utility.yul\":677:678   */\n  dup1\n    /* \"#utility.yul\":670:682   */\n  revert\n    /* \"#utility.yul\":621:684   */\ntag_37:\n    /* \"#utility.yul\":568:690   */\n  pop\n  jump\t// out\n    /* \"#utility.yul\":696:839   */\ntag_19:\n    /* \"#utility.yul\":753:758   */\n  0x00\n    /* \"#utility.yul\":784:790   */\n  dup2\n    /* \"#utility.yul\":778:791   */\n  mload\n    /* \"#utility.yul\":769:791   */\n  swap1\n  pop\n    /* \"#utility.yul\":800:833   */\n  tag_39\n    /* \"#utility.yul\":827:832   */\n  dup2\n    /* \"#utility.yul\":800:833   */\n  tag_18\n  jump\t// in\ntag_39:\n    /* \"#utility.yul\":696:839   */\n  swap3\n  swap2\n  pop\n  pop\n  jump\t// out\n    /* \"#utility.yul\":845:922   */\ntag_20:\n    /* \"#utility.yul\":882:889   */\n  0x00\n    /* \"#utility.yul\":911:916   */\n  dup2\n    /* \"#utility.yul\":900:916   */\n  swap1\n  pop\n    /* \"#utility.yul\":845:922   */\n  swap2\n  swap1\n  pop\n  jump\t// out\n    /* \"#utility.yul\":928:1050   */\ntag_21:\n    /* \"#utility.yul\":1001:1025   */\n  tag_42\n    /* \"#utility.yul\":1019:1024   */\n  dup2\n    /* \"#utility.yul\":1001:1025   */\n  tag_20\n  jump\t// in\ntag_42:\n    /* \"#utility.yul\":994:999   */\n  dup2\n    /* \"#utility.yul\":991:1026   */\n  eq\n    /* \"#utility.yul\":981:1044   */\n  tag_43\n  jumpi\n    /* \"#utility.yul\":1040:1041   */\n  0x00\n    /* \"#utility.yul\":1037:1038   */\n  dup1\n    /* \"#utility.yul\":1030:1042   */\n  revert\n    /* \"#utility.yul\":981:1044   */\ntag_43:\n    /* \"#utility.yul\":928:1050   */\n  pop\n  jump\t// out\n    /* \"#utility.yul\":1056:1199   */\ntag_22:\n    /* \"#utility.yul\":1113:1118   */\n  0x00\n    /* \"#utility.yul\":1144:1150   */\n  dup2\n    /* \"#utility.yul\":1138:1151   */\n  mload\n    /* \"#utility.yul\":1129:1151   */\n  swap1\n  pop\n    /* \"#utility.yul\":1160:1193   */\n  tag_45\n    /* \"#utility.yul\":1187:1192   */\n  dup2\n    /* \"#utility.yul\":1160:1193   */\n  tag_21\n  jump\t// in\ntag_45:\n    /* \"#utility.yul\":1056:1199   */\n  swap3\n  swap2\n  pop\n  pop\n  jump\t// out\n    /* \"#utility.yul\":1205:1712   */\ntag_3:\n    /* \"#utility.yul\":1284:1290   */\n  0x00\n    /* \"#utility.yul\":1292:1298   */\n  dup1\n    /* \"#utility.yul\":1341:1343   */\n  0x40\n    /* \"#utility.yul\":1329:1338   */\n  dup4\n    /* \"#utility.yul\":1320:1327   */\n  dup6\n    /* \"#utility.yul\":1316:1339   */\n  sub\n    /* \"#utility.yul\":1312:1344   */\n  slt\n    /* \"#utility.yul\":1309:1428   */\n  iszero\n  tag_47\n  jumpi\n    /* \"#utility.yul\":1347:1426   */\n  tag_48\n  tag_14\n  jump\t// in\ntag_48:\n    /* \"#utility.yul\":1309:1428   */\ntag_47:\n    /* \"#utility.yul\":1467:1468   */\n  0x00\n    /* \"#utility.yul\":1492:1556   */\n  tag_49\n    /* \"#utility.yul\":1548:1555   */\n  dup6\n    /* \"#utility.yul\":1539:1545   */\n  dup3\n    /* \"#utility.yul\":1528:1537   */\n  dup7\n    /* \"#utility.yul\":1524:1546   */\n  add\n    /* \"#utility.yul\":1492:1556   */\n  tag_19\n  jump\t// in\ntag_49:\n    /* \"#utility.yul\":1482:1556   */\n  swap3\n  pop\n    /* \"#utility.yul\":1438:1566   */\n  pop\n    /* \"#utility.yul\":1605:1607   */\n  0x20\n    /* \"#utility.yul\":1631:1695   */\n  tag_50\n    /* \"#utility.yul\":1687:1694   */\n  dup6\n    /* \"#utility.yul\":1678:1684   */\n  dup3\n    /* \"#utility.yul\":1667:1676   */\n  dup7\n    /* \"#utility.yul\":1663:1685   */\n  add\n    /* \"#utility.yul\":1631:1695   */\n  tag_22\n  jump\t// in\ntag_50:\n    /* \"#utility.yul\":1621:1695   */\n  swap2\n  pop\n    /* \"#utility.yul\":1576:1705   */\n  pop\n    /* \"#utility.yul\":1205:1712   */\n  swap3\n  pop\n  swap3\n  swap1\n  pop\n  jump\t// out\n    /* \"#utility.yul\":1718:1887   */\ntag_23:\n    /* \"#utility.yul\":1802:1813   */\n  0x00\n    /* \"#utility.yul\":1836:1842   */\n  dup3\n    /* \"#utility.yul\":1831:1834   */\n  dup3\n    /* \"#utility.yul\":1824:1843   */\n  mstore\n    /* \"#utility.yul\":1876:1880   */\n  0x20\n    /* \"#utility.yul\":1871:1874   */\n  dup3\n    /* \"#utility.yul\":1867:1881   */\n  add\n    /* \"#utility.yul\":1852:1881   */\n  swap1\n  pop\n    /* \"#utility.yul\":1718:1887   */\n  swap3\n  swap2\n  pop\n  pop\n  jump\t// out\n    /* \"#utility.yul\":1893:2062   */\ntag_24:\n    /* \"#utility.yul\":2033:2054   */\n  0x496e76616c6964204e4654206164647265737300000000000000000000000000\n    /* \"#utility.yul\":2029:2030   */\n  0x00\n    /* \"#utility.yul\":2021:2027   */\n  dup3\n    /* \"#utility.yul\":2017:2031   */\n  add\n    /* \"#utility.yul\":2010:2055   */\n  mstore\n    /* \"#utility.yul\":1893:2062   */\n  pop\n  jump\t// out\n    /* \"#utility.yul\":2068:2434   */\ntag_25:\n    /* \"#utility.yul\":2210:2213   */\n  0x00\n    /* \"#utility.yul\":2231:2298   */\n  tag_54\n    /* \"#utility.yul\":2295:2297   */\n  0x13\n    /* \"#utility.yul\":2290:2293   */\n  dup4\n    /* \"#utility.yul\":2231:2298   */\n  tag_23\n  jump\t// in\ntag_54:\n    /* \"#utility.yul\":2224:2298   */\n  swap2\n  pop\n    /* \"#utility.yul\":2307:2400   */\n  tag_55\n    /* \"#utility.yul\":2396:2399   */\n  dup3\n    /* \"#utility.yul\":2307:2400   */\n  tag_24\n  jump\t// in\ntag_55:\n    /* \"#utility.yul\":2425:2427   */\n  0x20\n    /* \"#utility.yul\":2420:2423   */\n  dup3\n    /* \"#utility.yul\":2416:2428   */\n  add\n    /* \"#utility.yul\":2409:2428   */\n  swap1\n  pop\n    /* \"#utility.yul\":2068:2434   */\n  swap2\n  swap1\n  pop\n  jump\t// out\n    /* \"#utility.yul\":2440:2859   */\ntag_8:\n    /* \"#utility.yul\":2606:2610   */\n  0x00\n    /* \"#utility.yul\":2644:2646   */\n  0x20\n    /* \"#utility.yul\":2633:2642   */\n  dup3\n    /* \"#utility.yul\":2629:2647   */\n  add\n    /* \"#utility.yul\":2621:2647   */\n  swap1\n  pop\n    /* \"#utility.yul\":2693:2702   */\n  dup2\n    /* \"#utility.yul\":2687:2691   */\n  dup2\n    /* \"#utility.yul\":2683:2703   */\n  sub\n    /* \"#utility.yul\":2679:2680   */\n  0x00\n    /* \"#utility.yul\":2668:2677   */\n  dup4\n    /* \"#utility.yul\":2664:2681   */\n  add\n    /* \"#utility.yul\":2657:2704   */\n  mstore\n    /* \"#utility.yul\":2721:2852   */\n  tag_57\n    /* \"#utility.yul\":2847:2851   */\n  dup2\n    /* \"#utility.yul\":2721:2852   */\n  tag_25\n  jump\t// in\ntag_57:\n    /* \"#utility.yul\":2713:2852   */\n  swap1\n  pop\n    /* \"#utility.yul\":2440:2859   */\n  swap2\n  swap1\n  pop\n  jump\t// out\n    /* \"#utility.yul\":2865:3034   */\ntag_26:\n    /* \"#utility.yul\":3005:3026   */\n  0x436f6d6d697373696f6e20746f6f206869676800000000000000000000000000\n    /* \"#utility.yul\":3001:3002   */\n  0x00\n    /* \"#utility.yul\":2993:2999   */\n  dup3\n    /* \"#utility.yul\":2989:3003   */\n  add\n    /* \"#utility.yul\":2982:3027   */\n  mstore\n    /* \"#utility.yul\":2865:3034   */\n  pop\n  jump\t// out\n    /* \"#utility.yul\":3040:3406   */\ntag_27:\n    /* \"#utility.yul\":3182:3185   */\n  0x00\n    /* \"#utility.yul\":3203:3270   */\n  tag_60\n    /* \"#utility.yul\":3267:3269   */\n  0x13\n    /* \"#utility.yul\":3262:3265   */\n  dup4\n    /* \"#utility.yul\":3203:3270   */\n  tag_23\n  jump\t// in\ntag_60:\n    /* \"#utility.yul\":3196:3270   */\n  swap2\n  pop\n    /* \"#utility.yul\":3279:3372   */\n  tag_61\n    /* \"#utility.yul\":3368:3371   */\n  dup3\n    /* \"#utility.yul\":3279:3372   */\n  tag_26\n  jump\t// in\ntag_61:\n    /* \"#utility.yul\":3397:3399   */\n  0x20\n    /* \"#utility.yul\":3392:3395   */\n  dup3\n    /* \"#utility.yul\":3388:3400   */\n  add\n    /* \"#utility.yul\":3381:3400   */\n  swap1\n  pop\n    /* \"#utility.yul\":3040:3406   */\n  swap2\n  swap1\n  pop\n  jump\t// out\n    /* \"#utility.yul\":3412:3831   */\ntag_11:\n    /* \"#utility.yul\":3578:3582   */\n  0x00\n    /* \"#utility.yul\":3616:3618   */\n  0x20\n    /* \"#utility.yul\":3605:3614   */\n  dup3\n    /* \"#utility.yul\":3601:3619   */\n  add\n    /* \"#utility.yul\":3593:3619   */\n  swap1\n  pop\n    /* \"#utility.yul\":3665:3674   */\n  dup2\n    /* \"#utility.yul\":3659:3663   */\n  dup2\n    /* \"#utility.yul\":3655:3675   */\n  sub\n    /* \"#utility.yul\":3651:3652   */\n  0x00\n    /* \"#utility.yul\":3640:3649   */\n  dup4\n    /* \"#utility.yul\":3636:3653   */\n  add\n    /* \"#utility.yul\":3629:3676   */\n  mstore\n    /* \"#utility.yul\":3693:3824   */\n  tag_63\n    /* \"#utility.yul\":3819:3823   */\n  dup2\n    /* \"#utility.yul\":3693:3824   */\n  tag_27\n  jump\t// in\ntag_63:\n    /* \"#utility.yul\":3685:3824   */\n  swap1\n  pop\n    /* \"#utility.yul\":3412:3831   */\n  swap2\n  swap1\n  pop\n  jump\t// out\n    /* \"contracts/Orders.sol\":347:11923  contract Marketplace {... */\ntag_12:\n  mload(0x80)\n  mload(0xa0)\n  mload(0xc0)\n  codecopy(0x00, dataOffset(sub_0), dataSize(sub_0))\n  0x00\n  assignImmutable(\"0x37d821c64038a6deccb23b3e33cd7d06b5e697ef7f88117a0f085a4c624de237\")\n  0x00\n  assignImmutable(\"0x188e5a5b71233ee092fd8df209d4e7ce875dc9914c3b80c1ca11c66b0a19f684\")\n  0x00\n  assignImmutable(\"0x67df77adbc271f558df88504cf3a3f87bfdd2d55b11e86c55c4fd978a935a836\")\n  return(0x00, dataSize(sub_0))\nstop\n\nsub_0: assembly {\n        /* \"contracts/Orders.sol\":347:11923  contract Marketplace {... */\n      mstore(0x40, 0x80)\n      jumpi(tag_1, lt(calldatasize, 0x04))\n      shr(0xe0, calldataload(0x00))\n      dup1\n      0x9b83cddc\n      gt\n      tag_21\n      jumpi\n      dup1\n      0xd8cba251\n      gt\n      tag_22\n      jumpi\n      dup1\n      0xd8cba251\n      eq\n      tag_16\n      jumpi\n      dup1\n      0xde74e57b\n      eq\n      tag_17\n      jumpi\n      dup1\n      0xe6282c6e\n      eq\n      tag_18\n      jumpi\n      dup1\n      0xf3f43703\n      eq\n      tag_19\n      jumpi\n      dup1\n      0xf3fef3a3\n      eq\n      tag_20\n      jumpi\n      jump(tag_2)\n    tag_22:\n      dup1\n      0x9b83cddc\n      eq\n      tag_12\n      jumpi\n      dup1\n      0xae97dde8\n      eq\n      tag_13\n      jumpi\n      dup1\n      0xcc85a55b\n      eq\n      tag_14\n      jumpi\n      dup1\n      0xd56d229d\n      eq\n      tag_15\n      jumpi\n      jump(tag_2)\n    tag_21:\n      dup1\n      0x404a9ab8\n      gt\n      tag_23\n      jumpi\n      dup1\n      0x404a9ab8\n      eq\n      tag_7\n      jumpi\n      dup1\n      0x51e61b25\n      eq\n      tag_8\n      jumpi\n      dup1\n      0x77d3550b\n      eq\n      tag_9\n      jumpi\n      dup1\n      0x8da5cb5b\n      eq\n      tag_10\n      jumpi\n      dup1\n      0x9acaa6fb\n      eq\n      tag_11\n      jumpi\n      jump(tag_2)\n    tag_23:\n      dup1\n      0x169d5a7d\n      eq\n      tag_3\n      jumpi\n      dup1\n      0x24600fc3\n      eq\n      tag_4\n      jumpi\n      dup1\n      0x2f745c59\n      eq\n      tag_5\n      jumpi\n      dup1\n      0x305a67a8\n      eq\n      tag_6\n      jumpi\n      jump(tag_2)\n    tag_1:\n      jumpi(tag_2, calldatasize)\n      stop\n    tag_2:\n      0x00\n      dup1\n      revert\n        /* \"contracts/Orders.sol\":6270:7724  function purchaseListing(uint256 _listingId) external payable{... */\n    tag_3:\n      tag_26\n      0x04\n      dup1\n      calldatasize\n      sub\n      dup2\n      add\n      swap1\n      tag_27\n      swap2\n      swap1\n      tag_28\n      jump\t// in\n    tag_27:\n      tag_29\n      jump\t// in\n    tag_26:\n      stop\n        /* \"contracts/Orders.sol\":9475:9883  function withdrawFunds() external onlyOwner {... */\n    tag_4:\n      callvalue\n      dup1\n      iszero\n      tag_30\n      jumpi\n      0x00\n      dup1\n      revert\n    tag_30:\n      pop\n      tag_31\n      tag_32\n      jump\t// in\n    tag_31:\n      stop\n        /* \"contracts/Orders.sol\":10140:10306  function tokenOfOwnerByIndex(address _owner, uint256 index) external view returns (uint256) {... */\n    tag_5:\n      callvalue\n      dup1\n      iszero\n      tag_33\n      jumpi\n      0x00\n      dup1\n      revert\n    tag_33:\n      pop\n      tag_34\n      0x04\n      dup1\n      calldatasize\n      sub\n      dup2\n      add\n      swap1\n      tag_35\n      swap2\n      swap1\n      tag_36\n      jump\t// in\n    tag_35:\n      tag_37\n      jump\t// in\n    tag_34:\n      mload(0x40)\n      tag_38\n      swap2\n      swap1\n      tag_39\n      jump\t// in\n    tag_38:\n      mload(0x40)\n      dup1\n      swap2\n      sub\n      swap1\n      return\n        /* \"contracts/Orders.sol\":7848:8334  function cancelListing(uint256 _listingId) external {... */\n    tag_6:\n      callvalue\n      dup1\n      iszero\n      tag_40\n      jumpi\n      0x00\n      dup1\n      revert\n    tag_40:\n      pop\n      tag_41\n      0x04\n      dup1\n      calldatasize\n      sub\n      dup2\n      add\n      swap1\n      tag_42\n      swap2\n      swap1\n      tag_28\n      jump\t// in\n    tag_42:\n      tag_43\n      jump\t// in\n    tag_41:\n      stop\n        /* \"contracts/Orders.sol\":9170:9408  function setCommissionPercent(uint256 _newPercent) external onlyOwner {... */\n    tag_7:\n      callvalue\n      dup1\n      iszero\n      tag_44\n      jumpi\n      0x00\n      dup1\n      revert\n    tag_44:\n      pop\n      tag_45\n      0x04\n      dup1\n      calldatasize\n      sub\n      dup2\n      add\n      swap1\n      tag_46\n      swap2\n      swap1\n      tag_28\n      jump\t// in\n    tag_46:\n      tag_47\n      jump\t// in\n    tag_45:\n      stop\n        /* \"contracts/Orders.sol\":2605:2653  IERC721Enumerable public immutable nftEnumerable */\n    tag_8:\n      callvalue\n      dup1\n      iszero\n      tag_48\n      jumpi\n      0x00\n      dup1\n      revert\n    tag_48:\n      pop\n      tag_49\n      tag_50\n      jump\t// in\n    tag_49:\n      mload(0x40)\n      tag_51\n      swap2\n      swap1\n      tag_52\n      jump\t// in\n    tag_51:\n      mload(0x40)\n      dup1\n      swap2\n      sub\n      swap1\n      return\n        /* \"contracts/Orders.sol\":1938:1970  uint256 public commissionPercent */\n    tag_9:\n      callvalue\n      dup1\n      iszero\n      tag_53\n      jumpi\n      0x00\n      dup1\n      revert\n    tag_53:\n      pop\n      tag_54\n      tag_55\n      jump\t// in\n    tag_54:\n      mload(0x40)\n      tag_56\n      swap2\n      swap1\n      tag_39\n      jump\t// in\n    tag_56:\n      mload(0x40)\n      dup1\n      swap2\n      sub\n      swap1\n      return\n        /* \"contracts/Orders.sol\":1796:1834  address payable public immutable owner */\n    tag_10:\n      callvalue\n      dup1\n      iszero\n      tag_57\n      jumpi\n      0x00\n      dup1\n      revert\n    tag_57:\n      pop\n      tag_58\n      tag_59\n      jump\t// in\n    tag_58:\n      mload(0x40)\n      tag_60\n      swap2\n      swap1\n      tag_61\n      jump\t// in\n    tag_60:\n      mload(0x40)\n      dup1\n      swap2\n      sub\n      swap1\n      return\n        /* \"contracts/Orders.sol\":4931:6130  function createListing(uint128 _tokenId, uint128 _price) external {... */\n    tag_11:\n      callvalue\n      dup1\n      iszero\n      tag_62\n      jumpi\n      0x00\n      dup1\n      revert\n    tag_62:\n      pop\n      tag_63\n      0x04\n      dup1\n      calldatasize\n      sub\n      dup2\n      add\n      swap1\n      tag_64\n      swap2\n      swap1\n      tag_65\n      jump\t// in\n    tag_64:\n      tag_66\n      jump\t// in\n    tag_63:\n      stop\n        /* \"contracts/Orders.sol\":10484:10665  function isTokenListed(uint256 _tokenId) external view returns (bool) {... */\n    tag_12:\n      callvalue\n      dup1\n      iszero\n      tag_67\n      jumpi\n      0x00\n      dup1\n      revert\n    tag_67:\n      pop\n      tag_68\n      0x04\n      dup1\n      calldatasize\n      sub\n      dup2\n      add\n      swap1\n      tag_69\n      swap2\n      swap1\n      tag_28\n      jump\t// in\n    tag_69:\n      tag_70\n      jump\t// in\n    tag_68:\n      mload(0x40)\n      tag_71\n      swap2\n      swap1\n      tag_72\n      jump\t// in\n    tag_71:\n      mload(0x40)\n      dup1\n      swap2\n      sub\n      swap1\n      return\n        /* \"contracts/Orders.sol\":2041:2086  uint256 public constant MAX_COMMISSION = 5000 */\n    tag_13:\n      callvalue\n      dup1\n      iszero\n      tag_73\n      jumpi\n      0x00\n      dup1\n      revert\n    tag_73:\n      pop\n      tag_74\n      tag_75\n      jump\t// in\n    tag_74:\n      mload(0x40)\n      tag_76\n      swap2\n      swap1\n      tag_39\n      jump\t// in\n    tag_76:\n      mload(0x40)\n      dup1\n      swap2\n      sub\n      swap1\n      return\n        /* \"contracts/Orders.sol\":10868:10992  function getListingId(uint256 _tokenId) external view returns (uint256) {... */\n    tag_14:\n      callvalue\n      dup1\n      iszero\n      tag_77\n      jumpi\n      0x00\n      dup1\n      revert\n    tag_77:\n      pop\n      tag_78\n      0x04\n      dup1\n      calldatasize\n      sub\n      dup2\n      add\n      swap1\n      tag_79\n      swap2\n      swap1\n      tag_28\n      jump\t// in\n    tag_79:\n      tag_80\n      jump\t// in\n    tag_78:\n      mload(0x40)\n      tag_81\n      swap2\n      swap1\n      tag_39\n      jump\t// in\n    tag_81:\n      mload(0x40)\n      dup1\n      swap2\n      sub\n      swap1\n      return\n        /* \"contracts/Orders.sol\":2496:2532  IERC721 public immutable nftContract */\n    tag_15:\n      callvalue\n      dup1\n      iszero\n      tag_82\n      jumpi\n      0x00\n      dup1\n      revert\n    tag_82:\n      pop\n      tag_83\n      tag_84\n      jump\t// in\n    tag_83:\n      mload(0x40)\n      tag_85\n      swap2\n      swap1\n      tag_86\n      jump\t// in\n    tag_85:\n      mload(0x40)\n      dup1\n      swap2\n      sub\n      swap1\n      return\n        /* \"contracts/Orders.sol\":11166:11302  function getListingsBySeller(address _seller) external view returns (Listing[] memory) {... */\n    tag_16:\n      callvalue\n      dup1\n      iszero\n      tag_87\n      jumpi\n      0x00\n      dup1\n      revert\n    tag_87:\n      pop\n      tag_88\n      0x04\n      dup1\n      calldatasize\n      sub\n      dup2\n      add\n      swap1\n      tag_89\n      swap2\n      swap1\n      tag_90\n      jump\t// in\n    tag_89:\n      tag_91\n      jump\t// in\n    tag_88:\n      mload(0x40)\n      tag_92\n      swap2\n      swap1\n      tag_93\n      jump\t// in\n    tag_92:\n      mload(0x40)\n      dup1\n      swap2\n      sub\n      swap1\n      return\n        /* \"contracts/Orders.sol\":2149:2192  mapping(uint256 => Listing) public listings */\n    tag_17:\n      callvalue\n      dup1\n      iszero\n      tag_94\n      jumpi\n      0x00\n      dup1\n      revert\n    tag_94:\n      pop\n      tag_95\n      0x04\n      dup1\n      calldatasize\n      sub\n      dup2\n      add\n      swap1\n      tag_96\n      swap2\n      swap1\n      tag_28\n      jump\t// in\n    tag_96:\n      tag_97\n      jump\t// in\n    tag_95:\n      mload(0x40)\n      tag_98\n      swap5\n      swap4\n      swap3\n      swap2\n      swap1\n      tag_99\n      jump\t// in\n    tag_98:\n      mload(0x40)\n      dup1\n      swap2\n      sub\n      swap1\n      return\n        /* \"contracts/Orders.sol\":11385:11813  function deleteListing(uint256 _tokenId) external {... */\n    tag_18:\n      callvalue\n      dup1\n      iszero\n      tag_100\n      jumpi\n      0x00\n      dup1\n      revert\n    tag_100:\n      pop\n      tag_101\n      0x04\n      dup1\n      calldatasize\n      sub\n      dup2\n      add\n      swap1\n      tag_102\n      swap2\n      swap1\n      tag_28\n      jump\t// in\n    tag_102:\n      tag_103\n      jump\t// in\n    tag_101:\n      stop\n        /* \"contracts/Orders.sol\":2376:2429  mapping(address => uint256) public pendingWithdrawals */\n    tag_19:\n      callvalue\n      dup1\n      iszero\n      tag_104\n      jumpi\n      0x00\n      dup1\n      revert\n    tag_104:\n      pop\n      tag_105\n      0x04\n      dup1\n      calldatasize\n      sub\n      dup2\n      add\n      swap1\n      tag_106\n      swap2\n      swap1\n      tag_90\n      jump\t// in\n    tag_106:\n      tag_107\n      jump\t// in\n    tag_105:\n      mload(0x40)\n      tag_108\n      swap2\n      swap1\n      tag_39\n      jump\t// in\n    tag_108:\n      mload(0x40)\n      dup1\n      swap2\n      sub\n      swap1\n      return\n        /* \"contracts/Orders.sol\":8524:9011  function withdraw(address payable _to, uint256 _amount) external {... */\n    tag_20:\n      callvalue\n      dup1\n      iszero\n      tag_109\n      jumpi\n      0x00\n      dup1\n      revert\n    tag_109:\n      pop\n      tag_110\n      0x04\n      dup1\n      calldatasize\n      sub\n      dup2\n      add\n      swap1\n      tag_111\n      swap2\n      swap1\n      tag_112\n      jump\t// in\n    tag_111:\n      tag_113\n      jump\t// in\n    tag_110:\n      stop\n        /* \"contracts/Orders.sol\":6270:7724  function purchaseListing(uint256 _listingId) external payable{... */\n    tag_29:\n        /* \"contracts/Orders.sol\":6342:6364  Listing memory listing */\n      0x00\n        /* \"contracts/Orders.sol\":6367:6375  listings */\n      0x01\n        /* \"contracts/Orders.sol\":6367:6387  listings[_listingId] */\n      0x00\n        /* \"contracts/Orders.sol\":6376:6386  _listingId */\n      dup4\n        /* \"contracts/Orders.sol\":6367:6387  listings[_listingId] */\n      dup2\n      mstore\n      0x20\n      add\n      swap1\n      dup2\n      mstore\n      0x20\n      add\n      0x00\n      keccak256\n        /* \"contracts/Orders.sol\":6342:6387  Listing memory listing = listings[_listingId] */\n      mload(0x40)\n      dup1\n      0x80\n      add\n      0x40\n      mstore\n      swap1\n      dup2\n      0x00\n      dup3\n      add\n      0x00\n      swap1\n      sload\n      swap1\n      0x0100\n      exp\n      swap1\n      div\n      0xffffffffffffffffffffffffffffffffffffffff\n      and\n      0xffffffffffffffffffffffffffffffffffffffff\n      and\n      0xffffffffffffffffffffffffffffffffffffffff\n      and\n      dup2\n      mstore\n      0x20\n      add\n      0x01\n      dup3\n      add\n      0x00\n      swap1\n      sload\n      swap1\n      0x0100\n      exp\n      swap1\n      div\n      0xffffffffffffffffffffffffffffffff\n      and\n      0xffffffffffffffffffffffffffffffff\n      and\n      0xffffffffffffffffffffffffffffffff\n      and\n      dup2\n      mstore\n      0x20\n      add\n      0x01\n      dup3\n      add\n      0x10\n      swap1\n      sload\n      swap1\n      0x0100\n      exp\n      swap1\n      div\n      0xffffffffffffffffffffffffffffffff\n      and\n      0xffffffffffffffffffffffffffffffff\n      and\n      0xffffffffffffffffffffffffffffffff\n      and\n      dup2\n      mstore\n      0x20\n      add\n      0x02\n      dup3\n      add\n      0x00\n      swap1\n      sload\n      swap1\n      0x0100\n      exp\n      swap1\n      div\n      0xff\n      and\n      iszero\n      iszero\n      iszero\n      iszero\n      dup2\n      mstore\n      pop\n      pop\n      swap1\n      pop\n        /* \"contracts/Orders.sol\":6403:6410  listing */\n      dup1\n        /* \"contracts/Orders.sol\":6403:6419  listing.isActive */\n      0x60\n      add\n      mload\n        /* \"contracts/Orders.sol\":6398:6466  if (!listing.isActive) {... */\n      tag_115\n      jumpi\n        /* \"contracts/Orders.sol\":6443:6454  NotActive() */\n      mload(0x40)\n      0x80cb55e200000000000000000000000000000000000000000000000000000000\n      dup2\n      mstore\n      0x04\n      add\n      mload(0x40)\n      dup1\n      swap2\n      sub\n      swap1\n      revert\n        /* \"contracts/Orders.sol\":6398:6466  if (!listing.isActive) {... */\n    tag_115:\n        /* \"contracts/Orders.sol\":6492:6499  listing */\n      dup1\n        /* \"contracts/Orders.sol\":6492:6505  listing.price */\n      0x40\n      add\n      mload\n        /* \"contracts/Orders.sol\":6480:6505  msg.value < listing.price */\n      0xffffffffffffffffffffffffffffffff\n      and\n        /* \"contracts/Orders.sol\":6480:6489  msg.value */\n      callvalue\n        /* \"contracts/Orders.sol\":6480:6505  msg.value < listing.price */\n      lt\n        /* \"contracts/Orders.sol\":6476:6654  if (msg.value < listing.price) {... */\n      iszero\n      tag_116\n      jumpi\n        /* \"contracts/Orders.sol\":6576:6583  listing */\n      dup1\n        /* \"contracts/Orders.sol\":6576:6589  listing.price */\n      0x40\n      add\n      mload\n        /* \"contracts/Orders.sol\":6617:6626  msg.value */\n      callvalue\n        /* \"contracts/Orders.sol\":6529:6642  InsufficientPayment({... */\n      mload(0x40)\n      0xb99e2ab700000000000000000000000000000000000000000000000000000000\n      dup2\n      mstore\n      0x04\n      add\n      tag_117\n      swap3\n      swap2\n      swap1\n      tag_118\n      jump\t// in\n    tag_117:\n      mload(0x40)\n      dup1\n      swap2\n      sub\n      swap1\n      revert\n        /* \"contracts/Orders.sol\":6476:6654  if (msg.value < listing.price) {... */\n    tag_116:\n        /* \"contracts/Orders.sol\":6682:6689  listing */\n      dup1\n        /* \"contracts/Orders.sol\":6682:6696  listing.seller */\n      0x00\n      add\n      mload\n        /* \"contracts/Orders.sol\":6668:6696  msg.sender == listing.seller */\n      0xffffffffffffffffffffffffffffffffffffffff\n      and\n        /* \"contracts/Orders.sol\":6668:6678  msg.sender */\n      caller\n        /* \"contracts/Orders.sol\":6668:6696  msg.sender == listing.seller */\n      0xffffffffffffffffffffffffffffffffffffffff\n      and\n      sub\n        /* \"contracts/Orders.sol\":6664:6753  if (msg.sender == listing.seller) {... */\n      tag_119\n      jumpi\n        /* \"contracts/Orders.sol\":6720:6741  CannotBuyOwnListing() */\n      mload(0x40)\n      0x50eadcb100000000000000000000000000000000000000000000000000000000\n      dup2\n      mstore\n      0x04\n      add\n      mload(0x40)\n      dup1\n      swap2\n      sub\n      swap1\n      revert\n        /* \"contracts/Orders.sol\":6664:6753  if (msg.sender == listing.seller) {... */\n    tag_119:\n        /* \"contracts/Orders.sol\":6765:6789  uint256 commissionAmount */\n      0x00\n        /* \"contracts/Orders.sol\":6826:6831  10000 */\n      0x2710\n        /* \"contracts/Orders.sol\":6805:6822  commissionPercent */\n      sload(0x00)\n        /* \"contracts/Orders.sol\":6793:6802  msg.value */\n      callvalue\n        /* \"contracts/Orders.sol\":6793:6822  msg.value * commissionPercent */\n      tag_120\n      swap2\n      swap1\n      tag_121\n      jump\t// in\n    tag_120:\n        /* \"contracts/Orders.sol\":6792:6831  (msg.value * commissionPercent) / 10000 */\n      tag_122\n      swap2\n      swap1\n      tag_123\n      jump\t// in\n    tag_122:\n        /* \"contracts/Orders.sol\":6765:6831  uint256 commissionAmount = (msg.value * commissionPercent) / 10000 */\n      swap1\n      pop\n        /* \"contracts/Orders.sol\":6842:6862  uint256 sellerAmount */\n      0x00\n        /* \"contracts/Orders.sol\":6877:6893  commissionAmount */\n      dup2\n        /* \"contracts/Orders.sol\":6865:6874  msg.value */\n      callvalue\n        /* \"contracts/Orders.sol\":6865:6893  msg.value - commissionAmount */\n      tag_124\n      swap2\n      swap1\n      tag_125\n      jump\t// in\n    tag_124:\n        /* \"contracts/Orders.sol\":6842:6893  uint256 sellerAmount = msg.value - commissionAmount */\n      swap1\n      pop\n        /* \"contracts/Orders.sol\":6968:6975  listing */\n      dup3\n        /* \"contracts/Orders.sol\":6968:6982  listing.seller */\n      0x00\n      add\n      mload\n        /* \"contracts/Orders.sol\":6928:6982  nftContract.ownerOf(listing.tokenId) == listing.seller */\n      0xffffffffffffffffffffffffffffffffffffffff\n      and\n        /* \"contracts/Orders.sol\":6928:6939  nftContract */\n      immutable(\"0x188e5a5b71233ee092fd8df209d4e7ce875dc9914c3b80c1ca11c66b0a19f684\")\n        /* \"contracts/Orders.sol\":6928:6947  nftContract.ownerOf */\n      0xffffffffffffffffffffffffffffffffffffffff\n      and\n      0x6352211e\n        /* \"contracts/Orders.sol\":6948:6955  listing */\n      dup6\n        /* \"contracts/Orders.sol\":6948:6963  listing.tokenId */\n      0x20\n      add\n      mload\n        /* \"contracts/Orders.sol\":6928:6964  nftContract.ownerOf(listing.tokenId) */\n      mload(0x40)\n      dup3\n      0xffffffff\n      and\n      0xe0\n      shl\n      dup2\n      mstore\n      0x04\n      add\n      tag_126\n      swap2\n      swap1\n      tag_127\n      jump\t// in\n    tag_126:\n      0x20\n      mload(0x40)\n      dup1\n      dup4\n      sub\n      dup2\n      dup7\n      gas\n      staticcall\n      iszero\n      dup1\n      iszero\n      tag_129\n      jumpi\n      returndatasize\n      0x00\n      dup1\n      returndatacopy\n      revert(0x00, returndatasize)\n    tag_129:\n      pop\n      pop\n      pop\n      pop\n      mload(0x40)\n      returndatasize\n      not(0x1f)\n      0x1f\n      dup3\n      add\n      and\n      dup3\n      add\n      dup1\n      0x40\n      mstore\n      pop\n      dup2\n      add\n      swap1\n      tag_130\n      swap2\n      swap1\n      tag_131\n      jump\t// in\n    tag_130:\n        /* \"contracts/Orders.sol\":6928:6982  nftContract.ownerOf(listing.tokenId) == listing.seller */\n      0xffffffffffffffffffffffffffffffffffffffff\n      and\n      eq\n        /* \"contracts/Orders.sol\":6906:7035  require(... */\n      tag_132\n      jumpi\n      mload(0x40)\n      0x08c379a000000000000000000000000000000000000000000000000000000000\n      dup2\n      mstore\n      0x04\n      add\n      tag_133\n      swap1\n      tag_134\n      jump\t// in\n    tag_133:\n      mload(0x40)\n      dup1\n      swap2\n      sub\n      swap1\n      revert\n    tag_132:\n        /* \"contracts/Orders.sol\":7068:7079  nftContract */\n      immutable(\"0x188e5a5b71233ee092fd8df209d4e7ce875dc9914c3b80c1ca11c66b0a19f684\")\n        /* \"contracts/Orders.sol\":7068:7096  nftContract.isApprovedForAll */\n      0xffffffffffffffffffffffffffffffffffffffff\n      and\n      0xe985e9c5\n        /* \"contracts/Orders.sol\":7097:7104  listing */\n      dup5\n        /* \"contracts/Orders.sol\":7097:7111  listing.seller */\n      0x00\n      add\n      mload\n        /* \"contracts/Orders.sol\":7121:7125  this */\n      address\n        /* \"contracts/Orders.sol\":7068:7127  nftContract.isApprovedForAll(listing.seller, address(this)) */\n      mload(0x40)\n      dup4\n      0xffffffff\n      and\n      0xe0\n      shl\n      dup2\n      mstore\n      0x04\n      add\n      tag_135\n      swap3\n      swap2\n      swap1\n      tag_136\n      jump\t// in\n    tag_135:\n      0x20\n      mload(0x40)\n      dup1\n      dup4\n      sub\n      dup2\n      dup7\n      gas\n      staticcall\n      iszero\n      dup1\n      iszero\n      tag_138\n      jumpi\n      returndatasize\n      0x00\n      dup1\n      returndatacopy\n      revert(0x00, returndatasize)\n    tag_138:\n      pop\n      pop\n      pop\n      pop\n      mload(0x40)\n      returndatasize\n      not(0x1f)\n      0x1f\n      dup3\n      add\n      and\n      dup3\n      add\n      dup1\n      0x40\n      mstore\n      pop\n      dup2\n      add\n      swap1\n      tag_139\n      swap2\n      swap1\n      tag_140\n      jump\t// in\n    tag_139:\n        /* \"contracts/Orders.sol\":7068:7201  nftContract.isApprovedForAll(listing.seller, address(this)) ||... */\n      dup1\n      tag_141\n      jumpi\n      pop\n        /* \"contracts/Orders.sol\":7196:7200  this */\n      address\n        /* \"contracts/Orders.sol\":7144:7201  nftContract.getApproved(listing.tokenId) == address(this) */\n      0xffffffffffffffffffffffffffffffffffffffff\n      and\n        /* \"contracts/Orders.sol\":7144:7155  nftContract */\n      immutable(\"0x188e5a5b71233ee092fd8df209d4e7ce875dc9914c3b80c1ca11c66b0a19f684\")\n        /* \"contracts/Orders.sol\":7144:7167  nftContract.getApproved */\n      0xffffffffffffffffffffffffffffffffffffffff\n      and\n      0x081812fc\n        /* \"contracts/Orders.sol\":7168:7175  listing */\n      dup6\n        /* \"contracts/Orders.sol\":7168:7183  listing.tokenId */\n      0x20\n      add\n      mload\n        /* \"contracts/Orders.sol\":7144:7184  nftContract.getApproved(listing.tokenId) */\n      mload(0x40)\n      dup3\n      0xffffffff\n      and\n      0xe0\n      shl\n      dup2\n      mstore\n      0x04\n      add\n      tag_142\n      swap2\n      swap1\n      tag_127\n      jump\t// in\n    tag_142:\n      0x20\n      mload(0x40)\n      dup1\n      dup4\n      sub\n      dup2\n      dup7\n      gas\n      staticcall\n      iszero\n      dup1\n      iszero\n      tag_144\n      jumpi\n      returndatasize\n      0x00\n      dup1\n      returndatacopy\n      revert(0x00, returndatasize)\n    tag_144:\n      pop\n      pop\n      pop\n      pop\n      mload(0x40)\n      returndatasize\n      not(0x1f)\n      0x1f\n      dup3\n      add\n      and\n      dup3\n      add\n      dup1\n      0x40\n      mstore\n      pop\n      dup2\n      add\n      swap1\n      tag_145\n      swap2\n      swap1\n      tag_131\n      jump\t// in\n    tag_145:\n        /* \"contracts/Orders.sol\":7144:7201  nftContract.getApproved(listing.tokenId) == address(this) */\n      0xffffffffffffffffffffffffffffffffffffffff\n      and\n      eq\n        /* \"contracts/Orders.sol\":7068:7201  nftContract.isApprovedForAll(listing.seller, address(this)) ||... */\n    tag_141:\n        /* \"contracts/Orders.sol\":7046:7241  require(... */\n      tag_146\n      jumpi\n      mload(0x40)\n      0x08c379a000000000000000000000000000000000000000000000000000000000\n      dup2\n      mstore\n      0x04\n      add\n      tag_147\n      swap1\n      tag_148\n      jump\t// in\n    tag_147:\n      mload(0x40)\n      dup1\n      swap2\n      sub\n      swap1\n      revert\n    tag_146:\n        /* \"contracts/Orders.sol\":7273:7278  false */\n      0x00\n        /* \"contracts/Orders.sol\":7254:7261  listing */\n      dup4\n        /* \"contracts/Orders.sol\":7254:7270  listing.isActive */\n      0x60\n      add\n        /* \"contracts/Orders.sol\":7254:7278  listing.isActive = false */\n      swap1\n      iszero\n      iszero\n      swap1\n      dup2\n      iszero\n      iszero\n      dup2\n      mstore\n      pop\n      pop\n        /* \"contracts/Orders.sol\":7296:7312  tokenToListingId */\n      0x02\n        /* \"contracts/Orders.sol\":7296:7329  tokenToListingId[listing.tokenId] */\n      0x00\n        /* \"contracts/Orders.sol\":7313:7320  listing */\n      dup5\n        /* \"contracts/Orders.sol\":7313:7328  listing.tokenId */\n      0x20\n      add\n      mload\n        /* \"contracts/Orders.sol\":7296:7329  tokenToListingId[listing.tokenId] */\n      0xffffffffffffffffffffffffffffffff\n      and\n      dup2\n      mstore\n      0x20\n      add\n      swap1\n      dup2\n      mstore\n      0x20\n      add\n      0x00\n      keccak256\n        /* \"contracts/Orders.sol\":7289:7329  delete tokenToListingId[listing.tokenId] */\n      0x00\n      swap1\n      sstore\n        /* \"contracts/Orders.sol\":7369:7385  commissionAmount */\n      dup2\n        /* \"contracts/Orders.sol\":7340:7358  pendingWithdrawals */\n      0x03\n        /* \"contracts/Orders.sol\":7340:7365  pendingWithdrawals[owner] */\n      0x00\n        /* \"contracts/Orders.sol\":7359:7364  owner */\n      immutable(\"0x67df77adbc271f558df88504cf3a3f87bfdd2d55b11e86c55c4fd978a935a836\")\n        /* \"contracts/Orders.sol\":7340:7365  pendingWithdrawals[owner] */\n      0xffffffffffffffffffffffffffffffffffffffff\n      and\n      0xffffffffffffffffffffffffffffffffffffffff\n      and\n      dup2\n      mstore\n      0x20\n      add\n      swap1\n      dup2\n      mstore\n      0x20\n      add\n      0x00\n      keccak256\n      0x00\n        /* \"contracts/Orders.sol\":7340:7385  pendingWithdrawals[owner] += commissionAmount */\n      dup3\n      dup3\n      sload\n      tag_149\n      swap2\n      swap1\n      tag_150\n      jump\t// in\n    tag_149:\n      swap3\n      pop\n      pop\n      dup2\n      swap1\n      sstore\n      pop\n        /* \"contracts/Orders.sol\":7434:7446  sellerAmount */\n      dup1\n        /* \"contracts/Orders.sol\":7396:7414  pendingWithdrawals */\n      0x03\n        /* \"contracts/Orders.sol\":7396:7430  pendingWithdrawals[listing.seller] */\n      0x00\n        /* \"contracts/Orders.sol\":7415:7422  listing */\n      dup6\n        /* \"contracts/Orders.sol\":7415:7429  listing.seller */\n      0x00\n      add\n      mload\n        /* \"contracts/Orders.sol\":7396:7430  pendingWithdrawals[listing.seller] */\n      0xffffffffffffffffffffffffffffffffffffffff\n      and\n      0xffffffffffffffffffffffffffffffffffffffff\n      and\n      dup2\n      mstore\n      0x20\n      add\n      swap1\n      dup2\n      mstore\n      0x20\n      add\n      0x00\n      keccak256\n      0x00\n        /* \"contracts/Orders.sol\":7396:7446  pendingWithdrawals[listing.seller] += sellerAmount */\n      dup3\n      dup3\n      sload\n      tag_151\n      swap2\n      swap1\n      tag_150\n      jump\t// in\n    tag_151:\n      swap3\n      pop\n      pop\n      dup2\n      swap1\n      sstore\n      pop\n        /* \"contracts/Orders.sol\":7459:7470  nftContract */\n      immutable(\"0x188e5a5b71233ee092fd8df209d4e7ce875dc9914c3b80c1ca11c66b0a19f684\")\n        /* \"contracts/Orders.sol\":7459:7487  nftContract.safeTransferFrom */\n      0xffffffffffffffffffffffffffffffffffffffff\n      and\n      0x42842e0e\n        /* \"contracts/Orders.sol\":7488:7495  listing */\n      dup5\n        /* \"contracts/Orders.sol\":7488:7502  listing.seller */\n      0x00\n      add\n      mload\n        /* \"contracts/Orders.sol\":7504:7514  msg.sender */\n      caller\n        /* \"contracts/Orders.sol\":7516:7523  listing */\n      dup7\n        /* \"contracts/Orders.sol\":7516:7531  listing.tokenId */\n      0x20\n      add\n      mload\n        /* \"contracts/Orders.sol\":7459:7532  nftContract.safeTransferFrom(listing.seller, msg.sender, listing.tokenId) */\n      mload(0x40)\n      dup5\n      0xffffffff\n      and\n      0xe0\n      shl\n      dup2\n      mstore\n      0x04\n      add\n      tag_152\n      swap4\n      swap3\n      swap2\n      swap1\n      tag_153\n      jump\t// in\n    tag_152:\n      0x00\n      mload(0x40)\n      dup1\n      dup4\n      sub\n      dup2\n      0x00\n      dup8\n      dup1\n      extcodesize\n      iszero\n      dup1\n      iszero\n      tag_154\n      jumpi\n      0x00\n      dup1\n      revert\n    tag_154:\n      pop\n      gas\n      call\n      iszero\n      dup1\n      iszero\n      tag_156\n      jumpi\n      returndatasize\n      0x00\n      dup1\n      returndatacopy\n      revert(0x00, returndatasize)\n    tag_156:\n      pop\n      pop\n      pop\n      pop\n        /* \"contracts/Orders.sol\":7607:7617  msg.sender */\n      caller\n        /* \"contracts/Orders.sol\":7550:7716  PurchaseCompleted(... */\n      0xffffffffffffffffffffffffffffffffffffffff\n      and\n        /* \"contracts/Orders.sol\":7582:7592  _listingId */\n      dup5\n        /* \"contracts/Orders.sol\":7550:7716  PurchaseCompleted(... */\n      0xe29b93709a7ac5e91a6057482d1df985483725988417e08dec23377234003c80\n        /* \"contracts/Orders.sol\":7632:7639  listing */\n      dup6\n        /* \"contracts/Orders.sol\":7632:7647  listing.tokenId */\n      0x20\n      add\n      mload\n        /* \"contracts/Orders.sol\":7662:7669  listing */\n      dup7\n        /* \"contracts/Orders.sol\":7662:7675  listing.price */\n      0x40\n      add\n      mload\n        /* \"contracts/Orders.sol\":7690:7705  block.timestamp */\n      timestamp\n        /* \"contracts/Orders.sol\":7550:7716  PurchaseCompleted(... */\n      mload(0x40)\n      tag_157\n      swap4\n      swap3\n      swap2\n      swap1\n      tag_158\n      jump\t// in\n    tag_157:\n      mload(0x40)\n      dup1\n      swap2\n      sub\n      swap1\n      log3\n        /* \"contracts/Orders.sol\":6331:7724  {... */\n      pop\n      pop\n      pop\n        /* \"contracts/Orders.sol\":6270:7724  function purchaseListing(uint256 _listingId) external payable{... */\n      pop\n      jump\t// out\n        /* \"contracts/Orders.sol\":9475:9883  function withdrawFunds() external onlyOwner {... */\n    tag_32:\n        /* \"contracts/Orders.sol\":3918:3923  owner */\n      immutable(\"0x67df77adbc271f558df88504cf3a3f87bfdd2d55b11e86c55c4fd978a935a836\")\n        /* \"contracts/Orders.sol\":3904:3923  msg.sender != owner */\n      0xffffffffffffffffffffffffffffffffffffffff\n      and\n        /* \"contracts/Orders.sol\":3904:3914  msg.sender */\n      caller\n        /* \"contracts/Orders.sol\":3904:3923  msg.sender != owner */\n      0xffffffffffffffffffffffffffffffffffffffff\n      and\n      eq\n        /* \"contracts/Orders.sol\":3900:4021  if (msg.sender != owner) {... */\n      tag_160\n      jumpi\n        /* \"contracts/Orders.sol\":3983:3993  msg.sender */\n      caller\n        /* \"contracts/Orders.sol\":3947:4009  NotOwner({... */\n      mload(0x40)\n      0x245aecd300000000000000000000000000000000000000000000000000000000\n      dup2\n      mstore\n      0x04\n      add\n      tag_161\n      swap2\n      swap1\n      tag_162\n      jump\t// in\n    tag_161:\n      mload(0x40)\n      dup1\n      swap2\n      sub\n      swap1\n      revert\n        /* \"contracts/Orders.sol\":3900:4021  if (msg.sender != owner) {... */\n    tag_160:\n        /* \"contracts/Orders.sol\":9530:9544  uint256 amount */\n      0x00\n        /* \"contracts/Orders.sol\":9547:9565  pendingWithdrawals */\n      0x03\n        /* \"contracts/Orders.sol\":9547:9577  pendingWithdrawals[msg.sender] */\n      0x00\n        /* \"contracts/Orders.sol\":9566:9576  msg.sender */\n      caller\n        /* \"contracts/Orders.sol\":9547:9577  pendingWithdrawals[msg.sender] */\n      0xffffffffffffffffffffffffffffffffffffffff\n      and\n      0xffffffffffffffffffffffffffffffffffffffff\n      and\n      dup2\n      mstore\n      0x20\n      add\n      swap1\n      dup2\n      mstore\n      0x20\n      add\n      0x00\n      keccak256\n      sload\n        /* \"contracts/Orders.sol\":9530:9577  uint256 amount = pendingWithdrawals[msg.sender] */\n      swap1\n      pop\n        /* \"contracts/Orders.sol\":9602:9603  0 */\n      0x00\n        /* \"contracts/Orders.sol\":9592:9598  amount */\n      dup2\n        /* \"contracts/Orders.sol\":9592:9603  amount == 0 */\n      sub\n        /* \"contracts/Orders.sol\":9588:9655  if (amount == 0) {... */\n      tag_164\n      jumpi\n        /* \"contracts/Orders.sol\":9627:9643  NotEnoughFunds() */\n      mload(0x40)\n      0x81b5ad6800000000000000000000000000000000000000000000000000000000\n      dup2\n      mstore\n      0x04\n      add\n      mload(0x40)\n      dup1\n      swap2\n      sub\n      swap1\n      revert\n        /* \"contracts/Orders.sol\":9588:9655  if (amount == 0) {... */\n    tag_164:\n        /* \"contracts/Orders.sol\":9701:9702  0 */\n      0x00\n        /* \"contracts/Orders.sol\":9668:9686  pendingWithdrawals */\n      0x03\n        /* \"contracts/Orders.sol\":9668:9698  pendingWithdrawals[msg.sender] */\n      0x00\n        /* \"contracts/Orders.sol\":9687:9697  msg.sender */\n      caller\n        /* \"contracts/Orders.sol\":9668:9698  pendingWithdrawals[msg.sender] */\n      0xffffffffffffffffffffffffffffffffffffffff\n      and\n      0xffffffffffffffffffffffffffffffffffffffff\n      and\n      dup2\n      mstore\n      0x20\n      add\n      swap1\n      dup2\n      mstore\n      0x20\n      add\n      0x00\n      keccak256\n        /* \"contracts/Orders.sol\":9668:9702  pendingWithdrawals[msg.sender] = 0 */\n      dup2\n      swap1\n      sstore\n      pop\n        /* \"contracts/Orders.sol\":9716:9728  bool success */\n      0x00\n        /* \"contracts/Orders.sol\":9742:9752  msg.sender */\n      caller\n        /* \"contracts/Orders.sol\":9734:9758  payable(msg.sender).call */\n      0xffffffffffffffffffffffffffffffffffffffff\n      and\n        /* \"contracts/Orders.sol\":9766:9772  amount */\n      dup3\n        /* \"contracts/Orders.sol\":9734:9777  payable(msg.sender).call{value: amount}(\"\") */\n      mload(0x40)\n      tag_165\n      swap1\n      tag_166\n      jump\t// in\n    tag_165:\n      0x00\n      mload(0x40)\n      dup1\n      dup4\n      sub\n      dup2\n      dup6\n      dup8\n      gas\n      call\n      swap3\n      pop\n      pop\n      pop\n      returndatasize\n      dup1\n      0x00\n      dup2\n      eq\n      tag_169\n      jumpi\n      mload(0x40)\n      swap2\n      pop\n      and(add(returndatasize, 0x3f), not(0x1f))\n      dup3\n      add\n      0x40\n      mstore\n      returndatasize\n      dup3\n      mstore\n      returndatasize\n      0x00\n      0x20\n      dup5\n      add\n      returndatacopy\n      jump(tag_168)\n    tag_169:\n      0x60\n      swap2\n      pop\n    tag_168:\n      pop\n        /* \"contracts/Orders.sol\":9715:9777  (bool success, ) = payable(msg.sender).call{value: amount}(\"\") */\n      pop\n      swap1\n      pop\n        /* \"contracts/Orders.sol\":9796:9803  success */\n      dup1\n        /* \"contracts/Orders.sol\":9788:9823  require(success, \"Transfer failed\") */\n      tag_170\n      jumpi\n      mload(0x40)\n      0x08c379a000000000000000000000000000000000000000000000000000000000\n      dup2\n      mstore\n      0x04\n      add\n      tag_171\n      swap1\n      tag_172\n      jump\t// in\n    tag_171:\n      mload(0x40)\n      dup1\n      swap2\n      sub\n      swap1\n      revert\n    tag_170:\n        /* \"contracts/Orders.sol\":9864:9874  msg.sender */\n      caller\n        /* \"contracts/Orders.sol\":9841:9875  FundsWithdrawn(amount, msg.sender) */\n      0xffffffffffffffffffffffffffffffffffffffff\n      and\n      0x6141b54b56b8a52a8c6f5cd2a857f6117b18ffbf4d46bd3106f300a839cbf5ea\n        /* \"contracts/Orders.sol\":9856:9862  amount */\n      dup4\n        /* \"contracts/Orders.sol\":9841:9875  FundsWithdrawn(amount, msg.sender) */\n      mload(0x40)\n      tag_173\n      swap2\n      swap1\n      tag_39\n      jump\t// in\n    tag_173:\n      mload(0x40)\n      dup1\n      swap2\n      sub\n      swap1\n      log2\n        /* \"contracts/Orders.sol\":9519:9883  {... */\n      pop\n      pop\n        /* \"contracts/Orders.sol\":9475:9883  function withdrawFunds() external onlyOwner {... */\n      jump\t// out\n        /* \"contracts/Orders.sol\":10140:10306  function tokenOfOwnerByIndex(address _owner, uint256 index) external view returns (uint256) {... */\n    tag_37:\n        /* \"contracts/Orders.sol\":10223:10230  uint256 */\n      0x00\n        /* \"contracts/Orders.sol\":10250:10263  nftEnumerable */\n      immutable(\"0x37d821c64038a6deccb23b3e33cd7d06b5e697ef7f88117a0f085a4c624de237\")\n        /* \"contracts/Orders.sol\":10250:10283  nftEnumerable.tokenOfOwnerByIndex */\n      0xffffffffffffffffffffffffffffffffffffffff\n      and\n      0x2f745c59\n        /* \"contracts/Orders.sol\":10284:10290  _owner */\n      dup5\n        /* \"contracts/Orders.sol\":10292:10297  index */\n      dup5\n        /* \"contracts/Orders.sol\":10250:10298  nftEnumerable.tokenOfOwnerByIndex(_owner, index) */\n      mload(0x40)\n      dup4\n      0xffffffff\n      and\n      0xe0\n      shl\n      dup2\n      mstore\n      0x04\n      add\n      tag_175\n      swap3\n      swap2\n      swap1\n      tag_176\n      jump\t// in\n    tag_175:\n      0x20\n      mload(0x40)\n      dup1\n      dup4\n      sub\n      dup2\n      dup7\n      gas\n      staticcall\n      iszero\n      dup1\n      iszero\n      tag_178\n      jumpi\n      returndatasize\n      0x00\n      dup1\n      returndatacopy\n      revert(0x00, returndatasize)\n    tag_178:\n      pop\n      pop\n      pop\n      pop\n      mload(0x40)\n      returndatasize\n      not(0x1f)\n      0x1f\n      dup3\n      add\n      and\n      dup3\n      add\n      dup1\n      0x40\n      mstore\n      pop\n      dup2\n      add\n      swap1\n      tag_179\n      swap2\n      swap1\n      tag_180\n      jump\t// in\n    tag_179:\n        /* \"contracts/Orders.sol\":10243:10298  return nftEnumerable.tokenOfOwnerByIndex(_owner, index) */\n      swap1\n      pop\n        /* \"contracts/Orders.sol\":10140:10306  function tokenOfOwnerByIndex(address _owner, uint256 index) external view returns (uint256) {... */\n      swap3\n      swap2\n      pop\n      pop\n      jump\t// out\n        /* \"contracts/Orders.sol\":7848:8334  function cancelListing(uint256 _listingId) external {... */\n    tag_43:\n        /* \"contracts/Orders.sol\":7911:7934  Listing storage listing */\n      0x00\n        /* \"contracts/Orders.sol\":7937:7945  listings */\n      0x01\n        /* \"contracts/Orders.sol\":7937:7957  listings[_listingId] */\n      0x00\n        /* \"contracts/Orders.sol\":7946:7956  _listingId */\n      dup4\n        /* \"contracts/Orders.sol\":7937:7957  listings[_listingId] */\n      dup2\n      mstore\n      0x20\n      add\n      swap1\n      dup2\n      mstore\n      0x20\n      add\n      0x00\n      keccak256\n        /* \"contracts/Orders.sol\":7911:7957  Listing storage listing = listings[_listingId] */\n      swap1\n      pop\n        /* \"contracts/Orders.sol\":7972:7979  listing */\n      dup1\n        /* \"contracts/Orders.sol\":7972:7988  listing.isActive */\n      0x02\n      add\n      0x00\n      swap1\n      sload\n      swap1\n      0x0100\n      exp\n      swap1\n      div\n      0xff\n      and\n        /* \"contracts/Orders.sol\":7968:8035  if(!listing.isActive) {... */\n      tag_182\n      jumpi\n        /* \"contracts/Orders.sol\":8012:8023  NotActive() */\n      mload(0x40)\n      0x80cb55e200000000000000000000000000000000000000000000000000000000\n      dup2\n      mstore\n      0x04\n      add\n      mload(0x40)\n      dup1\n      swap2\n      sub\n      swap1\n      revert\n        /* \"contracts/Orders.sol\":7968:8035  if(!listing.isActive) {... */\n    tag_182:\n        /* \"contracts/Orders.sol\":8067:8077  msg.sender */\n      caller\n        /* \"contracts/Orders.sol\":8049:8077  listing.seller != msg.sender */\n      0xffffffffffffffffffffffffffffffffffffffff\n      and\n        /* \"contracts/Orders.sol\":8049:8056  listing */\n      dup2\n        /* \"contracts/Orders.sol\":8049:8063  listing.seller */\n      0x00\n      add\n      0x00\n      swap1\n      sload\n      swap1\n      0x0100\n      exp\n      swap1\n      div\n      0xffffffffffffffffffffffffffffffffffffffff\n      and\n        /* \"contracts/Orders.sol\":8049:8077  listing.seller != msg.sender */\n      0xffffffffffffffffffffffffffffffffffffffff\n      and\n      eq\n        /* \"contracts/Orders.sol\":8045:8181  if (listing.seller != msg.sender) {... */\n      tag_183\n      jumpi\n        /* \"contracts/Orders.sol\":8139:8146  listing */\n      dup1\n        /* \"contracts/Orders.sol\":8139:8153  listing.seller */\n      0x00\n      add\n      0x00\n      swap1\n      sload\n      swap1\n      0x0100\n      exp\n      swap1\n      div\n      0xffffffffffffffffffffffffffffffffffffffff\n      and\n        /* \"contracts/Orders.sol\":8101:8169  NotSeller({... */\n      mload(0x40)\n      0xe38d022a00000000000000000000000000000000000000000000000000000000\n      dup2\n      mstore\n      0x04\n      add\n      tag_184\n      swap2\n      swap1\n      tag_162\n      jump\t// in\n    tag_184:\n      mload(0x40)\n      dup1\n      swap2\n      sub\n      swap1\n      revert\n        /* \"contracts/Orders.sol\":8045:8181  if (listing.seller != msg.sender) {... */\n    tag_183:\n        /* \"contracts/Orders.sol\":8212:8217  false */\n      0x00\n        /* \"contracts/Orders.sol\":8193:8200  listing */\n      dup2\n        /* \"contracts/Orders.sol\":8193:8209  listing.isActive */\n      0x02\n      add\n      0x00\n        /* \"contracts/Orders.sol\":8193:8217  listing.isActive = false */\n      0x0100\n      exp\n      dup2\n      sload\n      dup2\n      0xff\n      mul\n      not\n      and\n      swap1\n      dup4\n      iszero\n      iszero\n      mul\n      or\n      swap1\n      sstore\n      pop\n        /* \"contracts/Orders.sol\":8235:8251  tokenToListingId */\n      0x02\n        /* \"contracts/Orders.sol\":8235:8268  tokenToListingId[listing.tokenId] */\n      0x00\n        /* \"contracts/Orders.sol\":8252:8259  listing */\n      dup3\n        /* \"contracts/Orders.sol\":8252:8267  listing.tokenId */\n      0x01\n      add\n      0x00\n      swap1\n      sload\n      swap1\n      0x0100\n      exp\n      swap1\n      div\n      0xffffffffffffffffffffffffffffffff\n      and\n        /* \"contracts/Orders.sol\":8235:8268  tokenToListingId[listing.tokenId] */\n      0xffffffffffffffffffffffffffffffff\n      and\n      dup2\n      mstore\n      0x20\n      add\n      swap1\n      dup2\n      mstore\n      0x20\n      add\n      0x00\n      keccak256\n        /* \"contracts/Orders.sol\":8228:8268  delete tokenToListingId[listing.tokenId] */\n      0x00\n      swap1\n      sstore\n        /* \"contracts/Orders.sol\":8315:8325  msg.sender */\n      caller\n        /* \"contracts/Orders.sol\":8286:8326  ListingCancelled(_listingId, msg.sender) */\n      0xffffffffffffffffffffffffffffffffffffffff\n      and\n        /* \"contracts/Orders.sol\":8303:8313  _listingId */\n      dup3\n        /* \"contracts/Orders.sol\":8286:8326  ListingCancelled(_listingId, msg.sender) */\n      0x8e25282255ab31897df2b0456bb993ac7f84d376861aefd84901d2d63a7428a2\n      mload(0x40)\n      mload(0x40)\n      dup1\n      swap2\n      sub\n      swap1\n      log3\n        /* \"contracts/Orders.sol\":7900:8334  {... */\n      pop\n        /* \"contracts/Orders.sol\":7848:8334  function cancelListing(uint256 _listingId) external {... */\n      pop\n      jump\t// out\n        /* \"contracts/Orders.sol\":9170:9408  function setCommissionPercent(uint256 _newPercent) external onlyOwner {... */\n    tag_47:\n        /* \"contracts/Orders.sol\":3918:3923  owner */\n      immutable(\"0x67df77adbc271f558df88504cf3a3f87bfdd2d55b11e86c55c4fd978a935a836\")\n        /* \"contracts/Orders.sol\":3904:3923  msg.sender != owner */\n      0xffffffffffffffffffffffffffffffffffffffff\n      and\n        /* \"contracts/Orders.sol\":3904:3914  msg.sender */\n      caller\n        /* \"contracts/Orders.sol\":3904:3923  msg.sender != owner */\n      0xffffffffffffffffffffffffffffffffffffffff\n      and\n      eq\n        /* \"contracts/Orders.sol\":3900:4021  if (msg.sender != owner) {... */\n      tag_186\n      jumpi\n        /* \"contracts/Orders.sol\":3983:3993  msg.sender */\n      caller\n        /* \"contracts/Orders.sol\":3947:4009  NotOwner({... */\n      mload(0x40)\n      0x245aecd300000000000000000000000000000000000000000000000000000000\n      dup2\n      mstore\n      0x04\n      add\n      tag_187\n      swap2\n      swap1\n      tag_162\n      jump\t// in\n    tag_187:\n      mload(0x40)\n      dup1\n      swap2\n      sub\n      swap1\n      revert\n        /* \"contracts/Orders.sol\":3900:4021  if (msg.sender != owner) {... */\n    tag_186:\n        /* \"contracts/Orders.sol\":2082:2086  5000 */\n      0x1388\n        /* \"contracts/Orders.sol\":9259:9270  _newPercent */\n      dup2\n        /* \"contracts/Orders.sol\":9259:9288  _newPercent <= MAX_COMMISSION */\n      gt\n      iszero\n        /* \"contracts/Orders.sol\":9251:9312  require(_newPercent <= MAX_COMMISSION, \"Commission too high\") */\n      tag_189\n      jumpi\n      mload(0x40)\n      0x08c379a000000000000000000000000000000000000000000000000000000000\n      dup2\n      mstore\n      0x04\n      add\n      tag_190\n      swap1\n      tag_191\n      jump\t// in\n    tag_190:\n      mload(0x40)\n      dup1\n      swap2\n      sub\n      swap1\n      revert\n    tag_189:\n        /* \"contracts/Orders.sol\":9343:9354  _newPercent */\n      dup1\n        /* \"contracts/Orders.sol\":9323:9340  commissionPercent */\n      0x00\n        /* \"contracts/Orders.sol\":9323:9354  commissionPercent = _newPercent */\n      dup2\n      swap1\n      sstore\n      pop\n        /* \"contracts/Orders.sol\":9370:9400  CommissionUpdated(_newPercent) */\n      0x13f60dd2b588490608c3ff1932a3daeb4087f3d5af04b97e5c2a16b5b4c0302e\n        /* \"contracts/Orders.sol\":9388:9399  _newPercent */\n      dup2\n        /* \"contracts/Orders.sol\":9370:9400  CommissionUpdated(_newPercent) */\n      mload(0x40)\n      tag_192\n      swap2\n      swap1\n      tag_39\n      jump\t// in\n    tag_192:\n      mload(0x40)\n      dup1\n      swap2\n      sub\n      swap1\n      log1\n        /* \"contracts/Orders.sol\":9170:9408  function setCommissionPercent(uint256 _newPercent) external onlyOwner {... */\n      pop\n      jump\t// out\n        /* \"contracts/Orders.sol\":2605:2653  IERC721Enumerable public immutable nftEnumerable */\n    tag_50:\n      immutable(\"0x37d821c64038a6deccb23b3e33cd7d06b5e697ef7f88117a0f085a4c624de237\")\n      dup2\n      jump\t// out\n        /* \"contracts/Orders.sol\":1938:1970  uint256 public commissionPercent */\n    tag_55:\n      sload(0x00)\n      dup2\n      jump\t// out\n        /* \"contracts/Orders.sol\":1796:1834  address payable public immutable owner */\n    tag_59:\n      immutable(\"0x67df77adbc271f558df88504cf3a3f87bfdd2d55b11e86c55c4fd978a935a836\")\n      dup2\n      jump\t// out\n        /* \"contracts/Orders.sol\":4931:6130  function createListing(uint128 _tokenId, uint128 _price) external {... */\n    tag_66:\n        /* \"contracts/Orders.sol\":5025:5026  0 */\n      0x00\n        /* \"contracts/Orders.sol\":5016:5022  _price */\n      dup2\n        /* \"contracts/Orders.sol\":5016:5026  _price > 0 */\n      0xffffffffffffffffffffffffffffffff\n      and\n      gt\n        /* \"contracts/Orders.sol\":5008:5048  require(_price > 0, \"Price must be > 0\") */\n      tag_194\n      jumpi\n      mload(0x40)\n      0x08c379a000000000000000000000000000000000000000000000000000000000\n      dup2\n      mstore\n      0x04\n      add\n      tag_195\n      swap1\n      tag_196\n      jump\t// in\n    tag_195:\n      mload(0x40)\n      dup1\n      swap2\n      sub\n      swap1\n      revert\n    tag_194:\n        /* \"contracts/Orders.sol\":5069:5087  address tokenOwner */\n      0x00\n        /* \"contracts/Orders.sol\":5090:5101  nftContract */\n      immutable(\"0x188e5a5b71233ee092fd8df209d4e7ce875dc9914c3b80c1ca11c66b0a19f684\")\n        /* \"contracts/Orders.sol\":5090:5109  nftContract.ownerOf */\n      0xffffffffffffffffffffffffffffffffffffffff\n      and\n      0x6352211e\n        /* \"contracts/Orders.sol\":5110:5118  _tokenId */\n      dup5\n        /* \"contracts/Orders.sol\":5090:5119  nftContract.ownerOf(_tokenId) */\n      mload(0x40)\n      dup3\n      0xffffffff\n      and\n      0xe0\n      shl\n      dup2\n      mstore\n      0x04\n      add\n      tag_197\n      swap2\n      swap1\n      tag_127\n      jump\t// in\n    tag_197:\n      0x20\n      mload(0x40)\n      dup1\n      dup4\n      sub\n      dup2\n      dup7\n      gas\n      staticcall\n      iszero\n      dup1\n      iszero\n      tag_199\n      jumpi\n      returndatasize\n      0x00\n      dup1\n      returndatacopy\n      revert(0x00, returndatasize)\n    tag_199:\n      pop\n      pop\n      pop\n      pop\n      mload(0x40)\n      returndatasize\n      not(0x1f)\n      0x1f\n      dup3\n      add\n      and\n      dup3\n      add\n      dup1\n      0x40\n      mstore\n      pop\n      dup2\n      add\n      swap1\n      tag_200\n      swap2\n      swap1\n      tag_131\n      jump\t// in\n    tag_200:\n        /* \"contracts/Orders.sol\":5069:5119  address tokenOwner = nftContract.ownerOf(_tokenId) */\n      swap1\n      pop\n        /* \"contracts/Orders.sol\":5148:5158  msg.sender */\n      caller\n        /* \"contracts/Orders.sol\":5134:5158  tokenOwner != msg.sender */\n      0xffffffffffffffffffffffffffffffffffffffff\n      and\n        /* \"contracts/Orders.sol\":5134:5144  tokenOwner */\n      dup2\n        /* \"contracts/Orders.sol\":5134:5158  tokenOwner != msg.sender */\n      0xffffffffffffffffffffffffffffffffffffffff\n      and\n      eq\n        /* \"contracts/Orders.sol\":5130:5266  if (tokenOwner != msg.sender) {... */\n      tag_201\n      jumpi\n        /* \"contracts/Orders.sol\":5228:5238  tokenOwner */\n      dup1\n        /* \"contracts/Orders.sol\":5182:5254  NotTokenOwner({... */\n      mload(0x40)\n      0x928730cc00000000000000000000000000000000000000000000000000000000\n      dup2\n      mstore\n      0x04\n      add\n      tag_202\n      swap2\n      swap1\n      tag_162\n      jump\t// in\n    tag_202:\n      mload(0x40)\n      dup1\n      swap2\n      sub\n      swap1\n      revert\n        /* \"contracts/Orders.sol\":5130:5266  if (tokenOwner != msg.sender) {... */\n    tag_201:\n        /* \"contracts/Orders.sol\":5305:5316  nftContract */\n      immutable(\"0x188e5a5b71233ee092fd8df209d4e7ce875dc9914c3b80c1ca11c66b0a19f684\")\n        /* \"contracts/Orders.sol\":5305:5333  nftContract.isApprovedForAll */\n      0xffffffffffffffffffffffffffffffffffffffff\n      and\n      0xe985e9c5\n        /* \"contracts/Orders.sol\":5334:5344  msg.sender */\n      caller\n        /* \"contracts/Orders.sol\":5354:5358  this */\n      address\n        /* \"contracts/Orders.sol\":5305:5360  nftContract.isApprovedForAll(msg.sender, address(this)) */\n      mload(0x40)\n      dup4\n      0xffffffff\n      and\n      0xe0\n      shl\n      dup2\n      mstore\n      0x04\n      add\n      tag_203\n      swap3\n      swap2\n      swap1\n      tag_136\n      jump\t// in\n    tag_203:\n      0x20\n      mload(0x40)\n      dup1\n      dup4\n      sub\n      dup2\n      dup7\n      gas\n      staticcall\n      iszero\n      dup1\n      iszero\n      tag_205\n      jumpi\n      returndatasize\n      0x00\n      dup1\n      returndatacopy\n      revert(0x00, returndatasize)\n    tag_205:\n      pop\n      pop\n      pop\n      pop\n      mload(0x40)\n      returndatasize\n      not(0x1f)\n      0x1f\n      dup3\n      add\n      and\n      dup3\n      add\n      dup1\n      0x40\n      mstore\n      pop\n      dup2\n      add\n      swap1\n      tag_206\n      swap2\n      swap1\n      tag_140\n      jump\t// in\n    tag_206:\n        /* \"contracts/Orders.sol\":5304:5360  !nftContract.isApprovedForAll(msg.sender, address(this)) */\n      iszero\n        /* \"contracts/Orders.sol\":5304:5427  !nftContract.isApprovedForAll(msg.sender, address(this)) &&... */\n      dup1\n      iszero\n      tag_207\n      jumpi\n      pop\n        /* \"contracts/Orders.sol\":5422:5426  this */\n      address\n        /* \"contracts/Orders.sol\":5377:5427  nftContract.getApproved(_tokenId) != address(this) */\n      0xffffffffffffffffffffffffffffffffffffffff\n      and\n        /* \"contracts/Orders.sol\":5377:5388  nftContract */\n      immutable(\"0x188e5a5b71233ee092fd8df209d4e7ce875dc9914c3b80c1ca11c66b0a19f684\")\n        /* \"contracts/Orders.sol\":5377:5400  nftContract.getApproved */\n      0xffffffffffffffffffffffffffffffffffffffff\n      and\n      0x081812fc\n        /* \"contracts/Orders.sol\":5401:5409  _tokenId */\n      dup6\n        /* \"contracts/Orders.sol\":5377:5410  nftContract.getApproved(_tokenId) */\n      mload(0x40)\n      dup3\n      0xffffffff\n      and\n      0xe0\n      shl\n      dup2\n      mstore\n      0x04\n      add\n      tag_208\n      swap2\n      swap1\n      tag_127\n      jump\t// in\n    tag_208:\n      0x20\n      mload(0x40)\n      dup1\n      dup4\n      sub\n      dup2\n      dup7\n      gas\n      staticcall\n      iszero\n      dup1\n      iszero\n      tag_210\n      jumpi\n      returndatasize\n      0x00\n      dup1\n      returndatacopy\n      revert(0x00, returndatasize)\n    tag_210:\n      pop\n      pop\n      pop\n      pop\n      mload(0x40)\n      returndatasize\n      not(0x1f)\n      0x1f\n      dup3\n      add\n      and\n      dup3\n      add\n      dup1\n      0x40\n      mstore\n      pop\n      dup2\n      add\n      swap1\n      tag_211\n      swap2\n      swap1\n      tag_131\n      jump\t// in\n    tag_211:\n        /* \"contracts/Orders.sol\":5377:5427  nftContract.getApproved(_tokenId) != address(this) */\n      0xffffffffffffffffffffffffffffffffffffffff\n      and\n      eq\n      iszero\n        /* \"contracts/Orders.sol\":5304:5427  !nftContract.isApprovedForAll(msg.sender, address(this)) &&... */\n    tag_207:\n        /* \"contracts/Orders.sol\":5286:5486  if (... */\n      iszero\n      tag_212\n      jumpi\n        /* \"contracts/Orders.sol\":5461:5474  NotApproved() */\n      mload(0x40)\n      0xc19f17a900000000000000000000000000000000000000000000000000000000\n      dup2\n      mstore\n      0x04\n      add\n      mload(0x40)\n      dup1\n      swap2\n      sub\n      swap1\n      revert\n        /* \"contracts/Orders.sol\":5286:5486  if (... */\n    tag_212:\n        /* \"contracts/Orders.sol\":5532:5533  0 */\n      0x00\n        /* \"contracts/Orders.sol\":5502:5518  tokenToListingId */\n      0x02\n        /* \"contracts/Orders.sol\":5502:5528  tokenToListingId[_tokenId] */\n      0x00\n        /* \"contracts/Orders.sol\":5519:5527  _tokenId */\n      dup6\n        /* \"contracts/Orders.sol\":5502:5528  tokenToListingId[_tokenId] */\n      0xffffffffffffffffffffffffffffffff\n      and\n      dup2\n      mstore\n      0x20\n      add\n      swap1\n      dup2\n      mstore\n      0x20\n      add\n      0x00\n      keccak256\n      sload\n        /* \"contracts/Orders.sol\":5502:5533  tokenToListingId[_tokenId] != 0 */\n      eq\n        /* \"contracts/Orders.sol\":5498:5584  if (tokenToListingId[_tokenId] != 0) {... */\n      tag_213\n      jumpi\n        /* \"contracts/Orders.sol\":5557:5572  AlreadyListed() */\n      mload(0x40)\n      0xa3d582ec00000000000000000000000000000000000000000000000000000000\n      dup2\n      mstore\n      0x04\n      add\n      mload(0x40)\n      dup1\n      swap2\n      sub\n      swap1\n      revert\n        /* \"contracts/Orders.sol\":5498:5584  if (tokenToListingId[_tokenId] != 0) {... */\n    tag_213:\n        /* \"contracts/Orders.sol\":5596:5613  uint256 listingId */\n      0x00\n        /* \"contracts/Orders.sol\":5665:5673  _tokenId */\n      dup4\n        /* \"contracts/Orders.sol\":5688:5698  msg.sender */\n      caller\n        /* \"contracts/Orders.sol\":5713:5728  block.timestamp */\n      timestamp\n        /* \"contracts/Orders.sol\":5634:5739  abi.encodePacked(... */\n      add(0x20, mload(0x40))\n      tag_214\n      swap4\n      swap3\n      swap2\n      swap1\n      tag_215\n      jump\t// in\n    tag_214:\n      mload(0x40)\n      0x20\n      dup2\n      dup4\n      sub\n      sub\n      dup2\n      mstore\n      swap1\n      0x40\n      mstore\n        /* \"contracts/Orders.sol\":5624:5740  keccak256(abi.encodePacked(... */\n      dup1\n      mload\n      swap1\n      0x20\n      add\n      keccak256\n        /* \"contracts/Orders.sol\":5616:5741  uint256(keccak256(abi.encodePacked(... */\n      0x00\n      shr\n        /* \"contracts/Orders.sol\":5596:5741  uint256 listingId = uint256(keccak256(abi.encodePacked(... */\n      swap1\n      pop\n        /* \"contracts/Orders.sol\":5776:5918  Listing({... */\n      mload(0x40)\n      dup1\n      0x80\n      add\n      0x40\n      mstore\n      dup1\n        /* \"contracts/Orders.sol\":5807:5817  msg.sender */\n      caller\n        /* \"contracts/Orders.sol\":5776:5918  Listing({... */\n      0xffffffffffffffffffffffffffffffffffffffff\n      and\n      dup2\n      mstore\n      0x20\n      add\n        /* \"contracts/Orders.sol\":5841:5849  _tokenId */\n      dup6\n        /* \"contracts/Orders.sol\":5776:5918  Listing({... */\n      0xffffffffffffffffffffffffffffffff\n      and\n      dup2\n      mstore\n      0x20\n      add\n        /* \"contracts/Orders.sol\":5871:5877  _price */\n      dup5\n        /* \"contracts/Orders.sol\":5776:5918  Listing({... */\n      0xffffffffffffffffffffffffffffffff\n      and\n      dup2\n      mstore\n      0x20\n      add\n        /* \"contracts/Orders.sol\":5902:5906  true */\n      0x01\n        /* \"contracts/Orders.sol\":5776:5918  Listing({... */\n      iszero\n      iszero\n      dup2\n      mstore\n      pop\n        /* \"contracts/Orders.sol\":5754:5762  listings */\n      0x01\n        /* \"contracts/Orders.sol\":5754:5773  listings[listingId] */\n      0x00\n        /* \"contracts/Orders.sol\":5763:5772  listingId */\n      dup4\n        /* \"contracts/Orders.sol\":5754:5773  listings[listingId] */\n      dup2\n      mstore\n      0x20\n      add\n      swap1\n      dup2\n      mstore\n      0x20\n      add\n      0x00\n      keccak256\n        /* \"contracts/Orders.sol\":5754:5918  listings[listingId] = Listing({... */\n      0x00\n      dup3\n      add\n      mload\n      dup2\n      0x00\n      add\n      exp(0x0100, 0x00)\n      dup2\n      sload\n      dup2\n      0xffffffffffffffffffffffffffffffffffffffff\n      mul\n      not\n      and\n      swap1\n      dup4\n      0xffffffffffffffffffffffffffffffffffffffff\n      and\n      mul\n      or\n      swap1\n      sstore\n      pop\n      0x20\n      dup3\n      add\n      mload\n      dup2\n      0x01\n      add\n      exp(0x0100, 0x00)\n      dup2\n      sload\n      dup2\n      0xffffffffffffffffffffffffffffffff\n      mul\n      not\n      and\n      swap1\n      dup4\n      0xffffffffffffffffffffffffffffffff\n      and\n      mul\n      or\n      swap1\n      sstore\n      pop\n      0x40\n      dup3\n      add\n      mload\n      dup2\n      0x01\n      add\n      exp(0x0100, 0x10)\n      dup2\n      sload\n      dup2\n      0xffffffffffffffffffffffffffffffff\n      mul\n      not\n      and\n      swap1\n      dup4\n      0xffffffffffffffffffffffffffffffff\n      and\n      mul\n      or\n      swap1\n      sstore\n      pop\n      0x60\n      dup3\n      add\n      mload\n      dup2\n      0x02\n      add\n      exp(0x0100, 0x00)\n      dup2\n      sload\n      dup2\n      0xff\n      mul\n      not\n      and\n      swap1\n      dup4\n      iszero\n      iszero\n      mul\n      or\n      swap1\n      sstore\n      pop\n      swap1\n      pop\n      pop\n        /* \"contracts/Orders.sol\":5960:5969  listingId */\n      dup1\n        /* \"contracts/Orders.sol\":5931:5947  tokenToListingId */\n      0x02\n        /* \"contracts/Orders.sol\":5931:5957  tokenToListingId[_tokenId] */\n      0x00\n        /* \"contracts/Orders.sol\":5948:5956  _tokenId */\n      dup7\n        /* \"contracts/Orders.sol\":5931:5957  tokenToListingId[_tokenId] */\n      0xffffffffffffffffffffffffffffffff\n      and\n      dup2\n      mstore\n      0x20\n      add\n      swap1\n      dup2\n      mstore\n      0x20\n      add\n      0x00\n      keccak256\n        /* \"contracts/Orders.sol\":5931:5969  tokenToListingId[_tokenId] = listingId */\n      dup2\n      swap1\n      sstore\n      pop\n        /* \"contracts/Orders.sol\":5980:5994  sellerListings */\n      0x04\n        /* \"contracts/Orders.sol\":5980:6006  sellerListings[msg.sender] */\n      0x00\n        /* \"contracts/Orders.sol\":5995:6005  msg.sender */\n      caller\n        /* \"contracts/Orders.sol\":5980:6006  sellerListings[msg.sender] */\n      0xffffffffffffffffffffffffffffffffffffffff\n      and\n      0xffffffffffffffffffffffffffffffffffffffff\n      and\n      dup2\n      mstore\n      0x20\n      add\n      swap1\n      dup2\n      mstore\n      0x20\n      add\n      0x00\n      keccak256\n        /* \"contracts/Orders.sol\":6012:6020  listings */\n      0x01\n        /* \"contracts/Orders.sol\":6012:6031  listings[listingId] */\n      0x00\n        /* \"contracts/Orders.sol\":6021:6030  listingId */\n      dup4\n        /* \"contracts/Orders.sol\":6012:6031  listings[listingId] */\n      dup2\n      mstore\n      0x20\n      add\n      swap1\n      dup2\n      mstore\n      0x20\n      add\n      0x00\n      keccak256\n        /* \"contracts/Orders.sol\":5980:6032  sellerListings[msg.sender].push(listings[listingId]) */\n      swap1\n      dup1\n      0x01\n      dup2\n      sload\n      add\n      dup1\n      dup3\n      sstore\n      dup1\n      swap2\n      pop\n      pop\n      0x01\n      swap1\n      sub\n      swap1\n      0x00\n      mstore\n      keccak256(0x00, 0x20)\n      swap1\n      0x03\n      mul\n      add\n      0x00\n      swap1\n      swap2\n      swap1\n      swap2\n      swap1\n      swap2\n      pop\n      0x00\n      dup3\n      add\n      0x00\n      swap1\n      sload\n      swap1\n      0x0100\n      exp\n      swap1\n      div\n      0xffffffffffffffffffffffffffffffffffffffff\n      and\n      dup2\n      0x00\n      add\n      exp(0x0100, 0x00)\n      dup2\n      sload\n      dup2\n      0xffffffffffffffffffffffffffffffffffffffff\n      mul\n      not\n      and\n      swap1\n      dup4\n      0xffffffffffffffffffffffffffffffffffffffff\n      and\n      mul\n      or\n      swap1\n      sstore\n      pop\n      0x01\n      dup3\n      add\n      0x00\n      swap1\n      sload\n      swap1\n      0x0100\n      exp\n      swap1\n      div\n      0xffffffffffffffffffffffffffffffff\n      and\n      dup2\n      0x01\n      add\n      exp(0x0100, 0x00)\n      dup2\n      sload\n      dup2\n      0xffffffffffffffffffffffffffffffff\n      mul\n      not\n      and\n      swap1\n      dup4\n      0xffffffffffffffffffffffffffffffff\n      and\n      mul\n      or\n      swap1\n      sstore\n      pop\n      0x01\n      dup3\n      add\n      0x10\n      swap1\n      sload\n      swap1\n      0x0100\n      exp\n      swap1\n      div\n      0xffffffffffffffffffffffffffffffff\n      and\n      dup2\n      0x01\n      add\n      exp(0x0100, 0x10)\n      dup2\n      sload\n      dup2\n      0xffffffffffffffffffffffffffffffff\n      mul\n      not\n      and\n      swap1\n      dup4\n      0xffffffffffffffffffffffffffffffff\n      and\n      mul\n      or\n      swap1\n      sstore\n      pop\n      0x02\n      dup3\n      add\n      0x00\n      swap1\n      sload\n      swap1\n      0x0100\n      exp\n      swap1\n      div\n      0xff\n      and\n      dup2\n      0x02\n      add\n      exp(0x0100, 0x00)\n      dup2\n      sload\n      dup2\n      0xff\n      mul\n      not\n      and\n      swap1\n      dup4\n      iszero\n      iszero\n      mul\n      or\n      swap1\n      sstore\n      pop\n      pop\n      pop\n        /* \"contracts/Orders.sol\":6076:6086  msg.sender */\n      caller\n        /* \"contracts/Orders.sol\":6050:6122  ListingCreated(listingId, msg.sender, _tokenId, _price, block.timestamp) */\n      0xffffffffffffffffffffffffffffffffffffffff\n      and\n        /* \"contracts/Orders.sol\":6065:6074  listingId */\n      dup2\n        /* \"contracts/Orders.sol\":6050:6122  ListingCreated(listingId, msg.sender, _tokenId, _price, block.timestamp) */\n      0xa3941cfa07eecf2734875ab71cea0e47395be644da6e17b039a7e29efba74ef9\n        /* \"contracts/Orders.sol\":6088:6096  _tokenId */\n      dup7\n        /* \"contracts/Orders.sol\":6098:6104  _price */\n      dup7\n        /* \"contracts/Orders.sol\":6106:6121  block.timestamp */\n      timestamp\n        /* \"contracts/Orders.sol\":6050:6122  ListingCreated(listingId, msg.sender, _tokenId, _price, block.timestamp) */\n      mload(0x40)\n      tag_217\n      swap4\n      swap3\n      swap2\n      swap1\n      tag_158\n      jump\t// in\n    tag_217:\n      mload(0x40)\n      dup1\n      swap2\n      sub\n      swap1\n      log3\n        /* \"contracts/Orders.sol\":4997:6130  {... */\n      pop\n      pop\n        /* \"contracts/Orders.sol\":4931:6130  function createListing(uint128 _tokenId, uint128 _price) external {... */\n      pop\n      pop\n      jump\t// out\n        /* \"contracts/Orders.sol\":10484:10665  function isTokenListed(uint256 _tokenId) external view returns (bool) {... */\n    tag_70:\n        /* \"contracts/Orders.sol\":10548:10552  bool */\n      0x00\n        /* \"contracts/Orders.sol\":10565:10582  uint256 listingId */\n      dup1\n        /* \"contracts/Orders.sol\":10585:10601  tokenToListingId */\n      0x02\n        /* \"contracts/Orders.sol\":10585:10611  tokenToListingId[_tokenId] */\n      0x00\n        /* \"contracts/Orders.sol\":10602:10610  _tokenId */\n      dup5\n        /* \"contracts/Orders.sol\":10585:10611  tokenToListingId[_tokenId] */\n      dup2\n      mstore\n      0x20\n      add\n      swap1\n      dup2\n      mstore\n      0x20\n      add\n      0x00\n      keccak256\n      sload\n        /* \"contracts/Orders.sol\":10565:10611  uint256 listingId = tokenToListingId[_tokenId] */\n      swap1\n      pop\n        /* \"contracts/Orders.sol\":10629:10637  listings */\n      0x01\n        /* \"contracts/Orders.sol\":10629:10648  listings[listingId] */\n      0x00\n        /* \"contracts/Orders.sol\":10638:10647  listingId */\n      dup3\n        /* \"contracts/Orders.sol\":10629:10648  listings[listingId] */\n      dup2\n      mstore\n      0x20\n      add\n      swap1\n      dup2\n      mstore\n      0x20\n      add\n      0x00\n      keccak256\n        /* \"contracts/Orders.sol\":10629:10657  listings[listingId].isActive */\n      0x02\n      add\n      0x00\n      swap1\n      sload\n      swap1\n      0x0100\n      exp\n      swap1\n      div\n      0xff\n      and\n        /* \"contracts/Orders.sol\":10622:10657  return listings[listingId].isActive */\n      swap2\n      pop\n      pop\n        /* \"contracts/Orders.sol\":10484:10665  function isTokenListed(uint256 _tokenId) external view returns (bool) {... */\n      swap2\n      swap1\n      pop\n      jump\t// out\n        /* \"contracts/Orders.sol\":2041:2086  uint256 public constant MAX_COMMISSION = 5000 */\n    tag_75:\n        /* \"contracts/Orders.sol\":2082:2086  5000 */\n      0x1388\n        /* \"contracts/Orders.sol\":2041:2086  uint256 public constant MAX_COMMISSION = 5000 */\n      dup2\n      jump\t// out\n        /* \"contracts/Orders.sol\":10868:10992  function getListingId(uint256 _tokenId) external view returns (uint256) {... */\n    tag_80:\n        /* \"contracts/Orders.sol\":10931:10938  uint256 */\n      0x00\n        /* \"contracts/Orders.sol\":10958:10974  tokenToListingId */\n      0x02\n        /* \"contracts/Orders.sol\":10958:10984  tokenToListingId[_tokenId] */\n      0x00\n        /* \"contracts/Orders.sol\":10975:10983  _tokenId */\n      dup4\n        /* \"contracts/Orders.sol\":10958:10984  tokenToListingId[_tokenId] */\n      dup2\n      mstore\n      0x20\n      add\n      swap1\n      dup2\n      mstore\n      0x20\n      add\n      0x00\n      keccak256\n      sload\n        /* \"contracts/Orders.sol\":10951:10984  return tokenToListingId[_tokenId] */\n      swap1\n      pop\n        /* \"contracts/Orders.sol\":10868:10992  function getListingId(uint256 _tokenId) external view returns (uint256) {... */\n      swap2\n      swap1\n      pop\n      jump\t// out\n        /* \"contracts/Orders.sol\":2496:2532  IERC721 public immutable nftContract */\n    tag_84:\n      immutable(\"0x188e5a5b71233ee092fd8df209d4e7ce875dc9914c3b80c1ca11c66b0a19f684\")\n      dup2\n      jump\t// out\n        /* \"contracts/Orders.sol\":11166:11302  function getListingsBySeller(address _seller) external view returns (Listing[] memory) {... */\n    tag_91:\n        /* \"contracts/Orders.sol\":11235:11251  Listing[] memory */\n      0x60\n        /* \"contracts/Orders.sol\":11271:11285  sellerListings */\n      0x04\n        /* \"contracts/Orders.sol\":11271:11294  sellerListings[_seller] */\n      0x00\n        /* \"contracts/Orders.sol\":11286:11293  _seller */\n      dup4\n        /* \"contracts/Orders.sol\":11271:11294  sellerListings[_seller] */\n      0xffffffffffffffffffffffffffffffffffffffff\n      and\n      0xffffffffffffffffffffffffffffffffffffffff\n      and\n      dup2\n      mstore\n      0x20\n      add\n      swap1\n      dup2\n      mstore\n      0x20\n      add\n      0x00\n      keccak256\n        /* \"contracts/Orders.sol\":11264:11294  return sellerListings[_seller] */\n      dup1\n      sload\n      dup1\n      0x20\n      mul\n      0x20\n      add\n      mload(0x40)\n      swap1\n      dup2\n      add\n      0x40\n      mstore\n      dup1\n      swap3\n      swap2\n      swap1\n      dup2\n      dup2\n      mstore\n      0x20\n      add\n      0x00\n      swap1\n    tag_221:\n      dup3\n      dup3\n      lt\n      iszero\n      tag_222\n      jumpi\n      dup4\n      dup3\n      swap1\n      0x00\n      mstore\n      keccak256(0x00, 0x20)\n      swap1\n      0x03\n      mul\n      add\n      mload(0x40)\n      dup1\n      0x80\n      add\n      0x40\n      mstore\n      swap1\n      dup2\n      0x00\n      dup3\n      add\n      0x00\n      swap1\n      sload\n      swap1\n      0x0100\n      exp\n      swap1\n      div\n      0xffffffffffffffffffffffffffffffffffffffff\n      and\n      0xffffffffffffffffffffffffffffffffffffffff\n      and\n      0xffffffffffffffffffffffffffffffffffffffff\n      and\n      dup2\n      mstore\n      0x20\n      add\n      0x01\n      dup3\n      add\n      0x00\n      swap1\n      sload\n      swap1\n      0x0100\n      exp\n      swap1\n      div\n      0xffffffffffffffffffffffffffffffff\n      and\n      0xffffffffffffffffffffffffffffffff\n      and\n      0xffffffffffffffffffffffffffffffff\n      and\n      dup2\n      mstore\n      0x20\n      add\n      0x01\n      dup3\n      add\n      0x10\n      swap1\n      sload\n      swap1\n      0x0100\n      exp\n      swap1\n      div\n      0xffffffffffffffffffffffffffffffff\n      and\n      0xffffffffffffffffffffffffffffffff\n      and\n      0xffffffffffffffffffffffffffffffff\n      and\n      dup2\n      mstore\n      0x20\n      add\n      0x02\n      dup3\n      add\n      0x00\n      swap1\n      sload\n      swap1\n      0x0100\n      exp\n      swap1\n      div\n      0xff\n      and\n      iszero\n      iszero\n      iszero\n      iszero\n      dup2\n      mstore\n      pop\n      pop\n      dup2\n      mstore\n      0x20\n      add\n      swap1\n      0x01\n      add\n      swap1\n      jump(tag_221)\n    tag_222:\n      pop\n      pop\n      pop\n      pop\n      swap1\n      pop\n        /* \"contracts/Orders.sol\":11166:11302  function getListingsBySeller(address _seller) external view returns (Listing[] memory) {... */\n      swap2\n      swap1\n      pop\n      jump\t// out\n        /* \"contracts/Orders.sol\":2149:2192  mapping(uint256 => Listing) public listings */\n    tag_97:\n      mstore(0x20, 0x01)\n      dup1\n      0x00\n      mstore\n      keccak256(0x00, 0x40)\n      0x00\n      swap2\n      pop\n      swap1\n      pop\n      dup1\n      0x00\n      add\n      0x00\n      swap1\n      sload\n      swap1\n      0x0100\n      exp\n      swap1\n      div\n      0xffffffffffffffffffffffffffffffffffffffff\n      and\n      swap1\n      dup1\n      0x01\n      add\n      0x00\n      swap1\n      sload\n      swap1\n      0x0100\n      exp\n      swap1\n      div\n      0xffffffffffffffffffffffffffffffff\n      and\n      swap1\n      dup1\n      0x01\n      add\n      0x10\n      swap1\n      sload\n      swap1\n      0x0100\n      exp\n      swap1\n      div\n      0xffffffffffffffffffffffffffffffff\n      and\n      swap1\n      dup1\n      0x02\n      add\n      0x00\n      swap1\n      sload\n      swap1\n      0x0100\n      exp\n      swap1\n      div\n      0xff\n      and\n      swap1\n      pop\n      dup5\n      jump\t// out\n        /* \"contracts/Orders.sol\":11385:11813  function deleteListing(uint256 _tokenId) external {... */\n    tag_103:\n        /* \"contracts/Orders.sol\":11464:11475  nftContract */\n      immutable(\"0x188e5a5b71233ee092fd8df209d4e7ce875dc9914c3b80c1ca11c66b0a19f684\")\n        /* \"contracts/Orders.sol\":11464:11483  nftContract.ownerOf */\n      0xffffffffffffffffffffffffffffffffffffffff\n      and\n      0x6352211e\n        /* \"contracts/Orders.sol\":11484:11492  _tokenId */\n      dup3\n        /* \"contracts/Orders.sol\":11464:11493  nftContract.ownerOf(_tokenId) */\n      mload(0x40)\n      dup3\n      0xffffffff\n      and\n      0xe0\n      shl\n      dup2\n      mstore\n      0x04\n      add\n      tag_225\n      swap2\n      swap1\n      tag_39\n      jump\t// in\n    tag_225:\n      0x20\n      mload(0x40)\n      dup1\n      dup4\n      sub\n      dup2\n      dup7\n      gas\n      staticcall\n      iszero\n      dup1\n      iszero\n      tag_227\n      jumpi\n      returndatasize\n      0x00\n      dup1\n      returndatacopy\n      revert(0x00, returndatasize)\n    tag_227:\n      pop\n      pop\n      pop\n      pop\n      mload(0x40)\n      returndatasize\n      not(0x1f)\n      0x1f\n      dup3\n      add\n      and\n      dup3\n      add\n      dup1\n      0x40\n      mstore\n      pop\n      dup2\n      add\n      swap1\n      tag_228\n      swap2\n      swap1\n      tag_131\n      jump\t// in\n    tag_228:\n        /* \"contracts/Orders.sol\":11450:11493  msg.sender != nftContract.ownerOf(_tokenId) */\n      0xffffffffffffffffffffffffffffffffffffffff\n      and\n        /* \"contracts/Orders.sol\":11450:11460  msg.sender */\n      caller\n        /* \"contracts/Orders.sol\":11450:11493  msg.sender != nftContract.ownerOf(_tokenId) */\n      0xffffffffffffffffffffffffffffffffffffffff\n      and\n      eq\n        /* \"contracts/Orders.sol\":11446:11601  if (msg.sender != nftContract.ownerOf(_tokenId)) {... */\n      tag_229\n      jumpi\n        /* \"contracts/Orders.sol\":11563:11573  msg.sender */\n      caller\n        /* \"contracts/Orders.sol\":11517:11589  NotTokenOwner({... */\n      mload(0x40)\n      0x928730cc00000000000000000000000000000000000000000000000000000000\n      dup2\n      mstore\n      0x04\n      add\n      tag_230\n      swap2\n      swap1\n      tag_162\n      jump\t// in\n    tag_230:\n      mload(0x40)\n      dup1\n      swap2\n      sub\n      swap1\n      revert\n        /* \"contracts/Orders.sol\":11446:11601  if (msg.sender != nftContract.ownerOf(_tokenId)) {... */\n    tag_229:\n        /* \"contracts/Orders.sol\":11618:11626  listings */\n      0x01\n        /* \"contracts/Orders.sol\":11618:11636  listings[_tokenId] */\n      0x00\n        /* \"contracts/Orders.sol\":11627:11635  _tokenId */\n      dup3\n        /* \"contracts/Orders.sol\":11618:11636  listings[_tokenId] */\n      dup2\n      mstore\n      0x20\n      add\n      swap1\n      dup2\n      mstore\n      0x20\n      add\n      0x00\n      keccak256\n        /* \"contracts/Orders.sol\":11618:11645  listings[_tokenId].isActive */\n      0x02\n      add\n      0x00\n      swap1\n      sload\n      swap1\n      0x0100\n      exp\n      swap1\n      div\n      0xff\n      and\n        /* \"contracts/Orders.sol\":11613:11692  if (!listings[_tokenId].isActive) {... */\n      tag_231\n      jumpi\n        /* \"contracts/Orders.sol\":11669:11680  NotActive() */\n      mload(0x40)\n      0x80cb55e200000000000000000000000000000000000000000000000000000000\n      dup2\n      mstore\n      0x04\n      add\n      mload(0x40)\n      dup1\n      swap2\n      sub\n      swap1\n      revert\n        /* \"contracts/Orders.sol\":11613:11692  if (!listings[_tokenId].isActive) {... */\n    tag_231:\n        /* \"contracts/Orders.sol\":11734:11739  false */\n      0x00\n        /* \"contracts/Orders.sol\":11704:11712  listings */\n      0x01\n        /* \"contracts/Orders.sol\":11704:11722  listings[_tokenId] */\n      0x00\n        /* \"contracts/Orders.sol\":11713:11721  _tokenId */\n      dup4\n        /* \"contracts/Orders.sol\":11704:11722  listings[_tokenId] */\n      dup2\n      mstore\n      0x20\n      add\n      swap1\n      dup2\n      mstore\n      0x20\n      add\n      0x00\n      keccak256\n        /* \"contracts/Orders.sol\":11704:11731  listings[_tokenId].isActive */\n      0x02\n      add\n      0x00\n        /* \"contracts/Orders.sol\":11704:11739  listings[_tokenId].isActive = false */\n      0x0100\n      exp\n      dup2\n      sload\n      dup2\n      0xff\n      mul\n      not\n      and\n      swap1\n      dup4\n      iszero\n      iszero\n      mul\n      or\n      swap1\n      sstore\n      pop\n        /* \"contracts/Orders.sol\":11777:11787  msg.sender */\n      caller\n        /* \"contracts/Orders.sol\":11757:11805  NFTDelete(_tokenId, msg.sender, block.timestamp) */\n      0xffffffffffffffffffffffffffffffffffffffff\n      and\n        /* \"contracts/Orders.sol\":11767:11775  _tokenId */\n      dup2\n        /* \"contracts/Orders.sol\":11757:11805  NFTDelete(_tokenId, msg.sender, block.timestamp) */\n      0x25331cbadf10d7fde7ba3cb8e4a9ceb748c5c0a5f37f23da51ce1a4142fc8c00\n        /* \"contracts/Orders.sol\":11789:11804  block.timestamp */\n      timestamp\n        /* \"contracts/Orders.sol\":11757:11805  NFTDelete(_tokenId, msg.sender, block.timestamp) */\n      mload(0x40)\n      tag_232\n      swap2\n      swap1\n      tag_39\n      jump\t// in\n    tag_232:\n      mload(0x40)\n      dup1\n      swap2\n      sub\n      swap1\n      log3\n        /* \"contracts/Orders.sol\":11385:11813  function deleteListing(uint256 _tokenId) external {... */\n      pop\n      jump\t// out\n        /* \"contracts/Orders.sol\":2376:2429  mapping(address => uint256) public pendingWithdrawals */\n    tag_107:\n      mstore(0x20, 0x03)\n      dup1\n      0x00\n      mstore\n      keccak256(0x00, 0x40)\n      0x00\n      swap2\n      pop\n      swap1\n      pop\n      sload\n      dup2\n      jump\t// out\n        /* \"contracts/Orders.sol\":8524:9011  function withdraw(address payable _to, uint256 _amount) external {... */\n    tag_113:\n        /* \"contracts/Orders.sol\":8618:8619  0 */\n      0x00\n        /* \"contracts/Orders.sol\":8608:8615  _amount */\n      dup2\n        /* \"contracts/Orders.sol\":8608:8619  _amount > 0 */\n      gt\n        /* \"contracts/Orders.sol\":8600:8642  require(_amount > 0, \"Amount must be > 0\") */\n      tag_234\n      jumpi\n      mload(0x40)\n      0x08c379a000000000000000000000000000000000000000000000000000000000\n      dup2\n      mstore\n      0x04\n      add\n      tag_235\n      swap1\n      tag_236\n      jump\t// in\n    tag_235:\n      mload(0x40)\n      dup1\n      swap2\n      sub\n      swap1\n      revert\n    tag_234:\n        /* \"contracts/Orders.sol\":8667:8685  pendingWithdrawals */\n      0x03\n        /* \"contracts/Orders.sol\":8667:8697  pendingWithdrawals[msg.sender] */\n      0x00\n        /* \"contracts/Orders.sol\":8686:8696  msg.sender */\n      caller\n        /* \"contracts/Orders.sol\":8667:8697  pendingWithdrawals[msg.sender] */\n      0xffffffffffffffffffffffffffffffffffffffff\n      and\n      0xffffffffffffffffffffffffffffffffffffffff\n      and\n      dup2\n      mstore\n      0x20\n      add\n      swap1\n      dup2\n      mstore\n      0x20\n      add\n      0x00\n      keccak256\n      sload\n        /* \"contracts/Orders.sol\":8657:8664  _amount */\n      dup2\n        /* \"contracts/Orders.sol\":8657:8697  _amount > pendingWithdrawals[msg.sender] */\n      gt\n        /* \"contracts/Orders.sol\":8653:8872  if (_amount > pendingWithdrawals[msg.sender]) {... */\n      iszero\n      tag_237\n      jumpi\n        /* \"contracts/Orders.sol\":8767:8774  _amount */\n      dup1\n        /* \"contracts/Orders.sol\":8814:8832  pendingWithdrawals */\n      0x03\n        /* \"contracts/Orders.sol\":8814:8844  pendingWithdrawals[msg.sender] */\n      0x00\n        /* \"contracts/Orders.sol\":8833:8843  msg.sender */\n      caller\n        /* \"contracts/Orders.sol\":8814:8844  pendingWithdrawals[msg.sender] */\n      0xffffffffffffffffffffffffffffffffffffffff\n      and\n      0xffffffffffffffffffffffffffffffffffffffff\n      and\n      dup2\n      mstore\n      0x20\n      add\n      swap1\n      dup2\n      mstore\n      0x20\n      add\n      0x00\n      keccak256\n      sload\n        /* \"contracts/Orders.sol\":8721:8860  InsufficientFunds({... */\n      mload(0x40)\n      0x03eb8b5400000000000000000000000000000000000000000000000000000000\n      dup2\n      mstore\n      0x04\n      add\n      tag_238\n      swap3\n      swap2\n      swap1\n      tag_239\n      jump\t// in\n    tag_238:\n      mload(0x40)\n      dup1\n      swap2\n      sub\n      swap1\n      revert\n        /* \"contracts/Orders.sol\":8653:8872  if (_amount > pendingWithdrawals[msg.sender]) {... */\n    tag_237:\n        /* \"contracts/Orders.sol\":8884:8887  _to */\n      dup2\n        /* \"contracts/Orders.sol\":8884:8896  _to.transfer */\n      0xffffffffffffffffffffffffffffffffffffffff\n      and\n        /* \"contracts/Orders.sol\":8884:8905  _to.transfer(_amount) */\n      0x08fc\n        /* \"contracts/Orders.sol\":8897:8904  _amount */\n      dup3\n        /* \"contracts/Orders.sol\":8884:8905  _to.transfer(_amount) */\n      swap1\n      dup2\n      iszero\n      mul\n      swap1\n      mload(0x40)\n      0x00\n      mload(0x40)\n      dup1\n      dup4\n      sub\n      dup2\n      dup6\n      dup9\n      dup9\n      call\n      swap4\n      pop\n      pop\n      pop\n      pop\n      iszero\n      dup1\n      iszero\n      tag_241\n      jumpi\n      returndatasize\n      0x00\n      dup1\n      returndatacopy\n      revert(0x00, returndatasize)\n    tag_241:\n      pop\n        /* \"contracts/Orders.sol\":8950:8957  _amount */\n      dup1\n        /* \"contracts/Orders.sol\":8916:8934  pendingWithdrawals */\n      0x03\n        /* \"contracts/Orders.sol\":8916:8946  pendingWithdrawals[msg.sender] */\n      0x00\n        /* \"contracts/Orders.sol\":8935:8945  msg.sender */\n      caller\n        /* \"contracts/Orders.sol\":8916:8946  pendingWithdrawals[msg.sender] */\n      0xffffffffffffffffffffffffffffffffffffffff\n      and\n      0xffffffffffffffffffffffffffffffffffffffff\n      and\n      dup2\n      mstore\n      0x20\n      add\n      swap1\n      dup2\n      mstore\n      0x20\n      add\n      0x00\n      keccak256\n      0x00\n        /* \"contracts/Orders.sol\":8916:8957  pendingWithdrawals[msg.sender] -= _amount */\n      dup3\n      dup3\n      sload\n      tag_242\n      swap2\n      swap1\n      tag_125\n      jump\t// in\n    tag_242:\n      swap3\n      pop\n      pop\n      dup2\n      swap1\n      sstore\n      pop\n        /* \"contracts/Orders.sol\":8999:9002  _to */\n      dup2\n        /* \"contracts/Orders.sol\":8975:9003  FundsWithdrawn(_amount, _to) */\n      0xffffffffffffffffffffffffffffffffffffffff\n      and\n      0x6141b54b56b8a52a8c6f5cd2a857f6117b18ffbf4d46bd3106f300a839cbf5ea\n        /* \"contracts/Orders.sol\":8990:8997  _amount */\n      dup3\n        /* \"contracts/Orders.sol\":8975:9003  FundsWithdrawn(_amount, _to) */\n      mload(0x40)\n      tag_243\n      swap2\n      swap1\n      tag_39\n      jump\t// in\n    tag_243:\n      mload(0x40)\n      dup1\n      swap2\n      sub\n      swap1\n      log2\n        /* \"contracts/Orders.sol\":8524:9011  function withdraw(address payable _to, uint256 _amount) external {... */\n      pop\n      pop\n      jump\t// out\n        /* \"#utility.yul\":88:205   */\n    tag_245:\n        /* \"#utility.yul\":197:198   */\n      0x00\n        /* \"#utility.yul\":194:195   */\n      dup1\n        /* \"#utility.yul\":187:199   */\n      revert\n        /* \"#utility.yul\":334:411   */\n    tag_247:\n        /* \"#utility.yul\":371:378   */\n      0x00\n        /* \"#utility.yul\":400:405   */\n      dup2\n        /* \"#utility.yul\":389:405   */\n      swap1\n      pop\n        /* \"#utility.yul\":334:411   */\n      swap2\n      swap1\n      pop\n      jump\t// out\n        /* \"#utility.yul\":417:539   */\n    tag_248:\n        /* \"#utility.yul\":490:514   */\n      tag_322\n        /* \"#utility.yul\":508:513   */\n      dup2\n        /* \"#utility.yul\":490:514   */\n      tag_247\n      jump\t// in\n    tag_322:\n        /* \"#utility.yul\":483:488   */\n      dup2\n        /* \"#utility.yul\":480:515   */\n      eq\n        /* \"#utility.yul\":470:533   */\n      tag_323\n      jumpi\n        /* \"#utility.yul\":529:530   */\n      0x00\n        /* \"#utility.yul\":526:527   */\n      dup1\n        /* \"#utility.yul\":519:531   */\n      revert\n        /* \"#utility.yul\":470:533   */\n    tag_323:\n        /* \"#utility.yul\":417:539   */\n      pop\n      jump\t// out\n        /* \"#utility.yul\":545:684   */\n    tag_249:\n        /* \"#utility.yul\":591:596   */\n      0x00\n        /* \"#utility.yul\":629:635   */\n      dup2\n        /* \"#utility.yul\":616:636   */\n      calldataload\n        /* \"#utility.yul\":607:636   */\n      swap1\n      pop\n        /* \"#utility.yul\":645:678   */\n      tag_325\n        /* \"#utility.yul\":672:677   */\n      dup2\n        /* \"#utility.yul\":645:678   */\n      tag_248\n      jump\t// in\n    tag_325:\n        /* \"#utility.yul\":545:684   */\n      swap3\n      swap2\n      pop\n      pop\n      jump\t// out\n        /* \"#utility.yul\":690:1019   */\n    tag_28:\n        /* \"#utility.yul\":749:755   */\n      0x00\n        /* \"#utility.yul\":798:800   */\n      0x20\n        /* \"#utility.yul\":786:795   */\n      dup3\n        /* \"#utility.yul\":777:784   */\n      dup5\n        /* \"#utility.yul\":773:796   */\n      sub\n        /* \"#utility.yul\":769:801   */\n      slt\n        /* \"#utility.yul\":766:885   */\n      iszero\n      tag_327\n      jumpi\n        /* \"#utility.yul\":804:883   */\n      tag_328\n      tag_245\n      jump\t// in\n    tag_328:\n        /* \"#utility.yul\":766:885   */\n    tag_327:\n        /* \"#utility.yul\":924:925   */\n      0x00\n        /* \"#utility.yul\":949:1002   */\n      tag_329\n        /* \"#utility.yul\":994:1001   */\n      dup5\n        /* \"#utility.yul\":985:991   */\n      dup3\n        /* \"#utility.yul\":974:983   */\n      dup6\n        /* \"#utility.yul\":970:992   */\n      add\n        /* \"#utility.yul\":949:1002   */\n      tag_249\n      jump\t// in\n    tag_329:\n        /* \"#utility.yul\":939:1002   */\n      swap2\n      pop\n        /* \"#utility.yul\":895:1012   */\n      pop\n        /* \"#utility.yul\":690:1019   */\n      swap3\n      swap2\n      pop\n      pop\n      jump\t// out\n        /* \"#utility.yul\":1025:1151   */\n    tag_250:\n        /* \"#utility.yul\":1062:1069   */\n      0x00\n        /* \"#utility.yul\":1102:1144   */\n      0xffffffffffffffffffffffffffffffffffffffff\n        /* \"#utility.yul\":1095:1100   */\n      dup3\n        /* \"#utility.yul\":1091:1145   */\n      and\n        /* \"#utility.yul\":1080:1145   */\n      swap1\n      pop\n        /* \"#utility.yul\":1025:1151   */\n      swap2\n      swap1\n      pop\n      jump\t// out\n        /* \"#utility.yul\":1157:1253   */\n    tag_251:\n        /* \"#utility.yul\":1194:1201   */\n      0x00\n        /* \"#utility.yul\":1223:1247   */\n      tag_332\n        /* \"#utility.yul\":1241:1246   */\n      dup3\n        /* \"#utility.yul\":1223:1247   */\n      tag_250\n      jump\t// in\n    tag_332:\n        /* \"#utility.yul\":1212:1247   */\n      swap1\n      pop\n        /* \"#utility.yul\":1157:1253   */\n      swap2\n      swap1\n      pop\n      jump\t// out\n        /* \"#utility.yul\":1259:1381   */\n    tag_252:\n        /* \"#utility.yul\":1332:1356   */\n      tag_334\n        /* \"#utility.yul\":1350:1355   */\n      dup2\n        /* \"#utility.yul\":1332:1356   */\n      tag_251\n      jump\t// in\n    tag_334:\n        /* \"#utility.yul\":1325:1330   */\n      dup2\n        /* \"#utility.yul\":1322:1357   */\n      eq\n        /* \"#utility.yul\":1312:1375   */\n      tag_335\n      jumpi\n        /* \"#utility.yul\":1371:1372   */\n      0x00\n        /* \"#utility.yul\":1368:1369   */\n      dup1\n        /* \"#utility.yul\":1361:1373   */\n      revert\n        /* \"#utility.yul\":1312:1375   */\n    tag_335:\n        /* \"#utility.yul\":1259:1381   */\n      pop\n      jump\t// out\n        /* \"#utility.yul\":1387:1526   */\n    tag_253:\n        /* \"#utility.yul\":1433:1438   */\n      0x00\n        /* \"#utility.yul\":1471:1477   */\n      dup2\n        /* \"#utility.yul\":1458:1478   */\n      calldataload\n        /* \"#utility.yul\":1449:1478   */\n      swap1\n      pop\n        /* \"#utility.yul\":1487:1520   */\n      tag_337\n        /* \"#utility.yul\":1514:1519   */\n      dup2\n        /* \"#utility.yul\":1487:1520   */\n      tag_252\n      jump\t// in\n    tag_337:\n        /* \"#utility.yul\":1387:1526   */\n      swap3\n      swap2\n      pop\n      pop\n      jump\t// out\n        /* \"#utility.yul\":1532:2006   */\n    tag_36:\n        /* \"#utility.yul\":1600:1606   */\n      0x00\n        /* \"#utility.yul\":1608:1614   */\n      dup1\n        /* \"#utility.yul\":1657:1659   */\n      0x40\n        /* \"#utility.yul\":1645:1654   */\n      dup4\n        /* \"#utility.yul\":1636:1643   */\n      dup6\n        /* \"#utility.yul\":1632:1655   */\n      sub\n        /* \"#utility.yul\":1628:1660   */\n      slt\n        /* \"#utility.yul\":1625:1744   */\n      iszero\n      tag_339\n      jumpi\n        /* \"#utility.yul\":1663:1742   */\n      tag_340\n      tag_245\n      jump\t// in\n    tag_340:\n        /* \"#utility.yul\":1625:1744   */\n    tag_339:\n        /* \"#utility.yul\":1783:1784   */\n      0x00\n        /* \"#utility.yul\":1808:1861   */\n      tag_341\n        /* \"#utility.yul\":1853:1860   */\n      dup6\n        /* \"#utility.yul\":1844:1850   */\n      dup3\n        /* \"#utility.yul\":1833:1842   */\n      dup7\n        /* \"#utility.yul\":1829:1851   */\n      add\n        /* \"#utility.yul\":1808:1861   */\n      tag_253\n      jump\t// in\n    tag_341:\n        /* \"#utility.yul\":1798:1861   */\n      swap3\n      pop\n        /* \"#utility.yul\":1754:1871   */\n      pop\n        /* \"#utility.yul\":1910:1912   */\n      0x20\n        /* \"#utility.yul\":1936:1989   */\n      tag_342\n        /* \"#utility.yul\":1981:1988   */\n      dup6\n        /* \"#utility.yul\":1972:1978   */\n      dup3\n        /* \"#utility.yul\":1961:1970   */\n      dup7\n        /* \"#utility.yul\":1957:1979   */\n      add\n        /* \"#utility.yul\":1936:1989   */\n      tag_249\n      jump\t// in\n    tag_342:\n        /* \"#utility.yul\":1926:1989   */\n      swap2\n      pop\n        /* \"#utility.yul\":1881:1999   */\n      pop\n        /* \"#utility.yul\":1532:2006   */\n      swap3\n      pop\n      swap3\n      swap1\n      pop\n      jump\t// out\n        /* \"#utility.yul\":2012:2130   */\n    tag_254:\n        /* \"#utility.yul\":2099:2123   */\n      tag_344\n        /* \"#utility.yul\":2117:2122   */\n      dup2\n        /* \"#utility.yul\":2099:2123   */\n      tag_247\n      jump\t// in\n    tag_344:\n        /* \"#utility.yul\":2094:2097   */\n      dup3\n        /* \"#utility.yul\":2087:2124   */\n      mstore\n        /* \"#utility.yul\":2012:2130   */\n      pop\n      pop\n      jump\t// out\n        /* \"#utility.yul\":2136:2358   */\n    tag_39:\n        /* \"#utility.yul\":2229:2233   */\n      0x00\n        /* \"#utility.yul\":2267:2269   */\n      0x20\n        /* \"#utility.yul\":2256:2265   */\n      dup3\n        /* \"#utility.yul\":2252:2270   */\n      add\n        /* \"#utility.yul\":2244:2270   */\n      swap1\n      pop\n        /* \"#utility.yul\":2280:2351   */\n      tag_346\n        /* \"#utility.yul\":2348:2349   */\n      0x00\n        /* \"#utility.yul\":2337:2346   */\n      dup4\n        /* \"#utility.yul\":2333:2350   */\n      add\n        /* \"#utility.yul\":2324:2330   */\n      dup5\n        /* \"#utility.yul\":2280:2351   */\n      tag_254\n      jump\t// in\n    tag_346:\n        /* \"#utility.yul\":2136:2358   */\n      swap3\n      swap2\n      pop\n      pop\n      jump\t// out\n        /* \"#utility.yul\":2364:2424   */\n    tag_255:\n        /* \"#utility.yul\":2392:2395   */\n      0x00\n        /* \"#utility.yul\":2413:2418   */\n      dup2\n        /* \"#utility.yul\":2406:2418   */\n      swap1\n      pop\n        /* \"#utility.yul\":2364:2424   */\n      swap2\n      swap1\n      pop\n      jump\t// out\n        /* \"#utility.yul\":2430:2572   */\n    tag_256:\n        /* \"#utility.yul\":2480:2489   */\n      0x00\n        /* \"#utility.yul\":2513:2566   */\n      tag_349\n        /* \"#utility.yul\":2531:2565   */\n      tag_350\n        /* \"#utility.yul\":2540:2564   */\n      tag_351\n        /* \"#utility.yul\":2558:2563   */\n      dup5\n        /* \"#utility.yul\":2540:2564   */\n      tag_250\n      jump\t// in\n    tag_351:\n        /* \"#utility.yul\":2531:2565   */\n      tag_255\n      jump\t// in\n    tag_350:\n        /* \"#utility.yul\":2513:2566   */\n      tag_250\n      jump\t// in\n    tag_349:\n        /* \"#utility.yul\":2500:2566   */\n      swap1\n      pop\n        /* \"#utility.yul\":2430:2572   */\n      swap2\n      swap1\n      pop\n      jump\t// out\n        /* \"#utility.yul\":2578:2704   */\n    tag_257:\n        /* \"#utility.yul\":2628:2637   */\n      0x00\n        /* \"#utility.yul\":2661:2698   */\n      tag_353\n        /* \"#utility.yul\":2692:2697   */\n      dup3\n        /* \"#utility.yul\":2661:2698   */\n      tag_256\n      jump\t// in\n    tag_353:\n        /* \"#utility.yul\":2648:2698   */\n      swap1\n      pop\n        /* \"#utility.yul\":2578:2704   */\n      swap2\n      swap1\n      pop\n      jump\t// out\n        /* \"#utility.yul\":2710:2861   */\n    tag_258:\n        /* \"#utility.yul\":2785:2794   */\n      0x00\n        /* \"#utility.yul\":2818:2855   */\n      tag_355\n        /* \"#utility.yul\":2849:2854   */\n      dup3\n        /* \"#utility.yul\":2818:2855   */\n      tag_257\n      jump\t// in\n    tag_355:\n        /* \"#utility.yul\":2805:2855   */\n      swap1\n      pop\n        /* \"#utility.yul\":2710:2861   */\n      swap2\n      swap1\n      pop\n      jump\t// out\n        /* \"#utility.yul\":2867:3048   */\n    tag_259:\n        /* \"#utility.yul\":2979:3041   */\n      tag_357\n        /* \"#utility.yul\":3035:3040   */\n      dup2\n        /* \"#utility.yul\":2979:3041   */\n      tag_258\n      jump\t// in\n    tag_357:\n        /* \"#utility.yul\":2974:2977   */\n      dup3\n        /* \"#utility.yul\":2967:3042   */\n      mstore\n        /* \"#utility.yul\":2867:3048   */\n      pop\n      pop\n      jump\t// out\n        /* \"#utility.yul\":3054:3326   */\n    tag_52:\n        /* \"#utility.yul\":3172:3176   */\n      0x00\n        /* \"#utility.yul\":3210:3212   */\n      0x20\n        /* \"#utility.yul\":3199:3208   */\n      dup3\n        /* \"#utility.yul\":3195:3213   */\n      add\n        /* \"#utility.yul\":3187:3213   */\n      swap1\n      pop\n        /* \"#utility.yul\":3223:3319   */\n      tag_359\n        /* \"#utility.yul\":3316:3317   */\n      0x00\n        /* \"#utility.yul\":3305:3314   */\n      dup4\n        /* \"#utility.yul\":3301:3318   */\n      add\n        /* \"#utility.yul\":3292:3298   */\n      dup5\n        /* \"#utility.yul\":3223:3319   */\n      tag_259\n      jump\t// in\n    tag_359:\n        /* \"#utility.yul\":3054:3326   */\n      swap3\n      swap2\n      pop\n      pop\n      jump\t// out\n        /* \"#utility.yul\":3332:3436   */\n    tag_260:\n        /* \"#utility.yul\":3377:3384   */\n      0x00\n        /* \"#utility.yul\":3406:3430   */\n      tag_361\n        /* \"#utility.yul\":3424:3429   */\n      dup3\n        /* \"#utility.yul\":3406:3430   */\n      tag_250\n      jump\t// in\n    tag_361:\n        /* \"#utility.yul\":3395:3430   */\n      swap1\n      pop\n        /* \"#utility.yul\":3332:3436   */\n      swap2\n      swap1\n      pop\n      jump\t// out\n        /* \"#utility.yul\":3442:3584   */\n    tag_261:\n        /* \"#utility.yul\":3545:3577   */\n      tag_363\n        /* \"#utility.yul\":3571:3576   */\n      dup2\n        /* \"#utility.yul\":3545:3577   */\n      tag_260\n      jump\t// in\n    tag_363:\n        /* \"#utility.yul\":3540:3543   */\n      dup3\n        /* \"#utility.yul\":3533:3578   */\n      mstore\n        /* \"#utility.yul\":3442:3584   */\n      pop\n      pop\n      jump\t// out\n        /* \"#utility.yul\":3590:3844   */\n    tag_61:\n        /* \"#utility.yul\":3699:3703   */\n      0x00\n        /* \"#utility.yul\":3737:3739   */\n      0x20\n        /* \"#utility.yul\":3726:3735   */\n      dup3\n        /* \"#utility.yul\":3722:3740   */\n      add\n        /* \"#utility.yul\":3714:3740   */\n      swap1\n      pop\n        /* \"#utility.yul\":3750:3837   */\n      tag_365\n        /* \"#utility.yul\":3834:3835   */\n      0x00\n        /* \"#utility.yul\":3823:3832   */\n      dup4\n        /* \"#utility.yul\":3819:3836   */\n      add\n        /* \"#utility.yul\":3810:3816   */\n      dup5\n        /* \"#utility.yul\":3750:3837   */\n      tag_261\n      jump\t// in\n    tag_365:\n        /* \"#utility.yul\":3590:3844   */\n      swap3\n      swap2\n      pop\n      pop\n      jump\t// out\n        /* \"#utility.yul\":3850:3968   */\n    tag_262:\n        /* \"#utility.yul\":3887:3894   */\n      0x00\n        /* \"#utility.yul\":3927:3961   */\n      0xffffffffffffffffffffffffffffffff\n        /* \"#utility.yul\":3920:3925   */\n      dup3\n        /* \"#utility.yul\":3916:3962   */\n      and\n        /* \"#utility.yul\":3905:3962   */\n      swap1\n      pop\n        /* \"#utility.yul\":3850:3968   */\n      swap2\n      swap1\n      pop\n      jump\t// out\n        /* \"#utility.yul\":3974:4096   */\n    tag_263:\n        /* \"#utility.yul\":4047:4071   */\n      tag_368\n        /* \"#utility.yul\":4065:4070   */\n      dup2\n        /* \"#utility.yul\":4047:4071   */\n      tag_262\n      jump\t// in\n    tag_368:\n        /* \"#utility.yul\":4040:4045   */\n      dup2\n        /* \"#utility.yul\":4037:4072   */\n      eq\n        /* \"#utility.yul\":4027:4090   */\n      tag_369\n      jumpi\n        /* \"#utility.yul\":4086:4087   */\n      0x00\n        /* \"#utility.yul\":4083:4084   */\n      dup1\n        /* \"#utility.yul\":4076:4088   */\n      revert\n        /* \"#utility.yul\":4027:4090   */\n    tag_369:\n        /* \"#utility.yul\":3974:4096   */\n      pop\n      jump\t// out\n        /* \"#utility.yul\":4102:4241   */\n    tag_264:\n        /* \"#utility.yul\":4148:4153   */\n      0x00\n        /* \"#utility.yul\":4186:4192   */\n      dup2\n        /* \"#utility.yul\":4173:4193   */\n      calldataload\n        /* \"#utility.yul\":4164:4193   */\n      swap1\n      pop\n        /* \"#utility.yul\":4202:4235   */\n      tag_371\n        /* \"#utility.yul\":4229:4234   */\n      dup2\n        /* \"#utility.yul\":4202:4235   */\n      tag_263\n      jump\t// in\n    tag_371:\n        /* \"#utility.yul\":4102:4241   */\n      swap3\n      swap2\n      pop\n      pop\n      jump\t// out\n        /* \"#utility.yul\":4247:4721   */\n    tag_65:\n        /* \"#utility.yul\":4315:4321   */\n      0x00\n        /* \"#utility.yul\":4323:4329   */\n      dup1\n        /* \"#utility.yul\":4372:4374   */\n      0x40\n        /* \"#utility.yul\":4360:4369   */\n      dup4\n        /* \"#utility.yul\":4351:4358   */\n      dup6\n        /* \"#utility.yul\":4347:4370   */\n      sub\n        /* \"#utility.yul\":4343:4375   */\n      slt\n        /* \"#utility.yul\":4340:4459   */\n      iszero\n      tag_373\n      jumpi\n        /* \"#utility.yul\":4378:4457   */\n      tag_374\n      tag_245\n      jump\t// in\n    tag_374:\n        /* \"#utility.yul\":4340:4459   */\n    tag_373:\n        /* \"#utility.yul\":4498:4499   */\n      0x00\n        /* \"#utility.yul\":4523:4576   */\n      tag_375\n        /* \"#utility.yul\":4568:4575   */\n      dup6\n        /* \"#utility.yul\":4559:4565   */\n      dup3\n        /* \"#utility.yul\":4548:4557   */\n      dup7\n        /* \"#utility.yul\":4544:4566   */\n      add\n        /* \"#utility.yul\":4523:4576   */\n      tag_264\n      jump\t// in\n    tag_375:\n        /* \"#utility.yul\":4513:4576   */\n      swap3\n      pop\n        /* \"#utility.yul\":4469:4586   */\n      pop\n        /* \"#utility.yul\":4625:4627   */\n      0x20\n        /* \"#utility.yul\":4651:4704   */\n      tag_376\n        /* \"#utility.yul\":4696:4703   */\n      dup6\n        /* \"#utility.yul\":4687:4693   */\n      dup3\n        /* \"#utility.yul\":4676:4685   */\n      dup7\n        /* \"#utility.yul\":4672:4694   */\n      add\n        /* \"#utility.yul\":4651:4704   */\n      tag_264\n      jump\t// in\n    tag_376:\n        /* \"#utility.yul\":4641:4704   */\n      swap2\n      pop\n        /* \"#utility.yul\":4596:4714   */\n      pop\n        /* \"#utility.yul\":4247:4721   */\n      swap3\n      pop\n      swap3\n      swap1\n      pop\n      jump\t// out\n        /* \"#utility.yul\":4727:4817   */\n    tag_265:\n        /* \"#utility.yul\":4761:4768   */\n      0x00\n        /* \"#utility.yul\":4804:4809   */\n      dup2\n        /* \"#utility.yul\":4797:4810   */\n      iszero\n        /* \"#utility.yul\":4790:4811   */\n      iszero\n        /* \"#utility.yul\":4779:4811   */\n      swap1\n      pop\n        /* \"#utility.yul\":4727:4817   */\n      swap2\n      swap1\n      pop\n      jump\t// out\n        /* \"#utility.yul\":4823:4932   */\n    tag_266:\n        /* \"#utility.yul\":4904:4925   */\n      tag_379\n        /* \"#utility.yul\":4919:4924   */\n      dup2\n        /* \"#utility.yul\":4904:4925   */\n      tag_265\n      jump\t// in\n    tag_379:\n        /* \"#utility.yul\":4899:4902   */\n      dup3\n        /* \"#utility.yul\":4892:4926   */\n      mstore\n        /* \"#utility.yul\":4823:4932   */\n      pop\n      pop\n      jump\t// out\n        /* \"#utility.yul\":4938:5148   */\n    tag_72:\n        /* \"#utility.yul\":5025:5029   */\n      0x00\n        /* \"#utility.yul\":5063:5065   */\n      0x20\n        /* \"#utility.yul\":5052:5061   */\n      dup3\n        /* \"#utility.yul\":5048:5066   */\n      add\n        /* \"#utility.yul\":5040:5066   */\n      swap1\n      pop\n        /* \"#utility.yul\":5076:5141   */\n      tag_381\n        /* \"#utility.yul\":5138:5139   */\n      0x00\n        /* \"#utility.yul\":5127:5136   */\n      dup4\n        /* \"#utility.yul\":5123:5140   */\n      add\n        /* \"#utility.yul\":5114:5120   */\n      dup5\n        /* \"#utility.yul\":5076:5141   */\n      tag_266\n      jump\t// in\n    tag_381:\n        /* \"#utility.yul\":4938:5148   */\n      swap3\n      swap2\n      pop\n      pop\n      jump\t// out\n        /* \"#utility.yul\":5154:5295   */\n    tag_267:\n        /* \"#utility.yul\":5219:5228   */\n      0x00\n        /* \"#utility.yul\":5252:5289   */\n      tag_383\n        /* \"#utility.yul\":5283:5288   */\n      dup3\n        /* \"#utility.yul\":5252:5289   */\n      tag_257\n      jump\t// in\n    tag_383:\n        /* \"#utility.yul\":5239:5289   */\n      swap1\n      pop\n        /* \"#utility.yul\":5154:5295   */\n      swap2\n      swap1\n      pop\n      jump\t// out\n        /* \"#utility.yul\":5301:5462   */\n    tag_268:\n        /* \"#utility.yul\":5403:5455   */\n      tag_385\n        /* \"#utility.yul\":5449:5454   */\n      dup2\n        /* \"#utility.yul\":5403:5455   */\n      tag_267\n      jump\t// in\n    tag_385:\n        /* \"#utility.yul\":5398:5401   */\n      dup3\n        /* \"#utility.yul\":5391:5456   */\n      mstore\n        /* \"#utility.yul\":5301:5462   */\n      pop\n      pop\n      jump\t// out\n        /* \"#utility.yul\":5468:5720   */\n    tag_86:\n        /* \"#utility.yul\":5576:5580   */\n      0x00\n        /* \"#utility.yul\":5614:5616   */\n      0x20\n        /* \"#utility.yul\":5603:5612   */\n      dup3\n        /* \"#utility.yul\":5599:5617   */\n      add\n        /* \"#utility.yul\":5591:5617   */\n      swap1\n      pop\n        /* \"#utility.yul\":5627:5713   */\n      tag_387\n        /* \"#utility.yul\":5710:5711   */\n      0x00\n        /* \"#utility.yul\":5699:5708   */\n      dup4\n        /* \"#utility.yul\":5695:5712   */\n      add\n        /* \"#utility.yul\":5686:5692   */\n      dup5\n        /* \"#utility.yul\":5627:5713   */\n      tag_268\n      jump\t// in\n    tag_387:\n        /* \"#utility.yul\":5468:5720   */\n      swap3\n      swap2\n      pop\n      pop\n      jump\t// out\n        /* \"#utility.yul\":5726:6055   */\n    tag_90:\n        /* \"#utility.yul\":5785:5791   */\n      0x00\n        /* \"#utility.yul\":5834:5836   */\n      0x20\n        /* \"#utility.yul\":5822:5831   */\n      dup3\n        /* \"#utility.yul\":5813:5820   */\n      dup5\n        /* \"#utility.yul\":5809:5832   */\n      sub\n        /* \"#utility.yul\":5805:5837   */\n      slt\n        /* \"#utility.yul\":5802:5921   */\n      iszero\n      tag_389\n      jumpi\n        /* \"#utility.yul\":5840:5919   */\n      tag_390\n      tag_245\n      jump\t// in\n    tag_390:\n        /* \"#utility.yul\":5802:5921   */\n    tag_389:\n        /* \"#utility.yul\":5960:5961   */\n      0x00\n        /* \"#utility.yul\":5985:6038   */\n      tag_391\n        /* \"#utility.yul\":6030:6037   */\n      dup5\n        /* \"#utility.yul\":6021:6027   */\n      dup3\n        /* \"#utility.yul\":6010:6019   */\n      dup6\n        /* \"#utility.yul\":6006:6028   */\n      add\n        /* \"#utility.yul\":5985:6038   */\n      tag_253\n      jump\t// in\n    tag_391:\n        /* \"#utility.yul\":5975:6038   */\n      swap2\n      pop\n        /* \"#utility.yul\":5931:6048   */\n      pop\n        /* \"#utility.yul\":5726:6055   */\n      swap3\n      swap2\n      pop\n      pop\n      jump\t// out\n        /* \"#utility.yul\":6061:6199   */\n    tag_269:\n        /* \"#utility.yul\":6152:6158   */\n      0x00\n        /* \"#utility.yul\":6186:6191   */\n      dup2\n        /* \"#utility.yul\":6180:6192   */\n      mload\n        /* \"#utility.yul\":6170:6192   */\n      swap1\n      pop\n        /* \"#utility.yul\":6061:6199   */\n      swap2\n      swap1\n      pop\n      jump\t// out\n        /* \"#utility.yul\":6205:6413   */\n    tag_270:\n        /* \"#utility.yul\":6328:6339   */\n      0x00\n        /* \"#utility.yul\":6362:6368   */\n      dup3\n        /* \"#utility.yul\":6357:6360   */\n      dup3\n        /* \"#utility.yul\":6350:6369   */\n      mstore\n        /* \"#utility.yul\":6402:6406   */\n      0x20\n        /* \"#utility.yul\":6397:6400   */\n      dup3\n        /* \"#utility.yul\":6393:6407   */\n      add\n        /* \"#utility.yul\":6378:6407   */\n      swap1\n      pop\n        /* \"#utility.yul\":6205:6413   */\n      swap3\n      swap2\n      pop\n      pop\n      jump\t// out\n        /* \"#utility.yul\":6419:6575   */\n    tag_271:\n        /* \"#utility.yul\":6510:6514   */\n      0x00\n        /* \"#utility.yul\":6533:6536   */\n      dup2\n        /* \"#utility.yul\":6525:6536   */\n      swap1\n      pop\n        /* \"#utility.yul\":6563:6567   */\n      0x20\n        /* \"#utility.yul\":6558:6561   */\n      dup3\n        /* \"#utility.yul\":6554:6568   */\n      add\n        /* \"#utility.yul\":6546:6568   */\n      swap1\n      pop\n        /* \"#utility.yul\":6419:6575   */\n      swap2\n      swap1\n      pop\n      jump\t// out\n        /* \"#utility.yul\":6581:6689   */\n    tag_272:\n        /* \"#utility.yul\":6658:6682   */\n      tag_396\n        /* \"#utility.yul\":6676:6681   */\n      dup2\n        /* \"#utility.yul\":6658:6682   */\n      tag_251\n      jump\t// in\n    tag_396:\n        /* \"#utility.yul\":6653:6656   */\n      dup3\n        /* \"#utility.yul\":6646:6683   */\n      mstore\n        /* \"#utility.yul\":6581:6689   */\n      pop\n      pop\n      jump\t// out\n        /* \"#utility.yul\":6695:6803   */\n    tag_273:\n        /* \"#utility.yul\":6772:6796   */\n      tag_398\n        /* \"#utility.yul\":6790:6795   */\n      dup2\n        /* \"#utility.yul\":6772:6796   */\n      tag_262\n      jump\t// in\n    tag_398:\n        /* \"#utility.yul\":6767:6770   */\n      dup3\n        /* \"#utility.yul\":6760:6797   */\n      mstore\n        /* \"#utility.yul\":6695:6803   */\n      pop\n      pop\n      jump\t// out\n        /* \"#utility.yul\":6809:6908   */\n    tag_274:\n        /* \"#utility.yul\":6880:6901   */\n      tag_400\n        /* \"#utility.yul\":6895:6900   */\n      dup2\n        /* \"#utility.yul\":6880:6901   */\n      tag_265\n      jump\t// in\n    tag_400:\n        /* \"#utility.yul\":6875:6878   */\n      dup3\n        /* \"#utility.yul\":6868:6902   */\n      mstore\n        /* \"#utility.yul\":6809:6908   */\n      pop\n      pop\n      jump\t// out\n        /* \"#utility.yul\":6978:7825   */\n    tag_275:\n        /* \"#utility.yul\":7113:7117   */\n      0x80\n        /* \"#utility.yul\":7108:7111   */\n      dup3\n        /* \"#utility.yul\":7104:7118   */\n      add\n        /* \"#utility.yul\":7202:7206   */\n      0x00\n        /* \"#utility.yul\":7195:7200   */\n      dup3\n        /* \"#utility.yul\":7191:7207   */\n      add\n        /* \"#utility.yul\":7185:7208   */\n      mload\n        /* \"#utility.yul\":7221:7284   */\n      tag_402\n        /* \"#utility.yul\":7278:7282   */\n      0x00\n        /* \"#utility.yul\":7273:7276   */\n      dup6\n        /* \"#utility.yul\":7269:7283   */\n      add\n        /* \"#utility.yul\":7255:7267   */\n      dup3\n        /* \"#utility.yul\":7221:7284   */\n      tag_272\n      jump\t// in\n    tag_402:\n        /* \"#utility.yul\":7128:7294   */\n      pop\n        /* \"#utility.yul\":7379:7383   */\n      0x20\n        /* \"#utility.yul\":7372:7377   */\n      dup3\n        /* \"#utility.yul\":7368:7384   */\n      add\n        /* \"#utility.yul\":7362:7385   */\n      mload\n        /* \"#utility.yul\":7398:7461   */\n      tag_403\n        /* \"#utility.yul\":7455:7459   */\n      0x20\n        /* \"#utility.yul\":7450:7453   */\n      dup6\n        /* \"#utility.yul\":7446:7460   */\n      add\n        /* \"#utility.yul\":7432:7444   */\n      dup3\n        /* \"#utility.yul\":7398:7461   */\n      tag_273\n      jump\t// in\n    tag_403:\n        /* \"#utility.yul\":7304:7471   */\n      pop\n        /* \"#utility.yul\":7554:7558   */\n      0x40\n        /* \"#utility.yul\":7547:7552   */\n      dup3\n        /* \"#utility.yul\":7543:7559   */\n      add\n        /* \"#utility.yul\":7537:7560   */\n      mload\n        /* \"#utility.yul\":7573:7636   */\n      tag_404\n        /* \"#utility.yul\":7630:7634   */\n      0x40\n        /* \"#utility.yul\":7625:7628   */\n      dup6\n        /* \"#utility.yul\":7621:7635   */\n      add\n        /* \"#utility.yul\":7607:7619   */\n      dup3\n        /* \"#utility.yul\":7573:7636   */\n      tag_273\n      jump\t// in\n    tag_404:\n        /* \"#utility.yul\":7481:7646   */\n      pop\n        /* \"#utility.yul\":7732:7736   */\n      0x60\n        /* \"#utility.yul\":7725:7730   */\n      dup3\n        /* \"#utility.yul\":7721:7737   */\n      add\n        /* \"#utility.yul\":7715:7738   */\n      mload\n        /* \"#utility.yul\":7751:7808   */\n      tag_405\n        /* \"#utility.yul\":7802:7806   */\n      0x60\n        /* \"#utility.yul\":7797:7800   */\n      dup6\n        /* \"#utility.yul\":7793:7807   */\n      add\n        /* \"#utility.yul\":7779:7791   */\n      dup3\n        /* \"#utility.yul\":7751:7808   */\n      tag_274\n      jump\t// in\n    tag_405:\n        /* \"#utility.yul\":7656:7818   */\n      pop\n        /* \"#utility.yul\":7082:7825   */\n      pop\n        /* \"#utility.yul\":6978:7825   */\n      pop\n      pop\n      jump\t// out\n        /* \"#utility.yul\":7831:8106   */\n    tag_276:\n        /* \"#utility.yul\":7948:7958   */\n      0x00\n        /* \"#utility.yul\":7969:8063   */\n      tag_407\n        /* \"#utility.yul\":8059:8062   */\n      dup4\n        /* \"#utility.yul\":8051:8057   */\n      dup4\n        /* \"#utility.yul\":7969:8063   */\n      tag_275\n      jump\t// in\n    tag_407:\n        /* \"#utility.yul\":8095:8099   */\n      0x80\n        /* \"#utility.yul\":8090:8093   */\n      dup4\n        /* \"#utility.yul\":8086:8100   */\n      add\n        /* \"#utility.yul\":8072:8100   */\n      swap1\n      pop\n        /* \"#utility.yul\":7831:8106   */\n      swap3\n      swap2\n      pop\n      pop\n      jump\t// out\n        /* \"#utility.yul\":8112:8249   */\n    tag_277:\n        /* \"#utility.yul\":8206:8210   */\n      0x00\n        /* \"#utility.yul\":8238:8242   */\n      0x20\n        /* \"#utility.yul\":8233:8236   */\n      dup3\n        /* \"#utility.yul\":8229:8243   */\n      add\n        /* \"#utility.yul\":8221:8243   */\n      swap1\n      pop\n        /* \"#utility.yul\":8112:8249   */\n      swap2\n      swap1\n      pop\n      jump\t// out\n        /* \"#utility.yul\":8323:9247   */\n    tag_278:\n        /* \"#utility.yul\":8490:8493   */\n      0x00\n        /* \"#utility.yul\":8519:8597   */\n      tag_410\n        /* \"#utility.yul\":8591:8596   */\n      dup3\n        /* \"#utility.yul\":8519:8597   */\n      tag_269\n      jump\t// in\n    tag_410:\n        /* \"#utility.yul\":8613:8723   */\n      tag_411\n        /* \"#utility.yul\":8716:8722   */\n      dup2\n        /* \"#utility.yul\":8711:8714   */\n      dup6\n        /* \"#utility.yul\":8613:8723   */\n      tag_270\n      jump\t// in\n    tag_411:\n        /* \"#utility.yul\":8606:8723   */\n      swap4\n      pop\n        /* \"#utility.yul\":8747:8827   */\n      tag_412\n        /* \"#utility.yul\":8821:8826   */\n      dup4\n        /* \"#utility.yul\":8747:8827   */\n      tag_271\n      jump\t// in\n    tag_412:\n        /* \"#utility.yul\":8850:8857   */\n      dup1\n        /* \"#utility.yul\":8881:8882   */\n      0x00\n        /* \"#utility.yul\":8866:9222   */\n    tag_413:\n        /* \"#utility.yul\":8891:8897   */\n      dup4\n        /* \"#utility.yul\":8888:8889   */\n      dup2\n        /* \"#utility.yul\":8885:8898   */\n      lt\n        /* \"#utility.yul\":8866:9222   */\n      iszero\n      tag_415\n      jumpi\n        /* \"#utility.yul\":8967:8973   */\n      dup2\n        /* \"#utility.yul\":8961:8974   */\n      mload\n        /* \"#utility.yul\":8994:9105   */\n      tag_416\n        /* \"#utility.yul\":9101:9104   */\n      dup9\n        /* \"#utility.yul\":9086:9099   */\n      dup3\n        /* \"#utility.yul\":8994:9105   */\n      tag_276\n      jump\t// in\n    tag_416:\n        /* \"#utility.yul\":8987:9105   */\n      swap8\n      pop\n        /* \"#utility.yul\":9128:9212   */\n      tag_417\n        /* \"#utility.yul\":9205:9211   */\n      dup4\n        /* \"#utility.yul\":9128:9212   */\n      tag_277\n      jump\t// in\n    tag_417:\n        /* \"#utility.yul\":9118:9212   */\n      swap3\n      pop\n        /* \"#utility.yul\":8926:9222   */\n      pop\n        /* \"#utility.yul\":8913:8914   */\n      0x01\n        /* \"#utility.yul\":8910:8911   */\n      dup2\n        /* \"#utility.yul\":8906:8915   */\n      add\n        /* \"#utility.yul\":8901:8915   */\n      swap1\n      pop\n        /* \"#utility.yul\":8866:9222   */\n      jump(tag_413)\n    tag_415:\n        /* \"#utility.yul\":8870:8884   */\n      pop\n        /* \"#utility.yul\":9238:9241   */\n      dup6\n        /* \"#utility.yul\":9231:9241   */\n      swap4\n      pop\n        /* \"#utility.yul\":8495:9247   */\n      pop\n      pop\n      pop\n        /* \"#utility.yul\":8323:9247   */\n      swap3\n      swap2\n      pop\n      pop\n      jump\t// out\n        /* \"#utility.yul\":9253:9722   */\n    tag_93:\n        /* \"#utility.yul\":9444:9448   */\n      0x00\n        /* \"#utility.yul\":9482:9484   */\n      0x20\n        /* \"#utility.yul\":9471:9480   */\n      dup3\n        /* \"#utility.yul\":9467:9485   */\n      add\n        /* \"#utility.yul\":9459:9485   */\n      swap1\n      pop\n        /* \"#utility.yul\":9531:9540   */\n      dup2\n        /* \"#utility.yul\":9525:9529   */\n      dup2\n        /* \"#utility.yul\":9521:9541   */\n      sub\n        /* \"#utility.yul\":9517:9518   */\n      0x00\n        /* \"#utility.yul\":9506:9515   */\n      dup4\n        /* \"#utility.yul\":9502:9519   */\n      add\n        /* \"#utility.yul\":9495:9542   */\n      mstore\n        /* \"#utility.yul\":9559:9715   */\n      tag_419\n        /* \"#utility.yul\":9710:9714   */\n      dup2\n        /* \"#utility.yul\":9701:9707   */\n      dup5\n        /* \"#utility.yul\":9559:9715   */\n      tag_278\n      jump\t// in\n    tag_419:\n        /* \"#utility.yul\":9551:9715   */\n      swap1\n      pop\n        /* \"#utility.yul\":9253:9722   */\n      swap3\n      swap2\n      pop\n      pop\n      jump\t// out\n        /* \"#utility.yul\":9728:9846   */\n    tag_279:\n        /* \"#utility.yul\":9815:9839   */\n      tag_421\n        /* \"#utility.yul\":9833:9838   */\n      dup2\n        /* \"#utility.yul\":9815:9839   */\n      tag_251\n      jump\t// in\n    tag_421:\n        /* \"#utility.yul\":9810:9813   */\n      dup3\n        /* \"#utility.yul\":9803:9840   */\n      mstore\n        /* \"#utility.yul\":9728:9846   */\n      pop\n      pop\n      jump\t// out\n        /* \"#utility.yul\":9852:9970   */\n    tag_280:\n        /* \"#utility.yul\":9939:9963   */\n      tag_423\n        /* \"#utility.yul\":9957:9962   */\n      dup2\n        /* \"#utility.yul\":9939:9963   */\n      tag_262\n      jump\t// in\n    tag_423:\n        /* \"#utility.yul\":9934:9937   */\n      dup3\n        /* \"#utility.yul\":9927:9964   */\n      mstore\n        /* \"#utility.yul\":9852:9970   */\n      pop\n      pop\n      jump\t// out\n        /* \"#utility.yul\":9976:10517   */\n    tag_99:\n        /* \"#utility.yul\":10147:10151   */\n      0x00\n        /* \"#utility.yul\":10185:10188   */\n      0x80\n        /* \"#utility.yul\":10174:10183   */\n      dup3\n        /* \"#utility.yul\":10170:10189   */\n      add\n        /* \"#utility.yul\":10162:10189   */\n      swap1\n      pop\n        /* \"#utility.yul\":10199:10270   */\n      tag_425\n        /* \"#utility.yul\":10267:10268   */\n      0x00\n        /* \"#utility.yul\":10256:10265   */\n      dup4\n        /* \"#utility.yul\":10252:10269   */\n      add\n        /* \"#utility.yul\":10243:10249   */\n      dup8\n        /* \"#utility.yul\":10199:10270   */\n      tag_279\n      jump\t// in\n    tag_425:\n        /* \"#utility.yul\":10280:10352   */\n      tag_426\n        /* \"#utility.yul\":10348:10350   */\n      0x20\n        /* \"#utility.yul\":10337:10346   */\n      dup4\n        /* \"#utility.yul\":10333:10351   */\n      add\n        /* \"#utility.yul\":10324:10330   */\n      dup7\n        /* \"#utility.yul\":10280:10352   */\n      tag_280\n      jump\t// in\n    tag_426:\n        /* \"#utility.yul\":10362:10434   */\n      tag_427\n        /* \"#utility.yul\":10430:10432   */\n      0x40\n        /* \"#utility.yul\":10419:10428   */\n      dup4\n        /* \"#utility.yul\":10415:10433   */\n      add\n        /* \"#utility.yul\":10406:10412   */\n      dup6\n        /* \"#utility.yul\":10362:10434   */\n      tag_280\n      jump\t// in\n    tag_427:\n        /* \"#utility.yul\":10444:10510   */\n      tag_428\n        /* \"#utility.yul\":10506:10508   */\n      0x60\n        /* \"#utility.yul\":10495:10504   */\n      dup4\n        /* \"#utility.yul\":10491:10509   */\n      add\n        /* \"#utility.yul\":10482:10488   */\n      dup5\n        /* \"#utility.yul\":10444:10510   */\n      tag_266\n      jump\t// in\n    tag_428:\n        /* \"#utility.yul\":9976:10517   */\n      swap6\n      swap5\n      pop\n      pop\n      pop\n      pop\n      pop\n      jump\t// out\n        /* \"#utility.yul\":10523:10661   */\n    tag_281:\n        /* \"#utility.yul\":10604:10636   */\n      tag_430\n        /* \"#utility.yul\":10630:10635   */\n      dup2\n        /* \"#utility.yul\":10604:10636   */\n      tag_260\n      jump\t// in\n    tag_430:\n        /* \"#utility.yul\":10597:10602   */\n      dup2\n        /* \"#utility.yul\":10594:10637   */\n      eq\n        /* \"#utility.yul\":10584:10655   */\n      tag_431\n      jumpi\n        /* \"#utility.yul\":10651:10652   */\n      0x00\n        /* \"#utility.yul\":10648:10649   */\n      dup1\n        /* \"#utility.yul\":10641:10653   */\n      revert\n        /* \"#utility.yul\":10584:10655   */\n    tag_431:\n        /* \"#utility.yul\":10523:10661   */\n      pop\n      jump\t// out\n        /* \"#utility.yul\":10667:10822   */\n    tag_282:\n        /* \"#utility.yul\":10721:10726   */\n      0x00\n        /* \"#utility.yul\":10759:10765   */\n      dup2\n        /* \"#utility.yul\":10746:10766   */\n      calldataload\n        /* \"#utility.yul\":10737:10766   */\n      swap1\n      pop\n        /* \"#utility.yul\":10775:10816   */\n      tag_433\n        /* \"#utility.yul\":10810:10815   */\n      dup2\n        /* \"#utility.yul\":10775:10816   */\n      tag_281\n      jump\t// in\n    tag_433:\n        /* \"#utility.yul\":10667:10822   */\n      swap3\n      swap2\n      pop\n      pop\n      jump\t// out\n        /* \"#utility.yul\":10828:11318   */\n    tag_112:\n        /* \"#utility.yul\":10904:10910   */\n      0x00\n        /* \"#utility.yul\":10912:10918   */\n      dup1\n        /* \"#utility.yul\":10961:10963   */\n      0x40\n        /* \"#utility.yul\":10949:10958   */\n      dup4\n        /* \"#utility.yul\":10940:10947   */\n      dup6\n        /* \"#utility.yul\":10936:10959   */\n      sub\n        /* \"#utility.yul\":10932:10964   */\n      slt\n        /* \"#utility.yul\":10929:11048   */\n      iszero\n      tag_435\n      jumpi\n        /* \"#utility.yul\":10967:11046   */\n      tag_436\n      tag_245\n      jump\t// in\n    tag_436:\n        /* \"#utility.yul\":10929:11048   */\n    tag_435:\n        /* \"#utility.yul\":11087:11088   */\n      0x00\n        /* \"#utility.yul\":11112:11173   */\n      tag_437\n        /* \"#utility.yul\":11165:11172   */\n      dup6\n        /* \"#utility.yul\":11156:11162   */\n      dup3\n        /* \"#utility.yul\":11145:11154   */\n      dup7\n        /* \"#utility.yul\":11141:11163   */\n      add\n        /* \"#utility.yul\":11112:11173   */\n      tag_282\n      jump\t// in\n    tag_437:\n        /* \"#utility.yul\":11102:11173   */\n      swap3\n      pop\n        /* \"#utility.yul\":11058:11183   */\n      pop\n        /* \"#utility.yul\":11222:11224   */\n      0x20\n        /* \"#utility.yul\":11248:11301   */\n      tag_438\n        /* \"#utility.yul\":11293:11300   */\n      dup6\n        /* \"#utility.yul\":11284:11290   */\n      dup3\n        /* \"#utility.yul\":11273:11282   */\n      dup7\n        /* \"#utility.yul\":11269:11291   */\n      add\n        /* \"#utility.yul\":11248:11301   */\n      tag_249\n      jump\t// in\n    tag_438:\n        /* \"#utility.yul\":11238:11301   */\n      swap2\n      pop\n        /* \"#utility.yul\":11193:11311   */\n      pop\n        /* \"#utility.yul\":10828:11318   */\n      swap3\n      pop\n      swap3\n      swap1\n      pop\n      jump\t// out\n        /* \"#utility.yul\":11324:11466   */\n    tag_283:\n        /* \"#utility.yul\":11374:11383   */\n      0x00\n        /* \"#utility.yul\":11407:11460   */\n      tag_440\n        /* \"#utility.yul\":11425:11459   */\n      tag_441\n        /* \"#utility.yul\":11434:11458   */\n      tag_442\n        /* \"#utility.yul\":11452:11457   */\n      dup5\n        /* \"#utility.yul\":11434:11458   */\n      tag_262\n      jump\t// in\n    tag_442:\n        /* \"#utility.yul\":11425:11459   */\n      tag_255\n      jump\t// in\n    tag_441:\n        /* \"#utility.yul\":11407:11460   */\n      tag_247\n      jump\t// in\n    tag_440:\n        /* \"#utility.yul\":11394:11460   */\n      swap1\n      pop\n        /* \"#utility.yul\":11324:11466   */\n      swap2\n      swap1\n      pop\n      jump\t// out\n        /* \"#utility.yul\":11472:11603   */\n    tag_284:\n        /* \"#utility.yul\":11559:11596   */\n      tag_444\n        /* \"#utility.yul\":11590:11595   */\n      dup2\n        /* \"#utility.yul\":11559:11596   */\n      tag_283\n      jump\t// in\n    tag_444:\n        /* \"#utility.yul\":11554:11557   */\n      dup3\n        /* \"#utility.yul\":11547:11597   */\n      mstore\n        /* \"#utility.yul\":11472:11603   */\n      pop\n      pop\n      jump\t// out\n        /* \"#utility.yul\":11609:11941   */\n    tag_118:\n        /* \"#utility.yul\":11730:11734   */\n      0x00\n        /* \"#utility.yul\":11768:11770   */\n      0x40\n        /* \"#utility.yul\":11757:11766   */\n      dup3\n        /* \"#utility.yul\":11753:11771   */\n      add\n        /* \"#utility.yul\":11745:11771   */\n      swap1\n      pop\n        /* \"#utility.yul\":11781:11852   */\n      tag_446\n        /* \"#utility.yul\":11849:11850   */\n      0x00\n        /* \"#utility.yul\":11838:11847   */\n      dup4\n        /* \"#utility.yul\":11834:11851   */\n      add\n        /* \"#utility.yul\":11825:11831   */\n      dup6\n        /* \"#utility.yul\":11781:11852   */\n      tag_284\n      jump\t// in\n    tag_446:\n        /* \"#utility.yul\":11862:11934   */\n      tag_447\n        /* \"#utility.yul\":11930:11932   */\n      0x20\n        /* \"#utility.yul\":11919:11928   */\n      dup4\n        /* \"#utility.yul\":11915:11933   */\n      add\n        /* \"#utility.yul\":11906:11912   */\n      dup5\n        /* \"#utility.yul\":11862:11934   */\n      tag_254\n      jump\t// in\n    tag_447:\n        /* \"#utility.yul\":11609:11941   */\n      swap4\n      swap3\n      pop\n      pop\n      pop\n      jump\t// out\n        /* \"#utility.yul\":11947:12127   */\n    tag_285:\n        /* \"#utility.yul\":11995:12072   */\n      0x4e487b7100000000000000000000000000000000000000000000000000000000\n        /* \"#utility.yul\":11992:11993   */\n      0x00\n        /* \"#utility.yul\":11985:12073   */\n      mstore\n        /* \"#utility.yul\":12092:12096   */\n      0x11\n        /* \"#utility.yul\":12089:12090   */\n      0x04\n        /* \"#utility.yul\":12082:12097   */\n      mstore\n        /* \"#utility.yul\":12116:12120   */\n      0x24\n        /* \"#utility.yul\":12113:12114   */\n      0x00\n        /* \"#utility.yul\":12106:12121   */\n      revert\n        /* \"#utility.yul\":12133:12543   */\n    tag_121:\n        /* \"#utility.yul\":12173:12180   */\n      0x00\n        /* \"#utility.yul\":12196:12216   */\n      tag_450\n        /* \"#utility.yul\":12214:12215   */\n      dup3\n        /* \"#utility.yul\":12196:12216   */\n      tag_247\n      jump\t// in\n    tag_450:\n        /* \"#utility.yul\":12191:12216   */\n      swap2\n      pop\n        /* \"#utility.yul\":12230:12250   */\n      tag_451\n        /* \"#utility.yul\":12248:12249   */\n      dup4\n        /* \"#utility.yul\":12230:12250   */\n      tag_247\n      jump\t// in\n    tag_451:\n        /* \"#utility.yul\":12225:12250   */\n      swap3\n      pop\n        /* \"#utility.yul\":12285:12286   */\n      dup3\n        /* \"#utility.yul\":12282:12283   */\n      dup3\n        /* \"#utility.yul\":12278:12287   */\n      mul\n        /* \"#utility.yul\":12307:12337   */\n      tag_452\n        /* \"#utility.yul\":12325:12336   */\n      dup2\n        /* \"#utility.yul\":12307:12337   */\n      tag_247\n      jump\t// in\n    tag_452:\n        /* \"#utility.yul\":12296:12337   */\n      swap2\n      pop\n        /* \"#utility.yul\":12486:12487   */\n      dup3\n        /* \"#utility.yul\":12477:12484   */\n      dup3\n        /* \"#utility.yul\":12473:12488   */\n      div\n        /* \"#utility.yul\":12470:12471   */\n      dup5\n        /* \"#utility.yul\":12467:12489   */\n      eq\n        /* \"#utility.yul\":12447:12448   */\n      dup4\n        /* \"#utility.yul\":12440:12449   */\n      iszero\n        /* \"#utility.yul\":12420:12503   */\n      or\n        /* \"#utility.yul\":12397:12536   */\n      tag_453\n      jumpi\n        /* \"#utility.yul\":12516:12534   */\n      tag_454\n      tag_285\n      jump\t// in\n    tag_454:\n        /* \"#utility.yul\":12397:12536   */\n    tag_453:\n        /* \"#utility.yul\":12181:12543   */\n      pop\n        /* \"#utility.yul\":12133:12543   */\n      swap3\n      swap2\n      pop\n      pop\n      jump\t// out\n        /* \"#utility.yul\":12549:12729   */\n    tag_286:\n        /* \"#utility.yul\":12597:12674   */\n      0x4e487b7100000000000000000000000000000000000000000000000000000000\n        /* \"#utility.yul\":12594:12595   */\n      0x00\n        /* \"#utility.yul\":12587:12675   */\n      mstore\n        /* \"#utility.yul\":12694:12698   */\n      0x12\n        /* \"#utility.yul\":12691:12692   */\n      0x04\n        /* \"#utility.yul\":12684:12699   */\n      mstore\n        /* \"#utility.yul\":12718:12722   */\n      0x24\n        /* \"#utility.yul\":12715:12716   */\n      0x00\n        /* \"#utility.yul\":12708:12723   */\n      revert\n        /* \"#utility.yul\":12735:12920   */\n    tag_123:\n        /* \"#utility.yul\":12775:12776   */\n      0x00\n        /* \"#utility.yul\":12792:12812   */\n      tag_457\n        /* \"#utility.yul\":12810:12811   */\n      dup3\n        /* \"#utility.yul\":12792:12812   */\n      tag_247\n      jump\t// in\n    tag_457:\n        /* \"#utility.yul\":12787:12812   */\n      swap2\n      pop\n        /* \"#utility.yul\":12826:12846   */\n      tag_458\n        /* \"#utility.yul\":12844:12845   */\n      dup4\n        /* \"#utility.yul\":12826:12846   */\n      tag_247\n      jump\t// in\n    tag_458:\n        /* \"#utility.yul\":12821:12846   */\n      swap3\n      pop\n        /* \"#utility.yul\":12865:12866   */\n      dup3\n        /* \"#utility.yul\":12855:12890   */\n      tag_459\n      jumpi\n        /* \"#utility.yul\":12870:12888   */\n      tag_460\n      tag_286\n      jump\t// in\n    tag_460:\n        /* \"#utility.yul\":12855:12890   */\n    tag_459:\n        /* \"#utility.yul\":12912:12913   */\n      dup3\n        /* \"#utility.yul\":12909:12910   */\n      dup3\n        /* \"#utility.yul\":12905:12914   */\n      div\n        /* \"#utility.yul\":12900:12914   */\n      swap1\n      pop\n        /* \"#utility.yul\":12735:12920   */\n      swap3\n      swap2\n      pop\n      pop\n      jump\t// out\n        /* \"#utility.yul\":12926:13120   */\n    tag_125:\n        /* \"#utility.yul\":12966:12970   */\n      0x00\n        /* \"#utility.yul\":12986:13006   */\n      tag_462\n        /* \"#utility.yul\":13004:13005   */\n      dup3\n        /* \"#utility.yul\":12986:13006   */\n      tag_247\n      jump\t// in\n    tag_462:\n        /* \"#utility.yul\":12981:13006   */\n      swap2\n      pop\n        /* \"#utility.yul\":13020:13040   */\n      tag_463\n        /* \"#utility.yul\":13038:13039   */\n      dup4\n        /* \"#utility.yul\":13020:13040   */\n      tag_247\n      jump\t// in\n    tag_463:\n        /* \"#utility.yul\":13015:13040   */\n      swap3\n      pop\n        /* \"#utility.yul\":13064:13065   */\n      dup3\n        /* \"#utility.yul\":13061:13062   */\n      dup3\n        /* \"#utility.yul\":13057:13066   */\n      sub\n        /* \"#utility.yul\":13049:13066   */\n      swap1\n      pop\n        /* \"#utility.yul\":13088:13089   */\n      dup2\n        /* \"#utility.yul\":13082:13086   */\n      dup2\n        /* \"#utility.yul\":13079:13090   */\n      gt\n        /* \"#utility.yul\":13076:13113   */\n      iszero\n      tag_464\n      jumpi\n        /* \"#utility.yul\":13093:13111   */\n      tag_465\n      tag_285\n      jump\t// in\n    tag_465:\n        /* \"#utility.yul\":13076:13113   */\n    tag_464:\n        /* \"#utility.yul\":12926:13120   */\n      swap3\n      swap2\n      pop\n      pop\n      jump\t// out\n        /* \"#utility.yul\":13126:13348   */\n    tag_127:\n        /* \"#utility.yul\":13219:13223   */\n      0x00\n        /* \"#utility.yul\":13257:13259   */\n      0x20\n        /* \"#utility.yul\":13246:13255   */\n      dup3\n        /* \"#utility.yul\":13242:13260   */\n      add\n        /* \"#utility.yul\":13234:13260   */\n      swap1\n      pop\n        /* \"#utility.yul\":13270:13341   */\n      tag_467\n        /* \"#utility.yul\":13338:13339   */\n      0x00\n        /* \"#utility.yul\":13327:13336   */\n      dup4\n        /* \"#utility.yul\":13323:13340   */\n      add\n        /* \"#utility.yul\":13314:13320   */\n      dup5\n        /* \"#utility.yul\":13270:13341   */\n      tag_284\n      jump\t// in\n    tag_467:\n        /* \"#utility.yul\":13126:13348   */\n      swap3\n      swap2\n      pop\n      pop\n      jump\t// out\n        /* \"#utility.yul\":13354:13497   */\n    tag_287:\n        /* \"#utility.yul\":13411:13416   */\n      0x00\n        /* \"#utility.yul\":13442:13448   */\n      dup2\n        /* \"#utility.yul\":13436:13449   */\n      mload\n        /* \"#utility.yul\":13427:13449   */\n      swap1\n      pop\n        /* \"#utility.yul\":13458:13491   */\n      tag_469\n        /* \"#utility.yul\":13485:13490   */\n      dup2\n        /* \"#utility.yul\":13458:13491   */\n      tag_252\n      jump\t// in\n    tag_469:\n        /* \"#utility.yul\":13354:13497   */\n      swap3\n      swap2\n      pop\n      pop\n      jump\t// out\n        /* \"#utility.yul\":13503:13854   */\n    tag_131:\n        /* \"#utility.yul\":13573:13579   */\n      0x00\n        /* \"#utility.yul\":13622:13624   */\n      0x20\n        /* \"#utility.yul\":13610:13619   */\n      dup3\n        /* \"#utility.yul\":13601:13608   */\n      dup5\n        /* \"#utility.yul\":13597:13620   */\n      sub\n        /* \"#utility.yul\":13593:13625   */\n      slt\n        /* \"#utility.yul\":13590:13709   */\n      iszero\n      tag_471\n      jumpi\n        /* \"#utility.yul\":13628:13707   */\n      tag_472\n      tag_245\n      jump\t// in\n    tag_472:\n        /* \"#utility.yul\":13590:13709   */\n    tag_471:\n        /* \"#utility.yul\":13748:13749   */\n      0x00\n        /* \"#utility.yul\":13773:13837   */\n      tag_473\n        /* \"#utility.yul\":13829:13836   */\n      dup5\n        /* \"#utility.yul\":13820:13826   */\n      dup3\n        /* \"#utility.yul\":13809:13818   */\n      dup6\n        /* \"#utility.yul\":13805:13827   */\n      add\n        /* \"#utility.yul\":13773:13837   */\n      tag_287\n      jump\t// in\n    tag_473:\n        /* \"#utility.yul\":13763:13837   */\n      swap2\n      pop\n        /* \"#utility.yul\":13719:13847   */\n      pop\n        /* \"#utility.yul\":13503:13854   */\n      swap3\n      swap2\n      pop\n      pop\n      jump\t// out\n        /* \"#utility.yul\":13860:14029   */\n    tag_288:\n        /* \"#utility.yul\":13944:13955   */\n      0x00\n        /* \"#utility.yul\":13978:13984   */\n      dup3\n        /* \"#utility.yul\":13973:13976   */\n      dup3\n        /* \"#utility.yul\":13966:13985   */\n      mstore\n        /* \"#utility.yul\":14018:14022   */\n      0x20\n        /* \"#utility.yul\":14013:14016   */\n      dup3\n        /* \"#utility.yul\":14009:14023   */\n      add\n        /* \"#utility.yul\":13994:14023   */\n      swap1\n      pop\n        /* \"#utility.yul\":13860:14029   */\n      swap3\n      swap2\n      pop\n      pop\n      jump\t// out\n        /* \"#utility.yul\":14035:14210   */\n    tag_289:\n        /* \"#utility.yul\":14175:14202   */\n      0x53656c6c6572206e6f206c6f6e676572206f776e73204e465400000000000000\n        /* \"#utility.yul\":14171:14172   */\n      0x00\n        /* \"#utility.yul\":14163:14169   */\n      dup3\n        /* \"#utility.yul\":14159:14173   */\n      add\n        /* \"#utility.yul\":14152:14203   */\n      mstore\n        /* \"#utility.yul\":14035:14210   */\n      pop\n      jump\t// out\n        /* \"#utility.yul\":14216:14582   */\n    tag_290:\n        /* \"#utility.yul\":14358:14361   */\n      0x00\n        /* \"#utility.yul\":14379:14446   */\n      tag_477\n        /* \"#utility.yul\":14443:14445   */\n      0x19\n        /* \"#utility.yul\":14438:14441   */\n      dup4\n        /* \"#utility.yul\":14379:14446   */\n      tag_288\n      jump\t// in\n    tag_477:\n        /* \"#utility.yul\":14372:14446   */\n      swap2\n      pop\n        /* \"#utility.yul\":14455:14548   */\n      tag_478\n        /* \"#utility.yul\":14544:14547   */\n      dup3\n        /* \"#utility.yul\":14455:14548   */\n      tag_289\n      jump\t// in\n    tag_478:\n        /* \"#utility.yul\":14573:14575   */\n      0x20\n        /* \"#utility.yul\":14568:14571   */\n      dup3\n        /* \"#utility.yul\":14564:14576   */\n      add\n        /* \"#utility.yul\":14557:14576   */\n      swap1\n      pop\n        /* \"#utility.yul\":14216:14582   */\n      swap2\n      swap1\n      pop\n      jump\t// out\n        /* \"#utility.yul\":14588:15007   */\n    tag_134:\n        /* \"#utility.yul\":14754:14758   */\n      0x00\n        /* \"#utility.yul\":14792:14794   */\n      0x20\n        /* \"#utility.yul\":14781:14790   */\n      dup3\n        /* \"#utility.yul\":14777:14795   */\n      add\n        /* \"#utility.yul\":14769:14795   */\n      swap1\n      pop\n        /* \"#utility.yul\":14841:14850   */\n      dup2\n        /* \"#utility.yul\":14835:14839   */\n      dup2\n        /* \"#utility.yul\":14831:14851   */\n      sub\n        /* \"#utility.yul\":14827:14828   */\n      0x00\n        /* \"#utility.yul\":14816:14825   */\n      dup4\n        /* \"#utility.yul\":14812:14829   */\n      add\n        /* \"#utility.yul\":14805:14852   */\n      mstore\n        /* \"#utility.yul\":14869:15000   */\n      tag_480\n        /* \"#utility.yul\":14995:14999   */\n      dup2\n        /* \"#utility.yul\":14869:15000   */\n      tag_290\n      jump\t// in\n    tag_480:\n        /* \"#utility.yul\":14861:15000   */\n      swap1\n      pop\n        /* \"#utility.yul\":14588:15007   */\n      swap2\n      swap1\n      pop\n      jump\t// out\n        /* \"#utility.yul\":15013:15345   */\n    tag_136:\n        /* \"#utility.yul\":15134:15138   */\n      0x00\n        /* \"#utility.yul\":15172:15174   */\n      0x40\n        /* \"#utility.yul\":15161:15170   */\n      dup3\n        /* \"#utility.yul\":15157:15175   */\n      add\n        /* \"#utility.yul\":15149:15175   */\n      swap1\n      pop\n        /* \"#utility.yul\":15185:15256   */\n      tag_482\n        /* \"#utility.yul\":15253:15254   */\n      0x00\n        /* \"#utility.yul\":15242:15251   */\n      dup4\n        /* \"#utility.yul\":15238:15255   */\n      add\n        /* \"#utility.yul\":15229:15235   */\n      dup6\n        /* \"#utility.yul\":15185:15256   */\n      tag_279\n      jump\t// in\n    tag_482:\n        /* \"#utility.yul\":15266:15338   */\n      tag_483\n        /* \"#utility.yul\":15334:15336   */\n      0x20\n        /* \"#utility.yul\":15323:15332   */\n      dup4\n        /* \"#utility.yul\":15319:15337   */\n      add\n        /* \"#utility.yul\":15310:15316   */\n      dup5\n        /* \"#utility.yul\":15266:15338   */\n      tag_279\n      jump\t// in\n    tag_483:\n        /* \"#utility.yul\":15013:15345   */\n      swap4\n      swap3\n      pop\n      pop\n      pop\n      jump\t// out\n        /* \"#utility.yul\":15351:15467   */\n    tag_291:\n        /* \"#utility.yul\":15421:15442   */\n      tag_485\n        /* \"#utility.yul\":15436:15441   */\n      dup2\n        /* \"#utility.yul\":15421:15442   */\n      tag_265\n      jump\t// in\n    tag_485:\n        /* \"#utility.yul\":15414:15419   */\n      dup2\n        /* \"#utility.yul\":15411:15443   */\n      eq\n        /* \"#utility.yul\":15401:15461   */\n      tag_486\n      jumpi\n        /* \"#utility.yul\":15457:15458   */\n      0x00\n        /* \"#utility.yul\":15454:15455   */\n      dup1\n        /* \"#utility.yul\":15447:15459   */\n      revert\n        /* \"#utility.yul\":15401:15461   */\n    tag_486:\n        /* \"#utility.yul\":15351:15467   */\n      pop\n      jump\t// out\n        /* \"#utility.yul\":15473:15610   */\n    tag_292:\n        /* \"#utility.yul\":15527:15532   */\n      0x00\n        /* \"#utility.yul\":15558:15564   */\n      dup2\n        /* \"#utility.yul\":15552:15565   */\n      mload\n        /* \"#utility.yul\":15543:15565   */\n      swap1\n      pop\n        /* \"#utility.yul\":15574:15604   */\n      tag_488\n        /* \"#utility.yul\":15598:15603   */\n      dup2\n        /* \"#utility.yul\":15574:15604   */\n      tag_291\n      jump\t// in\n    tag_488:\n        /* \"#utility.yul\":15473:15610   */\n      swap3\n      swap2\n      pop\n      pop\n      jump\t// out\n        /* \"#utility.yul\":15616:15961   */\n    tag_140:\n        /* \"#utility.yul\":15683:15689   */\n      0x00\n        /* \"#utility.yul\":15732:15734   */\n      0x20\n        /* \"#utility.yul\":15720:15729   */\n      dup3\n        /* \"#utility.yul\":15711:15718   */\n      dup5\n        /* \"#utility.yul\":15707:15730   */\n      sub\n        /* \"#utility.yul\":15703:15735   */\n      slt\n        /* \"#utility.yul\":15700:15819   */\n      iszero\n      tag_490\n      jumpi\n        /* \"#utility.yul\":15738:15817   */\n      tag_491\n      tag_245\n      jump\t// in\n    tag_491:\n        /* \"#utility.yul\":15700:15819   */\n    tag_490:\n        /* \"#utility.yul\":15858:15859   */\n      0x00\n        /* \"#utility.yul\":15883:15944   */\n      tag_492\n        /* \"#utility.yul\":15936:15943   */\n      dup5\n        /* \"#utility.yul\":15927:15933   */\n      dup3\n        /* \"#utility.yul\":15916:15925   */\n      dup6\n        /* \"#utility.yul\":15912:15934   */\n      add\n        /* \"#utility.yul\":15883:15944   */\n      tag_292\n      jump\t// in\n    tag_492:\n        /* \"#utility.yul\":15873:15944   */\n      swap2\n      pop\n        /* \"#utility.yul\":15829:15954   */\n      pop\n        /* \"#utility.yul\":15616:15961   */\n      swap3\n      swap2\n      pop\n      pop\n      jump\t// out\n        /* \"#utility.yul\":15967:16129   */\n    tag_293:\n        /* \"#utility.yul\":16107:16121   */\n      0x4e6f7420617070726f7665640000000000000000000000000000000000000000\n        /* \"#utility.yul\":16103:16104   */\n      0x00\n        /* \"#utility.yul\":16095:16101   */\n      dup3\n        /* \"#utility.yul\":16091:16105   */\n      add\n        /* \"#utility.yul\":16084:16122   */\n      mstore\n        /* \"#utility.yul\":15967:16129   */\n      pop\n      jump\t// out\n        /* \"#utility.yul\":16135:16501   */\n    tag_294:\n        /* \"#utility.yul\":16277:16280   */\n      0x00\n        /* \"#utility.yul\":16298:16365   */\n      tag_495\n        /* \"#utility.yul\":16362:16364   */\n      0x0c\n        /* \"#utility.yul\":16357:16360   */\n      dup4\n        /* \"#utility.yul\":16298:16365   */\n      tag_288\n      jump\t// in\n    tag_495:\n        /* \"#utility.yul\":16291:16365   */\n      swap2\n      pop\n        /* \"#utility.yul\":16374:16467   */\n      tag_496\n        /* \"#utility.yul\":16463:16466   */\n      dup3\n        /* \"#utility.yul\":16374:16467   */\n      tag_293\n      jump\t// in\n    tag_496:\n        /* \"#utility.yul\":16492:16494   */\n      0x20\n        /* \"#utility.yul\":16487:16490   */\n      dup3\n        /* \"#utility.yul\":16483:16495   */\n      add\n        /* \"#utility.yul\":16476:16495   */\n      swap1\n      pop\n        /* \"#utility.yul\":16135:16501   */\n      swap2\n      swap1\n      pop\n      jump\t// out\n        /* \"#utility.yul\":16507:16926   */\n    tag_148:\n        /* \"#utility.yul\":16673:16677   */\n      0x00\n        /* \"#utility.yul\":16711:16713   */\n      0x20\n        /* \"#utility.yul\":16700:16709   */\n      dup3\n        /* \"#utility.yul\":16696:16714   */\n      add\n        /* \"#utility.yul\":16688:16714   */\n      swap1\n      pop\n        /* \"#utility.yul\":16760:16769   */\n      dup2\n        /* \"#utility.yul\":16754:16758   */\n      dup2\n        /* \"#utility.yul\":16750:16770   */\n      sub\n        /* \"#utility.yul\":16746:16747   */\n      0x00\n        /* \"#utility.yul\":16735:16744   */\n      dup4\n        /* \"#utility.yul\":16731:16748   */\n      add\n        /* \"#utility.yul\":16724:16771   */\n      mstore\n        /* \"#utility.yul\":16788:16919   */\n      tag_498\n        /* \"#utility.yul\":16914:16918   */\n      dup2\n        /* \"#utility.yul\":16788:16919   */\n      tag_294\n      jump\t// in\n    tag_498:\n        /* \"#utility.yul\":16780:16919   */\n      swap1\n      pop\n        /* \"#utility.yul\":16507:16926   */\n      swap2\n      swap1\n      pop\n      jump\t// out\n        /* \"#utility.yul\":16932:17123   */\n    tag_150:\n        /* \"#utility.yul\":16972:16975   */\n      0x00\n        /* \"#utility.yul\":16991:17011   */\n      tag_500\n        /* \"#utility.yul\":17009:17010   */\n      dup3\n        /* \"#utility.yul\":16991:17011   */\n      tag_247\n      jump\t// in\n    tag_500:\n        /* \"#utility.yul\":16986:17011   */\n      swap2\n      pop\n        /* \"#utility.yul\":17025:17045   */\n      tag_501\n        /* \"#utility.yul\":17043:17044   */\n      dup4\n        /* \"#utility.yul\":17025:17045   */\n      tag_247\n      jump\t// in\n    tag_501:\n        /* \"#utility.yul\":17020:17045   */\n      swap3\n      pop\n        /* \"#utility.yul\":17068:17069   */\n      dup3\n        /* \"#utility.yul\":17065:17066   */\n      dup3\n        /* \"#utility.yul\":17061:17070   */\n      add\n        /* \"#utility.yul\":17054:17070   */\n      swap1\n      pop\n        /* \"#utility.yul\":17089:17092   */\n      dup1\n        /* \"#utility.yul\":17086:17087   */\n      dup3\n        /* \"#utility.yul\":17083:17093   */\n      gt\n        /* \"#utility.yul\":17080:17116   */\n      iszero\n      tag_502\n      jumpi\n        /* \"#utility.yul\":17096:17114   */\n      tag_503\n      tag_285\n      jump\t// in\n    tag_503:\n        /* \"#utility.yul\":17080:17116   */\n    tag_502:\n        /* \"#utility.yul\":16932:17123   */\n      swap3\n      swap2\n      pop\n      pop\n      jump\t// out\n        /* \"#utility.yul\":17129:17571   */\n    tag_153:\n        /* \"#utility.yul\":17278:17282   */\n      0x00\n        /* \"#utility.yul\":17316:17318   */\n      0x60\n        /* \"#utility.yul\":17305:17314   */\n      dup3\n        /* \"#utility.yul\":17301:17319   */\n      add\n        /* \"#utility.yul\":17293:17319   */\n      swap1\n      pop\n        /* \"#utility.yul\":17329:17400   */\n      tag_505\n        /* \"#utility.yul\":17397:17398   */\n      0x00\n        /* \"#utility.yul\":17386:17395   */\n      dup4\n        /* \"#utility.yul\":17382:17399   */\n      add\n        /* \"#utility.yul\":17373:17379   */\n      dup7\n        /* \"#utility.yul\":17329:17400   */\n      tag_279\n      jump\t// in\n    tag_505:\n        /* \"#utility.yul\":17410:17482   */\n      tag_506\n        /* \"#utility.yul\":17478:17480   */\n      0x20\n        /* \"#utility.yul\":17467:17476   */\n      dup4\n        /* \"#utility.yul\":17463:17481   */\n      add\n        /* \"#utility.yul\":17454:17460   */\n      dup6\n        /* \"#utility.yul\":17410:17482   */\n      tag_279\n      jump\t// in\n    tag_506:\n        /* \"#utility.yul\":17492:17564   */\n      tag_507\n        /* \"#utility.yul\":17560:17562   */\n      0x40\n        /* \"#utility.yul\":17549:17558   */\n      dup4\n        /* \"#utility.yul\":17545:17563   */\n      add\n        /* \"#utility.yul\":17536:17542   */\n      dup5\n        /* \"#utility.yul\":17492:17564   */\n      tag_284\n      jump\t// in\n    tag_507:\n        /* \"#utility.yul\":17129:17571   */\n      swap5\n      swap4\n      pop\n      pop\n      pop\n      pop\n      jump\t// out\n        /* \"#utility.yul\":17577:18019   */\n    tag_158:\n        /* \"#utility.yul\":17726:17730   */\n      0x00\n        /* \"#utility.yul\":17764:17766   */\n      0x60\n        /* \"#utility.yul\":17753:17762   */\n      dup3\n        /* \"#utility.yul\":17749:17767   */\n      add\n        /* \"#utility.yul\":17741:17767   */\n      swap1\n      pop\n        /* \"#utility.yul\":17777:17848   */\n      tag_509\n        /* \"#utility.yul\":17845:17846   */\n      0x00\n        /* \"#utility.yul\":17834:17843   */\n      dup4\n        /* \"#utility.yul\":17830:17847   */\n      add\n        /* \"#utility.yul\":17821:17827   */\n      dup7\n        /* \"#utility.yul\":17777:17848   */\n      tag_284\n      jump\t// in\n    tag_509:\n        /* \"#utility.yul\":17858:17930   */\n      tag_510\n        /* \"#utility.yul\":17926:17928   */\n      0x20\n        /* \"#utility.yul\":17915:17924   */\n      dup4\n        /* \"#utility.yul\":17911:17929   */\n      add\n        /* \"#utility.yul\":17902:17908   */\n      dup6\n        /* \"#utility.yul\":17858:17930   */\n      tag_284\n      jump\t// in\n    tag_510:\n        /* \"#utility.yul\":17940:18012   */\n      tag_511\n        /* \"#utility.yul\":18008:18010   */\n      0x40\n        /* \"#utility.yul\":17997:18006   */\n      dup4\n        /* \"#utility.yul\":17993:18011   */\n      add\n        /* \"#utility.yul\":17984:17990   */\n      dup5\n        /* \"#utility.yul\":17940:18012   */\n      tag_254\n      jump\t// in\n    tag_511:\n        /* \"#utility.yul\":17577:18019   */\n      swap5\n      swap4\n      pop\n      pop\n      pop\n      pop\n      jump\t// out\n        /* \"#utility.yul\":18025:18247   */\n    tag_162:\n        /* \"#utility.yul\":18118:18122   */\n      0x00\n        /* \"#utility.yul\":18156:18158   */\n      0x20\n        /* \"#utility.yul\":18145:18154   */\n      dup3\n        /* \"#utility.yul\":18141:18159   */\n      add\n        /* \"#utility.yul\":18133:18159   */\n      swap1\n      pop\n        /* \"#utility.yul\":18169:18240   */\n      tag_513\n        /* \"#utility.yul\":18237:18238   */\n      0x00\n        /* \"#utility.yul\":18226:18235   */\n      dup4\n        /* \"#utility.yul\":18222:18239   */\n      add\n        /* \"#utility.yul\":18213:18219   */\n      dup5\n        /* \"#utility.yul\":18169:18240   */\n      tag_279\n      jump\t// in\n    tag_513:\n        /* \"#utility.yul\":18025:18247   */\n      swap3\n      swap2\n      pop\n      pop\n      jump\t// out\n        /* \"#utility.yul\":18253:18400   */\n    tag_295:\n        /* \"#utility.yul\":18354:18365   */\n      0x00\n        /* \"#utility.yul\":18391:18394   */\n      dup2\n        /* \"#utility.yul\":18376:18394   */\n      swap1\n      pop\n        /* \"#utility.yul\":18253:18400   */\n      swap3\n      swap2\n      pop\n      pop\n      jump\t// out\n        /* \"#utility.yul\":18406:18520   */\n    tag_296:\n      pop\n      jump\t// out\n        /* \"#utility.yul\":18526:18924   */\n    tag_297:\n        /* \"#utility.yul\":18685:18688   */\n      0x00\n        /* \"#utility.yul\":18706:18789   */\n      tag_517\n        /* \"#utility.yul\":18787:18788   */\n      0x00\n        /* \"#utility.yul\":18782:18785   */\n      dup4\n        /* \"#utility.yul\":18706:18789   */\n      tag_295\n      jump\t// in\n    tag_517:\n        /* \"#utility.yul\":18699:18789   */\n      swap2\n      pop\n        /* \"#utility.yul\":18798:18891   */\n      tag_518\n        /* \"#utility.yul\":18887:18890   */\n      dup3\n        /* \"#utility.yul\":18798:18891   */\n      tag_296\n      jump\t// in\n    tag_518:\n        /* \"#utility.yul\":18916:18917   */\n      0x00\n        /* \"#utility.yul\":18911:18914   */\n      dup3\n        /* \"#utility.yul\":18907:18918   */\n      add\n        /* \"#utility.yul\":18900:18918   */\n      swap1\n      pop\n        /* \"#utility.yul\":18526:18924   */\n      swap2\n      swap1\n      pop\n      jump\t// out\n        /* \"#utility.yul\":18930:19309   */\n    tag_166:\n        /* \"#utility.yul\":19114:19117   */\n      0x00\n        /* \"#utility.yul\":19136:19283   */\n      tag_520\n        /* \"#utility.yul\":19279:19282   */\n      dup3\n        /* \"#utility.yul\":19136:19283   */\n      tag_297\n      jump\t// in\n    tag_520:\n        /* \"#utility.yul\":19129:19283   */\n      swap2\n      pop\n        /* \"#utility.yul\":19300:19303   */\n      dup2\n        /* \"#utility.yul\":19293:19303   */\n      swap1\n      pop\n        /* \"#utility.yul\":18930:19309   */\n      swap2\n      swap1\n      pop\n      jump\t// out\n        /* \"#utility.yul\":19315:19480   */\n    tag_298:\n        /* \"#utility.yul\":19455:19472   */\n      0x5472616e73666572206661696c65640000000000000000000000000000000000\n        /* \"#utility.yul\":19451:19452   */\n      0x00\n        /* \"#utility.yul\":19443:19449   */\n      dup3\n        /* \"#utility.yul\":19439:19453   */\n      add\n        /* \"#utility.yul\":19432:19473   */\n      mstore\n        /* \"#utility.yul\":19315:19480   */\n      pop\n      jump\t// out\n        /* \"#utility.yul\":19486:19852   */\n    tag_299:\n        /* \"#utility.yul\":19628:19631   */\n      0x00\n        /* \"#utility.yul\":19649:19716   */\n      tag_523\n        /* \"#utility.yul\":19713:19715   */\n      0x0f\n        /* \"#utility.yul\":19708:19711   */\n      dup4\n        /* \"#utility.yul\":19649:19716   */\n      tag_288\n      jump\t// in\n    tag_523:\n        /* \"#utility.yul\":19642:19716   */\n      swap2\n      pop\n        /* \"#utility.yul\":19725:19818   */\n      tag_524\n        /* \"#utility.yul\":19814:19817   */\n      dup3\n        /* \"#utility.yul\":19725:19818   */\n      tag_298\n      jump\t// in\n    tag_524:\n        /* \"#utility.yul\":19843:19845   */\n      0x20\n        /* \"#utility.yul\":19838:19841   */\n      dup3\n        /* \"#utility.yul\":19834:19846   */\n      add\n        /* \"#utility.yul\":19827:19846   */\n      swap1\n      pop\n        /* \"#utility.yul\":19486:19852   */\n      swap2\n      swap1\n      pop\n      jump\t// out\n        /* \"#utility.yul\":19858:20277   */\n    tag_172:\n        /* \"#utility.yul\":20024:20028   */\n      0x00\n        /* \"#utility.yul\":20062:20064   */\n      0x20\n        /* \"#utility.yul\":20051:20060   */\n      dup3\n        /* \"#utility.yul\":20047:20065   */\n      add\n        /* \"#utility.yul\":20039:20065   */\n      swap1\n      pop\n        /* \"#utility.yul\":20111:20120   */\n      dup2\n        /* \"#utility.yul\":20105:20109   */\n      dup2\n        /* \"#utility.yul\":20101:20121   */\n      sub\n        /* \"#utility.yul\":20097:20098   */\n      0x00\n        /* \"#utility.yul\":20086:20095   */\n      dup4\n        /* \"#utility.yul\":20082:20099   */\n      add\n        /* \"#utility.yul\":20075:20122   */\n      mstore\n        /* \"#utility.yul\":20139:20270   */\n      tag_526\n        /* \"#utility.yul\":20265:20269   */\n      dup2\n        /* \"#utility.yul\":20139:20270   */\n      tag_299\n      jump\t// in\n    tag_526:\n        /* \"#utility.yul\":20131:20270   */\n      swap1\n      pop\n        /* \"#utility.yul\":19858:20277   */\n      swap2\n      swap1\n      pop\n      jump\t// out\n        /* \"#utility.yul\":20283:20615   */\n    tag_176:\n        /* \"#utility.yul\":20404:20408   */\n      0x00\n        /* \"#utility.yul\":20442:20444   */\n      0x40\n        /* \"#utility.yul\":20431:20440   */\n      dup3\n        /* \"#utility.yul\":20427:20445   */\n      add\n        /* \"#utility.yul\":20419:20445   */\n      swap1\n      pop\n        /* \"#utility.yul\":20455:20526   */\n      tag_528\n        /* \"#utility.yul\":20523:20524   */\n      0x00\n        /* \"#utility.yul\":20512:20521   */\n      dup4\n        /* \"#utility.yul\":20508:20525   */\n      add\n        /* \"#utility.yul\":20499:20505   */\n      dup6\n        /* \"#utility.yul\":20455:20526   */\n      tag_279\n      jump\t// in\n    tag_528:\n        /* \"#utility.yul\":20536:20608   */\n      tag_529\n        /* \"#utility.yul\":20604:20606   */\n      0x20\n        /* \"#utility.yul\":20593:20602   */\n      dup4\n        /* \"#utility.yul\":20589:20607   */\n      add\n        /* \"#utility.yul\":20580:20586   */\n      dup5\n        /* \"#utility.yul\":20536:20608   */\n      tag_254\n      jump\t// in\n    tag_529:\n        /* \"#utility.yul\":20283:20615   */\n      swap4\n      swap3\n      pop\n      pop\n      pop\n      jump\t// out\n        /* \"#utility.yul\":20621:20764   */\n    tag_300:\n        /* \"#utility.yul\":20678:20683   */\n      0x00\n        /* \"#utility.yul\":20709:20715   */\n      dup2\n        /* \"#utility.yul\":20703:20716   */\n      mload\n        /* \"#utility.yul\":20694:20716   */\n      swap1\n      pop\n        /* \"#utility.yul\":20725:20758   */\n      tag_531\n        /* \"#utility.yul\":20752:20757   */\n      dup2\n        /* \"#utility.yul\":20725:20758   */\n      tag_248\n      jump\t// in\n    tag_531:\n        /* \"#utility.yul\":20621:20764   */\n      swap3\n      swap2\n      pop\n      pop\n      jump\t// out\n        /* \"#utility.yul\":20770:21121   */\n    tag_180:\n        /* \"#utility.yul\":20840:20846   */\n      0x00\n        /* \"#utility.yul\":20889:20891   */\n      0x20\n        /* \"#utility.yul\":20877:20886   */\n      dup3\n        /* \"#utility.yul\":20868:20875   */\n      dup5\n        /* \"#utility.yul\":20864:20887   */\n      sub\n        /* \"#utility.yul\":20860:20892   */\n      slt\n        /* \"#utility.yul\":20857:20976   */\n      iszero\n      tag_533\n      jumpi\n        /* \"#utility.yul\":20895:20974   */\n      tag_534\n      tag_245\n      jump\t// in\n    tag_534:\n        /* \"#utility.yul\":20857:20976   */\n    tag_533:\n        /* \"#utility.yul\":21015:21016   */\n      0x00\n        /* \"#utility.yul\":21040:21104   */\n      tag_535\n        /* \"#utility.yul\":21096:21103   */\n      dup5\n        /* \"#utility.yul\":21087:21093   */\n      dup3\n        /* \"#utility.yul\":21076:21085   */\n      dup6\n        /* \"#utility.yul\":21072:21094   */\n      add\n        /* \"#utility.yul\":21040:21104   */\n      tag_300\n      jump\t// in\n    tag_535:\n        /* \"#utility.yul\":21030:21104   */\n      swap2\n      pop\n        /* \"#utility.yul\":20986:21114   */\n      pop\n        /* \"#utility.yul\":20770:21121   */\n      swap3\n      swap2\n      pop\n      pop\n      jump\t// out\n        /* \"#utility.yul\":21127:21296   */\n    tag_301:\n        /* \"#utility.yul\":21267:21288   */\n      0x436f6d6d697373696f6e20746f6f206869676800000000000000000000000000\n        /* \"#utility.yul\":21263:21264   */\n      0x00\n        /* \"#utility.yul\":21255:21261   */\n      dup3\n        /* \"#utility.yul\":21251:21265   */\n      add\n        /* \"#utility.yul\":21244:21289   */\n      mstore\n        /* \"#utility.yul\":21127:21296   */\n      pop\n      jump\t// out\n        /* \"#utility.yul\":21302:21668   */\n    tag_302:\n        /* \"#utility.yul\":21444:21447   */\n      0x00\n        /* \"#utility.yul\":21465:21532   */\n      tag_538\n        /* \"#utility.yul\":21529:21531   */\n      0x13\n        /* \"#utility.yul\":21524:21527   */\n      dup4\n        /* \"#utility.yul\":21465:21532   */\n      tag_288\n      jump\t// in\n    tag_538:\n        /* \"#utility.yul\":21458:21532   */\n      swap2\n      pop\n        /* \"#utility.yul\":21541:21634   */\n      tag_539\n        /* \"#utility.yul\":21630:21633   */\n      dup3\n        /* \"#utility.yul\":21541:21634   */\n      tag_301\n      jump\t// in\n    tag_539:\n        /* \"#utility.yul\":21659:21661   */\n      0x20\n        /* \"#utility.yul\":21654:21657   */\n      dup3\n        /* \"#utility.yul\":21650:21662   */\n      add\n        /* \"#utility.yul\":21643:21662   */\n      swap1\n      pop\n        /* \"#utility.yul\":21302:21668   */\n      swap2\n      swap1\n      pop\n      jump\t// out\n        /* \"#utility.yul\":21674:22093   */\n    tag_191:\n        /* \"#utility.yul\":21840:21844   */\n      0x00\n        /* \"#utility.yul\":21878:21880   */\n      0x20\n        /* \"#utility.yul\":21867:21876   */\n      dup3\n        /* \"#utility.yul\":21863:21881   */\n      add\n        /* \"#utility.yul\":21855:21881   */\n      swap1\n      pop\n        /* \"#utility.yul\":21927:21936   */\n      dup2\n        /* \"#utility.yul\":21921:21925   */\n      dup2\n        /* \"#utility.yul\":21917:21937   */\n      sub\n        /* \"#utility.yul\":21913:21914   */\n      0x00\n        /* \"#utility.yul\":21902:21911   */\n      dup4\n        /* \"#utility.yul\":21898:21915   */\n      add\n        /* \"#utility.yul\":21891:21938   */\n      mstore\n        /* \"#utility.yul\":21955:22086   */\n      tag_541\n        /* \"#utility.yul\":22081:22085   */\n      dup2\n        /* \"#utility.yul\":21955:22086   */\n      tag_302\n      jump\t// in\n    tag_541:\n        /* \"#utility.yul\":21947:22086   */\n      swap1\n      pop\n        /* \"#utility.yul\":21674:22093   */\n      swap2\n      swap1\n      pop\n      jump\t// out\n        /* \"#utility.yul\":22099:22266   */\n    tag_303:\n        /* \"#utility.yul\":22239:22258   */\n      0x5072696365206d757374206265203e2030000000000000000000000000000000\n        /* \"#utility.yul\":22235:22236   */\n      0x00\n        /* \"#utility.yul\":22227:22233   */\n      dup3\n        /* \"#utility.yul\":22223:22237   */\n      add\n        /* \"#utility.yul\":22216:22259   */\n      mstore\n        /* \"#utility.yul\":22099:22266   */\n      pop\n      jump\t// out\n        /* \"#utility.yul\":22272:22638   */\n    tag_304:\n        /* \"#utility.yul\":22414:22417   */\n      0x00\n        /* \"#utility.yul\":22435:22502   */\n      tag_544\n        /* \"#utility.yul\":22499:22501   */\n      0x11\n        /* \"#utility.yul\":22494:22497   */\n      dup4\n        /* \"#utility.yul\":22435:22502   */\n      tag_288\n      jump\t// in\n    tag_544:\n        /* \"#utility.yul\":22428:22502   */\n      swap2\n      pop\n        /* \"#utility.yul\":22511:22604   */\n      tag_545\n        /* \"#utility.yul\":22600:22603   */\n      dup3\n        /* \"#utility.yul\":22511:22604   */\n      tag_303\n      jump\t// in\n    tag_545:\n        /* \"#utility.yul\":22629:22631   */\n      0x20\n        /* \"#utility.yul\":22624:22627   */\n      dup3\n        /* \"#utility.yul\":22620:22632   */\n      add\n        /* \"#utility.yul\":22613:22632   */\n      swap1\n      pop\n        /* \"#utility.yul\":22272:22638   */\n      swap2\n      swap1\n      pop\n      jump\t// out\n        /* \"#utility.yul\":22644:23063   */\n    tag_196:\n        /* \"#utility.yul\":22810:22814   */\n      0x00\n        /* \"#utility.yul\":22848:22850   */\n      0x20\n        /* \"#utility.yul\":22837:22846   */\n      dup3\n        /* \"#utility.yul\":22833:22851   */\n      add\n        /* \"#utility.yul\":22825:22851   */\n      swap1\n      pop\n        /* \"#utility.yul\":22897:22906   */\n      dup2\n        /* \"#utility.yul\":22891:22895   */\n      dup2\n        /* \"#utility.yul\":22887:22907   */\n      sub\n        /* \"#utility.yul\":22883:22884   */\n      0x00\n        /* \"#utility.yul\":22872:22881   */\n      dup4\n        /* \"#utility.yul\":22868:22885   */\n      add\n        /* \"#utility.yul\":22861:22908   */\n      mstore\n        /* \"#utility.yul\":22925:23056   */\n      tag_547\n        /* \"#utility.yul\":23051:23055   */\n      dup2\n        /* \"#utility.yul\":22925:23056   */\n      tag_304\n      jump\t// in\n    tag_547:\n        /* \"#utility.yul\":22917:23056   */\n      swap1\n      pop\n        /* \"#utility.yul\":22644:23063   */\n      swap2\n      swap1\n      pop\n      jump\t// out\n        /* \"#utility.yul\":23069:23165   */\n    tag_305:\n        /* \"#utility.yul\":23103:23111   */\n      0x00\n        /* \"#utility.yul\":23152:23157   */\n      dup2\n        /* \"#utility.yul\":23147:23150   */\n      0x80\n        /* \"#utility.yul\":23143:23158   */\n      shl\n        /* \"#utility.yul\":23122:23158   */\n      swap1\n      pop\n        /* \"#utility.yul\":23069:23165   */\n      swap2\n      swap1\n      pop\n      jump\t// out\n        /* \"#utility.yul\":23171:23266   */\n    tag_306:\n        /* \"#utility.yul\":23210:23217   */\n      0x00\n        /* \"#utility.yul\":23239:23260   */\n      tag_550\n        /* \"#utility.yul\":23254:23259   */\n      dup3\n        /* \"#utility.yul\":23239:23260   */\n      tag_305\n      jump\t// in\n    tag_550:\n        /* \"#utility.yul\":23228:23260   */\n      swap1\n      pop\n        /* \"#utility.yul\":23171:23266   */\n      swap2\n      swap1\n      pop\n      jump\t// out\n        /* \"#utility.yul\":23272:23429   */\n    tag_307:\n        /* \"#utility.yul\":23377:23422   */\n      tag_552\n        /* \"#utility.yul\":23397:23421   */\n      tag_553\n        /* \"#utility.yul\":23415:23420   */\n      dup3\n        /* \"#utility.yul\":23397:23421   */\n      tag_262\n      jump\t// in\n    tag_553:\n        /* \"#utility.yul\":23377:23422   */\n      tag_306\n      jump\t// in\n    tag_552:\n        /* \"#utility.yul\":23372:23375   */\n      dup3\n        /* \"#utility.yul\":23365:23423   */\n      mstore\n        /* \"#utility.yul\":23272:23429   */\n      pop\n      pop\n      jump\t// out\n        /* \"#utility.yul\":23435:23529   */\n    tag_308:\n        /* \"#utility.yul\":23468:23476   */\n      0x00\n        /* \"#utility.yul\":23516:23521   */\n      dup2\n        /* \"#utility.yul\":23512:23514   */\n      0x60\n        /* \"#utility.yul\":23508:23522   */\n      shl\n        /* \"#utility.yul\":23487:23522   */\n      swap1\n      pop\n        /* \"#utility.yul\":23435:23529   */\n      swap2\n      swap1\n      pop\n      jump\t// out\n        /* \"#utility.yul\":23535:23629   */\n    tag_309:\n        /* \"#utility.yul\":23574:23581   */\n      0x00\n        /* \"#utility.yul\":23603:23623   */\n      tag_556\n        /* \"#utility.yul\":23617:23622   */\n      dup3\n        /* \"#utility.yul\":23603:23623   */\n      tag_308\n      jump\t// in\n    tag_556:\n        /* \"#utility.yul\":23592:23623   */\n      swap1\n      pop\n        /* \"#utility.yul\":23535:23629   */\n      swap2\n      swap1\n      pop\n      jump\t// out\n        /* \"#utility.yul\":23635:23735   */\n    tag_310:\n        /* \"#utility.yul\":23674:23681   */\n      0x00\n        /* \"#utility.yul\":23703:23729   */\n      tag_558\n        /* \"#utility.yul\":23723:23728   */\n      dup3\n        /* \"#utility.yul\":23703:23729   */\n      tag_309\n      jump\t// in\n    tag_558:\n        /* \"#utility.yul\":23692:23729   */\n      swap1\n      pop\n        /* \"#utility.yul\":23635:23735   */\n      swap2\n      swap1\n      pop\n      jump\t// out\n        /* \"#utility.yul\":23741:23898   */\n    tag_311:\n        /* \"#utility.yul\":23846:23891   */\n      tag_560\n        /* \"#utility.yul\":23866:23890   */\n      tag_561\n        /* \"#utility.yul\":23884:23889   */\n      dup3\n        /* \"#utility.yul\":23866:23890   */\n      tag_251\n      jump\t// in\n    tag_561:\n        /* \"#utility.yul\":23846:23891   */\n      tag_310\n      jump\t// in\n    tag_560:\n        /* \"#utility.yul\":23841:23844   */\n      dup3\n        /* \"#utility.yul\":23834:23892   */\n      mstore\n        /* \"#utility.yul\":23741:23898   */\n      pop\n      pop\n      jump\t// out\n        /* \"#utility.yul\":23904:23983   */\n    tag_312:\n        /* \"#utility.yul\":23943:23950   */\n      0x00\n        /* \"#utility.yul\":23972:23977   */\n      dup2\n        /* \"#utility.yul\":23961:23977   */\n      swap1\n      pop\n        /* \"#utility.yul\":23904:23983   */\n      swap2\n      swap1\n      pop\n      jump\t// out\n        /* \"#utility.yul\":23989:24146   */\n    tag_313:\n        /* \"#utility.yul\":24094:24139   */\n      tag_564\n        /* \"#utility.yul\":24114:24138   */\n      tag_565\n        /* \"#utility.yul\":24132:24137   */\n      dup3\n        /* \"#utility.yul\":24114:24138   */\n      tag_247\n      jump\t// in\n    tag_565:\n        /* \"#utility.yul\":24094:24139   */\n      tag_312\n      jump\t// in\n    tag_564:\n        /* \"#utility.yul\":24089:24092   */\n      dup3\n        /* \"#utility.yul\":24082:24140   */\n      mstore\n        /* \"#utility.yul\":23989:24146   */\n      pop\n      pop\n      jump\t// out\n        /* \"#utility.yul\":24152:24690   */\n    tag_215:\n        /* \"#utility.yul\":24320:24323   */\n      0x00\n        /* \"#utility.yul\":24335:24410   */\n      tag_567\n        /* \"#utility.yul\":24406:24409   */\n      dup3\n        /* \"#utility.yul\":24397:24403   */\n      dup7\n        /* \"#utility.yul\":24335:24410   */\n      tag_307\n      jump\t// in\n    tag_567:\n        /* \"#utility.yul\":24435:24437   */\n      0x10\n        /* \"#utility.yul\":24430:24433   */\n      dup3\n        /* \"#utility.yul\":24426:24438   */\n      add\n        /* \"#utility.yul\":24419:24438   */\n      swap2\n      pop\n        /* \"#utility.yul\":24448:24523   */\n      tag_568\n        /* \"#utility.yul\":24519:24522   */\n      dup3\n        /* \"#utility.yul\":24510:24516   */\n      dup6\n        /* \"#utility.yul\":24448:24523   */\n      tag_311\n      jump\t// in\n    tag_568:\n        /* \"#utility.yul\":24548:24550   */\n      0x14\n        /* \"#utility.yul\":24543:24546   */\n      dup3\n        /* \"#utility.yul\":24539:24551   */\n      add\n        /* \"#utility.yul\":24532:24551   */\n      swap2\n      pop\n        /* \"#utility.yul\":24561:24636   */\n      tag_569\n        /* \"#utility.yul\":24632:24635   */\n      dup3\n        /* \"#utility.yul\":24623:24629   */\n      dup5\n        /* \"#utility.yul\":24561:24636   */\n      tag_313\n      jump\t// in\n    tag_569:\n        /* \"#utility.yul\":24661:24663   */\n      0x20\n        /* \"#utility.yul\":24656:24659   */\n      dup3\n        /* \"#utility.yul\":24652:24664   */\n      add\n        /* \"#utility.yul\":24645:24664   */\n      swap2\n      pop\n        /* \"#utility.yul\":24681:24684   */\n      dup2\n        /* \"#utility.yul\":24674:24684   */\n      swap1\n      pop\n        /* \"#utility.yul\":24152:24690   */\n      swap5\n      swap4\n      pop\n      pop\n      pop\n      pop\n      jump\t// out\n        /* \"#utility.yul\":24696:24864   */\n    tag_314:\n        /* \"#utility.yul\":24836:24856   */\n      0x416d6f756e74206d757374206265203e20300000000000000000000000000000\n        /* \"#utility.yul\":24832:24833   */\n      0x00\n        /* \"#utility.yul\":24824:24830   */\n      dup3\n        /* \"#utility.yul\":24820:24834   */\n      add\n        /* \"#utility.yul\":24813:24857   */\n      mstore\n        /* \"#utility.yul\":24696:24864   */\n      pop\n      jump\t// out\n        /* \"#utility.yul\":24870:25236   */\n    tag_315:\n        /* \"#utility.yul\":25012:25015   */\n      0x00\n        /* \"#utility.yul\":25033:25100   */\n      tag_572\n        /* \"#utility.yul\":25097:25099   */\n      0x12\n        /* \"#utility.yul\":25092:25095   */\n      dup4\n        /* \"#utility.yul\":25033:25100   */\n      tag_288\n      jump\t// in\n    tag_572:\n        /* \"#utility.yul\":25026:25100   */\n      swap2\n      pop\n        /* \"#utility.yul\":25109:25202   */\n      tag_573\n        /* \"#utility.yul\":25198:25201   */\n      dup3\n        /* \"#utility.yul\":25109:25202   */\n      tag_314\n      jump\t// in\n    tag_573:\n        /* \"#utility.yul\":25227:25229   */\n      0x20\n        /* \"#utility.yul\":25222:25225   */\n      dup3\n        /* \"#utility.yul\":25218:25230   */\n      add\n        /* \"#utility.yul\":25211:25230   */\n      swap1\n      pop\n        /* \"#utility.yul\":24870:25236   */\n      swap2\n      swap1\n      pop\n      jump\t// out\n        /* \"#utility.yul\":25242:25661   */\n    tag_236:\n        /* \"#utility.yul\":25408:25412   */\n      0x00\n        /* \"#utility.yul\":25446:25448   */\n      0x20\n        /* \"#utility.yul\":25435:25444   */\n      dup3\n        /* \"#utility.yul\":25431:25449   */\n      add\n        /* \"#utility.yul\":25423:25449   */\n      swap1\n      pop\n        /* \"#utility.yul\":25495:25504   */\n      dup2\n        /* \"#utility.yul\":25489:25493   */\n      dup2\n        /* \"#utility.yul\":25485:25505   */\n      sub\n        /* \"#utility.yul\":25481:25482   */\n      0x00\n        /* \"#utility.yul\":25470:25479   */\n      dup4\n        /* \"#utility.yul\":25466:25483   */\n      add\n        /* \"#utility.yul\":25459:25506   */\n      mstore\n        /* \"#utility.yul\":25523:25654   */\n      tag_575\n        /* \"#utility.yul\":25649:25653   */\n      dup2\n        /* \"#utility.yul\":25523:25654   */\n      tag_315\n      jump\t// in\n    tag_575:\n        /* \"#utility.yul\":25515:25654   */\n      swap1\n      pop\n        /* \"#utility.yul\":25242:25661   */\n      swap2\n      swap1\n      pop\n      jump\t// out\n        /* \"#utility.yul\":25667:25999   */\n    tag_239:\n        /* \"#utility.yul\":25788:25792   */\n      0x00\n        /* \"#utility.yul\":25826:25828   */\n      0x40\n        /* \"#utility.yul\":25815:25824   */\n      dup3\n        /* \"#utility.yul\":25811:25829   */\n      add\n        /* \"#utility.yul\":25803:25829   */\n      swap1\n      pop\n        /* \"#utility.yul\":25839:25910   */\n      tag_577\n        /* \"#utility.yul\":25907:25908   */\n      0x00\n        /* \"#utility.yul\":25896:25905   */\n      dup4\n        /* \"#utility.yul\":25892:25909   */\n      add\n        /* \"#utility.yul\":25883:25889   */\n      dup6\n        /* \"#utility.yul\":25839:25910   */\n      tag_254\n      jump\t// in\n    tag_577:\n        /* \"#utility.yul\":25920:25992   */\n      tag_578\n        /* \"#utility.yul\":25988:25990   */\n      0x20\n        /* \"#utility.yul\":25977:25986   */\n      dup4\n        /* \"#utility.yul\":25973:25991   */\n      add\n        /* \"#utility.yul\":25964:25970   */\n      dup5\n        /* \"#utility.yul\":25920:25992   */\n      tag_254\n      jump\t// in\n    tag_578:\n        /* \"#utility.yul\":25667:25999   */\n      swap4\n      swap3\n      pop\n      pop\n      pop\n      jump\t// out\n\n    auxdata: 0xa2646970667358221220dd1bab421238de72da2809e3875420b6157970dbaa75badc1a6858a36175e86d64736f6c63430008160033\n}\n",
				"bytecode": {
					"linkReferences": {},
					"object": "60e060405234801562000010575f80fd5b5060405162002f0438038062002f04833981810160405281019062000036919062000236565b5f73ffffffffffffffffffffffffffffffffffffffff168273ffffffffffffffffffffffffffffffffffffffff1603620000a7576040517f08c379a00000000000000000000000000000000000000000000000000000000081526004016200009e90620002d9565b60405180910390fd5b611388811115620000ef576040517f08c379a0000000000000000000000000000000000000000000000000000000008152600401620000e69062000347565b60405180910390fd5b3373ffffffffffffffffffffffffffffffffffffffff1660808173ffffffffffffffffffffffffffffffffffffffff16815250508173ffffffffffffffffffffffffffffffffffffffff1660a08173ffffffffffffffffffffffffffffffffffffffff16815250508173ffffffffffffffffffffffffffffffffffffffff1660c08173ffffffffffffffffffffffffffffffffffffffff1681525050805f81905550505062000367565b5f80fd5b5f73ffffffffffffffffffffffffffffffffffffffff82169050919050565b5f620001c8826200019d565b9050919050565b620001da81620001bc565b8114620001e5575f80fd5b50565b5f81519050620001f881620001cf565b92915050565b5f819050919050565b6200021281620001fe565b81146200021d575f80fd5b50565b5f81519050620002308162000207565b92915050565b5f80604083850312156200024f576200024e62000199565b5b5f6200025e85828601620001e8565b9250506020620002718582860162000220565b9150509250929050565b5f82825260208201905092915050565b7f496e76616c6964204e46542061646472657373000000000000000000000000005f82015250565b5f620002c16013836200027b565b9150620002ce826200028b565b602082019050919050565b5f6020820190508181035f830152620002f281620002b3565b9050919050565b7f436f6d6d697373696f6e20746f6f2068696768000000000000000000000000005f82015250565b5f6200032f6013836200027b565b91506200033c82620002f9565b602082019050919050565b5f6020820190508181035f830152620003608162000321565b9050919050565b60805160a05160c051612b1e620003e65f395f8181610d95015261110301525f81816106ba015281816107ac0152818161086601528181610a5c015281816111a5015281816112af01528181611368015281816118c60152611b1201525f818161099701528181610b4e01528181610fee015261112c0152612b1e5ff3fe60806040526004361061010c575f3560e01c80639b83cddc11610094578063d8cba25111610063578063d8cba25114610347578063de74e57b14610383578063e6282c6e146103c2578063f3f43703146103ea578063f3fef3a31461042657610113565b80639b83cddc1461027b578063ae97dde8146102b7578063cc85a55b146102e1578063d56d229d1461031d57610113565b8063404a9ab8116100db578063404a9ab8146101ad57806351e61b25146101d557806377d3550b146101ff5780638da5cb5b146102295780639acaa6fb1461025357610113565b8063169d5a7d1461011757806324600fc3146101335780632f745c5914610149578063305a67a81461018557610113565b3661011357005b5f80fd5b610131600480360381019061012c9190611f23565b61044e565b005b34801561013e575f80fd5b50610147610b4c565b005b348015610154575f80fd5b5061016f600480360381019061016a9190611fa8565b610d92565b60405161017c9190611ff5565b60405180910390f35b348015610190575f80fd5b506101ab60048036038101906101a69190611f23565b610e35565b005b3480156101b8575f80fd5b506101d360048036038101906101ce9190611f23565b610fec565b005b3480156101e0575f80fd5b506101e9611101565b6040516101f69190612069565b60405180910390f35b34801561020a575f80fd5b50610213611125565b6040516102209190611ff5565b60405180910390f35b348015610234575f80fd5b5061023d61112a565b60405161024a91906120a2565b60405180910390f35b34801561025e575f80fd5b5061027960048036038101906102749190612100565b61114e565b005b348015610286575f80fd5b506102a1600480360381019061029c9190611f23565b611865565b6040516102ae9190612158565b60405180910390f35b3480156102c2575f80fd5b506102cb6118a4565b6040516102d89190611ff5565b60405180910390f35b3480156102ec575f80fd5b5061030760048036038101906103029190611f23565b6118aa565b6040516103149190611ff5565b60405180910390f35b348015610328575f80fd5b506103316118c4565b60405161033e9190612191565b60405180910390f35b348015610352575f80fd5b5061036d600480360381019061036891906121aa565b6118e8565b60405161037a91906122fd565b60405180910390f35b34801561038e575f80fd5b506103a960048036038101906103a49190611f23565b611a82565b6040516103b9949392919061233b565b60405180910390f35b3480156103cd575f80fd5b506103e860048036038101906103e39190611f23565b611b10565b005b3480156103f5575f80fd5b50610410600480360381019061040b91906121aa565b611ceb565b60405161041d9190611ff5565b60405180910390f35b348015610431575f80fd5b5061044c600480360381019061044791906123a8565b611d00565b005b5f60015f8381526020019081526020015f206040518060800160405290815f82015f9054906101000a900473ffffffffffffffffffffffffffffffffffffffff1673ffffffffffffffffffffffffffffffffffffffff1673ffffffffffffffffffffffffffffffffffffffff168152602001600182015f9054906101000a90046fffffffffffffffffffffffffffffffff166fffffffffffffffffffffffffffffffff166fffffffffffffffffffffffffffffffff1681526020016001820160109054906101000a90046fffffffffffffffffffffffffffffffff166fffffffffffffffffffffffffffffffff166fffffffffffffffffffffffffffffffff168152602001600282015f9054906101000a900460ff161515151581525050905080606001516105a9576040517f80cb55e200000000000000000000000000000000000000000000000000000000815260040160405180910390fd5b80604001516fffffffffffffffffffffffffffffffff1634101561060a578060400151346040517fb99e2ab7000000000000000000000000000000000000000000000000000000008152600401610601929190612416565b60405180910390fd5b805f015173ffffffffffffffffffffffffffffffffffffffff163373ffffffffffffffffffffffffffffffffffffffff1603610672576040517f50eadcb100000000000000000000000000000000000000000000000000000000815260040160405180910390fd5b5f6127105f5434610683919061246a565b61068d91906124d8565b90505f813461069c9190612508565b9050825f015173ffffffffffffffffffffffffffffffffffffffff167f000000000000000000000000000000000000000000000000000000000000000073ffffffffffffffffffffffffffffffffffffffff16636352211e85602001516040518263ffffffff1660e01b8152600401610715919061253b565b602060405180830381865afa158015610730573d5f803e3d5ffd5b505050506040513d601f19601f820116820180604052508101906107549190612568565b73ffffffffffffffffffffffffffffffffffffffff16146107aa576040517f08c379a00000000000000000000000000000000000000000000000000000000081526004016107a1906125ed565b60405180910390fd5b7f000000000000000000000000000000000000000000000000000000000000000073ffffffffffffffffffffffffffffffffffffffff1663e985e9c5845f0151306040518363ffffffff1660e01b815260040161080892919061260b565b602060405180830381865afa158015610823573d5f803e3d5ffd5b505050506040513d601f19601f82011682018060405250810190610847919061265c565b8061091857503073ffffffffffffffffffffffffffffffffffffffff167f000000000000000000000000000000000000000000000000000000000000000073ffffffffffffffffffffffffffffffffffffffff1663081812fc85602001516040518263ffffffff1660e01b81526004016108c1919061253b565b602060405180830381865afa1580156108dc573d5f803e3d5ffd5b505050506040513d601f19601f820116820180604052508101906109009190612568565b73ffffffffffffffffffffffffffffffffffffffff16145b610957576040517f08c379a000000000000000000000000000000000000000000000000000000000815260040161094e906126d1565b60405180910390fd5b5f83606001901515908115158152505060025f84602001516fffffffffffffffffffffffffffffffff1681526020019081526020015f205f90558160035f7f000000000000000000000000000000000000000000000000000000000000000073ffffffffffffffffffffffffffffffffffffffff1673ffffffffffffffffffffffffffffffffffffffff1681526020019081526020015f205f8282546109fd91906126ef565b925050819055508060035f855f015173ffffffffffffffffffffffffffffffffffffffff1673ffffffffffffffffffffffffffffffffffffffff1681526020019081526020015f205f828254610a5391906126ef565b925050819055507f000000000000000000000000000000000000000000000000000000000000000073ffffffffffffffffffffffffffffffffffffffff166342842e0e845f01513386602001516040518463ffffffff1660e01b8152600401610abe93929190612722565b5f604051808303815f87803b158015610ad5575f80fd5b505af1158015610ae7573d5f803e3d5ffd5b505050503373ffffffffffffffffffffffffffffffffffffffff16847fe29b93709a7ac5e91a6057482d1df985483725988417e08dec23377234003c808560200151866040015142604051610b3e93929190612757565b60405180910390a350505050565b7f000000000000000000000000000000000000000000000000000000000000000073ffffffffffffffffffffffffffffffffffffffff163373ffffffffffffffffffffffffffffffffffffffff1614610bdc57336040517f245aecd3000000000000000000000000000000000000000000000000000000008152600401610bd3919061278c565b60405180910390fd5b5f60035f3373ffffffffffffffffffffffffffffffffffffffff1673ffffffffffffffffffffffffffffffffffffffff1681526020019081526020015f205490505f8103610c56576040517f81b5ad6800000000000000000000000000000000000000000000000000000000815260040160405180910390fd5b5f60035f3373ffffffffffffffffffffffffffffffffffffffff1673ffffffffffffffffffffffffffffffffffffffff1681526020019081526020015f20819055505f3373ffffffffffffffffffffffffffffffffffffffff1682604051610cbd906127d2565b5f6040518083038185875af1925050503d805f8114610cf7576040519150601f19603f3d011682016040523d82523d5f602084013e610cfc565b606091505b5050905080610d40576040517f08c379a0000000000000000000000000000000000000000000000000000000008152600401610d3790612830565b60405180910390fd5b3373ffffffffffffffffffffffffffffffffffffffff167f6141b54b56b8a52a8c6f5cd2a857f6117b18ffbf4d46bd3106f300a839cbf5ea83604051610d869190611ff5565b60405180910390a25050565b5f7f000000000000000000000000000000000000000000000000000000000000000073ffffffffffffffffffffffffffffffffffffffff16632f745c5984846040518363ffffffff1660e01b8152600401610dee92919061284e565b602060405180830381865afa158015610e09573d5f803e3d5ffd5b505050506040513d601f19601f82011682018060405250810190610e2d9190612889565b905092915050565b5f60015f8381526020019081526020015f209050806002015f9054906101000a900460ff16610e90576040517f80cb55e200000000000000000000000000000000000000000000000000000000815260040160405180910390fd5b3373ffffffffffffffffffffffffffffffffffffffff16815f015f9054906101000a900473ffffffffffffffffffffffffffffffffffffffff1673ffffffffffffffffffffffffffffffffffffffff1614610f4457805f015f9054906101000a900473ffffffffffffffffffffffffffffffffffffffff166040517fe38d022a000000000000000000000000000000000000000000000000000000008152600401610f3b919061278c565b60405180910390fd5b5f816002015f6101000a81548160ff02191690831515021790555060025f826001015f9054906101000a90046fffffffffffffffffffffffffffffffff166fffffffffffffffffffffffffffffffff1681526020019081526020015f205f90553373ffffffffffffffffffffffffffffffffffffffff16827f8e25282255ab31897df2b0456bb993ac7f84d376861aefd84901d2d63a7428a260405160405180910390a35050565b7f000000000000000000000000000000000000000000000000000000000000000073ffffffffffffffffffffffffffffffffffffffff163373ffffffffffffffffffffffffffffffffffffffff161461107c57336040517f245aecd3000000000000000000000000000000000000000000000000000000008152600401611073919061278c565b60405180910390fd5b6113888111156110c1576040517f08c379a00000000000000000000000000000000000000000000000000000000081526004016110b8906128fe565b60405180910390fd5b805f819055507f13f60dd2b588490608c3ff1932a3daeb4087f3d5af04b97e5c2a16b5b4c0302e816040516110f69190611ff5565b60405180910390a150565b7f000000000000000000000000000000000000000000000000000000000000000081565b5f5481565b7f000000000000000000000000000000000000000000000000000000000000000081565b5f816fffffffffffffffffffffffffffffffff16116111a2576040517f08c379a000000000000000000000000000000000000000000000000000000000815260040161119990612966565b60405180910390fd5b5f7f000000000000000000000000000000000000000000000000000000000000000073ffffffffffffffffffffffffffffffffffffffff16636352211e846040518263ffffffff1660e01b81526004016111fc919061253b565b602060405180830381865afa158015611217573d5f803e3d5ffd5b505050506040513d601f19601f8201168201806040525081019061123b9190612568565b90503373ffffffffffffffffffffffffffffffffffffffff168173ffffffffffffffffffffffffffffffffffffffff16146112ad57806040517f928730cc0000000000000000000000000000000000000000000000000000000081526004016112a4919061278c565b60405180910390fd5b7f000000000000000000000000000000000000000000000000000000000000000073ffffffffffffffffffffffffffffffffffffffff1663e985e9c533306040518363ffffffff1660e01b815260040161130892919061260b565b602060405180830381865afa158015611323573d5f803e3d5ffd5b505050506040513d601f19601f82011682018060405250810190611347919061265c565b15801561141757503073ffffffffffffffffffffffffffffffffffffffff167f000000000000000000000000000000000000000000000000000000000000000073ffffffffffffffffffffffffffffffffffffffff1663081812fc856040518263ffffffff1660e01b81526004016113bf919061253b565b602060405180830381865afa1580156113da573d5f803e3d5ffd5b505050506040513d601f19601f820116820180604052508101906113fe9190612568565b73ffffffffffffffffffffffffffffffffffffffff1614155b1561144e576040517fc19f17a900000000000000000000000000000000000000000000000000000000815260040160405180910390fd5b5f60025f856fffffffffffffffffffffffffffffffff1681526020019081526020015f2054146114aa576040517fa3d582ec00000000000000000000000000000000000000000000000000000000815260040160405180910390fd5b5f8333426040516020016114c093929190612a1d565b604051602081830303815290604052805190602001205f1c905060405180608001604052803373ffffffffffffffffffffffffffffffffffffffff168152602001856fffffffffffffffffffffffffffffffff168152602001846fffffffffffffffffffffffffffffffff1681526020016001151581525060015f8381526020019081526020015f205f820151815f015f6101000a81548173ffffffffffffffffffffffffffffffffffffffff021916908373ffffffffffffffffffffffffffffffffffffffff1602179055506020820151816001015f6101000a8154816fffffffffffffffffffffffffffffffff02191690836fffffffffffffffffffffffffffffffff16021790555060408201518160010160106101000a8154816fffffffffffffffffffffffffffffffff02191690836fffffffffffffffffffffffffffffffff1602179055506060820151816002015f6101000a81548160ff0219169083151502179055509050508060025f866fffffffffffffffffffffffffffffffff1681526020019081526020015f208190555060045f3373ffffffffffffffffffffffffffffffffffffffff1673ffffffffffffffffffffffffffffffffffffffff1681526020019081526020015f2060015f8381526020019081526020015f20908060018154018082558091505060019003905f5260205f2090600302015f909190919091505f82015f9054906101000a900473ffffffffffffffffffffffffffffffffffffffff16815f015f6101000a81548173ffffffffffffffffffffffffffffffffffffffff021916908373ffffffffffffffffffffffffffffffffffffffff160217905550600182015f9054906101000a90046fffffffffffffffffffffffffffffffff16816001015f6101000a8154816fffffffffffffffffffffffffffffffff02191690836fffffffffffffffffffffffffffffffff1602179055506001820160109054906101000a90046fffffffffffffffffffffffffffffffff168160010160106101000a8154816fffffffffffffffffffffffffffffffff02191690836fffffffffffffffffffffffffffffffff160217905550600282015f9054906101000a900460ff16816002015f6101000a81548160ff02191690831515021790555050503373ffffffffffffffffffffffffffffffffffffffff16817fa3941cfa07eecf2734875ab71cea0e47395be644da6e17b039a7e29efba74ef986864260405161185793929190612757565b60405180910390a350505050565b5f8060025f8481526020019081526020015f2054905060015f8281526020019081526020015f206002015f9054906101000a900460ff16915050919050565b61138881565b5f60025f8381526020019081526020015f20549050919050565b7f000000000000000000000000000000000000000000000000000000000000000081565b606060045f8373ffffffffffffffffffffffffffffffffffffffff1673ffffffffffffffffffffffffffffffffffffffff1681526020019081526020015f20805480602002602001604051908101604052809291908181526020015f905b82821015611a77578382905f5260205f2090600302016040518060800160405290815f82015f9054906101000a900473ffffffffffffffffffffffffffffffffffffffff1673ffffffffffffffffffffffffffffffffffffffff1673ffffffffffffffffffffffffffffffffffffffff168152602001600182015f9054906101000a90046fffffffffffffffffffffffffffffffff166fffffffffffffffffffffffffffffffff166fffffffffffffffffffffffffffffffff1681526020016001820160109054906101000a90046fffffffffffffffffffffffffffffffff166fffffffffffffffffffffffffffffffff166fffffffffffffffffffffffffffffffff168152602001600282015f9054906101000a900460ff16151515158152505081526020019060010190611946565b505050509050919050565b6001602052805f5260405f205f91509050805f015f9054906101000a900473ffffffffffffffffffffffffffffffffffffffff1690806001015f9054906101000a90046fffffffffffffffffffffffffffffffff16908060010160109054906101000a90046fffffffffffffffffffffffffffffffff1690806002015f9054906101000a900460ff16905084565b7f000000000000000000000000000000000000000000000000000000000000000073ffffffffffffffffffffffffffffffffffffffff16636352211e826040518263ffffffff1660e01b8152600401611b699190611ff5565b602060405180830381865afa158015611b84573d5f803e3d5ffd5b505050506040513d601f19601f82011682018060405250810190611ba89190612568565b73ffffffffffffffffffffffffffffffffffffffff163373ffffffffffffffffffffffffffffffffffffffff1614611c1757336040517f928730cc000000000000000000000000000000000000000000000000000000008152600401611c0e919061278c565b60405180910390fd5b60015f8281526020019081526020015f206002015f9054906101000a900460ff16611c6e576040517f80cb55e200000000000000000000000000000000000000000000000000000000815260040160405180910390fd5b5f60015f8381526020019081526020015f206002015f6101000a81548160ff0219169083151502179055503373ffffffffffffffffffffffffffffffffffffffff16817f25331cbadf10d7fde7ba3cb8e4a9ceb748c5c0a5f37f23da51ce1a4142fc8c0042604051611ce09190611ff5565b60405180910390a350565b6003602052805f5260405f205f915090505481565b5f8111611d42576040517f08c379a0000000000000000000000000000000000000000000000000000000008152600401611d3990612aa3565b60405180910390fd5b60035f3373ffffffffffffffffffffffffffffffffffffffff1673ffffffffffffffffffffffffffffffffffffffff1681526020019081526020015f2054811115611e03578060035f3373ffffffffffffffffffffffffffffffffffffffff1673ffffffffffffffffffffffffffffffffffffffff1681526020019081526020015f20546040517f03eb8b54000000000000000000000000000000000000000000000000000000008152600401611dfa929190612ac1565b60405180910390fd5b8173ffffffffffffffffffffffffffffffffffffffff166108fc8290811502906040515f60405180830381858888f19350505050158015611e46573d5f803e3d5ffd5b508060035f3373ffffffffffffffffffffffffffffffffffffffff1673ffffffffffffffffffffffffffffffffffffffff1681526020019081526020015f205f828254611e939190612508565b925050819055508173ffffffffffffffffffffffffffffffffffffffff167f6141b54b56b8a52a8c6f5cd2a857f6117b18ffbf4d46bd3106f300a839cbf5ea82604051611ee09190611ff5565b60405180910390a25050565b5f80fd5b5f819050919050565b611f0281611ef0565b8114611f0c575f80fd5b50565b5f81359050611f1d81611ef9565b92915050565b5f60208284031215611f3857611f37611eec565b5b5f611f4584828501611f0f565b91505092915050565b5f73ffffffffffffffffffffffffffffffffffffffff82169050919050565b5f611f7782611f4e565b9050919050565b611f8781611f6d565b8114611f91575f80fd5b50565b5f81359050611fa281611f7e565b92915050565b5f8060408385031215611fbe57611fbd611eec565b5b5f611fcb85828601611f94565b9250506020611fdc85828601611f0f565b9150509250929050565b611fef81611ef0565b82525050565b5f6020820190506120085f830184611fe6565b92915050565b5f819050919050565b5f61203161202c61202784611f4e565b61200e565b611f4e565b9050919050565b5f61204282612017565b9050919050565b5f61205382612038565b9050919050565b61206381612049565b82525050565b5f60208201905061207c5f83018461205a565b92915050565b5f61208c82611f4e565b9050919050565b61209c81612082565b82525050565b5f6020820190506120b55f830184612093565b92915050565b5f6fffffffffffffffffffffffffffffffff82169050919050565b6120df816120bb565b81146120e9575f80fd5b50565b5f813590506120fa816120d6565b92915050565b5f806040838503121561211657612115611eec565b5b5f612123858286016120ec565b9250506020612134858286016120ec565b9150509250929050565b5f8115159050919050565b6121528161213e565b82525050565b5f60208201905061216b5f830184612149565b92915050565b5f61217b82612038565b9050919050565b61218b81612171565b82525050565b5f6020820190506121a45f830184612182565b92915050565b5f602082840312156121bf576121be611eec565b5b5f6121cc84828501611f94565b91505092915050565b5f81519050919050565b5f82825260208201905092915050565b5f819050602082019050919050565b61220781611f6d565b82525050565b612216816120bb565b82525050565b6122258161213e565b82525050565b608082015f82015161223f5f8501826121fe565b506020820151612252602085018261220d565b506040820151612265604085018261220d565b506060820151612278606085018261221c565b50505050565b5f612289838361222b565b60808301905092915050565b5f602082019050919050565b5f6122ab826121d5565b6122b581856121df565b93506122c0836121ef565b805f5b838110156122f05781516122d7888261227e565b97506122e283612295565b9250506001810190506122c3565b5085935050505092915050565b5f6020820190508181035f83015261231581846122a1565b905092915050565b61232681611f6d565b82525050565b612335816120bb565b82525050565b5f60808201905061234e5f83018761231d565b61235b602083018661232c565b612368604083018561232c565b6123756060830184612149565b95945050505050565b61238781612082565b8114612391575f80fd5b50565b5f813590506123a28161237e565b92915050565b5f80604083850312156123be576123bd611eec565b5b5f6123cb85828601612394565b92505060206123dc85828601611f0f565b9150509250929050565b5f6124006123fb6123f6846120bb565b61200e565b611ef0565b9050919050565b612410816123e6565b82525050565b5f6040820190506124295f830185612407565b6124366020830184611fe6565b9392505050565b7f4e487b71000000000000000000000000000000000000000000000000000000005f52601160045260245ffd5b5f61247482611ef0565b915061247f83611ef0565b925082820261248d81611ef0565b915082820484148315176124a4576124a361243d565b5b5092915050565b7f4e487b71000000000000000000000000000000000000000000000000000000005f52601260045260245ffd5b5f6124e282611ef0565b91506124ed83611ef0565b9250826124fd576124fc6124ab565b5b828204905092915050565b5f61251282611ef0565b915061251d83611ef0565b92508282039050818111156125355761253461243d565b5b92915050565b5f60208201905061254e5f830184612407565b92915050565b5f8151905061256281611f7e565b92915050565b5f6020828403121561257d5761257c611eec565b5b5f61258a84828501612554565b91505092915050565b5f82825260208201905092915050565b7f53656c6c6572206e6f206c6f6e676572206f776e73204e4654000000000000005f82015250565b5f6125d7601983612593565b91506125e2826125a3565b602082019050919050565b5f6020820190508181035f830152612604816125cb565b9050919050565b5f60408201905061261e5f83018561231d565b61262b602083018461231d565b9392505050565b61263b8161213e565b8114612645575f80fd5b50565b5f8151905061265681612632565b92915050565b5f6020828403121561267157612670611eec565b5b5f61267e84828501612648565b91505092915050565b7f4e6f7420617070726f76656400000000000000000000000000000000000000005f82015250565b5f6126bb600c83612593565b91506126c682612687565b602082019050919050565b5f6020820190508181035f8301526126e8816126af565b9050919050565b5f6126f982611ef0565b915061270483611ef0565b925082820190508082111561271c5761271b61243d565b5b92915050565b5f6060820190506127355f83018661231d565b612742602083018561231d565b61274f6040830184612407565b949350505050565b5f60608201905061276a5f830186612407565b6127776020830185612407565b6127846040830184611fe6565b949350505050565b5f60208201905061279f5f83018461231d565b92915050565b5f81905092915050565b50565b5f6127bd5f836127a5565b91506127c8826127af565b5f82019050919050565b5f6127dc826127b2565b9150819050919050565b7f5472616e73666572206661696c656400000000000000000000000000000000005f82015250565b5f61281a600f83612593565b9150612825826127e6565b602082019050919050565b5f6020820190508181035f8301526128478161280e565b9050919050565b5f6040820190506128615f83018561231d565b61286e6020830184611fe6565b9392505050565b5f8151905061288381611ef9565b92915050565b5f6020828403121561289e5761289d611eec565b5b5f6128ab84828501612875565b91505092915050565b7f436f6d6d697373696f6e20746f6f2068696768000000000000000000000000005f82015250565b5f6128e8601383612593565b91506128f3826128b4565b602082019050919050565b5f6020820190508181035f830152612915816128dc565b9050919050565b7f5072696365206d757374206265203e20300000000000000000000000000000005f82015250565b5f612950601183612593565b915061295b8261291c565b602082019050919050565b5f6020820190508181035f83015261297d81612944565b9050919050565b5f8160801b9050919050565b5f61299a82612984565b9050919050565b6129b26129ad826120bb565b612990565b82525050565b5f8160601b9050919050565b5f6129ce826129b8565b9050919050565b5f6129df826129c4565b9050919050565b6129f76129f282611f6d565b6129d5565b82525050565b5f819050919050565b612a17612a1282611ef0565b6129fd565b82525050565b5f612a2882866129a1565b601082019150612a3882856129e6565b601482019150612a488284612a06565b602082019150819050949350505050565b7f416d6f756e74206d757374206265203e203000000000000000000000000000005f82015250565b5f612a8d601283612593565b9150612a9882612a59565b602082019050919050565b5f6020820190508181035f830152612aba81612a81565b9050919050565b5f604082019050612ad45f830185611fe6565b612ae16020830184611fe6565b939250505056fea2646970667358221220dd1bab421238de72da2809e3875420b6157970dbaa75badc1a6858a36175e86d64736f6c63430008160033",
					"opcodes": "PUSH1 0xE0 PUSH1 0x40 MSTORE CALLVALUE DUP1 ISZERO PUSH3 0x10 JUMPI PUSH0 DUP1 REVERT JUMPDEST POP PUSH1 0x40 MLOAD PUSH3 0x2F04 CODESIZE SUB DUP1 PUSH3 0x2F04 DUP4 CODECOPY DUP2 DUP2 ADD PUSH1 0x40 MSTORE DUP2 ADD SWAP1 PUSH3 0x36 SWAP2 SWAP1 PUSH3 0x236 JUMP JUMPDEST PUSH0 PUSH20 0xFFFFFFFFFFFFFFFFFFFFFFFFFFFFFFFFFFFFFFFF AND DUP3 PUSH20 0xFFFFFFFFFFFFFFFFFFFFFFFFFFFFFFFFFFFFFFFF AND SUB PUSH3 0xA7 JUMPI PUSH1 0x40 MLOAD PUSH32 0x8C379A000000000000000000000000000000000000000000000000000000000 DUP2 MSTORE PUSH1 0x4 ADD PUSH3 0x9E SWAP1 PUSH3 0x2D9 JUMP JUMPDEST PUSH1 0x40 MLOAD DUP1 SWAP2 SUB SWAP1 REVERT JUMPDEST PUSH2 0x1388 DUP2 GT ISZERO PUSH3 0xEF JUMPI PUSH1 0x40 MLOAD PUSH32 0x8C379A000000000000000000000000000000000000000000000000000000000 DUP2 MSTORE PUSH1 0x4 ADD PUSH3 0xE6 SWAP1 PUSH3 0x347 JUMP JUMPDEST PUSH1 0x40 MLOAD DUP1 SWAP2 SUB SWAP1 REVERT JUMPDEST CALLER PUSH20 0xFFFFFFFFFFFFFFFFFFFFFFFFFFFFFFFFFFFFFFFF AND PUSH1 0x80 DUP2 PUSH20 0xFFFFFFFFFFFFFFFFFFFFFFFFFFFFFFFFFFFFFFFF AND DUP2 MSTORE POP POP DUP2 PUSH20 0xFFFFFFFFFFFFFFFFFFFFFFFFFFFFFFFFFFFFFFFF AND PUSH1 0xA0 DUP2 PUSH20 0xFFFFFFFFFFFFFFFFFFFFFFFFFFFFFFFFFFFFFFFF AND DUP2 MSTORE POP POP DUP2 PUSH20 0xFFFFFFFFFFFFFFFFFFFFFFFFFFFFFFFFFFFFFFFF AND PUSH1 0xC0 DUP2 PUSH20 0xFFFFFFFFFFFFFFFFFFFFFFFFFFFFFFFFFFFFFFFF AND DUP2 MSTORE POP POP DUP1 PUSH0 DUP2 SWAP1 SSTORE POP POP POP PUSH3 0x367 JUMP JUMPDEST PUSH0 DUP1 REVERT JUMPDEST PUSH0 PUSH20 0xFFFFFFFFFFFFFFFFFFFFFFFFFFFFFFFFFFFFFFFF DUP3 AND SWAP1 POP SWAP2 SWAP1 POP JUMP JUMPDEST PUSH0 PUSH3 0x1C8 DUP3 PUSH3 0x19D JUMP JUMPDEST SWAP1 POP SWAP2 SWAP1 POP JUMP JUMPDEST PUSH3 0x1DA DUP2 PUSH3 0x1BC JUMP JUMPDEST DUP2 EQ PUSH3 0x1E5 JUMPI PUSH0 DUP1 REVERT JUMPDEST POP JUMP JUMPDEST PUSH0 DUP2 MLOAD SWAP1 POP PUSH3 0x1F8 DUP2 PUSH3 0x1CF JUMP JUMPDEST SWAP3 SWAP2 POP POP JUMP JUMPDEST PUSH0 DUP2 SWAP1 POP SWAP2 SWAP1 POP JUMP JUMPDEST PUSH3 0x212 DUP2 PUSH3 0x1FE JUMP JUMPDEST DUP2 EQ PUSH3 0x21D JUMPI PUSH0 DUP1 REVERT JUMPDEST POP JUMP JUMPDEST PUSH0 DUP2 MLOAD SWAP1 POP PUSH3 0x230 DUP2 PUSH3 0x207 JUMP JUMPDEST SWAP3 SWAP2 POP POP JUMP JUMPDEST PUSH0 DUP1 PUSH1 0x40 DUP4 DUP6 SUB SLT ISZERO PUSH3 0x24F JUMPI PUSH3 0x24E PUSH3 0x199 JUMP JUMPDEST JUMPDEST PUSH0 PUSH3 0x25E DUP6 DUP3 DUP7 ADD PUSH3 0x1E8 JUMP JUMPDEST SWAP3 POP POP PUSH1 0x20 PUSH3 0x271 DUP6 DUP3 DUP7 ADD PUSH3 0x220 JUMP JUMPDEST SWAP2 POP POP SWAP3 POP SWAP3 SWAP1 POP JUMP JUMPDEST PUSH0 DUP3 DUP3 MSTORE PUSH1 0x20 DUP3 ADD SWAP1 POP SWAP3 SWAP2 POP POP JUMP JUMPDEST PUSH32 0x496E76616C6964204E4654206164647265737300000000000000000000000000 PUSH0 DUP3 ADD MSTORE POP JUMP JUMPDEST PUSH0 PUSH3 0x2C1 PUSH1 0x13 DUP4 PUSH3 0x27B JUMP JUMPDEST SWAP2 POP PUSH3 0x2CE DUP3 PUSH3 0x28B JUMP JUMPDEST PUSH1 0x20 DUP3 ADD SWAP1 POP SWAP2 SWAP1 POP JUMP JUMPDEST PUSH0 PUSH1 0x20 DUP3 ADD SWAP1 POP DUP2 DUP2 SUB PUSH0 DUP4 ADD MSTORE PUSH3 0x2F2 DUP2 PUSH3 0x2B3 JUMP JUMPDEST SWAP1 POP SWAP2 SWAP1 POP JUMP JUMPDEST PUSH32 0x436F6D6D697373696F6E20746F6F206869676800000000000000000000000000 PUSH0 DUP3 ADD MSTORE POP JUMP JUMPDEST PUSH0 PUSH3 0x32F PUSH1 0x13 DUP4 PUSH3 0x27B JUMP JUMPDEST SWAP2 POP PUSH3 0x33C DUP3 PUSH3 0x2F9 JUMP JUMPDEST PUSH1 0x20 DUP3 ADD SWAP1 POP SWAP2 SWAP1 POP JUMP JUMPDEST PUSH0 PUSH1 0x20 DUP3 ADD SWAP1 POP DUP2 DUP2 SUB PUSH0 DUP4 ADD MSTORE PUSH3 0x360 DUP2 PUSH3 0x321 JUMP JUMPDEST SWAP1 POP SWAP2 SWAP1 POP JUMP JUMPDEST PUSH1 0x80 MLOAD PUSH1 0xA0 MLOAD PUSH1 0xC0 MLOAD PUSH2 0x2B1E PUSH3 0x3E6 PUSH0 CODECOPY PUSH0 DUP2 DUP2 PUSH2 0xD95 ADD MSTORE PUSH2 0x1103 ADD MSTORE PUSH0 DUP2 DUP2 PUSH2 0x6BA ADD MSTORE DUP2 DUP2 PUSH2 0x7AC ADD MSTORE DUP2 DUP2 PUSH2 0x866 ADD MSTORE DUP2 DUP2 PUSH2 0xA5C ADD MSTORE DUP2 DUP2 PUSH2 0x11A5 ADD MSTORE DUP2 DUP2 PUSH2 0x12AF ADD MSTORE DUP2 DUP2 PUSH2 0x1368 ADD MSTORE DUP2 DUP2 PUSH2 0x18C6 ADD MSTORE PUSH2 0x1B12 ADD MSTORE PUSH0 DUP2 DUP2 PUSH2 0x997 ADD MSTORE DUP2 DUP2 PUSH2 0xB4E ADD MSTORE DUP2 DUP2 PUSH2 0xFEE ADD MSTORE PUSH2 0x112C ADD MSTORE PUSH2 0x2B1E PUSH0 RETURN INVALID PUSH1 0x80 PUSH1 0x40 MSTORE PUSH1 0x4 CALLDATASIZE LT PUSH2 0x10C JUMPI PUSH0 CALLDATALOAD PUSH1 0xE0 SHR DUP1 PUSH4 0x9B83CDDC GT PUSH2 0x94 JUMPI DUP1 PUSH4 0xD8CBA251 GT PUSH2 0x63 JUMPI DUP1 PUSH4 0xD8CBA251 EQ PUSH2 0x347 JUMPI DUP1 PUSH4 0xDE74E57B EQ PUSH2 0x383 JUMPI DUP1 PUSH4 0xE6282C6E EQ PUSH2 0x3C2 JUMPI DUP1 PUSH4 0xF3F43703 EQ PUSH2 0x3EA JUMPI DUP1 PUSH4 0xF3FEF3A3 EQ PUSH2 0x426 JUMPI PUSH2 0x113 JUMP JUMPDEST DUP1 PUSH4 0x9B83CDDC EQ PUSH2 0x27B JUMPI DUP1 PUSH4 0xAE97DDE8 EQ PUSH2 0x2B7 JUMPI DUP1 PUSH4 0xCC85A55B EQ PUSH2 0x2E1 JUMPI DUP1 PUSH4 0xD56D229D EQ PUSH2 0x31D JUMPI PUSH2 0x113 JUMP JUMPDEST DUP1 PUSH4 0x404A9AB8 GT PUSH2 0xDB JUMPI DUP1 PUSH4 0x404A9AB8 EQ PUSH2 0x1AD JUMPI DUP1 PUSH4 0x51E61B25 EQ PUSH2 0x1D5 JUMPI DUP1 PUSH4 0x77D3550B EQ PUSH2 0x1FF JUMPI DUP1 PUSH4 0x8DA5CB5B EQ PUSH2 0x229 JUMPI DUP1 PUSH4 0x9ACAA6FB EQ PUSH2 0x253 JUMPI PUSH2 0x113 JUMP JUMPDEST DUP1 PUSH4 0x169D5A7D EQ PUSH2 0x117 JUMPI DUP1 PUSH4 0x24600FC3 EQ PUSH2 0x133 JUMPI DUP1 PUSH4 0x2F745C59 EQ PUSH2 0x149 JUMPI DUP1 PUSH4 0x305A67A8 EQ PUSH2 0x185 JUMPI PUSH2 0x113 JUMP JUMPDEST CALLDATASIZE PUSH2 0x113 JUMPI STOP JUMPDEST PUSH0 DUP1 REVERT JUMPDEST PUSH2 0x131 PUSH1 0x4 DUP1 CALLDATASIZE SUB DUP2 ADD SWAP1 PUSH2 0x12C SWAP2 SWAP1 PUSH2 0x1F23 JUMP JUMPDEST PUSH2 0x44E JUMP JUMPDEST STOP JUMPDEST CALLVALUE DUP1 ISZERO PUSH2 0x13E JUMPI PUSH0 DUP1 REVERT JUMPDEST POP PUSH2 0x147 PUSH2 0xB4C JUMP JUMPDEST STOP JUMPDEST CALLVALUE DUP1 ISZERO PUSH2 0x154 JUMPI PUSH0 DUP1 REVERT JUMPDEST POP PUSH2 0x16F PUSH1 0x4 DUP1 CALLDATASIZE SUB DUP2 ADD SWAP1 PUSH2 0x16A SWAP2 SWAP1 PUSH2 0x1FA8 JUMP JUMPDEST PUSH2 0xD92 JUMP JUMPDEST PUSH1 0x40 MLOAD PUSH2 0x17C SWAP2 SWAP1 PUSH2 0x1FF5 JUMP JUMPDEST PUSH1 0x40 MLOAD DUP1 SWAP2 SUB SWAP1 RETURN JUMPDEST CALLVALUE DUP1 ISZERO PUSH2 0x190 JUMPI PUSH0 DUP1 REVERT JUMPDEST POP PUSH2 0x1AB PUSH1 0x4 DUP1 CALLDATASIZE SUB DUP2 ADD SWAP1 PUSH2 0x1A6 SWAP2 SWAP1 PUSH2 0x1F23 JUMP JUMPDEST PUSH2 0xE35 JUMP JUMPDEST STOP JUMPDEST CALLVALUE DUP1 ISZERO PUSH2 0x1B8 JUMPI PUSH0 DUP1 REVERT JUMPDEST POP PUSH2 0x1D3 PUSH1 0x4 DUP1 CALLDATASIZE SUB DUP2 ADD SWAP1 PUSH2 0x1CE SWAP2 SWAP1 PUSH2 0x1F23 JUMP JUMPDEST PUSH2 0xFEC JUMP JUMPDEST STOP JUMPDEST CALLVALUE DUP1 ISZERO PUSH2 0x1E0 JUMPI PUSH0 DUP1 REVERT JUMPDEST POP PUSH2 0x1E9 PUSH2 0x1101 JUMP JUMPDEST PUSH1 0x40 MLOAD PUSH2 0x1F6 SWAP2 SWAP1 PUSH2 0x2069 JUMP JUMPDEST PUSH1 0x40 MLOAD DUP1 SWAP2 SUB SWAP1 RETURN JUMPDEST CALLVALUE DUP1 ISZERO PUSH2 0x20A JUMPI PUSH0 DUP1 REVERT JUMPDEST POP PUSH2 0x213 PUSH2 0x1125 JUMP JUMPDEST PUSH1 0x40 MLOAD PUSH2 0x220 SWAP2 SWAP1 PUSH2 0x1FF5 JUMP JUMPDEST PUSH1 0x40 MLOAD DUP1 SWAP2 SUB SWAP1 RETURN JUMPDEST CALLVALUE DUP1 ISZERO PUSH2 0x234 JUMPI PUSH0 DUP1 REVERT JUMPDEST POP PUSH2 0x23D PUSH2 0x112A JUMP JUMPDEST PUSH1 0x40 MLOAD PUSH2 0x24A SWAP2 SWAP1 PUSH2 0x20A2 JUMP JUMPDEST PUSH1 0x40 MLOAD DUP1 SWAP2 SUB SWAP1 RETURN JUMPDEST CALLVALUE DUP1 ISZERO PUSH2 0x25E JUMPI PUSH0 DUP1 REVERT JUMPDEST POP PUSH2 0x279 PUSH1 0x4 DUP1 CALLDATASIZE SUB DUP2 ADD SWAP1 PUSH2 0x274 SWAP2 SWAP1 PUSH2 0x2100 JUMP JUMPDEST PUSH2 0x114E JUMP JUMPDEST STOP JUMPDEST CALLVALUE DUP1 ISZERO PUSH2 0x286 JUMPI PUSH0 DUP1 REVERT JUMPDEST POP PUSH2 0x2A1 PUSH1 0x4 DUP1 CALLDATASIZE SUB DUP2 ADD SWAP1 PUSH2 0x29C SWAP2 SWAP1 PUSH2 0x1F23 JUMP JUMPDEST PUSH2 0x1865 JUMP JUMPDEST PUSH1 0x40 MLOAD PUSH2 0x2AE SWAP2 SWAP1 PUSH2 0x2158 JUMP JUMPDEST PUSH1 0x40 MLOAD DUP1 SWAP2 SUB SWAP1 RETURN JUMPDEST CALLVALUE DUP1 ISZERO PUSH2 0x2C2 JUMPI PUSH0 DUP1 REVERT JUMPDEST POP PUSH2 0x2CB PUSH2 0x18A4 JUMP JUMPDEST PUSH1 0x40 MLOAD PUSH2 0x2D8 SWAP2 SWAP1 PUSH2 0x1FF5 JUMP JUMPDEST PUSH1 0x40 MLOAD DUP1 SWAP2 SUB SWAP1 RETURN JUMPDEST CALLVALUE DUP1 ISZERO PUSH2 0x2EC JUMPI PUSH0 DUP1 REVERT JUMPDEST POP PUSH2 0x307 PUSH1 0x4 DUP1 CALLDATASIZE SUB DUP2 ADD SWAP1 PUSH2 0x302 SWAP2 SWAP1 PUSH2 0x1F23 JUMP JUMPDEST PUSH2 0x18AA JUMP JUMPDEST PUSH1 0x40 MLOAD PUSH2 0x314 SWAP2 SWAP1 PUSH2 0x1FF5 JUMP JUMPDEST PUSH1 0x40 MLOAD DUP1 SWAP2 SUB SWAP1 RETURN JUMPDEST CALLVALUE DUP1 ISZERO PUSH2 0x328 JUMPI PUSH0 DUP1 REVERT JUMPDEST POP PUSH2 0x331 PUSH2 0x18C4 JUMP JUMPDEST PUSH1 0x40 MLOAD PUSH2 0x33E SWAP2 SWAP1 PUSH2 0x2191 JUMP JUMPDEST PUSH1 0x40 MLOAD DUP1 SWAP2 SUB SWAP1 RETURN JUMPDEST CALLVALUE DUP1 ISZERO PUSH2 0x352 JUMPI PUSH0 DUP1 REVERT JUMPDEST POP PUSH2 0x36D PUSH1 0x4 DUP1 CALLDATASIZE SUB DUP2 ADD SWAP1 PUSH2 0x368 SWAP2 SWAP1 PUSH2 0x21AA JUMP JUMPDEST PUSH2 0x18E8 JUMP JUMPDEST PUSH1 0x40 MLOAD PUSH2 0x37A SWAP2 SWAP1 PUSH2 0x22FD JUMP JUMPDEST PUSH1 0x40 MLOAD DUP1 SWAP2 SUB SWAP1 RETURN JUMPDEST CALLVALUE DUP1 ISZERO PUSH2 0x38E JUMPI PUSH0 DUP1 REVERT JUMPDEST POP PUSH2 0x3A9 PUSH1 0x4 DUP1 CALLDATASIZE SUB DUP2 ADD SWAP1 PUSH2 0x3A4 SWAP2 SWAP1 PUSH2 0x1F23 JUMP JUMPDEST PUSH2 0x1A82 JUMP JUMPDEST PUSH1 0x40 MLOAD PUSH2 0x3B9 SWAP5 SWAP4 SWAP3 SWAP2 SWAP1 PUSH2 0x233B JUMP JUMPDEST PUSH1 0x40 MLOAD DUP1 SWAP2 SUB SWAP1 RETURN JUMPDEST CALLVALUE DUP1 ISZERO PUSH2 0x3CD JUMPI PUSH0 DUP1 REVERT JUMPDEST POP PUSH2 0x3E8 PUSH1 0x4 DUP1 CALLDATASIZE SUB DUP2 ADD SWAP1 PUSH2 0x3E3 SWAP2 SWAP1 PUSH2 0x1F23 JUMP JUMPDEST PUSH2 0x1B10 JUMP JUMPDEST STOP JUMPDEST CALLVALUE DUP1 ISZERO PUSH2 0x3F5 JUMPI PUSH0 DUP1 REVERT JUMPDEST POP PUSH2 0x410 PUSH1 0x4 DUP1 CALLDATASIZE SUB DUP2 ADD SWAP1 PUSH2 0x40B SWAP2 SWAP1 PUSH2 0x21AA JUMP JUMPDEST PUSH2 0x1CEB JUMP JUMPDEST PUSH1 0x40 MLOAD PUSH2 0x41D SWAP2 SWAP1 PUSH2 0x1FF5 JUMP JUMPDEST PUSH1 0x40 MLOAD DUP1 SWAP2 SUB SWAP1 RETURN JUMPDEST CALLVALUE DUP1 ISZERO PUSH2 0x431 JUMPI PUSH0 DUP1 REVERT JUMPDEST POP PUSH2 0x44C PUSH1 0x4 DUP1 CALLDATASIZE SUB DUP2 ADD SWAP1 PUSH2 0x447 SWAP2 SWAP1 PUSH2 0x23A8 JUMP JUMPDEST PUSH2 0x1D00 JUMP JUMPDEST STOP JUMPDEST PUSH0 PUSH1 0x1 PUSH0 DUP4 DUP2 MSTORE PUSH1 0x20 ADD SWAP1 DUP2 MSTORE PUSH1 0x20 ADD PUSH0 KECCAK256 PUSH1 0x40 MLOAD DUP1 PUSH1 0x80 ADD PUSH1 0x40 MSTORE SWAP1 DUP2 PUSH0 DUP3 ADD PUSH0 SWAP1 SLOAD SWAP1 PUSH2 0x100 EXP SWAP1 DIV PUSH20 0xFFFFFFFFFFFFFFFFFFFFFFFFFFFFFFFFFFFFFFFF AND PUSH20 0xFFFFFFFFFFFFFFFFFFFFFFFFFFFFFFFFFFFFFFFF AND PUSH20 0xFFFFFFFFFFFFFFFFFFFFFFFFFFFFFFFFFFFFFFFF AND DUP2 MSTORE PUSH1 0x20 ADD PUSH1 0x1 DUP3 ADD PUSH0 SWAP1 SLOAD SWAP1 PUSH2 0x100 EXP SWAP1 DIV PUSH16 0xFFFFFFFFFFFFFFFFFFFFFFFFFFFFFFFF AND PUSH16 0xFFFFFFFFFFFFFFFFFFFFFFFFFFFFFFFF AND PUSH16 0xFFFFFFFFFFFFFFFFFFFFFFFFFFFFFFFF AND DUP2 MSTORE PUSH1 0x20 ADD PUSH1 0x1 DUP3 ADD PUSH1 0x10 SWAP1 SLOAD SWAP1 PUSH2 0x100 EXP SWAP1 DIV PUSH16 0xFFFFFFFFFFFFFFFFFFFFFFFFFFFFFFFF AND PUSH16 0xFFFFFFFFFFFFFFFFFFFFFFFFFFFFFFFF AND PUSH16 0xFFFFFFFFFFFFFFFFFFFFFFFFFFFFFFFF AND DUP2 MSTORE PUSH1 0x20 ADD PUSH1 0x2 DUP3 ADD PUSH0 SWAP1 SLOAD SWAP1 PUSH2 0x100 EXP SWAP1 DIV PUSH1 0xFF AND ISZERO ISZERO ISZERO ISZERO DUP2 MSTORE POP POP SWAP1 POP DUP1 PUSH1 0x60 ADD MLOAD PUSH2 0x5A9 JUMPI PUSH1 0x40 MLOAD PUSH32 0x80CB55E200000000000000000000000000000000000000000000000000000000 DUP2 MSTORE PUSH1 0x4 ADD PUSH1 0x40 MLOAD DUP1 SWAP2 SUB SWAP1 REVERT JUMPDEST DUP1 PUSH1 0x40 ADD MLOAD PUSH16 0xFFFFFFFFFFFFFFFFFFFFFFFFFFFFFFFF AND CALLVALUE LT ISZERO PUSH2 0x60A JUMPI DUP1 PUSH1 0x40 ADD MLOAD CALLVALUE PUSH1 0x40 MLOAD PUSH32 0xB99E2AB700000000000000000000000000000000000000000000000000000000 DUP2 MSTORE PUSH1 0x4 ADD PUSH2 0x601 SWAP3 SWAP2 SWAP1 PUSH2 0x2416 JUMP JUMPDEST PUSH1 0x40 MLOAD DUP1 SWAP2 SUB SWAP1 REVERT JUMPDEST DUP1 PUSH0 ADD MLOAD PUSH20 0xFFFFFFFFFFFFFFFFFFFFFFFFFFFFFFFFFFFFFFFF AND CALLER PUSH20 0xFFFFFFFFFFFFFFFFFFFFFFFFFFFFFFFFFFFFFFFF AND SUB PUSH2 0x672 JUMPI PUSH1 0x40 MLOAD PUSH32 0x50EADCB100000000000000000000000000000000000000000000000000000000 DUP2 MSTORE PUSH1 0x4 ADD PUSH1 0x40 MLOAD DUP1 SWAP2 SUB SWAP1 REVERT JUMPDEST PUSH0 PUSH2 0x2710 PUSH0 SLOAD CALLVALUE PUSH2 0x683 SWAP2 SWAP1 PUSH2 0x246A JUMP JUMPDEST PUSH2 0x68D SWAP2 SWAP1 PUSH2 0x24D8 JUMP JUMPDEST SWAP1 POP PUSH0 DUP2 CALLVALUE PUSH2 0x69C SWAP2 SWAP1 PUSH2 0x2508 JUMP JUMPDEST SWAP1 POP DUP3 PUSH0 ADD MLOAD PUSH20 0xFFFFFFFFFFFFFFFFFFFFFFFFFFFFFFFFFFFFFFFF AND PUSH32 0x0 PUSH20 0xFFFFFFFFFFFFFFFFFFFFFFFFFFFFFFFFFFFFFFFF AND PUSH4 0x6352211E DUP6 PUSH1 0x20 ADD MLOAD PUSH1 0x40 MLOAD DUP3 PUSH4 0xFFFFFFFF AND PUSH1 0xE0 SHL DUP2 MSTORE PUSH1 0x4 ADD PUSH2 0x715 SWAP2 SWAP1 PUSH2 0x253B JUMP JUMPDEST PUSH1 0x20 PUSH1 0x40 MLOAD DUP1 DUP4 SUB DUP2 DUP7 GAS STATICCALL ISZERO DUP1 ISZERO PUSH2 0x730 JUMPI RETURNDATASIZE PUSH0 DUP1 RETURNDATACOPY RETURNDATASIZE PUSH0 REVERT JUMPDEST POP POP POP POP PUSH1 0x40 MLOAD RETURNDATASIZE PUSH1 0x1F NOT PUSH1 0x1F DUP3 ADD AND DUP3 ADD DUP1 PUSH1 0x40 MSTORE POP DUP2 ADD SWAP1 PUSH2 0x754 SWAP2 SWAP1 PUSH2 0x2568 JUMP JUMPDEST PUSH20 0xFFFFFFFFFFFFFFFFFFFFFFFFFFFFFFFFFFFFFFFF AND EQ PUSH2 0x7AA JUMPI PUSH1 0x40 MLOAD PUSH32 0x8C379A000000000000000000000000000000000000000000000000000000000 DUP2 MSTORE PUSH1 0x4 ADD PUSH2 0x7A1 SWAP1 PUSH2 0x25ED JUMP JUMPDEST PUSH1 0x40 MLOAD DUP1 SWAP2 SUB SWAP1 REVERT JUMPDEST PUSH32 0x0 PUSH20 0xFFFFFFFFFFFFFFFFFFFFFFFFFFFFFFFFFFFFFFFF AND PUSH4 0xE985E9C5 DUP5 PUSH0 ADD MLOAD ADDRESS PUSH1 0x40 MLOAD DUP4 PUSH4 0xFFFFFFFF AND PUSH1 0xE0 SHL DUP2 MSTORE PUSH1 0x4 ADD PUSH2 0x808 SWAP3 SWAP2 SWAP1 PUSH2 0x260B JUMP JUMPDEST PUSH1 0x20 PUSH1 0x40 MLOAD DUP1 DUP4 SUB DUP2 DUP7 GAS STATICCALL ISZERO DUP1 ISZERO PUSH2 0x823 JUMPI RETURNDATASIZE PUSH0 DUP1 RETURNDATACOPY RETURNDATASIZE PUSH0 REVERT JUMPDEST POP POP POP POP PUSH1 0x40 MLOAD RETURNDATASIZE PUSH1 0x1F NOT PUSH1 0x1F DUP3 ADD AND DUP3 ADD DUP1 PUSH1 0x40 MSTORE POP DUP2 ADD SWAP1 PUSH2 0x847 SWAP2 SWAP1 PUSH2 0x265C JUMP JUMPDEST DUP1 PUSH2 0x918 JUMPI POP ADDRESS PUSH20 0xFFFFFFFFFFFFFFFFFFFFFFFFFFFFFFFFFFFFFFFF AND PUSH32 0x0 PUSH20 0xFFFFFFFFFFFFFFFFFFFFFFFFFFFFFFFFFFFFFFFF AND PUSH4 0x81812FC DUP6 PUSH1 0x20 ADD MLOAD PUSH1 0x40 MLOAD DUP3 PUSH4 0xFFFFFFFF AND PUSH1 0xE0 SHL DUP2 MSTORE PUSH1 0x4 ADD PUSH2 0x8C1 SWAP2 SWAP1 PUSH2 0x253B JUMP JUMPDEST PUSH1 0x20 PUSH1 0x40 MLOAD DUP1 DUP4 SUB DUP2 DUP7 GAS STATICCALL ISZERO DUP1 ISZERO PUSH2 0x8DC JUMPI RETURNDATASIZE PUSH0 DUP1 RETURNDATACOPY RETURNDATASIZE PUSH0 REVERT JUMPDEST POP POP POP POP PUSH1 0x40 MLOAD RETURNDATASIZE PUSH1 0x1F NOT PUSH1 0x1F DUP3 ADD AND DUP3 ADD DUP1 PUSH1 0x40 MSTORE POP DUP2 ADD SWAP1 PUSH2 0x900 SWAP2 SWAP1 PUSH2 0x2568 JUMP JUMPDEST PUSH20 0xFFFFFFFFFFFFFFFFFFFFFFFFFFFFFFFFFFFFFFFF AND EQ JUMPDEST PUSH2 0x957 JUMPI PUSH1 0x40 MLOAD PUSH32 0x8C379A000000000000000000000000000000000000000000000000000000000 DUP2 MSTORE PUSH1 0x4 ADD PUSH2 0x94E SWAP1 PUSH2 0x26D1 JUMP JUMPDEST PUSH1 0x40 MLOAD DUP1 SWAP2 SUB SWAP1 REVERT JUMPDEST PUSH0 DUP4 PUSH1 0x60 ADD SWAP1 ISZERO ISZERO SWAP1 DUP2 ISZERO ISZERO DUP2 MSTORE POP POP PUSH1 0x2 PUSH0 DUP5 PUSH1 0x20 ADD MLOAD PUSH16 0xFFFFFFFFFFFFFFFFFFFFFFFFFFFFFFFF AND DUP2 MSTORE PUSH1 0x20 ADD SWAP1 DUP2 MSTORE PUSH1 0x20 ADD PUSH0 KECCAK256 PUSH0 SWAP1 SSTORE DUP2 PUSH1 0x3 PUSH0 PUSH32 0x0 PUSH20 0xFFFFFFFFFFFFFFFFFFFFFFFFFFFFFFFFFFFFFFFF AND PUSH20 0xFFFFFFFFFFFFFFFFFFFFFFFFFFFFFFFFFFFFFFFF AND DUP2 MSTORE PUSH1 0x20 ADD SWAP1 DUP2 MSTORE PUSH1 0x20 ADD PUSH0 KECCAK256 PUSH0 DUP3 DUP3 SLOAD PUSH2 0x9FD SWAP2 SWAP1 PUSH2 0x26EF JUMP JUMPDEST SWAP3 POP POP DUP2 SWAP1 SSTORE POP DUP1 PUSH1 0x3 PUSH0 DUP6 PUSH0 ADD MLOAD PUSH20 0xFFFFFFFFFFFFFFFFFFFFFFFFFFFFFFFFFFFFFFFF AND PUSH20 0xFFFFFFFFFFFFFFFFFFFFFFFFFFFFFFFFFFFFFFFF AND DUP2 MSTORE PUSH1 0x20 ADD SWAP1 DUP2 MSTORE PUSH1 0x20 ADD PUSH0 KECCAK256 PUSH0 DUP3 DUP3 SLOAD PUSH2 0xA53 SWAP2 SWAP1 PUSH2 0x26EF JUMP JUMPDEST SWAP3 POP POP DUP2 SWAP1 SSTORE POP PUSH32 0x0 PUSH20 0xFFFFFFFFFFFFFFFFFFFFFFFFFFFFFFFFFFFFFFFF AND PUSH4 0x42842E0E DUP5 PUSH0 ADD MLOAD CALLER DUP7 PUSH1 0x20 ADD MLOAD PUSH1 0x40 MLOAD DUP5 PUSH4 0xFFFFFFFF AND PUSH1 0xE0 SHL DUP2 MSTORE PUSH1 0x4 ADD PUSH2 0xABE SWAP4 SWAP3 SWAP2 SWAP1 PUSH2 0x2722 JUMP JUMPDEST PUSH0 PUSH1 0x40 MLOAD DUP1 DUP4 SUB DUP2 PUSH0 DUP8 DUP1 EXTCODESIZE ISZERO DUP1 ISZERO PUSH2 0xAD5 JUMPI PUSH0 DUP1 REVERT JUMPDEST POP GAS CALL ISZERO DUP1 ISZERO PUSH2 0xAE7 JUMPI RETURNDATASIZE PUSH0 DUP1 RETURNDATACOPY RETURNDATASIZE PUSH0 REVERT JUMPDEST POP POP POP POP CALLER PUSH20 0xFFFFFFFFFFFFFFFFFFFFFFFFFFFFFFFFFFFFFFFF AND DUP5 PUSH32 0xE29B93709A7AC5E91A6057482D1DF985483725988417E08DEC23377234003C80 DUP6 PUSH1 0x20 ADD MLOAD DUP7 PUSH1 0x40 ADD MLOAD TIMESTAMP PUSH1 0x40 MLOAD PUSH2 0xB3E SWAP4 SWAP3 SWAP2 SWAP1 PUSH2 0x2757 JUMP JUMPDEST PUSH1 0x40 MLOAD DUP1 SWAP2 SUB SWAP1 LOG3 POP POP POP POP JUMP JUMPDEST PUSH32 0x0 PUSH20 0xFFFFFFFFFFFFFFFFFFFFFFFFFFFFFFFFFFFFFFFF AND CALLER PUSH20 0xFFFFFFFFFFFFFFFFFFFFFFFFFFFFFFFFFFFFFFFF AND EQ PUSH2 0xBDC JUMPI CALLER PUSH1 0x40 MLOAD PUSH32 0x245AECD300000000000000000000000000000000000000000000000000000000 DUP2 MSTORE PUSH1 0x4 ADD PUSH2 0xBD3 SWAP2 SWAP1 PUSH2 0x278C JUMP JUMPDEST PUSH1 0x40 MLOAD DUP1 SWAP2 SUB SWAP1 REVERT JUMPDEST PUSH0 PUSH1 0x3 PUSH0 CALLER PUSH20 0xFFFFFFFFFFFFFFFFFFFFFFFFFFFFFFFFFFFFFFFF AND PUSH20 0xFFFFFFFFFFFFFFFFFFFFFFFFFFFFFFFFFFFFFFFF AND DUP2 MSTORE PUSH1 0x20 ADD SWAP1 DUP2 MSTORE PUSH1 0x20 ADD PUSH0 KECCAK256 SLOAD SWAP1 POP PUSH0 DUP2 SUB PUSH2 0xC56 JUMPI PUSH1 0x40 MLOAD PUSH32 0x81B5AD6800000000000000000000000000000000000000000000000000000000 DUP2 MSTORE PUSH1 0x4 ADD PUSH1 0x40 MLOAD DUP1 SWAP2 SUB SWAP1 REVERT JUMPDEST PUSH0 PUSH1 0x3 PUSH0 CALLER PUSH20 0xFFFFFFFFFFFFFFFFFFFFFFFFFFFFFFFFFFFFFFFF AND PUSH20 0xFFFFFFFFFFFFFFFFFFFFFFFFFFFFFFFFFFFFFFFF AND DUP2 MSTORE PUSH1 0x20 ADD SWAP1 DUP2 MSTORE PUSH1 0x20 ADD PUSH0 KECCAK256 DUP2 SWAP1 SSTORE POP PUSH0 CALLER PUSH20 0xFFFFFFFFFFFFFFFFFFFFFFFFFFFFFFFFFFFFFFFF AND DUP3 PUSH1 0x40 MLOAD PUSH2 0xCBD SWAP1 PUSH2 0x27D2 JUMP JUMPDEST PUSH0 PUSH1 0x40 MLOAD DUP1 DUP4 SUB DUP2 DUP6 DUP8 GAS CALL SWAP3 POP POP POP RETURNDATASIZE DUP1 PUSH0 DUP2 EQ PUSH2 0xCF7 JUMPI PUSH1 0x40 MLOAD SWAP2 POP PUSH1 0x1F NOT PUSH1 0x3F RETURNDATASIZE ADD AND DUP3 ADD PUSH1 0x40 MSTORE RETURNDATASIZE DUP3 MSTORE RETURNDATASIZE PUSH0 PUSH1 0x20 DUP5 ADD RETURNDATACOPY PUSH2 0xCFC JUMP JUMPDEST PUSH1 0x60 SWAP2 POP JUMPDEST POP POP SWAP1 POP DUP1 PUSH2 0xD40 JUMPI PUSH1 0x40 MLOAD PUSH32 0x8C379A000000000000000000000000000000000000000000000000000000000 DUP2 MSTORE PUSH1 0x4 ADD PUSH2 0xD37 SWAP1 PUSH2 0x2830 JUMP JUMPDEST PUSH1 0x40 MLOAD DUP1 SWAP2 SUB SWAP1 REVERT JUMPDEST CALLER PUSH20 0xFFFFFFFFFFFFFFFFFFFFFFFFFFFFFFFFFFFFFFFF AND PUSH32 0x6141B54B56B8A52A8C6F5CD2A857F6117B18FFBF4D46BD3106F300A839CBF5EA DUP4 PUSH1 0x40 MLOAD PUSH2 0xD86 SWAP2 SWAP1 PUSH2 0x1FF5 JUMP JUMPDEST PUSH1 0x40 MLOAD DUP1 SWAP2 SUB SWAP1 LOG2 POP POP JUMP JUMPDEST PUSH0 PUSH32 0x0 PUSH20 0xFFFFFFFFFFFFFFFFFFFFFFFFFFFFFFFFFFFFFFFF AND PUSH4 0x2F745C59 DUP5 DUP5 PUSH1 0x40 MLOAD DUP4 PUSH4 0xFFFFFFFF AND PUSH1 0xE0 SHL DUP2 MSTORE PUSH1 0x4 ADD PUSH2 0xDEE SWAP3 SWAP2 SWAP1 PUSH2 0x284E JUMP JUMPDEST PUSH1 0x20 PUSH1 0x40 MLOAD DUP1 DUP4 SUB DUP2 DUP7 GAS STATICCALL ISZERO DUP1 ISZERO PUSH2 0xE09 JUMPI RETURNDATASIZE PUSH0 DUP1 RETURNDATACOPY RETURNDATASIZE PUSH0 REVERT JUMPDEST POP POP POP POP PUSH1 0x40 MLOAD RETURNDATASIZE PUSH1 0x1F NOT PUSH1 0x1F DUP3 ADD AND DUP3 ADD DUP1 PUSH1 0x40 MSTORE POP DUP2 ADD SWAP1 PUSH2 0xE2D SWAP2 SWAP1 PUSH2 0x2889 JUMP JUMPDEST SWAP1 POP SWAP3 SWAP2 POP POP JUMP JUMPDEST PUSH0 PUSH1 0x1 PUSH0 DUP4 DUP2 MSTORE PUSH1 0x20 ADD SWAP1 DUP2 MSTORE PUSH1 0x20 ADD PUSH0 KECCAK256 SWAP1 POP DUP1 PUSH1 0x2 ADD PUSH0 SWAP1 SLOAD SWAP1 PUSH2 0x100 EXP SWAP1 DIV PUSH1 0xFF AND PUSH2 0xE90 JUMPI PUSH1 0x40 MLOAD PUSH32 0x80CB55E200000000000000000000000000000000000000000000000000000000 DUP2 MSTORE PUSH1 0x4 ADD PUSH1 0x40 MLOAD DUP1 SWAP2 SUB SWAP1 REVERT JUMPDEST CALLER PUSH20 0xFFFFFFFFFFFFFFFFFFFFFFFFFFFFFFFFFFFFFFFF AND DUP2 PUSH0 ADD PUSH0 SWAP1 SLOAD SWAP1 PUSH2 0x100 EXP SWAP1 DIV PUSH20 0xFFFFFFFFFFFFFFFFFFFFFFFFFFFFFFFFFFFFFFFF AND PUSH20 0xFFFFFFFFFFFFFFFFFFFFFFFFFFFFFFFFFFFFFFFF AND EQ PUSH2 0xF44 JUMPI DUP1 PUSH0 ADD PUSH0 SWAP1 SLOAD SWAP1 PUSH2 0x100 EXP SWAP1 DIV PUSH20 0xFFFFFFFFFFFFFFFFFFFFFFFFFFFFFFFFFFFFFFFF AND PUSH1 0x40 MLOAD PUSH32 0xE38D022A00000000000000000000000000000000000000000000000000000000 DUP2 MSTORE PUSH1 0x4 ADD PUSH2 0xF3B SWAP2 SWAP1 PUSH2 0x278C JUMP JUMPDEST PUSH1 0x40 MLOAD DUP1 SWAP2 SUB SWAP1 REVERT JUMPDEST PUSH0 DUP2 PUSH1 0x2 ADD PUSH0 PUSH2 0x100 EXP DUP2 SLOAD DUP2 PUSH1 0xFF MUL NOT AND SWAP1 DUP4 ISZERO ISZERO MUL OR SWAP1 SSTORE POP PUSH1 0x2 PUSH0 DUP3 PUSH1 0x1 ADD PUSH0 SWAP1 SLOAD SWAP1 PUSH2 0x100 EXP SWAP1 DIV PUSH16 0xFFFFFFFFFFFFFFFFFFFFFFFFFFFFFFFF AND PUSH16 0xFFFFFFFFFFFFFFFFFFFFFFFFFFFFFFFF AND DUP2 MSTORE PUSH1 0x20 ADD SWAP1 DUP2 MSTORE PUSH1 0x20 ADD PUSH0 KECCAK256 PUSH0 SWAP1 SSTORE CALLER PUSH20 0xFFFFFFFFFFFFFFFFFFFFFFFFFFFFFFFFFFFFFFFF AND DUP3 PUSH32 0x8E25282255AB31897DF2B0456BB993AC7F84D376861AEFD84901D2D63A7428A2 PUSH1 0x40 MLOAD PUSH1 0x40 MLOAD DUP1 SWAP2 SUB SWAP1 LOG3 POP POP JUMP JUMPDEST PUSH32 0x0 PUSH20 0xFFFFFFFFFFFFFFFFFFFFFFFFFFFFFFFFFFFFFFFF AND CALLER PUSH20 0xFFFFFFFFFFFFFFFFFFFFFFFFFFFFFFFFFFFFFFFF AND EQ PUSH2 0x107C JUMPI CALLER PUSH1 0x40 MLOAD PUSH32 0x245AECD300000000000000000000000000000000000000000000000000000000 DUP2 MSTORE PUSH1 0x4 ADD PUSH2 0x1073 SWAP2 SWAP1 PUSH2 0x278C JUMP JUMPDEST PUSH1 0x40 MLOAD DUP1 SWAP2 SUB SWAP1 REVERT JUMPDEST PUSH2 0x1388 DUP2 GT ISZERO PUSH2 0x10C1 JUMPI PUSH1 0x40 MLOAD PUSH32 0x8C379A000000000000000000000000000000000000000000000000000000000 DUP2 MSTORE PUSH1 0x4 ADD PUSH2 0x10B8 SWAP1 PUSH2 0x28FE JUMP JUMPDEST PUSH1 0x40 MLOAD DUP1 SWAP2 SUB SWAP1 REVERT JUMPDEST DUP1 PUSH0 DUP2 SWAP1 SSTORE POP PUSH32 0x13F60DD2B588490608C3FF1932A3DAEB4087F3D5AF04B97E5C2A16B5B4C0302E DUP2 PUSH1 0x40 MLOAD PUSH2 0x10F6 SWAP2 SWAP1 PUSH2 0x1FF5 JUMP JUMPDEST PUSH1 0x40 MLOAD DUP1 SWAP2 SUB SWAP1 LOG1 POP JUMP JUMPDEST PUSH32 0x0 DUP2 JUMP JUMPDEST PUSH0 SLOAD DUP2 JUMP JUMPDEST PUSH32 0x0 DUP2 JUMP JUMPDEST PUSH0 DUP2 PUSH16 0xFFFFFFFFFFFFFFFFFFFFFFFFFFFFFFFF AND GT PUSH2 0x11A2 JUMPI PUSH1 0x40 MLOAD PUSH32 0x8C379A000000000000000000000000000000000000000000000000000000000 DUP2 MSTORE PUSH1 0x4 ADD PUSH2 0x1199 SWAP1 PUSH2 0x2966 JUMP JUMPDEST PUSH1 0x40 MLOAD DUP1 SWAP2 SUB SWAP1 REVERT JUMPDEST PUSH0 PUSH32 0x0 PUSH20 0xFFFFFFFFFFFFFFFFFFFFFFFFFFFFFFFFFFFFFFFF AND PUSH4 0x6352211E DUP5 PUSH1 0x40 MLOAD DUP3 PUSH4 0xFFFFFFFF AND PUSH1 0xE0 SHL DUP2 MSTORE PUSH1 0x4 ADD PUSH2 0x11FC SWAP2 SWAP1 PUSH2 0x253B JUMP JUMPDEST PUSH1 0x20 PUSH1 0x40 MLOAD DUP1 DUP4 SUB DUP2 DUP7 GAS STATICCALL ISZERO DUP1 ISZERO PUSH2 0x1217 JUMPI RETURNDATASIZE PUSH0 DUP1 RETURNDATACOPY RETURNDATASIZE PUSH0 REVERT JUMPDEST POP POP POP POP PUSH1 0x40 MLOAD RETURNDATASIZE PUSH1 0x1F NOT PUSH1 0x1F DUP3 ADD AND DUP3 ADD DUP1 PUSH1 0x40 MSTORE POP DUP2 ADD SWAP1 PUSH2 0x123B SWAP2 SWAP1 PUSH2 0x2568 JUMP JUMPDEST SWAP1 POP CALLER PUSH20 0xFFFFFFFFFFFFFFFFFFFFFFFFFFFFFFFFFFFFFFFF AND DUP2 PUSH20 0xFFFFFFFFFFFFFFFFFFFFFFFFFFFFFFFFFFFFFFFF AND EQ PUSH2 0x12AD JUMPI DUP1 PUSH1 0x40 MLOAD PUSH32 0x928730CC00000000000000000000000000000000000000000000000000000000 DUP2 MSTORE PUSH1 0x4 ADD PUSH2 0x12A4 SWAP2 SWAP1 PUSH2 0x278C JUMP JUMPDEST PUSH1 0x40 MLOAD DUP1 SWAP2 SUB SWAP1 REVERT JUMPDEST PUSH32 0x0 PUSH20 0xFFFFFFFFFFFFFFFFFFFFFFFFFFFFFFFFFFFFFFFF AND PUSH4 0xE985E9C5 CALLER ADDRESS PUSH1 0x40 MLOAD DUP4 PUSH4 0xFFFFFFFF AND PUSH1 0xE0 SHL DUP2 MSTORE PUSH1 0x4 ADD PUSH2 0x1308 SWAP3 SWAP2 SWAP1 PUSH2 0x260B JUMP JUMPDEST PUSH1 0x20 PUSH1 0x40 MLOAD DUP1 DUP4 SUB DUP2 DUP7 GAS STATICCALL ISZERO DUP1 ISZERO PUSH2 0x1323 JUMPI RETURNDATASIZE PUSH0 DUP1 RETURNDATACOPY RETURNDATASIZE PUSH0 REVERT JUMPDEST POP POP POP POP PUSH1 0x40 MLOAD RETURNDATASIZE PUSH1 0x1F NOT PUSH1 0x1F DUP3 ADD AND DUP3 ADD DUP1 PUSH1 0x40 MSTORE POP DUP2 ADD SWAP1 PUSH2 0x1347 SWAP2 SWAP1 PUSH2 0x265C JUMP JUMPDEST ISZERO DUP1 ISZERO PUSH2 0x1417 JUMPI POP ADDRESS PUSH20 0xFFFFFFFFFFFFFFFFFFFFFFFFFFFFFFFFFFFFFFFF AND PUSH32 0x0 PUSH20 0xFFFFFFFFFFFFFFFFFFFFFFFFFFFFFFFFFFFFFFFF AND PUSH4 0x81812FC DUP6 PUSH1 0x40 MLOAD DUP3 PUSH4 0xFFFFFFFF AND PUSH1 0xE0 SHL DUP2 MSTORE PUSH1 0x4 ADD PUSH2 0x13BF SWAP2 SWAP1 PUSH2 0x253B JUMP JUMPDEST PUSH1 0x20 PUSH1 0x40 MLOAD DUP1 DUP4 SUB DUP2 DUP7 GAS STATICCALL ISZERO DUP1 ISZERO PUSH2 0x13DA JUMPI RETURNDATASIZE PUSH0 DUP1 RETURNDATACOPY RETURNDATASIZE PUSH0 REVERT JUMPDEST POP POP POP POP PUSH1 0x40 MLOAD RETURNDATASIZE PUSH1 0x1F NOT PUSH1 0x1F DUP3 ADD AND DUP3 ADD DUP1 PUSH1 0x40 MSTORE POP DUP2 ADD SWAP1 PUSH2 0x13FE SWAP2 SWAP1 PUSH2 0x2568 JUMP JUMPDEST PUSH20 0xFFFFFFFFFFFFFFFFFFFFFFFFFFFFFFFFFFFFFFFF AND EQ ISZERO JUMPDEST ISZERO PUSH2 0x144E JUMPI PUSH1 0x40 MLOAD PUSH32 0xC19F17A900000000000000000000000000000000000000000000000000000000 DUP2 MSTORE PUSH1 0x4 ADD PUSH1 0x40 MLOAD DUP1 SWAP2 SUB SWAP1 REVERT JUMPDEST PUSH0 PUSH1 0x2 PUSH0 DUP6 PUSH16 0xFFFFFFFFFFFFFFFFFFFFFFFFFFFFFFFF AND DUP2 MSTORE PUSH1 0x20 ADD SWAP1 DUP2 MSTORE PUSH1 0x20 ADD PUSH0 KECCAK256 SLOAD EQ PUSH2 0x14AA JUMPI PUSH1 0x40 MLOAD PUSH32 0xA3D582EC00000000000000000000000000000000000000000000000000000000 DUP2 MSTORE PUSH1 0x4 ADD PUSH1 0x40 MLOAD DUP1 SWAP2 SUB SWAP1 REVERT JUMPDEST PUSH0 DUP4 CALLER TIMESTAMP PUSH1 0x40 MLOAD PUSH1 0x20 ADD PUSH2 0x14C0 SWAP4 SWAP3 SWAP2 SWAP1 PUSH2 0x2A1D JUMP JUMPDEST PUSH1 0x40 MLOAD PUSH1 0x20 DUP2 DUP4 SUB SUB DUP2 MSTORE SWAP1 PUSH1 0x40 MSTORE DUP1 MLOAD SWAP1 PUSH1 0x20 ADD KECCAK256 PUSH0 SHR SWAP1 POP PUSH1 0x40 MLOAD DUP1 PUSH1 0x80 ADD PUSH1 0x40 MSTORE DUP1 CALLER PUSH20 0xFFFFFFFFFFFFFFFFFFFFFFFFFFFFFFFFFFFFFFFF AND DUP2 MSTORE PUSH1 0x20 ADD DUP6 PUSH16 0xFFFFFFFFFFFFFFFFFFFFFFFFFFFFFFFF AND DUP2 MSTORE PUSH1 0x20 ADD DUP5 PUSH16 0xFFFFFFFFFFFFFFFFFFFFFFFFFFFFFFFF AND DUP2 MSTORE PUSH1 0x20 ADD PUSH1 0x1 ISZERO ISZERO DUP2 MSTORE POP PUSH1 0x1 PUSH0 DUP4 DUP2 MSTORE PUSH1 0x20 ADD SWAP1 DUP2 MSTORE PUSH1 0x20 ADD PUSH0 KECCAK256 PUSH0 DUP3 ADD MLOAD DUP2 PUSH0 ADD PUSH0 PUSH2 0x100 EXP DUP2 SLOAD DUP2 PUSH20 0xFFFFFFFFFFFFFFFFFFFFFFFFFFFFFFFFFFFFFFFF MUL NOT AND SWAP1 DUP4 PUSH20 0xFFFFFFFFFFFFFFFFFFFFFFFFFFFFFFFFFFFFFFFF AND MUL OR SWAP1 SSTORE POP PUSH1 0x20 DUP3 ADD MLOAD DUP2 PUSH1 0x1 ADD PUSH0 PUSH2 0x100 EXP DUP2 SLOAD DUP2 PUSH16 0xFFFFFFFFFFFFFFFFFFFFFFFFFFFFFFFF MUL NOT AND SWAP1 DUP4 PUSH16 0xFFFFFFFFFFFFFFFFFFFFFFFFFFFFFFFF AND MUL OR SWAP1 SSTORE POP PUSH1 0x40 DUP3 ADD MLOAD DUP2 PUSH1 0x1 ADD PUSH1 0x10 PUSH2 0x100 EXP DUP2 SLOAD DUP2 PUSH16 0xFFFFFFFFFFFFFFFFFFFFFFFFFFFFFFFF MUL NOT AND SWAP1 DUP4 PUSH16 0xFFFFFFFFFFFFFFFFFFFFFFFFFFFFFFFF AND MUL OR SWAP1 SSTORE POP PUSH1 0x60 DUP3 ADD MLOAD DUP2 PUSH1 0x2 ADD PUSH0 PUSH2 0x100 EXP DUP2 SLOAD DUP2 PUSH1 0xFF MUL NOT AND SWAP1 DUP4 ISZERO ISZERO MUL OR SWAP1 SSTORE POP SWAP1 POP POP DUP1 PUSH1 0x2 PUSH0 DUP7 PUSH16 0xFFFFFFFFFFFFFFFFFFFFFFFFFFFFFFFF AND DUP2 MSTORE PUSH1 0x20 ADD SWAP1 DUP2 MSTORE PUSH1 0x20 ADD PUSH0 KECCAK256 DUP2 SWAP1 SSTORE POP PUSH1 0x4 PUSH0 CALLER PUSH20 0xFFFFFFFFFFFFFFFFFFFFFFFFFFFFFFFFFFFFFFFF AND PUSH20 0xFFFFFFFFFFFFFFFFFFFFFFFFFFFFFFFFFFFFFFFF AND DUP2 MSTORE PUSH1 0x20 ADD SWAP1 DUP2 MSTORE PUSH1 0x20 ADD PUSH0 KECCAK256 PUSH1 0x1 PUSH0 DUP4 DUP2 MSTORE PUSH1 0x20 ADD SWAP1 DUP2 MSTORE PUSH1 0x20 ADD PUSH0 KECCAK256 SWAP1 DUP1 PUSH1 0x1 DUP2 SLOAD ADD DUP1 DUP3 SSTORE DUP1 SWAP2 POP POP PUSH1 0x1 SWAP1 SUB SWAP1 PUSH0 MSTORE PUSH1 0x20 PUSH0 KECCAK256 SWAP1 PUSH1 0x3 MUL ADD PUSH0 SWAP1 SWAP2 SWAP1 SWAP2 SWAP1 SWAP2 POP PUSH0 DUP3 ADD PUSH0 SWAP1 SLOAD SWAP1 PUSH2 0x100 EXP SWAP1 DIV PUSH20 0xFFFFFFFFFFFFFFFFFFFFFFFFFFFFFFFFFFFFFFFF AND DUP2 PUSH0 ADD PUSH0 PUSH2 0x100 EXP DUP2 SLOAD DUP2 PUSH20 0xFFFFFFFFFFFFFFFFFFFFFFFFFFFFFFFFFFFFFFFF MUL NOT AND SWAP1 DUP4 PUSH20 0xFFFFFFFFFFFFFFFFFFFFFFFFFFFFFFFFFFFFFFFF AND MUL OR SWAP1 SSTORE POP PUSH1 0x1 DUP3 ADD PUSH0 SWAP1 SLOAD SWAP1 PUSH2 0x100 EXP SWAP1 DIV PUSH16 0xFFFFFFFFFFFFFFFFFFFFFFFFFFFFFFFF AND DUP2 PUSH1 0x1 ADD PUSH0 PUSH2 0x100 EXP DUP2 SLOAD DUP2 PUSH16 0xFFFFFFFFFFFFFFFFFFFFFFFFFFFFFFFF MUL NOT AND SWAP1 DUP4 PUSH16 0xFFFFFFFFFFFFFFFFFFFFFFFFFFFFFFFF AND MUL OR SWAP1 SSTORE POP PUSH1 0x1 DUP3 ADD PUSH1 0x10 SWAP1 SLOAD SWAP1 PUSH2 0x100 EXP SWAP1 DIV PUSH16 0xFFFFFFFFFFFFFFFFFFFFFFFFFFFFFFFF AND DUP2 PUSH1 0x1 ADD PUSH1 0x10 PUSH2 0x100 EXP DUP2 SLOAD DUP2 PUSH16 0xFFFFFFFFFFFFFFFFFFFFFFFFFFFFFFFF MUL NOT AND SWAP1 DUP4 PUSH16 0xFFFFFFFFFFFFFFFFFFFFFFFFFFFFFFFF AND MUL OR SWAP1 SSTORE POP PUSH1 0x2 DUP3 ADD PUSH0 SWAP1 SLOAD SWAP1 PUSH2 0x100 EXP SWAP1 DIV PUSH1 0xFF AND DUP2 PUSH1 0x2 ADD PUSH0 PUSH2 0x100 EXP DUP2 SLOAD DUP2 PUSH1 0xFF MUL NOT AND SWAP1 DUP4 ISZERO ISZERO MUL OR SWAP1 SSTORE POP POP POP CALLER PUSH20 0xFFFFFFFFFFFFFFFFFFFFFFFFFFFFFFFFFFFFFFFF AND DUP2 PUSH32 0xA3941CFA07EECF2734875AB71CEA0E47395BE644DA6E17B039A7E29EFBA74EF9 DUP7 DUP7 TIMESTAMP PUSH1 0x40 MLOAD PUSH2 0x1857 SWAP4 SWAP3 SWAP2 SWAP1 PUSH2 0x2757 JUMP JUMPDEST PUSH1 0x40 MLOAD DUP1 SWAP2 SUB SWAP1 LOG3 POP POP POP POP JUMP JUMPDEST PUSH0 DUP1 PUSH1 0x2 PUSH0 DUP5 DUP2 MSTORE PUSH1 0x20 ADD SWAP1 DUP2 MSTORE PUSH1 0x20 ADD PUSH0 KECCAK256 SLOAD SWAP1 POP PUSH1 0x1 PUSH0 DUP3 DUP2 MSTORE PUSH1 0x20 ADD SWAP1 DUP2 MSTORE PUSH1 0x20 ADD PUSH0 KECCAK256 PUSH1 0x2 ADD PUSH0 SWAP1 SLOAD SWAP1 PUSH2 0x100 EXP SWAP1 DIV PUSH1 0xFF AND SWAP2 POP POP SWAP2 SWAP1 POP JUMP JUMPDEST PUSH2 0x1388 DUP2 JUMP JUMPDEST PUSH0 PUSH1 0x2 PUSH0 DUP4 DUP2 MSTORE PUSH1 0x20 ADD SWAP1 DUP2 MSTORE PUSH1 0x20 ADD PUSH0 KECCAK256 SLOAD SWAP1 POP SWAP2 SWAP1 POP JUMP JUMPDEST PUSH32 0x0 DUP2 JUMP JUMPDEST PUSH1 0x60 PUSH1 0x4 PUSH0 DUP4 PUSH20 0xFFFFFFFFFFFFFFFFFFFFFFFFFFFFFFFFFFFFFFFF AND PUSH20 0xFFFFFFFFFFFFFFFFFFFFFFFFFFFFFFFFFFFFFFFF AND DUP2 MSTORE PUSH1 0x20 ADD SWAP1 DUP2 MSTORE PUSH1 0x20 ADD PUSH0 KECCAK256 DUP1 SLOAD DUP1 PUSH1 0x20 MUL PUSH1 0x20 ADD PUSH1 0x40 MLOAD SWAP1 DUP2 ADD PUSH1 0x40 MSTORE DUP1 SWAP3 SWAP2 SWAP1 DUP2 DUP2 MSTORE PUSH1 0x20 ADD PUSH0 SWAP1 JUMPDEST DUP3 DUP3 LT ISZERO PUSH2 0x1A77 JUMPI DUP4 DUP3 SWAP1 PUSH0 MSTORE PUSH1 0x20 PUSH0 KECCAK256 SWAP1 PUSH1 0x3 MUL ADD PUSH1 0x40 MLOAD DUP1 PUSH1 0x80 ADD PUSH1 0x40 MSTORE SWAP1 DUP2 PUSH0 DUP3 ADD PUSH0 SWAP1 SLOAD SWAP1 PUSH2 0x100 EXP SWAP1 DIV PUSH20 0xFFFFFFFFFFFFFFFFFFFFFFFFFFFFFFFFFFFFFFFF AND PUSH20 0xFFFFFFFFFFFFFFFFFFFFFFFFFFFFFFFFFFFFFFFF AND PUSH20 0xFFFFFFFFFFFFFFFFFFFFFFFFFFFFFFFFFFFFFFFF AND DUP2 MSTORE PUSH1 0x20 ADD PUSH1 0x1 DUP3 ADD PUSH0 SWAP1 SLOAD SWAP1 PUSH2 0x100 EXP SWAP1 DIV PUSH16 0xFFFFFFFFFFFFFFFFFFFFFFFFFFFFFFFF AND PUSH16 0xFFFFFFFFFFFFFFFFFFFFFFFFFFFFFFFF AND PUSH16 0xFFFFFFFFFFFFFFFFFFFFFFFFFFFFFFFF AND DUP2 MSTORE PUSH1 0x20 ADD PUSH1 0x1 DUP3 ADD PUSH1 0x10 SWAP1 SLOAD SWAP1 PUSH2 0x100 EXP SWAP1 DIV PUSH16 0xFFFFFFFFFFFFFFFFFFFFFFFFFFFFFFFF AND PUSH16 0xFFFFFFFFFFFFFFFFFFFFFFFFFFFFFFFF AND PUSH16 0xFFFFFFFFFFFFFFFFFFFFFFFFFFFFFFFF AND DUP2 MSTORE PUSH1 0x20 ADD PUSH1 0x2 DUP3 ADD PUSH0 SWAP1 SLOAD SWAP1 PUSH2 0x100 EXP SWAP1 DIV PUSH1 0xFF AND ISZERO ISZERO ISZERO ISZERO DUP2 MSTORE POP POP DUP2 MSTORE PUSH1 0x20 ADD SWAP1 PUSH1 0x1 ADD SWAP1 PUSH2 0x1946 JUMP JUMPDEST POP POP POP POP SWAP1 POP SWAP2 SWAP1 POP JUMP JUMPDEST PUSH1 0x1 PUSH1 0x20 MSTORE DUP1 PUSH0 MSTORE PUSH1 0x40 PUSH0 KECCAK256 PUSH0 SWAP2 POP SWAP1 POP DUP1 PUSH0 ADD PUSH0 SWAP1 SLOAD SWAP1 PUSH2 0x100 EXP SWAP1 DIV PUSH20 0xFFFFFFFFFFFFFFFFFFFFFFFFFFFFFFFFFFFFFFFF AND SWAP1 DUP1 PUSH1 0x1 ADD PUSH0 SWAP1 SLOAD SWAP1 PUSH2 0x100 EXP SWAP1 DIV PUSH16 0xFFFFFFFFFFFFFFFFFFFFFFFFFFFFFFFF AND SWAP1 DUP1 PUSH1 0x1 ADD PUSH1 0x10 SWAP1 SLOAD SWAP1 PUSH2 0x100 EXP SWAP1 DIV PUSH16 0xFFFFFFFFFFFFFFFFFFFFFFFFFFFFFFFF AND SWAP1 DUP1 PUSH1 0x2 ADD PUSH0 SWAP1 SLOAD SWAP1 PUSH2 0x100 EXP SWAP1 DIV PUSH1 0xFF AND SWAP1 POP DUP5 JUMP JUMPDEST PUSH32 0x0 PUSH20 0xFFFFFFFFFFFFFFFFFFFFFFFFFFFFFFFFFFFFFFFF AND PUSH4 0x6352211E DUP3 PUSH1 0x40 MLOAD DUP3 PUSH4 0xFFFFFFFF AND PUSH1 0xE0 SHL DUP2 MSTORE PUSH1 0x4 ADD PUSH2 0x1B69 SWAP2 SWAP1 PUSH2 0x1FF5 JUMP JUMPDEST PUSH1 0x20 PUSH1 0x40 MLOAD DUP1 DUP4 SUB DUP2 DUP7 GAS STATICCALL ISZERO DUP1 ISZERO PUSH2 0x1B84 JUMPI RETURNDATASIZE PUSH0 DUP1 RETURNDATACOPY RETURNDATASIZE PUSH0 REVERT JUMPDEST POP POP POP POP PUSH1 0x40 MLOAD RETURNDATASIZE PUSH1 0x1F NOT PUSH1 0x1F DUP3 ADD AND DUP3 ADD DUP1 PUSH1 0x40 MSTORE POP DUP2 ADD SWAP1 PUSH2 0x1BA8 SWAP2 SWAP1 PUSH2 0x2568 JUMP JUMPDEST PUSH20 0xFFFFFFFFFFFFFFFFFFFFFFFFFFFFFFFFFFFFFFFF AND CALLER PUSH20 0xFFFFFFFFFFFFFFFFFFFFFFFFFFFFFFFFFFFFFFFF AND EQ PUSH2 0x1C17 JUMPI CALLER PUSH1 0x40 MLOAD PUSH32 0x928730CC00000000000000000000000000000000000000000000000000000000 DUP2 MSTORE PUSH1 0x4 ADD PUSH2 0x1C0E SWAP2 SWAP1 PUSH2 0x278C JUMP JUMPDEST PUSH1 0x40 MLOAD DUP1 SWAP2 SUB SWAP1 REVERT JUMPDEST PUSH1 0x1 PUSH0 DUP3 DUP2 MSTORE PUSH1 0x20 ADD SWAP1 DUP2 MSTORE PUSH1 0x20 ADD PUSH0 KECCAK256 PUSH1 0x2 ADD PUSH0 SWAP1 SLOAD SWAP1 PUSH2 0x100 EXP SWAP1 DIV PUSH1 0xFF AND PUSH2 0x1C6E JUMPI PUSH1 0x40 MLOAD PUSH32 0x80CB55E200000000000000000000000000000000000000000000000000000000 DUP2 MSTORE PUSH1 0x4 ADD PUSH1 0x40 MLOAD DUP1 SWAP2 SUB SWAP1 REVERT JUMPDEST PUSH0 PUSH1 0x1 PUSH0 DUP4 DUP2 MSTORE PUSH1 0x20 ADD SWAP1 DUP2 MSTORE PUSH1 0x20 ADD PUSH0 KECCAK256 PUSH1 0x2 ADD PUSH0 PUSH2 0x100 EXP DUP2 SLOAD DUP2 PUSH1 0xFF MUL NOT AND SWAP1 DUP4 ISZERO ISZERO MUL OR SWAP1 SSTORE POP CALLER PUSH20 0xFFFFFFFFFFFFFFFFFFFFFFFFFFFFFFFFFFFFFFFF AND DUP2 PUSH32 0x25331CBADF10D7FDE7BA3CB8E4A9CEB748C5C0A5F37F23DA51CE1A4142FC8C00 TIMESTAMP PUSH1 0x40 MLOAD PUSH2 0x1CE0 SWAP2 SWAP1 PUSH2 0x1FF5 JUMP JUMPDEST PUSH1 0x40 MLOAD DUP1 SWAP2 SUB SWAP1 LOG3 POP JUMP JUMPDEST PUSH1 0x3 PUSH1 0x20 MSTORE DUP1 PUSH0 MSTORE PUSH1 0x40 PUSH0 KECCAK256 PUSH0 SWAP2 POP SWAP1 POP SLOAD DUP2 JUMP JUMPDEST PUSH0 DUP2 GT PUSH2 0x1D42 JUMPI PUSH1 0x40 MLOAD PUSH32 0x8C379A000000000000000000000000000000000000000000000000000000000 DUP2 MSTORE PUSH1 0x4 ADD PUSH2 0x1D39 SWAP1 PUSH2 0x2AA3 JUMP JUMPDEST PUSH1 0x40 MLOAD DUP1 SWAP2 SUB SWAP1 REVERT JUMPDEST PUSH1 0x3 PUSH0 CALLER PUSH20 0xFFFFFFFFFFFFFFFFFFFFFFFFFFFFFFFFFFFFFFFF AND PUSH20 0xFFFFFFFFFFFFFFFFFFFFFFFFFFFFFFFFFFFFFFFF AND DUP2 MSTORE PUSH1 0x20 ADD SWAP1 DUP2 MSTORE PUSH1 0x20 ADD PUSH0 KECCAK256 SLOAD DUP2 GT ISZERO PUSH2 0x1E03 JUMPI DUP1 PUSH1 0x3 PUSH0 CALLER PUSH20 0xFFFFFFFFFFFFFFFFFFFFFFFFFFFFFFFFFFFFFFFF AND PUSH20 0xFFFFFFFFFFFFFFFFFFFFFFFFFFFFFFFFFFFFFFFF AND DUP2 MSTORE PUSH1 0x20 ADD SWAP1 DUP2 MSTORE PUSH1 0x20 ADD PUSH0 KECCAK256 SLOAD PUSH1 0x40 MLOAD PUSH32 0x3EB8B5400000000000000000000000000000000000000000000000000000000 DUP2 MSTORE PUSH1 0x4 ADD PUSH2 0x1DFA SWAP3 SWAP2 SWAP1 PUSH2 0x2AC1 JUMP JUMPDEST PUSH1 0x40 MLOAD DUP1 SWAP2 SUB SWAP1 REVERT JUMPDEST DUP2 PUSH20 0xFFFFFFFFFFFFFFFFFFFFFFFFFFFFFFFFFFFFFFFF AND PUSH2 0x8FC DUP3 SWAP1 DUP2 ISZERO MUL SWAP1 PUSH1 0x40 MLOAD PUSH0 PUSH1 0x40 MLOAD DUP1 DUP4 SUB DUP2 DUP6 DUP9 DUP9 CALL SWAP4 POP POP POP POP ISZERO DUP1 ISZERO PUSH2 0x1E46 JUMPI RETURNDATASIZE PUSH0 DUP1 RETURNDATACOPY RETURNDATASIZE PUSH0 REVERT JUMPDEST POP DUP1 PUSH1 0x3 PUSH0 CALLER PUSH20 0xFFFFFFFFFFFFFFFFFFFFFFFFFFFFFFFFFFFFFFFF AND PUSH20 0xFFFFFFFFFFFFFFFFFFFFFFFFFFFFFFFFFFFFFFFF AND DUP2 MSTORE PUSH1 0x20 ADD SWAP1 DUP2 MSTORE PUSH1 0x20 ADD PUSH0 KECCAK256 PUSH0 DUP3 DUP3 SLOAD PUSH2 0x1E93 SWAP2 SWAP1 PUSH2 0x2508 JUMP JUMPDEST SWAP3 POP POP DUP2 SWAP1 SSTORE POP DUP2 PUSH20 0xFFFFFFFFFFFFFFFFFFFFFFFFFFFFFFFFFFFFFFFF AND PUSH32 0x6141B54B56B8A52A8C6F5CD2A857F6117B18FFBF4D46BD3106F300A839CBF5EA DUP3 PUSH1 0x40 MLOAD PUSH2 0x1EE0 SWAP2 SWAP1 PUSH2 0x1FF5 JUMP JUMPDEST PUSH1 0x40 MLOAD DUP1 SWAP2 SUB SWAP1 LOG2 POP POP JUMP JUMPDEST PUSH0 DUP1 REVERT JUMPDEST PUSH0 DUP2 SWAP1 POP SWAP2 SWAP1 POP JUMP JUMPDEST PUSH2 0x1F02 DUP2 PUSH2 0x1EF0 JUMP JUMPDEST DUP2 EQ PUSH2 0x1F0C JUMPI PUSH0 DUP1 REVERT JUMPDEST POP JUMP JUMPDEST PUSH0 DUP2 CALLDATALOAD SWAP1 POP PUSH2 0x1F1D DUP2 PUSH2 0x1EF9 JUMP JUMPDEST SWAP3 SWAP2 POP POP JUMP JUMPDEST PUSH0 PUSH1 0x20 DUP3 DUP5 SUB SLT ISZERO PUSH2 0x1F38 JUMPI PUSH2 0x1F37 PUSH2 0x1EEC JUMP JUMPDEST JUMPDEST PUSH0 PUSH2 0x1F45 DUP5 DUP3 DUP6 ADD PUSH2 0x1F0F JUMP JUMPDEST SWAP2 POP POP SWAP3 SWAP2 POP POP JUMP JUMPDEST PUSH0 PUSH20 0xFFFFFFFFFFFFFFFFFFFFFFFFFFFFFFFFFFFFFFFF DUP3 AND SWAP1 POP SWAP2 SWAP1 POP JUMP JUMPDEST PUSH0 PUSH2 0x1F77 DUP3 PUSH2 0x1F4E JUMP JUMPDEST SWAP1 POP SWAP2 SWAP1 POP JUMP JUMPDEST PUSH2 0x1F87 DUP2 PUSH2 0x1F6D JUMP JUMPDEST DUP2 EQ PUSH2 0x1F91 JUMPI PUSH0 DUP1 REVERT JUMPDEST POP JUMP JUMPDEST PUSH0 DUP2 CALLDATALOAD SWAP1 POP PUSH2 0x1FA2 DUP2 PUSH2 0x1F7E JUMP JUMPDEST SWAP3 SWAP2 POP POP JUMP JUMPDEST PUSH0 DUP1 PUSH1 0x40 DUP4 DUP6 SUB SLT ISZERO PUSH2 0x1FBE JUMPI PUSH2 0x1FBD PUSH2 0x1EEC JUMP JUMPDEST JUMPDEST PUSH0 PUSH2 0x1FCB DUP6 DUP3 DUP7 ADD PUSH2 0x1F94 JUMP JUMPDEST SWAP3 POP POP PUSH1 0x20 PUSH2 0x1FDC DUP6 DUP3 DUP7 ADD PUSH2 0x1F0F JUMP JUMPDEST SWAP2 POP POP SWAP3 POP SWAP3 SWAP1 POP JUMP JUMPDEST PUSH2 0x1FEF DUP2 PUSH2 0x1EF0 JUMP JUMPDEST DUP3 MSTORE POP POP JUMP JUMPDEST PUSH0 PUSH1 0x20 DUP3 ADD SWAP1 POP PUSH2 0x2008 PUSH0 DUP4 ADD DUP5 PUSH2 0x1FE6 JUMP JUMPDEST SWAP3 SWAP2 POP POP JUMP JUMPDEST PUSH0 DUP2 SWAP1 POP SWAP2 SWAP1 POP JUMP JUMPDEST PUSH0 PUSH2 0x2031 PUSH2 0x202C PUSH2 0x2027 DUP5 PUSH2 0x1F4E JUMP JUMPDEST PUSH2 0x200E JUMP JUMPDEST PUSH2 0x1F4E JUMP JUMPDEST SWAP1 POP SWAP2 SWAP1 POP JUMP JUMPDEST PUSH0 PUSH2 0x2042 DUP3 PUSH2 0x2017 JUMP JUMPDEST SWAP1 POP SWAP2 SWAP1 POP JUMP JUMPDEST PUSH0 PUSH2 0x2053 DUP3 PUSH2 0x2038 JUMP JUMPDEST SWAP1 POP SWAP2 SWAP1 POP JUMP JUMPDEST PUSH2 0x2063 DUP2 PUSH2 0x2049 JUMP JUMPDEST DUP3 MSTORE POP POP JUMP JUMPDEST PUSH0 PUSH1 0x20 DUP3 ADD SWAP1 POP PUSH2 0x207C PUSH0 DUP4 ADD DUP5 PUSH2 0x205A JUMP JUMPDEST SWAP3 SWAP2 POP POP JUMP JUMPDEST PUSH0 PUSH2 0x208C DUP3 PUSH2 0x1F4E JUMP JUMPDEST SWAP1 POP SWAP2 SWAP1 POP JUMP JUMPDEST PUSH2 0x209C DUP2 PUSH2 0x2082 JUMP JUMPDEST DUP3 MSTORE POP POP JUMP JUMPDEST PUSH0 PUSH1 0x20 DUP3 ADD SWAP1 POP PUSH2 0x20B5 PUSH0 DUP4 ADD DUP5 PUSH2 0x2093 JUMP JUMPDEST SWAP3 SWAP2 POP POP JUMP JUMPDEST PUSH0 PUSH16 0xFFFFFFFFFFFFFFFFFFFFFFFFFFFFFFFF DUP3 AND SWAP1 POP SWAP2 SWAP1 POP JUMP JUMPDEST PUSH2 0x20DF DUP2 PUSH2 0x20BB JUMP JUMPDEST DUP2 EQ PUSH2 0x20E9 JUMPI PUSH0 DUP1 REVERT JUMPDEST POP JUMP JUMPDEST PUSH0 DUP2 CALLDATALOAD SWAP1 POP PUSH2 0x20FA DUP2 PUSH2 0x20D6 JUMP JUMPDEST SWAP3 SWAP2 POP POP JUMP JUMPDEST PUSH0 DUP1 PUSH1 0x40 DUP4 DUP6 SUB SLT ISZERO PUSH2 0x2116 JUMPI PUSH2 0x2115 PUSH2 0x1EEC JUMP JUMPDEST JUMPDEST PUSH0 PUSH2 0x2123 DUP6 DUP3 DUP7 ADD PUSH2 0x20EC JUMP JUMPDEST SWAP3 POP POP PUSH1 0x20 PUSH2 0x2134 DUP6 DUP3 DUP7 ADD PUSH2 0x20EC JUMP JUMPDEST SWAP2 POP POP SWAP3 POP SWAP3 SWAP1 POP JUMP JUMPDEST PUSH0 DUP2 ISZERO ISZERO SWAP1 POP SWAP2 SWAP1 POP JUMP JUMPDEST PUSH2 0x2152 DUP2 PUSH2 0x213E JUMP JUMPDEST DUP3 MSTORE POP POP JUMP JUMPDEST PUSH0 PUSH1 0x20 DUP3 ADD SWAP1 POP PUSH2 0x216B PUSH0 DUP4 ADD DUP5 PUSH2 0x2149 JUMP JUMPDEST SWAP3 SWAP2 POP POP JUMP JUMPDEST PUSH0 PUSH2 0x217B DUP3 PUSH2 0x2038 JUMP JUMPDEST SWAP1 POP SWAP2 SWAP1 POP JUMP JUMPDEST PUSH2 0x218B DUP2 PUSH2 0x2171 JUMP JUMPDEST DUP3 MSTORE POP POP JUMP JUMPDEST PUSH0 PUSH1 0x20 DUP3 ADD SWAP1 POP PUSH2 0x21A4 PUSH0 DUP4 ADD DUP5 PUSH2 0x2182 JUMP JUMPDEST SWAP3 SWAP2 POP POP JUMP JUMPDEST PUSH0 PUSH1 0x20 DUP3 DUP5 SUB SLT ISZERO PUSH2 0x21BF JUMPI PUSH2 0x21BE PUSH2 0x1EEC JUMP JUMPDEST JUMPDEST PUSH0 PUSH2 0x21CC DUP5 DUP3 DUP6 ADD PUSH2 0x1F94 JUMP JUMPDEST SWAP2 POP POP SWAP3 SWAP2 POP POP JUMP JUMPDEST PUSH0 DUP2 MLOAD SWAP1 POP SWAP2 SWAP1 POP JUMP JUMPDEST PUSH0 DUP3 DUP3 MSTORE PUSH1 0x20 DUP3 ADD SWAP1 POP SWAP3 SWAP2 POP POP JUMP JUMPDEST PUSH0 DUP2 SWAP1 POP PUSH1 0x20 DUP3 ADD SWAP1 POP SWAP2 SWAP1 POP JUMP JUMPDEST PUSH2 0x2207 DUP2 PUSH2 0x1F6D JUMP JUMPDEST DUP3 MSTORE POP POP JUMP JUMPDEST PUSH2 0x2216 DUP2 PUSH2 0x20BB JUMP JUMPDEST DUP3 MSTORE POP POP JUMP JUMPDEST PUSH2 0x2225 DUP2 PUSH2 0x213E JUMP JUMPDEST DUP3 MSTORE POP POP JUMP JUMPDEST PUSH1 0x80 DUP3 ADD PUSH0 DUP3 ADD MLOAD PUSH2 0x223F PUSH0 DUP6 ADD DUP3 PUSH2 0x21FE JUMP JUMPDEST POP PUSH1 0x20 DUP3 ADD MLOAD PUSH2 0x2252 PUSH1 0x20 DUP6 ADD DUP3 PUSH2 0x220D JUMP JUMPDEST POP PUSH1 0x40 DUP3 ADD MLOAD PUSH2 0x2265 PUSH1 0x40 DUP6 ADD DUP3 PUSH2 0x220D JUMP JUMPDEST POP PUSH1 0x60 DUP3 ADD MLOAD PUSH2 0x2278 PUSH1 0x60 DUP6 ADD DUP3 PUSH2 0x221C JUMP JUMPDEST POP POP POP POP JUMP JUMPDEST PUSH0 PUSH2 0x2289 DUP4 DUP4 PUSH2 0x222B JUMP JUMPDEST PUSH1 0x80 DUP4 ADD SWAP1 POP SWAP3 SWAP2 POP POP JUMP JUMPDEST PUSH0 PUSH1 0x20 DUP3 ADD SWAP1 POP SWAP2 SWAP1 POP JUMP JUMPDEST PUSH0 PUSH2 0x22AB DUP3 PUSH2 0x21D5 JUMP JUMPDEST PUSH2 0x22B5 DUP2 DUP6 PUSH2 0x21DF JUMP JUMPDEST SWAP4 POP PUSH2 0x22C0 DUP4 PUSH2 0x21EF JUMP JUMPDEST DUP1 PUSH0 JUMPDEST DUP4 DUP2 LT ISZERO PUSH2 0x22F0 JUMPI DUP2 MLOAD PUSH2 0x22D7 DUP9 DUP3 PUSH2 0x227E JUMP JUMPDEST SWAP8 POP PUSH2 0x22E2 DUP4 PUSH2 0x2295 JUMP JUMPDEST SWAP3 POP POP PUSH1 0x1 DUP2 ADD SWAP1 POP PUSH2 0x22C3 JUMP JUMPDEST POP DUP6 SWAP4 POP POP POP POP SWAP3 SWAP2 POP POP JUMP JUMPDEST PUSH0 PUSH1 0x20 DUP3 ADD SWAP1 POP DUP2 DUP2 SUB PUSH0 DUP4 ADD MSTORE PUSH2 0x2315 DUP2 DUP5 PUSH2 0x22A1 JUMP JUMPDEST SWAP1 POP SWAP3 SWAP2 POP POP JUMP JUMPDEST PUSH2 0x2326 DUP2 PUSH2 0x1F6D JUMP JUMPDEST DUP3 MSTORE POP POP JUMP JUMPDEST PUSH2 0x2335 DUP2 PUSH2 0x20BB JUMP JUMPDEST DUP3 MSTORE POP POP JUMP JUMPDEST PUSH0 PUSH1 0x80 DUP3 ADD SWAP1 POP PUSH2 0x234E PUSH0 DUP4 ADD DUP8 PUSH2 0x231D JUMP JUMPDEST PUSH2 0x235B PUSH1 0x20 DUP4 ADD DUP7 PUSH2 0x232C JUMP JUMPDEST PUSH2 0x2368 PUSH1 0x40 DUP4 ADD DUP6 PUSH2 0x232C JUMP JUMPDEST PUSH2 0x2375 PUSH1 0x60 DUP4 ADD DUP5 PUSH2 0x2149 JUMP JUMPDEST SWAP6 SWAP5 POP POP POP POP POP JUMP JUMPDEST PUSH2 0x2387 DUP2 PUSH2 0x2082 JUMP JUMPDEST DUP2 EQ PUSH2 0x2391 JUMPI PUSH0 DUP1 REVERT JUMPDEST POP JUMP JUMPDEST PUSH0 DUP2 CALLDATALOAD SWAP1 POP PUSH2 0x23A2 DUP2 PUSH2 0x237E JUMP JUMPDEST SWAP3 SWAP2 POP POP JUMP JUMPDEST PUSH0 DUP1 PUSH1 0x40 DUP4 DUP6 SUB SLT ISZERO PUSH2 0x23BE JUMPI PUSH2 0x23BD PUSH2 0x1EEC JUMP JUMPDEST JUMPDEST PUSH0 PUSH2 0x23CB DUP6 DUP3 DUP7 ADD PUSH2 0x2394 JUMP JUMPDEST SWAP3 POP POP PUSH1 0x20 PUSH2 0x23DC DUP6 DUP3 DUP7 ADD PUSH2 0x1F0F JUMP JUMPDEST SWAP2 POP POP SWAP3 POP SWAP3 SWAP1 POP JUMP JUMPDEST PUSH0 PUSH2 0x2400 PUSH2 0x23FB PUSH2 0x23F6 DUP5 PUSH2 0x20BB JUMP JUMPDEST PUSH2 0x200E JUMP JUMPDEST PUSH2 0x1EF0 JUMP JUMPDEST SWAP1 POP SWAP2 SWAP1 POP JUMP JUMPDEST PUSH2 0x2410 DUP2 PUSH2 0x23E6 JUMP JUMPDEST DUP3 MSTORE POP POP JUMP JUMPDEST PUSH0 PUSH1 0x40 DUP3 ADD SWAP1 POP PUSH2 0x2429 PUSH0 DUP4 ADD DUP6 PUSH2 0x2407 JUMP JUMPDEST PUSH2 0x2436 PUSH1 0x20 DUP4 ADD DUP5 PUSH2 0x1FE6 JUMP JUMPDEST SWAP4 SWAP3 POP POP POP JUMP JUMPDEST PUSH32 0x4E487B7100000000000000000000000000000000000000000000000000000000 PUSH0 MSTORE PUSH1 0x11 PUSH1 0x4 MSTORE PUSH1 0x24 PUSH0 REVERT JUMPDEST PUSH0 PUSH2 0x2474 DUP3 PUSH2 0x1EF0 JUMP JUMPDEST SWAP2 POP PUSH2 0x247F DUP4 PUSH2 0x1EF0 JUMP JUMPDEST SWAP3 POP DUP3 DUP3 MUL PUSH2 0x248D DUP2 PUSH2 0x1EF0 JUMP JUMPDEST SWAP2 POP DUP3 DUP3 DIV DUP5 EQ DUP4 ISZERO OR PUSH2 0x24A4 JUMPI PUSH2 0x24A3 PUSH2 0x243D JUMP JUMPDEST JUMPDEST POP SWAP3 SWAP2 POP POP JUMP JUMPDEST PUSH32 0x4E487B7100000000000000000000000000000000000000000000000000000000 PUSH0 MSTORE PUSH1 0x12 PUSH1 0x4 MSTORE PUSH1 0x24 PUSH0 REVERT JUMPDEST PUSH0 PUSH2 0x24E2 DUP3 PUSH2 0x1EF0 JUMP JUMPDEST SWAP2 POP PUSH2 0x24ED DUP4 PUSH2 0x1EF0 JUMP JUMPDEST SWAP3 POP DUP3 PUSH2 0x24FD JUMPI PUSH2 0x24FC PUSH2 0x24AB JUMP JUMPDEST JUMPDEST DUP3 DUP3 DIV SWAP1 POP SWAP3 SWAP2 POP POP JUMP JUMPDEST PUSH0 PUSH2 0x2512 DUP3 PUSH2 0x1EF0 JUMP JUMPDEST SWAP2 POP PUSH2 0x251D DUP4 PUSH2 0x1EF0 JUMP JUMPDEST SWAP3 POP DUP3 DUP3 SUB SWAP1 POP DUP2 DUP2 GT ISZERO PUSH2 0x2535 JUMPI PUSH2 0x2534 PUSH2 0x243D JUMP JUMPDEST JUMPDEST SWAP3 SWAP2 POP POP JUMP JUMPDEST PUSH0 PUSH1 0x20 DUP3 ADD SWAP1 POP PUSH2 0x254E PUSH0 DUP4 ADD DUP5 PUSH2 0x2407 JUMP JUMPDEST SWAP3 SWAP2 POP POP JUMP JUMPDEST PUSH0 DUP2 MLOAD SWAP1 POP PUSH2 0x2562 DUP2 PUSH2 0x1F7E JUMP JUMPDEST SWAP3 SWAP2 POP POP JUMP JUMPDEST PUSH0 PUSH1 0x20 DUP3 DUP5 SUB SLT ISZERO PUSH2 0x257D JUMPI PUSH2 0x257C PUSH2 0x1EEC JUMP JUMPDEST JUMPDEST PUSH0 PUSH2 0x258A DUP5 DUP3 DUP6 ADD PUSH2 0x2554 JUMP JUMPDEST SWAP2 POP POP SWAP3 SWAP2 POP POP JUMP JUMPDEST PUSH0 DUP3 DUP3 MSTORE PUSH1 0x20 DUP3 ADD SWAP1 POP SWAP3 SWAP2 POP POP JUMP JUMPDEST PUSH32 0x53656C6C6572206E6F206C6F6E676572206F776E73204E465400000000000000 PUSH0 DUP3 ADD MSTORE POP JUMP JUMPDEST PUSH0 PUSH2 0x25D7 PUSH1 0x19 DUP4 PUSH2 0x2593 JUMP JUMPDEST SWAP2 POP PUSH2 0x25E2 DUP3 PUSH2 0x25A3 JUMP JUMPDEST PUSH1 0x20 DUP3 ADD SWAP1 POP SWAP2 SWAP1 POP JUMP JUMPDEST PUSH0 PUSH1 0x20 DUP3 ADD SWAP1 POP DUP2 DUP2 SUB PUSH0 DUP4 ADD MSTORE PUSH2 0x2604 DUP2 PUSH2 0x25CB JUMP JUMPDEST SWAP1 POP SWAP2 SWAP1 POP JUMP JUMPDEST PUSH0 PUSH1 0x40 DUP3 ADD SWAP1 POP PUSH2 0x261E PUSH0 DUP4 ADD DUP6 PUSH2 0x231D JUMP JUMPDEST PUSH2 0x262B PUSH1 0x20 DUP4 ADD DUP5 PUSH2 0x231D JUMP JUMPDEST SWAP4 SWAP3 POP POP POP JUMP JUMPDEST PUSH2 0x263B DUP2 PUSH2 0x213E JUMP JUMPDEST DUP2 EQ PUSH2 0x2645 JUMPI PUSH0 DUP1 REVERT JUMPDEST POP JUMP JUMPDEST PUSH0 DUP2 MLOAD SWAP1 POP PUSH2 0x2656 DUP2 PUSH2 0x2632 JUMP JUMPDEST SWAP3 SWAP2 POP POP JUMP JUMPDEST PUSH0 PUSH1 0x20 DUP3 DUP5 SUB SLT ISZERO PUSH2 0x2671 JUMPI PUSH2 0x2670 PUSH2 0x1EEC JUMP JUMPDEST JUMPDEST PUSH0 PUSH2 0x267E DUP5 DUP3 DUP6 ADD PUSH2 0x2648 JUMP JUMPDEST SWAP2 POP POP SWAP3 SWAP2 POP POP JUMP JUMPDEST PUSH32 0x4E6F7420617070726F7665640000000000000000000000000000000000000000 PUSH0 DUP3 ADD MSTORE POP JUMP JUMPDEST PUSH0 PUSH2 0x26BB PUSH1 0xC DUP4 PUSH2 0x2593 JUMP JUMPDEST SWAP2 POP PUSH2 0x26C6 DUP3 PUSH2 0x2687 JUMP JUMPDEST PUSH1 0x20 DUP3 ADD SWAP1 POP SWAP2 SWAP1 POP JUMP JUMPDEST PUSH0 PUSH1 0x20 DUP3 ADD SWAP1 POP DUP2 DUP2 SUB PUSH0 DUP4 ADD MSTORE PUSH2 0x26E8 DUP2 PUSH2 0x26AF JUMP JUMPDEST SWAP1 POP SWAP2 SWAP1 POP JUMP JUMPDEST PUSH0 PUSH2 0x26F9 DUP3 PUSH2 0x1EF0 JUMP JUMPDEST SWAP2 POP PUSH2 0x2704 DUP4 PUSH2 0x1EF0 JUMP JUMPDEST SWAP3 POP DUP3 DUP3 ADD SWAP1 POP DUP1 DUP3 GT ISZERO PUSH2 0x271C JUMPI PUSH2 0x271B PUSH2 0x243D JUMP JUMPDEST JUMPDEST SWAP3 SWAP2 POP POP JUMP JUMPDEST PUSH0 PUSH1 0x60 DUP3 ADD SWAP1 POP PUSH2 0x2735 PUSH0 DUP4 ADD DUP7 PUSH2 0x231D JUMP JUMPDEST PUSH2 0x2742 PUSH1 0x20 DUP4 ADD DUP6 PUSH2 0x231D JUMP JUMPDEST PUSH2 0x274F PUSH1 0x40 DUP4 ADD DUP5 PUSH2 0x2407 JUMP JUMPDEST SWAP5 SWAP4 POP POP POP POP JUMP JUMPDEST PUSH0 PUSH1 0x60 DUP3 ADD SWAP1 POP PUSH2 0x276A PUSH0 DUP4 ADD DUP7 PUSH2 0x2407 JUMP JUMPDEST PUSH2 0x2777 PUSH1 0x20 DUP4 ADD DUP6 PUSH2 0x2407 JUMP JUMPDEST PUSH2 0x2784 PUSH1 0x40 DUP4 ADD DUP5 PUSH2 0x1FE6 JUMP JUMPDEST SWAP5 SWAP4 POP POP POP POP JUMP JUMPDEST PUSH0 PUSH1 0x20 DUP3 ADD SWAP1 POP PUSH2 0x279F PUSH0 DUP4 ADD DUP5 PUSH2 0x231D JUMP JUMPDEST SWAP3 SWAP2 POP POP JUMP JUMPDEST PUSH0 DUP2 SWAP1 POP SWAP3 SWAP2 POP POP JUMP JUMPDEST POP JUMP JUMPDEST PUSH0 PUSH2 0x27BD PUSH0 DUP4 PUSH2 0x27A5 JUMP JUMPDEST SWAP2 POP PUSH2 0x27C8 DUP3 PUSH2 0x27AF JUMP JUMPDEST PUSH0 DUP3 ADD SWAP1 POP SWAP2 SWAP1 POP JUMP JUMPDEST PUSH0 PUSH2 0x27DC DUP3 PUSH2 0x27B2 JUMP JUMPDEST SWAP2 POP DUP2 SWAP1 POP SWAP2 SWAP1 POP JUMP JUMPDEST PUSH32 0x5472616E73666572206661696C65640000000000000000000000000000000000 PUSH0 DUP3 ADD MSTORE POP JUMP JUMPDEST PUSH0 PUSH2 0x281A PUSH1 0xF DUP4 PUSH2 0x2593 JUMP JUMPDEST SWAP2 POP PUSH2 0x2825 DUP3 PUSH2 0x27E6 JUMP JUMPDEST PUSH1 0x20 DUP3 ADD SWAP1 POP SWAP2 SWAP1 POP JUMP JUMPDEST PUSH0 PUSH1 0x20 DUP3 ADD SWAP1 POP DUP2 DUP2 SUB PUSH0 DUP4 ADD MSTORE PUSH2 0x2847 DUP2 PUSH2 0x280E JUMP JUMPDEST SWAP1 POP SWAP2 SWAP1 POP JUMP JUMPDEST PUSH0 PUSH1 0x40 DUP3 ADD SWAP1 POP PUSH2 0x2861 PUSH0 DUP4 ADD DUP6 PUSH2 0x231D JUMP JUMPDEST PUSH2 0x286E PUSH1 0x20 DUP4 ADD DUP5 PUSH2 0x1FE6 JUMP JUMPDEST SWAP4 SWAP3 POP POP POP JUMP JUMPDEST PUSH0 DUP2 MLOAD SWAP1 POP PUSH2 0x2883 DUP2 PUSH2 0x1EF9 JUMP JUMPDEST SWAP3 SWAP2 POP POP JUMP JUMPDEST PUSH0 PUSH1 0x20 DUP3 DUP5 SUB SLT ISZERO PUSH2 0x289E JUMPI PUSH2 0x289D PUSH2 0x1EEC JUMP JUMPDEST JUMPDEST PUSH0 PUSH2 0x28AB DUP5 DUP3 DUP6 ADD PUSH2 0x2875 JUMP JUMPDEST SWAP2 POP POP SWAP3 SWAP2 POP POP JUMP JUMPDEST PUSH32 0x436F6D6D697373696F6E20746F6F206869676800000000000000000000000000 PUSH0 DUP3 ADD MSTORE POP JUMP JUMPDEST PUSH0 PUSH2 0x28E8 PUSH1 0x13 DUP4 PUSH2 0x2593 JUMP JUMPDEST SWAP2 POP PUSH2 0x28F3 DUP3 PUSH2 0x28B4 JUMP JUMPDEST PUSH1 0x20 DUP3 ADD SWAP1 POP SWAP2 SWAP1 POP JUMP JUMPDEST PUSH0 PUSH1 0x20 DUP3 ADD SWAP1 POP DUP2 DUP2 SUB PUSH0 DUP4 ADD MSTORE PUSH2 0x2915 DUP2 PUSH2 0x28DC JUMP JUMPDEST SWAP1 POP SWAP2 SWAP1 POP JUMP JUMPDEST PUSH32 0x5072696365206D757374206265203E2030000000000000000000000000000000 PUSH0 DUP3 ADD MSTORE POP JUMP JUMPDEST PUSH0 PUSH2 0x2950 PUSH1 0x11 DUP4 PUSH2 0x2593 JUMP JUMPDEST SWAP2 POP PUSH2 0x295B DUP3 PUSH2 0x291C JUMP JUMPDEST PUSH1 0x20 DUP3 ADD SWAP1 POP SWAP2 SWAP1 POP JUMP JUMPDEST PUSH0 PUSH1 0x20 DUP3 ADD SWAP1 POP DUP2 DUP2 SUB PUSH0 DUP4 ADD MSTORE PUSH2 0x297D DUP2 PUSH2 0x2944 JUMP JUMPDEST SWAP1 POP SWAP2 SWAP1 POP JUMP JUMPDEST PUSH0 DUP2 PUSH1 0x80 SHL SWAP1 POP SWAP2 SWAP1 POP JUMP JUMPDEST PUSH0 PUSH2 0x299A DUP3 PUSH2 0x2984 JUMP JUMPDEST SWAP1 POP SWAP2 SWAP1 POP JUMP JUMPDEST PUSH2 0x29B2 PUSH2 0x29AD DUP3 PUSH2 0x20BB JUMP JUMPDEST PUSH2 0x2990 JUMP JUMPDEST DUP3 MSTORE POP POP JUMP JUMPDEST PUSH0 DUP2 PUSH1 0x60 SHL SWAP1 POP SWAP2 SWAP1 POP JUMP JUMPDEST PUSH0 PUSH2 0x29CE DUP3 PUSH2 0x29B8 JUMP JUMPDEST SWAP1 POP SWAP2 SWAP1 POP JUMP JUMPDEST PUSH0 PUSH2 0x29DF DUP3 PUSH2 0x29C4 JUMP JUMPDEST SWAP1 POP SWAP2 SWAP1 POP JUMP JUMPDEST PUSH2 0x29F7 PUSH2 0x29F2 DUP3 PUSH2 0x1F6D JUMP JUMPDEST PUSH2 0x29D5 JUMP JUMPDEST DUP3 MSTORE POP POP JUMP JUMPDEST PUSH0 DUP2 SWAP1 POP SWAP2 SWAP1 POP JUMP JUMPDEST PUSH2 0x2A17 PUSH2 0x2A12 DUP3 PUSH2 0x1EF0 JUMP JUMPDEST PUSH2 0x29FD JUMP JUMPDEST DUP3 MSTORE POP POP JUMP JUMPDEST PUSH0 PUSH2 0x2A28 DUP3 DUP7 PUSH2 0x29A1 JUMP JUMPDEST PUSH1 0x10 DUP3 ADD SWAP2 POP PUSH2 0x2A38 DUP3 DUP6 PUSH2 0x29E6 JUMP JUMPDEST PUSH1 0x14 DUP3 ADD SWAP2 POP PUSH2 0x2A48 DUP3 DUP5 PUSH2 0x2A06 JUMP JUMPDEST PUSH1 0x20 DUP3 ADD SWAP2 POP DUP2 SWAP1 POP SWAP5 SWAP4 POP POP POP POP JUMP JUMPDEST PUSH32 0x416D6F756E74206D757374206265203E20300000000000000000000000000000 PUSH0 DUP3 ADD MSTORE POP JUMP JUMPDEST PUSH0 PUSH2 0x2A8D PUSH1 0x12 DUP4 PUSH2 0x2593 JUMP JUMPDEST SWAP2 POP PUSH2 0x2A98 DUP3 PUSH2 0x2A59 JUMP JUMPDEST PUSH1 0x20 DUP3 ADD SWAP1 POP SWAP2 SWAP1 POP JUMP JUMPDEST PUSH0 PUSH1 0x20 DUP3 ADD SWAP1 POP DUP2 DUP2 SUB PUSH0 DUP4 ADD MSTORE PUSH2 0x2ABA DUP2 PUSH2 0x2A81 JUMP JUMPDEST SWAP1 POP SWAP2 SWAP1 POP JUMP JUMPDEST PUSH0 PUSH1 0x40 DUP3 ADD SWAP1 POP PUSH2 0x2AD4 PUSH0 DUP4 ADD DUP6 PUSH2 0x1FE6 JUMP JUMPDEST PUSH2 0x2AE1 PUSH1 0x20 DUP4 ADD DUP5 PUSH2 0x1FE6 JUMP JUMPDEST SWAP4 SWAP3 POP POP POP JUMP INVALID LOG2 PUSH5 0x6970667358 0x22 SLT KECCAK256 0xDD SHL 0xAB TIMESTAMP SLT CODESIZE 0xDE PUSH19 0xDA2809E3875420B6157970DBAA75BADC1A6858 LOG3 PUSH2 0x75E8 PUSH14 0x64736F6C63430008160033000000 "
				},
				"gasEstimates": {
					"creation": {
						"codeDepositCost": "2207600",
						"executionCost": "infinite",
						"totalCost": "infinite"
					},
					"external": {
						"MAX_COMMISSION()": "370",
						"cancelListing(uint256)": "37951",
						"commissionPercent()": "2491",
						"createListing(uint128,uint128)": "infinite",
						"deleteListing(uint256)": "infinite",
						"getListingId(uint256)": "infinite",
						"getListingsBySeller(address)": "infinite",
						"isTokenListed(uint256)": "5028",
						"listings(uint256)": "infinite",
						"nftContract()": "infinite",
						"nftEnumerable()": "infinite",
						"owner()": "infinite",
						"pendingWithdrawals(address)": "2890",
						"purchaseListing(uint256)": "infinite",
						"setCommissionPercent(uint256)": "infinite",
						"tokenOfOwnerByIndex(address,uint256)": "infinite",
						"withdraw(address,uint256)": "infinite",
						"withdrawFunds()": "infinite"
					}
				},
				"methodIdentifiers": {
					"MAX_COMMISSION()": "ae97dde8",
					"cancelListing(uint256)": "305a67a8",
					"commissionPercent()": "77d3550b",
					"createListing(uint128,uint128)": "9acaa6fb",
					"deleteListing(uint256)": "e6282c6e",
					"getListingId(uint256)": "cc85a55b",
					"getListingsBySeller(address)": "d8cba251",
					"isTokenListed(uint256)": "9b83cddc",
					"listings(uint256)": "de74e57b",
					"nftContract()": "d56d229d",
					"nftEnumerable()": "51e61b25",
					"owner()": "8da5cb5b",
					"pendingWithdrawals(address)": "f3f43703",
					"purchaseListing(uint256)": "169d5a7d",
					"setCommissionPercent(uint256)": "404a9ab8",
					"tokenOfOwnerByIndex(address,uint256)": "2f745c59",
					"withdraw(address,uint256)": "f3fef3a3",
					"withdrawFunds()": "24600fc3"
				}
			},
			"storageLayout": {
				"storage": [
					{
						"astId": 225,
						"contract": "contracts/Orders.sol:Marketplace",
						"label": "commissionPercent",
						"offset": 0,
						"slot": "0",
						"type": "t_uint256"
					},
					{
						"astId": 235,
						"contract": "contracts/Orders.sol:Marketplace",
						"label": "listings",
						"offset": 0,
						"slot": "1",
						"type": "t_mapping(t_uint256,t_struct(Listing)219_storage)"
					},
					{
						"astId": 240,
						"contract": "contracts/Orders.sol:Marketplace",
						"label": "tokenToListingId",
						"offset": 0,
						"slot": "2",
						"type": "t_mapping(t_uint256,t_uint256)"
					},
					{
						"astId": 245,
						"contract": "contracts/Orders.sol:Marketplace",
						"label": "pendingWithdrawals",
						"offset": 0,
						"slot": "3",
						"type": "t_mapping(t_address,t_uint256)"
					},
					{
						"astId": 260,
						"contract": "contracts/Orders.sol:Marketplace",
						"label": "sellerListings",
						"offset": 0,
						"slot": "4",
						"type": "t_mapping(t_address,t_array(t_struct(Listing)219_storage)dyn_storage)"
					}
				],
				"types": {
					"t_address": {
						"encoding": "inplace",
						"label": "address",
						"numberOfBytes": "20"
					},
					"t_array(t_struct(Listing)219_storage)dyn_storage": {
						"base": "t_struct(Listing)219_storage",
						"encoding": "dynamic_array",
						"label": "struct Marketplace.Listing[]",
						"numberOfBytes": "32"
					},
					"t_bool": {
						"encoding": "inplace",
						"label": "bool",
						"numberOfBytes": "1"
					},
					"t_mapping(t_address,t_array(t_struct(Listing)219_storage)dyn_storage)": {
						"encoding": "mapping",
						"key": "t_address",
						"label": "mapping(address => struct Marketplace.Listing[])",
						"numberOfBytes": "32",
						"value": "t_array(t_struct(Listing)219_storage)dyn_storage"
					},
					"t_mapping(t_address,t_uint256)": {
						"encoding": "mapping",
						"key": "t_address",
						"label": "mapping(address => uint256)",
						"numberOfBytes": "32",
						"value": "t_uint256"
					},
					"t_mapping(t_uint256,t_struct(Listing)219_storage)": {
						"encoding": "mapping",
						"key": "t_uint256",
						"label": "mapping(uint256 => struct Marketplace.Listing)",
						"numberOfBytes": "32",
						"value": "t_struct(Listing)219_storage"
					},
					"t_mapping(t_uint256,t_uint256)": {
						"encoding": "mapping",
						"key": "t_uint256",
						"label": "mapping(uint256 => uint256)",
						"numberOfBytes": "32",
						"value": "t_uint256"
					},
					"t_struct(Listing)219_storage": {
						"encoding": "inplace",
						"label": "struct Marketplace.Listing",
						"members": [
							{
								"astId": 212,
								"contract": "contracts/Orders.sol:Marketplace",
								"label": "seller",
								"offset": 0,
								"slot": "0",
								"type": "t_address"
							},
							{
								"astId": 214,
								"contract": "contracts/Orders.sol:Marketplace",
								"label": "tokenId",
								"offset": 0,
								"slot": "1",
								"type": "t_uint128"
							},
							{
								"astId": 216,
								"contract": "contracts/Orders.sol:Marketplace",
								"label": "price",
								"offset": 16,
								"slot": "1",
								"type": "t_uint128"
							},
							{
								"astId": 218,
								"contract": "contracts/Orders.sol:Marketplace",
								"label": "isActive",
								"offset": 0,
								"slot": "2",
								"type": "t_bool"
							}
						],
						"numberOfBytes": "96"
					},
					"t_uint128": {
						"encoding": "inplace",
						"label": "uint128",
						"numberOfBytes": "16"
					},
					"t_uint256": {
						"encoding": "inplace",
						"label": "uint256",
						"numberOfBytes": "32"
					}
				}
			},
			"userdoc": {
				"errors": {
					"AlreadyListed()": [
						{
							"notice": "Error thrown when the token is already listed."
						}
					],
					"CannotBuyOwnListing()": [
						{
							"notice": "Error thrown when the caller is trying to buy their own listing."
						}
					],
					"InsufficientFunds(uint256,uint256)": [
						{
							"notice": "Error thrown when the caller does not have enough funds to withdraw."
						}
					],
					"InsufficientPayment(uint256,uint256)": [
						{
							"notice": "Error thrown when the payment is insufficient."
						}
					],
					"NotActive()": [
						{
							"notice": "Error thrown when the listing is not active."
						}
					],
					"NotApproved()": [
						{
							"notice": "Error thrown when the caller is not approved to interact with the marketplace."
						}
					],
					"NotEnoughFunds()": [
						{
							"notice": "Error thrown when the caller does not have enough funds."
						}
					],
					"NotOwner(address)": [
						{
							"notice": "Error thrown when the caller is not the owner of the marketplace."
						}
					],
					"NotSeller(address)": [
						{
							"notice": "Error thrown when the caller is not the seller."
						}
					],
					"NotTokenOwner(address)": [
						{
							"notice": "Error thrown when the caller is not the owner of the token."
						}
					]
				},
				"events": {
					"CommissionUpdated(uint256)": {
						"notice": "Event emitted when the marketplace commission is updated."
					},
					"FundsWithdrawn(uint256,address)": {
						"notice": "Event emitted when funds are withdrawn."
					},
					"ListingCancelled(uint256,address)": {
						"notice": "Event emitted when a listing is cancelled."
					},
					"ListingCreated(uint256,address,uint256,uint256,uint256)": {
						"notice": "Event emitted when a new listing is created."
					},
					"NFTDelete(uint256,address,uint256)": {
						"notice": "Event emitted when an NFT is deleted."
					},
					"PurchaseCompleted(uint256,address,uint256,uint256,uint256)": {
						"notice": "Event emitted when an NFT is purchased."
					}
				},
				"kind": "user",
				"methods": {
					"MAX_COMMISSION()": {
						"notice": "Maximum commission percentage allowed (50%)."
					},
					"cancelListing(uint256)": {
						"notice": "Cancels an active listing."
					},
					"commissionPercent()": {
						"notice": "Commission percentage charged by the marketplace (in basis points, 100 = 1%)."
					},
					"createListing(uint128,uint128)": {
						"notice": "Creates a listing to sell an NFT."
					},
					"getListingId(uint256)": {
						"notice": "Gets the listing ID for a token if it exists."
					},
					"getListingsBySeller(address)": {
						"notice": "Gets all listings for a given seller."
					},
					"isTokenListed(uint256)": {
						"notice": "Checks if a token is currently listed."
					},
					"nftContract()": {
						"notice": "Interface for the ERC721 token contract."
					},
					"nftEnumerable()": {
						"notice": "Interface for enumerable ERC721 functionality."
					},
					"owner()": {
						"notice": "Owner of the marketplace."
					},
					"purchaseListing(uint256)": {
						"notice": "Purchases an NFT from an active listing."
					},
					"setCommissionPercent(uint256)": {
						"notice": "Updates the marketplace commission percentage."
					},
					"tokenOfOwnerByIndex(address,uint256)": {
						"notice": "Returns the token ID owned by `_owner` at a specific `index`."
					},
					"withdraw(address,uint256)": {
						"notice": "Allows a user to withdraw their pending funds."
					},
					"withdrawFunds()": {
						"notice": "Withdraws pending funds."
					}
				},
				"version": 1
			}
		}
	}
}