{
	"contracts/MetaToken.sol": {
		"MonToken": {
			"abi": [
				{
					"inputs": [
						{
							"internalType": "uint256",
							"name": "_totalSupply",
							"type": "uint256"
						}
					],
					"stateMutability": "nonpayable",
					"type": "constructor"
				},
				{
					"anonymous": false,
					"inputs": [
						{
							"indexed": true,
							"internalType": "address",
							"name": "_owner",
							"type": "address"
						},
						{
							"indexed": true,
							"internalType": "address",
							"name": "_spender",
							"type": "address"
						},
						{
							"indexed": false,
							"internalType": "uint256",
							"name": "_value",
							"type": "uint256"
						}
					],
					"name": "Approval",
					"type": "event"
				},
				{
					"anonymous": false,
					"inputs": [
						{
							"indexed": true,
							"internalType": "address",
							"name": "owner",
							"type": "address"
						},
						{
							"indexed": true,
							"internalType": "address",
							"name": "ownerNew",
							"type": "address"
						}
					],
					"name": "Ownership",
					"type": "event"
				},
				{
					"anonymous": false,
					"inputs": [
						{
							"indexed": true,
							"internalType": "address",
							"name": "_from",
							"type": "address"
						},
						{
							"indexed": true,
							"internalType": "address",
							"name": "_to",
							"type": "address"
						},
						{
							"indexed": false,
							"internalType": "uint256",
							"name": "_value",
							"type": "uint256"
						}
					],
					"name": "Transfer",
					"type": "event"
				},
				{
					"inputs": [
						{
							"internalType": "address",
							"name": "",
							"type": "address"
						},
						{
							"internalType": "address",
							"name": "",
							"type": "address"
						}
					],
					"name": "allowance",
					"outputs": [
						{
							"internalType": "uint256",
							"name": "",
							"type": "uint256"
						}
					],
					"stateMutability": "view",
					"type": "function"
				},
				{
					"inputs": [
						{
							"internalType": "address",
							"name": "_spender",
							"type": "address"
						},
						{
							"internalType": "uint256",
							"name": "_value",
							"type": "uint256"
						}
					],
					"name": "approve",
					"outputs": [
						{
							"internalType": "bool",
							"name": "succes",
							"type": "bool"
						}
					],
					"stateMutability": "nonpayable",
					"type": "function"
				},
				{
					"inputs": [
						{
							"internalType": "address",
							"name": "",
							"type": "address"
						}
					],
					"name": "balanceOf",
					"outputs": [
						{
							"internalType": "uint256",
							"name": "",
							"type": "uint256"
						}
					],
					"stateMutability": "view",
					"type": "function"
				},
				{
					"inputs": [
						{
							"internalType": "uint256",
							"name": "_value",
							"type": "uint256"
						}
					],
					"name": "burn",
					"outputs": [
						{
							"internalType": "bool",
							"name": "success",
							"type": "bool"
						}
					],
					"stateMutability": "nonpayable",
					"type": "function"
				},
				{
					"inputs": [],
					"name": "decimals",
					"outputs": [
						{
							"internalType": "uint256",
							"name": "",
							"type": "uint256"
						}
					],
					"stateMutability": "view",
					"type": "function"
				},
				{
					"inputs": [
						{
							"internalType": "address",
							"name": "_to",
							"type": "address"
						},
						{
							"internalType": "uint256",
							"name": "_value",
							"type": "uint256"
						}
					],
					"name": "mint",
					"outputs": [
						{
							"internalType": "bool",
							"name": "success",
							"type": "bool"
						}
					],
					"stateMutability": "nonpayable",
					"type": "function"
				},
				{
					"inputs": [],
					"name": "name",
					"outputs": [
						{
							"internalType": "string",
							"name": "",
							"type": "string"
						}
					],
					"stateMutability": "view",
					"type": "function"
				},
				{
					"inputs": [],
					"name": "owner",
					"outputs": [
						{
							"internalType": "address",
							"name": "",
							"type": "address"
						}
					],
					"stateMutability": "view",
					"type": "function"
				},
				{
					"inputs": [],
					"name": "symbol",
					"outputs": [
						{
							"internalType": "string",
							"name": "",
							"type": "string"
						}
					],
					"stateMutability": "view",
					"type": "function"
				},
				{
					"inputs": [],
					"name": "totalSupply",
					"outputs": [
						{
							"internalType": "uint256",
							"name": "",
							"type": "uint256"
						}
					],
					"stateMutability": "view",
					"type": "function"
				},
				{
					"inputs": [
						{
							"internalType": "address",
							"name": "_to",
							"type": "address"
						},
						{
							"internalType": "uint256",
							"name": "_value",
							"type": "uint256"
						}
					],
					"name": "transfer",
					"outputs": [
						{
							"internalType": "bool",
							"name": "success",
							"type": "bool"
						}
					],
					"stateMutability": "nonpayable",
					"type": "function"
				},
				{
					"inputs": [
						{
							"internalType": "address",
							"name": "_from",
							"type": "address"
						},
						{
							"internalType": "address",
							"name": "_to",
							"type": "address"
						},
						{
							"internalType": "uint256",
							"name": "_value",
							"type": "uint256"
						}
					],
					"name": "transferFrom",
					"outputs": [
						{
							"internalType": "bool",
							"name": "success",
							"type": "bool"
						}
					],
					"stateMutability": "nonpayable",
					"type": "function"
				},
				{
					"inputs": [
						{
							"internalType": "address",
							"name": "_newOwner",
							"type": "address"
						}
					],
					"name": "transferOwnerShip",
					"outputs": [],
					"stateMutability": "nonpayable",
					"type": "function"
				}
			],
			"devdoc": {
				"kind": "dev",
				"methods": {},
				"version": 1
			},
			"evm": {
				"assembly": "    /* \"contracts/MetaToken.sol\":65:2890  contract MonToken {... */\n  mstore(0x40, 0x80)\n    /* \"contracts/MetaToken.sol\":213:215  18 */\n  0x12\n    /* \"contracts/MetaToken.sol\":187:215  uint256 public decimals = 18 */\n  0x00\n  sstore\n    /* \"contracts/MetaToken.sol\":693:847  constructor(uint256 _totalSupply) {... */\n  callvalue\n  dup1\n  iszero\n  tag_1\n  jumpi\n  0x00\n  dup1\n  revert\ntag_1:\n  pop\n  mload(0x40)\n  sub(codesize, bytecodeSize)\n  dup1\n  bytecodeSize\n  dup4\n  codecopy\n  dup2\n  dup2\n  add\n  0x40\n  mstore\n  dup2\n  add\n  swap1\n  tag_2\n  swap2\n  swap1\n  tag_3\n  jump\t// in\ntag_2:\n    /* \"contracts/MetaToken.sol\":746:756  msg.sender */\n  caller\n    /* \"contracts/MetaToken.sol\":738:743  owner */\n  0x02\n  0x00\n    /* \"contracts/MetaToken.sol\":738:756  owner = msg.sender */\n  0x0100\n  exp\n  dup2\n  sload\n  dup2\n  0xffffffffffffffffffffffffffffffffffffffff\n  mul\n  not\n  and\n  swap1\n  dup4\n  0xffffffffffffffffffffffffffffffffffffffff\n  and\n  mul\n  or\n  swap1\n  sstore\n  pop\n    /* \"contracts/MetaToken.sol\":781:793  _totalSupply */\n  dup1\n    /* \"contracts/MetaToken.sol\":767:778  totalSupply */\n  0x01\n    /* \"contracts/MetaToken.sol\":767:793  totalSupply = _totalSupply */\n  dup2\n  swap1\n  sstore\n  pop\n    /* \"contracts/MetaToken.sol\":828:839  totalSupply */\n  sload(0x01)\n    /* \"contracts/MetaToken.sol\":804:813  balanceOf */\n  0x03\n    /* \"contracts/MetaToken.sol\":804:825  balanceOf[msg.sender] */\n  0x00\n    /* \"contracts/MetaToken.sol\":814:824  msg.sender */\n  caller\n    /* \"contracts/MetaToken.sol\":804:825  balanceOf[msg.sender] */\n  0xffffffffffffffffffffffffffffffffffffffff\n  and\n  0xffffffffffffffffffffffffffffffffffffffff\n  and\n  dup2\n  mstore\n  0x20\n  add\n  swap1\n  dup2\n  mstore\n  0x20\n  add\n  0x00\n  keccak256\n    /* \"contracts/MetaToken.sol\":804:839  balanceOf[msg.sender] = totalSupply */\n  dup2\n  swap1\n  sstore\n  pop\n    /* \"contracts/MetaToken.sol\":693:847  constructor(uint256 _totalSupply) {... */\n  pop\n    /* \"contracts/MetaToken.sol\":65:2890  contract MonToken {... */\n  jump(tag_6)\n    /* \"#utility.yul\":88:205   */\ntag_8:\n    /* \"#utility.yul\":197:198   */\n  0x00\n    /* \"#utility.yul\":194:195   */\n  dup1\n    /* \"#utility.yul\":187:199   */\n  revert\n    /* \"#utility.yul\":334:411   */\ntag_10:\n    /* \"#utility.yul\":371:378   */\n  0x00\n    /* \"#utility.yul\":400:405   */\n  dup2\n    /* \"#utility.yul\":389:405   */\n  swap1\n  pop\n    /* \"#utility.yul\":334:411   */\n  swap2\n  swap1\n  pop\n  jump\t// out\n    /* \"#utility.yul\":417:539   */\ntag_11:\n    /* \"#utility.yul\":490:514   */\n  tag_19\n    /* \"#utility.yul\":508:513   */\n  dup2\n    /* \"#utility.yul\":490:514   */\n  tag_10\n  jump\t// in\ntag_19:\n    /* \"#utility.yul\":483:488   */\n  dup2\n    /* \"#utility.yul\":480:515   */\n  eq\n    /* \"#utility.yul\":470:533   */\n  tag_20\n  jumpi\n    /* \"#utility.yul\":529:530   */\n  0x00\n    /* \"#utility.yul\":526:527   */\n  dup1\n    /* \"#utility.yul\":519:531   */\n  revert\n    /* \"#utility.yul\":470:533   */\ntag_20:\n    /* \"#utility.yul\":417:539   */\n  pop\n  jump\t// out\n    /* \"#utility.yul\":545:688   */\ntag_12:\n    /* \"#utility.yul\":602:607   */\n  0x00\n    /* \"#utility.yul\":633:639   */\n  dup2\n    /* \"#utility.yul\":627:640   */\n  mload\n    /* \"#utility.yul\":618:640   */\n  swap1\n  pop\n    /* \"#utility.yul\":649:682   */\n  tag_22\n    /* \"#utility.yul\":676:681   */\n  dup2\n    /* \"#utility.yul\":649:682   */\n  tag_11\n  jump\t// in\ntag_22:\n    /* \"#utility.yul\":545:688   */\n  swap3\n  swap2\n  pop\n  pop\n  jump\t// out\n    /* \"#utility.yul\":694:1045   */\ntag_3:\n    /* \"#utility.yul\":764:770   */\n  0x00\n    /* \"#utility.yul\":813:815   */\n  0x20\n    /* \"#utility.yul\":801:810   */\n  dup3\n    /* \"#utility.yul\":792:799   */\n  dup5\n    /* \"#utility.yul\":788:811   */\n  sub\n    /* \"#utility.yul\":784:816   */\n  slt\n    /* \"#utility.yul\":781:900   */\n  iszero\n  tag_24\n  jumpi\n    /* \"#utility.yul\":819:898   */\n  tag_25\n  tag_8\n  jump\t// in\ntag_25:\n    /* \"#utility.yul\":781:900   */\ntag_24:\n    /* \"#utility.yul\":939:940   */\n  0x00\n    /* \"#utility.yul\":964:1028   */\n  tag_26\n    /* \"#utility.yul\":1020:1027   */\n  dup5\n    /* \"#utility.yul\":1011:1017   */\n  dup3\n    /* \"#utility.yul\":1000:1009   */\n  dup6\n    /* \"#utility.yul\":996:1018   */\n  add\n    /* \"#utility.yul\":964:1028   */\n  tag_12\n  jump\t// in\ntag_26:\n    /* \"#utility.yul\":954:1028   */\n  swap2\n  pop\n    /* \"#utility.yul\":910:1038   */\n  pop\n    /* \"#utility.yul\":694:1045   */\n  swap3\n  swap2\n  pop\n  pop\n  jump\t// out\n    /* \"contracts/MetaToken.sol\":65:2890  contract MonToken {... */\ntag_6:\n  dataSize(sub_0)\n  dup1\n  dataOffset(sub_0)\n  0x00\n  codecopy\n  0x00\n  return\nstop\n\nsub_0: assembly {\n        /* \"contracts/MetaToken.sol\":65:2890  contract MonToken {... */\n      mstore(0x40, 0x80)\n      callvalue\n      dup1\n      iszero\n      tag_1\n      jumpi\n      0x00\n      dup1\n      revert\n    tag_1:\n      pop\n      jumpi(tag_2, lt(calldatasize, 0x04))\n      shr(0xe0, calldataload(0x00))\n      dup1\n      0x42966c68\n      gt\n      tag_16\n      jumpi\n      dup1\n      0x8da5cb5b\n      gt\n      tag_17\n      jumpi\n      dup1\n      0x8da5cb5b\n      eq\n      tag_12\n      jumpi\n      dup1\n      0x95d89b41\n      eq\n      tag_13\n      jumpi\n      dup1\n      0xa9059cbb\n      eq\n      tag_14\n      jumpi\n      dup1\n      0xdd62ed3e\n      eq\n      tag_15\n      jumpi\n      jump(tag_2)\n    tag_17:\n      dup1\n      0x42966c68\n      eq\n      tag_9\n      jumpi\n      dup1\n      0x70a08231\n      eq\n      tag_10\n      jumpi\n      dup1\n      0x8863dd1a\n      eq\n      tag_11\n      jumpi\n      jump(tag_2)\n    tag_16:\n      dup1\n      0x06fdde03\n      eq\n      tag_3\n      jumpi\n      dup1\n      0x095ea7b3\n      eq\n      tag_4\n      jumpi\n      dup1\n      0x18160ddd\n      eq\n      tag_5\n      jumpi\n      dup1\n      0x23b872dd\n      eq\n      tag_6\n      jumpi\n      dup1\n      0x313ce567\n      eq\n      tag_7\n      jumpi\n      dup1\n      0x40c10f19\n      eq\n      tag_8\n      jumpi\n    tag_2:\n      0x00\n      dup1\n      revert\n        /* \"contracts/MetaToken.sol\":90:131  string public constant name = \"MetaToken\" */\n    tag_3:\n      tag_18\n      tag_19\n      jump\t// in\n    tag_18:\n      mload(0x40)\n      tag_20\n      swap2\n      swap1\n      tag_21\n      jump\t// in\n    tag_20:\n      mload(0x40)\n      dup1\n      swap2\n      sub\n      swap1\n      return\n        /* \"contracts/MetaToken.sol\":1377:1619  function approve(address _spender, uint256 _value)... */\n    tag_4:\n      tag_22\n      0x04\n      dup1\n      calldatasize\n      sub\n      dup2\n      add\n      swap1\n      tag_23\n      swap2\n      swap1\n      tag_24\n      jump\t// in\n    tag_23:\n      tag_25\n      jump\t// in\n    tag_22:\n      mload(0x40)\n      tag_26\n      swap2\n      swap1\n      tag_27\n      jump\t// in\n    tag_26:\n      mload(0x40)\n      dup1\n      swap2\n      sub\n      swap1\n      return\n        /* \"contracts/MetaToken.sol\":224:250  uint256 public totalSupply */\n    tag_5:\n      tag_28\n      tag_29\n      jump\t// in\n    tag_28:\n      mload(0x40)\n      tag_30\n      swap2\n      swap1\n      tag_31\n      jump\t// in\n    tag_30:\n      mload(0x40)\n      dup1\n      swap2\n      sub\n      swap1\n      return\n        /* \"contracts/MetaToken.sol\":1627:2172  function transferFrom(... */\n    tag_6:\n      tag_32\n      0x04\n      dup1\n      calldatasize\n      sub\n      dup2\n      add\n      swap1\n      tag_33\n      swap2\n      swap1\n      tag_34\n      jump\t// in\n    tag_33:\n      tag_35\n      jump\t// in\n    tag_32:\n      mload(0x40)\n      tag_36\n      swap2\n      swap1\n      tag_27\n      jump\t// in\n    tag_36:\n      mload(0x40)\n      dup1\n      swap2\n      sub\n      swap1\n      return\n        /* \"contracts/MetaToken.sol\":187:215  uint256 public decimals = 18 */\n    tag_7:\n      tag_37\n      tag_38\n      jump\t// in\n    tag_37:\n      mload(0x40)\n      tag_39\n      swap2\n      swap1\n      tag_31\n      jump\t// in\n    tag_39:\n      mload(0x40)\n      dup1\n      swap2\n      sub\n      swap1\n      return\n        /* \"contracts/MetaToken.sol\":2180:2486  function mint(address _to, uint256 _value)... */\n    tag_8:\n      tag_40\n      0x04\n      dup1\n      calldatasize\n      sub\n      dup2\n      add\n      swap1\n      tag_41\n      swap2\n      swap1\n      tag_24\n      jump\t// in\n    tag_41:\n      tag_42\n      jump\t// in\n    tag_40:\n      mload(0x40)\n      tag_43\n      swap2\n      swap1\n      tag_27\n      jump\t// in\n    tag_43:\n      mload(0x40)\n      dup1\n      swap2\n      sub\n      swap1\n      return\n        /* \"contracts/MetaToken.sol\":2494:2730  function burn(uint256 _value) public onlyOwner returns (bool success) {... */\n    tag_9:\n      tag_44\n      0x04\n      dup1\n      calldatasize\n      sub\n      dup2\n      add\n      swap1\n      tag_45\n      swap2\n      swap1\n      tag_46\n      jump\t// in\n    tag_45:\n      tag_47\n      jump\t// in\n    tag_44:\n      mload(0x40)\n      tag_48\n      swap2\n      swap1\n      tag_27\n      jump\t// in\n    tag_48:\n      mload(0x40)\n      dup1\n      swap2\n      sub\n      swap1\n      return\n        /* \"contracts/MetaToken.sol\":288:332  mapping(address => uint256) public balanceOf */\n    tag_10:\n      tag_49\n      0x04\n      dup1\n      calldatasize\n      sub\n      dup2\n      add\n      swap1\n      tag_50\n      swap2\n      swap1\n      tag_51\n      jump\t// in\n    tag_50:\n      tag_52\n      jump\t// in\n    tag_49:\n      mload(0x40)\n      tag_53\n      swap2\n      swap1\n      tag_31\n      jump\t// in\n    tag_53:\n      mload(0x40)\n      dup1\n      swap2\n      sub\n      swap1\n      return\n        /* \"contracts/MetaToken.sol\":2738:2887  function transferOwnerShip(address _newOwner) public onlyOwner {... */\n    tag_11:\n      tag_54\n      0x04\n      dup1\n      calldatasize\n      sub\n      dup2\n      add\n      swap1\n      tag_55\n      swap2\n      swap1\n      tag_51\n      jump\t// in\n    tag_55:\n      tag_56\n      jump\t// in\n    tag_54:\n      stop\n        /* \"contracts/MetaToken.sol\":259:279  address public owner */\n    tag_12:\n      tag_57\n      tag_58\n      jump\t// in\n    tag_57:\n      mload(0x40)\n      tag_59\n      swap2\n      swap1\n      tag_60\n      jump\t// in\n    tag_59:\n      mload(0x40)\n      dup1\n      swap2\n      sub\n      swap1\n      return\n        /* \"contracts/MetaToken.sol\":140:178  string public constant symbol = \"META\" */\n    tag_13:\n      tag_61\n      tag_62\n      jump\t// in\n    tag_61:\n      mload(0x40)\n      tag_63\n      swap2\n      swap1\n      tag_21\n      jump\t// in\n    tag_63:\n      mload(0x40)\n      dup1\n      swap2\n      sub\n      swap1\n      return\n        /* \"contracts/MetaToken.sol\":959:1369  function transfer(address _to, uint256 _value)... */\n    tag_14:\n      tag_64\n      0x04\n      dup1\n      calldatasize\n      sub\n      dup2\n      add\n      swap1\n      tag_65\n      swap2\n      swap1\n      tag_24\n      jump\t// in\n    tag_65:\n      tag_66\n      jump\t// in\n    tag_64:\n      mload(0x40)\n      tag_67\n      swap2\n      swap1\n      tag_27\n      jump\t// in\n    tag_67:\n      mload(0x40)\n      dup1\n      swap2\n      sub\n      swap1\n      return\n        /* \"contracts/MetaToken.sol\":341:405  mapping(address => mapping(address => uint256)) public allowance */\n    tag_15:\n      tag_68\n      0x04\n      dup1\n      calldatasize\n      sub\n      dup2\n      add\n      swap1\n      tag_69\n      swap2\n      swap1\n      tag_70\n      jump\t// in\n    tag_69:\n      tag_71\n      jump\t// in\n    tag_68:\n      mload(0x40)\n      tag_72\n      swap2\n      swap1\n      tag_31\n      jump\t// in\n    tag_72:\n      mload(0x40)\n      dup1\n      swap2\n      sub\n      swap1\n      return\n        /* \"contracts/MetaToken.sol\":90:131  string public constant name = \"MetaToken\" */\n    tag_19:\n      mload(0x40)\n      dup1\n      0x40\n      add\n      0x40\n      mstore\n      dup1\n      0x09\n      dup2\n      mstore\n      0x20\n      add\n      0x4d657461546f6b656e0000000000000000000000000000000000000000000000\n      dup2\n      mstore\n      pop\n      dup2\n      jump\t// out\n        /* \"contracts/MetaToken.sol\":1377:1619  function approve(address _spender, uint256 _value)... */\n    tag_25:\n        /* \"contracts/MetaToken.sol\":1462:1473  bool succes */\n      0x00\n        /* \"contracts/MetaToken.sol\":1525:1531  _value */\n      dup2\n        /* \"contracts/MetaToken.sol\":1491:1500  allowance */\n      0x04\n        /* \"contracts/MetaToken.sol\":1491:1512  allowance[msg.sender] */\n      0x00\n        /* \"contracts/MetaToken.sol\":1501:1511  msg.sender */\n      caller\n        /* \"contracts/MetaToken.sol\":1491:1512  allowance[msg.sender] */\n      0xffffffffffffffffffffffffffffffffffffffff\n      and\n      0xffffffffffffffffffffffffffffffffffffffff\n      and\n      dup2\n      mstore\n      0x20\n      add\n      swap1\n      dup2\n      mstore\n      0x20\n      add\n      0x00\n      keccak256\n        /* \"contracts/MetaToken.sol\":1491:1522  allowance[msg.sender][_spender] */\n      0x00\n        /* \"contracts/MetaToken.sol\":1513:1521  _spender */\n      dup6\n        /* \"contracts/MetaToken.sol\":1491:1522  allowance[msg.sender][_spender] */\n      0xffffffffffffffffffffffffffffffffffffffff\n      and\n      0xffffffffffffffffffffffffffffffffffffffff\n      and\n      dup2\n      mstore\n      0x20\n      add\n      swap1\n      dup2\n      mstore\n      0x20\n      add\n      0x00\n      keccak256\n        /* \"contracts/MetaToken.sol\":1491:1531  allowance[msg.sender][_spender] = _value */\n      dup2\n      swap1\n      sstore\n      pop\n        /* \"contracts/MetaToken.sol\":1570:1578  _spender */\n      dup3\n        /* \"contracts/MetaToken.sol\":1549:1587  Approval(msg.sender, _spender, _value) */\n      0xffffffffffffffffffffffffffffffffffffffff\n      and\n        /* \"contracts/MetaToken.sol\":1558:1568  msg.sender */\n      caller\n        /* \"contracts/MetaToken.sol\":1549:1587  Approval(msg.sender, _spender, _value) */\n      0xffffffffffffffffffffffffffffffffffffffff\n      and\n      0x8c5be1e5ebec7d5bd14f71427d1e84f3dd0314c0f7b2291e5b200ac8c7c3b925\n        /* \"contracts/MetaToken.sol\":1580:1586  _value */\n      dup5\n        /* \"contracts/MetaToken.sol\":1549:1587  Approval(msg.sender, _spender, _value) */\n      mload(0x40)\n      tag_74\n      swap2\n      swap1\n      tag_31\n      jump\t// in\n    tag_74:\n      mload(0x40)\n      dup1\n      swap2\n      sub\n      swap1\n      log3\n        /* \"contracts/MetaToken.sol\":1607:1611  true */\n      0x01\n        /* \"contracts/MetaToken.sol\":1600:1611  return true */\n      swap1\n      pop\n        /* \"contracts/MetaToken.sol\":1377:1619  function approve(address _spender, uint256 _value)... */\n      swap3\n      swap2\n      pop\n      pop\n      jump\t// out\n        /* \"contracts/MetaToken.sol\":224:250  uint256 public totalSupply */\n    tag_29:\n      sload(0x01)\n      dup2\n      jump\t// out\n        /* \"contracts/MetaToken.sol\":1627:2172  function transferFrom(... */\n    tag_35:\n        /* \"contracts/MetaToken.sol\":1743:1755  bool success */\n      0x00\n        /* \"contracts/MetaToken.sol\":1810:1816  _value */\n      dup2\n        /* \"contracts/MetaToken.sol\":1790:1799  balanceOf */\n      0x03\n        /* \"contracts/MetaToken.sol\":1790:1806  balanceOf[_from] */\n      0x00\n        /* \"contracts/MetaToken.sol\":1800:1805  _from */\n      dup7\n        /* \"contracts/MetaToken.sol\":1790:1806  balanceOf[_from] */\n      0xffffffffffffffffffffffffffffffffffffffff\n      and\n      0xffffffffffffffffffffffffffffffffffffffff\n      and\n      dup2\n      mstore\n      0x20\n      add\n      swap1\n      dup2\n      mstore\n      0x20\n      add\n      0x00\n      keccak256\n      sload\n        /* \"contracts/MetaToken.sol\":1790:1816  balanceOf[_from] >= _value */\n      lt\n      iszero\n        /* \"contracts/MetaToken.sol\":1768:1884  require(... */\n      tag_76\n      jumpi\n      mload(0x40)\n      0x08c379a000000000000000000000000000000000000000000000000000000000\n      dup2\n      mstore\n      0x04\n      add\n      tag_77\n      swap1\n      tag_78\n      jump\t// in\n    tag_77:\n      mload(0x40)\n      dup1\n      swap2\n      sub\n      swap1\n      revert\n    tag_76:\n        /* \"contracts/MetaToken.sol\":1937:1943  _value */\n      dup2\n        /* \"contracts/MetaToken.sol\":1905:1914  allowance */\n      0x04\n        /* \"contracts/MetaToken.sol\":1905:1921  allowance[_from] */\n      0x00\n        /* \"contracts/MetaToken.sol\":1915:1920  _from */\n      dup7\n        /* \"contracts/MetaToken.sol\":1905:1921  allowance[_from] */\n      0xffffffffffffffffffffffffffffffffffffffff\n      and\n      0xffffffffffffffffffffffffffffffffffffffff\n      and\n      dup2\n      mstore\n      0x20\n      add\n      swap1\n      dup2\n      mstore\n      0x20\n      add\n      0x00\n      keccak256\n        /* \"contracts/MetaToken.sol\":1905:1933  allowance[_from][msg.sender] */\n      0x00\n        /* \"contracts/MetaToken.sol\":1922:1932  msg.sender */\n      caller\n        /* \"contracts/MetaToken.sol\":1905:1933  allowance[_from][msg.sender] */\n      0xffffffffffffffffffffffffffffffffffffffff\n      and\n      0xffffffffffffffffffffffffffffffffffffffff\n      and\n      dup2\n      mstore\n      0x20\n      add\n      swap1\n      dup2\n      mstore\n      0x20\n      add\n      0x00\n      keccak256\n      sload\n        /* \"contracts/MetaToken.sol\":1905:1943  allowance[_from][msg.sender] >= _value */\n      lt\n      iszero\n        /* \"contracts/MetaToken.sol\":1897:1962  require(allowance[_from][msg.sender] >= _value, \"not authorized\") */\n      tag_79\n      jumpi\n      mload(0x40)\n      0x08c379a000000000000000000000000000000000000000000000000000000000\n      dup2\n      mstore\n      0x04\n      add\n      tag_80\n      swap1\n      tag_81\n      jump\t// in\n    tag_80:\n      mload(0x40)\n      dup1\n      swap2\n      sub\n      swap1\n      revert\n    tag_79:\n        /* \"contracts/MetaToken.sol\":2007:2013  _value */\n      dup2\n        /* \"contracts/MetaToken.sol\":1975:1984  allowance */\n      0x04\n        /* \"contracts/MetaToken.sol\":1975:1991  allowance[_from] */\n      0x00\n        /* \"contracts/MetaToken.sol\":1985:1990  _from */\n      dup7\n        /* \"contracts/MetaToken.sol\":1975:1991  allowance[_from] */\n      0xffffffffffffffffffffffffffffffffffffffff\n      and\n      0xffffffffffffffffffffffffffffffffffffffff\n      and\n      dup2\n      mstore\n      0x20\n      add\n      swap1\n      dup2\n      mstore\n      0x20\n      add\n      0x00\n      keccak256\n        /* \"contracts/MetaToken.sol\":1975:2003  allowance[_from][msg.sender] */\n      0x00\n        /* \"contracts/MetaToken.sol\":1992:2002  msg.sender */\n      caller\n        /* \"contracts/MetaToken.sol\":1975:2003  allowance[_from][msg.sender] */\n      0xffffffffffffffffffffffffffffffffffffffff\n      and\n      0xffffffffffffffffffffffffffffffffffffffff\n      and\n      dup2\n      mstore\n      0x20\n      add\n      swap1\n      dup2\n      mstore\n      0x20\n      add\n      0x00\n      keccak256\n      0x00\n        /* \"contracts/MetaToken.sol\":1975:2013  allowance[_from][msg.sender] -= _value */\n      dup3\n      dup3\n      sload\n      tag_82\n      swap2\n      swap1\n      tag_83\n      jump\t// in\n    tag_82:\n      swap3\n      pop\n      pop\n      dup2\n      swap1\n      sstore\n      pop\n        /* \"contracts/MetaToken.sol\":2046:2052  _value */\n      dup2\n        /* \"contracts/MetaToken.sol\":2026:2035  balanceOf */\n      0x03\n        /* \"contracts/MetaToken.sol\":2026:2042  balanceOf[_from] */\n      0x00\n        /* \"contracts/MetaToken.sol\":2036:2041  _from */\n      dup7\n        /* \"contracts/MetaToken.sol\":2026:2042  balanceOf[_from] */\n      0xffffffffffffffffffffffffffffffffffffffff\n      and\n      0xffffffffffffffffffffffffffffffffffffffff\n      and\n      dup2\n      mstore\n      0x20\n      add\n      swap1\n      dup2\n      mstore\n      0x20\n      add\n      0x00\n      keccak256\n      0x00\n        /* \"contracts/MetaToken.sol\":2026:2052  balanceOf[_from] -= _value */\n      dup3\n      dup3\n      sload\n      tag_84\n      swap2\n      swap1\n      tag_83\n      jump\t// in\n    tag_84:\n      swap3\n      pop\n      pop\n      dup2\n      swap1\n      sstore\n      pop\n        /* \"contracts/MetaToken.sol\":2083:2089  _value */\n      dup2\n        /* \"contracts/MetaToken.sol\":2065:2074  balanceOf */\n      0x03\n        /* \"contracts/MetaToken.sol\":2065:2079  balanceOf[_to] */\n      0x00\n        /* \"contracts/MetaToken.sol\":2075:2078  _to */\n      dup6\n        /* \"contracts/MetaToken.sol\":2065:2079  balanceOf[_to] */\n      0xffffffffffffffffffffffffffffffffffffffff\n      and\n      0xffffffffffffffffffffffffffffffffffffffff\n      and\n      dup2\n      mstore\n      0x20\n      add\n      swap1\n      dup2\n      mstore\n      0x20\n      add\n      0x00\n      keccak256\n      0x00\n        /* \"contracts/MetaToken.sol\":2065:2089  balanceOf[_to] += _value */\n      dup3\n      dup3\n      sload\n      tag_85\n      swap2\n      swap1\n      tag_86\n      jump\t// in\n    tag_85:\n      swap3\n      pop\n      pop\n      dup2\n      swap1\n      sstore\n      pop\n        /* \"contracts/MetaToken.sol\":2128:2131  _to */\n      dup3\n        /* \"contracts/MetaToken.sol\":2107:2140  Transfer(msg.sender, _to, _value) */\n      0xffffffffffffffffffffffffffffffffffffffff\n      and\n        /* \"contracts/MetaToken.sol\":2116:2126  msg.sender */\n      caller\n        /* \"contracts/MetaToken.sol\":2107:2140  Transfer(msg.sender, _to, _value) */\n      0xffffffffffffffffffffffffffffffffffffffff\n      and\n      0xddf252ad1be2c89b69c2b068fc378daa952ba7f163c4a11628f55a4df523b3ef\n        /* \"contracts/MetaToken.sol\":2133:2139  _value */\n      dup5\n        /* \"contracts/MetaToken.sol\":2107:2140  Transfer(msg.sender, _to, _value) */\n      mload(0x40)\n      tag_87\n      swap2\n      swap1\n      tag_31\n      jump\t// in\n    tag_87:\n      mload(0x40)\n      dup1\n      swap2\n      sub\n      swap1\n      log3\n        /* \"contracts/MetaToken.sol\":2160:2164  true */\n      0x01\n        /* \"contracts/MetaToken.sol\":2153:2164  return true */\n      swap1\n      pop\n        /* \"contracts/MetaToken.sol\":1627:2172  function transferFrom(... */\n      swap4\n      swap3\n      pop\n      pop\n      pop\n      jump\t// out\n        /* \"contracts/MetaToken.sol\":187:215  uint256 public decimals = 18 */\n    tag_38:\n      sload(0x00)\n      dup2\n      jump\t// out\n        /* \"contracts/MetaToken.sol\":2180:2486  function mint(address _to, uint256 _value)... */\n    tag_42:\n        /* \"contracts/MetaToken.sol\":2276:2288  bool success */\n      0x00\n        /* \"contracts/MetaToken.sol\":909:914  owner */\n      0x02\n      0x00\n      swap1\n      sload\n      swap1\n      0x0100\n      exp\n      swap1\n      div\n      0xffffffffffffffffffffffffffffffffffffffff\n      and\n        /* \"contracts/MetaToken.sol\":895:914  msg.sender == owner */\n      0xffffffffffffffffffffffffffffffffffffffff\n      and\n        /* \"contracts/MetaToken.sol\":895:905  msg.sender */\n      caller\n        /* \"contracts/MetaToken.sol\":895:914  msg.sender == owner */\n      0xffffffffffffffffffffffffffffffffffffffff\n      and\n      eq\n        /* \"contracts/MetaToken.sol\":887:931  require(msg.sender == owner, \"pas autorise\") */\n      tag_89\n      jumpi\n      mload(0x40)\n      0x08c379a000000000000000000000000000000000000000000000000000000000\n      dup2\n      mstore\n      0x04\n      add\n      tag_90\n      swap1\n      tag_91\n      jump\t// in\n    tag_90:\n      mload(0x40)\n      dup1\n      swap2\n      sub\n      swap1\n      revert\n    tag_89:\n        /* \"contracts/MetaToken.sol\":2329:2330  0 */\n      0x00\n        /* \"contracts/MetaToken.sol\":2314:2331  _to != address(0) */\n      0xffffffffffffffffffffffffffffffffffffffff\n      and\n        /* \"contracts/MetaToken.sol\":2314:2317  _to */\n      dup4\n        /* \"contracts/MetaToken.sol\":2314:2331  _to != address(0) */\n      0xffffffffffffffffffffffffffffffffffffffff\n      and\n      sub\n        /* \"contracts/MetaToken.sol\":2306:2332  require(_to != address(0)) */\n      tag_93\n      jumpi\n      0x00\n      dup1\n      revert\n    tag_93:\n        /* \"contracts/MetaToken.sol\":2360:2366  _value */\n      dup2\n        /* \"contracts/MetaToken.sol\":2345:2356  totalSupply */\n      0x01\n      0x00\n        /* \"contracts/MetaToken.sol\":2345:2366  totalSupply += _value */\n      dup3\n      dup3\n      sload\n      tag_94\n      swap2\n      swap1\n      tag_86\n      jump\t// in\n    tag_94:\n      swap3\n      pop\n      pop\n      dup2\n      swap1\n      sstore\n      pop\n        /* \"contracts/MetaToken.sol\":2397:2403  _value */\n      dup2\n        /* \"contracts/MetaToken.sol\":2379:2388  balanceOf */\n      0x03\n        /* \"contracts/MetaToken.sol\":2379:2393  balanceOf[_to] */\n      0x00\n        /* \"contracts/MetaToken.sol\":2389:2392  _to */\n      dup6\n        /* \"contracts/MetaToken.sol\":2379:2393  balanceOf[_to] */\n      0xffffffffffffffffffffffffffffffffffffffff\n      and\n      0xffffffffffffffffffffffffffffffffffffffff\n      and\n      dup2\n      mstore\n      0x20\n      add\n      swap1\n      dup2\n      mstore\n      0x20\n      add\n      0x00\n      keccak256\n      0x00\n        /* \"contracts/MetaToken.sol\":2379:2403  balanceOf[_to] += _value */\n      dup3\n      dup3\n      sload\n      tag_95\n      swap2\n      swap1\n      tag_86\n      jump\t// in\n    tag_95:\n      swap3\n      pop\n      pop\n      dup2\n      swap1\n      sstore\n      pop\n        /* \"contracts/MetaToken.sol\":2442:2445  _to */\n      dup3\n        /* \"contracts/MetaToken.sol\":2421:2454  Transfer(msg.sender, _to, _value) */\n      0xffffffffffffffffffffffffffffffffffffffff\n      and\n        /* \"contracts/MetaToken.sol\":2430:2440  msg.sender */\n      caller\n        /* \"contracts/MetaToken.sol\":2421:2454  Transfer(msg.sender, _to, _value) */\n      0xffffffffffffffffffffffffffffffffffffffff\n      and\n      0xddf252ad1be2c89b69c2b068fc378daa952ba7f163c4a11628f55a4df523b3ef\n        /* \"contracts/MetaToken.sol\":2447:2453  _value */\n      dup5\n        /* \"contracts/MetaToken.sol\":2421:2454  Transfer(msg.sender, _to, _value) */\n      mload(0x40)\n      tag_96\n      swap2\n      swap1\n      tag_31\n      jump\t// in\n    tag_96:\n      mload(0x40)\n      dup1\n      swap2\n      sub\n      swap1\n      log3\n        /* \"contracts/MetaToken.sol\":2474:2478  true */\n      0x01\n        /* \"contracts/MetaToken.sol\":2467:2478  return true */\n      swap1\n      pop\n        /* \"contracts/MetaToken.sol\":2180:2486  function mint(address _to, uint256 _value)... */\n      swap3\n      swap2\n      pop\n      pop\n      jump\t// out\n        /* \"contracts/MetaToken.sol\":2494:2730  function burn(uint256 _value) public onlyOwner returns (bool success) {... */\n    tag_47:\n        /* \"contracts/MetaToken.sol\":2550:2562  bool success */\n      0x00\n        /* \"contracts/MetaToken.sol\":909:914  owner */\n      0x02\n      0x00\n      swap1\n      sload\n      swap1\n      0x0100\n      exp\n      swap1\n      div\n      0xffffffffffffffffffffffffffffffffffffffff\n      and\n        /* \"contracts/MetaToken.sol\":895:914  msg.sender == owner */\n      0xffffffffffffffffffffffffffffffffffffffff\n      and\n        /* \"contracts/MetaToken.sol\":895:905  msg.sender */\n      caller\n        /* \"contracts/MetaToken.sol\":895:914  msg.sender == owner */\n      0xffffffffffffffffffffffffffffffffffffffff\n      and\n      eq\n        /* \"contracts/MetaToken.sol\":887:931  require(msg.sender == owner, \"pas autorise\") */\n      tag_98\n      jumpi\n      mload(0x40)\n      0x08c379a000000000000000000000000000000000000000000000000000000000\n      dup2\n      mstore\n      0x04\n      add\n      tag_99\n      swap1\n      tag_91\n      jump\t// in\n    tag_99:\n      mload(0x40)\n      dup1\n      swap2\n      sub\n      swap1\n      revert\n    tag_98:\n        /* \"contracts/MetaToken.sol\":2590:2596  _value */\n      dup2\n        /* \"contracts/MetaToken.sol\":2575:2586  totalSupply */\n      0x01\n      0x00\n        /* \"contracts/MetaToken.sol\":2575:2596  totalSupply -= _value */\n      dup3\n      dup3\n      sload\n      tag_101\n      swap2\n      swap1\n      tag_83\n      jump\t// in\n    tag_101:\n      swap3\n      pop\n      pop\n      dup2\n      swap1\n      sstore\n      pop\n        /* \"contracts/MetaToken.sol\":2634:2640  _value */\n      dup2\n        /* \"contracts/MetaToken.sol\":2609:2618  balanceOf */\n      0x03\n        /* \"contracts/MetaToken.sol\":2609:2630  balanceOf[msg.sender] */\n      0x00\n        /* \"contracts/MetaToken.sol\":2619:2629  msg.sender */\n      caller\n        /* \"contracts/MetaToken.sol\":2609:2630  balanceOf[msg.sender] */\n      0xffffffffffffffffffffffffffffffffffffffff\n      and\n      0xffffffffffffffffffffffffffffffffffffffff\n      and\n      dup2\n      mstore\n      0x20\n      add\n      swap1\n      dup2\n      mstore\n      0x20\n      add\n      0x00\n      keccak256\n      0x00\n        /* \"contracts/MetaToken.sol\":2609:2640  balanceOf[msg.sender] -= _value */\n      dup3\n      dup3\n      sload\n      tag_102\n      swap2\n      swap1\n      tag_83\n      jump\t// in\n    tag_102:\n      swap3\n      pop\n      pop\n      dup2\n      swap1\n      sstore\n      pop\n        /* \"contracts/MetaToken.sol\":2687:2688  0 */\n      0x00\n        /* \"contracts/MetaToken.sol\":2658:2698  Transfer(msg.sender, address(0), _value) */\n      0xffffffffffffffffffffffffffffffffffffffff\n      and\n        /* \"contracts/MetaToken.sol\":2667:2677  msg.sender */\n      caller\n        /* \"contracts/MetaToken.sol\":2658:2698  Transfer(msg.sender, address(0), _value) */\n      0xffffffffffffffffffffffffffffffffffffffff\n      and\n      0xddf252ad1be2c89b69c2b068fc378daa952ba7f163c4a11628f55a4df523b3ef\n        /* \"contracts/MetaToken.sol\":2691:2697  _value */\n      dup5\n        /* \"contracts/MetaToken.sol\":2658:2698  Transfer(msg.sender, address(0), _value) */\n      mload(0x40)\n      tag_103\n      swap2\n      swap1\n      tag_31\n      jump\t// in\n    tag_103:\n      mload(0x40)\n      dup1\n      swap2\n      sub\n      swap1\n      log3\n        /* \"contracts/MetaToken.sol\":2718:2722  true */\n      0x01\n        /* \"contracts/MetaToken.sol\":2711:2722  return true */\n      swap1\n      pop\n        /* \"contracts/MetaToken.sol\":2494:2730  function burn(uint256 _value) public onlyOwner returns (bool success) {... */\n      swap2\n      swap1\n      pop\n      jump\t// out\n        /* \"contracts/MetaToken.sol\":288:332  mapping(address => uint256) public balanceOf */\n    tag_52:\n      mstore(0x20, 0x03)\n      dup1\n      0x00\n      mstore\n      keccak256(0x00, 0x40)\n      0x00\n      swap2\n      pop\n      swap1\n      pop\n      sload\n      dup2\n      jump\t// out\n        /* \"contracts/MetaToken.sol\":2738:2887  function transferOwnerShip(address _newOwner) public onlyOwner {... */\n    tag_56:\n        /* \"contracts/MetaToken.sol\":909:914  owner */\n      0x02\n      0x00\n      swap1\n      sload\n      swap1\n      0x0100\n      exp\n      swap1\n      div\n      0xffffffffffffffffffffffffffffffffffffffff\n      and\n        /* \"contracts/MetaToken.sol\":895:914  msg.sender == owner */\n      0xffffffffffffffffffffffffffffffffffffffff\n      and\n        /* \"contracts/MetaToken.sol\":895:905  msg.sender */\n      caller\n        /* \"contracts/MetaToken.sol\":895:914  msg.sender == owner */\n      0xffffffffffffffffffffffffffffffffffffffff\n      and\n      eq\n        /* \"contracts/MetaToken.sol\":887:931  require(msg.sender == owner, \"pas autorise\") */\n      tag_105\n      jumpi\n      mload(0x40)\n      0x08c379a000000000000000000000000000000000000000000000000000000000\n      dup2\n      mstore\n      0x04\n      add\n      tag_106\n      swap1\n      tag_91\n      jump\t// in\n    tag_106:\n      mload(0x40)\n      dup1\n      swap2\n      sub\n      swap1\n      revert\n    tag_105:\n        /* \"contracts/MetaToken.sol\":2820:2829  _newOwner */\n      dup1\n        /* \"contracts/MetaToken.sol\":2812:2817  owner */\n      0x02\n      0x00\n        /* \"contracts/MetaToken.sol\":2812:2829  owner = _newOwner */\n      0x0100\n      exp\n      dup2\n      sload\n      dup2\n      0xffffffffffffffffffffffffffffffffffffffff\n      mul\n      not\n      and\n      swap1\n      dup4\n      0xffffffffffffffffffffffffffffffffffffffff\n      and\n      mul\n      or\n      swap1\n      sstore\n      pop\n        /* \"contracts/MetaToken.sol\":2869:2878  _newOwner */\n      dup1\n        /* \"contracts/MetaToken.sol\":2847:2879  Ownership(msg.sender, _newOwner) */\n      0xffffffffffffffffffffffffffffffffffffffff\n      and\n        /* \"contracts/MetaToken.sol\":2857:2867  msg.sender */\n      caller\n        /* \"contracts/MetaToken.sol\":2847:2879  Ownership(msg.sender, _newOwner) */\n      0xffffffffffffffffffffffffffffffffffffffff\n      and\n      0x20785b27e5fe438f15d8e2c5ccf83f449d08d77cba6151a2857a220154128606\n      mload(0x40)\n      mload(0x40)\n      dup1\n      swap2\n      sub\n      swap1\n      log3\n        /* \"contracts/MetaToken.sol\":2738:2887  function transferOwnerShip(address _newOwner) public onlyOwner {... */\n      pop\n      jump\t// out\n        /* \"contracts/MetaToken.sol\":259:279  address public owner */\n    tag_58:\n      0x02\n      0x00\n      swap1\n      sload\n      swap1\n      0x0100\n      exp\n      swap1\n      div\n      0xffffffffffffffffffffffffffffffffffffffff\n      and\n      dup2\n      jump\t// out\n        /* \"contracts/MetaToken.sol\":140:178  string public constant symbol = \"META\" */\n    tag_62:\n      mload(0x40)\n      dup1\n      0x40\n      add\n      0x40\n      mstore\n      dup1\n      0x04\n      dup2\n      mstore\n      0x20\n      add\n      0x4d45544100000000000000000000000000000000000000000000000000000000\n      dup2\n      mstore\n      pop\n      dup2\n      jump\t// out\n        /* \"contracts/MetaToken.sol\":959:1369  function transfer(address _to, uint256 _value)... */\n    tag_66:\n        /* \"contracts/MetaToken.sol\":1040:1052  bool success */\n      0x00\n        /* \"contracts/MetaToken.sol\":1093:1094  0 */\n      dup1\n        /* \"contracts/MetaToken.sol\":1078:1095  _to != address(0) */\n      0xffffffffffffffffffffffffffffffffffffffff\n      and\n        /* \"contracts/MetaToken.sol\":1078:1081  _to */\n      dup4\n        /* \"contracts/MetaToken.sol\":1078:1095  _to != address(0) */\n      0xffffffffffffffffffffffffffffffffffffffff\n      and\n      sub\n        /* \"contracts/MetaToken.sol\":1070:1121  require(_to != address(0), \"sets a normal address\") */\n      tag_109\n      jumpi\n      mload(0x40)\n      0x08c379a000000000000000000000000000000000000000000000000000000000\n      dup2\n      mstore\n      0x04\n      add\n      tag_110\n      swap1\n      tag_111\n      jump\t// in\n    tag_110:\n      mload(0x40)\n      dup1\n      swap2\n      sub\n      swap1\n      revert\n    tag_109:\n        /* \"contracts/MetaToken.sol\":1167:1173  _value */\n      dup2\n        /* \"contracts/MetaToken.sol\":1142:1151  balanceOf */\n      0x03\n        /* \"contracts/MetaToken.sol\":1142:1163  balanceOf[msg.sender] */\n      0x00\n        /* \"contracts/MetaToken.sol\":1152:1162  msg.sender */\n      caller\n        /* \"contracts/MetaToken.sol\":1142:1163  balanceOf[msg.sender] */\n      0xffffffffffffffffffffffffffffffffffffffff\n      and\n      0xffffffffffffffffffffffffffffffffffffffff\n      and\n      dup2\n      mstore\n      0x20\n      add\n      swap1\n      dup2\n      mstore\n      0x20\n      add\n      0x00\n      keccak256\n      sload\n        /* \"contracts/MetaToken.sol\":1142:1173  balanceOf[msg.sender] >= _value */\n      lt\n      iszero\n        /* \"contracts/MetaToken.sol\":1134:1205  require(balanceOf[msg.sender] >= _value, \"you don't have enough funds\") */\n      tag_112\n      jumpi\n      mload(0x40)\n      0x08c379a000000000000000000000000000000000000000000000000000000000\n      dup2\n      mstore\n      0x04\n      add\n      tag_113\n      swap1\n      tag_114\n      jump\t// in\n    tag_113:\n      mload(0x40)\n      dup1\n      swap2\n      sub\n      swap1\n      revert\n    tag_112:\n        /* \"contracts/MetaToken.sol\":1243:1249  _value */\n      dup2\n        /* \"contracts/MetaToken.sol\":1218:1227  balanceOf */\n      0x03\n        /* \"contracts/MetaToken.sol\":1218:1239  balanceOf[msg.sender] */\n      0x00\n        /* \"contracts/MetaToken.sol\":1228:1238  msg.sender */\n      caller\n        /* \"contracts/MetaToken.sol\":1218:1239  balanceOf[msg.sender] */\n      0xffffffffffffffffffffffffffffffffffffffff\n      and\n      0xffffffffffffffffffffffffffffffffffffffff\n      and\n      dup2\n      mstore\n      0x20\n      add\n      swap1\n      dup2\n      mstore\n      0x20\n      add\n      0x00\n      keccak256\n      0x00\n        /* \"contracts/MetaToken.sol\":1218:1249  balanceOf[msg.sender] -= _value */\n      dup3\n      dup3\n      sload\n      tag_115\n      swap2\n      swap1\n      tag_83\n      jump\t// in\n    tag_115:\n      swap3\n      pop\n      pop\n      dup2\n      swap1\n      sstore\n      pop\n        /* \"contracts/MetaToken.sol\":1280:1286  _value */\n      dup2\n        /* \"contracts/MetaToken.sol\":1262:1271  balanceOf */\n      0x03\n        /* \"contracts/MetaToken.sol\":1262:1276  balanceOf[_to] */\n      0x00\n        /* \"contracts/MetaToken.sol\":1272:1275  _to */\n      dup6\n        /* \"contracts/MetaToken.sol\":1262:1276  balanceOf[_to] */\n      0xffffffffffffffffffffffffffffffffffffffff\n      and\n      0xffffffffffffffffffffffffffffffffffffffff\n      and\n      dup2\n      mstore\n      0x20\n      add\n      swap1\n      dup2\n      mstore\n      0x20\n      add\n      0x00\n      keccak256\n      0x00\n        /* \"contracts/MetaToken.sol\":1262:1286  balanceOf[_to] += _value */\n      dup3\n      dup3\n      sload\n      tag_116\n      swap2\n      swap1\n      tag_86\n      jump\t// in\n    tag_116:\n      swap3\n      pop\n      pop\n      dup2\n      swap1\n      sstore\n      pop\n        /* \"contracts/MetaToken.sol\":1325:1328  _to */\n      dup3\n        /* \"contracts/MetaToken.sol\":1304:1337  Transfer(msg.sender, _to, _value) */\n      0xffffffffffffffffffffffffffffffffffffffff\n      and\n        /* \"contracts/MetaToken.sol\":1313:1323  msg.sender */\n      caller\n        /* \"contracts/MetaToken.sol\":1304:1337  Transfer(msg.sender, _to, _value) */\n      0xffffffffffffffffffffffffffffffffffffffff\n      and\n      0xddf252ad1be2c89b69c2b068fc378daa952ba7f163c4a11628f55a4df523b3ef\n        /* \"contracts/MetaToken.sol\":1330:1336  _value */\n      dup5\n        /* \"contracts/MetaToken.sol\":1304:1337  Transfer(msg.sender, _to, _value) */\n      mload(0x40)\n      tag_117\n      swap2\n      swap1\n      tag_31\n      jump\t// in\n    tag_117:\n      mload(0x40)\n      dup1\n      swap2\n      sub\n      swap1\n      log3\n        /* \"contracts/MetaToken.sol\":1357:1361  true */\n      0x01\n        /* \"contracts/MetaToken.sol\":1350:1361  return true */\n      swap1\n      pop\n        /* \"contracts/MetaToken.sol\":959:1369  function transfer(address _to, uint256 _value)... */\n      swap3\n      swap2\n      pop\n      pop\n      jump\t// out\n        /* \"contracts/MetaToken.sol\":341:405  mapping(address => mapping(address => uint256)) public allowance */\n    tag_71:\n      mstore(0x20, 0x04)\n      dup2\n      0x00\n      mstore\n      mstore(0x20, keccak256(0x00, 0x40))\n      dup1\n      0x00\n      mstore\n      keccak256(0x00, 0x40)\n      0x00\n      swap2\n      pop\n      swap2\n      pop\n      pop\n      sload\n      dup2\n      jump\t// out\n        /* \"#utility.yul\":7:106   */\n    tag_118:\n        /* \"#utility.yul\":59:65   */\n      0x00\n        /* \"#utility.yul\":93:98   */\n      dup2\n        /* \"#utility.yul\":87:99   */\n      mload\n        /* \"#utility.yul\":77:99   */\n      swap1\n      pop\n        /* \"#utility.yul\":7:106   */\n      swap2\n      swap1\n      pop\n      jump\t// out\n        /* \"#utility.yul\":112:281   */\n    tag_119:\n        /* \"#utility.yul\":196:207   */\n      0x00\n        /* \"#utility.yul\":230:236   */\n      dup3\n        /* \"#utility.yul\":225:228   */\n      dup3\n        /* \"#utility.yul\":218:237   */\n      mstore\n        /* \"#utility.yul\":270:274   */\n      0x20\n        /* \"#utility.yul\":265:268   */\n      dup3\n        /* \"#utility.yul\":261:275   */\n      add\n        /* \"#utility.yul\":246:275   */\n      swap1\n      pop\n        /* \"#utility.yul\":112:281   */\n      swap3\n      swap2\n      pop\n      pop\n      jump\t// out\n        /* \"#utility.yul\":287:533   */\n    tag_120:\n        /* \"#utility.yul\":368:369   */\n      0x00\n        /* \"#utility.yul\":378:491   */\n    tag_152:\n        /* \"#utility.yul\":392:398   */\n      dup4\n        /* \"#utility.yul\":389:390   */\n      dup2\n        /* \"#utility.yul\":386:399   */\n      lt\n        /* \"#utility.yul\":378:491   */\n      iszero\n      tag_154\n      jumpi\n        /* \"#utility.yul\":477:478   */\n      dup1\n        /* \"#utility.yul\":472:475   */\n      dup3\n        /* \"#utility.yul\":468:479   */\n      add\n        /* \"#utility.yul\":462:480   */\n      mload\n        /* \"#utility.yul\":458:459   */\n      dup2\n        /* \"#utility.yul\":453:456   */\n      dup5\n        /* \"#utility.yul\":449:460   */\n      add\n        /* \"#utility.yul\":442:481   */\n      mstore\n        /* \"#utility.yul\":414:416   */\n      0x20\n        /* \"#utility.yul\":411:412   */\n      dup2\n        /* \"#utility.yul\":407:417   */\n      add\n        /* \"#utility.yul\":402:417   */\n      swap1\n      pop\n        /* \"#utility.yul\":378:491   */\n      jump(tag_152)\n    tag_154:\n        /* \"#utility.yul\":525:526   */\n      0x00\n        /* \"#utility.yul\":516:522   */\n      dup5\n        /* \"#utility.yul\":511:514   */\n      dup5\n        /* \"#utility.yul\":507:523   */\n      add\n        /* \"#utility.yul\":500:527   */\n      mstore\n        /* \"#utility.yul\":349:533   */\n      pop\n        /* \"#utility.yul\":287:533   */\n      pop\n      pop\n      pop\n      jump\t// out\n        /* \"#utility.yul\":539:641   */\n    tag_121:\n        /* \"#utility.yul\":580:586   */\n      0x00\n        /* \"#utility.yul\":631:633   */\n      0x1f\n        /* \"#utility.yul\":627:634   */\n      not\n        /* \"#utility.yul\":622:624   */\n      0x1f\n        /* \"#utility.yul\":615:620   */\n      dup4\n        /* \"#utility.yul\":611:625   */\n      add\n        /* \"#utility.yul\":607:635   */\n      and\n        /* \"#utility.yul\":597:635   */\n      swap1\n      pop\n        /* \"#utility.yul\":539:641   */\n      swap2\n      swap1\n      pop\n      jump\t// out\n        /* \"#utility.yul\":647:1024   */\n    tag_122:\n        /* \"#utility.yul\":735:738   */\n      0x00\n        /* \"#utility.yul\":763:802   */\n      tag_157\n        /* \"#utility.yul\":796:801   */\n      dup3\n        /* \"#utility.yul\":763:802   */\n      tag_118\n      jump\t// in\n    tag_157:\n        /* \"#utility.yul\":818:889   */\n      tag_158\n        /* \"#utility.yul\":882:888   */\n      dup2\n        /* \"#utility.yul\":877:880   */\n      dup6\n        /* \"#utility.yul\":818:889   */\n      tag_119\n      jump\t// in\n    tag_158:\n        /* \"#utility.yul\":811:889   */\n      swap4\n      pop\n        /* \"#utility.yul\":898:963   */\n      tag_159\n        /* \"#utility.yul\":956:962   */\n      dup2\n        /* \"#utility.yul\":951:954   */\n      dup6\n        /* \"#utility.yul\":944:948   */\n      0x20\n        /* \"#utility.yul\":937:942   */\n      dup7\n        /* \"#utility.yul\":933:949   */\n      add\n        /* \"#utility.yul\":898:963   */\n      tag_120\n      jump\t// in\n    tag_159:\n        /* \"#utility.yul\":988:1017   */\n      tag_160\n        /* \"#utility.yul\":1010:1016   */\n      dup2\n        /* \"#utility.yul\":988:1017   */\n      tag_121\n      jump\t// in\n    tag_160:\n        /* \"#utility.yul\":983:986   */\n      dup5\n        /* \"#utility.yul\":979:1018   */\n      add\n        /* \"#utility.yul\":972:1018   */\n      swap2\n      pop\n        /* \"#utility.yul\":739:1024   */\n      pop\n        /* \"#utility.yul\":647:1024   */\n      swap3\n      swap2\n      pop\n      pop\n      jump\t// out\n        /* \"#utility.yul\":1030:1343   */\n    tag_21:\n        /* \"#utility.yul\":1143:1147   */\n      0x00\n        /* \"#utility.yul\":1181:1183   */\n      0x20\n        /* \"#utility.yul\":1170:1179   */\n      dup3\n        /* \"#utility.yul\":1166:1184   */\n      add\n        /* \"#utility.yul\":1158:1184   */\n      swap1\n      pop\n        /* \"#utility.yul\":1230:1239   */\n      dup2\n        /* \"#utility.yul\":1224:1228   */\n      dup2\n        /* \"#utility.yul\":1220:1240   */\n      sub\n        /* \"#utility.yul\":1216:1217   */\n      0x00\n        /* \"#utility.yul\":1205:1214   */\n      dup4\n        /* \"#utility.yul\":1201:1218   */\n      add\n        /* \"#utility.yul\":1194:1241   */\n      mstore\n        /* \"#utility.yul\":1258:1336   */\n      tag_162\n        /* \"#utility.yul\":1331:1335   */\n      dup2\n        /* \"#utility.yul\":1322:1328   */\n      dup5\n        /* \"#utility.yul\":1258:1336   */\n      tag_122\n      jump\t// in\n    tag_162:\n        /* \"#utility.yul\":1250:1336   */\n      swap1\n      pop\n        /* \"#utility.yul\":1030:1343   */\n      swap3\n      swap2\n      pop\n      pop\n      jump\t// out\n        /* \"#utility.yul\":1430:1547   */\n    tag_124:\n        /* \"#utility.yul\":1539:1540   */\n      0x00\n        /* \"#utility.yul\":1536:1537   */\n      dup1\n        /* \"#utility.yul\":1529:1541   */\n      revert\n        /* \"#utility.yul\":1676:1802   */\n    tag_126:\n        /* \"#utility.yul\":1713:1720   */\n      0x00\n        /* \"#utility.yul\":1753:1795   */\n      0xffffffffffffffffffffffffffffffffffffffff\n        /* \"#utility.yul\":1746:1751   */\n      dup3\n        /* \"#utility.yul\":1742:1796   */\n      and\n        /* \"#utility.yul\":1731:1796   */\n      swap1\n      pop\n        /* \"#utility.yul\":1676:1802   */\n      swap2\n      swap1\n      pop\n      jump\t// out\n        /* \"#utility.yul\":1808:1904   */\n    tag_127:\n        /* \"#utility.yul\":1845:1852   */\n      0x00\n        /* \"#utility.yul\":1874:1898   */\n      tag_168\n        /* \"#utility.yul\":1892:1897   */\n      dup3\n        /* \"#utility.yul\":1874:1898   */\n      tag_126\n      jump\t// in\n    tag_168:\n        /* \"#utility.yul\":1863:1898   */\n      swap1\n      pop\n        /* \"#utility.yul\":1808:1904   */\n      swap2\n      swap1\n      pop\n      jump\t// out\n        /* \"#utility.yul\":1910:2032   */\n    tag_128:\n        /* \"#utility.yul\":1983:2007   */\n      tag_170\n        /* \"#utility.yul\":2001:2006   */\n      dup2\n        /* \"#utility.yul\":1983:2007   */\n      tag_127\n      jump\t// in\n    tag_170:\n        /* \"#utility.yul\":1976:1981   */\n      dup2\n        /* \"#utility.yul\":1973:2008   */\n      eq\n        /* \"#utility.yul\":1963:2026   */\n      tag_171\n      jumpi\n        /* \"#utility.yul\":2022:2023   */\n      0x00\n        /* \"#utility.yul\":2019:2020   */\n      dup1\n        /* \"#utility.yul\":2012:2024   */\n      revert\n        /* \"#utility.yul\":1963:2026   */\n    tag_171:\n        /* \"#utility.yul\":1910:2032   */\n      pop\n      jump\t// out\n        /* \"#utility.yul\":2038:2177   */\n    tag_129:\n        /* \"#utility.yul\":2084:2089   */\n      0x00\n        /* \"#utility.yul\":2122:2128   */\n      dup2\n        /* \"#utility.yul\":2109:2129   */\n      calldataload\n        /* \"#utility.yul\":2100:2129   */\n      swap1\n      pop\n        /* \"#utility.yul\":2138:2171   */\n      tag_173\n        /* \"#utility.yul\":2165:2170   */\n      dup2\n        /* \"#utility.yul\":2138:2171   */\n      tag_128\n      jump\t// in\n    tag_173:\n        /* \"#utility.yul\":2038:2177   */\n      swap3\n      swap2\n      pop\n      pop\n      jump\t// out\n        /* \"#utility.yul\":2183:2260   */\n    tag_130:\n        /* \"#utility.yul\":2220:2227   */\n      0x00\n        /* \"#utility.yul\":2249:2254   */\n      dup2\n        /* \"#utility.yul\":2238:2254   */\n      swap1\n      pop\n        /* \"#utility.yul\":2183:2260   */\n      swap2\n      swap1\n      pop\n      jump\t// out\n        /* \"#utility.yul\":2266:2388   */\n    tag_131:\n        /* \"#utility.yul\":2339:2363   */\n      tag_176\n        /* \"#utility.yul\":2357:2362   */\n      dup2\n        /* \"#utility.yul\":2339:2363   */\n      tag_130\n      jump\t// in\n    tag_176:\n        /* \"#utility.yul\":2332:2337   */\n      dup2\n        /* \"#utility.yul\":2329:2364   */\n      eq\n        /* \"#utility.yul\":2319:2382   */\n      tag_177\n      jumpi\n        /* \"#utility.yul\":2378:2379   */\n      0x00\n        /* \"#utility.yul\":2375:2376   */\n      dup1\n        /* \"#utility.yul\":2368:2380   */\n      revert\n        /* \"#utility.yul\":2319:2382   */\n    tag_177:\n        /* \"#utility.yul\":2266:2388   */\n      pop\n      jump\t// out\n        /* \"#utility.yul\":2394:2533   */\n    tag_132:\n        /* \"#utility.yul\":2440:2445   */\n      0x00\n        /* \"#utility.yul\":2478:2484   */\n      dup2\n        /* \"#utility.yul\":2465:2485   */\n      calldataload\n        /* \"#utility.yul\":2456:2485   */\n      swap1\n      pop\n        /* \"#utility.yul\":2494:2527   */\n      tag_179\n        /* \"#utility.yul\":2521:2526   */\n      dup2\n        /* \"#utility.yul\":2494:2527   */\n      tag_131\n      jump\t// in\n    tag_179:\n        /* \"#utility.yul\":2394:2533   */\n      swap3\n      swap2\n      pop\n      pop\n      jump\t// out\n        /* \"#utility.yul\":2539:3013   */\n    tag_24:\n        /* \"#utility.yul\":2607:2613   */\n      0x00\n        /* \"#utility.yul\":2615:2621   */\n      dup1\n        /* \"#utility.yul\":2664:2666   */\n      0x40\n        /* \"#utility.yul\":2652:2661   */\n      dup4\n        /* \"#utility.yul\":2643:2650   */\n      dup6\n        /* \"#utility.yul\":2639:2662   */\n      sub\n        /* \"#utility.yul\":2635:2667   */\n      slt\n        /* \"#utility.yul\":2632:2751   */\n      iszero\n      tag_181\n      jumpi\n        /* \"#utility.yul\":2670:2749   */\n      tag_182\n      tag_124\n      jump\t// in\n    tag_182:\n        /* \"#utility.yul\":2632:2751   */\n    tag_181:\n        /* \"#utility.yul\":2790:2791   */\n      0x00\n        /* \"#utility.yul\":2815:2868   */\n      tag_183\n        /* \"#utility.yul\":2860:2867   */\n      dup6\n        /* \"#utility.yul\":2851:2857   */\n      dup3\n        /* \"#utility.yul\":2840:2849   */\n      dup7\n        /* \"#utility.yul\":2836:2858   */\n      add\n        /* \"#utility.yul\":2815:2868   */\n      tag_129\n      jump\t// in\n    tag_183:\n        /* \"#utility.yul\":2805:2868   */\n      swap3\n      pop\n        /* \"#utility.yul\":2761:2878   */\n      pop\n        /* \"#utility.yul\":2917:2919   */\n      0x20\n        /* \"#utility.yul\":2943:2996   */\n      tag_184\n        /* \"#utility.yul\":2988:2995   */\n      dup6\n        /* \"#utility.yul\":2979:2985   */\n      dup3\n        /* \"#utility.yul\":2968:2977   */\n      dup7\n        /* \"#utility.yul\":2964:2986   */\n      add\n        /* \"#utility.yul\":2943:2996   */\n      tag_132\n      jump\t// in\n    tag_184:\n        /* \"#utility.yul\":2933:2996   */\n      swap2\n      pop\n        /* \"#utility.yul\":2888:3006   */\n      pop\n        /* \"#utility.yul\":2539:3013   */\n      swap3\n      pop\n      swap3\n      swap1\n      pop\n      jump\t// out\n        /* \"#utility.yul\":3019:3109   */\n    tag_133:\n        /* \"#utility.yul\":3053:3060   */\n      0x00\n        /* \"#utility.yul\":3096:3101   */\n      dup2\n        /* \"#utility.yul\":3089:3102   */\n      iszero\n        /* \"#utility.yul\":3082:3103   */\n      iszero\n        /* \"#utility.yul\":3071:3103   */\n      swap1\n      pop\n        /* \"#utility.yul\":3019:3109   */\n      swap2\n      swap1\n      pop\n      jump\t// out\n        /* \"#utility.yul\":3115:3224   */\n    tag_134:\n        /* \"#utility.yul\":3196:3217   */\n      tag_187\n        /* \"#utility.yul\":3211:3216   */\n      dup2\n        /* \"#utility.yul\":3196:3217   */\n      tag_133\n      jump\t// in\n    tag_187:\n        /* \"#utility.yul\":3191:3194   */\n      dup3\n        /* \"#utility.yul\":3184:3218   */\n      mstore\n        /* \"#utility.yul\":3115:3224   */\n      pop\n      pop\n      jump\t// out\n        /* \"#utility.yul\":3230:3440   */\n    tag_27:\n        /* \"#utility.yul\":3317:3321   */\n      0x00\n        /* \"#utility.yul\":3355:3357   */\n      0x20\n        /* \"#utility.yul\":3344:3353   */\n      dup3\n        /* \"#utility.yul\":3340:3358   */\n      add\n        /* \"#utility.yul\":3332:3358   */\n      swap1\n      pop\n        /* \"#utility.yul\":3368:3433   */\n      tag_189\n        /* \"#utility.yul\":3430:3431   */\n      0x00\n        /* \"#utility.yul\":3419:3428   */\n      dup4\n        /* \"#utility.yul\":3415:3432   */\n      add\n        /* \"#utility.yul\":3406:3412   */\n      dup5\n        /* \"#utility.yul\":3368:3433   */\n      tag_134\n      jump\t// in\n    tag_189:\n        /* \"#utility.yul\":3230:3440   */\n      swap3\n      swap2\n      pop\n      pop\n      jump\t// out\n        /* \"#utility.yul\":3446:3564   */\n    tag_135:\n        /* \"#utility.yul\":3533:3557   */\n      tag_191\n        /* \"#utility.yul\":3551:3556   */\n      dup2\n        /* \"#utility.yul\":3533:3557   */\n      tag_130\n      jump\t// in\n    tag_191:\n        /* \"#utility.yul\":3528:3531   */\n      dup3\n        /* \"#utility.yul\":3521:3558   */\n      mstore\n        /* \"#utility.yul\":3446:3564   */\n      pop\n      pop\n      jump\t// out\n        /* \"#utility.yul\":3570:3792   */\n    tag_31:\n        /* \"#utility.yul\":3663:3667   */\n      0x00\n        /* \"#utility.yul\":3701:3703   */\n      0x20\n        /* \"#utility.yul\":3690:3699   */\n      dup3\n        /* \"#utility.yul\":3686:3704   */\n      add\n        /* \"#utility.yul\":3678:3704   */\n      swap1\n      pop\n        /* \"#utility.yul\":3714:3785   */\n      tag_193\n        /* \"#utility.yul\":3782:3783   */\n      0x00\n        /* \"#utility.yul\":3771:3780   */\n      dup4\n        /* \"#utility.yul\":3767:3784   */\n      add\n        /* \"#utility.yul\":3758:3764   */\n      dup5\n        /* \"#utility.yul\":3714:3785   */\n      tag_135\n      jump\t// in\n    tag_193:\n        /* \"#utility.yul\":3570:3792   */\n      swap3\n      swap2\n      pop\n      pop\n      jump\t// out\n        /* \"#utility.yul\":3798:4417   */\n    tag_34:\n        /* \"#utility.yul\":3875:3881   */\n      0x00\n        /* \"#utility.yul\":3883:3889   */\n      dup1\n        /* \"#utility.yul\":3891:3897   */\n      0x00\n        /* \"#utility.yul\":3940:3942   */\n      0x60\n        /* \"#utility.yul\":3928:3937   */\n      dup5\n        /* \"#utility.yul\":3919:3926   */\n      dup7\n        /* \"#utility.yul\":3915:3938   */\n      sub\n        /* \"#utility.yul\":3911:3943   */\n      slt\n        /* \"#utility.yul\":3908:4027   */\n      iszero\n      tag_195\n      jumpi\n        /* \"#utility.yul\":3946:4025   */\n      tag_196\n      tag_124\n      jump\t// in\n    tag_196:\n        /* \"#utility.yul\":3908:4027   */\n    tag_195:\n        /* \"#utility.yul\":4066:4067   */\n      0x00\n        /* \"#utility.yul\":4091:4144   */\n      tag_197\n        /* \"#utility.yul\":4136:4143   */\n      dup7\n        /* \"#utility.yul\":4127:4133   */\n      dup3\n        /* \"#utility.yul\":4116:4125   */\n      dup8\n        /* \"#utility.yul\":4112:4134   */\n      add\n        /* \"#utility.yul\":4091:4144   */\n      tag_129\n      jump\t// in\n    tag_197:\n        /* \"#utility.yul\":4081:4144   */\n      swap4\n      pop\n        /* \"#utility.yul\":4037:4154   */\n      pop\n        /* \"#utility.yul\":4193:4195   */\n      0x20\n        /* \"#utility.yul\":4219:4272   */\n      tag_198\n        /* \"#utility.yul\":4264:4271   */\n      dup7\n        /* \"#utility.yul\":4255:4261   */\n      dup3\n        /* \"#utility.yul\":4244:4253   */\n      dup8\n        /* \"#utility.yul\":4240:4262   */\n      add\n        /* \"#utility.yul\":4219:4272   */\n      tag_129\n      jump\t// in\n    tag_198:\n        /* \"#utility.yul\":4209:4272   */\n      swap3\n      pop\n        /* \"#utility.yul\":4164:4282   */\n      pop\n        /* \"#utility.yul\":4321:4323   */\n      0x40\n        /* \"#utility.yul\":4347:4400   */\n      tag_199\n        /* \"#utility.yul\":4392:4399   */\n      dup7\n        /* \"#utility.yul\":4383:4389   */\n      dup3\n        /* \"#utility.yul\":4372:4381   */\n      dup8\n        /* \"#utility.yul\":4368:4390   */\n      add\n        /* \"#utility.yul\":4347:4400   */\n      tag_132\n      jump\t// in\n    tag_199:\n        /* \"#utility.yul\":4337:4400   */\n      swap2\n      pop\n        /* \"#utility.yul\":4292:4410   */\n      pop\n        /* \"#utility.yul\":3798:4417   */\n      swap3\n      pop\n      swap3\n      pop\n      swap3\n      jump\t// out\n        /* \"#utility.yul\":4423:4752   */\n    tag_46:\n        /* \"#utility.yul\":4482:4488   */\n      0x00\n        /* \"#utility.yul\":4531:4533   */\n      0x20\n        /* \"#utility.yul\":4519:4528   */\n      dup3\n        /* \"#utility.yul\":4510:4517   */\n      dup5\n        /* \"#utility.yul\":4506:4529   */\n      sub\n        /* \"#utility.yul\":4502:4534   */\n      slt\n        /* \"#utility.yul\":4499:4618   */\n      iszero\n      tag_201\n      jumpi\n        /* \"#utility.yul\":4537:4616   */\n      tag_202\n      tag_124\n      jump\t// in\n    tag_202:\n        /* \"#utility.yul\":4499:4618   */\n    tag_201:\n        /* \"#utility.yul\":4657:4658   */\n      0x00\n        /* \"#utility.yul\":4682:4735   */\n      tag_203\n        /* \"#utility.yul\":4727:4734   */\n      dup5\n        /* \"#utility.yul\":4718:4724   */\n      dup3\n        /* \"#utility.yul\":4707:4716   */\n      dup6\n        /* \"#utility.yul\":4703:4725   */\n      add\n        /* \"#utility.yul\":4682:4735   */\n      tag_132\n      jump\t// in\n    tag_203:\n        /* \"#utility.yul\":4672:4735   */\n      swap2\n      pop\n        /* \"#utility.yul\":4628:4745   */\n      pop\n        /* \"#utility.yul\":4423:4752   */\n      swap3\n      swap2\n      pop\n      pop\n      jump\t// out\n        /* \"#utility.yul\":4758:5087   */\n    tag_51:\n        /* \"#utility.yul\":4817:4823   */\n      0x00\n        /* \"#utility.yul\":4866:4868   */\n      0x20\n        /* \"#utility.yul\":4854:4863   */\n      dup3\n        /* \"#utility.yul\":4845:4852   */\n      dup5\n        /* \"#utility.yul\":4841:4864   */\n      sub\n        /* \"#utility.yul\":4837:4869   */\n      slt\n        /* \"#utility.yul\":4834:4953   */\n      iszero\n      tag_205\n      jumpi\n        /* \"#utility.yul\":4872:4951   */\n      tag_206\n      tag_124\n      jump\t// in\n    tag_206:\n        /* \"#utility.yul\":4834:4953   */\n    tag_205:\n        /* \"#utility.yul\":4992:4993   */\n      0x00\n        /* \"#utility.yul\":5017:5070   */\n      tag_207\n        /* \"#utility.yul\":5062:5069   */\n      dup5\n        /* \"#utility.yul\":5053:5059   */\n      dup3\n        /* \"#utility.yul\":5042:5051   */\n      dup6\n        /* \"#utility.yul\":5038:5060   */\n      add\n        /* \"#utility.yul\":5017:5070   */\n      tag_129\n      jump\t// in\n    tag_207:\n        /* \"#utility.yul\":5007:5070   */\n      swap2\n      pop\n        /* \"#utility.yul\":4963:5080   */\n      pop\n        /* \"#utility.yul\":4758:5087   */\n      swap3\n      swap2\n      pop\n      pop\n      jump\t// out\n        /* \"#utility.yul\":5093:5211   */\n    tag_136:\n        /* \"#utility.yul\":5180:5204   */\n      tag_209\n        /* \"#utility.yul\":5198:5203   */\n      dup2\n        /* \"#utility.yul\":5180:5204   */\n      tag_127\n      jump\t// in\n    tag_209:\n        /* \"#utility.yul\":5175:5178   */\n      dup3\n        /* \"#utility.yul\":5168:5205   */\n      mstore\n        /* \"#utility.yul\":5093:5211   */\n      pop\n      pop\n      jump\t// out\n        /* \"#utility.yul\":5217:5439   */\n    tag_60:\n        /* \"#utility.yul\":5310:5314   */\n      0x00\n        /* \"#utility.yul\":5348:5350   */\n      0x20\n        /* \"#utility.yul\":5337:5346   */\n      dup3\n        /* \"#utility.yul\":5333:5351   */\n      add\n        /* \"#utility.yul\":5325:5351   */\n      swap1\n      pop\n        /* \"#utility.yul\":5361:5432   */\n      tag_211\n        /* \"#utility.yul\":5429:5430   */\n      0x00\n        /* \"#utility.yul\":5418:5427   */\n      dup4\n        /* \"#utility.yul\":5414:5431   */\n      add\n        /* \"#utility.yul\":5405:5411   */\n      dup5\n        /* \"#utility.yul\":5361:5432   */\n      tag_136\n      jump\t// in\n    tag_211:\n        /* \"#utility.yul\":5217:5439   */\n      swap3\n      swap2\n      pop\n      pop\n      jump\t// out\n        /* \"#utility.yul\":5445:5919   */\n    tag_70:\n        /* \"#utility.yul\":5513:5519   */\n      0x00\n        /* \"#utility.yul\":5521:5527   */\n      dup1\n        /* \"#utility.yul\":5570:5572   */\n      0x40\n        /* \"#utility.yul\":5558:5567   */\n      dup4\n        /* \"#utility.yul\":5549:5556   */\n      dup6\n        /* \"#utility.yul\":5545:5568   */\n      sub\n        /* \"#utility.yul\":5541:5573   */\n      slt\n        /* \"#utility.yul\":5538:5657   */\n      iszero\n      tag_213\n      jumpi\n        /* \"#utility.yul\":5576:5655   */\n      tag_214\n      tag_124\n      jump\t// in\n    tag_214:\n        /* \"#utility.yul\":5538:5657   */\n    tag_213:\n        /* \"#utility.yul\":5696:5697   */\n      0x00\n        /* \"#utility.yul\":5721:5774   */\n      tag_215\n        /* \"#utility.yul\":5766:5773   */\n      dup6\n        /* \"#utility.yul\":5757:5763   */\n      dup3\n        /* \"#utility.yul\":5746:5755   */\n      dup7\n        /* \"#utility.yul\":5742:5764   */\n      add\n        /* \"#utility.yul\":5721:5774   */\n      tag_129\n      jump\t// in\n    tag_215:\n        /* \"#utility.yul\":5711:5774   */\n      swap3\n      pop\n        /* \"#utility.yul\":5667:5784   */\n      pop\n        /* \"#utility.yul\":5823:5825   */\n      0x20\n        /* \"#utility.yul\":5849:5902   */\n      tag_216\n        /* \"#utility.yul\":5894:5901   */\n      dup6\n        /* \"#utility.yul\":5885:5891   */\n      dup3\n        /* \"#utility.yul\":5874:5883   */\n      dup7\n        /* \"#utility.yul\":5870:5892   */\n      add\n        /* \"#utility.yul\":5849:5902   */\n      tag_129\n      jump\t// in\n    tag_216:\n        /* \"#utility.yul\":5839:5902   */\n      swap2\n      pop\n        /* \"#utility.yul\":5794:5912   */\n      pop\n        /* \"#utility.yul\":5445:5919   */\n      swap3\n      pop\n      swap3\n      swap1\n      pop\n      jump\t// out\n        /* \"#utility.yul\":5925:6152   */\n    tag_137:\n        /* \"#utility.yul\":6065:6099   */\n      0x776520646f6e2774206861766520656e6f75676820746f6b656e7320746f2073\n        /* \"#utility.yul\":6061:6062   */\n      0x00\n        /* \"#utility.yul\":6053:6059   */\n      dup3\n        /* \"#utility.yul\":6049:6063   */\n      add\n        /* \"#utility.yul\":6042:6100   */\n      mstore\n        /* \"#utility.yul\":6134:6144   */\n      0x6572766520796f75000000000000000000000000000000000000000000000000\n        /* \"#utility.yul\":6129:6131   */\n      0x20\n        /* \"#utility.yul\":6121:6127   */\n      dup3\n        /* \"#utility.yul\":6117:6132   */\n      add\n        /* \"#utility.yul\":6110:6145   */\n      mstore\n        /* \"#utility.yul\":5925:6152   */\n      pop\n      jump\t// out\n        /* \"#utility.yul\":6158:6524   */\n    tag_138:\n        /* \"#utility.yul\":6300:6303   */\n      0x00\n        /* \"#utility.yul\":6321:6388   */\n      tag_219\n        /* \"#utility.yul\":6385:6387   */\n      0x28\n        /* \"#utility.yul\":6380:6383   */\n      dup4\n        /* \"#utility.yul\":6321:6388   */\n      tag_119\n      jump\t// in\n    tag_219:\n        /* \"#utility.yul\":6314:6388   */\n      swap2\n      pop\n        /* \"#utility.yul\":6397:6490   */\n      tag_220\n        /* \"#utility.yul\":6486:6489   */\n      dup3\n        /* \"#utility.yul\":6397:6490   */\n      tag_137\n      jump\t// in\n    tag_220:\n        /* \"#utility.yul\":6515:6517   */\n      0x40\n        /* \"#utility.yul\":6510:6513   */\n      dup3\n        /* \"#utility.yul\":6506:6518   */\n      add\n        /* \"#utility.yul\":6499:6518   */\n      swap1\n      pop\n        /* \"#utility.yul\":6158:6524   */\n      swap2\n      swap1\n      pop\n      jump\t// out\n        /* \"#utility.yul\":6530:6949   */\n    tag_78:\n        /* \"#utility.yul\":6696:6700   */\n      0x00\n        /* \"#utility.yul\":6734:6736   */\n      0x20\n        /* \"#utility.yul\":6723:6732   */\n      dup3\n        /* \"#utility.yul\":6719:6737   */\n      add\n        /* \"#utility.yul\":6711:6737   */\n      swap1\n      pop\n        /* \"#utility.yul\":6783:6792   */\n      dup2\n        /* \"#utility.yul\":6777:6781   */\n      dup2\n        /* \"#utility.yul\":6773:6793   */\n      sub\n        /* \"#utility.yul\":6769:6770   */\n      0x00\n        /* \"#utility.yul\":6758:6767   */\n      dup4\n        /* \"#utility.yul\":6754:6771   */\n      add\n        /* \"#utility.yul\":6747:6794   */\n      mstore\n        /* \"#utility.yul\":6811:6942   */\n      tag_222\n        /* \"#utility.yul\":6937:6941   */\n      dup2\n        /* \"#utility.yul\":6811:6942   */\n      tag_138\n      jump\t// in\n    tag_222:\n        /* \"#utility.yul\":6803:6942   */\n      swap1\n      pop\n        /* \"#utility.yul\":6530:6949   */\n      swap2\n      swap1\n      pop\n      jump\t// out\n        /* \"#utility.yul\":6955:7119   */\n    tag_139:\n        /* \"#utility.yul\":7095:7111   */\n      0x6e6f7420617574686f72697a6564000000000000000000000000000000000000\n        /* \"#utility.yul\":7091:7092   */\n      0x00\n        /* \"#utility.yul\":7083:7089   */\n      dup3\n        /* \"#utility.yul\":7079:7093   */\n      add\n        /* \"#utility.yul\":7072:7112   */\n      mstore\n        /* \"#utility.yul\":6955:7119   */\n      pop\n      jump\t// out\n        /* \"#utility.yul\":7125:7491   */\n    tag_140:\n        /* \"#utility.yul\":7267:7270   */\n      0x00\n        /* \"#utility.yul\":7288:7355   */\n      tag_225\n        /* \"#utility.yul\":7352:7354   */\n      0x0e\n        /* \"#utility.yul\":7347:7350   */\n      dup4\n        /* \"#utility.yul\":7288:7355   */\n      tag_119\n      jump\t// in\n    tag_225:\n        /* \"#utility.yul\":7281:7355   */\n      swap2\n      pop\n        /* \"#utility.yul\":7364:7457   */\n      tag_226\n        /* \"#utility.yul\":7453:7456   */\n      dup3\n        /* \"#utility.yul\":7364:7457   */\n      tag_139\n      jump\t// in\n    tag_226:\n        /* \"#utility.yul\":7482:7484   */\n      0x20\n        /* \"#utility.yul\":7477:7480   */\n      dup3\n        /* \"#utility.yul\":7473:7485   */\n      add\n        /* \"#utility.yul\":7466:7485   */\n      swap1\n      pop\n        /* \"#utility.yul\":7125:7491   */\n      swap2\n      swap1\n      pop\n      jump\t// out\n        /* \"#utility.yul\":7497:7916   */\n    tag_81:\n        /* \"#utility.yul\":7663:7667   */\n      0x00\n        /* \"#utility.yul\":7701:7703   */\n      0x20\n        /* \"#utility.yul\":7690:7699   */\n      dup3\n        /* \"#utility.yul\":7686:7704   */\n      add\n        /* \"#utility.yul\":7678:7704   */\n      swap1\n      pop\n        /* \"#utility.yul\":7750:7759   */\n      dup2\n        /* \"#utility.yul\":7744:7748   */\n      dup2\n        /* \"#utility.yul\":7740:7760   */\n      sub\n        /* \"#utility.yul\":7736:7737   */\n      0x00\n        /* \"#utility.yul\":7725:7734   */\n      dup4\n        /* \"#utility.yul\":7721:7738   */\n      add\n        /* \"#utility.yul\":7714:7761   */\n      mstore\n        /* \"#utility.yul\":7778:7909   */\n      tag_228\n        /* \"#utility.yul\":7904:7908   */\n      dup2\n        /* \"#utility.yul\":7778:7909   */\n      tag_140\n      jump\t// in\n    tag_228:\n        /* \"#utility.yul\":7770:7909   */\n      swap1\n      pop\n        /* \"#utility.yul\":7497:7916   */\n      swap2\n      swap1\n      pop\n      jump\t// out\n        /* \"#utility.yul\":7922:8102   */\n    tag_141:\n        /* \"#utility.yul\":7970:8047   */\n      0x4e487b7100000000000000000000000000000000000000000000000000000000\n        /* \"#utility.yul\":7967:7968   */\n      0x00\n        /* \"#utility.yul\":7960:8048   */\n      mstore\n        /* \"#utility.yul\":8067:8071   */\n      0x11\n        /* \"#utility.yul\":8064:8065   */\n      0x04\n        /* \"#utility.yul\":8057:8072   */\n      mstore\n        /* \"#utility.yul\":8091:8095   */\n      0x24\n        /* \"#utility.yul\":8088:8089   */\n      0x00\n        /* \"#utility.yul\":8081:8096   */\n      revert\n        /* \"#utility.yul\":8108:8302   */\n    tag_83:\n        /* \"#utility.yul\":8148:8152   */\n      0x00\n        /* \"#utility.yul\":8168:8188   */\n      tag_231\n        /* \"#utility.yul\":8186:8187   */\n      dup3\n        /* \"#utility.yul\":8168:8188   */\n      tag_130\n      jump\t// in\n    tag_231:\n        /* \"#utility.yul\":8163:8188   */\n      swap2\n      pop\n        /* \"#utility.yul\":8202:8222   */\n      tag_232\n        /* \"#utility.yul\":8220:8221   */\n      dup4\n        /* \"#utility.yul\":8202:8222   */\n      tag_130\n      jump\t// in\n    tag_232:\n        /* \"#utility.yul\":8197:8222   */\n      swap3\n      pop\n        /* \"#utility.yul\":8246:8247   */\n      dup3\n        /* \"#utility.yul\":8243:8244   */\n      dup3\n        /* \"#utility.yul\":8239:8248   */\n      sub\n        /* \"#utility.yul\":8231:8248   */\n      swap1\n      pop\n        /* \"#utility.yul\":8270:8271   */\n      dup2\n        /* \"#utility.yul\":8264:8268   */\n      dup2\n        /* \"#utility.yul\":8261:8272   */\n      gt\n        /* \"#utility.yul\":8258:8295   */\n      iszero\n      tag_233\n      jumpi\n        /* \"#utility.yul\":8275:8293   */\n      tag_234\n      tag_141\n      jump\t// in\n    tag_234:\n        /* \"#utility.yul\":8258:8295   */\n    tag_233:\n        /* \"#utility.yul\":8108:8302   */\n      swap3\n      swap2\n      pop\n      pop\n      jump\t// out\n        /* \"#utility.yul\":8308:8499   */\n    tag_86:\n        /* \"#utility.yul\":8348:8351   */\n      0x00\n        /* \"#utility.yul\":8367:8387   */\n      tag_236\n        /* \"#utility.yul\":8385:8386   */\n      dup3\n        /* \"#utility.yul\":8367:8387   */\n      tag_130\n      jump\t// in\n    tag_236:\n        /* \"#utility.yul\":8362:8387   */\n      swap2\n      pop\n        /* \"#utility.yul\":8401:8421   */\n      tag_237\n        /* \"#utility.yul\":8419:8420   */\n      dup4\n        /* \"#utility.yul\":8401:8421   */\n      tag_130\n      jump\t// in\n    tag_237:\n        /* \"#utility.yul\":8396:8421   */\n      swap3\n      pop\n        /* \"#utility.yul\":8444:8445   */\n      dup3\n        /* \"#utility.yul\":8441:8442   */\n      dup3\n        /* \"#utility.yul\":8437:8446   */\n      add\n        /* \"#utility.yul\":8430:8446   */\n      swap1\n      pop\n        /* \"#utility.yul\":8465:8468   */\n      dup1\n        /* \"#utility.yul\":8462:8463   */\n      dup3\n        /* \"#utility.yul\":8459:8469   */\n      gt\n        /* \"#utility.yul\":8456:8492   */\n      iszero\n      tag_238\n      jumpi\n        /* \"#utility.yul\":8472:8490   */\n      tag_239\n      tag_141\n      jump\t// in\n    tag_239:\n        /* \"#utility.yul\":8456:8492   */\n    tag_238:\n        /* \"#utility.yul\":8308:8499   */\n      swap3\n      swap2\n      pop\n      pop\n      jump\t// out\n        /* \"#utility.yul\":8505:8667   */\n    tag_142:\n        /* \"#utility.yul\":8645:8659   */\n      0x706173206175746f726973650000000000000000000000000000000000000000\n        /* \"#utility.yul\":8641:8642   */\n      0x00\n        /* \"#utility.yul\":8633:8639   */\n      dup3\n        /* \"#utility.yul\":8629:8643   */\n      add\n        /* \"#utility.yul\":8622:8660   */\n      mstore\n        /* \"#utility.yul\":8505:8667   */\n      pop\n      jump\t// out\n        /* \"#utility.yul\":8673:9039   */\n    tag_143:\n        /* \"#utility.yul\":8815:8818   */\n      0x00\n        /* \"#utility.yul\":8836:8903   */\n      tag_242\n        /* \"#utility.yul\":8900:8902   */\n      0x0c\n        /* \"#utility.yul\":8895:8898   */\n      dup4\n        /* \"#utility.yul\":8836:8903   */\n      tag_119\n      jump\t// in\n    tag_242:\n        /* \"#utility.yul\":8829:8903   */\n      swap2\n      pop\n        /* \"#utility.yul\":8912:9005   */\n      tag_243\n        /* \"#utility.yul\":9001:9004   */\n      dup3\n        /* \"#utility.yul\":8912:9005   */\n      tag_142\n      jump\t// in\n    tag_243:\n        /* \"#utility.yul\":9030:9032   */\n      0x20\n        /* \"#utility.yul\":9025:9028   */\n      dup3\n        /* \"#utility.yul\":9021:9033   */\n      add\n        /* \"#utility.yul\":9014:9033   */\n      swap1\n      pop\n        /* \"#utility.yul\":8673:9039   */\n      swap2\n      swap1\n      pop\n      jump\t// out\n        /* \"#utility.yul\":9045:9464   */\n    tag_91:\n        /* \"#utility.yul\":9211:9215   */\n      0x00\n        /* \"#utility.yul\":9249:9251   */\n      0x20\n        /* \"#utility.yul\":9238:9247   */\n      dup3\n        /* \"#utility.yul\":9234:9252   */\n      add\n        /* \"#utility.yul\":9226:9252   */\n      swap1\n      pop\n        /* \"#utility.yul\":9298:9307   */\n      dup2\n        /* \"#utility.yul\":9292:9296   */\n      dup2\n        /* \"#utility.yul\":9288:9308   */\n      sub\n        /* \"#utility.yul\":9284:9285   */\n      0x00\n        /* \"#utility.yul\":9273:9282   */\n      dup4\n        /* \"#utility.yul\":9269:9286   */\n      add\n        /* \"#utility.yul\":9262:9309   */\n      mstore\n        /* \"#utility.yul\":9326:9457   */\n      tag_245\n        /* \"#utility.yul\":9452:9456   */\n      dup2\n        /* \"#utility.yul\":9326:9457   */\n      tag_143\n      jump\t// in\n    tag_245:\n        /* \"#utility.yul\":9318:9457   */\n      swap1\n      pop\n        /* \"#utility.yul\":9045:9464   */\n      swap2\n      swap1\n      pop\n      jump\t// out\n        /* \"#utility.yul\":9470:9641   */\n    tag_144:\n        /* \"#utility.yul\":9610:9633   */\n      0x736574732061206e6f726d616c20616464726573730000000000000000000000\n        /* \"#utility.yul\":9606:9607   */\n      0x00\n        /* \"#utility.yul\":9598:9604   */\n      dup3\n        /* \"#utility.yul\":9594:9608   */\n      add\n        /* \"#utility.yul\":9587:9634   */\n      mstore\n        /* \"#utility.yul\":9470:9641   */\n      pop\n      jump\t// out\n        /* \"#utility.yul\":9647:10013   */\n    tag_145:\n        /* \"#utility.yul\":9789:9792   */\n      0x00\n        /* \"#utility.yul\":9810:9877   */\n      tag_248\n        /* \"#utility.yul\":9874:9876   */\n      0x15\n        /* \"#utility.yul\":9869:9872   */\n      dup4\n        /* \"#utility.yul\":9810:9877   */\n      tag_119\n      jump\t// in\n    tag_248:\n        /* \"#utility.yul\":9803:9877   */\n      swap2\n      pop\n        /* \"#utility.yul\":9886:9979   */\n      tag_249\n        /* \"#utility.yul\":9975:9978   */\n      dup3\n        /* \"#utility.yul\":9886:9979   */\n      tag_144\n      jump\t// in\n    tag_249:\n        /* \"#utility.yul\":10004:10006   */\n      0x20\n        /* \"#utility.yul\":9999:10002   */\n      dup3\n        /* \"#utility.yul\":9995:10007   */\n      add\n        /* \"#utility.yul\":9988:10007   */\n      swap1\n      pop\n        /* \"#utility.yul\":9647:10013   */\n      swap2\n      swap1\n      pop\n      jump\t// out\n        /* \"#utility.yul\":10019:10438   */\n    tag_111:\n        /* \"#utility.yul\":10185:10189   */\n      0x00\n        /* \"#utility.yul\":10223:10225   */\n      0x20\n        /* \"#utility.yul\":10212:10221   */\n      dup3\n        /* \"#utility.yul\":10208:10226   */\n      add\n        /* \"#utility.yul\":10200:10226   */\n      swap1\n      pop\n        /* \"#utility.yul\":10272:10281   */\n      dup2\n        /* \"#utility.yul\":10266:10270   */\n      dup2\n        /* \"#utility.yul\":10262:10282   */\n      sub\n        /* \"#utility.yul\":10258:10259   */\n      0x00\n        /* \"#utility.yul\":10247:10256   */\n      dup4\n        /* \"#utility.yul\":10243:10260   */\n      add\n        /* \"#utility.yul\":10236:10283   */\n      mstore\n        /* \"#utility.yul\":10300:10431   */\n      tag_251\n        /* \"#utility.yul\":10426:10430   */\n      dup2\n        /* \"#utility.yul\":10300:10431   */\n      tag_145\n      jump\t// in\n    tag_251:\n        /* \"#utility.yul\":10292:10431   */\n      swap1\n      pop\n        /* \"#utility.yul\":10019:10438   */\n      swap2\n      swap1\n      pop\n      jump\t// out\n        /* \"#utility.yul\":10444:10621   */\n    tag_146:\n        /* \"#utility.yul\":10584:10613   */\n      0x796f7520646f6e2774206861766520656e6f7567682066756e64730000000000\n        /* \"#utility.yul\":10580:10581   */\n      0x00\n        /* \"#utility.yul\":10572:10578   */\n      dup3\n        /* \"#utility.yul\":10568:10582   */\n      add\n        /* \"#utility.yul\":10561:10614   */\n      mstore\n        /* \"#utility.yul\":10444:10621   */\n      pop\n      jump\t// out\n        /* \"#utility.yul\":10627:10993   */\n    tag_147:\n        /* \"#utility.yul\":10769:10772   */\n      0x00\n        /* \"#utility.yul\":10790:10857   */\n      tag_254\n        /* \"#utility.yul\":10854:10856   */\n      0x1b\n        /* \"#utility.yul\":10849:10852   */\n      dup4\n        /* \"#utility.yul\":10790:10857   */\n      tag_119\n      jump\t// in\n    tag_254:\n        /* \"#utility.yul\":10783:10857   */\n      swap2\n      pop\n        /* \"#utility.yul\":10866:10959   */\n      tag_255\n        /* \"#utility.yul\":10955:10958   */\n      dup3\n        /* \"#utility.yul\":10866:10959   */\n      tag_146\n      jump\t// in\n    tag_255:\n        /* \"#utility.yul\":10984:10986   */\n      0x20\n        /* \"#utility.yul\":10979:10982   */\n      dup3\n        /* \"#utility.yul\":10975:10987   */\n      add\n        /* \"#utility.yul\":10968:10987   */\n      swap1\n      pop\n        /* \"#utility.yul\":10627:10993   */\n      swap2\n      swap1\n      pop\n      jump\t// out\n        /* \"#utility.yul\":10999:11418   */\n    tag_114:\n        /* \"#utility.yul\":11165:11169   */\n      0x00\n        /* \"#utility.yul\":11203:11205   */\n      0x20\n        /* \"#utility.yul\":11192:11201   */\n      dup3\n        /* \"#utility.yul\":11188:11206   */\n      add\n        /* \"#utility.yul\":11180:11206   */\n      swap1\n      pop\n        /* \"#utility.yul\":11252:11261   */\n      dup2\n        /* \"#utility.yul\":11246:11250   */\n      dup2\n        /* \"#utility.yul\":11242:11262   */\n      sub\n        /* \"#utility.yul\":11238:11239   */\n      0x00\n        /* \"#utility.yul\":11227:11236   */\n      dup4\n        /* \"#utility.yul\":11223:11240   */\n      add\n        /* \"#utility.yul\":11216:11263   */\n      mstore\n        /* \"#utility.yul\":11280:11411   */\n      tag_257\n        /* \"#utility.yul\":11406:11410   */\n      dup2\n        /* \"#utility.yul\":11280:11411   */\n      tag_147\n      jump\t// in\n    tag_257:\n        /* \"#utility.yul\":11272:11411   */\n      swap1\n      pop\n        /* \"#utility.yul\":10999:11418   */\n      swap2\n      swap1\n      pop\n      jump\t// out\n\n    auxdata: 0xa2646970667358221220f9b18a81d336a1f5fb872da77f22e3c5a04989ca9e7ae743b805fd21d066214164736f6c63430008160033\n}\n",
				"bytecode": {
					"linkReferences": {},
					"object": "608060405260125f5534801562000014575f80fd5b50604051620014ce380380620014ce83398181016040528101906200003a919062000108565b3360025f6101000a81548173ffffffffffffffffffffffffffffffffffffffff021916908373ffffffffffffffffffffffffffffffffffffffff1602179055508060018190555060015460035f3373ffffffffffffffffffffffffffffffffffffffff1673ffffffffffffffffffffffffffffffffffffffff1681526020019081526020015f20819055505062000138565b5f80fd5b5f819050919050565b620000e481620000d0565b8114620000ef575f80fd5b50565b5f815190506200010281620000d9565b92915050565b5f6020828403121562000120576200011f620000cc565b5b5f6200012f84828501620000f2565b91505092915050565b61138880620001465f395ff3fe608060405234801561000f575f80fd5b50600436106100cd575f3560e01c806342966c681161008a5780638da5cb5b116100645780638da5cb5b1461023757806395d89b4114610255578063a9059cbb14610273578063dd62ed3e146102a3576100cd565b806342966c68146101bb57806370a08231146101eb5780638863dd1a1461021b576100cd565b806306fdde03146100d1578063095ea7b3146100ef57806318160ddd1461011f57806323b872dd1461013d578063313ce5671461016d57806340c10f191461018b575b5f80fd5b6100d96102d3565b6040516100e69190610e3b565b60405180910390f35b61010960048036038101906101049190610eec565b61030c565b6040516101169190610f44565b60405180910390f35b6101276103f9565b6040516101349190610f6c565b60405180910390f35b61015760048036038101906101529190610f85565b6103ff565b6040516101649190610f44565b60405180910390f35b6101756106df565b6040516101829190610f6c565b60405180910390f35b6101a560048036038101906101a09190610eec565b6106e4565b6040516101b29190610f44565b60405180910390f35b6101d560048036038101906101d09190610fd5565b610885565b6040516101e29190610f44565b60405180910390f35b61020560048036038101906102009190611000565b6109ee565b6040516102129190610f6c565b60405180910390f35b61023560048036038101906102309190611000565b610a03565b005b61023f610b2f565b60405161024c919061103a565b60405180910390f35b61025d610b54565b60405161026a9190610e3b565b60405180910390f35b61028d60048036038101906102889190610eec565b610b8d565b60405161029a9190610f44565b60405180910390f35b6102bd60048036038101906102b89190611053565b610d91565b6040516102ca9190610f6c565b60405180910390f35b6040518060400160405280600981526020017f4d657461546f6b656e000000000000000000000000000000000000000000000081525081565b5f8160045f3373ffffffffffffffffffffffffffffffffffffffff1673ffffffffffffffffffffffffffffffffffffffff1681526020019081526020015f205f8573ffffffffffffffffffffffffffffffffffffffff1673ffffffffffffffffffffffffffffffffffffffff1681526020019081526020015f20819055508273ffffffffffffffffffffffffffffffffffffffff163373ffffffffffffffffffffffffffffffffffffffff167f8c5be1e5ebec7d5bd14f71427d1e84f3dd0314c0f7b2291e5b200ac8c7c3b925846040516103e79190610f6c565b60405180910390a36001905092915050565b60015481565b5f8160035f8673ffffffffffffffffffffffffffffffffffffffff1673ffffffffffffffffffffffffffffffffffffffff1681526020019081526020015f20541015610480576040517f08c379a000000000000000000000000000000000000000000000000000000000815260040161047790611101565b60405180910390fd5b8160045f8673ffffffffffffffffffffffffffffffffffffffff1673ffffffffffffffffffffffffffffffffffffffff1681526020019081526020015f205f3373ffffffffffffffffffffffffffffffffffffffff1673ffffffffffffffffffffffffffffffffffffffff1681526020019081526020015f2054101561053b576040517f08c379a000000000000000000000000000000000000000000000000000000000815260040161053290611169565b60405180910390fd5b8160045f8673ffffffffffffffffffffffffffffffffffffffff1673ffffffffffffffffffffffffffffffffffffffff1681526020019081526020015f205f3373ffffffffffffffffffffffffffffffffffffffff1673ffffffffffffffffffffffffffffffffffffffff1681526020019081526020015f205f8282546105c291906111b4565b925050819055508160035f8673ffffffffffffffffffffffffffffffffffffffff1673ffffffffffffffffffffffffffffffffffffffff1681526020019081526020015f205f82825461061591906111b4565b925050819055508160035f8573ffffffffffffffffffffffffffffffffffffffff1673ffffffffffffffffffffffffffffffffffffffff1681526020019081526020015f205f82825461066891906111e7565b925050819055508273ffffffffffffffffffffffffffffffffffffffff163373ffffffffffffffffffffffffffffffffffffffff167fddf252ad1be2c89b69c2b068fc378daa952ba7f163c4a11628f55a4df523b3ef846040516106cc9190610f6c565b60405180910390a3600190509392505050565b5f5481565b5f60025f9054906101000a900473ffffffffffffffffffffffffffffffffffffffff1673ffffffffffffffffffffffffffffffffffffffff163373ffffffffffffffffffffffffffffffffffffffff1614610774576040517f08c379a000000000000000000000000000000000000000000000000000000000815260040161076b90611264565b60405180910390fd5b5f73ffffffffffffffffffffffffffffffffffffffff168373ffffffffffffffffffffffffffffffffffffffff16036107ab575f80fd5b8160015f8282546107bc91906111e7565b925050819055508160035f8573ffffffffffffffffffffffffffffffffffffffff1673ffffffffffffffffffffffffffffffffffffffff1681526020019081526020015f205f82825461080f91906111e7565b925050819055508273ffffffffffffffffffffffffffffffffffffffff163373ffffffffffffffffffffffffffffffffffffffff167fddf252ad1be2c89b69c2b068fc378daa952ba7f163c4a11628f55a4df523b3ef846040516108739190610f6c565b60405180910390a36001905092915050565b5f60025f9054906101000a900473ffffffffffffffffffffffffffffffffffffffff1673ffffffffffffffffffffffffffffffffffffffff163373ffffffffffffffffffffffffffffffffffffffff1614610915576040517f08c379a000000000000000000000000000000000000000000000000000000000815260040161090c90611264565b60405180910390fd5b8160015f82825461092691906111b4565b925050819055508160035f3373ffffffffffffffffffffffffffffffffffffffff1673ffffffffffffffffffffffffffffffffffffffff1681526020019081526020015f205f82825461097991906111b4565b925050819055505f73ffffffffffffffffffffffffffffffffffffffff163373ffffffffffffffffffffffffffffffffffffffff167fddf252ad1be2c89b69c2b068fc378daa952ba7f163c4a11628f55a4df523b3ef846040516109dd9190610f6c565b60405180910390a360019050919050565b6003602052805f5260405f205f915090505481565b60025f9054906101000a900473ffffffffffffffffffffffffffffffffffffffff1673ffffffffffffffffffffffffffffffffffffffff163373ffffffffffffffffffffffffffffffffffffffff1614610a92576040517f08c379a0000000000000000000000000000000000000000000000000000000008152600401610a8990611264565b60405180910390fd5b8060025f6101000a81548173ffffffffffffffffffffffffffffffffffffffff021916908373ffffffffffffffffffffffffffffffffffffffff1602179055508073ffffffffffffffffffffffffffffffffffffffff163373ffffffffffffffffffffffffffffffffffffffff167f20785b27e5fe438f15d8e2c5ccf83f449d08d77cba6151a2857a22015412860660405160405180910390a350565b60025f9054906101000a900473ffffffffffffffffffffffffffffffffffffffff1681565b6040518060400160405280600481526020017f4d4554410000000000000000000000000000000000000000000000000000000081525081565b5f8073ffffffffffffffffffffffffffffffffffffffff168373ffffffffffffffffffffffffffffffffffffffff1603610bfc576040517f08c379a0000000000000000000000000000000000000000000000000000000008152600401610bf3906112cc565b60405180910390fd5b8160035f3373ffffffffffffffffffffffffffffffffffffffff1673ffffffffffffffffffffffffffffffffffffffff1681526020019081526020015f20541015610c7c576040517f08c379a0000000000000000000000000000000000000000000000000000000008152600401610c7390611334565b60405180910390fd5b8160035f3373ffffffffffffffffffffffffffffffffffffffff1673ffffffffffffffffffffffffffffffffffffffff1681526020019081526020015f205f828254610cc891906111b4565b925050819055508160035f8573ffffffffffffffffffffffffffffffffffffffff1673ffffffffffffffffffffffffffffffffffffffff1681526020019081526020015f205f828254610d1b91906111e7565b925050819055508273ffffffffffffffffffffffffffffffffffffffff163373ffffffffffffffffffffffffffffffffffffffff167fddf252ad1be2c89b69c2b068fc378daa952ba7f163c4a11628f55a4df523b3ef84604051610d7f9190610f6c565b60405180910390a36001905092915050565b6004602052815f5260405f20602052805f5260405f205f91509150505481565b5f81519050919050565b5f82825260208201905092915050565b5f5b83811015610de8578082015181840152602081019050610dcd565b5f8484015250505050565b5f601f19601f8301169050919050565b5f610e0d82610db1565b610e178185610dbb565b9350610e27818560208601610dcb565b610e3081610df3565b840191505092915050565b5f6020820190508181035f830152610e538184610e03565b905092915050565b5f80fd5b5f73ffffffffffffffffffffffffffffffffffffffff82169050919050565b5f610e8882610e5f565b9050919050565b610e9881610e7e565b8114610ea2575f80fd5b50565b5f81359050610eb381610e8f565b92915050565b5f819050919050565b610ecb81610eb9565b8114610ed5575f80fd5b50565b5f81359050610ee681610ec2565b92915050565b5f8060408385031215610f0257610f01610e5b565b5b5f610f0f85828601610ea5565b9250506020610f2085828601610ed8565b9150509250929050565b5f8115159050919050565b610f3e81610f2a565b82525050565b5f602082019050610f575f830184610f35565b92915050565b610f6681610eb9565b82525050565b5f602082019050610f7f5f830184610f5d565b92915050565b5f805f60608486031215610f9c57610f9b610e5b565b5b5f610fa986828701610ea5565b9350506020610fba86828701610ea5565b9250506040610fcb86828701610ed8565b9150509250925092565b5f60208284031215610fea57610fe9610e5b565b5b5f610ff784828501610ed8565b91505092915050565b5f6020828403121561101557611014610e5b565b5b5f61102284828501610ea5565b91505092915050565b61103481610e7e565b82525050565b5f60208201905061104d5f83018461102b565b92915050565b5f806040838503121561106957611068610e5b565b5b5f61107685828601610ea5565b925050602061108785828601610ea5565b9150509250929050565b7f776520646f6e2774206861766520656e6f75676820746f6b656e7320746f20735f8201527f6572766520796f75000000000000000000000000000000000000000000000000602082015250565b5f6110eb602883610dbb565b91506110f682611091565b604082019050919050565b5f6020820190508181035f830152611118816110df565b9050919050565b7f6e6f7420617574686f72697a65640000000000000000000000000000000000005f82015250565b5f611153600e83610dbb565b915061115e8261111f565b602082019050919050565b5f6020820190508181035f83015261118081611147565b9050919050565b7f4e487b71000000000000000000000000000000000000000000000000000000005f52601160045260245ffd5b5f6111be82610eb9565b91506111c983610eb9565b92508282039050818111156111e1576111e0611187565b5b92915050565b5f6111f182610eb9565b91506111fc83610eb9565b925082820190508082111561121457611213611187565b5b92915050565b7f706173206175746f7269736500000000000000000000000000000000000000005f82015250565b5f61124e600c83610dbb565b91506112598261121a565b602082019050919050565b5f6020820190508181035f83015261127b81611242565b9050919050565b7f736574732061206e6f726d616c206164647265737300000000000000000000005f82015250565b5f6112b6601583610dbb565b91506112c182611282565b602082019050919050565b5f6020820190508181035f8301526112e3816112aa565b9050919050565b7f796f7520646f6e2774206861766520656e6f7567682066756e647300000000005f82015250565b5f61131e601b83610dbb565b9150611329826112ea565b602082019050919050565b5f6020820190508181035f83015261134b81611312565b905091905056fea2646970667358221220f9b18a81d336a1f5fb872da77f22e3c5a04989ca9e7ae743b805fd21d066214164736f6c63430008160033",
					"opcodes": "PUSH1 0x80 PUSH1 0x40 MSTORE PUSH1 0x12 PUSH0 SSTORE CALLVALUE DUP1 ISZERO PUSH3 0x14 JUMPI PUSH0 DUP1 REVERT JUMPDEST POP PUSH1 0x40 MLOAD PUSH3 0x14CE CODESIZE SUB DUP1 PUSH3 0x14CE DUP4 CODECOPY DUP2 DUP2 ADD PUSH1 0x40 MSTORE DUP2 ADD SWAP1 PUSH3 0x3A SWAP2 SWAP1 PUSH3 0x108 JUMP JUMPDEST CALLER PUSH1 0x2 PUSH0 PUSH2 0x100 EXP DUP2 SLOAD DUP2 PUSH20 0xFFFFFFFFFFFFFFFFFFFFFFFFFFFFFFFFFFFFFFFF MUL NOT AND SWAP1 DUP4 PUSH20 0xFFFFFFFFFFFFFFFFFFFFFFFFFFFFFFFFFFFFFFFF AND MUL OR SWAP1 SSTORE POP DUP1 PUSH1 0x1 DUP2 SWAP1 SSTORE POP PUSH1 0x1 SLOAD PUSH1 0x3 PUSH0 CALLER PUSH20 0xFFFFFFFFFFFFFFFFFFFFFFFFFFFFFFFFFFFFFFFF AND PUSH20 0xFFFFFFFFFFFFFFFFFFFFFFFFFFFFFFFFFFFFFFFF AND DUP2 MSTORE PUSH1 0x20 ADD SWAP1 DUP2 MSTORE PUSH1 0x20 ADD PUSH0 KECCAK256 DUP2 SWAP1 SSTORE POP POP PUSH3 0x138 JUMP JUMPDEST PUSH0 DUP1 REVERT JUMPDEST PUSH0 DUP2 SWAP1 POP SWAP2 SWAP1 POP JUMP JUMPDEST PUSH3 0xE4 DUP2 PUSH3 0xD0 JUMP JUMPDEST DUP2 EQ PUSH3 0xEF JUMPI PUSH0 DUP1 REVERT JUMPDEST POP JUMP JUMPDEST PUSH0 DUP2 MLOAD SWAP1 POP PUSH3 0x102 DUP2 PUSH3 0xD9 JUMP JUMPDEST SWAP3 SWAP2 POP POP JUMP JUMPDEST PUSH0 PUSH1 0x20 DUP3 DUP5 SUB SLT ISZERO PUSH3 0x120 JUMPI PUSH3 0x11F PUSH3 0xCC JUMP JUMPDEST JUMPDEST PUSH0 PUSH3 0x12F DUP5 DUP3 DUP6 ADD PUSH3 0xF2 JUMP JUMPDEST SWAP2 POP POP SWAP3 SWAP2 POP POP JUMP JUMPDEST PUSH2 0x1388 DUP1 PUSH3 0x146 PUSH0 CODECOPY PUSH0 RETURN INVALID PUSH1 0x80 PUSH1 0x40 MSTORE CALLVALUE DUP1 ISZERO PUSH2 0xF JUMPI PUSH0 DUP1 REVERT JUMPDEST POP PUSH1 0x4 CALLDATASIZE LT PUSH2 0xCD JUMPI PUSH0 CALLDATALOAD PUSH1 0xE0 SHR DUP1 PUSH4 0x42966C68 GT PUSH2 0x8A JUMPI DUP1 PUSH4 0x8DA5CB5B GT PUSH2 0x64 JUMPI DUP1 PUSH4 0x8DA5CB5B EQ PUSH2 0x237 JUMPI DUP1 PUSH4 0x95D89B41 EQ PUSH2 0x255 JUMPI DUP1 PUSH4 0xA9059CBB EQ PUSH2 0x273 JUMPI DUP1 PUSH4 0xDD62ED3E EQ PUSH2 0x2A3 JUMPI PUSH2 0xCD JUMP JUMPDEST DUP1 PUSH4 0x42966C68 EQ PUSH2 0x1BB JUMPI DUP1 PUSH4 0x70A08231 EQ PUSH2 0x1EB JUMPI DUP1 PUSH4 0x8863DD1A EQ PUSH2 0x21B JUMPI PUSH2 0xCD JUMP JUMPDEST DUP1 PUSH4 0x6FDDE03 EQ PUSH2 0xD1 JUMPI DUP1 PUSH4 0x95EA7B3 EQ PUSH2 0xEF JUMPI DUP1 PUSH4 0x18160DDD EQ PUSH2 0x11F JUMPI DUP1 PUSH4 0x23B872DD EQ PUSH2 0x13D JUMPI DUP1 PUSH4 0x313CE567 EQ PUSH2 0x16D JUMPI DUP1 PUSH4 0x40C10F19 EQ PUSH2 0x18B JUMPI JUMPDEST PUSH0 DUP1 REVERT JUMPDEST PUSH2 0xD9 PUSH2 0x2D3 JUMP JUMPDEST PUSH1 0x40 MLOAD PUSH2 0xE6 SWAP2 SWAP1 PUSH2 0xE3B JUMP JUMPDEST PUSH1 0x40 MLOAD DUP1 SWAP2 SUB SWAP1 RETURN JUMPDEST PUSH2 0x109 PUSH1 0x4 DUP1 CALLDATASIZE SUB DUP2 ADD SWAP1 PUSH2 0x104 SWAP2 SWAP1 PUSH2 0xEEC JUMP JUMPDEST PUSH2 0x30C JUMP JUMPDEST PUSH1 0x40 MLOAD PUSH2 0x116 SWAP2 SWAP1 PUSH2 0xF44 JUMP JUMPDEST PUSH1 0x40 MLOAD DUP1 SWAP2 SUB SWAP1 RETURN JUMPDEST PUSH2 0x127 PUSH2 0x3F9 JUMP JUMPDEST PUSH1 0x40 MLOAD PUSH2 0x134 SWAP2 SWAP1 PUSH2 0xF6C JUMP JUMPDEST PUSH1 0x40 MLOAD DUP1 SWAP2 SUB SWAP1 RETURN JUMPDEST PUSH2 0x157 PUSH1 0x4 DUP1 CALLDATASIZE SUB DUP2 ADD SWAP1 PUSH2 0x152 SWAP2 SWAP1 PUSH2 0xF85 JUMP JUMPDEST PUSH2 0x3FF JUMP JUMPDEST PUSH1 0x40 MLOAD PUSH2 0x164 SWAP2 SWAP1 PUSH2 0xF44 JUMP JUMPDEST PUSH1 0x40 MLOAD DUP1 SWAP2 SUB SWAP1 RETURN JUMPDEST PUSH2 0x175 PUSH2 0x6DF JUMP JUMPDEST PUSH1 0x40 MLOAD PUSH2 0x182 SWAP2 SWAP1 PUSH2 0xF6C JUMP JUMPDEST PUSH1 0x40 MLOAD DUP1 SWAP2 SUB SWAP1 RETURN JUMPDEST PUSH2 0x1A5 PUSH1 0x4 DUP1 CALLDATASIZE SUB DUP2 ADD SWAP1 PUSH2 0x1A0 SWAP2 SWAP1 PUSH2 0xEEC JUMP JUMPDEST PUSH2 0x6E4 JUMP JUMPDEST PUSH1 0x40 MLOAD PUSH2 0x1B2 SWAP2 SWAP1 PUSH2 0xF44 JUMP JUMPDEST PUSH1 0x40 MLOAD DUP1 SWAP2 SUB SWAP1 RETURN JUMPDEST PUSH2 0x1D5 PUSH1 0x4 DUP1 CALLDATASIZE SUB DUP2 ADD SWAP1 PUSH2 0x1D0 SWAP2 SWAP1 PUSH2 0xFD5 JUMP JUMPDEST PUSH2 0x885 JUMP JUMPDEST PUSH1 0x40 MLOAD PUSH2 0x1E2 SWAP2 SWAP1 PUSH2 0xF44 JUMP JUMPDEST PUSH1 0x40 MLOAD DUP1 SWAP2 SUB SWAP1 RETURN JUMPDEST PUSH2 0x205 PUSH1 0x4 DUP1 CALLDATASIZE SUB DUP2 ADD SWAP1 PUSH2 0x200 SWAP2 SWAP1 PUSH2 0x1000 JUMP JUMPDEST PUSH2 0x9EE JUMP JUMPDEST PUSH1 0x40 MLOAD PUSH2 0x212 SWAP2 SWAP1 PUSH2 0xF6C JUMP JUMPDEST PUSH1 0x40 MLOAD DUP1 SWAP2 SUB SWAP1 RETURN JUMPDEST PUSH2 0x235 PUSH1 0x4 DUP1 CALLDATASIZE SUB DUP2 ADD SWAP1 PUSH2 0x230 SWAP2 SWAP1 PUSH2 0x1000 JUMP JUMPDEST PUSH2 0xA03 JUMP JUMPDEST STOP JUMPDEST PUSH2 0x23F PUSH2 0xB2F JUMP JUMPDEST PUSH1 0x40 MLOAD PUSH2 0x24C SWAP2 SWAP1 PUSH2 0x103A JUMP JUMPDEST PUSH1 0x40 MLOAD DUP1 SWAP2 SUB SWAP1 RETURN JUMPDEST PUSH2 0x25D PUSH2 0xB54 JUMP JUMPDEST PUSH1 0x40 MLOAD PUSH2 0x26A SWAP2 SWAP1 PUSH2 0xE3B JUMP JUMPDEST PUSH1 0x40 MLOAD DUP1 SWAP2 SUB SWAP1 RETURN JUMPDEST PUSH2 0x28D PUSH1 0x4 DUP1 CALLDATASIZE SUB DUP2 ADD SWAP1 PUSH2 0x288 SWAP2 SWAP1 PUSH2 0xEEC JUMP JUMPDEST PUSH2 0xB8D JUMP JUMPDEST PUSH1 0x40 MLOAD PUSH2 0x29A SWAP2 SWAP1 PUSH2 0xF44 JUMP JUMPDEST PUSH1 0x40 MLOAD DUP1 SWAP2 SUB SWAP1 RETURN JUMPDEST PUSH2 0x2BD PUSH1 0x4 DUP1 CALLDATASIZE SUB DUP2 ADD SWAP1 PUSH2 0x2B8 SWAP2 SWAP1 PUSH2 0x1053 JUMP JUMPDEST PUSH2 0xD91 JUMP JUMPDEST PUSH1 0x40 MLOAD PUSH2 0x2CA SWAP2 SWAP1 PUSH2 0xF6C JUMP JUMPDEST PUSH1 0x40 MLOAD DUP1 SWAP2 SUB SWAP1 RETURN JUMPDEST PUSH1 0x40 MLOAD DUP1 PUSH1 0x40 ADD PUSH1 0x40 MSTORE DUP1 PUSH1 0x9 DUP2 MSTORE PUSH1 0x20 ADD PUSH32 0x4D657461546F6B656E0000000000000000000000000000000000000000000000 DUP2 MSTORE POP DUP2 JUMP JUMPDEST PUSH0 DUP2 PUSH1 0x4 PUSH0 CALLER PUSH20 0xFFFFFFFFFFFFFFFFFFFFFFFFFFFFFFFFFFFFFFFF AND PUSH20 0xFFFFFFFFFFFFFFFFFFFFFFFFFFFFFFFFFFFFFFFF AND DUP2 MSTORE PUSH1 0x20 ADD SWAP1 DUP2 MSTORE PUSH1 0x20 ADD PUSH0 KECCAK256 PUSH0 DUP6 PUSH20 0xFFFFFFFFFFFFFFFFFFFFFFFFFFFFFFFFFFFFFFFF AND PUSH20 0xFFFFFFFFFFFFFFFFFFFFFFFFFFFFFFFFFFFFFFFF AND DUP2 MSTORE PUSH1 0x20 ADD SWAP1 DUP2 MSTORE PUSH1 0x20 ADD PUSH0 KECCAK256 DUP2 SWAP1 SSTORE POP DUP3 PUSH20 0xFFFFFFFFFFFFFFFFFFFFFFFFFFFFFFFFFFFFFFFF AND CALLER PUSH20 0xFFFFFFFFFFFFFFFFFFFFFFFFFFFFFFFFFFFFFFFF AND PUSH32 0x8C5BE1E5EBEC7D5BD14F71427D1E84F3DD0314C0F7B2291E5B200AC8C7C3B925 DUP5 PUSH1 0x40 MLOAD PUSH2 0x3E7 SWAP2 SWAP1 PUSH2 0xF6C JUMP JUMPDEST PUSH1 0x40 MLOAD DUP1 SWAP2 SUB SWAP1 LOG3 PUSH1 0x1 SWAP1 POP SWAP3 SWAP2 POP POP JUMP JUMPDEST PUSH1 0x1 SLOAD DUP2 JUMP JUMPDEST PUSH0 DUP2 PUSH1 0x3 PUSH0 DUP7 PUSH20 0xFFFFFFFFFFFFFFFFFFFFFFFFFFFFFFFFFFFFFFFF AND PUSH20 0xFFFFFFFFFFFFFFFFFFFFFFFFFFFFFFFFFFFFFFFF AND DUP2 MSTORE PUSH1 0x20 ADD SWAP1 DUP2 MSTORE PUSH1 0x20 ADD PUSH0 KECCAK256 SLOAD LT ISZERO PUSH2 0x480 JUMPI PUSH1 0x40 MLOAD PUSH32 0x8C379A000000000000000000000000000000000000000000000000000000000 DUP2 MSTORE PUSH1 0x4 ADD PUSH2 0x477 SWAP1 PUSH2 0x1101 JUMP JUMPDEST PUSH1 0x40 MLOAD DUP1 SWAP2 SUB SWAP1 REVERT JUMPDEST DUP2 PUSH1 0x4 PUSH0 DUP7 PUSH20 0xFFFFFFFFFFFFFFFFFFFFFFFFFFFFFFFFFFFFFFFF AND PUSH20 0xFFFFFFFFFFFFFFFFFFFFFFFFFFFFFFFFFFFFFFFF AND DUP2 MSTORE PUSH1 0x20 ADD SWAP1 DUP2 MSTORE PUSH1 0x20 ADD PUSH0 KECCAK256 PUSH0 CALLER PUSH20 0xFFFFFFFFFFFFFFFFFFFFFFFFFFFFFFFFFFFFFFFF AND PUSH20 0xFFFFFFFFFFFFFFFFFFFFFFFFFFFFFFFFFFFFFFFF AND DUP2 MSTORE PUSH1 0x20 ADD SWAP1 DUP2 MSTORE PUSH1 0x20 ADD PUSH0 KECCAK256 SLOAD LT ISZERO PUSH2 0x53B JUMPI PUSH1 0x40 MLOAD PUSH32 0x8C379A000000000000000000000000000000000000000000000000000000000 DUP2 MSTORE PUSH1 0x4 ADD PUSH2 0x532 SWAP1 PUSH2 0x1169 JUMP JUMPDEST PUSH1 0x40 MLOAD DUP1 SWAP2 SUB SWAP1 REVERT JUMPDEST DUP2 PUSH1 0x4 PUSH0 DUP7 PUSH20 0xFFFFFFFFFFFFFFFFFFFFFFFFFFFFFFFFFFFFFFFF AND PUSH20 0xFFFFFFFFFFFFFFFFFFFFFFFFFFFFFFFFFFFFFFFF AND DUP2 MSTORE PUSH1 0x20 ADD SWAP1 DUP2 MSTORE PUSH1 0x20 ADD PUSH0 KECCAK256 PUSH0 CALLER PUSH20 0xFFFFFFFFFFFFFFFFFFFFFFFFFFFFFFFFFFFFFFFF AND PUSH20 0xFFFFFFFFFFFFFFFFFFFFFFFFFFFFFFFFFFFFFFFF AND DUP2 MSTORE PUSH1 0x20 ADD SWAP1 DUP2 MSTORE PUSH1 0x20 ADD PUSH0 KECCAK256 PUSH0 DUP3 DUP3 SLOAD PUSH2 0x5C2 SWAP2 SWAP1 PUSH2 0x11B4 JUMP JUMPDEST SWAP3 POP POP DUP2 SWAP1 SSTORE POP DUP2 PUSH1 0x3 PUSH0 DUP7 PUSH20 0xFFFFFFFFFFFFFFFFFFFFFFFFFFFFFFFFFFFFFFFF AND PUSH20 0xFFFFFFFFFFFFFFFFFFFFFFFFFFFFFFFFFFFFFFFF AND DUP2 MSTORE PUSH1 0x20 ADD SWAP1 DUP2 MSTORE PUSH1 0x20 ADD PUSH0 KECCAK256 PUSH0 DUP3 DUP3 SLOAD PUSH2 0x615 SWAP2 SWAP1 PUSH2 0x11B4 JUMP JUMPDEST SWAP3 POP POP DUP2 SWAP1 SSTORE POP DUP2 PUSH1 0x3 PUSH0 DUP6 PUSH20 0xFFFFFFFFFFFFFFFFFFFFFFFFFFFFFFFFFFFFFFFF AND PUSH20 0xFFFFFFFFFFFFFFFFFFFFFFFFFFFFFFFFFFFFFFFF AND DUP2 MSTORE PUSH1 0x20 ADD SWAP1 DUP2 MSTORE PUSH1 0x20 ADD PUSH0 KECCAK256 PUSH0 DUP3 DUP3 SLOAD PUSH2 0x668 SWAP2 SWAP1 PUSH2 0x11E7 JUMP JUMPDEST SWAP3 POP POP DUP2 SWAP1 SSTORE POP DUP3 PUSH20 0xFFFFFFFFFFFFFFFFFFFFFFFFFFFFFFFFFFFFFFFF AND CALLER PUSH20 0xFFFFFFFFFFFFFFFFFFFFFFFFFFFFFFFFFFFFFFFF AND PUSH32 0xDDF252AD1BE2C89B69C2B068FC378DAA952BA7F163C4A11628F55A4DF523B3EF DUP5 PUSH1 0x40 MLOAD PUSH2 0x6CC SWAP2 SWAP1 PUSH2 0xF6C JUMP JUMPDEST PUSH1 0x40 MLOAD DUP1 SWAP2 SUB SWAP1 LOG3 PUSH1 0x1 SWAP1 POP SWAP4 SWAP3 POP POP POP JUMP JUMPDEST PUSH0 SLOAD DUP2 JUMP JUMPDEST PUSH0 PUSH1 0x2 PUSH0 SWAP1 SLOAD SWAP1 PUSH2 0x100 EXP SWAP1 DIV PUSH20 0xFFFFFFFFFFFFFFFFFFFFFFFFFFFFFFFFFFFFFFFF AND PUSH20 0xFFFFFFFFFFFFFFFFFFFFFFFFFFFFFFFFFFFFFFFF AND CALLER PUSH20 0xFFFFFFFFFFFFFFFFFFFFFFFFFFFFFFFFFFFFFFFF AND EQ PUSH2 0x774 JUMPI PUSH1 0x40 MLOAD PUSH32 0x8C379A000000000000000000000000000000000000000000000000000000000 DUP2 MSTORE PUSH1 0x4 ADD PUSH2 0x76B SWAP1 PUSH2 0x1264 JUMP JUMPDEST PUSH1 0x40 MLOAD DUP1 SWAP2 SUB SWAP1 REVERT JUMPDEST PUSH0 PUSH20 0xFFFFFFFFFFFFFFFFFFFFFFFFFFFFFFFFFFFFFFFF AND DUP4 PUSH20 0xFFFFFFFFFFFFFFFFFFFFFFFFFFFFFFFFFFFFFFFF AND SUB PUSH2 0x7AB JUMPI PUSH0 DUP1 REVERT JUMPDEST DUP2 PUSH1 0x1 PUSH0 DUP3 DUP3 SLOAD PUSH2 0x7BC SWAP2 SWAP1 PUSH2 0x11E7 JUMP JUMPDEST SWAP3 POP POP DUP2 SWAP1 SSTORE POP DUP2 PUSH1 0x3 PUSH0 DUP6 PUSH20 0xFFFFFFFFFFFFFFFFFFFFFFFFFFFFFFFFFFFFFFFF AND PUSH20 0xFFFFFFFFFFFFFFFFFFFFFFFFFFFFFFFFFFFFFFFF AND DUP2 MSTORE PUSH1 0x20 ADD SWAP1 DUP2 MSTORE PUSH1 0x20 ADD PUSH0 KECCAK256 PUSH0 DUP3 DUP3 SLOAD PUSH2 0x80F SWAP2 SWAP1 PUSH2 0x11E7 JUMP JUMPDEST SWAP3 POP POP DUP2 SWAP1 SSTORE POP DUP3 PUSH20 0xFFFFFFFFFFFFFFFFFFFFFFFFFFFFFFFFFFFFFFFF AND CALLER PUSH20 0xFFFFFFFFFFFFFFFFFFFFFFFFFFFFFFFFFFFFFFFF AND PUSH32 0xDDF252AD1BE2C89B69C2B068FC378DAA952BA7F163C4A11628F55A4DF523B3EF DUP5 PUSH1 0x40 MLOAD PUSH2 0x873 SWAP2 SWAP1 PUSH2 0xF6C JUMP JUMPDEST PUSH1 0x40 MLOAD DUP1 SWAP2 SUB SWAP1 LOG3 PUSH1 0x1 SWAP1 POP SWAP3 SWAP2 POP POP JUMP JUMPDEST PUSH0 PUSH1 0x2 PUSH0 SWAP1 SLOAD SWAP1 PUSH2 0x100 EXP SWAP1 DIV PUSH20 0xFFFFFFFFFFFFFFFFFFFFFFFFFFFFFFFFFFFFFFFF AND PUSH20 0xFFFFFFFFFFFFFFFFFFFFFFFFFFFFFFFFFFFFFFFF AND CALLER PUSH20 0xFFFFFFFFFFFFFFFFFFFFFFFFFFFFFFFFFFFFFFFF AND EQ PUSH2 0x915 JUMPI PUSH1 0x40 MLOAD PUSH32 0x8C379A000000000000000000000000000000000000000000000000000000000 DUP2 MSTORE PUSH1 0x4 ADD PUSH2 0x90C SWAP1 PUSH2 0x1264 JUMP JUMPDEST PUSH1 0x40 MLOAD DUP1 SWAP2 SUB SWAP1 REVERT JUMPDEST DUP2 PUSH1 0x1 PUSH0 DUP3 DUP3 SLOAD PUSH2 0x926 SWAP2 SWAP1 PUSH2 0x11B4 JUMP JUMPDEST SWAP3 POP POP DUP2 SWAP1 SSTORE POP DUP2 PUSH1 0x3 PUSH0 CALLER PUSH20 0xFFFFFFFFFFFFFFFFFFFFFFFFFFFFFFFFFFFFFFFF AND PUSH20 0xFFFFFFFFFFFFFFFFFFFFFFFFFFFFFFFFFFFFFFFF AND DUP2 MSTORE PUSH1 0x20 ADD SWAP1 DUP2 MSTORE PUSH1 0x20 ADD PUSH0 KECCAK256 PUSH0 DUP3 DUP3 SLOAD PUSH2 0x979 SWAP2 SWAP1 PUSH2 0x11B4 JUMP JUMPDEST SWAP3 POP POP DUP2 SWAP1 SSTORE POP PUSH0 PUSH20 0xFFFFFFFFFFFFFFFFFFFFFFFFFFFFFFFFFFFFFFFF AND CALLER PUSH20 0xFFFFFFFFFFFFFFFFFFFFFFFFFFFFFFFFFFFFFFFF AND PUSH32 0xDDF252AD1BE2C89B69C2B068FC378DAA952BA7F163C4A11628F55A4DF523B3EF DUP5 PUSH1 0x40 MLOAD PUSH2 0x9DD SWAP2 SWAP1 PUSH2 0xF6C JUMP JUMPDEST PUSH1 0x40 MLOAD DUP1 SWAP2 SUB SWAP1 LOG3 PUSH1 0x1 SWAP1 POP SWAP2 SWAP1 POP JUMP JUMPDEST PUSH1 0x3 PUSH1 0x20 MSTORE DUP1 PUSH0 MSTORE PUSH1 0x40 PUSH0 KECCAK256 PUSH0 SWAP2 POP SWAP1 POP SLOAD DUP2 JUMP JUMPDEST PUSH1 0x2 PUSH0 SWAP1 SLOAD SWAP1 PUSH2 0x100 EXP SWAP1 DIV PUSH20 0xFFFFFFFFFFFFFFFFFFFFFFFFFFFFFFFFFFFFFFFF AND PUSH20 0xFFFFFFFFFFFFFFFFFFFFFFFFFFFFFFFFFFFFFFFF AND CALLER PUSH20 0xFFFFFFFFFFFFFFFFFFFFFFFFFFFFFFFFFFFFFFFF AND EQ PUSH2 0xA92 JUMPI PUSH1 0x40 MLOAD PUSH32 0x8C379A000000000000000000000000000000000000000000000000000000000 DUP2 MSTORE PUSH1 0x4 ADD PUSH2 0xA89 SWAP1 PUSH2 0x1264 JUMP JUMPDEST PUSH1 0x40 MLOAD DUP1 SWAP2 SUB SWAP1 REVERT JUMPDEST DUP1 PUSH1 0x2 PUSH0 PUSH2 0x100 EXP DUP2 SLOAD DUP2 PUSH20 0xFFFFFFFFFFFFFFFFFFFFFFFFFFFFFFFFFFFFFFFF MUL NOT AND SWAP1 DUP4 PUSH20 0xFFFFFFFFFFFFFFFFFFFFFFFFFFFFFFFFFFFFFFFF AND MUL OR SWAP1 SSTORE POP DUP1 PUSH20 0xFFFFFFFFFFFFFFFFFFFFFFFFFFFFFFFFFFFFFFFF AND CALLER PUSH20 0xFFFFFFFFFFFFFFFFFFFFFFFFFFFFFFFFFFFFFFFF AND PUSH32 0x20785B27E5FE438F15D8E2C5CCF83F449D08D77CBA6151A2857A220154128606 PUSH1 0x40 MLOAD PUSH1 0x40 MLOAD DUP1 SWAP2 SUB SWAP1 LOG3 POP JUMP JUMPDEST PUSH1 0x2 PUSH0 SWAP1 SLOAD SWAP1 PUSH2 0x100 EXP SWAP1 DIV PUSH20 0xFFFFFFFFFFFFFFFFFFFFFFFFFFFFFFFFFFFFFFFF AND DUP2 JUMP JUMPDEST PUSH1 0x40 MLOAD DUP1 PUSH1 0x40 ADD PUSH1 0x40 MSTORE DUP1 PUSH1 0x4 DUP2 MSTORE PUSH1 0x20 ADD PUSH32 0x4D45544100000000000000000000000000000000000000000000000000000000 DUP2 MSTORE POP DUP2 JUMP JUMPDEST PUSH0 DUP1 PUSH20 0xFFFFFFFFFFFFFFFFFFFFFFFFFFFFFFFFFFFFFFFF AND DUP4 PUSH20 0xFFFFFFFFFFFFFFFFFFFFFFFFFFFFFFFFFFFFFFFF AND SUB PUSH2 0xBFC JUMPI PUSH1 0x40 MLOAD PUSH32 0x8C379A000000000000000000000000000000000000000000000000000000000 DUP2 MSTORE PUSH1 0x4 ADD PUSH2 0xBF3 SWAP1 PUSH2 0x12CC JUMP JUMPDEST PUSH1 0x40 MLOAD DUP1 SWAP2 SUB SWAP1 REVERT JUMPDEST DUP2 PUSH1 0x3 PUSH0 CALLER PUSH20 0xFFFFFFFFFFFFFFFFFFFFFFFFFFFFFFFFFFFFFFFF AND PUSH20 0xFFFFFFFFFFFFFFFFFFFFFFFFFFFFFFFFFFFFFFFF AND DUP2 MSTORE PUSH1 0x20 ADD SWAP1 DUP2 MSTORE PUSH1 0x20 ADD PUSH0 KECCAK256 SLOAD LT ISZERO PUSH2 0xC7C JUMPI PUSH1 0x40 MLOAD PUSH32 0x8C379A000000000000000000000000000000000000000000000000000000000 DUP2 MSTORE PUSH1 0x4 ADD PUSH2 0xC73 SWAP1 PUSH2 0x1334 JUMP JUMPDEST PUSH1 0x40 MLOAD DUP1 SWAP2 SUB SWAP1 REVERT JUMPDEST DUP2 PUSH1 0x3 PUSH0 CALLER PUSH20 0xFFFFFFFFFFFFFFFFFFFFFFFFFFFFFFFFFFFFFFFF AND PUSH20 0xFFFFFFFFFFFFFFFFFFFFFFFFFFFFFFFFFFFFFFFF AND DUP2 MSTORE PUSH1 0x20 ADD SWAP1 DUP2 MSTORE PUSH1 0x20 ADD PUSH0 KECCAK256 PUSH0 DUP3 DUP3 SLOAD PUSH2 0xCC8 SWAP2 SWAP1 PUSH2 0x11B4 JUMP JUMPDEST SWAP3 POP POP DUP2 SWAP1 SSTORE POP DUP2 PUSH1 0x3 PUSH0 DUP6 PUSH20 0xFFFFFFFFFFFFFFFFFFFFFFFFFFFFFFFFFFFFFFFF AND PUSH20 0xFFFFFFFFFFFFFFFFFFFFFFFFFFFFFFFFFFFFFFFF AND DUP2 MSTORE PUSH1 0x20 ADD SWAP1 DUP2 MSTORE PUSH1 0x20 ADD PUSH0 KECCAK256 PUSH0 DUP3 DUP3 SLOAD PUSH2 0xD1B SWAP2 SWAP1 PUSH2 0x11E7 JUMP JUMPDEST SWAP3 POP POP DUP2 SWAP1 SSTORE POP DUP3 PUSH20 0xFFFFFFFFFFFFFFFFFFFFFFFFFFFFFFFFFFFFFFFF AND CALLER PUSH20 0xFFFFFFFFFFFFFFFFFFFFFFFFFFFFFFFFFFFFFFFF AND PUSH32 0xDDF252AD1BE2C89B69C2B068FC378DAA952BA7F163C4A11628F55A4DF523B3EF DUP5 PUSH1 0x40 MLOAD PUSH2 0xD7F SWAP2 SWAP1 PUSH2 0xF6C JUMP JUMPDEST PUSH1 0x40 MLOAD DUP1 SWAP2 SUB SWAP1 LOG3 PUSH1 0x1 SWAP1 POP SWAP3 SWAP2 POP POP JUMP JUMPDEST PUSH1 0x4 PUSH1 0x20 MSTORE DUP2 PUSH0 MSTORE PUSH1 0x40 PUSH0 KECCAK256 PUSH1 0x20 MSTORE DUP1 PUSH0 MSTORE PUSH1 0x40 PUSH0 KECCAK256 PUSH0 SWAP2 POP SWAP2 POP POP SLOAD DUP2 JUMP JUMPDEST PUSH0 DUP2 MLOAD SWAP1 POP SWAP2 SWAP1 POP JUMP JUMPDEST PUSH0 DUP3 DUP3 MSTORE PUSH1 0x20 DUP3 ADD SWAP1 POP SWAP3 SWAP2 POP POP JUMP JUMPDEST PUSH0 JUMPDEST DUP4 DUP2 LT ISZERO PUSH2 0xDE8 JUMPI DUP1 DUP3 ADD MLOAD DUP2 DUP5 ADD MSTORE PUSH1 0x20 DUP2 ADD SWAP1 POP PUSH2 0xDCD JUMP JUMPDEST PUSH0 DUP5 DUP5 ADD MSTORE POP POP POP POP JUMP JUMPDEST PUSH0 PUSH1 0x1F NOT PUSH1 0x1F DUP4 ADD AND SWAP1 POP SWAP2 SWAP1 POP JUMP JUMPDEST PUSH0 PUSH2 0xE0D DUP3 PUSH2 0xDB1 JUMP JUMPDEST PUSH2 0xE17 DUP2 DUP6 PUSH2 0xDBB JUMP JUMPDEST SWAP4 POP PUSH2 0xE27 DUP2 DUP6 PUSH1 0x20 DUP7 ADD PUSH2 0xDCB JUMP JUMPDEST PUSH2 0xE30 DUP2 PUSH2 0xDF3 JUMP JUMPDEST DUP5 ADD SWAP2 POP POP SWAP3 SWAP2 POP POP JUMP JUMPDEST PUSH0 PUSH1 0x20 DUP3 ADD SWAP1 POP DUP2 DUP2 SUB PUSH0 DUP4 ADD MSTORE PUSH2 0xE53 DUP2 DUP5 PUSH2 0xE03 JUMP JUMPDEST SWAP1 POP SWAP3 SWAP2 POP POP JUMP JUMPDEST PUSH0 DUP1 REVERT JUMPDEST PUSH0 PUSH20 0xFFFFFFFFFFFFFFFFFFFFFFFFFFFFFFFFFFFFFFFF DUP3 AND SWAP1 POP SWAP2 SWAP1 POP JUMP JUMPDEST PUSH0 PUSH2 0xE88 DUP3 PUSH2 0xE5F JUMP JUMPDEST SWAP1 POP SWAP2 SWAP1 POP JUMP JUMPDEST PUSH2 0xE98 DUP2 PUSH2 0xE7E JUMP JUMPDEST DUP2 EQ PUSH2 0xEA2 JUMPI PUSH0 DUP1 REVERT JUMPDEST POP JUMP JUMPDEST PUSH0 DUP2 CALLDATALOAD SWAP1 POP PUSH2 0xEB3 DUP2 PUSH2 0xE8F JUMP JUMPDEST SWAP3 SWAP2 POP POP JUMP JUMPDEST PUSH0 DUP2 SWAP1 POP SWAP2 SWAP1 POP JUMP JUMPDEST PUSH2 0xECB DUP2 PUSH2 0xEB9 JUMP JUMPDEST DUP2 EQ PUSH2 0xED5 JUMPI PUSH0 DUP1 REVERT JUMPDEST POP JUMP JUMPDEST PUSH0 DUP2 CALLDATALOAD SWAP1 POP PUSH2 0xEE6 DUP2 PUSH2 0xEC2 JUMP JUMPDEST SWAP3 SWAP2 POP POP JUMP JUMPDEST PUSH0 DUP1 PUSH1 0x40 DUP4 DUP6 SUB SLT ISZERO PUSH2 0xF02 JUMPI PUSH2 0xF01 PUSH2 0xE5B JUMP JUMPDEST JUMPDEST PUSH0 PUSH2 0xF0F DUP6 DUP3 DUP7 ADD PUSH2 0xEA5 JUMP JUMPDEST SWAP3 POP POP PUSH1 0x20 PUSH2 0xF20 DUP6 DUP3 DUP7 ADD PUSH2 0xED8 JUMP JUMPDEST SWAP2 POP POP SWAP3 POP SWAP3 SWAP1 POP JUMP JUMPDEST PUSH0 DUP2 ISZERO ISZERO SWAP1 POP SWAP2 SWAP1 POP JUMP JUMPDEST PUSH2 0xF3E DUP2 PUSH2 0xF2A JUMP JUMPDEST DUP3 MSTORE POP POP JUMP JUMPDEST PUSH0 PUSH1 0x20 DUP3 ADD SWAP1 POP PUSH2 0xF57 PUSH0 DUP4 ADD DUP5 PUSH2 0xF35 JUMP JUMPDEST SWAP3 SWAP2 POP POP JUMP JUMPDEST PUSH2 0xF66 DUP2 PUSH2 0xEB9 JUMP JUMPDEST DUP3 MSTORE POP POP JUMP JUMPDEST PUSH0 PUSH1 0x20 DUP3 ADD SWAP1 POP PUSH2 0xF7F PUSH0 DUP4 ADD DUP5 PUSH2 0xF5D JUMP JUMPDEST SWAP3 SWAP2 POP POP JUMP JUMPDEST PUSH0 DUP1 PUSH0 PUSH1 0x60 DUP5 DUP7 SUB SLT ISZERO PUSH2 0xF9C JUMPI PUSH2 0xF9B PUSH2 0xE5B JUMP JUMPDEST JUMPDEST PUSH0 PUSH2 0xFA9 DUP7 DUP3 DUP8 ADD PUSH2 0xEA5 JUMP JUMPDEST SWAP4 POP POP PUSH1 0x20 PUSH2 0xFBA DUP7 DUP3 DUP8 ADD PUSH2 0xEA5 JUMP JUMPDEST SWAP3 POP POP PUSH1 0x40 PUSH2 0xFCB DUP7 DUP3 DUP8 ADD PUSH2 0xED8 JUMP JUMPDEST SWAP2 POP POP SWAP3 POP SWAP3 POP SWAP3 JUMP JUMPDEST PUSH0 PUSH1 0x20 DUP3 DUP5 SUB SLT ISZERO PUSH2 0xFEA JUMPI PUSH2 0xFE9 PUSH2 0xE5B JUMP JUMPDEST JUMPDEST PUSH0 PUSH2 0xFF7 DUP5 DUP3 DUP6 ADD PUSH2 0xED8 JUMP JUMPDEST SWAP2 POP POP SWAP3 SWAP2 POP POP JUMP JUMPDEST PUSH0 PUSH1 0x20 DUP3 DUP5 SUB SLT ISZERO PUSH2 0x1015 JUMPI PUSH2 0x1014 PUSH2 0xE5B JUMP JUMPDEST JUMPDEST PUSH0 PUSH2 0x1022 DUP5 DUP3 DUP6 ADD PUSH2 0xEA5 JUMP JUMPDEST SWAP2 POP POP SWAP3 SWAP2 POP POP JUMP JUMPDEST PUSH2 0x1034 DUP2 PUSH2 0xE7E JUMP JUMPDEST DUP3 MSTORE POP POP JUMP JUMPDEST PUSH0 PUSH1 0x20 DUP3 ADD SWAP1 POP PUSH2 0x104D PUSH0 DUP4 ADD DUP5 PUSH2 0x102B JUMP JUMPDEST SWAP3 SWAP2 POP POP JUMP JUMPDEST PUSH0 DUP1 PUSH1 0x40 DUP4 DUP6 SUB SLT ISZERO PUSH2 0x1069 JUMPI PUSH2 0x1068 PUSH2 0xE5B JUMP JUMPDEST JUMPDEST PUSH0 PUSH2 0x1076 DUP6 DUP3 DUP7 ADD PUSH2 0xEA5 JUMP JUMPDEST SWAP3 POP POP PUSH1 0x20 PUSH2 0x1087 DUP6 DUP3 DUP7 ADD PUSH2 0xEA5 JUMP JUMPDEST SWAP2 POP POP SWAP3 POP SWAP3 SWAP1 POP JUMP JUMPDEST PUSH32 0x776520646F6E2774206861766520656E6F75676820746F6B656E7320746F2073 PUSH0 DUP3 ADD MSTORE PUSH32 0x6572766520796F75000000000000000000000000000000000000000000000000 PUSH1 0x20 DUP3 ADD MSTORE POP JUMP JUMPDEST PUSH0 PUSH2 0x10EB PUSH1 0x28 DUP4 PUSH2 0xDBB JUMP JUMPDEST SWAP2 POP PUSH2 0x10F6 DUP3 PUSH2 0x1091 JUMP JUMPDEST PUSH1 0x40 DUP3 ADD SWAP1 POP SWAP2 SWAP1 POP JUMP JUMPDEST PUSH0 PUSH1 0x20 DUP3 ADD SWAP1 POP DUP2 DUP2 SUB PUSH0 DUP4 ADD MSTORE PUSH2 0x1118 DUP2 PUSH2 0x10DF JUMP JUMPDEST SWAP1 POP SWAP2 SWAP1 POP JUMP JUMPDEST PUSH32 0x6E6F7420617574686F72697A6564000000000000000000000000000000000000 PUSH0 DUP3 ADD MSTORE POP JUMP JUMPDEST PUSH0 PUSH2 0x1153 PUSH1 0xE DUP4 PUSH2 0xDBB JUMP JUMPDEST SWAP2 POP PUSH2 0x115E DUP3 PUSH2 0x111F JUMP JUMPDEST PUSH1 0x20 DUP3 ADD SWAP1 POP SWAP2 SWAP1 POP JUMP JUMPDEST PUSH0 PUSH1 0x20 DUP3 ADD SWAP1 POP DUP2 DUP2 SUB PUSH0 DUP4 ADD MSTORE PUSH2 0x1180 DUP2 PUSH2 0x1147 JUMP JUMPDEST SWAP1 POP SWAP2 SWAP1 POP JUMP JUMPDEST PUSH32 0x4E487B7100000000000000000000000000000000000000000000000000000000 PUSH0 MSTORE PUSH1 0x11 PUSH1 0x4 MSTORE PUSH1 0x24 PUSH0 REVERT JUMPDEST PUSH0 PUSH2 0x11BE DUP3 PUSH2 0xEB9 JUMP JUMPDEST SWAP2 POP PUSH2 0x11C9 DUP4 PUSH2 0xEB9 JUMP JUMPDEST SWAP3 POP DUP3 DUP3 SUB SWAP1 POP DUP2 DUP2 GT ISZERO PUSH2 0x11E1 JUMPI PUSH2 0x11E0 PUSH2 0x1187 JUMP JUMPDEST JUMPDEST SWAP3 SWAP2 POP POP JUMP JUMPDEST PUSH0 PUSH2 0x11F1 DUP3 PUSH2 0xEB9 JUMP JUMPDEST SWAP2 POP PUSH2 0x11FC DUP4 PUSH2 0xEB9 JUMP JUMPDEST SWAP3 POP DUP3 DUP3 ADD SWAP1 POP DUP1 DUP3 GT ISZERO PUSH2 0x1214 JUMPI PUSH2 0x1213 PUSH2 0x1187 JUMP JUMPDEST JUMPDEST SWAP3 SWAP2 POP POP JUMP JUMPDEST PUSH32 0x706173206175746F726973650000000000000000000000000000000000000000 PUSH0 DUP3 ADD MSTORE POP JUMP JUMPDEST PUSH0 PUSH2 0x124E PUSH1 0xC DUP4 PUSH2 0xDBB JUMP JUMPDEST SWAP2 POP PUSH2 0x1259 DUP3 PUSH2 0x121A JUMP JUMPDEST PUSH1 0x20 DUP3 ADD SWAP1 POP SWAP2 SWAP1 POP JUMP JUMPDEST PUSH0 PUSH1 0x20 DUP3 ADD SWAP1 POP DUP2 DUP2 SUB PUSH0 DUP4 ADD MSTORE PUSH2 0x127B DUP2 PUSH2 0x1242 JUMP JUMPDEST SWAP1 POP SWAP2 SWAP1 POP JUMP JUMPDEST PUSH32 0x736574732061206E6F726D616C20616464726573730000000000000000000000 PUSH0 DUP3 ADD MSTORE POP JUMP JUMPDEST PUSH0 PUSH2 0x12B6 PUSH1 0x15 DUP4 PUSH2 0xDBB JUMP JUMPDEST SWAP2 POP PUSH2 0x12C1 DUP3 PUSH2 0x1282 JUMP JUMPDEST PUSH1 0x20 DUP3 ADD SWAP1 POP SWAP2 SWAP1 POP JUMP JUMPDEST PUSH0 PUSH1 0x20 DUP3 ADD SWAP1 POP DUP2 DUP2 SUB PUSH0 DUP4 ADD MSTORE PUSH2 0x12E3 DUP2 PUSH2 0x12AA JUMP JUMPDEST SWAP1 POP SWAP2 SWAP1 POP JUMP JUMPDEST PUSH32 0x796F7520646F6E2774206861766520656E6F7567682066756E64730000000000 PUSH0 DUP3 ADD MSTORE POP JUMP JUMPDEST PUSH0 PUSH2 0x131E PUSH1 0x1B DUP4 PUSH2 0xDBB JUMP JUMPDEST SWAP2 POP PUSH2 0x1329 DUP3 PUSH2 0x12EA JUMP JUMPDEST PUSH1 0x20 DUP3 ADD SWAP1 POP SWAP2 SWAP1 POP JUMP JUMPDEST PUSH0 PUSH1 0x20 DUP3 ADD SWAP1 POP DUP2 DUP2 SUB PUSH0 DUP4 ADD MSTORE PUSH2 0x134B DUP2 PUSH2 0x1312 JUMP JUMPDEST SWAP1 POP SWAP2 SWAP1 POP JUMP INVALID LOG2 PUSH5 0x6970667358 0x22 SLT KECCAK256 0xF9 0xB1 DUP11 DUP2 0xD3 CALLDATASIZE LOG1 CREATE2 0xFB DUP8 0x2D 0xA7 PUSH32 0x22E3C5A04989CA9E7AE743B805FD21D066214164736F6C634300081600330000 "
				},
				"gasEstimates": {
					"creation": {
						"codeDepositCost": "1000000",
						"executionCost": "infinite",
						"totalCost": "infinite"
					},
					"external": {
						"allowance(address,address)": "infinite",
						"approve(address,uint256)": "infinite",
						"balanceOf(address)": "2847",
						"burn(uint256)": "infinite",
						"decimals()": "2513",
						"mint(address,uint256)": "infinite",
						"name()": "infinite",
						"owner()": "2530",
						"symbol()": "infinite",
						"totalSupply()": "2470",
						"transfer(address,uint256)": "infinite",
						"transferFrom(address,address,uint256)": "infinite",
						"transferOwnerShip(address)": "28495"
					}
				},
				"methodIdentifiers": {
					"allowance(address,address)": "dd62ed3e",
					"approve(address,uint256)": "095ea7b3",
					"balanceOf(address)": "70a08231",
					"burn(uint256)": "42966c68",
					"decimals()": "313ce567",
					"mint(address,uint256)": "40c10f19",
					"name()": "06fdde03",
					"owner()": "8da5cb5b",
					"symbol()": "95d89b41",
					"totalSupply()": "18160ddd",
					"transfer(address,uint256)": "a9059cbb",
					"transferFrom(address,address,uint256)": "23b872dd",
					"transferOwnerShip(address)": "8863dd1a"
				}
			},
			"storageLayout": {
				"storage": [
					{
						"astId": 10,
						"contract": "contracts/MetaToken.sol:MonToken",
						"label": "decimals",
						"offset": 0,
						"slot": "0",
						"type": "t_uint256"
					},
					{
						"astId": 12,
						"contract": "contracts/MetaToken.sol:MonToken",
						"label": "totalSupply",
						"offset": 0,
						"slot": "1",
						"type": "t_uint256"
					},
					{
						"astId": 14,
						"contract": "contracts/MetaToken.sol:MonToken",
						"label": "owner",
						"offset": 0,
						"slot": "2",
						"type": "t_address"
					},
					{
						"astId": 18,
						"contract": "contracts/MetaToken.sol:MonToken",
						"label": "balanceOf",
						"offset": 0,
						"slot": "3",
						"type": "t_mapping(t_address,t_uint256)"
					},
					{
						"astId": 24,
						"contract": "contracts/MetaToken.sol:MonToken",
						"label": "allowance",
						"offset": 0,
						"slot": "4",
						"type": "t_mapping(t_address,t_mapping(t_address,t_uint256))"
					}
				],
				"types": {
					"t_address": {
						"encoding": "inplace",
						"label": "address",
						"numberOfBytes": "20"
					},
					"t_mapping(t_address,t_mapping(t_address,t_uint256))": {
						"encoding": "mapping",
						"key": "t_address",
						"label": "mapping(address => mapping(address => uint256))",
						"numberOfBytes": "32",
						"value": "t_mapping(t_address,t_uint256)"
					},
					"t_mapping(t_address,t_uint256)": {
						"encoding": "mapping",
						"key": "t_address",
						"label": "mapping(address => uint256)",
						"numberOfBytes": "32",
						"value": "t_uint256"
					},
					"t_uint256": {
						"encoding": "inplace",
						"label": "uint256",
						"numberOfBytes": "32"
					}
				}
			},
			"userdoc": {
				"kind": "user",
				"methods": {},
				"version": 1
			}
		}
	}
}