{
	"contracts/Orders.sol": {
		"Marketplace": {
			"abi": [
				{
					"inputs": [
						{
							"internalType": "address",
							"name": "_nftContractAddress",
							"type": "address"
						},
						{
							"internalType": "uint256",
							"name": "_commissionPercent",
							"type": "uint256"
						}
					],
					"stateMutability": "nonpayable",
					"type": "constructor"
				},
				{
					"anonymous": false,
					"inputs": [
						{
							"indexed": false,
							"internalType": "uint256",
							"name": "newPercent",
							"type": "uint256"
						}
					],
					"name": "CommissionUpdated",
					"type": "event"
				},
				{
					"anonymous": false,
					"inputs": [
						{
							"indexed": false,
							"internalType": "string",
							"name": "message",
							"type": "string"
						}
					],
					"name": "Debug",
					"type": "event"
				},
				{
					"anonymous": false,
					"inputs": [
						{
							"indexed": false,
							"internalType": "uint256",
							"name": "amount",
							"type": "uint256"
						},
						{
							"indexed": true,
							"internalType": "address",
							"name": "owner",
							"type": "address"
						}
					],
					"name": "FundsWithdrawn",
					"type": "event"
				},
				{
					"anonymous": false,
					"inputs": [
						{
							"indexed": true,
							"internalType": "uint256",
							"name": "id",
							"type": "uint256"
						},
						{
							"indexed": true,
							"internalType": "address",
							"name": "seller",
							"type": "address"
						}
					],
					"name": "ListingCancelled",
					"type": "event"
				},
				{
					"anonymous": false,
					"inputs": [
						{
							"indexed": true,
							"internalType": "uint256",
							"name": "id",
							"type": "uint256"
						},
						{
							"indexed": true,
							"internalType": "address",
							"name": "seller",
							"type": "address"
						},
						{
							"indexed": false,
							"internalType": "uint256",
							"name": "tokenId",
							"type": "uint256"
						},
						{
							"indexed": false,
							"internalType": "uint256",
							"name": "price",
							"type": "uint256"
						},
						{
							"indexed": false,
							"internalType": "uint256",
							"name": "timestamp",
							"type": "uint256"
						}
					],
					"name": "ListingCreated",
					"type": "event"
				},
				{
					"anonymous": false,
					"inputs": [
						{
							"indexed": true,
							"internalType": "uint256",
							"name": "id",
							"type": "uint256"
						},
						{
							"indexed": true,
							"internalType": "address",
							"name": "buyer",
							"type": "address"
						},
						{
							"indexed": false,
							"internalType": "uint256",
							"name": "tokenId",
							"type": "uint256"
						},
						{
							"indexed": false,
							"internalType": "uint256",
							"name": "price",
							"type": "uint256"
						},
						{
							"indexed": false,
							"internalType": "uint256",
							"name": "timestamp",
							"type": "uint256"
						}
					],
					"name": "PurchaseCompleted",
					"type": "event"
				},
				{
					"inputs": [
						{
							"internalType": "address",
							"name": "account",
							"type": "address"
						}
					],
					"name": "balanceOf",
					"outputs": [
						{
							"internalType": "uint256",
							"name": "",
							"type": "uint256"
						}
					],
					"stateMutability": "view",
					"type": "function"
				},
				{
					"inputs": [
						{
							"internalType": "uint256",
							"name": "_listingId",
							"type": "uint256"
						}
					],
					"name": "cancelListing",
					"outputs": [],
					"stateMutability": "nonpayable",
					"type": "function"
				},
				{
					"inputs": [],
					"name": "commissionPercent",
					"outputs": [
						{
							"internalType": "uint256",
							"name": "",
							"type": "uint256"
						}
					],
					"stateMutability": "view",
					"type": "function"
				},
				{
					"inputs": [
						{
							"internalType": "uint128",
							"name": "_tokenId",
							"type": "uint128"
						},
						{
							"internalType": "uint128",
							"name": "_price",
							"type": "uint128"
						}
					],
					"name": "createListing",
					"outputs": [],
					"stateMutability": "nonpayable",
					"type": "function"
				},
				{
					"inputs": [
						{
							"internalType": "uint256",
							"name": "",
							"type": "uint256"
						}
					],
					"name": "listings",
					"outputs": [
						{
							"internalType": "address",
							"name": "seller",
							"type": "address"
						},
						{
							"internalType": "uint128",
							"name": "tokenId",
							"type": "uint128"
						},
						{
							"internalType": "uint128",
							"name": "price",
							"type": "uint128"
						}
					],
					"stateMutability": "view",
					"type": "function"
				},
				{
					"inputs": [],
					"name": "nftContract",
					"outputs": [
						{
							"internalType": "contract IERC721",
							"name": "",
							"type": "address"
						}
					],
					"stateMutability": "view",
					"type": "function"
				},
				{
					"inputs": [],
					"name": "nftEnumerable",
					"outputs": [
						{
							"internalType": "contract IERC721Enumerable",
							"name": "",
							"type": "address"
						}
					],
					"stateMutability": "view",
					"type": "function"
				},
				{
					"inputs": [],
					"name": "owner",
					"outputs": [
						{
							"internalType": "address payable",
							"name": "",
							"type": "address"
						}
					],
					"stateMutability": "view",
					"type": "function"
				},
				{
					"inputs": [
						{
							"internalType": "address",
							"name": "",
							"type": "address"
						}
					],
					"name": "pendingWithdrawals",
					"outputs": [
						{
							"internalType": "uint256",
							"name": "",
							"type": "uint256"
						}
					],
					"stateMutability": "view",
					"type": "function"
				},
				{
					"inputs": [
						{
							"internalType": "uint256",
							"name": "_listingId",
							"type": "uint256"
						}
					],
					"name": "purchaseListing",
					"outputs": [],
					"stateMutability": "payable",
					"type": "function"
				},
				{
					"inputs": [
						{
							"internalType": "uint256",
							"name": "_newPercent",
							"type": "uint256"
						}
					],
					"name": "setCommissionPercent",
					"outputs": [],
					"stateMutability": "nonpayable",
					"type": "function"
				},
				{
					"inputs": [
						{
							"internalType": "address",
							"name": "_owner",
							"type": "address"
						},
						{
							"internalType": "uint256",
							"name": "index",
							"type": "uint256"
						}
					],
					"name": "tokenOfOwnerByIndex",
					"outputs": [
						{
							"internalType": "uint256",
							"name": "tokenId",
							"type": "uint256"
						}
					],
					"stateMutability": "view",
					"type": "function"
				},
				{
					"inputs": [],
					"name": "withdrawFunds",
					"outputs": [],
					"stateMutability": "nonpayable",
					"type": "function"
				},
				{
					"stateMutability": "payable",
					"type": "receive"
				}
			],
			"devdoc": {
				"details": "This contract facilitates the listing and sale of ERC721 tokens with added enumerable support.",
				"kind": "dev",
				"methods": {
					"cancelListing(uint256)": {
						"params": {
							"_listingId": "ID of the listing to cancel."
						}
					},
					"constructor": {
						"details": "Initializes the marketplace with an ERC721 contract and commission percentage.",
						"params": {
							"_commissionPercent": "Marketplace commission percentage.",
							"_nftContractAddress": "Address of the ERC721 token contract."
						}
					},
					"createListing(uint128,uint128)": {
						"params": {
							"_price": "Sale price in wei.",
							"_tokenId": "ID of the token to sell."
						}
					},
					"purchaseListing(uint256)": {
						"params": {
							"_listingId": "ID of the listing to purchase."
						}
					},
					"setCommissionPercent(uint256)": {
						"params": {
							"_newPercent": "New commission percentage."
						}
					},
					"tokenOfOwnerByIndex(address,uint256)": {
						"params": {
							"_owner": "Address of the token owner.",
							"index": "Index in the list of the `_owner`'s tokens."
						},
						"returns": {
							"tokenId": "The ID of the token owned by the `_owner` at the given index."
						}
					}
				},
				"stateVariables": {
					"listings": {
						"details": "Stores all listings by their unique ID."
					},
					"pendingWithdrawals": {
						"details": "Pending withdrawals for sellers."
					},
					"tokenToListingId": {
						"details": "Maps token IDs to their active listing ID."
					},
					"unlocked": {
						"details": "Reentrancy guard modifier."
					}
				},
				"title": "NFT Marketplace",
				"version": 1
			},
			"evm": {
				"assembly": "    /* \"contracts/Orders.sol\":349:7748  contract Marketplace {... */\n  mstore(0x40, 0x80)\n    /* \"contracts/Orders.sol\":2416:2417  1 */\n  0x01\n    /* \"contracts/Orders.sol\":2389:2417  uint256 private unlocked = 1 */\n  0x07\n  sstore\n    /* \"contracts/Orders.sol\":2862:3220  constructor(address _nftContractAddress, uint256 _commissionPercent) {... */\n  callvalue\n  dup1\n  iszero\n  tag_1\n  jumpi\n  0x00\n  dup1\n  revert\ntag_1:\n  pop\n  mload(0x40)\n  sub(codesize, bytecodeSize)\n  dup1\n  bytecodeSize\n  dup4\n  codecopy\n  dup2\n  dup2\n  add\n  0x40\n  mstore\n  dup2\n  add\n  swap1\n  tag_2\n  swap2\n  swap1\n  tag_3\n  jump\t// in\ntag_2:\n    /* \"contracts/Orders.sol\":2972:2974  50 */\n  0x32\n    /* \"contracts/Orders.sol\":2950:2968  _commissionPercent */\n  dup2\n    /* \"contracts/Orders.sol\":2950:2974  _commissionPercent <= 50 */\n  gt\n  iszero\n    /* \"contracts/Orders.sol\":2942:3007  require(_commissionPercent <= 50, \"Commission cannot exceed 50%\") */\n  tag_6\n  jumpi\n  mload(0x40)\n  0x08c379a000000000000000000000000000000000000000000000000000000000\n  dup2\n  mstore\n  0x04\n  add\n  tag_7\n  swap1\n  tag_8\n  jump\t// in\ntag_7:\n  mload(0x40)\n  dup1\n  swap2\n  sub\n  swap1\n  revert\ntag_6:\n    /* \"contracts/Orders.sol\":3034:3044  msg.sender */\n  caller\n    /* \"contracts/Orders.sol\":3018:3023  owner */\n  0x00\n  dup1\n    /* \"contracts/Orders.sol\":3018:3045  owner = payable(msg.sender) */\n  0x0100\n  exp\n  dup2\n  sload\n  dup2\n  0xffffffffffffffffffffffffffffffffffffffff\n  mul\n  not\n  and\n  swap1\n  dup4\n  0xffffffffffffffffffffffffffffffffffffffff\n  and\n  mul\n  or\n  swap1\n  sstore\n  pop\n    /* \"contracts/Orders.sol\":3078:3097  _nftContractAddress */\n  dup2\n    /* \"contracts/Orders.sol\":3056:3067  nftContract */\n  0x05\n  0x00\n    /* \"contracts/Orders.sol\":3056:3098  nftContract = IERC721(_nftContractAddress) */\n  0x0100\n  exp\n  dup2\n  sload\n  dup2\n  0xffffffffffffffffffffffffffffffffffffffff\n  mul\n  not\n  and\n  swap1\n  dup4\n  0xffffffffffffffffffffffffffffffffffffffff\n  and\n  mul\n  or\n  swap1\n  sstore\n  pop\n    /* \"contracts/Orders.sol\":3143:3162  _nftContractAddress */\n  dup2\n    /* \"contracts/Orders.sol\":3109:3122  nftEnumerable */\n  0x06\n  0x00\n    /* \"contracts/Orders.sol\":3109:3163  nftEnumerable = IERC721Enumerable(_nftContractAddress) */\n  0x0100\n  exp\n  dup2\n  sload\n  dup2\n  0xffffffffffffffffffffffffffffffffffffffff\n  mul\n  not\n  and\n  swap1\n  dup4\n  0xffffffffffffffffffffffffffffffffffffffff\n  and\n  mul\n  or\n  swap1\n  sstore\n  pop\n    /* \"contracts/Orders.sol\":3194:3212  _commissionPercent */\n  dup1\n    /* \"contracts/Orders.sol\":3174:3191  commissionPercent */\n  0x01\n    /* \"contracts/Orders.sol\":3174:3212  commissionPercent = _commissionPercent */\n  dup2\n  swap1\n  sstore\n  pop\n    /* \"contracts/Orders.sol\":2862:3220  constructor(address _nftContractAddress, uint256 _commissionPercent) {... */\n  pop\n  pop\n    /* \"contracts/Orders.sol\":349:7748  contract Marketplace {... */\n  jump(tag_9)\n    /* \"#utility.yul\":88:205   */\ntag_11:\n    /* \"#utility.yul\":197:198   */\n  0x00\n    /* \"#utility.yul\":194:195   */\n  dup1\n    /* \"#utility.yul\":187:199   */\n  revert\n    /* \"#utility.yul\":334:460   */\ntag_13:\n    /* \"#utility.yul\":371:378   */\n  0x00\n    /* \"#utility.yul\":411:453   */\n  0xffffffffffffffffffffffffffffffffffffffff\n    /* \"#utility.yul\":404:409   */\n  dup3\n    /* \"#utility.yul\":400:454   */\n  and\n    /* \"#utility.yul\":389:454   */\n  swap1\n  pop\n    /* \"#utility.yul\":334:460   */\n  swap2\n  swap1\n  pop\n  jump\t// out\n    /* \"#utility.yul\":466:562   */\ntag_14:\n    /* \"#utility.yul\":503:510   */\n  0x00\n    /* \"#utility.yul\":532:556   */\n  tag_29\n    /* \"#utility.yul\":550:555   */\n  dup3\n    /* \"#utility.yul\":532:556   */\n  tag_13\n  jump\t// in\ntag_29:\n    /* \"#utility.yul\":521:556   */\n  swap1\n  pop\n    /* \"#utility.yul\":466:562   */\n  swap2\n  swap1\n  pop\n  jump\t// out\n    /* \"#utility.yul\":568:690   */\ntag_15:\n    /* \"#utility.yul\":641:665   */\n  tag_31\n    /* \"#utility.yul\":659:664   */\n  dup2\n    /* \"#utility.yul\":641:665   */\n  tag_14\n  jump\t// in\ntag_31:\n    /* \"#utility.yul\":634:639   */\n  dup2\n    /* \"#utility.yul\":631:666   */\n  eq\n    /* \"#utility.yul\":621:684   */\n  tag_32\n  jumpi\n    /* \"#utility.yul\":680:681   */\n  0x00\n    /* \"#utility.yul\":677:678   */\n  dup1\n    /* \"#utility.yul\":670:682   */\n  revert\n    /* \"#utility.yul\":621:684   */\ntag_32:\n    /* \"#utility.yul\":568:690   */\n  pop\n  jump\t// out\n    /* \"#utility.yul\":696:839   */\ntag_16:\n    /* \"#utility.yul\":753:758   */\n  0x00\n    /* \"#utility.yul\":784:790   */\n  dup2\n    /* \"#utility.yul\":778:791   */\n  mload\n    /* \"#utility.yul\":769:791   */\n  swap1\n  pop\n    /* \"#utility.yul\":800:833   */\n  tag_34\n    /* \"#utility.yul\":827:832   */\n  dup2\n    /* \"#utility.yul\":800:833   */\n  tag_15\n  jump\t// in\ntag_34:\n    /* \"#utility.yul\":696:839   */\n  swap3\n  swap2\n  pop\n  pop\n  jump\t// out\n    /* \"#utility.yul\":845:922   */\ntag_17:\n    /* \"#utility.yul\":882:889   */\n  0x00\n    /* \"#utility.yul\":911:916   */\n  dup2\n    /* \"#utility.yul\":900:916   */\n  swap1\n  pop\n    /* \"#utility.yul\":845:922   */\n  swap2\n  swap1\n  pop\n  jump\t// out\n    /* \"#utility.yul\":928:1050   */\ntag_18:\n    /* \"#utility.yul\":1001:1025   */\n  tag_37\n    /* \"#utility.yul\":1019:1024   */\n  dup2\n    /* \"#utility.yul\":1001:1025   */\n  tag_17\n  jump\t// in\ntag_37:\n    /* \"#utility.yul\":994:999   */\n  dup2\n    /* \"#utility.yul\":991:1026   */\n  eq\n    /* \"#utility.yul\":981:1044   */\n  tag_38\n  jumpi\n    /* \"#utility.yul\":1040:1041   */\n  0x00\n    /* \"#utility.yul\":1037:1038   */\n  dup1\n    /* \"#utility.yul\":1030:1042   */\n  revert\n    /* \"#utility.yul\":981:1044   */\ntag_38:\n    /* \"#utility.yul\":928:1050   */\n  pop\n  jump\t// out\n    /* \"#utility.yul\":1056:1199   */\ntag_19:\n    /* \"#utility.yul\":1113:1118   */\n  0x00\n    /* \"#utility.yul\":1144:1150   */\n  dup2\n    /* \"#utility.yul\":1138:1151   */\n  mload\n    /* \"#utility.yul\":1129:1151   */\n  swap1\n  pop\n    /* \"#utility.yul\":1160:1193   */\n  tag_40\n    /* \"#utility.yul\":1187:1192   */\n  dup2\n    /* \"#utility.yul\":1160:1193   */\n  tag_18\n  jump\t// in\ntag_40:\n    /* \"#utility.yul\":1056:1199   */\n  swap3\n  swap2\n  pop\n  pop\n  jump\t// out\n    /* \"#utility.yul\":1205:1712   */\ntag_3:\n    /* \"#utility.yul\":1284:1290   */\n  0x00\n    /* \"#utility.yul\":1292:1298   */\n  dup1\n    /* \"#utility.yul\":1341:1343   */\n  0x40\n    /* \"#utility.yul\":1329:1338   */\n  dup4\n    /* \"#utility.yul\":1320:1327   */\n  dup6\n    /* \"#utility.yul\":1316:1339   */\n  sub\n    /* \"#utility.yul\":1312:1344   */\n  slt\n    /* \"#utility.yul\":1309:1428   */\n  iszero\n  tag_42\n  jumpi\n    /* \"#utility.yul\":1347:1426   */\n  tag_43\n  tag_11\n  jump\t// in\ntag_43:\n    /* \"#utility.yul\":1309:1428   */\ntag_42:\n    /* \"#utility.yul\":1467:1468   */\n  0x00\n    /* \"#utility.yul\":1492:1556   */\n  tag_44\n    /* \"#utility.yul\":1548:1555   */\n  dup6\n    /* \"#utility.yul\":1539:1545   */\n  dup3\n    /* \"#utility.yul\":1528:1537   */\n  dup7\n    /* \"#utility.yul\":1524:1546   */\n  add\n    /* \"#utility.yul\":1492:1556   */\n  tag_16\n  jump\t// in\ntag_44:\n    /* \"#utility.yul\":1482:1556   */\n  swap3\n  pop\n    /* \"#utility.yul\":1438:1566   */\n  pop\n    /* \"#utility.yul\":1605:1607   */\n  0x20\n    /* \"#utility.yul\":1631:1695   */\n  tag_45\n    /* \"#utility.yul\":1687:1694   */\n  dup6\n    /* \"#utility.yul\":1678:1684   */\n  dup3\n    /* \"#utility.yul\":1667:1676   */\n  dup7\n    /* \"#utility.yul\":1663:1685   */\n  add\n    /* \"#utility.yul\":1631:1695   */\n  tag_19\n  jump\t// in\ntag_45:\n    /* \"#utility.yul\":1621:1695   */\n  swap2\n  pop\n    /* \"#utility.yul\":1576:1705   */\n  pop\n    /* \"#utility.yul\":1205:1712   */\n  swap3\n  pop\n  swap3\n  swap1\n  pop\n  jump\t// out\n    /* \"#utility.yul\":1718:1887   */\ntag_20:\n    /* \"#utility.yul\":1802:1813   */\n  0x00\n    /* \"#utility.yul\":1836:1842   */\n  dup3\n    /* \"#utility.yul\":1831:1834   */\n  dup3\n    /* \"#utility.yul\":1824:1843   */\n  mstore\n    /* \"#utility.yul\":1876:1880   */\n  0x20\n    /* \"#utility.yul\":1871:1874   */\n  dup3\n    /* \"#utility.yul\":1867:1881   */\n  add\n    /* \"#utility.yul\":1852:1881   */\n  swap1\n  pop\n    /* \"#utility.yul\":1718:1887   */\n  swap3\n  swap2\n  pop\n  pop\n  jump\t// out\n    /* \"#utility.yul\":1893:2071   */\ntag_21:\n    /* \"#utility.yul\":2033:2063   */\n  0x436f6d6d697373696f6e2063616e6e6f74206578636565642035302500000000\n    /* \"#utility.yul\":2029:2030   */\n  0x00\n    /* \"#utility.yul\":2021:2027   */\n  dup3\n    /* \"#utility.yul\":2017:2031   */\n  add\n    /* \"#utility.yul\":2010:2064   */\n  mstore\n    /* \"#utility.yul\":1893:2071   */\n  pop\n  jump\t// out\n    /* \"#utility.yul\":2077:2443   */\ntag_22:\n    /* \"#utility.yul\":2219:2222   */\n  0x00\n    /* \"#utility.yul\":2240:2307   */\n  tag_49\n    /* \"#utility.yul\":2304:2306   */\n  0x1c\n    /* \"#utility.yul\":2299:2302   */\n  dup4\n    /* \"#utility.yul\":2240:2307   */\n  tag_20\n  jump\t// in\ntag_49:\n    /* \"#utility.yul\":2233:2307   */\n  swap2\n  pop\n    /* \"#utility.yul\":2316:2409   */\n  tag_50\n    /* \"#utility.yul\":2405:2408   */\n  dup3\n    /* \"#utility.yul\":2316:2409   */\n  tag_21\n  jump\t// in\ntag_50:\n    /* \"#utility.yul\":2434:2436   */\n  0x20\n    /* \"#utility.yul\":2429:2432   */\n  dup3\n    /* \"#utility.yul\":2425:2437   */\n  add\n    /* \"#utility.yul\":2418:2437   */\n  swap1\n  pop\n    /* \"#utility.yul\":2077:2443   */\n  swap2\n  swap1\n  pop\n  jump\t// out\n    /* \"#utility.yul\":2449:2868   */\ntag_8:\n    /* \"#utility.yul\":2615:2619   */\n  0x00\n    /* \"#utility.yul\":2653:2655   */\n  0x20\n    /* \"#utility.yul\":2642:2651   */\n  dup3\n    /* \"#utility.yul\":2638:2656   */\n  add\n    /* \"#utility.yul\":2630:2656   */\n  swap1\n  pop\n    /* \"#utility.yul\":2702:2711   */\n  dup2\n    /* \"#utility.yul\":2696:2700   */\n  dup2\n    /* \"#utility.yul\":2692:2712   */\n  sub\n    /* \"#utility.yul\":2688:2689   */\n  0x00\n    /* \"#utility.yul\":2677:2686   */\n  dup4\n    /* \"#utility.yul\":2673:2690   */\n  add\n    /* \"#utility.yul\":2666:2713   */\n  mstore\n    /* \"#utility.yul\":2730:2861   */\n  tag_52\n    /* \"#utility.yul\":2856:2860   */\n  dup2\n    /* \"#utility.yul\":2730:2861   */\n  tag_22\n  jump\t// in\ntag_52:\n    /* \"#utility.yul\":2722:2861   */\n  swap1\n  pop\n    /* \"#utility.yul\":2449:2868   */\n  swap2\n  swap1\n  pop\n  jump\t// out\n    /* \"contracts/Orders.sol\":349:7748  contract Marketplace {... */\ntag_9:\n  dataSize(sub_0)\n  dup1\n  dataOffset(sub_0)\n  0x00\n  codecopy\n  0x00\n  return\nstop\n\nsub_0: assembly {\n        /* \"contracts/Orders.sol\":349:7748  contract Marketplace {... */\n      mstore(0x40, 0x80)\n      jumpi(tag_1, lt(calldatasize, 0x04))\n      shr(0xe0, calldataload(0x00))\n      dup1\n      0x70a08231\n      gt\n      tag_16\n      jumpi\n      dup1\n      0x9acaa6fb\n      gt\n      tag_17\n      jumpi\n      dup1\n      0x9acaa6fb\n      eq\n      tag_12\n      jumpi\n      dup1\n      0xd56d229d\n      eq\n      tag_13\n      jumpi\n      dup1\n      0xde74e57b\n      eq\n      tag_14\n      jumpi\n      dup1\n      0xf3f43703\n      eq\n      tag_15\n      jumpi\n      jump(tag_2)\n    tag_17:\n      dup1\n      0x70a08231\n      eq\n      tag_9\n      jumpi\n      dup1\n      0x77d3550b\n      eq\n      tag_10\n      jumpi\n      dup1\n      0x8da5cb5b\n      eq\n      tag_11\n      jumpi\n      jump(tag_2)\n    tag_16:\n      dup1\n      0x169d5a7d\n      eq\n      tag_3\n      jumpi\n      dup1\n      0x24600fc3\n      eq\n      tag_4\n      jumpi\n      dup1\n      0x2f745c59\n      eq\n      tag_5\n      jumpi\n      dup1\n      0x305a67a8\n      eq\n      tag_6\n      jumpi\n      dup1\n      0x404a9ab8\n      eq\n      tag_7\n      jumpi\n      dup1\n      0x51e61b25\n      eq\n      tag_8\n      jumpi\n      jump(tag_2)\n    tag_1:\n      jumpi(tag_2, calldatasize)\n      stop\n    tag_2:\n      0x00\n      dup1\n      revert\n        /* \"contracts/Orders.sol\":4693:5744  function purchaseListing(uint256 _listingId) external payable nonReentrant {... */\n    tag_3:\n      tag_20\n      0x04\n      dup1\n      calldatasize\n      sub\n      dup2\n      add\n      swap1\n      tag_21\n      swap2\n      swap1\n      tag_22\n      jump\t// in\n    tag_21:\n      tag_23\n      jump\t// in\n    tag_20:\n      stop\n        /* \"contracts/Orders.sol\":6738:7118  function withdrawFunds() external nonReentrant {... */\n    tag_4:\n      callvalue\n      dup1\n      iszero\n      tag_24\n      jumpi\n      0x00\n      dup1\n      revert\n    tag_24:\n      pop\n      tag_25\n      tag_26\n      jump\t// in\n    tag_25:\n      stop\n        /* \"contracts/Orders.sol\":7423:7630  function tokenOfOwnerByIndex(address _owner, uint256 index)... */\n    tag_5:\n      callvalue\n      dup1\n      iszero\n      tag_27\n      jumpi\n      0x00\n      dup1\n      revert\n    tag_27:\n      pop\n      tag_28\n      0x04\n      dup1\n      calldatasize\n      sub\n      dup2\n      add\n      swap1\n      tag_29\n      swap2\n      swap1\n      tag_30\n      jump\t// in\n    tag_29:\n      tag_31\n      jump\t// in\n    tag_28:\n      mload(0x40)\n      tag_32\n      swap2\n      swap1\n      tag_33\n      jump\t// in\n    tag_32:\n      mload(0x40)\n      dup1\n      swap2\n      sub\n      swap1\n      return\n        /* \"contracts/Orders.sol\":5868:6276  function cancelListing(uint256 _listingId) external {... */\n    tag_6:\n      callvalue\n      dup1\n      iszero\n      tag_34\n      jumpi\n      0x00\n      dup1\n      revert\n    tag_34:\n      pop\n      tag_35\n      0x04\n      dup1\n      calldatasize\n      sub\n      dup2\n      add\n      swap1\n      tag_36\n      swap2\n      swap1\n      tag_22\n      jump\t// in\n    tag_36:\n      tag_37\n      jump\t// in\n    tag_35:\n      stop\n        /* \"contracts/Orders.sol\":6419:6657  function setCommissionPercent(uint256 _newPercent) external onlyOwner {... */\n    tag_7:\n      callvalue\n      dup1\n      iszero\n      tag_38\n      jumpi\n      0x00\n      dup1\n      revert\n    tag_38:\n      pop\n      tag_39\n      0x04\n      dup1\n      calldatasize\n      sub\n      dup2\n      add\n      swap1\n      tag_40\n      swap2\n      swap1\n      tag_22\n      jump\t// in\n    tag_40:\n      tag_41\n      jump\t// in\n    tag_39:\n      stop\n        /* \"contracts/Orders.sol\":1219:1257  IERC721Enumerable public nftEnumerable */\n    tag_8:\n      callvalue\n      dup1\n      iszero\n      tag_42\n      jumpi\n      0x00\n      dup1\n      revert\n    tag_42:\n      pop\n      tag_43\n      tag_44\n      jump\t// in\n    tag_43:\n      mload(0x40)\n      tag_45\n      swap2\n      swap1\n      tag_46\n      jump\t// in\n    tag_45:\n      mload(0x40)\n      dup1\n      swap2\n      sub\n      swap1\n      return\n        /* \"contracts/Orders.sol\":7638:7745  function balanceOf(address account) public view returns (uint256) {... */\n    tag_9:\n      callvalue\n      dup1\n      iszero\n      tag_47\n      jumpi\n      0x00\n      dup1\n      revert\n    tag_47:\n      pop\n      tag_48\n      0x04\n      dup1\n      calldatasize\n      sub\n      dup2\n      add\n      swap1\n      tag_49\n      swap2\n      swap1\n      tag_50\n      jump\t// in\n    tag_49:\n      tag_51\n      jump\t// in\n    tag_48:\n      mload(0x40)\n      tag_52\n      swap2\n      swap1\n      tag_33\n      jump\t// in\n    tag_52:\n      mload(0x40)\n      dup1\n      swap2\n      sub\n      swap1\n      return\n        /* \"contracts/Orders.sol\":688:720  uint256 public commissionPercent */\n    tag_10:\n      callvalue\n      dup1\n      iszero\n      tag_53\n      jumpi\n      0x00\n      dup1\n      revert\n    tag_53:\n      pop\n      tag_54\n      tag_55\n      jump\t// in\n    tag_54:\n      mload(0x40)\n      tag_56\n      swap2\n      swap1\n      tag_33\n      jump\t// in\n    tag_56:\n      mload(0x40)\n      dup1\n      swap2\n      sub\n      swap1\n      return\n        /* \"contracts/Orders.sol\":584:612  address payable public owner */\n    tag_11:\n      callvalue\n      dup1\n      iszero\n      tag_57\n      jumpi\n      0x00\n      dup1\n      revert\n    tag_57:\n      pop\n      tag_58\n      tag_59\n      jump\t// in\n    tag_58:\n      mload(0x40)\n      tag_60\n      swap2\n      swap1\n      tag_61\n      jump\t// in\n    tag_60:\n      mload(0x40)\n      dup1\n      swap2\n      sub\n      swap1\n      return\n        /* \"contracts/Orders.sol\":3386:4517  function createListing(uint128 _tokenId, uint128 _price) external {... */\n    tag_12:\n      callvalue\n      dup1\n      iszero\n      tag_62\n      jumpi\n      0x00\n      dup1\n      revert\n    tag_62:\n      pop\n      tag_63\n      0x04\n      dup1\n      calldatasize\n      sub\n      dup2\n      add\n      swap1\n      tag_64\n      swap2\n      swap1\n      tag_65\n      jump\t// in\n    tag_64:\n      tag_66\n      jump\t// in\n    tag_63:\n      stop\n        /* \"contracts/Orders.sol\":1120:1146  IERC721 public nftContract */\n    tag_13:\n      callvalue\n      dup1\n      iszero\n      tag_67\n      jumpi\n      0x00\n      dup1\n      revert\n    tag_67:\n      pop\n      tag_68\n      tag_69\n      jump\t// in\n    tag_68:\n      mload(0x40)\n      tag_70\n      swap2\n      swap1\n      tag_71\n      jump\t// in\n    tag_70:\n      mload(0x40)\n      dup1\n      swap2\n      sub\n      swap1\n      return\n        /* \"contracts/Orders.sol\":783:826  mapping(uint256 => Listing) public listings */\n    tag_14:\n      callvalue\n      dup1\n      iszero\n      tag_72\n      jumpi\n      0x00\n      dup1\n      revert\n    tag_72:\n      pop\n      tag_73\n      0x04\n      dup1\n      calldatasize\n      sub\n      dup2\n      add\n      swap1\n      tag_74\n      swap2\n      swap1\n      tag_22\n      jump\t// in\n    tag_74:\n      tag_75\n      jump\t// in\n    tag_73:\n      mload(0x40)\n      tag_76\n      swap4\n      swap3\n      swap2\n      swap1\n      tag_77\n      jump\t// in\n    tag_76:\n      mload(0x40)\n      dup1\n      swap2\n      sub\n      swap1\n      return\n        /* \"contracts/Orders.sol\":1000:1053  mapping(address => uint256) public pendingWithdrawals */\n    tag_15:\n      callvalue\n      dup1\n      iszero\n      tag_78\n      jumpi\n      0x00\n      dup1\n      revert\n    tag_78:\n      pop\n      tag_79\n      0x04\n      dup1\n      calldatasize\n      sub\n      dup2\n      add\n      swap1\n      tag_80\n      swap2\n      swap1\n      tag_50\n      jump\t// in\n    tag_80:\n      tag_81\n      jump\t// in\n    tag_79:\n      mload(0x40)\n      tag_82\n      swap2\n      swap1\n      tag_33\n      jump\t// in\n    tag_82:\n      mload(0x40)\n      dup1\n      swap2\n      sub\n      swap1\n      return\n        /* \"contracts/Orders.sol\":4693:5744  function purchaseListing(uint256 _listingId) external payable nonReentrant {... */\n    tag_23:\n        /* \"contracts/Orders.sol\":2479:2480  1 */\n      0x01\n        /* \"contracts/Orders.sol\":2467:2475  unlocked */\n      sload(0x07)\n        /* \"contracts/Orders.sol\":2467:2480  unlocked == 1 */\n      eq\n        /* \"contracts/Orders.sol\":2459:2499  require(unlocked == 1, \"Reentrant call\") */\n      tag_84\n      jumpi\n      mload(0x40)\n      0x08c379a000000000000000000000000000000000000000000000000000000000\n      dup2\n      mstore\n      0x04\n      add\n      tag_85\n      swap1\n      tag_86\n      jump\t// in\n    tag_85:\n      mload(0x40)\n      dup1\n      swap2\n      sub\n      swap1\n      revert\n    tag_84:\n        /* \"contracts/Orders.sol\":2521:2522  0 */\n      0x00\n        /* \"contracts/Orders.sol\":2510:2518  unlocked */\n      0x07\n        /* \"contracts/Orders.sol\":2510:2522  unlocked = 0 */\n      dup2\n      swap1\n      sstore\n      pop\n        /* \"contracts/Orders.sol\":4779:4802  Listing storage listing */\n      0x00\n        /* \"contracts/Orders.sol\":4805:4813  listings */\n      0x02\n        /* \"contracts/Orders.sol\":4805:4825  listings[_listingId] */\n      0x00\n        /* \"contracts/Orders.sol\":4814:4824  _listingId */\n      dup4\n        /* \"contracts/Orders.sol\":4805:4825  listings[_listingId] */\n      dup2\n      mstore\n      0x20\n      add\n      swap1\n      dup2\n      mstore\n      0x20\n      add\n      0x00\n      keccak256\n        /* \"contracts/Orders.sol\":4779:4825  Listing storage listing = listings[_listingId] */\n      swap1\n      pop\n        /* \"contracts/Orders.sol\":4860:4861  0 */\n      0x00\n        /* \"contracts/Orders.sol\":4844:4851  listing */\n      dup2\n        /* \"contracts/Orders.sol\":4844:4857  listing.price */\n      0x01\n      add\n      0x10\n      swap1\n      sload\n      swap1\n      0x0100\n      exp\n      swap1\n      div\n      0xffffffffffffffffffffffffffffffff\n      and\n        /* \"contracts/Orders.sol\":4844:4861  listing.price > 0 */\n      0xffffffffffffffffffffffffffffffff\n      and\n      gt\n        /* \"contracts/Orders.sol\":4836:4893  require(listing.price > 0, \"Invalid or inactive listing\") */\n      tag_88\n      jumpi\n      mload(0x40)\n      0x08c379a000000000000000000000000000000000000000000000000000000000\n      dup2\n      mstore\n      0x04\n      add\n      tag_89\n      swap1\n      tag_90\n      jump\t// in\n    tag_89:\n      mload(0x40)\n      dup1\n      swap2\n      sub\n      swap1\n      revert\n    tag_88:\n        /* \"contracts/Orders.sol\":4925:4932  listing */\n      dup1\n        /* \"contracts/Orders.sol\":4925:4938  listing.price */\n      0x01\n      add\n      0x10\n      swap1\n      sload\n      swap1\n      0x0100\n      exp\n      swap1\n      div\n      0xffffffffffffffffffffffffffffffff\n      and\n        /* \"contracts/Orders.sol\":4912:4938  msg.value == listing.price */\n      0xffffffffffffffffffffffffffffffff\n      and\n        /* \"contracts/Orders.sol\":4912:4921  msg.value */\n      callvalue\n        /* \"contracts/Orders.sol\":4912:4938  msg.value == listing.price */\n      eq\n        /* \"contracts/Orders.sol\":4904:4967  require(msg.value == listing.price, \"Incorrect payment amount\") */\n      tag_91\n      jumpi\n      mload(0x40)\n      0x08c379a000000000000000000000000000000000000000000000000000000000\n      dup2\n      mstore\n      0x04\n      add\n      tag_92\n      swap1\n      tag_93\n      jump\t// in\n    tag_92:\n      mload(0x40)\n      dup1\n      swap2\n      sub\n      swap1\n      revert\n    tag_91:\n        /* \"contracts/Orders.sol\":4980:5004  uint256 commissionAmount */\n      0x00\n        /* \"contracts/Orders.sol\":5041:5044  100 */\n      0x64\n        /* \"contracts/Orders.sol\":5020:5037  commissionPercent */\n      sload(0x01)\n        /* \"contracts/Orders.sol\":5008:5017  msg.value */\n      callvalue\n        /* \"contracts/Orders.sol\":5008:5037  msg.value * commissionPercent */\n      tag_94\n      swap2\n      swap1\n      tag_95\n      jump\t// in\n    tag_94:\n        /* \"contracts/Orders.sol\":5007:5044  (msg.value * commissionPercent) / 100 */\n      tag_96\n      swap2\n      swap1\n      tag_97\n      jump\t// in\n    tag_96:\n        /* \"contracts/Orders.sol\":4980:5044  uint256 commissionAmount = (msg.value * commissionPercent) / 100 */\n      swap1\n      pop\n        /* \"contracts/Orders.sol\":5055:5075  uint256 sellerAmount */\n      0x00\n        /* \"contracts/Orders.sol\":5090:5106  commissionAmount */\n      dup2\n        /* \"contracts/Orders.sol\":5078:5087  msg.value */\n      callvalue\n        /* \"contracts/Orders.sol\":5078:5106  msg.value - commissionAmount */\n      tag_98\n      swap2\n      swap1\n      tag_99\n      jump\t// in\n    tag_98:\n        /* \"contracts/Orders.sol\":5055:5106  uint256 sellerAmount = msg.value - commissionAmount */\n      swap1\n      pop\n        /* \"contracts/Orders.sol\":5153:5164  nftContract */\n      0x05\n      0x00\n      swap1\n      sload\n      swap1\n      0x0100\n      exp\n      swap1\n      div\n      0xffffffffffffffffffffffffffffffffffffffff\n      and\n        /* \"contracts/Orders.sol\":5153:5181  nftContract.safeTransferFrom */\n      0xffffffffffffffffffffffffffffffffffffffff\n      and\n      0x42842e0e\n        /* \"contracts/Orders.sol\":5196:5203  listing */\n      dup5\n        /* \"contracts/Orders.sol\":5196:5210  listing.seller */\n      0x00\n      add\n      0x00\n      swap1\n      sload\n      swap1\n      0x0100\n      exp\n      swap1\n      div\n      0xffffffffffffffffffffffffffffffffffffffff\n      and\n        /* \"contracts/Orders.sol\":5225:5235  msg.sender */\n      caller\n        /* \"contracts/Orders.sol\":5250:5257  listing */\n      dup7\n        /* \"contracts/Orders.sol\":5250:5265  listing.tokenId */\n      0x01\n      add\n      0x00\n      swap1\n      sload\n      swap1\n      0x0100\n      exp\n      swap1\n      div\n      0xffffffffffffffffffffffffffffffff\n      and\n        /* \"contracts/Orders.sol\":5153:5276  nftContract.safeTransferFrom(... */\n      mload(0x40)\n      dup5\n      0xffffffff\n      and\n      0xe0\n      shl\n      dup2\n      mstore\n      0x04\n      add\n      tag_100\n      swap4\n      swap3\n      swap2\n      swap1\n      tag_101\n      jump\t// in\n    tag_100:\n      0x00\n      mload(0x40)\n      dup1\n      dup4\n      sub\n      dup2\n      0x00\n      dup8\n      dup1\n      extcodesize\n      iszero\n      dup1\n      iszero\n      tag_102\n      jumpi\n      0x00\n      dup1\n      revert\n    tag_102:\n      pop\n      gas\n      call\n      iszero\n      dup1\n      iszero\n      tag_104\n      jumpi\n      returndatasize\n      0x00\n      dup1\n      returndatacopy\n      revert(0x00, returndatasize)\n    tag_104:\n      pop\n      pop\n      pop\n      pop\n        /* \"contracts/Orders.sol\":5357:5373  commissionAmount */\n      dup2\n        /* \"contracts/Orders.sol\":5328:5346  pendingWithdrawals */\n      0x04\n        /* \"contracts/Orders.sol\":5328:5353  pendingWithdrawals[owner] */\n      0x00\n        /* \"contracts/Orders.sol\":5347:5352  owner */\n      dup1\n      0x00\n      swap1\n      sload\n      swap1\n      0x0100\n      exp\n      swap1\n      div\n      0xffffffffffffffffffffffffffffffffffffffff\n      and\n        /* \"contracts/Orders.sol\":5328:5353  pendingWithdrawals[owner] */\n      0xffffffffffffffffffffffffffffffffffffffff\n      and\n      0xffffffffffffffffffffffffffffffffffffffff\n      and\n      dup2\n      mstore\n      0x20\n      add\n      swap1\n      dup2\n      mstore\n      0x20\n      add\n      0x00\n      keccak256\n      0x00\n        /* \"contracts/Orders.sol\":5328:5373  pendingWithdrawals[owner] += commissionAmount */\n      dup3\n      dup3\n      sload\n      tag_105\n      swap2\n      swap1\n      tag_106\n      jump\t// in\n    tag_105:\n      swap3\n      pop\n      pop\n      dup2\n      swap1\n      sstore\n      pop\n        /* \"contracts/Orders.sol\":5422:5434  sellerAmount */\n      dup1\n        /* \"contracts/Orders.sol\":5384:5402  pendingWithdrawals */\n      0x04\n        /* \"contracts/Orders.sol\":5384:5418  pendingWithdrawals[listing.seller] */\n      0x00\n        /* \"contracts/Orders.sol\":5403:5410  listing */\n      dup6\n        /* \"contracts/Orders.sol\":5403:5417  listing.seller */\n      0x00\n      add\n      0x00\n      swap1\n      sload\n      swap1\n      0x0100\n      exp\n      swap1\n      div\n      0xffffffffffffffffffffffffffffffffffffffff\n      and\n        /* \"contracts/Orders.sol\":5384:5418  pendingWithdrawals[listing.seller] */\n      0xffffffffffffffffffffffffffffffffffffffff\n      and\n      0xffffffffffffffffffffffffffffffffffffffff\n      and\n      dup2\n      mstore\n      0x20\n      add\n      swap1\n      dup2\n      mstore\n      0x20\n      add\n      0x00\n      keccak256\n      0x00\n        /* \"contracts/Orders.sol\":5384:5434  pendingWithdrawals[listing.seller] += sellerAmount */\n      dup3\n      dup3\n      sload\n      tag_107\n      swap2\n      swap1\n      tag_106\n      jump\t// in\n    tag_107:\n      swap3\n      pop\n      pop\n      dup2\n      swap1\n      sstore\n      pop\n        /* \"contracts/Orders.sol\":5509:5519  msg.sender */\n      caller\n        /* \"contracts/Orders.sol\":5452:5618  PurchaseCompleted(... */\n      0xffffffffffffffffffffffffffffffffffffffff\n      and\n        /* \"contracts/Orders.sol\":5484:5494  _listingId */\n      dup5\n        /* \"contracts/Orders.sol\":5452:5618  PurchaseCompleted(... */\n      0xe29b93709a7ac5e91a6057482d1df985483725988417e08dec23377234003c80\n        /* \"contracts/Orders.sol\":5534:5541  listing */\n      dup6\n        /* \"contracts/Orders.sol\":5534:5549  listing.tokenId */\n      0x01\n      add\n      0x00\n      swap1\n      sload\n      swap1\n      0x0100\n      exp\n      swap1\n      div\n      0xffffffffffffffffffffffffffffffff\n      and\n        /* \"contracts/Orders.sol\":5564:5571  listing */\n      dup7\n        /* \"contracts/Orders.sol\":5564:5577  listing.price */\n      0x01\n      add\n      0x10\n      swap1\n      sload\n      swap1\n      0x0100\n      exp\n      swap1\n      div\n      0xffffffffffffffffffffffffffffffff\n      and\n        /* \"contracts/Orders.sol\":5592:5607  block.timestamp */\n      timestamp\n        /* \"contracts/Orders.sol\":5452:5618  PurchaseCompleted(... */\n      mload(0x40)\n      tag_108\n      swap4\n      swap3\n      swap2\n      swap1\n      tag_109\n      jump\t// in\n    tag_108:\n      mload(0x40)\n      dup1\n      swap2\n      sub\n      swap1\n      log3\n        /* \"contracts/Orders.sol\":5665:5673  listings */\n      0x02\n        /* \"contracts/Orders.sol\":5665:5685  listings[_listingId] */\n      0x00\n        /* \"contracts/Orders.sol\":5674:5684  _listingId */\n      dup6\n        /* \"contracts/Orders.sol\":5665:5685  listings[_listingId] */\n      dup2\n      mstore\n      0x20\n      add\n      swap1\n      dup2\n      mstore\n      0x20\n      add\n      0x00\n      keccak256\n      0x00\n        /* \"contracts/Orders.sol\":5658:5685  delete listings[_listingId] */\n      dup1\n      dup3\n      add\n      exp(0x0100, 0x00)\n      dup2\n      sload\n      swap1\n      0xffffffffffffffffffffffffffffffffffffffff\n      mul\n      not\n      and\n      swap1\n      sstore\n      0x01\n      dup3\n      add\n      exp(0x0100, 0x00)\n      dup2\n      sload\n      swap1\n      0xffffffffffffffffffffffffffffffff\n      mul\n      not\n      and\n      swap1\n      sstore\n      0x01\n      dup3\n      add\n      exp(0x0100, 0x10)\n      dup2\n      sload\n      swap1\n      0xffffffffffffffffffffffffffffffff\n      mul\n      not\n      and\n      swap1\n      sstore\n      pop\n      pop\n        /* \"contracts/Orders.sol\":5703:5719  tokenToListingId */\n      0x03\n        /* \"contracts/Orders.sol\":5703:5736  tokenToListingId[listing.tokenId] */\n      0x00\n        /* \"contracts/Orders.sol\":5720:5727  listing */\n      dup5\n        /* \"contracts/Orders.sol\":5720:5735  listing.tokenId */\n      0x01\n      add\n      0x00\n      swap1\n      sload\n      swap1\n      0x0100\n      exp\n      swap1\n      div\n      0xffffffffffffffffffffffffffffffff\n      and\n        /* \"contracts/Orders.sol\":5703:5736  tokenToListingId[listing.tokenId] */\n      0xffffffffffffffffffffffffffffffff\n      and\n      dup2\n      mstore\n      0x20\n      add\n      swap1\n      dup2\n      mstore\n      0x20\n      add\n      0x00\n      keccak256\n        /* \"contracts/Orders.sol\":5696:5736  delete tokenToListingId[listing.tokenId] */\n      0x00\n      swap1\n      sstore\n        /* \"contracts/Orders.sol\":4768:5744  {... */\n      pop\n      pop\n      pop\n        /* \"contracts/Orders.sol\":2556:2557  1 */\n      0x01\n        /* \"contracts/Orders.sol\":2545:2553  unlocked */\n      0x07\n        /* \"contracts/Orders.sol\":2545:2557  unlocked = 1 */\n      dup2\n      swap1\n      sstore\n      pop\n        /* \"contracts/Orders.sol\":4693:5744  function purchaseListing(uint256 _listingId) external payable nonReentrant {... */\n      pop\n      jump\t// out\n        /* \"contracts/Orders.sol\":6738:7118  function withdrawFunds() external nonReentrant {... */\n    tag_26:\n        /* \"contracts/Orders.sol\":2479:2480  1 */\n      0x01\n        /* \"contracts/Orders.sol\":2467:2475  unlocked */\n      sload(0x07)\n        /* \"contracts/Orders.sol\":2467:2480  unlocked == 1 */\n      eq\n        /* \"contracts/Orders.sol\":2459:2499  require(unlocked == 1, \"Reentrant call\") */\n      tag_111\n      jumpi\n      mload(0x40)\n      0x08c379a000000000000000000000000000000000000000000000000000000000\n      dup2\n      mstore\n      0x04\n      add\n      tag_112\n      swap1\n      tag_86\n      jump\t// in\n    tag_112:\n      mload(0x40)\n      dup1\n      swap2\n      sub\n      swap1\n      revert\n    tag_111:\n        /* \"contracts/Orders.sol\":2521:2522  0 */\n      0x00\n        /* \"contracts/Orders.sol\":2510:2518  unlocked */\n      0x07\n        /* \"contracts/Orders.sol\":2510:2522  unlocked = 0 */\n      dup2\n      swap1\n      sstore\n      pop\n        /* \"contracts/Orders.sol\":6796:6811  uint256 balance */\n      0x00\n        /* \"contracts/Orders.sol\":6814:6832  pendingWithdrawals */\n      0x04\n        /* \"contracts/Orders.sol\":6814:6844  pendingWithdrawals[msg.sender] */\n      0x00\n        /* \"contracts/Orders.sol\":6833:6843  msg.sender */\n      caller\n        /* \"contracts/Orders.sol\":6814:6844  pendingWithdrawals[msg.sender] */\n      0xffffffffffffffffffffffffffffffffffffffff\n      and\n      0xffffffffffffffffffffffffffffffffffffffff\n      and\n      dup2\n      mstore\n      0x20\n      add\n      swap1\n      dup2\n      mstore\n      0x20\n      add\n      0x00\n      keccak256\n      sload\n        /* \"contracts/Orders.sol\":6796:6844  uint256 balance = pendingWithdrawals[msg.sender] */\n      swap1\n      pop\n        /* \"contracts/Orders.sol\":6873:6874  0 */\n      0x00\n        /* \"contracts/Orders.sol\":6863:6870  balance */\n      dup2\n        /* \"contracts/Orders.sol\":6863:6874  balance > 0 */\n      gt\n        /* \"contracts/Orders.sol\":6855:6899  require(balance > 0, \"No funds to withdraw\") */\n      tag_114\n      jumpi\n      mload(0x40)\n      0x08c379a000000000000000000000000000000000000000000000000000000000\n      dup2\n      mstore\n      0x04\n      add\n      tag_115\n      swap1\n      tag_116\n      jump\t// in\n    tag_115:\n      mload(0x40)\n      dup1\n      swap2\n      sub\n      swap1\n      revert\n    tag_114:\n        /* \"contracts/Orders.sol\":6945:6946  0 */\n      0x00\n        /* \"contracts/Orders.sol\":6912:6930  pendingWithdrawals */\n      0x04\n        /* \"contracts/Orders.sol\":6912:6942  pendingWithdrawals[msg.sender] */\n      0x00\n        /* \"contracts/Orders.sol\":6931:6941  msg.sender */\n      caller\n        /* \"contracts/Orders.sol\":6912:6942  pendingWithdrawals[msg.sender] */\n      0xffffffffffffffffffffffffffffffffffffffff\n      and\n      0xffffffffffffffffffffffffffffffffffffffff\n      and\n      dup2\n      mstore\n      0x20\n      add\n      swap1\n      dup2\n      mstore\n      0x20\n      add\n      0x00\n      keccak256\n        /* \"contracts/Orders.sol\":6912:6946  pendingWithdrawals[msg.sender] = 0 */\n      dup2\n      swap1\n      sstore\n      pop\n        /* \"contracts/Orders.sol\":6958:6970  bool success */\n      0x00\n        /* \"contracts/Orders.sol\":6976:6986  msg.sender */\n      caller\n        /* \"contracts/Orders.sol\":6976:6991  msg.sender.call */\n      0xffffffffffffffffffffffffffffffffffffffff\n      and\n        /* \"contracts/Orders.sol\":6999:7006  balance */\n      dup3\n        /* \"contracts/Orders.sol\":6976:7011  msg.sender.call{value: balance}(\"\") */\n      mload(0x40)\n      tag_117\n      swap1\n      tag_118\n      jump\t// in\n    tag_117:\n      0x00\n      mload(0x40)\n      dup1\n      dup4\n      sub\n      dup2\n      dup6\n      dup8\n      gas\n      call\n      swap3\n      pop\n      pop\n      pop\n      returndatasize\n      dup1\n      0x00\n      dup2\n      eq\n      tag_121\n      jumpi\n      mload(0x40)\n      swap2\n      pop\n      and(add(returndatasize, 0x3f), not(0x1f))\n      dup3\n      add\n      0x40\n      mstore\n      returndatasize\n      dup3\n      mstore\n      returndatasize\n      0x00\n      0x20\n      dup5\n      add\n      returndatacopy\n      jump(tag_120)\n    tag_121:\n      0x60\n      swap2\n      pop\n    tag_120:\n      pop\n        /* \"contracts/Orders.sol\":6957:7011  (bool success, ) = msg.sender.call{value: balance}(\"\") */\n      pop\n      swap1\n      pop\n        /* \"contracts/Orders.sol\":7030:7037  success */\n      dup1\n        /* \"contracts/Orders.sol\":7022:7057  require(success, \"Withdraw failed\") */\n      tag_122\n      jumpi\n      mload(0x40)\n      0x08c379a000000000000000000000000000000000000000000000000000000000\n      dup2\n      mstore\n      0x04\n      add\n      tag_123\n      swap1\n      tag_124\n      jump\t// in\n    tag_123:\n      mload(0x40)\n      dup1\n      swap2\n      sub\n      swap1\n      revert\n    tag_122:\n        /* \"contracts/Orders.sol\":7099:7109  msg.sender */\n      caller\n        /* \"contracts/Orders.sol\":7075:7110  FundsWithdrawn(balance, msg.sender) */\n      0xffffffffffffffffffffffffffffffffffffffff\n      and\n      0x6141b54b56b8a52a8c6f5cd2a857f6117b18ffbf4d46bd3106f300a839cbf5ea\n        /* \"contracts/Orders.sol\":7090:7097  balance */\n      dup4\n        /* \"contracts/Orders.sol\":7075:7110  FundsWithdrawn(balance, msg.sender) */\n      mload(0x40)\n      tag_125\n      swap2\n      swap1\n      tag_33\n      jump\t// in\n    tag_125:\n      mload(0x40)\n      dup1\n      swap2\n      sub\n      swap1\n      log2\n        /* \"contracts/Orders.sol\":6785:7118  {... */\n      pop\n      pop\n        /* \"contracts/Orders.sol\":2556:2557  1 */\n      0x01\n        /* \"contracts/Orders.sol\":2545:2553  unlocked */\n      0x07\n        /* \"contracts/Orders.sol\":2545:2557  unlocked = 1 */\n      dup2\n      swap1\n      sstore\n      pop\n        /* \"contracts/Orders.sol\":6738:7118  function withdrawFunds() external nonReentrant {... */\n      jump\t// out\n        /* \"contracts/Orders.sol\":7423:7630  function tokenOfOwnerByIndex(address _owner, uint256 index)... */\n    tag_31:\n        /* \"contracts/Orders.sol\":7531:7546  uint256 tokenId */\n      0x00\n        /* \"contracts/Orders.sol\":7574:7587  nftEnumerable */\n      0x06\n      0x00\n      swap1\n      sload\n      swap1\n      0x0100\n      exp\n      swap1\n      div\n      0xffffffffffffffffffffffffffffffffffffffff\n      and\n        /* \"contracts/Orders.sol\":7574:7607  nftEnumerable.tokenOfOwnerByIndex */\n      0xffffffffffffffffffffffffffffffffffffffff\n      and\n      0x2f745c59\n        /* \"contracts/Orders.sol\":7608:7614  _owner */\n      dup5\n        /* \"contracts/Orders.sol\":7616:7621  index */\n      dup5\n        /* \"contracts/Orders.sol\":7574:7622  nftEnumerable.tokenOfOwnerByIndex(_owner, index) */\n      mload(0x40)\n      dup4\n      0xffffffff\n      and\n      0xe0\n      shl\n      dup2\n      mstore\n      0x04\n      add\n      tag_127\n      swap3\n      swap2\n      swap1\n      tag_128\n      jump\t// in\n    tag_127:\n      0x20\n      mload(0x40)\n      dup1\n      dup4\n      sub\n      dup2\n      dup7\n      gas\n      staticcall\n      iszero\n      dup1\n      iszero\n      tag_130\n      jumpi\n      returndatasize\n      0x00\n      dup1\n      returndatacopy\n      revert(0x00, returndatasize)\n    tag_130:\n      pop\n      pop\n      pop\n      pop\n      mload(0x40)\n      returndatasize\n      not(0x1f)\n      0x1f\n      dup3\n      add\n      and\n      dup3\n      add\n      dup1\n      0x40\n      mstore\n      pop\n      dup2\n      add\n      swap1\n      tag_131\n      swap2\n      swap1\n      tag_132\n      jump\t// in\n    tag_131:\n        /* \"contracts/Orders.sol\":7567:7622  return nftEnumerable.tokenOfOwnerByIndex(_owner, index) */\n      swap1\n      pop\n        /* \"contracts/Orders.sol\":7423:7630  function tokenOfOwnerByIndex(address _owner, uint256 index)... */\n      swap3\n      swap2\n      pop\n      pop\n      jump\t// out\n        /* \"contracts/Orders.sol\":5868:6276  function cancelListing(uint256 _listingId) external {... */\n    tag_37:\n        /* \"contracts/Orders.sol\":5931:5954  Listing storage listing */\n      0x00\n        /* \"contracts/Orders.sol\":5957:5965  listings */\n      0x02\n        /* \"contracts/Orders.sol\":5957:5977  listings[_listingId] */\n      0x00\n        /* \"contracts/Orders.sol\":5966:5976  _listingId */\n      dup4\n        /* \"contracts/Orders.sol\":5957:5977  listings[_listingId] */\n      dup2\n      mstore\n      0x20\n      add\n      swap1\n      dup2\n      mstore\n      0x20\n      add\n      0x00\n      keccak256\n        /* \"contracts/Orders.sol\":5931:5977  Listing storage listing = listings[_listingId] */\n      swap1\n      pop\n        /* \"contracts/Orders.sol\":6012:6013  0 */\n      0x00\n        /* \"contracts/Orders.sol\":5996:6003  listing */\n      dup2\n        /* \"contracts/Orders.sol\":5996:6009  listing.price */\n      0x01\n      add\n      0x10\n      swap1\n      sload\n      swap1\n      0x0100\n      exp\n      swap1\n      div\n      0xffffffffffffffffffffffffffffffff\n      and\n        /* \"contracts/Orders.sol\":5996:6013  listing.price > 0 */\n      0xffffffffffffffffffffffffffffffff\n      and\n      gt\n        /* \"contracts/Orders.sol\":5988:6045  require(listing.price > 0, \"Invalid or inactive listing\") */\n      tag_134\n      jumpi\n      mload(0x40)\n      0x08c379a000000000000000000000000000000000000000000000000000000000\n      dup2\n      mstore\n      0x04\n      add\n      tag_135\n      swap1\n      tag_90\n      jump\t// in\n    tag_135:\n      mload(0x40)\n      dup1\n      swap2\n      sub\n      swap1\n      revert\n    tag_134:\n        /* \"contracts/Orders.sol\":6082:6092  msg.sender */\n      caller\n        /* \"contracts/Orders.sol\":6064:6092  listing.seller == msg.sender */\n      0xffffffffffffffffffffffffffffffffffffffff\n      and\n        /* \"contracts/Orders.sol\":6064:6071  listing */\n      dup2\n        /* \"contracts/Orders.sol\":6064:6078  listing.seller */\n      0x00\n      add\n      0x00\n      swap1\n      sload\n      swap1\n      0x0100\n      exp\n      swap1\n      div\n      0xffffffffffffffffffffffffffffffffffffffff\n      and\n        /* \"contracts/Orders.sol\":6064:6092  listing.seller == msg.sender */\n      0xffffffffffffffffffffffffffffffffffffffff\n      and\n      eq\n        /* \"contracts/Orders.sol\":6056:6119  require(listing.seller == msg.sender, \"You are not the seller\") */\n      tag_136\n      jumpi\n      mload(0x40)\n      0x08c379a000000000000000000000000000000000000000000000000000000000\n      dup2\n      mstore\n      0x04\n      add\n      tag_137\n      swap1\n      tag_138\n      jump\t// in\n    tag_137:\n      mload(0x40)\n      dup1\n      swap2\n      sub\n      swap1\n      revert\n    tag_136:\n        /* \"contracts/Orders.sol\":6139:6147  listings */\n      0x02\n        /* \"contracts/Orders.sol\":6139:6159  listings[_listingId] */\n      0x00\n        /* \"contracts/Orders.sol\":6148:6158  _listingId */\n      dup4\n        /* \"contracts/Orders.sol\":6139:6159  listings[_listingId] */\n      dup2\n      mstore\n      0x20\n      add\n      swap1\n      dup2\n      mstore\n      0x20\n      add\n      0x00\n      keccak256\n      0x00\n        /* \"contracts/Orders.sol\":6132:6159  delete listings[_listingId] */\n      dup1\n      dup3\n      add\n      exp(0x0100, 0x00)\n      dup2\n      sload\n      swap1\n      0xffffffffffffffffffffffffffffffffffffffff\n      mul\n      not\n      and\n      swap1\n      sstore\n      0x01\n      dup3\n      add\n      exp(0x0100, 0x00)\n      dup2\n      sload\n      swap1\n      0xffffffffffffffffffffffffffffffff\n      mul\n      not\n      and\n      swap1\n      sstore\n      0x01\n      dup3\n      add\n      exp(0x0100, 0x10)\n      dup2\n      sload\n      swap1\n      0xffffffffffffffffffffffffffffffff\n      mul\n      not\n      and\n      swap1\n      sstore\n      pop\n      pop\n        /* \"contracts/Orders.sol\":6177:6193  tokenToListingId */\n      0x03\n        /* \"contracts/Orders.sol\":6177:6210  tokenToListingId[listing.tokenId] */\n      0x00\n        /* \"contracts/Orders.sol\":6194:6201  listing */\n      dup3\n        /* \"contracts/Orders.sol\":6194:6209  listing.tokenId */\n      0x01\n      add\n      0x00\n      swap1\n      sload\n      swap1\n      0x0100\n      exp\n      swap1\n      div\n      0xffffffffffffffffffffffffffffffff\n      and\n        /* \"contracts/Orders.sol\":6177:6210  tokenToListingId[listing.tokenId] */\n      0xffffffffffffffffffffffffffffffff\n      and\n      dup2\n      mstore\n      0x20\n      add\n      swap1\n      dup2\n      mstore\n      0x20\n      add\n      0x00\n      keccak256\n        /* \"contracts/Orders.sol\":6170:6210  delete tokenToListingId[listing.tokenId] */\n      0x00\n      swap1\n      sstore\n        /* \"contracts/Orders.sol\":6257:6267  msg.sender */\n      caller\n        /* \"contracts/Orders.sol\":6228:6268  ListingCancelled(_listingId, msg.sender) */\n      0xffffffffffffffffffffffffffffffffffffffff\n      and\n        /* \"contracts/Orders.sol\":6245:6255  _listingId */\n      dup3\n        /* \"contracts/Orders.sol\":6228:6268  ListingCancelled(_listingId, msg.sender) */\n      0x8e25282255ab31897df2b0456bb993ac7f84d376861aefd84901d2d63a7428a2\n      mload(0x40)\n      mload(0x40)\n      dup1\n      swap2\n      sub\n      swap1\n      log3\n        /* \"contracts/Orders.sol\":5920:6276  {... */\n      pop\n        /* \"contracts/Orders.sol\":5868:6276  function cancelListing(uint256 _listingId) external {... */\n      pop\n      jump\t// out\n        /* \"contracts/Orders.sol\":6419:6657  function setCommissionPercent(uint256 _newPercent) external onlyOwner {... */\n    tag_41:\n        /* \"contracts/Orders.sol\":2272:2277  owner */\n      0x00\n      dup1\n      sload\n      swap1\n      0x0100\n      exp\n      swap1\n      div\n      0xffffffffffffffffffffffffffffffffffffffff\n      and\n        /* \"contracts/Orders.sol\":2258:2277  msg.sender == owner */\n      0xffffffffffffffffffffffffffffffffffffffff\n      and\n        /* \"contracts/Orders.sol\":2258:2268  msg.sender */\n      caller\n        /* \"contracts/Orders.sol\":2258:2277  msg.sender == owner */\n      0xffffffffffffffffffffffffffffffffffffffff\n      and\n      eq\n        /* \"contracts/Orders.sol\":2250:2320  require(msg.sender == owner, \"Only the owner can perform this action\") */\n      tag_140\n      jumpi\n      mload(0x40)\n      0x08c379a000000000000000000000000000000000000000000000000000000000\n      dup2\n      mstore\n      0x04\n      add\n      tag_141\n      swap1\n      tag_142\n      jump\t// in\n    tag_141:\n      mload(0x40)\n      dup1\n      swap2\n      sub\n      swap1\n      revert\n    tag_140:\n        /* \"contracts/Orders.sol\":6523:6525  50 */\n      0x32\n        /* \"contracts/Orders.sol\":6508:6519  _newPercent */\n      dup2\n        /* \"contracts/Orders.sol\":6508:6525  _newPercent <= 50 */\n      gt\n      iszero\n        /* \"contracts/Orders.sol\":6500:6559  require(_newPercent <= 50, \"Commission cannot exceed 100%\") */\n      tag_144\n      jumpi\n      mload(0x40)\n      0x08c379a000000000000000000000000000000000000000000000000000000000\n      dup2\n      mstore\n      0x04\n      add\n      tag_145\n      swap1\n      tag_146\n      jump\t// in\n    tag_145:\n      mload(0x40)\n      dup1\n      swap2\n      sub\n      swap1\n      revert\n    tag_144:\n        /* \"contracts/Orders.sol\":6590:6601  _newPercent */\n      dup1\n        /* \"contracts/Orders.sol\":6570:6587  commissionPercent */\n      0x01\n        /* \"contracts/Orders.sol\":6570:6601  commissionPercent = _newPercent */\n      dup2\n      swap1\n      sstore\n      pop\n        /* \"contracts/Orders.sol\":6619:6649  CommissionUpdated(_newPercent) */\n      0x13f60dd2b588490608c3ff1932a3daeb4087f3d5af04b97e5c2a16b5b4c0302e\n        /* \"contracts/Orders.sol\":6637:6648  _newPercent */\n      dup2\n        /* \"contracts/Orders.sol\":6619:6649  CommissionUpdated(_newPercent) */\n      mload(0x40)\n      tag_147\n      swap2\n      swap1\n      tag_33\n      jump\t// in\n    tag_147:\n      mload(0x40)\n      dup1\n      swap2\n      sub\n      swap1\n      log1\n        /* \"contracts/Orders.sol\":6419:6657  function setCommissionPercent(uint256 _newPercent) external onlyOwner {... */\n      pop\n      jump\t// out\n        /* \"contracts/Orders.sol\":1219:1257  IERC721Enumerable public nftEnumerable */\n    tag_44:\n      0x06\n      0x00\n      swap1\n      sload\n      swap1\n      0x0100\n      exp\n      swap1\n      div\n      0xffffffffffffffffffffffffffffffffffffffff\n      and\n      dup2\n      jump\t// out\n        /* \"contracts/Orders.sol\":7638:7745  function balanceOf(address account) public view returns (uint256) {... */\n    tag_51:\n        /* \"contracts/Orders.sol\":7695:7702  uint256 */\n      0x00\n        /* \"contracts/Orders.sol\":7722:7729  account */\n      dup2\n        /* \"contracts/Orders.sol\":7722:7737  account.balance */\n      0xffffffffffffffffffffffffffffffffffffffff\n      and\n      balance\n        /* \"contracts/Orders.sol\":7715:7737  return account.balance */\n      swap1\n      pop\n        /* \"contracts/Orders.sol\":7638:7745  function balanceOf(address account) public view returns (uint256) {... */\n      swap2\n      swap1\n      pop\n      jump\t// out\n        /* \"contracts/Orders.sol\":688:720  uint256 public commissionPercent */\n    tag_55:\n      sload(0x01)\n      dup2\n      jump\t// out\n        /* \"contracts/Orders.sol\":584:612  address payable public owner */\n    tag_59:\n      0x00\n      dup1\n      sload\n      swap1\n      0x0100\n      exp\n      swap1\n      div\n      0xffffffffffffffffffffffffffffffffffffffff\n      and\n      dup2\n      jump\t// out\n        /* \"contracts/Orders.sol\":3386:4517  function createListing(uint128 _tokenId, uint128 _price) external {... */\n    tag_66:\n        /* \"contracts/Orders.sol\":3480:3481  0 */\n      0x00\n        /* \"contracts/Orders.sol\":3471:3477  _price */\n      dup2\n        /* \"contracts/Orders.sol\":3471:3481  _price > 0 */\n      0xffffffffffffffffffffffffffffffff\n      and\n      gt\n        /* \"contracts/Orders.sol\":3463:3514  require(_price > 0, \"Price must be greater than 0\") */\n      tag_150\n      jumpi\n      mload(0x40)\n      0x08c379a000000000000000000000000000000000000000000000000000000000\n      dup2\n      mstore\n      0x04\n      add\n      tag_151\n      swap1\n      tag_152\n      jump\t// in\n    tag_151:\n      mload(0x40)\n      dup1\n      swap2\n      sub\n      swap1\n      revert\n    tag_150:\n        /* \"contracts/Orders.sol\":3530:3557  Debug(\"Passed price check\") */\n      0x7cdb51e9dbbc205231228146c3246e7f914aa6d4a33170e43ecc8e3593481d1a\n      mload(0x40)\n      tag_153\n      swap1\n      tag_154\n      jump\t// in\n    tag_153:\n      mload(0x40)\n      dup1\n      swap2\n      sub\n      swap1\n      log1\n        /* \"contracts/Orders.sol\":3570:3588  address tokenOwner */\n      0x00\n        /* \"contracts/Orders.sol\":3591:3602  nftContract */\n      0x05\n      0x00\n      swap1\n      sload\n      swap1\n      0x0100\n      exp\n      swap1\n      div\n      0xffffffffffffffffffffffffffffffffffffffff\n      and\n        /* \"contracts/Orders.sol\":3591:3610  nftContract.ownerOf */\n      0xffffffffffffffffffffffffffffffffffffffff\n      and\n      0x6352211e\n        /* \"contracts/Orders.sol\":3611:3619  _tokenId */\n      dup5\n        /* \"contracts/Orders.sol\":3591:3620  nftContract.ownerOf(_tokenId) */\n      mload(0x40)\n      dup3\n      0xffffffff\n      and\n      0xe0\n      shl\n      dup2\n      mstore\n      0x04\n      add\n      tag_155\n      swap2\n      swap1\n      tag_156\n      jump\t// in\n    tag_155:\n      0x20\n      mload(0x40)\n      dup1\n      dup4\n      sub\n      dup2\n      dup7\n      gas\n      staticcall\n      iszero\n      dup1\n      iszero\n      tag_158\n      jumpi\n      returndatasize\n      0x00\n      dup1\n      returndatacopy\n      revert(0x00, returndatasize)\n    tag_158:\n      pop\n      pop\n      pop\n      pop\n      mload(0x40)\n      returndatasize\n      not(0x1f)\n      0x1f\n      dup3\n      add\n      and\n      dup3\n      add\n      dup1\n      0x40\n      mstore\n      pop\n      dup2\n      add\n      swap1\n      tag_159\n      swap2\n      swap1\n      tag_160\n      jump\t// in\n    tag_159:\n        /* \"contracts/Orders.sol\":3570:3620  address tokenOwner = nftContract.ownerOf(_tokenId) */\n      swap1\n      pop\n        /* \"contracts/Orders.sol\":3636:3660  Debug(\"Owner retrieved\") */\n      0x7cdb51e9dbbc205231228146c3246e7f914aa6d4a33170e43ecc8e3593481d1a\n      mload(0x40)\n      tag_161\n      swap1\n      tag_162\n      jump\t// in\n    tag_161:\n      mload(0x40)\n      dup1\n      swap2\n      sub\n      swap1\n      log1\n        /* \"contracts/Orders.sol\":3709:3719  msg.sender */\n      caller\n        /* \"contracts/Orders.sol\":3695:3719  tokenOwner == msg.sender */\n      0xffffffffffffffffffffffffffffffffffffffff\n      and\n        /* \"contracts/Orders.sol\":3695:3705  tokenOwner */\n      dup2\n        /* \"contracts/Orders.sol\":3695:3719  tokenOwner == msg.sender */\n      0xffffffffffffffffffffffffffffffffffffffff\n      and\n      eq\n        /* \"contracts/Orders.sol\":3673:3782  require(... */\n      tag_163\n      jumpi\n      mload(0x40)\n      0x08c379a000000000000000000000000000000000000000000000000000000000\n      dup2\n      mstore\n      0x04\n      add\n      tag_164\n      swap1\n      tag_165\n      jump\t// in\n    tag_164:\n      mload(0x40)\n      dup1\n      swap2\n      sub\n      swap1\n      revert\n    tag_163:\n        /* \"contracts/Orders.sol\":3798:3825  Debug(\"Ownership verified\") */\n      0x7cdb51e9dbbc205231228146c3246e7f914aa6d4a33170e43ecc8e3593481d1a\n      mload(0x40)\n      tag_166\n      swap1\n      tag_167\n      jump\t// in\n    tag_166:\n      mload(0x40)\n      dup1\n      swap2\n      sub\n      swap1\n      log1\n        /* \"contracts/Orders.sol\":3905:3909  this */\n      address\n        /* \"contracts/Orders.sol\":3860:3910  nftContract.getApproved(_tokenId) == address(this) */\n      0xffffffffffffffffffffffffffffffffffffffff\n      and\n        /* \"contracts/Orders.sol\":3860:3871  nftContract */\n      0x05\n      0x00\n      swap1\n      sload\n      swap1\n      0x0100\n      exp\n      swap1\n      div\n      0xffffffffffffffffffffffffffffffffffffffff\n      and\n        /* \"contracts/Orders.sol\":3860:3883  nftContract.getApproved */\n      0xffffffffffffffffffffffffffffffffffffffff\n      and\n      0x081812fc\n        /* \"contracts/Orders.sol\":3884:3892  _tokenId */\n      dup6\n        /* \"contracts/Orders.sol\":3860:3893  nftContract.getApproved(_tokenId) */\n      mload(0x40)\n      dup3\n      0xffffffff\n      and\n      0xe0\n      shl\n      dup2\n      mstore\n      0x04\n      add\n      tag_168\n      swap2\n      swap1\n      tag_156\n      jump\t// in\n    tag_168:\n      0x20\n      mload(0x40)\n      dup1\n      dup4\n      sub\n      dup2\n      dup7\n      gas\n      staticcall\n      iszero\n      dup1\n      iszero\n      tag_170\n      jumpi\n      returndatasize\n      0x00\n      dup1\n      returndatacopy\n      revert(0x00, returndatasize)\n    tag_170:\n      pop\n      pop\n      pop\n      pop\n      mload(0x40)\n      returndatasize\n      not(0x1f)\n      0x1f\n      dup3\n      add\n      and\n      dup3\n      add\n      dup1\n      0x40\n      mstore\n      pop\n      dup2\n      add\n      swap1\n      tag_171\n      swap2\n      swap1\n      tag_160\n      jump\t// in\n    tag_171:\n        /* \"contracts/Orders.sol\":3860:3910  nftContract.getApproved(_tokenId) == address(this) */\n      0xffffffffffffffffffffffffffffffffffffffff\n      and\n      eq\n        /* \"contracts/Orders.sol\":3860:3986  nftContract.getApproved(_tokenId) == address(this) ||... */\n      dup1\n      tag_172\n      jumpi\n      pop\n        /* \"contracts/Orders.sol\":3931:3942  nftContract */\n      0x05\n      0x00\n      swap1\n      sload\n      swap1\n      0x0100\n      exp\n      swap1\n      div\n      0xffffffffffffffffffffffffffffffffffffffff\n      and\n        /* \"contracts/Orders.sol\":3931:3959  nftContract.isApprovedForAll */\n      0xffffffffffffffffffffffffffffffffffffffff\n      and\n      0xe985e9c5\n        /* \"contracts/Orders.sol\":3960:3970  msg.sender */\n      caller\n        /* \"contracts/Orders.sol\":3980:3984  this */\n      address\n        /* \"contracts/Orders.sol\":3931:3986  nftContract.isApprovedForAll(msg.sender, address(this)) */\n      mload(0x40)\n      dup4\n      0xffffffff\n      and\n      0xe0\n      shl\n      dup2\n      mstore\n      0x04\n      add\n      tag_173\n      swap3\n      swap2\n      swap1\n      tag_174\n      jump\t// in\n    tag_173:\n      0x20\n      mload(0x40)\n      dup1\n      dup4\n      sub\n      dup2\n      dup7\n      gas\n      staticcall\n      iszero\n      dup1\n      iszero\n      tag_176\n      jumpi\n      returndatasize\n      0x00\n      dup1\n      returndatacopy\n      revert(0x00, returndatasize)\n    tag_176:\n      pop\n      pop\n      pop\n      pop\n      mload(0x40)\n      returndatasize\n      not(0x1f)\n      0x1f\n      dup3\n      add\n      and\n      dup3\n      add\n      dup1\n      0x40\n      mstore\n      pop\n      dup2\n      add\n      swap1\n      tag_177\n      swap2\n      swap1\n      tag_178\n      jump\t// in\n    tag_177:\n        /* \"contracts/Orders.sol\":3860:3986  nftContract.getApproved(_tokenId) == address(this) ||... */\n    tag_172:\n        /* \"contracts/Orders.sol\":3838:4064  require(... */\n      tag_179\n      jumpi\n      mload(0x40)\n      0x08c379a000000000000000000000000000000000000000000000000000000000\n      dup2\n      mstore\n      0x04\n      add\n      tag_180\n      swap1\n      tag_181\n      jump\t// in\n    tag_180:\n      mload(0x40)\n      dup1\n      swap2\n      sub\n      swap1\n      revert\n    tag_179:\n        /* \"contracts/Orders.sol\":4080:4106  Debug(\"Approval verified\") */\n      0x7cdb51e9dbbc205231228146c3246e7f914aa6d4a33170e43ecc8e3593481d1a\n      mload(0x40)\n      tag_182\n      swap1\n      tag_183\n      jump\t// in\n    tag_182:\n      mload(0x40)\n      dup1\n      swap2\n      sub\n      swap1\n      log1\n        /* \"contracts/Orders.sol\":4157:4158  0 */\n      0x00\n        /* \"contracts/Orders.sol\":4127:4143  tokenToListingId */\n      0x03\n        /* \"contracts/Orders.sol\":4127:4153  tokenToListingId[_tokenId] */\n      0x00\n        /* \"contracts/Orders.sol\":4144:4152  _tokenId */\n      dup6\n        /* \"contracts/Orders.sol\":4127:4153  tokenToListingId[_tokenId] */\n      0xffffffffffffffffffffffffffffffff\n      and\n      dup2\n      mstore\n      0x20\n      add\n      swap1\n      dup2\n      mstore\n      0x20\n      add\n      0x00\n      keccak256\n      sload\n        /* \"contracts/Orders.sol\":4127:4158  tokenToListingId[_tokenId] == 0 */\n      eq\n        /* \"contracts/Orders.sol\":4119:4186  require(tokenToListingId[_tokenId] == 0, \"Token is already listed\") */\n      tag_184\n      jumpi\n      mload(0x40)\n      0x08c379a000000000000000000000000000000000000000000000000000000000\n      dup2\n      mstore\n      0x04\n      add\n      tag_185\n      swap1\n      tag_186\n      jump\t// in\n    tag_185:\n      mload(0x40)\n      dup1\n      swap2\n      sub\n      swap1\n      revert\n    tag_184:\n        /* \"contracts/Orders.sol\":4199:4209  uint256 id */\n      0x00\n        /* \"contracts/Orders.sol\":4247:4255  _tokenId */\n      dup4\n        /* \"contracts/Orders.sol\":4257:4267  msg.sender */\n      caller\n        /* \"contracts/Orders.sol\":4230:4268  abi.encodePacked(_tokenId, msg.sender) */\n      add(0x20, mload(0x40))\n      tag_187\n      swap3\n      swap2\n      swap1\n      tag_188\n      jump\t// in\n    tag_187:\n      mload(0x40)\n      0x20\n      dup2\n      dup4\n      sub\n      sub\n      dup2\n      mstore\n      swap1\n      0x40\n      mstore\n        /* \"contracts/Orders.sol\":4220:4269  keccak256(abi.encodePacked(_tokenId, msg.sender)) */\n      dup1\n      mload\n      swap1\n      0x20\n      add\n      keccak256\n        /* \"contracts/Orders.sol\":4212:4270  uint256(keccak256(abi.encodePacked(_tokenId, msg.sender))) */\n      0x00\n      shr\n        /* \"contracts/Orders.sol\":4199:4270  uint256 id = uint256(keccak256(abi.encodePacked(_tokenId, msg.sender))) */\n      swap1\n      pop\n        /* \"contracts/Orders.sol\":4296:4333  Listing(msg.sender, _tokenId, _price) */\n      mload(0x40)\n      dup1\n      0x60\n      add\n      0x40\n      mstore\n      dup1\n        /* \"contracts/Orders.sol\":4304:4314  msg.sender */\n      caller\n        /* \"contracts/Orders.sol\":4296:4333  Listing(msg.sender, _tokenId, _price) */\n      0xffffffffffffffffffffffffffffffffffffffff\n      and\n      dup2\n      mstore\n      0x20\n      add\n        /* \"contracts/Orders.sol\":4316:4324  _tokenId */\n      dup6\n        /* \"contracts/Orders.sol\":4296:4333  Listing(msg.sender, _tokenId, _price) */\n      0xffffffffffffffffffffffffffffffff\n      and\n      dup2\n      mstore\n      0x20\n      add\n        /* \"contracts/Orders.sol\":4326:4332  _price */\n      dup5\n        /* \"contracts/Orders.sol\":4296:4333  Listing(msg.sender, _tokenId, _price) */\n      0xffffffffffffffffffffffffffffffff\n      and\n      dup2\n      mstore\n      pop\n        /* \"contracts/Orders.sol\":4281:4289  listings */\n      0x02\n        /* \"contracts/Orders.sol\":4281:4293  listings[id] */\n      0x00\n        /* \"contracts/Orders.sol\":4290:4292  id */\n      dup4\n        /* \"contracts/Orders.sol\":4281:4293  listings[id] */\n      dup2\n      mstore\n      0x20\n      add\n      swap1\n      dup2\n      mstore\n      0x20\n      add\n      0x00\n      keccak256\n        /* \"contracts/Orders.sol\":4281:4333  listings[id] = Listing(msg.sender, _tokenId, _price) */\n      0x00\n      dup3\n      add\n      mload\n      dup2\n      0x00\n      add\n      exp(0x0100, 0x00)\n      dup2\n      sload\n      dup2\n      0xffffffffffffffffffffffffffffffffffffffff\n      mul\n      not\n      and\n      swap1\n      dup4\n      0xffffffffffffffffffffffffffffffffffffffff\n      and\n      mul\n      or\n      swap1\n      sstore\n      pop\n      0x20\n      dup3\n      add\n      mload\n      dup2\n      0x01\n      add\n      exp(0x0100, 0x00)\n      dup2\n      sload\n      dup2\n      0xffffffffffffffffffffffffffffffff\n      mul\n      not\n      and\n      swap1\n      dup4\n      0xffffffffffffffffffffffffffffffff\n      and\n      mul\n      or\n      swap1\n      sstore\n      pop\n      0x40\n      dup3\n      add\n      mload\n      dup2\n      0x01\n      add\n      exp(0x0100, 0x10)\n      dup2\n      sload\n      dup2\n      0xffffffffffffffffffffffffffffffff\n      mul\n      not\n      and\n      swap1\n      dup4\n      0xffffffffffffffffffffffffffffffff\n      and\n      mul\n      or\n      swap1\n      sstore\n      pop\n      swap1\n      pop\n      pop\n        /* \"contracts/Orders.sol\":4373:4375  id */\n      dup1\n        /* \"contracts/Orders.sol\":4344:4360  tokenToListingId */\n      0x03\n        /* \"contracts/Orders.sol\":4344:4370  tokenToListingId[_tokenId] */\n      0x00\n        /* \"contracts/Orders.sol\":4361:4369  _tokenId */\n      dup7\n        /* \"contracts/Orders.sol\":4344:4370  tokenToListingId[_tokenId] */\n      0xffffffffffffffffffffffffffffffff\n      and\n      dup2\n      mstore\n      0x20\n      add\n      swap1\n      dup2\n      mstore\n      0x20\n      add\n      0x00\n      keccak256\n        /* \"contracts/Orders.sol\":4344:4375  tokenToListingId[_tokenId] = id */\n      dup2\n      swap1\n      sstore\n      pop\n        /* \"contracts/Orders.sol\":4391:4426  Debug(\"Unique listing ID verified\") */\n      0x7cdb51e9dbbc205231228146c3246e7f914aa6d4a33170e43ecc8e3593481d1a\n      mload(0x40)\n      tag_189\n      swap1\n      tag_190\n      jump\t// in\n    tag_189:\n      mload(0x40)\n      dup1\n      swap2\n      sub\n      swap1\n      log1\n        /* \"contracts/Orders.sol\":4463:4473  msg.sender */\n      caller\n        /* \"contracts/Orders.sol\":4444:4509  ListingCreated(id, msg.sender, _tokenId, _price, block.timestamp) */\n      0xffffffffffffffffffffffffffffffffffffffff\n      and\n        /* \"contracts/Orders.sol\":4459:4461  id */\n      dup2\n        /* \"contracts/Orders.sol\":4444:4509  ListingCreated(id, msg.sender, _tokenId, _price, block.timestamp) */\n      0xa3941cfa07eecf2734875ab71cea0e47395be644da6e17b039a7e29efba74ef9\n        /* \"contracts/Orders.sol\":4475:4483  _tokenId */\n      dup7\n        /* \"contracts/Orders.sol\":4485:4491  _price */\n      dup7\n        /* \"contracts/Orders.sol\":4493:4508  block.timestamp */\n      timestamp\n        /* \"contracts/Orders.sol\":4444:4509  ListingCreated(id, msg.sender, _tokenId, _price, block.timestamp) */\n      mload(0x40)\n      tag_191\n      swap4\n      swap3\n      swap2\n      swap1\n      tag_109\n      jump\t// in\n    tag_191:\n      mload(0x40)\n      dup1\n      swap2\n      sub\n      swap1\n      log3\n        /* \"contracts/Orders.sol\":3452:4517  {... */\n      pop\n      pop\n        /* \"contracts/Orders.sol\":3386:4517  function createListing(uint128 _tokenId, uint128 _price) external {... */\n      pop\n      pop\n      jump\t// out\n        /* \"contracts/Orders.sol\":1120:1146  IERC721 public nftContract */\n    tag_69:\n      0x05\n      0x00\n      swap1\n      sload\n      swap1\n      0x0100\n      exp\n      swap1\n      div\n      0xffffffffffffffffffffffffffffffffffffffff\n      and\n      dup2\n      jump\t// out\n        /* \"contracts/Orders.sol\":783:826  mapping(uint256 => Listing) public listings */\n    tag_75:\n      mstore(0x20, 0x02)\n      dup1\n      0x00\n      mstore\n      keccak256(0x00, 0x40)\n      0x00\n      swap2\n      pop\n      swap1\n      pop\n      dup1\n      0x00\n      add\n      0x00\n      swap1\n      sload\n      swap1\n      0x0100\n      exp\n      swap1\n      div\n      0xffffffffffffffffffffffffffffffffffffffff\n      and\n      swap1\n      dup1\n      0x01\n      add\n      0x00\n      swap1\n      sload\n      swap1\n      0x0100\n      exp\n      swap1\n      div\n      0xffffffffffffffffffffffffffffffff\n      and\n      swap1\n      dup1\n      0x01\n      add\n      0x10\n      swap1\n      sload\n      swap1\n      0x0100\n      exp\n      swap1\n      div\n      0xffffffffffffffffffffffffffffffff\n      and\n      swap1\n      pop\n      dup4\n      jump\t// out\n        /* \"contracts/Orders.sol\":1000:1053  mapping(address => uint256) public pendingWithdrawals */\n    tag_81:\n      mstore(0x20, 0x04)\n      dup1\n      0x00\n      mstore\n      keccak256(0x00, 0x40)\n      0x00\n      swap2\n      pop\n      swap1\n      pop\n      sload\n      dup2\n      jump\t// out\n        /* \"#utility.yul\":88:205   */\n    tag_193:\n        /* \"#utility.yul\":197:198   */\n      0x00\n        /* \"#utility.yul\":194:195   */\n      dup1\n        /* \"#utility.yul\":187:199   */\n      revert\n        /* \"#utility.yul\":334:411   */\n    tag_195:\n        /* \"#utility.yul\":371:378   */\n      0x00\n        /* \"#utility.yul\":400:405   */\n      dup2\n        /* \"#utility.yul\":389:405   */\n      swap1\n      pop\n        /* \"#utility.yul\":334:411   */\n      swap2\n      swap1\n      pop\n      jump\t// out\n        /* \"#utility.yul\":417:539   */\n    tag_196:\n        /* \"#utility.yul\":490:514   */\n      tag_277\n        /* \"#utility.yul\":508:513   */\n      dup2\n        /* \"#utility.yul\":490:514   */\n      tag_195\n      jump\t// in\n    tag_277:\n        /* \"#utility.yul\":483:488   */\n      dup2\n        /* \"#utility.yul\":480:515   */\n      eq\n        /* \"#utility.yul\":470:533   */\n      tag_278\n      jumpi\n        /* \"#utility.yul\":529:530   */\n      0x00\n        /* \"#utility.yul\":526:527   */\n      dup1\n        /* \"#utility.yul\":519:531   */\n      revert\n        /* \"#utility.yul\":470:533   */\n    tag_278:\n        /* \"#utility.yul\":417:539   */\n      pop\n      jump\t// out\n        /* \"#utility.yul\":545:684   */\n    tag_197:\n        /* \"#utility.yul\":591:596   */\n      0x00\n        /* \"#utility.yul\":629:635   */\n      dup2\n        /* \"#utility.yul\":616:636   */\n      calldataload\n        /* \"#utility.yul\":607:636   */\n      swap1\n      pop\n        /* \"#utility.yul\":645:678   */\n      tag_280\n        /* \"#utility.yul\":672:677   */\n      dup2\n        /* \"#utility.yul\":645:678   */\n      tag_196\n      jump\t// in\n    tag_280:\n        /* \"#utility.yul\":545:684   */\n      swap3\n      swap2\n      pop\n      pop\n      jump\t// out\n        /* \"#utility.yul\":690:1019   */\n    tag_22:\n        /* \"#utility.yul\":749:755   */\n      0x00\n        /* \"#utility.yul\":798:800   */\n      0x20\n        /* \"#utility.yul\":786:795   */\n      dup3\n        /* \"#utility.yul\":777:784   */\n      dup5\n        /* \"#utility.yul\":773:796   */\n      sub\n        /* \"#utility.yul\":769:801   */\n      slt\n        /* \"#utility.yul\":766:885   */\n      iszero\n      tag_282\n      jumpi\n        /* \"#utility.yul\":804:883   */\n      tag_283\n      tag_193\n      jump\t// in\n    tag_283:\n        /* \"#utility.yul\":766:885   */\n    tag_282:\n        /* \"#utility.yul\":924:925   */\n      0x00\n        /* \"#utility.yul\":949:1002   */\n      tag_284\n        /* \"#utility.yul\":994:1001   */\n      dup5\n        /* \"#utility.yul\":985:991   */\n      dup3\n        /* \"#utility.yul\":974:983   */\n      dup6\n        /* \"#utility.yul\":970:992   */\n      add\n        /* \"#utility.yul\":949:1002   */\n      tag_197\n      jump\t// in\n    tag_284:\n        /* \"#utility.yul\":939:1002   */\n      swap2\n      pop\n        /* \"#utility.yul\":895:1012   */\n      pop\n        /* \"#utility.yul\":690:1019   */\n      swap3\n      swap2\n      pop\n      pop\n      jump\t// out\n        /* \"#utility.yul\":1025:1151   */\n    tag_198:\n        /* \"#utility.yul\":1062:1069   */\n      0x00\n        /* \"#utility.yul\":1102:1144   */\n      0xffffffffffffffffffffffffffffffffffffffff\n        /* \"#utility.yul\":1095:1100   */\n      dup3\n        /* \"#utility.yul\":1091:1145   */\n      and\n        /* \"#utility.yul\":1080:1145   */\n      swap1\n      pop\n        /* \"#utility.yul\":1025:1151   */\n      swap2\n      swap1\n      pop\n      jump\t// out\n        /* \"#utility.yul\":1157:1253   */\n    tag_199:\n        /* \"#utility.yul\":1194:1201   */\n      0x00\n        /* \"#utility.yul\":1223:1247   */\n      tag_287\n        /* \"#utility.yul\":1241:1246   */\n      dup3\n        /* \"#utility.yul\":1223:1247   */\n      tag_198\n      jump\t// in\n    tag_287:\n        /* \"#utility.yul\":1212:1247   */\n      swap1\n      pop\n        /* \"#utility.yul\":1157:1253   */\n      swap2\n      swap1\n      pop\n      jump\t// out\n        /* \"#utility.yul\":1259:1381   */\n    tag_200:\n        /* \"#utility.yul\":1332:1356   */\n      tag_289\n        /* \"#utility.yul\":1350:1355   */\n      dup2\n        /* \"#utility.yul\":1332:1356   */\n      tag_199\n      jump\t// in\n    tag_289:\n        /* \"#utility.yul\":1325:1330   */\n      dup2\n        /* \"#utility.yul\":1322:1357   */\n      eq\n        /* \"#utility.yul\":1312:1375   */\n      tag_290\n      jumpi\n        /* \"#utility.yul\":1371:1372   */\n      0x00\n        /* \"#utility.yul\":1368:1369   */\n      dup1\n        /* \"#utility.yul\":1361:1373   */\n      revert\n        /* \"#utility.yul\":1312:1375   */\n    tag_290:\n        /* \"#utility.yul\":1259:1381   */\n      pop\n      jump\t// out\n        /* \"#utility.yul\":1387:1526   */\n    tag_201:\n        /* \"#utility.yul\":1433:1438   */\n      0x00\n        /* \"#utility.yul\":1471:1477   */\n      dup2\n        /* \"#utility.yul\":1458:1478   */\n      calldataload\n        /* \"#utility.yul\":1449:1478   */\n      swap1\n      pop\n        /* \"#utility.yul\":1487:1520   */\n      tag_292\n        /* \"#utility.yul\":1514:1519   */\n      dup2\n        /* \"#utility.yul\":1487:1520   */\n      tag_200\n      jump\t// in\n    tag_292:\n        /* \"#utility.yul\":1387:1526   */\n      swap3\n      swap2\n      pop\n      pop\n      jump\t// out\n        /* \"#utility.yul\":1532:2006   */\n    tag_30:\n        /* \"#utility.yul\":1600:1606   */\n      0x00\n        /* \"#utility.yul\":1608:1614   */\n      dup1\n        /* \"#utility.yul\":1657:1659   */\n      0x40\n        /* \"#utility.yul\":1645:1654   */\n      dup4\n        /* \"#utility.yul\":1636:1643   */\n      dup6\n        /* \"#utility.yul\":1632:1655   */\n      sub\n        /* \"#utility.yul\":1628:1660   */\n      slt\n        /* \"#utility.yul\":1625:1744   */\n      iszero\n      tag_294\n      jumpi\n        /* \"#utility.yul\":1663:1742   */\n      tag_295\n      tag_193\n      jump\t// in\n    tag_295:\n        /* \"#utility.yul\":1625:1744   */\n    tag_294:\n        /* \"#utility.yul\":1783:1784   */\n      0x00\n        /* \"#utility.yul\":1808:1861   */\n      tag_296\n        /* \"#utility.yul\":1853:1860   */\n      dup6\n        /* \"#utility.yul\":1844:1850   */\n      dup3\n        /* \"#utility.yul\":1833:1842   */\n      dup7\n        /* \"#utility.yul\":1829:1851   */\n      add\n        /* \"#utility.yul\":1808:1861   */\n      tag_201\n      jump\t// in\n    tag_296:\n        /* \"#utility.yul\":1798:1861   */\n      swap3\n      pop\n        /* \"#utility.yul\":1754:1871   */\n      pop\n        /* \"#utility.yul\":1910:1912   */\n      0x20\n        /* \"#utility.yul\":1936:1989   */\n      tag_297\n        /* \"#utility.yul\":1981:1988   */\n      dup6\n        /* \"#utility.yul\":1972:1978   */\n      dup3\n        /* \"#utility.yul\":1961:1970   */\n      dup7\n        /* \"#utility.yul\":1957:1979   */\n      add\n        /* \"#utility.yul\":1936:1989   */\n      tag_197\n      jump\t// in\n    tag_297:\n        /* \"#utility.yul\":1926:1989   */\n      swap2\n      pop\n        /* \"#utility.yul\":1881:1999   */\n      pop\n        /* \"#utility.yul\":1532:2006   */\n      swap3\n      pop\n      swap3\n      swap1\n      pop\n      jump\t// out\n        /* \"#utility.yul\":2012:2130   */\n    tag_202:\n        /* \"#utility.yul\":2099:2123   */\n      tag_299\n        /* \"#utility.yul\":2117:2122   */\n      dup2\n        /* \"#utility.yul\":2099:2123   */\n      tag_195\n      jump\t// in\n    tag_299:\n        /* \"#utility.yul\":2094:2097   */\n      dup3\n        /* \"#utility.yul\":2087:2124   */\n      mstore\n        /* \"#utility.yul\":2012:2130   */\n      pop\n      pop\n      jump\t// out\n        /* \"#utility.yul\":2136:2358   */\n    tag_33:\n        /* \"#utility.yul\":2229:2233   */\n      0x00\n        /* \"#utility.yul\":2267:2269   */\n      0x20\n        /* \"#utility.yul\":2256:2265   */\n      dup3\n        /* \"#utility.yul\":2252:2270   */\n      add\n        /* \"#utility.yul\":2244:2270   */\n      swap1\n      pop\n        /* \"#utility.yul\":2280:2351   */\n      tag_301\n        /* \"#utility.yul\":2348:2349   */\n      0x00\n        /* \"#utility.yul\":2337:2346   */\n      dup4\n        /* \"#utility.yul\":2333:2350   */\n      add\n        /* \"#utility.yul\":2324:2330   */\n      dup5\n        /* \"#utility.yul\":2280:2351   */\n      tag_202\n      jump\t// in\n    tag_301:\n        /* \"#utility.yul\":2136:2358   */\n      swap3\n      swap2\n      pop\n      pop\n      jump\t// out\n        /* \"#utility.yul\":2364:2424   */\n    tag_203:\n        /* \"#utility.yul\":2392:2395   */\n      0x00\n        /* \"#utility.yul\":2413:2418   */\n      dup2\n        /* \"#utility.yul\":2406:2418   */\n      swap1\n      pop\n        /* \"#utility.yul\":2364:2424   */\n      swap2\n      swap1\n      pop\n      jump\t// out\n        /* \"#utility.yul\":2430:2572   */\n    tag_204:\n        /* \"#utility.yul\":2480:2489   */\n      0x00\n        /* \"#utility.yul\":2513:2566   */\n      tag_304\n        /* \"#utility.yul\":2531:2565   */\n      tag_305\n        /* \"#utility.yul\":2540:2564   */\n      tag_306\n        /* \"#utility.yul\":2558:2563   */\n      dup5\n        /* \"#utility.yul\":2540:2564   */\n      tag_198\n      jump\t// in\n    tag_306:\n        /* \"#utility.yul\":2531:2565   */\n      tag_203\n      jump\t// in\n    tag_305:\n        /* \"#utility.yul\":2513:2566   */\n      tag_198\n      jump\t// in\n    tag_304:\n        /* \"#utility.yul\":2500:2566   */\n      swap1\n      pop\n        /* \"#utility.yul\":2430:2572   */\n      swap2\n      swap1\n      pop\n      jump\t// out\n        /* \"#utility.yul\":2578:2704   */\n    tag_205:\n        /* \"#utility.yul\":2628:2637   */\n      0x00\n        /* \"#utility.yul\":2661:2698   */\n      tag_308\n        /* \"#utility.yul\":2692:2697   */\n      dup3\n        /* \"#utility.yul\":2661:2698   */\n      tag_204\n      jump\t// in\n    tag_308:\n        /* \"#utility.yul\":2648:2698   */\n      swap1\n      pop\n        /* \"#utility.yul\":2578:2704   */\n      swap2\n      swap1\n      pop\n      jump\t// out\n        /* \"#utility.yul\":2710:2861   */\n    tag_206:\n        /* \"#utility.yul\":2785:2794   */\n      0x00\n        /* \"#utility.yul\":2818:2855   */\n      tag_310\n        /* \"#utility.yul\":2849:2854   */\n      dup3\n        /* \"#utility.yul\":2818:2855   */\n      tag_205\n      jump\t// in\n    tag_310:\n        /* \"#utility.yul\":2805:2855   */\n      swap1\n      pop\n        /* \"#utility.yul\":2710:2861   */\n      swap2\n      swap1\n      pop\n      jump\t// out\n        /* \"#utility.yul\":2867:3048   */\n    tag_207:\n        /* \"#utility.yul\":2979:3041   */\n      tag_312\n        /* \"#utility.yul\":3035:3040   */\n      dup2\n        /* \"#utility.yul\":2979:3041   */\n      tag_206\n      jump\t// in\n    tag_312:\n        /* \"#utility.yul\":2974:2977   */\n      dup3\n        /* \"#utility.yul\":2967:3042   */\n      mstore\n        /* \"#utility.yul\":2867:3048   */\n      pop\n      pop\n      jump\t// out\n        /* \"#utility.yul\":3054:3326   */\n    tag_46:\n        /* \"#utility.yul\":3172:3176   */\n      0x00\n        /* \"#utility.yul\":3210:3212   */\n      0x20\n        /* \"#utility.yul\":3199:3208   */\n      dup3\n        /* \"#utility.yul\":3195:3213   */\n      add\n        /* \"#utility.yul\":3187:3213   */\n      swap1\n      pop\n        /* \"#utility.yul\":3223:3319   */\n      tag_314\n        /* \"#utility.yul\":3316:3317   */\n      0x00\n        /* \"#utility.yul\":3305:3314   */\n      dup4\n        /* \"#utility.yul\":3301:3318   */\n      add\n        /* \"#utility.yul\":3292:3298   */\n      dup5\n        /* \"#utility.yul\":3223:3319   */\n      tag_207\n      jump\t// in\n    tag_314:\n        /* \"#utility.yul\":3054:3326   */\n      swap3\n      swap2\n      pop\n      pop\n      jump\t// out\n        /* \"#utility.yul\":3332:3661   */\n    tag_50:\n        /* \"#utility.yul\":3391:3397   */\n      0x00\n        /* \"#utility.yul\":3440:3442   */\n      0x20\n        /* \"#utility.yul\":3428:3437   */\n      dup3\n        /* \"#utility.yul\":3419:3426   */\n      dup5\n        /* \"#utility.yul\":3415:3438   */\n      sub\n        /* \"#utility.yul\":3411:3443   */\n      slt\n        /* \"#utility.yul\":3408:3527   */\n      iszero\n      tag_316\n      jumpi\n        /* \"#utility.yul\":3446:3525   */\n      tag_317\n      tag_193\n      jump\t// in\n    tag_317:\n        /* \"#utility.yul\":3408:3527   */\n    tag_316:\n        /* \"#utility.yul\":3566:3567   */\n      0x00\n        /* \"#utility.yul\":3591:3644   */\n      tag_318\n        /* \"#utility.yul\":3636:3643   */\n      dup5\n        /* \"#utility.yul\":3627:3633   */\n      dup3\n        /* \"#utility.yul\":3616:3625   */\n      dup6\n        /* \"#utility.yul\":3612:3634   */\n      add\n        /* \"#utility.yul\":3591:3644   */\n      tag_201\n      jump\t// in\n    tag_318:\n        /* \"#utility.yul\":3581:3644   */\n      swap2\n      pop\n        /* \"#utility.yul\":3537:3654   */\n      pop\n        /* \"#utility.yul\":3332:3661   */\n      swap3\n      swap2\n      pop\n      pop\n      jump\t// out\n        /* \"#utility.yul\":3667:3771   */\n    tag_208:\n        /* \"#utility.yul\":3712:3719   */\n      0x00\n        /* \"#utility.yul\":3741:3765   */\n      tag_320\n        /* \"#utility.yul\":3759:3764   */\n      dup3\n        /* \"#utility.yul\":3741:3765   */\n      tag_198\n      jump\t// in\n    tag_320:\n        /* \"#utility.yul\":3730:3765   */\n      swap1\n      pop\n        /* \"#utility.yul\":3667:3771   */\n      swap2\n      swap1\n      pop\n      jump\t// out\n        /* \"#utility.yul\":3777:3919   */\n    tag_209:\n        /* \"#utility.yul\":3880:3912   */\n      tag_322\n        /* \"#utility.yul\":3906:3911   */\n      dup2\n        /* \"#utility.yul\":3880:3912   */\n      tag_208\n      jump\t// in\n    tag_322:\n        /* \"#utility.yul\":3875:3878   */\n      dup3\n        /* \"#utility.yul\":3868:3913   */\n      mstore\n        /* \"#utility.yul\":3777:3919   */\n      pop\n      pop\n      jump\t// out\n        /* \"#utility.yul\":3925:4179   */\n    tag_61:\n        /* \"#utility.yul\":4034:4038   */\n      0x00\n        /* \"#utility.yul\":4072:4074   */\n      0x20\n        /* \"#utility.yul\":4061:4070   */\n      dup3\n        /* \"#utility.yul\":4057:4075   */\n      add\n        /* \"#utility.yul\":4049:4075   */\n      swap1\n      pop\n        /* \"#utility.yul\":4085:4172   */\n      tag_324\n        /* \"#utility.yul\":4169:4170   */\n      0x00\n        /* \"#utility.yul\":4158:4167   */\n      dup4\n        /* \"#utility.yul\":4154:4171   */\n      add\n        /* \"#utility.yul\":4145:4151   */\n      dup5\n        /* \"#utility.yul\":4085:4172   */\n      tag_209\n      jump\t// in\n    tag_324:\n        /* \"#utility.yul\":3925:4179   */\n      swap3\n      swap2\n      pop\n      pop\n      jump\t// out\n        /* \"#utility.yul\":4185:4303   */\n    tag_210:\n        /* \"#utility.yul\":4222:4229   */\n      0x00\n        /* \"#utility.yul\":4262:4296   */\n      0xffffffffffffffffffffffffffffffff\n        /* \"#utility.yul\":4255:4260   */\n      dup3\n        /* \"#utility.yul\":4251:4297   */\n      and\n        /* \"#utility.yul\":4240:4297   */\n      swap1\n      pop\n        /* \"#utility.yul\":4185:4303   */\n      swap2\n      swap1\n      pop\n      jump\t// out\n        /* \"#utility.yul\":4309:4431   */\n    tag_211:\n        /* \"#utility.yul\":4382:4406   */\n      tag_327\n        /* \"#utility.yul\":4400:4405   */\n      dup2\n        /* \"#utility.yul\":4382:4406   */\n      tag_210\n      jump\t// in\n    tag_327:\n        /* \"#utility.yul\":4375:4380   */\n      dup2\n        /* \"#utility.yul\":4372:4407   */\n      eq\n        /* \"#utility.yul\":4362:4425   */\n      tag_328\n      jumpi\n        /* \"#utility.yul\":4421:4422   */\n      0x00\n        /* \"#utility.yul\":4418:4419   */\n      dup1\n        /* \"#utility.yul\":4411:4423   */\n      revert\n        /* \"#utility.yul\":4362:4425   */\n    tag_328:\n        /* \"#utility.yul\":4309:4431   */\n      pop\n      jump\t// out\n        /* \"#utility.yul\":4437:4576   */\n    tag_212:\n        /* \"#utility.yul\":4483:4488   */\n      0x00\n        /* \"#utility.yul\":4521:4527   */\n      dup2\n        /* \"#utility.yul\":4508:4528   */\n      calldataload\n        /* \"#utility.yul\":4499:4528   */\n      swap1\n      pop\n        /* \"#utility.yul\":4537:4570   */\n      tag_330\n        /* \"#utility.yul\":4564:4569   */\n      dup2\n        /* \"#utility.yul\":4537:4570   */\n      tag_211\n      jump\t// in\n    tag_330:\n        /* \"#utility.yul\":4437:4576   */\n      swap3\n      swap2\n      pop\n      pop\n      jump\t// out\n        /* \"#utility.yul\":4582:5056   */\n    tag_65:\n        /* \"#utility.yul\":4650:4656   */\n      0x00\n        /* \"#utility.yul\":4658:4664   */\n      dup1\n        /* \"#utility.yul\":4707:4709   */\n      0x40\n        /* \"#utility.yul\":4695:4704   */\n      dup4\n        /* \"#utility.yul\":4686:4693   */\n      dup6\n        /* \"#utility.yul\":4682:4705   */\n      sub\n        /* \"#utility.yul\":4678:4710   */\n      slt\n        /* \"#utility.yul\":4675:4794   */\n      iszero\n      tag_332\n      jumpi\n        /* \"#utility.yul\":4713:4792   */\n      tag_333\n      tag_193\n      jump\t// in\n    tag_333:\n        /* \"#utility.yul\":4675:4794   */\n    tag_332:\n        /* \"#utility.yul\":4833:4834   */\n      0x00\n        /* \"#utility.yul\":4858:4911   */\n      tag_334\n        /* \"#utility.yul\":4903:4910   */\n      dup6\n        /* \"#utility.yul\":4894:4900   */\n      dup3\n        /* \"#utility.yul\":4883:4892   */\n      dup7\n        /* \"#utility.yul\":4879:4901   */\n      add\n        /* \"#utility.yul\":4858:4911   */\n      tag_212\n      jump\t// in\n    tag_334:\n        /* \"#utility.yul\":4848:4911   */\n      swap3\n      pop\n        /* \"#utility.yul\":4804:4921   */\n      pop\n        /* \"#utility.yul\":4960:4962   */\n      0x20\n        /* \"#utility.yul\":4986:5039   */\n      tag_335\n        /* \"#utility.yul\":5031:5038   */\n      dup6\n        /* \"#utility.yul\":5022:5028   */\n      dup3\n        /* \"#utility.yul\":5011:5020   */\n      dup7\n        /* \"#utility.yul\":5007:5029   */\n      add\n        /* \"#utility.yul\":4986:5039   */\n      tag_212\n      jump\t// in\n    tag_335:\n        /* \"#utility.yul\":4976:5039   */\n      swap2\n      pop\n        /* \"#utility.yul\":4931:5049   */\n      pop\n        /* \"#utility.yul\":4582:5056   */\n      swap3\n      pop\n      swap3\n      swap1\n      pop\n      jump\t// out\n        /* \"#utility.yul\":5062:5203   */\n    tag_213:\n        /* \"#utility.yul\":5127:5136   */\n      0x00\n        /* \"#utility.yul\":5160:5197   */\n      tag_337\n        /* \"#utility.yul\":5191:5196   */\n      dup3\n        /* \"#utility.yul\":5160:5197   */\n      tag_205\n      jump\t// in\n    tag_337:\n        /* \"#utility.yul\":5147:5197   */\n      swap1\n      pop\n        /* \"#utility.yul\":5062:5203   */\n      swap2\n      swap1\n      pop\n      jump\t// out\n        /* \"#utility.yul\":5209:5370   */\n    tag_214:\n        /* \"#utility.yul\":5311:5363   */\n      tag_339\n        /* \"#utility.yul\":5357:5362   */\n      dup2\n        /* \"#utility.yul\":5311:5363   */\n      tag_213\n      jump\t// in\n    tag_339:\n        /* \"#utility.yul\":5306:5309   */\n      dup3\n        /* \"#utility.yul\":5299:5364   */\n      mstore\n        /* \"#utility.yul\":5209:5370   */\n      pop\n      pop\n      jump\t// out\n        /* \"#utility.yul\":5376:5628   */\n    tag_71:\n        /* \"#utility.yul\":5484:5488   */\n      0x00\n        /* \"#utility.yul\":5522:5524   */\n      0x20\n        /* \"#utility.yul\":5511:5520   */\n      dup3\n        /* \"#utility.yul\":5507:5525   */\n      add\n        /* \"#utility.yul\":5499:5525   */\n      swap1\n      pop\n        /* \"#utility.yul\":5535:5621   */\n      tag_341\n        /* \"#utility.yul\":5618:5619   */\n      0x00\n        /* \"#utility.yul\":5607:5616   */\n      dup4\n        /* \"#utility.yul\":5603:5620   */\n      add\n        /* \"#utility.yul\":5594:5600   */\n      dup5\n        /* \"#utility.yul\":5535:5621   */\n      tag_214\n      jump\t// in\n    tag_341:\n        /* \"#utility.yul\":5376:5628   */\n      swap3\n      swap2\n      pop\n      pop\n      jump\t// out\n        /* \"#utility.yul\":5634:5752   */\n    tag_215:\n        /* \"#utility.yul\":5721:5745   */\n      tag_343\n        /* \"#utility.yul\":5739:5744   */\n      dup2\n        /* \"#utility.yul\":5721:5745   */\n      tag_199\n      jump\t// in\n    tag_343:\n        /* \"#utility.yul\":5716:5719   */\n      dup3\n        /* \"#utility.yul\":5709:5746   */\n      mstore\n        /* \"#utility.yul\":5634:5752   */\n      pop\n      pop\n      jump\t// out\n        /* \"#utility.yul\":5758:5876   */\n    tag_216:\n        /* \"#utility.yul\":5845:5869   */\n      tag_345\n        /* \"#utility.yul\":5863:5868   */\n      dup2\n        /* \"#utility.yul\":5845:5869   */\n      tag_210\n      jump\t// in\n    tag_345:\n        /* \"#utility.yul\":5840:5843   */\n      dup3\n        /* \"#utility.yul\":5833:5870   */\n      mstore\n        /* \"#utility.yul\":5758:5876   */\n      pop\n      pop\n      jump\t// out\n        /* \"#utility.yul\":5882:6324   */\n    tag_77:\n        /* \"#utility.yul\":6031:6035   */\n      0x00\n        /* \"#utility.yul\":6069:6071   */\n      0x60\n        /* \"#utility.yul\":6058:6067   */\n      dup3\n        /* \"#utility.yul\":6054:6072   */\n      add\n        /* \"#utility.yul\":6046:6072   */\n      swap1\n      pop\n        /* \"#utility.yul\":6082:6153   */\n      tag_347\n        /* \"#utility.yul\":6150:6151   */\n      0x00\n        /* \"#utility.yul\":6139:6148   */\n      dup4\n        /* \"#utility.yul\":6135:6152   */\n      add\n        /* \"#utility.yul\":6126:6132   */\n      dup7\n        /* \"#utility.yul\":6082:6153   */\n      tag_215\n      jump\t// in\n    tag_347:\n        /* \"#utility.yul\":6163:6235   */\n      tag_348\n        /* \"#utility.yul\":6231:6233   */\n      0x20\n        /* \"#utility.yul\":6220:6229   */\n      dup4\n        /* \"#utility.yul\":6216:6234   */\n      add\n        /* \"#utility.yul\":6207:6213   */\n      dup6\n        /* \"#utility.yul\":6163:6235   */\n      tag_216\n      jump\t// in\n    tag_348:\n        /* \"#utility.yul\":6245:6317   */\n      tag_349\n        /* \"#utility.yul\":6313:6315   */\n      0x40\n        /* \"#utility.yul\":6302:6311   */\n      dup4\n        /* \"#utility.yul\":6298:6316   */\n      add\n        /* \"#utility.yul\":6289:6295   */\n      dup5\n        /* \"#utility.yul\":6245:6317   */\n      tag_216\n      jump\t// in\n    tag_349:\n        /* \"#utility.yul\":5882:6324   */\n      swap5\n      swap4\n      pop\n      pop\n      pop\n      pop\n      jump\t// out\n        /* \"#utility.yul\":6330:6499   */\n    tag_217:\n        /* \"#utility.yul\":6414:6425   */\n      0x00\n        /* \"#utility.yul\":6448:6454   */\n      dup3\n        /* \"#utility.yul\":6443:6446   */\n      dup3\n        /* \"#utility.yul\":6436:6455   */\n      mstore\n        /* \"#utility.yul\":6488:6492   */\n      0x20\n        /* \"#utility.yul\":6483:6486   */\n      dup3\n        /* \"#utility.yul\":6479:6493   */\n      add\n        /* \"#utility.yul\":6464:6493   */\n      swap1\n      pop\n        /* \"#utility.yul\":6330:6499   */\n      swap3\n      swap2\n      pop\n      pop\n      jump\t// out\n        /* \"#utility.yul\":6505:6669   */\n    tag_218:\n        /* \"#utility.yul\":6645:6661   */\n      0x5265656e7472616e742063616c6c000000000000000000000000000000000000\n        /* \"#utility.yul\":6641:6642   */\n      0x00\n        /* \"#utility.yul\":6633:6639   */\n      dup3\n        /* \"#utility.yul\":6629:6643   */\n      add\n        /* \"#utility.yul\":6622:6662   */\n      mstore\n        /* \"#utility.yul\":6505:6669   */\n      pop\n      jump\t// out\n        /* \"#utility.yul\":6675:7041   */\n    tag_219:\n        /* \"#utility.yul\":6817:6820   */\n      0x00\n        /* \"#utility.yul\":6838:6905   */\n      tag_353\n        /* \"#utility.yul\":6902:6904   */\n      0x0e\n        /* \"#utility.yul\":6897:6900   */\n      dup4\n        /* \"#utility.yul\":6838:6905   */\n      tag_217\n      jump\t// in\n    tag_353:\n        /* \"#utility.yul\":6831:6905   */\n      swap2\n      pop\n        /* \"#utility.yul\":6914:7007   */\n      tag_354\n        /* \"#utility.yul\":7003:7006   */\n      dup3\n        /* \"#utility.yul\":6914:7007   */\n      tag_218\n      jump\t// in\n    tag_354:\n        /* \"#utility.yul\":7032:7034   */\n      0x20\n        /* \"#utility.yul\":7027:7030   */\n      dup3\n        /* \"#utility.yul\":7023:7035   */\n      add\n        /* \"#utility.yul\":7016:7035   */\n      swap1\n      pop\n        /* \"#utility.yul\":6675:7041   */\n      swap2\n      swap1\n      pop\n      jump\t// out\n        /* \"#utility.yul\":7047:7466   */\n    tag_86:\n        /* \"#utility.yul\":7213:7217   */\n      0x00\n        /* \"#utility.yul\":7251:7253   */\n      0x20\n        /* \"#utility.yul\":7240:7249   */\n      dup3\n        /* \"#utility.yul\":7236:7254   */\n      add\n        /* \"#utility.yul\":7228:7254   */\n      swap1\n      pop\n        /* \"#utility.yul\":7300:7309   */\n      dup2\n        /* \"#utility.yul\":7294:7298   */\n      dup2\n        /* \"#utility.yul\":7290:7310   */\n      sub\n        /* \"#utility.yul\":7286:7287   */\n      0x00\n        /* \"#utility.yul\":7275:7284   */\n      dup4\n        /* \"#utility.yul\":7271:7288   */\n      add\n        /* \"#utility.yul\":7264:7311   */\n      mstore\n        /* \"#utility.yul\":7328:7459   */\n      tag_356\n        /* \"#utility.yul\":7454:7458   */\n      dup2\n        /* \"#utility.yul\":7328:7459   */\n      tag_219\n      jump\t// in\n    tag_356:\n        /* \"#utility.yul\":7320:7459   */\n      swap1\n      pop\n        /* \"#utility.yul\":7047:7466   */\n      swap2\n      swap1\n      pop\n      jump\t// out\n        /* \"#utility.yul\":7472:7649   */\n    tag_220:\n        /* \"#utility.yul\":7612:7641   */\n      0x496e76616c6964206f7220696e616374697665206c697374696e670000000000\n        /* \"#utility.yul\":7608:7609   */\n      0x00\n        /* \"#utility.yul\":7600:7606   */\n      dup3\n        /* \"#utility.yul\":7596:7610   */\n      add\n        /* \"#utility.yul\":7589:7642   */\n      mstore\n        /* \"#utility.yul\":7472:7649   */\n      pop\n      jump\t// out\n        /* \"#utility.yul\":7655:8021   */\n    tag_221:\n        /* \"#utility.yul\":7797:7800   */\n      0x00\n        /* \"#utility.yul\":7818:7885   */\n      tag_359\n        /* \"#utility.yul\":7882:7884   */\n      0x1b\n        /* \"#utility.yul\":7877:7880   */\n      dup4\n        /* \"#utility.yul\":7818:7885   */\n      tag_217\n      jump\t// in\n    tag_359:\n        /* \"#utility.yul\":7811:7885   */\n      swap2\n      pop\n        /* \"#utility.yul\":7894:7987   */\n      tag_360\n        /* \"#utility.yul\":7983:7986   */\n      dup3\n        /* \"#utility.yul\":7894:7987   */\n      tag_220\n      jump\t// in\n    tag_360:\n        /* \"#utility.yul\":8012:8014   */\n      0x20\n        /* \"#utility.yul\":8007:8010   */\n      dup3\n        /* \"#utility.yul\":8003:8015   */\n      add\n        /* \"#utility.yul\":7996:8015   */\n      swap1\n      pop\n        /* \"#utility.yul\":7655:8021   */\n      swap2\n      swap1\n      pop\n      jump\t// out\n        /* \"#utility.yul\":8027:8446   */\n    tag_90:\n        /* \"#utility.yul\":8193:8197   */\n      0x00\n        /* \"#utility.yul\":8231:8233   */\n      0x20\n        /* \"#utility.yul\":8220:8229   */\n      dup3\n        /* \"#utility.yul\":8216:8234   */\n      add\n        /* \"#utility.yul\":8208:8234   */\n      swap1\n      pop\n        /* \"#utility.yul\":8280:8289   */\n      dup2\n        /* \"#utility.yul\":8274:8278   */\n      dup2\n        /* \"#utility.yul\":8270:8290   */\n      sub\n        /* \"#utility.yul\":8266:8267   */\n      0x00\n        /* \"#utility.yul\":8255:8264   */\n      dup4\n        /* \"#utility.yul\":8251:8268   */\n      add\n        /* \"#utility.yul\":8244:8291   */\n      mstore\n        /* \"#utility.yul\":8308:8439   */\n      tag_362\n        /* \"#utility.yul\":8434:8438   */\n      dup2\n        /* \"#utility.yul\":8308:8439   */\n      tag_221\n      jump\t// in\n    tag_362:\n        /* \"#utility.yul\":8300:8439   */\n      swap1\n      pop\n        /* \"#utility.yul\":8027:8446   */\n      swap2\n      swap1\n      pop\n      jump\t// out\n        /* \"#utility.yul\":8452:8626   */\n    tag_222:\n        /* \"#utility.yul\":8592:8618   */\n      0x496e636f7272656374207061796d656e7420616d6f756e740000000000000000\n        /* \"#utility.yul\":8588:8589   */\n      0x00\n        /* \"#utility.yul\":8580:8586   */\n      dup3\n        /* \"#utility.yul\":8576:8590   */\n      add\n        /* \"#utility.yul\":8569:8619   */\n      mstore\n        /* \"#utility.yul\":8452:8626   */\n      pop\n      jump\t// out\n        /* \"#utility.yul\":8632:8998   */\n    tag_223:\n        /* \"#utility.yul\":8774:8777   */\n      0x00\n        /* \"#utility.yul\":8795:8862   */\n      tag_365\n        /* \"#utility.yul\":8859:8861   */\n      0x18\n        /* \"#utility.yul\":8854:8857   */\n      dup4\n        /* \"#utility.yul\":8795:8862   */\n      tag_217\n      jump\t// in\n    tag_365:\n        /* \"#utility.yul\":8788:8862   */\n      swap2\n      pop\n        /* \"#utility.yul\":8871:8964   */\n      tag_366\n        /* \"#utility.yul\":8960:8963   */\n      dup3\n        /* \"#utility.yul\":8871:8964   */\n      tag_222\n      jump\t// in\n    tag_366:\n        /* \"#utility.yul\":8989:8991   */\n      0x20\n        /* \"#utility.yul\":8984:8987   */\n      dup3\n        /* \"#utility.yul\":8980:8992   */\n      add\n        /* \"#utility.yul\":8973:8992   */\n      swap1\n      pop\n        /* \"#utility.yul\":8632:8998   */\n      swap2\n      swap1\n      pop\n      jump\t// out\n        /* \"#utility.yul\":9004:9423   */\n    tag_93:\n        /* \"#utility.yul\":9170:9174   */\n      0x00\n        /* \"#utility.yul\":9208:9210   */\n      0x20\n        /* \"#utility.yul\":9197:9206   */\n      dup3\n        /* \"#utility.yul\":9193:9211   */\n      add\n        /* \"#utility.yul\":9185:9211   */\n      swap1\n      pop\n        /* \"#utility.yul\":9257:9266   */\n      dup2\n        /* \"#utility.yul\":9251:9255   */\n      dup2\n        /* \"#utility.yul\":9247:9267   */\n      sub\n        /* \"#utility.yul\":9243:9244   */\n      0x00\n        /* \"#utility.yul\":9232:9241   */\n      dup4\n        /* \"#utility.yul\":9228:9245   */\n      add\n        /* \"#utility.yul\":9221:9268   */\n      mstore\n        /* \"#utility.yul\":9285:9416   */\n      tag_368\n        /* \"#utility.yul\":9411:9415   */\n      dup2\n        /* \"#utility.yul\":9285:9416   */\n      tag_223\n      jump\t// in\n    tag_368:\n        /* \"#utility.yul\":9277:9416   */\n      swap1\n      pop\n        /* \"#utility.yul\":9004:9423   */\n      swap2\n      swap1\n      pop\n      jump\t// out\n        /* \"#utility.yul\":9429:9609   */\n    tag_224:\n        /* \"#utility.yul\":9477:9554   */\n      0x4e487b7100000000000000000000000000000000000000000000000000000000\n        /* \"#utility.yul\":9474:9475   */\n      0x00\n        /* \"#utility.yul\":9467:9555   */\n      mstore\n        /* \"#utility.yul\":9574:9578   */\n      0x11\n        /* \"#utility.yul\":9571:9572   */\n      0x04\n        /* \"#utility.yul\":9564:9579   */\n      mstore\n        /* \"#utility.yul\":9598:9602   */\n      0x24\n        /* \"#utility.yul\":9595:9596   */\n      0x00\n        /* \"#utility.yul\":9588:9603   */\n      revert\n        /* \"#utility.yul\":9615:10025   */\n    tag_95:\n        /* \"#utility.yul\":9655:9662   */\n      0x00\n        /* \"#utility.yul\":9678:9698   */\n      tag_371\n        /* \"#utility.yul\":9696:9697   */\n      dup3\n        /* \"#utility.yul\":9678:9698   */\n      tag_195\n      jump\t// in\n    tag_371:\n        /* \"#utility.yul\":9673:9698   */\n      swap2\n      pop\n        /* \"#utility.yul\":9712:9732   */\n      tag_372\n        /* \"#utility.yul\":9730:9731   */\n      dup4\n        /* \"#utility.yul\":9712:9732   */\n      tag_195\n      jump\t// in\n    tag_372:\n        /* \"#utility.yul\":9707:9732   */\n      swap3\n      pop\n        /* \"#utility.yul\":9767:9768   */\n      dup3\n        /* \"#utility.yul\":9764:9765   */\n      dup3\n        /* \"#utility.yul\":9760:9769   */\n      mul\n        /* \"#utility.yul\":9789:9819   */\n      tag_373\n        /* \"#utility.yul\":9807:9818   */\n      dup2\n        /* \"#utility.yul\":9789:9819   */\n      tag_195\n      jump\t// in\n    tag_373:\n        /* \"#utility.yul\":9778:9819   */\n      swap2\n      pop\n        /* \"#utility.yul\":9968:9969   */\n      dup3\n        /* \"#utility.yul\":9959:9966   */\n      dup3\n        /* \"#utility.yul\":9955:9970   */\n      div\n        /* \"#utility.yul\":9952:9953   */\n      dup5\n        /* \"#utility.yul\":9949:9971   */\n      eq\n        /* \"#utility.yul\":9929:9930   */\n      dup4\n        /* \"#utility.yul\":9922:9931   */\n      iszero\n        /* \"#utility.yul\":9902:9985   */\n      or\n        /* \"#utility.yul\":9879:10018   */\n      tag_374\n      jumpi\n        /* \"#utility.yul\":9998:10016   */\n      tag_375\n      tag_224\n      jump\t// in\n    tag_375:\n        /* \"#utility.yul\":9879:10018   */\n    tag_374:\n        /* \"#utility.yul\":9663:10025   */\n      pop\n        /* \"#utility.yul\":9615:10025   */\n      swap3\n      swap2\n      pop\n      pop\n      jump\t// out\n        /* \"#utility.yul\":10031:10211   */\n    tag_225:\n        /* \"#utility.yul\":10079:10156   */\n      0x4e487b7100000000000000000000000000000000000000000000000000000000\n        /* \"#utility.yul\":10076:10077   */\n      0x00\n        /* \"#utility.yul\":10069:10157   */\n      mstore\n        /* \"#utility.yul\":10176:10180   */\n      0x12\n        /* \"#utility.yul\":10173:10174   */\n      0x04\n        /* \"#utility.yul\":10166:10181   */\n      mstore\n        /* \"#utility.yul\":10200:10204   */\n      0x24\n        /* \"#utility.yul\":10197:10198   */\n      0x00\n        /* \"#utility.yul\":10190:10205   */\n      revert\n        /* \"#utility.yul\":10217:10402   */\n    tag_97:\n        /* \"#utility.yul\":10257:10258   */\n      0x00\n        /* \"#utility.yul\":10274:10294   */\n      tag_378\n        /* \"#utility.yul\":10292:10293   */\n      dup3\n        /* \"#utility.yul\":10274:10294   */\n      tag_195\n      jump\t// in\n    tag_378:\n        /* \"#utility.yul\":10269:10294   */\n      swap2\n      pop\n        /* \"#utility.yul\":10308:10328   */\n      tag_379\n        /* \"#utility.yul\":10326:10327   */\n      dup4\n        /* \"#utility.yul\":10308:10328   */\n      tag_195\n      jump\t// in\n    tag_379:\n        /* \"#utility.yul\":10303:10328   */\n      swap3\n      pop\n        /* \"#utility.yul\":10347:10348   */\n      dup3\n        /* \"#utility.yul\":10337:10372   */\n      tag_380\n      jumpi\n        /* \"#utility.yul\":10352:10370   */\n      tag_381\n      tag_225\n      jump\t// in\n    tag_381:\n        /* \"#utility.yul\":10337:10372   */\n    tag_380:\n        /* \"#utility.yul\":10394:10395   */\n      dup3\n        /* \"#utility.yul\":10391:10392   */\n      dup3\n        /* \"#utility.yul\":10387:10396   */\n      div\n        /* \"#utility.yul\":10382:10396   */\n      swap1\n      pop\n        /* \"#utility.yul\":10217:10402   */\n      swap3\n      swap2\n      pop\n      pop\n      jump\t// out\n        /* \"#utility.yul\":10408:10602   */\n    tag_99:\n        /* \"#utility.yul\":10448:10452   */\n      0x00\n        /* \"#utility.yul\":10468:10488   */\n      tag_383\n        /* \"#utility.yul\":10486:10487   */\n      dup3\n        /* \"#utility.yul\":10468:10488   */\n      tag_195\n      jump\t// in\n    tag_383:\n        /* \"#utility.yul\":10463:10488   */\n      swap2\n      pop\n        /* \"#utility.yul\":10502:10522   */\n      tag_384\n        /* \"#utility.yul\":10520:10521   */\n      dup4\n        /* \"#utility.yul\":10502:10522   */\n      tag_195\n      jump\t// in\n    tag_384:\n        /* \"#utility.yul\":10497:10522   */\n      swap3\n      pop\n        /* \"#utility.yul\":10546:10547   */\n      dup3\n        /* \"#utility.yul\":10543:10544   */\n      dup3\n        /* \"#utility.yul\":10539:10548   */\n      sub\n        /* \"#utility.yul\":10531:10548   */\n      swap1\n      pop\n        /* \"#utility.yul\":10570:10571   */\n      dup2\n        /* \"#utility.yul\":10564:10568   */\n      dup2\n        /* \"#utility.yul\":10561:10572   */\n      gt\n        /* \"#utility.yul\":10558:10595   */\n      iszero\n      tag_385\n      jumpi\n        /* \"#utility.yul\":10575:10593   */\n      tag_386\n      tag_224\n      jump\t// in\n    tag_386:\n        /* \"#utility.yul\":10558:10595   */\n    tag_385:\n        /* \"#utility.yul\":10408:10602   */\n      swap3\n      swap2\n      pop\n      pop\n      jump\t// out\n        /* \"#utility.yul\":10608:10750   */\n    tag_226:\n        /* \"#utility.yul\":10658:10667   */\n      0x00\n        /* \"#utility.yul\":10691:10744   */\n      tag_388\n        /* \"#utility.yul\":10709:10743   */\n      tag_389\n        /* \"#utility.yul\":10718:10742   */\n      tag_390\n        /* \"#utility.yul\":10736:10741   */\n      dup5\n        /* \"#utility.yul\":10718:10742   */\n      tag_210\n      jump\t// in\n    tag_390:\n        /* \"#utility.yul\":10709:10743   */\n      tag_203\n      jump\t// in\n    tag_389:\n        /* \"#utility.yul\":10691:10744   */\n      tag_195\n      jump\t// in\n    tag_388:\n        /* \"#utility.yul\":10678:10744   */\n      swap1\n      pop\n        /* \"#utility.yul\":10608:10750   */\n      swap2\n      swap1\n      pop\n      jump\t// out\n        /* \"#utility.yul\":10756:10887   */\n    tag_227:\n        /* \"#utility.yul\":10843:10880   */\n      tag_392\n        /* \"#utility.yul\":10874:10879   */\n      dup2\n        /* \"#utility.yul\":10843:10880   */\n      tag_226\n      jump\t// in\n    tag_392:\n        /* \"#utility.yul\":10838:10841   */\n      dup3\n        /* \"#utility.yul\":10831:10881   */\n      mstore\n        /* \"#utility.yul\":10756:10887   */\n      pop\n      pop\n      jump\t// out\n        /* \"#utility.yul\":10893:11335   */\n    tag_101:\n        /* \"#utility.yul\":11042:11046   */\n      0x00\n        /* \"#utility.yul\":11080:11082   */\n      0x60\n        /* \"#utility.yul\":11069:11078   */\n      dup3\n        /* \"#utility.yul\":11065:11083   */\n      add\n        /* \"#utility.yul\":11057:11083   */\n      swap1\n      pop\n        /* \"#utility.yul\":11093:11164   */\n      tag_394\n        /* \"#utility.yul\":11161:11162   */\n      0x00\n        /* \"#utility.yul\":11150:11159   */\n      dup4\n        /* \"#utility.yul\":11146:11163   */\n      add\n        /* \"#utility.yul\":11137:11143   */\n      dup7\n        /* \"#utility.yul\":11093:11164   */\n      tag_215\n      jump\t// in\n    tag_394:\n        /* \"#utility.yul\":11174:11246   */\n      tag_395\n        /* \"#utility.yul\":11242:11244   */\n      0x20\n        /* \"#utility.yul\":11231:11240   */\n      dup4\n        /* \"#utility.yul\":11227:11245   */\n      add\n        /* \"#utility.yul\":11218:11224   */\n      dup6\n        /* \"#utility.yul\":11174:11246   */\n      tag_215\n      jump\t// in\n    tag_395:\n        /* \"#utility.yul\":11256:11328   */\n      tag_396\n        /* \"#utility.yul\":11324:11326   */\n      0x40\n        /* \"#utility.yul\":11313:11322   */\n      dup4\n        /* \"#utility.yul\":11309:11327   */\n      add\n        /* \"#utility.yul\":11300:11306   */\n      dup5\n        /* \"#utility.yul\":11256:11328   */\n      tag_227\n      jump\t// in\n    tag_396:\n        /* \"#utility.yul\":10893:11335   */\n      swap5\n      swap4\n      pop\n      pop\n      pop\n      pop\n      jump\t// out\n        /* \"#utility.yul\":11341:11532   */\n    tag_106:\n        /* \"#utility.yul\":11381:11384   */\n      0x00\n        /* \"#utility.yul\":11400:11420   */\n      tag_398\n        /* \"#utility.yul\":11418:11419   */\n      dup3\n        /* \"#utility.yul\":11400:11420   */\n      tag_195\n      jump\t// in\n    tag_398:\n        /* \"#utility.yul\":11395:11420   */\n      swap2\n      pop\n        /* \"#utility.yul\":11434:11454   */\n      tag_399\n        /* \"#utility.yul\":11452:11453   */\n      dup4\n        /* \"#utility.yul\":11434:11454   */\n      tag_195\n      jump\t// in\n    tag_399:\n        /* \"#utility.yul\":11429:11454   */\n      swap3\n      pop\n        /* \"#utility.yul\":11477:11478   */\n      dup3\n        /* \"#utility.yul\":11474:11475   */\n      dup3\n        /* \"#utility.yul\":11470:11479   */\n      add\n        /* \"#utility.yul\":11463:11479   */\n      swap1\n      pop\n        /* \"#utility.yul\":11498:11501   */\n      dup1\n        /* \"#utility.yul\":11495:11496   */\n      dup3\n        /* \"#utility.yul\":11492:11502   */\n      gt\n        /* \"#utility.yul\":11489:11525   */\n      iszero\n      tag_400\n      jumpi\n        /* \"#utility.yul\":11505:11523   */\n      tag_401\n      tag_224\n      jump\t// in\n    tag_401:\n        /* \"#utility.yul\":11489:11525   */\n    tag_400:\n        /* \"#utility.yul\":11341:11532   */\n      swap3\n      swap2\n      pop\n      pop\n      jump\t// out\n        /* \"#utility.yul\":11538:11980   */\n    tag_109:\n        /* \"#utility.yul\":11687:11691   */\n      0x00\n        /* \"#utility.yul\":11725:11727   */\n      0x60\n        /* \"#utility.yul\":11714:11723   */\n      dup3\n        /* \"#utility.yul\":11710:11728   */\n      add\n        /* \"#utility.yul\":11702:11728   */\n      swap1\n      pop\n        /* \"#utility.yul\":11738:11809   */\n      tag_403\n        /* \"#utility.yul\":11806:11807   */\n      0x00\n        /* \"#utility.yul\":11795:11804   */\n      dup4\n        /* \"#utility.yul\":11791:11808   */\n      add\n        /* \"#utility.yul\":11782:11788   */\n      dup7\n        /* \"#utility.yul\":11738:11809   */\n      tag_227\n      jump\t// in\n    tag_403:\n        /* \"#utility.yul\":11819:11891   */\n      tag_404\n        /* \"#utility.yul\":11887:11889   */\n      0x20\n        /* \"#utility.yul\":11876:11885   */\n      dup4\n        /* \"#utility.yul\":11872:11890   */\n      add\n        /* \"#utility.yul\":11863:11869   */\n      dup6\n        /* \"#utility.yul\":11819:11891   */\n      tag_227\n      jump\t// in\n    tag_404:\n        /* \"#utility.yul\":11901:11973   */\n      tag_405\n        /* \"#utility.yul\":11969:11971   */\n      0x40\n        /* \"#utility.yul\":11958:11967   */\n      dup4\n        /* \"#utility.yul\":11954:11972   */\n      add\n        /* \"#utility.yul\":11945:11951   */\n      dup5\n        /* \"#utility.yul\":11901:11973   */\n      tag_202\n      jump\t// in\n    tag_405:\n        /* \"#utility.yul\":11538:11980   */\n      swap5\n      swap4\n      pop\n      pop\n      pop\n      pop\n      jump\t// out\n        /* \"#utility.yul\":11986:12156   */\n    tag_228:\n        /* \"#utility.yul\":12126:12148   */\n      0x4e6f2066756e647320746f207769746864726177000000000000000000000000\n        /* \"#utility.yul\":12122:12123   */\n      0x00\n        /* \"#utility.yul\":12114:12120   */\n      dup3\n        /* \"#utility.yul\":12110:12124   */\n      add\n        /* \"#utility.yul\":12103:12149   */\n      mstore\n        /* \"#utility.yul\":11986:12156   */\n      pop\n      jump\t// out\n        /* \"#utility.yul\":12162:12528   */\n    tag_229:\n        /* \"#utility.yul\":12304:12307   */\n      0x00\n        /* \"#utility.yul\":12325:12392   */\n      tag_408\n        /* \"#utility.yul\":12389:12391   */\n      0x14\n        /* \"#utility.yul\":12384:12387   */\n      dup4\n        /* \"#utility.yul\":12325:12392   */\n      tag_217\n      jump\t// in\n    tag_408:\n        /* \"#utility.yul\":12318:12392   */\n      swap2\n      pop\n        /* \"#utility.yul\":12401:12494   */\n      tag_409\n        /* \"#utility.yul\":12490:12493   */\n      dup3\n        /* \"#utility.yul\":12401:12494   */\n      tag_228\n      jump\t// in\n    tag_409:\n        /* \"#utility.yul\":12519:12521   */\n      0x20\n        /* \"#utility.yul\":12514:12517   */\n      dup3\n        /* \"#utility.yul\":12510:12522   */\n      add\n        /* \"#utility.yul\":12503:12522   */\n      swap1\n      pop\n        /* \"#utility.yul\":12162:12528   */\n      swap2\n      swap1\n      pop\n      jump\t// out\n        /* \"#utility.yul\":12534:12953   */\n    tag_116:\n        /* \"#utility.yul\":12700:12704   */\n      0x00\n        /* \"#utility.yul\":12738:12740   */\n      0x20\n        /* \"#utility.yul\":12727:12736   */\n      dup3\n        /* \"#utility.yul\":12723:12741   */\n      add\n        /* \"#utility.yul\":12715:12741   */\n      swap1\n      pop\n        /* \"#utility.yul\":12787:12796   */\n      dup2\n        /* \"#utility.yul\":12781:12785   */\n      dup2\n        /* \"#utility.yul\":12777:12797   */\n      sub\n        /* \"#utility.yul\":12773:12774   */\n      0x00\n        /* \"#utility.yul\":12762:12771   */\n      dup4\n        /* \"#utility.yul\":12758:12775   */\n      add\n        /* \"#utility.yul\":12751:12798   */\n      mstore\n        /* \"#utility.yul\":12815:12946   */\n      tag_411\n        /* \"#utility.yul\":12941:12945   */\n      dup2\n        /* \"#utility.yul\":12815:12946   */\n      tag_229\n      jump\t// in\n    tag_411:\n        /* \"#utility.yul\":12807:12946   */\n      swap1\n      pop\n        /* \"#utility.yul\":12534:12953   */\n      swap2\n      swap1\n      pop\n      jump\t// out\n        /* \"#utility.yul\":12959:13106   */\n    tag_230:\n        /* \"#utility.yul\":13060:13071   */\n      0x00\n        /* \"#utility.yul\":13097:13100   */\n      dup2\n        /* \"#utility.yul\":13082:13100   */\n      swap1\n      pop\n        /* \"#utility.yul\":12959:13106   */\n      swap3\n      swap2\n      pop\n      pop\n      jump\t// out\n        /* \"#utility.yul\":13112:13226   */\n    tag_231:\n      pop\n      jump\t// out\n        /* \"#utility.yul\":13232:13630   */\n    tag_232:\n        /* \"#utility.yul\":13391:13394   */\n      0x00\n        /* \"#utility.yul\":13412:13495   */\n      tag_415\n        /* \"#utility.yul\":13493:13494   */\n      0x00\n        /* \"#utility.yul\":13488:13491   */\n      dup4\n        /* \"#utility.yul\":13412:13495   */\n      tag_230\n      jump\t// in\n    tag_415:\n        /* \"#utility.yul\":13405:13495   */\n      swap2\n      pop\n        /* \"#utility.yul\":13504:13597   */\n      tag_416\n        /* \"#utility.yul\":13593:13596   */\n      dup3\n        /* \"#utility.yul\":13504:13597   */\n      tag_231\n      jump\t// in\n    tag_416:\n        /* \"#utility.yul\":13622:13623   */\n      0x00\n        /* \"#utility.yul\":13617:13620   */\n      dup3\n        /* \"#utility.yul\":13613:13624   */\n      add\n        /* \"#utility.yul\":13606:13624   */\n      swap1\n      pop\n        /* \"#utility.yul\":13232:13630   */\n      swap2\n      swap1\n      pop\n      jump\t// out\n        /* \"#utility.yul\":13636:14015   */\n    tag_118:\n        /* \"#utility.yul\":13820:13823   */\n      0x00\n        /* \"#utility.yul\":13842:13989   */\n      tag_418\n        /* \"#utility.yul\":13985:13988   */\n      dup3\n        /* \"#utility.yul\":13842:13989   */\n      tag_232\n      jump\t// in\n    tag_418:\n        /* \"#utility.yul\":13835:13989   */\n      swap2\n      pop\n        /* \"#utility.yul\":14006:14009   */\n      dup2\n        /* \"#utility.yul\":13999:14009   */\n      swap1\n      pop\n        /* \"#utility.yul\":13636:14015   */\n      swap2\n      swap1\n      pop\n      jump\t// out\n        /* \"#utility.yul\":14021:14186   */\n    tag_233:\n        /* \"#utility.yul\":14161:14178   */\n      0x5769746864726177206661696c65640000000000000000000000000000000000\n        /* \"#utility.yul\":14157:14158   */\n      0x00\n        /* \"#utility.yul\":14149:14155   */\n      dup3\n        /* \"#utility.yul\":14145:14159   */\n      add\n        /* \"#utility.yul\":14138:14179   */\n      mstore\n        /* \"#utility.yul\":14021:14186   */\n      pop\n      jump\t// out\n        /* \"#utility.yul\":14192:14558   */\n    tag_234:\n        /* \"#utility.yul\":14334:14337   */\n      0x00\n        /* \"#utility.yul\":14355:14422   */\n      tag_421\n        /* \"#utility.yul\":14419:14421   */\n      0x0f\n        /* \"#utility.yul\":14414:14417   */\n      dup4\n        /* \"#utility.yul\":14355:14422   */\n      tag_217\n      jump\t// in\n    tag_421:\n        /* \"#utility.yul\":14348:14422   */\n      swap2\n      pop\n        /* \"#utility.yul\":14431:14524   */\n      tag_422\n        /* \"#utility.yul\":14520:14523   */\n      dup3\n        /* \"#utility.yul\":14431:14524   */\n      tag_233\n      jump\t// in\n    tag_422:\n        /* \"#utility.yul\":14549:14551   */\n      0x20\n        /* \"#utility.yul\":14544:14547   */\n      dup3\n        /* \"#utility.yul\":14540:14552   */\n      add\n        /* \"#utility.yul\":14533:14552   */\n      swap1\n      pop\n        /* \"#utility.yul\":14192:14558   */\n      swap2\n      swap1\n      pop\n      jump\t// out\n        /* \"#utility.yul\":14564:14983   */\n    tag_124:\n        /* \"#utility.yul\":14730:14734   */\n      0x00\n        /* \"#utility.yul\":14768:14770   */\n      0x20\n        /* \"#utility.yul\":14757:14766   */\n      dup3\n        /* \"#utility.yul\":14753:14771   */\n      add\n        /* \"#utility.yul\":14745:14771   */\n      swap1\n      pop\n        /* \"#utility.yul\":14817:14826   */\n      dup2\n        /* \"#utility.yul\":14811:14815   */\n      dup2\n        /* \"#utility.yul\":14807:14827   */\n      sub\n        /* \"#utility.yul\":14803:14804   */\n      0x00\n        /* \"#utility.yul\":14792:14801   */\n      dup4\n        /* \"#utility.yul\":14788:14805   */\n      add\n        /* \"#utility.yul\":14781:14828   */\n      mstore\n        /* \"#utility.yul\":14845:14976   */\n      tag_424\n        /* \"#utility.yul\":14971:14975   */\n      dup2\n        /* \"#utility.yul\":14845:14976   */\n      tag_234\n      jump\t// in\n    tag_424:\n        /* \"#utility.yul\":14837:14976   */\n      swap1\n      pop\n        /* \"#utility.yul\":14564:14983   */\n      swap2\n      swap1\n      pop\n      jump\t// out\n        /* \"#utility.yul\":14989:15321   */\n    tag_128:\n        /* \"#utility.yul\":15110:15114   */\n      0x00\n        /* \"#utility.yul\":15148:15150   */\n      0x40\n        /* \"#utility.yul\":15137:15146   */\n      dup3\n        /* \"#utility.yul\":15133:15151   */\n      add\n        /* \"#utility.yul\":15125:15151   */\n      swap1\n      pop\n        /* \"#utility.yul\":15161:15232   */\n      tag_426\n        /* \"#utility.yul\":15229:15230   */\n      0x00\n        /* \"#utility.yul\":15218:15227   */\n      dup4\n        /* \"#utility.yul\":15214:15231   */\n      add\n        /* \"#utility.yul\":15205:15211   */\n      dup6\n        /* \"#utility.yul\":15161:15232   */\n      tag_215\n      jump\t// in\n    tag_426:\n        /* \"#utility.yul\":15242:15314   */\n      tag_427\n        /* \"#utility.yul\":15310:15312   */\n      0x20\n        /* \"#utility.yul\":15299:15308   */\n      dup4\n        /* \"#utility.yul\":15295:15313   */\n      add\n        /* \"#utility.yul\":15286:15292   */\n      dup5\n        /* \"#utility.yul\":15242:15314   */\n      tag_202\n      jump\t// in\n    tag_427:\n        /* \"#utility.yul\":14989:15321   */\n      swap4\n      swap3\n      pop\n      pop\n      pop\n      jump\t// out\n        /* \"#utility.yul\":15327:15470   */\n    tag_235:\n        /* \"#utility.yul\":15384:15389   */\n      0x00\n        /* \"#utility.yul\":15415:15421   */\n      dup2\n        /* \"#utility.yul\":15409:15422   */\n      mload\n        /* \"#utility.yul\":15400:15422   */\n      swap1\n      pop\n        /* \"#utility.yul\":15431:15464   */\n      tag_429\n        /* \"#utility.yul\":15458:15463   */\n      dup2\n        /* \"#utility.yul\":15431:15464   */\n      tag_196\n      jump\t// in\n    tag_429:\n        /* \"#utility.yul\":15327:15470   */\n      swap3\n      swap2\n      pop\n      pop\n      jump\t// out\n        /* \"#utility.yul\":15476:15827   */\n    tag_132:\n        /* \"#utility.yul\":15546:15552   */\n      0x00\n        /* \"#utility.yul\":15595:15597   */\n      0x20\n        /* \"#utility.yul\":15583:15592   */\n      dup3\n        /* \"#utility.yul\":15574:15581   */\n      dup5\n        /* \"#utility.yul\":15570:15593   */\n      sub\n        /* \"#utility.yul\":15566:15598   */\n      slt\n        /* \"#utility.yul\":15563:15682   */\n      iszero\n      tag_431\n      jumpi\n        /* \"#utility.yul\":15601:15680   */\n      tag_432\n      tag_193\n      jump\t// in\n    tag_432:\n        /* \"#utility.yul\":15563:15682   */\n    tag_431:\n        /* \"#utility.yul\":15721:15722   */\n      0x00\n        /* \"#utility.yul\":15746:15810   */\n      tag_433\n        /* \"#utility.yul\":15802:15809   */\n      dup5\n        /* \"#utility.yul\":15793:15799   */\n      dup3\n        /* \"#utility.yul\":15782:15791   */\n      dup6\n        /* \"#utility.yul\":15778:15800   */\n      add\n        /* \"#utility.yul\":15746:15810   */\n      tag_235\n      jump\t// in\n    tag_433:\n        /* \"#utility.yul\":15736:15810   */\n      swap2\n      pop\n        /* \"#utility.yul\":15692:15820   */\n      pop\n        /* \"#utility.yul\":15476:15827   */\n      swap3\n      swap2\n      pop\n      pop\n      jump\t// out\n        /* \"#utility.yul\":15833:16005   */\n    tag_236:\n        /* \"#utility.yul\":15973:15997   */\n      0x596f7520617265206e6f74207468652073656c6c657200000000000000000000\n        /* \"#utility.yul\":15969:15970   */\n      0x00\n        /* \"#utility.yul\":15961:15967   */\n      dup3\n        /* \"#utility.yul\":15957:15971   */\n      add\n        /* \"#utility.yul\":15950:15998   */\n      mstore\n        /* \"#utility.yul\":15833:16005   */\n      pop\n      jump\t// out\n        /* \"#utility.yul\":16011:16377   */\n    tag_237:\n        /* \"#utility.yul\":16153:16156   */\n      0x00\n        /* \"#utility.yul\":16174:16241   */\n      tag_436\n        /* \"#utility.yul\":16238:16240   */\n      0x16\n        /* \"#utility.yul\":16233:16236   */\n      dup4\n        /* \"#utility.yul\":16174:16241   */\n      tag_217\n      jump\t// in\n    tag_436:\n        /* \"#utility.yul\":16167:16241   */\n      swap2\n      pop\n        /* \"#utility.yul\":16250:16343   */\n      tag_437\n        /* \"#utility.yul\":16339:16342   */\n      dup3\n        /* \"#utility.yul\":16250:16343   */\n      tag_236\n      jump\t// in\n    tag_437:\n        /* \"#utility.yul\":16368:16370   */\n      0x20\n        /* \"#utility.yul\":16363:16366   */\n      dup3\n        /* \"#utility.yul\":16359:16371   */\n      add\n        /* \"#utility.yul\":16352:16371   */\n      swap1\n      pop\n        /* \"#utility.yul\":16011:16377   */\n      swap2\n      swap1\n      pop\n      jump\t// out\n        /* \"#utility.yul\":16383:16802   */\n    tag_138:\n        /* \"#utility.yul\":16549:16553   */\n      0x00\n        /* \"#utility.yul\":16587:16589   */\n      0x20\n        /* \"#utility.yul\":16576:16585   */\n      dup3\n        /* \"#utility.yul\":16572:16590   */\n      add\n        /* \"#utility.yul\":16564:16590   */\n      swap1\n      pop\n        /* \"#utility.yul\":16636:16645   */\n      dup2\n        /* \"#utility.yul\":16630:16634   */\n      dup2\n        /* \"#utility.yul\":16626:16646   */\n      sub\n        /* \"#utility.yul\":16622:16623   */\n      0x00\n        /* \"#utility.yul\":16611:16620   */\n      dup4\n        /* \"#utility.yul\":16607:16624   */\n      add\n        /* \"#utility.yul\":16600:16647   */\n      mstore\n        /* \"#utility.yul\":16664:16795   */\n      tag_439\n        /* \"#utility.yul\":16790:16794   */\n      dup2\n        /* \"#utility.yul\":16664:16795   */\n      tag_237\n      jump\t// in\n    tag_439:\n        /* \"#utility.yul\":16656:16795   */\n      swap1\n      pop\n        /* \"#utility.yul\":16383:16802   */\n      swap2\n      swap1\n      pop\n      jump\t// out\n        /* \"#utility.yul\":16808:17033   */\n    tag_238:\n        /* \"#utility.yul\":16948:16982   */\n      0x4f6e6c7920746865206f776e65722063616e20706572666f726d207468697320\n        /* \"#utility.yul\":16944:16945   */\n      0x00\n        /* \"#utility.yul\":16936:16942   */\n      dup3\n        /* \"#utility.yul\":16932:16946   */\n      add\n        /* \"#utility.yul\":16925:16983   */\n      mstore\n        /* \"#utility.yul\":17017:17025   */\n      0x616374696f6e0000000000000000000000000000000000000000000000000000\n        /* \"#utility.yul\":17012:17014   */\n      0x20\n        /* \"#utility.yul\":17004:17010   */\n      dup3\n        /* \"#utility.yul\":17000:17015   */\n      add\n        /* \"#utility.yul\":16993:17026   */\n      mstore\n        /* \"#utility.yul\":16808:17033   */\n      pop\n      jump\t// out\n        /* \"#utility.yul\":17039:17405   */\n    tag_239:\n        /* \"#utility.yul\":17181:17184   */\n      0x00\n        /* \"#utility.yul\":17202:17269   */\n      tag_442\n        /* \"#utility.yul\":17266:17268   */\n      0x26\n        /* \"#utility.yul\":17261:17264   */\n      dup4\n        /* \"#utility.yul\":17202:17269   */\n      tag_217\n      jump\t// in\n    tag_442:\n        /* \"#utility.yul\":17195:17269   */\n      swap2\n      pop\n        /* \"#utility.yul\":17278:17371   */\n      tag_443\n        /* \"#utility.yul\":17367:17370   */\n      dup3\n        /* \"#utility.yul\":17278:17371   */\n      tag_238\n      jump\t// in\n    tag_443:\n        /* \"#utility.yul\":17396:17398   */\n      0x40\n        /* \"#utility.yul\":17391:17394   */\n      dup3\n        /* \"#utility.yul\":17387:17399   */\n      add\n        /* \"#utility.yul\":17380:17399   */\n      swap1\n      pop\n        /* \"#utility.yul\":17039:17405   */\n      swap2\n      swap1\n      pop\n      jump\t// out\n        /* \"#utility.yul\":17411:17830   */\n    tag_142:\n        /* \"#utility.yul\":17577:17581   */\n      0x00\n        /* \"#utility.yul\":17615:17617   */\n      0x20\n        /* \"#utility.yul\":17604:17613   */\n      dup3\n        /* \"#utility.yul\":17600:17618   */\n      add\n        /* \"#utility.yul\":17592:17618   */\n      swap1\n      pop\n        /* \"#utility.yul\":17664:17673   */\n      dup2\n        /* \"#utility.yul\":17658:17662   */\n      dup2\n        /* \"#utility.yul\":17654:17674   */\n      sub\n        /* \"#utility.yul\":17650:17651   */\n      0x00\n        /* \"#utility.yul\":17639:17648   */\n      dup4\n        /* \"#utility.yul\":17635:17652   */\n      add\n        /* \"#utility.yul\":17628:17675   */\n      mstore\n        /* \"#utility.yul\":17692:17823   */\n      tag_445\n        /* \"#utility.yul\":17818:17822   */\n      dup2\n        /* \"#utility.yul\":17692:17823   */\n      tag_239\n      jump\t// in\n    tag_445:\n        /* \"#utility.yul\":17684:17823   */\n      swap1\n      pop\n        /* \"#utility.yul\":17411:17830   */\n      swap2\n      swap1\n      pop\n      jump\t// out\n        /* \"#utility.yul\":17836:18015   */\n    tag_240:\n        /* \"#utility.yul\":17976:18007   */\n      0x436f6d6d697373696f6e2063616e6e6f74206578636565642031303025000000\n        /* \"#utility.yul\":17972:17973   */\n      0x00\n        /* \"#utility.yul\":17964:17970   */\n      dup3\n        /* \"#utility.yul\":17960:17974   */\n      add\n        /* \"#utility.yul\":17953:18008   */\n      mstore\n        /* \"#utility.yul\":17836:18015   */\n      pop\n      jump\t// out\n        /* \"#utility.yul\":18021:18387   */\n    tag_241:\n        /* \"#utility.yul\":18163:18166   */\n      0x00\n        /* \"#utility.yul\":18184:18251   */\n      tag_448\n        /* \"#utility.yul\":18248:18250   */\n      0x1d\n        /* \"#utility.yul\":18243:18246   */\n      dup4\n        /* \"#utility.yul\":18184:18251   */\n      tag_217\n      jump\t// in\n    tag_448:\n        /* \"#utility.yul\":18177:18251   */\n      swap2\n      pop\n        /* \"#utility.yul\":18260:18353   */\n      tag_449\n        /* \"#utility.yul\":18349:18352   */\n      dup3\n        /* \"#utility.yul\":18260:18353   */\n      tag_240\n      jump\t// in\n    tag_449:\n        /* \"#utility.yul\":18378:18380   */\n      0x20\n        /* \"#utility.yul\":18373:18376   */\n      dup3\n        /* \"#utility.yul\":18369:18381   */\n      add\n        /* \"#utility.yul\":18362:18381   */\n      swap1\n      pop\n        /* \"#utility.yul\":18021:18387   */\n      swap2\n      swap1\n      pop\n      jump\t// out\n        /* \"#utility.yul\":18393:18812   */\n    tag_146:\n        /* \"#utility.yul\":18559:18563   */\n      0x00\n        /* \"#utility.yul\":18597:18599   */\n      0x20\n        /* \"#utility.yul\":18586:18595   */\n      dup3\n        /* \"#utility.yul\":18582:18600   */\n      add\n        /* \"#utility.yul\":18574:18600   */\n      swap1\n      pop\n        /* \"#utility.yul\":18646:18655   */\n      dup2\n        /* \"#utility.yul\":18640:18644   */\n      dup2\n        /* \"#utility.yul\":18636:18656   */\n      sub\n        /* \"#utility.yul\":18632:18633   */\n      0x00\n        /* \"#utility.yul\":18621:18630   */\n      dup4\n        /* \"#utility.yul\":18617:18634   */\n      add\n        /* \"#utility.yul\":18610:18657   */\n      mstore\n        /* \"#utility.yul\":18674:18805   */\n      tag_451\n        /* \"#utility.yul\":18800:18804   */\n      dup2\n        /* \"#utility.yul\":18674:18805   */\n      tag_241\n      jump\t// in\n    tag_451:\n        /* \"#utility.yul\":18666:18805   */\n      swap1\n      pop\n        /* \"#utility.yul\":18393:18812   */\n      swap2\n      swap1\n      pop\n      jump\t// out\n        /* \"#utility.yul\":18818:18996   */\n    tag_242:\n        /* \"#utility.yul\":18958:18988   */\n      0x5072696365206d7573742062652067726561746572207468616e203000000000\n        /* \"#utility.yul\":18954:18955   */\n      0x00\n        /* \"#utility.yul\":18946:18952   */\n      dup3\n        /* \"#utility.yul\":18942:18956   */\n      add\n        /* \"#utility.yul\":18935:18989   */\n      mstore\n        /* \"#utility.yul\":18818:18996   */\n      pop\n      jump\t// out\n        /* \"#utility.yul\":19002:19368   */\n    tag_243:\n        /* \"#utility.yul\":19144:19147   */\n      0x00\n        /* \"#utility.yul\":19165:19232   */\n      tag_454\n        /* \"#utility.yul\":19229:19231   */\n      0x1c\n        /* \"#utility.yul\":19224:19227   */\n      dup4\n        /* \"#utility.yul\":19165:19232   */\n      tag_217\n      jump\t// in\n    tag_454:\n        /* \"#utility.yul\":19158:19232   */\n      swap2\n      pop\n        /* \"#utility.yul\":19241:19334   */\n      tag_455\n        /* \"#utility.yul\":19330:19333   */\n      dup3\n        /* \"#utility.yul\":19241:19334   */\n      tag_242\n      jump\t// in\n    tag_455:\n        /* \"#utility.yul\":19359:19361   */\n      0x20\n        /* \"#utility.yul\":19354:19357   */\n      dup3\n        /* \"#utility.yul\":19350:19362   */\n      add\n        /* \"#utility.yul\":19343:19362   */\n      swap1\n      pop\n        /* \"#utility.yul\":19002:19368   */\n      swap2\n      swap1\n      pop\n      jump\t// out\n        /* \"#utility.yul\":19374:19793   */\n    tag_152:\n        /* \"#utility.yul\":19540:19544   */\n      0x00\n        /* \"#utility.yul\":19578:19580   */\n      0x20\n        /* \"#utility.yul\":19567:19576   */\n      dup3\n        /* \"#utility.yul\":19563:19581   */\n      add\n        /* \"#utility.yul\":19555:19581   */\n      swap1\n      pop\n        /* \"#utility.yul\":19627:19636   */\n      dup2\n        /* \"#utility.yul\":19621:19625   */\n      dup2\n        /* \"#utility.yul\":19617:19637   */\n      sub\n        /* \"#utility.yul\":19613:19614   */\n      0x00\n        /* \"#utility.yul\":19602:19611   */\n      dup4\n        /* \"#utility.yul\":19598:19615   */\n      add\n        /* \"#utility.yul\":19591:19638   */\n      mstore\n        /* \"#utility.yul\":19655:19786   */\n      tag_457\n        /* \"#utility.yul\":19781:19785   */\n      dup2\n        /* \"#utility.yul\":19655:19786   */\n      tag_243\n      jump\t// in\n    tag_457:\n        /* \"#utility.yul\":19647:19786   */\n      swap1\n      pop\n        /* \"#utility.yul\":19374:19793   */\n      swap2\n      swap1\n      pop\n      jump\t// out\n        /* \"#utility.yul\":19799:19967   */\n    tag_244:\n        /* \"#utility.yul\":19939:19959   */\n      0x50617373656420707269636520636865636b0000000000000000000000000000\n        /* \"#utility.yul\":19935:19936   */\n      0x00\n        /* \"#utility.yul\":19927:19933   */\n      dup3\n        /* \"#utility.yul\":19923:19937   */\n      add\n        /* \"#utility.yul\":19916:19960   */\n      mstore\n        /* \"#utility.yul\":19799:19967   */\n      pop\n      jump\t// out\n        /* \"#utility.yul\":19973:20339   */\n    tag_245:\n        /* \"#utility.yul\":20115:20118   */\n      0x00\n        /* \"#utility.yul\":20136:20203   */\n      tag_460\n        /* \"#utility.yul\":20200:20202   */\n      0x12\n        /* \"#utility.yul\":20195:20198   */\n      dup4\n        /* \"#utility.yul\":20136:20203   */\n      tag_217\n      jump\t// in\n    tag_460:\n        /* \"#utility.yul\":20129:20203   */\n      swap2\n      pop\n        /* \"#utility.yul\":20212:20305   */\n      tag_461\n        /* \"#utility.yul\":20301:20304   */\n      dup3\n        /* \"#utility.yul\":20212:20305   */\n      tag_244\n      jump\t// in\n    tag_461:\n        /* \"#utility.yul\":20330:20332   */\n      0x20\n        /* \"#utility.yul\":20325:20328   */\n      dup3\n        /* \"#utility.yul\":20321:20333   */\n      add\n        /* \"#utility.yul\":20314:20333   */\n      swap1\n      pop\n        /* \"#utility.yul\":19973:20339   */\n      swap2\n      swap1\n      pop\n      jump\t// out\n        /* \"#utility.yul\":20345:20764   */\n    tag_154:\n        /* \"#utility.yul\":20511:20515   */\n      0x00\n        /* \"#utility.yul\":20549:20551   */\n      0x20\n        /* \"#utility.yul\":20538:20547   */\n      dup3\n        /* \"#utility.yul\":20534:20552   */\n      add\n        /* \"#utility.yul\":20526:20552   */\n      swap1\n      pop\n        /* \"#utility.yul\":20598:20607   */\n      dup2\n        /* \"#utility.yul\":20592:20596   */\n      dup2\n        /* \"#utility.yul\":20588:20608   */\n      sub\n        /* \"#utility.yul\":20584:20585   */\n      0x00\n        /* \"#utility.yul\":20573:20582   */\n      dup4\n        /* \"#utility.yul\":20569:20586   */\n      add\n        /* \"#utility.yul\":20562:20609   */\n      mstore\n        /* \"#utility.yul\":20626:20757   */\n      tag_463\n        /* \"#utility.yul\":20752:20756   */\n      dup2\n        /* \"#utility.yul\":20626:20757   */\n      tag_245\n      jump\t// in\n    tag_463:\n        /* \"#utility.yul\":20618:20757   */\n      swap1\n      pop\n        /* \"#utility.yul\":20345:20764   */\n      swap2\n      swap1\n      pop\n      jump\t// out\n        /* \"#utility.yul\":20770:20992   */\n    tag_156:\n        /* \"#utility.yul\":20863:20867   */\n      0x00\n        /* \"#utility.yul\":20901:20903   */\n      0x20\n        /* \"#utility.yul\":20890:20899   */\n      dup3\n        /* \"#utility.yul\":20886:20904   */\n      add\n        /* \"#utility.yul\":20878:20904   */\n      swap1\n      pop\n        /* \"#utility.yul\":20914:20985   */\n      tag_465\n        /* \"#utility.yul\":20982:20983   */\n      0x00\n        /* \"#utility.yul\":20971:20980   */\n      dup4\n        /* \"#utility.yul\":20967:20984   */\n      add\n        /* \"#utility.yul\":20958:20964   */\n      dup5\n        /* \"#utility.yul\":20914:20985   */\n      tag_227\n      jump\t// in\n    tag_465:\n        /* \"#utility.yul\":20770:20992   */\n      swap3\n      swap2\n      pop\n      pop\n      jump\t// out\n        /* \"#utility.yul\":20998:21141   */\n    tag_246:\n        /* \"#utility.yul\":21055:21060   */\n      0x00\n        /* \"#utility.yul\":21086:21092   */\n      dup2\n        /* \"#utility.yul\":21080:21093   */\n      mload\n        /* \"#utility.yul\":21071:21093   */\n      swap1\n      pop\n        /* \"#utility.yul\":21102:21135   */\n      tag_467\n        /* \"#utility.yul\":21129:21134   */\n      dup2\n        /* \"#utility.yul\":21102:21135   */\n      tag_200\n      jump\t// in\n    tag_467:\n        /* \"#utility.yul\":20998:21141   */\n      swap3\n      swap2\n      pop\n      pop\n      jump\t// out\n        /* \"#utility.yul\":21147:21498   */\n    tag_160:\n        /* \"#utility.yul\":21217:21223   */\n      0x00\n        /* \"#utility.yul\":21266:21268   */\n      0x20\n        /* \"#utility.yul\":21254:21263   */\n      dup3\n        /* \"#utility.yul\":21245:21252   */\n      dup5\n        /* \"#utility.yul\":21241:21264   */\n      sub\n        /* \"#utility.yul\":21237:21269   */\n      slt\n        /* \"#utility.yul\":21234:21353   */\n      iszero\n      tag_469\n      jumpi\n        /* \"#utility.yul\":21272:21351   */\n      tag_470\n      tag_193\n      jump\t// in\n    tag_470:\n        /* \"#utility.yul\":21234:21353   */\n    tag_469:\n        /* \"#utility.yul\":21392:21393   */\n      0x00\n        /* \"#utility.yul\":21417:21481   */\n      tag_471\n        /* \"#utility.yul\":21473:21480   */\n      dup5\n        /* \"#utility.yul\":21464:21470   */\n      dup3\n        /* \"#utility.yul\":21453:21462   */\n      dup6\n        /* \"#utility.yul\":21449:21471   */\n      add\n        /* \"#utility.yul\":21417:21481   */\n      tag_246\n      jump\t// in\n    tag_471:\n        /* \"#utility.yul\":21407:21481   */\n      swap2\n      pop\n        /* \"#utility.yul\":21363:21491   */\n      pop\n        /* \"#utility.yul\":21147:21498   */\n      swap3\n      swap2\n      pop\n      pop\n      jump\t// out\n        /* \"#utility.yul\":21504:21669   */\n    tag_247:\n        /* \"#utility.yul\":21644:21661   */\n      0x4f776e6572207265747269657665640000000000000000000000000000000000\n        /* \"#utility.yul\":21640:21641   */\n      0x00\n        /* \"#utility.yul\":21632:21638   */\n      dup3\n        /* \"#utility.yul\":21628:21642   */\n      add\n        /* \"#utility.yul\":21621:21662   */\n      mstore\n        /* \"#utility.yul\":21504:21669   */\n      pop\n      jump\t// out\n        /* \"#utility.yul\":21675:22041   */\n    tag_248:\n        /* \"#utility.yul\":21817:21820   */\n      0x00\n        /* \"#utility.yul\":21838:21905   */\n      tag_474\n        /* \"#utility.yul\":21902:21904   */\n      0x0f\n        /* \"#utility.yul\":21897:21900   */\n      dup4\n        /* \"#utility.yul\":21838:21905   */\n      tag_217\n      jump\t// in\n    tag_474:\n        /* \"#utility.yul\":21831:21905   */\n      swap2\n      pop\n        /* \"#utility.yul\":21914:22007   */\n      tag_475\n        /* \"#utility.yul\":22003:22006   */\n      dup3\n        /* \"#utility.yul\":21914:22007   */\n      tag_247\n      jump\t// in\n    tag_475:\n        /* \"#utility.yul\":22032:22034   */\n      0x20\n        /* \"#utility.yul\":22027:22030   */\n      dup3\n        /* \"#utility.yul\":22023:22035   */\n      add\n        /* \"#utility.yul\":22016:22035   */\n      swap1\n      pop\n        /* \"#utility.yul\":21675:22041   */\n      swap2\n      swap1\n      pop\n      jump\t// out\n        /* \"#utility.yul\":22047:22466   */\n    tag_162:\n        /* \"#utility.yul\":22213:22217   */\n      0x00\n        /* \"#utility.yul\":22251:22253   */\n      0x20\n        /* \"#utility.yul\":22240:22249   */\n      dup3\n        /* \"#utility.yul\":22236:22254   */\n      add\n        /* \"#utility.yul\":22228:22254   */\n      swap1\n      pop\n        /* \"#utility.yul\":22300:22309   */\n      dup2\n        /* \"#utility.yul\":22294:22298   */\n      dup2\n        /* \"#utility.yul\":22290:22310   */\n      sub\n        /* \"#utility.yul\":22286:22287   */\n      0x00\n        /* \"#utility.yul\":22275:22284   */\n      dup4\n        /* \"#utility.yul\":22271:22288   */\n      add\n        /* \"#utility.yul\":22264:22311   */\n      mstore\n        /* \"#utility.yul\":22328:22459   */\n      tag_477\n        /* \"#utility.yul\":22454:22458   */\n      dup2\n        /* \"#utility.yul\":22328:22459   */\n      tag_248\n      jump\t// in\n    tag_477:\n        /* \"#utility.yul\":22320:22459   */\n      swap1\n      pop\n        /* \"#utility.yul\":22047:22466   */\n      swap2\n      swap1\n      pop\n      jump\t// out\n        /* \"#utility.yul\":22472:22694   */\n    tag_249:\n        /* \"#utility.yul\":22612:22646   */\n      0x596f7520617265206e6f7420746865206f776e6572206f66207468697320746f\n        /* \"#utility.yul\":22608:22609   */\n      0x00\n        /* \"#utility.yul\":22600:22606   */\n      dup3\n        /* \"#utility.yul\":22596:22610   */\n      add\n        /* \"#utility.yul\":22589:22647   */\n      mstore\n        /* \"#utility.yul\":22681:22686   */\n      0x6b656e0000000000000000000000000000000000000000000000000000000000\n        /* \"#utility.yul\":22676:22678   */\n      0x20\n        /* \"#utility.yul\":22668:22674   */\n      dup3\n        /* \"#utility.yul\":22664:22679   */\n      add\n        /* \"#utility.yul\":22657:22687   */\n      mstore\n        /* \"#utility.yul\":22472:22694   */\n      pop\n      jump\t// out\n        /* \"#utility.yul\":22700:23066   */\n    tag_250:\n        /* \"#utility.yul\":22842:22845   */\n      0x00\n        /* \"#utility.yul\":22863:22930   */\n      tag_480\n        /* \"#utility.yul\":22927:22929   */\n      0x23\n        /* \"#utility.yul\":22922:22925   */\n      dup4\n        /* \"#utility.yul\":22863:22930   */\n      tag_217\n      jump\t// in\n    tag_480:\n        /* \"#utility.yul\":22856:22930   */\n      swap2\n      pop\n        /* \"#utility.yul\":22939:23032   */\n      tag_481\n        /* \"#utility.yul\":23028:23031   */\n      dup3\n        /* \"#utility.yul\":22939:23032   */\n      tag_249\n      jump\t// in\n    tag_481:\n        /* \"#utility.yul\":23057:23059   */\n      0x40\n        /* \"#utility.yul\":23052:23055   */\n      dup3\n        /* \"#utility.yul\":23048:23060   */\n      add\n        /* \"#utility.yul\":23041:23060   */\n      swap1\n      pop\n        /* \"#utility.yul\":22700:23066   */\n      swap2\n      swap1\n      pop\n      jump\t// out\n        /* \"#utility.yul\":23072:23491   */\n    tag_165:\n        /* \"#utility.yul\":23238:23242   */\n      0x00\n        /* \"#utility.yul\":23276:23278   */\n      0x20\n        /* \"#utility.yul\":23265:23274   */\n      dup3\n        /* \"#utility.yul\":23261:23279   */\n      add\n        /* \"#utility.yul\":23253:23279   */\n      swap1\n      pop\n        /* \"#utility.yul\":23325:23334   */\n      dup2\n        /* \"#utility.yul\":23319:23323   */\n      dup2\n        /* \"#utility.yul\":23315:23335   */\n      sub\n        /* \"#utility.yul\":23311:23312   */\n      0x00\n        /* \"#utility.yul\":23300:23309   */\n      dup4\n        /* \"#utility.yul\":23296:23313   */\n      add\n        /* \"#utility.yul\":23289:23336   */\n      mstore\n        /* \"#utility.yul\":23353:23484   */\n      tag_483\n        /* \"#utility.yul\":23479:23483   */\n      dup2\n        /* \"#utility.yul\":23353:23484   */\n      tag_250\n      jump\t// in\n    tag_483:\n        /* \"#utility.yul\":23345:23484   */\n      swap1\n      pop\n        /* \"#utility.yul\":23072:23491   */\n      swap2\n      swap1\n      pop\n      jump\t// out\n        /* \"#utility.yul\":23497:23665   */\n    tag_251:\n        /* \"#utility.yul\":23637:23657   */\n      0x4f776e6572736869702076657269666965640000000000000000000000000000\n        /* \"#utility.yul\":23633:23634   */\n      0x00\n        /* \"#utility.yul\":23625:23631   */\n      dup3\n        /* \"#utility.yul\":23621:23635   */\n      add\n        /* \"#utility.yul\":23614:23658   */\n      mstore\n        /* \"#utility.yul\":23497:23665   */\n      pop\n      jump\t// out\n        /* \"#utility.yul\":23671:24037   */\n    tag_252:\n        /* \"#utility.yul\":23813:23816   */\n      0x00\n        /* \"#utility.yul\":23834:23901   */\n      tag_486\n        /* \"#utility.yul\":23898:23900   */\n      0x12\n        /* \"#utility.yul\":23893:23896   */\n      dup4\n        /* \"#utility.yul\":23834:23901   */\n      tag_217\n      jump\t// in\n    tag_486:\n        /* \"#utility.yul\":23827:23901   */\n      swap2\n      pop\n        /* \"#utility.yul\":23910:24003   */\n      tag_487\n        /* \"#utility.yul\":23999:24002   */\n      dup3\n        /* \"#utility.yul\":23910:24003   */\n      tag_251\n      jump\t// in\n    tag_487:\n        /* \"#utility.yul\":24028:24030   */\n      0x20\n        /* \"#utility.yul\":24023:24026   */\n      dup3\n        /* \"#utility.yul\":24019:24031   */\n      add\n        /* \"#utility.yul\":24012:24031   */\n      swap1\n      pop\n        /* \"#utility.yul\":23671:24037   */\n      swap2\n      swap1\n      pop\n      jump\t// out\n        /* \"#utility.yul\":24043:24462   */\n    tag_167:\n        /* \"#utility.yul\":24209:24213   */\n      0x00\n        /* \"#utility.yul\":24247:24249   */\n      0x20\n        /* \"#utility.yul\":24236:24245   */\n      dup3\n        /* \"#utility.yul\":24232:24250   */\n      add\n        /* \"#utility.yul\":24224:24250   */\n      swap1\n      pop\n        /* \"#utility.yul\":24296:24305   */\n      dup2\n        /* \"#utility.yul\":24290:24294   */\n      dup2\n        /* \"#utility.yul\":24286:24306   */\n      sub\n        /* \"#utility.yul\":24282:24283   */\n      0x00\n        /* \"#utility.yul\":24271:24280   */\n      dup4\n        /* \"#utility.yul\":24267:24284   */\n      add\n        /* \"#utility.yul\":24260:24307   */\n      mstore\n        /* \"#utility.yul\":24324:24455   */\n      tag_489\n        /* \"#utility.yul\":24450:24454   */\n      dup2\n        /* \"#utility.yul\":24324:24455   */\n      tag_252\n      jump\t// in\n    tag_489:\n        /* \"#utility.yul\":24316:24455   */\n      swap1\n      pop\n        /* \"#utility.yul\":24043:24462   */\n      swap2\n      swap1\n      pop\n      jump\t// out\n        /* \"#utility.yul\":24468:24800   */\n    tag_174:\n        /* \"#utility.yul\":24589:24593   */\n      0x00\n        /* \"#utility.yul\":24627:24629   */\n      0x40\n        /* \"#utility.yul\":24616:24625   */\n      dup3\n        /* \"#utility.yul\":24612:24630   */\n      add\n        /* \"#utility.yul\":24604:24630   */\n      swap1\n      pop\n        /* \"#utility.yul\":24640:24711   */\n      tag_491\n        /* \"#utility.yul\":24708:24709   */\n      0x00\n        /* \"#utility.yul\":24697:24706   */\n      dup4\n        /* \"#utility.yul\":24693:24710   */\n      add\n        /* \"#utility.yul\":24684:24690   */\n      dup6\n        /* \"#utility.yul\":24640:24711   */\n      tag_215\n      jump\t// in\n    tag_491:\n        /* \"#utility.yul\":24721:24793   */\n      tag_492\n        /* \"#utility.yul\":24789:24791   */\n      0x20\n        /* \"#utility.yul\":24778:24787   */\n      dup4\n        /* \"#utility.yul\":24774:24792   */\n      add\n        /* \"#utility.yul\":24765:24771   */\n      dup5\n        /* \"#utility.yul\":24721:24793   */\n      tag_215\n      jump\t// in\n    tag_492:\n        /* \"#utility.yul\":24468:24800   */\n      swap4\n      swap3\n      pop\n      pop\n      pop\n      jump\t// out\n        /* \"#utility.yul\":24806:24896   */\n    tag_253:\n        /* \"#utility.yul\":24840:24847   */\n      0x00\n        /* \"#utility.yul\":24883:24888   */\n      dup2\n        /* \"#utility.yul\":24876:24889   */\n      iszero\n        /* \"#utility.yul\":24869:24890   */\n      iszero\n        /* \"#utility.yul\":24858:24890   */\n      swap1\n      pop\n        /* \"#utility.yul\":24806:24896   */\n      swap2\n      swap1\n      pop\n      jump\t// out\n        /* \"#utility.yul\":24902:25018   */\n    tag_254:\n        /* \"#utility.yul\":24972:24993   */\n      tag_495\n        /* \"#utility.yul\":24987:24992   */\n      dup2\n        /* \"#utility.yul\":24972:24993   */\n      tag_253\n      jump\t// in\n    tag_495:\n        /* \"#utility.yul\":24965:24970   */\n      dup2\n        /* \"#utility.yul\":24962:24994   */\n      eq\n        /* \"#utility.yul\":24952:25012   */\n      tag_496\n      jumpi\n        /* \"#utility.yul\":25008:25009   */\n      0x00\n        /* \"#utility.yul\":25005:25006   */\n      dup1\n        /* \"#utility.yul\":24998:25010   */\n      revert\n        /* \"#utility.yul\":24952:25012   */\n    tag_496:\n        /* \"#utility.yul\":24902:25018   */\n      pop\n      jump\t// out\n        /* \"#utility.yul\":25024:25161   */\n    tag_255:\n        /* \"#utility.yul\":25078:25083   */\n      0x00\n        /* \"#utility.yul\":25109:25115   */\n      dup2\n        /* \"#utility.yul\":25103:25116   */\n      mload\n        /* \"#utility.yul\":25094:25116   */\n      swap1\n      pop\n        /* \"#utility.yul\":25125:25155   */\n      tag_498\n        /* \"#utility.yul\":25149:25154   */\n      dup2\n        /* \"#utility.yul\":25125:25155   */\n      tag_254\n      jump\t// in\n    tag_498:\n        /* \"#utility.yul\":25024:25161   */\n      swap3\n      swap2\n      pop\n      pop\n      jump\t// out\n        /* \"#utility.yul\":25167:25512   */\n    tag_178:\n        /* \"#utility.yul\":25234:25240   */\n      0x00\n        /* \"#utility.yul\":25283:25285   */\n      0x20\n        /* \"#utility.yul\":25271:25280   */\n      dup3\n        /* \"#utility.yul\":25262:25269   */\n      dup5\n        /* \"#utility.yul\":25258:25281   */\n      sub\n        /* \"#utility.yul\":25254:25286   */\n      slt\n        /* \"#utility.yul\":25251:25370   */\n      iszero\n      tag_500\n      jumpi\n        /* \"#utility.yul\":25289:25368   */\n      tag_501\n      tag_193\n      jump\t// in\n    tag_501:\n        /* \"#utility.yul\":25251:25370   */\n    tag_500:\n        /* \"#utility.yul\":25409:25410   */\n      0x00\n        /* \"#utility.yul\":25434:25495   */\n      tag_502\n        /* \"#utility.yul\":25487:25494   */\n      dup5\n        /* \"#utility.yul\":25478:25484   */\n      dup3\n        /* \"#utility.yul\":25467:25476   */\n      dup6\n        /* \"#utility.yul\":25463:25485   */\n      add\n        /* \"#utility.yul\":25434:25495   */\n      tag_255\n      jump\t// in\n    tag_502:\n        /* \"#utility.yul\":25424:25495   */\n      swap2\n      pop\n        /* \"#utility.yul\":25380:25505   */\n      pop\n        /* \"#utility.yul\":25167:25512   */\n      swap3\n      swap2\n      pop\n      pop\n      jump\t// out\n        /* \"#utility.yul\":25518:25755   */\n    tag_256:\n        /* \"#utility.yul\":25658:25692   */\n      0x4d61726b6574706c616365206973206e6f7420617070726f76656420746f2074\n        /* \"#utility.yul\":25654:25655   */\n      0x00\n        /* \"#utility.yul\":25646:25652   */\n      dup3\n        /* \"#utility.yul\":25642:25656   */\n      add\n        /* \"#utility.yul\":25635:25693   */\n      mstore\n        /* \"#utility.yul\":25727:25747   */\n      0x72616e73666572207468697320746f6b656e0000000000000000000000000000\n        /* \"#utility.yul\":25722:25724   */\n      0x20\n        /* \"#utility.yul\":25714:25720   */\n      dup3\n        /* \"#utility.yul\":25710:25725   */\n      add\n        /* \"#utility.yul\":25703:25748   */\n      mstore\n        /* \"#utility.yul\":25518:25755   */\n      pop\n      jump\t// out\n        /* \"#utility.yul\":25761:26127   */\n    tag_257:\n        /* \"#utility.yul\":25903:25906   */\n      0x00\n        /* \"#utility.yul\":25924:25991   */\n      tag_505\n        /* \"#utility.yul\":25988:25990   */\n      0x32\n        /* \"#utility.yul\":25983:25986   */\n      dup4\n        /* \"#utility.yul\":25924:25991   */\n      tag_217\n      jump\t// in\n    tag_505:\n        /* \"#utility.yul\":25917:25991   */\n      swap2\n      pop\n        /* \"#utility.yul\":26000:26093   */\n      tag_506\n        /* \"#utility.yul\":26089:26092   */\n      dup3\n        /* \"#utility.yul\":26000:26093   */\n      tag_256\n      jump\t// in\n    tag_506:\n        /* \"#utility.yul\":26118:26120   */\n      0x40\n        /* \"#utility.yul\":26113:26116   */\n      dup3\n        /* \"#utility.yul\":26109:26121   */\n      add\n        /* \"#utility.yul\":26102:26121   */\n      swap1\n      pop\n        /* \"#utility.yul\":25761:26127   */\n      swap2\n      swap1\n      pop\n      jump\t// out\n        /* \"#utility.yul\":26133:26552   */\n    tag_181:\n        /* \"#utility.yul\":26299:26303   */\n      0x00\n        /* \"#utility.yul\":26337:26339   */\n      0x20\n        /* \"#utility.yul\":26326:26335   */\n      dup3\n        /* \"#utility.yul\":26322:26340   */\n      add\n        /* \"#utility.yul\":26314:26340   */\n      swap1\n      pop\n        /* \"#utility.yul\":26386:26395   */\n      dup2\n        /* \"#utility.yul\":26380:26384   */\n      dup2\n        /* \"#utility.yul\":26376:26396   */\n      sub\n        /* \"#utility.yul\":26372:26373   */\n      0x00\n        /* \"#utility.yul\":26361:26370   */\n      dup4\n        /* \"#utility.yul\":26357:26374   */\n      add\n        /* \"#utility.yul\":26350:26397   */\n      mstore\n        /* \"#utility.yul\":26414:26545   */\n      tag_508\n        /* \"#utility.yul\":26540:26544   */\n      dup2\n        /* \"#utility.yul\":26414:26545   */\n      tag_257\n      jump\t// in\n    tag_508:\n        /* \"#utility.yul\":26406:26545   */\n      swap1\n      pop\n        /* \"#utility.yul\":26133:26552   */\n      swap2\n      swap1\n      pop\n      jump\t// out\n        /* \"#utility.yul\":26558:26725   */\n    tag_258:\n        /* \"#utility.yul\":26698:26717   */\n      0x417070726f76616c207665726966696564000000000000000000000000000000\n        /* \"#utility.yul\":26694:26695   */\n      0x00\n        /* \"#utility.yul\":26686:26692   */\n      dup3\n        /* \"#utility.yul\":26682:26696   */\n      add\n        /* \"#utility.yul\":26675:26718   */\n      mstore\n        /* \"#utility.yul\":26558:26725   */\n      pop\n      jump\t// out\n        /* \"#utility.yul\":26731:27097   */\n    tag_259:\n        /* \"#utility.yul\":26873:26876   */\n      0x00\n        /* \"#utility.yul\":26894:26961   */\n      tag_511\n        /* \"#utility.yul\":26958:26960   */\n      0x11\n        /* \"#utility.yul\":26953:26956   */\n      dup4\n        /* \"#utility.yul\":26894:26961   */\n      tag_217\n      jump\t// in\n    tag_511:\n        /* \"#utility.yul\":26887:26961   */\n      swap2\n      pop\n        /* \"#utility.yul\":26970:27063   */\n      tag_512\n        /* \"#utility.yul\":27059:27062   */\n      dup3\n        /* \"#utility.yul\":26970:27063   */\n      tag_258\n      jump\t// in\n    tag_512:\n        /* \"#utility.yul\":27088:27090   */\n      0x20\n        /* \"#utility.yul\":27083:27086   */\n      dup3\n        /* \"#utility.yul\":27079:27091   */\n      add\n        /* \"#utility.yul\":27072:27091   */\n      swap1\n      pop\n        /* \"#utility.yul\":26731:27097   */\n      swap2\n      swap1\n      pop\n      jump\t// out\n        /* \"#utility.yul\":27103:27522   */\n    tag_183:\n        /* \"#utility.yul\":27269:27273   */\n      0x00\n        /* \"#utility.yul\":27307:27309   */\n      0x20\n        /* \"#utility.yul\":27296:27305   */\n      dup3\n        /* \"#utility.yul\":27292:27310   */\n      add\n        /* \"#utility.yul\":27284:27310   */\n      swap1\n      pop\n        /* \"#utility.yul\":27356:27365   */\n      dup2\n        /* \"#utility.yul\":27350:27354   */\n      dup2\n        /* \"#utility.yul\":27346:27366   */\n      sub\n        /* \"#utility.yul\":27342:27343   */\n      0x00\n        /* \"#utility.yul\":27331:27340   */\n      dup4\n        /* \"#utility.yul\":27327:27344   */\n      add\n        /* \"#utility.yul\":27320:27367   */\n      mstore\n        /* \"#utility.yul\":27384:27515   */\n      tag_514\n        /* \"#utility.yul\":27510:27514   */\n      dup2\n        /* \"#utility.yul\":27384:27515   */\n      tag_259\n      jump\t// in\n    tag_514:\n        /* \"#utility.yul\":27376:27515   */\n      swap1\n      pop\n        /* \"#utility.yul\":27103:27522   */\n      swap2\n      swap1\n      pop\n      jump\t// out\n        /* \"#utility.yul\":27528:27701   */\n    tag_260:\n        /* \"#utility.yul\":27668:27693   */\n      0x546f6b656e20697320616c7265616479206c6973746564000000000000000000\n        /* \"#utility.yul\":27664:27665   */\n      0x00\n        /* \"#utility.yul\":27656:27662   */\n      dup3\n        /* \"#utility.yul\":27652:27666   */\n      add\n        /* \"#utility.yul\":27645:27694   */\n      mstore\n        /* \"#utility.yul\":27528:27701   */\n      pop\n      jump\t// out\n        /* \"#utility.yul\":27707:28073   */\n    tag_261:\n        /* \"#utility.yul\":27849:27852   */\n      0x00\n        /* \"#utility.yul\":27870:27937   */\n      tag_517\n        /* \"#utility.yul\":27934:27936   */\n      0x17\n        /* \"#utility.yul\":27929:27932   */\n      dup4\n        /* \"#utility.yul\":27870:27937   */\n      tag_217\n      jump\t// in\n    tag_517:\n        /* \"#utility.yul\":27863:27937   */\n      swap2\n      pop\n        /* \"#utility.yul\":27946:28039   */\n      tag_518\n        /* \"#utility.yul\":28035:28038   */\n      dup3\n        /* \"#utility.yul\":27946:28039   */\n      tag_260\n      jump\t// in\n    tag_518:\n        /* \"#utility.yul\":28064:28066   */\n      0x20\n        /* \"#utility.yul\":28059:28062   */\n      dup3\n        /* \"#utility.yul\":28055:28067   */\n      add\n        /* \"#utility.yul\":28048:28067   */\n      swap1\n      pop\n        /* \"#utility.yul\":27707:28073   */\n      swap2\n      swap1\n      pop\n      jump\t// out\n        /* \"#utility.yul\":28079:28498   */\n    tag_186:\n        /* \"#utility.yul\":28245:28249   */\n      0x00\n        /* \"#utility.yul\":28283:28285   */\n      0x20\n        /* \"#utility.yul\":28272:28281   */\n      dup3\n        /* \"#utility.yul\":28268:28286   */\n      add\n        /* \"#utility.yul\":28260:28286   */\n      swap1\n      pop\n        /* \"#utility.yul\":28332:28341   */\n      dup2\n        /* \"#utility.yul\":28326:28330   */\n      dup2\n        /* \"#utility.yul\":28322:28342   */\n      sub\n        /* \"#utility.yul\":28318:28319   */\n      0x00\n        /* \"#utility.yul\":28307:28316   */\n      dup4\n        /* \"#utility.yul\":28303:28320   */\n      add\n        /* \"#utility.yul\":28296:28343   */\n      mstore\n        /* \"#utility.yul\":28360:28491   */\n      tag_520\n        /* \"#utility.yul\":28486:28490   */\n      dup2\n        /* \"#utility.yul\":28360:28491   */\n      tag_261\n      jump\t// in\n    tag_520:\n        /* \"#utility.yul\":28352:28491   */\n      swap1\n      pop\n        /* \"#utility.yul\":28079:28498   */\n      swap2\n      swap1\n      pop\n      jump\t// out\n        /* \"#utility.yul\":28504:28600   */\n    tag_262:\n        /* \"#utility.yul\":28538:28546   */\n      0x00\n        /* \"#utility.yul\":28587:28592   */\n      dup2\n        /* \"#utility.yul\":28582:28585   */\n      0x80\n        /* \"#utility.yul\":28578:28593   */\n      shl\n        /* \"#utility.yul\":28557:28593   */\n      swap1\n      pop\n        /* \"#utility.yul\":28504:28600   */\n      swap2\n      swap1\n      pop\n      jump\t// out\n        /* \"#utility.yul\":28606:28701   */\n    tag_263:\n        /* \"#utility.yul\":28645:28652   */\n      0x00\n        /* \"#utility.yul\":28674:28695   */\n      tag_523\n        /* \"#utility.yul\":28689:28694   */\n      dup3\n        /* \"#utility.yul\":28674:28695   */\n      tag_262\n      jump\t// in\n    tag_523:\n        /* \"#utility.yul\":28663:28695   */\n      swap1\n      pop\n        /* \"#utility.yul\":28606:28701   */\n      swap2\n      swap1\n      pop\n      jump\t// out\n        /* \"#utility.yul\":28707:28864   */\n    tag_264:\n        /* \"#utility.yul\":28812:28857   */\n      tag_525\n        /* \"#utility.yul\":28832:28856   */\n      tag_526\n        /* \"#utility.yul\":28850:28855   */\n      dup3\n        /* \"#utility.yul\":28832:28856   */\n      tag_210\n      jump\t// in\n    tag_526:\n        /* \"#utility.yul\":28812:28857   */\n      tag_263\n      jump\t// in\n    tag_525:\n        /* \"#utility.yul\":28807:28810   */\n      dup3\n        /* \"#utility.yul\":28800:28858   */\n      mstore\n        /* \"#utility.yul\":28707:28864   */\n      pop\n      pop\n      jump\t// out\n        /* \"#utility.yul\":28870:28964   */\n    tag_265:\n        /* \"#utility.yul\":28903:28911   */\n      0x00\n        /* \"#utility.yul\":28951:28956   */\n      dup2\n        /* \"#utility.yul\":28947:28949   */\n      0x60\n        /* \"#utility.yul\":28943:28957   */\n      shl\n        /* \"#utility.yul\":28922:28957   */\n      swap1\n      pop\n        /* \"#utility.yul\":28870:28964   */\n      swap2\n      swap1\n      pop\n      jump\t// out\n        /* \"#utility.yul\":28970:29064   */\n    tag_266:\n        /* \"#utility.yul\":29009:29016   */\n      0x00\n        /* \"#utility.yul\":29038:29058   */\n      tag_529\n        /* \"#utility.yul\":29052:29057   */\n      dup3\n        /* \"#utility.yul\":29038:29058   */\n      tag_265\n      jump\t// in\n    tag_529:\n        /* \"#utility.yul\":29027:29058   */\n      swap1\n      pop\n        /* \"#utility.yul\":28970:29064   */\n      swap2\n      swap1\n      pop\n      jump\t// out\n        /* \"#utility.yul\":29070:29170   */\n    tag_267:\n        /* \"#utility.yul\":29109:29116   */\n      0x00\n        /* \"#utility.yul\":29138:29164   */\n      tag_531\n        /* \"#utility.yul\":29158:29163   */\n      dup3\n        /* \"#utility.yul\":29138:29164   */\n      tag_266\n      jump\t// in\n    tag_531:\n        /* \"#utility.yul\":29127:29164   */\n      swap1\n      pop\n        /* \"#utility.yul\":29070:29170   */\n      swap2\n      swap1\n      pop\n      jump\t// out\n        /* \"#utility.yul\":29176:29333   */\n    tag_268:\n        /* \"#utility.yul\":29281:29326   */\n      tag_533\n        /* \"#utility.yul\":29301:29325   */\n      tag_534\n        /* \"#utility.yul\":29319:29324   */\n      dup3\n        /* \"#utility.yul\":29301:29325   */\n      tag_199\n      jump\t// in\n    tag_534:\n        /* \"#utility.yul\":29281:29326   */\n      tag_267\n      jump\t// in\n    tag_533:\n        /* \"#utility.yul\":29276:29279   */\n      dup3\n        /* \"#utility.yul\":29269:29327   */\n      mstore\n        /* \"#utility.yul\":29176:29333   */\n      pop\n      pop\n      jump\t// out\n        /* \"#utility.yul\":29339:29736   */\n    tag_188:\n        /* \"#utility.yul\":29479:29482   */\n      0x00\n        /* \"#utility.yul\":29494:29569   */\n      tag_536\n        /* \"#utility.yul\":29565:29568   */\n      dup3\n        /* \"#utility.yul\":29556:29562   */\n      dup6\n        /* \"#utility.yul\":29494:29569   */\n      tag_264\n      jump\t// in\n    tag_536:\n        /* \"#utility.yul\":29594:29596   */\n      0x10\n        /* \"#utility.yul\":29589:29592   */\n      dup3\n        /* \"#utility.yul\":29585:29597   */\n      add\n        /* \"#utility.yul\":29578:29597   */\n      swap2\n      pop\n        /* \"#utility.yul\":29607:29682   */\n      tag_537\n        /* \"#utility.yul\":29678:29681   */\n      dup3\n        /* \"#utility.yul\":29669:29675   */\n      dup5\n        /* \"#utility.yul\":29607:29682   */\n      tag_268\n      jump\t// in\n    tag_537:\n        /* \"#utility.yul\":29707:29709   */\n      0x14\n        /* \"#utility.yul\":29702:29705   */\n      dup3\n        /* \"#utility.yul\":29698:29710   */\n      add\n        /* \"#utility.yul\":29691:29710   */\n      swap2\n      pop\n        /* \"#utility.yul\":29727:29730   */\n      dup2\n        /* \"#utility.yul\":29720:29730   */\n      swap1\n      pop\n        /* \"#utility.yul\":29339:29736   */\n      swap4\n      swap3\n      pop\n      pop\n      pop\n      jump\t// out\n        /* \"#utility.yul\":29742:29918   */\n    tag_269:\n        /* \"#utility.yul\":29882:29910   */\n      0x556e69717565206c697374696e67204944207665726966696564000000000000\n        /* \"#utility.yul\":29878:29879   */\n      0x00\n        /* \"#utility.yul\":29870:29876   */\n      dup3\n        /* \"#utility.yul\":29866:29880   */\n      add\n        /* \"#utility.yul\":29859:29911   */\n      mstore\n        /* \"#utility.yul\":29742:29918   */\n      pop\n      jump\t// out\n        /* \"#utility.yul\":29924:30290   */\n    tag_270:\n        /* \"#utility.yul\":30066:30069   */\n      0x00\n        /* \"#utility.yul\":30087:30154   */\n      tag_540\n        /* \"#utility.yul\":30151:30153   */\n      0x1a\n        /* \"#utility.yul\":30146:30149   */\n      dup4\n        /* \"#utility.yul\":30087:30154   */\n      tag_217\n      jump\t// in\n    tag_540:\n        /* \"#utility.yul\":30080:30154   */\n      swap2\n      pop\n        /* \"#utility.yul\":30163:30256   */\n      tag_541\n        /* \"#utility.yul\":30252:30255   */\n      dup3\n        /* \"#utility.yul\":30163:30256   */\n      tag_269\n      jump\t// in\n    tag_541:\n        /* \"#utility.yul\":30281:30283   */\n      0x20\n        /* \"#utility.yul\":30276:30279   */\n      dup3\n        /* \"#utility.yul\":30272:30284   */\n      add\n        /* \"#utility.yul\":30265:30284   */\n      swap1\n      pop\n        /* \"#utility.yul\":29924:30290   */\n      swap2\n      swap1\n      pop\n      jump\t// out\n        /* \"#utility.yul\":30296:30715   */\n    tag_190:\n        /* \"#utility.yul\":30462:30466   */\n      0x00\n        /* \"#utility.yul\":30500:30502   */\n      0x20\n        /* \"#utility.yul\":30489:30498   */\n      dup3\n        /* \"#utility.yul\":30485:30503   */\n      add\n        /* \"#utility.yul\":30477:30503   */\n      swap1\n      pop\n        /* \"#utility.yul\":30549:30558   */\n      dup2\n        /* \"#utility.yul\":30543:30547   */\n      dup2\n        /* \"#utility.yul\":30539:30559   */\n      sub\n        /* \"#utility.yul\":30535:30536   */\n      0x00\n        /* \"#utility.yul\":30524:30533   */\n      dup4\n        /* \"#utility.yul\":30520:30537   */\n      add\n        /* \"#utility.yul\":30513:30560   */\n      mstore\n        /* \"#utility.yul\":30577:30708   */\n      tag_543\n        /* \"#utility.yul\":30703:30707   */\n      dup2\n        /* \"#utility.yul\":30577:30708   */\n      tag_270\n      jump\t// in\n    tag_543:\n        /* \"#utility.yul\":30569:30708   */\n      swap1\n      pop\n        /* \"#utility.yul\":30296:30715   */\n      swap2\n      swap1\n      pop\n      jump\t// out\n\n    auxdata: 0xa2646970667358221220ec88218b5b3a72ac1c18abce736497c51074b4caa8b3f17834af4b596d48d69164736f6c63430008140033\n}\n",
				"bytecode": {
					"linkReferences": {},
					"object": "6080604052600160075534801562000015575f80fd5b50604051620026583803806200265883398181016040528101906200003b9190620001ed565b603281111562000082576040517f08c379a0000000000000000000000000000000000000000000000000000000008152600401620000799062000290565b60405180910390fd5b335f806101000a81548173ffffffffffffffffffffffffffffffffffffffff021916908373ffffffffffffffffffffffffffffffffffffffff1602179055508160055f6101000a81548173ffffffffffffffffffffffffffffffffffffffff021916908373ffffffffffffffffffffffffffffffffffffffff1602179055508160065f6101000a81548173ffffffffffffffffffffffffffffffffffffffff021916908373ffffffffffffffffffffffffffffffffffffffff160217905550806001819055505050620002b0565b5f80fd5b5f73ffffffffffffffffffffffffffffffffffffffff82169050919050565b5f6200017f8262000154565b9050919050565b620001918162000173565b81146200019c575f80fd5b50565b5f81519050620001af8162000186565b92915050565b5f819050919050565b620001c981620001b5565b8114620001d4575f80fd5b50565b5f81519050620001e781620001be565b92915050565b5f806040838503121562000206576200020562000150565b5b5f62000215858286016200019f565b92505060206200022885828601620001d7565b9150509250929050565b5f82825260208201905092915050565b7f436f6d6d697373696f6e2063616e6e6f742065786365656420353025000000005f82015250565b5f62000278601c8362000232565b9150620002858262000242565b602082019050919050565b5f6020820190508181035f830152620002a9816200026a565b9050919050565b61239a80620002be5f395ff3fe6080604052600436106100c5575f3560e01c806370a082311161007e5780639acaa6fb116100585780639acaa6fb14610248578063d56d229d14610270578063de74e57b1461029a578063f3f43703146102d8576100cc565b806370a08231146101b857806377d3550b146101f45780638da5cb5b1461021e576100cc565b8063169d5a7d146100d057806324600fc3146100ec5780632f745c5914610102578063305a67a81461013e578063404a9ab81461016657806351e61b251461018e576100cc565b366100cc57005b5f80fd5b6100ea60048036038101906100e59190611533565b610314565b005b3480156100f7575f80fd5b5061010061079f565b005b34801561010d575f80fd5b50610128600480360381019061012391906115b8565b6109b2565b6040516101359190611605565b60405180910390f35b348015610149575f80fd5b50610164600480360381019061015f9190611533565b610a56565b005b348015610171575f80fd5b5061018c60048036038101906101879190611533565b610c79565b005b348015610199575f80fd5b506101a2610d8b565b6040516101af9190611679565b60405180910390f35b3480156101c3575f80fd5b506101de60048036038101906101d99190611692565b610db0565b6040516101eb9190611605565b60405180910390f35b3480156101ff575f80fd5b50610208610dd0565b6040516102159190611605565b60405180910390f35b348015610229575f80fd5b50610232610dd6565b60405161023f91906116dd565b60405180910390f35b348015610253575f80fd5b5061026e6004803603810190610269919061173b565b610df9565b005b34801561027b575f80fd5b50610284611446565b6040516102919190611799565b60405180910390f35b3480156102a5575f80fd5b506102c060048036038101906102bb9190611533565b61146b565b6040516102cf939291906117d0565b60405180910390f35b3480156102e3575f80fd5b506102fe60048036038101906102f99190611692565b6114e7565b60405161030b9190611605565b60405180910390f35b600160075414610359576040517f08c379a00000000000000000000000000000000000000000000000000000000081526004016103509061185f565b60405180910390fd5b5f6007819055505f60025f8381526020019081526020015f2090505f8160010160109054906101000a90046fffffffffffffffffffffffffffffffff166fffffffffffffffffffffffffffffffff16116103e8576040517f08c379a00000000000000000000000000000000000000000000000000000000081526004016103df906118c7565b60405180910390fd5b8060010160109054906101000a90046fffffffffffffffffffffffffffffffff166fffffffffffffffffffffffffffffffff16341461045c576040517f08c379a00000000000000000000000000000000000000000000000000000000081526004016104539061192f565b60405180910390fd5b5f60646001543461046d919061197a565b61047791906119e8565b90505f81346104869190611a18565b905060055f9054906101000a900473ffffffffffffffffffffffffffffffffffffffff1673ffffffffffffffffffffffffffffffffffffffff166342842e0e845f015f9054906101000a900473ffffffffffffffffffffffffffffffffffffffff1633866001015f9054906101000a90046fffffffffffffffffffffffffffffffff166040518463ffffffff1660e01b815260040161052793929190611a7b565b5f604051808303815f87803b15801561053e575f80fd5b505af1158015610550573d5f803e3d5ffd5b505050508160045f805f9054906101000a900473ffffffffffffffffffffffffffffffffffffffff1673ffffffffffffffffffffffffffffffffffffffff1673ffffffffffffffffffffffffffffffffffffffff1681526020019081526020015f205f8282546105c09190611ab0565b925050819055508060045f855f015f9054906101000a900473ffffffffffffffffffffffffffffffffffffffff1673ffffffffffffffffffffffffffffffffffffffff1673ffffffffffffffffffffffffffffffffffffffff1681526020019081526020015f205f8282546106359190611ab0565b925050819055503373ffffffffffffffffffffffffffffffffffffffff16847fe29b93709a7ac5e91a6057482d1df985483725988417e08dec23377234003c80856001015f9054906101000a90046fffffffffffffffffffffffffffffffff168660010160109054906101000a90046fffffffffffffffffffffffffffffffff16426040516106c693929190611ae3565b60405180910390a360025f8581526020019081526020015f205f8082015f6101000a81549073ffffffffffffffffffffffffffffffffffffffff0219169055600182015f6101000a8154906fffffffffffffffffffffffffffffffff02191690556001820160106101000a8154906fffffffffffffffffffffffffffffffff0219169055505060035f846001015f9054906101000a90046fffffffffffffffffffffffffffffffff166fffffffffffffffffffffffffffffffff1681526020019081526020015f205f9055505050600160078190555050565b6001600754146107e4576040517f08c379a00000000000000000000000000000000000000000000000000000000081526004016107db9061185f565b60405180910390fd5b5f6007819055505f60045f3373ffffffffffffffffffffffffffffffffffffffff1673ffffffffffffffffffffffffffffffffffffffff1681526020019081526020015f205490505f811161086e576040517f08c379a000000000000000000000000000000000000000000000000000000000815260040161086590611b62565b60405180910390fd5b5f60045f3373ffffffffffffffffffffffffffffffffffffffff1673ffffffffffffffffffffffffffffffffffffffff1681526020019081526020015f20819055505f3373ffffffffffffffffffffffffffffffffffffffff16826040516108d590611bad565b5f6040518083038185875af1925050503d805f811461090f576040519150601f19603f3d011682016040523d82523d5f602084013e610914565b606091505b5050905080610958576040517f08c379a000000000000000000000000000000000000000000000000000000000815260040161094f90611c0b565b60405180910390fd5b3373ffffffffffffffffffffffffffffffffffffffff167f6141b54b56b8a52a8c6f5cd2a857f6117b18ffbf4d46bd3106f300a839cbf5ea8360405161099e9190611605565b60405180910390a250506001600781905550565b5f60065f9054906101000a900473ffffffffffffffffffffffffffffffffffffffff1673ffffffffffffffffffffffffffffffffffffffff16632f745c5984846040518363ffffffff1660e01b8152600401610a0f929190611c29565b602060405180830381865afa158015610a2a573d5f803e3d5ffd5b505050506040513d601f19601f82011682018060405250810190610a4e9190611c64565b905092915050565b5f60025f8381526020019081526020015f2090505f8160010160109054906101000a90046fffffffffffffffffffffffffffffffff166fffffffffffffffffffffffffffffffff1611610ade576040517f08c379a0000000000000000000000000000000000000000000000000000000008152600401610ad5906118c7565b60405180910390fd5b3373ffffffffffffffffffffffffffffffffffffffff16815f015f9054906101000a900473ffffffffffffffffffffffffffffffffffffffff1673ffffffffffffffffffffffffffffffffffffffff1614610b6e576040517f08c379a0000000000000000000000000000000000000000000000000000000008152600401610b6590611cd9565b60405180910390fd5b60025f8381526020019081526020015f205f8082015f6101000a81549073ffffffffffffffffffffffffffffffffffffffff0219169055600182015f6101000a8154906fffffffffffffffffffffffffffffffff02191690556001820160106101000a8154906fffffffffffffffffffffffffffffffff0219169055505060035f826001015f9054906101000a90046fffffffffffffffffffffffffffffffff166fffffffffffffffffffffffffffffffff1681526020019081526020015f205f90553373ffffffffffffffffffffffffffffffffffffffff16827f8e25282255ab31897df2b0456bb993ac7f84d376861aefd84901d2d63a7428a260405160405180910390a35050565b5f8054906101000a900473ffffffffffffffffffffffffffffffffffffffff1673ffffffffffffffffffffffffffffffffffffffff163373ffffffffffffffffffffffffffffffffffffffff1614610d06576040517f08c379a0000000000000000000000000000000000000000000000000000000008152600401610cfd90611d67565b60405180910390fd5b6032811115610d4a576040517f08c379a0000000000000000000000000000000000000000000000000000000008152600401610d4190611dcf565b60405180910390fd5b806001819055507f13f60dd2b588490608c3ff1932a3daeb4087f3d5af04b97e5c2a16b5b4c0302e81604051610d809190611605565b60405180910390a150565b60065f9054906101000a900473ffffffffffffffffffffffffffffffffffffffff1681565b5f8173ffffffffffffffffffffffffffffffffffffffff16319050919050565b60015481565b5f8054906101000a900473ffffffffffffffffffffffffffffffffffffffff1681565b5f816fffffffffffffffffffffffffffffffff1611610e4d576040517f08c379a0000000000000000000000000000000000000000000000000000000008152600401610e4490611e37565b60405180910390fd5b7f7cdb51e9dbbc205231228146c3246e7f914aa6d4a33170e43ecc8e3593481d1a604051610e7a90611e9f565b60405180910390a15f60055f9054906101000a900473ffffffffffffffffffffffffffffffffffffffff1673ffffffffffffffffffffffffffffffffffffffff16636352211e846040518263ffffffff1660e01b8152600401610edd9190611ebd565b602060405180830381865afa158015610ef8573d5f803e3d5ffd5b505050506040513d601f19601f82011682018060405250810190610f1c9190611eea565b90507f7cdb51e9dbbc205231228146c3246e7f914aa6d4a33170e43ecc8e3593481d1a604051610f4b90611f5f565b60405180910390a13373ffffffffffffffffffffffffffffffffffffffff168173ffffffffffffffffffffffffffffffffffffffff1614610fc1576040517f08c379a0000000000000000000000000000000000000000000000000000000008152600401610fb890611fed565b60405180910390fd5b7f7cdb51e9dbbc205231228146c3246e7f914aa6d4a33170e43ecc8e3593481d1a604051610fee90612055565b60405180910390a13073ffffffffffffffffffffffffffffffffffffffff1660055f9054906101000a900473ffffffffffffffffffffffffffffffffffffffff1673ffffffffffffffffffffffffffffffffffffffff1663081812fc856040518263ffffffff1660e01b81526004016110679190611ebd565b602060405180830381865afa158015611082573d5f803e3d5ffd5b505050506040513d601f19601f820116820180604052508101906110a69190611eea565b73ffffffffffffffffffffffffffffffffffffffff16148061115f575060055f9054906101000a900473ffffffffffffffffffffffffffffffffffffffff1673ffffffffffffffffffffffffffffffffffffffff1663e985e9c533306040518363ffffffff1660e01b815260040161111f929190612073565b602060405180830381865afa15801561113a573d5f803e3d5ffd5b505050506040513d601f19601f8201168201806040525081019061115e91906120cf565b5b61119e576040517f08c379a00000000000000000000000000000000000000000000000000000000081526004016111959061216a565b60405180910390fd5b7f7cdb51e9dbbc205231228146c3246e7f914aa6d4a33170e43ecc8e3593481d1a6040516111cb906121d2565b60405180910390a15f60035f856fffffffffffffffffffffffffffffffff1681526020019081526020015f205414611238576040517f08c379a000000000000000000000000000000000000000000000000000000000815260040161122f9061223a565b60405180910390fd5b5f833360405160200161124c9291906122d1565b604051602081830303815290604052805190602001205f1c905060405180606001604052803373ffffffffffffffffffffffffffffffffffffffff168152602001856fffffffffffffffffffffffffffffffff168152602001846fffffffffffffffffffffffffffffffff1681525060025f8381526020019081526020015f205f820151815f015f6101000a81548173ffffffffffffffffffffffffffffffffffffffff021916908373ffffffffffffffffffffffffffffffffffffffff1602179055506020820151816001015f6101000a8154816fffffffffffffffffffffffffffffffff02191690836fffffffffffffffffffffffffffffffff16021790555060408201518160010160106101000a8154816fffffffffffffffffffffffffffffffff02191690836fffffffffffffffffffffffffffffffff1602179055509050508060035f866fffffffffffffffffffffffffffffffff1681526020019081526020015f20819055507f7cdb51e9dbbc205231228146c3246e7f914aa6d4a33170e43ecc8e3593481d1a6040516113e590612346565b60405180910390a13373ffffffffffffffffffffffffffffffffffffffff16817fa3941cfa07eecf2734875ab71cea0e47395be644da6e17b039a7e29efba74ef986864260405161143893929190611ae3565b60405180910390a350505050565b60055f9054906101000a900473ffffffffffffffffffffffffffffffffffffffff1681565b6002602052805f5260405f205f91509050805f015f9054906101000a900473ffffffffffffffffffffffffffffffffffffffff1690806001015f9054906101000a90046fffffffffffffffffffffffffffffffff16908060010160109054906101000a90046fffffffffffffffffffffffffffffffff16905083565b6004602052805f5260405f205f915090505481565b5f80fd5b5f819050919050565b61151281611500565b811461151c575f80fd5b50565b5f8135905061152d81611509565b92915050565b5f60208284031215611548576115476114fc565b5b5f6115558482850161151f565b91505092915050565b5f73ffffffffffffffffffffffffffffffffffffffff82169050919050565b5f6115878261155e565b9050919050565b6115978161157d565b81146115a1575f80fd5b50565b5f813590506115b28161158e565b92915050565b5f80604083850312156115ce576115cd6114fc565b5b5f6115db858286016115a4565b92505060206115ec8582860161151f565b9150509250929050565b6115ff81611500565b82525050565b5f6020820190506116185f8301846115f6565b92915050565b5f819050919050565b5f61164161163c6116378461155e565b61161e565b61155e565b9050919050565b5f61165282611627565b9050919050565b5f61166382611648565b9050919050565b61167381611659565b82525050565b5f60208201905061168c5f83018461166a565b92915050565b5f602082840312156116a7576116a66114fc565b5b5f6116b4848285016115a4565b91505092915050565b5f6116c78261155e565b9050919050565b6116d7816116bd565b82525050565b5f6020820190506116f05f8301846116ce565b92915050565b5f6fffffffffffffffffffffffffffffffff82169050919050565b61171a816116f6565b8114611724575f80fd5b50565b5f8135905061173581611711565b92915050565b5f8060408385031215611751576117506114fc565b5b5f61175e85828601611727565b925050602061176f85828601611727565b9150509250929050565b5f61178382611648565b9050919050565b61179381611779565b82525050565b5f6020820190506117ac5f83018461178a565b92915050565b6117bb8161157d565b82525050565b6117ca816116f6565b82525050565b5f6060820190506117e35f8301866117b2565b6117f060208301856117c1565b6117fd60408301846117c1565b949350505050565b5f82825260208201905092915050565b7f5265656e7472616e742063616c6c0000000000000000000000000000000000005f82015250565b5f611849600e83611805565b915061185482611815565b602082019050919050565b5f6020820190508181035f8301526118768161183d565b9050919050565b7f496e76616c6964206f7220696e616374697665206c697374696e6700000000005f82015250565b5f6118b1601b83611805565b91506118bc8261187d565b602082019050919050565b5f6020820190508181035f8301526118de816118a5565b9050919050565b7f496e636f7272656374207061796d656e7420616d6f756e7400000000000000005f82015250565b5f611919601883611805565b9150611924826118e5565b602082019050919050565b5f6020820190508181035f8301526119468161190d565b9050919050565b7f4e487b71000000000000000000000000000000000000000000000000000000005f52601160045260245ffd5b5f61198482611500565b915061198f83611500565b925082820261199d81611500565b915082820484148315176119b4576119b361194d565b5b5092915050565b7f4e487b71000000000000000000000000000000000000000000000000000000005f52601260045260245ffd5b5f6119f282611500565b91506119fd83611500565b925082611a0d57611a0c6119bb565b5b828204905092915050565b5f611a2282611500565b9150611a2d83611500565b9250828203905081811115611a4557611a4461194d565b5b92915050565b5f611a65611a60611a5b846116f6565b61161e565b611500565b9050919050565b611a7581611a4b565b82525050565b5f606082019050611a8e5f8301866117b2565b611a9b60208301856117b2565b611aa86040830184611a6c565b949350505050565b5f611aba82611500565b9150611ac583611500565b9250828201905080821115611add57611adc61194d565b5b92915050565b5f606082019050611af65f830186611a6c565b611b036020830185611a6c565b611b1060408301846115f6565b949350505050565b7f4e6f2066756e647320746f2077697468647261770000000000000000000000005f82015250565b5f611b4c601483611805565b9150611b5782611b18565b602082019050919050565b5f6020820190508181035f830152611b7981611b40565b9050919050565b5f81905092915050565b50565b5f611b985f83611b80565b9150611ba382611b8a565b5f82019050919050565b5f611bb782611b8d565b9150819050919050565b7f5769746864726177206661696c656400000000000000000000000000000000005f82015250565b5f611bf5600f83611805565b9150611c0082611bc1565b602082019050919050565b5f6020820190508181035f830152611c2281611be9565b9050919050565b5f604082019050611c3c5f8301856117b2565b611c4960208301846115f6565b9392505050565b5f81519050611c5e81611509565b92915050565b5f60208284031215611c7957611c786114fc565b5b5f611c8684828501611c50565b91505092915050565b7f596f7520617265206e6f74207468652073656c6c6572000000000000000000005f82015250565b5f611cc3601683611805565b9150611cce82611c8f565b602082019050919050565b5f6020820190508181035f830152611cf081611cb7565b9050919050565b7f4f6e6c7920746865206f776e65722063616e20706572666f726d2074686973205f8201527f616374696f6e0000000000000000000000000000000000000000000000000000602082015250565b5f611d51602683611805565b9150611d5c82611cf7565b604082019050919050565b5f6020820190508181035f830152611d7e81611d45565b9050919050565b7f436f6d6d697373696f6e2063616e6e6f742065786365656420313030250000005f82015250565b5f611db9601d83611805565b9150611dc482611d85565b602082019050919050565b5f6020820190508181035f830152611de681611dad565b9050919050565b7f5072696365206d7573742062652067726561746572207468616e2030000000005f82015250565b5f611e21601c83611805565b9150611e2c82611ded565b602082019050919050565b5f6020820190508181035f830152611e4e81611e15565b9050919050565b7f50617373656420707269636520636865636b00000000000000000000000000005f82015250565b5f611e89601283611805565b9150611e9482611e55565b602082019050919050565b5f6020820190508181035f830152611eb681611e7d565b9050919050565b5f602082019050611ed05f830184611a6c565b92915050565b5f81519050611ee48161158e565b92915050565b5f60208284031215611eff57611efe6114fc565b5b5f611f0c84828501611ed6565b91505092915050565b7f4f776e65722072657472696576656400000000000000000000000000000000005f82015250565b5f611f49600f83611805565b9150611f5482611f15565b602082019050919050565b5f6020820190508181035f830152611f7681611f3d565b9050919050565b7f596f7520617265206e6f7420746865206f776e6572206f66207468697320746f5f8201527f6b656e0000000000000000000000000000000000000000000000000000000000602082015250565b5f611fd7602383611805565b9150611fe282611f7d565b604082019050919050565b5f6020820190508181035f83015261200481611fcb565b9050919050565b7f4f776e65727368697020766572696669656400000000000000000000000000005f82015250565b5f61203f601283611805565b915061204a8261200b565b602082019050919050565b5f6020820190508181035f83015261206c81612033565b9050919050565b5f6040820190506120865f8301856117b2565b61209360208301846117b2565b9392505050565b5f8115159050919050565b6120ae8161209a565b81146120b8575f80fd5b50565b5f815190506120c9816120a5565b92915050565b5f602082840312156120e4576120e36114fc565b5b5f6120f1848285016120bb565b91505092915050565b7f4d61726b6574706c616365206973206e6f7420617070726f76656420746f20745f8201527f72616e73666572207468697320746f6b656e0000000000000000000000000000602082015250565b5f612154603283611805565b915061215f826120fa565b604082019050919050565b5f6020820190508181035f83015261218181612148565b9050919050565b7f417070726f76616c2076657269666965640000000000000000000000000000005f82015250565b5f6121bc601183611805565b91506121c782612188565b602082019050919050565b5f6020820190508181035f8301526121e9816121b0565b9050919050565b7f546f6b656e20697320616c7265616479206c69737465640000000000000000005f82015250565b5f612224601783611805565b915061222f826121f0565b602082019050919050565b5f6020820190508181035f83015261225181612218565b9050919050565b5f8160801b9050919050565b5f61226e82612258565b9050919050565b612286612281826116f6565b612264565b82525050565b5f8160601b9050919050565b5f6122a28261228c565b9050919050565b5f6122b382612298565b9050919050565b6122cb6122c68261157d565b6122a9565b82525050565b5f6122dc8285612275565b6010820191506122ec82846122ba565b6014820191508190509392505050565b7f556e69717565206c697374696e672049442076657269666965640000000000005f82015250565b5f612330601a83611805565b915061233b826122fc565b602082019050919050565b5f6020820190508181035f83015261235d81612324565b905091905056fea2646970667358221220ec88218b5b3a72ac1c18abce736497c51074b4caa8b3f17834af4b596d48d69164736f6c63430008140033",
					"opcodes": "PUSH1 0x80 PUSH1 0x40 MSTORE PUSH1 0x1 PUSH1 0x7 SSTORE CALLVALUE DUP1 ISZERO PUSH3 0x15 JUMPI PUSH0 DUP1 REVERT JUMPDEST POP PUSH1 0x40 MLOAD PUSH3 0x2658 CODESIZE SUB DUP1 PUSH3 0x2658 DUP4 CODECOPY DUP2 DUP2 ADD PUSH1 0x40 MSTORE DUP2 ADD SWAP1 PUSH3 0x3B SWAP2 SWAP1 PUSH3 0x1ED JUMP JUMPDEST PUSH1 0x32 DUP2 GT ISZERO PUSH3 0x82 JUMPI PUSH1 0x40 MLOAD PUSH32 0x8C379A000000000000000000000000000000000000000000000000000000000 DUP2 MSTORE PUSH1 0x4 ADD PUSH3 0x79 SWAP1 PUSH3 0x290 JUMP JUMPDEST PUSH1 0x40 MLOAD DUP1 SWAP2 SUB SWAP1 REVERT JUMPDEST CALLER PUSH0 DUP1 PUSH2 0x100 EXP DUP2 SLOAD DUP2 PUSH20 0xFFFFFFFFFFFFFFFFFFFFFFFFFFFFFFFFFFFFFFFF MUL NOT AND SWAP1 DUP4 PUSH20 0xFFFFFFFFFFFFFFFFFFFFFFFFFFFFFFFFFFFFFFFF AND MUL OR SWAP1 SSTORE POP DUP2 PUSH1 0x5 PUSH0 PUSH2 0x100 EXP DUP2 SLOAD DUP2 PUSH20 0xFFFFFFFFFFFFFFFFFFFFFFFFFFFFFFFFFFFFFFFF MUL NOT AND SWAP1 DUP4 PUSH20 0xFFFFFFFFFFFFFFFFFFFFFFFFFFFFFFFFFFFFFFFF AND MUL OR SWAP1 SSTORE POP DUP2 PUSH1 0x6 PUSH0 PUSH2 0x100 EXP DUP2 SLOAD DUP2 PUSH20 0xFFFFFFFFFFFFFFFFFFFFFFFFFFFFFFFFFFFFFFFF MUL NOT AND SWAP1 DUP4 PUSH20 0xFFFFFFFFFFFFFFFFFFFFFFFFFFFFFFFFFFFFFFFF AND MUL OR SWAP1 SSTORE POP DUP1 PUSH1 0x1 DUP2 SWAP1 SSTORE POP POP POP PUSH3 0x2B0 JUMP JUMPDEST PUSH0 DUP1 REVERT JUMPDEST PUSH0 PUSH20 0xFFFFFFFFFFFFFFFFFFFFFFFFFFFFFFFFFFFFFFFF DUP3 AND SWAP1 POP SWAP2 SWAP1 POP JUMP JUMPDEST PUSH0 PUSH3 0x17F DUP3 PUSH3 0x154 JUMP JUMPDEST SWAP1 POP SWAP2 SWAP1 POP JUMP JUMPDEST PUSH3 0x191 DUP2 PUSH3 0x173 JUMP JUMPDEST DUP2 EQ PUSH3 0x19C JUMPI PUSH0 DUP1 REVERT JUMPDEST POP JUMP JUMPDEST PUSH0 DUP2 MLOAD SWAP1 POP PUSH3 0x1AF DUP2 PUSH3 0x186 JUMP JUMPDEST SWAP3 SWAP2 POP POP JUMP JUMPDEST PUSH0 DUP2 SWAP1 POP SWAP2 SWAP1 POP JUMP JUMPDEST PUSH3 0x1C9 DUP2 PUSH3 0x1B5 JUMP JUMPDEST DUP2 EQ PUSH3 0x1D4 JUMPI PUSH0 DUP1 REVERT JUMPDEST POP JUMP JUMPDEST PUSH0 DUP2 MLOAD SWAP1 POP PUSH3 0x1E7 DUP2 PUSH3 0x1BE JUMP JUMPDEST SWAP3 SWAP2 POP POP JUMP JUMPDEST PUSH0 DUP1 PUSH1 0x40 DUP4 DUP6 SUB SLT ISZERO PUSH3 0x206 JUMPI PUSH3 0x205 PUSH3 0x150 JUMP JUMPDEST JUMPDEST PUSH0 PUSH3 0x215 DUP6 DUP3 DUP7 ADD PUSH3 0x19F JUMP JUMPDEST SWAP3 POP POP PUSH1 0x20 PUSH3 0x228 DUP6 DUP3 DUP7 ADD PUSH3 0x1D7 JUMP JUMPDEST SWAP2 POP POP SWAP3 POP SWAP3 SWAP1 POP JUMP JUMPDEST PUSH0 DUP3 DUP3 MSTORE PUSH1 0x20 DUP3 ADD SWAP1 POP SWAP3 SWAP2 POP POP JUMP JUMPDEST PUSH32 0x436F6D6D697373696F6E2063616E6E6F74206578636565642035302500000000 PUSH0 DUP3 ADD MSTORE POP JUMP JUMPDEST PUSH0 PUSH3 0x278 PUSH1 0x1C DUP4 PUSH3 0x232 JUMP JUMPDEST SWAP2 POP PUSH3 0x285 DUP3 PUSH3 0x242 JUMP JUMPDEST PUSH1 0x20 DUP3 ADD SWAP1 POP SWAP2 SWAP1 POP JUMP JUMPDEST PUSH0 PUSH1 0x20 DUP3 ADD SWAP1 POP DUP2 DUP2 SUB PUSH0 DUP4 ADD MSTORE PUSH3 0x2A9 DUP2 PUSH3 0x26A JUMP JUMPDEST SWAP1 POP SWAP2 SWAP1 POP JUMP JUMPDEST PUSH2 0x239A DUP1 PUSH3 0x2BE PUSH0 CODECOPY PUSH0 RETURN INVALID PUSH1 0x80 PUSH1 0x40 MSTORE PUSH1 0x4 CALLDATASIZE LT PUSH2 0xC5 JUMPI PUSH0 CALLDATALOAD PUSH1 0xE0 SHR DUP1 PUSH4 0x70A08231 GT PUSH2 0x7E JUMPI DUP1 PUSH4 0x9ACAA6FB GT PUSH2 0x58 JUMPI DUP1 PUSH4 0x9ACAA6FB EQ PUSH2 0x248 JUMPI DUP1 PUSH4 0xD56D229D EQ PUSH2 0x270 JUMPI DUP1 PUSH4 0xDE74E57B EQ PUSH2 0x29A JUMPI DUP1 PUSH4 0xF3F43703 EQ PUSH2 0x2D8 JUMPI PUSH2 0xCC JUMP JUMPDEST DUP1 PUSH4 0x70A08231 EQ PUSH2 0x1B8 JUMPI DUP1 PUSH4 0x77D3550B EQ PUSH2 0x1F4 JUMPI DUP1 PUSH4 0x8DA5CB5B EQ PUSH2 0x21E JUMPI PUSH2 0xCC JUMP JUMPDEST DUP1 PUSH4 0x169D5A7D EQ PUSH2 0xD0 JUMPI DUP1 PUSH4 0x24600FC3 EQ PUSH2 0xEC JUMPI DUP1 PUSH4 0x2F745C59 EQ PUSH2 0x102 JUMPI DUP1 PUSH4 0x305A67A8 EQ PUSH2 0x13E JUMPI DUP1 PUSH4 0x404A9AB8 EQ PUSH2 0x166 JUMPI DUP1 PUSH4 0x51E61B25 EQ PUSH2 0x18E JUMPI PUSH2 0xCC JUMP JUMPDEST CALLDATASIZE PUSH2 0xCC JUMPI STOP JUMPDEST PUSH0 DUP1 REVERT JUMPDEST PUSH2 0xEA PUSH1 0x4 DUP1 CALLDATASIZE SUB DUP2 ADD SWAP1 PUSH2 0xE5 SWAP2 SWAP1 PUSH2 0x1533 JUMP JUMPDEST PUSH2 0x314 JUMP JUMPDEST STOP JUMPDEST CALLVALUE DUP1 ISZERO PUSH2 0xF7 JUMPI PUSH0 DUP1 REVERT JUMPDEST POP PUSH2 0x100 PUSH2 0x79F JUMP JUMPDEST STOP JUMPDEST CALLVALUE DUP1 ISZERO PUSH2 0x10D JUMPI PUSH0 DUP1 REVERT JUMPDEST POP PUSH2 0x128 PUSH1 0x4 DUP1 CALLDATASIZE SUB DUP2 ADD SWAP1 PUSH2 0x123 SWAP2 SWAP1 PUSH2 0x15B8 JUMP JUMPDEST PUSH2 0x9B2 JUMP JUMPDEST PUSH1 0x40 MLOAD PUSH2 0x135 SWAP2 SWAP1 PUSH2 0x1605 JUMP JUMPDEST PUSH1 0x40 MLOAD DUP1 SWAP2 SUB SWAP1 RETURN JUMPDEST CALLVALUE DUP1 ISZERO PUSH2 0x149 JUMPI PUSH0 DUP1 REVERT JUMPDEST POP PUSH2 0x164 PUSH1 0x4 DUP1 CALLDATASIZE SUB DUP2 ADD SWAP1 PUSH2 0x15F SWAP2 SWAP1 PUSH2 0x1533 JUMP JUMPDEST PUSH2 0xA56 JUMP JUMPDEST STOP JUMPDEST CALLVALUE DUP1 ISZERO PUSH2 0x171 JUMPI PUSH0 DUP1 REVERT JUMPDEST POP PUSH2 0x18C PUSH1 0x4 DUP1 CALLDATASIZE SUB DUP2 ADD SWAP1 PUSH2 0x187 SWAP2 SWAP1 PUSH2 0x1533 JUMP JUMPDEST PUSH2 0xC79 JUMP JUMPDEST STOP JUMPDEST CALLVALUE DUP1 ISZERO PUSH2 0x199 JUMPI PUSH0 DUP1 REVERT JUMPDEST POP PUSH2 0x1A2 PUSH2 0xD8B JUMP JUMPDEST PUSH1 0x40 MLOAD PUSH2 0x1AF SWAP2 SWAP1 PUSH2 0x1679 JUMP JUMPDEST PUSH1 0x40 MLOAD DUP1 SWAP2 SUB SWAP1 RETURN JUMPDEST CALLVALUE DUP1 ISZERO PUSH2 0x1C3 JUMPI PUSH0 DUP1 REVERT JUMPDEST POP PUSH2 0x1DE PUSH1 0x4 DUP1 CALLDATASIZE SUB DUP2 ADD SWAP1 PUSH2 0x1D9 SWAP2 SWAP1 PUSH2 0x1692 JUMP JUMPDEST PUSH2 0xDB0 JUMP JUMPDEST PUSH1 0x40 MLOAD PUSH2 0x1EB SWAP2 SWAP1 PUSH2 0x1605 JUMP JUMPDEST PUSH1 0x40 MLOAD DUP1 SWAP2 SUB SWAP1 RETURN JUMPDEST CALLVALUE DUP1 ISZERO PUSH2 0x1FF JUMPI PUSH0 DUP1 REVERT JUMPDEST POP PUSH2 0x208 PUSH2 0xDD0 JUMP JUMPDEST PUSH1 0x40 MLOAD PUSH2 0x215 SWAP2 SWAP1 PUSH2 0x1605 JUMP JUMPDEST PUSH1 0x40 MLOAD DUP1 SWAP2 SUB SWAP1 RETURN JUMPDEST CALLVALUE DUP1 ISZERO PUSH2 0x229 JUMPI PUSH0 DUP1 REVERT JUMPDEST POP PUSH2 0x232 PUSH2 0xDD6 JUMP JUMPDEST PUSH1 0x40 MLOAD PUSH2 0x23F SWAP2 SWAP1 PUSH2 0x16DD JUMP JUMPDEST PUSH1 0x40 MLOAD DUP1 SWAP2 SUB SWAP1 RETURN JUMPDEST CALLVALUE DUP1 ISZERO PUSH2 0x253 JUMPI PUSH0 DUP1 REVERT JUMPDEST POP PUSH2 0x26E PUSH1 0x4 DUP1 CALLDATASIZE SUB DUP2 ADD SWAP1 PUSH2 0x269 SWAP2 SWAP1 PUSH2 0x173B JUMP JUMPDEST PUSH2 0xDF9 JUMP JUMPDEST STOP JUMPDEST CALLVALUE DUP1 ISZERO PUSH2 0x27B JUMPI PUSH0 DUP1 REVERT JUMPDEST POP PUSH2 0x284 PUSH2 0x1446 JUMP JUMPDEST PUSH1 0x40 MLOAD PUSH2 0x291 SWAP2 SWAP1 PUSH2 0x1799 JUMP JUMPDEST PUSH1 0x40 MLOAD DUP1 SWAP2 SUB SWAP1 RETURN JUMPDEST CALLVALUE DUP1 ISZERO PUSH2 0x2A5 JUMPI PUSH0 DUP1 REVERT JUMPDEST POP PUSH2 0x2C0 PUSH1 0x4 DUP1 CALLDATASIZE SUB DUP2 ADD SWAP1 PUSH2 0x2BB SWAP2 SWAP1 PUSH2 0x1533 JUMP JUMPDEST PUSH2 0x146B JUMP JUMPDEST PUSH1 0x40 MLOAD PUSH2 0x2CF SWAP4 SWAP3 SWAP2 SWAP1 PUSH2 0x17D0 JUMP JUMPDEST PUSH1 0x40 MLOAD DUP1 SWAP2 SUB SWAP1 RETURN JUMPDEST CALLVALUE DUP1 ISZERO PUSH2 0x2E3 JUMPI PUSH0 DUP1 REVERT JUMPDEST POP PUSH2 0x2FE PUSH1 0x4 DUP1 CALLDATASIZE SUB DUP2 ADD SWAP1 PUSH2 0x2F9 SWAP2 SWAP1 PUSH2 0x1692 JUMP JUMPDEST PUSH2 0x14E7 JUMP JUMPDEST PUSH1 0x40 MLOAD PUSH2 0x30B SWAP2 SWAP1 PUSH2 0x1605 JUMP JUMPDEST PUSH1 0x40 MLOAD DUP1 SWAP2 SUB SWAP1 RETURN JUMPDEST PUSH1 0x1 PUSH1 0x7 SLOAD EQ PUSH2 0x359 JUMPI PUSH1 0x40 MLOAD PUSH32 0x8C379A000000000000000000000000000000000000000000000000000000000 DUP2 MSTORE PUSH1 0x4 ADD PUSH2 0x350 SWAP1 PUSH2 0x185F JUMP JUMPDEST PUSH1 0x40 MLOAD DUP1 SWAP2 SUB SWAP1 REVERT JUMPDEST PUSH0 PUSH1 0x7 DUP2 SWAP1 SSTORE POP PUSH0 PUSH1 0x2 PUSH0 DUP4 DUP2 MSTORE PUSH1 0x20 ADD SWAP1 DUP2 MSTORE PUSH1 0x20 ADD PUSH0 KECCAK256 SWAP1 POP PUSH0 DUP2 PUSH1 0x1 ADD PUSH1 0x10 SWAP1 SLOAD SWAP1 PUSH2 0x100 EXP SWAP1 DIV PUSH16 0xFFFFFFFFFFFFFFFFFFFFFFFFFFFFFFFF AND PUSH16 0xFFFFFFFFFFFFFFFFFFFFFFFFFFFFFFFF AND GT PUSH2 0x3E8 JUMPI PUSH1 0x40 MLOAD PUSH32 0x8C379A000000000000000000000000000000000000000000000000000000000 DUP2 MSTORE PUSH1 0x4 ADD PUSH2 0x3DF SWAP1 PUSH2 0x18C7 JUMP JUMPDEST PUSH1 0x40 MLOAD DUP1 SWAP2 SUB SWAP1 REVERT JUMPDEST DUP1 PUSH1 0x1 ADD PUSH1 0x10 SWAP1 SLOAD SWAP1 PUSH2 0x100 EXP SWAP1 DIV PUSH16 0xFFFFFFFFFFFFFFFFFFFFFFFFFFFFFFFF AND PUSH16 0xFFFFFFFFFFFFFFFFFFFFFFFFFFFFFFFF AND CALLVALUE EQ PUSH2 0x45C JUMPI PUSH1 0x40 MLOAD PUSH32 0x8C379A000000000000000000000000000000000000000000000000000000000 DUP2 MSTORE PUSH1 0x4 ADD PUSH2 0x453 SWAP1 PUSH2 0x192F JUMP JUMPDEST PUSH1 0x40 MLOAD DUP1 SWAP2 SUB SWAP1 REVERT JUMPDEST PUSH0 PUSH1 0x64 PUSH1 0x1 SLOAD CALLVALUE PUSH2 0x46D SWAP2 SWAP1 PUSH2 0x197A JUMP JUMPDEST PUSH2 0x477 SWAP2 SWAP1 PUSH2 0x19E8 JUMP JUMPDEST SWAP1 POP PUSH0 DUP2 CALLVALUE PUSH2 0x486 SWAP2 SWAP1 PUSH2 0x1A18 JUMP JUMPDEST SWAP1 POP PUSH1 0x5 PUSH0 SWAP1 SLOAD SWAP1 PUSH2 0x100 EXP SWAP1 DIV PUSH20 0xFFFFFFFFFFFFFFFFFFFFFFFFFFFFFFFFFFFFFFFF AND PUSH20 0xFFFFFFFFFFFFFFFFFFFFFFFFFFFFFFFFFFFFFFFF AND PUSH4 0x42842E0E DUP5 PUSH0 ADD PUSH0 SWAP1 SLOAD SWAP1 PUSH2 0x100 EXP SWAP1 DIV PUSH20 0xFFFFFFFFFFFFFFFFFFFFFFFFFFFFFFFFFFFFFFFF AND CALLER DUP7 PUSH1 0x1 ADD PUSH0 SWAP1 SLOAD SWAP1 PUSH2 0x100 EXP SWAP1 DIV PUSH16 0xFFFFFFFFFFFFFFFFFFFFFFFFFFFFFFFF AND PUSH1 0x40 MLOAD DUP5 PUSH4 0xFFFFFFFF AND PUSH1 0xE0 SHL DUP2 MSTORE PUSH1 0x4 ADD PUSH2 0x527 SWAP4 SWAP3 SWAP2 SWAP1 PUSH2 0x1A7B JUMP JUMPDEST PUSH0 PUSH1 0x40 MLOAD DUP1 DUP4 SUB DUP2 PUSH0 DUP8 DUP1 EXTCODESIZE ISZERO DUP1 ISZERO PUSH2 0x53E JUMPI PUSH0 DUP1 REVERT JUMPDEST POP GAS CALL ISZERO DUP1 ISZERO PUSH2 0x550 JUMPI RETURNDATASIZE PUSH0 DUP1 RETURNDATACOPY RETURNDATASIZE PUSH0 REVERT JUMPDEST POP POP POP POP DUP2 PUSH1 0x4 PUSH0 DUP1 PUSH0 SWAP1 SLOAD SWAP1 PUSH2 0x100 EXP SWAP1 DIV PUSH20 0xFFFFFFFFFFFFFFFFFFFFFFFFFFFFFFFFFFFFFFFF AND PUSH20 0xFFFFFFFFFFFFFFFFFFFFFFFFFFFFFFFFFFFFFFFF AND PUSH20 0xFFFFFFFFFFFFFFFFFFFFFFFFFFFFFFFFFFFFFFFF AND DUP2 MSTORE PUSH1 0x20 ADD SWAP1 DUP2 MSTORE PUSH1 0x20 ADD PUSH0 KECCAK256 PUSH0 DUP3 DUP3 SLOAD PUSH2 0x5C0 SWAP2 SWAP1 PUSH2 0x1AB0 JUMP JUMPDEST SWAP3 POP POP DUP2 SWAP1 SSTORE POP DUP1 PUSH1 0x4 PUSH0 DUP6 PUSH0 ADD PUSH0 SWAP1 SLOAD SWAP1 PUSH2 0x100 EXP SWAP1 DIV PUSH20 0xFFFFFFFFFFFFFFFFFFFFFFFFFFFFFFFFFFFFFFFF AND PUSH20 0xFFFFFFFFFFFFFFFFFFFFFFFFFFFFFFFFFFFFFFFF AND PUSH20 0xFFFFFFFFFFFFFFFFFFFFFFFFFFFFFFFFFFFFFFFF AND DUP2 MSTORE PUSH1 0x20 ADD SWAP1 DUP2 MSTORE PUSH1 0x20 ADD PUSH0 KECCAK256 PUSH0 DUP3 DUP3 SLOAD PUSH2 0x635 SWAP2 SWAP1 PUSH2 0x1AB0 JUMP JUMPDEST SWAP3 POP POP DUP2 SWAP1 SSTORE POP CALLER PUSH20 0xFFFFFFFFFFFFFFFFFFFFFFFFFFFFFFFFFFFFFFFF AND DUP5 PUSH32 0xE29B93709A7AC5E91A6057482D1DF985483725988417E08DEC23377234003C80 DUP6 PUSH1 0x1 ADD PUSH0 SWAP1 SLOAD SWAP1 PUSH2 0x100 EXP SWAP1 DIV PUSH16 0xFFFFFFFFFFFFFFFFFFFFFFFFFFFFFFFF AND DUP7 PUSH1 0x1 ADD PUSH1 0x10 SWAP1 SLOAD SWAP1 PUSH2 0x100 EXP SWAP1 DIV PUSH16 0xFFFFFFFFFFFFFFFFFFFFFFFFFFFFFFFF AND TIMESTAMP PUSH1 0x40 MLOAD PUSH2 0x6C6 SWAP4 SWAP3 SWAP2 SWAP1 PUSH2 0x1AE3 JUMP JUMPDEST PUSH1 0x40 MLOAD DUP1 SWAP2 SUB SWAP1 LOG3 PUSH1 0x2 PUSH0 DUP6 DUP2 MSTORE PUSH1 0x20 ADD SWAP1 DUP2 MSTORE PUSH1 0x20 ADD PUSH0 KECCAK256 PUSH0 DUP1 DUP3 ADD PUSH0 PUSH2 0x100 EXP DUP2 SLOAD SWAP1 PUSH20 0xFFFFFFFFFFFFFFFFFFFFFFFFFFFFFFFFFFFFFFFF MUL NOT AND SWAP1 SSTORE PUSH1 0x1 DUP3 ADD PUSH0 PUSH2 0x100 EXP DUP2 SLOAD SWAP1 PUSH16 0xFFFFFFFFFFFFFFFFFFFFFFFFFFFFFFFF MUL NOT AND SWAP1 SSTORE PUSH1 0x1 DUP3 ADD PUSH1 0x10 PUSH2 0x100 EXP DUP2 SLOAD SWAP1 PUSH16 0xFFFFFFFFFFFFFFFFFFFFFFFFFFFFFFFF MUL NOT AND SWAP1 SSTORE POP POP PUSH1 0x3 PUSH0 DUP5 PUSH1 0x1 ADD PUSH0 SWAP1 SLOAD SWAP1 PUSH2 0x100 EXP SWAP1 DIV PUSH16 0xFFFFFFFFFFFFFFFFFFFFFFFFFFFFFFFF AND PUSH16 0xFFFFFFFFFFFFFFFFFFFFFFFFFFFFFFFF AND DUP2 MSTORE PUSH1 0x20 ADD SWAP1 DUP2 MSTORE PUSH1 0x20 ADD PUSH0 KECCAK256 PUSH0 SWAP1 SSTORE POP POP POP PUSH1 0x1 PUSH1 0x7 DUP2 SWAP1 SSTORE POP POP JUMP JUMPDEST PUSH1 0x1 PUSH1 0x7 SLOAD EQ PUSH2 0x7E4 JUMPI PUSH1 0x40 MLOAD PUSH32 0x8C379A000000000000000000000000000000000000000000000000000000000 DUP2 MSTORE PUSH1 0x4 ADD PUSH2 0x7DB SWAP1 PUSH2 0x185F JUMP JUMPDEST PUSH1 0x40 MLOAD DUP1 SWAP2 SUB SWAP1 REVERT JUMPDEST PUSH0 PUSH1 0x7 DUP2 SWAP1 SSTORE POP PUSH0 PUSH1 0x4 PUSH0 CALLER PUSH20 0xFFFFFFFFFFFFFFFFFFFFFFFFFFFFFFFFFFFFFFFF AND PUSH20 0xFFFFFFFFFFFFFFFFFFFFFFFFFFFFFFFFFFFFFFFF AND DUP2 MSTORE PUSH1 0x20 ADD SWAP1 DUP2 MSTORE PUSH1 0x20 ADD PUSH0 KECCAK256 SLOAD SWAP1 POP PUSH0 DUP2 GT PUSH2 0x86E JUMPI PUSH1 0x40 MLOAD PUSH32 0x8C379A000000000000000000000000000000000000000000000000000000000 DUP2 MSTORE PUSH1 0x4 ADD PUSH2 0x865 SWAP1 PUSH2 0x1B62 JUMP JUMPDEST PUSH1 0x40 MLOAD DUP1 SWAP2 SUB SWAP1 REVERT JUMPDEST PUSH0 PUSH1 0x4 PUSH0 CALLER PUSH20 0xFFFFFFFFFFFFFFFFFFFFFFFFFFFFFFFFFFFFFFFF AND PUSH20 0xFFFFFFFFFFFFFFFFFFFFFFFFFFFFFFFFFFFFFFFF AND DUP2 MSTORE PUSH1 0x20 ADD SWAP1 DUP2 MSTORE PUSH1 0x20 ADD PUSH0 KECCAK256 DUP2 SWAP1 SSTORE POP PUSH0 CALLER PUSH20 0xFFFFFFFFFFFFFFFFFFFFFFFFFFFFFFFFFFFFFFFF AND DUP3 PUSH1 0x40 MLOAD PUSH2 0x8D5 SWAP1 PUSH2 0x1BAD JUMP JUMPDEST PUSH0 PUSH1 0x40 MLOAD DUP1 DUP4 SUB DUP2 DUP6 DUP8 GAS CALL SWAP3 POP POP POP RETURNDATASIZE DUP1 PUSH0 DUP2 EQ PUSH2 0x90F JUMPI PUSH1 0x40 MLOAD SWAP2 POP PUSH1 0x1F NOT PUSH1 0x3F RETURNDATASIZE ADD AND DUP3 ADD PUSH1 0x40 MSTORE RETURNDATASIZE DUP3 MSTORE RETURNDATASIZE PUSH0 PUSH1 0x20 DUP5 ADD RETURNDATACOPY PUSH2 0x914 JUMP JUMPDEST PUSH1 0x60 SWAP2 POP JUMPDEST POP POP SWAP1 POP DUP1 PUSH2 0x958 JUMPI PUSH1 0x40 MLOAD PUSH32 0x8C379A000000000000000000000000000000000000000000000000000000000 DUP2 MSTORE PUSH1 0x4 ADD PUSH2 0x94F SWAP1 PUSH2 0x1C0B JUMP JUMPDEST PUSH1 0x40 MLOAD DUP1 SWAP2 SUB SWAP1 REVERT JUMPDEST CALLER PUSH20 0xFFFFFFFFFFFFFFFFFFFFFFFFFFFFFFFFFFFFFFFF AND PUSH32 0x6141B54B56B8A52A8C6F5CD2A857F6117B18FFBF4D46BD3106F300A839CBF5EA DUP4 PUSH1 0x40 MLOAD PUSH2 0x99E SWAP2 SWAP1 PUSH2 0x1605 JUMP JUMPDEST PUSH1 0x40 MLOAD DUP1 SWAP2 SUB SWAP1 LOG2 POP POP PUSH1 0x1 PUSH1 0x7 DUP2 SWAP1 SSTORE POP JUMP JUMPDEST PUSH0 PUSH1 0x6 PUSH0 SWAP1 SLOAD SWAP1 PUSH2 0x100 EXP SWAP1 DIV PUSH20 0xFFFFFFFFFFFFFFFFFFFFFFFFFFFFFFFFFFFFFFFF AND PUSH20 0xFFFFFFFFFFFFFFFFFFFFFFFFFFFFFFFFFFFFFFFF AND PUSH4 0x2F745C59 DUP5 DUP5 PUSH1 0x40 MLOAD DUP4 PUSH4 0xFFFFFFFF AND PUSH1 0xE0 SHL DUP2 MSTORE PUSH1 0x4 ADD PUSH2 0xA0F SWAP3 SWAP2 SWAP1 PUSH2 0x1C29 JUMP JUMPDEST PUSH1 0x20 PUSH1 0x40 MLOAD DUP1 DUP4 SUB DUP2 DUP7 GAS STATICCALL ISZERO DUP1 ISZERO PUSH2 0xA2A JUMPI RETURNDATASIZE PUSH0 DUP1 RETURNDATACOPY RETURNDATASIZE PUSH0 REVERT JUMPDEST POP POP POP POP PUSH1 0x40 MLOAD RETURNDATASIZE PUSH1 0x1F NOT PUSH1 0x1F DUP3 ADD AND DUP3 ADD DUP1 PUSH1 0x40 MSTORE POP DUP2 ADD SWAP1 PUSH2 0xA4E SWAP2 SWAP1 PUSH2 0x1C64 JUMP JUMPDEST SWAP1 POP SWAP3 SWAP2 POP POP JUMP JUMPDEST PUSH0 PUSH1 0x2 PUSH0 DUP4 DUP2 MSTORE PUSH1 0x20 ADD SWAP1 DUP2 MSTORE PUSH1 0x20 ADD PUSH0 KECCAK256 SWAP1 POP PUSH0 DUP2 PUSH1 0x1 ADD PUSH1 0x10 SWAP1 SLOAD SWAP1 PUSH2 0x100 EXP SWAP1 DIV PUSH16 0xFFFFFFFFFFFFFFFFFFFFFFFFFFFFFFFF AND PUSH16 0xFFFFFFFFFFFFFFFFFFFFFFFFFFFFFFFF AND GT PUSH2 0xADE JUMPI PUSH1 0x40 MLOAD PUSH32 0x8C379A000000000000000000000000000000000000000000000000000000000 DUP2 MSTORE PUSH1 0x4 ADD PUSH2 0xAD5 SWAP1 PUSH2 0x18C7 JUMP JUMPDEST PUSH1 0x40 MLOAD DUP1 SWAP2 SUB SWAP1 REVERT JUMPDEST CALLER PUSH20 0xFFFFFFFFFFFFFFFFFFFFFFFFFFFFFFFFFFFFFFFF AND DUP2 PUSH0 ADD PUSH0 SWAP1 SLOAD SWAP1 PUSH2 0x100 EXP SWAP1 DIV PUSH20 0xFFFFFFFFFFFFFFFFFFFFFFFFFFFFFFFFFFFFFFFF AND PUSH20 0xFFFFFFFFFFFFFFFFFFFFFFFFFFFFFFFFFFFFFFFF AND EQ PUSH2 0xB6E JUMPI PUSH1 0x40 MLOAD PUSH32 0x8C379A000000000000000000000000000000000000000000000000000000000 DUP2 MSTORE PUSH1 0x4 ADD PUSH2 0xB65 SWAP1 PUSH2 0x1CD9 JUMP JUMPDEST PUSH1 0x40 MLOAD DUP1 SWAP2 SUB SWAP1 REVERT JUMPDEST PUSH1 0x2 PUSH0 DUP4 DUP2 MSTORE PUSH1 0x20 ADD SWAP1 DUP2 MSTORE PUSH1 0x20 ADD PUSH0 KECCAK256 PUSH0 DUP1 DUP3 ADD PUSH0 PUSH2 0x100 EXP DUP2 SLOAD SWAP1 PUSH20 0xFFFFFFFFFFFFFFFFFFFFFFFFFFFFFFFFFFFFFFFF MUL NOT AND SWAP1 SSTORE PUSH1 0x1 DUP3 ADD PUSH0 PUSH2 0x100 EXP DUP2 SLOAD SWAP1 PUSH16 0xFFFFFFFFFFFFFFFFFFFFFFFFFFFFFFFF MUL NOT AND SWAP1 SSTORE PUSH1 0x1 DUP3 ADD PUSH1 0x10 PUSH2 0x100 EXP DUP2 SLOAD SWAP1 PUSH16 0xFFFFFFFFFFFFFFFFFFFFFFFFFFFFFFFF MUL NOT AND SWAP1 SSTORE POP POP PUSH1 0x3 PUSH0 DUP3 PUSH1 0x1 ADD PUSH0 SWAP1 SLOAD SWAP1 PUSH2 0x100 EXP SWAP1 DIV PUSH16 0xFFFFFFFFFFFFFFFFFFFFFFFFFFFFFFFF AND PUSH16 0xFFFFFFFFFFFFFFFFFFFFFFFFFFFFFFFF AND DUP2 MSTORE PUSH1 0x20 ADD SWAP1 DUP2 MSTORE PUSH1 0x20 ADD PUSH0 KECCAK256 PUSH0 SWAP1 SSTORE CALLER PUSH20 0xFFFFFFFFFFFFFFFFFFFFFFFFFFFFFFFFFFFFFFFF AND DUP3 PUSH32 0x8E25282255AB31897DF2B0456BB993AC7F84D376861AEFD84901D2D63A7428A2 PUSH1 0x40 MLOAD PUSH1 0x40 MLOAD DUP1 SWAP2 SUB SWAP1 LOG3 POP POP JUMP JUMPDEST PUSH0 DUP1 SLOAD SWAP1 PUSH2 0x100 EXP SWAP1 DIV PUSH20 0xFFFFFFFFFFFFFFFFFFFFFFFFFFFFFFFFFFFFFFFF AND PUSH20 0xFFFFFFFFFFFFFFFFFFFFFFFFFFFFFFFFFFFFFFFF AND CALLER PUSH20 0xFFFFFFFFFFFFFFFFFFFFFFFFFFFFFFFFFFFFFFFF AND EQ PUSH2 0xD06 JUMPI PUSH1 0x40 MLOAD PUSH32 0x8C379A000000000000000000000000000000000000000000000000000000000 DUP2 MSTORE PUSH1 0x4 ADD PUSH2 0xCFD SWAP1 PUSH2 0x1D67 JUMP JUMPDEST PUSH1 0x40 MLOAD DUP1 SWAP2 SUB SWAP1 REVERT JUMPDEST PUSH1 0x32 DUP2 GT ISZERO PUSH2 0xD4A JUMPI PUSH1 0x40 MLOAD PUSH32 0x8C379A000000000000000000000000000000000000000000000000000000000 DUP2 MSTORE PUSH1 0x4 ADD PUSH2 0xD41 SWAP1 PUSH2 0x1DCF JUMP JUMPDEST PUSH1 0x40 MLOAD DUP1 SWAP2 SUB SWAP1 REVERT JUMPDEST DUP1 PUSH1 0x1 DUP2 SWAP1 SSTORE POP PUSH32 0x13F60DD2B588490608C3FF1932A3DAEB4087F3D5AF04B97E5C2A16B5B4C0302E DUP2 PUSH1 0x40 MLOAD PUSH2 0xD80 SWAP2 SWAP1 PUSH2 0x1605 JUMP JUMPDEST PUSH1 0x40 MLOAD DUP1 SWAP2 SUB SWAP1 LOG1 POP JUMP JUMPDEST PUSH1 0x6 PUSH0 SWAP1 SLOAD SWAP1 PUSH2 0x100 EXP SWAP1 DIV PUSH20 0xFFFFFFFFFFFFFFFFFFFFFFFFFFFFFFFFFFFFFFFF AND DUP2 JUMP JUMPDEST PUSH0 DUP2 PUSH20 0xFFFFFFFFFFFFFFFFFFFFFFFFFFFFFFFFFFFFFFFF AND BALANCE SWAP1 POP SWAP2 SWAP1 POP JUMP JUMPDEST PUSH1 0x1 SLOAD DUP2 JUMP JUMPDEST PUSH0 DUP1 SLOAD SWAP1 PUSH2 0x100 EXP SWAP1 DIV PUSH20 0xFFFFFFFFFFFFFFFFFFFFFFFFFFFFFFFFFFFFFFFF AND DUP2 JUMP JUMPDEST PUSH0 DUP2 PUSH16 0xFFFFFFFFFFFFFFFFFFFFFFFFFFFFFFFF AND GT PUSH2 0xE4D JUMPI PUSH1 0x40 MLOAD PUSH32 0x8C379A000000000000000000000000000000000000000000000000000000000 DUP2 MSTORE PUSH1 0x4 ADD PUSH2 0xE44 SWAP1 PUSH2 0x1E37 JUMP JUMPDEST PUSH1 0x40 MLOAD DUP1 SWAP2 SUB SWAP1 REVERT JUMPDEST PUSH32 0x7CDB51E9DBBC205231228146C3246E7F914AA6D4A33170E43ECC8E3593481D1A PUSH1 0x40 MLOAD PUSH2 0xE7A SWAP1 PUSH2 0x1E9F JUMP JUMPDEST PUSH1 0x40 MLOAD DUP1 SWAP2 SUB SWAP1 LOG1 PUSH0 PUSH1 0x5 PUSH0 SWAP1 SLOAD SWAP1 PUSH2 0x100 EXP SWAP1 DIV PUSH20 0xFFFFFFFFFFFFFFFFFFFFFFFFFFFFFFFFFFFFFFFF AND PUSH20 0xFFFFFFFFFFFFFFFFFFFFFFFFFFFFFFFFFFFFFFFF AND PUSH4 0x6352211E DUP5 PUSH1 0x40 MLOAD DUP3 PUSH4 0xFFFFFFFF AND PUSH1 0xE0 SHL DUP2 MSTORE PUSH1 0x4 ADD PUSH2 0xEDD SWAP2 SWAP1 PUSH2 0x1EBD JUMP JUMPDEST PUSH1 0x20 PUSH1 0x40 MLOAD DUP1 DUP4 SUB DUP2 DUP7 GAS STATICCALL ISZERO DUP1 ISZERO PUSH2 0xEF8 JUMPI RETURNDATASIZE PUSH0 DUP1 RETURNDATACOPY RETURNDATASIZE PUSH0 REVERT JUMPDEST POP POP POP POP PUSH1 0x40 MLOAD RETURNDATASIZE PUSH1 0x1F NOT PUSH1 0x1F DUP3 ADD AND DUP3 ADD DUP1 PUSH1 0x40 MSTORE POP DUP2 ADD SWAP1 PUSH2 0xF1C SWAP2 SWAP1 PUSH2 0x1EEA JUMP JUMPDEST SWAP1 POP PUSH32 0x7CDB51E9DBBC205231228146C3246E7F914AA6D4A33170E43ECC8E3593481D1A PUSH1 0x40 MLOAD PUSH2 0xF4B SWAP1 PUSH2 0x1F5F JUMP JUMPDEST PUSH1 0x40 MLOAD DUP1 SWAP2 SUB SWAP1 LOG1 CALLER PUSH20 0xFFFFFFFFFFFFFFFFFFFFFFFFFFFFFFFFFFFFFFFF AND DUP2 PUSH20 0xFFFFFFFFFFFFFFFFFFFFFFFFFFFFFFFFFFFFFFFF AND EQ PUSH2 0xFC1 JUMPI PUSH1 0x40 MLOAD PUSH32 0x8C379A000000000000000000000000000000000000000000000000000000000 DUP2 MSTORE PUSH1 0x4 ADD PUSH2 0xFB8 SWAP1 PUSH2 0x1FED JUMP JUMPDEST PUSH1 0x40 MLOAD DUP1 SWAP2 SUB SWAP1 REVERT JUMPDEST PUSH32 0x7CDB51E9DBBC205231228146C3246E7F914AA6D4A33170E43ECC8E3593481D1A PUSH1 0x40 MLOAD PUSH2 0xFEE SWAP1 PUSH2 0x2055 JUMP JUMPDEST PUSH1 0x40 MLOAD DUP1 SWAP2 SUB SWAP1 LOG1 ADDRESS PUSH20 0xFFFFFFFFFFFFFFFFFFFFFFFFFFFFFFFFFFFFFFFF AND PUSH1 0x5 PUSH0 SWAP1 SLOAD SWAP1 PUSH2 0x100 EXP SWAP1 DIV PUSH20 0xFFFFFFFFFFFFFFFFFFFFFFFFFFFFFFFFFFFFFFFF AND PUSH20 0xFFFFFFFFFFFFFFFFFFFFFFFFFFFFFFFFFFFFFFFF AND PUSH4 0x81812FC DUP6 PUSH1 0x40 MLOAD DUP3 PUSH4 0xFFFFFFFF AND PUSH1 0xE0 SHL DUP2 MSTORE PUSH1 0x4 ADD PUSH2 0x1067 SWAP2 SWAP1 PUSH2 0x1EBD JUMP JUMPDEST PUSH1 0x20 PUSH1 0x40 MLOAD DUP1 DUP4 SUB DUP2 DUP7 GAS STATICCALL ISZERO DUP1 ISZERO PUSH2 0x1082 JUMPI RETURNDATASIZE PUSH0 DUP1 RETURNDATACOPY RETURNDATASIZE PUSH0 REVERT JUMPDEST POP POP POP POP PUSH1 0x40 MLOAD RETURNDATASIZE PUSH1 0x1F NOT PUSH1 0x1F DUP3 ADD AND DUP3 ADD DUP1 PUSH1 0x40 MSTORE POP DUP2 ADD SWAP1 PUSH2 0x10A6 SWAP2 SWAP1 PUSH2 0x1EEA JUMP JUMPDEST PUSH20 0xFFFFFFFFFFFFFFFFFFFFFFFFFFFFFFFFFFFFFFFF AND EQ DUP1 PUSH2 0x115F JUMPI POP PUSH1 0x5 PUSH0 SWAP1 SLOAD SWAP1 PUSH2 0x100 EXP SWAP1 DIV PUSH20 0xFFFFFFFFFFFFFFFFFFFFFFFFFFFFFFFFFFFFFFFF AND PUSH20 0xFFFFFFFFFFFFFFFFFFFFFFFFFFFFFFFFFFFFFFFF AND PUSH4 0xE985E9C5 CALLER ADDRESS PUSH1 0x40 MLOAD DUP4 PUSH4 0xFFFFFFFF AND PUSH1 0xE0 SHL DUP2 MSTORE PUSH1 0x4 ADD PUSH2 0x111F SWAP3 SWAP2 SWAP1 PUSH2 0x2073 JUMP JUMPDEST PUSH1 0x20 PUSH1 0x40 MLOAD DUP1 DUP4 SUB DUP2 DUP7 GAS STATICCALL ISZERO DUP1 ISZERO PUSH2 0x113A JUMPI RETURNDATASIZE PUSH0 DUP1 RETURNDATACOPY RETURNDATASIZE PUSH0 REVERT JUMPDEST POP POP POP POP PUSH1 0x40 MLOAD RETURNDATASIZE PUSH1 0x1F NOT PUSH1 0x1F DUP3 ADD AND DUP3 ADD DUP1 PUSH1 0x40 MSTORE POP DUP2 ADD SWAP1 PUSH2 0x115E SWAP2 SWAP1 PUSH2 0x20CF JUMP JUMPDEST JUMPDEST PUSH2 0x119E JUMPI PUSH1 0x40 MLOAD PUSH32 0x8C379A000000000000000000000000000000000000000000000000000000000 DUP2 MSTORE PUSH1 0x4 ADD PUSH2 0x1195 SWAP1 PUSH2 0x216A JUMP JUMPDEST PUSH1 0x40 MLOAD DUP1 SWAP2 SUB SWAP1 REVERT JUMPDEST PUSH32 0x7CDB51E9DBBC205231228146C3246E7F914AA6D4A33170E43ECC8E3593481D1A PUSH1 0x40 MLOAD PUSH2 0x11CB SWAP1 PUSH2 0x21D2 JUMP JUMPDEST PUSH1 0x40 MLOAD DUP1 SWAP2 SUB SWAP1 LOG1 PUSH0 PUSH1 0x3 PUSH0 DUP6 PUSH16 0xFFFFFFFFFFFFFFFFFFFFFFFFFFFFFFFF AND DUP2 MSTORE PUSH1 0x20 ADD SWAP1 DUP2 MSTORE PUSH1 0x20 ADD PUSH0 KECCAK256 SLOAD EQ PUSH2 0x1238 JUMPI PUSH1 0x40 MLOAD PUSH32 0x8C379A000000000000000000000000000000000000000000000000000000000 DUP2 MSTORE PUSH1 0x4 ADD PUSH2 0x122F SWAP1 PUSH2 0x223A JUMP JUMPDEST PUSH1 0x40 MLOAD DUP1 SWAP2 SUB SWAP1 REVERT JUMPDEST PUSH0 DUP4 CALLER PUSH1 0x40 MLOAD PUSH1 0x20 ADD PUSH2 0x124C SWAP3 SWAP2 SWAP1 PUSH2 0x22D1 JUMP JUMPDEST PUSH1 0x40 MLOAD PUSH1 0x20 DUP2 DUP4 SUB SUB DUP2 MSTORE SWAP1 PUSH1 0x40 MSTORE DUP1 MLOAD SWAP1 PUSH1 0x20 ADD KECCAK256 PUSH0 SHR SWAP1 POP PUSH1 0x40 MLOAD DUP1 PUSH1 0x60 ADD PUSH1 0x40 MSTORE DUP1 CALLER PUSH20 0xFFFFFFFFFFFFFFFFFFFFFFFFFFFFFFFFFFFFFFFF AND DUP2 MSTORE PUSH1 0x20 ADD DUP6 PUSH16 0xFFFFFFFFFFFFFFFFFFFFFFFFFFFFFFFF AND DUP2 MSTORE PUSH1 0x20 ADD DUP5 PUSH16 0xFFFFFFFFFFFFFFFFFFFFFFFFFFFFFFFF AND DUP2 MSTORE POP PUSH1 0x2 PUSH0 DUP4 DUP2 MSTORE PUSH1 0x20 ADD SWAP1 DUP2 MSTORE PUSH1 0x20 ADD PUSH0 KECCAK256 PUSH0 DUP3 ADD MLOAD DUP2 PUSH0 ADD PUSH0 PUSH2 0x100 EXP DUP2 SLOAD DUP2 PUSH20 0xFFFFFFFFFFFFFFFFFFFFFFFFFFFFFFFFFFFFFFFF MUL NOT AND SWAP1 DUP4 PUSH20 0xFFFFFFFFFFFFFFFFFFFFFFFFFFFFFFFFFFFFFFFF AND MUL OR SWAP1 SSTORE POP PUSH1 0x20 DUP3 ADD MLOAD DUP2 PUSH1 0x1 ADD PUSH0 PUSH2 0x100 EXP DUP2 SLOAD DUP2 PUSH16 0xFFFFFFFFFFFFFFFFFFFFFFFFFFFFFFFF MUL NOT AND SWAP1 DUP4 PUSH16 0xFFFFFFFFFFFFFFFFFFFFFFFFFFFFFFFF AND MUL OR SWAP1 SSTORE POP PUSH1 0x40 DUP3 ADD MLOAD DUP2 PUSH1 0x1 ADD PUSH1 0x10 PUSH2 0x100 EXP DUP2 SLOAD DUP2 PUSH16 0xFFFFFFFFFFFFFFFFFFFFFFFFFFFFFFFF MUL NOT AND SWAP1 DUP4 PUSH16 0xFFFFFFFFFFFFFFFFFFFFFFFFFFFFFFFF AND MUL OR SWAP1 SSTORE POP SWAP1 POP POP DUP1 PUSH1 0x3 PUSH0 DUP7 PUSH16 0xFFFFFFFFFFFFFFFFFFFFFFFFFFFFFFFF AND DUP2 MSTORE PUSH1 0x20 ADD SWAP1 DUP2 MSTORE PUSH1 0x20 ADD PUSH0 KECCAK256 DUP2 SWAP1 SSTORE POP PUSH32 0x7CDB51E9DBBC205231228146C3246E7F914AA6D4A33170E43ECC8E3593481D1A PUSH1 0x40 MLOAD PUSH2 0x13E5 SWAP1 PUSH2 0x2346 JUMP JUMPDEST PUSH1 0x40 MLOAD DUP1 SWAP2 SUB SWAP1 LOG1 CALLER PUSH20 0xFFFFFFFFFFFFFFFFFFFFFFFFFFFFFFFFFFFFFFFF AND DUP2 PUSH32 0xA3941CFA07EECF2734875AB71CEA0E47395BE644DA6E17B039A7E29EFBA74EF9 DUP7 DUP7 TIMESTAMP PUSH1 0x40 MLOAD PUSH2 0x1438 SWAP4 SWAP3 SWAP2 SWAP1 PUSH2 0x1AE3 JUMP JUMPDEST PUSH1 0x40 MLOAD DUP1 SWAP2 SUB SWAP1 LOG3 POP POP POP POP JUMP JUMPDEST PUSH1 0x5 PUSH0 SWAP1 SLOAD SWAP1 PUSH2 0x100 EXP SWAP1 DIV PUSH20 0xFFFFFFFFFFFFFFFFFFFFFFFFFFFFFFFFFFFFFFFF AND DUP2 JUMP JUMPDEST PUSH1 0x2 PUSH1 0x20 MSTORE DUP1 PUSH0 MSTORE PUSH1 0x40 PUSH0 KECCAK256 PUSH0 SWAP2 POP SWAP1 POP DUP1 PUSH0 ADD PUSH0 SWAP1 SLOAD SWAP1 PUSH2 0x100 EXP SWAP1 DIV PUSH20 0xFFFFFFFFFFFFFFFFFFFFFFFFFFFFFFFFFFFFFFFF AND SWAP1 DUP1 PUSH1 0x1 ADD PUSH0 SWAP1 SLOAD SWAP1 PUSH2 0x100 EXP SWAP1 DIV PUSH16 0xFFFFFFFFFFFFFFFFFFFFFFFFFFFFFFFF AND SWAP1 DUP1 PUSH1 0x1 ADD PUSH1 0x10 SWAP1 SLOAD SWAP1 PUSH2 0x100 EXP SWAP1 DIV PUSH16 0xFFFFFFFFFFFFFFFFFFFFFFFFFFFFFFFF AND SWAP1 POP DUP4 JUMP JUMPDEST PUSH1 0x4 PUSH1 0x20 MSTORE DUP1 PUSH0 MSTORE PUSH1 0x40 PUSH0 KECCAK256 PUSH0 SWAP2 POP SWAP1 POP SLOAD DUP2 JUMP JUMPDEST PUSH0 DUP1 REVERT JUMPDEST PUSH0 DUP2 SWAP1 POP SWAP2 SWAP1 POP JUMP JUMPDEST PUSH2 0x1512 DUP2 PUSH2 0x1500 JUMP JUMPDEST DUP2 EQ PUSH2 0x151C JUMPI PUSH0 DUP1 REVERT JUMPDEST POP JUMP JUMPDEST PUSH0 DUP2 CALLDATALOAD SWAP1 POP PUSH2 0x152D DUP2 PUSH2 0x1509 JUMP JUMPDEST SWAP3 SWAP2 POP POP JUMP JUMPDEST PUSH0 PUSH1 0x20 DUP3 DUP5 SUB SLT ISZERO PUSH2 0x1548 JUMPI PUSH2 0x1547 PUSH2 0x14FC JUMP JUMPDEST JUMPDEST PUSH0 PUSH2 0x1555 DUP5 DUP3 DUP6 ADD PUSH2 0x151F JUMP JUMPDEST SWAP2 POP POP SWAP3 SWAP2 POP POP JUMP JUMPDEST PUSH0 PUSH20 0xFFFFFFFFFFFFFFFFFFFFFFFFFFFFFFFFFFFFFFFF DUP3 AND SWAP1 POP SWAP2 SWAP1 POP JUMP JUMPDEST PUSH0 PUSH2 0x1587 DUP3 PUSH2 0x155E JUMP JUMPDEST SWAP1 POP SWAP2 SWAP1 POP JUMP JUMPDEST PUSH2 0x1597 DUP2 PUSH2 0x157D JUMP JUMPDEST DUP2 EQ PUSH2 0x15A1 JUMPI PUSH0 DUP1 REVERT JUMPDEST POP JUMP JUMPDEST PUSH0 DUP2 CALLDATALOAD SWAP1 POP PUSH2 0x15B2 DUP2 PUSH2 0x158E JUMP JUMPDEST SWAP3 SWAP2 POP POP JUMP JUMPDEST PUSH0 DUP1 PUSH1 0x40 DUP4 DUP6 SUB SLT ISZERO PUSH2 0x15CE JUMPI PUSH2 0x15CD PUSH2 0x14FC JUMP JUMPDEST JUMPDEST PUSH0 PUSH2 0x15DB DUP6 DUP3 DUP7 ADD PUSH2 0x15A4 JUMP JUMPDEST SWAP3 POP POP PUSH1 0x20 PUSH2 0x15EC DUP6 DUP3 DUP7 ADD PUSH2 0x151F JUMP JUMPDEST SWAP2 POP POP SWAP3 POP SWAP3 SWAP1 POP JUMP JUMPDEST PUSH2 0x15FF DUP2 PUSH2 0x1500 JUMP JUMPDEST DUP3 MSTORE POP POP JUMP JUMPDEST PUSH0 PUSH1 0x20 DUP3 ADD SWAP1 POP PUSH2 0x1618 PUSH0 DUP4 ADD DUP5 PUSH2 0x15F6 JUMP JUMPDEST SWAP3 SWAP2 POP POP JUMP JUMPDEST PUSH0 DUP2 SWAP1 POP SWAP2 SWAP1 POP JUMP JUMPDEST PUSH0 PUSH2 0x1641 PUSH2 0x163C PUSH2 0x1637 DUP5 PUSH2 0x155E JUMP JUMPDEST PUSH2 0x161E JUMP JUMPDEST PUSH2 0x155E JUMP JUMPDEST SWAP1 POP SWAP2 SWAP1 POP JUMP JUMPDEST PUSH0 PUSH2 0x1652 DUP3 PUSH2 0x1627 JUMP JUMPDEST SWAP1 POP SWAP2 SWAP1 POP JUMP JUMPDEST PUSH0 PUSH2 0x1663 DUP3 PUSH2 0x1648 JUMP JUMPDEST SWAP1 POP SWAP2 SWAP1 POP JUMP JUMPDEST PUSH2 0x1673 DUP2 PUSH2 0x1659 JUMP JUMPDEST DUP3 MSTORE POP POP JUMP JUMPDEST PUSH0 PUSH1 0x20 DUP3 ADD SWAP1 POP PUSH2 0x168C PUSH0 DUP4 ADD DUP5 PUSH2 0x166A JUMP JUMPDEST SWAP3 SWAP2 POP POP JUMP JUMPDEST PUSH0 PUSH1 0x20 DUP3 DUP5 SUB SLT ISZERO PUSH2 0x16A7 JUMPI PUSH2 0x16A6 PUSH2 0x14FC JUMP JUMPDEST JUMPDEST PUSH0 PUSH2 0x16B4 DUP5 DUP3 DUP6 ADD PUSH2 0x15A4 JUMP JUMPDEST SWAP2 POP POP SWAP3 SWAP2 POP POP JUMP JUMPDEST PUSH0 PUSH2 0x16C7 DUP3 PUSH2 0x155E JUMP JUMPDEST SWAP1 POP SWAP2 SWAP1 POP JUMP JUMPDEST PUSH2 0x16D7 DUP2 PUSH2 0x16BD JUMP JUMPDEST DUP3 MSTORE POP POP JUMP JUMPDEST PUSH0 PUSH1 0x20 DUP3 ADD SWAP1 POP PUSH2 0x16F0 PUSH0 DUP4 ADD DUP5 PUSH2 0x16CE JUMP JUMPDEST SWAP3 SWAP2 POP POP JUMP JUMPDEST PUSH0 PUSH16 0xFFFFFFFFFFFFFFFFFFFFFFFFFFFFFFFF DUP3 AND SWAP1 POP SWAP2 SWAP1 POP JUMP JUMPDEST PUSH2 0x171A DUP2 PUSH2 0x16F6 JUMP JUMPDEST DUP2 EQ PUSH2 0x1724 JUMPI PUSH0 DUP1 REVERT JUMPDEST POP JUMP JUMPDEST PUSH0 DUP2 CALLDATALOAD SWAP1 POP PUSH2 0x1735 DUP2 PUSH2 0x1711 JUMP JUMPDEST SWAP3 SWAP2 POP POP JUMP JUMPDEST PUSH0 DUP1 PUSH1 0x40 DUP4 DUP6 SUB SLT ISZERO PUSH2 0x1751 JUMPI PUSH2 0x1750 PUSH2 0x14FC JUMP JUMPDEST JUMPDEST PUSH0 PUSH2 0x175E DUP6 DUP3 DUP7 ADD PUSH2 0x1727 JUMP JUMPDEST SWAP3 POP POP PUSH1 0x20 PUSH2 0x176F DUP6 DUP3 DUP7 ADD PUSH2 0x1727 JUMP JUMPDEST SWAP2 POP POP SWAP3 POP SWAP3 SWAP1 POP JUMP JUMPDEST PUSH0 PUSH2 0x1783 DUP3 PUSH2 0x1648 JUMP JUMPDEST SWAP1 POP SWAP2 SWAP1 POP JUMP JUMPDEST PUSH2 0x1793 DUP2 PUSH2 0x1779 JUMP JUMPDEST DUP3 MSTORE POP POP JUMP JUMPDEST PUSH0 PUSH1 0x20 DUP3 ADD SWAP1 POP PUSH2 0x17AC PUSH0 DUP4 ADD DUP5 PUSH2 0x178A JUMP JUMPDEST SWAP3 SWAP2 POP POP JUMP JUMPDEST PUSH2 0x17BB DUP2 PUSH2 0x157D JUMP JUMPDEST DUP3 MSTORE POP POP JUMP JUMPDEST PUSH2 0x17CA DUP2 PUSH2 0x16F6 JUMP JUMPDEST DUP3 MSTORE POP POP JUMP JUMPDEST PUSH0 PUSH1 0x60 DUP3 ADD SWAP1 POP PUSH2 0x17E3 PUSH0 DUP4 ADD DUP7 PUSH2 0x17B2 JUMP JUMPDEST PUSH2 0x17F0 PUSH1 0x20 DUP4 ADD DUP6 PUSH2 0x17C1 JUMP JUMPDEST PUSH2 0x17FD PUSH1 0x40 DUP4 ADD DUP5 PUSH2 0x17C1 JUMP JUMPDEST SWAP5 SWAP4 POP POP POP POP JUMP JUMPDEST PUSH0 DUP3 DUP3 MSTORE PUSH1 0x20 DUP3 ADD SWAP1 POP SWAP3 SWAP2 POP POP JUMP JUMPDEST PUSH32 0x5265656E7472616E742063616C6C000000000000000000000000000000000000 PUSH0 DUP3 ADD MSTORE POP JUMP JUMPDEST PUSH0 PUSH2 0x1849 PUSH1 0xE DUP4 PUSH2 0x1805 JUMP JUMPDEST SWAP2 POP PUSH2 0x1854 DUP3 PUSH2 0x1815 JUMP JUMPDEST PUSH1 0x20 DUP3 ADD SWAP1 POP SWAP2 SWAP1 POP JUMP JUMPDEST PUSH0 PUSH1 0x20 DUP3 ADD SWAP1 POP DUP2 DUP2 SUB PUSH0 DUP4 ADD MSTORE PUSH2 0x1876 DUP2 PUSH2 0x183D JUMP JUMPDEST SWAP1 POP SWAP2 SWAP1 POP JUMP JUMPDEST PUSH32 0x496E76616C6964206F7220696E616374697665206C697374696E670000000000 PUSH0 DUP3 ADD MSTORE POP JUMP JUMPDEST PUSH0 PUSH2 0x18B1 PUSH1 0x1B DUP4 PUSH2 0x1805 JUMP JUMPDEST SWAP2 POP PUSH2 0x18BC DUP3 PUSH2 0x187D JUMP JUMPDEST PUSH1 0x20 DUP3 ADD SWAP1 POP SWAP2 SWAP1 POP JUMP JUMPDEST PUSH0 PUSH1 0x20 DUP3 ADD SWAP1 POP DUP2 DUP2 SUB PUSH0 DUP4 ADD MSTORE PUSH2 0x18DE DUP2 PUSH2 0x18A5 JUMP JUMPDEST SWAP1 POP SWAP2 SWAP1 POP JUMP JUMPDEST PUSH32 0x496E636F7272656374207061796D656E7420616D6F756E740000000000000000 PUSH0 DUP3 ADD MSTORE POP JUMP JUMPDEST PUSH0 PUSH2 0x1919 PUSH1 0x18 DUP4 PUSH2 0x1805 JUMP JUMPDEST SWAP2 POP PUSH2 0x1924 DUP3 PUSH2 0x18E5 JUMP JUMPDEST PUSH1 0x20 DUP3 ADD SWAP1 POP SWAP2 SWAP1 POP JUMP JUMPDEST PUSH0 PUSH1 0x20 DUP3 ADD SWAP1 POP DUP2 DUP2 SUB PUSH0 DUP4 ADD MSTORE PUSH2 0x1946 DUP2 PUSH2 0x190D JUMP JUMPDEST SWAP1 POP SWAP2 SWAP1 POP JUMP JUMPDEST PUSH32 0x4E487B7100000000000000000000000000000000000000000000000000000000 PUSH0 MSTORE PUSH1 0x11 PUSH1 0x4 MSTORE PUSH1 0x24 PUSH0 REVERT JUMPDEST PUSH0 PUSH2 0x1984 DUP3 PUSH2 0x1500 JUMP JUMPDEST SWAP2 POP PUSH2 0x198F DUP4 PUSH2 0x1500 JUMP JUMPDEST SWAP3 POP DUP3 DUP3 MUL PUSH2 0x199D DUP2 PUSH2 0x1500 JUMP JUMPDEST SWAP2 POP DUP3 DUP3 DIV DUP5 EQ DUP4 ISZERO OR PUSH2 0x19B4 JUMPI PUSH2 0x19B3 PUSH2 0x194D JUMP JUMPDEST JUMPDEST POP SWAP3 SWAP2 POP POP JUMP JUMPDEST PUSH32 0x4E487B7100000000000000000000000000000000000000000000000000000000 PUSH0 MSTORE PUSH1 0x12 PUSH1 0x4 MSTORE PUSH1 0x24 PUSH0 REVERT JUMPDEST PUSH0 PUSH2 0x19F2 DUP3 PUSH2 0x1500 JUMP JUMPDEST SWAP2 POP PUSH2 0x19FD DUP4 PUSH2 0x1500 JUMP JUMPDEST SWAP3 POP DUP3 PUSH2 0x1A0D JUMPI PUSH2 0x1A0C PUSH2 0x19BB JUMP JUMPDEST JUMPDEST DUP3 DUP3 DIV SWAP1 POP SWAP3 SWAP2 POP POP JUMP JUMPDEST PUSH0 PUSH2 0x1A22 DUP3 PUSH2 0x1500 JUMP JUMPDEST SWAP2 POP PUSH2 0x1A2D DUP4 PUSH2 0x1500 JUMP JUMPDEST SWAP3 POP DUP3 DUP3 SUB SWAP1 POP DUP2 DUP2 GT ISZERO PUSH2 0x1A45 JUMPI PUSH2 0x1A44 PUSH2 0x194D JUMP JUMPDEST JUMPDEST SWAP3 SWAP2 POP POP JUMP JUMPDEST PUSH0 PUSH2 0x1A65 PUSH2 0x1A60 PUSH2 0x1A5B DUP5 PUSH2 0x16F6 JUMP JUMPDEST PUSH2 0x161E JUMP JUMPDEST PUSH2 0x1500 JUMP JUMPDEST SWAP1 POP SWAP2 SWAP1 POP JUMP JUMPDEST PUSH2 0x1A75 DUP2 PUSH2 0x1A4B JUMP JUMPDEST DUP3 MSTORE POP POP JUMP JUMPDEST PUSH0 PUSH1 0x60 DUP3 ADD SWAP1 POP PUSH2 0x1A8E PUSH0 DUP4 ADD DUP7 PUSH2 0x17B2 JUMP JUMPDEST PUSH2 0x1A9B PUSH1 0x20 DUP4 ADD DUP6 PUSH2 0x17B2 JUMP JUMPDEST PUSH2 0x1AA8 PUSH1 0x40 DUP4 ADD DUP5 PUSH2 0x1A6C JUMP JUMPDEST SWAP5 SWAP4 POP POP POP POP JUMP JUMPDEST PUSH0 PUSH2 0x1ABA DUP3 PUSH2 0x1500 JUMP JUMPDEST SWAP2 POP PUSH2 0x1AC5 DUP4 PUSH2 0x1500 JUMP JUMPDEST SWAP3 POP DUP3 DUP3 ADD SWAP1 POP DUP1 DUP3 GT ISZERO PUSH2 0x1ADD JUMPI PUSH2 0x1ADC PUSH2 0x194D JUMP JUMPDEST JUMPDEST SWAP3 SWAP2 POP POP JUMP JUMPDEST PUSH0 PUSH1 0x60 DUP3 ADD SWAP1 POP PUSH2 0x1AF6 PUSH0 DUP4 ADD DUP7 PUSH2 0x1A6C JUMP JUMPDEST PUSH2 0x1B03 PUSH1 0x20 DUP4 ADD DUP6 PUSH2 0x1A6C JUMP JUMPDEST PUSH2 0x1B10 PUSH1 0x40 DUP4 ADD DUP5 PUSH2 0x15F6 JUMP JUMPDEST SWAP5 SWAP4 POP POP POP POP JUMP JUMPDEST PUSH32 0x4E6F2066756E647320746F207769746864726177000000000000000000000000 PUSH0 DUP3 ADD MSTORE POP JUMP JUMPDEST PUSH0 PUSH2 0x1B4C PUSH1 0x14 DUP4 PUSH2 0x1805 JUMP JUMPDEST SWAP2 POP PUSH2 0x1B57 DUP3 PUSH2 0x1B18 JUMP JUMPDEST PUSH1 0x20 DUP3 ADD SWAP1 POP SWAP2 SWAP1 POP JUMP JUMPDEST PUSH0 PUSH1 0x20 DUP3 ADD SWAP1 POP DUP2 DUP2 SUB PUSH0 DUP4 ADD MSTORE PUSH2 0x1B79 DUP2 PUSH2 0x1B40 JUMP JUMPDEST SWAP1 POP SWAP2 SWAP1 POP JUMP JUMPDEST PUSH0 DUP2 SWAP1 POP SWAP3 SWAP2 POP POP JUMP JUMPDEST POP JUMP JUMPDEST PUSH0 PUSH2 0x1B98 PUSH0 DUP4 PUSH2 0x1B80 JUMP JUMPDEST SWAP2 POP PUSH2 0x1BA3 DUP3 PUSH2 0x1B8A JUMP JUMPDEST PUSH0 DUP3 ADD SWAP1 POP SWAP2 SWAP1 POP JUMP JUMPDEST PUSH0 PUSH2 0x1BB7 DUP3 PUSH2 0x1B8D JUMP JUMPDEST SWAP2 POP DUP2 SWAP1 POP SWAP2 SWAP1 POP JUMP JUMPDEST PUSH32 0x5769746864726177206661696C65640000000000000000000000000000000000 PUSH0 DUP3 ADD MSTORE POP JUMP JUMPDEST PUSH0 PUSH2 0x1BF5 PUSH1 0xF DUP4 PUSH2 0x1805 JUMP JUMPDEST SWAP2 POP PUSH2 0x1C00 DUP3 PUSH2 0x1BC1 JUMP JUMPDEST PUSH1 0x20 DUP3 ADD SWAP1 POP SWAP2 SWAP1 POP JUMP JUMPDEST PUSH0 PUSH1 0x20 DUP3 ADD SWAP1 POP DUP2 DUP2 SUB PUSH0 DUP4 ADD MSTORE PUSH2 0x1C22 DUP2 PUSH2 0x1BE9 JUMP JUMPDEST SWAP1 POP SWAP2 SWAP1 POP JUMP JUMPDEST PUSH0 PUSH1 0x40 DUP3 ADD SWAP1 POP PUSH2 0x1C3C PUSH0 DUP4 ADD DUP6 PUSH2 0x17B2 JUMP JUMPDEST PUSH2 0x1C49 PUSH1 0x20 DUP4 ADD DUP5 PUSH2 0x15F6 JUMP JUMPDEST SWAP4 SWAP3 POP POP POP JUMP JUMPDEST PUSH0 DUP2 MLOAD SWAP1 POP PUSH2 0x1C5E DUP2 PUSH2 0x1509 JUMP JUMPDEST SWAP3 SWAP2 POP POP JUMP JUMPDEST PUSH0 PUSH1 0x20 DUP3 DUP5 SUB SLT ISZERO PUSH2 0x1C79 JUMPI PUSH2 0x1C78 PUSH2 0x14FC JUMP JUMPDEST JUMPDEST PUSH0 PUSH2 0x1C86 DUP5 DUP3 DUP6 ADD PUSH2 0x1C50 JUMP JUMPDEST SWAP2 POP POP SWAP3 SWAP2 POP POP JUMP JUMPDEST PUSH32 0x596F7520617265206E6F74207468652073656C6C657200000000000000000000 PUSH0 DUP3 ADD MSTORE POP JUMP JUMPDEST PUSH0 PUSH2 0x1CC3 PUSH1 0x16 DUP4 PUSH2 0x1805 JUMP JUMPDEST SWAP2 POP PUSH2 0x1CCE DUP3 PUSH2 0x1C8F JUMP JUMPDEST PUSH1 0x20 DUP3 ADD SWAP1 POP SWAP2 SWAP1 POP JUMP JUMPDEST PUSH0 PUSH1 0x20 DUP3 ADD SWAP1 POP DUP2 DUP2 SUB PUSH0 DUP4 ADD MSTORE PUSH2 0x1CF0 DUP2 PUSH2 0x1CB7 JUMP JUMPDEST SWAP1 POP SWAP2 SWAP1 POP JUMP JUMPDEST PUSH32 0x4F6E6C7920746865206F776E65722063616E20706572666F726D207468697320 PUSH0 DUP3 ADD MSTORE PUSH32 0x616374696F6E0000000000000000000000000000000000000000000000000000 PUSH1 0x20 DUP3 ADD MSTORE POP JUMP JUMPDEST PUSH0 PUSH2 0x1D51 PUSH1 0x26 DUP4 PUSH2 0x1805 JUMP JUMPDEST SWAP2 POP PUSH2 0x1D5C DUP3 PUSH2 0x1CF7 JUMP JUMPDEST PUSH1 0x40 DUP3 ADD SWAP1 POP SWAP2 SWAP1 POP JUMP JUMPDEST PUSH0 PUSH1 0x20 DUP3 ADD SWAP1 POP DUP2 DUP2 SUB PUSH0 DUP4 ADD MSTORE PUSH2 0x1D7E DUP2 PUSH2 0x1D45 JUMP JUMPDEST SWAP1 POP SWAP2 SWAP1 POP JUMP JUMPDEST PUSH32 0x436F6D6D697373696F6E2063616E6E6F74206578636565642031303025000000 PUSH0 DUP3 ADD MSTORE POP JUMP JUMPDEST PUSH0 PUSH2 0x1DB9 PUSH1 0x1D DUP4 PUSH2 0x1805 JUMP JUMPDEST SWAP2 POP PUSH2 0x1DC4 DUP3 PUSH2 0x1D85 JUMP JUMPDEST PUSH1 0x20 DUP3 ADD SWAP1 POP SWAP2 SWAP1 POP JUMP JUMPDEST PUSH0 PUSH1 0x20 DUP3 ADD SWAP1 POP DUP2 DUP2 SUB PUSH0 DUP4 ADD MSTORE PUSH2 0x1DE6 DUP2 PUSH2 0x1DAD JUMP JUMPDEST SWAP1 POP SWAP2 SWAP1 POP JUMP JUMPDEST PUSH32 0x5072696365206D7573742062652067726561746572207468616E203000000000 PUSH0 DUP3 ADD MSTORE POP JUMP JUMPDEST PUSH0 PUSH2 0x1E21 PUSH1 0x1C DUP4 PUSH2 0x1805 JUMP JUMPDEST SWAP2 POP PUSH2 0x1E2C DUP3 PUSH2 0x1DED JUMP JUMPDEST PUSH1 0x20 DUP3 ADD SWAP1 POP SWAP2 SWAP1 POP JUMP JUMPDEST PUSH0 PUSH1 0x20 DUP3 ADD SWAP1 POP DUP2 DUP2 SUB PUSH0 DUP4 ADD MSTORE PUSH2 0x1E4E DUP2 PUSH2 0x1E15 JUMP JUMPDEST SWAP1 POP SWAP2 SWAP1 POP JUMP JUMPDEST PUSH32 0x50617373656420707269636520636865636B0000000000000000000000000000 PUSH0 DUP3 ADD MSTORE POP JUMP JUMPDEST PUSH0 PUSH2 0x1E89 PUSH1 0x12 DUP4 PUSH2 0x1805 JUMP JUMPDEST SWAP2 POP PUSH2 0x1E94 DUP3 PUSH2 0x1E55 JUMP JUMPDEST PUSH1 0x20 DUP3 ADD SWAP1 POP SWAP2 SWAP1 POP JUMP JUMPDEST PUSH0 PUSH1 0x20 DUP3 ADD SWAP1 POP DUP2 DUP2 SUB PUSH0 DUP4 ADD MSTORE PUSH2 0x1EB6 DUP2 PUSH2 0x1E7D JUMP JUMPDEST SWAP1 POP SWAP2 SWAP1 POP JUMP JUMPDEST PUSH0 PUSH1 0x20 DUP3 ADD SWAP1 POP PUSH2 0x1ED0 PUSH0 DUP4 ADD DUP5 PUSH2 0x1A6C JUMP JUMPDEST SWAP3 SWAP2 POP POP JUMP JUMPDEST PUSH0 DUP2 MLOAD SWAP1 POP PUSH2 0x1EE4 DUP2 PUSH2 0x158E JUMP JUMPDEST SWAP3 SWAP2 POP POP JUMP JUMPDEST PUSH0 PUSH1 0x20 DUP3 DUP5 SUB SLT ISZERO PUSH2 0x1EFF JUMPI PUSH2 0x1EFE PUSH2 0x14FC JUMP JUMPDEST JUMPDEST PUSH0 PUSH2 0x1F0C DUP5 DUP3 DUP6 ADD PUSH2 0x1ED6 JUMP JUMPDEST SWAP2 POP POP SWAP3 SWAP2 POP POP JUMP JUMPDEST PUSH32 0x4F776E6572207265747269657665640000000000000000000000000000000000 PUSH0 DUP3 ADD MSTORE POP JUMP JUMPDEST PUSH0 PUSH2 0x1F49 PUSH1 0xF DUP4 PUSH2 0x1805 JUMP JUMPDEST SWAP2 POP PUSH2 0x1F54 DUP3 PUSH2 0x1F15 JUMP JUMPDEST PUSH1 0x20 DUP3 ADD SWAP1 POP SWAP2 SWAP1 POP JUMP JUMPDEST PUSH0 PUSH1 0x20 DUP3 ADD SWAP1 POP DUP2 DUP2 SUB PUSH0 DUP4 ADD MSTORE PUSH2 0x1F76 DUP2 PUSH2 0x1F3D JUMP JUMPDEST SWAP1 POP SWAP2 SWAP1 POP JUMP JUMPDEST PUSH32 0x596F7520617265206E6F7420746865206F776E6572206F66207468697320746F PUSH0 DUP3 ADD MSTORE PUSH32 0x6B656E0000000000000000000000000000000000000000000000000000000000 PUSH1 0x20 DUP3 ADD MSTORE POP JUMP JUMPDEST PUSH0 PUSH2 0x1FD7 PUSH1 0x23 DUP4 PUSH2 0x1805 JUMP JUMPDEST SWAP2 POP PUSH2 0x1FE2 DUP3 PUSH2 0x1F7D JUMP JUMPDEST PUSH1 0x40 DUP3 ADD SWAP1 POP SWAP2 SWAP1 POP JUMP JUMPDEST PUSH0 PUSH1 0x20 DUP3 ADD SWAP1 POP DUP2 DUP2 SUB PUSH0 DUP4 ADD MSTORE PUSH2 0x2004 DUP2 PUSH2 0x1FCB JUMP JUMPDEST SWAP1 POP SWAP2 SWAP1 POP JUMP JUMPDEST PUSH32 0x4F776E6572736869702076657269666965640000000000000000000000000000 PUSH0 DUP3 ADD MSTORE POP JUMP JUMPDEST PUSH0 PUSH2 0x203F PUSH1 0x12 DUP4 PUSH2 0x1805 JUMP JUMPDEST SWAP2 POP PUSH2 0x204A DUP3 PUSH2 0x200B JUMP JUMPDEST PUSH1 0x20 DUP3 ADD SWAP1 POP SWAP2 SWAP1 POP JUMP JUMPDEST PUSH0 PUSH1 0x20 DUP3 ADD SWAP1 POP DUP2 DUP2 SUB PUSH0 DUP4 ADD MSTORE PUSH2 0x206C DUP2 PUSH2 0x2033 JUMP JUMPDEST SWAP1 POP SWAP2 SWAP1 POP JUMP JUMPDEST PUSH0 PUSH1 0x40 DUP3 ADD SWAP1 POP PUSH2 0x2086 PUSH0 DUP4 ADD DUP6 PUSH2 0x17B2 JUMP JUMPDEST PUSH2 0x2093 PUSH1 0x20 DUP4 ADD DUP5 PUSH2 0x17B2 JUMP JUMPDEST SWAP4 SWAP3 POP POP POP JUMP JUMPDEST PUSH0 DUP2 ISZERO ISZERO SWAP1 POP SWAP2 SWAP1 POP JUMP JUMPDEST PUSH2 0x20AE DUP2 PUSH2 0x209A JUMP JUMPDEST DUP2 EQ PUSH2 0x20B8 JUMPI PUSH0 DUP1 REVERT JUMPDEST POP JUMP JUMPDEST PUSH0 DUP2 MLOAD SWAP1 POP PUSH2 0x20C9 DUP2 PUSH2 0x20A5 JUMP JUMPDEST SWAP3 SWAP2 POP POP JUMP JUMPDEST PUSH0 PUSH1 0x20 DUP3 DUP5 SUB SLT ISZERO PUSH2 0x20E4 JUMPI PUSH2 0x20E3 PUSH2 0x14FC JUMP JUMPDEST JUMPDEST PUSH0 PUSH2 0x20F1 DUP5 DUP3 DUP6 ADD PUSH2 0x20BB JUMP JUMPDEST SWAP2 POP POP SWAP3 SWAP2 POP POP JUMP JUMPDEST PUSH32 0x4D61726B6574706C616365206973206E6F7420617070726F76656420746F2074 PUSH0 DUP3 ADD MSTORE PUSH32 0x72616E73666572207468697320746F6B656E0000000000000000000000000000 PUSH1 0x20 DUP3 ADD MSTORE POP JUMP JUMPDEST PUSH0 PUSH2 0x2154 PUSH1 0x32 DUP4 PUSH2 0x1805 JUMP JUMPDEST SWAP2 POP PUSH2 0x215F DUP3 PUSH2 0x20FA JUMP JUMPDEST PUSH1 0x40 DUP3 ADD SWAP1 POP SWAP2 SWAP1 POP JUMP JUMPDEST PUSH0 PUSH1 0x20 DUP3 ADD SWAP1 POP DUP2 DUP2 SUB PUSH0 DUP4 ADD MSTORE PUSH2 0x2181 DUP2 PUSH2 0x2148 JUMP JUMPDEST SWAP1 POP SWAP2 SWAP1 POP JUMP JUMPDEST PUSH32 0x417070726F76616C207665726966696564000000000000000000000000000000 PUSH0 DUP3 ADD MSTORE POP JUMP JUMPDEST PUSH0 PUSH2 0x21BC PUSH1 0x11 DUP4 PUSH2 0x1805 JUMP JUMPDEST SWAP2 POP PUSH2 0x21C7 DUP3 PUSH2 0x2188 JUMP JUMPDEST PUSH1 0x20 DUP3 ADD SWAP1 POP SWAP2 SWAP1 POP JUMP JUMPDEST PUSH0 PUSH1 0x20 DUP3 ADD SWAP1 POP DUP2 DUP2 SUB PUSH0 DUP4 ADD MSTORE PUSH2 0x21E9 DUP2 PUSH2 0x21B0 JUMP JUMPDEST SWAP1 POP SWAP2 SWAP1 POP JUMP JUMPDEST PUSH32 0x546F6B656E20697320616C7265616479206C6973746564000000000000000000 PUSH0 DUP3 ADD MSTORE POP JUMP JUMPDEST PUSH0 PUSH2 0x2224 PUSH1 0x17 DUP4 PUSH2 0x1805 JUMP JUMPDEST SWAP2 POP PUSH2 0x222F DUP3 PUSH2 0x21F0 JUMP JUMPDEST PUSH1 0x20 DUP3 ADD SWAP1 POP SWAP2 SWAP1 POP JUMP JUMPDEST PUSH0 PUSH1 0x20 DUP3 ADD SWAP1 POP DUP2 DUP2 SUB PUSH0 DUP4 ADD MSTORE PUSH2 0x2251 DUP2 PUSH2 0x2218 JUMP JUMPDEST SWAP1 POP SWAP2 SWAP1 POP JUMP JUMPDEST PUSH0 DUP2 PUSH1 0x80 SHL SWAP1 POP SWAP2 SWAP1 POP JUMP JUMPDEST PUSH0 PUSH2 0x226E DUP3 PUSH2 0x2258 JUMP JUMPDEST SWAP1 POP SWAP2 SWAP1 POP JUMP JUMPDEST PUSH2 0x2286 PUSH2 0x2281 DUP3 PUSH2 0x16F6 JUMP JUMPDEST PUSH2 0x2264 JUMP JUMPDEST DUP3 MSTORE POP POP JUMP JUMPDEST PUSH0 DUP2 PUSH1 0x60 SHL SWAP1 POP SWAP2 SWAP1 POP JUMP JUMPDEST PUSH0 PUSH2 0x22A2 DUP3 PUSH2 0x228C JUMP JUMPDEST SWAP1 POP SWAP2 SWAP1 POP JUMP JUMPDEST PUSH0 PUSH2 0x22B3 DUP3 PUSH2 0x2298 JUMP JUMPDEST SWAP1 POP SWAP2 SWAP1 POP JUMP JUMPDEST PUSH2 0x22CB PUSH2 0x22C6 DUP3 PUSH2 0x157D JUMP JUMPDEST PUSH2 0x22A9 JUMP JUMPDEST DUP3 MSTORE POP POP JUMP JUMPDEST PUSH0 PUSH2 0x22DC DUP3 DUP6 PUSH2 0x2275 JUMP JUMPDEST PUSH1 0x10 DUP3 ADD SWAP2 POP PUSH2 0x22EC DUP3 DUP5 PUSH2 0x22BA JUMP JUMPDEST PUSH1 0x14 DUP3 ADD SWAP2 POP DUP2 SWAP1 POP SWAP4 SWAP3 POP POP POP JUMP JUMPDEST PUSH32 0x556E69717565206C697374696E67204944207665726966696564000000000000 PUSH0 DUP3 ADD MSTORE POP JUMP JUMPDEST PUSH0 PUSH2 0x2330 PUSH1 0x1A DUP4 PUSH2 0x1805 JUMP JUMPDEST SWAP2 POP PUSH2 0x233B DUP3 PUSH2 0x22FC JUMP JUMPDEST PUSH1 0x20 DUP3 ADD SWAP1 POP SWAP2 SWAP1 POP JUMP JUMPDEST PUSH0 PUSH1 0x20 DUP3 ADD SWAP1 POP DUP2 DUP2 SUB PUSH0 DUP4 ADD MSTORE PUSH2 0x235D DUP2 PUSH2 0x2324 JUMP JUMPDEST SWAP1 POP SWAP2 SWAP1 POP JUMP INVALID LOG2 PUSH5 0x6970667358 0x22 SLT KECCAK256 0xEC DUP9 0x21 DUP12 JUMPDEST GASPRICE PUSH19 0xAC1C18ABCE736497C51074B4CAA8B3F17834AF 0x4B MSIZE PUSH14 0x48D69164736F6C63430008140033 "
				},
				"gasEstimates": {
					"creation": {
						"codeDepositCost": "1822800",
						"executionCost": "infinite",
						"totalCost": "infinite"
					},
					"external": {
						"balanceOf(address)": "3270",
						"cancelListing(uint256)": "69496",
						"commissionPercent()": "2470",
						"createListing(uint128,uint128)": "infinite",
						"listings(uint256)": "infinite",
						"nftContract()": "infinite",
						"nftEnumerable()": "infinite",
						"owner()": "2572",
						"pendingWithdrawals(address)": "2890",
						"purchaseListing(uint256)": "infinite",
						"setCommissionPercent(uint256)": "infinite",
						"tokenOfOwnerByIndex(address,uint256)": "infinite",
						"withdrawFunds()": "infinite"
					}
				},
				"methodIdentifiers": {
					"balanceOf(address)": "70a08231",
					"cancelListing(uint256)": "305a67a8",
					"commissionPercent()": "77d3550b",
					"createListing(uint128,uint128)": "9acaa6fb",
					"listings(uint256)": "de74e57b",
					"nftContract()": "d56d229d",
					"nftEnumerable()": "51e61b25",
					"owner()": "8da5cb5b",
					"pendingWithdrawals(address)": "f3f43703",
					"purchaseListing(uint256)": "169d5a7d",
					"setCommissionPercent(uint256)": "404a9ab8",
					"tokenOfOwnerByIndex(address,uint256)": "2f745c59",
					"withdrawFunds()": "24600fc3"
				}
			},
			"storageLayout": {
				"storage": [
					{
						"astId": 176,
						"contract": "contracts/Orders.sol:Marketplace",
						"label": "owner",
						"offset": 0,
						"slot": "0",
						"type": "t_address_payable"
					},
					{
						"astId": 179,
						"contract": "contracts/Orders.sol:Marketplace",
						"label": "commissionPercent",
						"offset": 0,
						"slot": "1",
						"type": "t_uint256"
					},
					{
						"astId": 185,
						"contract": "contracts/Orders.sol:Marketplace",
						"label": "listings",
						"offset": 0,
						"slot": "2",
						"type": "t_mapping(t_uint256,t_struct(Listing)173_storage)"
					},
					{
						"astId": 190,
						"contract": "contracts/Orders.sol:Marketplace",
						"label": "tokenToListingId",
						"offset": 0,
						"slot": "3",
						"type": "t_mapping(t_uint256,t_uint256)"
					},
					{
						"astId": 195,
						"contract": "contracts/Orders.sol:Marketplace",
						"label": "pendingWithdrawals",
						"offset": 0,
						"slot": "4",
						"type": "t_mapping(t_address,t_uint256)"
					},
					{
						"astId": 199,
						"contract": "contracts/Orders.sol:Marketplace",
						"label": "nftContract",
						"offset": 0,
						"slot": "5",
						"type": "t_contract(IERC721)116"
					},
					{
						"astId": 203,
						"contract": "contracts/Orders.sol:Marketplace",
						"label": "nftEnumerable",
						"offset": 0,
						"slot": "6",
						"type": "t_contract(IERC721Enumerable)148"
					},
					{
						"astId": 265,
						"contract": "contracts/Orders.sol:Marketplace",
						"label": "unlocked",
						"offset": 0,
						"slot": "7",
						"type": "t_uint256"
					}
				],
				"types": {
					"t_address": {
						"encoding": "inplace",
						"label": "address",
						"numberOfBytes": "20"
					},
					"t_address_payable": {
						"encoding": "inplace",
						"label": "address payable",
						"numberOfBytes": "20"
					},
					"t_contract(IERC721)116": {
						"encoding": "inplace",
						"label": "contract IERC721",
						"numberOfBytes": "20"
					},
					"t_contract(IERC721Enumerable)148": {
						"encoding": "inplace",
						"label": "contract IERC721Enumerable",
						"numberOfBytes": "20"
					},
					"t_mapping(t_address,t_uint256)": {
						"encoding": "mapping",
						"key": "t_address",
						"label": "mapping(address => uint256)",
						"numberOfBytes": "32",
						"value": "t_uint256"
					},
					"t_mapping(t_uint256,t_struct(Listing)173_storage)": {
						"encoding": "mapping",
						"key": "t_uint256",
						"label": "mapping(uint256 => struct Marketplace.Listing)",
						"numberOfBytes": "32",
						"value": "t_struct(Listing)173_storage"
					},
					"t_mapping(t_uint256,t_uint256)": {
						"encoding": "mapping",
						"key": "t_uint256",
						"label": "mapping(uint256 => uint256)",
						"numberOfBytes": "32",
						"value": "t_uint256"
					},
					"t_struct(Listing)173_storage": {
						"encoding": "inplace",
						"label": "struct Marketplace.Listing",
						"members": [
							{
								"astId": 168,
								"contract": "contracts/Orders.sol:Marketplace",
								"label": "seller",
								"offset": 0,
								"slot": "0",
								"type": "t_address"
							},
							{
								"astId": 170,
								"contract": "contracts/Orders.sol:Marketplace",
								"label": "tokenId",
								"offset": 0,
								"slot": "1",
								"type": "t_uint128"
							},
							{
								"astId": 172,
								"contract": "contracts/Orders.sol:Marketplace",
								"label": "price",
								"offset": 16,
								"slot": "1",
								"type": "t_uint128"
							}
						],
						"numberOfBytes": "64"
					},
					"t_uint128": {
						"encoding": "inplace",
						"label": "uint128",
						"numberOfBytes": "16"
					},
					"t_uint256": {
						"encoding": "inplace",
						"label": "uint256",
						"numberOfBytes": "32"
					}
				}
			},
			"userdoc": {
				"events": {
					"CommissionUpdated(uint256)": {
						"notice": "Event emitted when the marketplace commission is updated."
					},
					"FundsWithdrawn(uint256,address)": {
						"notice": "Event emitted when funds are withdrawn from the contract."
					},
					"ListingCancelled(uint256,address)": {
						"notice": "Event emitted when a listing is cancelled."
					},
					"ListingCreated(uint256,address,uint256,uint256,uint256)": {
						"notice": "Event emitted when a new listing is created."
					},
					"PurchaseCompleted(uint256,address,uint256,uint256,uint256)": {
						"notice": "Event emitted when an NFT is purchased."
					}
				},
				"kind": "user",
				"methods": {
					"cancelListing(uint256)": {
						"notice": "Cancels an active listing."
					},
					"commissionPercent()": {
						"notice": "Commission percentage charged by the marketplace."
					},
					"createListing(uint128,uint128)": {
						"notice": "Creates a listing to sell an NFT."
					},
					"nftContract()": {
						"notice": "Interface for the ERC721 token contract."
					},
					"nftEnumerable()": {
						"notice": "Interface for enumerable ERC721 functionality."
					},
					"owner()": {
						"notice": "Owner of the marketplace."
					},
					"purchaseListing(uint256)": {
						"notice": "Purchases an NFT from an active listing."
					},
					"setCommissionPercent(uint256)": {
						"notice": "Updates the marketplace commission percentage."
					},
					"tokenOfOwnerByIndex(address,uint256)": {
						"notice": "Returns the token ID owned by `_owner` at a specific `index`."
					},
					"withdrawFunds()": {
						"notice": "Withdraws all funds from the contract."
					}
				},
				"version": 1
			}
		}
	}
}