{
	"contracts/Orders.sol": {
		"Marketplace": {
			"abi": [
				{
					"inputs": [
						{
							"internalType": "address",
							"name": "_nftContractAddress",
							"type": "address"
						},
						{
							"internalType": "uint256",
							"name": "_commissionPercent",
							"type": "uint256"
						}
					],
					"stateMutability": "nonpayable",
					"type": "constructor"
				},
				{
					"anonymous": false,
					"inputs": [
						{
							"indexed": false,
							"internalType": "uint256",
							"name": "newPercent",
							"type": "uint256"
						}
					],
					"name": "CommissionUpdated",
					"type": "event"
				},
				{
					"anonymous": false,
					"inputs": [
						{
							"indexed": false,
							"internalType": "string",
							"name": "message",
							"type": "string"
						}
					],
					"name": "Debug",
					"type": "event"
				},
				{
					"anonymous": false,
					"inputs": [
						{
							"indexed": false,
							"internalType": "uint256",
							"name": "amount",
							"type": "uint256"
						},
						{
							"indexed": true,
							"internalType": "address",
							"name": "owner",
							"type": "address"
						}
					],
					"name": "FundsWithdrawn",
					"type": "event"
				},
				{
					"anonymous": false,
					"inputs": [
						{
							"indexed": true,
							"internalType": "uint256",
							"name": "id",
							"type": "uint256"
						},
						{
							"indexed": true,
							"internalType": "address",
							"name": "seller",
							"type": "address"
						}
					],
					"name": "ListingCancelled",
					"type": "event"
				},
				{
					"anonymous": false,
					"inputs": [
						{
							"indexed": true,
							"internalType": "uint256",
							"name": "id",
							"type": "uint256"
						},
						{
							"indexed": true,
							"internalType": "address",
							"name": "seller",
							"type": "address"
						},
						{
							"indexed": false,
							"internalType": "uint256",
							"name": "tokenId",
							"type": "uint256"
						},
						{
							"indexed": false,
							"internalType": "uint256",
							"name": "price",
							"type": "uint256"
						},
						{
							"indexed": false,
							"internalType": "uint256",
							"name": "timestamp",
							"type": "uint256"
						}
					],
					"name": "ListingCreated",
					"type": "event"
				},
				{
					"anonymous": false,
					"inputs": [
						{
							"indexed": true,
							"internalType": "uint256",
							"name": "id",
							"type": "uint256"
						},
						{
							"indexed": true,
							"internalType": "address",
							"name": "buyer",
							"type": "address"
						},
						{
							"indexed": false,
							"internalType": "uint256",
							"name": "tokenId",
							"type": "uint256"
						},
						{
							"indexed": false,
							"internalType": "uint256",
							"name": "price",
							"type": "uint256"
						},
						{
							"indexed": false,
							"internalType": "uint256",
							"name": "timestamp",
							"type": "uint256"
						}
					],
					"name": "PurchaseCompleted",
					"type": "event"
				},
				{
					"anonymous": false,
					"inputs": [
						{
							"indexed": true,
							"internalType": "uint256",
							"name": "tokenID",
							"type": "uint256"
						},
						{
							"indexed": false,
							"internalType": "string",
							"name": "name",
							"type": "string"
						}
					],
					"name": "TokenCreated",
					"type": "event"
				},
				{
					"inputs": [
						{
							"internalType": "address",
							"name": "account",
							"type": "address"
						}
					],
					"name": "balanceOf",
					"outputs": [
						{
							"internalType": "uint256",
							"name": "",
							"type": "uint256"
						}
					],
					"stateMutability": "view",
					"type": "function"
				},
				{
					"inputs": [
						{
							"internalType": "uint256",
							"name": "_listingId",
							"type": "uint256"
						}
					],
					"name": "cancelListing",
					"outputs": [],
					"stateMutability": "nonpayable",
					"type": "function"
				},
				{
					"inputs": [],
					"name": "commissionPercent",
					"outputs": [
						{
							"internalType": "uint256",
							"name": "",
							"type": "uint256"
						}
					],
					"stateMutability": "view",
					"type": "function"
				},
				{
					"inputs": [
						{
							"internalType": "uint128",
							"name": "_tokenId",
							"type": "uint128"
						},
						{
							"internalType": "uint128",
							"name": "_price",
							"type": "uint128"
						},
						{
							"internalType": "string",
							"name": "_name",
							"type": "string"
						}
					],
					"name": "createListing",
					"outputs": [],
					"stateMutability": "nonpayable",
					"type": "function"
				},
				{
					"inputs": [
						{
							"internalType": "uint256",
							"name": "",
							"type": "uint256"
						}
					],
					"name": "listings",
					"outputs": [
						{
							"internalType": "address",
							"name": "seller",
							"type": "address"
						},
						{
							"internalType": "uint128",
							"name": "tokenId",
							"type": "uint128"
						},
						{
							"internalType": "uint128",
							"name": "price",
							"type": "uint128"
						}
					],
					"stateMutability": "view",
					"type": "function"
				},
				{
					"inputs": [],
					"name": "nftContract",
					"outputs": [
						{
							"internalType": "contract IERC721",
							"name": "",
							"type": "address"
						}
					],
					"stateMutability": "view",
					"type": "function"
				},
				{
					"inputs": [],
					"name": "nftEnumerable",
					"outputs": [
						{
							"internalType": "contract IERC721Enumerable",
							"name": "",
							"type": "address"
						}
					],
					"stateMutability": "view",
					"type": "function"
				},
				{
					"inputs": [],
					"name": "owner",
					"outputs": [
						{
							"internalType": "address payable",
							"name": "",
							"type": "address"
						}
					],
					"stateMutability": "view",
					"type": "function"
				},
				{
					"inputs": [
						{
							"internalType": "address",
							"name": "",
							"type": "address"
						}
					],
					"name": "pendingWithdrawals",
					"outputs": [
						{
							"internalType": "uint256",
							"name": "",
							"type": "uint256"
						}
					],
					"stateMutability": "view",
					"type": "function"
				},
				{
					"inputs": [
						{
							"internalType": "uint256",
							"name": "_listingId",
							"type": "uint256"
						}
					],
					"name": "purchaseListing",
					"outputs": [],
					"stateMutability": "payable",
					"type": "function"
				},
				{
					"inputs": [
						{
							"internalType": "uint256",
							"name": "_newPercent",
							"type": "uint256"
						}
					],
					"name": "setCommissionPercent",
					"outputs": [],
					"stateMutability": "nonpayable",
					"type": "function"
				},
				{
					"inputs": [
						{
							"internalType": "address",
							"name": "_owner",
							"type": "address"
						},
						{
							"internalType": "uint256",
							"name": "index",
							"type": "uint256"
						}
					],
					"name": "tokenOfOwnerByIndex",
					"outputs": [
						{
							"internalType": "uint256",
							"name": "tokenId",
							"type": "uint256"
						}
					],
					"stateMutability": "view",
					"type": "function"
				},
				{
					"inputs": [],
					"name": "withdrawFunds",
					"outputs": [],
					"stateMutability": "nonpayable",
					"type": "function"
				},
				{
					"stateMutability": "payable",
					"type": "receive"
				}
			],
			"devdoc": {
				"details": "This contract facilitates the listing and sale of ERC721 tokens with added enumerable support.",
				"kind": "dev",
				"methods": {
					"cancelListing(uint256)": {
						"params": {
							"_listingId": "ID of the listing to cancel."
						}
					},
					"constructor": {
						"details": "Initializes the marketplace with an ERC721 contract and commission percentage.",
						"params": {
							"_commissionPercent": "Marketplace commission percentage.",
							"_nftContractAddress": "Address of the ERC721 token contract."
						}
					},
					"createListing(uint128,uint128,string)": {
						"params": {
							"_price": "Sale price in wei.",
							"_tokenId": "ID of the token to sell."
						}
					},
					"purchaseListing(uint256)": {
						"params": {
							"_listingId": "ID of the listing to purchase."
						}
					},
					"setCommissionPercent(uint256)": {
						"params": {
							"_newPercent": "New commission percentage."
						}
					},
					"tokenOfOwnerByIndex(address,uint256)": {
						"params": {
							"_owner": "Address of the token owner.",
							"index": "Index in the list of the `_owner`'s tokens."
						},
						"returns": {
							"tokenId": "The ID of the token owned by the `_owner` at the given index."
						}
					}
				},
				"stateVariables": {
					"listings": {
						"details": "Stores all listings by their unique ID."
					},
					"pendingWithdrawals": {
						"details": "Pending withdrawals for sellers."
					},
					"tokenToListingId": {
						"details": "Maps token IDs to their active listing ID."
					},
					"unlocked": {
						"details": "Reentrancy guard modifier."
					}
				},
				"title": "NFT Marketplace",
				"version": 1
			},
			"evm": {
				"assembly": "    /* \"contracts/Orders.sol\":349:7936  contract Marketplace {... */\n  mstore(0x40, 0x80)\n    /* \"contracts/Orders.sol\":2536:2537  1 */\n  0x01\n    /* \"contracts/Orders.sol\":2509:2537  uint256 private unlocked = 1 */\n  0x07\n  sstore\n    /* \"contracts/Orders.sol\":2982:3340  constructor(address _nftContractAddress, uint256 _commissionPercent) {... */\n  callvalue\n  dup1\n  iszero\n  tag_1\n  jumpi\n  0x00\n  dup1\n  revert\ntag_1:\n  pop\n  mload(0x40)\n  sub(codesize, bytecodeSize)\n  dup1\n  bytecodeSize\n  dup4\n  codecopy\n  dup2\n  dup2\n  add\n  0x40\n  mstore\n  dup2\n  add\n  swap1\n  tag_2\n  swap2\n  swap1\n  tag_3\n  jump\t// in\ntag_2:\n    /* \"contracts/Orders.sol\":3092:3094  50 */\n  0x32\n    /* \"contracts/Orders.sol\":3070:3088  _commissionPercent */\n  dup2\n    /* \"contracts/Orders.sol\":3070:3094  _commissionPercent <= 50 */\n  gt\n  iszero\n    /* \"contracts/Orders.sol\":3062:3127  require(_commissionPercent <= 50, \"Commission cannot exceed 50%\") */\n  tag_6\n  jumpi\n  mload(0x40)\n  0x08c379a000000000000000000000000000000000000000000000000000000000\n  dup2\n  mstore\n  0x04\n  add\n  tag_7\n  swap1\n  tag_8\n  jump\t// in\ntag_7:\n  mload(0x40)\n  dup1\n  swap2\n  sub\n  swap1\n  revert\ntag_6:\n    /* \"contracts/Orders.sol\":3154:3164  msg.sender */\n  caller\n    /* \"contracts/Orders.sol\":3138:3143  owner */\n  0x00\n  dup1\n    /* \"contracts/Orders.sol\":3138:3165  owner = payable(msg.sender) */\n  0x0100\n  exp\n  dup2\n  sload\n  dup2\n  0xffffffffffffffffffffffffffffffffffffffff\n  mul\n  not\n  and\n  swap1\n  dup4\n  0xffffffffffffffffffffffffffffffffffffffff\n  and\n  mul\n  or\n  swap1\n  sstore\n  pop\n    /* \"contracts/Orders.sol\":3198:3217  _nftContractAddress */\n  dup2\n    /* \"contracts/Orders.sol\":3176:3187  nftContract */\n  0x05\n  0x00\n    /* \"contracts/Orders.sol\":3176:3218  nftContract = IERC721(_nftContractAddress) */\n  0x0100\n  exp\n  dup2\n  sload\n  dup2\n  0xffffffffffffffffffffffffffffffffffffffff\n  mul\n  not\n  and\n  swap1\n  dup4\n  0xffffffffffffffffffffffffffffffffffffffff\n  and\n  mul\n  or\n  swap1\n  sstore\n  pop\n    /* \"contracts/Orders.sol\":3263:3282  _nftContractAddress */\n  dup2\n    /* \"contracts/Orders.sol\":3229:3242  nftEnumerable */\n  0x06\n  0x00\n    /* \"contracts/Orders.sol\":3229:3283  nftEnumerable = IERC721Enumerable(_nftContractAddress) */\n  0x0100\n  exp\n  dup2\n  sload\n  dup2\n  0xffffffffffffffffffffffffffffffffffffffff\n  mul\n  not\n  and\n  swap1\n  dup4\n  0xffffffffffffffffffffffffffffffffffffffff\n  and\n  mul\n  or\n  swap1\n  sstore\n  pop\n    /* \"contracts/Orders.sol\":3314:3332  _commissionPercent */\n  dup1\n    /* \"contracts/Orders.sol\":3294:3311  commissionPercent */\n  0x01\n    /* \"contracts/Orders.sol\":3294:3332  commissionPercent = _commissionPercent */\n  dup2\n  swap1\n  sstore\n  pop\n    /* \"contracts/Orders.sol\":2982:3340  constructor(address _nftContractAddress, uint256 _commissionPercent) {... */\n  pop\n  pop\n    /* \"contracts/Orders.sol\":349:7936  contract Marketplace {... */\n  jump(tag_9)\n    /* \"#utility.yul\":88:205   */\ntag_11:\n    /* \"#utility.yul\":197:198   */\n  0x00\n    /* \"#utility.yul\":194:195   */\n  dup1\n    /* \"#utility.yul\":187:199   */\n  revert\n    /* \"#utility.yul\":334:460   */\ntag_13:\n    /* \"#utility.yul\":371:378   */\n  0x00\n    /* \"#utility.yul\":411:453   */\n  0xffffffffffffffffffffffffffffffffffffffff\n    /* \"#utility.yul\":404:409   */\n  dup3\n    /* \"#utility.yul\":400:454   */\n  and\n    /* \"#utility.yul\":389:454   */\n  swap1\n  pop\n    /* \"#utility.yul\":334:460   */\n  swap2\n  swap1\n  pop\n  jump\t// out\n    /* \"#utility.yul\":466:562   */\ntag_14:\n    /* \"#utility.yul\":503:510   */\n  0x00\n    /* \"#utility.yul\":532:556   */\n  tag_29\n    /* \"#utility.yul\":550:555   */\n  dup3\n    /* \"#utility.yul\":532:556   */\n  tag_13\n  jump\t// in\ntag_29:\n    /* \"#utility.yul\":521:556   */\n  swap1\n  pop\n    /* \"#utility.yul\":466:562   */\n  swap2\n  swap1\n  pop\n  jump\t// out\n    /* \"#utility.yul\":568:690   */\ntag_15:\n    /* \"#utility.yul\":641:665   */\n  tag_31\n    /* \"#utility.yul\":659:664   */\n  dup2\n    /* \"#utility.yul\":641:665   */\n  tag_14\n  jump\t// in\ntag_31:\n    /* \"#utility.yul\":634:639   */\n  dup2\n    /* \"#utility.yul\":631:666   */\n  eq\n    /* \"#utility.yul\":621:684   */\n  tag_32\n  jumpi\n    /* \"#utility.yul\":680:681   */\n  0x00\n    /* \"#utility.yul\":677:678   */\n  dup1\n    /* \"#utility.yul\":670:682   */\n  revert\n    /* \"#utility.yul\":621:684   */\ntag_32:\n    /* \"#utility.yul\":568:690   */\n  pop\n  jump\t// out\n    /* \"#utility.yul\":696:839   */\ntag_16:\n    /* \"#utility.yul\":753:758   */\n  0x00\n    /* \"#utility.yul\":784:790   */\n  dup2\n    /* \"#utility.yul\":778:791   */\n  mload\n    /* \"#utility.yul\":769:791   */\n  swap1\n  pop\n    /* \"#utility.yul\":800:833   */\n  tag_34\n    /* \"#utility.yul\":827:832   */\n  dup2\n    /* \"#utility.yul\":800:833   */\n  tag_15\n  jump\t// in\ntag_34:\n    /* \"#utility.yul\":696:839   */\n  swap3\n  swap2\n  pop\n  pop\n  jump\t// out\n    /* \"#utility.yul\":845:922   */\ntag_17:\n    /* \"#utility.yul\":882:889   */\n  0x00\n    /* \"#utility.yul\":911:916   */\n  dup2\n    /* \"#utility.yul\":900:916   */\n  swap1\n  pop\n    /* \"#utility.yul\":845:922   */\n  swap2\n  swap1\n  pop\n  jump\t// out\n    /* \"#utility.yul\":928:1050   */\ntag_18:\n    /* \"#utility.yul\":1001:1025   */\n  tag_37\n    /* \"#utility.yul\":1019:1024   */\n  dup2\n    /* \"#utility.yul\":1001:1025   */\n  tag_17\n  jump\t// in\ntag_37:\n    /* \"#utility.yul\":994:999   */\n  dup2\n    /* \"#utility.yul\":991:1026   */\n  eq\n    /* \"#utility.yul\":981:1044   */\n  tag_38\n  jumpi\n    /* \"#utility.yul\":1040:1041   */\n  0x00\n    /* \"#utility.yul\":1037:1038   */\n  dup1\n    /* \"#utility.yul\":1030:1042   */\n  revert\n    /* \"#utility.yul\":981:1044   */\ntag_38:\n    /* \"#utility.yul\":928:1050   */\n  pop\n  jump\t// out\n    /* \"#utility.yul\":1056:1199   */\ntag_19:\n    /* \"#utility.yul\":1113:1118   */\n  0x00\n    /* \"#utility.yul\":1144:1150   */\n  dup2\n    /* \"#utility.yul\":1138:1151   */\n  mload\n    /* \"#utility.yul\":1129:1151   */\n  swap1\n  pop\n    /* \"#utility.yul\":1160:1193   */\n  tag_40\n    /* \"#utility.yul\":1187:1192   */\n  dup2\n    /* \"#utility.yul\":1160:1193   */\n  tag_18\n  jump\t// in\ntag_40:\n    /* \"#utility.yul\":1056:1199   */\n  swap3\n  swap2\n  pop\n  pop\n  jump\t// out\n    /* \"#utility.yul\":1205:1712   */\ntag_3:\n    /* \"#utility.yul\":1284:1290   */\n  0x00\n    /* \"#utility.yul\":1292:1298   */\n  dup1\n    /* \"#utility.yul\":1341:1343   */\n  0x40\n    /* \"#utility.yul\":1329:1338   */\n  dup4\n    /* \"#utility.yul\":1320:1327   */\n  dup6\n    /* \"#utility.yul\":1316:1339   */\n  sub\n    /* \"#utility.yul\":1312:1344   */\n  slt\n    /* \"#utility.yul\":1309:1428   */\n  iszero\n  tag_42\n  jumpi\n    /* \"#utility.yul\":1347:1426   */\n  tag_43\n  tag_11\n  jump\t// in\ntag_43:\n    /* \"#utility.yul\":1309:1428   */\ntag_42:\n    /* \"#utility.yul\":1467:1468   */\n  0x00\n    /* \"#utility.yul\":1492:1556   */\n  tag_44\n    /* \"#utility.yul\":1548:1555   */\n  dup6\n    /* \"#utility.yul\":1539:1545   */\n  dup3\n    /* \"#utility.yul\":1528:1537   */\n  dup7\n    /* \"#utility.yul\":1524:1546   */\n  add\n    /* \"#utility.yul\":1492:1556   */\n  tag_16\n  jump\t// in\ntag_44:\n    /* \"#utility.yul\":1482:1556   */\n  swap3\n  pop\n    /* \"#utility.yul\":1438:1566   */\n  pop\n    /* \"#utility.yul\":1605:1607   */\n  0x20\n    /* \"#utility.yul\":1631:1695   */\n  tag_45\n    /* \"#utility.yul\":1687:1694   */\n  dup6\n    /* \"#utility.yul\":1678:1684   */\n  dup3\n    /* \"#utility.yul\":1667:1676   */\n  dup7\n    /* \"#utility.yul\":1663:1685   */\n  add\n    /* \"#utility.yul\":1631:1695   */\n  tag_19\n  jump\t// in\ntag_45:\n    /* \"#utility.yul\":1621:1695   */\n  swap2\n  pop\n    /* \"#utility.yul\":1576:1705   */\n  pop\n    /* \"#utility.yul\":1205:1712   */\n  swap3\n  pop\n  swap3\n  swap1\n  pop\n  jump\t// out\n    /* \"#utility.yul\":1718:1887   */\ntag_20:\n    /* \"#utility.yul\":1802:1813   */\n  0x00\n    /* \"#utility.yul\":1836:1842   */\n  dup3\n    /* \"#utility.yul\":1831:1834   */\n  dup3\n    /* \"#utility.yul\":1824:1843   */\n  mstore\n    /* \"#utility.yul\":1876:1880   */\n  0x20\n    /* \"#utility.yul\":1871:1874   */\n  dup3\n    /* \"#utility.yul\":1867:1881   */\n  add\n    /* \"#utility.yul\":1852:1881   */\n  swap1\n  pop\n    /* \"#utility.yul\":1718:1887   */\n  swap3\n  swap2\n  pop\n  pop\n  jump\t// out\n    /* \"#utility.yul\":1893:2071   */\ntag_21:\n    /* \"#utility.yul\":2033:2063   */\n  0x436f6d6d697373696f6e2063616e6e6f74206578636565642035302500000000\n    /* \"#utility.yul\":2029:2030   */\n  0x00\n    /* \"#utility.yul\":2021:2027   */\n  dup3\n    /* \"#utility.yul\":2017:2031   */\n  add\n    /* \"#utility.yul\":2010:2064   */\n  mstore\n    /* \"#utility.yul\":1893:2071   */\n  pop\n  jump\t// out\n    /* \"#utility.yul\":2077:2443   */\ntag_22:\n    /* \"#utility.yul\":2219:2222   */\n  0x00\n    /* \"#utility.yul\":2240:2307   */\n  tag_49\n    /* \"#utility.yul\":2304:2306   */\n  0x1c\n    /* \"#utility.yul\":2299:2302   */\n  dup4\n    /* \"#utility.yul\":2240:2307   */\n  tag_20\n  jump\t// in\ntag_49:\n    /* \"#utility.yul\":2233:2307   */\n  swap2\n  pop\n    /* \"#utility.yul\":2316:2409   */\n  tag_50\n    /* \"#utility.yul\":2405:2408   */\n  dup3\n    /* \"#utility.yul\":2316:2409   */\n  tag_21\n  jump\t// in\ntag_50:\n    /* \"#utility.yul\":2434:2436   */\n  0x20\n    /* \"#utility.yul\":2429:2432   */\n  dup3\n    /* \"#utility.yul\":2425:2437   */\n  add\n    /* \"#utility.yul\":2418:2437   */\n  swap1\n  pop\n    /* \"#utility.yul\":2077:2443   */\n  swap2\n  swap1\n  pop\n  jump\t// out\n    /* \"#utility.yul\":2449:2868   */\ntag_8:\n    /* \"#utility.yul\":2615:2619   */\n  0x00\n    /* \"#utility.yul\":2653:2655   */\n  0x20\n    /* \"#utility.yul\":2642:2651   */\n  dup3\n    /* \"#utility.yul\":2638:2656   */\n  add\n    /* \"#utility.yul\":2630:2656   */\n  swap1\n  pop\n    /* \"#utility.yul\":2702:2711   */\n  dup2\n    /* \"#utility.yul\":2696:2700   */\n  dup2\n    /* \"#utility.yul\":2692:2712   */\n  sub\n    /* \"#utility.yul\":2688:2689   */\n  0x00\n    /* \"#utility.yul\":2677:2686   */\n  dup4\n    /* \"#utility.yul\":2673:2690   */\n  add\n    /* \"#utility.yul\":2666:2713   */\n  mstore\n    /* \"#utility.yul\":2730:2861   */\n  tag_52\n    /* \"#utility.yul\":2856:2860   */\n  dup2\n    /* \"#utility.yul\":2730:2861   */\n  tag_22\n  jump\t// in\ntag_52:\n    /* \"#utility.yul\":2722:2861   */\n  swap1\n  pop\n    /* \"#utility.yul\":2449:2868   */\n  swap2\n  swap1\n  pop\n  jump\t// out\n    /* \"contracts/Orders.sol\":349:7936  contract Marketplace {... */\ntag_9:\n  dataSize(sub_0)\n  dup1\n  dataOffset(sub_0)\n  0x00\n  codecopy\n  0x00\n  return\nstop\n\nsub_0: assembly {\n        /* \"contracts/Orders.sol\":349:7936  contract Marketplace {... */\n      mstore(0x40, 0x80)\n      jumpi(tag_1, lt(calldatasize, 0x04))\n      shr(0xe0, calldataload(0x00))\n      dup1\n      0x70a08231\n      gt\n      tag_16\n      jumpi\n      dup1\n      0xa6b77511\n      gt\n      tag_17\n      jumpi\n      dup1\n      0xa6b77511\n      eq\n      tag_12\n      jumpi\n      dup1\n      0xd56d229d\n      eq\n      tag_13\n      jumpi\n      dup1\n      0xde74e57b\n      eq\n      tag_14\n      jumpi\n      dup1\n      0xf3f43703\n      eq\n      tag_15\n      jumpi\n      jump(tag_2)\n    tag_17:\n      dup1\n      0x70a08231\n      eq\n      tag_9\n      jumpi\n      dup1\n      0x77d3550b\n      eq\n      tag_10\n      jumpi\n      dup1\n      0x8da5cb5b\n      eq\n      tag_11\n      jumpi\n      jump(tag_2)\n    tag_16:\n      dup1\n      0x169d5a7d\n      eq\n      tag_3\n      jumpi\n      dup1\n      0x24600fc3\n      eq\n      tag_4\n      jumpi\n      dup1\n      0x2f745c59\n      eq\n      tag_5\n      jumpi\n      dup1\n      0x305a67a8\n      eq\n      tag_6\n      jumpi\n      dup1\n      0x404a9ab8\n      eq\n      tag_7\n      jumpi\n      dup1\n      0x51e61b25\n      eq\n      tag_8\n      jumpi\n      jump(tag_2)\n    tag_1:\n      jumpi(tag_2, calldatasize)\n      stop\n    tag_2:\n      0x00\n      dup1\n      revert\n        /* \"contracts/Orders.sol\":4881:5932  function purchaseListing(uint256 _listingId) external payable nonReentrant {... */\n    tag_3:\n      tag_20\n      0x04\n      dup1\n      calldatasize\n      sub\n      dup2\n      add\n      swap1\n      tag_21\n      swap2\n      swap1\n      tag_22\n      jump\t// in\n    tag_21:\n      tag_23\n      jump\t// in\n    tag_20:\n      stop\n        /* \"contracts/Orders.sol\":6926:7306  function withdrawFunds() external nonReentrant {... */\n    tag_4:\n      callvalue\n      dup1\n      iszero\n      tag_24\n      jumpi\n      0x00\n      dup1\n      revert\n    tag_24:\n      pop\n      tag_25\n      tag_26\n      jump\t// in\n    tag_25:\n      stop\n        /* \"contracts/Orders.sol\":7611:7818  function tokenOfOwnerByIndex(address _owner, uint256 index)... */\n    tag_5:\n      callvalue\n      dup1\n      iszero\n      tag_27\n      jumpi\n      0x00\n      dup1\n      revert\n    tag_27:\n      pop\n      tag_28\n      0x04\n      dup1\n      calldatasize\n      sub\n      dup2\n      add\n      swap1\n      tag_29\n      swap2\n      swap1\n      tag_30\n      jump\t// in\n    tag_29:\n      tag_31\n      jump\t// in\n    tag_28:\n      mload(0x40)\n      tag_32\n      swap2\n      swap1\n      tag_33\n      jump\t// in\n    tag_32:\n      mload(0x40)\n      dup1\n      swap2\n      sub\n      swap1\n      return\n        /* \"contracts/Orders.sol\":6056:6464  function cancelListing(uint256 _listingId) external {... */\n    tag_6:\n      callvalue\n      dup1\n      iszero\n      tag_34\n      jumpi\n      0x00\n      dup1\n      revert\n    tag_34:\n      pop\n      tag_35\n      0x04\n      dup1\n      calldatasize\n      sub\n      dup2\n      add\n      swap1\n      tag_36\n      swap2\n      swap1\n      tag_22\n      jump\t// in\n    tag_36:\n      tag_37\n      jump\t// in\n    tag_35:\n      stop\n        /* \"contracts/Orders.sol\":6607:6845  function setCommissionPercent(uint256 _newPercent) external onlyOwner {... */\n    tag_7:\n      callvalue\n      dup1\n      iszero\n      tag_38\n      jumpi\n      0x00\n      dup1\n      revert\n    tag_38:\n      pop\n      tag_39\n      0x04\n      dup1\n      calldatasize\n      sub\n      dup2\n      add\n      swap1\n      tag_40\n      swap2\n      swap1\n      tag_22\n      jump\t// in\n    tag_40:\n      tag_41\n      jump\t// in\n    tag_39:\n      stop\n        /* \"contracts/Orders.sol\":1219:1257  IERC721Enumerable public nftEnumerable */\n    tag_8:\n      callvalue\n      dup1\n      iszero\n      tag_42\n      jumpi\n      0x00\n      dup1\n      revert\n    tag_42:\n      pop\n      tag_43\n      tag_44\n      jump\t// in\n    tag_43:\n      mload(0x40)\n      tag_45\n      swap2\n      swap1\n      tag_46\n      jump\t// in\n    tag_45:\n      mload(0x40)\n      dup1\n      swap2\n      sub\n      swap1\n      return\n        /* \"contracts/Orders.sol\":7826:7933  function balanceOf(address account) public view returns (uint256) {... */\n    tag_9:\n      callvalue\n      dup1\n      iszero\n      tag_47\n      jumpi\n      0x00\n      dup1\n      revert\n    tag_47:\n      pop\n      tag_48\n      0x04\n      dup1\n      calldatasize\n      sub\n      dup2\n      add\n      swap1\n      tag_49\n      swap2\n      swap1\n      tag_50\n      jump\t// in\n    tag_49:\n      tag_51\n      jump\t// in\n    tag_48:\n      mload(0x40)\n      tag_52\n      swap2\n      swap1\n      tag_33\n      jump\t// in\n    tag_52:\n      mload(0x40)\n      dup1\n      swap2\n      sub\n      swap1\n      return\n        /* \"contracts/Orders.sol\":688:720  uint256 public commissionPercent */\n    tag_10:\n      callvalue\n      dup1\n      iszero\n      tag_53\n      jumpi\n      0x00\n      dup1\n      revert\n    tag_53:\n      pop\n      tag_54\n      tag_55\n      jump\t// in\n    tag_54:\n      mload(0x40)\n      tag_56\n      swap2\n      swap1\n      tag_33\n      jump\t// in\n    tag_56:\n      mload(0x40)\n      dup1\n      swap2\n      sub\n      swap1\n      return\n        /* \"contracts/Orders.sol\":584:612  address payable public owner */\n    tag_11:\n      callvalue\n      dup1\n      iszero\n      tag_57\n      jumpi\n      0x00\n      dup1\n      revert\n    tag_57:\n      pop\n      tag_58\n      tag_59\n      jump\t// in\n    tag_58:\n      mload(0x40)\n      tag_60\n      swap2\n      swap1\n      tag_61\n      jump\t// in\n    tag_60:\n      mload(0x40)\n      dup1\n      swap2\n      sub\n      swap1\n      return\n        /* \"contracts/Orders.sol\":3506:4705  function createListing(uint128 _tokenId, uint128 _price, string calldata _name) external {... */\n    tag_12:\n      callvalue\n      dup1\n      iszero\n      tag_62\n      jumpi\n      0x00\n      dup1\n      revert\n    tag_62:\n      pop\n      tag_63\n      0x04\n      dup1\n      calldatasize\n      sub\n      dup2\n      add\n      swap1\n      tag_64\n      swap2\n      swap1\n      tag_65\n      jump\t// in\n    tag_64:\n      tag_66\n      jump\t// in\n    tag_63:\n      stop\n        /* \"contracts/Orders.sol\":1120:1146  IERC721 public nftContract */\n    tag_13:\n      callvalue\n      dup1\n      iszero\n      tag_67\n      jumpi\n      0x00\n      dup1\n      revert\n    tag_67:\n      pop\n      tag_68\n      tag_69\n      jump\t// in\n    tag_68:\n      mload(0x40)\n      tag_70\n      swap2\n      swap1\n      tag_71\n      jump\t// in\n    tag_70:\n      mload(0x40)\n      dup1\n      swap2\n      sub\n      swap1\n      return\n        /* \"contracts/Orders.sol\":783:826  mapping(uint256 => Listing) public listings */\n    tag_14:\n      callvalue\n      dup1\n      iszero\n      tag_72\n      jumpi\n      0x00\n      dup1\n      revert\n    tag_72:\n      pop\n      tag_73\n      0x04\n      dup1\n      calldatasize\n      sub\n      dup2\n      add\n      swap1\n      tag_74\n      swap2\n      swap1\n      tag_22\n      jump\t// in\n    tag_74:\n      tag_75\n      jump\t// in\n    tag_73:\n      mload(0x40)\n      tag_76\n      swap4\n      swap3\n      swap2\n      swap1\n      tag_77\n      jump\t// in\n    tag_76:\n      mload(0x40)\n      dup1\n      swap2\n      sub\n      swap1\n      return\n        /* \"contracts/Orders.sol\":1000:1053  mapping(address => uint256) public pendingWithdrawals */\n    tag_15:\n      callvalue\n      dup1\n      iszero\n      tag_78\n      jumpi\n      0x00\n      dup1\n      revert\n    tag_78:\n      pop\n      tag_79\n      0x04\n      dup1\n      calldatasize\n      sub\n      dup2\n      add\n      swap1\n      tag_80\n      swap2\n      swap1\n      tag_50\n      jump\t// in\n    tag_80:\n      tag_81\n      jump\t// in\n    tag_79:\n      mload(0x40)\n      tag_82\n      swap2\n      swap1\n      tag_33\n      jump\t// in\n    tag_82:\n      mload(0x40)\n      dup1\n      swap2\n      sub\n      swap1\n      return\n        /* \"contracts/Orders.sol\":4881:5932  function purchaseListing(uint256 _listingId) external payable nonReentrant {... */\n    tag_23:\n        /* \"contracts/Orders.sol\":2599:2600  1 */\n      0x01\n        /* \"contracts/Orders.sol\":2587:2595  unlocked */\n      sload(0x07)\n        /* \"contracts/Orders.sol\":2587:2600  unlocked == 1 */\n      eq\n        /* \"contracts/Orders.sol\":2579:2619  require(unlocked == 1, \"Reentrant call\") */\n      tag_84\n      jumpi\n      mload(0x40)\n      0x08c379a000000000000000000000000000000000000000000000000000000000\n      dup2\n      mstore\n      0x04\n      add\n      tag_85\n      swap1\n      tag_86\n      jump\t// in\n    tag_85:\n      mload(0x40)\n      dup1\n      swap2\n      sub\n      swap1\n      revert\n    tag_84:\n        /* \"contracts/Orders.sol\":2641:2642  0 */\n      0x00\n        /* \"contracts/Orders.sol\":2630:2638  unlocked */\n      0x07\n        /* \"contracts/Orders.sol\":2630:2642  unlocked = 0 */\n      dup2\n      swap1\n      sstore\n      pop\n        /* \"contracts/Orders.sol\":4967:4990  Listing storage listing */\n      0x00\n        /* \"contracts/Orders.sol\":4993:5001  listings */\n      0x02\n        /* \"contracts/Orders.sol\":4993:5013  listings[_listingId] */\n      0x00\n        /* \"contracts/Orders.sol\":5002:5012  _listingId */\n      dup4\n        /* \"contracts/Orders.sol\":4993:5013  listings[_listingId] */\n      dup2\n      mstore\n      0x20\n      add\n      swap1\n      dup2\n      mstore\n      0x20\n      add\n      0x00\n      keccak256\n        /* \"contracts/Orders.sol\":4967:5013  Listing storage listing = listings[_listingId] */\n      swap1\n      pop\n        /* \"contracts/Orders.sol\":5048:5049  0 */\n      0x00\n        /* \"contracts/Orders.sol\":5032:5039  listing */\n      dup2\n        /* \"contracts/Orders.sol\":5032:5045  listing.price */\n      0x01\n      add\n      0x10\n      swap1\n      sload\n      swap1\n      0x0100\n      exp\n      swap1\n      div\n      0xffffffffffffffffffffffffffffffff\n      and\n        /* \"contracts/Orders.sol\":5032:5049  listing.price > 0 */\n      0xffffffffffffffffffffffffffffffff\n      and\n      gt\n        /* \"contracts/Orders.sol\":5024:5081  require(listing.price > 0, \"Invalid or inactive listing\") */\n      tag_88\n      jumpi\n      mload(0x40)\n      0x08c379a000000000000000000000000000000000000000000000000000000000\n      dup2\n      mstore\n      0x04\n      add\n      tag_89\n      swap1\n      tag_90\n      jump\t// in\n    tag_89:\n      mload(0x40)\n      dup1\n      swap2\n      sub\n      swap1\n      revert\n    tag_88:\n        /* \"contracts/Orders.sol\":5113:5120  listing */\n      dup1\n        /* \"contracts/Orders.sol\":5113:5126  listing.price */\n      0x01\n      add\n      0x10\n      swap1\n      sload\n      swap1\n      0x0100\n      exp\n      swap1\n      div\n      0xffffffffffffffffffffffffffffffff\n      and\n        /* \"contracts/Orders.sol\":5100:5126  msg.value == listing.price */\n      0xffffffffffffffffffffffffffffffff\n      and\n        /* \"contracts/Orders.sol\":5100:5109  msg.value */\n      callvalue\n        /* \"contracts/Orders.sol\":5100:5126  msg.value == listing.price */\n      eq\n        /* \"contracts/Orders.sol\":5092:5155  require(msg.value == listing.price, \"Incorrect payment amount\") */\n      tag_91\n      jumpi\n      mload(0x40)\n      0x08c379a000000000000000000000000000000000000000000000000000000000\n      dup2\n      mstore\n      0x04\n      add\n      tag_92\n      swap1\n      tag_93\n      jump\t// in\n    tag_92:\n      mload(0x40)\n      dup1\n      swap2\n      sub\n      swap1\n      revert\n    tag_91:\n        /* \"contracts/Orders.sol\":5168:5192  uint256 commissionAmount */\n      0x00\n        /* \"contracts/Orders.sol\":5229:5232  100 */\n      0x64\n        /* \"contracts/Orders.sol\":5208:5225  commissionPercent */\n      sload(0x01)\n        /* \"contracts/Orders.sol\":5196:5205  msg.value */\n      callvalue\n        /* \"contracts/Orders.sol\":5196:5225  msg.value * commissionPercent */\n      tag_94\n      swap2\n      swap1\n      tag_95\n      jump\t// in\n    tag_94:\n        /* \"contracts/Orders.sol\":5195:5232  (msg.value * commissionPercent) / 100 */\n      tag_96\n      swap2\n      swap1\n      tag_97\n      jump\t// in\n    tag_96:\n        /* \"contracts/Orders.sol\":5168:5232  uint256 commissionAmount = (msg.value * commissionPercent) / 100 */\n      swap1\n      pop\n        /* \"contracts/Orders.sol\":5243:5263  uint256 sellerAmount */\n      0x00\n        /* \"contracts/Orders.sol\":5278:5294  commissionAmount */\n      dup2\n        /* \"contracts/Orders.sol\":5266:5275  msg.value */\n      callvalue\n        /* \"contracts/Orders.sol\":5266:5294  msg.value - commissionAmount */\n      tag_98\n      swap2\n      swap1\n      tag_99\n      jump\t// in\n    tag_98:\n        /* \"contracts/Orders.sol\":5243:5294  uint256 sellerAmount = msg.value - commissionAmount */\n      swap1\n      pop\n        /* \"contracts/Orders.sol\":5341:5352  nftContract */\n      0x05\n      0x00\n      swap1\n      sload\n      swap1\n      0x0100\n      exp\n      swap1\n      div\n      0xffffffffffffffffffffffffffffffffffffffff\n      and\n        /* \"contracts/Orders.sol\":5341:5369  nftContract.safeTransferFrom */\n      0xffffffffffffffffffffffffffffffffffffffff\n      and\n      0x42842e0e\n        /* \"contracts/Orders.sol\":5384:5391  listing */\n      dup5\n        /* \"contracts/Orders.sol\":5384:5398  listing.seller */\n      0x00\n      add\n      0x00\n      swap1\n      sload\n      swap1\n      0x0100\n      exp\n      swap1\n      div\n      0xffffffffffffffffffffffffffffffffffffffff\n      and\n        /* \"contracts/Orders.sol\":5413:5423  msg.sender */\n      caller\n        /* \"contracts/Orders.sol\":5438:5445  listing */\n      dup7\n        /* \"contracts/Orders.sol\":5438:5453  listing.tokenId */\n      0x01\n      add\n      0x00\n      swap1\n      sload\n      swap1\n      0x0100\n      exp\n      swap1\n      div\n      0xffffffffffffffffffffffffffffffff\n      and\n        /* \"contracts/Orders.sol\":5341:5464  nftContract.safeTransferFrom(... */\n      mload(0x40)\n      dup5\n      0xffffffff\n      and\n      0xe0\n      shl\n      dup2\n      mstore\n      0x04\n      add\n      tag_100\n      swap4\n      swap3\n      swap2\n      swap1\n      tag_101\n      jump\t// in\n    tag_100:\n      0x00\n      mload(0x40)\n      dup1\n      dup4\n      sub\n      dup2\n      0x00\n      dup8\n      dup1\n      extcodesize\n      iszero\n      dup1\n      iszero\n      tag_102\n      jumpi\n      0x00\n      dup1\n      revert\n    tag_102:\n      pop\n      gas\n      call\n      iszero\n      dup1\n      iszero\n      tag_104\n      jumpi\n      returndatasize\n      0x00\n      dup1\n      returndatacopy\n      revert(0x00, returndatasize)\n    tag_104:\n      pop\n      pop\n      pop\n      pop\n        /* \"contracts/Orders.sol\":5545:5561  commissionAmount */\n      dup2\n        /* \"contracts/Orders.sol\":5516:5534  pendingWithdrawals */\n      0x04\n        /* \"contracts/Orders.sol\":5516:5541  pendingWithdrawals[owner] */\n      0x00\n        /* \"contracts/Orders.sol\":5535:5540  owner */\n      dup1\n      0x00\n      swap1\n      sload\n      swap1\n      0x0100\n      exp\n      swap1\n      div\n      0xffffffffffffffffffffffffffffffffffffffff\n      and\n        /* \"contracts/Orders.sol\":5516:5541  pendingWithdrawals[owner] */\n      0xffffffffffffffffffffffffffffffffffffffff\n      and\n      0xffffffffffffffffffffffffffffffffffffffff\n      and\n      dup2\n      mstore\n      0x20\n      add\n      swap1\n      dup2\n      mstore\n      0x20\n      add\n      0x00\n      keccak256\n      0x00\n        /* \"contracts/Orders.sol\":5516:5561  pendingWithdrawals[owner] += commissionAmount */\n      dup3\n      dup3\n      sload\n      tag_105\n      swap2\n      swap1\n      tag_106\n      jump\t// in\n    tag_105:\n      swap3\n      pop\n      pop\n      dup2\n      swap1\n      sstore\n      pop\n        /* \"contracts/Orders.sol\":5610:5622  sellerAmount */\n      dup1\n        /* \"contracts/Orders.sol\":5572:5590  pendingWithdrawals */\n      0x04\n        /* \"contracts/Orders.sol\":5572:5606  pendingWithdrawals[listing.seller] */\n      0x00\n        /* \"contracts/Orders.sol\":5591:5598  listing */\n      dup6\n        /* \"contracts/Orders.sol\":5591:5605  listing.seller */\n      0x00\n      add\n      0x00\n      swap1\n      sload\n      swap1\n      0x0100\n      exp\n      swap1\n      div\n      0xffffffffffffffffffffffffffffffffffffffff\n      and\n        /* \"contracts/Orders.sol\":5572:5606  pendingWithdrawals[listing.seller] */\n      0xffffffffffffffffffffffffffffffffffffffff\n      and\n      0xffffffffffffffffffffffffffffffffffffffff\n      and\n      dup2\n      mstore\n      0x20\n      add\n      swap1\n      dup2\n      mstore\n      0x20\n      add\n      0x00\n      keccak256\n      0x00\n        /* \"contracts/Orders.sol\":5572:5622  pendingWithdrawals[listing.seller] += sellerAmount */\n      dup3\n      dup3\n      sload\n      tag_107\n      swap2\n      swap1\n      tag_106\n      jump\t// in\n    tag_107:\n      swap3\n      pop\n      pop\n      dup2\n      swap1\n      sstore\n      pop\n        /* \"contracts/Orders.sol\":5697:5707  msg.sender */\n      caller\n        /* \"contracts/Orders.sol\":5640:5806  PurchaseCompleted(... */\n      0xffffffffffffffffffffffffffffffffffffffff\n      and\n        /* \"contracts/Orders.sol\":5672:5682  _listingId */\n      dup5\n        /* \"contracts/Orders.sol\":5640:5806  PurchaseCompleted(... */\n      0xe29b93709a7ac5e91a6057482d1df985483725988417e08dec23377234003c80\n        /* \"contracts/Orders.sol\":5722:5729  listing */\n      dup6\n        /* \"contracts/Orders.sol\":5722:5737  listing.tokenId */\n      0x01\n      add\n      0x00\n      swap1\n      sload\n      swap1\n      0x0100\n      exp\n      swap1\n      div\n      0xffffffffffffffffffffffffffffffff\n      and\n        /* \"contracts/Orders.sol\":5752:5759  listing */\n      dup7\n        /* \"contracts/Orders.sol\":5752:5765  listing.price */\n      0x01\n      add\n      0x10\n      swap1\n      sload\n      swap1\n      0x0100\n      exp\n      swap1\n      div\n      0xffffffffffffffffffffffffffffffff\n      and\n        /* \"contracts/Orders.sol\":5780:5795  block.timestamp */\n      timestamp\n        /* \"contracts/Orders.sol\":5640:5806  PurchaseCompleted(... */\n      mload(0x40)\n      tag_108\n      swap4\n      swap3\n      swap2\n      swap1\n      tag_109\n      jump\t// in\n    tag_108:\n      mload(0x40)\n      dup1\n      swap2\n      sub\n      swap1\n      log3\n        /* \"contracts/Orders.sol\":5853:5861  listings */\n      0x02\n        /* \"contracts/Orders.sol\":5853:5873  listings[_listingId] */\n      0x00\n        /* \"contracts/Orders.sol\":5862:5872  _listingId */\n      dup6\n        /* \"contracts/Orders.sol\":5853:5873  listings[_listingId] */\n      dup2\n      mstore\n      0x20\n      add\n      swap1\n      dup2\n      mstore\n      0x20\n      add\n      0x00\n      keccak256\n      0x00\n        /* \"contracts/Orders.sol\":5846:5873  delete listings[_listingId] */\n      dup1\n      dup3\n      add\n      exp(0x0100, 0x00)\n      dup2\n      sload\n      swap1\n      0xffffffffffffffffffffffffffffffffffffffff\n      mul\n      not\n      and\n      swap1\n      sstore\n      0x01\n      dup3\n      add\n      exp(0x0100, 0x00)\n      dup2\n      sload\n      swap1\n      0xffffffffffffffffffffffffffffffff\n      mul\n      not\n      and\n      swap1\n      sstore\n      0x01\n      dup3\n      add\n      exp(0x0100, 0x10)\n      dup2\n      sload\n      swap1\n      0xffffffffffffffffffffffffffffffff\n      mul\n      not\n      and\n      swap1\n      sstore\n      pop\n      pop\n        /* \"contracts/Orders.sol\":5891:5907  tokenToListingId */\n      0x03\n        /* \"contracts/Orders.sol\":5891:5924  tokenToListingId[listing.tokenId] */\n      0x00\n        /* \"contracts/Orders.sol\":5908:5915  listing */\n      dup5\n        /* \"contracts/Orders.sol\":5908:5923  listing.tokenId */\n      0x01\n      add\n      0x00\n      swap1\n      sload\n      swap1\n      0x0100\n      exp\n      swap1\n      div\n      0xffffffffffffffffffffffffffffffff\n      and\n        /* \"contracts/Orders.sol\":5891:5924  tokenToListingId[listing.tokenId] */\n      0xffffffffffffffffffffffffffffffff\n      and\n      dup2\n      mstore\n      0x20\n      add\n      swap1\n      dup2\n      mstore\n      0x20\n      add\n      0x00\n      keccak256\n        /* \"contracts/Orders.sol\":5884:5924  delete tokenToListingId[listing.tokenId] */\n      0x00\n      swap1\n      sstore\n        /* \"contracts/Orders.sol\":4956:5932  {... */\n      pop\n      pop\n      pop\n        /* \"contracts/Orders.sol\":2676:2677  1 */\n      0x01\n        /* \"contracts/Orders.sol\":2665:2673  unlocked */\n      0x07\n        /* \"contracts/Orders.sol\":2665:2677  unlocked = 1 */\n      dup2\n      swap1\n      sstore\n      pop\n        /* \"contracts/Orders.sol\":4881:5932  function purchaseListing(uint256 _listingId) external payable nonReentrant {... */\n      pop\n      jump\t// out\n        /* \"contracts/Orders.sol\":6926:7306  function withdrawFunds() external nonReentrant {... */\n    tag_26:\n        /* \"contracts/Orders.sol\":2599:2600  1 */\n      0x01\n        /* \"contracts/Orders.sol\":2587:2595  unlocked */\n      sload(0x07)\n        /* \"contracts/Orders.sol\":2587:2600  unlocked == 1 */\n      eq\n        /* \"contracts/Orders.sol\":2579:2619  require(unlocked == 1, \"Reentrant call\") */\n      tag_111\n      jumpi\n      mload(0x40)\n      0x08c379a000000000000000000000000000000000000000000000000000000000\n      dup2\n      mstore\n      0x04\n      add\n      tag_112\n      swap1\n      tag_86\n      jump\t// in\n    tag_112:\n      mload(0x40)\n      dup1\n      swap2\n      sub\n      swap1\n      revert\n    tag_111:\n        /* \"contracts/Orders.sol\":2641:2642  0 */\n      0x00\n        /* \"contracts/Orders.sol\":2630:2638  unlocked */\n      0x07\n        /* \"contracts/Orders.sol\":2630:2642  unlocked = 0 */\n      dup2\n      swap1\n      sstore\n      pop\n        /* \"contracts/Orders.sol\":6984:6999  uint256 balance */\n      0x00\n        /* \"contracts/Orders.sol\":7002:7020  pendingWithdrawals */\n      0x04\n        /* \"contracts/Orders.sol\":7002:7032  pendingWithdrawals[msg.sender] */\n      0x00\n        /* \"contracts/Orders.sol\":7021:7031  msg.sender */\n      caller\n        /* \"contracts/Orders.sol\":7002:7032  pendingWithdrawals[msg.sender] */\n      0xffffffffffffffffffffffffffffffffffffffff\n      and\n      0xffffffffffffffffffffffffffffffffffffffff\n      and\n      dup2\n      mstore\n      0x20\n      add\n      swap1\n      dup2\n      mstore\n      0x20\n      add\n      0x00\n      keccak256\n      sload\n        /* \"contracts/Orders.sol\":6984:7032  uint256 balance = pendingWithdrawals[msg.sender] */\n      swap1\n      pop\n        /* \"contracts/Orders.sol\":7061:7062  0 */\n      0x00\n        /* \"contracts/Orders.sol\":7051:7058  balance */\n      dup2\n        /* \"contracts/Orders.sol\":7051:7062  balance > 0 */\n      gt\n        /* \"contracts/Orders.sol\":7043:7087  require(balance > 0, \"No funds to withdraw\") */\n      tag_114\n      jumpi\n      mload(0x40)\n      0x08c379a000000000000000000000000000000000000000000000000000000000\n      dup2\n      mstore\n      0x04\n      add\n      tag_115\n      swap1\n      tag_116\n      jump\t// in\n    tag_115:\n      mload(0x40)\n      dup1\n      swap2\n      sub\n      swap1\n      revert\n    tag_114:\n        /* \"contracts/Orders.sol\":7133:7134  0 */\n      0x00\n        /* \"contracts/Orders.sol\":7100:7118  pendingWithdrawals */\n      0x04\n        /* \"contracts/Orders.sol\":7100:7130  pendingWithdrawals[msg.sender] */\n      0x00\n        /* \"contracts/Orders.sol\":7119:7129  msg.sender */\n      caller\n        /* \"contracts/Orders.sol\":7100:7130  pendingWithdrawals[msg.sender] */\n      0xffffffffffffffffffffffffffffffffffffffff\n      and\n      0xffffffffffffffffffffffffffffffffffffffff\n      and\n      dup2\n      mstore\n      0x20\n      add\n      swap1\n      dup2\n      mstore\n      0x20\n      add\n      0x00\n      keccak256\n        /* \"contracts/Orders.sol\":7100:7134  pendingWithdrawals[msg.sender] = 0 */\n      dup2\n      swap1\n      sstore\n      pop\n        /* \"contracts/Orders.sol\":7146:7158  bool success */\n      0x00\n        /* \"contracts/Orders.sol\":7164:7174  msg.sender */\n      caller\n        /* \"contracts/Orders.sol\":7164:7179  msg.sender.call */\n      0xffffffffffffffffffffffffffffffffffffffff\n      and\n        /* \"contracts/Orders.sol\":7187:7194  balance */\n      dup3\n        /* \"contracts/Orders.sol\":7164:7199  msg.sender.call{value: balance}(\"\") */\n      mload(0x40)\n      tag_117\n      swap1\n      tag_118\n      jump\t// in\n    tag_117:\n      0x00\n      mload(0x40)\n      dup1\n      dup4\n      sub\n      dup2\n      dup6\n      dup8\n      gas\n      call\n      swap3\n      pop\n      pop\n      pop\n      returndatasize\n      dup1\n      0x00\n      dup2\n      eq\n      tag_121\n      jumpi\n      mload(0x40)\n      swap2\n      pop\n      and(add(returndatasize, 0x3f), not(0x1f))\n      dup3\n      add\n      0x40\n      mstore\n      returndatasize\n      dup3\n      mstore\n      returndatasize\n      0x00\n      0x20\n      dup5\n      add\n      returndatacopy\n      jump(tag_120)\n    tag_121:\n      0x60\n      swap2\n      pop\n    tag_120:\n      pop\n        /* \"contracts/Orders.sol\":7145:7199  (bool success, ) = msg.sender.call{value: balance}(\"\") */\n      pop\n      swap1\n      pop\n        /* \"contracts/Orders.sol\":7218:7225  success */\n      dup1\n        /* \"contracts/Orders.sol\":7210:7245  require(success, \"Withdraw failed\") */\n      tag_122\n      jumpi\n      mload(0x40)\n      0x08c379a000000000000000000000000000000000000000000000000000000000\n      dup2\n      mstore\n      0x04\n      add\n      tag_123\n      swap1\n      tag_124\n      jump\t// in\n    tag_123:\n      mload(0x40)\n      dup1\n      swap2\n      sub\n      swap1\n      revert\n    tag_122:\n        /* \"contracts/Orders.sol\":7287:7297  msg.sender */\n      caller\n        /* \"contracts/Orders.sol\":7263:7298  FundsWithdrawn(balance, msg.sender) */\n      0xffffffffffffffffffffffffffffffffffffffff\n      and\n      0x6141b54b56b8a52a8c6f5cd2a857f6117b18ffbf4d46bd3106f300a839cbf5ea\n        /* \"contracts/Orders.sol\":7278:7285  balance */\n      dup4\n        /* \"contracts/Orders.sol\":7263:7298  FundsWithdrawn(balance, msg.sender) */\n      mload(0x40)\n      tag_125\n      swap2\n      swap1\n      tag_33\n      jump\t// in\n    tag_125:\n      mload(0x40)\n      dup1\n      swap2\n      sub\n      swap1\n      log2\n        /* \"contracts/Orders.sol\":6973:7306  {... */\n      pop\n      pop\n        /* \"contracts/Orders.sol\":2676:2677  1 */\n      0x01\n        /* \"contracts/Orders.sol\":2665:2673  unlocked */\n      0x07\n        /* \"contracts/Orders.sol\":2665:2677  unlocked = 1 */\n      dup2\n      swap1\n      sstore\n      pop\n        /* \"contracts/Orders.sol\":6926:7306  function withdrawFunds() external nonReentrant {... */\n      jump\t// out\n        /* \"contracts/Orders.sol\":7611:7818  function tokenOfOwnerByIndex(address _owner, uint256 index)... */\n    tag_31:\n        /* \"contracts/Orders.sol\":7719:7734  uint256 tokenId */\n      0x00\n        /* \"contracts/Orders.sol\":7762:7775  nftEnumerable */\n      0x06\n      0x00\n      swap1\n      sload\n      swap1\n      0x0100\n      exp\n      swap1\n      div\n      0xffffffffffffffffffffffffffffffffffffffff\n      and\n        /* \"contracts/Orders.sol\":7762:7795  nftEnumerable.tokenOfOwnerByIndex */\n      0xffffffffffffffffffffffffffffffffffffffff\n      and\n      0x2f745c59\n        /* \"contracts/Orders.sol\":7796:7802  _owner */\n      dup5\n        /* \"contracts/Orders.sol\":7804:7809  index */\n      dup5\n        /* \"contracts/Orders.sol\":7762:7810  nftEnumerable.tokenOfOwnerByIndex(_owner, index) */\n      mload(0x40)\n      dup4\n      0xffffffff\n      and\n      0xe0\n      shl\n      dup2\n      mstore\n      0x04\n      add\n      tag_127\n      swap3\n      swap2\n      swap1\n      tag_128\n      jump\t// in\n    tag_127:\n      0x20\n      mload(0x40)\n      dup1\n      dup4\n      sub\n      dup2\n      dup7\n      gas\n      staticcall\n      iszero\n      dup1\n      iszero\n      tag_130\n      jumpi\n      returndatasize\n      0x00\n      dup1\n      returndatacopy\n      revert(0x00, returndatasize)\n    tag_130:\n      pop\n      pop\n      pop\n      pop\n      mload(0x40)\n      returndatasize\n      not(0x1f)\n      0x1f\n      dup3\n      add\n      and\n      dup3\n      add\n      dup1\n      0x40\n      mstore\n      pop\n      dup2\n      add\n      swap1\n      tag_131\n      swap2\n      swap1\n      tag_132\n      jump\t// in\n    tag_131:\n        /* \"contracts/Orders.sol\":7755:7810  return nftEnumerable.tokenOfOwnerByIndex(_owner, index) */\n      swap1\n      pop\n        /* \"contracts/Orders.sol\":7611:7818  function tokenOfOwnerByIndex(address _owner, uint256 index)... */\n      swap3\n      swap2\n      pop\n      pop\n      jump\t// out\n        /* \"contracts/Orders.sol\":6056:6464  function cancelListing(uint256 _listingId) external {... */\n    tag_37:\n        /* \"contracts/Orders.sol\":6119:6142  Listing storage listing */\n      0x00\n        /* \"contracts/Orders.sol\":6145:6153  listings */\n      0x02\n        /* \"contracts/Orders.sol\":6145:6165  listings[_listingId] */\n      0x00\n        /* \"contracts/Orders.sol\":6154:6164  _listingId */\n      dup4\n        /* \"contracts/Orders.sol\":6145:6165  listings[_listingId] */\n      dup2\n      mstore\n      0x20\n      add\n      swap1\n      dup2\n      mstore\n      0x20\n      add\n      0x00\n      keccak256\n        /* \"contracts/Orders.sol\":6119:6165  Listing storage listing = listings[_listingId] */\n      swap1\n      pop\n        /* \"contracts/Orders.sol\":6200:6201  0 */\n      0x00\n        /* \"contracts/Orders.sol\":6184:6191  listing */\n      dup2\n        /* \"contracts/Orders.sol\":6184:6197  listing.price */\n      0x01\n      add\n      0x10\n      swap1\n      sload\n      swap1\n      0x0100\n      exp\n      swap1\n      div\n      0xffffffffffffffffffffffffffffffff\n      and\n        /* \"contracts/Orders.sol\":6184:6201  listing.price > 0 */\n      0xffffffffffffffffffffffffffffffff\n      and\n      gt\n        /* \"contracts/Orders.sol\":6176:6233  require(listing.price > 0, \"Invalid or inactive listing\") */\n      tag_134\n      jumpi\n      mload(0x40)\n      0x08c379a000000000000000000000000000000000000000000000000000000000\n      dup2\n      mstore\n      0x04\n      add\n      tag_135\n      swap1\n      tag_90\n      jump\t// in\n    tag_135:\n      mload(0x40)\n      dup1\n      swap2\n      sub\n      swap1\n      revert\n    tag_134:\n        /* \"contracts/Orders.sol\":6270:6280  msg.sender */\n      caller\n        /* \"contracts/Orders.sol\":6252:6280  listing.seller == msg.sender */\n      0xffffffffffffffffffffffffffffffffffffffff\n      and\n        /* \"contracts/Orders.sol\":6252:6259  listing */\n      dup2\n        /* \"contracts/Orders.sol\":6252:6266  listing.seller */\n      0x00\n      add\n      0x00\n      swap1\n      sload\n      swap1\n      0x0100\n      exp\n      swap1\n      div\n      0xffffffffffffffffffffffffffffffffffffffff\n      and\n        /* \"contracts/Orders.sol\":6252:6280  listing.seller == msg.sender */\n      0xffffffffffffffffffffffffffffffffffffffff\n      and\n      eq\n        /* \"contracts/Orders.sol\":6244:6307  require(listing.seller == msg.sender, \"You are not the seller\") */\n      tag_136\n      jumpi\n      mload(0x40)\n      0x08c379a000000000000000000000000000000000000000000000000000000000\n      dup2\n      mstore\n      0x04\n      add\n      tag_137\n      swap1\n      tag_138\n      jump\t// in\n    tag_137:\n      mload(0x40)\n      dup1\n      swap2\n      sub\n      swap1\n      revert\n    tag_136:\n        /* \"contracts/Orders.sol\":6327:6335  listings */\n      0x02\n        /* \"contracts/Orders.sol\":6327:6347  listings[_listingId] */\n      0x00\n        /* \"contracts/Orders.sol\":6336:6346  _listingId */\n      dup4\n        /* \"contracts/Orders.sol\":6327:6347  listings[_listingId] */\n      dup2\n      mstore\n      0x20\n      add\n      swap1\n      dup2\n      mstore\n      0x20\n      add\n      0x00\n      keccak256\n      0x00\n        /* \"contracts/Orders.sol\":6320:6347  delete listings[_listingId] */\n      dup1\n      dup3\n      add\n      exp(0x0100, 0x00)\n      dup2\n      sload\n      swap1\n      0xffffffffffffffffffffffffffffffffffffffff\n      mul\n      not\n      and\n      swap1\n      sstore\n      0x01\n      dup3\n      add\n      exp(0x0100, 0x00)\n      dup2\n      sload\n      swap1\n      0xffffffffffffffffffffffffffffffff\n      mul\n      not\n      and\n      swap1\n      sstore\n      0x01\n      dup3\n      add\n      exp(0x0100, 0x10)\n      dup2\n      sload\n      swap1\n      0xffffffffffffffffffffffffffffffff\n      mul\n      not\n      and\n      swap1\n      sstore\n      pop\n      pop\n        /* \"contracts/Orders.sol\":6365:6381  tokenToListingId */\n      0x03\n        /* \"contracts/Orders.sol\":6365:6398  tokenToListingId[listing.tokenId] */\n      0x00\n        /* \"contracts/Orders.sol\":6382:6389  listing */\n      dup3\n        /* \"contracts/Orders.sol\":6382:6397  listing.tokenId */\n      0x01\n      add\n      0x00\n      swap1\n      sload\n      swap1\n      0x0100\n      exp\n      swap1\n      div\n      0xffffffffffffffffffffffffffffffff\n      and\n        /* \"contracts/Orders.sol\":6365:6398  tokenToListingId[listing.tokenId] */\n      0xffffffffffffffffffffffffffffffff\n      and\n      dup2\n      mstore\n      0x20\n      add\n      swap1\n      dup2\n      mstore\n      0x20\n      add\n      0x00\n      keccak256\n        /* \"contracts/Orders.sol\":6358:6398  delete tokenToListingId[listing.tokenId] */\n      0x00\n      swap1\n      sstore\n        /* \"contracts/Orders.sol\":6445:6455  msg.sender */\n      caller\n        /* \"contracts/Orders.sol\":6416:6456  ListingCancelled(_listingId, msg.sender) */\n      0xffffffffffffffffffffffffffffffffffffffff\n      and\n        /* \"contracts/Orders.sol\":6433:6443  _listingId */\n      dup3\n        /* \"contracts/Orders.sol\":6416:6456  ListingCancelled(_listingId, msg.sender) */\n      0x8e25282255ab31897df2b0456bb993ac7f84d376861aefd84901d2d63a7428a2\n      mload(0x40)\n      mload(0x40)\n      dup1\n      swap2\n      sub\n      swap1\n      log3\n        /* \"contracts/Orders.sol\":6108:6464  {... */\n      pop\n        /* \"contracts/Orders.sol\":6056:6464  function cancelListing(uint256 _listingId) external {... */\n      pop\n      jump\t// out\n        /* \"contracts/Orders.sol\":6607:6845  function setCommissionPercent(uint256 _newPercent) external onlyOwner {... */\n    tag_41:\n        /* \"contracts/Orders.sol\":2392:2397  owner */\n      0x00\n      dup1\n      sload\n      swap1\n      0x0100\n      exp\n      swap1\n      div\n      0xffffffffffffffffffffffffffffffffffffffff\n      and\n        /* \"contracts/Orders.sol\":2378:2397  msg.sender == owner */\n      0xffffffffffffffffffffffffffffffffffffffff\n      and\n        /* \"contracts/Orders.sol\":2378:2388  msg.sender */\n      caller\n        /* \"contracts/Orders.sol\":2378:2397  msg.sender == owner */\n      0xffffffffffffffffffffffffffffffffffffffff\n      and\n      eq\n        /* \"contracts/Orders.sol\":2370:2440  require(msg.sender == owner, \"Only the owner can perform this action\") */\n      tag_140\n      jumpi\n      mload(0x40)\n      0x08c379a000000000000000000000000000000000000000000000000000000000\n      dup2\n      mstore\n      0x04\n      add\n      tag_141\n      swap1\n      tag_142\n      jump\t// in\n    tag_141:\n      mload(0x40)\n      dup1\n      swap2\n      sub\n      swap1\n      revert\n    tag_140:\n        /* \"contracts/Orders.sol\":6711:6713  50 */\n      0x32\n        /* \"contracts/Orders.sol\":6696:6707  _newPercent */\n      dup2\n        /* \"contracts/Orders.sol\":6696:6713  _newPercent <= 50 */\n      gt\n      iszero\n        /* \"contracts/Orders.sol\":6688:6747  require(_newPercent <= 50, \"Commission cannot exceed 100%\") */\n      tag_144\n      jumpi\n      mload(0x40)\n      0x08c379a000000000000000000000000000000000000000000000000000000000\n      dup2\n      mstore\n      0x04\n      add\n      tag_145\n      swap1\n      tag_146\n      jump\t// in\n    tag_145:\n      mload(0x40)\n      dup1\n      swap2\n      sub\n      swap1\n      revert\n    tag_144:\n        /* \"contracts/Orders.sol\":6778:6789  _newPercent */\n      dup1\n        /* \"contracts/Orders.sol\":6758:6775  commissionPercent */\n      0x01\n        /* \"contracts/Orders.sol\":6758:6789  commissionPercent = _newPercent */\n      dup2\n      swap1\n      sstore\n      pop\n        /* \"contracts/Orders.sol\":6807:6837  CommissionUpdated(_newPercent) */\n      0x13f60dd2b588490608c3ff1932a3daeb4087f3d5af04b97e5c2a16b5b4c0302e\n        /* \"contracts/Orders.sol\":6825:6836  _newPercent */\n      dup2\n        /* \"contracts/Orders.sol\":6807:6837  CommissionUpdated(_newPercent) */\n      mload(0x40)\n      tag_147\n      swap2\n      swap1\n      tag_33\n      jump\t// in\n    tag_147:\n      mload(0x40)\n      dup1\n      swap2\n      sub\n      swap1\n      log1\n        /* \"contracts/Orders.sol\":6607:6845  function setCommissionPercent(uint256 _newPercent) external onlyOwner {... */\n      pop\n      jump\t// out\n        /* \"contracts/Orders.sol\":1219:1257  IERC721Enumerable public nftEnumerable */\n    tag_44:\n      0x06\n      0x00\n      swap1\n      sload\n      swap1\n      0x0100\n      exp\n      swap1\n      div\n      0xffffffffffffffffffffffffffffffffffffffff\n      and\n      dup2\n      jump\t// out\n        /* \"contracts/Orders.sol\":7826:7933  function balanceOf(address account) public view returns (uint256) {... */\n    tag_51:\n        /* \"contracts/Orders.sol\":7883:7890  uint256 */\n      0x00\n        /* \"contracts/Orders.sol\":7910:7917  account */\n      dup2\n        /* \"contracts/Orders.sol\":7910:7925  account.balance */\n      0xffffffffffffffffffffffffffffffffffffffff\n      and\n      balance\n        /* \"contracts/Orders.sol\":7903:7925  return account.balance */\n      swap1\n      pop\n        /* \"contracts/Orders.sol\":7826:7933  function balanceOf(address account) public view returns (uint256) {... */\n      swap2\n      swap1\n      pop\n      jump\t// out\n        /* \"contracts/Orders.sol\":688:720  uint256 public commissionPercent */\n    tag_55:\n      sload(0x01)\n      dup2\n      jump\t// out\n        /* \"contracts/Orders.sol\":584:612  address payable public owner */\n    tag_59:\n      0x00\n      dup1\n      sload\n      swap1\n      0x0100\n      exp\n      swap1\n      div\n      0xffffffffffffffffffffffffffffffffffffffff\n      and\n      dup2\n      jump\t// out\n        /* \"contracts/Orders.sol\":3506:4705  function createListing(uint128 _tokenId, uint128 _price, string calldata _name) external {... */\n    tag_66:\n        /* \"contracts/Orders.sol\":3623:3624  0 */\n      0x00\n        /* \"contracts/Orders.sol\":3614:3620  _price */\n      dup4\n        /* \"contracts/Orders.sol\":3614:3624  _price > 0 */\n      0xffffffffffffffffffffffffffffffff\n      and\n      gt\n        /* \"contracts/Orders.sol\":3606:3657  require(_price > 0, \"Price must be greater than 0\") */\n      tag_150\n      jumpi\n      mload(0x40)\n      0x08c379a000000000000000000000000000000000000000000000000000000000\n      dup2\n      mstore\n      0x04\n      add\n      tag_151\n      swap1\n      tag_152\n      jump\t// in\n    tag_151:\n      mload(0x40)\n      dup1\n      swap2\n      sub\n      swap1\n      revert\n    tag_150:\n        /* \"contracts/Orders.sol\":3673:3700  Debug(\"Passed price check\") */\n      0x7cdb51e9dbbc205231228146c3246e7f914aa6d4a33170e43ecc8e3593481d1a\n      mload(0x40)\n      tag_153\n      swap1\n      tag_154\n      jump\t// in\n    tag_153:\n      mload(0x40)\n      dup1\n      swap2\n      sub\n      swap1\n      log1\n        /* \"contracts/Orders.sol\":3713:3731  address tokenOwner */\n      0x00\n        /* \"contracts/Orders.sol\":3734:3745  nftContract */\n      0x05\n      0x00\n      swap1\n      sload\n      swap1\n      0x0100\n      exp\n      swap1\n      div\n      0xffffffffffffffffffffffffffffffffffffffff\n      and\n        /* \"contracts/Orders.sol\":3734:3753  nftContract.ownerOf */\n      0xffffffffffffffffffffffffffffffffffffffff\n      and\n      0x6352211e\n        /* \"contracts/Orders.sol\":3754:3762  _tokenId */\n      dup7\n        /* \"contracts/Orders.sol\":3734:3763  nftContract.ownerOf(_tokenId) */\n      mload(0x40)\n      dup3\n      0xffffffff\n      and\n      0xe0\n      shl\n      dup2\n      mstore\n      0x04\n      add\n      tag_155\n      swap2\n      swap1\n      tag_156\n      jump\t// in\n    tag_155:\n      0x20\n      mload(0x40)\n      dup1\n      dup4\n      sub\n      dup2\n      dup7\n      gas\n      staticcall\n      iszero\n      dup1\n      iszero\n      tag_158\n      jumpi\n      returndatasize\n      0x00\n      dup1\n      returndatacopy\n      revert(0x00, returndatasize)\n    tag_158:\n      pop\n      pop\n      pop\n      pop\n      mload(0x40)\n      returndatasize\n      not(0x1f)\n      0x1f\n      dup3\n      add\n      and\n      dup3\n      add\n      dup1\n      0x40\n      mstore\n      pop\n      dup2\n      add\n      swap1\n      tag_159\n      swap2\n      swap1\n      tag_160\n      jump\t// in\n    tag_159:\n        /* \"contracts/Orders.sol\":3713:3763  address tokenOwner = nftContract.ownerOf(_tokenId) */\n      swap1\n      pop\n        /* \"contracts/Orders.sol\":3779:3803  Debug(\"Owner retrieved\") */\n      0x7cdb51e9dbbc205231228146c3246e7f914aa6d4a33170e43ecc8e3593481d1a\n      mload(0x40)\n      tag_161\n      swap1\n      tag_162\n      jump\t// in\n    tag_161:\n      mload(0x40)\n      dup1\n      swap2\n      sub\n      swap1\n      log1\n        /* \"contracts/Orders.sol\":3852:3862  msg.sender */\n      caller\n        /* \"contracts/Orders.sol\":3838:3862  tokenOwner == msg.sender */\n      0xffffffffffffffffffffffffffffffffffffffff\n      and\n        /* \"contracts/Orders.sol\":3838:3848  tokenOwner */\n      dup2\n        /* \"contracts/Orders.sol\":3838:3862  tokenOwner == msg.sender */\n      0xffffffffffffffffffffffffffffffffffffffff\n      and\n      eq\n        /* \"contracts/Orders.sol\":3816:3925  require(... */\n      tag_163\n      jumpi\n      mload(0x40)\n      0x08c379a000000000000000000000000000000000000000000000000000000000\n      dup2\n      mstore\n      0x04\n      add\n      tag_164\n      swap1\n      tag_165\n      jump\t// in\n    tag_164:\n      mload(0x40)\n      dup1\n      swap2\n      sub\n      swap1\n      revert\n    tag_163:\n        /* \"contracts/Orders.sol\":3941:3968  Debug(\"Ownership verified\") */\n      0x7cdb51e9dbbc205231228146c3246e7f914aa6d4a33170e43ecc8e3593481d1a\n      mload(0x40)\n      tag_166\n      swap1\n      tag_167\n      jump\t// in\n    tag_166:\n      mload(0x40)\n      dup1\n      swap2\n      sub\n      swap1\n      log1\n        /* \"contracts/Orders.sol\":4048:4052  this */\n      address\n        /* \"contracts/Orders.sol\":4003:4053  nftContract.getApproved(_tokenId) == address(this) */\n      0xffffffffffffffffffffffffffffffffffffffff\n      and\n        /* \"contracts/Orders.sol\":4003:4014  nftContract */\n      0x05\n      0x00\n      swap1\n      sload\n      swap1\n      0x0100\n      exp\n      swap1\n      div\n      0xffffffffffffffffffffffffffffffffffffffff\n      and\n        /* \"contracts/Orders.sol\":4003:4026  nftContract.getApproved */\n      0xffffffffffffffffffffffffffffffffffffffff\n      and\n      0x081812fc\n        /* \"contracts/Orders.sol\":4027:4035  _tokenId */\n      dup8\n        /* \"contracts/Orders.sol\":4003:4036  nftContract.getApproved(_tokenId) */\n      mload(0x40)\n      dup3\n      0xffffffff\n      and\n      0xe0\n      shl\n      dup2\n      mstore\n      0x04\n      add\n      tag_168\n      swap2\n      swap1\n      tag_156\n      jump\t// in\n    tag_168:\n      0x20\n      mload(0x40)\n      dup1\n      dup4\n      sub\n      dup2\n      dup7\n      gas\n      staticcall\n      iszero\n      dup1\n      iszero\n      tag_170\n      jumpi\n      returndatasize\n      0x00\n      dup1\n      returndatacopy\n      revert(0x00, returndatasize)\n    tag_170:\n      pop\n      pop\n      pop\n      pop\n      mload(0x40)\n      returndatasize\n      not(0x1f)\n      0x1f\n      dup3\n      add\n      and\n      dup3\n      add\n      dup1\n      0x40\n      mstore\n      pop\n      dup2\n      add\n      swap1\n      tag_171\n      swap2\n      swap1\n      tag_160\n      jump\t// in\n    tag_171:\n        /* \"contracts/Orders.sol\":4003:4053  nftContract.getApproved(_tokenId) == address(this) */\n      0xffffffffffffffffffffffffffffffffffffffff\n      and\n      eq\n        /* \"contracts/Orders.sol\":4003:4129  nftContract.getApproved(_tokenId) == address(this) ||... */\n      dup1\n      tag_172\n      jumpi\n      pop\n        /* \"contracts/Orders.sol\":4074:4085  nftContract */\n      0x05\n      0x00\n      swap1\n      sload\n      swap1\n      0x0100\n      exp\n      swap1\n      div\n      0xffffffffffffffffffffffffffffffffffffffff\n      and\n        /* \"contracts/Orders.sol\":4074:4102  nftContract.isApprovedForAll */\n      0xffffffffffffffffffffffffffffffffffffffff\n      and\n      0xe985e9c5\n        /* \"contracts/Orders.sol\":4103:4113  msg.sender */\n      caller\n        /* \"contracts/Orders.sol\":4123:4127  this */\n      address\n        /* \"contracts/Orders.sol\":4074:4129  nftContract.isApprovedForAll(msg.sender, address(this)) */\n      mload(0x40)\n      dup4\n      0xffffffff\n      and\n      0xe0\n      shl\n      dup2\n      mstore\n      0x04\n      add\n      tag_173\n      swap3\n      swap2\n      swap1\n      tag_174\n      jump\t// in\n    tag_173:\n      0x20\n      mload(0x40)\n      dup1\n      dup4\n      sub\n      dup2\n      dup7\n      gas\n      staticcall\n      iszero\n      dup1\n      iszero\n      tag_176\n      jumpi\n      returndatasize\n      0x00\n      dup1\n      returndatacopy\n      revert(0x00, returndatasize)\n    tag_176:\n      pop\n      pop\n      pop\n      pop\n      mload(0x40)\n      returndatasize\n      not(0x1f)\n      0x1f\n      dup3\n      add\n      and\n      dup3\n      add\n      dup1\n      0x40\n      mstore\n      pop\n      dup2\n      add\n      swap1\n      tag_177\n      swap2\n      swap1\n      tag_178\n      jump\t// in\n    tag_177:\n        /* \"contracts/Orders.sol\":4003:4129  nftContract.getApproved(_tokenId) == address(this) ||... */\n    tag_172:\n        /* \"contracts/Orders.sol\":3981:4207  require(... */\n      tag_179\n      jumpi\n      mload(0x40)\n      0x08c379a000000000000000000000000000000000000000000000000000000000\n      dup2\n      mstore\n      0x04\n      add\n      tag_180\n      swap1\n      tag_181\n      jump\t// in\n    tag_180:\n      mload(0x40)\n      dup1\n      swap2\n      sub\n      swap1\n      revert\n    tag_179:\n        /* \"contracts/Orders.sol\":4223:4249  Debug(\"Approval verified\") */\n      0x7cdb51e9dbbc205231228146c3246e7f914aa6d4a33170e43ecc8e3593481d1a\n      mload(0x40)\n      tag_182\n      swap1\n      tag_183\n      jump\t// in\n    tag_182:\n      mload(0x40)\n      dup1\n      swap2\n      sub\n      swap1\n      log1\n        /* \"contracts/Orders.sol\":4300:4301  0 */\n      0x00\n        /* \"contracts/Orders.sol\":4270:4286  tokenToListingId */\n      0x03\n        /* \"contracts/Orders.sol\":4270:4296  tokenToListingId[_tokenId] */\n      0x00\n        /* \"contracts/Orders.sol\":4287:4295  _tokenId */\n      dup8\n        /* \"contracts/Orders.sol\":4270:4296  tokenToListingId[_tokenId] */\n      0xffffffffffffffffffffffffffffffff\n      and\n      dup2\n      mstore\n      0x20\n      add\n      swap1\n      dup2\n      mstore\n      0x20\n      add\n      0x00\n      keccak256\n      sload\n        /* \"contracts/Orders.sol\":4270:4301  tokenToListingId[_tokenId] == 0 */\n      eq\n        /* \"contracts/Orders.sol\":4262:4329  require(tokenToListingId[_tokenId] == 0, \"Token is already listed\") */\n      tag_184\n      jumpi\n      mload(0x40)\n      0x08c379a000000000000000000000000000000000000000000000000000000000\n      dup2\n      mstore\n      0x04\n      add\n      tag_185\n      swap1\n      tag_186\n      jump\t// in\n    tag_185:\n      mload(0x40)\n      dup1\n      swap2\n      sub\n      swap1\n      revert\n    tag_184:\n        /* \"contracts/Orders.sol\":4342:4352  uint256 id */\n      0x00\n        /* \"contracts/Orders.sol\":4390:4398  _tokenId */\n      dup6\n        /* \"contracts/Orders.sol\":4400:4410  msg.sender */\n      caller\n        /* \"contracts/Orders.sol\":4373:4411  abi.encodePacked(_tokenId, msg.sender) */\n      add(0x20, mload(0x40))\n      tag_187\n      swap3\n      swap2\n      swap1\n      tag_188\n      jump\t// in\n    tag_187:\n      mload(0x40)\n      0x20\n      dup2\n      dup4\n      sub\n      sub\n      dup2\n      mstore\n      swap1\n      0x40\n      mstore\n        /* \"contracts/Orders.sol\":4363:4412  keccak256(abi.encodePacked(_tokenId, msg.sender)) */\n      dup1\n      mload\n      swap1\n      0x20\n      add\n      keccak256\n        /* \"contracts/Orders.sol\":4355:4413  uint256(keccak256(abi.encodePacked(_tokenId, msg.sender))) */\n      0x00\n      shr\n        /* \"contracts/Orders.sol\":4342:4413  uint256 id = uint256(keccak256(abi.encodePacked(_tokenId, msg.sender))) */\n      swap1\n      pop\n        /* \"contracts/Orders.sol\":4439:4476  Listing(msg.sender, _tokenId, _price) */\n      mload(0x40)\n      dup1\n      0x60\n      add\n      0x40\n      mstore\n      dup1\n        /* \"contracts/Orders.sol\":4447:4457  msg.sender */\n      caller\n        /* \"contracts/Orders.sol\":4439:4476  Listing(msg.sender, _tokenId, _price) */\n      0xffffffffffffffffffffffffffffffffffffffff\n      and\n      dup2\n      mstore\n      0x20\n      add\n        /* \"contracts/Orders.sol\":4459:4467  _tokenId */\n      dup8\n        /* \"contracts/Orders.sol\":4439:4476  Listing(msg.sender, _tokenId, _price) */\n      0xffffffffffffffffffffffffffffffff\n      and\n      dup2\n      mstore\n      0x20\n      add\n        /* \"contracts/Orders.sol\":4469:4475  _price */\n      dup7\n        /* \"contracts/Orders.sol\":4439:4476  Listing(msg.sender, _tokenId, _price) */\n      0xffffffffffffffffffffffffffffffff\n      and\n      dup2\n      mstore\n      pop\n        /* \"contracts/Orders.sol\":4424:4432  listings */\n      0x02\n        /* \"contracts/Orders.sol\":4424:4436  listings[id] */\n      0x00\n        /* \"contracts/Orders.sol\":4433:4435  id */\n      dup4\n        /* \"contracts/Orders.sol\":4424:4436  listings[id] */\n      dup2\n      mstore\n      0x20\n      add\n      swap1\n      dup2\n      mstore\n      0x20\n      add\n      0x00\n      keccak256\n        /* \"contracts/Orders.sol\":4424:4476  listings[id] = Listing(msg.sender, _tokenId, _price) */\n      0x00\n      dup3\n      add\n      mload\n      dup2\n      0x00\n      add\n      exp(0x0100, 0x00)\n      dup2\n      sload\n      dup2\n      0xffffffffffffffffffffffffffffffffffffffff\n      mul\n      not\n      and\n      swap1\n      dup4\n      0xffffffffffffffffffffffffffffffffffffffff\n      and\n      mul\n      or\n      swap1\n      sstore\n      pop\n      0x20\n      dup3\n      add\n      mload\n      dup2\n      0x01\n      add\n      exp(0x0100, 0x00)\n      dup2\n      sload\n      dup2\n      0xffffffffffffffffffffffffffffffff\n      mul\n      not\n      and\n      swap1\n      dup4\n      0xffffffffffffffffffffffffffffffff\n      and\n      mul\n      or\n      swap1\n      sstore\n      pop\n      0x40\n      dup3\n      add\n      mload\n      dup2\n      0x01\n      add\n      exp(0x0100, 0x10)\n      dup2\n      sload\n      dup2\n      0xffffffffffffffffffffffffffffffff\n      mul\n      not\n      and\n      swap1\n      dup4\n      0xffffffffffffffffffffffffffffffff\n      and\n      mul\n      or\n      swap1\n      sstore\n      pop\n      swap1\n      pop\n      pop\n        /* \"contracts/Orders.sol\":4516:4518  id */\n      dup1\n        /* \"contracts/Orders.sol\":4487:4503  tokenToListingId */\n      0x03\n        /* \"contracts/Orders.sol\":4487:4513  tokenToListingId[_tokenId] */\n      0x00\n        /* \"contracts/Orders.sol\":4504:4512  _tokenId */\n      dup9\n        /* \"contracts/Orders.sol\":4487:4513  tokenToListingId[_tokenId] */\n      0xffffffffffffffffffffffffffffffff\n      and\n      dup2\n      mstore\n      0x20\n      add\n      swap1\n      dup2\n      mstore\n      0x20\n      add\n      0x00\n      keccak256\n        /* \"contracts/Orders.sol\":4487:4518  tokenToListingId[_tokenId] = id */\n      dup2\n      swap1\n      sstore\n      pop\n        /* \"contracts/Orders.sol\":4534:4569  Debug(\"Unique listing ID verified\") */\n      0x7cdb51e9dbbc205231228146c3246e7f914aa6d4a33170e43ecc8e3593481d1a\n      mload(0x40)\n      tag_189\n      swap1\n      tag_190\n      jump\t// in\n    tag_189:\n      mload(0x40)\n      dup1\n      swap2\n      sub\n      swap1\n      log1\n        /* \"contracts/Orders.sol\":4606:4616  msg.sender */\n      caller\n        /* \"contracts/Orders.sol\":4587:4652  ListingCreated(id, msg.sender, _tokenId, _price, block.timestamp) */\n      0xffffffffffffffffffffffffffffffffffffffff\n      and\n        /* \"contracts/Orders.sol\":4602:4604  id */\n      dup2\n        /* \"contracts/Orders.sol\":4587:4652  ListingCreated(id, msg.sender, _tokenId, _price, block.timestamp) */\n      0xa3941cfa07eecf2734875ab71cea0e47395be644da6e17b039a7e29efba74ef9\n        /* \"contracts/Orders.sol\":4618:4626  _tokenId */\n      dup9\n        /* \"contracts/Orders.sol\":4628:4634  _price */\n      dup9\n        /* \"contracts/Orders.sol\":4636:4651  block.timestamp */\n      timestamp\n        /* \"contracts/Orders.sol\":4587:4652  ListingCreated(id, msg.sender, _tokenId, _price, block.timestamp) */\n      mload(0x40)\n      tag_191\n      swap4\n      swap3\n      swap2\n      swap1\n      tag_109\n      jump\t// in\n    tag_191:\n      mload(0x40)\n      dup1\n      swap2\n      sub\n      swap1\n      log3\n        /* \"contracts/Orders.sol\":4681:4689  _tokenId */\n      dup6\n        /* \"contracts/Orders.sol\":4668:4697  TokenCreated(_tokenId, _name) */\n      0xffffffffffffffffffffffffffffffff\n      and\n      0x5d3ac5872118b949a1f8db596134a0e1587ecf18f2203bb1e3ea420c3c3f8fa9\n        /* \"contracts/Orders.sol\":4691:4696  _name */\n      dup6\n      dup6\n        /* \"contracts/Orders.sol\":4668:4697  TokenCreated(_tokenId, _name) */\n      mload(0x40)\n      tag_192\n      swap3\n      swap2\n      swap1\n      tag_193\n      jump\t// in\n    tag_192:\n      mload(0x40)\n      dup1\n      swap2\n      sub\n      swap1\n      log2\n        /* \"contracts/Orders.sol\":3595:4705  {... */\n      pop\n      pop\n        /* \"contracts/Orders.sol\":3506:4705  function createListing(uint128 _tokenId, uint128 _price, string calldata _name) external {... */\n      pop\n      pop\n      pop\n      pop\n      jump\t// out\n        /* \"contracts/Orders.sol\":1120:1146  IERC721 public nftContract */\n    tag_69:\n      0x05\n      0x00\n      swap1\n      sload\n      swap1\n      0x0100\n      exp\n      swap1\n      div\n      0xffffffffffffffffffffffffffffffffffffffff\n      and\n      dup2\n      jump\t// out\n        /* \"contracts/Orders.sol\":783:826  mapping(uint256 => Listing) public listings */\n    tag_75:\n      mstore(0x20, 0x02)\n      dup1\n      0x00\n      mstore\n      keccak256(0x00, 0x40)\n      0x00\n      swap2\n      pop\n      swap1\n      pop\n      dup1\n      0x00\n      add\n      0x00\n      swap1\n      sload\n      swap1\n      0x0100\n      exp\n      swap1\n      div\n      0xffffffffffffffffffffffffffffffffffffffff\n      and\n      swap1\n      dup1\n      0x01\n      add\n      0x00\n      swap1\n      sload\n      swap1\n      0x0100\n      exp\n      swap1\n      div\n      0xffffffffffffffffffffffffffffffff\n      and\n      swap1\n      dup1\n      0x01\n      add\n      0x10\n      swap1\n      sload\n      swap1\n      0x0100\n      exp\n      swap1\n      div\n      0xffffffffffffffffffffffffffffffff\n      and\n      swap1\n      pop\n      dup4\n      jump\t// out\n        /* \"contracts/Orders.sol\":1000:1053  mapping(address => uint256) public pendingWithdrawals */\n    tag_81:\n      mstore(0x20, 0x04)\n      dup1\n      0x00\n      mstore\n      keccak256(0x00, 0x40)\n      0x00\n      swap2\n      pop\n      swap1\n      pop\n      sload\n      dup2\n      jump\t// out\n        /* \"#utility.yul\":88:205   */\n    tag_195:\n        /* \"#utility.yul\":197:198   */\n      0x00\n        /* \"#utility.yul\":194:195   */\n      dup1\n        /* \"#utility.yul\":187:199   */\n      revert\n        /* \"#utility.yul\":211:328   */\n    tag_196:\n        /* \"#utility.yul\":320:321   */\n      0x00\n        /* \"#utility.yul\":317:318   */\n      dup1\n        /* \"#utility.yul\":310:322   */\n      revert\n        /* \"#utility.yul\":334:411   */\n    tag_197:\n        /* \"#utility.yul\":371:378   */\n      0x00\n        /* \"#utility.yul\":400:405   */\n      dup2\n        /* \"#utility.yul\":389:405   */\n      swap1\n      pop\n        /* \"#utility.yul\":334:411   */\n      swap2\n      swap1\n      pop\n      jump\t// out\n        /* \"#utility.yul\":417:539   */\n    tag_198:\n        /* \"#utility.yul\":490:514   */\n      tag_286\n        /* \"#utility.yul\":508:513   */\n      dup2\n        /* \"#utility.yul\":490:514   */\n      tag_197\n      jump\t// in\n    tag_286:\n        /* \"#utility.yul\":483:488   */\n      dup2\n        /* \"#utility.yul\":480:515   */\n      eq\n        /* \"#utility.yul\":470:533   */\n      tag_287\n      jumpi\n        /* \"#utility.yul\":529:530   */\n      0x00\n        /* \"#utility.yul\":526:527   */\n      dup1\n        /* \"#utility.yul\":519:531   */\n      revert\n        /* \"#utility.yul\":470:533   */\n    tag_287:\n        /* \"#utility.yul\":417:539   */\n      pop\n      jump\t// out\n        /* \"#utility.yul\":545:684   */\n    tag_199:\n        /* \"#utility.yul\":591:596   */\n      0x00\n        /* \"#utility.yul\":629:635   */\n      dup2\n        /* \"#utility.yul\":616:636   */\n      calldataload\n        /* \"#utility.yul\":607:636   */\n      swap1\n      pop\n        /* \"#utility.yul\":645:678   */\n      tag_289\n        /* \"#utility.yul\":672:677   */\n      dup2\n        /* \"#utility.yul\":645:678   */\n      tag_198\n      jump\t// in\n    tag_289:\n        /* \"#utility.yul\":545:684   */\n      swap3\n      swap2\n      pop\n      pop\n      jump\t// out\n        /* \"#utility.yul\":690:1019   */\n    tag_22:\n        /* \"#utility.yul\":749:755   */\n      0x00\n        /* \"#utility.yul\":798:800   */\n      0x20\n        /* \"#utility.yul\":786:795   */\n      dup3\n        /* \"#utility.yul\":777:784   */\n      dup5\n        /* \"#utility.yul\":773:796   */\n      sub\n        /* \"#utility.yul\":769:801   */\n      slt\n        /* \"#utility.yul\":766:885   */\n      iszero\n      tag_291\n      jumpi\n        /* \"#utility.yul\":804:883   */\n      tag_292\n      tag_195\n      jump\t// in\n    tag_292:\n        /* \"#utility.yul\":766:885   */\n    tag_291:\n        /* \"#utility.yul\":924:925   */\n      0x00\n        /* \"#utility.yul\":949:1002   */\n      tag_293\n        /* \"#utility.yul\":994:1001   */\n      dup5\n        /* \"#utility.yul\":985:991   */\n      dup3\n        /* \"#utility.yul\":974:983   */\n      dup6\n        /* \"#utility.yul\":970:992   */\n      add\n        /* \"#utility.yul\":949:1002   */\n      tag_199\n      jump\t// in\n    tag_293:\n        /* \"#utility.yul\":939:1002   */\n      swap2\n      pop\n        /* \"#utility.yul\":895:1012   */\n      pop\n        /* \"#utility.yul\":690:1019   */\n      swap3\n      swap2\n      pop\n      pop\n      jump\t// out\n        /* \"#utility.yul\":1025:1151   */\n    tag_200:\n        /* \"#utility.yul\":1062:1069   */\n      0x00\n        /* \"#utility.yul\":1102:1144   */\n      0xffffffffffffffffffffffffffffffffffffffff\n        /* \"#utility.yul\":1095:1100   */\n      dup3\n        /* \"#utility.yul\":1091:1145   */\n      and\n        /* \"#utility.yul\":1080:1145   */\n      swap1\n      pop\n        /* \"#utility.yul\":1025:1151   */\n      swap2\n      swap1\n      pop\n      jump\t// out\n        /* \"#utility.yul\":1157:1253   */\n    tag_201:\n        /* \"#utility.yul\":1194:1201   */\n      0x00\n        /* \"#utility.yul\":1223:1247   */\n      tag_296\n        /* \"#utility.yul\":1241:1246   */\n      dup3\n        /* \"#utility.yul\":1223:1247   */\n      tag_200\n      jump\t// in\n    tag_296:\n        /* \"#utility.yul\":1212:1247   */\n      swap1\n      pop\n        /* \"#utility.yul\":1157:1253   */\n      swap2\n      swap1\n      pop\n      jump\t// out\n        /* \"#utility.yul\":1259:1381   */\n    tag_202:\n        /* \"#utility.yul\":1332:1356   */\n      tag_298\n        /* \"#utility.yul\":1350:1355   */\n      dup2\n        /* \"#utility.yul\":1332:1356   */\n      tag_201\n      jump\t// in\n    tag_298:\n        /* \"#utility.yul\":1325:1330   */\n      dup2\n        /* \"#utility.yul\":1322:1357   */\n      eq\n        /* \"#utility.yul\":1312:1375   */\n      tag_299\n      jumpi\n        /* \"#utility.yul\":1371:1372   */\n      0x00\n        /* \"#utility.yul\":1368:1369   */\n      dup1\n        /* \"#utility.yul\":1361:1373   */\n      revert\n        /* \"#utility.yul\":1312:1375   */\n    tag_299:\n        /* \"#utility.yul\":1259:1381   */\n      pop\n      jump\t// out\n        /* \"#utility.yul\":1387:1526   */\n    tag_203:\n        /* \"#utility.yul\":1433:1438   */\n      0x00\n        /* \"#utility.yul\":1471:1477   */\n      dup2\n        /* \"#utility.yul\":1458:1478   */\n      calldataload\n        /* \"#utility.yul\":1449:1478   */\n      swap1\n      pop\n        /* \"#utility.yul\":1487:1520   */\n      tag_301\n        /* \"#utility.yul\":1514:1519   */\n      dup2\n        /* \"#utility.yul\":1487:1520   */\n      tag_202\n      jump\t// in\n    tag_301:\n        /* \"#utility.yul\":1387:1526   */\n      swap3\n      swap2\n      pop\n      pop\n      jump\t// out\n        /* \"#utility.yul\":1532:2006   */\n    tag_30:\n        /* \"#utility.yul\":1600:1606   */\n      0x00\n        /* \"#utility.yul\":1608:1614   */\n      dup1\n        /* \"#utility.yul\":1657:1659   */\n      0x40\n        /* \"#utility.yul\":1645:1654   */\n      dup4\n        /* \"#utility.yul\":1636:1643   */\n      dup6\n        /* \"#utility.yul\":1632:1655   */\n      sub\n        /* \"#utility.yul\":1628:1660   */\n      slt\n        /* \"#utility.yul\":1625:1744   */\n      iszero\n      tag_303\n      jumpi\n        /* \"#utility.yul\":1663:1742   */\n      tag_304\n      tag_195\n      jump\t// in\n    tag_304:\n        /* \"#utility.yul\":1625:1744   */\n    tag_303:\n        /* \"#utility.yul\":1783:1784   */\n      0x00\n        /* \"#utility.yul\":1808:1861   */\n      tag_305\n        /* \"#utility.yul\":1853:1860   */\n      dup6\n        /* \"#utility.yul\":1844:1850   */\n      dup3\n        /* \"#utility.yul\":1833:1842   */\n      dup7\n        /* \"#utility.yul\":1829:1851   */\n      add\n        /* \"#utility.yul\":1808:1861   */\n      tag_203\n      jump\t// in\n    tag_305:\n        /* \"#utility.yul\":1798:1861   */\n      swap3\n      pop\n        /* \"#utility.yul\":1754:1871   */\n      pop\n        /* \"#utility.yul\":1910:1912   */\n      0x20\n        /* \"#utility.yul\":1936:1989   */\n      tag_306\n        /* \"#utility.yul\":1981:1988   */\n      dup6\n        /* \"#utility.yul\":1972:1978   */\n      dup3\n        /* \"#utility.yul\":1961:1970   */\n      dup7\n        /* \"#utility.yul\":1957:1979   */\n      add\n        /* \"#utility.yul\":1936:1989   */\n      tag_199\n      jump\t// in\n    tag_306:\n        /* \"#utility.yul\":1926:1989   */\n      swap2\n      pop\n        /* \"#utility.yul\":1881:1999   */\n      pop\n        /* \"#utility.yul\":1532:2006   */\n      swap3\n      pop\n      swap3\n      swap1\n      pop\n      jump\t// out\n        /* \"#utility.yul\":2012:2130   */\n    tag_204:\n        /* \"#utility.yul\":2099:2123   */\n      tag_308\n        /* \"#utility.yul\":2117:2122   */\n      dup2\n        /* \"#utility.yul\":2099:2123   */\n      tag_197\n      jump\t// in\n    tag_308:\n        /* \"#utility.yul\":2094:2097   */\n      dup3\n        /* \"#utility.yul\":2087:2124   */\n      mstore\n        /* \"#utility.yul\":2012:2130   */\n      pop\n      pop\n      jump\t// out\n        /* \"#utility.yul\":2136:2358   */\n    tag_33:\n        /* \"#utility.yul\":2229:2233   */\n      0x00\n        /* \"#utility.yul\":2267:2269   */\n      0x20\n        /* \"#utility.yul\":2256:2265   */\n      dup3\n        /* \"#utility.yul\":2252:2270   */\n      add\n        /* \"#utility.yul\":2244:2270   */\n      swap1\n      pop\n        /* \"#utility.yul\":2280:2351   */\n      tag_310\n        /* \"#utility.yul\":2348:2349   */\n      0x00\n        /* \"#utility.yul\":2337:2346   */\n      dup4\n        /* \"#utility.yul\":2333:2350   */\n      add\n        /* \"#utility.yul\":2324:2330   */\n      dup5\n        /* \"#utility.yul\":2280:2351   */\n      tag_204\n      jump\t// in\n    tag_310:\n        /* \"#utility.yul\":2136:2358   */\n      swap3\n      swap2\n      pop\n      pop\n      jump\t// out\n        /* \"#utility.yul\":2364:2424   */\n    tag_205:\n        /* \"#utility.yul\":2392:2395   */\n      0x00\n        /* \"#utility.yul\":2413:2418   */\n      dup2\n        /* \"#utility.yul\":2406:2418   */\n      swap1\n      pop\n        /* \"#utility.yul\":2364:2424   */\n      swap2\n      swap1\n      pop\n      jump\t// out\n        /* \"#utility.yul\":2430:2572   */\n    tag_206:\n        /* \"#utility.yul\":2480:2489   */\n      0x00\n        /* \"#utility.yul\":2513:2566   */\n      tag_313\n        /* \"#utility.yul\":2531:2565   */\n      tag_314\n        /* \"#utility.yul\":2540:2564   */\n      tag_315\n        /* \"#utility.yul\":2558:2563   */\n      dup5\n        /* \"#utility.yul\":2540:2564   */\n      tag_200\n      jump\t// in\n    tag_315:\n        /* \"#utility.yul\":2531:2565   */\n      tag_205\n      jump\t// in\n    tag_314:\n        /* \"#utility.yul\":2513:2566   */\n      tag_200\n      jump\t// in\n    tag_313:\n        /* \"#utility.yul\":2500:2566   */\n      swap1\n      pop\n        /* \"#utility.yul\":2430:2572   */\n      swap2\n      swap1\n      pop\n      jump\t// out\n        /* \"#utility.yul\":2578:2704   */\n    tag_207:\n        /* \"#utility.yul\":2628:2637   */\n      0x00\n        /* \"#utility.yul\":2661:2698   */\n      tag_317\n        /* \"#utility.yul\":2692:2697   */\n      dup3\n        /* \"#utility.yul\":2661:2698   */\n      tag_206\n      jump\t// in\n    tag_317:\n        /* \"#utility.yul\":2648:2698   */\n      swap1\n      pop\n        /* \"#utility.yul\":2578:2704   */\n      swap2\n      swap1\n      pop\n      jump\t// out\n        /* \"#utility.yul\":2710:2861   */\n    tag_208:\n        /* \"#utility.yul\":2785:2794   */\n      0x00\n        /* \"#utility.yul\":2818:2855   */\n      tag_319\n        /* \"#utility.yul\":2849:2854   */\n      dup3\n        /* \"#utility.yul\":2818:2855   */\n      tag_207\n      jump\t// in\n    tag_319:\n        /* \"#utility.yul\":2805:2855   */\n      swap1\n      pop\n        /* \"#utility.yul\":2710:2861   */\n      swap2\n      swap1\n      pop\n      jump\t// out\n        /* \"#utility.yul\":2867:3048   */\n    tag_209:\n        /* \"#utility.yul\":2979:3041   */\n      tag_321\n        /* \"#utility.yul\":3035:3040   */\n      dup2\n        /* \"#utility.yul\":2979:3041   */\n      tag_208\n      jump\t// in\n    tag_321:\n        /* \"#utility.yul\":2974:2977   */\n      dup3\n        /* \"#utility.yul\":2967:3042   */\n      mstore\n        /* \"#utility.yul\":2867:3048   */\n      pop\n      pop\n      jump\t// out\n        /* \"#utility.yul\":3054:3326   */\n    tag_46:\n        /* \"#utility.yul\":3172:3176   */\n      0x00\n        /* \"#utility.yul\":3210:3212   */\n      0x20\n        /* \"#utility.yul\":3199:3208   */\n      dup3\n        /* \"#utility.yul\":3195:3213   */\n      add\n        /* \"#utility.yul\":3187:3213   */\n      swap1\n      pop\n        /* \"#utility.yul\":3223:3319   */\n      tag_323\n        /* \"#utility.yul\":3316:3317   */\n      0x00\n        /* \"#utility.yul\":3305:3314   */\n      dup4\n        /* \"#utility.yul\":3301:3318   */\n      add\n        /* \"#utility.yul\":3292:3298   */\n      dup5\n        /* \"#utility.yul\":3223:3319   */\n      tag_209\n      jump\t// in\n    tag_323:\n        /* \"#utility.yul\":3054:3326   */\n      swap3\n      swap2\n      pop\n      pop\n      jump\t// out\n        /* \"#utility.yul\":3332:3661   */\n    tag_50:\n        /* \"#utility.yul\":3391:3397   */\n      0x00\n        /* \"#utility.yul\":3440:3442   */\n      0x20\n        /* \"#utility.yul\":3428:3437   */\n      dup3\n        /* \"#utility.yul\":3419:3426   */\n      dup5\n        /* \"#utility.yul\":3415:3438   */\n      sub\n        /* \"#utility.yul\":3411:3443   */\n      slt\n        /* \"#utility.yul\":3408:3527   */\n      iszero\n      tag_325\n      jumpi\n        /* \"#utility.yul\":3446:3525   */\n      tag_326\n      tag_195\n      jump\t// in\n    tag_326:\n        /* \"#utility.yul\":3408:3527   */\n    tag_325:\n        /* \"#utility.yul\":3566:3567   */\n      0x00\n        /* \"#utility.yul\":3591:3644   */\n      tag_327\n        /* \"#utility.yul\":3636:3643   */\n      dup5\n        /* \"#utility.yul\":3627:3633   */\n      dup3\n        /* \"#utility.yul\":3616:3625   */\n      dup6\n        /* \"#utility.yul\":3612:3634   */\n      add\n        /* \"#utility.yul\":3591:3644   */\n      tag_203\n      jump\t// in\n    tag_327:\n        /* \"#utility.yul\":3581:3644   */\n      swap2\n      pop\n        /* \"#utility.yul\":3537:3654   */\n      pop\n        /* \"#utility.yul\":3332:3661   */\n      swap3\n      swap2\n      pop\n      pop\n      jump\t// out\n        /* \"#utility.yul\":3667:3771   */\n    tag_210:\n        /* \"#utility.yul\":3712:3719   */\n      0x00\n        /* \"#utility.yul\":3741:3765   */\n      tag_329\n        /* \"#utility.yul\":3759:3764   */\n      dup3\n        /* \"#utility.yul\":3741:3765   */\n      tag_200\n      jump\t// in\n    tag_329:\n        /* \"#utility.yul\":3730:3765   */\n      swap1\n      pop\n        /* \"#utility.yul\":3667:3771   */\n      swap2\n      swap1\n      pop\n      jump\t// out\n        /* \"#utility.yul\":3777:3919   */\n    tag_211:\n        /* \"#utility.yul\":3880:3912   */\n      tag_331\n        /* \"#utility.yul\":3906:3911   */\n      dup2\n        /* \"#utility.yul\":3880:3912   */\n      tag_210\n      jump\t// in\n    tag_331:\n        /* \"#utility.yul\":3875:3878   */\n      dup3\n        /* \"#utility.yul\":3868:3913   */\n      mstore\n        /* \"#utility.yul\":3777:3919   */\n      pop\n      pop\n      jump\t// out\n        /* \"#utility.yul\":3925:4179   */\n    tag_61:\n        /* \"#utility.yul\":4034:4038   */\n      0x00\n        /* \"#utility.yul\":4072:4074   */\n      0x20\n        /* \"#utility.yul\":4061:4070   */\n      dup3\n        /* \"#utility.yul\":4057:4075   */\n      add\n        /* \"#utility.yul\":4049:4075   */\n      swap1\n      pop\n        /* \"#utility.yul\":4085:4172   */\n      tag_333\n        /* \"#utility.yul\":4169:4170   */\n      0x00\n        /* \"#utility.yul\":4158:4167   */\n      dup4\n        /* \"#utility.yul\":4154:4171   */\n      add\n        /* \"#utility.yul\":4145:4151   */\n      dup5\n        /* \"#utility.yul\":4085:4172   */\n      tag_211\n      jump\t// in\n    tag_333:\n        /* \"#utility.yul\":3925:4179   */\n      swap3\n      swap2\n      pop\n      pop\n      jump\t// out\n        /* \"#utility.yul\":4185:4303   */\n    tag_212:\n        /* \"#utility.yul\":4222:4229   */\n      0x00\n        /* \"#utility.yul\":4262:4296   */\n      0xffffffffffffffffffffffffffffffff\n        /* \"#utility.yul\":4255:4260   */\n      dup3\n        /* \"#utility.yul\":4251:4297   */\n      and\n        /* \"#utility.yul\":4240:4297   */\n      swap1\n      pop\n        /* \"#utility.yul\":4185:4303   */\n      swap2\n      swap1\n      pop\n      jump\t// out\n        /* \"#utility.yul\":4309:4431   */\n    tag_213:\n        /* \"#utility.yul\":4382:4406   */\n      tag_336\n        /* \"#utility.yul\":4400:4405   */\n      dup2\n        /* \"#utility.yul\":4382:4406   */\n      tag_212\n      jump\t// in\n    tag_336:\n        /* \"#utility.yul\":4375:4380   */\n      dup2\n        /* \"#utility.yul\":4372:4407   */\n      eq\n        /* \"#utility.yul\":4362:4425   */\n      tag_337\n      jumpi\n        /* \"#utility.yul\":4421:4422   */\n      0x00\n        /* \"#utility.yul\":4418:4419   */\n      dup1\n        /* \"#utility.yul\":4411:4423   */\n      revert\n        /* \"#utility.yul\":4362:4425   */\n    tag_337:\n        /* \"#utility.yul\":4309:4431   */\n      pop\n      jump\t// out\n        /* \"#utility.yul\":4437:4576   */\n    tag_214:\n        /* \"#utility.yul\":4483:4488   */\n      0x00\n        /* \"#utility.yul\":4521:4527   */\n      dup2\n        /* \"#utility.yul\":4508:4528   */\n      calldataload\n        /* \"#utility.yul\":4499:4528   */\n      swap1\n      pop\n        /* \"#utility.yul\":4537:4570   */\n      tag_339\n        /* \"#utility.yul\":4564:4569   */\n      dup2\n        /* \"#utility.yul\":4537:4570   */\n      tag_213\n      jump\t// in\n    tag_339:\n        /* \"#utility.yul\":4437:4576   */\n      swap3\n      swap2\n      pop\n      pop\n      jump\t// out\n        /* \"#utility.yul\":4582:4699   */\n    tag_215:\n        /* \"#utility.yul\":4691:4692   */\n      0x00\n        /* \"#utility.yul\":4688:4689   */\n      dup1\n        /* \"#utility.yul\":4681:4693   */\n      revert\n        /* \"#utility.yul\":4705:4822   */\n    tag_216:\n        /* \"#utility.yul\":4814:4815   */\n      0x00\n        /* \"#utility.yul\":4811:4812   */\n      dup1\n        /* \"#utility.yul\":4804:4816   */\n      revert\n        /* \"#utility.yul\":4828:4945   */\n    tag_217:\n        /* \"#utility.yul\":4937:4938   */\n      0x00\n        /* \"#utility.yul\":4934:4935   */\n      dup1\n        /* \"#utility.yul\":4927:4939   */\n      revert\n        /* \"#utility.yul\":4965:5518   */\n    tag_218:\n        /* \"#utility.yul\":5023:5031   */\n      0x00\n        /* \"#utility.yul\":5033:5039   */\n      dup1\n        /* \"#utility.yul\":5083:5086   */\n      dup4\n        /* \"#utility.yul\":5076:5080   */\n      0x1f\n        /* \"#utility.yul\":5068:5074   */\n      dup5\n        /* \"#utility.yul\":5064:5081   */\n      add\n        /* \"#utility.yul\":5060:5087   */\n      slt\n        /* \"#utility.yul\":5050:5172   */\n      tag_344\n      jumpi\n        /* \"#utility.yul\":5091:5170   */\n      tag_345\n      tag_215\n      jump\t// in\n    tag_345:\n        /* \"#utility.yul\":5050:5172   */\n    tag_344:\n        /* \"#utility.yul\":5204:5210   */\n      dup3\n        /* \"#utility.yul\":5191:5211   */\n      calldataload\n        /* \"#utility.yul\":5181:5211   */\n      swap1\n      pop\n        /* \"#utility.yul\":5234:5252   */\n      0xffffffffffffffff\n        /* \"#utility.yul\":5226:5232   */\n      dup2\n        /* \"#utility.yul\":5223:5253   */\n      gt\n        /* \"#utility.yul\":5220:5337   */\n      iszero\n      tag_346\n      jumpi\n        /* \"#utility.yul\":5256:5335   */\n      tag_347\n      tag_216\n      jump\t// in\n    tag_347:\n        /* \"#utility.yul\":5220:5337   */\n    tag_346:\n        /* \"#utility.yul\":5370:5374   */\n      0x20\n        /* \"#utility.yul\":5362:5368   */\n      dup4\n        /* \"#utility.yul\":5358:5375   */\n      add\n        /* \"#utility.yul\":5346:5375   */\n      swap2\n      pop\n        /* \"#utility.yul\":5424:5427   */\n      dup4\n        /* \"#utility.yul\":5416:5420   */\n      0x01\n        /* \"#utility.yul\":5408:5414   */\n      dup3\n        /* \"#utility.yul\":5404:5421   */\n      mul\n        /* \"#utility.yul\":5394:5402   */\n      dup4\n        /* \"#utility.yul\":5390:5422   */\n      add\n        /* \"#utility.yul\":5387:5428   */\n      gt\n        /* \"#utility.yul\":5384:5512   */\n      iszero\n      tag_348\n      jumpi\n        /* \"#utility.yul\":5431:5510   */\n      tag_349\n      tag_217\n      jump\t// in\n    tag_349:\n        /* \"#utility.yul\":5384:5512   */\n    tag_348:\n        /* \"#utility.yul\":4965:5518   */\n      swap3\n      pop\n      swap3\n      swap1\n      pop\n      jump\t// out\n        /* \"#utility.yul\":5524:6343   */\n    tag_65:\n        /* \"#utility.yul\":5613:5619   */\n      0x00\n        /* \"#utility.yul\":5621:5627   */\n      dup1\n        /* \"#utility.yul\":5629:5635   */\n      0x00\n        /* \"#utility.yul\":5637:5643   */\n      dup1\n        /* \"#utility.yul\":5686:5688   */\n      0x60\n        /* \"#utility.yul\":5674:5683   */\n      dup6\n        /* \"#utility.yul\":5665:5672   */\n      dup8\n        /* \"#utility.yul\":5661:5684   */\n      sub\n        /* \"#utility.yul\":5657:5689   */\n      slt\n        /* \"#utility.yul\":5654:5773   */\n      iszero\n      tag_351\n      jumpi\n        /* \"#utility.yul\":5692:5771   */\n      tag_352\n      tag_195\n      jump\t// in\n    tag_352:\n        /* \"#utility.yul\":5654:5773   */\n    tag_351:\n        /* \"#utility.yul\":5812:5813   */\n      0x00\n        /* \"#utility.yul\":5837:5890   */\n      tag_353\n        /* \"#utility.yul\":5882:5889   */\n      dup8\n        /* \"#utility.yul\":5873:5879   */\n      dup3\n        /* \"#utility.yul\":5862:5871   */\n      dup9\n        /* \"#utility.yul\":5858:5880   */\n      add\n        /* \"#utility.yul\":5837:5890   */\n      tag_214\n      jump\t// in\n    tag_353:\n        /* \"#utility.yul\":5827:5890   */\n      swap5\n      pop\n        /* \"#utility.yul\":5783:5900   */\n      pop\n        /* \"#utility.yul\":5939:5941   */\n      0x20\n        /* \"#utility.yul\":5965:6018   */\n      tag_354\n        /* \"#utility.yul\":6010:6017   */\n      dup8\n        /* \"#utility.yul\":6001:6007   */\n      dup3\n        /* \"#utility.yul\":5990:5999   */\n      dup9\n        /* \"#utility.yul\":5986:6008   */\n      add\n        /* \"#utility.yul\":5965:6018   */\n      tag_214\n      jump\t// in\n    tag_354:\n        /* \"#utility.yul\":5955:6018   */\n      swap4\n      pop\n        /* \"#utility.yul\":5910:6028   */\n      pop\n        /* \"#utility.yul\":6095:6097   */\n      0x40\n        /* \"#utility.yul\":6084:6093   */\n      dup6\n        /* \"#utility.yul\":6080:6098   */\n      add\n        /* \"#utility.yul\":6067:6099   */\n      calldataload\n        /* \"#utility.yul\":6126:6144   */\n      0xffffffffffffffff\n        /* \"#utility.yul\":6118:6124   */\n      dup2\n        /* \"#utility.yul\":6115:6145   */\n      gt\n        /* \"#utility.yul\":6112:6229   */\n      iszero\n      tag_355\n      jumpi\n        /* \"#utility.yul\":6148:6227   */\n      tag_356\n      tag_196\n      jump\t// in\n    tag_356:\n        /* \"#utility.yul\":6112:6229   */\n    tag_355:\n        /* \"#utility.yul\":6261:6326   */\n      tag_357\n        /* \"#utility.yul\":6318:6325   */\n      dup8\n        /* \"#utility.yul\":6309:6315   */\n      dup3\n        /* \"#utility.yul\":6298:6307   */\n      dup9\n        /* \"#utility.yul\":6294:6316   */\n      add\n        /* \"#utility.yul\":6261:6326   */\n      tag_218\n      jump\t// in\n    tag_357:\n        /* \"#utility.yul\":6243:6326   */\n      swap3\n      pop\n      swap3\n      pop\n        /* \"#utility.yul\":6038:6336   */\n      pop\n        /* \"#utility.yul\":5524:6343   */\n      swap3\n      swap6\n      swap2\n      swap5\n      pop\n      swap3\n      pop\n      jump\t// out\n        /* \"#utility.yul\":6349:6490   */\n    tag_219:\n        /* \"#utility.yul\":6414:6423   */\n      0x00\n        /* \"#utility.yul\":6447:6484   */\n      tag_359\n        /* \"#utility.yul\":6478:6483   */\n      dup3\n        /* \"#utility.yul\":6447:6484   */\n      tag_207\n      jump\t// in\n    tag_359:\n        /* \"#utility.yul\":6434:6484   */\n      swap1\n      pop\n        /* \"#utility.yul\":6349:6490   */\n      swap2\n      swap1\n      pop\n      jump\t// out\n        /* \"#utility.yul\":6496:6657   */\n    tag_220:\n        /* \"#utility.yul\":6598:6650   */\n      tag_361\n        /* \"#utility.yul\":6644:6649   */\n      dup2\n        /* \"#utility.yul\":6598:6650   */\n      tag_219\n      jump\t// in\n    tag_361:\n        /* \"#utility.yul\":6593:6596   */\n      dup3\n        /* \"#utility.yul\":6586:6651   */\n      mstore\n        /* \"#utility.yul\":6496:6657   */\n      pop\n      pop\n      jump\t// out\n        /* \"#utility.yul\":6663:6915   */\n    tag_71:\n        /* \"#utility.yul\":6771:6775   */\n      0x00\n        /* \"#utility.yul\":6809:6811   */\n      0x20\n        /* \"#utility.yul\":6798:6807   */\n      dup3\n        /* \"#utility.yul\":6794:6812   */\n      add\n        /* \"#utility.yul\":6786:6812   */\n      swap1\n      pop\n        /* \"#utility.yul\":6822:6908   */\n      tag_363\n        /* \"#utility.yul\":6905:6906   */\n      0x00\n        /* \"#utility.yul\":6894:6903   */\n      dup4\n        /* \"#utility.yul\":6890:6907   */\n      add\n        /* \"#utility.yul\":6881:6887   */\n      dup5\n        /* \"#utility.yul\":6822:6908   */\n      tag_220\n      jump\t// in\n    tag_363:\n        /* \"#utility.yul\":6663:6915   */\n      swap3\n      swap2\n      pop\n      pop\n      jump\t// out\n        /* \"#utility.yul\":6921:7039   */\n    tag_221:\n        /* \"#utility.yul\":7008:7032   */\n      tag_365\n        /* \"#utility.yul\":7026:7031   */\n      dup2\n        /* \"#utility.yul\":7008:7032   */\n      tag_201\n      jump\t// in\n    tag_365:\n        /* \"#utility.yul\":7003:7006   */\n      dup3\n        /* \"#utility.yul\":6996:7033   */\n      mstore\n        /* \"#utility.yul\":6921:7039   */\n      pop\n      pop\n      jump\t// out\n        /* \"#utility.yul\":7045:7163   */\n    tag_222:\n        /* \"#utility.yul\":7132:7156   */\n      tag_367\n        /* \"#utility.yul\":7150:7155   */\n      dup2\n        /* \"#utility.yul\":7132:7156   */\n      tag_212\n      jump\t// in\n    tag_367:\n        /* \"#utility.yul\":7127:7130   */\n      dup3\n        /* \"#utility.yul\":7120:7157   */\n      mstore\n        /* \"#utility.yul\":7045:7163   */\n      pop\n      pop\n      jump\t// out\n        /* \"#utility.yul\":7169:7611   */\n    tag_77:\n        /* \"#utility.yul\":7318:7322   */\n      0x00\n        /* \"#utility.yul\":7356:7358   */\n      0x60\n        /* \"#utility.yul\":7345:7354   */\n      dup3\n        /* \"#utility.yul\":7341:7359   */\n      add\n        /* \"#utility.yul\":7333:7359   */\n      swap1\n      pop\n        /* \"#utility.yul\":7369:7440   */\n      tag_369\n        /* \"#utility.yul\":7437:7438   */\n      0x00\n        /* \"#utility.yul\":7426:7435   */\n      dup4\n        /* \"#utility.yul\":7422:7439   */\n      add\n        /* \"#utility.yul\":7413:7419   */\n      dup7\n        /* \"#utility.yul\":7369:7440   */\n      tag_221\n      jump\t// in\n    tag_369:\n        /* \"#utility.yul\":7450:7522   */\n      tag_370\n        /* \"#utility.yul\":7518:7520   */\n      0x20\n        /* \"#utility.yul\":7507:7516   */\n      dup4\n        /* \"#utility.yul\":7503:7521   */\n      add\n        /* \"#utility.yul\":7494:7500   */\n      dup6\n        /* \"#utility.yul\":7450:7522   */\n      tag_222\n      jump\t// in\n    tag_370:\n        /* \"#utility.yul\":7532:7604   */\n      tag_371\n        /* \"#utility.yul\":7600:7602   */\n      0x40\n        /* \"#utility.yul\":7589:7598   */\n      dup4\n        /* \"#utility.yul\":7585:7603   */\n      add\n        /* \"#utility.yul\":7576:7582   */\n      dup5\n        /* \"#utility.yul\":7532:7604   */\n      tag_222\n      jump\t// in\n    tag_371:\n        /* \"#utility.yul\":7169:7611   */\n      swap5\n      swap4\n      pop\n      pop\n      pop\n      pop\n      jump\t// out\n        /* \"#utility.yul\":7617:7786   */\n    tag_223:\n        /* \"#utility.yul\":7701:7712   */\n      0x00\n        /* \"#utility.yul\":7735:7741   */\n      dup3\n        /* \"#utility.yul\":7730:7733   */\n      dup3\n        /* \"#utility.yul\":7723:7742   */\n      mstore\n        /* \"#utility.yul\":7775:7779   */\n      0x20\n        /* \"#utility.yul\":7770:7773   */\n      dup3\n        /* \"#utility.yul\":7766:7780   */\n      add\n        /* \"#utility.yul\":7751:7780   */\n      swap1\n      pop\n        /* \"#utility.yul\":7617:7786   */\n      swap3\n      swap2\n      pop\n      pop\n      jump\t// out\n        /* \"#utility.yul\":7792:7956   */\n    tag_224:\n        /* \"#utility.yul\":7932:7948   */\n      0x5265656e7472616e742063616c6c000000000000000000000000000000000000\n        /* \"#utility.yul\":7928:7929   */\n      0x00\n        /* \"#utility.yul\":7920:7926   */\n      dup3\n        /* \"#utility.yul\":7916:7930   */\n      add\n        /* \"#utility.yul\":7909:7949   */\n      mstore\n        /* \"#utility.yul\":7792:7956   */\n      pop\n      jump\t// out\n        /* \"#utility.yul\":7962:8328   */\n    tag_225:\n        /* \"#utility.yul\":8104:8107   */\n      0x00\n        /* \"#utility.yul\":8125:8192   */\n      tag_375\n        /* \"#utility.yul\":8189:8191   */\n      0x0e\n        /* \"#utility.yul\":8184:8187   */\n      dup4\n        /* \"#utility.yul\":8125:8192   */\n      tag_223\n      jump\t// in\n    tag_375:\n        /* \"#utility.yul\":8118:8192   */\n      swap2\n      pop\n        /* \"#utility.yul\":8201:8294   */\n      tag_376\n        /* \"#utility.yul\":8290:8293   */\n      dup3\n        /* \"#utility.yul\":8201:8294   */\n      tag_224\n      jump\t// in\n    tag_376:\n        /* \"#utility.yul\":8319:8321   */\n      0x20\n        /* \"#utility.yul\":8314:8317   */\n      dup3\n        /* \"#utility.yul\":8310:8322   */\n      add\n        /* \"#utility.yul\":8303:8322   */\n      swap1\n      pop\n        /* \"#utility.yul\":7962:8328   */\n      swap2\n      swap1\n      pop\n      jump\t// out\n        /* \"#utility.yul\":8334:8753   */\n    tag_86:\n        /* \"#utility.yul\":8500:8504   */\n      0x00\n        /* \"#utility.yul\":8538:8540   */\n      0x20\n        /* \"#utility.yul\":8527:8536   */\n      dup3\n        /* \"#utility.yul\":8523:8541   */\n      add\n        /* \"#utility.yul\":8515:8541   */\n      swap1\n      pop\n        /* \"#utility.yul\":8587:8596   */\n      dup2\n        /* \"#utility.yul\":8581:8585   */\n      dup2\n        /* \"#utility.yul\":8577:8597   */\n      sub\n        /* \"#utility.yul\":8573:8574   */\n      0x00\n        /* \"#utility.yul\":8562:8571   */\n      dup4\n        /* \"#utility.yul\":8558:8575   */\n      add\n        /* \"#utility.yul\":8551:8598   */\n      mstore\n        /* \"#utility.yul\":8615:8746   */\n      tag_378\n        /* \"#utility.yul\":8741:8745   */\n      dup2\n        /* \"#utility.yul\":8615:8746   */\n      tag_225\n      jump\t// in\n    tag_378:\n        /* \"#utility.yul\":8607:8746   */\n      swap1\n      pop\n        /* \"#utility.yul\":8334:8753   */\n      swap2\n      swap1\n      pop\n      jump\t// out\n        /* \"#utility.yul\":8759:8936   */\n    tag_226:\n        /* \"#utility.yul\":8899:8928   */\n      0x496e76616c6964206f7220696e616374697665206c697374696e670000000000\n        /* \"#utility.yul\":8895:8896   */\n      0x00\n        /* \"#utility.yul\":8887:8893   */\n      dup3\n        /* \"#utility.yul\":8883:8897   */\n      add\n        /* \"#utility.yul\":8876:8929   */\n      mstore\n        /* \"#utility.yul\":8759:8936   */\n      pop\n      jump\t// out\n        /* \"#utility.yul\":8942:9308   */\n    tag_227:\n        /* \"#utility.yul\":9084:9087   */\n      0x00\n        /* \"#utility.yul\":9105:9172   */\n      tag_381\n        /* \"#utility.yul\":9169:9171   */\n      0x1b\n        /* \"#utility.yul\":9164:9167   */\n      dup4\n        /* \"#utility.yul\":9105:9172   */\n      tag_223\n      jump\t// in\n    tag_381:\n        /* \"#utility.yul\":9098:9172   */\n      swap2\n      pop\n        /* \"#utility.yul\":9181:9274   */\n      tag_382\n        /* \"#utility.yul\":9270:9273   */\n      dup3\n        /* \"#utility.yul\":9181:9274   */\n      tag_226\n      jump\t// in\n    tag_382:\n        /* \"#utility.yul\":9299:9301   */\n      0x20\n        /* \"#utility.yul\":9294:9297   */\n      dup3\n        /* \"#utility.yul\":9290:9302   */\n      add\n        /* \"#utility.yul\":9283:9302   */\n      swap1\n      pop\n        /* \"#utility.yul\":8942:9308   */\n      swap2\n      swap1\n      pop\n      jump\t// out\n        /* \"#utility.yul\":9314:9733   */\n    tag_90:\n        /* \"#utility.yul\":9480:9484   */\n      0x00\n        /* \"#utility.yul\":9518:9520   */\n      0x20\n        /* \"#utility.yul\":9507:9516   */\n      dup3\n        /* \"#utility.yul\":9503:9521   */\n      add\n        /* \"#utility.yul\":9495:9521   */\n      swap1\n      pop\n        /* \"#utility.yul\":9567:9576   */\n      dup2\n        /* \"#utility.yul\":9561:9565   */\n      dup2\n        /* \"#utility.yul\":9557:9577   */\n      sub\n        /* \"#utility.yul\":9553:9554   */\n      0x00\n        /* \"#utility.yul\":9542:9551   */\n      dup4\n        /* \"#utility.yul\":9538:9555   */\n      add\n        /* \"#utility.yul\":9531:9578   */\n      mstore\n        /* \"#utility.yul\":9595:9726   */\n      tag_384\n        /* \"#utility.yul\":9721:9725   */\n      dup2\n        /* \"#utility.yul\":9595:9726   */\n      tag_227\n      jump\t// in\n    tag_384:\n        /* \"#utility.yul\":9587:9726   */\n      swap1\n      pop\n        /* \"#utility.yul\":9314:9733   */\n      swap2\n      swap1\n      pop\n      jump\t// out\n        /* \"#utility.yul\":9739:9913   */\n    tag_228:\n        /* \"#utility.yul\":9879:9905   */\n      0x496e636f7272656374207061796d656e7420616d6f756e740000000000000000\n        /* \"#utility.yul\":9875:9876   */\n      0x00\n        /* \"#utility.yul\":9867:9873   */\n      dup3\n        /* \"#utility.yul\":9863:9877   */\n      add\n        /* \"#utility.yul\":9856:9906   */\n      mstore\n        /* \"#utility.yul\":9739:9913   */\n      pop\n      jump\t// out\n        /* \"#utility.yul\":9919:10285   */\n    tag_229:\n        /* \"#utility.yul\":10061:10064   */\n      0x00\n        /* \"#utility.yul\":10082:10149   */\n      tag_387\n        /* \"#utility.yul\":10146:10148   */\n      0x18\n        /* \"#utility.yul\":10141:10144   */\n      dup4\n        /* \"#utility.yul\":10082:10149   */\n      tag_223\n      jump\t// in\n    tag_387:\n        /* \"#utility.yul\":10075:10149   */\n      swap2\n      pop\n        /* \"#utility.yul\":10158:10251   */\n      tag_388\n        /* \"#utility.yul\":10247:10250   */\n      dup3\n        /* \"#utility.yul\":10158:10251   */\n      tag_228\n      jump\t// in\n    tag_388:\n        /* \"#utility.yul\":10276:10278   */\n      0x20\n        /* \"#utility.yul\":10271:10274   */\n      dup3\n        /* \"#utility.yul\":10267:10279   */\n      add\n        /* \"#utility.yul\":10260:10279   */\n      swap1\n      pop\n        /* \"#utility.yul\":9919:10285   */\n      swap2\n      swap1\n      pop\n      jump\t// out\n        /* \"#utility.yul\":10291:10710   */\n    tag_93:\n        /* \"#utility.yul\":10457:10461   */\n      0x00\n        /* \"#utility.yul\":10495:10497   */\n      0x20\n        /* \"#utility.yul\":10484:10493   */\n      dup3\n        /* \"#utility.yul\":10480:10498   */\n      add\n        /* \"#utility.yul\":10472:10498   */\n      swap1\n      pop\n        /* \"#utility.yul\":10544:10553   */\n      dup2\n        /* \"#utility.yul\":10538:10542   */\n      dup2\n        /* \"#utility.yul\":10534:10554   */\n      sub\n        /* \"#utility.yul\":10530:10531   */\n      0x00\n        /* \"#utility.yul\":10519:10528   */\n      dup4\n        /* \"#utility.yul\":10515:10532   */\n      add\n        /* \"#utility.yul\":10508:10555   */\n      mstore\n        /* \"#utility.yul\":10572:10703   */\n      tag_390\n        /* \"#utility.yul\":10698:10702   */\n      dup2\n        /* \"#utility.yul\":10572:10703   */\n      tag_229\n      jump\t// in\n    tag_390:\n        /* \"#utility.yul\":10564:10703   */\n      swap1\n      pop\n        /* \"#utility.yul\":10291:10710   */\n      swap2\n      swap1\n      pop\n      jump\t// out\n        /* \"#utility.yul\":10716:10896   */\n    tag_230:\n        /* \"#utility.yul\":10764:10841   */\n      0x4e487b7100000000000000000000000000000000000000000000000000000000\n        /* \"#utility.yul\":10761:10762   */\n      0x00\n        /* \"#utility.yul\":10754:10842   */\n      mstore\n        /* \"#utility.yul\":10861:10865   */\n      0x11\n        /* \"#utility.yul\":10858:10859   */\n      0x04\n        /* \"#utility.yul\":10851:10866   */\n      mstore\n        /* \"#utility.yul\":10885:10889   */\n      0x24\n        /* \"#utility.yul\":10882:10883   */\n      0x00\n        /* \"#utility.yul\":10875:10890   */\n      revert\n        /* \"#utility.yul\":10902:11312   */\n    tag_95:\n        /* \"#utility.yul\":10942:10949   */\n      0x00\n        /* \"#utility.yul\":10965:10985   */\n      tag_393\n        /* \"#utility.yul\":10983:10984   */\n      dup3\n        /* \"#utility.yul\":10965:10985   */\n      tag_197\n      jump\t// in\n    tag_393:\n        /* \"#utility.yul\":10960:10985   */\n      swap2\n      pop\n        /* \"#utility.yul\":10999:11019   */\n      tag_394\n        /* \"#utility.yul\":11017:11018   */\n      dup4\n        /* \"#utility.yul\":10999:11019   */\n      tag_197\n      jump\t// in\n    tag_394:\n        /* \"#utility.yul\":10994:11019   */\n      swap3\n      pop\n        /* \"#utility.yul\":11054:11055   */\n      dup3\n        /* \"#utility.yul\":11051:11052   */\n      dup3\n        /* \"#utility.yul\":11047:11056   */\n      mul\n        /* \"#utility.yul\":11076:11106   */\n      tag_395\n        /* \"#utility.yul\":11094:11105   */\n      dup2\n        /* \"#utility.yul\":11076:11106   */\n      tag_197\n      jump\t// in\n    tag_395:\n        /* \"#utility.yul\":11065:11106   */\n      swap2\n      pop\n        /* \"#utility.yul\":11255:11256   */\n      dup3\n        /* \"#utility.yul\":11246:11253   */\n      dup3\n        /* \"#utility.yul\":11242:11257   */\n      div\n        /* \"#utility.yul\":11239:11240   */\n      dup5\n        /* \"#utility.yul\":11236:11258   */\n      eq\n        /* \"#utility.yul\":11216:11217   */\n      dup4\n        /* \"#utility.yul\":11209:11218   */\n      iszero\n        /* \"#utility.yul\":11189:11272   */\n      or\n        /* \"#utility.yul\":11166:11305   */\n      tag_396\n      jumpi\n        /* \"#utility.yul\":11285:11303   */\n      tag_397\n      tag_230\n      jump\t// in\n    tag_397:\n        /* \"#utility.yul\":11166:11305   */\n    tag_396:\n        /* \"#utility.yul\":10950:11312   */\n      pop\n        /* \"#utility.yul\":10902:11312   */\n      swap3\n      swap2\n      pop\n      pop\n      jump\t// out\n        /* \"#utility.yul\":11318:11498   */\n    tag_231:\n        /* \"#utility.yul\":11366:11443   */\n      0x4e487b7100000000000000000000000000000000000000000000000000000000\n        /* \"#utility.yul\":11363:11364   */\n      0x00\n        /* \"#utility.yul\":11356:11444   */\n      mstore\n        /* \"#utility.yul\":11463:11467   */\n      0x12\n        /* \"#utility.yul\":11460:11461   */\n      0x04\n        /* \"#utility.yul\":11453:11468   */\n      mstore\n        /* \"#utility.yul\":11487:11491   */\n      0x24\n        /* \"#utility.yul\":11484:11485   */\n      0x00\n        /* \"#utility.yul\":11477:11492   */\n      revert\n        /* \"#utility.yul\":11504:11689   */\n    tag_97:\n        /* \"#utility.yul\":11544:11545   */\n      0x00\n        /* \"#utility.yul\":11561:11581   */\n      tag_400\n        /* \"#utility.yul\":11579:11580   */\n      dup3\n        /* \"#utility.yul\":11561:11581   */\n      tag_197\n      jump\t// in\n    tag_400:\n        /* \"#utility.yul\":11556:11581   */\n      swap2\n      pop\n        /* \"#utility.yul\":11595:11615   */\n      tag_401\n        /* \"#utility.yul\":11613:11614   */\n      dup4\n        /* \"#utility.yul\":11595:11615   */\n      tag_197\n      jump\t// in\n    tag_401:\n        /* \"#utility.yul\":11590:11615   */\n      swap3\n      pop\n        /* \"#utility.yul\":11634:11635   */\n      dup3\n        /* \"#utility.yul\":11624:11659   */\n      tag_402\n      jumpi\n        /* \"#utility.yul\":11639:11657   */\n      tag_403\n      tag_231\n      jump\t// in\n    tag_403:\n        /* \"#utility.yul\":11624:11659   */\n    tag_402:\n        /* \"#utility.yul\":11681:11682   */\n      dup3\n        /* \"#utility.yul\":11678:11679   */\n      dup3\n        /* \"#utility.yul\":11674:11683   */\n      div\n        /* \"#utility.yul\":11669:11683   */\n      swap1\n      pop\n        /* \"#utility.yul\":11504:11689   */\n      swap3\n      swap2\n      pop\n      pop\n      jump\t// out\n        /* \"#utility.yul\":11695:11889   */\n    tag_99:\n        /* \"#utility.yul\":11735:11739   */\n      0x00\n        /* \"#utility.yul\":11755:11775   */\n      tag_405\n        /* \"#utility.yul\":11773:11774   */\n      dup3\n        /* \"#utility.yul\":11755:11775   */\n      tag_197\n      jump\t// in\n    tag_405:\n        /* \"#utility.yul\":11750:11775   */\n      swap2\n      pop\n        /* \"#utility.yul\":11789:11809   */\n      tag_406\n        /* \"#utility.yul\":11807:11808   */\n      dup4\n        /* \"#utility.yul\":11789:11809   */\n      tag_197\n      jump\t// in\n    tag_406:\n        /* \"#utility.yul\":11784:11809   */\n      swap3\n      pop\n        /* \"#utility.yul\":11833:11834   */\n      dup3\n        /* \"#utility.yul\":11830:11831   */\n      dup3\n        /* \"#utility.yul\":11826:11835   */\n      sub\n        /* \"#utility.yul\":11818:11835   */\n      swap1\n      pop\n        /* \"#utility.yul\":11857:11858   */\n      dup2\n        /* \"#utility.yul\":11851:11855   */\n      dup2\n        /* \"#utility.yul\":11848:11859   */\n      gt\n        /* \"#utility.yul\":11845:11882   */\n      iszero\n      tag_407\n      jumpi\n        /* \"#utility.yul\":11862:11880   */\n      tag_408\n      tag_230\n      jump\t// in\n    tag_408:\n        /* \"#utility.yul\":11845:11882   */\n    tag_407:\n        /* \"#utility.yul\":11695:11889   */\n      swap3\n      swap2\n      pop\n      pop\n      jump\t// out\n        /* \"#utility.yul\":11895:12037   */\n    tag_232:\n        /* \"#utility.yul\":11945:11954   */\n      0x00\n        /* \"#utility.yul\":11978:12031   */\n      tag_410\n        /* \"#utility.yul\":11996:12030   */\n      tag_411\n        /* \"#utility.yul\":12005:12029   */\n      tag_412\n        /* \"#utility.yul\":12023:12028   */\n      dup5\n        /* \"#utility.yul\":12005:12029   */\n      tag_212\n      jump\t// in\n    tag_412:\n        /* \"#utility.yul\":11996:12030   */\n      tag_205\n      jump\t// in\n    tag_411:\n        /* \"#utility.yul\":11978:12031   */\n      tag_197\n      jump\t// in\n    tag_410:\n        /* \"#utility.yul\":11965:12031   */\n      swap1\n      pop\n        /* \"#utility.yul\":11895:12037   */\n      swap2\n      swap1\n      pop\n      jump\t// out\n        /* \"#utility.yul\":12043:12174   */\n    tag_233:\n        /* \"#utility.yul\":12130:12167   */\n      tag_414\n        /* \"#utility.yul\":12161:12166   */\n      dup2\n        /* \"#utility.yul\":12130:12167   */\n      tag_232\n      jump\t// in\n    tag_414:\n        /* \"#utility.yul\":12125:12128   */\n      dup3\n        /* \"#utility.yul\":12118:12168   */\n      mstore\n        /* \"#utility.yul\":12043:12174   */\n      pop\n      pop\n      jump\t// out\n        /* \"#utility.yul\":12180:12622   */\n    tag_101:\n        /* \"#utility.yul\":12329:12333   */\n      0x00\n        /* \"#utility.yul\":12367:12369   */\n      0x60\n        /* \"#utility.yul\":12356:12365   */\n      dup3\n        /* \"#utility.yul\":12352:12370   */\n      add\n        /* \"#utility.yul\":12344:12370   */\n      swap1\n      pop\n        /* \"#utility.yul\":12380:12451   */\n      tag_416\n        /* \"#utility.yul\":12448:12449   */\n      0x00\n        /* \"#utility.yul\":12437:12446   */\n      dup4\n        /* \"#utility.yul\":12433:12450   */\n      add\n        /* \"#utility.yul\":12424:12430   */\n      dup7\n        /* \"#utility.yul\":12380:12451   */\n      tag_221\n      jump\t// in\n    tag_416:\n        /* \"#utility.yul\":12461:12533   */\n      tag_417\n        /* \"#utility.yul\":12529:12531   */\n      0x20\n        /* \"#utility.yul\":12518:12527   */\n      dup4\n        /* \"#utility.yul\":12514:12532   */\n      add\n        /* \"#utility.yul\":12505:12511   */\n      dup6\n        /* \"#utility.yul\":12461:12533   */\n      tag_221\n      jump\t// in\n    tag_417:\n        /* \"#utility.yul\":12543:12615   */\n      tag_418\n        /* \"#utility.yul\":12611:12613   */\n      0x40\n        /* \"#utility.yul\":12600:12609   */\n      dup4\n        /* \"#utility.yul\":12596:12614   */\n      add\n        /* \"#utility.yul\":12587:12593   */\n      dup5\n        /* \"#utility.yul\":12543:12615   */\n      tag_233\n      jump\t// in\n    tag_418:\n        /* \"#utility.yul\":12180:12622   */\n      swap5\n      swap4\n      pop\n      pop\n      pop\n      pop\n      jump\t// out\n        /* \"#utility.yul\":12628:12819   */\n    tag_106:\n        /* \"#utility.yul\":12668:12671   */\n      0x00\n        /* \"#utility.yul\":12687:12707   */\n      tag_420\n        /* \"#utility.yul\":12705:12706   */\n      dup3\n        /* \"#utility.yul\":12687:12707   */\n      tag_197\n      jump\t// in\n    tag_420:\n        /* \"#utility.yul\":12682:12707   */\n      swap2\n      pop\n        /* \"#utility.yul\":12721:12741   */\n      tag_421\n        /* \"#utility.yul\":12739:12740   */\n      dup4\n        /* \"#utility.yul\":12721:12741   */\n      tag_197\n      jump\t// in\n    tag_421:\n        /* \"#utility.yul\":12716:12741   */\n      swap3\n      pop\n        /* \"#utility.yul\":12764:12765   */\n      dup3\n        /* \"#utility.yul\":12761:12762   */\n      dup3\n        /* \"#utility.yul\":12757:12766   */\n      add\n        /* \"#utility.yul\":12750:12766   */\n      swap1\n      pop\n        /* \"#utility.yul\":12785:12788   */\n      dup1\n        /* \"#utility.yul\":12782:12783   */\n      dup3\n        /* \"#utility.yul\":12779:12789   */\n      gt\n        /* \"#utility.yul\":12776:12812   */\n      iszero\n      tag_422\n      jumpi\n        /* \"#utility.yul\":12792:12810   */\n      tag_423\n      tag_230\n      jump\t// in\n    tag_423:\n        /* \"#utility.yul\":12776:12812   */\n    tag_422:\n        /* \"#utility.yul\":12628:12819   */\n      swap3\n      swap2\n      pop\n      pop\n      jump\t// out\n        /* \"#utility.yul\":12825:13267   */\n    tag_109:\n        /* \"#utility.yul\":12974:12978   */\n      0x00\n        /* \"#utility.yul\":13012:13014   */\n      0x60\n        /* \"#utility.yul\":13001:13010   */\n      dup3\n        /* \"#utility.yul\":12997:13015   */\n      add\n        /* \"#utility.yul\":12989:13015   */\n      swap1\n      pop\n        /* \"#utility.yul\":13025:13096   */\n      tag_425\n        /* \"#utility.yul\":13093:13094   */\n      0x00\n        /* \"#utility.yul\":13082:13091   */\n      dup4\n        /* \"#utility.yul\":13078:13095   */\n      add\n        /* \"#utility.yul\":13069:13075   */\n      dup7\n        /* \"#utility.yul\":13025:13096   */\n      tag_233\n      jump\t// in\n    tag_425:\n        /* \"#utility.yul\":13106:13178   */\n      tag_426\n        /* \"#utility.yul\":13174:13176   */\n      0x20\n        /* \"#utility.yul\":13163:13172   */\n      dup4\n        /* \"#utility.yul\":13159:13177   */\n      add\n        /* \"#utility.yul\":13150:13156   */\n      dup6\n        /* \"#utility.yul\":13106:13178   */\n      tag_233\n      jump\t// in\n    tag_426:\n        /* \"#utility.yul\":13188:13260   */\n      tag_427\n        /* \"#utility.yul\":13256:13258   */\n      0x40\n        /* \"#utility.yul\":13245:13254   */\n      dup4\n        /* \"#utility.yul\":13241:13259   */\n      add\n        /* \"#utility.yul\":13232:13238   */\n      dup5\n        /* \"#utility.yul\":13188:13260   */\n      tag_204\n      jump\t// in\n    tag_427:\n        /* \"#utility.yul\":12825:13267   */\n      swap5\n      swap4\n      pop\n      pop\n      pop\n      pop\n      jump\t// out\n        /* \"#utility.yul\":13273:13443   */\n    tag_234:\n        /* \"#utility.yul\":13413:13435   */\n      0x4e6f2066756e647320746f207769746864726177000000000000000000000000\n        /* \"#utility.yul\":13409:13410   */\n      0x00\n        /* \"#utility.yul\":13401:13407   */\n      dup3\n        /* \"#utility.yul\":13397:13411   */\n      add\n        /* \"#utility.yul\":13390:13436   */\n      mstore\n        /* \"#utility.yul\":13273:13443   */\n      pop\n      jump\t// out\n        /* \"#utility.yul\":13449:13815   */\n    tag_235:\n        /* \"#utility.yul\":13591:13594   */\n      0x00\n        /* \"#utility.yul\":13612:13679   */\n      tag_430\n        /* \"#utility.yul\":13676:13678   */\n      0x14\n        /* \"#utility.yul\":13671:13674   */\n      dup4\n        /* \"#utility.yul\":13612:13679   */\n      tag_223\n      jump\t// in\n    tag_430:\n        /* \"#utility.yul\":13605:13679   */\n      swap2\n      pop\n        /* \"#utility.yul\":13688:13781   */\n      tag_431\n        /* \"#utility.yul\":13777:13780   */\n      dup3\n        /* \"#utility.yul\":13688:13781   */\n      tag_234\n      jump\t// in\n    tag_431:\n        /* \"#utility.yul\":13806:13808   */\n      0x20\n        /* \"#utility.yul\":13801:13804   */\n      dup3\n        /* \"#utility.yul\":13797:13809   */\n      add\n        /* \"#utility.yul\":13790:13809   */\n      swap1\n      pop\n        /* \"#utility.yul\":13449:13815   */\n      swap2\n      swap1\n      pop\n      jump\t// out\n        /* \"#utility.yul\":13821:14240   */\n    tag_116:\n        /* \"#utility.yul\":13987:13991   */\n      0x00\n        /* \"#utility.yul\":14025:14027   */\n      0x20\n        /* \"#utility.yul\":14014:14023   */\n      dup3\n        /* \"#utility.yul\":14010:14028   */\n      add\n        /* \"#utility.yul\":14002:14028   */\n      swap1\n      pop\n        /* \"#utility.yul\":14074:14083   */\n      dup2\n        /* \"#utility.yul\":14068:14072   */\n      dup2\n        /* \"#utility.yul\":14064:14084   */\n      sub\n        /* \"#utility.yul\":14060:14061   */\n      0x00\n        /* \"#utility.yul\":14049:14058   */\n      dup4\n        /* \"#utility.yul\":14045:14062   */\n      add\n        /* \"#utility.yul\":14038:14085   */\n      mstore\n        /* \"#utility.yul\":14102:14233   */\n      tag_433\n        /* \"#utility.yul\":14228:14232   */\n      dup2\n        /* \"#utility.yul\":14102:14233   */\n      tag_235\n      jump\t// in\n    tag_433:\n        /* \"#utility.yul\":14094:14233   */\n      swap1\n      pop\n        /* \"#utility.yul\":13821:14240   */\n      swap2\n      swap1\n      pop\n      jump\t// out\n        /* \"#utility.yul\":14246:14393   */\n    tag_236:\n        /* \"#utility.yul\":14347:14358   */\n      0x00\n        /* \"#utility.yul\":14384:14387   */\n      dup2\n        /* \"#utility.yul\":14369:14387   */\n      swap1\n      pop\n        /* \"#utility.yul\":14246:14393   */\n      swap3\n      swap2\n      pop\n      pop\n      jump\t// out\n        /* \"#utility.yul\":14399:14513   */\n    tag_237:\n      pop\n      jump\t// out\n        /* \"#utility.yul\":14519:14917   */\n    tag_238:\n        /* \"#utility.yul\":14678:14681   */\n      0x00\n        /* \"#utility.yul\":14699:14782   */\n      tag_437\n        /* \"#utility.yul\":14780:14781   */\n      0x00\n        /* \"#utility.yul\":14775:14778   */\n      dup4\n        /* \"#utility.yul\":14699:14782   */\n      tag_236\n      jump\t// in\n    tag_437:\n        /* \"#utility.yul\":14692:14782   */\n      swap2\n      pop\n        /* \"#utility.yul\":14791:14884   */\n      tag_438\n        /* \"#utility.yul\":14880:14883   */\n      dup3\n        /* \"#utility.yul\":14791:14884   */\n      tag_237\n      jump\t// in\n    tag_438:\n        /* \"#utility.yul\":14909:14910   */\n      0x00\n        /* \"#utility.yul\":14904:14907   */\n      dup3\n        /* \"#utility.yul\":14900:14911   */\n      add\n        /* \"#utility.yul\":14893:14911   */\n      swap1\n      pop\n        /* \"#utility.yul\":14519:14917   */\n      swap2\n      swap1\n      pop\n      jump\t// out\n        /* \"#utility.yul\":14923:15302   */\n    tag_118:\n        /* \"#utility.yul\":15107:15110   */\n      0x00\n        /* \"#utility.yul\":15129:15276   */\n      tag_440\n        /* \"#utility.yul\":15272:15275   */\n      dup3\n        /* \"#utility.yul\":15129:15276   */\n      tag_238\n      jump\t// in\n    tag_440:\n        /* \"#utility.yul\":15122:15276   */\n      swap2\n      pop\n        /* \"#utility.yul\":15293:15296   */\n      dup2\n        /* \"#utility.yul\":15286:15296   */\n      swap1\n      pop\n        /* \"#utility.yul\":14923:15302   */\n      swap2\n      swap1\n      pop\n      jump\t// out\n        /* \"#utility.yul\":15308:15473   */\n    tag_239:\n        /* \"#utility.yul\":15448:15465   */\n      0x5769746864726177206661696c65640000000000000000000000000000000000\n        /* \"#utility.yul\":15444:15445   */\n      0x00\n        /* \"#utility.yul\":15436:15442   */\n      dup3\n        /* \"#utility.yul\":15432:15446   */\n      add\n        /* \"#utility.yul\":15425:15466   */\n      mstore\n        /* \"#utility.yul\":15308:15473   */\n      pop\n      jump\t// out\n        /* \"#utility.yul\":15479:15845   */\n    tag_240:\n        /* \"#utility.yul\":15621:15624   */\n      0x00\n        /* \"#utility.yul\":15642:15709   */\n      tag_443\n        /* \"#utility.yul\":15706:15708   */\n      0x0f\n        /* \"#utility.yul\":15701:15704   */\n      dup4\n        /* \"#utility.yul\":15642:15709   */\n      tag_223\n      jump\t// in\n    tag_443:\n        /* \"#utility.yul\":15635:15709   */\n      swap2\n      pop\n        /* \"#utility.yul\":15718:15811   */\n      tag_444\n        /* \"#utility.yul\":15807:15810   */\n      dup3\n        /* \"#utility.yul\":15718:15811   */\n      tag_239\n      jump\t// in\n    tag_444:\n        /* \"#utility.yul\":15836:15838   */\n      0x20\n        /* \"#utility.yul\":15831:15834   */\n      dup3\n        /* \"#utility.yul\":15827:15839   */\n      add\n        /* \"#utility.yul\":15820:15839   */\n      swap1\n      pop\n        /* \"#utility.yul\":15479:15845   */\n      swap2\n      swap1\n      pop\n      jump\t// out\n        /* \"#utility.yul\":15851:16270   */\n    tag_124:\n        /* \"#utility.yul\":16017:16021   */\n      0x00\n        /* \"#utility.yul\":16055:16057   */\n      0x20\n        /* \"#utility.yul\":16044:16053   */\n      dup3\n        /* \"#utility.yul\":16040:16058   */\n      add\n        /* \"#utility.yul\":16032:16058   */\n      swap1\n      pop\n        /* \"#utility.yul\":16104:16113   */\n      dup2\n        /* \"#utility.yul\":16098:16102   */\n      dup2\n        /* \"#utility.yul\":16094:16114   */\n      sub\n        /* \"#utility.yul\":16090:16091   */\n      0x00\n        /* \"#utility.yul\":16079:16088   */\n      dup4\n        /* \"#utility.yul\":16075:16092   */\n      add\n        /* \"#utility.yul\":16068:16115   */\n      mstore\n        /* \"#utility.yul\":16132:16263   */\n      tag_446\n        /* \"#utility.yul\":16258:16262   */\n      dup2\n        /* \"#utility.yul\":16132:16263   */\n      tag_240\n      jump\t// in\n    tag_446:\n        /* \"#utility.yul\":16124:16263   */\n      swap1\n      pop\n        /* \"#utility.yul\":15851:16270   */\n      swap2\n      swap1\n      pop\n      jump\t// out\n        /* \"#utility.yul\":16276:16608   */\n    tag_128:\n        /* \"#utility.yul\":16397:16401   */\n      0x00\n        /* \"#utility.yul\":16435:16437   */\n      0x40\n        /* \"#utility.yul\":16424:16433   */\n      dup3\n        /* \"#utility.yul\":16420:16438   */\n      add\n        /* \"#utility.yul\":16412:16438   */\n      swap1\n      pop\n        /* \"#utility.yul\":16448:16519   */\n      tag_448\n        /* \"#utility.yul\":16516:16517   */\n      0x00\n        /* \"#utility.yul\":16505:16514   */\n      dup4\n        /* \"#utility.yul\":16501:16518   */\n      add\n        /* \"#utility.yul\":16492:16498   */\n      dup6\n        /* \"#utility.yul\":16448:16519   */\n      tag_221\n      jump\t// in\n    tag_448:\n        /* \"#utility.yul\":16529:16601   */\n      tag_449\n        /* \"#utility.yul\":16597:16599   */\n      0x20\n        /* \"#utility.yul\":16586:16595   */\n      dup4\n        /* \"#utility.yul\":16582:16600   */\n      add\n        /* \"#utility.yul\":16573:16579   */\n      dup5\n        /* \"#utility.yul\":16529:16601   */\n      tag_204\n      jump\t// in\n    tag_449:\n        /* \"#utility.yul\":16276:16608   */\n      swap4\n      swap3\n      pop\n      pop\n      pop\n      jump\t// out\n        /* \"#utility.yul\":16614:16757   */\n    tag_241:\n        /* \"#utility.yul\":16671:16676   */\n      0x00\n        /* \"#utility.yul\":16702:16708   */\n      dup2\n        /* \"#utility.yul\":16696:16709   */\n      mload\n        /* \"#utility.yul\":16687:16709   */\n      swap1\n      pop\n        /* \"#utility.yul\":16718:16751   */\n      tag_451\n        /* \"#utility.yul\":16745:16750   */\n      dup2\n        /* \"#utility.yul\":16718:16751   */\n      tag_198\n      jump\t// in\n    tag_451:\n        /* \"#utility.yul\":16614:16757   */\n      swap3\n      swap2\n      pop\n      pop\n      jump\t// out\n        /* \"#utility.yul\":16763:17114   */\n    tag_132:\n        /* \"#utility.yul\":16833:16839   */\n      0x00\n        /* \"#utility.yul\":16882:16884   */\n      0x20\n        /* \"#utility.yul\":16870:16879   */\n      dup3\n        /* \"#utility.yul\":16861:16868   */\n      dup5\n        /* \"#utility.yul\":16857:16880   */\n      sub\n        /* \"#utility.yul\":16853:16885   */\n      slt\n        /* \"#utility.yul\":16850:16969   */\n      iszero\n      tag_453\n      jumpi\n        /* \"#utility.yul\":16888:16967   */\n      tag_454\n      tag_195\n      jump\t// in\n    tag_454:\n        /* \"#utility.yul\":16850:16969   */\n    tag_453:\n        /* \"#utility.yul\":17008:17009   */\n      0x00\n        /* \"#utility.yul\":17033:17097   */\n      tag_455\n        /* \"#utility.yul\":17089:17096   */\n      dup5\n        /* \"#utility.yul\":17080:17086   */\n      dup3\n        /* \"#utility.yul\":17069:17078   */\n      dup6\n        /* \"#utility.yul\":17065:17087   */\n      add\n        /* \"#utility.yul\":17033:17097   */\n      tag_241\n      jump\t// in\n    tag_455:\n        /* \"#utility.yul\":17023:17097   */\n      swap2\n      pop\n        /* \"#utility.yul\":16979:17107   */\n      pop\n        /* \"#utility.yul\":16763:17114   */\n      swap3\n      swap2\n      pop\n      pop\n      jump\t// out\n        /* \"#utility.yul\":17120:17292   */\n    tag_242:\n        /* \"#utility.yul\":17260:17284   */\n      0x596f7520617265206e6f74207468652073656c6c657200000000000000000000\n        /* \"#utility.yul\":17256:17257   */\n      0x00\n        /* \"#utility.yul\":17248:17254   */\n      dup3\n        /* \"#utility.yul\":17244:17258   */\n      add\n        /* \"#utility.yul\":17237:17285   */\n      mstore\n        /* \"#utility.yul\":17120:17292   */\n      pop\n      jump\t// out\n        /* \"#utility.yul\":17298:17664   */\n    tag_243:\n        /* \"#utility.yul\":17440:17443   */\n      0x00\n        /* \"#utility.yul\":17461:17528   */\n      tag_458\n        /* \"#utility.yul\":17525:17527   */\n      0x16\n        /* \"#utility.yul\":17520:17523   */\n      dup4\n        /* \"#utility.yul\":17461:17528   */\n      tag_223\n      jump\t// in\n    tag_458:\n        /* \"#utility.yul\":17454:17528   */\n      swap2\n      pop\n        /* \"#utility.yul\":17537:17630   */\n      tag_459\n        /* \"#utility.yul\":17626:17629   */\n      dup3\n        /* \"#utility.yul\":17537:17630   */\n      tag_242\n      jump\t// in\n    tag_459:\n        /* \"#utility.yul\":17655:17657   */\n      0x20\n        /* \"#utility.yul\":17650:17653   */\n      dup3\n        /* \"#utility.yul\":17646:17658   */\n      add\n        /* \"#utility.yul\":17639:17658   */\n      swap1\n      pop\n        /* \"#utility.yul\":17298:17664   */\n      swap2\n      swap1\n      pop\n      jump\t// out\n        /* \"#utility.yul\":17670:18089   */\n    tag_138:\n        /* \"#utility.yul\":17836:17840   */\n      0x00\n        /* \"#utility.yul\":17874:17876   */\n      0x20\n        /* \"#utility.yul\":17863:17872   */\n      dup3\n        /* \"#utility.yul\":17859:17877   */\n      add\n        /* \"#utility.yul\":17851:17877   */\n      swap1\n      pop\n        /* \"#utility.yul\":17923:17932   */\n      dup2\n        /* \"#utility.yul\":17917:17921   */\n      dup2\n        /* \"#utility.yul\":17913:17933   */\n      sub\n        /* \"#utility.yul\":17909:17910   */\n      0x00\n        /* \"#utility.yul\":17898:17907   */\n      dup4\n        /* \"#utility.yul\":17894:17911   */\n      add\n        /* \"#utility.yul\":17887:17934   */\n      mstore\n        /* \"#utility.yul\":17951:18082   */\n      tag_461\n        /* \"#utility.yul\":18077:18081   */\n      dup2\n        /* \"#utility.yul\":17951:18082   */\n      tag_243\n      jump\t// in\n    tag_461:\n        /* \"#utility.yul\":17943:18082   */\n      swap1\n      pop\n        /* \"#utility.yul\":17670:18089   */\n      swap2\n      swap1\n      pop\n      jump\t// out\n        /* \"#utility.yul\":18095:18320   */\n    tag_244:\n        /* \"#utility.yul\":18235:18269   */\n      0x4f6e6c7920746865206f776e65722063616e20706572666f726d207468697320\n        /* \"#utility.yul\":18231:18232   */\n      0x00\n        /* \"#utility.yul\":18223:18229   */\n      dup3\n        /* \"#utility.yul\":18219:18233   */\n      add\n        /* \"#utility.yul\":18212:18270   */\n      mstore\n        /* \"#utility.yul\":18304:18312   */\n      0x616374696f6e0000000000000000000000000000000000000000000000000000\n        /* \"#utility.yul\":18299:18301   */\n      0x20\n        /* \"#utility.yul\":18291:18297   */\n      dup3\n        /* \"#utility.yul\":18287:18302   */\n      add\n        /* \"#utility.yul\":18280:18313   */\n      mstore\n        /* \"#utility.yul\":18095:18320   */\n      pop\n      jump\t// out\n        /* \"#utility.yul\":18326:18692   */\n    tag_245:\n        /* \"#utility.yul\":18468:18471   */\n      0x00\n        /* \"#utility.yul\":18489:18556   */\n      tag_464\n        /* \"#utility.yul\":18553:18555   */\n      0x26\n        /* \"#utility.yul\":18548:18551   */\n      dup4\n        /* \"#utility.yul\":18489:18556   */\n      tag_223\n      jump\t// in\n    tag_464:\n        /* \"#utility.yul\":18482:18556   */\n      swap2\n      pop\n        /* \"#utility.yul\":18565:18658   */\n      tag_465\n        /* \"#utility.yul\":18654:18657   */\n      dup3\n        /* \"#utility.yul\":18565:18658   */\n      tag_244\n      jump\t// in\n    tag_465:\n        /* \"#utility.yul\":18683:18685   */\n      0x40\n        /* \"#utility.yul\":18678:18681   */\n      dup3\n        /* \"#utility.yul\":18674:18686   */\n      add\n        /* \"#utility.yul\":18667:18686   */\n      swap1\n      pop\n        /* \"#utility.yul\":18326:18692   */\n      swap2\n      swap1\n      pop\n      jump\t// out\n        /* \"#utility.yul\":18698:19117   */\n    tag_142:\n        /* \"#utility.yul\":18864:18868   */\n      0x00\n        /* \"#utility.yul\":18902:18904   */\n      0x20\n        /* \"#utility.yul\":18891:18900   */\n      dup3\n        /* \"#utility.yul\":18887:18905   */\n      add\n        /* \"#utility.yul\":18879:18905   */\n      swap1\n      pop\n        /* \"#utility.yul\":18951:18960   */\n      dup2\n        /* \"#utility.yul\":18945:18949   */\n      dup2\n        /* \"#utility.yul\":18941:18961   */\n      sub\n        /* \"#utility.yul\":18937:18938   */\n      0x00\n        /* \"#utility.yul\":18926:18935   */\n      dup4\n        /* \"#utility.yul\":18922:18939   */\n      add\n        /* \"#utility.yul\":18915:18962   */\n      mstore\n        /* \"#utility.yul\":18979:19110   */\n      tag_467\n        /* \"#utility.yul\":19105:19109   */\n      dup2\n        /* \"#utility.yul\":18979:19110   */\n      tag_245\n      jump\t// in\n    tag_467:\n        /* \"#utility.yul\":18971:19110   */\n      swap1\n      pop\n        /* \"#utility.yul\":18698:19117   */\n      swap2\n      swap1\n      pop\n      jump\t// out\n        /* \"#utility.yul\":19123:19302   */\n    tag_246:\n        /* \"#utility.yul\":19263:19294   */\n      0x436f6d6d697373696f6e2063616e6e6f74206578636565642031303025000000\n        /* \"#utility.yul\":19259:19260   */\n      0x00\n        /* \"#utility.yul\":19251:19257   */\n      dup3\n        /* \"#utility.yul\":19247:19261   */\n      add\n        /* \"#utility.yul\":19240:19295   */\n      mstore\n        /* \"#utility.yul\":19123:19302   */\n      pop\n      jump\t// out\n        /* \"#utility.yul\":19308:19674   */\n    tag_247:\n        /* \"#utility.yul\":19450:19453   */\n      0x00\n        /* \"#utility.yul\":19471:19538   */\n      tag_470\n        /* \"#utility.yul\":19535:19537   */\n      0x1d\n        /* \"#utility.yul\":19530:19533   */\n      dup4\n        /* \"#utility.yul\":19471:19538   */\n      tag_223\n      jump\t// in\n    tag_470:\n        /* \"#utility.yul\":19464:19538   */\n      swap2\n      pop\n        /* \"#utility.yul\":19547:19640   */\n      tag_471\n        /* \"#utility.yul\":19636:19639   */\n      dup3\n        /* \"#utility.yul\":19547:19640   */\n      tag_246\n      jump\t// in\n    tag_471:\n        /* \"#utility.yul\":19665:19667   */\n      0x20\n        /* \"#utility.yul\":19660:19663   */\n      dup3\n        /* \"#utility.yul\":19656:19668   */\n      add\n        /* \"#utility.yul\":19649:19668   */\n      swap1\n      pop\n        /* \"#utility.yul\":19308:19674   */\n      swap2\n      swap1\n      pop\n      jump\t// out\n        /* \"#utility.yul\":19680:20099   */\n    tag_146:\n        /* \"#utility.yul\":19846:19850   */\n      0x00\n        /* \"#utility.yul\":19884:19886   */\n      0x20\n        /* \"#utility.yul\":19873:19882   */\n      dup3\n        /* \"#utility.yul\":19869:19887   */\n      add\n        /* \"#utility.yul\":19861:19887   */\n      swap1\n      pop\n        /* \"#utility.yul\":19933:19942   */\n      dup2\n        /* \"#utility.yul\":19927:19931   */\n      dup2\n        /* \"#utility.yul\":19923:19943   */\n      sub\n        /* \"#utility.yul\":19919:19920   */\n      0x00\n        /* \"#utility.yul\":19908:19917   */\n      dup4\n        /* \"#utility.yul\":19904:19921   */\n      add\n        /* \"#utility.yul\":19897:19944   */\n      mstore\n        /* \"#utility.yul\":19961:20092   */\n      tag_473\n        /* \"#utility.yul\":20087:20091   */\n      dup2\n        /* \"#utility.yul\":19961:20092   */\n      tag_247\n      jump\t// in\n    tag_473:\n        /* \"#utility.yul\":19953:20092   */\n      swap1\n      pop\n        /* \"#utility.yul\":19680:20099   */\n      swap2\n      swap1\n      pop\n      jump\t// out\n        /* \"#utility.yul\":20105:20283   */\n    tag_248:\n        /* \"#utility.yul\":20245:20275   */\n      0x5072696365206d7573742062652067726561746572207468616e203000000000\n        /* \"#utility.yul\":20241:20242   */\n      0x00\n        /* \"#utility.yul\":20233:20239   */\n      dup3\n        /* \"#utility.yul\":20229:20243   */\n      add\n        /* \"#utility.yul\":20222:20276   */\n      mstore\n        /* \"#utility.yul\":20105:20283   */\n      pop\n      jump\t// out\n        /* \"#utility.yul\":20289:20655   */\n    tag_249:\n        /* \"#utility.yul\":20431:20434   */\n      0x00\n        /* \"#utility.yul\":20452:20519   */\n      tag_476\n        /* \"#utility.yul\":20516:20518   */\n      0x1c\n        /* \"#utility.yul\":20511:20514   */\n      dup4\n        /* \"#utility.yul\":20452:20519   */\n      tag_223\n      jump\t// in\n    tag_476:\n        /* \"#utility.yul\":20445:20519   */\n      swap2\n      pop\n        /* \"#utility.yul\":20528:20621   */\n      tag_477\n        /* \"#utility.yul\":20617:20620   */\n      dup3\n        /* \"#utility.yul\":20528:20621   */\n      tag_248\n      jump\t// in\n    tag_477:\n        /* \"#utility.yul\":20646:20648   */\n      0x20\n        /* \"#utility.yul\":20641:20644   */\n      dup3\n        /* \"#utility.yul\":20637:20649   */\n      add\n        /* \"#utility.yul\":20630:20649   */\n      swap1\n      pop\n        /* \"#utility.yul\":20289:20655   */\n      swap2\n      swap1\n      pop\n      jump\t// out\n        /* \"#utility.yul\":20661:21080   */\n    tag_152:\n        /* \"#utility.yul\":20827:20831   */\n      0x00\n        /* \"#utility.yul\":20865:20867   */\n      0x20\n        /* \"#utility.yul\":20854:20863   */\n      dup3\n        /* \"#utility.yul\":20850:20868   */\n      add\n        /* \"#utility.yul\":20842:20868   */\n      swap1\n      pop\n        /* \"#utility.yul\":20914:20923   */\n      dup2\n        /* \"#utility.yul\":20908:20912   */\n      dup2\n        /* \"#utility.yul\":20904:20924   */\n      sub\n        /* \"#utility.yul\":20900:20901   */\n      0x00\n        /* \"#utility.yul\":20889:20898   */\n      dup4\n        /* \"#utility.yul\":20885:20902   */\n      add\n        /* \"#utility.yul\":20878:20925   */\n      mstore\n        /* \"#utility.yul\":20942:21073   */\n      tag_479\n        /* \"#utility.yul\":21068:21072   */\n      dup2\n        /* \"#utility.yul\":20942:21073   */\n      tag_249\n      jump\t// in\n    tag_479:\n        /* \"#utility.yul\":20934:21073   */\n      swap1\n      pop\n        /* \"#utility.yul\":20661:21080   */\n      swap2\n      swap1\n      pop\n      jump\t// out\n        /* \"#utility.yul\":21086:21254   */\n    tag_250:\n        /* \"#utility.yul\":21226:21246   */\n      0x50617373656420707269636520636865636b0000000000000000000000000000\n        /* \"#utility.yul\":21222:21223   */\n      0x00\n        /* \"#utility.yul\":21214:21220   */\n      dup3\n        /* \"#utility.yul\":21210:21224   */\n      add\n        /* \"#utility.yul\":21203:21247   */\n      mstore\n        /* \"#utility.yul\":21086:21254   */\n      pop\n      jump\t// out\n        /* \"#utility.yul\":21260:21626   */\n    tag_251:\n        /* \"#utility.yul\":21402:21405   */\n      0x00\n        /* \"#utility.yul\":21423:21490   */\n      tag_482\n        /* \"#utility.yul\":21487:21489   */\n      0x12\n        /* \"#utility.yul\":21482:21485   */\n      dup4\n        /* \"#utility.yul\":21423:21490   */\n      tag_223\n      jump\t// in\n    tag_482:\n        /* \"#utility.yul\":21416:21490   */\n      swap2\n      pop\n        /* \"#utility.yul\":21499:21592   */\n      tag_483\n        /* \"#utility.yul\":21588:21591   */\n      dup3\n        /* \"#utility.yul\":21499:21592   */\n      tag_250\n      jump\t// in\n    tag_483:\n        /* \"#utility.yul\":21617:21619   */\n      0x20\n        /* \"#utility.yul\":21612:21615   */\n      dup3\n        /* \"#utility.yul\":21608:21620   */\n      add\n        /* \"#utility.yul\":21601:21620   */\n      swap1\n      pop\n        /* \"#utility.yul\":21260:21626   */\n      swap2\n      swap1\n      pop\n      jump\t// out\n        /* \"#utility.yul\":21632:22051   */\n    tag_154:\n        /* \"#utility.yul\":21798:21802   */\n      0x00\n        /* \"#utility.yul\":21836:21838   */\n      0x20\n        /* \"#utility.yul\":21825:21834   */\n      dup3\n        /* \"#utility.yul\":21821:21839   */\n      add\n        /* \"#utility.yul\":21813:21839   */\n      swap1\n      pop\n        /* \"#utility.yul\":21885:21894   */\n      dup2\n        /* \"#utility.yul\":21879:21883   */\n      dup2\n        /* \"#utility.yul\":21875:21895   */\n      sub\n        /* \"#utility.yul\":21871:21872   */\n      0x00\n        /* \"#utility.yul\":21860:21869   */\n      dup4\n        /* \"#utility.yul\":21856:21873   */\n      add\n        /* \"#utility.yul\":21849:21896   */\n      mstore\n        /* \"#utility.yul\":21913:22044   */\n      tag_485\n        /* \"#utility.yul\":22039:22043   */\n      dup2\n        /* \"#utility.yul\":21913:22044   */\n      tag_251\n      jump\t// in\n    tag_485:\n        /* \"#utility.yul\":21905:22044   */\n      swap1\n      pop\n        /* \"#utility.yul\":21632:22051   */\n      swap2\n      swap1\n      pop\n      jump\t// out\n        /* \"#utility.yul\":22057:22279   */\n    tag_156:\n        /* \"#utility.yul\":22150:22154   */\n      0x00\n        /* \"#utility.yul\":22188:22190   */\n      0x20\n        /* \"#utility.yul\":22177:22186   */\n      dup3\n        /* \"#utility.yul\":22173:22191   */\n      add\n        /* \"#utility.yul\":22165:22191   */\n      swap1\n      pop\n        /* \"#utility.yul\":22201:22272   */\n      tag_487\n        /* \"#utility.yul\":22269:22270   */\n      0x00\n        /* \"#utility.yul\":22258:22267   */\n      dup4\n        /* \"#utility.yul\":22254:22271   */\n      add\n        /* \"#utility.yul\":22245:22251   */\n      dup5\n        /* \"#utility.yul\":22201:22272   */\n      tag_233\n      jump\t// in\n    tag_487:\n        /* \"#utility.yul\":22057:22279   */\n      swap3\n      swap2\n      pop\n      pop\n      jump\t// out\n        /* \"#utility.yul\":22285:22428   */\n    tag_252:\n        /* \"#utility.yul\":22342:22347   */\n      0x00\n        /* \"#utility.yul\":22373:22379   */\n      dup2\n        /* \"#utility.yul\":22367:22380   */\n      mload\n        /* \"#utility.yul\":22358:22380   */\n      swap1\n      pop\n        /* \"#utility.yul\":22389:22422   */\n      tag_489\n        /* \"#utility.yul\":22416:22421   */\n      dup2\n        /* \"#utility.yul\":22389:22422   */\n      tag_202\n      jump\t// in\n    tag_489:\n        /* \"#utility.yul\":22285:22428   */\n      swap3\n      swap2\n      pop\n      pop\n      jump\t// out\n        /* \"#utility.yul\":22434:22785   */\n    tag_160:\n        /* \"#utility.yul\":22504:22510   */\n      0x00\n        /* \"#utility.yul\":22553:22555   */\n      0x20\n        /* \"#utility.yul\":22541:22550   */\n      dup3\n        /* \"#utility.yul\":22532:22539   */\n      dup5\n        /* \"#utility.yul\":22528:22551   */\n      sub\n        /* \"#utility.yul\":22524:22556   */\n      slt\n        /* \"#utility.yul\":22521:22640   */\n      iszero\n      tag_491\n      jumpi\n        /* \"#utility.yul\":22559:22638   */\n      tag_492\n      tag_195\n      jump\t// in\n    tag_492:\n        /* \"#utility.yul\":22521:22640   */\n    tag_491:\n        /* \"#utility.yul\":22679:22680   */\n      0x00\n        /* \"#utility.yul\":22704:22768   */\n      tag_493\n        /* \"#utility.yul\":22760:22767   */\n      dup5\n        /* \"#utility.yul\":22751:22757   */\n      dup3\n        /* \"#utility.yul\":22740:22749   */\n      dup6\n        /* \"#utility.yul\":22736:22758   */\n      add\n        /* \"#utility.yul\":22704:22768   */\n      tag_252\n      jump\t// in\n    tag_493:\n        /* \"#utility.yul\":22694:22768   */\n      swap2\n      pop\n        /* \"#utility.yul\":22650:22778   */\n      pop\n        /* \"#utility.yul\":22434:22785   */\n      swap3\n      swap2\n      pop\n      pop\n      jump\t// out\n        /* \"#utility.yul\":22791:22956   */\n    tag_253:\n        /* \"#utility.yul\":22931:22948   */\n      0x4f776e6572207265747269657665640000000000000000000000000000000000\n        /* \"#utility.yul\":22927:22928   */\n      0x00\n        /* \"#utility.yul\":22919:22925   */\n      dup3\n        /* \"#utility.yul\":22915:22929   */\n      add\n        /* \"#utility.yul\":22908:22949   */\n      mstore\n        /* \"#utility.yul\":22791:22956   */\n      pop\n      jump\t// out\n        /* \"#utility.yul\":22962:23328   */\n    tag_254:\n        /* \"#utility.yul\":23104:23107   */\n      0x00\n        /* \"#utility.yul\":23125:23192   */\n      tag_496\n        /* \"#utility.yul\":23189:23191   */\n      0x0f\n        /* \"#utility.yul\":23184:23187   */\n      dup4\n        /* \"#utility.yul\":23125:23192   */\n      tag_223\n      jump\t// in\n    tag_496:\n        /* \"#utility.yul\":23118:23192   */\n      swap2\n      pop\n        /* \"#utility.yul\":23201:23294   */\n      tag_497\n        /* \"#utility.yul\":23290:23293   */\n      dup3\n        /* \"#utility.yul\":23201:23294   */\n      tag_253\n      jump\t// in\n    tag_497:\n        /* \"#utility.yul\":23319:23321   */\n      0x20\n        /* \"#utility.yul\":23314:23317   */\n      dup3\n        /* \"#utility.yul\":23310:23322   */\n      add\n        /* \"#utility.yul\":23303:23322   */\n      swap1\n      pop\n        /* \"#utility.yul\":22962:23328   */\n      swap2\n      swap1\n      pop\n      jump\t// out\n        /* \"#utility.yul\":23334:23753   */\n    tag_162:\n        /* \"#utility.yul\":23500:23504   */\n      0x00\n        /* \"#utility.yul\":23538:23540   */\n      0x20\n        /* \"#utility.yul\":23527:23536   */\n      dup3\n        /* \"#utility.yul\":23523:23541   */\n      add\n        /* \"#utility.yul\":23515:23541   */\n      swap1\n      pop\n        /* \"#utility.yul\":23587:23596   */\n      dup2\n        /* \"#utility.yul\":23581:23585   */\n      dup2\n        /* \"#utility.yul\":23577:23597   */\n      sub\n        /* \"#utility.yul\":23573:23574   */\n      0x00\n        /* \"#utility.yul\":23562:23571   */\n      dup4\n        /* \"#utility.yul\":23558:23575   */\n      add\n        /* \"#utility.yul\":23551:23598   */\n      mstore\n        /* \"#utility.yul\":23615:23746   */\n      tag_499\n        /* \"#utility.yul\":23741:23745   */\n      dup2\n        /* \"#utility.yul\":23615:23746   */\n      tag_254\n      jump\t// in\n    tag_499:\n        /* \"#utility.yul\":23607:23746   */\n      swap1\n      pop\n        /* \"#utility.yul\":23334:23753   */\n      swap2\n      swap1\n      pop\n      jump\t// out\n        /* \"#utility.yul\":23759:23981   */\n    tag_255:\n        /* \"#utility.yul\":23899:23933   */\n      0x596f7520617265206e6f7420746865206f776e6572206f66207468697320746f\n        /* \"#utility.yul\":23895:23896   */\n      0x00\n        /* \"#utility.yul\":23887:23893   */\n      dup3\n        /* \"#utility.yul\":23883:23897   */\n      add\n        /* \"#utility.yul\":23876:23934   */\n      mstore\n        /* \"#utility.yul\":23968:23973   */\n      0x6b656e0000000000000000000000000000000000000000000000000000000000\n        /* \"#utility.yul\":23963:23965   */\n      0x20\n        /* \"#utility.yul\":23955:23961   */\n      dup3\n        /* \"#utility.yul\":23951:23966   */\n      add\n        /* \"#utility.yul\":23944:23974   */\n      mstore\n        /* \"#utility.yul\":23759:23981   */\n      pop\n      jump\t// out\n        /* \"#utility.yul\":23987:24353   */\n    tag_256:\n        /* \"#utility.yul\":24129:24132   */\n      0x00\n        /* \"#utility.yul\":24150:24217   */\n      tag_502\n        /* \"#utility.yul\":24214:24216   */\n      0x23\n        /* \"#utility.yul\":24209:24212   */\n      dup4\n        /* \"#utility.yul\":24150:24217   */\n      tag_223\n      jump\t// in\n    tag_502:\n        /* \"#utility.yul\":24143:24217   */\n      swap2\n      pop\n        /* \"#utility.yul\":24226:24319   */\n      tag_503\n        /* \"#utility.yul\":24315:24318   */\n      dup3\n        /* \"#utility.yul\":24226:24319   */\n      tag_255\n      jump\t// in\n    tag_503:\n        /* \"#utility.yul\":24344:24346   */\n      0x40\n        /* \"#utility.yul\":24339:24342   */\n      dup3\n        /* \"#utility.yul\":24335:24347   */\n      add\n        /* \"#utility.yul\":24328:24347   */\n      swap1\n      pop\n        /* \"#utility.yul\":23987:24353   */\n      swap2\n      swap1\n      pop\n      jump\t// out\n        /* \"#utility.yul\":24359:24778   */\n    tag_165:\n        /* \"#utility.yul\":24525:24529   */\n      0x00\n        /* \"#utility.yul\":24563:24565   */\n      0x20\n        /* \"#utility.yul\":24552:24561   */\n      dup3\n        /* \"#utility.yul\":24548:24566   */\n      add\n        /* \"#utility.yul\":24540:24566   */\n      swap1\n      pop\n        /* \"#utility.yul\":24612:24621   */\n      dup2\n        /* \"#utility.yul\":24606:24610   */\n      dup2\n        /* \"#utility.yul\":24602:24622   */\n      sub\n        /* \"#utility.yul\":24598:24599   */\n      0x00\n        /* \"#utility.yul\":24587:24596   */\n      dup4\n        /* \"#utility.yul\":24583:24600   */\n      add\n        /* \"#utility.yul\":24576:24623   */\n      mstore\n        /* \"#utility.yul\":24640:24771   */\n      tag_505\n        /* \"#utility.yul\":24766:24770   */\n      dup2\n        /* \"#utility.yul\":24640:24771   */\n      tag_256\n      jump\t// in\n    tag_505:\n        /* \"#utility.yul\":24632:24771   */\n      swap1\n      pop\n        /* \"#utility.yul\":24359:24778   */\n      swap2\n      swap1\n      pop\n      jump\t// out\n        /* \"#utility.yul\":24784:24952   */\n    tag_257:\n        /* \"#utility.yul\":24924:24944   */\n      0x4f776e6572736869702076657269666965640000000000000000000000000000\n        /* \"#utility.yul\":24920:24921   */\n      0x00\n        /* \"#utility.yul\":24912:24918   */\n      dup3\n        /* \"#utility.yul\":24908:24922   */\n      add\n        /* \"#utility.yul\":24901:24945   */\n      mstore\n        /* \"#utility.yul\":24784:24952   */\n      pop\n      jump\t// out\n        /* \"#utility.yul\":24958:25324   */\n    tag_258:\n        /* \"#utility.yul\":25100:25103   */\n      0x00\n        /* \"#utility.yul\":25121:25188   */\n      tag_508\n        /* \"#utility.yul\":25185:25187   */\n      0x12\n        /* \"#utility.yul\":25180:25183   */\n      dup4\n        /* \"#utility.yul\":25121:25188   */\n      tag_223\n      jump\t// in\n    tag_508:\n        /* \"#utility.yul\":25114:25188   */\n      swap2\n      pop\n        /* \"#utility.yul\":25197:25290   */\n      tag_509\n        /* \"#utility.yul\":25286:25289   */\n      dup3\n        /* \"#utility.yul\":25197:25290   */\n      tag_257\n      jump\t// in\n    tag_509:\n        /* \"#utility.yul\":25315:25317   */\n      0x20\n        /* \"#utility.yul\":25310:25313   */\n      dup3\n        /* \"#utility.yul\":25306:25318   */\n      add\n        /* \"#utility.yul\":25299:25318   */\n      swap1\n      pop\n        /* \"#utility.yul\":24958:25324   */\n      swap2\n      swap1\n      pop\n      jump\t// out\n        /* \"#utility.yul\":25330:25749   */\n    tag_167:\n        /* \"#utility.yul\":25496:25500   */\n      0x00\n        /* \"#utility.yul\":25534:25536   */\n      0x20\n        /* \"#utility.yul\":25523:25532   */\n      dup3\n        /* \"#utility.yul\":25519:25537   */\n      add\n        /* \"#utility.yul\":25511:25537   */\n      swap1\n      pop\n        /* \"#utility.yul\":25583:25592   */\n      dup2\n        /* \"#utility.yul\":25577:25581   */\n      dup2\n        /* \"#utility.yul\":25573:25593   */\n      sub\n        /* \"#utility.yul\":25569:25570   */\n      0x00\n        /* \"#utility.yul\":25558:25567   */\n      dup4\n        /* \"#utility.yul\":25554:25571   */\n      add\n        /* \"#utility.yul\":25547:25594   */\n      mstore\n        /* \"#utility.yul\":25611:25742   */\n      tag_511\n        /* \"#utility.yul\":25737:25741   */\n      dup2\n        /* \"#utility.yul\":25611:25742   */\n      tag_258\n      jump\t// in\n    tag_511:\n        /* \"#utility.yul\":25603:25742   */\n      swap1\n      pop\n        /* \"#utility.yul\":25330:25749   */\n      swap2\n      swap1\n      pop\n      jump\t// out\n        /* \"#utility.yul\":25755:26087   */\n    tag_174:\n        /* \"#utility.yul\":25876:25880   */\n      0x00\n        /* \"#utility.yul\":25914:25916   */\n      0x40\n        /* \"#utility.yul\":25903:25912   */\n      dup3\n        /* \"#utility.yul\":25899:25917   */\n      add\n        /* \"#utility.yul\":25891:25917   */\n      swap1\n      pop\n        /* \"#utility.yul\":25927:25998   */\n      tag_513\n        /* \"#utility.yul\":25995:25996   */\n      0x00\n        /* \"#utility.yul\":25984:25993   */\n      dup4\n        /* \"#utility.yul\":25980:25997   */\n      add\n        /* \"#utility.yul\":25971:25977   */\n      dup6\n        /* \"#utility.yul\":25927:25998   */\n      tag_221\n      jump\t// in\n    tag_513:\n        /* \"#utility.yul\":26008:26080   */\n      tag_514\n        /* \"#utility.yul\":26076:26078   */\n      0x20\n        /* \"#utility.yul\":26065:26074   */\n      dup4\n        /* \"#utility.yul\":26061:26079   */\n      add\n        /* \"#utility.yul\":26052:26058   */\n      dup5\n        /* \"#utility.yul\":26008:26080   */\n      tag_221\n      jump\t// in\n    tag_514:\n        /* \"#utility.yul\":25755:26087   */\n      swap4\n      swap3\n      pop\n      pop\n      pop\n      jump\t// out\n        /* \"#utility.yul\":26093:26183   */\n    tag_259:\n        /* \"#utility.yul\":26127:26134   */\n      0x00\n        /* \"#utility.yul\":26170:26175   */\n      dup2\n        /* \"#utility.yul\":26163:26176   */\n      iszero\n        /* \"#utility.yul\":26156:26177   */\n      iszero\n        /* \"#utility.yul\":26145:26177   */\n      swap1\n      pop\n        /* \"#utility.yul\":26093:26183   */\n      swap2\n      swap1\n      pop\n      jump\t// out\n        /* \"#utility.yul\":26189:26305   */\n    tag_260:\n        /* \"#utility.yul\":26259:26280   */\n      tag_517\n        /* \"#utility.yul\":26274:26279   */\n      dup2\n        /* \"#utility.yul\":26259:26280   */\n      tag_259\n      jump\t// in\n    tag_517:\n        /* \"#utility.yul\":26252:26257   */\n      dup2\n        /* \"#utility.yul\":26249:26281   */\n      eq\n        /* \"#utility.yul\":26239:26299   */\n      tag_518\n      jumpi\n        /* \"#utility.yul\":26295:26296   */\n      0x00\n        /* \"#utility.yul\":26292:26293   */\n      dup1\n        /* \"#utility.yul\":26285:26297   */\n      revert\n        /* \"#utility.yul\":26239:26299   */\n    tag_518:\n        /* \"#utility.yul\":26189:26305   */\n      pop\n      jump\t// out\n        /* \"#utility.yul\":26311:26448   */\n    tag_261:\n        /* \"#utility.yul\":26365:26370   */\n      0x00\n        /* \"#utility.yul\":26396:26402   */\n      dup2\n        /* \"#utility.yul\":26390:26403   */\n      mload\n        /* \"#utility.yul\":26381:26403   */\n      swap1\n      pop\n        /* \"#utility.yul\":26412:26442   */\n      tag_520\n        /* \"#utility.yul\":26436:26441   */\n      dup2\n        /* \"#utility.yul\":26412:26442   */\n      tag_260\n      jump\t// in\n    tag_520:\n        /* \"#utility.yul\":26311:26448   */\n      swap3\n      swap2\n      pop\n      pop\n      jump\t// out\n        /* \"#utility.yul\":26454:26799   */\n    tag_178:\n        /* \"#utility.yul\":26521:26527   */\n      0x00\n        /* \"#utility.yul\":26570:26572   */\n      0x20\n        /* \"#utility.yul\":26558:26567   */\n      dup3\n        /* \"#utility.yul\":26549:26556   */\n      dup5\n        /* \"#utility.yul\":26545:26568   */\n      sub\n        /* \"#utility.yul\":26541:26573   */\n      slt\n        /* \"#utility.yul\":26538:26657   */\n      iszero\n      tag_522\n      jumpi\n        /* \"#utility.yul\":26576:26655   */\n      tag_523\n      tag_195\n      jump\t// in\n    tag_523:\n        /* \"#utility.yul\":26538:26657   */\n    tag_522:\n        /* \"#utility.yul\":26696:26697   */\n      0x00\n        /* \"#utility.yul\":26721:26782   */\n      tag_524\n        /* \"#utility.yul\":26774:26781   */\n      dup5\n        /* \"#utility.yul\":26765:26771   */\n      dup3\n        /* \"#utility.yul\":26754:26763   */\n      dup6\n        /* \"#utility.yul\":26750:26772   */\n      add\n        /* \"#utility.yul\":26721:26782   */\n      tag_261\n      jump\t// in\n    tag_524:\n        /* \"#utility.yul\":26711:26782   */\n      swap2\n      pop\n        /* \"#utility.yul\":26667:26792   */\n      pop\n        /* \"#utility.yul\":26454:26799   */\n      swap3\n      swap2\n      pop\n      pop\n      jump\t// out\n        /* \"#utility.yul\":26805:27042   */\n    tag_262:\n        /* \"#utility.yul\":26945:26979   */\n      0x4d61726b6574706c616365206973206e6f7420617070726f76656420746f2074\n        /* \"#utility.yul\":26941:26942   */\n      0x00\n        /* \"#utility.yul\":26933:26939   */\n      dup3\n        /* \"#utility.yul\":26929:26943   */\n      add\n        /* \"#utility.yul\":26922:26980   */\n      mstore\n        /* \"#utility.yul\":27014:27034   */\n      0x72616e73666572207468697320746f6b656e0000000000000000000000000000\n        /* \"#utility.yul\":27009:27011   */\n      0x20\n        /* \"#utility.yul\":27001:27007   */\n      dup3\n        /* \"#utility.yul\":26997:27012   */\n      add\n        /* \"#utility.yul\":26990:27035   */\n      mstore\n        /* \"#utility.yul\":26805:27042   */\n      pop\n      jump\t// out\n        /* \"#utility.yul\":27048:27414   */\n    tag_263:\n        /* \"#utility.yul\":27190:27193   */\n      0x00\n        /* \"#utility.yul\":27211:27278   */\n      tag_527\n        /* \"#utility.yul\":27275:27277   */\n      0x32\n        /* \"#utility.yul\":27270:27273   */\n      dup4\n        /* \"#utility.yul\":27211:27278   */\n      tag_223\n      jump\t// in\n    tag_527:\n        /* \"#utility.yul\":27204:27278   */\n      swap2\n      pop\n        /* \"#utility.yul\":27287:27380   */\n      tag_528\n        /* \"#utility.yul\":27376:27379   */\n      dup3\n        /* \"#utility.yul\":27287:27380   */\n      tag_262\n      jump\t// in\n    tag_528:\n        /* \"#utility.yul\":27405:27407   */\n      0x40\n        /* \"#utility.yul\":27400:27403   */\n      dup3\n        /* \"#utility.yul\":27396:27408   */\n      add\n        /* \"#utility.yul\":27389:27408   */\n      swap1\n      pop\n        /* \"#utility.yul\":27048:27414   */\n      swap2\n      swap1\n      pop\n      jump\t// out\n        /* \"#utility.yul\":27420:27839   */\n    tag_181:\n        /* \"#utility.yul\":27586:27590   */\n      0x00\n        /* \"#utility.yul\":27624:27626   */\n      0x20\n        /* \"#utility.yul\":27613:27622   */\n      dup3\n        /* \"#utility.yul\":27609:27627   */\n      add\n        /* \"#utility.yul\":27601:27627   */\n      swap1\n      pop\n        /* \"#utility.yul\":27673:27682   */\n      dup2\n        /* \"#utility.yul\":27667:27671   */\n      dup2\n        /* \"#utility.yul\":27663:27683   */\n      sub\n        /* \"#utility.yul\":27659:27660   */\n      0x00\n        /* \"#utility.yul\":27648:27657   */\n      dup4\n        /* \"#utility.yul\":27644:27661   */\n      add\n        /* \"#utility.yul\":27637:27684   */\n      mstore\n        /* \"#utility.yul\":27701:27832   */\n      tag_530\n        /* \"#utility.yul\":27827:27831   */\n      dup2\n        /* \"#utility.yul\":27701:27832   */\n      tag_263\n      jump\t// in\n    tag_530:\n        /* \"#utility.yul\":27693:27832   */\n      swap1\n      pop\n        /* \"#utility.yul\":27420:27839   */\n      swap2\n      swap1\n      pop\n      jump\t// out\n        /* \"#utility.yul\":27845:28012   */\n    tag_264:\n        /* \"#utility.yul\":27985:28004   */\n      0x417070726f76616c207665726966696564000000000000000000000000000000\n        /* \"#utility.yul\":27981:27982   */\n      0x00\n        /* \"#utility.yul\":27973:27979   */\n      dup3\n        /* \"#utility.yul\":27969:27983   */\n      add\n        /* \"#utility.yul\":27962:28005   */\n      mstore\n        /* \"#utility.yul\":27845:28012   */\n      pop\n      jump\t// out\n        /* \"#utility.yul\":28018:28384   */\n    tag_265:\n        /* \"#utility.yul\":28160:28163   */\n      0x00\n        /* \"#utility.yul\":28181:28248   */\n      tag_533\n        /* \"#utility.yul\":28245:28247   */\n      0x11\n        /* \"#utility.yul\":28240:28243   */\n      dup4\n        /* \"#utility.yul\":28181:28248   */\n      tag_223\n      jump\t// in\n    tag_533:\n        /* \"#utility.yul\":28174:28248   */\n      swap2\n      pop\n        /* \"#utility.yul\":28257:28350   */\n      tag_534\n        /* \"#utility.yul\":28346:28349   */\n      dup3\n        /* \"#utility.yul\":28257:28350   */\n      tag_264\n      jump\t// in\n    tag_534:\n        /* \"#utility.yul\":28375:28377   */\n      0x20\n        /* \"#utility.yul\":28370:28373   */\n      dup3\n        /* \"#utility.yul\":28366:28378   */\n      add\n        /* \"#utility.yul\":28359:28378   */\n      swap1\n      pop\n        /* \"#utility.yul\":28018:28384   */\n      swap2\n      swap1\n      pop\n      jump\t// out\n        /* \"#utility.yul\":28390:28809   */\n    tag_183:\n        /* \"#utility.yul\":28556:28560   */\n      0x00\n        /* \"#utility.yul\":28594:28596   */\n      0x20\n        /* \"#utility.yul\":28583:28592   */\n      dup3\n        /* \"#utility.yul\":28579:28597   */\n      add\n        /* \"#utility.yul\":28571:28597   */\n      swap1\n      pop\n        /* \"#utility.yul\":28643:28652   */\n      dup2\n        /* \"#utility.yul\":28637:28641   */\n      dup2\n        /* \"#utility.yul\":28633:28653   */\n      sub\n        /* \"#utility.yul\":28629:28630   */\n      0x00\n        /* \"#utility.yul\":28618:28627   */\n      dup4\n        /* \"#utility.yul\":28614:28631   */\n      add\n        /* \"#utility.yul\":28607:28654   */\n      mstore\n        /* \"#utility.yul\":28671:28802   */\n      tag_536\n        /* \"#utility.yul\":28797:28801   */\n      dup2\n        /* \"#utility.yul\":28671:28802   */\n      tag_265\n      jump\t// in\n    tag_536:\n        /* \"#utility.yul\":28663:28802   */\n      swap1\n      pop\n        /* \"#utility.yul\":28390:28809   */\n      swap2\n      swap1\n      pop\n      jump\t// out\n        /* \"#utility.yul\":28815:28988   */\n    tag_266:\n        /* \"#utility.yul\":28955:28980   */\n      0x546f6b656e20697320616c7265616479206c6973746564000000000000000000\n        /* \"#utility.yul\":28951:28952   */\n      0x00\n        /* \"#utility.yul\":28943:28949   */\n      dup3\n        /* \"#utility.yul\":28939:28953   */\n      add\n        /* \"#utility.yul\":28932:28981   */\n      mstore\n        /* \"#utility.yul\":28815:28988   */\n      pop\n      jump\t// out\n        /* \"#utility.yul\":28994:29360   */\n    tag_267:\n        /* \"#utility.yul\":29136:29139   */\n      0x00\n        /* \"#utility.yul\":29157:29224   */\n      tag_539\n        /* \"#utility.yul\":29221:29223   */\n      0x17\n        /* \"#utility.yul\":29216:29219   */\n      dup4\n        /* \"#utility.yul\":29157:29224   */\n      tag_223\n      jump\t// in\n    tag_539:\n        /* \"#utility.yul\":29150:29224   */\n      swap2\n      pop\n        /* \"#utility.yul\":29233:29326   */\n      tag_540\n        /* \"#utility.yul\":29322:29325   */\n      dup3\n        /* \"#utility.yul\":29233:29326   */\n      tag_266\n      jump\t// in\n    tag_540:\n        /* \"#utility.yul\":29351:29353   */\n      0x20\n        /* \"#utility.yul\":29346:29349   */\n      dup3\n        /* \"#utility.yul\":29342:29354   */\n      add\n        /* \"#utility.yul\":29335:29354   */\n      swap1\n      pop\n        /* \"#utility.yul\":28994:29360   */\n      swap2\n      swap1\n      pop\n      jump\t// out\n        /* \"#utility.yul\":29366:29785   */\n    tag_186:\n        /* \"#utility.yul\":29532:29536   */\n      0x00\n        /* \"#utility.yul\":29570:29572   */\n      0x20\n        /* \"#utility.yul\":29559:29568   */\n      dup3\n        /* \"#utility.yul\":29555:29573   */\n      add\n        /* \"#utility.yul\":29547:29573   */\n      swap1\n      pop\n        /* \"#utility.yul\":29619:29628   */\n      dup2\n        /* \"#utility.yul\":29613:29617   */\n      dup2\n        /* \"#utility.yul\":29609:29629   */\n      sub\n        /* \"#utility.yul\":29605:29606   */\n      0x00\n        /* \"#utility.yul\":29594:29603   */\n      dup4\n        /* \"#utility.yul\":29590:29607   */\n      add\n        /* \"#utility.yul\":29583:29630   */\n      mstore\n        /* \"#utility.yul\":29647:29778   */\n      tag_542\n        /* \"#utility.yul\":29773:29777   */\n      dup2\n        /* \"#utility.yul\":29647:29778   */\n      tag_267\n      jump\t// in\n    tag_542:\n        /* \"#utility.yul\":29639:29778   */\n      swap1\n      pop\n        /* \"#utility.yul\":29366:29785   */\n      swap2\n      swap1\n      pop\n      jump\t// out\n        /* \"#utility.yul\":29791:29887   */\n    tag_268:\n        /* \"#utility.yul\":29825:29833   */\n      0x00\n        /* \"#utility.yul\":29874:29879   */\n      dup2\n        /* \"#utility.yul\":29869:29872   */\n      0x80\n        /* \"#utility.yul\":29865:29880   */\n      shl\n        /* \"#utility.yul\":29844:29880   */\n      swap1\n      pop\n        /* \"#utility.yul\":29791:29887   */\n      swap2\n      swap1\n      pop\n      jump\t// out\n        /* \"#utility.yul\":29893:29988   */\n    tag_269:\n        /* \"#utility.yul\":29932:29939   */\n      0x00\n        /* \"#utility.yul\":29961:29982   */\n      tag_545\n        /* \"#utility.yul\":29976:29981   */\n      dup3\n        /* \"#utility.yul\":29961:29982   */\n      tag_268\n      jump\t// in\n    tag_545:\n        /* \"#utility.yul\":29950:29982   */\n      swap1\n      pop\n        /* \"#utility.yul\":29893:29988   */\n      swap2\n      swap1\n      pop\n      jump\t// out\n        /* \"#utility.yul\":29994:30151   */\n    tag_270:\n        /* \"#utility.yul\":30099:30144   */\n      tag_547\n        /* \"#utility.yul\":30119:30143   */\n      tag_548\n        /* \"#utility.yul\":30137:30142   */\n      dup3\n        /* \"#utility.yul\":30119:30143   */\n      tag_212\n      jump\t// in\n    tag_548:\n        /* \"#utility.yul\":30099:30144   */\n      tag_269\n      jump\t// in\n    tag_547:\n        /* \"#utility.yul\":30094:30097   */\n      dup3\n        /* \"#utility.yul\":30087:30145   */\n      mstore\n        /* \"#utility.yul\":29994:30151   */\n      pop\n      pop\n      jump\t// out\n        /* \"#utility.yul\":30157:30251   */\n    tag_271:\n        /* \"#utility.yul\":30190:30198   */\n      0x00\n        /* \"#utility.yul\":30238:30243   */\n      dup2\n        /* \"#utility.yul\":30234:30236   */\n      0x60\n        /* \"#utility.yul\":30230:30244   */\n      shl\n        /* \"#utility.yul\":30209:30244   */\n      swap1\n      pop\n        /* \"#utility.yul\":30157:30251   */\n      swap2\n      swap1\n      pop\n      jump\t// out\n        /* \"#utility.yul\":30257:30351   */\n    tag_272:\n        /* \"#utility.yul\":30296:30303   */\n      0x00\n        /* \"#utility.yul\":30325:30345   */\n      tag_551\n        /* \"#utility.yul\":30339:30344   */\n      dup3\n        /* \"#utility.yul\":30325:30345   */\n      tag_271\n      jump\t// in\n    tag_551:\n        /* \"#utility.yul\":30314:30345   */\n      swap1\n      pop\n        /* \"#utility.yul\":30257:30351   */\n      swap2\n      swap1\n      pop\n      jump\t// out\n        /* \"#utility.yul\":30357:30457   */\n    tag_273:\n        /* \"#utility.yul\":30396:30403   */\n      0x00\n        /* \"#utility.yul\":30425:30451   */\n      tag_553\n        /* \"#utility.yul\":30445:30450   */\n      dup3\n        /* \"#utility.yul\":30425:30451   */\n      tag_272\n      jump\t// in\n    tag_553:\n        /* \"#utility.yul\":30414:30451   */\n      swap1\n      pop\n        /* \"#utility.yul\":30357:30457   */\n      swap2\n      swap1\n      pop\n      jump\t// out\n        /* \"#utility.yul\":30463:30620   */\n    tag_274:\n        /* \"#utility.yul\":30568:30613   */\n      tag_555\n        /* \"#utility.yul\":30588:30612   */\n      tag_556\n        /* \"#utility.yul\":30606:30611   */\n      dup3\n        /* \"#utility.yul\":30588:30612   */\n      tag_201\n      jump\t// in\n    tag_556:\n        /* \"#utility.yul\":30568:30613   */\n      tag_273\n      jump\t// in\n    tag_555:\n        /* \"#utility.yul\":30563:30566   */\n      dup3\n        /* \"#utility.yul\":30556:30614   */\n      mstore\n        /* \"#utility.yul\":30463:30620   */\n      pop\n      pop\n      jump\t// out\n        /* \"#utility.yul\":30626:31023   */\n    tag_188:\n        /* \"#utility.yul\":30766:30769   */\n      0x00\n        /* \"#utility.yul\":30781:30856   */\n      tag_558\n        /* \"#utility.yul\":30852:30855   */\n      dup3\n        /* \"#utility.yul\":30843:30849   */\n      dup6\n        /* \"#utility.yul\":30781:30856   */\n      tag_270\n      jump\t// in\n    tag_558:\n        /* \"#utility.yul\":30881:30883   */\n      0x10\n        /* \"#utility.yul\":30876:30879   */\n      dup3\n        /* \"#utility.yul\":30872:30884   */\n      add\n        /* \"#utility.yul\":30865:30884   */\n      swap2\n      pop\n        /* \"#utility.yul\":30894:30969   */\n      tag_559\n        /* \"#utility.yul\":30965:30968   */\n      dup3\n        /* \"#utility.yul\":30956:30962   */\n      dup5\n        /* \"#utility.yul\":30894:30969   */\n      tag_274\n      jump\t// in\n    tag_559:\n        /* \"#utility.yul\":30994:30996   */\n      0x14\n        /* \"#utility.yul\":30989:30992   */\n      dup3\n        /* \"#utility.yul\":30985:30997   */\n      add\n        /* \"#utility.yul\":30978:30997   */\n      swap2\n      pop\n        /* \"#utility.yul\":31014:31017   */\n      dup2\n        /* \"#utility.yul\":31007:31017   */\n      swap1\n      pop\n        /* \"#utility.yul\":30626:31023   */\n      swap4\n      swap3\n      pop\n      pop\n      pop\n      jump\t// out\n        /* \"#utility.yul\":31029:31205   */\n    tag_275:\n        /* \"#utility.yul\":31169:31197   */\n      0x556e69717565206c697374696e67204944207665726966696564000000000000\n        /* \"#utility.yul\":31165:31166   */\n      0x00\n        /* \"#utility.yul\":31157:31163   */\n      dup3\n        /* \"#utility.yul\":31153:31167   */\n      add\n        /* \"#utility.yul\":31146:31198   */\n      mstore\n        /* \"#utility.yul\":31029:31205   */\n      pop\n      jump\t// out\n        /* \"#utility.yul\":31211:31577   */\n    tag_276:\n        /* \"#utility.yul\":31353:31356   */\n      0x00\n        /* \"#utility.yul\":31374:31441   */\n      tag_562\n        /* \"#utility.yul\":31438:31440   */\n      0x1a\n        /* \"#utility.yul\":31433:31436   */\n      dup4\n        /* \"#utility.yul\":31374:31441   */\n      tag_223\n      jump\t// in\n    tag_562:\n        /* \"#utility.yul\":31367:31441   */\n      swap2\n      pop\n        /* \"#utility.yul\":31450:31543   */\n      tag_563\n        /* \"#utility.yul\":31539:31542   */\n      dup3\n        /* \"#utility.yul\":31450:31543   */\n      tag_275\n      jump\t// in\n    tag_563:\n        /* \"#utility.yul\":31568:31570   */\n      0x20\n        /* \"#utility.yul\":31563:31566   */\n      dup3\n        /* \"#utility.yul\":31559:31571   */\n      add\n        /* \"#utility.yul\":31552:31571   */\n      swap1\n      pop\n        /* \"#utility.yul\":31211:31577   */\n      swap2\n      swap1\n      pop\n      jump\t// out\n        /* \"#utility.yul\":31583:32002   */\n    tag_190:\n        /* \"#utility.yul\":31749:31753   */\n      0x00\n        /* \"#utility.yul\":31787:31789   */\n      0x20\n        /* \"#utility.yul\":31776:31785   */\n      dup3\n        /* \"#utility.yul\":31772:31790   */\n      add\n        /* \"#utility.yul\":31764:31790   */\n      swap1\n      pop\n        /* \"#utility.yul\":31836:31845   */\n      dup2\n        /* \"#utility.yul\":31830:31834   */\n      dup2\n        /* \"#utility.yul\":31826:31846   */\n      sub\n        /* \"#utility.yul\":31822:31823   */\n      0x00\n        /* \"#utility.yul\":31811:31820   */\n      dup4\n        /* \"#utility.yul\":31807:31824   */\n      add\n        /* \"#utility.yul\":31800:31847   */\n      mstore\n        /* \"#utility.yul\":31864:31995   */\n      tag_565\n        /* \"#utility.yul\":31990:31994   */\n      dup2\n        /* \"#utility.yul\":31864:31995   */\n      tag_276\n      jump\t// in\n    tag_565:\n        /* \"#utility.yul\":31856:31995   */\n      swap1\n      pop\n        /* \"#utility.yul\":31583:32002   */\n      swap2\n      swap1\n      pop\n      jump\t// out\n        /* \"#utility.yul\":32008:32154   */\n    tag_277:\n        /* \"#utility.yul\":32105:32111   */\n      dup3\n        /* \"#utility.yul\":32100:32103   */\n      dup2\n        /* \"#utility.yul\":32095:32098   */\n      dup4\n        /* \"#utility.yul\":32082:32112   */\n      calldatacopy\n        /* \"#utility.yul\":32146:32147   */\n      0x00\n        /* \"#utility.yul\":32137:32143   */\n      dup4\n        /* \"#utility.yul\":32132:32135   */\n      dup4\n        /* \"#utility.yul\":32128:32144   */\n      add\n        /* \"#utility.yul\":32121:32148   */\n      mstore\n        /* \"#utility.yul\":32008:32154   */\n      pop\n      pop\n      pop\n      jump\t// out\n        /* \"#utility.yul\":32160:32262   */\n    tag_278:\n        /* \"#utility.yul\":32201:32207   */\n      0x00\n        /* \"#utility.yul\":32252:32254   */\n      0x1f\n        /* \"#utility.yul\":32248:32255   */\n      not\n        /* \"#utility.yul\":32243:32245   */\n      0x1f\n        /* \"#utility.yul\":32236:32241   */\n      dup4\n        /* \"#utility.yul\":32232:32246   */\n      add\n        /* \"#utility.yul\":32228:32256   */\n      and\n        /* \"#utility.yul\":32218:32256   */\n      swap1\n      pop\n        /* \"#utility.yul\":32160:32262   */\n      swap2\n      swap1\n      pop\n      jump\t// out\n        /* \"#utility.yul\":32292:32609   */\n    tag_279:\n        /* \"#utility.yul\":32390:32393   */\n      0x00\n        /* \"#utility.yul\":32411:32482   */\n      tag_569\n        /* \"#utility.yul\":32475:32481   */\n      dup4\n        /* \"#utility.yul\":32470:32473   */\n      dup6\n        /* \"#utility.yul\":32411:32482   */\n      tag_223\n      jump\t// in\n    tag_569:\n        /* \"#utility.yul\":32404:32482   */\n      swap4\n      pop\n        /* \"#utility.yul\":32492:32548   */\n      tag_570\n        /* \"#utility.yul\":32541:32547   */\n      dup4\n        /* \"#utility.yul\":32536:32539   */\n      dup6\n        /* \"#utility.yul\":32529:32534   */\n      dup5\n        /* \"#utility.yul\":32492:32548   */\n      tag_277\n      jump\t// in\n    tag_570:\n        /* \"#utility.yul\":32573:32602   */\n      tag_571\n        /* \"#utility.yul\":32595:32601   */\n      dup4\n        /* \"#utility.yul\":32573:32602   */\n      tag_278\n      jump\t// in\n    tag_571:\n        /* \"#utility.yul\":32568:32571   */\n      dup5\n        /* \"#utility.yul\":32564:32603   */\n      add\n        /* \"#utility.yul\":32557:32603   */\n      swap1\n      pop\n        /* \"#utility.yul\":32292:32609   */\n      swap4\n      swap3\n      pop\n      pop\n      pop\n      jump\t// out\n        /* \"#utility.yul\":32615:32948   */\n    tag_193:\n        /* \"#utility.yul\":32738:32742   */\n      0x00\n        /* \"#utility.yul\":32776:32778   */\n      0x20\n        /* \"#utility.yul\":32765:32774   */\n      dup3\n        /* \"#utility.yul\":32761:32779   */\n      add\n        /* \"#utility.yul\":32753:32779   */\n      swap1\n      pop\n        /* \"#utility.yul\":32825:32834   */\n      dup2\n        /* \"#utility.yul\":32819:32823   */\n      dup2\n        /* \"#utility.yul\":32815:32835   */\n      sub\n        /* \"#utility.yul\":32811:32812   */\n      0x00\n        /* \"#utility.yul\":32800:32809   */\n      dup4\n        /* \"#utility.yul\":32796:32813   */\n      add\n        /* \"#utility.yul\":32789:32836   */\n      mstore\n        /* \"#utility.yul\":32853:32941   */\n      tag_573\n        /* \"#utility.yul\":32936:32940   */\n      dup2\n        /* \"#utility.yul\":32927:32933   */\n      dup5\n        /* \"#utility.yul\":32919:32925   */\n      dup7\n        /* \"#utility.yul\":32853:32941   */\n      tag_279\n      jump\t// in\n    tag_573:\n        /* \"#utility.yul\":32845:32941   */\n      swap1\n      pop\n        /* \"#utility.yul\":32615:32948   */\n      swap4\n      swap3\n      pop\n      pop\n      pop\n      jump\t// out\n\n    auxdata: 0xa26469706673582212206ceacc0a599e04aeaf5c91703c90e63c121f74a3e3c24b366f3d2755f99882bf64736f6c63430008160033\n}\n",
				"bytecode": {
					"linkReferences": {},
					"object": "6080604052600160075534801562000015575f80fd5b50604051620027aa380380620027aa83398181016040528101906200003b9190620001ed565b603281111562000082576040517f08c379a0000000000000000000000000000000000000000000000000000000008152600401620000799062000290565b60405180910390fd5b335f806101000a81548173ffffffffffffffffffffffffffffffffffffffff021916908373ffffffffffffffffffffffffffffffffffffffff1602179055508160055f6101000a81548173ffffffffffffffffffffffffffffffffffffffff021916908373ffffffffffffffffffffffffffffffffffffffff1602179055508160065f6101000a81548173ffffffffffffffffffffffffffffffffffffffff021916908373ffffffffffffffffffffffffffffffffffffffff160217905550806001819055505050620002b0565b5f80fd5b5f73ffffffffffffffffffffffffffffffffffffffff82169050919050565b5f6200017f8262000154565b9050919050565b620001918162000173565b81146200019c575f80fd5b50565b5f81519050620001af8162000186565b92915050565b5f819050919050565b620001c981620001b5565b8114620001d4575f80fd5b50565b5f81519050620001e781620001be565b92915050565b5f806040838503121562000206576200020562000150565b5b5f62000215858286016200019f565b92505060206200022885828601620001d7565b9150509250929050565b5f82825260208201905092915050565b7f436f6d6d697373696f6e2063616e6e6f742065786365656420353025000000005f82015250565b5f62000278601c8362000232565b9150620002858262000242565b602082019050919050565b5f6020820190508181035f830152620002a9816200026a565b9050919050565b6124ec80620002be5f395ff3fe6080604052600436106100c5575f3560e01c806370a082311161007e578063a6b7751111610058578063a6b7751114610248578063d56d229d14610270578063de74e57b1461029a578063f3f43703146102d8576100cc565b806370a08231146101b857806377d3550b146101f45780638da5cb5b1461021e576100cc565b8063169d5a7d146100d057806324600fc3146100ec5780632f745c5914610102578063305a67a81461013e578063404a9ab81461016657806351e61b251461018e576100cc565b366100cc57005b5f80fd5b6100ea60048036038101906100e59190611585565b610314565b005b3480156100f7575f80fd5b5061010061079f565b005b34801561010d575f80fd5b506101286004803603810190610123919061160a565b6109b2565b6040516101359190611657565b60405180910390f35b348015610149575f80fd5b50610164600480360381019061015f9190611585565b610a56565b005b348015610171575f80fd5b5061018c60048036038101906101879190611585565b610c79565b005b348015610199575f80fd5b506101a2610d8b565b6040516101af91906116cb565b60405180910390f35b3480156101c3575f80fd5b506101de60048036038101906101d991906116e4565b610db0565b6040516101eb9190611657565b60405180910390f35b3480156101ff575f80fd5b50610208610dd0565b6040516102159190611657565b60405180910390f35b348015610229575f80fd5b50610232610dd6565b60405161023f919061172f565b60405180910390f35b348015610253575f80fd5b5061026e600480360381019061026991906117ee565b610df9565b005b34801561027b575f80fd5b50610284611494565b604051610291919061187f565b60405180910390f35b3480156102a5575f80fd5b506102c060048036038101906102bb9190611585565b6114b9565b6040516102cf939291906118b6565b60405180910390f35b3480156102e3575f80fd5b506102fe60048036038101906102f991906116e4565b611535565b60405161030b9190611657565b60405180910390f35b600160075414610359576040517f08c379a000000000000000000000000000000000000000000000000000000000815260040161035090611945565b60405180910390fd5b5f6007819055505f60025f8381526020019081526020015f2090505f8160010160109054906101000a90046fffffffffffffffffffffffffffffffff166fffffffffffffffffffffffffffffffff16116103e8576040517f08c379a00000000000000000000000000000000000000000000000000000000081526004016103df906119ad565b60405180910390fd5b8060010160109054906101000a90046fffffffffffffffffffffffffffffffff166fffffffffffffffffffffffffffffffff16341461045c576040517f08c379a000000000000000000000000000000000000000000000000000000000815260040161045390611a15565b60405180910390fd5b5f60646001543461046d9190611a60565b6104779190611ace565b90505f81346104869190611afe565b905060055f9054906101000a900473ffffffffffffffffffffffffffffffffffffffff1673ffffffffffffffffffffffffffffffffffffffff166342842e0e845f015f9054906101000a900473ffffffffffffffffffffffffffffffffffffffff1633866001015f9054906101000a90046fffffffffffffffffffffffffffffffff166040518463ffffffff1660e01b815260040161052793929190611b61565b5f604051808303815f87803b15801561053e575f80fd5b505af1158015610550573d5f803e3d5ffd5b505050508160045f805f9054906101000a900473ffffffffffffffffffffffffffffffffffffffff1673ffffffffffffffffffffffffffffffffffffffff1673ffffffffffffffffffffffffffffffffffffffff1681526020019081526020015f205f8282546105c09190611b96565b925050819055508060045f855f015f9054906101000a900473ffffffffffffffffffffffffffffffffffffffff1673ffffffffffffffffffffffffffffffffffffffff1673ffffffffffffffffffffffffffffffffffffffff1681526020019081526020015f205f8282546106359190611b96565b925050819055503373ffffffffffffffffffffffffffffffffffffffff16847fe29b93709a7ac5e91a6057482d1df985483725988417e08dec23377234003c80856001015f9054906101000a90046fffffffffffffffffffffffffffffffff168660010160109054906101000a90046fffffffffffffffffffffffffffffffff16426040516106c693929190611bc9565b60405180910390a360025f8581526020019081526020015f205f8082015f6101000a81549073ffffffffffffffffffffffffffffffffffffffff0219169055600182015f6101000a8154906fffffffffffffffffffffffffffffffff02191690556001820160106101000a8154906fffffffffffffffffffffffffffffffff0219169055505060035f846001015f9054906101000a90046fffffffffffffffffffffffffffffffff166fffffffffffffffffffffffffffffffff1681526020019081526020015f205f9055505050600160078190555050565b6001600754146107e4576040517f08c379a00000000000000000000000000000000000000000000000000000000081526004016107db90611945565b60405180910390fd5b5f6007819055505f60045f3373ffffffffffffffffffffffffffffffffffffffff1673ffffffffffffffffffffffffffffffffffffffff1681526020019081526020015f205490505f811161086e576040517f08c379a000000000000000000000000000000000000000000000000000000000815260040161086590611c48565b60405180910390fd5b5f60045f3373ffffffffffffffffffffffffffffffffffffffff1673ffffffffffffffffffffffffffffffffffffffff1681526020019081526020015f20819055505f3373ffffffffffffffffffffffffffffffffffffffff16826040516108d590611c93565b5f6040518083038185875af1925050503d805f811461090f576040519150601f19603f3d011682016040523d82523d5f602084013e610914565b606091505b5050905080610958576040517f08c379a000000000000000000000000000000000000000000000000000000000815260040161094f90611cf1565b60405180910390fd5b3373ffffffffffffffffffffffffffffffffffffffff167f6141b54b56b8a52a8c6f5cd2a857f6117b18ffbf4d46bd3106f300a839cbf5ea8360405161099e9190611657565b60405180910390a250506001600781905550565b5f60065f9054906101000a900473ffffffffffffffffffffffffffffffffffffffff1673ffffffffffffffffffffffffffffffffffffffff16632f745c5984846040518363ffffffff1660e01b8152600401610a0f929190611d0f565b602060405180830381865afa158015610a2a573d5f803e3d5ffd5b505050506040513d601f19601f82011682018060405250810190610a4e9190611d4a565b905092915050565b5f60025f8381526020019081526020015f2090505f8160010160109054906101000a90046fffffffffffffffffffffffffffffffff166fffffffffffffffffffffffffffffffff1611610ade576040517f08c379a0000000000000000000000000000000000000000000000000000000008152600401610ad5906119ad565b60405180910390fd5b3373ffffffffffffffffffffffffffffffffffffffff16815f015f9054906101000a900473ffffffffffffffffffffffffffffffffffffffff1673ffffffffffffffffffffffffffffffffffffffff1614610b6e576040517f08c379a0000000000000000000000000000000000000000000000000000000008152600401610b6590611dbf565b60405180910390fd5b60025f8381526020019081526020015f205f8082015f6101000a81549073ffffffffffffffffffffffffffffffffffffffff0219169055600182015f6101000a8154906fffffffffffffffffffffffffffffffff02191690556001820160106101000a8154906fffffffffffffffffffffffffffffffff0219169055505060035f826001015f9054906101000a90046fffffffffffffffffffffffffffffffff166fffffffffffffffffffffffffffffffff1681526020019081526020015f205f90553373ffffffffffffffffffffffffffffffffffffffff16827f8e25282255ab31897df2b0456bb993ac7f84d376861aefd84901d2d63a7428a260405160405180910390a35050565b5f8054906101000a900473ffffffffffffffffffffffffffffffffffffffff1673ffffffffffffffffffffffffffffffffffffffff163373ffffffffffffffffffffffffffffffffffffffff1614610d06576040517f08c379a0000000000000000000000000000000000000000000000000000000008152600401610cfd90611e4d565b60405180910390fd5b6032811115610d4a576040517f08c379a0000000000000000000000000000000000000000000000000000000008152600401610d4190611eb5565b60405180910390fd5b806001819055507f13f60dd2b588490608c3ff1932a3daeb4087f3d5af04b97e5c2a16b5b4c0302e81604051610d809190611657565b60405180910390a150565b60065f9054906101000a900473ffffffffffffffffffffffffffffffffffffffff1681565b5f8173ffffffffffffffffffffffffffffffffffffffff16319050919050565b60015481565b5f8054906101000a900473ffffffffffffffffffffffffffffffffffffffff1681565b5f836fffffffffffffffffffffffffffffffff1611610e4d576040517f08c379a0000000000000000000000000000000000000000000000000000000008152600401610e4490611f1d565b60405180910390fd5b7f7cdb51e9dbbc205231228146c3246e7f914aa6d4a33170e43ecc8e3593481d1a604051610e7a90611f85565b60405180910390a15f60055f9054906101000a900473ffffffffffffffffffffffffffffffffffffffff1673ffffffffffffffffffffffffffffffffffffffff16636352211e866040518263ffffffff1660e01b8152600401610edd9190611fa3565b602060405180830381865afa158015610ef8573d5f803e3d5ffd5b505050506040513d601f19601f82011682018060405250810190610f1c9190611fd0565b90507f7cdb51e9dbbc205231228146c3246e7f914aa6d4a33170e43ecc8e3593481d1a604051610f4b90612045565b60405180910390a13373ffffffffffffffffffffffffffffffffffffffff168173ffffffffffffffffffffffffffffffffffffffff1614610fc1576040517f08c379a0000000000000000000000000000000000000000000000000000000008152600401610fb8906120d3565b60405180910390fd5b7f7cdb51e9dbbc205231228146c3246e7f914aa6d4a33170e43ecc8e3593481d1a604051610fee9061213b565b60405180910390a13073ffffffffffffffffffffffffffffffffffffffff1660055f9054906101000a900473ffffffffffffffffffffffffffffffffffffffff1673ffffffffffffffffffffffffffffffffffffffff1663081812fc876040518263ffffffff1660e01b81526004016110679190611fa3565b602060405180830381865afa158015611082573d5f803e3d5ffd5b505050506040513d601f19601f820116820180604052508101906110a69190611fd0565b73ffffffffffffffffffffffffffffffffffffffff16148061115f575060055f9054906101000a900473ffffffffffffffffffffffffffffffffffffffff1673ffffffffffffffffffffffffffffffffffffffff1663e985e9c533306040518363ffffffff1660e01b815260040161111f929190612159565b602060405180830381865afa15801561113a573d5f803e3d5ffd5b505050506040513d601f19601f8201168201806040525081019061115e91906121b5565b5b61119e576040517f08c379a000000000000000000000000000000000000000000000000000000000815260040161119590612250565b60405180910390fd5b7f7cdb51e9dbbc205231228146c3246e7f914aa6d4a33170e43ecc8e3593481d1a6040516111cb906122b8565b60405180910390a15f60035f876fffffffffffffffffffffffffffffffff1681526020019081526020015f205414611238576040517f08c379a000000000000000000000000000000000000000000000000000000000815260040161122f90612320565b60405180910390fd5b5f853360405160200161124c9291906123b7565b604051602081830303815290604052805190602001205f1c905060405180606001604052803373ffffffffffffffffffffffffffffffffffffffff168152602001876fffffffffffffffffffffffffffffffff168152602001866fffffffffffffffffffffffffffffffff1681525060025f8381526020019081526020015f205f820151815f015f6101000a81548173ffffffffffffffffffffffffffffffffffffffff021916908373ffffffffffffffffffffffffffffffffffffffff1602179055506020820151816001015f6101000a8154816fffffffffffffffffffffffffffffffff02191690836fffffffffffffffffffffffffffffffff16021790555060408201518160010160106101000a8154816fffffffffffffffffffffffffffffffff02191690836fffffffffffffffffffffffffffffffff1602179055509050508060035f886fffffffffffffffffffffffffffffffff1681526020019081526020015f20819055507f7cdb51e9dbbc205231228146c3246e7f914aa6d4a33170e43ecc8e3593481d1a6040516113e59061242c565b60405180910390a13373ffffffffffffffffffffffffffffffffffffffff16817fa3941cfa07eecf2734875ab71cea0e47395be644da6e17b039a7e29efba74ef988884260405161143893929190611bc9565b60405180910390a3856fffffffffffffffffffffffffffffffff167f5d3ac5872118b949a1f8db596134a0e1587ecf18f2203bb1e3ea420c3c3f8fa98585604051611484929190612494565b60405180910390a2505050505050565b60055f9054906101000a900473ffffffffffffffffffffffffffffffffffffffff1681565b6002602052805f5260405f205f91509050805f015f9054906101000a900473ffffffffffffffffffffffffffffffffffffffff1690806001015f9054906101000a90046fffffffffffffffffffffffffffffffff16908060010160109054906101000a90046fffffffffffffffffffffffffffffffff16905083565b6004602052805f5260405f205f915090505481565b5f80fd5b5f80fd5b5f819050919050565b61156481611552565b811461156e575f80fd5b50565b5f8135905061157f8161155b565b92915050565b5f6020828403121561159a5761159961154a565b5b5f6115a784828501611571565b91505092915050565b5f73ffffffffffffffffffffffffffffffffffffffff82169050919050565b5f6115d9826115b0565b9050919050565b6115e9816115cf565b81146115f3575f80fd5b50565b5f81359050611604816115e0565b92915050565b5f80604083850312156116205761161f61154a565b5b5f61162d858286016115f6565b925050602061163e85828601611571565b9150509250929050565b61165181611552565b82525050565b5f60208201905061166a5f830184611648565b92915050565b5f819050919050565b5f61169361168e611689846115b0565b611670565b6115b0565b9050919050565b5f6116a482611679565b9050919050565b5f6116b58261169a565b9050919050565b6116c5816116ab565b82525050565b5f6020820190506116de5f8301846116bc565b92915050565b5f602082840312156116f9576116f861154a565b5b5f611706848285016115f6565b91505092915050565b5f611719826115b0565b9050919050565b6117298161170f565b82525050565b5f6020820190506117425f830184611720565b92915050565b5f6fffffffffffffffffffffffffffffffff82169050919050565b61176c81611748565b8114611776575f80fd5b50565b5f8135905061178781611763565b92915050565b5f80fd5b5f80fd5b5f80fd5b5f8083601f8401126117ae576117ad61178d565b5b8235905067ffffffffffffffff8111156117cb576117ca611791565b5b6020830191508360018202830111156117e7576117e6611795565b5b9250929050565b5f805f80606085870312156118065761180561154a565b5b5f61181387828801611779565b945050602061182487828801611779565b935050604085013567ffffffffffffffff8111156118455761184461154e565b5b61185187828801611799565b925092505092959194509250565b5f6118698261169a565b9050919050565b6118798161185f565b82525050565b5f6020820190506118925f830184611870565b92915050565b6118a1816115cf565b82525050565b6118b081611748565b82525050565b5f6060820190506118c95f830186611898565b6118d660208301856118a7565b6118e360408301846118a7565b949350505050565b5f82825260208201905092915050565b7f5265656e7472616e742063616c6c0000000000000000000000000000000000005f82015250565b5f61192f600e836118eb565b915061193a826118fb565b602082019050919050565b5f6020820190508181035f83015261195c81611923565b9050919050565b7f496e76616c6964206f7220696e616374697665206c697374696e6700000000005f82015250565b5f611997601b836118eb565b91506119a282611963565b602082019050919050565b5f6020820190508181035f8301526119c48161198b565b9050919050565b7f496e636f7272656374207061796d656e7420616d6f756e7400000000000000005f82015250565b5f6119ff6018836118eb565b9150611a0a826119cb565b602082019050919050565b5f6020820190508181035f830152611a2c816119f3565b9050919050565b7f4e487b71000000000000000000000000000000000000000000000000000000005f52601160045260245ffd5b5f611a6a82611552565b9150611a7583611552565b9250828202611a8381611552565b91508282048414831517611a9a57611a99611a33565b5b5092915050565b7f4e487b71000000000000000000000000000000000000000000000000000000005f52601260045260245ffd5b5f611ad882611552565b9150611ae383611552565b925082611af357611af2611aa1565b5b828204905092915050565b5f611b0882611552565b9150611b1383611552565b9250828203905081811115611b2b57611b2a611a33565b5b92915050565b5f611b4b611b46611b4184611748565b611670565b611552565b9050919050565b611b5b81611b31565b82525050565b5f606082019050611b745f830186611898565b611b816020830185611898565b611b8e6040830184611b52565b949350505050565b5f611ba082611552565b9150611bab83611552565b9250828201905080821115611bc357611bc2611a33565b5b92915050565b5f606082019050611bdc5f830186611b52565b611be96020830185611b52565b611bf66040830184611648565b949350505050565b7f4e6f2066756e647320746f2077697468647261770000000000000000000000005f82015250565b5f611c326014836118eb565b9150611c3d82611bfe565b602082019050919050565b5f6020820190508181035f830152611c5f81611c26565b9050919050565b5f81905092915050565b50565b5f611c7e5f83611c66565b9150611c8982611c70565b5f82019050919050565b5f611c9d82611c73565b9150819050919050565b7f5769746864726177206661696c656400000000000000000000000000000000005f82015250565b5f611cdb600f836118eb565b9150611ce682611ca7565b602082019050919050565b5f6020820190508181035f830152611d0881611ccf565b9050919050565b5f604082019050611d225f830185611898565b611d2f6020830184611648565b9392505050565b5f81519050611d448161155b565b92915050565b5f60208284031215611d5f57611d5e61154a565b5b5f611d6c84828501611d36565b91505092915050565b7f596f7520617265206e6f74207468652073656c6c6572000000000000000000005f82015250565b5f611da96016836118eb565b9150611db482611d75565b602082019050919050565b5f6020820190508181035f830152611dd681611d9d565b9050919050565b7f4f6e6c7920746865206f776e65722063616e20706572666f726d2074686973205f8201527f616374696f6e0000000000000000000000000000000000000000000000000000602082015250565b5f611e376026836118eb565b9150611e4282611ddd565b604082019050919050565b5f6020820190508181035f830152611e6481611e2b565b9050919050565b7f436f6d6d697373696f6e2063616e6e6f742065786365656420313030250000005f82015250565b5f611e9f601d836118eb565b9150611eaa82611e6b565b602082019050919050565b5f6020820190508181035f830152611ecc81611e93565b9050919050565b7f5072696365206d7573742062652067726561746572207468616e2030000000005f82015250565b5f611f07601c836118eb565b9150611f1282611ed3565b602082019050919050565b5f6020820190508181035f830152611f3481611efb565b9050919050565b7f50617373656420707269636520636865636b00000000000000000000000000005f82015250565b5f611f6f6012836118eb565b9150611f7a82611f3b565b602082019050919050565b5f6020820190508181035f830152611f9c81611f63565b9050919050565b5f602082019050611fb65f830184611b52565b92915050565b5f81519050611fca816115e0565b92915050565b5f60208284031215611fe557611fe461154a565b5b5f611ff284828501611fbc565b91505092915050565b7f4f776e65722072657472696576656400000000000000000000000000000000005f82015250565b5f61202f600f836118eb565b915061203a82611ffb565b602082019050919050565b5f6020820190508181035f83015261205c81612023565b9050919050565b7f596f7520617265206e6f7420746865206f776e6572206f66207468697320746f5f8201527f6b656e0000000000000000000000000000000000000000000000000000000000602082015250565b5f6120bd6023836118eb565b91506120c882612063565b604082019050919050565b5f6020820190508181035f8301526120ea816120b1565b9050919050565b7f4f776e65727368697020766572696669656400000000000000000000000000005f82015250565b5f6121256012836118eb565b9150612130826120f1565b602082019050919050565b5f6020820190508181035f83015261215281612119565b9050919050565b5f60408201905061216c5f830185611898565b6121796020830184611898565b9392505050565b5f8115159050919050565b61219481612180565b811461219e575f80fd5b50565b5f815190506121af8161218b565b92915050565b5f602082840312156121ca576121c961154a565b5b5f6121d7848285016121a1565b91505092915050565b7f4d61726b6574706c616365206973206e6f7420617070726f76656420746f20745f8201527f72616e73666572207468697320746f6b656e0000000000000000000000000000602082015250565b5f61223a6032836118eb565b9150612245826121e0565b604082019050919050565b5f6020820190508181035f8301526122678161222e565b9050919050565b7f417070726f76616c2076657269666965640000000000000000000000000000005f82015250565b5f6122a26011836118eb565b91506122ad8261226e565b602082019050919050565b5f6020820190508181035f8301526122cf81612296565b9050919050565b7f546f6b656e20697320616c7265616479206c69737465640000000000000000005f82015250565b5f61230a6017836118eb565b9150612315826122d6565b602082019050919050565b5f6020820190508181035f830152612337816122fe565b9050919050565b5f8160801b9050919050565b5f6123548261233e565b9050919050565b61236c61236782611748565b61234a565b82525050565b5f8160601b9050919050565b5f61238882612372565b9050919050565b5f6123998261237e565b9050919050565b6123b16123ac826115cf565b61238f565b82525050565b5f6123c2828561235b565b6010820191506123d282846123a0565b6014820191508190509392505050565b7f556e69717565206c697374696e672049442076657269666965640000000000005f82015250565b5f612416601a836118eb565b9150612421826123e2565b602082019050919050565b5f6020820190508181035f8301526124438161240a565b9050919050565b828183375f83830152505050565b5f601f19601f8301169050919050565b5f61247383856118eb565b935061248083858461244a565b61248983612458565b840190509392505050565b5f6020820190508181035f8301526124ad818486612468565b9050939250505056fea26469706673582212206ceacc0a599e04aeaf5c91703c90e63c121f74a3e3c24b366f3d2755f99882bf64736f6c63430008160033",
					"opcodes": "PUSH1 0x80 PUSH1 0x40 MSTORE PUSH1 0x1 PUSH1 0x7 SSTORE CALLVALUE DUP1 ISZERO PUSH3 0x15 JUMPI PUSH0 DUP1 REVERT JUMPDEST POP PUSH1 0x40 MLOAD PUSH3 0x27AA CODESIZE SUB DUP1 PUSH3 0x27AA DUP4 CODECOPY DUP2 DUP2 ADD PUSH1 0x40 MSTORE DUP2 ADD SWAP1 PUSH3 0x3B SWAP2 SWAP1 PUSH3 0x1ED JUMP JUMPDEST PUSH1 0x32 DUP2 GT ISZERO PUSH3 0x82 JUMPI PUSH1 0x40 MLOAD PUSH32 0x8C379A000000000000000000000000000000000000000000000000000000000 DUP2 MSTORE PUSH1 0x4 ADD PUSH3 0x79 SWAP1 PUSH3 0x290 JUMP JUMPDEST PUSH1 0x40 MLOAD DUP1 SWAP2 SUB SWAP1 REVERT JUMPDEST CALLER PUSH0 DUP1 PUSH2 0x100 EXP DUP2 SLOAD DUP2 PUSH20 0xFFFFFFFFFFFFFFFFFFFFFFFFFFFFFFFFFFFFFFFF MUL NOT AND SWAP1 DUP4 PUSH20 0xFFFFFFFFFFFFFFFFFFFFFFFFFFFFFFFFFFFFFFFF AND MUL OR SWAP1 SSTORE POP DUP2 PUSH1 0x5 PUSH0 PUSH2 0x100 EXP DUP2 SLOAD DUP2 PUSH20 0xFFFFFFFFFFFFFFFFFFFFFFFFFFFFFFFFFFFFFFFF MUL NOT AND SWAP1 DUP4 PUSH20 0xFFFFFFFFFFFFFFFFFFFFFFFFFFFFFFFFFFFFFFFF AND MUL OR SWAP1 SSTORE POP DUP2 PUSH1 0x6 PUSH0 PUSH2 0x100 EXP DUP2 SLOAD DUP2 PUSH20 0xFFFFFFFFFFFFFFFFFFFFFFFFFFFFFFFFFFFFFFFF MUL NOT AND SWAP1 DUP4 PUSH20 0xFFFFFFFFFFFFFFFFFFFFFFFFFFFFFFFFFFFFFFFF AND MUL OR SWAP1 SSTORE POP DUP1 PUSH1 0x1 DUP2 SWAP1 SSTORE POP POP POP PUSH3 0x2B0 JUMP JUMPDEST PUSH0 DUP1 REVERT JUMPDEST PUSH0 PUSH20 0xFFFFFFFFFFFFFFFFFFFFFFFFFFFFFFFFFFFFFFFF DUP3 AND SWAP1 POP SWAP2 SWAP1 POP JUMP JUMPDEST PUSH0 PUSH3 0x17F DUP3 PUSH3 0x154 JUMP JUMPDEST SWAP1 POP SWAP2 SWAP1 POP JUMP JUMPDEST PUSH3 0x191 DUP2 PUSH3 0x173 JUMP JUMPDEST DUP2 EQ PUSH3 0x19C JUMPI PUSH0 DUP1 REVERT JUMPDEST POP JUMP JUMPDEST PUSH0 DUP2 MLOAD SWAP1 POP PUSH3 0x1AF DUP2 PUSH3 0x186 JUMP JUMPDEST SWAP3 SWAP2 POP POP JUMP JUMPDEST PUSH0 DUP2 SWAP1 POP SWAP2 SWAP1 POP JUMP JUMPDEST PUSH3 0x1C9 DUP2 PUSH3 0x1B5 JUMP JUMPDEST DUP2 EQ PUSH3 0x1D4 JUMPI PUSH0 DUP1 REVERT JUMPDEST POP JUMP JUMPDEST PUSH0 DUP2 MLOAD SWAP1 POP PUSH3 0x1E7 DUP2 PUSH3 0x1BE JUMP JUMPDEST SWAP3 SWAP2 POP POP JUMP JUMPDEST PUSH0 DUP1 PUSH1 0x40 DUP4 DUP6 SUB SLT ISZERO PUSH3 0x206 JUMPI PUSH3 0x205 PUSH3 0x150 JUMP JUMPDEST JUMPDEST PUSH0 PUSH3 0x215 DUP6 DUP3 DUP7 ADD PUSH3 0x19F JUMP JUMPDEST SWAP3 POP POP PUSH1 0x20 PUSH3 0x228 DUP6 DUP3 DUP7 ADD PUSH3 0x1D7 JUMP JUMPDEST SWAP2 POP POP SWAP3 POP SWAP3 SWAP1 POP JUMP JUMPDEST PUSH0 DUP3 DUP3 MSTORE PUSH1 0x20 DUP3 ADD SWAP1 POP SWAP3 SWAP2 POP POP JUMP JUMPDEST PUSH32 0x436F6D6D697373696F6E2063616E6E6F74206578636565642035302500000000 PUSH0 DUP3 ADD MSTORE POP JUMP JUMPDEST PUSH0 PUSH3 0x278 PUSH1 0x1C DUP4 PUSH3 0x232 JUMP JUMPDEST SWAP2 POP PUSH3 0x285 DUP3 PUSH3 0x242 JUMP JUMPDEST PUSH1 0x20 DUP3 ADD SWAP1 POP SWAP2 SWAP1 POP JUMP JUMPDEST PUSH0 PUSH1 0x20 DUP3 ADD SWAP1 POP DUP2 DUP2 SUB PUSH0 DUP4 ADD MSTORE PUSH3 0x2A9 DUP2 PUSH3 0x26A JUMP JUMPDEST SWAP1 POP SWAP2 SWAP1 POP JUMP JUMPDEST PUSH2 0x24EC DUP1 PUSH3 0x2BE PUSH0 CODECOPY PUSH0 RETURN INVALID PUSH1 0x80 PUSH1 0x40 MSTORE PUSH1 0x4 CALLDATASIZE LT PUSH2 0xC5 JUMPI PUSH0 CALLDATALOAD PUSH1 0xE0 SHR DUP1 PUSH4 0x70A08231 GT PUSH2 0x7E JUMPI DUP1 PUSH4 0xA6B77511 GT PUSH2 0x58 JUMPI DUP1 PUSH4 0xA6B77511 EQ PUSH2 0x248 JUMPI DUP1 PUSH4 0xD56D229D EQ PUSH2 0x270 JUMPI DUP1 PUSH4 0xDE74E57B EQ PUSH2 0x29A JUMPI DUP1 PUSH4 0xF3F43703 EQ PUSH2 0x2D8 JUMPI PUSH2 0xCC JUMP JUMPDEST DUP1 PUSH4 0x70A08231 EQ PUSH2 0x1B8 JUMPI DUP1 PUSH4 0x77D3550B EQ PUSH2 0x1F4 JUMPI DUP1 PUSH4 0x8DA5CB5B EQ PUSH2 0x21E JUMPI PUSH2 0xCC JUMP JUMPDEST DUP1 PUSH4 0x169D5A7D EQ PUSH2 0xD0 JUMPI DUP1 PUSH4 0x24600FC3 EQ PUSH2 0xEC JUMPI DUP1 PUSH4 0x2F745C59 EQ PUSH2 0x102 JUMPI DUP1 PUSH4 0x305A67A8 EQ PUSH2 0x13E JUMPI DUP1 PUSH4 0x404A9AB8 EQ PUSH2 0x166 JUMPI DUP1 PUSH4 0x51E61B25 EQ PUSH2 0x18E JUMPI PUSH2 0xCC JUMP JUMPDEST CALLDATASIZE PUSH2 0xCC JUMPI STOP JUMPDEST PUSH0 DUP1 REVERT JUMPDEST PUSH2 0xEA PUSH1 0x4 DUP1 CALLDATASIZE SUB DUP2 ADD SWAP1 PUSH2 0xE5 SWAP2 SWAP1 PUSH2 0x1585 JUMP JUMPDEST PUSH2 0x314 JUMP JUMPDEST STOP JUMPDEST CALLVALUE DUP1 ISZERO PUSH2 0xF7 JUMPI PUSH0 DUP1 REVERT JUMPDEST POP PUSH2 0x100 PUSH2 0x79F JUMP JUMPDEST STOP JUMPDEST CALLVALUE DUP1 ISZERO PUSH2 0x10D JUMPI PUSH0 DUP1 REVERT JUMPDEST POP PUSH2 0x128 PUSH1 0x4 DUP1 CALLDATASIZE SUB DUP2 ADD SWAP1 PUSH2 0x123 SWAP2 SWAP1 PUSH2 0x160A JUMP JUMPDEST PUSH2 0x9B2 JUMP JUMPDEST PUSH1 0x40 MLOAD PUSH2 0x135 SWAP2 SWAP1 PUSH2 0x1657 JUMP JUMPDEST PUSH1 0x40 MLOAD DUP1 SWAP2 SUB SWAP1 RETURN JUMPDEST CALLVALUE DUP1 ISZERO PUSH2 0x149 JUMPI PUSH0 DUP1 REVERT JUMPDEST POP PUSH2 0x164 PUSH1 0x4 DUP1 CALLDATASIZE SUB DUP2 ADD SWAP1 PUSH2 0x15F SWAP2 SWAP1 PUSH2 0x1585 JUMP JUMPDEST PUSH2 0xA56 JUMP JUMPDEST STOP JUMPDEST CALLVALUE DUP1 ISZERO PUSH2 0x171 JUMPI PUSH0 DUP1 REVERT JUMPDEST POP PUSH2 0x18C PUSH1 0x4 DUP1 CALLDATASIZE SUB DUP2 ADD SWAP1 PUSH2 0x187 SWAP2 SWAP1 PUSH2 0x1585 JUMP JUMPDEST PUSH2 0xC79 JUMP JUMPDEST STOP JUMPDEST CALLVALUE DUP1 ISZERO PUSH2 0x199 JUMPI PUSH0 DUP1 REVERT JUMPDEST POP PUSH2 0x1A2 PUSH2 0xD8B JUMP JUMPDEST PUSH1 0x40 MLOAD PUSH2 0x1AF SWAP2 SWAP1 PUSH2 0x16CB JUMP JUMPDEST PUSH1 0x40 MLOAD DUP1 SWAP2 SUB SWAP1 RETURN JUMPDEST CALLVALUE DUP1 ISZERO PUSH2 0x1C3 JUMPI PUSH0 DUP1 REVERT JUMPDEST POP PUSH2 0x1DE PUSH1 0x4 DUP1 CALLDATASIZE SUB DUP2 ADD SWAP1 PUSH2 0x1D9 SWAP2 SWAP1 PUSH2 0x16E4 JUMP JUMPDEST PUSH2 0xDB0 JUMP JUMPDEST PUSH1 0x40 MLOAD PUSH2 0x1EB SWAP2 SWAP1 PUSH2 0x1657 JUMP JUMPDEST PUSH1 0x40 MLOAD DUP1 SWAP2 SUB SWAP1 RETURN JUMPDEST CALLVALUE DUP1 ISZERO PUSH2 0x1FF JUMPI PUSH0 DUP1 REVERT JUMPDEST POP PUSH2 0x208 PUSH2 0xDD0 JUMP JUMPDEST PUSH1 0x40 MLOAD PUSH2 0x215 SWAP2 SWAP1 PUSH2 0x1657 JUMP JUMPDEST PUSH1 0x40 MLOAD DUP1 SWAP2 SUB SWAP1 RETURN JUMPDEST CALLVALUE DUP1 ISZERO PUSH2 0x229 JUMPI PUSH0 DUP1 REVERT JUMPDEST POP PUSH2 0x232 PUSH2 0xDD6 JUMP JUMPDEST PUSH1 0x40 MLOAD PUSH2 0x23F SWAP2 SWAP1 PUSH2 0x172F JUMP JUMPDEST PUSH1 0x40 MLOAD DUP1 SWAP2 SUB SWAP1 RETURN JUMPDEST CALLVALUE DUP1 ISZERO PUSH2 0x253 JUMPI PUSH0 DUP1 REVERT JUMPDEST POP PUSH2 0x26E PUSH1 0x4 DUP1 CALLDATASIZE SUB DUP2 ADD SWAP1 PUSH2 0x269 SWAP2 SWAP1 PUSH2 0x17EE JUMP JUMPDEST PUSH2 0xDF9 JUMP JUMPDEST STOP JUMPDEST CALLVALUE DUP1 ISZERO PUSH2 0x27B JUMPI PUSH0 DUP1 REVERT JUMPDEST POP PUSH2 0x284 PUSH2 0x1494 JUMP JUMPDEST PUSH1 0x40 MLOAD PUSH2 0x291 SWAP2 SWAP1 PUSH2 0x187F JUMP JUMPDEST PUSH1 0x40 MLOAD DUP1 SWAP2 SUB SWAP1 RETURN JUMPDEST CALLVALUE DUP1 ISZERO PUSH2 0x2A5 JUMPI PUSH0 DUP1 REVERT JUMPDEST POP PUSH2 0x2C0 PUSH1 0x4 DUP1 CALLDATASIZE SUB DUP2 ADD SWAP1 PUSH2 0x2BB SWAP2 SWAP1 PUSH2 0x1585 JUMP JUMPDEST PUSH2 0x14B9 JUMP JUMPDEST PUSH1 0x40 MLOAD PUSH2 0x2CF SWAP4 SWAP3 SWAP2 SWAP1 PUSH2 0x18B6 JUMP JUMPDEST PUSH1 0x40 MLOAD DUP1 SWAP2 SUB SWAP1 RETURN JUMPDEST CALLVALUE DUP1 ISZERO PUSH2 0x2E3 JUMPI PUSH0 DUP1 REVERT JUMPDEST POP PUSH2 0x2FE PUSH1 0x4 DUP1 CALLDATASIZE SUB DUP2 ADD SWAP1 PUSH2 0x2F9 SWAP2 SWAP1 PUSH2 0x16E4 JUMP JUMPDEST PUSH2 0x1535 JUMP JUMPDEST PUSH1 0x40 MLOAD PUSH2 0x30B SWAP2 SWAP1 PUSH2 0x1657 JUMP JUMPDEST PUSH1 0x40 MLOAD DUP1 SWAP2 SUB SWAP1 RETURN JUMPDEST PUSH1 0x1 PUSH1 0x7 SLOAD EQ PUSH2 0x359 JUMPI PUSH1 0x40 MLOAD PUSH32 0x8C379A000000000000000000000000000000000000000000000000000000000 DUP2 MSTORE PUSH1 0x4 ADD PUSH2 0x350 SWAP1 PUSH2 0x1945 JUMP JUMPDEST PUSH1 0x40 MLOAD DUP1 SWAP2 SUB SWAP1 REVERT JUMPDEST PUSH0 PUSH1 0x7 DUP2 SWAP1 SSTORE POP PUSH0 PUSH1 0x2 PUSH0 DUP4 DUP2 MSTORE PUSH1 0x20 ADD SWAP1 DUP2 MSTORE PUSH1 0x20 ADD PUSH0 KECCAK256 SWAP1 POP PUSH0 DUP2 PUSH1 0x1 ADD PUSH1 0x10 SWAP1 SLOAD SWAP1 PUSH2 0x100 EXP SWAP1 DIV PUSH16 0xFFFFFFFFFFFFFFFFFFFFFFFFFFFFFFFF AND PUSH16 0xFFFFFFFFFFFFFFFFFFFFFFFFFFFFFFFF AND GT PUSH2 0x3E8 JUMPI PUSH1 0x40 MLOAD PUSH32 0x8C379A000000000000000000000000000000000000000000000000000000000 DUP2 MSTORE PUSH1 0x4 ADD PUSH2 0x3DF SWAP1 PUSH2 0x19AD JUMP JUMPDEST PUSH1 0x40 MLOAD DUP1 SWAP2 SUB SWAP1 REVERT JUMPDEST DUP1 PUSH1 0x1 ADD PUSH1 0x10 SWAP1 SLOAD SWAP1 PUSH2 0x100 EXP SWAP1 DIV PUSH16 0xFFFFFFFFFFFFFFFFFFFFFFFFFFFFFFFF AND PUSH16 0xFFFFFFFFFFFFFFFFFFFFFFFFFFFFFFFF AND CALLVALUE EQ PUSH2 0x45C JUMPI PUSH1 0x40 MLOAD PUSH32 0x8C379A000000000000000000000000000000000000000000000000000000000 DUP2 MSTORE PUSH1 0x4 ADD PUSH2 0x453 SWAP1 PUSH2 0x1A15 JUMP JUMPDEST PUSH1 0x40 MLOAD DUP1 SWAP2 SUB SWAP1 REVERT JUMPDEST PUSH0 PUSH1 0x64 PUSH1 0x1 SLOAD CALLVALUE PUSH2 0x46D SWAP2 SWAP1 PUSH2 0x1A60 JUMP JUMPDEST PUSH2 0x477 SWAP2 SWAP1 PUSH2 0x1ACE JUMP JUMPDEST SWAP1 POP PUSH0 DUP2 CALLVALUE PUSH2 0x486 SWAP2 SWAP1 PUSH2 0x1AFE JUMP JUMPDEST SWAP1 POP PUSH1 0x5 PUSH0 SWAP1 SLOAD SWAP1 PUSH2 0x100 EXP SWAP1 DIV PUSH20 0xFFFFFFFFFFFFFFFFFFFFFFFFFFFFFFFFFFFFFFFF AND PUSH20 0xFFFFFFFFFFFFFFFFFFFFFFFFFFFFFFFFFFFFFFFF AND PUSH4 0x42842E0E DUP5 PUSH0 ADD PUSH0 SWAP1 SLOAD SWAP1 PUSH2 0x100 EXP SWAP1 DIV PUSH20 0xFFFFFFFFFFFFFFFFFFFFFFFFFFFFFFFFFFFFFFFF AND CALLER DUP7 PUSH1 0x1 ADD PUSH0 SWAP1 SLOAD SWAP1 PUSH2 0x100 EXP SWAP1 DIV PUSH16 0xFFFFFFFFFFFFFFFFFFFFFFFFFFFFFFFF AND PUSH1 0x40 MLOAD DUP5 PUSH4 0xFFFFFFFF AND PUSH1 0xE0 SHL DUP2 MSTORE PUSH1 0x4 ADD PUSH2 0x527 SWAP4 SWAP3 SWAP2 SWAP1 PUSH2 0x1B61 JUMP JUMPDEST PUSH0 PUSH1 0x40 MLOAD DUP1 DUP4 SUB DUP2 PUSH0 DUP8 DUP1 EXTCODESIZE ISZERO DUP1 ISZERO PUSH2 0x53E JUMPI PUSH0 DUP1 REVERT JUMPDEST POP GAS CALL ISZERO DUP1 ISZERO PUSH2 0x550 JUMPI RETURNDATASIZE PUSH0 DUP1 RETURNDATACOPY RETURNDATASIZE PUSH0 REVERT JUMPDEST POP POP POP POP DUP2 PUSH1 0x4 PUSH0 DUP1 PUSH0 SWAP1 SLOAD SWAP1 PUSH2 0x100 EXP SWAP1 DIV PUSH20 0xFFFFFFFFFFFFFFFFFFFFFFFFFFFFFFFFFFFFFFFF AND PUSH20 0xFFFFFFFFFFFFFFFFFFFFFFFFFFFFFFFFFFFFFFFF AND PUSH20 0xFFFFFFFFFFFFFFFFFFFFFFFFFFFFFFFFFFFFFFFF AND DUP2 MSTORE PUSH1 0x20 ADD SWAP1 DUP2 MSTORE PUSH1 0x20 ADD PUSH0 KECCAK256 PUSH0 DUP3 DUP3 SLOAD PUSH2 0x5C0 SWAP2 SWAP1 PUSH2 0x1B96 JUMP JUMPDEST SWAP3 POP POP DUP2 SWAP1 SSTORE POP DUP1 PUSH1 0x4 PUSH0 DUP6 PUSH0 ADD PUSH0 SWAP1 SLOAD SWAP1 PUSH2 0x100 EXP SWAP1 DIV PUSH20 0xFFFFFFFFFFFFFFFFFFFFFFFFFFFFFFFFFFFFFFFF AND PUSH20 0xFFFFFFFFFFFFFFFFFFFFFFFFFFFFFFFFFFFFFFFF AND PUSH20 0xFFFFFFFFFFFFFFFFFFFFFFFFFFFFFFFFFFFFFFFF AND DUP2 MSTORE PUSH1 0x20 ADD SWAP1 DUP2 MSTORE PUSH1 0x20 ADD PUSH0 KECCAK256 PUSH0 DUP3 DUP3 SLOAD PUSH2 0x635 SWAP2 SWAP1 PUSH2 0x1B96 JUMP JUMPDEST SWAP3 POP POP DUP2 SWAP1 SSTORE POP CALLER PUSH20 0xFFFFFFFFFFFFFFFFFFFFFFFFFFFFFFFFFFFFFFFF AND DUP5 PUSH32 0xE29B93709A7AC5E91A6057482D1DF985483725988417E08DEC23377234003C80 DUP6 PUSH1 0x1 ADD PUSH0 SWAP1 SLOAD SWAP1 PUSH2 0x100 EXP SWAP1 DIV PUSH16 0xFFFFFFFFFFFFFFFFFFFFFFFFFFFFFFFF AND DUP7 PUSH1 0x1 ADD PUSH1 0x10 SWAP1 SLOAD SWAP1 PUSH2 0x100 EXP SWAP1 DIV PUSH16 0xFFFFFFFFFFFFFFFFFFFFFFFFFFFFFFFF AND TIMESTAMP PUSH1 0x40 MLOAD PUSH2 0x6C6 SWAP4 SWAP3 SWAP2 SWAP1 PUSH2 0x1BC9 JUMP JUMPDEST PUSH1 0x40 MLOAD DUP1 SWAP2 SUB SWAP1 LOG3 PUSH1 0x2 PUSH0 DUP6 DUP2 MSTORE PUSH1 0x20 ADD SWAP1 DUP2 MSTORE PUSH1 0x20 ADD PUSH0 KECCAK256 PUSH0 DUP1 DUP3 ADD PUSH0 PUSH2 0x100 EXP DUP2 SLOAD SWAP1 PUSH20 0xFFFFFFFFFFFFFFFFFFFFFFFFFFFFFFFFFFFFFFFF MUL NOT AND SWAP1 SSTORE PUSH1 0x1 DUP3 ADD PUSH0 PUSH2 0x100 EXP DUP2 SLOAD SWAP1 PUSH16 0xFFFFFFFFFFFFFFFFFFFFFFFFFFFFFFFF MUL NOT AND SWAP1 SSTORE PUSH1 0x1 DUP3 ADD PUSH1 0x10 PUSH2 0x100 EXP DUP2 SLOAD SWAP1 PUSH16 0xFFFFFFFFFFFFFFFFFFFFFFFFFFFFFFFF MUL NOT AND SWAP1 SSTORE POP POP PUSH1 0x3 PUSH0 DUP5 PUSH1 0x1 ADD PUSH0 SWAP1 SLOAD SWAP1 PUSH2 0x100 EXP SWAP1 DIV PUSH16 0xFFFFFFFFFFFFFFFFFFFFFFFFFFFFFFFF AND PUSH16 0xFFFFFFFFFFFFFFFFFFFFFFFFFFFFFFFF AND DUP2 MSTORE PUSH1 0x20 ADD SWAP1 DUP2 MSTORE PUSH1 0x20 ADD PUSH0 KECCAK256 PUSH0 SWAP1 SSTORE POP POP POP PUSH1 0x1 PUSH1 0x7 DUP2 SWAP1 SSTORE POP POP JUMP JUMPDEST PUSH1 0x1 PUSH1 0x7 SLOAD EQ PUSH2 0x7E4 JUMPI PUSH1 0x40 MLOAD PUSH32 0x8C379A000000000000000000000000000000000000000000000000000000000 DUP2 MSTORE PUSH1 0x4 ADD PUSH2 0x7DB SWAP1 PUSH2 0x1945 JUMP JUMPDEST PUSH1 0x40 MLOAD DUP1 SWAP2 SUB SWAP1 REVERT JUMPDEST PUSH0 PUSH1 0x7 DUP2 SWAP1 SSTORE POP PUSH0 PUSH1 0x4 PUSH0 CALLER PUSH20 0xFFFFFFFFFFFFFFFFFFFFFFFFFFFFFFFFFFFFFFFF AND PUSH20 0xFFFFFFFFFFFFFFFFFFFFFFFFFFFFFFFFFFFFFFFF AND DUP2 MSTORE PUSH1 0x20 ADD SWAP1 DUP2 MSTORE PUSH1 0x20 ADD PUSH0 KECCAK256 SLOAD SWAP1 POP PUSH0 DUP2 GT PUSH2 0x86E JUMPI PUSH1 0x40 MLOAD PUSH32 0x8C379A000000000000000000000000000000000000000000000000000000000 DUP2 MSTORE PUSH1 0x4 ADD PUSH2 0x865 SWAP1 PUSH2 0x1C48 JUMP JUMPDEST PUSH1 0x40 MLOAD DUP1 SWAP2 SUB SWAP1 REVERT JUMPDEST PUSH0 PUSH1 0x4 PUSH0 CALLER PUSH20 0xFFFFFFFFFFFFFFFFFFFFFFFFFFFFFFFFFFFFFFFF AND PUSH20 0xFFFFFFFFFFFFFFFFFFFFFFFFFFFFFFFFFFFFFFFF AND DUP2 MSTORE PUSH1 0x20 ADD SWAP1 DUP2 MSTORE PUSH1 0x20 ADD PUSH0 KECCAK256 DUP2 SWAP1 SSTORE POP PUSH0 CALLER PUSH20 0xFFFFFFFFFFFFFFFFFFFFFFFFFFFFFFFFFFFFFFFF AND DUP3 PUSH1 0x40 MLOAD PUSH2 0x8D5 SWAP1 PUSH2 0x1C93 JUMP JUMPDEST PUSH0 PUSH1 0x40 MLOAD DUP1 DUP4 SUB DUP2 DUP6 DUP8 GAS CALL SWAP3 POP POP POP RETURNDATASIZE DUP1 PUSH0 DUP2 EQ PUSH2 0x90F JUMPI PUSH1 0x40 MLOAD SWAP2 POP PUSH1 0x1F NOT PUSH1 0x3F RETURNDATASIZE ADD AND DUP3 ADD PUSH1 0x40 MSTORE RETURNDATASIZE DUP3 MSTORE RETURNDATASIZE PUSH0 PUSH1 0x20 DUP5 ADD RETURNDATACOPY PUSH2 0x914 JUMP JUMPDEST PUSH1 0x60 SWAP2 POP JUMPDEST POP POP SWAP1 POP DUP1 PUSH2 0x958 JUMPI PUSH1 0x40 MLOAD PUSH32 0x8C379A000000000000000000000000000000000000000000000000000000000 DUP2 MSTORE PUSH1 0x4 ADD PUSH2 0x94F SWAP1 PUSH2 0x1CF1 JUMP JUMPDEST PUSH1 0x40 MLOAD DUP1 SWAP2 SUB SWAP1 REVERT JUMPDEST CALLER PUSH20 0xFFFFFFFFFFFFFFFFFFFFFFFFFFFFFFFFFFFFFFFF AND PUSH32 0x6141B54B56B8A52A8C6F5CD2A857F6117B18FFBF4D46BD3106F300A839CBF5EA DUP4 PUSH1 0x40 MLOAD PUSH2 0x99E SWAP2 SWAP1 PUSH2 0x1657 JUMP JUMPDEST PUSH1 0x40 MLOAD DUP1 SWAP2 SUB SWAP1 LOG2 POP POP PUSH1 0x1 PUSH1 0x7 DUP2 SWAP1 SSTORE POP JUMP JUMPDEST PUSH0 PUSH1 0x6 PUSH0 SWAP1 SLOAD SWAP1 PUSH2 0x100 EXP SWAP1 DIV PUSH20 0xFFFFFFFFFFFFFFFFFFFFFFFFFFFFFFFFFFFFFFFF AND PUSH20 0xFFFFFFFFFFFFFFFFFFFFFFFFFFFFFFFFFFFFFFFF AND PUSH4 0x2F745C59 DUP5 DUP5 PUSH1 0x40 MLOAD DUP4 PUSH4 0xFFFFFFFF AND PUSH1 0xE0 SHL DUP2 MSTORE PUSH1 0x4 ADD PUSH2 0xA0F SWAP3 SWAP2 SWAP1 PUSH2 0x1D0F JUMP JUMPDEST PUSH1 0x20 PUSH1 0x40 MLOAD DUP1 DUP4 SUB DUP2 DUP7 GAS STATICCALL ISZERO DUP1 ISZERO PUSH2 0xA2A JUMPI RETURNDATASIZE PUSH0 DUP1 RETURNDATACOPY RETURNDATASIZE PUSH0 REVERT JUMPDEST POP POP POP POP PUSH1 0x40 MLOAD RETURNDATASIZE PUSH1 0x1F NOT PUSH1 0x1F DUP3 ADD AND DUP3 ADD DUP1 PUSH1 0x40 MSTORE POP DUP2 ADD SWAP1 PUSH2 0xA4E SWAP2 SWAP1 PUSH2 0x1D4A JUMP JUMPDEST SWAP1 POP SWAP3 SWAP2 POP POP JUMP JUMPDEST PUSH0 PUSH1 0x2 PUSH0 DUP4 DUP2 MSTORE PUSH1 0x20 ADD SWAP1 DUP2 MSTORE PUSH1 0x20 ADD PUSH0 KECCAK256 SWAP1 POP PUSH0 DUP2 PUSH1 0x1 ADD PUSH1 0x10 SWAP1 SLOAD SWAP1 PUSH2 0x100 EXP SWAP1 DIV PUSH16 0xFFFFFFFFFFFFFFFFFFFFFFFFFFFFFFFF AND PUSH16 0xFFFFFFFFFFFFFFFFFFFFFFFFFFFFFFFF AND GT PUSH2 0xADE JUMPI PUSH1 0x40 MLOAD PUSH32 0x8C379A000000000000000000000000000000000000000000000000000000000 DUP2 MSTORE PUSH1 0x4 ADD PUSH2 0xAD5 SWAP1 PUSH2 0x19AD JUMP JUMPDEST PUSH1 0x40 MLOAD DUP1 SWAP2 SUB SWAP1 REVERT JUMPDEST CALLER PUSH20 0xFFFFFFFFFFFFFFFFFFFFFFFFFFFFFFFFFFFFFFFF AND DUP2 PUSH0 ADD PUSH0 SWAP1 SLOAD SWAP1 PUSH2 0x100 EXP SWAP1 DIV PUSH20 0xFFFFFFFFFFFFFFFFFFFFFFFFFFFFFFFFFFFFFFFF AND PUSH20 0xFFFFFFFFFFFFFFFFFFFFFFFFFFFFFFFFFFFFFFFF AND EQ PUSH2 0xB6E JUMPI PUSH1 0x40 MLOAD PUSH32 0x8C379A000000000000000000000000000000000000000000000000000000000 DUP2 MSTORE PUSH1 0x4 ADD PUSH2 0xB65 SWAP1 PUSH2 0x1DBF JUMP JUMPDEST PUSH1 0x40 MLOAD DUP1 SWAP2 SUB SWAP1 REVERT JUMPDEST PUSH1 0x2 PUSH0 DUP4 DUP2 MSTORE PUSH1 0x20 ADD SWAP1 DUP2 MSTORE PUSH1 0x20 ADD PUSH0 KECCAK256 PUSH0 DUP1 DUP3 ADD PUSH0 PUSH2 0x100 EXP DUP2 SLOAD SWAP1 PUSH20 0xFFFFFFFFFFFFFFFFFFFFFFFFFFFFFFFFFFFFFFFF MUL NOT AND SWAP1 SSTORE PUSH1 0x1 DUP3 ADD PUSH0 PUSH2 0x100 EXP DUP2 SLOAD SWAP1 PUSH16 0xFFFFFFFFFFFFFFFFFFFFFFFFFFFFFFFF MUL NOT AND SWAP1 SSTORE PUSH1 0x1 DUP3 ADD PUSH1 0x10 PUSH2 0x100 EXP DUP2 SLOAD SWAP1 PUSH16 0xFFFFFFFFFFFFFFFFFFFFFFFFFFFFFFFF MUL NOT AND SWAP1 SSTORE POP POP PUSH1 0x3 PUSH0 DUP3 PUSH1 0x1 ADD PUSH0 SWAP1 SLOAD SWAP1 PUSH2 0x100 EXP SWAP1 DIV PUSH16 0xFFFFFFFFFFFFFFFFFFFFFFFFFFFFFFFF AND PUSH16 0xFFFFFFFFFFFFFFFFFFFFFFFFFFFFFFFF AND DUP2 MSTORE PUSH1 0x20 ADD SWAP1 DUP2 MSTORE PUSH1 0x20 ADD PUSH0 KECCAK256 PUSH0 SWAP1 SSTORE CALLER PUSH20 0xFFFFFFFFFFFFFFFFFFFFFFFFFFFFFFFFFFFFFFFF AND DUP3 PUSH32 0x8E25282255AB31897DF2B0456BB993AC7F84D376861AEFD84901D2D63A7428A2 PUSH1 0x40 MLOAD PUSH1 0x40 MLOAD DUP1 SWAP2 SUB SWAP1 LOG3 POP POP JUMP JUMPDEST PUSH0 DUP1 SLOAD SWAP1 PUSH2 0x100 EXP SWAP1 DIV PUSH20 0xFFFFFFFFFFFFFFFFFFFFFFFFFFFFFFFFFFFFFFFF AND PUSH20 0xFFFFFFFFFFFFFFFFFFFFFFFFFFFFFFFFFFFFFFFF AND CALLER PUSH20 0xFFFFFFFFFFFFFFFFFFFFFFFFFFFFFFFFFFFFFFFF AND EQ PUSH2 0xD06 JUMPI PUSH1 0x40 MLOAD PUSH32 0x8C379A000000000000000000000000000000000000000000000000000000000 DUP2 MSTORE PUSH1 0x4 ADD PUSH2 0xCFD SWAP1 PUSH2 0x1E4D JUMP JUMPDEST PUSH1 0x40 MLOAD DUP1 SWAP2 SUB SWAP1 REVERT JUMPDEST PUSH1 0x32 DUP2 GT ISZERO PUSH2 0xD4A JUMPI PUSH1 0x40 MLOAD PUSH32 0x8C379A000000000000000000000000000000000000000000000000000000000 DUP2 MSTORE PUSH1 0x4 ADD PUSH2 0xD41 SWAP1 PUSH2 0x1EB5 JUMP JUMPDEST PUSH1 0x40 MLOAD DUP1 SWAP2 SUB SWAP1 REVERT JUMPDEST DUP1 PUSH1 0x1 DUP2 SWAP1 SSTORE POP PUSH32 0x13F60DD2B588490608C3FF1932A3DAEB4087F3D5AF04B97E5C2A16B5B4C0302E DUP2 PUSH1 0x40 MLOAD PUSH2 0xD80 SWAP2 SWAP1 PUSH2 0x1657 JUMP JUMPDEST PUSH1 0x40 MLOAD DUP1 SWAP2 SUB SWAP1 LOG1 POP JUMP JUMPDEST PUSH1 0x6 PUSH0 SWAP1 SLOAD SWAP1 PUSH2 0x100 EXP SWAP1 DIV PUSH20 0xFFFFFFFFFFFFFFFFFFFFFFFFFFFFFFFFFFFFFFFF AND DUP2 JUMP JUMPDEST PUSH0 DUP2 PUSH20 0xFFFFFFFFFFFFFFFFFFFFFFFFFFFFFFFFFFFFFFFF AND BALANCE SWAP1 POP SWAP2 SWAP1 POP JUMP JUMPDEST PUSH1 0x1 SLOAD DUP2 JUMP JUMPDEST PUSH0 DUP1 SLOAD SWAP1 PUSH2 0x100 EXP SWAP1 DIV PUSH20 0xFFFFFFFFFFFFFFFFFFFFFFFFFFFFFFFFFFFFFFFF AND DUP2 JUMP JUMPDEST PUSH0 DUP4 PUSH16 0xFFFFFFFFFFFFFFFFFFFFFFFFFFFFFFFF AND GT PUSH2 0xE4D JUMPI PUSH1 0x40 MLOAD PUSH32 0x8C379A000000000000000000000000000000000000000000000000000000000 DUP2 MSTORE PUSH1 0x4 ADD PUSH2 0xE44 SWAP1 PUSH2 0x1F1D JUMP JUMPDEST PUSH1 0x40 MLOAD DUP1 SWAP2 SUB SWAP1 REVERT JUMPDEST PUSH32 0x7CDB51E9DBBC205231228146C3246E7F914AA6D4A33170E43ECC8E3593481D1A PUSH1 0x40 MLOAD PUSH2 0xE7A SWAP1 PUSH2 0x1F85 JUMP JUMPDEST PUSH1 0x40 MLOAD DUP1 SWAP2 SUB SWAP1 LOG1 PUSH0 PUSH1 0x5 PUSH0 SWAP1 SLOAD SWAP1 PUSH2 0x100 EXP SWAP1 DIV PUSH20 0xFFFFFFFFFFFFFFFFFFFFFFFFFFFFFFFFFFFFFFFF AND PUSH20 0xFFFFFFFFFFFFFFFFFFFFFFFFFFFFFFFFFFFFFFFF AND PUSH4 0x6352211E DUP7 PUSH1 0x40 MLOAD DUP3 PUSH4 0xFFFFFFFF AND PUSH1 0xE0 SHL DUP2 MSTORE PUSH1 0x4 ADD PUSH2 0xEDD SWAP2 SWAP1 PUSH2 0x1FA3 JUMP JUMPDEST PUSH1 0x20 PUSH1 0x40 MLOAD DUP1 DUP4 SUB DUP2 DUP7 GAS STATICCALL ISZERO DUP1 ISZERO PUSH2 0xEF8 JUMPI RETURNDATASIZE PUSH0 DUP1 RETURNDATACOPY RETURNDATASIZE PUSH0 REVERT JUMPDEST POP POP POP POP PUSH1 0x40 MLOAD RETURNDATASIZE PUSH1 0x1F NOT PUSH1 0x1F DUP3 ADD AND DUP3 ADD DUP1 PUSH1 0x40 MSTORE POP DUP2 ADD SWAP1 PUSH2 0xF1C SWAP2 SWAP1 PUSH2 0x1FD0 JUMP JUMPDEST SWAP1 POP PUSH32 0x7CDB51E9DBBC205231228146C3246E7F914AA6D4A33170E43ECC8E3593481D1A PUSH1 0x40 MLOAD PUSH2 0xF4B SWAP1 PUSH2 0x2045 JUMP JUMPDEST PUSH1 0x40 MLOAD DUP1 SWAP2 SUB SWAP1 LOG1 CALLER PUSH20 0xFFFFFFFFFFFFFFFFFFFFFFFFFFFFFFFFFFFFFFFF AND DUP2 PUSH20 0xFFFFFFFFFFFFFFFFFFFFFFFFFFFFFFFFFFFFFFFF AND EQ PUSH2 0xFC1 JUMPI PUSH1 0x40 MLOAD PUSH32 0x8C379A000000000000000000000000000000000000000000000000000000000 DUP2 MSTORE PUSH1 0x4 ADD PUSH2 0xFB8 SWAP1 PUSH2 0x20D3 JUMP JUMPDEST PUSH1 0x40 MLOAD DUP1 SWAP2 SUB SWAP1 REVERT JUMPDEST PUSH32 0x7CDB51E9DBBC205231228146C3246E7F914AA6D4A33170E43ECC8E3593481D1A PUSH1 0x40 MLOAD PUSH2 0xFEE SWAP1 PUSH2 0x213B JUMP JUMPDEST PUSH1 0x40 MLOAD DUP1 SWAP2 SUB SWAP1 LOG1 ADDRESS PUSH20 0xFFFFFFFFFFFFFFFFFFFFFFFFFFFFFFFFFFFFFFFF AND PUSH1 0x5 PUSH0 SWAP1 SLOAD SWAP1 PUSH2 0x100 EXP SWAP1 DIV PUSH20 0xFFFFFFFFFFFFFFFFFFFFFFFFFFFFFFFFFFFFFFFF AND PUSH20 0xFFFFFFFFFFFFFFFFFFFFFFFFFFFFFFFFFFFFFFFF AND PUSH4 0x81812FC DUP8 PUSH1 0x40 MLOAD DUP3 PUSH4 0xFFFFFFFF AND PUSH1 0xE0 SHL DUP2 MSTORE PUSH1 0x4 ADD PUSH2 0x1067 SWAP2 SWAP1 PUSH2 0x1FA3 JUMP JUMPDEST PUSH1 0x20 PUSH1 0x40 MLOAD DUP1 DUP4 SUB DUP2 DUP7 GAS STATICCALL ISZERO DUP1 ISZERO PUSH2 0x1082 JUMPI RETURNDATASIZE PUSH0 DUP1 RETURNDATACOPY RETURNDATASIZE PUSH0 REVERT JUMPDEST POP POP POP POP PUSH1 0x40 MLOAD RETURNDATASIZE PUSH1 0x1F NOT PUSH1 0x1F DUP3 ADD AND DUP3 ADD DUP1 PUSH1 0x40 MSTORE POP DUP2 ADD SWAP1 PUSH2 0x10A6 SWAP2 SWAP1 PUSH2 0x1FD0 JUMP JUMPDEST PUSH20 0xFFFFFFFFFFFFFFFFFFFFFFFFFFFFFFFFFFFFFFFF AND EQ DUP1 PUSH2 0x115F JUMPI POP PUSH1 0x5 PUSH0 SWAP1 SLOAD SWAP1 PUSH2 0x100 EXP SWAP1 DIV PUSH20 0xFFFFFFFFFFFFFFFFFFFFFFFFFFFFFFFFFFFFFFFF AND PUSH20 0xFFFFFFFFFFFFFFFFFFFFFFFFFFFFFFFFFFFFFFFF AND PUSH4 0xE985E9C5 CALLER ADDRESS PUSH1 0x40 MLOAD DUP4 PUSH4 0xFFFFFFFF AND PUSH1 0xE0 SHL DUP2 MSTORE PUSH1 0x4 ADD PUSH2 0x111F SWAP3 SWAP2 SWAP1 PUSH2 0x2159 JUMP JUMPDEST PUSH1 0x20 PUSH1 0x40 MLOAD DUP1 DUP4 SUB DUP2 DUP7 GAS STATICCALL ISZERO DUP1 ISZERO PUSH2 0x113A JUMPI RETURNDATASIZE PUSH0 DUP1 RETURNDATACOPY RETURNDATASIZE PUSH0 REVERT JUMPDEST POP POP POP POP PUSH1 0x40 MLOAD RETURNDATASIZE PUSH1 0x1F NOT PUSH1 0x1F DUP3 ADD AND DUP3 ADD DUP1 PUSH1 0x40 MSTORE POP DUP2 ADD SWAP1 PUSH2 0x115E SWAP2 SWAP1 PUSH2 0x21B5 JUMP JUMPDEST JUMPDEST PUSH2 0x119E JUMPI PUSH1 0x40 MLOAD PUSH32 0x8C379A000000000000000000000000000000000000000000000000000000000 DUP2 MSTORE PUSH1 0x4 ADD PUSH2 0x1195 SWAP1 PUSH2 0x2250 JUMP JUMPDEST PUSH1 0x40 MLOAD DUP1 SWAP2 SUB SWAP1 REVERT JUMPDEST PUSH32 0x7CDB51E9DBBC205231228146C3246E7F914AA6D4A33170E43ECC8E3593481D1A PUSH1 0x40 MLOAD PUSH2 0x11CB SWAP1 PUSH2 0x22B8 JUMP JUMPDEST PUSH1 0x40 MLOAD DUP1 SWAP2 SUB SWAP1 LOG1 PUSH0 PUSH1 0x3 PUSH0 DUP8 PUSH16 0xFFFFFFFFFFFFFFFFFFFFFFFFFFFFFFFF AND DUP2 MSTORE PUSH1 0x20 ADD SWAP1 DUP2 MSTORE PUSH1 0x20 ADD PUSH0 KECCAK256 SLOAD EQ PUSH2 0x1238 JUMPI PUSH1 0x40 MLOAD PUSH32 0x8C379A000000000000000000000000000000000000000000000000000000000 DUP2 MSTORE PUSH1 0x4 ADD PUSH2 0x122F SWAP1 PUSH2 0x2320 JUMP JUMPDEST PUSH1 0x40 MLOAD DUP1 SWAP2 SUB SWAP1 REVERT JUMPDEST PUSH0 DUP6 CALLER PUSH1 0x40 MLOAD PUSH1 0x20 ADD PUSH2 0x124C SWAP3 SWAP2 SWAP1 PUSH2 0x23B7 JUMP JUMPDEST PUSH1 0x40 MLOAD PUSH1 0x20 DUP2 DUP4 SUB SUB DUP2 MSTORE SWAP1 PUSH1 0x40 MSTORE DUP1 MLOAD SWAP1 PUSH1 0x20 ADD KECCAK256 PUSH0 SHR SWAP1 POP PUSH1 0x40 MLOAD DUP1 PUSH1 0x60 ADD PUSH1 0x40 MSTORE DUP1 CALLER PUSH20 0xFFFFFFFFFFFFFFFFFFFFFFFFFFFFFFFFFFFFFFFF AND DUP2 MSTORE PUSH1 0x20 ADD DUP8 PUSH16 0xFFFFFFFFFFFFFFFFFFFFFFFFFFFFFFFF AND DUP2 MSTORE PUSH1 0x20 ADD DUP7 PUSH16 0xFFFFFFFFFFFFFFFFFFFFFFFFFFFFFFFF AND DUP2 MSTORE POP PUSH1 0x2 PUSH0 DUP4 DUP2 MSTORE PUSH1 0x20 ADD SWAP1 DUP2 MSTORE PUSH1 0x20 ADD PUSH0 KECCAK256 PUSH0 DUP3 ADD MLOAD DUP2 PUSH0 ADD PUSH0 PUSH2 0x100 EXP DUP2 SLOAD DUP2 PUSH20 0xFFFFFFFFFFFFFFFFFFFFFFFFFFFFFFFFFFFFFFFF MUL NOT AND SWAP1 DUP4 PUSH20 0xFFFFFFFFFFFFFFFFFFFFFFFFFFFFFFFFFFFFFFFF AND MUL OR SWAP1 SSTORE POP PUSH1 0x20 DUP3 ADD MLOAD DUP2 PUSH1 0x1 ADD PUSH0 PUSH2 0x100 EXP DUP2 SLOAD DUP2 PUSH16 0xFFFFFFFFFFFFFFFFFFFFFFFFFFFFFFFF MUL NOT AND SWAP1 DUP4 PUSH16 0xFFFFFFFFFFFFFFFFFFFFFFFFFFFFFFFF AND MUL OR SWAP1 SSTORE POP PUSH1 0x40 DUP3 ADD MLOAD DUP2 PUSH1 0x1 ADD PUSH1 0x10 PUSH2 0x100 EXP DUP2 SLOAD DUP2 PUSH16 0xFFFFFFFFFFFFFFFFFFFFFFFFFFFFFFFF MUL NOT AND SWAP1 DUP4 PUSH16 0xFFFFFFFFFFFFFFFFFFFFFFFFFFFFFFFF AND MUL OR SWAP1 SSTORE POP SWAP1 POP POP DUP1 PUSH1 0x3 PUSH0 DUP9 PUSH16 0xFFFFFFFFFFFFFFFFFFFFFFFFFFFFFFFF AND DUP2 MSTORE PUSH1 0x20 ADD SWAP1 DUP2 MSTORE PUSH1 0x20 ADD PUSH0 KECCAK256 DUP2 SWAP1 SSTORE POP PUSH32 0x7CDB51E9DBBC205231228146C3246E7F914AA6D4A33170E43ECC8E3593481D1A PUSH1 0x40 MLOAD PUSH2 0x13E5 SWAP1 PUSH2 0x242C JUMP JUMPDEST PUSH1 0x40 MLOAD DUP1 SWAP2 SUB SWAP1 LOG1 CALLER PUSH20 0xFFFFFFFFFFFFFFFFFFFFFFFFFFFFFFFFFFFFFFFF AND DUP2 PUSH32 0xA3941CFA07EECF2734875AB71CEA0E47395BE644DA6E17B039A7E29EFBA74EF9 DUP9 DUP9 TIMESTAMP PUSH1 0x40 MLOAD PUSH2 0x1438 SWAP4 SWAP3 SWAP2 SWAP1 PUSH2 0x1BC9 JUMP JUMPDEST PUSH1 0x40 MLOAD DUP1 SWAP2 SUB SWAP1 LOG3 DUP6 PUSH16 0xFFFFFFFFFFFFFFFFFFFFFFFFFFFFFFFF AND PUSH32 0x5D3AC5872118B949A1F8DB596134A0E1587ECF18F2203BB1E3EA420C3C3F8FA9 DUP6 DUP6 PUSH1 0x40 MLOAD PUSH2 0x1484 SWAP3 SWAP2 SWAP1 PUSH2 0x2494 JUMP JUMPDEST PUSH1 0x40 MLOAD DUP1 SWAP2 SUB SWAP1 LOG2 POP POP POP POP POP POP JUMP JUMPDEST PUSH1 0x5 PUSH0 SWAP1 SLOAD SWAP1 PUSH2 0x100 EXP SWAP1 DIV PUSH20 0xFFFFFFFFFFFFFFFFFFFFFFFFFFFFFFFFFFFFFFFF AND DUP2 JUMP JUMPDEST PUSH1 0x2 PUSH1 0x20 MSTORE DUP1 PUSH0 MSTORE PUSH1 0x40 PUSH0 KECCAK256 PUSH0 SWAP2 POP SWAP1 POP DUP1 PUSH0 ADD PUSH0 SWAP1 SLOAD SWAP1 PUSH2 0x100 EXP SWAP1 DIV PUSH20 0xFFFFFFFFFFFFFFFFFFFFFFFFFFFFFFFFFFFFFFFF AND SWAP1 DUP1 PUSH1 0x1 ADD PUSH0 SWAP1 SLOAD SWAP1 PUSH2 0x100 EXP SWAP1 DIV PUSH16 0xFFFFFFFFFFFFFFFFFFFFFFFFFFFFFFFF AND SWAP1 DUP1 PUSH1 0x1 ADD PUSH1 0x10 SWAP1 SLOAD SWAP1 PUSH2 0x100 EXP SWAP1 DIV PUSH16 0xFFFFFFFFFFFFFFFFFFFFFFFFFFFFFFFF AND SWAP1 POP DUP4 JUMP JUMPDEST PUSH1 0x4 PUSH1 0x20 MSTORE DUP1 PUSH0 MSTORE PUSH1 0x40 PUSH0 KECCAK256 PUSH0 SWAP2 POP SWAP1 POP SLOAD DUP2 JUMP JUMPDEST PUSH0 DUP1 REVERT JUMPDEST PUSH0 DUP1 REVERT JUMPDEST PUSH0 DUP2 SWAP1 POP SWAP2 SWAP1 POP JUMP JUMPDEST PUSH2 0x1564 DUP2 PUSH2 0x1552 JUMP JUMPDEST DUP2 EQ PUSH2 0x156E JUMPI PUSH0 DUP1 REVERT JUMPDEST POP JUMP JUMPDEST PUSH0 DUP2 CALLDATALOAD SWAP1 POP PUSH2 0x157F DUP2 PUSH2 0x155B JUMP JUMPDEST SWAP3 SWAP2 POP POP JUMP JUMPDEST PUSH0 PUSH1 0x20 DUP3 DUP5 SUB SLT ISZERO PUSH2 0x159A JUMPI PUSH2 0x1599 PUSH2 0x154A JUMP JUMPDEST JUMPDEST PUSH0 PUSH2 0x15A7 DUP5 DUP3 DUP6 ADD PUSH2 0x1571 JUMP JUMPDEST SWAP2 POP POP SWAP3 SWAP2 POP POP JUMP JUMPDEST PUSH0 PUSH20 0xFFFFFFFFFFFFFFFFFFFFFFFFFFFFFFFFFFFFFFFF DUP3 AND SWAP1 POP SWAP2 SWAP1 POP JUMP JUMPDEST PUSH0 PUSH2 0x15D9 DUP3 PUSH2 0x15B0 JUMP JUMPDEST SWAP1 POP SWAP2 SWAP1 POP JUMP JUMPDEST PUSH2 0x15E9 DUP2 PUSH2 0x15CF JUMP JUMPDEST DUP2 EQ PUSH2 0x15F3 JUMPI PUSH0 DUP1 REVERT JUMPDEST POP JUMP JUMPDEST PUSH0 DUP2 CALLDATALOAD SWAP1 POP PUSH2 0x1604 DUP2 PUSH2 0x15E0 JUMP JUMPDEST SWAP3 SWAP2 POP POP JUMP JUMPDEST PUSH0 DUP1 PUSH1 0x40 DUP4 DUP6 SUB SLT ISZERO PUSH2 0x1620 JUMPI PUSH2 0x161F PUSH2 0x154A JUMP JUMPDEST JUMPDEST PUSH0 PUSH2 0x162D DUP6 DUP3 DUP7 ADD PUSH2 0x15F6 JUMP JUMPDEST SWAP3 POP POP PUSH1 0x20 PUSH2 0x163E DUP6 DUP3 DUP7 ADD PUSH2 0x1571 JUMP JUMPDEST SWAP2 POP POP SWAP3 POP SWAP3 SWAP1 POP JUMP JUMPDEST PUSH2 0x1651 DUP2 PUSH2 0x1552 JUMP JUMPDEST DUP3 MSTORE POP POP JUMP JUMPDEST PUSH0 PUSH1 0x20 DUP3 ADD SWAP1 POP PUSH2 0x166A PUSH0 DUP4 ADD DUP5 PUSH2 0x1648 JUMP JUMPDEST SWAP3 SWAP2 POP POP JUMP JUMPDEST PUSH0 DUP2 SWAP1 POP SWAP2 SWAP1 POP JUMP JUMPDEST PUSH0 PUSH2 0x1693 PUSH2 0x168E PUSH2 0x1689 DUP5 PUSH2 0x15B0 JUMP JUMPDEST PUSH2 0x1670 JUMP JUMPDEST PUSH2 0x15B0 JUMP JUMPDEST SWAP1 POP SWAP2 SWAP1 POP JUMP JUMPDEST PUSH0 PUSH2 0x16A4 DUP3 PUSH2 0x1679 JUMP JUMPDEST SWAP1 POP SWAP2 SWAP1 POP JUMP JUMPDEST PUSH0 PUSH2 0x16B5 DUP3 PUSH2 0x169A JUMP JUMPDEST SWAP1 POP SWAP2 SWAP1 POP JUMP JUMPDEST PUSH2 0x16C5 DUP2 PUSH2 0x16AB JUMP JUMPDEST DUP3 MSTORE POP POP JUMP JUMPDEST PUSH0 PUSH1 0x20 DUP3 ADD SWAP1 POP PUSH2 0x16DE PUSH0 DUP4 ADD DUP5 PUSH2 0x16BC JUMP JUMPDEST SWAP3 SWAP2 POP POP JUMP JUMPDEST PUSH0 PUSH1 0x20 DUP3 DUP5 SUB SLT ISZERO PUSH2 0x16F9 JUMPI PUSH2 0x16F8 PUSH2 0x154A JUMP JUMPDEST JUMPDEST PUSH0 PUSH2 0x1706 DUP5 DUP3 DUP6 ADD PUSH2 0x15F6 JUMP JUMPDEST SWAP2 POP POP SWAP3 SWAP2 POP POP JUMP JUMPDEST PUSH0 PUSH2 0x1719 DUP3 PUSH2 0x15B0 JUMP JUMPDEST SWAP1 POP SWAP2 SWAP1 POP JUMP JUMPDEST PUSH2 0x1729 DUP2 PUSH2 0x170F JUMP JUMPDEST DUP3 MSTORE POP POP JUMP JUMPDEST PUSH0 PUSH1 0x20 DUP3 ADD SWAP1 POP PUSH2 0x1742 PUSH0 DUP4 ADD DUP5 PUSH2 0x1720 JUMP JUMPDEST SWAP3 SWAP2 POP POP JUMP JUMPDEST PUSH0 PUSH16 0xFFFFFFFFFFFFFFFFFFFFFFFFFFFFFFFF DUP3 AND SWAP1 POP SWAP2 SWAP1 POP JUMP JUMPDEST PUSH2 0x176C DUP2 PUSH2 0x1748 JUMP JUMPDEST DUP2 EQ PUSH2 0x1776 JUMPI PUSH0 DUP1 REVERT JUMPDEST POP JUMP JUMPDEST PUSH0 DUP2 CALLDATALOAD SWAP1 POP PUSH2 0x1787 DUP2 PUSH2 0x1763 JUMP JUMPDEST SWAP3 SWAP2 POP POP JUMP JUMPDEST PUSH0 DUP1 REVERT JUMPDEST PUSH0 DUP1 REVERT JUMPDEST PUSH0 DUP1 REVERT JUMPDEST PUSH0 DUP1 DUP4 PUSH1 0x1F DUP5 ADD SLT PUSH2 0x17AE JUMPI PUSH2 0x17AD PUSH2 0x178D JUMP JUMPDEST JUMPDEST DUP3 CALLDATALOAD SWAP1 POP PUSH8 0xFFFFFFFFFFFFFFFF DUP2 GT ISZERO PUSH2 0x17CB JUMPI PUSH2 0x17CA PUSH2 0x1791 JUMP JUMPDEST JUMPDEST PUSH1 0x20 DUP4 ADD SWAP2 POP DUP4 PUSH1 0x1 DUP3 MUL DUP4 ADD GT ISZERO PUSH2 0x17E7 JUMPI PUSH2 0x17E6 PUSH2 0x1795 JUMP JUMPDEST JUMPDEST SWAP3 POP SWAP3 SWAP1 POP JUMP JUMPDEST PUSH0 DUP1 PUSH0 DUP1 PUSH1 0x60 DUP6 DUP8 SUB SLT ISZERO PUSH2 0x1806 JUMPI PUSH2 0x1805 PUSH2 0x154A JUMP JUMPDEST JUMPDEST PUSH0 PUSH2 0x1813 DUP8 DUP3 DUP9 ADD PUSH2 0x1779 JUMP JUMPDEST SWAP5 POP POP PUSH1 0x20 PUSH2 0x1824 DUP8 DUP3 DUP9 ADD PUSH2 0x1779 JUMP JUMPDEST SWAP4 POP POP PUSH1 0x40 DUP6 ADD CALLDATALOAD PUSH8 0xFFFFFFFFFFFFFFFF DUP2 GT ISZERO PUSH2 0x1845 JUMPI PUSH2 0x1844 PUSH2 0x154E JUMP JUMPDEST JUMPDEST PUSH2 0x1851 DUP8 DUP3 DUP9 ADD PUSH2 0x1799 JUMP JUMPDEST SWAP3 POP SWAP3 POP POP SWAP3 SWAP6 SWAP2 SWAP5 POP SWAP3 POP JUMP JUMPDEST PUSH0 PUSH2 0x1869 DUP3 PUSH2 0x169A JUMP JUMPDEST SWAP1 POP SWAP2 SWAP1 POP JUMP JUMPDEST PUSH2 0x1879 DUP2 PUSH2 0x185F JUMP JUMPDEST DUP3 MSTORE POP POP JUMP JUMPDEST PUSH0 PUSH1 0x20 DUP3 ADD SWAP1 POP PUSH2 0x1892 PUSH0 DUP4 ADD DUP5 PUSH2 0x1870 JUMP JUMPDEST SWAP3 SWAP2 POP POP JUMP JUMPDEST PUSH2 0x18A1 DUP2 PUSH2 0x15CF JUMP JUMPDEST DUP3 MSTORE POP POP JUMP JUMPDEST PUSH2 0x18B0 DUP2 PUSH2 0x1748 JUMP JUMPDEST DUP3 MSTORE POP POP JUMP JUMPDEST PUSH0 PUSH1 0x60 DUP3 ADD SWAP1 POP PUSH2 0x18C9 PUSH0 DUP4 ADD DUP7 PUSH2 0x1898 JUMP JUMPDEST PUSH2 0x18D6 PUSH1 0x20 DUP4 ADD DUP6 PUSH2 0x18A7 JUMP JUMPDEST PUSH2 0x18E3 PUSH1 0x40 DUP4 ADD DUP5 PUSH2 0x18A7 JUMP JUMPDEST SWAP5 SWAP4 POP POP POP POP JUMP JUMPDEST PUSH0 DUP3 DUP3 MSTORE PUSH1 0x20 DUP3 ADD SWAP1 POP SWAP3 SWAP2 POP POP JUMP JUMPDEST PUSH32 0x5265656E7472616E742063616C6C000000000000000000000000000000000000 PUSH0 DUP3 ADD MSTORE POP JUMP JUMPDEST PUSH0 PUSH2 0x192F PUSH1 0xE DUP4 PUSH2 0x18EB JUMP JUMPDEST SWAP2 POP PUSH2 0x193A DUP3 PUSH2 0x18FB JUMP JUMPDEST PUSH1 0x20 DUP3 ADD SWAP1 POP SWAP2 SWAP1 POP JUMP JUMPDEST PUSH0 PUSH1 0x20 DUP3 ADD SWAP1 POP DUP2 DUP2 SUB PUSH0 DUP4 ADD MSTORE PUSH2 0x195C DUP2 PUSH2 0x1923 JUMP JUMPDEST SWAP1 POP SWAP2 SWAP1 POP JUMP JUMPDEST PUSH32 0x496E76616C6964206F7220696E616374697665206C697374696E670000000000 PUSH0 DUP3 ADD MSTORE POP JUMP JUMPDEST PUSH0 PUSH2 0x1997 PUSH1 0x1B DUP4 PUSH2 0x18EB JUMP JUMPDEST SWAP2 POP PUSH2 0x19A2 DUP3 PUSH2 0x1963 JUMP JUMPDEST PUSH1 0x20 DUP3 ADD SWAP1 POP SWAP2 SWAP1 POP JUMP JUMPDEST PUSH0 PUSH1 0x20 DUP3 ADD SWAP1 POP DUP2 DUP2 SUB PUSH0 DUP4 ADD MSTORE PUSH2 0x19C4 DUP2 PUSH2 0x198B JUMP JUMPDEST SWAP1 POP SWAP2 SWAP1 POP JUMP JUMPDEST PUSH32 0x496E636F7272656374207061796D656E7420616D6F756E740000000000000000 PUSH0 DUP3 ADD MSTORE POP JUMP JUMPDEST PUSH0 PUSH2 0x19FF PUSH1 0x18 DUP4 PUSH2 0x18EB JUMP JUMPDEST SWAP2 POP PUSH2 0x1A0A DUP3 PUSH2 0x19CB JUMP JUMPDEST PUSH1 0x20 DUP3 ADD SWAP1 POP SWAP2 SWAP1 POP JUMP JUMPDEST PUSH0 PUSH1 0x20 DUP3 ADD SWAP1 POP DUP2 DUP2 SUB PUSH0 DUP4 ADD MSTORE PUSH2 0x1A2C DUP2 PUSH2 0x19F3 JUMP JUMPDEST SWAP1 POP SWAP2 SWAP1 POP JUMP JUMPDEST PUSH32 0x4E487B7100000000000000000000000000000000000000000000000000000000 PUSH0 MSTORE PUSH1 0x11 PUSH1 0x4 MSTORE PUSH1 0x24 PUSH0 REVERT JUMPDEST PUSH0 PUSH2 0x1A6A DUP3 PUSH2 0x1552 JUMP JUMPDEST SWAP2 POP PUSH2 0x1A75 DUP4 PUSH2 0x1552 JUMP JUMPDEST SWAP3 POP DUP3 DUP3 MUL PUSH2 0x1A83 DUP2 PUSH2 0x1552 JUMP JUMPDEST SWAP2 POP DUP3 DUP3 DIV DUP5 EQ DUP4 ISZERO OR PUSH2 0x1A9A JUMPI PUSH2 0x1A99 PUSH2 0x1A33 JUMP JUMPDEST JUMPDEST POP SWAP3 SWAP2 POP POP JUMP JUMPDEST PUSH32 0x4E487B7100000000000000000000000000000000000000000000000000000000 PUSH0 MSTORE PUSH1 0x12 PUSH1 0x4 MSTORE PUSH1 0x24 PUSH0 REVERT JUMPDEST PUSH0 PUSH2 0x1AD8 DUP3 PUSH2 0x1552 JUMP JUMPDEST SWAP2 POP PUSH2 0x1AE3 DUP4 PUSH2 0x1552 JUMP JUMPDEST SWAP3 POP DUP3 PUSH2 0x1AF3 JUMPI PUSH2 0x1AF2 PUSH2 0x1AA1 JUMP JUMPDEST JUMPDEST DUP3 DUP3 DIV SWAP1 POP SWAP3 SWAP2 POP POP JUMP JUMPDEST PUSH0 PUSH2 0x1B08 DUP3 PUSH2 0x1552 JUMP JUMPDEST SWAP2 POP PUSH2 0x1B13 DUP4 PUSH2 0x1552 JUMP JUMPDEST SWAP3 POP DUP3 DUP3 SUB SWAP1 POP DUP2 DUP2 GT ISZERO PUSH2 0x1B2B JUMPI PUSH2 0x1B2A PUSH2 0x1A33 JUMP JUMPDEST JUMPDEST SWAP3 SWAP2 POP POP JUMP JUMPDEST PUSH0 PUSH2 0x1B4B PUSH2 0x1B46 PUSH2 0x1B41 DUP5 PUSH2 0x1748 JUMP JUMPDEST PUSH2 0x1670 JUMP JUMPDEST PUSH2 0x1552 JUMP JUMPDEST SWAP1 POP SWAP2 SWAP1 POP JUMP JUMPDEST PUSH2 0x1B5B DUP2 PUSH2 0x1B31 JUMP JUMPDEST DUP3 MSTORE POP POP JUMP JUMPDEST PUSH0 PUSH1 0x60 DUP3 ADD SWAP1 POP PUSH2 0x1B74 PUSH0 DUP4 ADD DUP7 PUSH2 0x1898 JUMP JUMPDEST PUSH2 0x1B81 PUSH1 0x20 DUP4 ADD DUP6 PUSH2 0x1898 JUMP JUMPDEST PUSH2 0x1B8E PUSH1 0x40 DUP4 ADD DUP5 PUSH2 0x1B52 JUMP JUMPDEST SWAP5 SWAP4 POP POP POP POP JUMP JUMPDEST PUSH0 PUSH2 0x1BA0 DUP3 PUSH2 0x1552 JUMP JUMPDEST SWAP2 POP PUSH2 0x1BAB DUP4 PUSH2 0x1552 JUMP JUMPDEST SWAP3 POP DUP3 DUP3 ADD SWAP1 POP DUP1 DUP3 GT ISZERO PUSH2 0x1BC3 JUMPI PUSH2 0x1BC2 PUSH2 0x1A33 JUMP JUMPDEST JUMPDEST SWAP3 SWAP2 POP POP JUMP JUMPDEST PUSH0 PUSH1 0x60 DUP3 ADD SWAP1 POP PUSH2 0x1BDC PUSH0 DUP4 ADD DUP7 PUSH2 0x1B52 JUMP JUMPDEST PUSH2 0x1BE9 PUSH1 0x20 DUP4 ADD DUP6 PUSH2 0x1B52 JUMP JUMPDEST PUSH2 0x1BF6 PUSH1 0x40 DUP4 ADD DUP5 PUSH2 0x1648 JUMP JUMPDEST SWAP5 SWAP4 POP POP POP POP JUMP JUMPDEST PUSH32 0x4E6F2066756E647320746F207769746864726177000000000000000000000000 PUSH0 DUP3 ADD MSTORE POP JUMP JUMPDEST PUSH0 PUSH2 0x1C32 PUSH1 0x14 DUP4 PUSH2 0x18EB JUMP JUMPDEST SWAP2 POP PUSH2 0x1C3D DUP3 PUSH2 0x1BFE JUMP JUMPDEST PUSH1 0x20 DUP3 ADD SWAP1 POP SWAP2 SWAP1 POP JUMP JUMPDEST PUSH0 PUSH1 0x20 DUP3 ADD SWAP1 POP DUP2 DUP2 SUB PUSH0 DUP4 ADD MSTORE PUSH2 0x1C5F DUP2 PUSH2 0x1C26 JUMP JUMPDEST SWAP1 POP SWAP2 SWAP1 POP JUMP JUMPDEST PUSH0 DUP2 SWAP1 POP SWAP3 SWAP2 POP POP JUMP JUMPDEST POP JUMP JUMPDEST PUSH0 PUSH2 0x1C7E PUSH0 DUP4 PUSH2 0x1C66 JUMP JUMPDEST SWAP2 POP PUSH2 0x1C89 DUP3 PUSH2 0x1C70 JUMP JUMPDEST PUSH0 DUP3 ADD SWAP1 POP SWAP2 SWAP1 POP JUMP JUMPDEST PUSH0 PUSH2 0x1C9D DUP3 PUSH2 0x1C73 JUMP JUMPDEST SWAP2 POP DUP2 SWAP1 POP SWAP2 SWAP1 POP JUMP JUMPDEST PUSH32 0x5769746864726177206661696C65640000000000000000000000000000000000 PUSH0 DUP3 ADD MSTORE POP JUMP JUMPDEST PUSH0 PUSH2 0x1CDB PUSH1 0xF DUP4 PUSH2 0x18EB JUMP JUMPDEST SWAP2 POP PUSH2 0x1CE6 DUP3 PUSH2 0x1CA7 JUMP JUMPDEST PUSH1 0x20 DUP3 ADD SWAP1 POP SWAP2 SWAP1 POP JUMP JUMPDEST PUSH0 PUSH1 0x20 DUP3 ADD SWAP1 POP DUP2 DUP2 SUB PUSH0 DUP4 ADD MSTORE PUSH2 0x1D08 DUP2 PUSH2 0x1CCF JUMP JUMPDEST SWAP1 POP SWAP2 SWAP1 POP JUMP JUMPDEST PUSH0 PUSH1 0x40 DUP3 ADD SWAP1 POP PUSH2 0x1D22 PUSH0 DUP4 ADD DUP6 PUSH2 0x1898 JUMP JUMPDEST PUSH2 0x1D2F PUSH1 0x20 DUP4 ADD DUP5 PUSH2 0x1648 JUMP JUMPDEST SWAP4 SWAP3 POP POP POP JUMP JUMPDEST PUSH0 DUP2 MLOAD SWAP1 POP PUSH2 0x1D44 DUP2 PUSH2 0x155B JUMP JUMPDEST SWAP3 SWAP2 POP POP JUMP JUMPDEST PUSH0 PUSH1 0x20 DUP3 DUP5 SUB SLT ISZERO PUSH2 0x1D5F JUMPI PUSH2 0x1D5E PUSH2 0x154A JUMP JUMPDEST JUMPDEST PUSH0 PUSH2 0x1D6C DUP5 DUP3 DUP6 ADD PUSH2 0x1D36 JUMP JUMPDEST SWAP2 POP POP SWAP3 SWAP2 POP POP JUMP JUMPDEST PUSH32 0x596F7520617265206E6F74207468652073656C6C657200000000000000000000 PUSH0 DUP3 ADD MSTORE POP JUMP JUMPDEST PUSH0 PUSH2 0x1DA9 PUSH1 0x16 DUP4 PUSH2 0x18EB JUMP JUMPDEST SWAP2 POP PUSH2 0x1DB4 DUP3 PUSH2 0x1D75 JUMP JUMPDEST PUSH1 0x20 DUP3 ADD SWAP1 POP SWAP2 SWAP1 POP JUMP JUMPDEST PUSH0 PUSH1 0x20 DUP3 ADD SWAP1 POP DUP2 DUP2 SUB PUSH0 DUP4 ADD MSTORE PUSH2 0x1DD6 DUP2 PUSH2 0x1D9D JUMP JUMPDEST SWAP1 POP SWAP2 SWAP1 POP JUMP JUMPDEST PUSH32 0x4F6E6C7920746865206F776E65722063616E20706572666F726D207468697320 PUSH0 DUP3 ADD MSTORE PUSH32 0x616374696F6E0000000000000000000000000000000000000000000000000000 PUSH1 0x20 DUP3 ADD MSTORE POP JUMP JUMPDEST PUSH0 PUSH2 0x1E37 PUSH1 0x26 DUP4 PUSH2 0x18EB JUMP JUMPDEST SWAP2 POP PUSH2 0x1E42 DUP3 PUSH2 0x1DDD JUMP JUMPDEST PUSH1 0x40 DUP3 ADD SWAP1 POP SWAP2 SWAP1 POP JUMP JUMPDEST PUSH0 PUSH1 0x20 DUP3 ADD SWAP1 POP DUP2 DUP2 SUB PUSH0 DUP4 ADD MSTORE PUSH2 0x1E64 DUP2 PUSH2 0x1E2B JUMP JUMPDEST SWAP1 POP SWAP2 SWAP1 POP JUMP JUMPDEST PUSH32 0x436F6D6D697373696F6E2063616E6E6F74206578636565642031303025000000 PUSH0 DUP3 ADD MSTORE POP JUMP JUMPDEST PUSH0 PUSH2 0x1E9F PUSH1 0x1D DUP4 PUSH2 0x18EB JUMP JUMPDEST SWAP2 POP PUSH2 0x1EAA DUP3 PUSH2 0x1E6B JUMP JUMPDEST PUSH1 0x20 DUP3 ADD SWAP1 POP SWAP2 SWAP1 POP JUMP JUMPDEST PUSH0 PUSH1 0x20 DUP3 ADD SWAP1 POP DUP2 DUP2 SUB PUSH0 DUP4 ADD MSTORE PUSH2 0x1ECC DUP2 PUSH2 0x1E93 JUMP JUMPDEST SWAP1 POP SWAP2 SWAP1 POP JUMP JUMPDEST PUSH32 0x5072696365206D7573742062652067726561746572207468616E203000000000 PUSH0 DUP3 ADD MSTORE POP JUMP JUMPDEST PUSH0 PUSH2 0x1F07 PUSH1 0x1C DUP4 PUSH2 0x18EB JUMP JUMPDEST SWAP2 POP PUSH2 0x1F12 DUP3 PUSH2 0x1ED3 JUMP JUMPDEST PUSH1 0x20 DUP3 ADD SWAP1 POP SWAP2 SWAP1 POP JUMP JUMPDEST PUSH0 PUSH1 0x20 DUP3 ADD SWAP1 POP DUP2 DUP2 SUB PUSH0 DUP4 ADD MSTORE PUSH2 0x1F34 DUP2 PUSH2 0x1EFB JUMP JUMPDEST SWAP1 POP SWAP2 SWAP1 POP JUMP JUMPDEST PUSH32 0x50617373656420707269636520636865636B0000000000000000000000000000 PUSH0 DUP3 ADD MSTORE POP JUMP JUMPDEST PUSH0 PUSH2 0x1F6F PUSH1 0x12 DUP4 PUSH2 0x18EB JUMP JUMPDEST SWAP2 POP PUSH2 0x1F7A DUP3 PUSH2 0x1F3B JUMP JUMPDEST PUSH1 0x20 DUP3 ADD SWAP1 POP SWAP2 SWAP1 POP JUMP JUMPDEST PUSH0 PUSH1 0x20 DUP3 ADD SWAP1 POP DUP2 DUP2 SUB PUSH0 DUP4 ADD MSTORE PUSH2 0x1F9C DUP2 PUSH2 0x1F63 JUMP JUMPDEST SWAP1 POP SWAP2 SWAP1 POP JUMP JUMPDEST PUSH0 PUSH1 0x20 DUP3 ADD SWAP1 POP PUSH2 0x1FB6 PUSH0 DUP4 ADD DUP5 PUSH2 0x1B52 JUMP JUMPDEST SWAP3 SWAP2 POP POP JUMP JUMPDEST PUSH0 DUP2 MLOAD SWAP1 POP PUSH2 0x1FCA DUP2 PUSH2 0x15E0 JUMP JUMPDEST SWAP3 SWAP2 POP POP JUMP JUMPDEST PUSH0 PUSH1 0x20 DUP3 DUP5 SUB SLT ISZERO PUSH2 0x1FE5 JUMPI PUSH2 0x1FE4 PUSH2 0x154A JUMP JUMPDEST JUMPDEST PUSH0 PUSH2 0x1FF2 DUP5 DUP3 DUP6 ADD PUSH2 0x1FBC JUMP JUMPDEST SWAP2 POP POP SWAP3 SWAP2 POP POP JUMP JUMPDEST PUSH32 0x4F776E6572207265747269657665640000000000000000000000000000000000 PUSH0 DUP3 ADD MSTORE POP JUMP JUMPDEST PUSH0 PUSH2 0x202F PUSH1 0xF DUP4 PUSH2 0x18EB JUMP JUMPDEST SWAP2 POP PUSH2 0x203A DUP3 PUSH2 0x1FFB JUMP JUMPDEST PUSH1 0x20 DUP3 ADD SWAP1 POP SWAP2 SWAP1 POP JUMP JUMPDEST PUSH0 PUSH1 0x20 DUP3 ADD SWAP1 POP DUP2 DUP2 SUB PUSH0 DUP4 ADD MSTORE PUSH2 0x205C DUP2 PUSH2 0x2023 JUMP JUMPDEST SWAP1 POP SWAP2 SWAP1 POP JUMP JUMPDEST PUSH32 0x596F7520617265206E6F7420746865206F776E6572206F66207468697320746F PUSH0 DUP3 ADD MSTORE PUSH32 0x6B656E0000000000000000000000000000000000000000000000000000000000 PUSH1 0x20 DUP3 ADD MSTORE POP JUMP JUMPDEST PUSH0 PUSH2 0x20BD PUSH1 0x23 DUP4 PUSH2 0x18EB JUMP JUMPDEST SWAP2 POP PUSH2 0x20C8 DUP3 PUSH2 0x2063 JUMP JUMPDEST PUSH1 0x40 DUP3 ADD SWAP1 POP SWAP2 SWAP1 POP JUMP JUMPDEST PUSH0 PUSH1 0x20 DUP3 ADD SWAP1 POP DUP2 DUP2 SUB PUSH0 DUP4 ADD MSTORE PUSH2 0x20EA DUP2 PUSH2 0x20B1 JUMP JUMPDEST SWAP1 POP SWAP2 SWAP1 POP JUMP JUMPDEST PUSH32 0x4F776E6572736869702076657269666965640000000000000000000000000000 PUSH0 DUP3 ADD MSTORE POP JUMP JUMPDEST PUSH0 PUSH2 0x2125 PUSH1 0x12 DUP4 PUSH2 0x18EB JUMP JUMPDEST SWAP2 POP PUSH2 0x2130 DUP3 PUSH2 0x20F1 JUMP JUMPDEST PUSH1 0x20 DUP3 ADD SWAP1 POP SWAP2 SWAP1 POP JUMP JUMPDEST PUSH0 PUSH1 0x20 DUP3 ADD SWAP1 POP DUP2 DUP2 SUB PUSH0 DUP4 ADD MSTORE PUSH2 0x2152 DUP2 PUSH2 0x2119 JUMP JUMPDEST SWAP1 POP SWAP2 SWAP1 POP JUMP JUMPDEST PUSH0 PUSH1 0x40 DUP3 ADD SWAP1 POP PUSH2 0x216C PUSH0 DUP4 ADD DUP6 PUSH2 0x1898 JUMP JUMPDEST PUSH2 0x2179 PUSH1 0x20 DUP4 ADD DUP5 PUSH2 0x1898 JUMP JUMPDEST SWAP4 SWAP3 POP POP POP JUMP JUMPDEST PUSH0 DUP2 ISZERO ISZERO SWAP1 POP SWAP2 SWAP1 POP JUMP JUMPDEST PUSH2 0x2194 DUP2 PUSH2 0x2180 JUMP JUMPDEST DUP2 EQ PUSH2 0x219E JUMPI PUSH0 DUP1 REVERT JUMPDEST POP JUMP JUMPDEST PUSH0 DUP2 MLOAD SWAP1 POP PUSH2 0x21AF DUP2 PUSH2 0x218B JUMP JUMPDEST SWAP3 SWAP2 POP POP JUMP JUMPDEST PUSH0 PUSH1 0x20 DUP3 DUP5 SUB SLT ISZERO PUSH2 0x21CA JUMPI PUSH2 0x21C9 PUSH2 0x154A JUMP JUMPDEST JUMPDEST PUSH0 PUSH2 0x21D7 DUP5 DUP3 DUP6 ADD PUSH2 0x21A1 JUMP JUMPDEST SWAP2 POP POP SWAP3 SWAP2 POP POP JUMP JUMPDEST PUSH32 0x4D61726B6574706C616365206973206E6F7420617070726F76656420746F2074 PUSH0 DUP3 ADD MSTORE PUSH32 0x72616E73666572207468697320746F6B656E0000000000000000000000000000 PUSH1 0x20 DUP3 ADD MSTORE POP JUMP JUMPDEST PUSH0 PUSH2 0x223A PUSH1 0x32 DUP4 PUSH2 0x18EB JUMP JUMPDEST SWAP2 POP PUSH2 0x2245 DUP3 PUSH2 0x21E0 JUMP JUMPDEST PUSH1 0x40 DUP3 ADD SWAP1 POP SWAP2 SWAP1 POP JUMP JUMPDEST PUSH0 PUSH1 0x20 DUP3 ADD SWAP1 POP DUP2 DUP2 SUB PUSH0 DUP4 ADD MSTORE PUSH2 0x2267 DUP2 PUSH2 0x222E JUMP JUMPDEST SWAP1 POP SWAP2 SWAP1 POP JUMP JUMPDEST PUSH32 0x417070726F76616C207665726966696564000000000000000000000000000000 PUSH0 DUP3 ADD MSTORE POP JUMP JUMPDEST PUSH0 PUSH2 0x22A2 PUSH1 0x11 DUP4 PUSH2 0x18EB JUMP JUMPDEST SWAP2 POP PUSH2 0x22AD DUP3 PUSH2 0x226E JUMP JUMPDEST PUSH1 0x20 DUP3 ADD SWAP1 POP SWAP2 SWAP1 POP JUMP JUMPDEST PUSH0 PUSH1 0x20 DUP3 ADD SWAP1 POP DUP2 DUP2 SUB PUSH0 DUP4 ADD MSTORE PUSH2 0x22CF DUP2 PUSH2 0x2296 JUMP JUMPDEST SWAP1 POP SWAP2 SWAP1 POP JUMP JUMPDEST PUSH32 0x546F6B656E20697320616C7265616479206C6973746564000000000000000000 PUSH0 DUP3 ADD MSTORE POP JUMP JUMPDEST PUSH0 PUSH2 0x230A PUSH1 0x17 DUP4 PUSH2 0x18EB JUMP JUMPDEST SWAP2 POP PUSH2 0x2315 DUP3 PUSH2 0x22D6 JUMP JUMPDEST PUSH1 0x20 DUP3 ADD SWAP1 POP SWAP2 SWAP1 POP JUMP JUMPDEST PUSH0 PUSH1 0x20 DUP3 ADD SWAP1 POP DUP2 DUP2 SUB PUSH0 DUP4 ADD MSTORE PUSH2 0x2337 DUP2 PUSH2 0x22FE JUMP JUMPDEST SWAP1 POP SWAP2 SWAP1 POP JUMP JUMPDEST PUSH0 DUP2 PUSH1 0x80 SHL SWAP1 POP SWAP2 SWAP1 POP JUMP JUMPDEST PUSH0 PUSH2 0x2354 DUP3 PUSH2 0x233E JUMP JUMPDEST SWAP1 POP SWAP2 SWAP1 POP JUMP JUMPDEST PUSH2 0x236C PUSH2 0x2367 DUP3 PUSH2 0x1748 JUMP JUMPDEST PUSH2 0x234A JUMP JUMPDEST DUP3 MSTORE POP POP JUMP JUMPDEST PUSH0 DUP2 PUSH1 0x60 SHL SWAP1 POP SWAP2 SWAP1 POP JUMP JUMPDEST PUSH0 PUSH2 0x2388 DUP3 PUSH2 0x2372 JUMP JUMPDEST SWAP1 POP SWAP2 SWAP1 POP JUMP JUMPDEST PUSH0 PUSH2 0x2399 DUP3 PUSH2 0x237E JUMP JUMPDEST SWAP1 POP SWAP2 SWAP1 POP JUMP JUMPDEST PUSH2 0x23B1 PUSH2 0x23AC DUP3 PUSH2 0x15CF JUMP JUMPDEST PUSH2 0x238F JUMP JUMPDEST DUP3 MSTORE POP POP JUMP JUMPDEST PUSH0 PUSH2 0x23C2 DUP3 DUP6 PUSH2 0x235B JUMP JUMPDEST PUSH1 0x10 DUP3 ADD SWAP2 POP PUSH2 0x23D2 DUP3 DUP5 PUSH2 0x23A0 JUMP JUMPDEST PUSH1 0x14 DUP3 ADD SWAP2 POP DUP2 SWAP1 POP SWAP4 SWAP3 POP POP POP JUMP JUMPDEST PUSH32 0x556E69717565206C697374696E67204944207665726966696564000000000000 PUSH0 DUP3 ADD MSTORE POP JUMP JUMPDEST PUSH0 PUSH2 0x2416 PUSH1 0x1A DUP4 PUSH2 0x18EB JUMP JUMPDEST SWAP2 POP PUSH2 0x2421 DUP3 PUSH2 0x23E2 JUMP JUMPDEST PUSH1 0x20 DUP3 ADD SWAP1 POP SWAP2 SWAP1 POP JUMP JUMPDEST PUSH0 PUSH1 0x20 DUP3 ADD SWAP1 POP DUP2 DUP2 SUB PUSH0 DUP4 ADD MSTORE PUSH2 0x2443 DUP2 PUSH2 0x240A JUMP JUMPDEST SWAP1 POP SWAP2 SWAP1 POP JUMP JUMPDEST DUP3 DUP2 DUP4 CALLDATACOPY PUSH0 DUP4 DUP4 ADD MSTORE POP POP POP JUMP JUMPDEST PUSH0 PUSH1 0x1F NOT PUSH1 0x1F DUP4 ADD AND SWAP1 POP SWAP2 SWAP1 POP JUMP JUMPDEST PUSH0 PUSH2 0x2473 DUP4 DUP6 PUSH2 0x18EB JUMP JUMPDEST SWAP4 POP PUSH2 0x2480 DUP4 DUP6 DUP5 PUSH2 0x244A JUMP JUMPDEST PUSH2 0x2489 DUP4 PUSH2 0x2458 JUMP JUMPDEST DUP5 ADD SWAP1 POP SWAP4 SWAP3 POP POP POP JUMP JUMPDEST PUSH0 PUSH1 0x20 DUP3 ADD SWAP1 POP DUP2 DUP2 SUB PUSH0 DUP4 ADD MSTORE PUSH2 0x24AD DUP2 DUP5 DUP7 PUSH2 0x2468 JUMP JUMPDEST SWAP1 POP SWAP4 SWAP3 POP POP POP JUMP INVALID LOG2 PUSH5 0x6970667358 0x22 SLT KECCAK256 PUSH13 0xEACC0A599E04AEAF5C91703C90 0xE6 EXTCODECOPY SLT 0x1F PUSH21 0xA3E3C24B366F3D2755F99882BF64736F6C63430008 AND STOP CALLER "
				},
				"gasEstimates": {
					"creation": {
						"codeDepositCost": "1890400",
						"executionCost": "infinite",
						"totalCost": "infinite"
					},
					"external": {
						"balanceOf(address)": "3270",
						"cancelListing(uint256)": "69496",
						"commissionPercent()": "2470",
						"createListing(uint128,uint128,string)": "infinite",
						"listings(uint256)": "infinite",
						"nftContract()": "infinite",
						"nftEnumerable()": "infinite",
						"owner()": "2572",
						"pendingWithdrawals(address)": "2890",
						"purchaseListing(uint256)": "infinite",
						"setCommissionPercent(uint256)": "infinite",
						"tokenOfOwnerByIndex(address,uint256)": "infinite",
						"withdrawFunds()": "infinite"
					}
				},
				"methodIdentifiers": {
					"balanceOf(address)": "70a08231",
					"cancelListing(uint256)": "305a67a8",
					"commissionPercent()": "77d3550b",
					"createListing(uint128,uint128,string)": "a6b77511",
					"listings(uint256)": "de74e57b",
					"nftContract()": "d56d229d",
					"nftEnumerable()": "51e61b25",
					"owner()": "8da5cb5b",
					"pendingWithdrawals(address)": "f3f43703",
					"purchaseListing(uint256)": "169d5a7d",
					"setCommissionPercent(uint256)": "404a9ab8",
					"tokenOfOwnerByIndex(address,uint256)": "2f745c59",
					"withdrawFunds()": "24600fc3"
				}
			},
			"storageLayout": {
				"storage": [
					{
						"astId": 176,
						"contract": "contracts/Orders.sol:Marketplace",
						"label": "owner",
						"offset": 0,
						"slot": "0",
						"type": "t_address_payable"
					},
					{
						"astId": 179,
						"contract": "contracts/Orders.sol:Marketplace",
						"label": "commissionPercent",
						"offset": 0,
						"slot": "1",
						"type": "t_uint256"
					},
					{
						"astId": 185,
						"contract": "contracts/Orders.sol:Marketplace",
						"label": "listings",
						"offset": 0,
						"slot": "2",
						"type": "t_mapping(t_uint256,t_struct(Listing)173_storage)"
					},
					{
						"astId": 190,
						"contract": "contracts/Orders.sol:Marketplace",
						"label": "tokenToListingId",
						"offset": 0,
						"slot": "3",
						"type": "t_mapping(t_uint256,t_uint256)"
					},
					{
						"astId": 195,
						"contract": "contracts/Orders.sol:Marketplace",
						"label": "pendingWithdrawals",
						"offset": 0,
						"slot": "4",
						"type": "t_mapping(t_address,t_uint256)"
					},
					{
						"astId": 199,
						"contract": "contracts/Orders.sol:Marketplace",
						"label": "nftContract",
						"offset": 0,
						"slot": "5",
						"type": "t_contract(IERC721)116"
					},
					{
						"astId": 203,
						"contract": "contracts/Orders.sol:Marketplace",
						"label": "nftEnumerable",
						"offset": 0,
						"slot": "6",
						"type": "t_contract(IERC721Enumerable)148"
					},
					{
						"astId": 272,
						"contract": "contracts/Orders.sol:Marketplace",
						"label": "unlocked",
						"offset": 0,
						"slot": "7",
						"type": "t_uint256"
					}
				],
				"types": {
					"t_address": {
						"encoding": "inplace",
						"label": "address",
						"numberOfBytes": "20"
					},
					"t_address_payable": {
						"encoding": "inplace",
						"label": "address payable",
						"numberOfBytes": "20"
					},
					"t_contract(IERC721)116": {
						"encoding": "inplace",
						"label": "contract IERC721",
						"numberOfBytes": "20"
					},
					"t_contract(IERC721Enumerable)148": {
						"encoding": "inplace",
						"label": "contract IERC721Enumerable",
						"numberOfBytes": "20"
					},
					"t_mapping(t_address,t_uint256)": {
						"encoding": "mapping",
						"key": "t_address",
						"label": "mapping(address => uint256)",
						"numberOfBytes": "32",
						"value": "t_uint256"
					},
					"t_mapping(t_uint256,t_struct(Listing)173_storage)": {
						"encoding": "mapping",
						"key": "t_uint256",
						"label": "mapping(uint256 => struct Marketplace.Listing)",
						"numberOfBytes": "32",
						"value": "t_struct(Listing)173_storage"
					},
					"t_mapping(t_uint256,t_uint256)": {
						"encoding": "mapping",
						"key": "t_uint256",
						"label": "mapping(uint256 => uint256)",
						"numberOfBytes": "32",
						"value": "t_uint256"
					},
					"t_struct(Listing)173_storage": {
						"encoding": "inplace",
						"label": "struct Marketplace.Listing",
						"members": [
							{
								"astId": 168,
								"contract": "contracts/Orders.sol:Marketplace",
								"label": "seller",
								"offset": 0,
								"slot": "0",
								"type": "t_address"
							},
							{
								"astId": 170,
								"contract": "contracts/Orders.sol:Marketplace",
								"label": "tokenId",
								"offset": 0,
								"slot": "1",
								"type": "t_uint128"
							},
							{
								"astId": 172,
								"contract": "contracts/Orders.sol:Marketplace",
								"label": "price",
								"offset": 16,
								"slot": "1",
								"type": "t_uint128"
							}
						],
						"numberOfBytes": "64"
					},
					"t_uint128": {
						"encoding": "inplace",
						"label": "uint128",
						"numberOfBytes": "16"
					},
					"t_uint256": {
						"encoding": "inplace",
						"label": "uint256",
						"numberOfBytes": "32"
					}
				}
			},
			"userdoc": {
				"events": {
					"CommissionUpdated(uint256)": {
						"notice": "Event emitted when the marketplace commission is updated."
					},
					"FundsWithdrawn(uint256,address)": {
						"notice": "Event emitted when funds are withdrawn from the contract."
					},
					"ListingCancelled(uint256,address)": {
						"notice": "Event emitted when a listing is cancelled."
					},
					"ListingCreated(uint256,address,uint256,uint256,uint256)": {
						"notice": "Event emitted when a new listing is created."
					},
					"PurchaseCompleted(uint256,address,uint256,uint256,uint256)": {
						"notice": "Event emitted when an NFT is purchased."
					},
					"TokenCreated(uint256,string)": {
						"notice": "Event emitted when a token is created"
					}
				},
				"kind": "user",
				"methods": {
					"cancelListing(uint256)": {
						"notice": "Cancels an active listing."
					},
					"commissionPercent()": {
						"notice": "Commission percentage charged by the marketplace."
					},
					"createListing(uint128,uint128,string)": {
						"notice": "Creates a listing to sell an NFT."
					},
					"nftContract()": {
						"notice": "Interface for the ERC721 token contract."
					},
					"nftEnumerable()": {
						"notice": "Interface for enumerable ERC721 functionality."
					},
					"owner()": {
						"notice": "Owner of the marketplace."
					},
					"purchaseListing(uint256)": {
						"notice": "Purchases an NFT from an active listing."
					},
					"setCommissionPercent(uint256)": {
						"notice": "Updates the marketplace commission percentage."
					},
					"tokenOfOwnerByIndex(address,uint256)": {
						"notice": "Returns the token ID owned by `_owner` at a specific `index`."
					},
					"withdrawFunds()": {
						"notice": "Withdraws all funds from the contract."
					}
				},
				"version": 1
			}
		}
	}
}