{
	"contracts/Orders.sol": {
		"Marketplace": {
			"abi": [
				{
					"inputs": [
						{
							"internalType": "address",
							"name": "_nftContractAddress",
							"type": "address"
						},
						{
							"internalType": "uint256",
							"name": "_commissionPercent",
							"type": "uint256"
						}
					],
					"stateMutability": "nonpayable",
					"type": "constructor"
				},
				{
					"inputs": [],
					"name": "AlreadyListed",
					"type": "error"
				},
				{
					"inputs": [],
					"name": "CannotBuyOwnListing",
					"type": "error"
				},
				{
					"inputs": [
						{
							"internalType": "uint256",
							"name": "_amount",
							"type": "uint256"
						},
						{
							"internalType": "uint256",
							"name": "_pendingWithdrawals",
							"type": "uint256"
						}
					],
					"name": "InsufficientFunds",
					"type": "error"
				},
				{
					"inputs": [
						{
							"internalType": "uint256",
							"name": "_price",
							"type": "uint256"
						},
						{
							"internalType": "uint256",
							"name": "_amount",
							"type": "uint256"
						}
					],
					"name": "InsufficientPayment",
					"type": "error"
				},
				{
					"inputs": [],
					"name": "NotActive",
					"type": "error"
				},
				{
					"inputs": [],
					"name": "NotApproved",
					"type": "error"
				},
				{
					"inputs": [],
					"name": "NotEnoughFunds",
					"type": "error"
				},
				{
					"inputs": [
						{
							"internalType": "address",
							"name": "_owner",
							"type": "address"
						}
					],
					"name": "NotOwner",
					"type": "error"
				},
				{
					"inputs": [
						{
							"internalType": "address",
							"name": "_seller",
							"type": "address"
						}
					],
					"name": "NotSeller",
					"type": "error"
				},
				{
					"inputs": [
						{
							"internalType": "address",
							"name": "_ownerToken",
							"type": "address"
						}
					],
					"name": "NotTokenOwner",
					"type": "error"
				},
				{
					"anonymous": false,
					"inputs": [
						{
							"indexed": false,
							"internalType": "uint256",
							"name": "newPercent",
							"type": "uint256"
						}
					],
					"name": "CommissionUpdated",
					"type": "event"
				},
				{
					"anonymous": false,
					"inputs": [
						{
							"indexed": false,
							"internalType": "uint256",
							"name": "amount",
							"type": "uint256"
						},
						{
							"indexed": true,
							"internalType": "address",
							"name": "recipient",
							"type": "address"
						}
					],
					"name": "FundsWithdrawn",
					"type": "event"
				},
				{
					"anonymous": false,
					"inputs": [
						{
							"indexed": true,
							"internalType": "uint256",
							"name": "id",
							"type": "uint256"
						},
						{
							"indexed": true,
							"internalType": "address",
							"name": "seller",
							"type": "address"
						}
					],
					"name": "ListingCancelled",
					"type": "event"
				},
				{
					"anonymous": false,
					"inputs": [
						{
							"indexed": true,
							"internalType": "uint256",
							"name": "id",
							"type": "uint256"
						},
						{
							"indexed": true,
							"internalType": "address",
							"name": "seller",
							"type": "address"
						},
						{
							"indexed": false,
							"internalType": "uint256",
							"name": "tokenId",
							"type": "uint256"
						},
						{
							"indexed": false,
							"internalType": "uint256",
							"name": "price",
							"type": "uint256"
						},
						{
							"indexed": false,
							"internalType": "uint256",
							"name": "timestamp",
							"type": "uint256"
						}
					],
					"name": "ListingCreated",
					"type": "event"
				},
				{
					"anonymous": false,
					"inputs": [
						{
							"indexed": true,
							"internalType": "uint256",
							"name": "tokenID",
							"type": "uint256"
						},
						{
							"indexed": true,
							"internalType": "address",
							"name": "owner",
							"type": "address"
						},
						{
							"indexed": false,
							"internalType": "uint256",
							"name": "timestamp",
							"type": "uint256"
						}
					],
					"name": "NFTDelete",
					"type": "event"
				},
				{
					"anonymous": false,
					"inputs": [
						{
							"indexed": true,
							"internalType": "uint256",
							"name": "id",
							"type": "uint256"
						},
						{
							"indexed": true,
							"internalType": "address",
							"name": "buyer",
							"type": "address"
						},
						{
							"indexed": false,
							"internalType": "uint256",
							"name": "tokenId",
							"type": "uint256"
						},
						{
							"indexed": false,
							"internalType": "uint256",
							"name": "price",
							"type": "uint256"
						},
						{
							"indexed": false,
							"internalType": "uint256",
							"name": "timestamp",
							"type": "uint256"
						}
					],
					"name": "PurchaseCompleted",
					"type": "event"
				},
				{
					"inputs": [],
					"name": "MAX_COMMISSION",
					"outputs": [
						{
							"internalType": "uint256",
							"name": "",
							"type": "uint256"
						}
					],
					"stateMutability": "view",
					"type": "function"
				},
				{
					"inputs": [
						{
							"internalType": "uint256",
							"name": "_listingId",
							"type": "uint256"
						}
					],
					"name": "cancelListing",
					"outputs": [],
					"stateMutability": "nonpayable",
					"type": "function"
				},
				{
					"inputs": [],
					"name": "commissionPercent",
					"outputs": [
						{
							"internalType": "uint256",
							"name": "",
							"type": "uint256"
						}
					],
					"stateMutability": "view",
					"type": "function"
				},
				{
					"inputs": [
						{
							"internalType": "uint128",
							"name": "_price",
							"type": "uint128"
						},
						{
							"internalType": "string",
							"name": "_ipfsHash",
							"type": "string"
						}
					],
					"name": "createListing",
					"outputs": [],
					"stateMutability": "nonpayable",
					"type": "function"
				},
				{
					"inputs": [
						{
							"internalType": "uint256",
							"name": "_tokenId",
							"type": "uint256"
						}
					],
					"name": "deleteListing",
					"outputs": [],
					"stateMutability": "nonpayable",
					"type": "function"
				},
				{
					"inputs": [],
					"name": "fileHash",
					"outputs": [
						{
							"internalType": "string",
							"name": "",
							"type": "string"
						}
					],
					"stateMutability": "view",
					"type": "function"
				},
				{
					"inputs": [
						{
							"internalType": "uint256",
							"name": "_tokenId",
							"type": "uint256"
						}
					],
					"name": "getListingId",
					"outputs": [
						{
							"internalType": "uint256",
							"name": "",
							"type": "uint256"
						}
					],
					"stateMutability": "view",
					"type": "function"
				},
				{
					"inputs": [
						{
							"internalType": "address",
							"name": "_seller",
							"type": "address"
						}
					],
					"name": "getListingsBySeller",
					"outputs": [
						{
							"components": [
								{
									"internalType": "address",
									"name": "seller",
									"type": "address"
								},
								{
									"internalType": "uint256",
									"name": "tokenId",
									"type": "uint256"
								},
								{
									"internalType": "uint256",
									"name": "price",
									"type": "uint256"
								},
								{
									"internalType": "bool",
									"name": "isActive",
									"type": "bool"
								}
							],
							"internalType": "struct Marketplace.Listing[]",
							"name": "",
							"type": "tuple[]"
						}
					],
					"stateMutability": "view",
					"type": "function"
				},
				{
					"inputs": [
						{
							"internalType": "uint256",
							"name": "_tokenId",
							"type": "uint256"
						}
					],
					"name": "isTokenListed",
					"outputs": [
						{
							"internalType": "bool",
							"name": "",
							"type": "bool"
						}
					],
					"stateMutability": "view",
					"type": "function"
				},
				{
					"inputs": [
						{
							"internalType": "uint256",
							"name": "",
							"type": "uint256"
						}
					],
					"name": "listings",
					"outputs": [
						{
							"internalType": "address",
							"name": "seller",
							"type": "address"
						},
						{
							"internalType": "uint256",
							"name": "tokenId",
							"type": "uint256"
						},
						{
							"internalType": "uint256",
							"name": "price",
							"type": "uint256"
						},
						{
							"internalType": "bool",
							"name": "isActive",
							"type": "bool"
						}
					],
					"stateMutability": "view",
					"type": "function"
				},
				{
					"inputs": [],
					"name": "nftContract",
					"outputs": [
						{
							"internalType": "contract IERC721",
							"name": "",
							"type": "address"
						}
					],
					"stateMutability": "view",
					"type": "function"
				},
				{
					"inputs": [],
					"name": "nftEnumerable",
					"outputs": [
						{
							"internalType": "contract IERC721Enumerable",
							"name": "",
							"type": "address"
						}
					],
					"stateMutability": "view",
					"type": "function"
				},
				{
					"inputs": [],
					"name": "owner",
					"outputs": [
						{
							"internalType": "address payable",
							"name": "",
							"type": "address"
						}
					],
					"stateMutability": "view",
					"type": "function"
				},
				{
					"inputs": [
						{
							"internalType": "address",
							"name": "",
							"type": "address"
						}
					],
					"name": "pendingWithdrawals",
					"outputs": [
						{
							"internalType": "uint256",
							"name": "",
							"type": "uint256"
						}
					],
					"stateMutability": "view",
					"type": "function"
				},
				{
					"inputs": [
						{
							"internalType": "uint256",
							"name": "_listingId",
							"type": "uint256"
						}
					],
					"name": "purchaseListing",
					"outputs": [],
					"stateMutability": "payable",
					"type": "function"
				},
				{
					"inputs": [
						{
							"internalType": "uint256",
							"name": "_newPercent",
							"type": "uint256"
						}
					],
					"name": "setCommissionPercent",
					"outputs": [],
					"stateMutability": "nonpayable",
					"type": "function"
				},
				{
					"inputs": [],
					"name": "tokenCounter",
					"outputs": [
						{
							"internalType": "uint256",
							"name": "",
							"type": "uint256"
						}
					],
					"stateMutability": "view",
					"type": "function"
				},
				{
					"inputs": [
						{
							"internalType": "address",
							"name": "_owner",
							"type": "address"
						},
						{
							"internalType": "uint256",
							"name": "index",
							"type": "uint256"
						}
					],
					"name": "tokenOfOwnerByIndex",
					"outputs": [
						{
							"internalType": "uint256",
							"name": "",
							"type": "uint256"
						}
					],
					"stateMutability": "view",
					"type": "function"
				},
				{
					"inputs": [
						{
							"internalType": "uint256",
							"name": "_tokenId",
							"type": "uint256"
						}
					],
					"name": "tokenURI",
					"outputs": [
						{
							"internalType": "string",
							"name": "",
							"type": "string"
						}
					],
					"stateMutability": "view",
					"type": "function"
				},
				{
					"inputs": [
						{
							"internalType": "address payable",
							"name": "_to",
							"type": "address"
						},
						{
							"internalType": "uint256",
							"name": "_amount",
							"type": "uint256"
						}
					],
					"name": "withdraw",
					"outputs": [],
					"stateMutability": "nonpayable",
					"type": "function"
				},
				{
					"inputs": [],
					"name": "withdrawFunds",
					"outputs": [],
					"stateMutability": "nonpayable",
					"type": "function"
				},
				{
					"stateMutability": "payable",
					"type": "receive"
				}
			],
			"devdoc": {
				"details": "This contract facilitates the listing and sale of ERC721 tokens with added enumerable support.",
				"errors": {
					"NotOwner(address)": [
						{
							"details": "Custom errors"
						}
					]
				},
				"kind": "dev",
				"methods": {
					"cancelListing(uint256)": {
						"params": {
							"_listingId": "ID of the listing to cancel."
						}
					},
					"constructor": {
						"details": "Initializes the marketplace with an ERC721 contract and commission percentage.",
						"params": {
							"_commissionPercent": "Marketplace commission percentage (in basis points).",
							"_nftContractAddress": "Address of the ERC721 token contract."
						}
					},
					"deleteListing(uint256)": {
						"params": {
							"_tokenId": "The token ID to delete."
						}
					},
					"getListingId(uint256)": {
						"params": {
							"_tokenId": "The token ID to check."
						},
						"returns": {
							"_0": "The listing ID if the token is listed, 0 otherwise."
						}
					},
					"getListingsBySeller(address)": {
						"params": {
							"_seller": "The address of the seller."
						},
						"returns": {
							"_0": "Array of seller's listings."
						}
					},
					"isTokenListed(uint256)": {
						"params": {
							"_tokenId": "The token ID to check."
						},
						"returns": {
							"_0": "bool Whether the token is listed."
						}
					},
					"purchaseListing(uint256)": {
						"params": {
							"_listingId": "ID of the listing to purchase."
						}
					},
					"setCommissionPercent(uint256)": {
						"params": {
							"_newPercent": "New commission percentage in basis points."
						}
					},
					"tokenOfOwnerByIndex(address,uint256)": {
						"params": {
							"_owner": "Address of the token owner.",
							"index": "Index in the owner's token list."
						},
						"returns": {
							"_0": "The token ID at the given index."
						}
					},
					"tokenURI(uint256)": {
						"params": {
							"_tokenId": "ID of the token to get the URI for."
						},
						"returns": {
							"_0": "The URI for the token."
						}
					},
					"withdraw(address,uint256)": {
						"params": {
							"_amount": "Amount of funds to withdraw.",
							"_to": "Address to send the funds to."
						}
					}
				},
				"stateVariables": {
					"_tokenURIs": {
						"details": "Token URIs"
					},
					"listings": {
						"details": "Stores all listings by their unique ID."
					},
					"pendingWithdrawals": {
						"details": "Pending withdrawals for sellers and owner."
					},
					"sellerListings": {
						"details": "Maps seller addresses to their active listings"
					},
					"tokenToListingId": {
						"details": "Maps token IDs to their active listing ID."
					}
				},
				"title": "NFT Marketplace",
				"version": 1
			},
			"evm": {
				"assembly": "    /* \"contracts/Orders.sol\":344:12847  contract Marketplace {... */\n  mstore(0x40, 0xe0)\n    /* \"contracts/Orders.sol\":4544:5018  constructor(address _nftContractAddress, uint256 _commissionPercent) {... */\n  callvalue\n  dup1\n  iszero\n  tag_1\n  jumpi\n  0x00\n  dup1\n  revert\ntag_1:\n  pop\n  mload(0x40)\n  sub(codesize, bytecodeSize)\n  dup1\n  bytecodeSize\n  dup4\n  codecopy\n  dup2\n  dup2\n  add\n  0x40\n  mstore\n  dup2\n  add\n  swap1\n  tag_2\n  swap2\n  swap1\n  tag_3\n  jump\t// in\ntag_2:\n    /* \"contracts/Orders.sol\":4663:4664  0 */\n  0x00\n    /* \"contracts/Orders.sol\":4632:4665  _nftContractAddress != address(0) */\n  0xffffffffffffffffffffffffffffffffffffffff\n  and\n    /* \"contracts/Orders.sol\":4632:4651  _nftContractAddress */\n  dup3\n    /* \"contracts/Orders.sol\":4632:4665  _nftContractAddress != address(0) */\n  0xffffffffffffffffffffffffffffffffffffffff\n  and\n  sub\n    /* \"contracts/Orders.sol\":4624:4689  require(_nftContractAddress != address(0), \"Invalid NFT address\") */\n  tag_6\n  jumpi\n  mload(0x40)\n  0x08c379a000000000000000000000000000000000000000000000000000000000\n  dup2\n  mstore\n  0x04\n  add\n  tag_7\n  swap1\n  tag_8\n  jump\t// in\ntag_7:\n  mload(0x40)\n  dup1\n  swap2\n  sub\n  swap1\n  revert\ntag_6:\n    /* \"contracts/Orders.sol\":2157:2161  5000 */\n  0x1388\n    /* \"contracts/Orders.sol\":4708:4726  _commissionPercent */\n  dup2\n    /* \"contracts/Orders.sol\":4708:4744  _commissionPercent <= MAX_COMMISSION */\n  gt\n  iszero\n    /* \"contracts/Orders.sol\":4700:4768  require(_commissionPercent <= MAX_COMMISSION, \"Commission too high\") */\n  tag_9\n  jumpi\n  mload(0x40)\n  0x08c379a000000000000000000000000000000000000000000000000000000000\n  dup2\n  mstore\n  0x04\n  add\n  tag_10\n  swap1\n  tag_11\n  jump\t// in\ntag_10:\n  mload(0x40)\n  dup1\n  swap2\n  sub\n  swap1\n  revert\ntag_9:\n    /* \"contracts/Orders.sol\":4804:4805  0 */\n  0x00\n    /* \"contracts/Orders.sol\":4789:4801  tokenCounter */\n  dup1\n    /* \"contracts/Orders.sol\":4789:4805  tokenCounter = 0 */\n  dup2\n  swap1\n  sstore\n  pop\n    /* \"contracts/Orders.sol\":4832:4842  msg.sender */\n  caller\n    /* \"contracts/Orders.sol\":4816:4843  owner = payable(msg.sender) */\n  0xffffffffffffffffffffffffffffffffffffffff\n  and\n  0x80\n  dup2\n  0xffffffffffffffffffffffffffffffffffffffff\n  and\n  dup2\n  mstore\n  pop\n  pop\n    /* \"contracts/Orders.sol\":4876:4895  _nftContractAddress */\n  dup2\n    /* \"contracts/Orders.sol\":4854:4896  nftContract = IERC721(_nftContractAddress) */\n  0xffffffffffffffffffffffffffffffffffffffff\n  and\n  0xa0\n  dup2\n  0xffffffffffffffffffffffffffffffffffffffff\n  and\n  dup2\n  mstore\n  pop\n  pop\n    /* \"contracts/Orders.sol\":4941:4960  _nftContractAddress */\n  dup2\n    /* \"contracts/Orders.sol\":4907:4961  nftEnumerable = IERC721Enumerable(_nftContractAddress) */\n  0xffffffffffffffffffffffffffffffffffffffff\n  and\n  0xc0\n  dup2\n  0xffffffffffffffffffffffffffffffffffffffff\n  and\n  dup2\n  mstore\n  pop\n  pop\n    /* \"contracts/Orders.sol\":4992:5010  _commissionPercent */\n  dup1\n    /* \"contracts/Orders.sol\":4972:4989  commissionPercent */\n  0x01\n    /* \"contracts/Orders.sol\":4972:5010  commissionPercent = _commissionPercent */\n  dup2\n  swap1\n  sstore\n  pop\n    /* \"contracts/Orders.sol\":4544:5018  constructor(address _nftContractAddress, uint256 _commissionPercent) {... */\n  pop\n  pop\n    /* \"contracts/Orders.sol\":344:12847  contract Marketplace {... */\n  jump(tag_12)\n    /* \"#utility.yul\":88:205   */\ntag_14:\n    /* \"#utility.yul\":197:198   */\n  0x00\n    /* \"#utility.yul\":194:195   */\n  dup1\n    /* \"#utility.yul\":187:199   */\n  revert\n    /* \"#utility.yul\":334:460   */\ntag_16:\n    /* \"#utility.yul\":371:378   */\n  0x00\n    /* \"#utility.yul\":411:453   */\n  0xffffffffffffffffffffffffffffffffffffffff\n    /* \"#utility.yul\":404:409   */\n  dup3\n    /* \"#utility.yul\":400:454   */\n  and\n    /* \"#utility.yul\":389:454   */\n  swap1\n  pop\n    /* \"#utility.yul\":334:460   */\n  swap2\n  swap1\n  pop\n  jump\t// out\n    /* \"#utility.yul\":466:562   */\ntag_17:\n    /* \"#utility.yul\":503:510   */\n  0x00\n    /* \"#utility.yul\":532:556   */\n  tag_34\n    /* \"#utility.yul\":550:555   */\n  dup3\n    /* \"#utility.yul\":532:556   */\n  tag_16\n  jump\t// in\ntag_34:\n    /* \"#utility.yul\":521:556   */\n  swap1\n  pop\n    /* \"#utility.yul\":466:562   */\n  swap2\n  swap1\n  pop\n  jump\t// out\n    /* \"#utility.yul\":568:690   */\ntag_18:\n    /* \"#utility.yul\":641:665   */\n  tag_36\n    /* \"#utility.yul\":659:664   */\n  dup2\n    /* \"#utility.yul\":641:665   */\n  tag_17\n  jump\t// in\ntag_36:\n    /* \"#utility.yul\":634:639   */\n  dup2\n    /* \"#utility.yul\":631:666   */\n  eq\n    /* \"#utility.yul\":621:684   */\n  tag_37\n  jumpi\n    /* \"#utility.yul\":680:681   */\n  0x00\n    /* \"#utility.yul\":677:678   */\n  dup1\n    /* \"#utility.yul\":670:682   */\n  revert\n    /* \"#utility.yul\":621:684   */\ntag_37:\n    /* \"#utility.yul\":568:690   */\n  pop\n  jump\t// out\n    /* \"#utility.yul\":696:839   */\ntag_19:\n    /* \"#utility.yul\":753:758   */\n  0x00\n    /* \"#utility.yul\":784:790   */\n  dup2\n    /* \"#utility.yul\":778:791   */\n  mload\n    /* \"#utility.yul\":769:791   */\n  swap1\n  pop\n    /* \"#utility.yul\":800:833   */\n  tag_39\n    /* \"#utility.yul\":827:832   */\n  dup2\n    /* \"#utility.yul\":800:833   */\n  tag_18\n  jump\t// in\ntag_39:\n    /* \"#utility.yul\":696:839   */\n  swap3\n  swap2\n  pop\n  pop\n  jump\t// out\n    /* \"#utility.yul\":845:922   */\ntag_20:\n    /* \"#utility.yul\":882:889   */\n  0x00\n    /* \"#utility.yul\":911:916   */\n  dup2\n    /* \"#utility.yul\":900:916   */\n  swap1\n  pop\n    /* \"#utility.yul\":845:922   */\n  swap2\n  swap1\n  pop\n  jump\t// out\n    /* \"#utility.yul\":928:1050   */\ntag_21:\n    /* \"#utility.yul\":1001:1025   */\n  tag_42\n    /* \"#utility.yul\":1019:1024   */\n  dup2\n    /* \"#utility.yul\":1001:1025   */\n  tag_20\n  jump\t// in\ntag_42:\n    /* \"#utility.yul\":994:999   */\n  dup2\n    /* \"#utility.yul\":991:1026   */\n  eq\n    /* \"#utility.yul\":981:1044   */\n  tag_43\n  jumpi\n    /* \"#utility.yul\":1040:1041   */\n  0x00\n    /* \"#utility.yul\":1037:1038   */\n  dup1\n    /* \"#utility.yul\":1030:1042   */\n  revert\n    /* \"#utility.yul\":981:1044   */\ntag_43:\n    /* \"#utility.yul\":928:1050   */\n  pop\n  jump\t// out\n    /* \"#utility.yul\":1056:1199   */\ntag_22:\n    /* \"#utility.yul\":1113:1118   */\n  0x00\n    /* \"#utility.yul\":1144:1150   */\n  dup2\n    /* \"#utility.yul\":1138:1151   */\n  mload\n    /* \"#utility.yul\":1129:1151   */\n  swap1\n  pop\n    /* \"#utility.yul\":1160:1193   */\n  tag_45\n    /* \"#utility.yul\":1187:1192   */\n  dup2\n    /* \"#utility.yul\":1160:1193   */\n  tag_21\n  jump\t// in\ntag_45:\n    /* \"#utility.yul\":1056:1199   */\n  swap3\n  swap2\n  pop\n  pop\n  jump\t// out\n    /* \"#utility.yul\":1205:1712   */\ntag_3:\n    /* \"#utility.yul\":1284:1290   */\n  0x00\n    /* \"#utility.yul\":1292:1298   */\n  dup1\n    /* \"#utility.yul\":1341:1343   */\n  0x40\n    /* \"#utility.yul\":1329:1338   */\n  dup4\n    /* \"#utility.yul\":1320:1327   */\n  dup6\n    /* \"#utility.yul\":1316:1339   */\n  sub\n    /* \"#utility.yul\":1312:1344   */\n  slt\n    /* \"#utility.yul\":1309:1428   */\n  iszero\n  tag_47\n  jumpi\n    /* \"#utility.yul\":1347:1426   */\n  tag_48\n  tag_14\n  jump\t// in\ntag_48:\n    /* \"#utility.yul\":1309:1428   */\ntag_47:\n    /* \"#utility.yul\":1467:1468   */\n  0x00\n    /* \"#utility.yul\":1492:1556   */\n  tag_49\n    /* \"#utility.yul\":1548:1555   */\n  dup6\n    /* \"#utility.yul\":1539:1545   */\n  dup3\n    /* \"#utility.yul\":1528:1537   */\n  dup7\n    /* \"#utility.yul\":1524:1546   */\n  add\n    /* \"#utility.yul\":1492:1556   */\n  tag_19\n  jump\t// in\ntag_49:\n    /* \"#utility.yul\":1482:1556   */\n  swap3\n  pop\n    /* \"#utility.yul\":1438:1566   */\n  pop\n    /* \"#utility.yul\":1605:1607   */\n  0x20\n    /* \"#utility.yul\":1631:1695   */\n  tag_50\n    /* \"#utility.yul\":1687:1694   */\n  dup6\n    /* \"#utility.yul\":1678:1684   */\n  dup3\n    /* \"#utility.yul\":1667:1676   */\n  dup7\n    /* \"#utility.yul\":1663:1685   */\n  add\n    /* \"#utility.yul\":1631:1695   */\n  tag_22\n  jump\t// in\ntag_50:\n    /* \"#utility.yul\":1621:1695   */\n  swap2\n  pop\n    /* \"#utility.yul\":1576:1705   */\n  pop\n    /* \"#utility.yul\":1205:1712   */\n  swap3\n  pop\n  swap3\n  swap1\n  pop\n  jump\t// out\n    /* \"#utility.yul\":1718:1887   */\ntag_23:\n    /* \"#utility.yul\":1802:1813   */\n  0x00\n    /* \"#utility.yul\":1836:1842   */\n  dup3\n    /* \"#utility.yul\":1831:1834   */\n  dup3\n    /* \"#utility.yul\":1824:1843   */\n  mstore\n    /* \"#utility.yul\":1876:1880   */\n  0x20\n    /* \"#utility.yul\":1871:1874   */\n  dup3\n    /* \"#utility.yul\":1867:1881   */\n  add\n    /* \"#utility.yul\":1852:1881   */\n  swap1\n  pop\n    /* \"#utility.yul\":1718:1887   */\n  swap3\n  swap2\n  pop\n  pop\n  jump\t// out\n    /* \"#utility.yul\":1893:2062   */\ntag_24:\n    /* \"#utility.yul\":2033:2054   */\n  0x496e76616c6964204e4654206164647265737300000000000000000000000000\n    /* \"#utility.yul\":2029:2030   */\n  0x00\n    /* \"#utility.yul\":2021:2027   */\n  dup3\n    /* \"#utility.yul\":2017:2031   */\n  add\n    /* \"#utility.yul\":2010:2055   */\n  mstore\n    /* \"#utility.yul\":1893:2062   */\n  pop\n  jump\t// out\n    /* \"#utility.yul\":2068:2434   */\ntag_25:\n    /* \"#utility.yul\":2210:2213   */\n  0x00\n    /* \"#utility.yul\":2231:2298   */\n  tag_54\n    /* \"#utility.yul\":2295:2297   */\n  0x13\n    /* \"#utility.yul\":2290:2293   */\n  dup4\n    /* \"#utility.yul\":2231:2298   */\n  tag_23\n  jump\t// in\ntag_54:\n    /* \"#utility.yul\":2224:2298   */\n  swap2\n  pop\n    /* \"#utility.yul\":2307:2400   */\n  tag_55\n    /* \"#utility.yul\":2396:2399   */\n  dup3\n    /* \"#utility.yul\":2307:2400   */\n  tag_24\n  jump\t// in\ntag_55:\n    /* \"#utility.yul\":2425:2427   */\n  0x20\n    /* \"#utility.yul\":2420:2423   */\n  dup3\n    /* \"#utility.yul\":2416:2428   */\n  add\n    /* \"#utility.yul\":2409:2428   */\n  swap1\n  pop\n    /* \"#utility.yul\":2068:2434   */\n  swap2\n  swap1\n  pop\n  jump\t// out\n    /* \"#utility.yul\":2440:2859   */\ntag_8:\n    /* \"#utility.yul\":2606:2610   */\n  0x00\n    /* \"#utility.yul\":2644:2646   */\n  0x20\n    /* \"#utility.yul\":2633:2642   */\n  dup3\n    /* \"#utility.yul\":2629:2647   */\n  add\n    /* \"#utility.yul\":2621:2647   */\n  swap1\n  pop\n    /* \"#utility.yul\":2693:2702   */\n  dup2\n    /* \"#utility.yul\":2687:2691   */\n  dup2\n    /* \"#utility.yul\":2683:2703   */\n  sub\n    /* \"#utility.yul\":2679:2680   */\n  0x00\n    /* \"#utility.yul\":2668:2677   */\n  dup4\n    /* \"#utility.yul\":2664:2681   */\n  add\n    /* \"#utility.yul\":2657:2704   */\n  mstore\n    /* \"#utility.yul\":2721:2852   */\n  tag_57\n    /* \"#utility.yul\":2847:2851   */\n  dup2\n    /* \"#utility.yul\":2721:2852   */\n  tag_25\n  jump\t// in\ntag_57:\n    /* \"#utility.yul\":2713:2852   */\n  swap1\n  pop\n    /* \"#utility.yul\":2440:2859   */\n  swap2\n  swap1\n  pop\n  jump\t// out\n    /* \"#utility.yul\":2865:3034   */\ntag_26:\n    /* \"#utility.yul\":3005:3026   */\n  0x436f6d6d697373696f6e20746f6f206869676800000000000000000000000000\n    /* \"#utility.yul\":3001:3002   */\n  0x00\n    /* \"#utility.yul\":2993:2999   */\n  dup3\n    /* \"#utility.yul\":2989:3003   */\n  add\n    /* \"#utility.yul\":2982:3027   */\n  mstore\n    /* \"#utility.yul\":2865:3034   */\n  pop\n  jump\t// out\n    /* \"#utility.yul\":3040:3406   */\ntag_27:\n    /* \"#utility.yul\":3182:3185   */\n  0x00\n    /* \"#utility.yul\":3203:3270   */\n  tag_60\n    /* \"#utility.yul\":3267:3269   */\n  0x13\n    /* \"#utility.yul\":3262:3265   */\n  dup4\n    /* \"#utility.yul\":3203:3270   */\n  tag_23\n  jump\t// in\ntag_60:\n    /* \"#utility.yul\":3196:3270   */\n  swap2\n  pop\n    /* \"#utility.yul\":3279:3372   */\n  tag_61\n    /* \"#utility.yul\":3368:3371   */\n  dup3\n    /* \"#utility.yul\":3279:3372   */\n  tag_26\n  jump\t// in\ntag_61:\n    /* \"#utility.yul\":3397:3399   */\n  0x20\n    /* \"#utility.yul\":3392:3395   */\n  dup3\n    /* \"#utility.yul\":3388:3400   */\n  add\n    /* \"#utility.yul\":3381:3400   */\n  swap1\n  pop\n    /* \"#utility.yul\":3040:3406   */\n  swap2\n  swap1\n  pop\n  jump\t// out\n    /* \"#utility.yul\":3412:3831   */\ntag_11:\n    /* \"#utility.yul\":3578:3582   */\n  0x00\n    /* \"#utility.yul\":3616:3618   */\n  0x20\n    /* \"#utility.yul\":3605:3614   */\n  dup3\n    /* \"#utility.yul\":3601:3619   */\n  add\n    /* \"#utility.yul\":3593:3619   */\n  swap1\n  pop\n    /* \"#utility.yul\":3665:3674   */\n  dup2\n    /* \"#utility.yul\":3659:3663   */\n  dup2\n    /* \"#utility.yul\":3655:3675   */\n  sub\n    /* \"#utility.yul\":3651:3652   */\n  0x00\n    /* \"#utility.yul\":3640:3649   */\n  dup4\n    /* \"#utility.yul\":3636:3653   */\n  add\n    /* \"#utility.yul\":3629:3676   */\n  mstore\n    /* \"#utility.yul\":3693:3824   */\n  tag_63\n    /* \"#utility.yul\":3819:3823   */\n  dup2\n    /* \"#utility.yul\":3693:3824   */\n  tag_27\n  jump\t// in\ntag_63:\n    /* \"#utility.yul\":3685:3824   */\n  swap1\n  pop\n    /* \"#utility.yul\":3412:3831   */\n  swap2\n  swap1\n  pop\n  jump\t// out\n    /* \"contracts/Orders.sol\":344:12847  contract Marketplace {... */\ntag_12:\n  mload(0x80)\n  mload(0xa0)\n  mload(0xc0)\n  codecopy(0x00, dataOffset(sub_0), dataSize(sub_0))\n  0x00\n  assignImmutable(\"0xb7020dd003fcd4d96af1507ff4dc7e2c1158f23ad0bacfdf3455869cf9fb4898\")\n  0x00\n  assignImmutable(\"0x3884709d17f664eaba4ac467a7268cd72e3e0fe0c4e85152b1894161243c55c2\")\n  0x00\n  assignImmutable(\"0x67df77adbc271f558df88504cf3a3f87bfdd2d55b11e86c55c4fd978a935a836\")\n  return(0x00, dataSize(sub_0))\nstop\n\nsub_0: assembly {\n        /* \"contracts/Orders.sol\":344:12847  contract Marketplace {... */\n      mstore(0x40, 0x80)\n      jumpi(tag_1, lt(calldatasize, 0x04))\n      shr(0xe0, calldataload(0x00))\n      dup1\n      0xab473460\n      gt\n      tag_24\n      jumpi\n      dup1\n      0xd56d229d\n      gt\n      tag_25\n      jumpi\n      dup1\n      0xd56d229d\n      eq\n      tag_18\n      jumpi\n      dup1\n      0xd8cba251\n      eq\n      tag_19\n      jumpi\n      dup1\n      0xde74e57b\n      eq\n      tag_20\n      jumpi\n      dup1\n      0xe6282c6e\n      eq\n      tag_21\n      jumpi\n      dup1\n      0xf3f43703\n      eq\n      tag_22\n      jumpi\n      dup1\n      0xf3fef3a3\n      eq\n      tag_23\n      jumpi\n      jump(tag_2)\n    tag_25:\n      dup1\n      0xab473460\n      eq\n      tag_13\n      jumpi\n      dup1\n      0xae97dde8\n      eq\n      tag_14\n      jumpi\n      dup1\n      0xc87b56dd\n      eq\n      tag_15\n      jumpi\n      dup1\n      0xcc85a55b\n      eq\n      tag_16\n      jumpi\n      dup1\n      0xd082e381\n      eq\n      tag_17\n      jumpi\n      jump(tag_2)\n    tag_24:\n      dup1\n      0x404a9ab8\n      gt\n      tag_26\n      jumpi\n      dup1\n      0x404a9ab8\n      eq\n      tag_8\n      jumpi\n      dup1\n      0x51e61b25\n      eq\n      tag_9\n      jumpi\n      dup1\n      0x77d3550b\n      eq\n      tag_10\n      jumpi\n      dup1\n      0x8da5cb5b\n      eq\n      tag_11\n      jumpi\n      dup1\n      0x9b83cddc\n      eq\n      tag_12\n      jumpi\n      jump(tag_2)\n    tag_26:\n      dup1\n      0x169d5a7d\n      eq\n      tag_3\n      jumpi\n      dup1\n      0x24600fc3\n      eq\n      tag_4\n      jumpi\n      dup1\n      0x24c8c698\n      eq\n      tag_5\n      jumpi\n      dup1\n      0x2f745c59\n      eq\n      tag_6\n      jumpi\n      dup1\n      0x305a67a8\n      eq\n      tag_7\n      jumpi\n      jump(tag_2)\n    tag_1:\n      jumpi(tag_2, calldatasize)\n      stop\n    tag_2:\n      0x00\n      dup1\n      revert\n        /* \"contracts/Orders.sol\":6493:7947  function purchaseListing(uint256 _listingId) external payable{... */\n    tag_3:\n      tag_29\n      0x04\n      dup1\n      calldatasize\n      sub\n      dup2\n      add\n      swap1\n      tag_30\n      swap2\n      swap1\n      tag_31\n      jump\t// in\n    tag_30:\n      tag_32\n      jump\t// in\n    tag_29:\n      stop\n        /* \"contracts/Orders.sol\":10399:10807  function withdrawFunds() external onlyOwner {... */\n    tag_4:\n      callvalue\n      dup1\n      iszero\n      tag_33\n      jumpi\n      0x00\n      dup1\n      revert\n    tag_33:\n      pop\n      tag_34\n      tag_35\n      jump\t// in\n    tag_34:\n      stop\n        /* \"contracts/Orders.sol\":2211:2233  string public fileHash */\n    tag_5:\n      callvalue\n      dup1\n      iszero\n      tag_36\n      jumpi\n      0x00\n      dup1\n      revert\n    tag_36:\n      pop\n      tag_37\n      tag_38\n      jump\t// in\n    tag_37:\n      mload(0x40)\n      tag_39\n      swap2\n      swap1\n      tag_40\n      jump\t// in\n    tag_39:\n      mload(0x40)\n      dup1\n      swap2\n      sub\n      swap1\n      return\n        /* \"contracts/Orders.sol\":11064:11230  function tokenOfOwnerByIndex(address _owner, uint256 index) external view returns (uint256) {... */\n    tag_6:\n      callvalue\n      dup1\n      iszero\n      tag_41\n      jumpi\n      0x00\n      dup1\n      revert\n    tag_41:\n      pop\n      tag_42\n      0x04\n      dup1\n      calldatasize\n      sub\n      dup2\n      add\n      swap1\n      tag_43\n      swap2\n      swap1\n      tag_44\n      jump\t// in\n    tag_43:\n      tag_45\n      jump\t// in\n    tag_42:\n      mload(0x40)\n      tag_46\n      swap2\n      swap1\n      tag_47\n      jump\t// in\n    tag_46:\n      mload(0x40)\n      dup1\n      swap2\n      sub\n      swap1\n      return\n        /* \"contracts/Orders.sol\":8071:8557  function cancelListing(uint256 _listingId) external {... */\n    tag_7:\n      callvalue\n      dup1\n      iszero\n      tag_48\n      jumpi\n      0x00\n      dup1\n      revert\n    tag_48:\n      pop\n      tag_49\n      0x04\n      dup1\n      calldatasize\n      sub\n      dup2\n      add\n      swap1\n      tag_50\n      swap2\n      swap1\n      tag_31\n      jump\t// in\n    tag_50:\n      tag_51\n      jump\t// in\n    tag_49:\n      stop\n        /* \"contracts/Orders.sol\":10094:10332  function setCommissionPercent(uint256 _newPercent) external onlyOwner {... */\n    tag_8:\n      callvalue\n      dup1\n      iszero\n      tag_52\n      jumpi\n      0x00\n      dup1\n      revert\n    tag_52:\n      pop\n      tag_53\n      0x04\n      dup1\n      calldatasize\n      sub\n      dup2\n      add\n      swap1\n      tag_54\n      swap2\n      swap1\n      tag_31\n      jump\t// in\n    tag_54:\n      tag_55\n      jump\t// in\n    tag_53:\n      stop\n        /* \"contracts/Orders.sol\":2831:2879  IERC721Enumerable public immutable nftEnumerable */\n    tag_9:\n      callvalue\n      dup1\n      iszero\n      tag_56\n      jumpi\n      0x00\n      dup1\n      revert\n    tag_56:\n      pop\n      tag_57\n      tag_58\n      jump\t// in\n    tag_57:\n      mload(0x40)\n      tag_59\n      swap2\n      swap1\n      tag_60\n      jump\t// in\n    tag_59:\n      mload(0x40)\n      dup1\n      swap2\n      sub\n      swap1\n      return\n        /* \"contracts/Orders.sol\":2013:2045  uint256 public commissionPercent */\n    tag_10:\n      callvalue\n      dup1\n      iszero\n      tag_61\n      jumpi\n      0x00\n      dup1\n      revert\n    tag_61:\n      pop\n      tag_62\n      tag_63\n      jump\t// in\n    tag_62:\n      mload(0x40)\n      tag_64\n      swap2\n      swap1\n      tag_47\n      jump\t// in\n    tag_64:\n      mload(0x40)\n      dup1\n      swap2\n      sub\n      swap1\n      return\n        /* \"contracts/Orders.sol\":1793:1831  address payable public immutable owner */\n    tag_11:\n      callvalue\n      dup1\n      iszero\n      tag_65\n      jumpi\n      0x00\n      dup1\n      revert\n    tag_65:\n      pop\n      tag_66\n      tag_67\n      jump\t// in\n    tag_66:\n      mload(0x40)\n      tag_68\n      swap2\n      swap1\n      tag_69\n      jump\t// in\n    tag_68:\n      mload(0x40)\n      dup1\n      swap2\n      sub\n      swap1\n      return\n        /* \"contracts/Orders.sol\":11408:11589  function isTokenListed(uint256 _tokenId) external view returns (bool) {... */\n    tag_12:\n      callvalue\n      dup1\n      iszero\n      tag_70\n      jumpi\n      0x00\n      dup1\n      revert\n    tag_70:\n      pop\n      tag_71\n      0x04\n      dup1\n      calldatasize\n      sub\n      dup2\n      add\n      swap1\n      tag_72\n      swap2\n      swap1\n      tag_31\n      jump\t// in\n    tag_72:\n      tag_73\n      jump\t// in\n    tag_71:\n      mload(0x40)\n      tag_74\n      swap2\n      swap1\n      tag_75\n      jump\t// in\n    tag_74:\n      mload(0x40)\n      dup1\n      swap2\n      sub\n      swap1\n      return\n        /* \"contracts/Orders.sol\":5032:6353  function createListing(uint128 _price, string memory _ipfsHash) external {... */\n    tag_13:\n      callvalue\n      dup1\n      iszero\n      tag_76\n      jumpi\n      0x00\n      dup1\n      revert\n    tag_76:\n      pop\n      tag_77\n      0x04\n      dup1\n      calldatasize\n      sub\n      dup2\n      add\n      swap1\n      tag_78\n      swap2\n      swap1\n      tag_79\n      jump\t// in\n    tag_78:\n      tag_80\n      jump\t// in\n    tag_77:\n      stop\n        /* \"contracts/Orders.sol\":2116:2161  uint256 public constant MAX_COMMISSION = 5000 */\n    tag_14:\n      callvalue\n      dup1\n      iszero\n      tag_81\n      jumpi\n      0x00\n      dup1\n      revert\n    tag_81:\n      pop\n      tag_82\n      tag_83\n      jump\t// in\n    tag_82:\n      mload(0x40)\n      tag_84\n      swap2\n      swap1\n      tag_47\n      jump\t// in\n    tag_84:\n      mload(0x40)\n      dup1\n      swap2\n      sub\n      swap1\n      return\n        /* \"contracts/Orders.sol\":9026:9258  function tokenURI(uint256 _tokenId) public view returns (string memory) {... */\n    tag_15:\n      callvalue\n      dup1\n      iszero\n      tag_85\n      jumpi\n      0x00\n      dup1\n      revert\n    tag_85:\n      pop\n      tag_86\n      0x04\n      dup1\n      calldatasize\n      sub\n      dup2\n      add\n      swap1\n      tag_87\n      swap2\n      swap1\n      tag_31\n      jump\t// in\n    tag_87:\n      tag_88\n      jump\t// in\n    tag_86:\n      mload(0x40)\n      tag_89\n      swap2\n      swap1\n      tag_40\n      jump\t// in\n    tag_89:\n      mload(0x40)\n      dup1\n      swap2\n      sub\n      swap1\n      return\n        /* \"contracts/Orders.sol\":11792:11916  function getListingId(uint256 _tokenId) external view returns (uint256) {... */\n    tag_16:\n      callvalue\n      dup1\n      iszero\n      tag_90\n      jumpi\n      0x00\n      dup1\n      revert\n    tag_90:\n      pop\n      tag_91\n      0x04\n      dup1\n      calldatasize\n      sub\n      dup2\n      add\n      swap1\n      tag_92\n      swap2\n      swap1\n      tag_31\n      jump\t// in\n    tag_92:\n      tag_93\n      jump\t// in\n    tag_91:\n      mload(0x40)\n      tag_94\n      swap2\n      swap1\n      tag_47\n      jump\t// in\n    tag_94:\n      mload(0x40)\n      dup1\n      swap2\n      sub\n      swap1\n      return\n        /* \"contracts/Orders.sol\":1882:1909  uint256 public tokenCounter */\n    tag_17:\n      callvalue\n      dup1\n      iszero\n      tag_95\n      jumpi\n      0x00\n      dup1\n      revert\n    tag_95:\n      pop\n      tag_96\n      tag_97\n      jump\t// in\n    tag_96:\n      mload(0x40)\n      tag_98\n      swap2\n      swap1\n      tag_47\n      jump\t// in\n    tag_98:\n      mload(0x40)\n      dup1\n      swap2\n      sub\n      swap1\n      return\n        /* \"contracts/Orders.sol\":2722:2758  IERC721 public immutable nftContract */\n    tag_18:\n      callvalue\n      dup1\n      iszero\n      tag_99\n      jumpi\n      0x00\n      dup1\n      revert\n    tag_99:\n      pop\n      tag_100\n      tag_101\n      jump\t// in\n    tag_100:\n      mload(0x40)\n      tag_102\n      swap2\n      swap1\n      tag_103\n      jump\t// in\n    tag_102:\n      mload(0x40)\n      dup1\n      swap2\n      sub\n      swap1\n      return\n        /* \"contracts/Orders.sol\":12090:12226  function getListingsBySeller(address _seller) external view returns (Listing[] memory) {... */\n    tag_19:\n      callvalue\n      dup1\n      iszero\n      tag_104\n      jumpi\n      0x00\n      dup1\n      revert\n    tag_104:\n      pop\n      tag_105\n      0x04\n      dup1\n      calldatasize\n      sub\n      dup2\n      add\n      swap1\n      tag_106\n      swap2\n      swap1\n      tag_107\n      jump\t// in\n    tag_106:\n      tag_108\n      jump\t// in\n    tag_105:\n      mload(0x40)\n      tag_109\n      swap2\n      swap1\n      tag_110\n      jump\t// in\n    tag_109:\n      mload(0x40)\n      dup1\n      swap2\n      sub\n      swap1\n      return\n        /* \"contracts/Orders.sol\":2296:2339  mapping(uint256 => Listing) public listings */\n    tag_20:\n      callvalue\n      dup1\n      iszero\n      tag_111\n      jumpi\n      0x00\n      dup1\n      revert\n    tag_111:\n      pop\n      tag_112\n      0x04\n      dup1\n      calldatasize\n      sub\n      dup2\n      add\n      swap1\n      tag_113\n      swap2\n      swap1\n      tag_31\n      jump\t// in\n    tag_113:\n      tag_114\n      jump\t// in\n    tag_112:\n      mload(0x40)\n      tag_115\n      swap5\n      swap4\n      swap3\n      swap2\n      swap1\n      tag_116\n      jump\t// in\n    tag_115:\n      mload(0x40)\n      dup1\n      swap2\n      sub\n      swap1\n      return\n        /* \"contracts/Orders.sol\":12309:12737  function deleteListing(uint256 _tokenId) external {... */\n    tag_21:\n      callvalue\n      dup1\n      iszero\n      tag_117\n      jumpi\n      0x00\n      dup1\n      revert\n    tag_117:\n      pop\n      tag_118\n      0x04\n      dup1\n      calldatasize\n      sub\n      dup2\n      add\n      swap1\n      tag_119\n      swap2\n      swap1\n      tag_31\n      jump\t// in\n    tag_119:\n      tag_120\n      jump\t// in\n    tag_118:\n      stop\n        /* \"contracts/Orders.sol\":2523:2576  mapping(address => uint256) public pendingWithdrawals */\n    tag_22:\n      callvalue\n      dup1\n      iszero\n      tag_121\n      jumpi\n      0x00\n      dup1\n      revert\n    tag_121:\n      pop\n      tag_122\n      0x04\n      dup1\n      calldatasize\n      sub\n      dup2\n      add\n      swap1\n      tag_123\n      swap2\n      swap1\n      tag_107\n      jump\t// in\n    tag_123:\n      tag_124\n      jump\t// in\n    tag_122:\n      mload(0x40)\n      tag_125\n      swap2\n      swap1\n      tag_47\n      jump\t// in\n    tag_125:\n      mload(0x40)\n      dup1\n      swap2\n      sub\n      swap1\n      return\n        /* \"contracts/Orders.sol\":9448:9935  function withdraw(address payable _to, uint256 _amount) external {... */\n    tag_23:\n      callvalue\n      dup1\n      iszero\n      tag_126\n      jumpi\n      0x00\n      dup1\n      revert\n    tag_126:\n      pop\n      tag_127\n      0x04\n      dup1\n      calldatasize\n      sub\n      dup2\n      add\n      swap1\n      tag_128\n      swap2\n      swap1\n      tag_129\n      jump\t// in\n    tag_128:\n      tag_130\n      jump\t// in\n    tag_127:\n      stop\n        /* \"contracts/Orders.sol\":6493:7947  function purchaseListing(uint256 _listingId) external payable{... */\n    tag_32:\n        /* \"contracts/Orders.sol\":6565:6587  Listing memory listing */\n      0x00\n        /* \"contracts/Orders.sol\":6590:6598  listings */\n      0x03\n        /* \"contracts/Orders.sol\":6590:6610  listings[_listingId] */\n      0x00\n        /* \"contracts/Orders.sol\":6599:6609  _listingId */\n      dup4\n        /* \"contracts/Orders.sol\":6590:6610  listings[_listingId] */\n      dup2\n      mstore\n      0x20\n      add\n      swap1\n      dup2\n      mstore\n      0x20\n      add\n      0x00\n      keccak256\n        /* \"contracts/Orders.sol\":6565:6610  Listing memory listing = listings[_listingId] */\n      mload(0x40)\n      dup1\n      0x80\n      add\n      0x40\n      mstore\n      swap1\n      dup2\n      0x00\n      dup3\n      add\n      0x00\n      swap1\n      sload\n      swap1\n      0x0100\n      exp\n      swap1\n      div\n      0xffffffffffffffffffffffffffffffffffffffff\n      and\n      0xffffffffffffffffffffffffffffffffffffffff\n      and\n      0xffffffffffffffffffffffffffffffffffffffff\n      and\n      dup2\n      mstore\n      0x20\n      add\n      0x01\n      dup3\n      add\n      sload\n      dup2\n      mstore\n      0x20\n      add\n      0x02\n      dup3\n      add\n      sload\n      dup2\n      mstore\n      0x20\n      add\n      0x03\n      dup3\n      add\n      0x00\n      swap1\n      sload\n      swap1\n      0x0100\n      exp\n      swap1\n      div\n      0xff\n      and\n      iszero\n      iszero\n      iszero\n      iszero\n      dup2\n      mstore\n      pop\n      pop\n      swap1\n      pop\n        /* \"contracts/Orders.sol\":6626:6633  listing */\n      dup1\n        /* \"contracts/Orders.sol\":6626:6642  listing.isActive */\n      0x60\n      add\n      mload\n        /* \"contracts/Orders.sol\":6621:6689  if (!listing.isActive) {... */\n      tag_132\n      jumpi\n        /* \"contracts/Orders.sol\":6666:6677  NotActive() */\n      mload(0x40)\n      0x80cb55e200000000000000000000000000000000000000000000000000000000\n      dup2\n      mstore\n      0x04\n      add\n      mload(0x40)\n      dup1\n      swap2\n      sub\n      swap1\n      revert\n        /* \"contracts/Orders.sol\":6621:6689  if (!listing.isActive) {... */\n    tag_132:\n        /* \"contracts/Orders.sol\":6715:6722  listing */\n      dup1\n        /* \"contracts/Orders.sol\":6715:6728  listing.price */\n      0x40\n      add\n      mload\n        /* \"contracts/Orders.sol\":6703:6712  msg.value */\n      callvalue\n        /* \"contracts/Orders.sol\":6703:6728  msg.value < listing.price */\n      lt\n        /* \"contracts/Orders.sol\":6699:6877  if (msg.value < listing.price) {... */\n      iszero\n      tag_133\n      jumpi\n        /* \"contracts/Orders.sol\":6799:6806  listing */\n      dup1\n        /* \"contracts/Orders.sol\":6799:6812  listing.price */\n      0x40\n      add\n      mload\n        /* \"contracts/Orders.sol\":6840:6849  msg.value */\n      callvalue\n        /* \"contracts/Orders.sol\":6752:6865  InsufficientPayment({... */\n      mload(0x40)\n      0xb99e2ab700000000000000000000000000000000000000000000000000000000\n      dup2\n      mstore\n      0x04\n      add\n      tag_134\n      swap3\n      swap2\n      swap1\n      tag_135\n      jump\t// in\n    tag_134:\n      mload(0x40)\n      dup1\n      swap2\n      sub\n      swap1\n      revert\n        /* \"contracts/Orders.sol\":6699:6877  if (msg.value < listing.price) {... */\n    tag_133:\n        /* \"contracts/Orders.sol\":6905:6912  listing */\n      dup1\n        /* \"contracts/Orders.sol\":6905:6919  listing.seller */\n      0x00\n      add\n      mload\n        /* \"contracts/Orders.sol\":6891:6919  msg.sender == listing.seller */\n      0xffffffffffffffffffffffffffffffffffffffff\n      and\n        /* \"contracts/Orders.sol\":6891:6901  msg.sender */\n      caller\n        /* \"contracts/Orders.sol\":6891:6919  msg.sender == listing.seller */\n      0xffffffffffffffffffffffffffffffffffffffff\n      and\n      sub\n        /* \"contracts/Orders.sol\":6887:6976  if (msg.sender == listing.seller) {... */\n      tag_136\n      jumpi\n        /* \"contracts/Orders.sol\":6943:6964  CannotBuyOwnListing() */\n      mload(0x40)\n      0x50eadcb100000000000000000000000000000000000000000000000000000000\n      dup2\n      mstore\n      0x04\n      add\n      mload(0x40)\n      dup1\n      swap2\n      sub\n      swap1\n      revert\n        /* \"contracts/Orders.sol\":6887:6976  if (msg.sender == listing.seller) {... */\n    tag_136:\n        /* \"contracts/Orders.sol\":6988:7012  uint256 commissionAmount */\n      0x00\n        /* \"contracts/Orders.sol\":7049:7054  10000 */\n      0x2710\n        /* \"contracts/Orders.sol\":7028:7045  commissionPercent */\n      sload(0x01)\n        /* \"contracts/Orders.sol\":7016:7025  msg.value */\n      callvalue\n        /* \"contracts/Orders.sol\":7016:7045  msg.value * commissionPercent */\n      tag_137\n      swap2\n      swap1\n      tag_138\n      jump\t// in\n    tag_137:\n        /* \"contracts/Orders.sol\":7015:7054  (msg.value * commissionPercent) / 10000 */\n      tag_139\n      swap2\n      swap1\n      tag_140\n      jump\t// in\n    tag_139:\n        /* \"contracts/Orders.sol\":6988:7054  uint256 commissionAmount = (msg.value * commissionPercent) / 10000 */\n      swap1\n      pop\n        /* \"contracts/Orders.sol\":7065:7085  uint256 sellerAmount */\n      0x00\n        /* \"contracts/Orders.sol\":7100:7116  commissionAmount */\n      dup2\n        /* \"contracts/Orders.sol\":7088:7097  msg.value */\n      callvalue\n        /* \"contracts/Orders.sol\":7088:7116  msg.value - commissionAmount */\n      tag_141\n      swap2\n      swap1\n      tag_142\n      jump\t// in\n    tag_141:\n        /* \"contracts/Orders.sol\":7065:7116  uint256 sellerAmount = msg.value - commissionAmount */\n      swap1\n      pop\n        /* \"contracts/Orders.sol\":7191:7198  listing */\n      dup3\n        /* \"contracts/Orders.sol\":7191:7205  listing.seller */\n      0x00\n      add\n      mload\n        /* \"contracts/Orders.sol\":7151:7205  nftContract.ownerOf(listing.tokenId) == listing.seller */\n      0xffffffffffffffffffffffffffffffffffffffff\n      and\n        /* \"contracts/Orders.sol\":7151:7162  nftContract */\n      immutable(\"0x3884709d17f664eaba4ac467a7268cd72e3e0fe0c4e85152b1894161243c55c2\")\n        /* \"contracts/Orders.sol\":7151:7170  nftContract.ownerOf */\n      0xffffffffffffffffffffffffffffffffffffffff\n      and\n      0x6352211e\n        /* \"contracts/Orders.sol\":7171:7178  listing */\n      dup6\n        /* \"contracts/Orders.sol\":7171:7186  listing.tokenId */\n      0x20\n      add\n      mload\n        /* \"contracts/Orders.sol\":7151:7187  nftContract.ownerOf(listing.tokenId) */\n      mload(0x40)\n      dup3\n      0xffffffff\n      and\n      0xe0\n      shl\n      dup2\n      mstore\n      0x04\n      add\n      tag_143\n      swap2\n      swap1\n      tag_47\n      jump\t// in\n    tag_143:\n      0x20\n      mload(0x40)\n      dup1\n      dup4\n      sub\n      dup2\n      dup7\n      gas\n      staticcall\n      iszero\n      dup1\n      iszero\n      tag_145\n      jumpi\n      returndatasize\n      0x00\n      dup1\n      returndatacopy\n      revert(0x00, returndatasize)\n    tag_145:\n      pop\n      pop\n      pop\n      pop\n      mload(0x40)\n      returndatasize\n      not(0x1f)\n      0x1f\n      dup3\n      add\n      and\n      dup3\n      add\n      dup1\n      0x40\n      mstore\n      pop\n      dup2\n      add\n      swap1\n      tag_146\n      swap2\n      swap1\n      tag_147\n      jump\t// in\n    tag_146:\n        /* \"contracts/Orders.sol\":7151:7205  nftContract.ownerOf(listing.tokenId) == listing.seller */\n      0xffffffffffffffffffffffffffffffffffffffff\n      and\n      eq\n        /* \"contracts/Orders.sol\":7129:7258  require(... */\n      tag_148\n      jumpi\n      mload(0x40)\n      0x08c379a000000000000000000000000000000000000000000000000000000000\n      dup2\n      mstore\n      0x04\n      add\n      tag_149\n      swap1\n      tag_150\n      jump\t// in\n    tag_149:\n      mload(0x40)\n      dup1\n      swap2\n      sub\n      swap1\n      revert\n    tag_148:\n        /* \"contracts/Orders.sol\":7291:7302  nftContract */\n      immutable(\"0x3884709d17f664eaba4ac467a7268cd72e3e0fe0c4e85152b1894161243c55c2\")\n        /* \"contracts/Orders.sol\":7291:7319  nftContract.isApprovedForAll */\n      0xffffffffffffffffffffffffffffffffffffffff\n      and\n      0xe985e9c5\n        /* \"contracts/Orders.sol\":7320:7327  listing */\n      dup5\n        /* \"contracts/Orders.sol\":7320:7334  listing.seller */\n      0x00\n      add\n      mload\n        /* \"contracts/Orders.sol\":7344:7348  this */\n      address\n        /* \"contracts/Orders.sol\":7291:7350  nftContract.isApprovedForAll(listing.seller, address(this)) */\n      mload(0x40)\n      dup4\n      0xffffffff\n      and\n      0xe0\n      shl\n      dup2\n      mstore\n      0x04\n      add\n      tag_151\n      swap3\n      swap2\n      swap1\n      tag_152\n      jump\t// in\n    tag_151:\n      0x20\n      mload(0x40)\n      dup1\n      dup4\n      sub\n      dup2\n      dup7\n      gas\n      staticcall\n      iszero\n      dup1\n      iszero\n      tag_154\n      jumpi\n      returndatasize\n      0x00\n      dup1\n      returndatacopy\n      revert(0x00, returndatasize)\n    tag_154:\n      pop\n      pop\n      pop\n      pop\n      mload(0x40)\n      returndatasize\n      not(0x1f)\n      0x1f\n      dup3\n      add\n      and\n      dup3\n      add\n      dup1\n      0x40\n      mstore\n      pop\n      dup2\n      add\n      swap1\n      tag_155\n      swap2\n      swap1\n      tag_156\n      jump\t// in\n    tag_155:\n        /* \"contracts/Orders.sol\":7291:7424  nftContract.isApprovedForAll(listing.seller, address(this)) ||... */\n      dup1\n      tag_157\n      jumpi\n      pop\n        /* \"contracts/Orders.sol\":7419:7423  this */\n      address\n        /* \"contracts/Orders.sol\":7367:7424  nftContract.getApproved(listing.tokenId) == address(this) */\n      0xffffffffffffffffffffffffffffffffffffffff\n      and\n        /* \"contracts/Orders.sol\":7367:7378  nftContract */\n      immutable(\"0x3884709d17f664eaba4ac467a7268cd72e3e0fe0c4e85152b1894161243c55c2\")\n        /* \"contracts/Orders.sol\":7367:7390  nftContract.getApproved */\n      0xffffffffffffffffffffffffffffffffffffffff\n      and\n      0x081812fc\n        /* \"contracts/Orders.sol\":7391:7398  listing */\n      dup6\n        /* \"contracts/Orders.sol\":7391:7406  listing.tokenId */\n      0x20\n      add\n      mload\n        /* \"contracts/Orders.sol\":7367:7407  nftContract.getApproved(listing.tokenId) */\n      mload(0x40)\n      dup3\n      0xffffffff\n      and\n      0xe0\n      shl\n      dup2\n      mstore\n      0x04\n      add\n      tag_158\n      swap2\n      swap1\n      tag_47\n      jump\t// in\n    tag_158:\n      0x20\n      mload(0x40)\n      dup1\n      dup4\n      sub\n      dup2\n      dup7\n      gas\n      staticcall\n      iszero\n      dup1\n      iszero\n      tag_160\n      jumpi\n      returndatasize\n      0x00\n      dup1\n      returndatacopy\n      revert(0x00, returndatasize)\n    tag_160:\n      pop\n      pop\n      pop\n      pop\n      mload(0x40)\n      returndatasize\n      not(0x1f)\n      0x1f\n      dup3\n      add\n      and\n      dup3\n      add\n      dup1\n      0x40\n      mstore\n      pop\n      dup2\n      add\n      swap1\n      tag_161\n      swap2\n      swap1\n      tag_147\n      jump\t// in\n    tag_161:\n        /* \"contracts/Orders.sol\":7367:7424  nftContract.getApproved(listing.tokenId) == address(this) */\n      0xffffffffffffffffffffffffffffffffffffffff\n      and\n      eq\n        /* \"contracts/Orders.sol\":7291:7424  nftContract.isApprovedForAll(listing.seller, address(this)) ||... */\n    tag_157:\n        /* \"contracts/Orders.sol\":7269:7464  require(... */\n      tag_162\n      jumpi\n      mload(0x40)\n      0x08c379a000000000000000000000000000000000000000000000000000000000\n      dup2\n      mstore\n      0x04\n      add\n      tag_163\n      swap1\n      tag_164\n      jump\t// in\n    tag_163:\n      mload(0x40)\n      dup1\n      swap2\n      sub\n      swap1\n      revert\n    tag_162:\n        /* \"contracts/Orders.sol\":7496:7501  false */\n      0x00\n        /* \"contracts/Orders.sol\":7477:7484  listing */\n      dup4\n        /* \"contracts/Orders.sol\":7477:7493  listing.isActive */\n      0x60\n      add\n        /* \"contracts/Orders.sol\":7477:7501  listing.isActive = false */\n      swap1\n      iszero\n      iszero\n      swap1\n      dup2\n      iszero\n      iszero\n      dup2\n      mstore\n      pop\n      pop\n        /* \"contracts/Orders.sol\":7519:7535  tokenToListingId */\n      0x04\n        /* \"contracts/Orders.sol\":7519:7552  tokenToListingId[listing.tokenId] */\n      0x00\n        /* \"contracts/Orders.sol\":7536:7543  listing */\n      dup5\n        /* \"contracts/Orders.sol\":7536:7551  listing.tokenId */\n      0x20\n      add\n      mload\n        /* \"contracts/Orders.sol\":7519:7552  tokenToListingId[listing.tokenId] */\n      dup2\n      mstore\n      0x20\n      add\n      swap1\n      dup2\n      mstore\n      0x20\n      add\n      0x00\n      keccak256\n        /* \"contracts/Orders.sol\":7512:7552  delete tokenToListingId[listing.tokenId] */\n      0x00\n      swap1\n      sstore\n        /* \"contracts/Orders.sol\":7592:7608  commissionAmount */\n      dup2\n        /* \"contracts/Orders.sol\":7563:7581  pendingWithdrawals */\n      0x05\n        /* \"contracts/Orders.sol\":7563:7588  pendingWithdrawals[owner] */\n      0x00\n        /* \"contracts/Orders.sol\":7582:7587  owner */\n      immutable(\"0x67df77adbc271f558df88504cf3a3f87bfdd2d55b11e86c55c4fd978a935a836\")\n        /* \"contracts/Orders.sol\":7563:7588  pendingWithdrawals[owner] */\n      0xffffffffffffffffffffffffffffffffffffffff\n      and\n      0xffffffffffffffffffffffffffffffffffffffff\n      and\n      dup2\n      mstore\n      0x20\n      add\n      swap1\n      dup2\n      mstore\n      0x20\n      add\n      0x00\n      keccak256\n      0x00\n        /* \"contracts/Orders.sol\":7563:7608  pendingWithdrawals[owner] += commissionAmount */\n      dup3\n      dup3\n      sload\n      tag_165\n      swap2\n      swap1\n      tag_166\n      jump\t// in\n    tag_165:\n      swap3\n      pop\n      pop\n      dup2\n      swap1\n      sstore\n      pop\n        /* \"contracts/Orders.sol\":7657:7669  sellerAmount */\n      dup1\n        /* \"contracts/Orders.sol\":7619:7637  pendingWithdrawals */\n      0x05\n        /* \"contracts/Orders.sol\":7619:7653  pendingWithdrawals[listing.seller] */\n      0x00\n        /* \"contracts/Orders.sol\":7638:7645  listing */\n      dup6\n        /* \"contracts/Orders.sol\":7638:7652  listing.seller */\n      0x00\n      add\n      mload\n        /* \"contracts/Orders.sol\":7619:7653  pendingWithdrawals[listing.seller] */\n      0xffffffffffffffffffffffffffffffffffffffff\n      and\n      0xffffffffffffffffffffffffffffffffffffffff\n      and\n      dup2\n      mstore\n      0x20\n      add\n      swap1\n      dup2\n      mstore\n      0x20\n      add\n      0x00\n      keccak256\n      0x00\n        /* \"contracts/Orders.sol\":7619:7669  pendingWithdrawals[listing.seller] += sellerAmount */\n      dup3\n      dup3\n      sload\n      tag_167\n      swap2\n      swap1\n      tag_166\n      jump\t// in\n    tag_167:\n      swap3\n      pop\n      pop\n      dup2\n      swap1\n      sstore\n      pop\n        /* \"contracts/Orders.sol\":7682:7693  nftContract */\n      immutable(\"0x3884709d17f664eaba4ac467a7268cd72e3e0fe0c4e85152b1894161243c55c2\")\n        /* \"contracts/Orders.sol\":7682:7710  nftContract.safeTransferFrom */\n      0xffffffffffffffffffffffffffffffffffffffff\n      and\n      0x42842e0e\n        /* \"contracts/Orders.sol\":7711:7718  listing */\n      dup5\n        /* \"contracts/Orders.sol\":7711:7725  listing.seller */\n      0x00\n      add\n      mload\n        /* \"contracts/Orders.sol\":7727:7737  msg.sender */\n      caller\n        /* \"contracts/Orders.sol\":7739:7746  listing */\n      dup7\n        /* \"contracts/Orders.sol\":7739:7754  listing.tokenId */\n      0x20\n      add\n      mload\n        /* \"contracts/Orders.sol\":7682:7755  nftContract.safeTransferFrom(listing.seller, msg.sender, listing.tokenId) */\n      mload(0x40)\n      dup5\n      0xffffffff\n      and\n      0xe0\n      shl\n      dup2\n      mstore\n      0x04\n      add\n      tag_168\n      swap4\n      swap3\n      swap2\n      swap1\n      tag_169\n      jump\t// in\n    tag_168:\n      0x00\n      mload(0x40)\n      dup1\n      dup4\n      sub\n      dup2\n      0x00\n      dup8\n      dup1\n      extcodesize\n      iszero\n      dup1\n      iszero\n      tag_170\n      jumpi\n      0x00\n      dup1\n      revert\n    tag_170:\n      pop\n      gas\n      call\n      iszero\n      dup1\n      iszero\n      tag_172\n      jumpi\n      returndatasize\n      0x00\n      dup1\n      returndatacopy\n      revert(0x00, returndatasize)\n    tag_172:\n      pop\n      pop\n      pop\n      pop\n        /* \"contracts/Orders.sol\":7830:7840  msg.sender */\n      caller\n        /* \"contracts/Orders.sol\":7773:7939  PurchaseCompleted(... */\n      0xffffffffffffffffffffffffffffffffffffffff\n      and\n        /* \"contracts/Orders.sol\":7805:7815  _listingId */\n      dup5\n        /* \"contracts/Orders.sol\":7773:7939  PurchaseCompleted(... */\n      0xe29b93709a7ac5e91a6057482d1df985483725988417e08dec23377234003c80\n        /* \"contracts/Orders.sol\":7855:7862  listing */\n      dup6\n        /* \"contracts/Orders.sol\":7855:7870  listing.tokenId */\n      0x20\n      add\n      mload\n        /* \"contracts/Orders.sol\":7885:7892  listing */\n      dup7\n        /* \"contracts/Orders.sol\":7885:7898  listing.price */\n      0x40\n      add\n      mload\n        /* \"contracts/Orders.sol\":7913:7928  block.timestamp */\n      timestamp\n        /* \"contracts/Orders.sol\":7773:7939  PurchaseCompleted(... */\n      mload(0x40)\n      tag_173\n      swap4\n      swap3\n      swap2\n      swap1\n      tag_174\n      jump\t// in\n    tag_173:\n      mload(0x40)\n      dup1\n      swap2\n      sub\n      swap1\n      log3\n        /* \"contracts/Orders.sol\":6554:7947  {... */\n      pop\n      pop\n      pop\n        /* \"contracts/Orders.sol\":6493:7947  function purchaseListing(uint256 _listingId) external payable{... */\n      pop\n      jump\t// out\n        /* \"contracts/Orders.sol\":10399:10807  function withdrawFunds() external onlyOwner {... */\n    tag_35:\n        /* \"contracts/Orders.sol\":4144:4149  owner */\n      immutable(\"0x67df77adbc271f558df88504cf3a3f87bfdd2d55b11e86c55c4fd978a935a836\")\n        /* \"contracts/Orders.sol\":4130:4149  msg.sender != owner */\n      0xffffffffffffffffffffffffffffffffffffffff\n      and\n        /* \"contracts/Orders.sol\":4130:4140  msg.sender */\n      caller\n        /* \"contracts/Orders.sol\":4130:4149  msg.sender != owner */\n      0xffffffffffffffffffffffffffffffffffffffff\n      and\n      eq\n        /* \"contracts/Orders.sol\":4126:4247  if (msg.sender != owner) {... */\n      tag_176\n      jumpi\n        /* \"contracts/Orders.sol\":4209:4219  msg.sender */\n      caller\n        /* \"contracts/Orders.sol\":4173:4235  NotOwner({... */\n      mload(0x40)\n      0x245aecd300000000000000000000000000000000000000000000000000000000\n      dup2\n      mstore\n      0x04\n      add\n      tag_177\n      swap2\n      swap1\n      tag_178\n      jump\t// in\n    tag_177:\n      mload(0x40)\n      dup1\n      swap2\n      sub\n      swap1\n      revert\n        /* \"contracts/Orders.sol\":4126:4247  if (msg.sender != owner) {... */\n    tag_176:\n        /* \"contracts/Orders.sol\":10454:10468  uint256 amount */\n      0x00\n        /* \"contracts/Orders.sol\":10471:10489  pendingWithdrawals */\n      0x05\n        /* \"contracts/Orders.sol\":10471:10501  pendingWithdrawals[msg.sender] */\n      0x00\n        /* \"contracts/Orders.sol\":10490:10500  msg.sender */\n      caller\n        /* \"contracts/Orders.sol\":10471:10501  pendingWithdrawals[msg.sender] */\n      0xffffffffffffffffffffffffffffffffffffffff\n      and\n      0xffffffffffffffffffffffffffffffffffffffff\n      and\n      dup2\n      mstore\n      0x20\n      add\n      swap1\n      dup2\n      mstore\n      0x20\n      add\n      0x00\n      keccak256\n      sload\n        /* \"contracts/Orders.sol\":10454:10501  uint256 amount = pendingWithdrawals[msg.sender] */\n      swap1\n      pop\n        /* \"contracts/Orders.sol\":10526:10527  0 */\n      0x00\n        /* \"contracts/Orders.sol\":10516:10522  amount */\n      dup2\n        /* \"contracts/Orders.sol\":10516:10527  amount == 0 */\n      sub\n        /* \"contracts/Orders.sol\":10512:10579  if (amount == 0) {... */\n      tag_180\n      jumpi\n        /* \"contracts/Orders.sol\":10551:10567  NotEnoughFunds() */\n      mload(0x40)\n      0x81b5ad6800000000000000000000000000000000000000000000000000000000\n      dup2\n      mstore\n      0x04\n      add\n      mload(0x40)\n      dup1\n      swap2\n      sub\n      swap1\n      revert\n        /* \"contracts/Orders.sol\":10512:10579  if (amount == 0) {... */\n    tag_180:\n        /* \"contracts/Orders.sol\":10625:10626  0 */\n      0x00\n        /* \"contracts/Orders.sol\":10592:10610  pendingWithdrawals */\n      0x05\n        /* \"contracts/Orders.sol\":10592:10622  pendingWithdrawals[msg.sender] */\n      0x00\n        /* \"contracts/Orders.sol\":10611:10621  msg.sender */\n      caller\n        /* \"contracts/Orders.sol\":10592:10622  pendingWithdrawals[msg.sender] */\n      0xffffffffffffffffffffffffffffffffffffffff\n      and\n      0xffffffffffffffffffffffffffffffffffffffff\n      and\n      dup2\n      mstore\n      0x20\n      add\n      swap1\n      dup2\n      mstore\n      0x20\n      add\n      0x00\n      keccak256\n        /* \"contracts/Orders.sol\":10592:10626  pendingWithdrawals[msg.sender] = 0 */\n      dup2\n      swap1\n      sstore\n      pop\n        /* \"contracts/Orders.sol\":10640:10652  bool success */\n      0x00\n        /* \"contracts/Orders.sol\":10666:10676  msg.sender */\n      caller\n        /* \"contracts/Orders.sol\":10658:10682  payable(msg.sender).call */\n      0xffffffffffffffffffffffffffffffffffffffff\n      and\n        /* \"contracts/Orders.sol\":10690:10696  amount */\n      dup3\n        /* \"contracts/Orders.sol\":10658:10701  payable(msg.sender).call{value: amount}(\"\") */\n      mload(0x40)\n      tag_181\n      swap1\n      tag_182\n      jump\t// in\n    tag_181:\n      0x00\n      mload(0x40)\n      dup1\n      dup4\n      sub\n      dup2\n      dup6\n      dup8\n      gas\n      call\n      swap3\n      pop\n      pop\n      pop\n      returndatasize\n      dup1\n      0x00\n      dup2\n      eq\n      tag_185\n      jumpi\n      mload(0x40)\n      swap2\n      pop\n      and(add(returndatasize, 0x3f), not(0x1f))\n      dup3\n      add\n      0x40\n      mstore\n      returndatasize\n      dup3\n      mstore\n      returndatasize\n      0x00\n      0x20\n      dup5\n      add\n      returndatacopy\n      jump(tag_184)\n    tag_185:\n      0x60\n      swap2\n      pop\n    tag_184:\n      pop\n        /* \"contracts/Orders.sol\":10639:10701  (bool success, ) = payable(msg.sender).call{value: amount}(\"\") */\n      pop\n      swap1\n      pop\n        /* \"contracts/Orders.sol\":10720:10727  success */\n      dup1\n        /* \"contracts/Orders.sol\":10712:10747  require(success, \"Transfer failed\") */\n      tag_186\n      jumpi\n      mload(0x40)\n      0x08c379a000000000000000000000000000000000000000000000000000000000\n      dup2\n      mstore\n      0x04\n      add\n      tag_187\n      swap1\n      tag_188\n      jump\t// in\n    tag_187:\n      mload(0x40)\n      dup1\n      swap2\n      sub\n      swap1\n      revert\n    tag_186:\n        /* \"contracts/Orders.sol\":10788:10798  msg.sender */\n      caller\n        /* \"contracts/Orders.sol\":10765:10799  FundsWithdrawn(amount, msg.sender) */\n      0xffffffffffffffffffffffffffffffffffffffff\n      and\n      0x6141b54b56b8a52a8c6f5cd2a857f6117b18ffbf4d46bd3106f300a839cbf5ea\n        /* \"contracts/Orders.sol\":10780:10786  amount */\n      dup4\n        /* \"contracts/Orders.sol\":10765:10799  FundsWithdrawn(amount, msg.sender) */\n      mload(0x40)\n      tag_189\n      swap2\n      swap1\n      tag_47\n      jump\t// in\n    tag_189:\n      mload(0x40)\n      dup1\n      swap2\n      sub\n      swap1\n      log2\n        /* \"contracts/Orders.sol\":10443:10807  {... */\n      pop\n      pop\n        /* \"contracts/Orders.sol\":10399:10807  function withdrawFunds() external onlyOwner {... */\n      jump\t// out\n        /* \"contracts/Orders.sol\":2211:2233  string public fileHash */\n    tag_38:\n      0x02\n      dup1\n      sload\n      tag_190\n      swap1\n      tag_191\n      jump\t// in\n    tag_190:\n      dup1\n      0x1f\n      add\n      0x20\n      dup1\n      swap2\n      div\n      mul\n      0x20\n      add\n      mload(0x40)\n      swap1\n      dup2\n      add\n      0x40\n      mstore\n      dup1\n      swap3\n      swap2\n      swap1\n      dup2\n      dup2\n      mstore\n      0x20\n      add\n      dup3\n      dup1\n      sload\n      tag_192\n      swap1\n      tag_191\n      jump\t// in\n    tag_192:\n      dup1\n      iszero\n      tag_193\n      jumpi\n      dup1\n      0x1f\n      lt\n      tag_194\n      jumpi\n      0x0100\n      dup1\n      dup4\n      sload\n      div\n      mul\n      dup4\n      mstore\n      swap2\n      0x20\n      add\n      swap2\n      jump(tag_193)\n    tag_194:\n      dup3\n      add\n      swap2\n      swap1\n      0x00\n      mstore\n      keccak256(0x00, 0x20)\n      swap1\n    tag_195:\n      dup2\n      sload\n      dup2\n      mstore\n      swap1\n      0x01\n      add\n      swap1\n      0x20\n      add\n      dup1\n      dup4\n      gt\n      tag_195\n      jumpi\n      dup3\n      swap1\n      sub\n      0x1f\n      and\n      dup3\n      add\n      swap2\n    tag_193:\n      pop\n      pop\n      pop\n      pop\n      pop\n      dup2\n      jump\t// out\n        /* \"contracts/Orders.sol\":11064:11230  function tokenOfOwnerByIndex(address _owner, uint256 index) external view returns (uint256) {... */\n    tag_45:\n        /* \"contracts/Orders.sol\":11147:11154  uint256 */\n      0x00\n        /* \"contracts/Orders.sol\":11174:11187  nftEnumerable */\n      immutable(\"0xb7020dd003fcd4d96af1507ff4dc7e2c1158f23ad0bacfdf3455869cf9fb4898\")\n        /* \"contracts/Orders.sol\":11174:11207  nftEnumerable.tokenOfOwnerByIndex */\n      0xffffffffffffffffffffffffffffffffffffffff\n      and\n      0x2f745c59\n        /* \"contracts/Orders.sol\":11208:11214  _owner */\n      dup5\n        /* \"contracts/Orders.sol\":11216:11221  index */\n      dup5\n        /* \"contracts/Orders.sol\":11174:11222  nftEnumerable.tokenOfOwnerByIndex(_owner, index) */\n      mload(0x40)\n      dup4\n      0xffffffff\n      and\n      0xe0\n      shl\n      dup2\n      mstore\n      0x04\n      add\n      tag_197\n      swap3\n      swap2\n      swap1\n      tag_198\n      jump\t// in\n    tag_197:\n      0x20\n      mload(0x40)\n      dup1\n      dup4\n      sub\n      dup2\n      dup7\n      gas\n      staticcall\n      iszero\n      dup1\n      iszero\n      tag_200\n      jumpi\n      returndatasize\n      0x00\n      dup1\n      returndatacopy\n      revert(0x00, returndatasize)\n    tag_200:\n      pop\n      pop\n      pop\n      pop\n      mload(0x40)\n      returndatasize\n      not(0x1f)\n      0x1f\n      dup3\n      add\n      and\n      dup3\n      add\n      dup1\n      0x40\n      mstore\n      pop\n      dup2\n      add\n      swap1\n      tag_201\n      swap2\n      swap1\n      tag_202\n      jump\t// in\n    tag_201:\n        /* \"contracts/Orders.sol\":11167:11222  return nftEnumerable.tokenOfOwnerByIndex(_owner, index) */\n      swap1\n      pop\n        /* \"contracts/Orders.sol\":11064:11230  function tokenOfOwnerByIndex(address _owner, uint256 index) external view returns (uint256) {... */\n      swap3\n      swap2\n      pop\n      pop\n      jump\t// out\n        /* \"contracts/Orders.sol\":8071:8557  function cancelListing(uint256 _listingId) external {... */\n    tag_51:\n        /* \"contracts/Orders.sol\":8134:8157  Listing storage listing */\n      0x00\n        /* \"contracts/Orders.sol\":8160:8168  listings */\n      0x03\n        /* \"contracts/Orders.sol\":8160:8180  listings[_listingId] */\n      0x00\n        /* \"contracts/Orders.sol\":8169:8179  _listingId */\n      dup4\n        /* \"contracts/Orders.sol\":8160:8180  listings[_listingId] */\n      dup2\n      mstore\n      0x20\n      add\n      swap1\n      dup2\n      mstore\n      0x20\n      add\n      0x00\n      keccak256\n        /* \"contracts/Orders.sol\":8134:8180  Listing storage listing = listings[_listingId] */\n      swap1\n      pop\n        /* \"contracts/Orders.sol\":8195:8202  listing */\n      dup1\n        /* \"contracts/Orders.sol\":8195:8211  listing.isActive */\n      0x03\n      add\n      0x00\n      swap1\n      sload\n      swap1\n      0x0100\n      exp\n      swap1\n      div\n      0xff\n      and\n        /* \"contracts/Orders.sol\":8191:8258  if(!listing.isActive) {... */\n      tag_204\n      jumpi\n        /* \"contracts/Orders.sol\":8235:8246  NotActive() */\n      mload(0x40)\n      0x80cb55e200000000000000000000000000000000000000000000000000000000\n      dup2\n      mstore\n      0x04\n      add\n      mload(0x40)\n      dup1\n      swap2\n      sub\n      swap1\n      revert\n        /* \"contracts/Orders.sol\":8191:8258  if(!listing.isActive) {... */\n    tag_204:\n        /* \"contracts/Orders.sol\":8290:8300  msg.sender */\n      caller\n        /* \"contracts/Orders.sol\":8272:8300  listing.seller != msg.sender */\n      0xffffffffffffffffffffffffffffffffffffffff\n      and\n        /* \"contracts/Orders.sol\":8272:8279  listing */\n      dup2\n        /* \"contracts/Orders.sol\":8272:8286  listing.seller */\n      0x00\n      add\n      0x00\n      swap1\n      sload\n      swap1\n      0x0100\n      exp\n      swap1\n      div\n      0xffffffffffffffffffffffffffffffffffffffff\n      and\n        /* \"contracts/Orders.sol\":8272:8300  listing.seller != msg.sender */\n      0xffffffffffffffffffffffffffffffffffffffff\n      and\n      eq\n        /* \"contracts/Orders.sol\":8268:8404  if (listing.seller != msg.sender) {... */\n      tag_205\n      jumpi\n        /* \"contracts/Orders.sol\":8362:8369  listing */\n      dup1\n        /* \"contracts/Orders.sol\":8362:8376  listing.seller */\n      0x00\n      add\n      0x00\n      swap1\n      sload\n      swap1\n      0x0100\n      exp\n      swap1\n      div\n      0xffffffffffffffffffffffffffffffffffffffff\n      and\n        /* \"contracts/Orders.sol\":8324:8392  NotSeller({... */\n      mload(0x40)\n      0xe38d022a00000000000000000000000000000000000000000000000000000000\n      dup2\n      mstore\n      0x04\n      add\n      tag_206\n      swap2\n      swap1\n      tag_178\n      jump\t// in\n    tag_206:\n      mload(0x40)\n      dup1\n      swap2\n      sub\n      swap1\n      revert\n        /* \"contracts/Orders.sol\":8268:8404  if (listing.seller != msg.sender) {... */\n    tag_205:\n        /* \"contracts/Orders.sol\":8435:8440  false */\n      0x00\n        /* \"contracts/Orders.sol\":8416:8423  listing */\n      dup2\n        /* \"contracts/Orders.sol\":8416:8432  listing.isActive */\n      0x03\n      add\n      0x00\n        /* \"contracts/Orders.sol\":8416:8440  listing.isActive = false */\n      0x0100\n      exp\n      dup2\n      sload\n      dup2\n      0xff\n      mul\n      not\n      and\n      swap1\n      dup4\n      iszero\n      iszero\n      mul\n      or\n      swap1\n      sstore\n      pop\n        /* \"contracts/Orders.sol\":8458:8474  tokenToListingId */\n      0x04\n        /* \"contracts/Orders.sol\":8458:8491  tokenToListingId[listing.tokenId] */\n      0x00\n        /* \"contracts/Orders.sol\":8475:8482  listing */\n      dup3\n        /* \"contracts/Orders.sol\":8475:8490  listing.tokenId */\n      0x01\n      add\n      sload\n        /* \"contracts/Orders.sol\":8458:8491  tokenToListingId[listing.tokenId] */\n      dup2\n      mstore\n      0x20\n      add\n      swap1\n      dup2\n      mstore\n      0x20\n      add\n      0x00\n      keccak256\n        /* \"contracts/Orders.sol\":8451:8491  delete tokenToListingId[listing.tokenId] */\n      0x00\n      swap1\n      sstore\n        /* \"contracts/Orders.sol\":8538:8548  msg.sender */\n      caller\n        /* \"contracts/Orders.sol\":8509:8549  ListingCancelled(_listingId, msg.sender) */\n      0xffffffffffffffffffffffffffffffffffffffff\n      and\n        /* \"contracts/Orders.sol\":8526:8536  _listingId */\n      dup3\n        /* \"contracts/Orders.sol\":8509:8549  ListingCancelled(_listingId, msg.sender) */\n      0x8e25282255ab31897df2b0456bb993ac7f84d376861aefd84901d2d63a7428a2\n      mload(0x40)\n      mload(0x40)\n      dup1\n      swap2\n      sub\n      swap1\n      log3\n        /* \"contracts/Orders.sol\":8123:8557  {... */\n      pop\n        /* \"contracts/Orders.sol\":8071:8557  function cancelListing(uint256 _listingId) external {... */\n      pop\n      jump\t// out\n        /* \"contracts/Orders.sol\":10094:10332  function setCommissionPercent(uint256 _newPercent) external onlyOwner {... */\n    tag_55:\n        /* \"contracts/Orders.sol\":4144:4149  owner */\n      immutable(\"0x67df77adbc271f558df88504cf3a3f87bfdd2d55b11e86c55c4fd978a935a836\")\n        /* \"contracts/Orders.sol\":4130:4149  msg.sender != owner */\n      0xffffffffffffffffffffffffffffffffffffffff\n      and\n        /* \"contracts/Orders.sol\":4130:4140  msg.sender */\n      caller\n        /* \"contracts/Orders.sol\":4130:4149  msg.sender != owner */\n      0xffffffffffffffffffffffffffffffffffffffff\n      and\n      eq\n        /* \"contracts/Orders.sol\":4126:4247  if (msg.sender != owner) {... */\n      tag_208\n      jumpi\n        /* \"contracts/Orders.sol\":4209:4219  msg.sender */\n      caller\n        /* \"contracts/Orders.sol\":4173:4235  NotOwner({... */\n      mload(0x40)\n      0x245aecd300000000000000000000000000000000000000000000000000000000\n      dup2\n      mstore\n      0x04\n      add\n      tag_209\n      swap2\n      swap1\n      tag_178\n      jump\t// in\n    tag_209:\n      mload(0x40)\n      dup1\n      swap2\n      sub\n      swap1\n      revert\n        /* \"contracts/Orders.sol\":4126:4247  if (msg.sender != owner) {... */\n    tag_208:\n        /* \"contracts/Orders.sol\":2157:2161  5000 */\n      0x1388\n        /* \"contracts/Orders.sol\":10183:10194  _newPercent */\n      dup2\n        /* \"contracts/Orders.sol\":10183:10212  _newPercent <= MAX_COMMISSION */\n      gt\n      iszero\n        /* \"contracts/Orders.sol\":10175:10236  require(_newPercent <= MAX_COMMISSION, \"Commission too high\") */\n      tag_211\n      jumpi\n      mload(0x40)\n      0x08c379a000000000000000000000000000000000000000000000000000000000\n      dup2\n      mstore\n      0x04\n      add\n      tag_212\n      swap1\n      tag_213\n      jump\t// in\n    tag_212:\n      mload(0x40)\n      dup1\n      swap2\n      sub\n      swap1\n      revert\n    tag_211:\n        /* \"contracts/Orders.sol\":10267:10278  _newPercent */\n      dup1\n        /* \"contracts/Orders.sol\":10247:10264  commissionPercent */\n      0x01\n        /* \"contracts/Orders.sol\":10247:10278  commissionPercent = _newPercent */\n      dup2\n      swap1\n      sstore\n      pop\n        /* \"contracts/Orders.sol\":10294:10324  CommissionUpdated(_newPercent) */\n      0x13f60dd2b588490608c3ff1932a3daeb4087f3d5af04b97e5c2a16b5b4c0302e\n        /* \"contracts/Orders.sol\":10312:10323  _newPercent */\n      dup2\n        /* \"contracts/Orders.sol\":10294:10324  CommissionUpdated(_newPercent) */\n      mload(0x40)\n      tag_214\n      swap2\n      swap1\n      tag_47\n      jump\t// in\n    tag_214:\n      mload(0x40)\n      dup1\n      swap2\n      sub\n      swap1\n      log1\n        /* \"contracts/Orders.sol\":10094:10332  function setCommissionPercent(uint256 _newPercent) external onlyOwner {... */\n      pop\n      jump\t// out\n        /* \"contracts/Orders.sol\":2831:2879  IERC721Enumerable public immutable nftEnumerable */\n    tag_58:\n      immutable(\"0xb7020dd003fcd4d96af1507ff4dc7e2c1158f23ad0bacfdf3455869cf9fb4898\")\n      dup2\n      jump\t// out\n        /* \"contracts/Orders.sol\":2013:2045  uint256 public commissionPercent */\n    tag_63:\n      sload(0x01)\n      dup2\n      jump\t// out\n        /* \"contracts/Orders.sol\":1793:1831  address payable public immutable owner */\n    tag_67:\n      immutable(\"0x67df77adbc271f558df88504cf3a3f87bfdd2d55b11e86c55c4fd978a935a836\")\n      dup2\n      jump\t// out\n        /* \"contracts/Orders.sol\":11408:11589  function isTokenListed(uint256 _tokenId) external view returns (bool) {... */\n    tag_73:\n        /* \"contracts/Orders.sol\":11472:11476  bool */\n      0x00\n        /* \"contracts/Orders.sol\":11489:11506  uint256 listingId */\n      dup1\n        /* \"contracts/Orders.sol\":11509:11525  tokenToListingId */\n      0x04\n        /* \"contracts/Orders.sol\":11509:11535  tokenToListingId[_tokenId] */\n      0x00\n        /* \"contracts/Orders.sol\":11526:11534  _tokenId */\n      dup5\n        /* \"contracts/Orders.sol\":11509:11535  tokenToListingId[_tokenId] */\n      dup2\n      mstore\n      0x20\n      add\n      swap1\n      dup2\n      mstore\n      0x20\n      add\n      0x00\n      keccak256\n      sload\n        /* \"contracts/Orders.sol\":11489:11535  uint256 listingId = tokenToListingId[_tokenId] */\n      swap1\n      pop\n        /* \"contracts/Orders.sol\":11553:11561  listings */\n      0x03\n        /* \"contracts/Orders.sol\":11553:11572  listings[listingId] */\n      0x00\n        /* \"contracts/Orders.sol\":11562:11571  listingId */\n      dup3\n        /* \"contracts/Orders.sol\":11553:11572  listings[listingId] */\n      dup2\n      mstore\n      0x20\n      add\n      swap1\n      dup2\n      mstore\n      0x20\n      add\n      0x00\n      keccak256\n        /* \"contracts/Orders.sol\":11553:11581  listings[listingId].isActive */\n      0x03\n      add\n      0x00\n      swap1\n      sload\n      swap1\n      0x0100\n      exp\n      swap1\n      div\n      0xff\n      and\n        /* \"contracts/Orders.sol\":11546:11581  return listings[listingId].isActive */\n      swap2\n      pop\n      pop\n        /* \"contracts/Orders.sol\":11408:11589  function isTokenListed(uint256 _tokenId) external view returns (bool) {... */\n      swap2\n      swap1\n      pop\n      jump\t// out\n        /* \"contracts/Orders.sol\":5032:6353  function createListing(uint128 _price, string memory _ipfsHash) external {... */\n    tag_80:\n        /* \"contracts/Orders.sol\":5116:5135  uint256 _NewtokenId */\n      0x00\n        /* \"contracts/Orders.sol\":5138:5150  tokenCounter */\n      dup1\n      sload\n        /* \"contracts/Orders.sol\":5116:5150  uint256 _NewtokenId = tokenCounter */\n      swap1\n      pop\n        /* \"contracts/Orders.sol\":5178:5179  0 */\n      0x00\n        /* \"contracts/Orders.sol\":5169:5175  _price */\n      dup4\n        /* \"contracts/Orders.sol\":5169:5179  _price > 0 */\n      0xffffffffffffffffffffffffffffffff\n      and\n      gt\n        /* \"contracts/Orders.sol\":5161:5201  require(_price > 0, \"Price must be > 0\") */\n      tag_217\n      jumpi\n      mload(0x40)\n      0x08c379a000000000000000000000000000000000000000000000000000000000\n      dup2\n      mstore\n      0x04\n      add\n      tag_218\n      swap1\n      tag_219\n      jump\t// in\n    tag_218:\n      mload(0x40)\n      dup1\n      swap2\n      sub\n      swap1\n      revert\n    tag_217:\n        /* \"contracts/Orders.sol\":5222:5240  address tokenOwner */\n      0x00\n        /* \"contracts/Orders.sol\":5243:5254  nftContract */\n      immutable(\"0x3884709d17f664eaba4ac467a7268cd72e3e0fe0c4e85152b1894161243c55c2\")\n        /* \"contracts/Orders.sol\":5243:5262  nftContract.ownerOf */\n      0xffffffffffffffffffffffffffffffffffffffff\n      and\n      0x6352211e\n        /* \"contracts/Orders.sol\":5263:5274  _NewtokenId */\n      dup4\n        /* \"contracts/Orders.sol\":5243:5275  nftContract.ownerOf(_NewtokenId) */\n      mload(0x40)\n      dup3\n      0xffffffff\n      and\n      0xe0\n      shl\n      dup2\n      mstore\n      0x04\n      add\n      tag_220\n      swap2\n      swap1\n      tag_47\n      jump\t// in\n    tag_220:\n      0x20\n      mload(0x40)\n      dup1\n      dup4\n      sub\n      dup2\n      dup7\n      gas\n      staticcall\n      iszero\n      dup1\n      iszero\n      tag_222\n      jumpi\n      returndatasize\n      0x00\n      dup1\n      returndatacopy\n      revert(0x00, returndatasize)\n    tag_222:\n      pop\n      pop\n      pop\n      pop\n      mload(0x40)\n      returndatasize\n      not(0x1f)\n      0x1f\n      dup3\n      add\n      and\n      dup3\n      add\n      dup1\n      0x40\n      mstore\n      pop\n      dup2\n      add\n      swap1\n      tag_223\n      swap2\n      swap1\n      tag_147\n      jump\t// in\n    tag_223:\n        /* \"contracts/Orders.sol\":5222:5275  address tokenOwner = nftContract.ownerOf(_NewtokenId) */\n      swap1\n      pop\n        /* \"contracts/Orders.sol\":5304:5314  msg.sender */\n      caller\n        /* \"contracts/Orders.sol\":5290:5314  tokenOwner != msg.sender */\n      0xffffffffffffffffffffffffffffffffffffffff\n      and\n        /* \"contracts/Orders.sol\":5290:5300  tokenOwner */\n      dup2\n        /* \"contracts/Orders.sol\":5290:5314  tokenOwner != msg.sender */\n      0xffffffffffffffffffffffffffffffffffffffff\n      and\n      eq\n        /* \"contracts/Orders.sol\":5286:5422  if (tokenOwner != msg.sender) {... */\n      tag_224\n      jumpi\n        /* \"contracts/Orders.sol\":5384:5394  tokenOwner */\n      dup1\n        /* \"contracts/Orders.sol\":5338:5410  NotTokenOwner({... */\n      mload(0x40)\n      0x928730cc00000000000000000000000000000000000000000000000000000000\n      dup2\n      mstore\n      0x04\n      add\n      tag_225\n      swap2\n      swap1\n      tag_178\n      jump\t// in\n    tag_225:\n      mload(0x40)\n      dup1\n      swap2\n      sub\n      swap1\n      revert\n        /* \"contracts/Orders.sol\":5286:5422  if (tokenOwner != msg.sender) {... */\n    tag_224:\n        /* \"contracts/Orders.sol\":5461:5472  nftContract */\n      immutable(\"0x3884709d17f664eaba4ac467a7268cd72e3e0fe0c4e85152b1894161243c55c2\")\n        /* \"contracts/Orders.sol\":5461:5489  nftContract.isApprovedForAll */\n      0xffffffffffffffffffffffffffffffffffffffff\n      and\n      0xe985e9c5\n        /* \"contracts/Orders.sol\":5490:5500  msg.sender */\n      caller\n        /* \"contracts/Orders.sol\":5510:5514  this */\n      address\n        /* \"contracts/Orders.sol\":5461:5516  nftContract.isApprovedForAll(msg.sender, address(this)) */\n      mload(0x40)\n      dup4\n      0xffffffff\n      and\n      0xe0\n      shl\n      dup2\n      mstore\n      0x04\n      add\n      tag_226\n      swap3\n      swap2\n      swap1\n      tag_152\n      jump\t// in\n    tag_226:\n      0x20\n      mload(0x40)\n      dup1\n      dup4\n      sub\n      dup2\n      dup7\n      gas\n      staticcall\n      iszero\n      dup1\n      iszero\n      tag_228\n      jumpi\n      returndatasize\n      0x00\n      dup1\n      returndatacopy\n      revert(0x00, returndatasize)\n    tag_228:\n      pop\n      pop\n      pop\n      pop\n      mload(0x40)\n      returndatasize\n      not(0x1f)\n      0x1f\n      dup3\n      add\n      and\n      dup3\n      add\n      dup1\n      0x40\n      mstore\n      pop\n      dup2\n      add\n      swap1\n      tag_229\n      swap2\n      swap1\n      tag_156\n      jump\t// in\n    tag_229:\n        /* \"contracts/Orders.sol\":5460:5516  !nftContract.isApprovedForAll(msg.sender, address(this)) */\n      iszero\n        /* \"contracts/Orders.sol\":5460:5586  !nftContract.isApprovedForAll(msg.sender, address(this)) &&... */\n      dup1\n      iszero\n      tag_230\n      jumpi\n      pop\n        /* \"contracts/Orders.sol\":5581:5585  this */\n      address\n        /* \"contracts/Orders.sol\":5533:5586  nftContract.getApproved(_NewtokenId) != address(this) */\n      0xffffffffffffffffffffffffffffffffffffffff\n      and\n        /* \"contracts/Orders.sol\":5533:5544  nftContract */\n      immutable(\"0x3884709d17f664eaba4ac467a7268cd72e3e0fe0c4e85152b1894161243c55c2\")\n        /* \"contracts/Orders.sol\":5533:5556  nftContract.getApproved */\n      0xffffffffffffffffffffffffffffffffffffffff\n      and\n      0x081812fc\n        /* \"contracts/Orders.sol\":5557:5568  _NewtokenId */\n      dup5\n        /* \"contracts/Orders.sol\":5533:5569  nftContract.getApproved(_NewtokenId) */\n      mload(0x40)\n      dup3\n      0xffffffff\n      and\n      0xe0\n      shl\n      dup2\n      mstore\n      0x04\n      add\n      tag_231\n      swap2\n      swap1\n      tag_47\n      jump\t// in\n    tag_231:\n      0x20\n      mload(0x40)\n      dup1\n      dup4\n      sub\n      dup2\n      dup7\n      gas\n      staticcall\n      iszero\n      dup1\n      iszero\n      tag_233\n      jumpi\n      returndatasize\n      0x00\n      dup1\n      returndatacopy\n      revert(0x00, returndatasize)\n    tag_233:\n      pop\n      pop\n      pop\n      pop\n      mload(0x40)\n      returndatasize\n      not(0x1f)\n      0x1f\n      dup3\n      add\n      and\n      dup3\n      add\n      dup1\n      0x40\n      mstore\n      pop\n      dup2\n      add\n      swap1\n      tag_234\n      swap2\n      swap1\n      tag_147\n      jump\t// in\n    tag_234:\n        /* \"contracts/Orders.sol\":5533:5586  nftContract.getApproved(_NewtokenId) != address(this) */\n      0xffffffffffffffffffffffffffffffffffffffff\n      and\n      eq\n      iszero\n        /* \"contracts/Orders.sol\":5460:5586  !nftContract.isApprovedForAll(msg.sender, address(this)) &&... */\n    tag_230:\n        /* \"contracts/Orders.sol\":5442:5645  if (... */\n      iszero\n      tag_235\n      jumpi\n        /* \"contracts/Orders.sol\":5620:5633  NotApproved() */\n      mload(0x40)\n      0xc19f17a900000000000000000000000000000000000000000000000000000000\n      dup2\n      mstore\n      0x04\n      add\n      mload(0x40)\n      dup1\n      swap2\n      sub\n      swap1\n      revert\n        /* \"contracts/Orders.sol\":5442:5645  if (... */\n    tag_235:\n        /* \"contracts/Orders.sol\":5694:5695  0 */\n      0x00\n        /* \"contracts/Orders.sol\":5661:5677  tokenToListingId */\n      0x04\n        /* \"contracts/Orders.sol\":5661:5690  tokenToListingId[_NewtokenId] */\n      0x00\n        /* \"contracts/Orders.sol\":5678:5689  _NewtokenId */\n      dup5\n        /* \"contracts/Orders.sol\":5661:5690  tokenToListingId[_NewtokenId] */\n      dup2\n      mstore\n      0x20\n      add\n      swap1\n      dup2\n      mstore\n      0x20\n      add\n      0x00\n      keccak256\n      sload\n        /* \"contracts/Orders.sol\":5661:5695  tokenToListingId[_NewtokenId] != 0 */\n      eq\n        /* \"contracts/Orders.sol\":5657:5746  if (tokenToListingId[_NewtokenId] != 0) {... */\n      tag_236\n      jumpi\n        /* \"contracts/Orders.sol\":5719:5734  AlreadyListed() */\n      mload(0x40)\n      0xa3d582ec00000000000000000000000000000000000000000000000000000000\n      dup2\n      mstore\n      0x04\n      add\n      mload(0x40)\n      dup1\n      swap2\n      sub\n      swap1\n      revert\n        /* \"contracts/Orders.sol\":5657:5746  if (tokenToListingId[_NewtokenId] != 0) {... */\n    tag_236:\n        /* \"contracts/Orders.sol\":5758:5775  uint256 listingId */\n      0x00\n        /* \"contracts/Orders.sol\":5827:5838  _NewtokenId */\n      dup3\n        /* \"contracts/Orders.sol\":5853:5863  msg.sender */\n      caller\n        /* \"contracts/Orders.sol\":5878:5893  block.timestamp */\n      timestamp\n        /* \"contracts/Orders.sol\":5796:5904  abi.encodePacked(... */\n      add(0x20, mload(0x40))\n      tag_237\n      swap4\n      swap3\n      swap2\n      swap1\n      tag_238\n      jump\t// in\n    tag_237:\n      mload(0x40)\n      0x20\n      dup2\n      dup4\n      sub\n      sub\n      dup2\n      mstore\n      swap1\n      0x40\n      mstore\n        /* \"contracts/Orders.sol\":5786:5905  keccak256(abi.encodePacked(... */\n      dup1\n      mload\n      swap1\n      0x20\n      add\n      keccak256\n        /* \"contracts/Orders.sol\":5778:5906  uint256(keccak256(abi.encodePacked(... */\n      0x00\n      shr\n        /* \"contracts/Orders.sol\":5758:5906  uint256 listingId = uint256(keccak256(abi.encodePacked(... */\n      swap1\n      pop\n        /* \"contracts/Orders.sol\":5941:6086  Listing({... */\n      mload(0x40)\n      dup1\n      0x80\n      add\n      0x40\n      mstore\n      dup1\n        /* \"contracts/Orders.sol\":5972:5982  msg.sender */\n      caller\n        /* \"contracts/Orders.sol\":5941:6086  Listing({... */\n      0xffffffffffffffffffffffffffffffffffffffff\n      and\n      dup2\n      mstore\n      0x20\n      add\n        /* \"contracts/Orders.sol\":6006:6017  _NewtokenId */\n      dup5\n        /* \"contracts/Orders.sol\":5941:6086  Listing({... */\n      dup2\n      mstore\n      0x20\n      add\n        /* \"contracts/Orders.sol\":6039:6045  _price */\n      dup7\n        /* \"contracts/Orders.sol\":5941:6086  Listing({... */\n      0xffffffffffffffffffffffffffffffff\n      and\n      dup2\n      mstore\n      0x20\n      add\n        /* \"contracts/Orders.sol\":6070:6074  true */\n      0x01\n        /* \"contracts/Orders.sol\":5941:6086  Listing({... */\n      iszero\n      iszero\n      dup2\n      mstore\n      pop\n        /* \"contracts/Orders.sol\":5919:5927  listings */\n      0x03\n        /* \"contracts/Orders.sol\":5919:5938  listings[listingId] */\n      0x00\n        /* \"contracts/Orders.sol\":5928:5937  listingId */\n      dup4\n        /* \"contracts/Orders.sol\":5919:5938  listings[listingId] */\n      dup2\n      mstore\n      0x20\n      add\n      swap1\n      dup2\n      mstore\n      0x20\n      add\n      0x00\n      keccak256\n        /* \"contracts/Orders.sol\":5919:6086  listings[listingId] = Listing({... */\n      0x00\n      dup3\n      add\n      mload\n      dup2\n      0x00\n      add\n      exp(0x0100, 0x00)\n      dup2\n      sload\n      dup2\n      0xffffffffffffffffffffffffffffffffffffffff\n      mul\n      not\n      and\n      swap1\n      dup4\n      0xffffffffffffffffffffffffffffffffffffffff\n      and\n      mul\n      or\n      swap1\n      sstore\n      pop\n      0x20\n      dup3\n      add\n      mload\n      dup2\n      0x01\n      add\n      sstore\n      0x40\n      dup3\n      add\n      mload\n      dup2\n      0x02\n      add\n      sstore\n      0x60\n      dup3\n      add\n      mload\n      dup2\n      0x03\n      add\n      exp(0x0100, 0x00)\n      dup2\n      sload\n      dup2\n      0xff\n      mul\n      not\n      and\n      swap1\n      dup4\n      iszero\n      iszero\n      mul\n      or\n      swap1\n      sstore\n      pop\n      swap1\n      pop\n      pop\n        /* \"contracts/Orders.sol\":6099:6135  _setTokenURI(_NewtokenId, _ipfsHash) */\n      tag_239\n        /* \"contracts/Orders.sol\":6112:6123  _NewtokenId */\n      dup4\n        /* \"contracts/Orders.sol\":6125:6134  _ipfsHash */\n      dup6\n        /* \"contracts/Orders.sol\":6099:6111  _setTokenURI */\n      tag_240\n        /* \"contracts/Orders.sol\":6099:6135  _setTokenURI(_NewtokenId, _ipfsHash) */\n      jump\t// in\n    tag_239:\n        /* \"contracts/Orders.sol\":6180:6189  listingId */\n      dup1\n        /* \"contracts/Orders.sol\":6148:6164  tokenToListingId */\n      0x04\n        /* \"contracts/Orders.sol\":6148:6177  tokenToListingId[_NewtokenId] */\n      0x00\n        /* \"contracts/Orders.sol\":6165:6176  _NewtokenId */\n      dup6\n        /* \"contracts/Orders.sol\":6148:6177  tokenToListingId[_NewtokenId] */\n      dup2\n      mstore\n      0x20\n      add\n      swap1\n      dup2\n      mstore\n      0x20\n      add\n      0x00\n      keccak256\n        /* \"contracts/Orders.sol\":6148:6189  tokenToListingId[_NewtokenId] = listingId */\n      dup2\n      swap1\n      sstore\n      pop\n        /* \"contracts/Orders.sol\":6200:6214  sellerListings */\n      0x07\n        /* \"contracts/Orders.sol\":6200:6226  sellerListings[msg.sender] */\n      0x00\n        /* \"contracts/Orders.sol\":6215:6225  msg.sender */\n      caller\n        /* \"contracts/Orders.sol\":6200:6226  sellerListings[msg.sender] */\n      0xffffffffffffffffffffffffffffffffffffffff\n      and\n      0xffffffffffffffffffffffffffffffffffffffff\n      and\n      dup2\n      mstore\n      0x20\n      add\n      swap1\n      dup2\n      mstore\n      0x20\n      add\n      0x00\n      keccak256\n        /* \"contracts/Orders.sol\":6232:6240  listings */\n      0x03\n        /* \"contracts/Orders.sol\":6232:6251  listings[listingId] */\n      0x00\n        /* \"contracts/Orders.sol\":6241:6250  listingId */\n      dup4\n        /* \"contracts/Orders.sol\":6232:6251  listings[listingId] */\n      dup2\n      mstore\n      0x20\n      add\n      swap1\n      dup2\n      mstore\n      0x20\n      add\n      0x00\n      keccak256\n        /* \"contracts/Orders.sol\":6200:6252  sellerListings[msg.sender].push(listings[listingId]) */\n      swap1\n      dup1\n      0x01\n      dup2\n      sload\n      add\n      dup1\n      dup3\n      sstore\n      dup1\n      swap2\n      pop\n      pop\n      0x01\n      swap1\n      sub\n      swap1\n      0x00\n      mstore\n      keccak256(0x00, 0x20)\n      swap1\n      0x04\n      mul\n      add\n      0x00\n      swap1\n      swap2\n      swap1\n      swap2\n      swap1\n      swap2\n      pop\n      0x00\n      dup3\n      add\n      0x00\n      swap1\n      sload\n      swap1\n      0x0100\n      exp\n      swap1\n      div\n      0xffffffffffffffffffffffffffffffffffffffff\n      and\n      dup2\n      0x00\n      add\n      exp(0x0100, 0x00)\n      dup2\n      sload\n      dup2\n      0xffffffffffffffffffffffffffffffffffffffff\n      mul\n      not\n      and\n      swap1\n      dup4\n      0xffffffffffffffffffffffffffffffffffffffff\n      and\n      mul\n      or\n      swap1\n      sstore\n      pop\n      0x01\n      dup3\n      add\n      sload\n      dup2\n      0x01\n      add\n      sstore\n      0x02\n      dup3\n      add\n      sload\n      dup2\n      0x02\n      add\n      sstore\n      0x03\n      dup3\n      add\n      0x00\n      swap1\n      sload\n      swap1\n      0x0100\n      exp\n      swap1\n      div\n      0xff\n      and\n      dup2\n      0x03\n      add\n      exp(0x0100, 0x00)\n      dup2\n      sload\n      dup2\n      0xff\n      mul\n      not\n      and\n      swap1\n      dup4\n      iszero\n      iszero\n      mul\n      or\n      swap1\n      sstore\n      pop\n      pop\n      pop\n        /* \"contracts/Orders.sol\":6296:6306  msg.sender */\n      caller\n        /* \"contracts/Orders.sol\":6270:6345  ListingCreated(listingId, msg.sender, _NewtokenId, _price, block.timestamp) */\n      0xffffffffffffffffffffffffffffffffffffffff\n      and\n        /* \"contracts/Orders.sol\":6285:6294  listingId */\n      dup2\n        /* \"contracts/Orders.sol\":6270:6345  ListingCreated(listingId, msg.sender, _NewtokenId, _price, block.timestamp) */\n      0xa3941cfa07eecf2734875ab71cea0e47395be644da6e17b039a7e29efba74ef9\n        /* \"contracts/Orders.sol\":6308:6319  _NewtokenId */\n      dup6\n        /* \"contracts/Orders.sol\":6321:6327  _price */\n      dup9\n        /* \"contracts/Orders.sol\":6329:6344  block.timestamp */\n      timestamp\n        /* \"contracts/Orders.sol\":6270:6345  ListingCreated(listingId, msg.sender, _NewtokenId, _price, block.timestamp) */\n      mload(0x40)\n      tag_242\n      swap4\n      swap3\n      swap2\n      swap1\n      tag_243\n      jump\t// in\n    tag_242:\n      mload(0x40)\n      dup1\n      swap2\n      sub\n      swap1\n      log3\n        /* \"contracts/Orders.sol\":5105:6353  {... */\n      pop\n      pop\n      pop\n        /* \"contracts/Orders.sol\":5032:6353  function createListing(uint128 _price, string memory _ipfsHash) external {... */\n      pop\n      pop\n      jump\t// out\n        /* \"contracts/Orders.sol\":2116:2161  uint256 public constant MAX_COMMISSION = 5000 */\n    tag_83:\n        /* \"contracts/Orders.sol\":2157:2161  5000 */\n      0x1388\n        /* \"contracts/Orders.sol\":2116:2161  uint256 public constant MAX_COMMISSION = 5000 */\n      dup2\n      jump\t// out\n        /* \"contracts/Orders.sol\":9026:9258  function tokenURI(uint256 _tokenId) public view returns (string memory) {... */\n    tag_88:\n        /* \"contracts/Orders.sol\":9083:9096  string memory */\n      0x60\n        /* \"contracts/Orders.sol\":9150:9151  0 */\n      0x00\n        /* \"contracts/Orders.sol\":9119:9129  _tokenURIs */\n      0x06\n        /* \"contracts/Orders.sol\":9119:9139  _tokenURIs[_tokenId] */\n      0x00\n        /* \"contracts/Orders.sol\":9130:9138  _tokenId */\n      dup5\n        /* \"contracts/Orders.sol\":9119:9139  _tokenURIs[_tokenId] */\n      dup2\n      mstore\n      0x20\n      add\n      swap1\n      dup2\n      mstore\n      0x20\n      add\n      0x00\n      keccak256\n        /* \"contracts/Orders.sol\":9113:9147  bytes(_tokenURIs[_tokenId]).length */\n      dup1\n      sload\n      tag_245\n      swap1\n      tag_191\n      jump\t// in\n    tag_245:\n      swap1\n      pop\n        /* \"contracts/Orders.sol\":9113:9151  bytes(_tokenURIs[_tokenId]).length > 0 */\n      gt\n        /* \"contracts/Orders.sol\":9105:9183  require(bytes(_tokenURIs[_tokenId]).length > 0, \"URI set to the null address\") */\n      tag_246\n      jumpi\n      mload(0x40)\n      0x08c379a000000000000000000000000000000000000000000000000000000000\n      dup2\n      mstore\n      0x04\n      add\n      tag_247\n      swap1\n      tag_248\n      jump\t// in\n    tag_247:\n      mload(0x40)\n      dup1\n      swap2\n      sub\n      swap1\n      revert\n    tag_246:\n        /* \"contracts/Orders.sol\":9232:9242  _tokenURIs */\n      0x06\n        /* \"contracts/Orders.sol\":9232:9252  _tokenURIs[_tokenId] */\n      0x00\n        /* \"contracts/Orders.sol\":9243:9251  _tokenId */\n      dup4\n        /* \"contracts/Orders.sol\":9232:9252  _tokenURIs[_tokenId] */\n      dup2\n      mstore\n      0x20\n      add\n      swap1\n      dup2\n      mstore\n      0x20\n      add\n      0x00\n      keccak256\n        /* \"contracts/Orders.sol\":9204:9253  abi.encodePacked(\"ipfs://\", _tokenURIs[_tokenId]) */\n      add(0x20, mload(0x40))\n      tag_249\n      swap2\n      swap1\n      tag_250\n      jump\t// in\n    tag_249:\n      mload(0x40)\n      0x20\n      dup2\n      dup4\n      sub\n      sub\n      dup2\n      mstore\n      swap1\n      0x40\n      mstore\n        /* \"contracts/Orders.sol\":9190:9254  return string(abi.encodePacked(\"ipfs://\", _tokenURIs[_tokenId])) */\n      swap1\n      pop\n        /* \"contracts/Orders.sol\":9026:9258  function tokenURI(uint256 _tokenId) public view returns (string memory) {... */\n      swap2\n      swap1\n      pop\n      jump\t// out\n        /* \"contracts/Orders.sol\":11792:11916  function getListingId(uint256 _tokenId) external view returns (uint256) {... */\n    tag_93:\n        /* \"contracts/Orders.sol\":11855:11862  uint256 */\n      0x00\n        /* \"contracts/Orders.sol\":11882:11898  tokenToListingId */\n      0x04\n        /* \"contracts/Orders.sol\":11882:11908  tokenToListingId[_tokenId] */\n      0x00\n        /* \"contracts/Orders.sol\":11899:11907  _tokenId */\n      dup4\n        /* \"contracts/Orders.sol\":11882:11908  tokenToListingId[_tokenId] */\n      dup2\n      mstore\n      0x20\n      add\n      swap1\n      dup2\n      mstore\n      0x20\n      add\n      0x00\n      keccak256\n      sload\n        /* \"contracts/Orders.sol\":11875:11908  return tokenToListingId[_tokenId] */\n      swap1\n      pop\n        /* \"contracts/Orders.sol\":11792:11916  function getListingId(uint256 _tokenId) external view returns (uint256) {... */\n      swap2\n      swap1\n      pop\n      jump\t// out\n        /* \"contracts/Orders.sol\":1882:1909  uint256 public tokenCounter */\n    tag_97:\n      sload(0x00)\n      dup2\n      jump\t// out\n        /* \"contracts/Orders.sol\":2722:2758  IERC721 public immutable nftContract */\n    tag_101:\n      immutable(\"0x3884709d17f664eaba4ac467a7268cd72e3e0fe0c4e85152b1894161243c55c2\")\n      dup2\n      jump\t// out\n        /* \"contracts/Orders.sol\":12090:12226  function getListingsBySeller(address _seller) external view returns (Listing[] memory) {... */\n    tag_108:\n        /* \"contracts/Orders.sol\":12159:12175  Listing[] memory */\n      0x60\n        /* \"contracts/Orders.sol\":12195:12209  sellerListings */\n      0x07\n        /* \"contracts/Orders.sol\":12195:12218  sellerListings[_seller] */\n      0x00\n        /* \"contracts/Orders.sol\":12210:12217  _seller */\n      dup4\n        /* \"contracts/Orders.sol\":12195:12218  sellerListings[_seller] */\n      0xffffffffffffffffffffffffffffffffffffffff\n      and\n      0xffffffffffffffffffffffffffffffffffffffff\n      and\n      dup2\n      mstore\n      0x20\n      add\n      swap1\n      dup2\n      mstore\n      0x20\n      add\n      0x00\n      keccak256\n        /* \"contracts/Orders.sol\":12188:12218  return sellerListings[_seller] */\n      dup1\n      sload\n      dup1\n      0x20\n      mul\n      0x20\n      add\n      mload(0x40)\n      swap1\n      dup2\n      add\n      0x40\n      mstore\n      dup1\n      swap3\n      swap2\n      swap1\n      dup2\n      dup2\n      mstore\n      0x20\n      add\n      0x00\n      swap1\n    tag_253:\n      dup3\n      dup3\n      lt\n      iszero\n      tag_254\n      jumpi\n      dup4\n      dup3\n      swap1\n      0x00\n      mstore\n      keccak256(0x00, 0x20)\n      swap1\n      0x04\n      mul\n      add\n      mload(0x40)\n      dup1\n      0x80\n      add\n      0x40\n      mstore\n      swap1\n      dup2\n      0x00\n      dup3\n      add\n      0x00\n      swap1\n      sload\n      swap1\n      0x0100\n      exp\n      swap1\n      div\n      0xffffffffffffffffffffffffffffffffffffffff\n      and\n      0xffffffffffffffffffffffffffffffffffffffff\n      and\n      0xffffffffffffffffffffffffffffffffffffffff\n      and\n      dup2\n      mstore\n      0x20\n      add\n      0x01\n      dup3\n      add\n      sload\n      dup2\n      mstore\n      0x20\n      add\n      0x02\n      dup3\n      add\n      sload\n      dup2\n      mstore\n      0x20\n      add\n      0x03\n      dup3\n      add\n      0x00\n      swap1\n      sload\n      swap1\n      0x0100\n      exp\n      swap1\n      div\n      0xff\n      and\n      iszero\n      iszero\n      iszero\n      iszero\n      dup2\n      mstore\n      pop\n      pop\n      dup2\n      mstore\n      0x20\n      add\n      swap1\n      0x01\n      add\n      swap1\n      jump(tag_253)\n    tag_254:\n      pop\n      pop\n      pop\n      pop\n      swap1\n      pop\n        /* \"contracts/Orders.sol\":12090:12226  function getListingsBySeller(address _seller) external view returns (Listing[] memory) {... */\n      swap2\n      swap1\n      pop\n      jump\t// out\n        /* \"contracts/Orders.sol\":2296:2339  mapping(uint256 => Listing) public listings */\n    tag_114:\n      mstore(0x20, 0x03)\n      dup1\n      0x00\n      mstore\n      keccak256(0x00, 0x40)\n      0x00\n      swap2\n      pop\n      swap1\n      pop\n      dup1\n      0x00\n      add\n      0x00\n      swap1\n      sload\n      swap1\n      0x0100\n      exp\n      swap1\n      div\n      0xffffffffffffffffffffffffffffffffffffffff\n      and\n      swap1\n      dup1\n      0x01\n      add\n      sload\n      swap1\n      dup1\n      0x02\n      add\n      sload\n      swap1\n      dup1\n      0x03\n      add\n      0x00\n      swap1\n      sload\n      swap1\n      0x0100\n      exp\n      swap1\n      div\n      0xff\n      and\n      swap1\n      pop\n      dup5\n      jump\t// out\n        /* \"contracts/Orders.sol\":12309:12737  function deleteListing(uint256 _tokenId) external {... */\n    tag_120:\n        /* \"contracts/Orders.sol\":12388:12399  nftContract */\n      immutable(\"0x3884709d17f664eaba4ac467a7268cd72e3e0fe0c4e85152b1894161243c55c2\")\n        /* \"contracts/Orders.sol\":12388:12407  nftContract.ownerOf */\n      0xffffffffffffffffffffffffffffffffffffffff\n      and\n      0x6352211e\n        /* \"contracts/Orders.sol\":12408:12416  _tokenId */\n      dup3\n        /* \"contracts/Orders.sol\":12388:12417  nftContract.ownerOf(_tokenId) */\n      mload(0x40)\n      dup3\n      0xffffffff\n      and\n      0xe0\n      shl\n      dup2\n      mstore\n      0x04\n      add\n      tag_257\n      swap2\n      swap1\n      tag_47\n      jump\t// in\n    tag_257:\n      0x20\n      mload(0x40)\n      dup1\n      dup4\n      sub\n      dup2\n      dup7\n      gas\n      staticcall\n      iszero\n      dup1\n      iszero\n      tag_259\n      jumpi\n      returndatasize\n      0x00\n      dup1\n      returndatacopy\n      revert(0x00, returndatasize)\n    tag_259:\n      pop\n      pop\n      pop\n      pop\n      mload(0x40)\n      returndatasize\n      not(0x1f)\n      0x1f\n      dup3\n      add\n      and\n      dup3\n      add\n      dup1\n      0x40\n      mstore\n      pop\n      dup2\n      add\n      swap1\n      tag_260\n      swap2\n      swap1\n      tag_147\n      jump\t// in\n    tag_260:\n        /* \"contracts/Orders.sol\":12374:12417  msg.sender != nftContract.ownerOf(_tokenId) */\n      0xffffffffffffffffffffffffffffffffffffffff\n      and\n        /* \"contracts/Orders.sol\":12374:12384  msg.sender */\n      caller\n        /* \"contracts/Orders.sol\":12374:12417  msg.sender != nftContract.ownerOf(_tokenId) */\n      0xffffffffffffffffffffffffffffffffffffffff\n      and\n      eq\n        /* \"contracts/Orders.sol\":12370:12525  if (msg.sender != nftContract.ownerOf(_tokenId)) {... */\n      tag_261\n      jumpi\n        /* \"contracts/Orders.sol\":12487:12497  msg.sender */\n      caller\n        /* \"contracts/Orders.sol\":12441:12513  NotTokenOwner({... */\n      mload(0x40)\n      0x928730cc00000000000000000000000000000000000000000000000000000000\n      dup2\n      mstore\n      0x04\n      add\n      tag_262\n      swap2\n      swap1\n      tag_178\n      jump\t// in\n    tag_262:\n      mload(0x40)\n      dup1\n      swap2\n      sub\n      swap1\n      revert\n        /* \"contracts/Orders.sol\":12370:12525  if (msg.sender != nftContract.ownerOf(_tokenId)) {... */\n    tag_261:\n        /* \"contracts/Orders.sol\":12542:12550  listings */\n      0x03\n        /* \"contracts/Orders.sol\":12542:12560  listings[_tokenId] */\n      0x00\n        /* \"contracts/Orders.sol\":12551:12559  _tokenId */\n      dup3\n        /* \"contracts/Orders.sol\":12542:12560  listings[_tokenId] */\n      dup2\n      mstore\n      0x20\n      add\n      swap1\n      dup2\n      mstore\n      0x20\n      add\n      0x00\n      keccak256\n        /* \"contracts/Orders.sol\":12542:12569  listings[_tokenId].isActive */\n      0x03\n      add\n      0x00\n      swap1\n      sload\n      swap1\n      0x0100\n      exp\n      swap1\n      div\n      0xff\n      and\n        /* \"contracts/Orders.sol\":12537:12616  if (!listings[_tokenId].isActive) {... */\n      tag_263\n      jumpi\n        /* \"contracts/Orders.sol\":12593:12604  NotActive() */\n      mload(0x40)\n      0x80cb55e200000000000000000000000000000000000000000000000000000000\n      dup2\n      mstore\n      0x04\n      add\n      mload(0x40)\n      dup1\n      swap2\n      sub\n      swap1\n      revert\n        /* \"contracts/Orders.sol\":12537:12616  if (!listings[_tokenId].isActive) {... */\n    tag_263:\n        /* \"contracts/Orders.sol\":12658:12663  false */\n      0x00\n        /* \"contracts/Orders.sol\":12628:12636  listings */\n      0x03\n        /* \"contracts/Orders.sol\":12628:12646  listings[_tokenId] */\n      0x00\n        /* \"contracts/Orders.sol\":12637:12645  _tokenId */\n      dup4\n        /* \"contracts/Orders.sol\":12628:12646  listings[_tokenId] */\n      dup2\n      mstore\n      0x20\n      add\n      swap1\n      dup2\n      mstore\n      0x20\n      add\n      0x00\n      keccak256\n        /* \"contracts/Orders.sol\":12628:12655  listings[_tokenId].isActive */\n      0x03\n      add\n      0x00\n        /* \"contracts/Orders.sol\":12628:12663  listings[_tokenId].isActive = false */\n      0x0100\n      exp\n      dup2\n      sload\n      dup2\n      0xff\n      mul\n      not\n      and\n      swap1\n      dup4\n      iszero\n      iszero\n      mul\n      or\n      swap1\n      sstore\n      pop\n        /* \"contracts/Orders.sol\":12701:12711  msg.sender */\n      caller\n        /* \"contracts/Orders.sol\":12681:12729  NFTDelete(_tokenId, msg.sender, block.timestamp) */\n      0xffffffffffffffffffffffffffffffffffffffff\n      and\n        /* \"contracts/Orders.sol\":12691:12699  _tokenId */\n      dup2\n        /* \"contracts/Orders.sol\":12681:12729  NFTDelete(_tokenId, msg.sender, block.timestamp) */\n      0x25331cbadf10d7fde7ba3cb8e4a9ceb748c5c0a5f37f23da51ce1a4142fc8c00\n        /* \"contracts/Orders.sol\":12713:12728  block.timestamp */\n      timestamp\n        /* \"contracts/Orders.sol\":12681:12729  NFTDelete(_tokenId, msg.sender, block.timestamp) */\n      mload(0x40)\n      tag_264\n      swap2\n      swap1\n      tag_47\n      jump\t// in\n    tag_264:\n      mload(0x40)\n      dup1\n      swap2\n      sub\n      swap1\n      log3\n        /* \"contracts/Orders.sol\":12309:12737  function deleteListing(uint256 _tokenId) external {... */\n      pop\n      jump\t// out\n        /* \"contracts/Orders.sol\":2523:2576  mapping(address => uint256) public pendingWithdrawals */\n    tag_124:\n      mstore(0x20, 0x05)\n      dup1\n      0x00\n      mstore\n      keccak256(0x00, 0x40)\n      0x00\n      swap2\n      pop\n      swap1\n      pop\n      sload\n      dup2\n      jump\t// out\n        /* \"contracts/Orders.sol\":9448:9935  function withdraw(address payable _to, uint256 _amount) external {... */\n    tag_130:\n        /* \"contracts/Orders.sol\":9542:9543  0 */\n      0x00\n        /* \"contracts/Orders.sol\":9532:9539  _amount */\n      dup2\n        /* \"contracts/Orders.sol\":9532:9543  _amount > 0 */\n      gt\n        /* \"contracts/Orders.sol\":9524:9566  require(_amount > 0, \"Amount must be > 0\") */\n      tag_266\n      jumpi\n      mload(0x40)\n      0x08c379a000000000000000000000000000000000000000000000000000000000\n      dup2\n      mstore\n      0x04\n      add\n      tag_267\n      swap1\n      tag_268\n      jump\t// in\n    tag_267:\n      mload(0x40)\n      dup1\n      swap2\n      sub\n      swap1\n      revert\n    tag_266:\n        /* \"contracts/Orders.sol\":9591:9609  pendingWithdrawals */\n      0x05\n        /* \"contracts/Orders.sol\":9591:9621  pendingWithdrawals[msg.sender] */\n      0x00\n        /* \"contracts/Orders.sol\":9610:9620  msg.sender */\n      caller\n        /* \"contracts/Orders.sol\":9591:9621  pendingWithdrawals[msg.sender] */\n      0xffffffffffffffffffffffffffffffffffffffff\n      and\n      0xffffffffffffffffffffffffffffffffffffffff\n      and\n      dup2\n      mstore\n      0x20\n      add\n      swap1\n      dup2\n      mstore\n      0x20\n      add\n      0x00\n      keccak256\n      sload\n        /* \"contracts/Orders.sol\":9581:9588  _amount */\n      dup2\n        /* \"contracts/Orders.sol\":9581:9621  _amount > pendingWithdrawals[msg.sender] */\n      gt\n        /* \"contracts/Orders.sol\":9577:9796  if (_amount > pendingWithdrawals[msg.sender]) {... */\n      iszero\n      tag_269\n      jumpi\n        /* \"contracts/Orders.sol\":9691:9698  _amount */\n      dup1\n        /* \"contracts/Orders.sol\":9738:9756  pendingWithdrawals */\n      0x05\n        /* \"contracts/Orders.sol\":9738:9768  pendingWithdrawals[msg.sender] */\n      0x00\n        /* \"contracts/Orders.sol\":9757:9767  msg.sender */\n      caller\n        /* \"contracts/Orders.sol\":9738:9768  pendingWithdrawals[msg.sender] */\n      0xffffffffffffffffffffffffffffffffffffffff\n      and\n      0xffffffffffffffffffffffffffffffffffffffff\n      and\n      dup2\n      mstore\n      0x20\n      add\n      swap1\n      dup2\n      mstore\n      0x20\n      add\n      0x00\n      keccak256\n      sload\n        /* \"contracts/Orders.sol\":9645:9784  InsufficientFunds({... */\n      mload(0x40)\n      0x03eb8b5400000000000000000000000000000000000000000000000000000000\n      dup2\n      mstore\n      0x04\n      add\n      tag_270\n      swap3\n      swap2\n      swap1\n      tag_135\n      jump\t// in\n    tag_270:\n      mload(0x40)\n      dup1\n      swap2\n      sub\n      swap1\n      revert\n        /* \"contracts/Orders.sol\":9577:9796  if (_amount > pendingWithdrawals[msg.sender]) {... */\n    tag_269:\n        /* \"contracts/Orders.sol\":9808:9811  _to */\n      dup2\n        /* \"contracts/Orders.sol\":9808:9820  _to.transfer */\n      0xffffffffffffffffffffffffffffffffffffffff\n      and\n        /* \"contracts/Orders.sol\":9808:9829  _to.transfer(_amount) */\n      0x08fc\n        /* \"contracts/Orders.sol\":9821:9828  _amount */\n      dup3\n        /* \"contracts/Orders.sol\":9808:9829  _to.transfer(_amount) */\n      swap1\n      dup2\n      iszero\n      mul\n      swap1\n      mload(0x40)\n      0x00\n      mload(0x40)\n      dup1\n      dup4\n      sub\n      dup2\n      dup6\n      dup9\n      dup9\n      call\n      swap4\n      pop\n      pop\n      pop\n      pop\n      iszero\n      dup1\n      iszero\n      tag_272\n      jumpi\n      returndatasize\n      0x00\n      dup1\n      returndatacopy\n      revert(0x00, returndatasize)\n    tag_272:\n      pop\n        /* \"contracts/Orders.sol\":9874:9881  _amount */\n      dup1\n        /* \"contracts/Orders.sol\":9840:9858  pendingWithdrawals */\n      0x05\n        /* \"contracts/Orders.sol\":9840:9870  pendingWithdrawals[msg.sender] */\n      0x00\n        /* \"contracts/Orders.sol\":9859:9869  msg.sender */\n      caller\n        /* \"contracts/Orders.sol\":9840:9870  pendingWithdrawals[msg.sender] */\n      0xffffffffffffffffffffffffffffffffffffffff\n      and\n      0xffffffffffffffffffffffffffffffffffffffff\n      and\n      dup2\n      mstore\n      0x20\n      add\n      swap1\n      dup2\n      mstore\n      0x20\n      add\n      0x00\n      keccak256\n      0x00\n        /* \"contracts/Orders.sol\":9840:9881  pendingWithdrawals[msg.sender] -= _amount */\n      dup3\n      dup3\n      sload\n      tag_273\n      swap2\n      swap1\n      tag_142\n      jump\t// in\n    tag_273:\n      swap3\n      pop\n      pop\n      dup2\n      swap1\n      sstore\n      pop\n        /* \"contracts/Orders.sol\":9923:9926  _to */\n      dup2\n        /* \"contracts/Orders.sol\":9899:9927  FundsWithdrawn(_amount, _to) */\n      0xffffffffffffffffffffffffffffffffffffffff\n      and\n      0x6141b54b56b8a52a8c6f5cd2a857f6117b18ffbf4d46bd3106f300a839cbf5ea\n        /* \"contracts/Orders.sol\":9914:9921  _amount */\n      dup3\n        /* \"contracts/Orders.sol\":9899:9927  FundsWithdrawn(_amount, _to) */\n      mload(0x40)\n      tag_274\n      swap2\n      swap1\n      tag_47\n      jump\t// in\n    tag_274:\n      mload(0x40)\n      dup1\n      swap2\n      sub\n      swap1\n      log2\n        /* \"contracts/Orders.sol\":9448:9935  function withdraw(address payable _to, uint256 _amount) external {... */\n      pop\n      pop\n      jump\t// out\n        /* \"contracts/Orders.sol\":8740:8857  function _setTokenURI(uint256 _tokenId, string memory _ipfsHash) internal {... */\n    tag_240:\n        /* \"contracts/Orders.sol\":8844:8853  _ipfsHash */\n      dup1\n        /* \"contracts/Orders.sol\":8821:8831  _tokenURIs */\n      0x06\n        /* \"contracts/Orders.sol\":8821:8841  _tokenURIs[_tokenId] */\n      0x00\n        /* \"contracts/Orders.sol\":8832:8840  _tokenId */\n      dup5\n        /* \"contracts/Orders.sol\":8821:8841  _tokenURIs[_tokenId] */\n      dup2\n      mstore\n      0x20\n      add\n      swap1\n      dup2\n      mstore\n      0x20\n      add\n      0x00\n      keccak256\n        /* \"contracts/Orders.sol\":8821:8853  _tokenURIs[_tokenId] = _ipfsHash */\n      swap1\n      dup2\n      tag_276\n      swap2\n      swap1\n      tag_277\n      jump\t// in\n    tag_276:\n      pop\n        /* \"contracts/Orders.sol\":8740:8857  function _setTokenURI(uint256 _tokenId, string memory _ipfsHash) internal {... */\n      pop\n      pop\n      jump\t// out\n        /* \"#utility.yul\":7:82   */\n    tag_278:\n        /* \"#utility.yul\":40:46   */\n      0x00\n        /* \"#utility.yul\":73:75   */\n      0x40\n        /* \"#utility.yul\":67:76   */\n      mload\n        /* \"#utility.yul\":57:76   */\n      swap1\n      pop\n        /* \"#utility.yul\":7:82   */\n      swap1\n      jump\t// out\n        /* \"#utility.yul\":88:205   */\n    tag_279:\n        /* \"#utility.yul\":197:198   */\n      0x00\n        /* \"#utility.yul\":194:195   */\n      dup1\n        /* \"#utility.yul\":187:199   */\n      revert\n        /* \"#utility.yul\":211:328   */\n    tag_280:\n        /* \"#utility.yul\":320:321   */\n      0x00\n        /* \"#utility.yul\":317:318   */\n      dup1\n        /* \"#utility.yul\":310:322   */\n      revert\n        /* \"#utility.yul\":334:411   */\n    tag_281:\n        /* \"#utility.yul\":371:378   */\n      0x00\n        /* \"#utility.yul\":400:405   */\n      dup2\n        /* \"#utility.yul\":389:405   */\n      swap1\n      pop\n        /* \"#utility.yul\":334:411   */\n      swap2\n      swap1\n      pop\n      jump\t// out\n        /* \"#utility.yul\":417:539   */\n    tag_282:\n        /* \"#utility.yul\":490:514   */\n      tag_386\n        /* \"#utility.yul\":508:513   */\n      dup2\n        /* \"#utility.yul\":490:514   */\n      tag_281\n      jump\t// in\n    tag_386:\n        /* \"#utility.yul\":483:488   */\n      dup2\n        /* \"#utility.yul\":480:515   */\n      eq\n        /* \"#utility.yul\":470:533   */\n      tag_387\n      jumpi\n        /* \"#utility.yul\":529:530   */\n      0x00\n        /* \"#utility.yul\":526:527   */\n      dup1\n        /* \"#utility.yul\":519:531   */\n      revert\n        /* \"#utility.yul\":470:533   */\n    tag_387:\n        /* \"#utility.yul\":417:539   */\n      pop\n      jump\t// out\n        /* \"#utility.yul\":545:684   */\n    tag_283:\n        /* \"#utility.yul\":591:596   */\n      0x00\n        /* \"#utility.yul\":629:635   */\n      dup2\n        /* \"#utility.yul\":616:636   */\n      calldataload\n        /* \"#utility.yul\":607:636   */\n      swap1\n      pop\n        /* \"#utility.yul\":645:678   */\n      tag_389\n        /* \"#utility.yul\":672:677   */\n      dup2\n        /* \"#utility.yul\":645:678   */\n      tag_282\n      jump\t// in\n    tag_389:\n        /* \"#utility.yul\":545:684   */\n      swap3\n      swap2\n      pop\n      pop\n      jump\t// out\n        /* \"#utility.yul\":690:1019   */\n    tag_31:\n        /* \"#utility.yul\":749:755   */\n      0x00\n        /* \"#utility.yul\":798:800   */\n      0x20\n        /* \"#utility.yul\":786:795   */\n      dup3\n        /* \"#utility.yul\":777:784   */\n      dup5\n        /* \"#utility.yul\":773:796   */\n      sub\n        /* \"#utility.yul\":769:801   */\n      slt\n        /* \"#utility.yul\":766:885   */\n      iszero\n      tag_391\n      jumpi\n        /* \"#utility.yul\":804:883   */\n      tag_392\n      tag_279\n      jump\t// in\n    tag_392:\n        /* \"#utility.yul\":766:885   */\n    tag_391:\n        /* \"#utility.yul\":924:925   */\n      0x00\n        /* \"#utility.yul\":949:1002   */\n      tag_393\n        /* \"#utility.yul\":994:1001   */\n      dup5\n        /* \"#utility.yul\":985:991   */\n      dup3\n        /* \"#utility.yul\":974:983   */\n      dup6\n        /* \"#utility.yul\":970:992   */\n      add\n        /* \"#utility.yul\":949:1002   */\n      tag_283\n      jump\t// in\n    tag_393:\n        /* \"#utility.yul\":939:1002   */\n      swap2\n      pop\n        /* \"#utility.yul\":895:1012   */\n      pop\n        /* \"#utility.yul\":690:1019   */\n      swap3\n      swap2\n      pop\n      pop\n      jump\t// out\n        /* \"#utility.yul\":1025:1124   */\n    tag_284:\n        /* \"#utility.yul\":1077:1083   */\n      0x00\n        /* \"#utility.yul\":1111:1116   */\n      dup2\n        /* \"#utility.yul\":1105:1117   */\n      mload\n        /* \"#utility.yul\":1095:1117   */\n      swap1\n      pop\n        /* \"#utility.yul\":1025:1124   */\n      swap2\n      swap1\n      pop\n      jump\t// out\n        /* \"#utility.yul\":1130:1299   */\n    tag_285:\n        /* \"#utility.yul\":1214:1225   */\n      0x00\n        /* \"#utility.yul\":1248:1254   */\n      dup3\n        /* \"#utility.yul\":1243:1246   */\n      dup3\n        /* \"#utility.yul\":1236:1255   */\n      mstore\n        /* \"#utility.yul\":1288:1292   */\n      0x20\n        /* \"#utility.yul\":1283:1286   */\n      dup3\n        /* \"#utility.yul\":1279:1293   */\n      add\n        /* \"#utility.yul\":1264:1293   */\n      swap1\n      pop\n        /* \"#utility.yul\":1130:1299   */\n      swap3\n      swap2\n      pop\n      pop\n      jump\t// out\n        /* \"#utility.yul\":1305:1551   */\n    tag_286:\n        /* \"#utility.yul\":1386:1387   */\n      0x00\n        /* \"#utility.yul\":1396:1509   */\n    tag_397:\n        /* \"#utility.yul\":1410:1416   */\n      dup4\n        /* \"#utility.yul\":1407:1408   */\n      dup2\n        /* \"#utility.yul\":1404:1417   */\n      lt\n        /* \"#utility.yul\":1396:1509   */\n      iszero\n      tag_399\n      jumpi\n        /* \"#utility.yul\":1495:1496   */\n      dup1\n        /* \"#utility.yul\":1490:1493   */\n      dup3\n        /* \"#utility.yul\":1486:1497   */\n      add\n        /* \"#utility.yul\":1480:1498   */\n      mload\n        /* \"#utility.yul\":1476:1477   */\n      dup2\n        /* \"#utility.yul\":1471:1474   */\n      dup5\n        /* \"#utility.yul\":1467:1478   */\n      add\n        /* \"#utility.yul\":1460:1499   */\n      mstore\n        /* \"#utility.yul\":1432:1434   */\n      0x20\n        /* \"#utility.yul\":1429:1430   */\n      dup2\n        /* \"#utility.yul\":1425:1435   */\n      add\n        /* \"#utility.yul\":1420:1435   */\n      swap1\n      pop\n        /* \"#utility.yul\":1396:1509   */\n      jump(tag_397)\n    tag_399:\n        /* \"#utility.yul\":1543:1544   */\n      0x00\n        /* \"#utility.yul\":1534:1540   */\n      dup5\n        /* \"#utility.yul\":1529:1532   */\n      dup5\n        /* \"#utility.yul\":1525:1541   */\n      add\n        /* \"#utility.yul\":1518:1545   */\n      mstore\n        /* \"#utility.yul\":1367:1551   */\n      pop\n        /* \"#utility.yul\":1305:1551   */\n      pop\n      pop\n      pop\n      jump\t// out\n        /* \"#utility.yul\":1557:1659   */\n    tag_287:\n        /* \"#utility.yul\":1598:1604   */\n      0x00\n        /* \"#utility.yul\":1649:1651   */\n      0x1f\n        /* \"#utility.yul\":1645:1652   */\n      not\n        /* \"#utility.yul\":1640:1642   */\n      0x1f\n        /* \"#utility.yul\":1633:1638   */\n      dup4\n        /* \"#utility.yul\":1629:1643   */\n      add\n        /* \"#utility.yul\":1625:1653   */\n      and\n        /* \"#utility.yul\":1615:1653   */\n      swap1\n      pop\n        /* \"#utility.yul\":1557:1659   */\n      swap2\n      swap1\n      pop\n      jump\t// out\n        /* \"#utility.yul\":1665:2042   */\n    tag_288:\n        /* \"#utility.yul\":1753:1756   */\n      0x00\n        /* \"#utility.yul\":1781:1820   */\n      tag_402\n        /* \"#utility.yul\":1814:1819   */\n      dup3\n        /* \"#utility.yul\":1781:1820   */\n      tag_284\n      jump\t// in\n    tag_402:\n        /* \"#utility.yul\":1836:1907   */\n      tag_403\n        /* \"#utility.yul\":1900:1906   */\n      dup2\n        /* \"#utility.yul\":1895:1898   */\n      dup6\n        /* \"#utility.yul\":1836:1907   */\n      tag_285\n      jump\t// in\n    tag_403:\n        /* \"#utility.yul\":1829:1907   */\n      swap4\n      pop\n        /* \"#utility.yul\":1916:1981   */\n      tag_404\n        /* \"#utility.yul\":1974:1980   */\n      dup2\n        /* \"#utility.yul\":1969:1972   */\n      dup6\n        /* \"#utility.yul\":1962:1966   */\n      0x20\n        /* \"#utility.yul\":1955:1960   */\n      dup7\n        /* \"#utility.yul\":1951:1967   */\n      add\n        /* \"#utility.yul\":1916:1981   */\n      tag_286\n      jump\t// in\n    tag_404:\n        /* \"#utility.yul\":2006:2035   */\n      tag_405\n        /* \"#utility.yul\":2028:2034   */\n      dup2\n        /* \"#utility.yul\":2006:2035   */\n      tag_287\n      jump\t// in\n    tag_405:\n        /* \"#utility.yul\":2001:2004   */\n      dup5\n        /* \"#utility.yul\":1997:2036   */\n      add\n        /* \"#utility.yul\":1990:2036   */\n      swap2\n      pop\n        /* \"#utility.yul\":1757:2042   */\n      pop\n        /* \"#utility.yul\":1665:2042   */\n      swap3\n      swap2\n      pop\n      pop\n      jump\t// out\n        /* \"#utility.yul\":2048:2361   */\n    tag_40:\n        /* \"#utility.yul\":2161:2165   */\n      0x00\n        /* \"#utility.yul\":2199:2201   */\n      0x20\n        /* \"#utility.yul\":2188:2197   */\n      dup3\n        /* \"#utility.yul\":2184:2202   */\n      add\n        /* \"#utility.yul\":2176:2202   */\n      swap1\n      pop\n        /* \"#utility.yul\":2248:2257   */\n      dup2\n        /* \"#utility.yul\":2242:2246   */\n      dup2\n        /* \"#utility.yul\":2238:2258   */\n      sub\n        /* \"#utility.yul\":2234:2235   */\n      0x00\n        /* \"#utility.yul\":2223:2232   */\n      dup4\n        /* \"#utility.yul\":2219:2236   */\n      add\n        /* \"#utility.yul\":2212:2259   */\n      mstore\n        /* \"#utility.yul\":2276:2354   */\n      tag_407\n        /* \"#utility.yul\":2349:2353   */\n      dup2\n        /* \"#utility.yul\":2340:2346   */\n      dup5\n        /* \"#utility.yul\":2276:2354   */\n      tag_288\n      jump\t// in\n    tag_407:\n        /* \"#utility.yul\":2268:2354   */\n      swap1\n      pop\n        /* \"#utility.yul\":2048:2361   */\n      swap3\n      swap2\n      pop\n      pop\n      jump\t// out\n        /* \"#utility.yul\":2367:2493   */\n    tag_289:\n        /* \"#utility.yul\":2404:2411   */\n      0x00\n        /* \"#utility.yul\":2444:2486   */\n      0xffffffffffffffffffffffffffffffffffffffff\n        /* \"#utility.yul\":2437:2442   */\n      dup3\n        /* \"#utility.yul\":2433:2487   */\n      and\n        /* \"#utility.yul\":2422:2487   */\n      swap1\n      pop\n        /* \"#utility.yul\":2367:2493   */\n      swap2\n      swap1\n      pop\n      jump\t// out\n        /* \"#utility.yul\":2499:2595   */\n    tag_290:\n        /* \"#utility.yul\":2536:2543   */\n      0x00\n        /* \"#utility.yul\":2565:2589   */\n      tag_410\n        /* \"#utility.yul\":2583:2588   */\n      dup3\n        /* \"#utility.yul\":2565:2589   */\n      tag_289\n      jump\t// in\n    tag_410:\n        /* \"#utility.yul\":2554:2589   */\n      swap1\n      pop\n        /* \"#utility.yul\":2499:2595   */\n      swap2\n      swap1\n      pop\n      jump\t// out\n        /* \"#utility.yul\":2601:2723   */\n    tag_291:\n        /* \"#utility.yul\":2674:2698   */\n      tag_412\n        /* \"#utility.yul\":2692:2697   */\n      dup2\n        /* \"#utility.yul\":2674:2698   */\n      tag_290\n      jump\t// in\n    tag_412:\n        /* \"#utility.yul\":2667:2672   */\n      dup2\n        /* \"#utility.yul\":2664:2699   */\n      eq\n        /* \"#utility.yul\":2654:2717   */\n      tag_413\n      jumpi\n        /* \"#utility.yul\":2713:2714   */\n      0x00\n        /* \"#utility.yul\":2710:2711   */\n      dup1\n        /* \"#utility.yul\":2703:2715   */\n      revert\n        /* \"#utility.yul\":2654:2717   */\n    tag_413:\n        /* \"#utility.yul\":2601:2723   */\n      pop\n      jump\t// out\n        /* \"#utility.yul\":2729:2868   */\n    tag_292:\n        /* \"#utility.yul\":2775:2780   */\n      0x00\n        /* \"#utility.yul\":2813:2819   */\n      dup2\n        /* \"#utility.yul\":2800:2820   */\n      calldataload\n        /* \"#utility.yul\":2791:2820   */\n      swap1\n      pop\n        /* \"#utility.yul\":2829:2862   */\n      tag_415\n        /* \"#utility.yul\":2856:2861   */\n      dup2\n        /* \"#utility.yul\":2829:2862   */\n      tag_291\n      jump\t// in\n    tag_415:\n        /* \"#utility.yul\":2729:2868   */\n      swap3\n      swap2\n      pop\n      pop\n      jump\t// out\n        /* \"#utility.yul\":2874:3348   */\n    tag_44:\n        /* \"#utility.yul\":2942:2948   */\n      0x00\n        /* \"#utility.yul\":2950:2956   */\n      dup1\n        /* \"#utility.yul\":2999:3001   */\n      0x40\n        /* \"#utility.yul\":2987:2996   */\n      dup4\n        /* \"#utility.yul\":2978:2985   */\n      dup6\n        /* \"#utility.yul\":2974:2997   */\n      sub\n        /* \"#utility.yul\":2970:3002   */\n      slt\n        /* \"#utility.yul\":2967:3086   */\n      iszero\n      tag_417\n      jumpi\n        /* \"#utility.yul\":3005:3084   */\n      tag_418\n      tag_279\n      jump\t// in\n    tag_418:\n        /* \"#utility.yul\":2967:3086   */\n    tag_417:\n        /* \"#utility.yul\":3125:3126   */\n      0x00\n        /* \"#utility.yul\":3150:3203   */\n      tag_419\n        /* \"#utility.yul\":3195:3202   */\n      dup6\n        /* \"#utility.yul\":3186:3192   */\n      dup3\n        /* \"#utility.yul\":3175:3184   */\n      dup7\n        /* \"#utility.yul\":3171:3193   */\n      add\n        /* \"#utility.yul\":3150:3203   */\n      tag_292\n      jump\t// in\n    tag_419:\n        /* \"#utility.yul\":3140:3203   */\n      swap3\n      pop\n        /* \"#utility.yul\":3096:3213   */\n      pop\n        /* \"#utility.yul\":3252:3254   */\n      0x20\n        /* \"#utility.yul\":3278:3331   */\n      tag_420\n        /* \"#utility.yul\":3323:3330   */\n      dup6\n        /* \"#utility.yul\":3314:3320   */\n      dup3\n        /* \"#utility.yul\":3303:3312   */\n      dup7\n        /* \"#utility.yul\":3299:3321   */\n      add\n        /* \"#utility.yul\":3278:3331   */\n      tag_283\n      jump\t// in\n    tag_420:\n        /* \"#utility.yul\":3268:3331   */\n      swap2\n      pop\n        /* \"#utility.yul\":3223:3341   */\n      pop\n        /* \"#utility.yul\":2874:3348   */\n      swap3\n      pop\n      swap3\n      swap1\n      pop\n      jump\t// out\n        /* \"#utility.yul\":3354:3472   */\n    tag_293:\n        /* \"#utility.yul\":3441:3465   */\n      tag_422\n        /* \"#utility.yul\":3459:3464   */\n      dup2\n        /* \"#utility.yul\":3441:3465   */\n      tag_281\n      jump\t// in\n    tag_422:\n        /* \"#utility.yul\":3436:3439   */\n      dup3\n        /* \"#utility.yul\":3429:3466   */\n      mstore\n        /* \"#utility.yul\":3354:3472   */\n      pop\n      pop\n      jump\t// out\n        /* \"#utility.yul\":3478:3700   */\n    tag_47:\n        /* \"#utility.yul\":3571:3575   */\n      0x00\n        /* \"#utility.yul\":3609:3611   */\n      0x20\n        /* \"#utility.yul\":3598:3607   */\n      dup3\n        /* \"#utility.yul\":3594:3612   */\n      add\n        /* \"#utility.yul\":3586:3612   */\n      swap1\n      pop\n        /* \"#utility.yul\":3622:3693   */\n      tag_424\n        /* \"#utility.yul\":3690:3691   */\n      0x00\n        /* \"#utility.yul\":3679:3688   */\n      dup4\n        /* \"#utility.yul\":3675:3692   */\n      add\n        /* \"#utility.yul\":3666:3672   */\n      dup5\n        /* \"#utility.yul\":3622:3693   */\n      tag_293\n      jump\t// in\n    tag_424:\n        /* \"#utility.yul\":3478:3700   */\n      swap3\n      swap2\n      pop\n      pop\n      jump\t// out\n        /* \"#utility.yul\":3706:3766   */\n    tag_294:\n        /* \"#utility.yul\":3734:3737   */\n      0x00\n        /* \"#utility.yul\":3755:3760   */\n      dup2\n        /* \"#utility.yul\":3748:3760   */\n      swap1\n      pop\n        /* \"#utility.yul\":3706:3766   */\n      swap2\n      swap1\n      pop\n      jump\t// out\n        /* \"#utility.yul\":3772:3914   */\n    tag_295:\n        /* \"#utility.yul\":3822:3831   */\n      0x00\n        /* \"#utility.yul\":3855:3908   */\n      tag_427\n        /* \"#utility.yul\":3873:3907   */\n      tag_428\n        /* \"#utility.yul\":3882:3906   */\n      tag_429\n        /* \"#utility.yul\":3900:3905   */\n      dup5\n        /* \"#utility.yul\":3882:3906   */\n      tag_289\n      jump\t// in\n    tag_429:\n        /* \"#utility.yul\":3873:3907   */\n      tag_294\n      jump\t// in\n    tag_428:\n        /* \"#utility.yul\":3855:3908   */\n      tag_289\n      jump\t// in\n    tag_427:\n        /* \"#utility.yul\":3842:3908   */\n      swap1\n      pop\n        /* \"#utility.yul\":3772:3914   */\n      swap2\n      swap1\n      pop\n      jump\t// out\n        /* \"#utility.yul\":3920:4046   */\n    tag_296:\n        /* \"#utility.yul\":3970:3979   */\n      0x00\n        /* \"#utility.yul\":4003:4040   */\n      tag_431\n        /* \"#utility.yul\":4034:4039   */\n      dup3\n        /* \"#utility.yul\":4003:4040   */\n      tag_295\n      jump\t// in\n    tag_431:\n        /* \"#utility.yul\":3990:4040   */\n      swap1\n      pop\n        /* \"#utility.yul\":3920:4046   */\n      swap2\n      swap1\n      pop\n      jump\t// out\n        /* \"#utility.yul\":4052:4203   */\n    tag_297:\n        /* \"#utility.yul\":4127:4136   */\n      0x00\n        /* \"#utility.yul\":4160:4197   */\n      tag_433\n        /* \"#utility.yul\":4191:4196   */\n      dup3\n        /* \"#utility.yul\":4160:4197   */\n      tag_296\n      jump\t// in\n    tag_433:\n        /* \"#utility.yul\":4147:4197   */\n      swap1\n      pop\n        /* \"#utility.yul\":4052:4203   */\n      swap2\n      swap1\n      pop\n      jump\t// out\n        /* \"#utility.yul\":4209:4390   */\n    tag_298:\n        /* \"#utility.yul\":4321:4383   */\n      tag_435\n        /* \"#utility.yul\":4377:4382   */\n      dup2\n        /* \"#utility.yul\":4321:4383   */\n      tag_297\n      jump\t// in\n    tag_435:\n        /* \"#utility.yul\":4316:4319   */\n      dup3\n        /* \"#utility.yul\":4309:4384   */\n      mstore\n        /* \"#utility.yul\":4209:4390   */\n      pop\n      pop\n      jump\t// out\n        /* \"#utility.yul\":4396:4668   */\n    tag_60:\n        /* \"#utility.yul\":4514:4518   */\n      0x00\n        /* \"#utility.yul\":4552:4554   */\n      0x20\n        /* \"#utility.yul\":4541:4550   */\n      dup3\n        /* \"#utility.yul\":4537:4555   */\n      add\n        /* \"#utility.yul\":4529:4555   */\n      swap1\n      pop\n        /* \"#utility.yul\":4565:4661   */\n      tag_437\n        /* \"#utility.yul\":4658:4659   */\n      0x00\n        /* \"#utility.yul\":4647:4656   */\n      dup4\n        /* \"#utility.yul\":4643:4660   */\n      add\n        /* \"#utility.yul\":4634:4640   */\n      dup5\n        /* \"#utility.yul\":4565:4661   */\n      tag_298\n      jump\t// in\n    tag_437:\n        /* \"#utility.yul\":4396:4668   */\n      swap3\n      swap2\n      pop\n      pop\n      jump\t// out\n        /* \"#utility.yul\":4674:4778   */\n    tag_299:\n        /* \"#utility.yul\":4719:4726   */\n      0x00\n        /* \"#utility.yul\":4748:4772   */\n      tag_439\n        /* \"#utility.yul\":4766:4771   */\n      dup3\n        /* \"#utility.yul\":4748:4772   */\n      tag_289\n      jump\t// in\n    tag_439:\n        /* \"#utility.yul\":4737:4772   */\n      swap1\n      pop\n        /* \"#utility.yul\":4674:4778   */\n      swap2\n      swap1\n      pop\n      jump\t// out\n        /* \"#utility.yul\":4784:4926   */\n    tag_300:\n        /* \"#utility.yul\":4887:4919   */\n      tag_441\n        /* \"#utility.yul\":4913:4918   */\n      dup2\n        /* \"#utility.yul\":4887:4919   */\n      tag_299\n      jump\t// in\n    tag_441:\n        /* \"#utility.yul\":4882:4885   */\n      dup3\n        /* \"#utility.yul\":4875:4920   */\n      mstore\n        /* \"#utility.yul\":4784:4926   */\n      pop\n      pop\n      jump\t// out\n        /* \"#utility.yul\":4932:5186   */\n    tag_69:\n        /* \"#utility.yul\":5041:5045   */\n      0x00\n        /* \"#utility.yul\":5079:5081   */\n      0x20\n        /* \"#utility.yul\":5068:5077   */\n      dup3\n        /* \"#utility.yul\":5064:5082   */\n      add\n        /* \"#utility.yul\":5056:5082   */\n      swap1\n      pop\n        /* \"#utility.yul\":5092:5179   */\n      tag_443\n        /* \"#utility.yul\":5176:5177   */\n      0x00\n        /* \"#utility.yul\":5165:5174   */\n      dup4\n        /* \"#utility.yul\":5161:5178   */\n      add\n        /* \"#utility.yul\":5152:5158   */\n      dup5\n        /* \"#utility.yul\":5092:5179   */\n      tag_300\n      jump\t// in\n    tag_443:\n        /* \"#utility.yul\":4932:5186   */\n      swap3\n      swap2\n      pop\n      pop\n      jump\t// out\n        /* \"#utility.yul\":5192:5282   */\n    tag_301:\n        /* \"#utility.yul\":5226:5233   */\n      0x00\n        /* \"#utility.yul\":5269:5274   */\n      dup2\n        /* \"#utility.yul\":5262:5275   */\n      iszero\n        /* \"#utility.yul\":5255:5276   */\n      iszero\n        /* \"#utility.yul\":5244:5276   */\n      swap1\n      pop\n        /* \"#utility.yul\":5192:5282   */\n      swap2\n      swap1\n      pop\n      jump\t// out\n        /* \"#utility.yul\":5288:5397   */\n    tag_302:\n        /* \"#utility.yul\":5369:5390   */\n      tag_446\n        /* \"#utility.yul\":5384:5389   */\n      dup2\n        /* \"#utility.yul\":5369:5390   */\n      tag_301\n      jump\t// in\n    tag_446:\n        /* \"#utility.yul\":5364:5367   */\n      dup3\n        /* \"#utility.yul\":5357:5391   */\n      mstore\n        /* \"#utility.yul\":5288:5397   */\n      pop\n      pop\n      jump\t// out\n        /* \"#utility.yul\":5403:5613   */\n    tag_75:\n        /* \"#utility.yul\":5490:5494   */\n      0x00\n        /* \"#utility.yul\":5528:5530   */\n      0x20\n        /* \"#utility.yul\":5517:5526   */\n      dup3\n        /* \"#utility.yul\":5513:5531   */\n      add\n        /* \"#utility.yul\":5505:5531   */\n      swap1\n      pop\n        /* \"#utility.yul\":5541:5606   */\n      tag_448\n        /* \"#utility.yul\":5603:5604   */\n      0x00\n        /* \"#utility.yul\":5592:5601   */\n      dup4\n        /* \"#utility.yul\":5588:5605   */\n      add\n        /* \"#utility.yul\":5579:5585   */\n      dup5\n        /* \"#utility.yul\":5541:5606   */\n      tag_302\n      jump\t// in\n    tag_448:\n        /* \"#utility.yul\":5403:5613   */\n      swap3\n      swap2\n      pop\n      pop\n      jump\t// out\n        /* \"#utility.yul\":5619:5737   */\n    tag_303:\n        /* \"#utility.yul\":5656:5663   */\n      0x00\n        /* \"#utility.yul\":5696:5730   */\n      0xffffffffffffffffffffffffffffffff\n        /* \"#utility.yul\":5689:5694   */\n      dup3\n        /* \"#utility.yul\":5685:5731   */\n      and\n        /* \"#utility.yul\":5674:5731   */\n      swap1\n      pop\n        /* \"#utility.yul\":5619:5737   */\n      swap2\n      swap1\n      pop\n      jump\t// out\n        /* \"#utility.yul\":5743:5865   */\n    tag_304:\n        /* \"#utility.yul\":5816:5840   */\n      tag_451\n        /* \"#utility.yul\":5834:5839   */\n      dup2\n        /* \"#utility.yul\":5816:5840   */\n      tag_303\n      jump\t// in\n    tag_451:\n        /* \"#utility.yul\":5809:5814   */\n      dup2\n        /* \"#utility.yul\":5806:5841   */\n      eq\n        /* \"#utility.yul\":5796:5859   */\n      tag_452\n      jumpi\n        /* \"#utility.yul\":5855:5856   */\n      0x00\n        /* \"#utility.yul\":5852:5853   */\n      dup1\n        /* \"#utility.yul\":5845:5857   */\n      revert\n        /* \"#utility.yul\":5796:5859   */\n    tag_452:\n        /* \"#utility.yul\":5743:5865   */\n      pop\n      jump\t// out\n        /* \"#utility.yul\":5871:6010   */\n    tag_305:\n        /* \"#utility.yul\":5917:5922   */\n      0x00\n        /* \"#utility.yul\":5955:5961   */\n      dup2\n        /* \"#utility.yul\":5942:5962   */\n      calldataload\n        /* \"#utility.yul\":5933:5962   */\n      swap1\n      pop\n        /* \"#utility.yul\":5971:6004   */\n      tag_454\n        /* \"#utility.yul\":5998:6003   */\n      dup2\n        /* \"#utility.yul\":5971:6004   */\n      tag_304\n      jump\t// in\n    tag_454:\n        /* \"#utility.yul\":5871:6010   */\n      swap3\n      swap2\n      pop\n      pop\n      jump\t// out\n        /* \"#utility.yul\":6016:6133   */\n    tag_306:\n        /* \"#utility.yul\":6125:6126   */\n      0x00\n        /* \"#utility.yul\":6122:6123   */\n      dup1\n        /* \"#utility.yul\":6115:6127   */\n      revert\n        /* \"#utility.yul\":6139:6256   */\n    tag_307:\n        /* \"#utility.yul\":6248:6249   */\n      0x00\n        /* \"#utility.yul\":6245:6246   */\n      dup1\n        /* \"#utility.yul\":6238:6250   */\n      revert\n        /* \"#utility.yul\":6262:6442   */\n    tag_308:\n        /* \"#utility.yul\":6310:6387   */\n      0x4e487b7100000000000000000000000000000000000000000000000000000000\n        /* \"#utility.yul\":6307:6308   */\n      0x00\n        /* \"#utility.yul\":6300:6388   */\n      mstore\n        /* \"#utility.yul\":6407:6411   */\n      0x41\n        /* \"#utility.yul\":6404:6405   */\n      0x04\n        /* \"#utility.yul\":6397:6412   */\n      mstore\n        /* \"#utility.yul\":6431:6435   */\n      0x24\n        /* \"#utility.yul\":6428:6429   */\n      0x00\n        /* \"#utility.yul\":6421:6436   */\n      revert\n        /* \"#utility.yul\":6448:6729   */\n    tag_309:\n        /* \"#utility.yul\":6531:6558   */\n      tag_459\n        /* \"#utility.yul\":6553:6557   */\n      dup3\n        /* \"#utility.yul\":6531:6558   */\n      tag_287\n      jump\t// in\n    tag_459:\n        /* \"#utility.yul\":6523:6529   */\n      dup2\n        /* \"#utility.yul\":6519:6559   */\n      add\n        /* \"#utility.yul\":6661:6667   */\n      dup2\n        /* \"#utility.yul\":6649:6659   */\n      dup2\n        /* \"#utility.yul\":6646:6668   */\n      lt\n        /* \"#utility.yul\":6625:6643   */\n      0xffffffffffffffff\n        /* \"#utility.yul\":6613:6623   */\n      dup3\n        /* \"#utility.yul\":6610:6644   */\n      gt\n        /* \"#utility.yul\":6607:6669   */\n      or\n        /* \"#utility.yul\":6604:6692   */\n      iszero\n      tag_460\n      jumpi\n        /* \"#utility.yul\":6672:6690   */\n      tag_461\n      tag_308\n      jump\t// in\n    tag_461:\n        /* \"#utility.yul\":6604:6692   */\n    tag_460:\n        /* \"#utility.yul\":6712:6722   */\n      dup1\n        /* \"#utility.yul\":6708:6710   */\n      0x40\n        /* \"#utility.yul\":6701:6723   */\n      mstore\n        /* \"#utility.yul\":6491:6729   */\n      pop\n        /* \"#utility.yul\":6448:6729   */\n      pop\n      pop\n      jump\t// out\n        /* \"#utility.yul\":6735:6864   */\n    tag_310:\n        /* \"#utility.yul\":6769:6775   */\n      0x00\n        /* \"#utility.yul\":6796:6816   */\n      tag_463\n      tag_278\n      jump\t// in\n    tag_463:\n        /* \"#utility.yul\":6786:6816   */\n      swap1\n      pop\n        /* \"#utility.yul\":6825:6858   */\n      tag_464\n        /* \"#utility.yul\":6853:6857   */\n      dup3\n        /* \"#utility.yul\":6845:6851   */\n      dup3\n        /* \"#utility.yul\":6825:6858   */\n      tag_309\n      jump\t// in\n    tag_464:\n        /* \"#utility.yul\":6735:6864   */\n      swap2\n      swap1\n      pop\n      jump\t// out\n        /* \"#utility.yul\":6870:7178   */\n    tag_311:\n        /* \"#utility.yul\":6932:6936   */\n      0x00\n        /* \"#utility.yul\":7022:7040   */\n      0xffffffffffffffff\n        /* \"#utility.yul\":7014:7020   */\n      dup3\n        /* \"#utility.yul\":7011:7041   */\n      gt\n        /* \"#utility.yul\":7008:7064   */\n      iszero\n      tag_466\n      jumpi\n        /* \"#utility.yul\":7044:7062   */\n      tag_467\n      tag_308\n      jump\t// in\n    tag_467:\n        /* \"#utility.yul\":7008:7064   */\n    tag_466:\n        /* \"#utility.yul\":7082:7111   */\n      tag_468\n        /* \"#utility.yul\":7104:7110   */\n      dup3\n        /* \"#utility.yul\":7082:7111   */\n      tag_287\n      jump\t// in\n    tag_468:\n        /* \"#utility.yul\":7074:7111   */\n      swap1\n      pop\n        /* \"#utility.yul\":7166:7170   */\n      0x20\n        /* \"#utility.yul\":7160:7164   */\n      dup2\n        /* \"#utility.yul\":7156:7171   */\n      add\n        /* \"#utility.yul\":7148:7171   */\n      swap1\n      pop\n        /* \"#utility.yul\":6870:7178   */\n      swap2\n      swap1\n      pop\n      jump\t// out\n        /* \"#utility.yul\":7184:7330   */\n    tag_312:\n        /* \"#utility.yul\":7281:7287   */\n      dup3\n        /* \"#utility.yul\":7276:7279   */\n      dup2\n        /* \"#utility.yul\":7271:7274   */\n      dup4\n        /* \"#utility.yul\":7258:7288   */\n      calldatacopy\n        /* \"#utility.yul\":7322:7323   */\n      0x00\n        /* \"#utility.yul\":7313:7319   */\n      dup4\n        /* \"#utility.yul\":7308:7311   */\n      dup4\n        /* \"#utility.yul\":7304:7320   */\n      add\n        /* \"#utility.yul\":7297:7324   */\n      mstore\n        /* \"#utility.yul\":7184:7330   */\n      pop\n      pop\n      pop\n      jump\t// out\n        /* \"#utility.yul\":7336:7761   */\n    tag_313:\n        /* \"#utility.yul\":7414:7419   */\n      0x00\n        /* \"#utility.yul\":7439:7505   */\n      tag_471\n        /* \"#utility.yul\":7455:7504   */\n      tag_472\n        /* \"#utility.yul\":7497:7503   */\n      dup5\n        /* \"#utility.yul\":7455:7504   */\n      tag_311\n      jump\t// in\n    tag_472:\n        /* \"#utility.yul\":7439:7505   */\n      tag_310\n      jump\t// in\n    tag_471:\n        /* \"#utility.yul\":7430:7505   */\n      swap1\n      pop\n        /* \"#utility.yul\":7528:7534   */\n      dup3\n        /* \"#utility.yul\":7521:7526   */\n      dup2\n        /* \"#utility.yul\":7514:7535   */\n      mstore\n        /* \"#utility.yul\":7566:7570   */\n      0x20\n        /* \"#utility.yul\":7559:7564   */\n      dup2\n        /* \"#utility.yul\":7555:7571   */\n      add\n        /* \"#utility.yul\":7604:7607   */\n      dup5\n        /* \"#utility.yul\":7595:7601   */\n      dup5\n        /* \"#utility.yul\":7590:7593   */\n      dup5\n        /* \"#utility.yul\":7586:7602   */\n      add\n        /* \"#utility.yul\":7583:7608   */\n      gt\n        /* \"#utility.yul\":7580:7692   */\n      iszero\n      tag_473\n      jumpi\n        /* \"#utility.yul\":7611:7690   */\n      tag_474\n      tag_307\n      jump\t// in\n    tag_474:\n        /* \"#utility.yul\":7580:7692   */\n    tag_473:\n        /* \"#utility.yul\":7701:7755   */\n      tag_475\n        /* \"#utility.yul\":7748:7754   */\n      dup5\n        /* \"#utility.yul\":7743:7746   */\n      dup3\n        /* \"#utility.yul\":7738:7741   */\n      dup6\n        /* \"#utility.yul\":7701:7755   */\n      tag_312\n      jump\t// in\n    tag_475:\n        /* \"#utility.yul\":7420:7761   */\n      pop\n        /* \"#utility.yul\":7336:7761   */\n      swap4\n      swap3\n      pop\n      pop\n      pop\n      jump\t// out\n        /* \"#utility.yul\":7781:8121   */\n    tag_314:\n        /* \"#utility.yul\":7837:7842   */\n      0x00\n        /* \"#utility.yul\":7886:7889   */\n      dup3\n        /* \"#utility.yul\":7879:7883   */\n      0x1f\n        /* \"#utility.yul\":7871:7877   */\n      dup4\n        /* \"#utility.yul\":7867:7884   */\n      add\n        /* \"#utility.yul\":7863:7890   */\n      slt\n        /* \"#utility.yul\":7853:7975   */\n      tag_477\n      jumpi\n        /* \"#utility.yul\":7894:7973   */\n      tag_478\n      tag_306\n      jump\t// in\n    tag_478:\n        /* \"#utility.yul\":7853:7975   */\n    tag_477:\n        /* \"#utility.yul\":8011:8017   */\n      dup2\n        /* \"#utility.yul\":7998:8018   */\n      calldataload\n        /* \"#utility.yul\":8036:8115   */\n      tag_479\n        /* \"#utility.yul\":8111:8114   */\n      dup5\n        /* \"#utility.yul\":8103:8109   */\n      dup3\n        /* \"#utility.yul\":8096:8100   */\n      0x20\n        /* \"#utility.yul\":8088:8094   */\n      dup7\n        /* \"#utility.yul\":8084:8101   */\n      add\n        /* \"#utility.yul\":8036:8115   */\n      tag_313\n      jump\t// in\n    tag_479:\n        /* \"#utility.yul\":8027:8115   */\n      swap2\n      pop\n        /* \"#utility.yul\":7843:8121   */\n      pop\n        /* \"#utility.yul\":7781:8121   */\n      swap3\n      swap2\n      pop\n      pop\n      jump\t// out\n        /* \"#utility.yul\":8127:8781   */\n    tag_79:\n        /* \"#utility.yul\":8205:8211   */\n      0x00\n        /* \"#utility.yul\":8213:8219   */\n      dup1\n        /* \"#utility.yul\":8262:8264   */\n      0x40\n        /* \"#utility.yul\":8250:8259   */\n      dup4\n        /* \"#utility.yul\":8241:8248   */\n      dup6\n        /* \"#utility.yul\":8237:8260   */\n      sub\n        /* \"#utility.yul\":8233:8265   */\n      slt\n        /* \"#utility.yul\":8230:8349   */\n      iszero\n      tag_481\n      jumpi\n        /* \"#utility.yul\":8268:8347   */\n      tag_482\n      tag_279\n      jump\t// in\n    tag_482:\n        /* \"#utility.yul\":8230:8349   */\n    tag_481:\n        /* \"#utility.yul\":8388:8389   */\n      0x00\n        /* \"#utility.yul\":8413:8466   */\n      tag_483\n        /* \"#utility.yul\":8458:8465   */\n      dup6\n        /* \"#utility.yul\":8449:8455   */\n      dup3\n        /* \"#utility.yul\":8438:8447   */\n      dup7\n        /* \"#utility.yul\":8434:8456   */\n      add\n        /* \"#utility.yul\":8413:8466   */\n      tag_305\n      jump\t// in\n    tag_483:\n        /* \"#utility.yul\":8403:8466   */\n      swap3\n      pop\n        /* \"#utility.yul\":8359:8476   */\n      pop\n        /* \"#utility.yul\":8543:8545   */\n      0x20\n        /* \"#utility.yul\":8532:8541   */\n      dup4\n        /* \"#utility.yul\":8528:8546   */\n      add\n        /* \"#utility.yul\":8515:8547   */\n      calldataload\n        /* \"#utility.yul\":8574:8592   */\n      0xffffffffffffffff\n        /* \"#utility.yul\":8566:8572   */\n      dup2\n        /* \"#utility.yul\":8563:8593   */\n      gt\n        /* \"#utility.yul\":8560:8677   */\n      iszero\n      tag_484\n      jumpi\n        /* \"#utility.yul\":8596:8675   */\n      tag_485\n      tag_280\n      jump\t// in\n    tag_485:\n        /* \"#utility.yul\":8560:8677   */\n    tag_484:\n        /* \"#utility.yul\":8701:8764   */\n      tag_486\n        /* \"#utility.yul\":8756:8763   */\n      dup6\n        /* \"#utility.yul\":8747:8753   */\n      dup3\n        /* \"#utility.yul\":8736:8745   */\n      dup7\n        /* \"#utility.yul\":8732:8754   */\n      add\n        /* \"#utility.yul\":8701:8764   */\n      tag_314\n      jump\t// in\n    tag_486:\n        /* \"#utility.yul\":8691:8764   */\n      swap2\n      pop\n        /* \"#utility.yul\":8486:8774   */\n      pop\n        /* \"#utility.yul\":8127:8781   */\n      swap3\n      pop\n      swap3\n      swap1\n      pop\n      jump\t// out\n        /* \"#utility.yul\":8787:8928   */\n    tag_315:\n        /* \"#utility.yul\":8852:8861   */\n      0x00\n        /* \"#utility.yul\":8885:8922   */\n      tag_488\n        /* \"#utility.yul\":8916:8921   */\n      dup3\n        /* \"#utility.yul\":8885:8922   */\n      tag_296\n      jump\t// in\n    tag_488:\n        /* \"#utility.yul\":8872:8922   */\n      swap1\n      pop\n        /* \"#utility.yul\":8787:8928   */\n      swap2\n      swap1\n      pop\n      jump\t// out\n        /* \"#utility.yul\":8934:9095   */\n    tag_316:\n        /* \"#utility.yul\":9036:9088   */\n      tag_490\n        /* \"#utility.yul\":9082:9087   */\n      dup2\n        /* \"#utility.yul\":9036:9088   */\n      tag_315\n      jump\t// in\n    tag_490:\n        /* \"#utility.yul\":9031:9034   */\n      dup3\n        /* \"#utility.yul\":9024:9089   */\n      mstore\n        /* \"#utility.yul\":8934:9095   */\n      pop\n      pop\n      jump\t// out\n        /* \"#utility.yul\":9101:9353   */\n    tag_103:\n        /* \"#utility.yul\":9209:9213   */\n      0x00\n        /* \"#utility.yul\":9247:9249   */\n      0x20\n        /* \"#utility.yul\":9236:9245   */\n      dup3\n        /* \"#utility.yul\":9232:9250   */\n      add\n        /* \"#utility.yul\":9224:9250   */\n      swap1\n      pop\n        /* \"#utility.yul\":9260:9346   */\n      tag_492\n        /* \"#utility.yul\":9343:9344   */\n      0x00\n        /* \"#utility.yul\":9332:9341   */\n      dup4\n        /* \"#utility.yul\":9328:9345   */\n      add\n        /* \"#utility.yul\":9319:9325   */\n      dup5\n        /* \"#utility.yul\":9260:9346   */\n      tag_316\n      jump\t// in\n    tag_492:\n        /* \"#utility.yul\":9101:9353   */\n      swap3\n      swap2\n      pop\n      pop\n      jump\t// out\n        /* \"#utility.yul\":9359:9688   */\n    tag_107:\n        /* \"#utility.yul\":9418:9424   */\n      0x00\n        /* \"#utility.yul\":9467:9469   */\n      0x20\n        /* \"#utility.yul\":9455:9464   */\n      dup3\n        /* \"#utility.yul\":9446:9453   */\n      dup5\n        /* \"#utility.yul\":9442:9465   */\n      sub\n        /* \"#utility.yul\":9438:9470   */\n      slt\n        /* \"#utility.yul\":9435:9554   */\n      iszero\n      tag_494\n      jumpi\n        /* \"#utility.yul\":9473:9552   */\n      tag_495\n      tag_279\n      jump\t// in\n    tag_495:\n        /* \"#utility.yul\":9435:9554   */\n    tag_494:\n        /* \"#utility.yul\":9593:9594   */\n      0x00\n        /* \"#utility.yul\":9618:9671   */\n      tag_496\n        /* \"#utility.yul\":9663:9670   */\n      dup5\n        /* \"#utility.yul\":9654:9660   */\n      dup3\n        /* \"#utility.yul\":9643:9652   */\n      dup6\n        /* \"#utility.yul\":9639:9661   */\n      add\n        /* \"#utility.yul\":9618:9671   */\n      tag_292\n      jump\t// in\n    tag_496:\n        /* \"#utility.yul\":9608:9671   */\n      swap2\n      pop\n        /* \"#utility.yul\":9564:9681   */\n      pop\n        /* \"#utility.yul\":9359:9688   */\n      swap3\n      swap2\n      pop\n      pop\n      jump\t// out\n        /* \"#utility.yul\":9694:9832   */\n    tag_317:\n        /* \"#utility.yul\":9785:9791   */\n      0x00\n        /* \"#utility.yul\":9819:9824   */\n      dup2\n        /* \"#utility.yul\":9813:9825   */\n      mload\n        /* \"#utility.yul\":9803:9825   */\n      swap1\n      pop\n        /* \"#utility.yul\":9694:9832   */\n      swap2\n      swap1\n      pop\n      jump\t// out\n        /* \"#utility.yul\":9838:10046   */\n    tag_318:\n        /* \"#utility.yul\":9961:9972   */\n      0x00\n        /* \"#utility.yul\":9995:10001   */\n      dup3\n        /* \"#utility.yul\":9990:9993   */\n      dup3\n        /* \"#utility.yul\":9983:10002   */\n      mstore\n        /* \"#utility.yul\":10035:10039   */\n      0x20\n        /* \"#utility.yul\":10030:10033   */\n      dup3\n        /* \"#utility.yul\":10026:10040   */\n      add\n        /* \"#utility.yul\":10011:10040   */\n      swap1\n      pop\n        /* \"#utility.yul\":9838:10046   */\n      swap3\n      swap2\n      pop\n      pop\n      jump\t// out\n        /* \"#utility.yul\":10052:10208   */\n    tag_319:\n        /* \"#utility.yul\":10143:10147   */\n      0x00\n        /* \"#utility.yul\":10166:10169   */\n      dup2\n        /* \"#utility.yul\":10158:10169   */\n      swap1\n      pop\n        /* \"#utility.yul\":10196:10200   */\n      0x20\n        /* \"#utility.yul\":10191:10194   */\n      dup3\n        /* \"#utility.yul\":10187:10201   */\n      add\n        /* \"#utility.yul\":10179:10201   */\n      swap1\n      pop\n        /* \"#utility.yul\":10052:10208   */\n      swap2\n      swap1\n      pop\n      jump\t// out\n        /* \"#utility.yul\":10214:10322   */\n    tag_320:\n        /* \"#utility.yul\":10291:10315   */\n      tag_501\n        /* \"#utility.yul\":10309:10314   */\n      dup2\n        /* \"#utility.yul\":10291:10315   */\n      tag_290\n      jump\t// in\n    tag_501:\n        /* \"#utility.yul\":10286:10289   */\n      dup3\n        /* \"#utility.yul\":10279:10316   */\n      mstore\n        /* \"#utility.yul\":10214:10322   */\n      pop\n      pop\n      jump\t// out\n        /* \"#utility.yul\":10328:10436   */\n    tag_321:\n        /* \"#utility.yul\":10405:10429   */\n      tag_503\n        /* \"#utility.yul\":10423:10428   */\n      dup2\n        /* \"#utility.yul\":10405:10429   */\n      tag_281\n      jump\t// in\n    tag_503:\n        /* \"#utility.yul\":10400:10403   */\n      dup3\n        /* \"#utility.yul\":10393:10430   */\n      mstore\n        /* \"#utility.yul\":10328:10436   */\n      pop\n      pop\n      jump\t// out\n        /* \"#utility.yul\":10442:10541   */\n    tag_322:\n        /* \"#utility.yul\":10513:10534   */\n      tag_505\n        /* \"#utility.yul\":10528:10533   */\n      dup2\n        /* \"#utility.yul\":10513:10534   */\n      tag_301\n      jump\t// in\n    tag_505:\n        /* \"#utility.yul\":10508:10511   */\n      dup3\n        /* \"#utility.yul\":10501:10535   */\n      mstore\n        /* \"#utility.yul\":10442:10541   */\n      pop\n      pop\n      jump\t// out\n        /* \"#utility.yul\":10611:11458   */\n    tag_323:\n        /* \"#utility.yul\":10746:10750   */\n      0x80\n        /* \"#utility.yul\":10741:10744   */\n      dup3\n        /* \"#utility.yul\":10737:10751   */\n      add\n        /* \"#utility.yul\":10835:10839   */\n      0x00\n        /* \"#utility.yul\":10828:10833   */\n      dup3\n        /* \"#utility.yul\":10824:10840   */\n      add\n        /* \"#utility.yul\":10818:10841   */\n      mload\n        /* \"#utility.yul\":10854:10917   */\n      tag_507\n        /* \"#utility.yul\":10911:10915   */\n      0x00\n        /* \"#utility.yul\":10906:10909   */\n      dup6\n        /* \"#utility.yul\":10902:10916   */\n      add\n        /* \"#utility.yul\":10888:10900   */\n      dup3\n        /* \"#utility.yul\":10854:10917   */\n      tag_320\n      jump\t// in\n    tag_507:\n        /* \"#utility.yul\":10761:10927   */\n      pop\n        /* \"#utility.yul\":11012:11016   */\n      0x20\n        /* \"#utility.yul\":11005:11010   */\n      dup3\n        /* \"#utility.yul\":11001:11017   */\n      add\n        /* \"#utility.yul\":10995:11018   */\n      mload\n        /* \"#utility.yul\":11031:11094   */\n      tag_508\n        /* \"#utility.yul\":11088:11092   */\n      0x20\n        /* \"#utility.yul\":11083:11086   */\n      dup6\n        /* \"#utility.yul\":11079:11093   */\n      add\n        /* \"#utility.yul\":11065:11077   */\n      dup3\n        /* \"#utility.yul\":11031:11094   */\n      tag_321\n      jump\t// in\n    tag_508:\n        /* \"#utility.yul\":10937:11104   */\n      pop\n        /* \"#utility.yul\":11187:11191   */\n      0x40\n        /* \"#utility.yul\":11180:11185   */\n      dup3\n        /* \"#utility.yul\":11176:11192   */\n      add\n        /* \"#utility.yul\":11170:11193   */\n      mload\n        /* \"#utility.yul\":11206:11269   */\n      tag_509\n        /* \"#utility.yul\":11263:11267   */\n      0x40\n        /* \"#utility.yul\":11258:11261   */\n      dup6\n        /* \"#utility.yul\":11254:11268   */\n      add\n        /* \"#utility.yul\":11240:11252   */\n      dup3\n        /* \"#utility.yul\":11206:11269   */\n      tag_321\n      jump\t// in\n    tag_509:\n        /* \"#utility.yul\":11114:11279   */\n      pop\n        /* \"#utility.yul\":11365:11369   */\n      0x60\n        /* \"#utility.yul\":11358:11363   */\n      dup3\n        /* \"#utility.yul\":11354:11370   */\n      add\n        /* \"#utility.yul\":11348:11371   */\n      mload\n        /* \"#utility.yul\":11384:11441   */\n      tag_510\n        /* \"#utility.yul\":11435:11439   */\n      0x60\n        /* \"#utility.yul\":11430:11433   */\n      dup6\n        /* \"#utility.yul\":11426:11440   */\n      add\n        /* \"#utility.yul\":11412:11424   */\n      dup3\n        /* \"#utility.yul\":11384:11441   */\n      tag_322\n      jump\t// in\n    tag_510:\n        /* \"#utility.yul\":11289:11451   */\n      pop\n        /* \"#utility.yul\":10715:11458   */\n      pop\n        /* \"#utility.yul\":10611:11458   */\n      pop\n      pop\n      jump\t// out\n        /* \"#utility.yul\":11464:11739   */\n    tag_324:\n        /* \"#utility.yul\":11581:11591   */\n      0x00\n        /* \"#utility.yul\":11602:11696   */\n      tag_512\n        /* \"#utility.yul\":11692:11695   */\n      dup4\n        /* \"#utility.yul\":11684:11690   */\n      dup4\n        /* \"#utility.yul\":11602:11696   */\n      tag_323\n      jump\t// in\n    tag_512:\n        /* \"#utility.yul\":11728:11732   */\n      0x80\n        /* \"#utility.yul\":11723:11726   */\n      dup4\n        /* \"#utility.yul\":11719:11733   */\n      add\n        /* \"#utility.yul\":11705:11733   */\n      swap1\n      pop\n        /* \"#utility.yul\":11464:11739   */\n      swap3\n      swap2\n      pop\n      pop\n      jump\t// out\n        /* \"#utility.yul\":11745:11882   */\n    tag_325:\n        /* \"#utility.yul\":11839:11843   */\n      0x00\n        /* \"#utility.yul\":11871:11875   */\n      0x20\n        /* \"#utility.yul\":11866:11869   */\n      dup3\n        /* \"#utility.yul\":11862:11876   */\n      add\n        /* \"#utility.yul\":11854:11876   */\n      swap1\n      pop\n        /* \"#utility.yul\":11745:11882   */\n      swap2\n      swap1\n      pop\n      jump\t// out\n        /* \"#utility.yul\":11956:12880   */\n    tag_326:\n        /* \"#utility.yul\":12123:12126   */\n      0x00\n        /* \"#utility.yul\":12152:12230   */\n      tag_515\n        /* \"#utility.yul\":12224:12229   */\n      dup3\n        /* \"#utility.yul\":12152:12230   */\n      tag_317\n      jump\t// in\n    tag_515:\n        /* \"#utility.yul\":12246:12356   */\n      tag_516\n        /* \"#utility.yul\":12349:12355   */\n      dup2\n        /* \"#utility.yul\":12344:12347   */\n      dup6\n        /* \"#utility.yul\":12246:12356   */\n      tag_318\n      jump\t// in\n    tag_516:\n        /* \"#utility.yul\":12239:12356   */\n      swap4\n      pop\n        /* \"#utility.yul\":12380:12460   */\n      tag_517\n        /* \"#utility.yul\":12454:12459   */\n      dup4\n        /* \"#utility.yul\":12380:12460   */\n      tag_319\n      jump\t// in\n    tag_517:\n        /* \"#utility.yul\":12483:12490   */\n      dup1\n        /* \"#utility.yul\":12514:12515   */\n      0x00\n        /* \"#utility.yul\":12499:12855   */\n    tag_518:\n        /* \"#utility.yul\":12524:12530   */\n      dup4\n        /* \"#utility.yul\":12521:12522   */\n      dup2\n        /* \"#utility.yul\":12518:12531   */\n      lt\n        /* \"#utility.yul\":12499:12855   */\n      iszero\n      tag_520\n      jumpi\n        /* \"#utility.yul\":12600:12606   */\n      dup2\n        /* \"#utility.yul\":12594:12607   */\n      mload\n        /* \"#utility.yul\":12627:12738   */\n      tag_521\n        /* \"#utility.yul\":12734:12737   */\n      dup9\n        /* \"#utility.yul\":12719:12732   */\n      dup3\n        /* \"#utility.yul\":12627:12738   */\n      tag_324\n      jump\t// in\n    tag_521:\n        /* \"#utility.yul\":12620:12738   */\n      swap8\n      pop\n        /* \"#utility.yul\":12761:12845   */\n      tag_522\n        /* \"#utility.yul\":12838:12844   */\n      dup4\n        /* \"#utility.yul\":12761:12845   */\n      tag_325\n      jump\t// in\n    tag_522:\n        /* \"#utility.yul\":12751:12845   */\n      swap3\n      pop\n        /* \"#utility.yul\":12559:12855   */\n      pop\n        /* \"#utility.yul\":12546:12547   */\n      0x01\n        /* \"#utility.yul\":12543:12544   */\n      dup2\n        /* \"#utility.yul\":12539:12548   */\n      add\n        /* \"#utility.yul\":12534:12548   */\n      swap1\n      pop\n        /* \"#utility.yul\":12499:12855   */\n      jump(tag_518)\n    tag_520:\n        /* \"#utility.yul\":12503:12517   */\n      pop\n        /* \"#utility.yul\":12871:12874   */\n      dup6\n        /* \"#utility.yul\":12864:12874   */\n      swap4\n      pop\n        /* \"#utility.yul\":12128:12880   */\n      pop\n      pop\n      pop\n        /* \"#utility.yul\":11956:12880   */\n      swap3\n      swap2\n      pop\n      pop\n      jump\t// out\n        /* \"#utility.yul\":12886:13355   */\n    tag_110:\n        /* \"#utility.yul\":13077:13081   */\n      0x00\n        /* \"#utility.yul\":13115:13117   */\n      0x20\n        /* \"#utility.yul\":13104:13113   */\n      dup3\n        /* \"#utility.yul\":13100:13118   */\n      add\n        /* \"#utility.yul\":13092:13118   */\n      swap1\n      pop\n        /* \"#utility.yul\":13164:13173   */\n      dup2\n        /* \"#utility.yul\":13158:13162   */\n      dup2\n        /* \"#utility.yul\":13154:13174   */\n      sub\n        /* \"#utility.yul\":13150:13151   */\n      0x00\n        /* \"#utility.yul\":13139:13148   */\n      dup4\n        /* \"#utility.yul\":13135:13152   */\n      add\n        /* \"#utility.yul\":13128:13175   */\n      mstore\n        /* \"#utility.yul\":13192:13348   */\n      tag_524\n        /* \"#utility.yul\":13343:13347   */\n      dup2\n        /* \"#utility.yul\":13334:13340   */\n      dup5\n        /* \"#utility.yul\":13192:13348   */\n      tag_326\n      jump\t// in\n    tag_524:\n        /* \"#utility.yul\":13184:13348   */\n      swap1\n      pop\n        /* \"#utility.yul\":12886:13355   */\n      swap3\n      swap2\n      pop\n      pop\n      jump\t// out\n        /* \"#utility.yul\":13361:13479   */\n    tag_327:\n        /* \"#utility.yul\":13448:13472   */\n      tag_526\n        /* \"#utility.yul\":13466:13471   */\n      dup2\n        /* \"#utility.yul\":13448:13472   */\n      tag_290\n      jump\t// in\n    tag_526:\n        /* \"#utility.yul\":13443:13446   */\n      dup3\n        /* \"#utility.yul\":13436:13473   */\n      mstore\n        /* \"#utility.yul\":13361:13479   */\n      pop\n      pop\n      jump\t// out\n        /* \"#utility.yul\":13485:14026   */\n    tag_116:\n        /* \"#utility.yul\":13656:13660   */\n      0x00\n        /* \"#utility.yul\":13694:13697   */\n      0x80\n        /* \"#utility.yul\":13683:13692   */\n      dup3\n        /* \"#utility.yul\":13679:13698   */\n      add\n        /* \"#utility.yul\":13671:13698   */\n      swap1\n      pop\n        /* \"#utility.yul\":13708:13779   */\n      tag_528\n        /* \"#utility.yul\":13776:13777   */\n      0x00\n        /* \"#utility.yul\":13765:13774   */\n      dup4\n        /* \"#utility.yul\":13761:13778   */\n      add\n        /* \"#utility.yul\":13752:13758   */\n      dup8\n        /* \"#utility.yul\":13708:13779   */\n      tag_327\n      jump\t// in\n    tag_528:\n        /* \"#utility.yul\":13789:13861   */\n      tag_529\n        /* \"#utility.yul\":13857:13859   */\n      0x20\n        /* \"#utility.yul\":13846:13855   */\n      dup4\n        /* \"#utility.yul\":13842:13860   */\n      add\n        /* \"#utility.yul\":13833:13839   */\n      dup7\n        /* \"#utility.yul\":13789:13861   */\n      tag_293\n      jump\t// in\n    tag_529:\n        /* \"#utility.yul\":13871:13943   */\n      tag_530\n        /* \"#utility.yul\":13939:13941   */\n      0x40\n        /* \"#utility.yul\":13928:13937   */\n      dup4\n        /* \"#utility.yul\":13924:13942   */\n      add\n        /* \"#utility.yul\":13915:13921   */\n      dup6\n        /* \"#utility.yul\":13871:13943   */\n      tag_293\n      jump\t// in\n    tag_530:\n        /* \"#utility.yul\":13953:14019   */\n      tag_531\n        /* \"#utility.yul\":14015:14017   */\n      0x60\n        /* \"#utility.yul\":14004:14013   */\n      dup4\n        /* \"#utility.yul\":14000:14018   */\n      add\n        /* \"#utility.yul\":13991:13997   */\n      dup5\n        /* \"#utility.yul\":13953:14019   */\n      tag_302\n      jump\t// in\n    tag_531:\n        /* \"#utility.yul\":13485:14026   */\n      swap6\n      swap5\n      pop\n      pop\n      pop\n      pop\n      pop\n      jump\t// out\n        /* \"#utility.yul\":14032:14170   */\n    tag_328:\n        /* \"#utility.yul\":14113:14145   */\n      tag_533\n        /* \"#utility.yul\":14139:14144   */\n      dup2\n        /* \"#utility.yul\":14113:14145   */\n      tag_299\n      jump\t// in\n    tag_533:\n        /* \"#utility.yul\":14106:14111   */\n      dup2\n        /* \"#utility.yul\":14103:14146   */\n      eq\n        /* \"#utility.yul\":14093:14164   */\n      tag_534\n      jumpi\n        /* \"#utility.yul\":14160:14161   */\n      0x00\n        /* \"#utility.yul\":14157:14158   */\n      dup1\n        /* \"#utility.yul\":14150:14162   */\n      revert\n        /* \"#utility.yul\":14093:14164   */\n    tag_534:\n        /* \"#utility.yul\":14032:14170   */\n      pop\n      jump\t// out\n        /* \"#utility.yul\":14176:14331   */\n    tag_329:\n        /* \"#utility.yul\":14230:14235   */\n      0x00\n        /* \"#utility.yul\":14268:14274   */\n      dup2\n        /* \"#utility.yul\":14255:14275   */\n      calldataload\n        /* \"#utility.yul\":14246:14275   */\n      swap1\n      pop\n        /* \"#utility.yul\":14284:14325   */\n      tag_536\n        /* \"#utility.yul\":14319:14324   */\n      dup2\n        /* \"#utility.yul\":14284:14325   */\n      tag_328\n      jump\t// in\n    tag_536:\n        /* \"#utility.yul\":14176:14331   */\n      swap3\n      swap2\n      pop\n      pop\n      jump\t// out\n        /* \"#utility.yul\":14337:14827   */\n    tag_129:\n        /* \"#utility.yul\":14413:14419   */\n      0x00\n        /* \"#utility.yul\":14421:14427   */\n      dup1\n        /* \"#utility.yul\":14470:14472   */\n      0x40\n        /* \"#utility.yul\":14458:14467   */\n      dup4\n        /* \"#utility.yul\":14449:14456   */\n      dup6\n        /* \"#utility.yul\":14445:14468   */\n      sub\n        /* \"#utility.yul\":14441:14473   */\n      slt\n        /* \"#utility.yul\":14438:14557   */\n      iszero\n      tag_538\n      jumpi\n        /* \"#utility.yul\":14476:14555   */\n      tag_539\n      tag_279\n      jump\t// in\n    tag_539:\n        /* \"#utility.yul\":14438:14557   */\n    tag_538:\n        /* \"#utility.yul\":14596:14597   */\n      0x00\n        /* \"#utility.yul\":14621:14682   */\n      tag_540\n        /* \"#utility.yul\":14674:14681   */\n      dup6\n        /* \"#utility.yul\":14665:14671   */\n      dup3\n        /* \"#utility.yul\":14654:14663   */\n      dup7\n        /* \"#utility.yul\":14650:14672   */\n      add\n        /* \"#utility.yul\":14621:14682   */\n      tag_329\n      jump\t// in\n    tag_540:\n        /* \"#utility.yul\":14611:14682   */\n      swap3\n      pop\n        /* \"#utility.yul\":14567:14692   */\n      pop\n        /* \"#utility.yul\":14731:14733   */\n      0x20\n        /* \"#utility.yul\":14757:14810   */\n      tag_541\n        /* \"#utility.yul\":14802:14809   */\n      dup6\n        /* \"#utility.yul\":14793:14799   */\n      dup3\n        /* \"#utility.yul\":14782:14791   */\n      dup7\n        /* \"#utility.yul\":14778:14800   */\n      add\n        /* \"#utility.yul\":14757:14810   */\n      tag_283\n      jump\t// in\n    tag_541:\n        /* \"#utility.yul\":14747:14810   */\n      swap2\n      pop\n        /* \"#utility.yul\":14702:14820   */\n      pop\n        /* \"#utility.yul\":14337:14827   */\n      swap3\n      pop\n      swap3\n      swap1\n      pop\n      jump\t// out\n        /* \"#utility.yul\":14833:15165   */\n    tag_135:\n        /* \"#utility.yul\":14954:14958   */\n      0x00\n        /* \"#utility.yul\":14992:14994   */\n      0x40\n        /* \"#utility.yul\":14981:14990   */\n      dup3\n        /* \"#utility.yul\":14977:14995   */\n      add\n        /* \"#utility.yul\":14969:14995   */\n      swap1\n      pop\n        /* \"#utility.yul\":15005:15076   */\n      tag_543\n        /* \"#utility.yul\":15073:15074   */\n      0x00\n        /* \"#utility.yul\":15062:15071   */\n      dup4\n        /* \"#utility.yul\":15058:15075   */\n      add\n        /* \"#utility.yul\":15049:15055   */\n      dup6\n        /* \"#utility.yul\":15005:15076   */\n      tag_293\n      jump\t// in\n    tag_543:\n        /* \"#utility.yul\":15086:15158   */\n      tag_544\n        /* \"#utility.yul\":15154:15156   */\n      0x20\n        /* \"#utility.yul\":15143:15152   */\n      dup4\n        /* \"#utility.yul\":15139:15157   */\n      add\n        /* \"#utility.yul\":15130:15136   */\n      dup5\n        /* \"#utility.yul\":15086:15158   */\n      tag_293\n      jump\t// in\n    tag_544:\n        /* \"#utility.yul\":14833:15165   */\n      swap4\n      swap3\n      pop\n      pop\n      pop\n      jump\t// out\n        /* \"#utility.yul\":15171:15351   */\n    tag_330:\n        /* \"#utility.yul\":15219:15296   */\n      0x4e487b7100000000000000000000000000000000000000000000000000000000\n        /* \"#utility.yul\":15216:15217   */\n      0x00\n        /* \"#utility.yul\":15209:15297   */\n      mstore\n        /* \"#utility.yul\":15316:15320   */\n      0x11\n        /* \"#utility.yul\":15313:15314   */\n      0x04\n        /* \"#utility.yul\":15306:15321   */\n      mstore\n        /* \"#utility.yul\":15340:15344   */\n      0x24\n        /* \"#utility.yul\":15337:15338   */\n      0x00\n        /* \"#utility.yul\":15330:15345   */\n      revert\n        /* \"#utility.yul\":15357:15767   */\n    tag_138:\n        /* \"#utility.yul\":15397:15404   */\n      0x00\n        /* \"#utility.yul\":15420:15440   */\n      tag_547\n        /* \"#utility.yul\":15438:15439   */\n      dup3\n        /* \"#utility.yul\":15420:15440   */\n      tag_281\n      jump\t// in\n    tag_547:\n        /* \"#utility.yul\":15415:15440   */\n      swap2\n      pop\n        /* \"#utility.yul\":15454:15474   */\n      tag_548\n        /* \"#utility.yul\":15472:15473   */\n      dup4\n        /* \"#utility.yul\":15454:15474   */\n      tag_281\n      jump\t// in\n    tag_548:\n        /* \"#utility.yul\":15449:15474   */\n      swap3\n      pop\n        /* \"#utility.yul\":15509:15510   */\n      dup3\n        /* \"#utility.yul\":15506:15507   */\n      dup3\n        /* \"#utility.yul\":15502:15511   */\n      mul\n        /* \"#utility.yul\":15531:15561   */\n      tag_549\n        /* \"#utility.yul\":15549:15560   */\n      dup2\n        /* \"#utility.yul\":15531:15561   */\n      tag_281\n      jump\t// in\n    tag_549:\n        /* \"#utility.yul\":15520:15561   */\n      swap2\n      pop\n        /* \"#utility.yul\":15710:15711   */\n      dup3\n        /* \"#utility.yul\":15701:15708   */\n      dup3\n        /* \"#utility.yul\":15697:15712   */\n      div\n        /* \"#utility.yul\":15694:15695   */\n      dup5\n        /* \"#utility.yul\":15691:15713   */\n      eq\n        /* \"#utility.yul\":15671:15672   */\n      dup4\n        /* \"#utility.yul\":15664:15673   */\n      iszero\n        /* \"#utility.yul\":15644:15727   */\n      or\n        /* \"#utility.yul\":15621:15760   */\n      tag_550\n      jumpi\n        /* \"#utility.yul\":15740:15758   */\n      tag_551\n      tag_330\n      jump\t// in\n    tag_551:\n        /* \"#utility.yul\":15621:15760   */\n    tag_550:\n        /* \"#utility.yul\":15405:15767   */\n      pop\n        /* \"#utility.yul\":15357:15767   */\n      swap3\n      swap2\n      pop\n      pop\n      jump\t// out\n        /* \"#utility.yul\":15773:15953   */\n    tag_331:\n        /* \"#utility.yul\":15821:15898   */\n      0x4e487b7100000000000000000000000000000000000000000000000000000000\n        /* \"#utility.yul\":15818:15819   */\n      0x00\n        /* \"#utility.yul\":15811:15899   */\n      mstore\n        /* \"#utility.yul\":15918:15922   */\n      0x12\n        /* \"#utility.yul\":15915:15916   */\n      0x04\n        /* \"#utility.yul\":15908:15923   */\n      mstore\n        /* \"#utility.yul\":15942:15946   */\n      0x24\n        /* \"#utility.yul\":15939:15940   */\n      0x00\n        /* \"#utility.yul\":15932:15947   */\n      revert\n        /* \"#utility.yul\":15959:16144   */\n    tag_140:\n        /* \"#utility.yul\":15999:16000   */\n      0x00\n        /* \"#utility.yul\":16016:16036   */\n      tag_554\n        /* \"#utility.yul\":16034:16035   */\n      dup3\n        /* \"#utility.yul\":16016:16036   */\n      tag_281\n      jump\t// in\n    tag_554:\n        /* \"#utility.yul\":16011:16036   */\n      swap2\n      pop\n        /* \"#utility.yul\":16050:16070   */\n      tag_555\n        /* \"#utility.yul\":16068:16069   */\n      dup4\n        /* \"#utility.yul\":16050:16070   */\n      tag_281\n      jump\t// in\n    tag_555:\n        /* \"#utility.yul\":16045:16070   */\n      swap3\n      pop\n        /* \"#utility.yul\":16089:16090   */\n      dup3\n        /* \"#utility.yul\":16079:16114   */\n      tag_556\n      jumpi\n        /* \"#utility.yul\":16094:16112   */\n      tag_557\n      tag_331\n      jump\t// in\n    tag_557:\n        /* \"#utility.yul\":16079:16114   */\n    tag_556:\n        /* \"#utility.yul\":16136:16137   */\n      dup3\n        /* \"#utility.yul\":16133:16134   */\n      dup3\n        /* \"#utility.yul\":16129:16138   */\n      div\n        /* \"#utility.yul\":16124:16138   */\n      swap1\n      pop\n        /* \"#utility.yul\":15959:16144   */\n      swap3\n      swap2\n      pop\n      pop\n      jump\t// out\n        /* \"#utility.yul\":16150:16344   */\n    tag_142:\n        /* \"#utility.yul\":16190:16194   */\n      0x00\n        /* \"#utility.yul\":16210:16230   */\n      tag_559\n        /* \"#utility.yul\":16228:16229   */\n      dup3\n        /* \"#utility.yul\":16210:16230   */\n      tag_281\n      jump\t// in\n    tag_559:\n        /* \"#utility.yul\":16205:16230   */\n      swap2\n      pop\n        /* \"#utility.yul\":16244:16264   */\n      tag_560\n        /* \"#utility.yul\":16262:16263   */\n      dup4\n        /* \"#utility.yul\":16244:16264   */\n      tag_281\n      jump\t// in\n    tag_560:\n        /* \"#utility.yul\":16239:16264   */\n      swap3\n      pop\n        /* \"#utility.yul\":16288:16289   */\n      dup3\n        /* \"#utility.yul\":16285:16286   */\n      dup3\n        /* \"#utility.yul\":16281:16290   */\n      sub\n        /* \"#utility.yul\":16273:16290   */\n      swap1\n      pop\n        /* \"#utility.yul\":16312:16313   */\n      dup2\n        /* \"#utility.yul\":16306:16310   */\n      dup2\n        /* \"#utility.yul\":16303:16314   */\n      gt\n        /* \"#utility.yul\":16300:16337   */\n      iszero\n      tag_561\n      jumpi\n        /* \"#utility.yul\":16317:16335   */\n      tag_562\n      tag_330\n      jump\t// in\n    tag_562:\n        /* \"#utility.yul\":16300:16337   */\n    tag_561:\n        /* \"#utility.yul\":16150:16344   */\n      swap3\n      swap2\n      pop\n      pop\n      jump\t// out\n        /* \"#utility.yul\":16350:16493   */\n    tag_332:\n        /* \"#utility.yul\":16407:16412   */\n      0x00\n        /* \"#utility.yul\":16438:16444   */\n      dup2\n        /* \"#utility.yul\":16432:16445   */\n      mload\n        /* \"#utility.yul\":16423:16445   */\n      swap1\n      pop\n        /* \"#utility.yul\":16454:16487   */\n      tag_564\n        /* \"#utility.yul\":16481:16486   */\n      dup2\n        /* \"#utility.yul\":16454:16487   */\n      tag_291\n      jump\t// in\n    tag_564:\n        /* \"#utility.yul\":16350:16493   */\n      swap3\n      swap2\n      pop\n      pop\n      jump\t// out\n        /* \"#utility.yul\":16499:16850   */\n    tag_147:\n        /* \"#utility.yul\":16569:16575   */\n      0x00\n        /* \"#utility.yul\":16618:16620   */\n      0x20\n        /* \"#utility.yul\":16606:16615   */\n      dup3\n        /* \"#utility.yul\":16597:16604   */\n      dup5\n        /* \"#utility.yul\":16593:16616   */\n      sub\n        /* \"#utility.yul\":16589:16621   */\n      slt\n        /* \"#utility.yul\":16586:16705   */\n      iszero\n      tag_566\n      jumpi\n        /* \"#utility.yul\":16624:16703   */\n      tag_567\n      tag_279\n      jump\t// in\n    tag_567:\n        /* \"#utility.yul\":16586:16705   */\n    tag_566:\n        /* \"#utility.yul\":16744:16745   */\n      0x00\n        /* \"#utility.yul\":16769:16833   */\n      tag_568\n        /* \"#utility.yul\":16825:16832   */\n      dup5\n        /* \"#utility.yul\":16816:16822   */\n      dup3\n        /* \"#utility.yul\":16805:16814   */\n      dup6\n        /* \"#utility.yul\":16801:16823   */\n      add\n        /* \"#utility.yul\":16769:16833   */\n      tag_332\n      jump\t// in\n    tag_568:\n        /* \"#utility.yul\":16759:16833   */\n      swap2\n      pop\n        /* \"#utility.yul\":16715:16843   */\n      pop\n        /* \"#utility.yul\":16499:16850   */\n      swap3\n      swap2\n      pop\n      pop\n      jump\t// out\n        /* \"#utility.yul\":16856:17031   */\n    tag_333:\n        /* \"#utility.yul\":16996:17023   */\n      0x53656c6c6572206e6f206c6f6e676572206f776e73204e465400000000000000\n        /* \"#utility.yul\":16992:16993   */\n      0x00\n        /* \"#utility.yul\":16984:16990   */\n      dup3\n        /* \"#utility.yul\":16980:16994   */\n      add\n        /* \"#utility.yul\":16973:17024   */\n      mstore\n        /* \"#utility.yul\":16856:17031   */\n      pop\n      jump\t// out\n        /* \"#utility.yul\":17037:17403   */\n    tag_334:\n        /* \"#utility.yul\":17179:17182   */\n      0x00\n        /* \"#utility.yul\":17200:17267   */\n      tag_571\n        /* \"#utility.yul\":17264:17266   */\n      0x19\n        /* \"#utility.yul\":17259:17262   */\n      dup4\n        /* \"#utility.yul\":17200:17267   */\n      tag_285\n      jump\t// in\n    tag_571:\n        /* \"#utility.yul\":17193:17267   */\n      swap2\n      pop\n        /* \"#utility.yul\":17276:17369   */\n      tag_572\n        /* \"#utility.yul\":17365:17368   */\n      dup3\n        /* \"#utility.yul\":17276:17369   */\n      tag_333\n      jump\t// in\n    tag_572:\n        /* \"#utility.yul\":17394:17396   */\n      0x20\n        /* \"#utility.yul\":17389:17392   */\n      dup3\n        /* \"#utility.yul\":17385:17397   */\n      add\n        /* \"#utility.yul\":17378:17397   */\n      swap1\n      pop\n        /* \"#utility.yul\":17037:17403   */\n      swap2\n      swap1\n      pop\n      jump\t// out\n        /* \"#utility.yul\":17409:17828   */\n    tag_150:\n        /* \"#utility.yul\":17575:17579   */\n      0x00\n        /* \"#utility.yul\":17613:17615   */\n      0x20\n        /* \"#utility.yul\":17602:17611   */\n      dup3\n        /* \"#utility.yul\":17598:17616   */\n      add\n        /* \"#utility.yul\":17590:17616   */\n      swap1\n      pop\n        /* \"#utility.yul\":17662:17671   */\n      dup2\n        /* \"#utility.yul\":17656:17660   */\n      dup2\n        /* \"#utility.yul\":17652:17672   */\n      sub\n        /* \"#utility.yul\":17648:17649   */\n      0x00\n        /* \"#utility.yul\":17637:17646   */\n      dup4\n        /* \"#utility.yul\":17633:17650   */\n      add\n        /* \"#utility.yul\":17626:17673   */\n      mstore\n        /* \"#utility.yul\":17690:17821   */\n      tag_574\n        /* \"#utility.yul\":17816:17820   */\n      dup2\n        /* \"#utility.yul\":17690:17821   */\n      tag_334\n      jump\t// in\n    tag_574:\n        /* \"#utility.yul\":17682:17821   */\n      swap1\n      pop\n        /* \"#utility.yul\":17409:17828   */\n      swap2\n      swap1\n      pop\n      jump\t// out\n        /* \"#utility.yul\":17834:18166   */\n    tag_152:\n        /* \"#utility.yul\":17955:17959   */\n      0x00\n        /* \"#utility.yul\":17993:17995   */\n      0x40\n        /* \"#utility.yul\":17982:17991   */\n      dup3\n        /* \"#utility.yul\":17978:17996   */\n      add\n        /* \"#utility.yul\":17970:17996   */\n      swap1\n      pop\n        /* \"#utility.yul\":18006:18077   */\n      tag_576\n        /* \"#utility.yul\":18074:18075   */\n      0x00\n        /* \"#utility.yul\":18063:18072   */\n      dup4\n        /* \"#utility.yul\":18059:18076   */\n      add\n        /* \"#utility.yul\":18050:18056   */\n      dup6\n        /* \"#utility.yul\":18006:18077   */\n      tag_327\n      jump\t// in\n    tag_576:\n        /* \"#utility.yul\":18087:18159   */\n      tag_577\n        /* \"#utility.yul\":18155:18157   */\n      0x20\n        /* \"#utility.yul\":18144:18153   */\n      dup4\n        /* \"#utility.yul\":18140:18158   */\n      add\n        /* \"#utility.yul\":18131:18137   */\n      dup5\n        /* \"#utility.yul\":18087:18159   */\n      tag_327\n      jump\t// in\n    tag_577:\n        /* \"#utility.yul\":17834:18166   */\n      swap4\n      swap3\n      pop\n      pop\n      pop\n      jump\t// out\n        /* \"#utility.yul\":18172:18288   */\n    tag_335:\n        /* \"#utility.yul\":18242:18263   */\n      tag_579\n        /* \"#utility.yul\":18257:18262   */\n      dup2\n        /* \"#utility.yul\":18242:18263   */\n      tag_301\n      jump\t// in\n    tag_579:\n        /* \"#utility.yul\":18235:18240   */\n      dup2\n        /* \"#utility.yul\":18232:18264   */\n      eq\n        /* \"#utility.yul\":18222:18282   */\n      tag_580\n      jumpi\n        /* \"#utility.yul\":18278:18279   */\n      0x00\n        /* \"#utility.yul\":18275:18276   */\n      dup1\n        /* \"#utility.yul\":18268:18280   */\n      revert\n        /* \"#utility.yul\":18222:18282   */\n    tag_580:\n        /* \"#utility.yul\":18172:18288   */\n      pop\n      jump\t// out\n        /* \"#utility.yul\":18294:18431   */\n    tag_336:\n        /* \"#utility.yul\":18348:18353   */\n      0x00\n        /* \"#utility.yul\":18379:18385   */\n      dup2\n        /* \"#utility.yul\":18373:18386   */\n      mload\n        /* \"#utility.yul\":18364:18386   */\n      swap1\n      pop\n        /* \"#utility.yul\":18395:18425   */\n      tag_582\n        /* \"#utility.yul\":18419:18424   */\n      dup2\n        /* \"#utility.yul\":18395:18425   */\n      tag_335\n      jump\t// in\n    tag_582:\n        /* \"#utility.yul\":18294:18431   */\n      swap3\n      swap2\n      pop\n      pop\n      jump\t// out\n        /* \"#utility.yul\":18437:18782   */\n    tag_156:\n        /* \"#utility.yul\":18504:18510   */\n      0x00\n        /* \"#utility.yul\":18553:18555   */\n      0x20\n        /* \"#utility.yul\":18541:18550   */\n      dup3\n        /* \"#utility.yul\":18532:18539   */\n      dup5\n        /* \"#utility.yul\":18528:18551   */\n      sub\n        /* \"#utility.yul\":18524:18556   */\n      slt\n        /* \"#utility.yul\":18521:18640   */\n      iszero\n      tag_584\n      jumpi\n        /* \"#utility.yul\":18559:18638   */\n      tag_585\n      tag_279\n      jump\t// in\n    tag_585:\n        /* \"#utility.yul\":18521:18640   */\n    tag_584:\n        /* \"#utility.yul\":18679:18680   */\n      0x00\n        /* \"#utility.yul\":18704:18765   */\n      tag_586\n        /* \"#utility.yul\":18757:18764   */\n      dup5\n        /* \"#utility.yul\":18748:18754   */\n      dup3\n        /* \"#utility.yul\":18737:18746   */\n      dup6\n        /* \"#utility.yul\":18733:18755   */\n      add\n        /* \"#utility.yul\":18704:18765   */\n      tag_336\n      jump\t// in\n    tag_586:\n        /* \"#utility.yul\":18694:18765   */\n      swap2\n      pop\n        /* \"#utility.yul\":18650:18775   */\n      pop\n        /* \"#utility.yul\":18437:18782   */\n      swap3\n      swap2\n      pop\n      pop\n      jump\t// out\n        /* \"#utility.yul\":18788:18950   */\n    tag_337:\n        /* \"#utility.yul\":18928:18942   */\n      0x4e6f7420617070726f7665640000000000000000000000000000000000000000\n        /* \"#utility.yul\":18924:18925   */\n      0x00\n        /* \"#utility.yul\":18916:18922   */\n      dup3\n        /* \"#utility.yul\":18912:18926   */\n      add\n        /* \"#utility.yul\":18905:18943   */\n      mstore\n        /* \"#utility.yul\":18788:18950   */\n      pop\n      jump\t// out\n        /* \"#utility.yul\":18956:19322   */\n    tag_338:\n        /* \"#utility.yul\":19098:19101   */\n      0x00\n        /* \"#utility.yul\":19119:19186   */\n      tag_589\n        /* \"#utility.yul\":19183:19185   */\n      0x0c\n        /* \"#utility.yul\":19178:19181   */\n      dup4\n        /* \"#utility.yul\":19119:19186   */\n      tag_285\n      jump\t// in\n    tag_589:\n        /* \"#utility.yul\":19112:19186   */\n      swap2\n      pop\n        /* \"#utility.yul\":19195:19288   */\n      tag_590\n        /* \"#utility.yul\":19284:19287   */\n      dup3\n        /* \"#utility.yul\":19195:19288   */\n      tag_337\n      jump\t// in\n    tag_590:\n        /* \"#utility.yul\":19313:19315   */\n      0x20\n        /* \"#utility.yul\":19308:19311   */\n      dup3\n        /* \"#utility.yul\":19304:19316   */\n      add\n        /* \"#utility.yul\":19297:19316   */\n      swap1\n      pop\n        /* \"#utility.yul\":18956:19322   */\n      swap2\n      swap1\n      pop\n      jump\t// out\n        /* \"#utility.yul\":19328:19747   */\n    tag_164:\n        /* \"#utility.yul\":19494:19498   */\n      0x00\n        /* \"#utility.yul\":19532:19534   */\n      0x20\n        /* \"#utility.yul\":19521:19530   */\n      dup3\n        /* \"#utility.yul\":19517:19535   */\n      add\n        /* \"#utility.yul\":19509:19535   */\n      swap1\n      pop\n        /* \"#utility.yul\":19581:19590   */\n      dup2\n        /* \"#utility.yul\":19575:19579   */\n      dup2\n        /* \"#utility.yul\":19571:19591   */\n      sub\n        /* \"#utility.yul\":19567:19568   */\n      0x00\n        /* \"#utility.yul\":19556:19565   */\n      dup4\n        /* \"#utility.yul\":19552:19569   */\n      add\n        /* \"#utility.yul\":19545:19592   */\n      mstore\n        /* \"#utility.yul\":19609:19740   */\n      tag_592\n        /* \"#utility.yul\":19735:19739   */\n      dup2\n        /* \"#utility.yul\":19609:19740   */\n      tag_338\n      jump\t// in\n    tag_592:\n        /* \"#utility.yul\":19601:19740   */\n      swap1\n      pop\n        /* \"#utility.yul\":19328:19747   */\n      swap2\n      swap1\n      pop\n      jump\t// out\n        /* \"#utility.yul\":19753:19944   */\n    tag_166:\n        /* \"#utility.yul\":19793:19796   */\n      0x00\n        /* \"#utility.yul\":19812:19832   */\n      tag_594\n        /* \"#utility.yul\":19830:19831   */\n      dup3\n        /* \"#utility.yul\":19812:19832   */\n      tag_281\n      jump\t// in\n    tag_594:\n        /* \"#utility.yul\":19807:19832   */\n      swap2\n      pop\n        /* \"#utility.yul\":19846:19866   */\n      tag_595\n        /* \"#utility.yul\":19864:19865   */\n      dup4\n        /* \"#utility.yul\":19846:19866   */\n      tag_281\n      jump\t// in\n    tag_595:\n        /* \"#utility.yul\":19841:19866   */\n      swap3\n      pop\n        /* \"#utility.yul\":19889:19890   */\n      dup3\n        /* \"#utility.yul\":19886:19887   */\n      dup3\n        /* \"#utility.yul\":19882:19891   */\n      add\n        /* \"#utility.yul\":19875:19891   */\n      swap1\n      pop\n        /* \"#utility.yul\":19910:19913   */\n      dup1\n        /* \"#utility.yul\":19907:19908   */\n      dup3\n        /* \"#utility.yul\":19904:19914   */\n      gt\n        /* \"#utility.yul\":19901:19937   */\n      iszero\n      tag_596\n      jumpi\n        /* \"#utility.yul\":19917:19935   */\n      tag_597\n      tag_330\n      jump\t// in\n    tag_597:\n        /* \"#utility.yul\":19901:19937   */\n    tag_596:\n        /* \"#utility.yul\":19753:19944   */\n      swap3\n      swap2\n      pop\n      pop\n      jump\t// out\n        /* \"#utility.yul\":19950:20392   */\n    tag_169:\n        /* \"#utility.yul\":20099:20103   */\n      0x00\n        /* \"#utility.yul\":20137:20139   */\n      0x60\n        /* \"#utility.yul\":20126:20135   */\n      dup3\n        /* \"#utility.yul\":20122:20140   */\n      add\n        /* \"#utility.yul\":20114:20140   */\n      swap1\n      pop\n        /* \"#utility.yul\":20150:20221   */\n      tag_599\n        /* \"#utility.yul\":20218:20219   */\n      0x00\n        /* \"#utility.yul\":20207:20216   */\n      dup4\n        /* \"#utility.yul\":20203:20220   */\n      add\n        /* \"#utility.yul\":20194:20200   */\n      dup7\n        /* \"#utility.yul\":20150:20221   */\n      tag_327\n      jump\t// in\n    tag_599:\n        /* \"#utility.yul\":20231:20303   */\n      tag_600\n        /* \"#utility.yul\":20299:20301   */\n      0x20\n        /* \"#utility.yul\":20288:20297   */\n      dup4\n        /* \"#utility.yul\":20284:20302   */\n      add\n        /* \"#utility.yul\":20275:20281   */\n      dup6\n        /* \"#utility.yul\":20231:20303   */\n      tag_327\n      jump\t// in\n    tag_600:\n        /* \"#utility.yul\":20313:20385   */\n      tag_601\n        /* \"#utility.yul\":20381:20383   */\n      0x40\n        /* \"#utility.yul\":20370:20379   */\n      dup4\n        /* \"#utility.yul\":20366:20384   */\n      add\n        /* \"#utility.yul\":20357:20363   */\n      dup5\n        /* \"#utility.yul\":20313:20385   */\n      tag_293\n      jump\t// in\n    tag_601:\n        /* \"#utility.yul\":19950:20392   */\n      swap5\n      swap4\n      pop\n      pop\n      pop\n      pop\n      jump\t// out\n        /* \"#utility.yul\":20398:20840   */\n    tag_174:\n        /* \"#utility.yul\":20547:20551   */\n      0x00\n        /* \"#utility.yul\":20585:20587   */\n      0x60\n        /* \"#utility.yul\":20574:20583   */\n      dup3\n        /* \"#utility.yul\":20570:20588   */\n      add\n        /* \"#utility.yul\":20562:20588   */\n      swap1\n      pop\n        /* \"#utility.yul\":20598:20669   */\n      tag_603\n        /* \"#utility.yul\":20666:20667   */\n      0x00\n        /* \"#utility.yul\":20655:20664   */\n      dup4\n        /* \"#utility.yul\":20651:20668   */\n      add\n        /* \"#utility.yul\":20642:20648   */\n      dup7\n        /* \"#utility.yul\":20598:20669   */\n      tag_293\n      jump\t// in\n    tag_603:\n        /* \"#utility.yul\":20679:20751   */\n      tag_604\n        /* \"#utility.yul\":20747:20749   */\n      0x20\n        /* \"#utility.yul\":20736:20745   */\n      dup4\n        /* \"#utility.yul\":20732:20750   */\n      add\n        /* \"#utility.yul\":20723:20729   */\n      dup6\n        /* \"#utility.yul\":20679:20751   */\n      tag_293\n      jump\t// in\n    tag_604:\n        /* \"#utility.yul\":20761:20833   */\n      tag_605\n        /* \"#utility.yul\":20829:20831   */\n      0x40\n        /* \"#utility.yul\":20818:20827   */\n      dup4\n        /* \"#utility.yul\":20814:20832   */\n      add\n        /* \"#utility.yul\":20805:20811   */\n      dup5\n        /* \"#utility.yul\":20761:20833   */\n      tag_293\n      jump\t// in\n    tag_605:\n        /* \"#utility.yul\":20398:20840   */\n      swap5\n      swap4\n      pop\n      pop\n      pop\n      pop\n      jump\t// out\n        /* \"#utility.yul\":20846:21068   */\n    tag_178:\n        /* \"#utility.yul\":20939:20943   */\n      0x00\n        /* \"#utility.yul\":20977:20979   */\n      0x20\n        /* \"#utility.yul\":20966:20975   */\n      dup3\n        /* \"#utility.yul\":20962:20980   */\n      add\n        /* \"#utility.yul\":20954:20980   */\n      swap1\n      pop\n        /* \"#utility.yul\":20990:21061   */\n      tag_607\n        /* \"#utility.yul\":21058:21059   */\n      0x00\n        /* \"#utility.yul\":21047:21056   */\n      dup4\n        /* \"#utility.yul\":21043:21060   */\n      add\n        /* \"#utility.yul\":21034:21040   */\n      dup5\n        /* \"#utility.yul\":20990:21061   */\n      tag_327\n      jump\t// in\n    tag_607:\n        /* \"#utility.yul\":20846:21068   */\n      swap3\n      swap2\n      pop\n      pop\n      jump\t// out\n        /* \"#utility.yul\":21074:21221   */\n    tag_339:\n        /* \"#utility.yul\":21175:21186   */\n      0x00\n        /* \"#utility.yul\":21212:21215   */\n      dup2\n        /* \"#utility.yul\":21197:21215   */\n      swap1\n      pop\n        /* \"#utility.yul\":21074:21221   */\n      swap3\n      swap2\n      pop\n      pop\n      jump\t// out\n        /* \"#utility.yul\":21227:21341   */\n    tag_340:\n      pop\n      jump\t// out\n        /* \"#utility.yul\":21347:21745   */\n    tag_341:\n        /* \"#utility.yul\":21506:21509   */\n      0x00\n        /* \"#utility.yul\":21527:21610   */\n      tag_611\n        /* \"#utility.yul\":21608:21609   */\n      0x00\n        /* \"#utility.yul\":21603:21606   */\n      dup4\n        /* \"#utility.yul\":21527:21610   */\n      tag_339\n      jump\t// in\n    tag_611:\n        /* \"#utility.yul\":21520:21610   */\n      swap2\n      pop\n        /* \"#utility.yul\":21619:21712   */\n      tag_612\n        /* \"#utility.yul\":21708:21711   */\n      dup3\n        /* \"#utility.yul\":21619:21712   */\n      tag_340\n      jump\t// in\n    tag_612:\n        /* \"#utility.yul\":21737:21738   */\n      0x00\n        /* \"#utility.yul\":21732:21735   */\n      dup3\n        /* \"#utility.yul\":21728:21739   */\n      add\n        /* \"#utility.yul\":21721:21739   */\n      swap1\n      pop\n        /* \"#utility.yul\":21347:21745   */\n      swap2\n      swap1\n      pop\n      jump\t// out\n        /* \"#utility.yul\":21751:22130   */\n    tag_182:\n        /* \"#utility.yul\":21935:21938   */\n      0x00\n        /* \"#utility.yul\":21957:22104   */\n      tag_614\n        /* \"#utility.yul\":22100:22103   */\n      dup3\n        /* \"#utility.yul\":21957:22104   */\n      tag_341\n      jump\t// in\n    tag_614:\n        /* \"#utility.yul\":21950:22104   */\n      swap2\n      pop\n        /* \"#utility.yul\":22121:22124   */\n      dup2\n        /* \"#utility.yul\":22114:22124   */\n      swap1\n      pop\n        /* \"#utility.yul\":21751:22130   */\n      swap2\n      swap1\n      pop\n      jump\t// out\n        /* \"#utility.yul\":22136:22301   */\n    tag_342:\n        /* \"#utility.yul\":22276:22293   */\n      0x5472616e73666572206661696c65640000000000000000000000000000000000\n        /* \"#utility.yul\":22272:22273   */\n      0x00\n        /* \"#utility.yul\":22264:22270   */\n      dup3\n        /* \"#utility.yul\":22260:22274   */\n      add\n        /* \"#utility.yul\":22253:22294   */\n      mstore\n        /* \"#utility.yul\":22136:22301   */\n      pop\n      jump\t// out\n        /* \"#utility.yul\":22307:22673   */\n    tag_343:\n        /* \"#utility.yul\":22449:22452   */\n      0x00\n        /* \"#utility.yul\":22470:22537   */\n      tag_617\n        /* \"#utility.yul\":22534:22536   */\n      0x0f\n        /* \"#utility.yul\":22529:22532   */\n      dup4\n        /* \"#utility.yul\":22470:22537   */\n      tag_285\n      jump\t// in\n    tag_617:\n        /* \"#utility.yul\":22463:22537   */\n      swap2\n      pop\n        /* \"#utility.yul\":22546:22639   */\n      tag_618\n        /* \"#utility.yul\":22635:22638   */\n      dup3\n        /* \"#utility.yul\":22546:22639   */\n      tag_342\n      jump\t// in\n    tag_618:\n        /* \"#utility.yul\":22664:22666   */\n      0x20\n        /* \"#utility.yul\":22659:22662   */\n      dup3\n        /* \"#utility.yul\":22655:22667   */\n      add\n        /* \"#utility.yul\":22648:22667   */\n      swap1\n      pop\n        /* \"#utility.yul\":22307:22673   */\n      swap2\n      swap1\n      pop\n      jump\t// out\n        /* \"#utility.yul\":22679:23098   */\n    tag_188:\n        /* \"#utility.yul\":22845:22849   */\n      0x00\n        /* \"#utility.yul\":22883:22885   */\n      0x20\n        /* \"#utility.yul\":22872:22881   */\n      dup3\n        /* \"#utility.yul\":22868:22886   */\n      add\n        /* \"#utility.yul\":22860:22886   */\n      swap1\n      pop\n        /* \"#utility.yul\":22932:22941   */\n      dup2\n        /* \"#utility.yul\":22926:22930   */\n      dup2\n        /* \"#utility.yul\":22922:22942   */\n      sub\n        /* \"#utility.yul\":22918:22919   */\n      0x00\n        /* \"#utility.yul\":22907:22916   */\n      dup4\n        /* \"#utility.yul\":22903:22920   */\n      add\n        /* \"#utility.yul\":22896:22943   */\n      mstore\n        /* \"#utility.yul\":22960:23091   */\n      tag_620\n        /* \"#utility.yul\":23086:23090   */\n      dup2\n        /* \"#utility.yul\":22960:23091   */\n      tag_343\n      jump\t// in\n    tag_620:\n        /* \"#utility.yul\":22952:23091   */\n      swap1\n      pop\n        /* \"#utility.yul\":22679:23098   */\n      swap2\n      swap1\n      pop\n      jump\t// out\n        /* \"#utility.yul\":23104:23284   */\n    tag_344:\n        /* \"#utility.yul\":23152:23229   */\n      0x4e487b7100000000000000000000000000000000000000000000000000000000\n        /* \"#utility.yul\":23149:23150   */\n      0x00\n        /* \"#utility.yul\":23142:23230   */\n      mstore\n        /* \"#utility.yul\":23249:23253   */\n      0x22\n        /* \"#utility.yul\":23246:23247   */\n      0x04\n        /* \"#utility.yul\":23239:23254   */\n      mstore\n        /* \"#utility.yul\":23273:23277   */\n      0x24\n        /* \"#utility.yul\":23270:23271   */\n      0x00\n        /* \"#utility.yul\":23263:23278   */\n      revert\n        /* \"#utility.yul\":23290:23610   */\n    tag_191:\n        /* \"#utility.yul\":23334:23340   */\n      0x00\n        /* \"#utility.yul\":23371:23372   */\n      0x02\n        /* \"#utility.yul\":23365:23369   */\n      dup3\n        /* \"#utility.yul\":23361:23373   */\n      div\n        /* \"#utility.yul\":23351:23373   */\n      swap1\n      pop\n        /* \"#utility.yul\":23418:23419   */\n      0x01\n        /* \"#utility.yul\":23412:23416   */\n      dup3\n        /* \"#utility.yul\":23408:23420   */\n      and\n        /* \"#utility.yul\":23439:23457   */\n      dup1\n        /* \"#utility.yul\":23429:23510   */\n      tag_623\n      jumpi\n        /* \"#utility.yul\":23495:23499   */\n      0x7f\n        /* \"#utility.yul\":23487:23493   */\n      dup3\n        /* \"#utility.yul\":23483:23500   */\n      and\n        /* \"#utility.yul\":23473:23500   */\n      swap2\n      pop\n        /* \"#utility.yul\":23429:23510   */\n    tag_623:\n        /* \"#utility.yul\":23557:23559   */\n      0x20\n        /* \"#utility.yul\":23549:23555   */\n      dup3\n        /* \"#utility.yul\":23546:23560   */\n      lt\n        /* \"#utility.yul\":23526:23544   */\n      dup2\n        /* \"#utility.yul\":23523:23561   */\n      sub\n        /* \"#utility.yul\":23520:23604   */\n      tag_624\n      jumpi\n        /* \"#utility.yul\":23576:23594   */\n      tag_625\n      tag_344\n      jump\t// in\n    tag_625:\n        /* \"#utility.yul\":23520:23604   */\n    tag_624:\n        /* \"#utility.yul\":23341:23610   */\n      pop\n        /* \"#utility.yul\":23290:23610   */\n      swap2\n      swap1\n      pop\n      jump\t// out\n        /* \"#utility.yul\":23616:23948   */\n    tag_198:\n        /* \"#utility.yul\":23737:23741   */\n      0x00\n        /* \"#utility.yul\":23775:23777   */\n      0x40\n        /* \"#utility.yul\":23764:23773   */\n      dup3\n        /* \"#utility.yul\":23760:23778   */\n      add\n        /* \"#utility.yul\":23752:23778   */\n      swap1\n      pop\n        /* \"#utility.yul\":23788:23859   */\n      tag_627\n        /* \"#utility.yul\":23856:23857   */\n      0x00\n        /* \"#utility.yul\":23845:23854   */\n      dup4\n        /* \"#utility.yul\":23841:23858   */\n      add\n        /* \"#utility.yul\":23832:23838   */\n      dup6\n        /* \"#utility.yul\":23788:23859   */\n      tag_327\n      jump\t// in\n    tag_627:\n        /* \"#utility.yul\":23869:23941   */\n      tag_628\n        /* \"#utility.yul\":23937:23939   */\n      0x20\n        /* \"#utility.yul\":23926:23935   */\n      dup4\n        /* \"#utility.yul\":23922:23940   */\n      add\n        /* \"#utility.yul\":23913:23919   */\n      dup5\n        /* \"#utility.yul\":23869:23941   */\n      tag_293\n      jump\t// in\n    tag_628:\n        /* \"#utility.yul\":23616:23948   */\n      swap4\n      swap3\n      pop\n      pop\n      pop\n      jump\t// out\n        /* \"#utility.yul\":23954:24097   */\n    tag_345:\n        /* \"#utility.yul\":24011:24016   */\n      0x00\n        /* \"#utility.yul\":24042:24048   */\n      dup2\n        /* \"#utility.yul\":24036:24049   */\n      mload\n        /* \"#utility.yul\":24027:24049   */\n      swap1\n      pop\n        /* \"#utility.yul\":24058:24091   */\n      tag_630\n        /* \"#utility.yul\":24085:24090   */\n      dup2\n        /* \"#utility.yul\":24058:24091   */\n      tag_282\n      jump\t// in\n    tag_630:\n        /* \"#utility.yul\":23954:24097   */\n      swap3\n      swap2\n      pop\n      pop\n      jump\t// out\n        /* \"#utility.yul\":24103:24454   */\n    tag_202:\n        /* \"#utility.yul\":24173:24179   */\n      0x00\n        /* \"#utility.yul\":24222:24224   */\n      0x20\n        /* \"#utility.yul\":24210:24219   */\n      dup3\n        /* \"#utility.yul\":24201:24208   */\n      dup5\n        /* \"#utility.yul\":24197:24220   */\n      sub\n        /* \"#utility.yul\":24193:24225   */\n      slt\n        /* \"#utility.yul\":24190:24309   */\n      iszero\n      tag_632\n      jumpi\n        /* \"#utility.yul\":24228:24307   */\n      tag_633\n      tag_279\n      jump\t// in\n    tag_633:\n        /* \"#utility.yul\":24190:24309   */\n    tag_632:\n        /* \"#utility.yul\":24348:24349   */\n      0x00\n        /* \"#utility.yul\":24373:24437   */\n      tag_634\n        /* \"#utility.yul\":24429:24436   */\n      dup5\n        /* \"#utility.yul\":24420:24426   */\n      dup3\n        /* \"#utility.yul\":24409:24418   */\n      dup6\n        /* \"#utility.yul\":24405:24427   */\n      add\n        /* \"#utility.yul\":24373:24437   */\n      tag_345\n      jump\t// in\n    tag_634:\n        /* \"#utility.yul\":24363:24437   */\n      swap2\n      pop\n        /* \"#utility.yul\":24319:24447   */\n      pop\n        /* \"#utility.yul\":24103:24454   */\n      swap3\n      swap2\n      pop\n      pop\n      jump\t// out\n        /* \"#utility.yul\":24460:24629   */\n    tag_346:\n        /* \"#utility.yul\":24600:24621   */\n      0x436f6d6d697373696f6e20746f6f206869676800000000000000000000000000\n        /* \"#utility.yul\":24596:24597   */\n      0x00\n        /* \"#utility.yul\":24588:24594   */\n      dup3\n        /* \"#utility.yul\":24584:24598   */\n      add\n        /* \"#utility.yul\":24577:24622   */\n      mstore\n        /* \"#utility.yul\":24460:24629   */\n      pop\n      jump\t// out\n        /* \"#utility.yul\":24635:25001   */\n    tag_347:\n        /* \"#utility.yul\":24777:24780   */\n      0x00\n        /* \"#utility.yul\":24798:24865   */\n      tag_637\n        /* \"#utility.yul\":24862:24864   */\n      0x13\n        /* \"#utility.yul\":24857:24860   */\n      dup4\n        /* \"#utility.yul\":24798:24865   */\n      tag_285\n      jump\t// in\n    tag_637:\n        /* \"#utility.yul\":24791:24865   */\n      swap2\n      pop\n        /* \"#utility.yul\":24874:24967   */\n      tag_638\n        /* \"#utility.yul\":24963:24966   */\n      dup3\n        /* \"#utility.yul\":24874:24967   */\n      tag_346\n      jump\t// in\n    tag_638:\n        /* \"#utility.yul\":24992:24994   */\n      0x20\n        /* \"#utility.yul\":24987:24990   */\n      dup3\n        /* \"#utility.yul\":24983:24995   */\n      add\n        /* \"#utility.yul\":24976:24995   */\n      swap1\n      pop\n        /* \"#utility.yul\":24635:25001   */\n      swap2\n      swap1\n      pop\n      jump\t// out\n        /* \"#utility.yul\":25007:25426   */\n    tag_213:\n        /* \"#utility.yul\":25173:25177   */\n      0x00\n        /* \"#utility.yul\":25211:25213   */\n      0x20\n        /* \"#utility.yul\":25200:25209   */\n      dup3\n        /* \"#utility.yul\":25196:25214   */\n      add\n        /* \"#utility.yul\":25188:25214   */\n      swap1\n      pop\n        /* \"#utility.yul\":25260:25269   */\n      dup2\n        /* \"#utility.yul\":25254:25258   */\n      dup2\n        /* \"#utility.yul\":25250:25270   */\n      sub\n        /* \"#utility.yul\":25246:25247   */\n      0x00\n        /* \"#utility.yul\":25235:25244   */\n      dup4\n        /* \"#utility.yul\":25231:25248   */\n      add\n        /* \"#utility.yul\":25224:25271   */\n      mstore\n        /* \"#utility.yul\":25288:25419   */\n      tag_640\n        /* \"#utility.yul\":25414:25418   */\n      dup2\n        /* \"#utility.yul\":25288:25419   */\n      tag_347\n      jump\t// in\n    tag_640:\n        /* \"#utility.yul\":25280:25419   */\n      swap1\n      pop\n        /* \"#utility.yul\":25007:25426   */\n      swap2\n      swap1\n      pop\n      jump\t// out\n        /* \"#utility.yul\":25432:25599   */\n    tag_348:\n        /* \"#utility.yul\":25572:25591   */\n      0x5072696365206d757374206265203e2030000000000000000000000000000000\n        /* \"#utility.yul\":25568:25569   */\n      0x00\n        /* \"#utility.yul\":25560:25566   */\n      dup3\n        /* \"#utility.yul\":25556:25570   */\n      add\n        /* \"#utility.yul\":25549:25592   */\n      mstore\n        /* \"#utility.yul\":25432:25599   */\n      pop\n      jump\t// out\n        /* \"#utility.yul\":25605:25971   */\n    tag_349:\n        /* \"#utility.yul\":25747:25750   */\n      0x00\n        /* \"#utility.yul\":25768:25835   */\n      tag_643\n        /* \"#utility.yul\":25832:25834   */\n      0x11\n        /* \"#utility.yul\":25827:25830   */\n      dup4\n        /* \"#utility.yul\":25768:25835   */\n      tag_285\n      jump\t// in\n    tag_643:\n        /* \"#utility.yul\":25761:25835   */\n      swap2\n      pop\n        /* \"#utility.yul\":25844:25937   */\n      tag_644\n        /* \"#utility.yul\":25933:25936   */\n      dup3\n        /* \"#utility.yul\":25844:25937   */\n      tag_348\n      jump\t// in\n    tag_644:\n        /* \"#utility.yul\":25962:25964   */\n      0x20\n        /* \"#utility.yul\":25957:25960   */\n      dup3\n        /* \"#utility.yul\":25953:25965   */\n      add\n        /* \"#utility.yul\":25946:25965   */\n      swap1\n      pop\n        /* \"#utility.yul\":25605:25971   */\n      swap2\n      swap1\n      pop\n      jump\t// out\n        /* \"#utility.yul\":25977:26396   */\n    tag_219:\n        /* \"#utility.yul\":26143:26147   */\n      0x00\n        /* \"#utility.yul\":26181:26183   */\n      0x20\n        /* \"#utility.yul\":26170:26179   */\n      dup3\n        /* \"#utility.yul\":26166:26184   */\n      add\n        /* \"#utility.yul\":26158:26184   */\n      swap1\n      pop\n        /* \"#utility.yul\":26230:26239   */\n      dup2\n        /* \"#utility.yul\":26224:26228   */\n      dup2\n        /* \"#utility.yul\":26220:26240   */\n      sub\n        /* \"#utility.yul\":26216:26217   */\n      0x00\n        /* \"#utility.yul\":26205:26214   */\n      dup4\n        /* \"#utility.yul\":26201:26218   */\n      add\n        /* \"#utility.yul\":26194:26241   */\n      mstore\n        /* \"#utility.yul\":26258:26389   */\n      tag_646\n        /* \"#utility.yul\":26384:26388   */\n      dup2\n        /* \"#utility.yul\":26258:26389   */\n      tag_349\n      jump\t// in\n    tag_646:\n        /* \"#utility.yul\":26250:26389   */\n      swap1\n      pop\n        /* \"#utility.yul\":25977:26396   */\n      swap2\n      swap1\n      pop\n      jump\t// out\n        /* \"#utility.yul\":26402:26481   */\n    tag_350:\n        /* \"#utility.yul\":26441:26448   */\n      0x00\n        /* \"#utility.yul\":26470:26475   */\n      dup2\n        /* \"#utility.yul\":26459:26475   */\n      swap1\n      pop\n        /* \"#utility.yul\":26402:26481   */\n      swap2\n      swap1\n      pop\n      jump\t// out\n        /* \"#utility.yul\":26487:26644   */\n    tag_351:\n        /* \"#utility.yul\":26592:26637   */\n      tag_649\n        /* \"#utility.yul\":26612:26636   */\n      tag_650\n        /* \"#utility.yul\":26630:26635   */\n      dup3\n        /* \"#utility.yul\":26612:26636   */\n      tag_281\n      jump\t// in\n    tag_650:\n        /* \"#utility.yul\":26592:26637   */\n      tag_350\n      jump\t// in\n    tag_649:\n        /* \"#utility.yul\":26587:26590   */\n      dup3\n        /* \"#utility.yul\":26580:26638   */\n      mstore\n        /* \"#utility.yul\":26487:26644   */\n      pop\n      pop\n      jump\t// out\n        /* \"#utility.yul\":26650:26744   */\n    tag_352:\n        /* \"#utility.yul\":26683:26691   */\n      0x00\n        /* \"#utility.yul\":26731:26736   */\n      dup2\n        /* \"#utility.yul\":26727:26729   */\n      0x60\n        /* \"#utility.yul\":26723:26737   */\n      shl\n        /* \"#utility.yul\":26702:26737   */\n      swap1\n      pop\n        /* \"#utility.yul\":26650:26744   */\n      swap2\n      swap1\n      pop\n      jump\t// out\n        /* \"#utility.yul\":26750:26844   */\n    tag_353:\n        /* \"#utility.yul\":26789:26796   */\n      0x00\n        /* \"#utility.yul\":26818:26838   */\n      tag_653\n        /* \"#utility.yul\":26832:26837   */\n      dup3\n        /* \"#utility.yul\":26818:26838   */\n      tag_352\n      jump\t// in\n    tag_653:\n        /* \"#utility.yul\":26807:26838   */\n      swap1\n      pop\n        /* \"#utility.yul\":26750:26844   */\n      swap2\n      swap1\n      pop\n      jump\t// out\n        /* \"#utility.yul\":26850:26950   */\n    tag_354:\n        /* \"#utility.yul\":26889:26896   */\n      0x00\n        /* \"#utility.yul\":26918:26944   */\n      tag_655\n        /* \"#utility.yul\":26938:26943   */\n      dup3\n        /* \"#utility.yul\":26918:26944   */\n      tag_353\n      jump\t// in\n    tag_655:\n        /* \"#utility.yul\":26907:26944   */\n      swap1\n      pop\n        /* \"#utility.yul\":26850:26950   */\n      swap2\n      swap1\n      pop\n      jump\t// out\n        /* \"#utility.yul\":26956:27113   */\n    tag_355:\n        /* \"#utility.yul\":27061:27106   */\n      tag_657\n        /* \"#utility.yul\":27081:27105   */\n      tag_658\n        /* \"#utility.yul\":27099:27104   */\n      dup3\n        /* \"#utility.yul\":27081:27105   */\n      tag_290\n      jump\t// in\n    tag_658:\n        /* \"#utility.yul\":27061:27106   */\n      tag_354\n      jump\t// in\n    tag_657:\n        /* \"#utility.yul\":27056:27059   */\n      dup3\n        /* \"#utility.yul\":27049:27107   */\n      mstore\n        /* \"#utility.yul\":26956:27113   */\n      pop\n      pop\n      jump\t// out\n        /* \"#utility.yul\":27119:27657   */\n    tag_238:\n        /* \"#utility.yul\":27287:27290   */\n      0x00\n        /* \"#utility.yul\":27302:27377   */\n      tag_660\n        /* \"#utility.yul\":27373:27376   */\n      dup3\n        /* \"#utility.yul\":27364:27370   */\n      dup7\n        /* \"#utility.yul\":27302:27377   */\n      tag_351\n      jump\t// in\n    tag_660:\n        /* \"#utility.yul\":27402:27404   */\n      0x20\n        /* \"#utility.yul\":27397:27400   */\n      dup3\n        /* \"#utility.yul\":27393:27405   */\n      add\n        /* \"#utility.yul\":27386:27405   */\n      swap2\n      pop\n        /* \"#utility.yul\":27415:27490   */\n      tag_661\n        /* \"#utility.yul\":27486:27489   */\n      dup3\n        /* \"#utility.yul\":27477:27483   */\n      dup6\n        /* \"#utility.yul\":27415:27490   */\n      tag_355\n      jump\t// in\n    tag_661:\n        /* \"#utility.yul\":27515:27517   */\n      0x14\n        /* \"#utility.yul\":27510:27513   */\n      dup3\n        /* \"#utility.yul\":27506:27518   */\n      add\n        /* \"#utility.yul\":27499:27518   */\n      swap2\n      pop\n        /* \"#utility.yul\":27528:27603   */\n      tag_662\n        /* \"#utility.yul\":27599:27602   */\n      dup3\n        /* \"#utility.yul\":27590:27596   */\n      dup5\n        /* \"#utility.yul\":27528:27603   */\n      tag_351\n      jump\t// in\n    tag_662:\n        /* \"#utility.yul\":27628:27630   */\n      0x20\n        /* \"#utility.yul\":27623:27626   */\n      dup3\n        /* \"#utility.yul\":27619:27631   */\n      add\n        /* \"#utility.yul\":27612:27631   */\n      swap2\n      pop\n        /* \"#utility.yul\":27648:27651   */\n      dup2\n        /* \"#utility.yul\":27641:27651   */\n      swap1\n      pop\n        /* \"#utility.yul\":27119:27657   */\n      swap5\n      swap4\n      pop\n      pop\n      pop\n      pop\n      jump\t// out\n        /* \"#utility.yul\":27663:27805   */\n    tag_356:\n        /* \"#utility.yul\":27713:27722   */\n      0x00\n        /* \"#utility.yul\":27746:27799   */\n      tag_664\n        /* \"#utility.yul\":27764:27798   */\n      tag_665\n        /* \"#utility.yul\":27773:27797   */\n      tag_666\n        /* \"#utility.yul\":27791:27796   */\n      dup5\n        /* \"#utility.yul\":27773:27797   */\n      tag_303\n      jump\t// in\n    tag_666:\n        /* \"#utility.yul\":27764:27798   */\n      tag_294\n      jump\t// in\n    tag_665:\n        /* \"#utility.yul\":27746:27799   */\n      tag_281\n      jump\t// in\n    tag_664:\n        /* \"#utility.yul\":27733:27799   */\n      swap1\n      pop\n        /* \"#utility.yul\":27663:27805   */\n      swap2\n      swap1\n      pop\n      jump\t// out\n        /* \"#utility.yul\":27811:27942   */\n    tag_357:\n        /* \"#utility.yul\":27898:27935   */\n      tag_668\n        /* \"#utility.yul\":27929:27934   */\n      dup2\n        /* \"#utility.yul\":27898:27935   */\n      tag_356\n      jump\t// in\n    tag_668:\n        /* \"#utility.yul\":27893:27896   */\n      dup3\n        /* \"#utility.yul\":27886:27936   */\n      mstore\n        /* \"#utility.yul\":27811:27942   */\n      pop\n      pop\n      jump\t// out\n        /* \"#utility.yul\":27948:28390   */\n    tag_243:\n        /* \"#utility.yul\":28097:28101   */\n      0x00\n        /* \"#utility.yul\":28135:28137   */\n      0x60\n        /* \"#utility.yul\":28124:28133   */\n      dup3\n        /* \"#utility.yul\":28120:28138   */\n      add\n        /* \"#utility.yul\":28112:28138   */\n      swap1\n      pop\n        /* \"#utility.yul\":28148:28219   */\n      tag_670\n        /* \"#utility.yul\":28216:28217   */\n      0x00\n        /* \"#utility.yul\":28205:28214   */\n      dup4\n        /* \"#utility.yul\":28201:28218   */\n      add\n        /* \"#utility.yul\":28192:28198   */\n      dup7\n        /* \"#utility.yul\":28148:28219   */\n      tag_293\n      jump\t// in\n    tag_670:\n        /* \"#utility.yul\":28229:28301   */\n      tag_671\n        /* \"#utility.yul\":28297:28299   */\n      0x20\n        /* \"#utility.yul\":28286:28295   */\n      dup4\n        /* \"#utility.yul\":28282:28300   */\n      add\n        /* \"#utility.yul\":28273:28279   */\n      dup6\n        /* \"#utility.yul\":28229:28301   */\n      tag_357\n      jump\t// in\n    tag_671:\n        /* \"#utility.yul\":28311:28383   */\n      tag_672\n        /* \"#utility.yul\":28379:28381   */\n      0x40\n        /* \"#utility.yul\":28368:28377   */\n      dup4\n        /* \"#utility.yul\":28364:28382   */\n      add\n        /* \"#utility.yul\":28355:28361   */\n      dup5\n        /* \"#utility.yul\":28311:28383   */\n      tag_293\n      jump\t// in\n    tag_672:\n        /* \"#utility.yul\":27948:28390   */\n      swap5\n      swap4\n      pop\n      pop\n      pop\n      pop\n      jump\t// out\n        /* \"#utility.yul\":28396:28573   */\n    tag_358:\n        /* \"#utility.yul\":28536:28565   */\n      0x5552492073657420746f20746865206e756c6c20616464726573730000000000\n        /* \"#utility.yul\":28532:28533   */\n      0x00\n        /* \"#utility.yul\":28524:28530   */\n      dup3\n        /* \"#utility.yul\":28520:28534   */\n      add\n        /* \"#utility.yul\":28513:28566   */\n      mstore\n        /* \"#utility.yul\":28396:28573   */\n      pop\n      jump\t// out\n        /* \"#utility.yul\":28579:28945   */\n    tag_359:\n        /* \"#utility.yul\":28721:28724   */\n      0x00\n        /* \"#utility.yul\":28742:28809   */\n      tag_675\n        /* \"#utility.yul\":28806:28808   */\n      0x1b\n        /* \"#utility.yul\":28801:28804   */\n      dup4\n        /* \"#utility.yul\":28742:28809   */\n      tag_285\n      jump\t// in\n    tag_675:\n        /* \"#utility.yul\":28735:28809   */\n      swap2\n      pop\n        /* \"#utility.yul\":28818:28911   */\n      tag_676\n        /* \"#utility.yul\":28907:28910   */\n      dup3\n        /* \"#utility.yul\":28818:28911   */\n      tag_358\n      jump\t// in\n    tag_676:\n        /* \"#utility.yul\":28936:28938   */\n      0x20\n        /* \"#utility.yul\":28931:28934   */\n      dup3\n        /* \"#utility.yul\":28927:28939   */\n      add\n        /* \"#utility.yul\":28920:28939   */\n      swap1\n      pop\n        /* \"#utility.yul\":28579:28945   */\n      swap2\n      swap1\n      pop\n      jump\t// out\n        /* \"#utility.yul\":28951:29370   */\n    tag_248:\n        /* \"#utility.yul\":29117:29121   */\n      0x00\n        /* \"#utility.yul\":29155:29157   */\n      0x20\n        /* \"#utility.yul\":29144:29153   */\n      dup3\n        /* \"#utility.yul\":29140:29158   */\n      add\n        /* \"#utility.yul\":29132:29158   */\n      swap1\n      pop\n        /* \"#utility.yul\":29204:29213   */\n      dup2\n        /* \"#utility.yul\":29198:29202   */\n      dup2\n        /* \"#utility.yul\":29194:29214   */\n      sub\n        /* \"#utility.yul\":29190:29191   */\n      0x00\n        /* \"#utility.yul\":29179:29188   */\n      dup4\n        /* \"#utility.yul\":29175:29192   */\n      add\n        /* \"#utility.yul\":29168:29215   */\n      mstore\n        /* \"#utility.yul\":29232:29363   */\n      tag_678\n        /* \"#utility.yul\":29358:29362   */\n      dup2\n        /* \"#utility.yul\":29232:29363   */\n      tag_359\n      jump\t// in\n    tag_678:\n        /* \"#utility.yul\":29224:29363   */\n      swap1\n      pop\n        /* \"#utility.yul\":28951:29370   */\n      swap2\n      swap1\n      pop\n      jump\t// out\n        /* \"#utility.yul\":29376:29524   */\n    tag_360:\n        /* \"#utility.yul\":29478:29489   */\n      0x00\n        /* \"#utility.yul\":29515:29518   */\n      dup2\n        /* \"#utility.yul\":29500:29518   */\n      swap1\n      pop\n        /* \"#utility.yul\":29376:29524   */\n      swap3\n      swap2\n      pop\n      pop\n      jump\t// out\n        /* \"#utility.yul\":29530:29691   */\n    tag_361:\n        /* \"#utility.yul\":29670:29679   */\n      0x697066733a2f2f00000000000000000000000000000000000000000000000000\n        /* \"#utility.yul\":29666:29667   */\n      0x00\n        /* \"#utility.yul\":29658:29664   */\n      dup3\n        /* \"#utility.yul\":29654:29668   */\n      add\n        /* \"#utility.yul\":29647:29680   */\n      mstore\n        /* \"#utility.yul\":29530:29691   */\n      pop\n      jump\t// out\n        /* \"#utility.yul\":29701:30117   */\n    tag_362:\n        /* \"#utility.yul\":29861:29864   */\n      0x00\n        /* \"#utility.yul\":29886:29970   */\n      tag_682\n        /* \"#utility.yul\":29968:29969   */\n      0x07\n        /* \"#utility.yul\":29963:29966   */\n      dup4\n        /* \"#utility.yul\":29886:29970   */\n      tag_360\n      jump\t// in\n    tag_682:\n        /* \"#utility.yul\":29879:29970   */\n      swap2\n      pop\n        /* \"#utility.yul\":29983:30076   */\n      tag_683\n        /* \"#utility.yul\":30072:30075   */\n      dup3\n        /* \"#utility.yul\":29983:30076   */\n      tag_361\n      jump\t// in\n    tag_683:\n        /* \"#utility.yul\":30105:30106   */\n      0x07\n        /* \"#utility.yul\":30100:30103   */\n      dup3\n        /* \"#utility.yul\":30096:30107   */\n      add\n        /* \"#utility.yul\":30089:30107   */\n      swap1\n      pop\n        /* \"#utility.yul\":29701:30117   */\n      swap2\n      swap1\n      pop\n      jump\t// out\n        /* \"#utility.yul\":30127:30284   */\n    tag_363:\n        /* \"#utility.yul\":30176:30180   */\n      0x00\n        /* \"#utility.yul\":30203:30206   */\n      dup2\n        /* \"#utility.yul\":30195:30206   */\n      swap1\n      pop\n        /* \"#utility.yul\":30230:30233   */\n      dup2\n        /* \"#utility.yul\":30227:30228   */\n      0x00\n        /* \"#utility.yul\":30220:30234   */\n      mstore\n        /* \"#utility.yul\":30268:30272   */\n      0x20\n        /* \"#utility.yul\":30265:30266   */\n      0x00\n        /* \"#utility.yul\":30255:30273   */\n      keccak256\n        /* \"#utility.yul\":30247:30273   */\n      swap1\n      pop\n        /* \"#utility.yul\":30127:30284   */\n      swap2\n      swap1\n      pop\n      jump\t// out\n        /* \"#utility.yul\":30322:31276   */\n    tag_364:\n        /* \"#utility.yul\":30425:30428   */\n      0x00\n        /* \"#utility.yul\":30466:30471   */\n      dup2\n        /* \"#utility.yul\":30460:30472   */\n      sload\n        /* \"#utility.yul\":30499:30535   */\n      tag_686\n        /* \"#utility.yul\":30525:30534   */\n      dup2\n        /* \"#utility.yul\":30499:30535   */\n      tag_191\n      jump\t// in\n    tag_686:\n        /* \"#utility.yul\":30555:30644   */\n      tag_687\n        /* \"#utility.yul\":30637:30643   */\n      dup2\n        /* \"#utility.yul\":30632:30635   */\n      dup7\n        /* \"#utility.yul\":30555:30644   */\n      tag_360\n      jump\t// in\n    tag_687:\n        /* \"#utility.yul\":30548:30644   */\n      swap5\n      pop\n        /* \"#utility.yul\":30679:30680   */\n      0x01\n        /* \"#utility.yul\":30668:30677   */\n      dup3\n        /* \"#utility.yul\":30664:30681   */\n      and\n        /* \"#utility.yul\":30699:30700   */\n      0x00\n        /* \"#utility.yul\":30694:30876   */\n      dup2\n      eq\n      tag_689\n      jumpi\n        /* \"#utility.yul\":30894:30895   */\n      0x01\n        /* \"#utility.yul\":30889:31266   */\n      dup2\n      eq\n      tag_690\n      jumpi\n        /* \"#utility.yul\":30657:31266   */\n      jump(tag_688)\n        /* \"#utility.yul\":30694:30876   */\n    tag_689:\n        /* \"#utility.yul\":30786:30790   */\n      0xff\n        /* \"#utility.yul\":30782:30791   */\n      not\n        /* \"#utility.yul\":30771:30780   */\n      dup4\n        /* \"#utility.yul\":30767:30792   */\n      and\n        /* \"#utility.yul\":30762:30765   */\n      dup7\n        /* \"#utility.yul\":30755:30793   */\n      mstore\n        /* \"#utility.yul\":30852:30858   */\n      dup2\n        /* \"#utility.yul\":30845:30859   */\n      iszero\n        /* \"#utility.yul\":30838:30860   */\n      iszero\n        /* \"#utility.yul\":30830:30836   */\n      dup3\n        /* \"#utility.yul\":30826:30861   */\n      mul\n        /* \"#utility.yul\":30821:30824   */\n      dup7\n        /* \"#utility.yul\":30817:30862   */\n      add\n        /* \"#utility.yul\":30810:30862   */\n      swap4\n      pop\n        /* \"#utility.yul\":30694:30876   */\n      jump(tag_688)\n        /* \"#utility.yul\":30889:31266   */\n    tag_690:\n        /* \"#utility.yul\":30964:31002   */\n      tag_691\n        /* \"#utility.yul\":30996:31001   */\n      dup6\n        /* \"#utility.yul\":30964:31002   */\n      tag_363\n      jump\t// in\n    tag_691:\n        /* \"#utility.yul\":31028:31029   */\n      0x00\n        /* \"#utility.yul\":31046:31212   */\n    tag_692:\n        /* \"#utility.yul\":31060:31066   */\n      dup4\n        /* \"#utility.yul\":31057:31058   */\n      dup2\n        /* \"#utility.yul\":31054:31067   */\n      lt\n        /* \"#utility.yul\":31046:31212   */\n      iszero\n      tag_694\n      jumpi\n        /* \"#utility.yul\":31138:31145   */\n      dup2\n        /* \"#utility.yul\":31132:31146   */\n      sload\n        /* \"#utility.yul\":31128:31129   */\n      dup2\n        /* \"#utility.yul\":31123:31126   */\n      dup10\n        /* \"#utility.yul\":31119:31130   */\n      add\n        /* \"#utility.yul\":31112:31147   */\n      mstore\n        /* \"#utility.yul\":31192:31193   */\n      0x01\n        /* \"#utility.yul\":31183:31190   */\n      dup3\n        /* \"#utility.yul\":31179:31194   */\n      add\n        /* \"#utility.yul\":31168:31194   */\n      swap2\n      pop\n        /* \"#utility.yul\":31082:31086   */\n      0x20\n        /* \"#utility.yul\":31079:31080   */\n      dup2\n        /* \"#utility.yul\":31075:31087   */\n      add\n        /* \"#utility.yul\":31070:31087   */\n      swap1\n      pop\n        /* \"#utility.yul\":31046:31212   */\n      jump(tag_692)\n    tag_694:\n        /* \"#utility.yul\":31245:31251   */\n      dup4\n        /* \"#utility.yul\":31240:31243   */\n      dup9\n        /* \"#utility.yul\":31236:31252   */\n      add\n        /* \"#utility.yul\":31229:31252   */\n      swap6\n      pop\n        /* \"#utility.yul\":30896:31266   */\n      pop\n      pop\n        /* \"#utility.yul\":30657:31266   */\n    tag_688:\n      pop\n        /* \"#utility.yul\":30429:31276   */\n      pop\n      pop\n        /* \"#utility.yul\":30322:31276   */\n      swap3\n      swap2\n      pop\n      pop\n      jump\t// out\n        /* \"#utility.yul\":31286:31837   */\n    tag_250:\n        /* \"#utility.yul\":31516:31519   */\n      0x00\n        /* \"#utility.yul\":31542:31690   */\n      tag_696\n        /* \"#utility.yul\":31686:31689   */\n      dup3\n        /* \"#utility.yul\":31542:31690   */\n      tag_362\n      jump\t// in\n    tag_696:\n        /* \"#utility.yul\":31535:31690   */\n      swap2\n      pop\n        /* \"#utility.yul\":31711:31803   */\n      tag_697\n        /* \"#utility.yul\":31799:31802   */\n      dup3\n        /* \"#utility.yul\":31790:31796   */\n      dup5\n        /* \"#utility.yul\":31711:31803   */\n      tag_364\n      jump\t// in\n    tag_697:\n        /* \"#utility.yul\":31704:31803   */\n      swap2\n      pop\n        /* \"#utility.yul\":31824:31827   */\n      dup2\n        /* \"#utility.yul\":31817:31827   */\n      swap1\n      pop\n        /* \"#utility.yul\":31286:31837   */\n      swap3\n      swap2\n      pop\n      pop\n      jump\t// out\n        /* \"#utility.yul\":31847:32023   */\n    tag_365:\n        /* \"#utility.yul\":31991:32011   */\n      0x416d6f756e74206d757374206265203e20300000000000000000000000000000\n        /* \"#utility.yul\":31987:31988   */\n      0x00\n        /* \"#utility.yul\":31979:31985   */\n      dup3\n        /* \"#utility.yul\":31975:31989   */\n      add\n        /* \"#utility.yul\":31968:32012   */\n      mstore\n        /* \"#utility.yul\":31847:32023   */\n      pop\n      jump\t// out\n        /* \"#utility.yul\":32033:32415   */\n    tag_366:\n        /* \"#utility.yul\":32175:32178   */\n      0x00\n        /* \"#utility.yul\":32200:32267   */\n      tag_700\n        /* \"#utility.yul\":32264:32266   */\n      0x12\n        /* \"#utility.yul\":32259:32262   */\n      dup4\n        /* \"#utility.yul\":32200:32267   */\n      tag_285\n      jump\t// in\n    tag_700:\n        /* \"#utility.yul\":32193:32267   */\n      swap2\n      pop\n        /* \"#utility.yul\":32280:32373   */\n      tag_701\n        /* \"#utility.yul\":32369:32372   */\n      dup3\n        /* \"#utility.yul\":32280:32373   */\n      tag_365\n      jump\t// in\n    tag_701:\n        /* \"#utility.yul\":32402:32404   */\n      0x20\n        /* \"#utility.yul\":32397:32400   */\n      dup3\n        /* \"#utility.yul\":32393:32405   */\n      add\n        /* \"#utility.yul\":32386:32405   */\n      swap1\n      pop\n        /* \"#utility.yul\":32033:32415   */\n      swap2\n      swap1\n      pop\n      jump\t// out\n        /* \"#utility.yul\":32425:32860   */\n    tag_268:\n        /* \"#utility.yul\":32591:32595   */\n      0x00\n        /* \"#utility.yul\":32633:32635   */\n      0x20\n        /* \"#utility.yul\":32622:32631   */\n      dup3\n        /* \"#utility.yul\":32618:32636   */\n      add\n        /* \"#utility.yul\":32610:32636   */\n      swap1\n      pop\n        /* \"#utility.yul\":32686:32695   */\n      dup2\n        /* \"#utility.yul\":32680:32684   */\n      dup2\n        /* \"#utility.yul\":32676:32696   */\n      sub\n        /* \"#utility.yul\":32672:32673   */\n      0x00\n        /* \"#utility.yul\":32661:32670   */\n      dup4\n        /* \"#utility.yul\":32657:32674   */\n      add\n        /* \"#utility.yul\":32650:32697   */\n      mstore\n        /* \"#utility.yul\":32718:32849   */\n      tag_703\n        /* \"#utility.yul\":32844:32848   */\n      dup2\n        /* \"#utility.yul\":32718:32849   */\n      tag_366\n      jump\t// in\n    tag_703:\n        /* \"#utility.yul\":32710:32849   */\n      swap1\n      pop\n        /* \"#utility.yul\":32425:32860   */\n      swap2\n      swap1\n      pop\n      jump\t// out\n        /* \"#utility.yul\":32870:32971   */\n    tag_367:\n        /* \"#utility.yul\":32907:32913   */\n      0x00\n        /* \"#utility.yul\":32958:32960   */\n      0x20\n        /* \"#utility.yul\":32953:32955   */\n      0x1f\n        /* \"#utility.yul\":32946:32951   */\n      dup4\n        /* \"#utility.yul\":32942:32956   */\n      add\n        /* \"#utility.yul\":32938:32961   */\n      div\n        /* \"#utility.yul\":32928:32961   */\n      swap1\n      pop\n        /* \"#utility.yul\":32870:32971   */\n      swap2\n      swap1\n      pop\n      jump\t// out\n        /* \"#utility.yul\":32981:33100   */\n    tag_368:\n        /* \"#utility.yul\":33025:33033   */\n      0x00\n        /* \"#utility.yul\":33083:33088   */\n      dup3\n        /* \"#utility.yul\":33077:33081   */\n      dup3\n        /* \"#utility.yul\":33073:33089   */\n      shl\n        /* \"#utility.yul\":33048:33089   */\n      swap1\n      pop\n        /* \"#utility.yul\":32981:33100   */\n      swap3\n      swap2\n      pop\n      pop\n      jump\t// out\n        /* \"#utility.yul\":33110:33527   */\n    tag_369:\n        /* \"#utility.yul\":33179:33185   */\n      0x00\n        /* \"#utility.yul\":33233:33234   */\n      0x08\n        /* \"#utility.yul\":33221:33231   */\n      dup4\n        /* \"#utility.yul\":33217:33235   */\n      mul\n        /* \"#utility.yul\":33260:33357   */\n      tag_707\n        /* \"#utility.yul\":33290:33356   */\n      0xffffffffffffffffffffffffffffffffffffffffffffffffffffffffffffffff\n        /* \"#utility.yul\":33279:33288   */\n      dup3\n        /* \"#utility.yul\":33260:33357   */\n      tag_368\n      jump\t// in\n    tag_707:\n        /* \"#utility.yul\":33382:33421   */\n      tag_708\n        /* \"#utility.yul\":33412:33420   */\n      dup7\n        /* \"#utility.yul\":33401:33410   */\n      dup4\n        /* \"#utility.yul\":33382:33421   */\n      tag_368\n      jump\t// in\n    tag_708:\n        /* \"#utility.yul\":33370:33421   */\n      swap6\n      pop\n        /* \"#utility.yul\":33458:33462   */\n      dup1\n        /* \"#utility.yul\":33454:33463   */\n      not\n        /* \"#utility.yul\":33447:33452   */\n      dup5\n        /* \"#utility.yul\":33443:33464   */\n      and\n        /* \"#utility.yul\":33434:33464   */\n      swap4\n      pop\n        /* \"#utility.yul\":33511:33515   */\n      dup1\n        /* \"#utility.yul\":33501:33509   */\n      dup7\n        /* \"#utility.yul\":33497:33516   */\n      and\n        /* \"#utility.yul\":33490:33495   */\n      dup5\n        /* \"#utility.yul\":33487:33517   */\n      or\n        /* \"#utility.yul\":33477:33517   */\n      swap3\n      pop\n        /* \"#utility.yul\":33186:33527   */\n      pop\n      pop\n        /* \"#utility.yul\":33110:33527   */\n      swap4\n      swap3\n      pop\n      pop\n      pop\n      jump\t// out\n        /* \"#utility.yul\":33537:33687   */\n    tag_370:\n        /* \"#utility.yul\":33587:33596   */\n      0x00\n        /* \"#utility.yul\":33624:33677   */\n      tag_710\n        /* \"#utility.yul\":33642:33676   */\n      tag_711\n        /* \"#utility.yul\":33651:33675   */\n      tag_712\n        /* \"#utility.yul\":33669:33674   */\n      dup5\n        /* \"#utility.yul\":33651:33675   */\n      tag_281\n      jump\t// in\n    tag_712:\n        /* \"#utility.yul\":33642:33676   */\n      tag_294\n      jump\t// in\n    tag_711:\n        /* \"#utility.yul\":33624:33677   */\n      tag_281\n      jump\t// in\n    tag_710:\n        /* \"#utility.yul\":33611:33677   */\n      swap1\n      pop\n        /* \"#utility.yul\":33537:33687   */\n      swap2\n      swap1\n      pop\n      jump\t// out\n        /* \"#utility.yul\":33697:33780   */\n    tag_371:\n        /* \"#utility.yul\":33740:33743   */\n      0x00\n        /* \"#utility.yul\":33765:33770   */\n      dup2\n        /* \"#utility.yul\":33758:33770   */\n      swap1\n      pop\n        /* \"#utility.yul\":33697:33780   */\n      swap2\n      swap1\n      pop\n      jump\t// out\n        /* \"#utility.yul\":33790:34071   */\n    tag_372:\n        /* \"#utility.yul\":33904:33943   */\n      tag_715\n        /* \"#utility.yul\":33935:33942   */\n      dup4\n        /* \"#utility.yul\":33904:33943   */\n      tag_370\n      jump\t// in\n    tag_715:\n        /* \"#utility.yul\":33969:34060   */\n      tag_716\n        /* \"#utility.yul\":34018:34059   */\n      tag_717\n        /* \"#utility.yul\":34042:34058   */\n      dup3\n        /* \"#utility.yul\":34018:34059   */\n      tag_371\n      jump\t// in\n    tag_717:\n        /* \"#utility.yul\":34010:34016   */\n      dup5\n        /* \"#utility.yul\":34003:34007   */\n      dup5\n        /* \"#utility.yul\":33997:34008   */\n      sload\n        /* \"#utility.yul\":33969:34060   */\n      tag_369\n      jump\t// in\n    tag_716:\n        /* \"#utility.yul\":33963:33967   */\n      dup3\n        /* \"#utility.yul\":33956:34061   */\n      sstore\n        /* \"#utility.yul\":33866:34071   */\n      pop\n        /* \"#utility.yul\":33790:34071   */\n      pop\n      pop\n      pop\n      jump\t// out\n        /* \"#utility.yul\":34081:34162   */\n    tag_373:\n        /* \"#utility.yul\":34126:34129   */\n      0x00\n        /* \"#utility.yul\":34081:34162   */\n      swap1\n      jump\t// out\n        /* \"#utility.yul\":34172:34373   */\n    tag_374:\n        /* \"#utility.yul\":34253:34285   */\n      tag_720\n      tag_373\n      jump\t// in\n    tag_720:\n        /* \"#utility.yul\":34298:34363   */\n      tag_721\n        /* \"#utility.yul\":34356:34362   */\n      dup2\n        /* \"#utility.yul\":34348:34354   */\n      dup5\n        /* \"#utility.yul\":34342:34346   */\n      dup5\n        /* \"#utility.yul\":34298:34363   */\n      tag_372\n      jump\t// in\n    tag_721:\n        /* \"#utility.yul\":34225:34373   */\n      pop\n        /* \"#utility.yul\":34172:34373   */\n      pop\n      pop\n      jump\t// out\n        /* \"#utility.yul\":34383:34589   */\n    tag_375:\n        /* \"#utility.yul\":34447:34579   */\n    tag_723:\n        /* \"#utility.yul\":34464:34467   */\n      dup2\n        /* \"#utility.yul\":34457:34462   */\n      dup2\n        /* \"#utility.yul\":34454:34468   */\n      lt\n        /* \"#utility.yul\":34447:34579   */\n      iszero\n      tag_725\n      jumpi\n        /* \"#utility.yul\":34526:34565   */\n      tag_726\n        /* \"#utility.yul\":34563:34564   */\n      0x00\n        /* \"#utility.yul\":34556:34561   */\n      dup3\n        /* \"#utility.yul\":34526:34565   */\n      tag_374\n      jump\t// in\n    tag_726:\n        /* \"#utility.yul\":34491:34492   */\n      0x01\n        /* \"#utility.yul\":34484:34489   */\n      dup2\n        /* \"#utility.yul\":34480:34493   */\n      add\n        /* \"#utility.yul\":34471:34493   */\n      swap1\n      pop\n        /* \"#utility.yul\":34447:34579   */\n      jump(tag_723)\n    tag_725:\n        /* \"#utility.yul\":34383:34589   */\n      pop\n      pop\n      jump\t// out\n        /* \"#utility.yul\":34599:35174   */\n    tag_376:\n        /* \"#utility.yul\":34704:34706   */\n      0x1f\n        /* \"#utility.yul\":34699:34702   */\n      dup3\n        /* \"#utility.yul\":34696:34707   */\n      gt\n        /* \"#utility.yul\":34693:35163   */\n      iszero\n      tag_728\n      jumpi\n        /* \"#utility.yul\":34742:34780   */\n      tag_729\n        /* \"#utility.yul\":34774:34779   */\n      dup2\n        /* \"#utility.yul\":34742:34780   */\n      tag_363\n      jump\t// in\n    tag_729:\n        /* \"#utility.yul\":34830:34859   */\n      tag_730\n        /* \"#utility.yul\":34848:34858   */\n      dup5\n        /* \"#utility.yul\":34830:34859   */\n      tag_367\n      jump\t// in\n    tag_730:\n        /* \"#utility.yul\":34820:34828   */\n      dup2\n        /* \"#utility.yul\":34816:34860   */\n      add\n        /* \"#utility.yul\":35021:35023   */\n      0x20\n        /* \"#utility.yul\":35009:35019   */\n      dup6\n        /* \"#utility.yul\":35006:35024   */\n      lt\n        /* \"#utility.yul\":35003:35052   */\n      iszero\n      tag_731\n      jumpi\n        /* \"#utility.yul\":35042:35050   */\n      dup2\n        /* \"#utility.yul\":35027:35050   */\n      swap1\n      pop\n        /* \"#utility.yul\":35003:35052   */\n    tag_731:\n        /* \"#utility.yul\":35069:35149   */\n      tag_732\n        /* \"#utility.yul\":35125:35147   */\n      tag_733\n        /* \"#utility.yul\":35143:35146   */\n      dup6\n        /* \"#utility.yul\":35125:35147   */\n      tag_367\n      jump\t// in\n    tag_733:\n        /* \"#utility.yul\":35115:35123   */\n      dup4\n        /* \"#utility.yul\":35111:35148   */\n      add\n        /* \"#utility.yul\":35098:35109   */\n      dup3\n        /* \"#utility.yul\":35069:35149   */\n      tag_375\n      jump\t// in\n    tag_732:\n        /* \"#utility.yul\":34708:35163   */\n      pop\n      pop\n        /* \"#utility.yul\":34693:35163   */\n    tag_728:\n        /* \"#utility.yul\":34599:35174   */\n      pop\n      pop\n      pop\n      jump\t// out\n        /* \"#utility.yul\":35184:35313   */\n    tag_377:\n        /* \"#utility.yul\":35238:35246   */\n      0x00\n        /* \"#utility.yul\":35296:35301   */\n      dup3\n        /* \"#utility.yul\":35290:35294   */\n      dup3\n        /* \"#utility.yul\":35286:35302   */\n      shr\n        /* \"#utility.yul\":35261:35302   */\n      swap1\n      pop\n        /* \"#utility.yul\":35184:35313   */\n      swap3\n      swap2\n      pop\n      pop\n      jump\t// out\n        /* \"#utility.yul\":35323:35504   */\n    tag_378:\n        /* \"#utility.yul\":35367:35373   */\n      0x00\n        /* \"#utility.yul\":35404:35455   */\n      tag_736\n        /* \"#utility.yul\":35452:35453   */\n      0x00\n        /* \"#utility.yul\":35448:35454   */\n      not\n        /* \"#utility.yul\":35440:35445   */\n      dup5\n        /* \"#utility.yul\":35437:35438   */\n      0x08\n        /* \"#utility.yul\":35433:35446   */\n      mul\n        /* \"#utility.yul\":35404:35455   */\n      tag_377\n      jump\t// in\n    tag_736:\n        /* \"#utility.yul\":35400:35456   */\n      not\n        /* \"#utility.yul\":35489:35493   */\n      dup1\n        /* \"#utility.yul\":35483:35487   */\n      dup4\n        /* \"#utility.yul\":35479:35494   */\n      and\n        /* \"#utility.yul\":35469:35494   */\n      swap2\n      pop\n        /* \"#utility.yul\":35374:35504   */\n      pop\n        /* \"#utility.yul\":35323:35504   */\n      swap3\n      swap2\n      pop\n      pop\n      jump\t// out\n        /* \"#utility.yul\":35513:35828   */\n    tag_379:\n        /* \"#utility.yul\":35589:35593   */\n      0x00\n        /* \"#utility.yul\":35747:35776   */\n      tag_738\n        /* \"#utility.yul\":35772:35775   */\n      dup4\n        /* \"#utility.yul\":35766:35770   */\n      dup4\n        /* \"#utility.yul\":35747:35776   */\n      tag_378\n      jump\t// in\n    tag_738:\n        /* \"#utility.yul\":35739:35776   */\n      swap2\n      pop\n        /* \"#utility.yul\":35813:35816   */\n      dup3\n        /* \"#utility.yul\":35810:35811   */\n      0x02\n        /* \"#utility.yul\":35806:35817   */\n      mul\n        /* \"#utility.yul\":35800:35804   */\n      dup3\n        /* \"#utility.yul\":35797:35818   */\n      or\n        /* \"#utility.yul\":35789:35818   */\n      swap1\n      pop\n        /* \"#utility.yul\":35513:35828   */\n      swap3\n      swap2\n      pop\n      pop\n      jump\t// out\n        /* \"#utility.yul\":35837:37360   */\n    tag_277:\n        /* \"#utility.yul\":35958:35995   */\n      tag_740\n        /* \"#utility.yul\":35991:35994   */\n      dup3\n        /* \"#utility.yul\":35958:35995   */\n      tag_284\n      jump\t// in\n    tag_740:\n        /* \"#utility.yul\":36068:36086   */\n      0xffffffffffffffff\n        /* \"#utility.yul\":36060:36066   */\n      dup2\n        /* \"#utility.yul\":36057:36087   */\n      gt\n        /* \"#utility.yul\":36054:36110   */\n      iszero\n      tag_741\n      jumpi\n        /* \"#utility.yul\":36090:36108   */\n      tag_742\n      tag_308\n      jump\t// in\n    tag_742:\n        /* \"#utility.yul\":36054:36110   */\n    tag_741:\n        /* \"#utility.yul\":36138:36176   */\n      tag_743\n        /* \"#utility.yul\":36170:36174   */\n      dup3\n        /* \"#utility.yul\":36164:36175   */\n      sload\n        /* \"#utility.yul\":36138:36176   */\n      tag_191\n      jump\t// in\n    tag_743:\n        /* \"#utility.yul\":36231:36298   */\n      tag_744\n        /* \"#utility.yul\":36291:36297   */\n      dup3\n        /* \"#utility.yul\":36283:36289   */\n      dup3\n        /* \"#utility.yul\":36277:36281   */\n      dup6\n        /* \"#utility.yul\":36231:36298   */\n      tag_376\n      jump\t// in\n    tag_744:\n        /* \"#utility.yul\":36329:36330   */\n      0x00\n        /* \"#utility.yul\":36357:36361   */\n      0x20\n        /* \"#utility.yul\":36344:36361   */\n      swap1\n      pop\n        /* \"#utility.yul\":36393:36395   */\n      0x1f\n        /* \"#utility.yul\":36385:36391   */\n      dup4\n        /* \"#utility.yul\":36382:36396   */\n      gt\n        /* \"#utility.yul\":36414:36415   */\n      0x01\n        /* \"#utility.yul\":36409:37083   */\n      dup2\n      eq\n      tag_746\n      jumpi\n        /* \"#utility.yul\":37135:37136   */\n      0x00\n        /* \"#utility.yul\":37156:37162   */\n      dup5\n        /* \"#utility.yul\":37153:37238   */\n      iszero\n      tag_747\n      jumpi\n        /* \"#utility.yul\":37209:37218   */\n      dup3\n        /* \"#utility.yul\":37204:37207   */\n      dup8\n        /* \"#utility.yul\":37200:37219   */\n      add\n        /* \"#utility.yul\":37194:37220   */\n      mload\n        /* \"#utility.yul\":37185:37220   */\n      swap1\n      pop\n        /* \"#utility.yul\":37153:37238   */\n    tag_747:\n        /* \"#utility.yul\":37268:37335   */\n      tag_748\n        /* \"#utility.yul\":37328:37334   */\n      dup6\n        /* \"#utility.yul\":37321:37326   */\n      dup3\n        /* \"#utility.yul\":37268:37335   */\n      tag_379\n      jump\t// in\n    tag_748:\n        /* \"#utility.yul\":37262:37266   */\n      dup7\n        /* \"#utility.yul\":37255:37336   */\n      sstore\n        /* \"#utility.yul\":37104:37350   */\n      pop\n        /* \"#utility.yul\":36375:37350   */\n      jump(tag_745)\n        /* \"#utility.yul\":36409:37083   */\n    tag_746:\n        /* \"#utility.yul\":36465:36469   */\n      0x1f\n        /* \"#utility.yul\":36461:36470   */\n      not\n        /* \"#utility.yul\":36453:36459   */\n      dup5\n        /* \"#utility.yul\":36449:36471   */\n      and\n        /* \"#utility.yul\":36503:36540   */\n      tag_749\n        /* \"#utility.yul\":36535:36539   */\n      dup7\n        /* \"#utility.yul\":36503:36540   */\n      tag_363\n      jump\t// in\n    tag_749:\n        /* \"#utility.yul\":36566:36567   */\n      0x00\n        /* \"#utility.yul\":36584:36808   */\n    tag_750:\n        /* \"#utility.yul\":36598:36605   */\n      dup3\n        /* \"#utility.yul\":36595:36596   */\n      dup2\n        /* \"#utility.yul\":36592:36606   */\n      lt\n        /* \"#utility.yul\":36584:36808   */\n      iszero\n      tag_752\n      jumpi\n        /* \"#utility.yul\":36681:36690   */\n      dup5\n        /* \"#utility.yul\":36676:36679   */\n      dup10\n        /* \"#utility.yul\":36672:36691   */\n      add\n        /* \"#utility.yul\":36666:36692   */\n      mload\n        /* \"#utility.yul\":36658:36664   */\n      dup3\n        /* \"#utility.yul\":36651:36693   */\n      sstore\n        /* \"#utility.yul\":36736:36737   */\n      0x01\n        /* \"#utility.yul\":36728:36734   */\n      dup3\n        /* \"#utility.yul\":36724:36738   */\n      add\n        /* \"#utility.yul\":36714:36738   */\n      swap2\n      pop\n        /* \"#utility.yul\":36787:36789   */\n      0x20\n        /* \"#utility.yul\":36776:36785   */\n      dup6\n        /* \"#utility.yul\":36772:36790   */\n      add\n        /* \"#utility.yul\":36759:36790   */\n      swap5\n      pop\n        /* \"#utility.yul\":36621:36625   */\n      0x20\n        /* \"#utility.yul\":36618:36619   */\n      dup2\n        /* \"#utility.yul\":36614:36626   */\n      add\n        /* \"#utility.yul\":36609:36626   */\n      swap1\n      pop\n        /* \"#utility.yul\":36584:36808   */\n      jump(tag_750)\n    tag_752:\n        /* \"#utility.yul\":36840:36846   */\n      dup7\n        /* \"#utility.yul\":36831:36838   */\n      dup4\n        /* \"#utility.yul\":36828:36847   */\n      lt\n        /* \"#utility.yul\":36825:37016   */\n      iszero\n      tag_753\n      jumpi\n        /* \"#utility.yul\":36902:36911   */\n      dup5\n        /* \"#utility.yul\":36897:36900   */\n      dup10\n        /* \"#utility.yul\":36893:36912   */\n      add\n        /* \"#utility.yul\":36887:36913   */\n      mload\n        /* \"#utility.yul\":36949:36997   */\n      tag_754\n        /* \"#utility.yul\":36991:36995   */\n      0x1f\n        /* \"#utility.yul\":36983:36989   */\n      dup10\n        /* \"#utility.yul\":36979:36996   */\n      and\n        /* \"#utility.yul\":36968:36977   */\n      dup3\n        /* \"#utility.yul\":36949:36997   */\n      tag_378\n      jump\t// in\n    tag_754:\n        /* \"#utility.yul\":36941:36947   */\n      dup4\n        /* \"#utility.yul\":36934:36998   */\n      sstore\n        /* \"#utility.yul\":36848:37016   */\n      pop\n        /* \"#utility.yul\":36825:37016   */\n    tag_753:\n        /* \"#utility.yul\":37066:37067   */\n      0x01\n        /* \"#utility.yul\":37062:37063   */\n      0x02\n        /* \"#utility.yul\":37054:37060   */\n      dup9\n        /* \"#utility.yul\":37050:37064   */\n      mul\n        /* \"#utility.yul\":37046:37068   */\n      add\n        /* \"#utility.yul\":37040:37044   */\n      dup9\n        /* \"#utility.yul\":37033:37069   */\n      sstore\n        /* \"#utility.yul\":36416:37083   */\n      pop\n      pop\n      pop\n        /* \"#utility.yul\":36375:37350   */\n    tag_745:\n      pop\n        /* \"#utility.yul\":35929:37360   */\n      pop\n      pop\n      pop\n        /* \"#utility.yul\":35837:37360   */\n      pop\n      pop\n      jump\t// out\n\n    auxdata: 0xa2646970667358221220632cc9eb46e97a0fe0301fe78c06cdf952d1460a82a843804cab84d49ae23a0664736f6c63430008160033\n}\n",
				"bytecode": {
					"linkReferences": {},
					"object": "60e060405234801562000010575f80fd5b50604051620034143803806200341483398181016040528101906200003691906200023d565b5f73ffffffffffffffffffffffffffffffffffffffff168273ffffffffffffffffffffffffffffffffffffffff1603620000a7576040517f08c379a00000000000000000000000000000000000000000000000000000000081526004016200009e90620002e0565b60405180910390fd5b611388811115620000ef576040517f08c379a0000000000000000000000000000000000000000000000000000000008152600401620000e6906200034e565b60405180910390fd5b5f80819055503373ffffffffffffffffffffffffffffffffffffffff1660808173ffffffffffffffffffffffffffffffffffffffff16815250508173ffffffffffffffffffffffffffffffffffffffff1660a08173ffffffffffffffffffffffffffffffffffffffff16815250508173ffffffffffffffffffffffffffffffffffffffff1660c08173ffffffffffffffffffffffffffffffffffffffff16815250508060018190555050506200036e565b5f80fd5b5f73ffffffffffffffffffffffffffffffffffffffff82169050919050565b5f620001cf82620001a4565b9050919050565b620001e181620001c3565b8114620001ec575f80fd5b50565b5f81519050620001ff81620001d6565b92915050565b5f819050919050565b620002198162000205565b811462000224575f80fd5b50565b5f8151905062000237816200020e565b92915050565b5f8060408385031215620002565762000255620001a0565b5b5f6200026585828601620001ef565b9250506020620002788582860162000227565b9150509250929050565b5f82825260208201905092915050565b7f496e76616c6964204e46542061646472657373000000000000000000000000005f82015250565b5f620002c860138362000282565b9150620002d58262000292565b602082019050919050565b5f6020820190508181035f830152620002f981620002ba565b9050919050565b7f436f6d6d697373696f6e20746f6f2068696768000000000000000000000000005f82015250565b5f6200033660138362000282565b9150620003438262000300565b602082019050919050565b5f6020820190508181035f830152620003678162000328565b9050919050565b60805160a05160c051613027620003ed5f395f8181610e30015261117201525f81816106db015281816107cd0152818161088701528181610a6b01528181611259015281816113630152818161141c015281816118a40152611a3a01525f81816109a601528181610b5d0152818161105c015261119c01526130275ff3fe60806040526004361061012d575f3560e01c8063ab473460116100aa578063d56d229d1161006e578063d56d229d146103ce578063d8cba251146103f8578063de74e57b14610434578063e6282c6e14610473578063f3f437031461049b578063f3fef3a3146104d757610134565b8063ab473460146102da578063ae97dde814610302578063c87b56dd1461032c578063cc85a55b14610368578063d082e381146103a457610134565b8063404a9ab8116100f1578063404a9ab8146101f857806351e61b251461022057806377d3550b1461024a5780638da5cb5b146102745780639b83cddc1461029e57610134565b8063169d5a7d1461013857806324600fc31461015457806324c8c6981461016a5780632f745c5914610194578063305a67a8146101d057610134565b3661013457005b5f80fd5b610152600480360381019061014d9190611e7b565b6104ff565b005b34801561015f575f80fd5b50610168610b5b565b005b348015610175575f80fd5b5061017e610da1565b60405161018b9190611f30565b60405180910390f35b34801561019f575f80fd5b506101ba60048036038101906101b59190611faa565b610e2d565b6040516101c79190611ff7565b60405180910390f35b3480156101db575f80fd5b506101f660048036038101906101f19190611e7b565b610ed0565b005b348015610203575f80fd5b5061021e60048036038101906102199190611e7b565b61105a565b005b34801561022b575f80fd5b50610234611170565b604051610241919061206b565b60405180910390f35b348015610255575f80fd5b5061025e611194565b60405161026b9190611ff7565b60405180910390f35b34801561027f575f80fd5b5061028861119a565b60405161029591906120a4565b60405180910390f35b3480156102a9575f80fd5b506102c460048036038101906102bf9190611e7b565b6111be565b6040516102d191906120d7565b60405180910390f35b3480156102e5575f80fd5b5061030060048036038101906102fb9190612261565b6111fd565b005b34801561030d575f80fd5b506103166117e5565b6040516103239190611ff7565b60405180910390f35b348015610337575f80fd5b50610352600480360381019061034d9190611e7b565b6117eb565b60405161035f9190611f30565b60405180910390f35b348015610373575f80fd5b5061038e60048036038101906103899190611e7b565b611883565b60405161039b9190611ff7565b60405180910390f35b3480156103af575f80fd5b506103b861189d565b6040516103c59190611ff7565b60405180910390f35b3480156103d9575f80fd5b506103e26118a2565b6040516103ef91906122db565b60405180910390f35b348015610403575f80fd5b5061041e600480360381019061041991906122f4565b6118c6565b60405161042b9190612447565b60405180910390f35b34801561043f575f80fd5b5061045a60048036038101906104559190611e7b565b6119e1565b60405161046a9493929190612476565b60405180910390f35b34801561047e575f80fd5b5061049960048036038101906104949190611e7b565b611a38565b005b3480156104a6575f80fd5b506104c160048036038101906104bc91906122f4565b611c13565b6040516104ce9190611ff7565b60405180910390f35b3480156104e2575f80fd5b506104fd60048036038101906104f891906124e3565b611c28565b005b5f60035f8381526020019081526020015f206040518060800160405290815f82015f9054906101000a900473ffffffffffffffffffffffffffffffffffffffff1673ffffffffffffffffffffffffffffffffffffffff1673ffffffffffffffffffffffffffffffffffffffff1681526020016001820154815260200160028201548152602001600382015f9054906101000a900460ff161515151581525050905080606001516105db576040517f80cb55e200000000000000000000000000000000000000000000000000000000815260040160405180910390fd5b806040015134101561062a578060400151346040517fb99e2ab7000000000000000000000000000000000000000000000000000000008152600401610621929190612521565b60405180910390fd5b805f015173ffffffffffffffffffffffffffffffffffffffff163373ffffffffffffffffffffffffffffffffffffffff1603610692576040517f50eadcb100000000000000000000000000000000000000000000000000000000815260040160405180910390fd5b5f612710600154346106a49190612575565b6106ae91906125e3565b90505f81346106bd9190612613565b9050825f015173ffffffffffffffffffffffffffffffffffffffff167f000000000000000000000000000000000000000000000000000000000000000073ffffffffffffffffffffffffffffffffffffffff16636352211e85602001516040518263ffffffff1660e01b81526004016107369190611ff7565b602060405180830381865afa158015610751573d5f803e3d5ffd5b505050506040513d601f19601f82011682018060405250810190610775919061265a565b73ffffffffffffffffffffffffffffffffffffffff16146107cb576040517f08c379a00000000000000000000000000000000000000000000000000000000081526004016107c2906126cf565b60405180910390fd5b7f000000000000000000000000000000000000000000000000000000000000000073ffffffffffffffffffffffffffffffffffffffff1663e985e9c5845f0151306040518363ffffffff1660e01b81526004016108299291906126ed565b602060405180830381865afa158015610844573d5f803e3d5ffd5b505050506040513d601f19601f82011682018060405250810190610868919061273e565b8061093957503073ffffffffffffffffffffffffffffffffffffffff167f000000000000000000000000000000000000000000000000000000000000000073ffffffffffffffffffffffffffffffffffffffff1663081812fc85602001516040518263ffffffff1660e01b81526004016108e29190611ff7565b602060405180830381865afa1580156108fd573d5f803e3d5ffd5b505050506040513d601f19601f82011682018060405250810190610921919061265a565b73ffffffffffffffffffffffffffffffffffffffff16145b610978576040517f08c379a000000000000000000000000000000000000000000000000000000000815260040161096f906127b3565b60405180910390fd5b5f83606001901515908115158152505060045f846020015181526020019081526020015f205f90558160055f7f000000000000000000000000000000000000000000000000000000000000000073ffffffffffffffffffffffffffffffffffffffff1673ffffffffffffffffffffffffffffffffffffffff1681526020019081526020015f205f828254610a0c91906127d1565b925050819055508060055f855f015173ffffffffffffffffffffffffffffffffffffffff1673ffffffffffffffffffffffffffffffffffffffff1681526020019081526020015f205f828254610a6291906127d1565b925050819055507f000000000000000000000000000000000000000000000000000000000000000073ffffffffffffffffffffffffffffffffffffffff166342842e0e845f01513386602001516040518463ffffffff1660e01b8152600401610acd93929190612804565b5f604051808303815f87803b158015610ae4575f80fd5b505af1158015610af6573d5f803e3d5ffd5b505050503373ffffffffffffffffffffffffffffffffffffffff16847fe29b93709a7ac5e91a6057482d1df985483725988417e08dec23377234003c808560200151866040015142604051610b4d93929190612839565b60405180910390a350505050565b7f000000000000000000000000000000000000000000000000000000000000000073ffffffffffffffffffffffffffffffffffffffff163373ffffffffffffffffffffffffffffffffffffffff1614610beb57336040517f245aecd3000000000000000000000000000000000000000000000000000000008152600401610be2919061286e565b60405180910390fd5b5f60055f3373ffffffffffffffffffffffffffffffffffffffff1673ffffffffffffffffffffffffffffffffffffffff1681526020019081526020015f205490505f8103610c65576040517f81b5ad6800000000000000000000000000000000000000000000000000000000815260040160405180910390fd5b5f60055f3373ffffffffffffffffffffffffffffffffffffffff1673ffffffffffffffffffffffffffffffffffffffff1681526020019081526020015f20819055505f3373ffffffffffffffffffffffffffffffffffffffff1682604051610ccc906128b4565b5f6040518083038185875af1925050503d805f8114610d06576040519150601f19603f3d011682016040523d82523d5f602084013e610d0b565b606091505b5050905080610d4f576040517f08c379a0000000000000000000000000000000000000000000000000000000008152600401610d4690612912565b60405180910390fd5b3373ffffffffffffffffffffffffffffffffffffffff167f6141b54b56b8a52a8c6f5cd2a857f6117b18ffbf4d46bd3106f300a839cbf5ea83604051610d959190611ff7565b60405180910390a25050565b60028054610dae9061295d565b80601f0160208091040260200160405190810160405280929190818152602001828054610dda9061295d565b8015610e255780601f10610dfc57610100808354040283529160200191610e25565b820191905f5260205f20905b815481529060010190602001808311610e0857829003601f168201915b505050505081565b5f7f000000000000000000000000000000000000000000000000000000000000000073ffffffffffffffffffffffffffffffffffffffff16632f745c5984846040518363ffffffff1660e01b8152600401610e8992919061298d565b602060405180830381865afa158015610ea4573d5f803e3d5ffd5b505050506040513d601f19601f82011682018060405250810190610ec891906129c8565b905092915050565b5f60035f8381526020019081526020015f209050806003015f9054906101000a900460ff16610f2b576040517f80cb55e200000000000000000000000000000000000000000000000000000000815260040160405180910390fd5b3373ffffffffffffffffffffffffffffffffffffffff16815f015f9054906101000a900473ffffffffffffffffffffffffffffffffffffffff1673ffffffffffffffffffffffffffffffffffffffff1614610fdf57805f015f9054906101000a900473ffffffffffffffffffffffffffffffffffffffff166040517fe38d022a000000000000000000000000000000000000000000000000000000008152600401610fd6919061286e565b60405180910390fd5b5f816003015f6101000a81548160ff02191690831515021790555060045f826001015481526020019081526020015f205f90553373ffffffffffffffffffffffffffffffffffffffff16827f8e25282255ab31897df2b0456bb993ac7f84d376861aefd84901d2d63a7428a260405160405180910390a35050565b7f000000000000000000000000000000000000000000000000000000000000000073ffffffffffffffffffffffffffffffffffffffff163373ffffffffffffffffffffffffffffffffffffffff16146110ea57336040517f245aecd30000000000000000000000000000000000000000000000000000000081526004016110e1919061286e565b60405180910390fd5b61138881111561112f576040517f08c379a000000000000000000000000000000000000000000000000000000000815260040161112690612a3d565b60405180910390fd5b806001819055507f13f60dd2b588490608c3ff1932a3daeb4087f3d5af04b97e5c2a16b5b4c0302e816040516111659190611ff7565b60405180910390a150565b7f000000000000000000000000000000000000000000000000000000000000000081565b60015481565b7f000000000000000000000000000000000000000000000000000000000000000081565b5f8060045f8481526020019081526020015f2054905060035f8281526020019081526020015f206003015f9054906101000a900460ff16915050919050565b5f805490505f836fffffffffffffffffffffffffffffffff1611611256576040517f08c379a000000000000000000000000000000000000000000000000000000000815260040161124d90612aa5565b60405180910390fd5b5f7f000000000000000000000000000000000000000000000000000000000000000073ffffffffffffffffffffffffffffffffffffffff16636352211e836040518263ffffffff1660e01b81526004016112b09190611ff7565b602060405180830381865afa1580156112cb573d5f803e3d5ffd5b505050506040513d601f19601f820116820180604052508101906112ef919061265a565b90503373ffffffffffffffffffffffffffffffffffffffff168173ffffffffffffffffffffffffffffffffffffffff161461136157806040517f928730cc000000000000000000000000000000000000000000000000000000008152600401611358919061286e565b60405180910390fd5b7f000000000000000000000000000000000000000000000000000000000000000073ffffffffffffffffffffffffffffffffffffffff1663e985e9c533306040518363ffffffff1660e01b81526004016113bc9291906126ed565b602060405180830381865afa1580156113d7573d5f803e3d5ffd5b505050506040513d601f19601f820116820180604052508101906113fb919061273e565b1580156114cb57503073ffffffffffffffffffffffffffffffffffffffff167f000000000000000000000000000000000000000000000000000000000000000073ffffffffffffffffffffffffffffffffffffffff1663081812fc846040518263ffffffff1660e01b81526004016114739190611ff7565b602060405180830381865afa15801561148e573d5f803e3d5ffd5b505050506040513d601f19601f820116820180604052508101906114b2919061265a565b73ffffffffffffffffffffffffffffffffffffffff1614155b15611502576040517fc19f17a900000000000000000000000000000000000000000000000000000000815260040160405180910390fd5b5f60045f8481526020019081526020015f20541461154c576040517fa3d582ec00000000000000000000000000000000000000000000000000000000815260040160405180910390fd5b5f82334260405160200161156293929190612b28565b604051602081830303815290604052805190602001205f1c905060405180608001604052803373ffffffffffffffffffffffffffffffffffffffff168152602001848152602001866fffffffffffffffffffffffffffffffff1681526020016001151581525060035f8381526020019081526020015f205f820151815f015f6101000a81548173ffffffffffffffffffffffffffffffffffffffff021916908373ffffffffffffffffffffffffffffffffffffffff16021790555060208201518160010155604082015181600201556060820151816003015f6101000a81548160ff02191690831515021790555090505061165d8385611e14565b8060045f8581526020019081526020015f208190555060075f3373ffffffffffffffffffffffffffffffffffffffff1673ffffffffffffffffffffffffffffffffffffffff1681526020019081526020015f2060035f8381526020019081526020015f20908060018154018082558091505060019003905f5260205f2090600402015f909190919091505f82015f9054906101000a900473ffffffffffffffffffffffffffffffffffffffff16815f015f6101000a81548173ffffffffffffffffffffffffffffffffffffffff021916908373ffffffffffffffffffffffffffffffffffffffff1602179055506001820154816001015560028201548160020155600382015f9054906101000a900460ff16816003015f6101000a81548160ff02191690831515021790555050503373ffffffffffffffffffffffffffffffffffffffff16817fa3941cfa07eecf2734875ab71cea0e47395be644da6e17b039a7e29efba74ef98588426040516117d693929190612b94565b60405180910390a35050505050565b61138881565b60605f60065f8481526020019081526020015f20805461180a9061295d565b90501161184c576040517f08c379a000000000000000000000000000000000000000000000000000000000815260040161184390612c13565b60405180910390fd5b60065f8381526020019081526020015f2060405160200161186d9190612d17565b6040516020818303038152906040529050919050565b5f60045f8381526020019081526020015f20549050919050565b5f5481565b7f000000000000000000000000000000000000000000000000000000000000000081565b606060075f8373ffffffffffffffffffffffffffffffffffffffff1673ffffffffffffffffffffffffffffffffffffffff1681526020019081526020015f20805480602002602001604051908101604052809291908181526020015f905b828210156119d6578382905f5260205f2090600402016040518060800160405290815f82015f9054906101000a900473ffffffffffffffffffffffffffffffffffffffff1673ffffffffffffffffffffffffffffffffffffffff1673ffffffffffffffffffffffffffffffffffffffff1681526020016001820154815260200160028201548152602001600382015f9054906101000a900460ff16151515158152505081526020019060010190611924565b505050509050919050565b6003602052805f5260405f205f91509050805f015f9054906101000a900473ffffffffffffffffffffffffffffffffffffffff1690806001015490806002015490806003015f9054906101000a900460ff16905084565b7f000000000000000000000000000000000000000000000000000000000000000073ffffffffffffffffffffffffffffffffffffffff16636352211e826040518263ffffffff1660e01b8152600401611a919190611ff7565b602060405180830381865afa158015611aac573d5f803e3d5ffd5b505050506040513d601f19601f82011682018060405250810190611ad0919061265a565b73ffffffffffffffffffffffffffffffffffffffff163373ffffffffffffffffffffffffffffffffffffffff1614611b3f57336040517f928730cc000000000000000000000000000000000000000000000000000000008152600401611b36919061286e565b60405180910390fd5b60035f8281526020019081526020015f206003015f9054906101000a900460ff16611b96576040517f80cb55e200000000000000000000000000000000000000000000000000000000815260040160405180910390fd5b5f60035f8381526020019081526020015f206003015f6101000a81548160ff0219169083151502179055503373ffffffffffffffffffffffffffffffffffffffff16817f25331cbadf10d7fde7ba3cb8e4a9ceb748c5c0a5f37f23da51ce1a4142fc8c0042604051611c089190611ff7565b60405180910390a350565b6005602052805f5260405f205f915090505481565b5f8111611c6a576040517f08c379a0000000000000000000000000000000000000000000000000000000008152600401611c6190612d82565b60405180910390fd5b60055f3373ffffffffffffffffffffffffffffffffffffffff1673ffffffffffffffffffffffffffffffffffffffff1681526020019081526020015f2054811115611d2b578060055f3373ffffffffffffffffffffffffffffffffffffffff1673ffffffffffffffffffffffffffffffffffffffff1681526020019081526020015f20546040517f03eb8b54000000000000000000000000000000000000000000000000000000008152600401611d22929190612521565b60405180910390fd5b8173ffffffffffffffffffffffffffffffffffffffff166108fc8290811502906040515f60405180830381858888f19350505050158015611d6e573d5f803e3d5ffd5b508060055f3373ffffffffffffffffffffffffffffffffffffffff1673ffffffffffffffffffffffffffffffffffffffff1681526020019081526020015f205f828254611dbb9190612613565b925050819055508173ffffffffffffffffffffffffffffffffffffffff167f6141b54b56b8a52a8c6f5cd2a857f6117b18ffbf4d46bd3106f300a839cbf5ea82604051611e089190611ff7565b60405180910390a25050565b8060065f8481526020019081526020015f209081611e329190612f22565b505050565b5f604051905090565b5f80fd5b5f80fd5b5f819050919050565b611e5a81611e48565b8114611e64575f80fd5b50565b5f81359050611e7581611e51565b92915050565b5f60208284031215611e9057611e8f611e40565b5b5f611e9d84828501611e67565b91505092915050565b5f81519050919050565b5f82825260208201905092915050565b5f5b83811015611edd578082015181840152602081019050611ec2565b5f8484015250505050565b5f601f19601f8301169050919050565b5f611f0282611ea6565b611f0c8185611eb0565b9350611f1c818560208601611ec0565b611f2581611ee8565b840191505092915050565b5f6020820190508181035f830152611f488184611ef8565b905092915050565b5f73ffffffffffffffffffffffffffffffffffffffff82169050919050565b5f611f7982611f50565b9050919050565b611f8981611f6f565b8114611f93575f80fd5b50565b5f81359050611fa481611f80565b92915050565b5f8060408385031215611fc057611fbf611e40565b5b5f611fcd85828601611f96565b9250506020611fde85828601611e67565b9150509250929050565b611ff181611e48565b82525050565b5f60208201905061200a5f830184611fe8565b92915050565b5f819050919050565b5f61203361202e61202984611f50565b612010565b611f50565b9050919050565b5f61204482612019565b9050919050565b5f6120558261203a565b9050919050565b6120658161204b565b82525050565b5f60208201905061207e5f83018461205c565b92915050565b5f61208e82611f50565b9050919050565b61209e81612084565b82525050565b5f6020820190506120b75f830184612095565b92915050565b5f8115159050919050565b6120d1816120bd565b82525050565b5f6020820190506120ea5f8301846120c8565b92915050565b5f6fffffffffffffffffffffffffffffffff82169050919050565b612114816120f0565b811461211e575f80fd5b50565b5f8135905061212f8161210b565b92915050565b5f80fd5b5f80fd5b7f4e487b71000000000000000000000000000000000000000000000000000000005f52604160045260245ffd5b61217382611ee8565b810181811067ffffffffffffffff821117156121925761219161213d565b5b80604052505050565b5f6121a4611e37565b90506121b0828261216a565b919050565b5f67ffffffffffffffff8211156121cf576121ce61213d565b5b6121d882611ee8565b9050602081019050919050565b828183375f83830152505050565b5f612205612200846121b5565b61219b565b90508281526020810184848401111561222157612220612139565b5b61222c8482856121e5565b509392505050565b5f82601f83011261224857612247612135565b5b81356122588482602086016121f3565b91505092915050565b5f806040838503121561227757612276611e40565b5b5f61228485828601612121565b925050602083013567ffffffffffffffff8111156122a5576122a4611e44565b5b6122b185828601612234565b9150509250929050565b5f6122c58261203a565b9050919050565b6122d5816122bb565b82525050565b5f6020820190506122ee5f8301846122cc565b92915050565b5f6020828403121561230957612308611e40565b5b5f61231684828501611f96565b91505092915050565b5f81519050919050565b5f82825260208201905092915050565b5f819050602082019050919050565b61235181611f6f565b82525050565b61236081611e48565b82525050565b61236f816120bd565b82525050565b608082015f8201516123895f850182612348565b50602082015161239c6020850182612357565b5060408201516123af6040850182612357565b5060608201516123c26060850182612366565b50505050565b5f6123d38383612375565b60808301905092915050565b5f602082019050919050565b5f6123f58261231f565b6123ff8185612329565b935061240a83612339565b805f5b8381101561243a57815161242188826123c8565b975061242c836123df565b92505060018101905061240d565b5085935050505092915050565b5f6020820190508181035f83015261245f81846123eb565b905092915050565b61247081611f6f565b82525050565b5f6080820190506124895f830187612467565b6124966020830186611fe8565b6124a36040830185611fe8565b6124b060608301846120c8565b95945050505050565b6124c281612084565b81146124cc575f80fd5b50565b5f813590506124dd816124b9565b92915050565b5f80604083850312156124f9576124f8611e40565b5b5f612506858286016124cf565b925050602061251785828601611e67565b9150509250929050565b5f6040820190506125345f830185611fe8565b6125416020830184611fe8565b9392505050565b7f4e487b71000000000000000000000000000000000000000000000000000000005f52601160045260245ffd5b5f61257f82611e48565b915061258a83611e48565b925082820261259881611e48565b915082820484148315176125af576125ae612548565b5b5092915050565b7f4e487b71000000000000000000000000000000000000000000000000000000005f52601260045260245ffd5b5f6125ed82611e48565b91506125f883611e48565b925082612608576126076125b6565b5b828204905092915050565b5f61261d82611e48565b915061262883611e48565b92508282039050818111156126405761263f612548565b5b92915050565b5f8151905061265481611f80565b92915050565b5f6020828403121561266f5761266e611e40565b5b5f61267c84828501612646565b91505092915050565b7f53656c6c6572206e6f206c6f6e676572206f776e73204e4654000000000000005f82015250565b5f6126b9601983611eb0565b91506126c482612685565b602082019050919050565b5f6020820190508181035f8301526126e6816126ad565b9050919050565b5f6040820190506127005f830185612467565b61270d6020830184612467565b9392505050565b61271d816120bd565b8114612727575f80fd5b50565b5f8151905061273881612714565b92915050565b5f6020828403121561275357612752611e40565b5b5f6127608482850161272a565b91505092915050565b7f4e6f7420617070726f76656400000000000000000000000000000000000000005f82015250565b5f61279d600c83611eb0565b91506127a882612769565b602082019050919050565b5f6020820190508181035f8301526127ca81612791565b9050919050565b5f6127db82611e48565b91506127e683611e48565b92508282019050808211156127fe576127fd612548565b5b92915050565b5f6060820190506128175f830186612467565b6128246020830185612467565b6128316040830184611fe8565b949350505050565b5f60608201905061284c5f830186611fe8565b6128596020830185611fe8565b6128666040830184611fe8565b949350505050565b5f6020820190506128815f830184612467565b92915050565b5f81905092915050565b50565b5f61289f5f83612887565b91506128aa82612891565b5f82019050919050565b5f6128be82612894565b9150819050919050565b7f5472616e73666572206661696c656400000000000000000000000000000000005f82015250565b5f6128fc600f83611eb0565b9150612907826128c8565b602082019050919050565b5f6020820190508181035f830152612929816128f0565b9050919050565b7f4e487b71000000000000000000000000000000000000000000000000000000005f52602260045260245ffd5b5f600282049050600182168061297457607f821691505b60208210810361298757612986612930565b5b50919050565b5f6040820190506129a05f830185612467565b6129ad6020830184611fe8565b9392505050565b5f815190506129c281611e51565b92915050565b5f602082840312156129dd576129dc611e40565b5b5f6129ea848285016129b4565b91505092915050565b7f436f6d6d697373696f6e20746f6f2068696768000000000000000000000000005f82015250565b5f612a27601383611eb0565b9150612a32826129f3565b602082019050919050565b5f6020820190508181035f830152612a5481612a1b565b9050919050565b7f5072696365206d757374206265203e20300000000000000000000000000000005f82015250565b5f612a8f601183611eb0565b9150612a9a82612a5b565b602082019050919050565b5f6020820190508181035f830152612abc81612a83565b9050919050565b5f819050919050565b612add612ad882611e48565b612ac3565b82525050565b5f8160601b9050919050565b5f612af982612ae3565b9050919050565b5f612b0a82612aef565b9050919050565b612b22612b1d82611f6f565b612b00565b82525050565b5f612b338286612acc565b602082019150612b438285612b11565b601482019150612b538284612acc565b602082019150819050949350505050565b5f612b7e612b79612b74846120f0565b612010565b611e48565b9050919050565b612b8e81612b64565b82525050565b5f606082019050612ba75f830186611fe8565b612bb46020830185612b85565b612bc16040830184611fe8565b949350505050565b7f5552492073657420746f20746865206e756c6c206164647265737300000000005f82015250565b5f612bfd601b83611eb0565b9150612c0882612bc9565b602082019050919050565b5f6020820190508181035f830152612c2a81612bf1565b9050919050565b5f81905092915050565b7f697066733a2f2f000000000000000000000000000000000000000000000000005f82015250565b5f612c6f600783612c31565b9150612c7a82612c3b565b600782019050919050565b5f819050815f5260205f209050919050565b5f8154612ca38161295d565b612cad8186612c31565b9450600182165f8114612cc75760018114612cdc57612d0e565b60ff1983168652811515820286019350612d0e565b612ce585612c85565b5f5b83811015612d0657815481890152600182019150602081019050612ce7565b838801955050505b50505092915050565b5f612d2182612c63565b9150612d2d8284612c97565b915081905092915050565b7f416d6f756e74206d757374206265203e203000000000000000000000000000005f82015250565b5f612d6c601283611eb0565b9150612d7782612d38565b602082019050919050565b5f6020820190508181035f830152612d9981612d60565b9050919050565b5f6020601f8301049050919050565b5f82821b905092915050565b5f60088302612dea7fffffffffffffffffffffffffffffffffffffffffffffffffffffffffffffffff82612daf565b612df48683612daf565b95508019841693508086168417925050509392505050565b5f612e26612e21612e1c84611e48565b612010565b611e48565b9050919050565b5f819050919050565b612e3f83612e0c565b612e53612e4b82612e2d565b848454612dbb565b825550505050565b5f90565b612e67612e5b565b612e72818484612e36565b505050565b5b81811015612e9557612e8a5f82612e5f565b600181019050612e78565b5050565b601f821115612eda57612eab81612c85565b612eb484612da0565b81016020851015612ec3578190505b612ed7612ecf85612da0565b830182612e77565b50505b505050565b5f82821c905092915050565b5f612efa5f1984600802612edf565b1980831691505092915050565b5f612f128383612eeb565b9150826002028217905092915050565b612f2b82611ea6565b67ffffffffffffffff811115612f4457612f4361213d565b5b612f4e825461295d565b612f59828285612e99565b5f60209050601f831160018114612f8a575f8415612f78578287015190505b612f828582612f07565b865550612fe9565b601f198416612f9886612c85565b5f5b82811015612fbf57848901518255600182019150602085019450602081019050612f9a565b86831015612fdc5784890151612fd8601f891682612eeb565b8355505b6001600288020188555050505b50505050505056fea2646970667358221220632cc9eb46e97a0fe0301fe78c06cdf952d1460a82a843804cab84d49ae23a0664736f6c63430008160033",
					"opcodes": "PUSH1 0xE0 PUSH1 0x40 MSTORE CALLVALUE DUP1 ISZERO PUSH3 0x10 JUMPI PUSH0 DUP1 REVERT JUMPDEST POP PUSH1 0x40 MLOAD PUSH3 0x3414 CODESIZE SUB DUP1 PUSH3 0x3414 DUP4 CODECOPY DUP2 DUP2 ADD PUSH1 0x40 MSTORE DUP2 ADD SWAP1 PUSH3 0x36 SWAP2 SWAP1 PUSH3 0x23D JUMP JUMPDEST PUSH0 PUSH20 0xFFFFFFFFFFFFFFFFFFFFFFFFFFFFFFFFFFFFFFFF AND DUP3 PUSH20 0xFFFFFFFFFFFFFFFFFFFFFFFFFFFFFFFFFFFFFFFF AND SUB PUSH3 0xA7 JUMPI PUSH1 0x40 MLOAD PUSH32 0x8C379A000000000000000000000000000000000000000000000000000000000 DUP2 MSTORE PUSH1 0x4 ADD PUSH3 0x9E SWAP1 PUSH3 0x2E0 JUMP JUMPDEST PUSH1 0x40 MLOAD DUP1 SWAP2 SUB SWAP1 REVERT JUMPDEST PUSH2 0x1388 DUP2 GT ISZERO PUSH3 0xEF JUMPI PUSH1 0x40 MLOAD PUSH32 0x8C379A000000000000000000000000000000000000000000000000000000000 DUP2 MSTORE PUSH1 0x4 ADD PUSH3 0xE6 SWAP1 PUSH3 0x34E JUMP JUMPDEST PUSH1 0x40 MLOAD DUP1 SWAP2 SUB SWAP1 REVERT JUMPDEST PUSH0 DUP1 DUP2 SWAP1 SSTORE POP CALLER PUSH20 0xFFFFFFFFFFFFFFFFFFFFFFFFFFFFFFFFFFFFFFFF AND PUSH1 0x80 DUP2 PUSH20 0xFFFFFFFFFFFFFFFFFFFFFFFFFFFFFFFFFFFFFFFF AND DUP2 MSTORE POP POP DUP2 PUSH20 0xFFFFFFFFFFFFFFFFFFFFFFFFFFFFFFFFFFFFFFFF AND PUSH1 0xA0 DUP2 PUSH20 0xFFFFFFFFFFFFFFFFFFFFFFFFFFFFFFFFFFFFFFFF AND DUP2 MSTORE POP POP DUP2 PUSH20 0xFFFFFFFFFFFFFFFFFFFFFFFFFFFFFFFFFFFFFFFF AND PUSH1 0xC0 DUP2 PUSH20 0xFFFFFFFFFFFFFFFFFFFFFFFFFFFFFFFFFFFFFFFF AND DUP2 MSTORE POP POP DUP1 PUSH1 0x1 DUP2 SWAP1 SSTORE POP POP POP PUSH3 0x36E JUMP JUMPDEST PUSH0 DUP1 REVERT JUMPDEST PUSH0 PUSH20 0xFFFFFFFFFFFFFFFFFFFFFFFFFFFFFFFFFFFFFFFF DUP3 AND SWAP1 POP SWAP2 SWAP1 POP JUMP JUMPDEST PUSH0 PUSH3 0x1CF DUP3 PUSH3 0x1A4 JUMP JUMPDEST SWAP1 POP SWAP2 SWAP1 POP JUMP JUMPDEST PUSH3 0x1E1 DUP2 PUSH3 0x1C3 JUMP JUMPDEST DUP2 EQ PUSH3 0x1EC JUMPI PUSH0 DUP1 REVERT JUMPDEST POP JUMP JUMPDEST PUSH0 DUP2 MLOAD SWAP1 POP PUSH3 0x1FF DUP2 PUSH3 0x1D6 JUMP JUMPDEST SWAP3 SWAP2 POP POP JUMP JUMPDEST PUSH0 DUP2 SWAP1 POP SWAP2 SWAP1 POP JUMP JUMPDEST PUSH3 0x219 DUP2 PUSH3 0x205 JUMP JUMPDEST DUP2 EQ PUSH3 0x224 JUMPI PUSH0 DUP1 REVERT JUMPDEST POP JUMP JUMPDEST PUSH0 DUP2 MLOAD SWAP1 POP PUSH3 0x237 DUP2 PUSH3 0x20E JUMP JUMPDEST SWAP3 SWAP2 POP POP JUMP JUMPDEST PUSH0 DUP1 PUSH1 0x40 DUP4 DUP6 SUB SLT ISZERO PUSH3 0x256 JUMPI PUSH3 0x255 PUSH3 0x1A0 JUMP JUMPDEST JUMPDEST PUSH0 PUSH3 0x265 DUP6 DUP3 DUP7 ADD PUSH3 0x1EF JUMP JUMPDEST SWAP3 POP POP PUSH1 0x20 PUSH3 0x278 DUP6 DUP3 DUP7 ADD PUSH3 0x227 JUMP JUMPDEST SWAP2 POP POP SWAP3 POP SWAP3 SWAP1 POP JUMP JUMPDEST PUSH0 DUP3 DUP3 MSTORE PUSH1 0x20 DUP3 ADD SWAP1 POP SWAP3 SWAP2 POP POP JUMP JUMPDEST PUSH32 0x496E76616C6964204E4654206164647265737300000000000000000000000000 PUSH0 DUP3 ADD MSTORE POP JUMP JUMPDEST PUSH0 PUSH3 0x2C8 PUSH1 0x13 DUP4 PUSH3 0x282 JUMP JUMPDEST SWAP2 POP PUSH3 0x2D5 DUP3 PUSH3 0x292 JUMP JUMPDEST PUSH1 0x20 DUP3 ADD SWAP1 POP SWAP2 SWAP1 POP JUMP JUMPDEST PUSH0 PUSH1 0x20 DUP3 ADD SWAP1 POP DUP2 DUP2 SUB PUSH0 DUP4 ADD MSTORE PUSH3 0x2F9 DUP2 PUSH3 0x2BA JUMP JUMPDEST SWAP1 POP SWAP2 SWAP1 POP JUMP JUMPDEST PUSH32 0x436F6D6D697373696F6E20746F6F206869676800000000000000000000000000 PUSH0 DUP3 ADD MSTORE POP JUMP JUMPDEST PUSH0 PUSH3 0x336 PUSH1 0x13 DUP4 PUSH3 0x282 JUMP JUMPDEST SWAP2 POP PUSH3 0x343 DUP3 PUSH3 0x300 JUMP JUMPDEST PUSH1 0x20 DUP3 ADD SWAP1 POP SWAP2 SWAP1 POP JUMP JUMPDEST PUSH0 PUSH1 0x20 DUP3 ADD SWAP1 POP DUP2 DUP2 SUB PUSH0 DUP4 ADD MSTORE PUSH3 0x367 DUP2 PUSH3 0x328 JUMP JUMPDEST SWAP1 POP SWAP2 SWAP1 POP JUMP JUMPDEST PUSH1 0x80 MLOAD PUSH1 0xA0 MLOAD PUSH1 0xC0 MLOAD PUSH2 0x3027 PUSH3 0x3ED PUSH0 CODECOPY PUSH0 DUP2 DUP2 PUSH2 0xE30 ADD MSTORE PUSH2 0x1172 ADD MSTORE PUSH0 DUP2 DUP2 PUSH2 0x6DB ADD MSTORE DUP2 DUP2 PUSH2 0x7CD ADD MSTORE DUP2 DUP2 PUSH2 0x887 ADD MSTORE DUP2 DUP2 PUSH2 0xA6B ADD MSTORE DUP2 DUP2 PUSH2 0x1259 ADD MSTORE DUP2 DUP2 PUSH2 0x1363 ADD MSTORE DUP2 DUP2 PUSH2 0x141C ADD MSTORE DUP2 DUP2 PUSH2 0x18A4 ADD MSTORE PUSH2 0x1A3A ADD MSTORE PUSH0 DUP2 DUP2 PUSH2 0x9A6 ADD MSTORE DUP2 DUP2 PUSH2 0xB5D ADD MSTORE DUP2 DUP2 PUSH2 0x105C ADD MSTORE PUSH2 0x119C ADD MSTORE PUSH2 0x3027 PUSH0 RETURN INVALID PUSH1 0x80 PUSH1 0x40 MSTORE PUSH1 0x4 CALLDATASIZE LT PUSH2 0x12D JUMPI PUSH0 CALLDATALOAD PUSH1 0xE0 SHR DUP1 PUSH4 0xAB473460 GT PUSH2 0xAA JUMPI DUP1 PUSH4 0xD56D229D GT PUSH2 0x6E JUMPI DUP1 PUSH4 0xD56D229D EQ PUSH2 0x3CE JUMPI DUP1 PUSH4 0xD8CBA251 EQ PUSH2 0x3F8 JUMPI DUP1 PUSH4 0xDE74E57B EQ PUSH2 0x434 JUMPI DUP1 PUSH4 0xE6282C6E EQ PUSH2 0x473 JUMPI DUP1 PUSH4 0xF3F43703 EQ PUSH2 0x49B JUMPI DUP1 PUSH4 0xF3FEF3A3 EQ PUSH2 0x4D7 JUMPI PUSH2 0x134 JUMP JUMPDEST DUP1 PUSH4 0xAB473460 EQ PUSH2 0x2DA JUMPI DUP1 PUSH4 0xAE97DDE8 EQ PUSH2 0x302 JUMPI DUP1 PUSH4 0xC87B56DD EQ PUSH2 0x32C JUMPI DUP1 PUSH4 0xCC85A55B EQ PUSH2 0x368 JUMPI DUP1 PUSH4 0xD082E381 EQ PUSH2 0x3A4 JUMPI PUSH2 0x134 JUMP JUMPDEST DUP1 PUSH4 0x404A9AB8 GT PUSH2 0xF1 JUMPI DUP1 PUSH4 0x404A9AB8 EQ PUSH2 0x1F8 JUMPI DUP1 PUSH4 0x51E61B25 EQ PUSH2 0x220 JUMPI DUP1 PUSH4 0x77D3550B EQ PUSH2 0x24A JUMPI DUP1 PUSH4 0x8DA5CB5B EQ PUSH2 0x274 JUMPI DUP1 PUSH4 0x9B83CDDC EQ PUSH2 0x29E JUMPI PUSH2 0x134 JUMP JUMPDEST DUP1 PUSH4 0x169D5A7D EQ PUSH2 0x138 JUMPI DUP1 PUSH4 0x24600FC3 EQ PUSH2 0x154 JUMPI DUP1 PUSH4 0x24C8C698 EQ PUSH2 0x16A JUMPI DUP1 PUSH4 0x2F745C59 EQ PUSH2 0x194 JUMPI DUP1 PUSH4 0x305A67A8 EQ PUSH2 0x1D0 JUMPI PUSH2 0x134 JUMP JUMPDEST CALLDATASIZE PUSH2 0x134 JUMPI STOP JUMPDEST PUSH0 DUP1 REVERT JUMPDEST PUSH2 0x152 PUSH1 0x4 DUP1 CALLDATASIZE SUB DUP2 ADD SWAP1 PUSH2 0x14D SWAP2 SWAP1 PUSH2 0x1E7B JUMP JUMPDEST PUSH2 0x4FF JUMP JUMPDEST STOP JUMPDEST CALLVALUE DUP1 ISZERO PUSH2 0x15F JUMPI PUSH0 DUP1 REVERT JUMPDEST POP PUSH2 0x168 PUSH2 0xB5B JUMP JUMPDEST STOP JUMPDEST CALLVALUE DUP1 ISZERO PUSH2 0x175 JUMPI PUSH0 DUP1 REVERT JUMPDEST POP PUSH2 0x17E PUSH2 0xDA1 JUMP JUMPDEST PUSH1 0x40 MLOAD PUSH2 0x18B SWAP2 SWAP1 PUSH2 0x1F30 JUMP JUMPDEST PUSH1 0x40 MLOAD DUP1 SWAP2 SUB SWAP1 RETURN JUMPDEST CALLVALUE DUP1 ISZERO PUSH2 0x19F JUMPI PUSH0 DUP1 REVERT JUMPDEST POP PUSH2 0x1BA PUSH1 0x4 DUP1 CALLDATASIZE SUB DUP2 ADD SWAP1 PUSH2 0x1B5 SWAP2 SWAP1 PUSH2 0x1FAA JUMP JUMPDEST PUSH2 0xE2D JUMP JUMPDEST PUSH1 0x40 MLOAD PUSH2 0x1C7 SWAP2 SWAP1 PUSH2 0x1FF7 JUMP JUMPDEST PUSH1 0x40 MLOAD DUP1 SWAP2 SUB SWAP1 RETURN JUMPDEST CALLVALUE DUP1 ISZERO PUSH2 0x1DB JUMPI PUSH0 DUP1 REVERT JUMPDEST POP PUSH2 0x1F6 PUSH1 0x4 DUP1 CALLDATASIZE SUB DUP2 ADD SWAP1 PUSH2 0x1F1 SWAP2 SWAP1 PUSH2 0x1E7B JUMP JUMPDEST PUSH2 0xED0 JUMP JUMPDEST STOP JUMPDEST CALLVALUE DUP1 ISZERO PUSH2 0x203 JUMPI PUSH0 DUP1 REVERT JUMPDEST POP PUSH2 0x21E PUSH1 0x4 DUP1 CALLDATASIZE SUB DUP2 ADD SWAP1 PUSH2 0x219 SWAP2 SWAP1 PUSH2 0x1E7B JUMP JUMPDEST PUSH2 0x105A JUMP JUMPDEST STOP JUMPDEST CALLVALUE DUP1 ISZERO PUSH2 0x22B JUMPI PUSH0 DUP1 REVERT JUMPDEST POP PUSH2 0x234 PUSH2 0x1170 JUMP JUMPDEST PUSH1 0x40 MLOAD PUSH2 0x241 SWAP2 SWAP1 PUSH2 0x206B JUMP JUMPDEST PUSH1 0x40 MLOAD DUP1 SWAP2 SUB SWAP1 RETURN JUMPDEST CALLVALUE DUP1 ISZERO PUSH2 0x255 JUMPI PUSH0 DUP1 REVERT JUMPDEST POP PUSH2 0x25E PUSH2 0x1194 JUMP JUMPDEST PUSH1 0x40 MLOAD PUSH2 0x26B SWAP2 SWAP1 PUSH2 0x1FF7 JUMP JUMPDEST PUSH1 0x40 MLOAD DUP1 SWAP2 SUB SWAP1 RETURN JUMPDEST CALLVALUE DUP1 ISZERO PUSH2 0x27F JUMPI PUSH0 DUP1 REVERT JUMPDEST POP PUSH2 0x288 PUSH2 0x119A JUMP JUMPDEST PUSH1 0x40 MLOAD PUSH2 0x295 SWAP2 SWAP1 PUSH2 0x20A4 JUMP JUMPDEST PUSH1 0x40 MLOAD DUP1 SWAP2 SUB SWAP1 RETURN JUMPDEST CALLVALUE DUP1 ISZERO PUSH2 0x2A9 JUMPI PUSH0 DUP1 REVERT JUMPDEST POP PUSH2 0x2C4 PUSH1 0x4 DUP1 CALLDATASIZE SUB DUP2 ADD SWAP1 PUSH2 0x2BF SWAP2 SWAP1 PUSH2 0x1E7B JUMP JUMPDEST PUSH2 0x11BE JUMP JUMPDEST PUSH1 0x40 MLOAD PUSH2 0x2D1 SWAP2 SWAP1 PUSH2 0x20D7 JUMP JUMPDEST PUSH1 0x40 MLOAD DUP1 SWAP2 SUB SWAP1 RETURN JUMPDEST CALLVALUE DUP1 ISZERO PUSH2 0x2E5 JUMPI PUSH0 DUP1 REVERT JUMPDEST POP PUSH2 0x300 PUSH1 0x4 DUP1 CALLDATASIZE SUB DUP2 ADD SWAP1 PUSH2 0x2FB SWAP2 SWAP1 PUSH2 0x2261 JUMP JUMPDEST PUSH2 0x11FD JUMP JUMPDEST STOP JUMPDEST CALLVALUE DUP1 ISZERO PUSH2 0x30D JUMPI PUSH0 DUP1 REVERT JUMPDEST POP PUSH2 0x316 PUSH2 0x17E5 JUMP JUMPDEST PUSH1 0x40 MLOAD PUSH2 0x323 SWAP2 SWAP1 PUSH2 0x1FF7 JUMP JUMPDEST PUSH1 0x40 MLOAD DUP1 SWAP2 SUB SWAP1 RETURN JUMPDEST CALLVALUE DUP1 ISZERO PUSH2 0x337 JUMPI PUSH0 DUP1 REVERT JUMPDEST POP PUSH2 0x352 PUSH1 0x4 DUP1 CALLDATASIZE SUB DUP2 ADD SWAP1 PUSH2 0x34D SWAP2 SWAP1 PUSH2 0x1E7B JUMP JUMPDEST PUSH2 0x17EB JUMP JUMPDEST PUSH1 0x40 MLOAD PUSH2 0x35F SWAP2 SWAP1 PUSH2 0x1F30 JUMP JUMPDEST PUSH1 0x40 MLOAD DUP1 SWAP2 SUB SWAP1 RETURN JUMPDEST CALLVALUE DUP1 ISZERO PUSH2 0x373 JUMPI PUSH0 DUP1 REVERT JUMPDEST POP PUSH2 0x38E PUSH1 0x4 DUP1 CALLDATASIZE SUB DUP2 ADD SWAP1 PUSH2 0x389 SWAP2 SWAP1 PUSH2 0x1E7B JUMP JUMPDEST PUSH2 0x1883 JUMP JUMPDEST PUSH1 0x40 MLOAD PUSH2 0x39B SWAP2 SWAP1 PUSH2 0x1FF7 JUMP JUMPDEST PUSH1 0x40 MLOAD DUP1 SWAP2 SUB SWAP1 RETURN JUMPDEST CALLVALUE DUP1 ISZERO PUSH2 0x3AF JUMPI PUSH0 DUP1 REVERT JUMPDEST POP PUSH2 0x3B8 PUSH2 0x189D JUMP JUMPDEST PUSH1 0x40 MLOAD PUSH2 0x3C5 SWAP2 SWAP1 PUSH2 0x1FF7 JUMP JUMPDEST PUSH1 0x40 MLOAD DUP1 SWAP2 SUB SWAP1 RETURN JUMPDEST CALLVALUE DUP1 ISZERO PUSH2 0x3D9 JUMPI PUSH0 DUP1 REVERT JUMPDEST POP PUSH2 0x3E2 PUSH2 0x18A2 JUMP JUMPDEST PUSH1 0x40 MLOAD PUSH2 0x3EF SWAP2 SWAP1 PUSH2 0x22DB JUMP JUMPDEST PUSH1 0x40 MLOAD DUP1 SWAP2 SUB SWAP1 RETURN JUMPDEST CALLVALUE DUP1 ISZERO PUSH2 0x403 JUMPI PUSH0 DUP1 REVERT JUMPDEST POP PUSH2 0x41E PUSH1 0x4 DUP1 CALLDATASIZE SUB DUP2 ADD SWAP1 PUSH2 0x419 SWAP2 SWAP1 PUSH2 0x22F4 JUMP JUMPDEST PUSH2 0x18C6 JUMP JUMPDEST PUSH1 0x40 MLOAD PUSH2 0x42B SWAP2 SWAP1 PUSH2 0x2447 JUMP JUMPDEST PUSH1 0x40 MLOAD DUP1 SWAP2 SUB SWAP1 RETURN JUMPDEST CALLVALUE DUP1 ISZERO PUSH2 0x43F JUMPI PUSH0 DUP1 REVERT JUMPDEST POP PUSH2 0x45A PUSH1 0x4 DUP1 CALLDATASIZE SUB DUP2 ADD SWAP1 PUSH2 0x455 SWAP2 SWAP1 PUSH2 0x1E7B JUMP JUMPDEST PUSH2 0x19E1 JUMP JUMPDEST PUSH1 0x40 MLOAD PUSH2 0x46A SWAP5 SWAP4 SWAP3 SWAP2 SWAP1 PUSH2 0x2476 JUMP JUMPDEST PUSH1 0x40 MLOAD DUP1 SWAP2 SUB SWAP1 RETURN JUMPDEST CALLVALUE DUP1 ISZERO PUSH2 0x47E JUMPI PUSH0 DUP1 REVERT JUMPDEST POP PUSH2 0x499 PUSH1 0x4 DUP1 CALLDATASIZE SUB DUP2 ADD SWAP1 PUSH2 0x494 SWAP2 SWAP1 PUSH2 0x1E7B JUMP JUMPDEST PUSH2 0x1A38 JUMP JUMPDEST STOP JUMPDEST CALLVALUE DUP1 ISZERO PUSH2 0x4A6 JUMPI PUSH0 DUP1 REVERT JUMPDEST POP PUSH2 0x4C1 PUSH1 0x4 DUP1 CALLDATASIZE SUB DUP2 ADD SWAP1 PUSH2 0x4BC SWAP2 SWAP1 PUSH2 0x22F4 JUMP JUMPDEST PUSH2 0x1C13 JUMP JUMPDEST PUSH1 0x40 MLOAD PUSH2 0x4CE SWAP2 SWAP1 PUSH2 0x1FF7 JUMP JUMPDEST PUSH1 0x40 MLOAD DUP1 SWAP2 SUB SWAP1 RETURN JUMPDEST CALLVALUE DUP1 ISZERO PUSH2 0x4E2 JUMPI PUSH0 DUP1 REVERT JUMPDEST POP PUSH2 0x4FD PUSH1 0x4 DUP1 CALLDATASIZE SUB DUP2 ADD SWAP1 PUSH2 0x4F8 SWAP2 SWAP1 PUSH2 0x24E3 JUMP JUMPDEST PUSH2 0x1C28 JUMP JUMPDEST STOP JUMPDEST PUSH0 PUSH1 0x3 PUSH0 DUP4 DUP2 MSTORE PUSH1 0x20 ADD SWAP1 DUP2 MSTORE PUSH1 0x20 ADD PUSH0 KECCAK256 PUSH1 0x40 MLOAD DUP1 PUSH1 0x80 ADD PUSH1 0x40 MSTORE SWAP1 DUP2 PUSH0 DUP3 ADD PUSH0 SWAP1 SLOAD SWAP1 PUSH2 0x100 EXP SWAP1 DIV PUSH20 0xFFFFFFFFFFFFFFFFFFFFFFFFFFFFFFFFFFFFFFFF AND PUSH20 0xFFFFFFFFFFFFFFFFFFFFFFFFFFFFFFFFFFFFFFFF AND PUSH20 0xFFFFFFFFFFFFFFFFFFFFFFFFFFFFFFFFFFFFFFFF AND DUP2 MSTORE PUSH1 0x20 ADD PUSH1 0x1 DUP3 ADD SLOAD DUP2 MSTORE PUSH1 0x20 ADD PUSH1 0x2 DUP3 ADD SLOAD DUP2 MSTORE PUSH1 0x20 ADD PUSH1 0x3 DUP3 ADD PUSH0 SWAP1 SLOAD SWAP1 PUSH2 0x100 EXP SWAP1 DIV PUSH1 0xFF AND ISZERO ISZERO ISZERO ISZERO DUP2 MSTORE POP POP SWAP1 POP DUP1 PUSH1 0x60 ADD MLOAD PUSH2 0x5DB JUMPI PUSH1 0x40 MLOAD PUSH32 0x80CB55E200000000000000000000000000000000000000000000000000000000 DUP2 MSTORE PUSH1 0x4 ADD PUSH1 0x40 MLOAD DUP1 SWAP2 SUB SWAP1 REVERT JUMPDEST DUP1 PUSH1 0x40 ADD MLOAD CALLVALUE LT ISZERO PUSH2 0x62A JUMPI DUP1 PUSH1 0x40 ADD MLOAD CALLVALUE PUSH1 0x40 MLOAD PUSH32 0xB99E2AB700000000000000000000000000000000000000000000000000000000 DUP2 MSTORE PUSH1 0x4 ADD PUSH2 0x621 SWAP3 SWAP2 SWAP1 PUSH2 0x2521 JUMP JUMPDEST PUSH1 0x40 MLOAD DUP1 SWAP2 SUB SWAP1 REVERT JUMPDEST DUP1 PUSH0 ADD MLOAD PUSH20 0xFFFFFFFFFFFFFFFFFFFFFFFFFFFFFFFFFFFFFFFF AND CALLER PUSH20 0xFFFFFFFFFFFFFFFFFFFFFFFFFFFFFFFFFFFFFFFF AND SUB PUSH2 0x692 JUMPI PUSH1 0x40 MLOAD PUSH32 0x50EADCB100000000000000000000000000000000000000000000000000000000 DUP2 MSTORE PUSH1 0x4 ADD PUSH1 0x40 MLOAD DUP1 SWAP2 SUB SWAP1 REVERT JUMPDEST PUSH0 PUSH2 0x2710 PUSH1 0x1 SLOAD CALLVALUE PUSH2 0x6A4 SWAP2 SWAP1 PUSH2 0x2575 JUMP JUMPDEST PUSH2 0x6AE SWAP2 SWAP1 PUSH2 0x25E3 JUMP JUMPDEST SWAP1 POP PUSH0 DUP2 CALLVALUE PUSH2 0x6BD SWAP2 SWAP1 PUSH2 0x2613 JUMP JUMPDEST SWAP1 POP DUP3 PUSH0 ADD MLOAD PUSH20 0xFFFFFFFFFFFFFFFFFFFFFFFFFFFFFFFFFFFFFFFF AND PUSH32 0x0 PUSH20 0xFFFFFFFFFFFFFFFFFFFFFFFFFFFFFFFFFFFFFFFF AND PUSH4 0x6352211E DUP6 PUSH1 0x20 ADD MLOAD PUSH1 0x40 MLOAD DUP3 PUSH4 0xFFFFFFFF AND PUSH1 0xE0 SHL DUP2 MSTORE PUSH1 0x4 ADD PUSH2 0x736 SWAP2 SWAP1 PUSH2 0x1FF7 JUMP JUMPDEST PUSH1 0x20 PUSH1 0x40 MLOAD DUP1 DUP4 SUB DUP2 DUP7 GAS STATICCALL ISZERO DUP1 ISZERO PUSH2 0x751 JUMPI RETURNDATASIZE PUSH0 DUP1 RETURNDATACOPY RETURNDATASIZE PUSH0 REVERT JUMPDEST POP POP POP POP PUSH1 0x40 MLOAD RETURNDATASIZE PUSH1 0x1F NOT PUSH1 0x1F DUP3 ADD AND DUP3 ADD DUP1 PUSH1 0x40 MSTORE POP DUP2 ADD SWAP1 PUSH2 0x775 SWAP2 SWAP1 PUSH2 0x265A JUMP JUMPDEST PUSH20 0xFFFFFFFFFFFFFFFFFFFFFFFFFFFFFFFFFFFFFFFF AND EQ PUSH2 0x7CB JUMPI PUSH1 0x40 MLOAD PUSH32 0x8C379A000000000000000000000000000000000000000000000000000000000 DUP2 MSTORE PUSH1 0x4 ADD PUSH2 0x7C2 SWAP1 PUSH2 0x26CF JUMP JUMPDEST PUSH1 0x40 MLOAD DUP1 SWAP2 SUB SWAP1 REVERT JUMPDEST PUSH32 0x0 PUSH20 0xFFFFFFFFFFFFFFFFFFFFFFFFFFFFFFFFFFFFFFFF AND PUSH4 0xE985E9C5 DUP5 PUSH0 ADD MLOAD ADDRESS PUSH1 0x40 MLOAD DUP4 PUSH4 0xFFFFFFFF AND PUSH1 0xE0 SHL DUP2 MSTORE PUSH1 0x4 ADD PUSH2 0x829 SWAP3 SWAP2 SWAP1 PUSH2 0x26ED JUMP JUMPDEST PUSH1 0x20 PUSH1 0x40 MLOAD DUP1 DUP4 SUB DUP2 DUP7 GAS STATICCALL ISZERO DUP1 ISZERO PUSH2 0x844 JUMPI RETURNDATASIZE PUSH0 DUP1 RETURNDATACOPY RETURNDATASIZE PUSH0 REVERT JUMPDEST POP POP POP POP PUSH1 0x40 MLOAD RETURNDATASIZE PUSH1 0x1F NOT PUSH1 0x1F DUP3 ADD AND DUP3 ADD DUP1 PUSH1 0x40 MSTORE POP DUP2 ADD SWAP1 PUSH2 0x868 SWAP2 SWAP1 PUSH2 0x273E JUMP JUMPDEST DUP1 PUSH2 0x939 JUMPI POP ADDRESS PUSH20 0xFFFFFFFFFFFFFFFFFFFFFFFFFFFFFFFFFFFFFFFF AND PUSH32 0x0 PUSH20 0xFFFFFFFFFFFFFFFFFFFFFFFFFFFFFFFFFFFFFFFF AND PUSH4 0x81812FC DUP6 PUSH1 0x20 ADD MLOAD PUSH1 0x40 MLOAD DUP3 PUSH4 0xFFFFFFFF AND PUSH1 0xE0 SHL DUP2 MSTORE PUSH1 0x4 ADD PUSH2 0x8E2 SWAP2 SWAP1 PUSH2 0x1FF7 JUMP JUMPDEST PUSH1 0x20 PUSH1 0x40 MLOAD DUP1 DUP4 SUB DUP2 DUP7 GAS STATICCALL ISZERO DUP1 ISZERO PUSH2 0x8FD JUMPI RETURNDATASIZE PUSH0 DUP1 RETURNDATACOPY RETURNDATASIZE PUSH0 REVERT JUMPDEST POP POP POP POP PUSH1 0x40 MLOAD RETURNDATASIZE PUSH1 0x1F NOT PUSH1 0x1F DUP3 ADD AND DUP3 ADD DUP1 PUSH1 0x40 MSTORE POP DUP2 ADD SWAP1 PUSH2 0x921 SWAP2 SWAP1 PUSH2 0x265A JUMP JUMPDEST PUSH20 0xFFFFFFFFFFFFFFFFFFFFFFFFFFFFFFFFFFFFFFFF AND EQ JUMPDEST PUSH2 0x978 JUMPI PUSH1 0x40 MLOAD PUSH32 0x8C379A000000000000000000000000000000000000000000000000000000000 DUP2 MSTORE PUSH1 0x4 ADD PUSH2 0x96F SWAP1 PUSH2 0x27B3 JUMP JUMPDEST PUSH1 0x40 MLOAD DUP1 SWAP2 SUB SWAP1 REVERT JUMPDEST PUSH0 DUP4 PUSH1 0x60 ADD SWAP1 ISZERO ISZERO SWAP1 DUP2 ISZERO ISZERO DUP2 MSTORE POP POP PUSH1 0x4 PUSH0 DUP5 PUSH1 0x20 ADD MLOAD DUP2 MSTORE PUSH1 0x20 ADD SWAP1 DUP2 MSTORE PUSH1 0x20 ADD PUSH0 KECCAK256 PUSH0 SWAP1 SSTORE DUP2 PUSH1 0x5 PUSH0 PUSH32 0x0 PUSH20 0xFFFFFFFFFFFFFFFFFFFFFFFFFFFFFFFFFFFFFFFF AND PUSH20 0xFFFFFFFFFFFFFFFFFFFFFFFFFFFFFFFFFFFFFFFF AND DUP2 MSTORE PUSH1 0x20 ADD SWAP1 DUP2 MSTORE PUSH1 0x20 ADD PUSH0 KECCAK256 PUSH0 DUP3 DUP3 SLOAD PUSH2 0xA0C SWAP2 SWAP1 PUSH2 0x27D1 JUMP JUMPDEST SWAP3 POP POP DUP2 SWAP1 SSTORE POP DUP1 PUSH1 0x5 PUSH0 DUP6 PUSH0 ADD MLOAD PUSH20 0xFFFFFFFFFFFFFFFFFFFFFFFFFFFFFFFFFFFFFFFF AND PUSH20 0xFFFFFFFFFFFFFFFFFFFFFFFFFFFFFFFFFFFFFFFF AND DUP2 MSTORE PUSH1 0x20 ADD SWAP1 DUP2 MSTORE PUSH1 0x20 ADD PUSH0 KECCAK256 PUSH0 DUP3 DUP3 SLOAD PUSH2 0xA62 SWAP2 SWAP1 PUSH2 0x27D1 JUMP JUMPDEST SWAP3 POP POP DUP2 SWAP1 SSTORE POP PUSH32 0x0 PUSH20 0xFFFFFFFFFFFFFFFFFFFFFFFFFFFFFFFFFFFFFFFF AND PUSH4 0x42842E0E DUP5 PUSH0 ADD MLOAD CALLER DUP7 PUSH1 0x20 ADD MLOAD PUSH1 0x40 MLOAD DUP5 PUSH4 0xFFFFFFFF AND PUSH1 0xE0 SHL DUP2 MSTORE PUSH1 0x4 ADD PUSH2 0xACD SWAP4 SWAP3 SWAP2 SWAP1 PUSH2 0x2804 JUMP JUMPDEST PUSH0 PUSH1 0x40 MLOAD DUP1 DUP4 SUB DUP2 PUSH0 DUP8 DUP1 EXTCODESIZE ISZERO DUP1 ISZERO PUSH2 0xAE4 JUMPI PUSH0 DUP1 REVERT JUMPDEST POP GAS CALL ISZERO DUP1 ISZERO PUSH2 0xAF6 JUMPI RETURNDATASIZE PUSH0 DUP1 RETURNDATACOPY RETURNDATASIZE PUSH0 REVERT JUMPDEST POP POP POP POP CALLER PUSH20 0xFFFFFFFFFFFFFFFFFFFFFFFFFFFFFFFFFFFFFFFF AND DUP5 PUSH32 0xE29B93709A7AC5E91A6057482D1DF985483725988417E08DEC23377234003C80 DUP6 PUSH1 0x20 ADD MLOAD DUP7 PUSH1 0x40 ADD MLOAD TIMESTAMP PUSH1 0x40 MLOAD PUSH2 0xB4D SWAP4 SWAP3 SWAP2 SWAP1 PUSH2 0x2839 JUMP JUMPDEST PUSH1 0x40 MLOAD DUP1 SWAP2 SUB SWAP1 LOG3 POP POP POP POP JUMP JUMPDEST PUSH32 0x0 PUSH20 0xFFFFFFFFFFFFFFFFFFFFFFFFFFFFFFFFFFFFFFFF AND CALLER PUSH20 0xFFFFFFFFFFFFFFFFFFFFFFFFFFFFFFFFFFFFFFFF AND EQ PUSH2 0xBEB JUMPI CALLER PUSH1 0x40 MLOAD PUSH32 0x245AECD300000000000000000000000000000000000000000000000000000000 DUP2 MSTORE PUSH1 0x4 ADD PUSH2 0xBE2 SWAP2 SWAP1 PUSH2 0x286E JUMP JUMPDEST PUSH1 0x40 MLOAD DUP1 SWAP2 SUB SWAP1 REVERT JUMPDEST PUSH0 PUSH1 0x5 PUSH0 CALLER PUSH20 0xFFFFFFFFFFFFFFFFFFFFFFFFFFFFFFFFFFFFFFFF AND PUSH20 0xFFFFFFFFFFFFFFFFFFFFFFFFFFFFFFFFFFFFFFFF AND DUP2 MSTORE PUSH1 0x20 ADD SWAP1 DUP2 MSTORE PUSH1 0x20 ADD PUSH0 KECCAK256 SLOAD SWAP1 POP PUSH0 DUP2 SUB PUSH2 0xC65 JUMPI PUSH1 0x40 MLOAD PUSH32 0x81B5AD6800000000000000000000000000000000000000000000000000000000 DUP2 MSTORE PUSH1 0x4 ADD PUSH1 0x40 MLOAD DUP1 SWAP2 SUB SWAP1 REVERT JUMPDEST PUSH0 PUSH1 0x5 PUSH0 CALLER PUSH20 0xFFFFFFFFFFFFFFFFFFFFFFFFFFFFFFFFFFFFFFFF AND PUSH20 0xFFFFFFFFFFFFFFFFFFFFFFFFFFFFFFFFFFFFFFFF AND DUP2 MSTORE PUSH1 0x20 ADD SWAP1 DUP2 MSTORE PUSH1 0x20 ADD PUSH0 KECCAK256 DUP2 SWAP1 SSTORE POP PUSH0 CALLER PUSH20 0xFFFFFFFFFFFFFFFFFFFFFFFFFFFFFFFFFFFFFFFF AND DUP3 PUSH1 0x40 MLOAD PUSH2 0xCCC SWAP1 PUSH2 0x28B4 JUMP JUMPDEST PUSH0 PUSH1 0x40 MLOAD DUP1 DUP4 SUB DUP2 DUP6 DUP8 GAS CALL SWAP3 POP POP POP RETURNDATASIZE DUP1 PUSH0 DUP2 EQ PUSH2 0xD06 JUMPI PUSH1 0x40 MLOAD SWAP2 POP PUSH1 0x1F NOT PUSH1 0x3F RETURNDATASIZE ADD AND DUP3 ADD PUSH1 0x40 MSTORE RETURNDATASIZE DUP3 MSTORE RETURNDATASIZE PUSH0 PUSH1 0x20 DUP5 ADD RETURNDATACOPY PUSH2 0xD0B JUMP JUMPDEST PUSH1 0x60 SWAP2 POP JUMPDEST POP POP SWAP1 POP DUP1 PUSH2 0xD4F JUMPI PUSH1 0x40 MLOAD PUSH32 0x8C379A000000000000000000000000000000000000000000000000000000000 DUP2 MSTORE PUSH1 0x4 ADD PUSH2 0xD46 SWAP1 PUSH2 0x2912 JUMP JUMPDEST PUSH1 0x40 MLOAD DUP1 SWAP2 SUB SWAP1 REVERT JUMPDEST CALLER PUSH20 0xFFFFFFFFFFFFFFFFFFFFFFFFFFFFFFFFFFFFFFFF AND PUSH32 0x6141B54B56B8A52A8C6F5CD2A857F6117B18FFBF4D46BD3106F300A839CBF5EA DUP4 PUSH1 0x40 MLOAD PUSH2 0xD95 SWAP2 SWAP1 PUSH2 0x1FF7 JUMP JUMPDEST PUSH1 0x40 MLOAD DUP1 SWAP2 SUB SWAP1 LOG2 POP POP JUMP JUMPDEST PUSH1 0x2 DUP1 SLOAD PUSH2 0xDAE SWAP1 PUSH2 0x295D JUMP JUMPDEST DUP1 PUSH1 0x1F ADD PUSH1 0x20 DUP1 SWAP2 DIV MUL PUSH1 0x20 ADD PUSH1 0x40 MLOAD SWAP1 DUP2 ADD PUSH1 0x40 MSTORE DUP1 SWAP3 SWAP2 SWAP1 DUP2 DUP2 MSTORE PUSH1 0x20 ADD DUP3 DUP1 SLOAD PUSH2 0xDDA SWAP1 PUSH2 0x295D JUMP JUMPDEST DUP1 ISZERO PUSH2 0xE25 JUMPI DUP1 PUSH1 0x1F LT PUSH2 0xDFC JUMPI PUSH2 0x100 DUP1 DUP4 SLOAD DIV MUL DUP4 MSTORE SWAP2 PUSH1 0x20 ADD SWAP2 PUSH2 0xE25 JUMP JUMPDEST DUP3 ADD SWAP2 SWAP1 PUSH0 MSTORE PUSH1 0x20 PUSH0 KECCAK256 SWAP1 JUMPDEST DUP2 SLOAD DUP2 MSTORE SWAP1 PUSH1 0x1 ADD SWAP1 PUSH1 0x20 ADD DUP1 DUP4 GT PUSH2 0xE08 JUMPI DUP3 SWAP1 SUB PUSH1 0x1F AND DUP3 ADD SWAP2 JUMPDEST POP POP POP POP POP DUP2 JUMP JUMPDEST PUSH0 PUSH32 0x0 PUSH20 0xFFFFFFFFFFFFFFFFFFFFFFFFFFFFFFFFFFFFFFFF AND PUSH4 0x2F745C59 DUP5 DUP5 PUSH1 0x40 MLOAD DUP4 PUSH4 0xFFFFFFFF AND PUSH1 0xE0 SHL DUP2 MSTORE PUSH1 0x4 ADD PUSH2 0xE89 SWAP3 SWAP2 SWAP1 PUSH2 0x298D JUMP JUMPDEST PUSH1 0x20 PUSH1 0x40 MLOAD DUP1 DUP4 SUB DUP2 DUP7 GAS STATICCALL ISZERO DUP1 ISZERO PUSH2 0xEA4 JUMPI RETURNDATASIZE PUSH0 DUP1 RETURNDATACOPY RETURNDATASIZE PUSH0 REVERT JUMPDEST POP POP POP POP PUSH1 0x40 MLOAD RETURNDATASIZE PUSH1 0x1F NOT PUSH1 0x1F DUP3 ADD AND DUP3 ADD DUP1 PUSH1 0x40 MSTORE POP DUP2 ADD SWAP1 PUSH2 0xEC8 SWAP2 SWAP1 PUSH2 0x29C8 JUMP JUMPDEST SWAP1 POP SWAP3 SWAP2 POP POP JUMP JUMPDEST PUSH0 PUSH1 0x3 PUSH0 DUP4 DUP2 MSTORE PUSH1 0x20 ADD SWAP1 DUP2 MSTORE PUSH1 0x20 ADD PUSH0 KECCAK256 SWAP1 POP DUP1 PUSH1 0x3 ADD PUSH0 SWAP1 SLOAD SWAP1 PUSH2 0x100 EXP SWAP1 DIV PUSH1 0xFF AND PUSH2 0xF2B JUMPI PUSH1 0x40 MLOAD PUSH32 0x80CB55E200000000000000000000000000000000000000000000000000000000 DUP2 MSTORE PUSH1 0x4 ADD PUSH1 0x40 MLOAD DUP1 SWAP2 SUB SWAP1 REVERT JUMPDEST CALLER PUSH20 0xFFFFFFFFFFFFFFFFFFFFFFFFFFFFFFFFFFFFFFFF AND DUP2 PUSH0 ADD PUSH0 SWAP1 SLOAD SWAP1 PUSH2 0x100 EXP SWAP1 DIV PUSH20 0xFFFFFFFFFFFFFFFFFFFFFFFFFFFFFFFFFFFFFFFF AND PUSH20 0xFFFFFFFFFFFFFFFFFFFFFFFFFFFFFFFFFFFFFFFF AND EQ PUSH2 0xFDF JUMPI DUP1 PUSH0 ADD PUSH0 SWAP1 SLOAD SWAP1 PUSH2 0x100 EXP SWAP1 DIV PUSH20 0xFFFFFFFFFFFFFFFFFFFFFFFFFFFFFFFFFFFFFFFF AND PUSH1 0x40 MLOAD PUSH32 0xE38D022A00000000000000000000000000000000000000000000000000000000 DUP2 MSTORE PUSH1 0x4 ADD PUSH2 0xFD6 SWAP2 SWAP1 PUSH2 0x286E JUMP JUMPDEST PUSH1 0x40 MLOAD DUP1 SWAP2 SUB SWAP1 REVERT JUMPDEST PUSH0 DUP2 PUSH1 0x3 ADD PUSH0 PUSH2 0x100 EXP DUP2 SLOAD DUP2 PUSH1 0xFF MUL NOT AND SWAP1 DUP4 ISZERO ISZERO MUL OR SWAP1 SSTORE POP PUSH1 0x4 PUSH0 DUP3 PUSH1 0x1 ADD SLOAD DUP2 MSTORE PUSH1 0x20 ADD SWAP1 DUP2 MSTORE PUSH1 0x20 ADD PUSH0 KECCAK256 PUSH0 SWAP1 SSTORE CALLER PUSH20 0xFFFFFFFFFFFFFFFFFFFFFFFFFFFFFFFFFFFFFFFF AND DUP3 PUSH32 0x8E25282255AB31897DF2B0456BB993AC7F84D376861AEFD84901D2D63A7428A2 PUSH1 0x40 MLOAD PUSH1 0x40 MLOAD DUP1 SWAP2 SUB SWAP1 LOG3 POP POP JUMP JUMPDEST PUSH32 0x0 PUSH20 0xFFFFFFFFFFFFFFFFFFFFFFFFFFFFFFFFFFFFFFFF AND CALLER PUSH20 0xFFFFFFFFFFFFFFFFFFFFFFFFFFFFFFFFFFFFFFFF AND EQ PUSH2 0x10EA JUMPI CALLER PUSH1 0x40 MLOAD PUSH32 0x245AECD300000000000000000000000000000000000000000000000000000000 DUP2 MSTORE PUSH1 0x4 ADD PUSH2 0x10E1 SWAP2 SWAP1 PUSH2 0x286E JUMP JUMPDEST PUSH1 0x40 MLOAD DUP1 SWAP2 SUB SWAP1 REVERT JUMPDEST PUSH2 0x1388 DUP2 GT ISZERO PUSH2 0x112F JUMPI PUSH1 0x40 MLOAD PUSH32 0x8C379A000000000000000000000000000000000000000000000000000000000 DUP2 MSTORE PUSH1 0x4 ADD PUSH2 0x1126 SWAP1 PUSH2 0x2A3D JUMP JUMPDEST PUSH1 0x40 MLOAD DUP1 SWAP2 SUB SWAP1 REVERT JUMPDEST DUP1 PUSH1 0x1 DUP2 SWAP1 SSTORE POP PUSH32 0x13F60DD2B588490608C3FF1932A3DAEB4087F3D5AF04B97E5C2A16B5B4C0302E DUP2 PUSH1 0x40 MLOAD PUSH2 0x1165 SWAP2 SWAP1 PUSH2 0x1FF7 JUMP JUMPDEST PUSH1 0x40 MLOAD DUP1 SWAP2 SUB SWAP1 LOG1 POP JUMP JUMPDEST PUSH32 0x0 DUP2 JUMP JUMPDEST PUSH1 0x1 SLOAD DUP2 JUMP JUMPDEST PUSH32 0x0 DUP2 JUMP JUMPDEST PUSH0 DUP1 PUSH1 0x4 PUSH0 DUP5 DUP2 MSTORE PUSH1 0x20 ADD SWAP1 DUP2 MSTORE PUSH1 0x20 ADD PUSH0 KECCAK256 SLOAD SWAP1 POP PUSH1 0x3 PUSH0 DUP3 DUP2 MSTORE PUSH1 0x20 ADD SWAP1 DUP2 MSTORE PUSH1 0x20 ADD PUSH0 KECCAK256 PUSH1 0x3 ADD PUSH0 SWAP1 SLOAD SWAP1 PUSH2 0x100 EXP SWAP1 DIV PUSH1 0xFF AND SWAP2 POP POP SWAP2 SWAP1 POP JUMP JUMPDEST PUSH0 DUP1 SLOAD SWAP1 POP PUSH0 DUP4 PUSH16 0xFFFFFFFFFFFFFFFFFFFFFFFFFFFFFFFF AND GT PUSH2 0x1256 JUMPI PUSH1 0x40 MLOAD PUSH32 0x8C379A000000000000000000000000000000000000000000000000000000000 DUP2 MSTORE PUSH1 0x4 ADD PUSH2 0x124D SWAP1 PUSH2 0x2AA5 JUMP JUMPDEST PUSH1 0x40 MLOAD DUP1 SWAP2 SUB SWAP1 REVERT JUMPDEST PUSH0 PUSH32 0x0 PUSH20 0xFFFFFFFFFFFFFFFFFFFFFFFFFFFFFFFFFFFFFFFF AND PUSH4 0x6352211E DUP4 PUSH1 0x40 MLOAD DUP3 PUSH4 0xFFFFFFFF AND PUSH1 0xE0 SHL DUP2 MSTORE PUSH1 0x4 ADD PUSH2 0x12B0 SWAP2 SWAP1 PUSH2 0x1FF7 JUMP JUMPDEST PUSH1 0x20 PUSH1 0x40 MLOAD DUP1 DUP4 SUB DUP2 DUP7 GAS STATICCALL ISZERO DUP1 ISZERO PUSH2 0x12CB JUMPI RETURNDATASIZE PUSH0 DUP1 RETURNDATACOPY RETURNDATASIZE PUSH0 REVERT JUMPDEST POP POP POP POP PUSH1 0x40 MLOAD RETURNDATASIZE PUSH1 0x1F NOT PUSH1 0x1F DUP3 ADD AND DUP3 ADD DUP1 PUSH1 0x40 MSTORE POP DUP2 ADD SWAP1 PUSH2 0x12EF SWAP2 SWAP1 PUSH2 0x265A JUMP JUMPDEST SWAP1 POP CALLER PUSH20 0xFFFFFFFFFFFFFFFFFFFFFFFFFFFFFFFFFFFFFFFF AND DUP2 PUSH20 0xFFFFFFFFFFFFFFFFFFFFFFFFFFFFFFFFFFFFFFFF AND EQ PUSH2 0x1361 JUMPI DUP1 PUSH1 0x40 MLOAD PUSH32 0x928730CC00000000000000000000000000000000000000000000000000000000 DUP2 MSTORE PUSH1 0x4 ADD PUSH2 0x1358 SWAP2 SWAP1 PUSH2 0x286E JUMP JUMPDEST PUSH1 0x40 MLOAD DUP1 SWAP2 SUB SWAP1 REVERT JUMPDEST PUSH32 0x0 PUSH20 0xFFFFFFFFFFFFFFFFFFFFFFFFFFFFFFFFFFFFFFFF AND PUSH4 0xE985E9C5 CALLER ADDRESS PUSH1 0x40 MLOAD DUP4 PUSH4 0xFFFFFFFF AND PUSH1 0xE0 SHL DUP2 MSTORE PUSH1 0x4 ADD PUSH2 0x13BC SWAP3 SWAP2 SWAP1 PUSH2 0x26ED JUMP JUMPDEST PUSH1 0x20 PUSH1 0x40 MLOAD DUP1 DUP4 SUB DUP2 DUP7 GAS STATICCALL ISZERO DUP1 ISZERO PUSH2 0x13D7 JUMPI RETURNDATASIZE PUSH0 DUP1 RETURNDATACOPY RETURNDATASIZE PUSH0 REVERT JUMPDEST POP POP POP POP PUSH1 0x40 MLOAD RETURNDATASIZE PUSH1 0x1F NOT PUSH1 0x1F DUP3 ADD AND DUP3 ADD DUP1 PUSH1 0x40 MSTORE POP DUP2 ADD SWAP1 PUSH2 0x13FB SWAP2 SWAP1 PUSH2 0x273E JUMP JUMPDEST ISZERO DUP1 ISZERO PUSH2 0x14CB JUMPI POP ADDRESS PUSH20 0xFFFFFFFFFFFFFFFFFFFFFFFFFFFFFFFFFFFFFFFF AND PUSH32 0x0 PUSH20 0xFFFFFFFFFFFFFFFFFFFFFFFFFFFFFFFFFFFFFFFF AND PUSH4 0x81812FC DUP5 PUSH1 0x40 MLOAD DUP3 PUSH4 0xFFFFFFFF AND PUSH1 0xE0 SHL DUP2 MSTORE PUSH1 0x4 ADD PUSH2 0x1473 SWAP2 SWAP1 PUSH2 0x1FF7 JUMP JUMPDEST PUSH1 0x20 PUSH1 0x40 MLOAD DUP1 DUP4 SUB DUP2 DUP7 GAS STATICCALL ISZERO DUP1 ISZERO PUSH2 0x148E JUMPI RETURNDATASIZE PUSH0 DUP1 RETURNDATACOPY RETURNDATASIZE PUSH0 REVERT JUMPDEST POP POP POP POP PUSH1 0x40 MLOAD RETURNDATASIZE PUSH1 0x1F NOT PUSH1 0x1F DUP3 ADD AND DUP3 ADD DUP1 PUSH1 0x40 MSTORE POP DUP2 ADD SWAP1 PUSH2 0x14B2 SWAP2 SWAP1 PUSH2 0x265A JUMP JUMPDEST PUSH20 0xFFFFFFFFFFFFFFFFFFFFFFFFFFFFFFFFFFFFFFFF AND EQ ISZERO JUMPDEST ISZERO PUSH2 0x1502 JUMPI PUSH1 0x40 MLOAD PUSH32 0xC19F17A900000000000000000000000000000000000000000000000000000000 DUP2 MSTORE PUSH1 0x4 ADD PUSH1 0x40 MLOAD DUP1 SWAP2 SUB SWAP1 REVERT JUMPDEST PUSH0 PUSH1 0x4 PUSH0 DUP5 DUP2 MSTORE PUSH1 0x20 ADD SWAP1 DUP2 MSTORE PUSH1 0x20 ADD PUSH0 KECCAK256 SLOAD EQ PUSH2 0x154C JUMPI PUSH1 0x40 MLOAD PUSH32 0xA3D582EC00000000000000000000000000000000000000000000000000000000 DUP2 MSTORE PUSH1 0x4 ADD PUSH1 0x40 MLOAD DUP1 SWAP2 SUB SWAP1 REVERT JUMPDEST PUSH0 DUP3 CALLER TIMESTAMP PUSH1 0x40 MLOAD PUSH1 0x20 ADD PUSH2 0x1562 SWAP4 SWAP3 SWAP2 SWAP1 PUSH2 0x2B28 JUMP JUMPDEST PUSH1 0x40 MLOAD PUSH1 0x20 DUP2 DUP4 SUB SUB DUP2 MSTORE SWAP1 PUSH1 0x40 MSTORE DUP1 MLOAD SWAP1 PUSH1 0x20 ADD KECCAK256 PUSH0 SHR SWAP1 POP PUSH1 0x40 MLOAD DUP1 PUSH1 0x80 ADD PUSH1 0x40 MSTORE DUP1 CALLER PUSH20 0xFFFFFFFFFFFFFFFFFFFFFFFFFFFFFFFFFFFFFFFF AND DUP2 MSTORE PUSH1 0x20 ADD DUP5 DUP2 MSTORE PUSH1 0x20 ADD DUP7 PUSH16 0xFFFFFFFFFFFFFFFFFFFFFFFFFFFFFFFF AND DUP2 MSTORE PUSH1 0x20 ADD PUSH1 0x1 ISZERO ISZERO DUP2 MSTORE POP PUSH1 0x3 PUSH0 DUP4 DUP2 MSTORE PUSH1 0x20 ADD SWAP1 DUP2 MSTORE PUSH1 0x20 ADD PUSH0 KECCAK256 PUSH0 DUP3 ADD MLOAD DUP2 PUSH0 ADD PUSH0 PUSH2 0x100 EXP DUP2 SLOAD DUP2 PUSH20 0xFFFFFFFFFFFFFFFFFFFFFFFFFFFFFFFFFFFFFFFF MUL NOT AND SWAP1 DUP4 PUSH20 0xFFFFFFFFFFFFFFFFFFFFFFFFFFFFFFFFFFFFFFFF AND MUL OR SWAP1 SSTORE POP PUSH1 0x20 DUP3 ADD MLOAD DUP2 PUSH1 0x1 ADD SSTORE PUSH1 0x40 DUP3 ADD MLOAD DUP2 PUSH1 0x2 ADD SSTORE PUSH1 0x60 DUP3 ADD MLOAD DUP2 PUSH1 0x3 ADD PUSH0 PUSH2 0x100 EXP DUP2 SLOAD DUP2 PUSH1 0xFF MUL NOT AND SWAP1 DUP4 ISZERO ISZERO MUL OR SWAP1 SSTORE POP SWAP1 POP POP PUSH2 0x165D DUP4 DUP6 PUSH2 0x1E14 JUMP JUMPDEST DUP1 PUSH1 0x4 PUSH0 DUP6 DUP2 MSTORE PUSH1 0x20 ADD SWAP1 DUP2 MSTORE PUSH1 0x20 ADD PUSH0 KECCAK256 DUP2 SWAP1 SSTORE POP PUSH1 0x7 PUSH0 CALLER PUSH20 0xFFFFFFFFFFFFFFFFFFFFFFFFFFFFFFFFFFFFFFFF AND PUSH20 0xFFFFFFFFFFFFFFFFFFFFFFFFFFFFFFFFFFFFFFFF AND DUP2 MSTORE PUSH1 0x20 ADD SWAP1 DUP2 MSTORE PUSH1 0x20 ADD PUSH0 KECCAK256 PUSH1 0x3 PUSH0 DUP4 DUP2 MSTORE PUSH1 0x20 ADD SWAP1 DUP2 MSTORE PUSH1 0x20 ADD PUSH0 KECCAK256 SWAP1 DUP1 PUSH1 0x1 DUP2 SLOAD ADD DUP1 DUP3 SSTORE DUP1 SWAP2 POP POP PUSH1 0x1 SWAP1 SUB SWAP1 PUSH0 MSTORE PUSH1 0x20 PUSH0 KECCAK256 SWAP1 PUSH1 0x4 MUL ADD PUSH0 SWAP1 SWAP2 SWAP1 SWAP2 SWAP1 SWAP2 POP PUSH0 DUP3 ADD PUSH0 SWAP1 SLOAD SWAP1 PUSH2 0x100 EXP SWAP1 DIV PUSH20 0xFFFFFFFFFFFFFFFFFFFFFFFFFFFFFFFFFFFFFFFF AND DUP2 PUSH0 ADD PUSH0 PUSH2 0x100 EXP DUP2 SLOAD DUP2 PUSH20 0xFFFFFFFFFFFFFFFFFFFFFFFFFFFFFFFFFFFFFFFF MUL NOT AND SWAP1 DUP4 PUSH20 0xFFFFFFFFFFFFFFFFFFFFFFFFFFFFFFFFFFFFFFFF AND MUL OR SWAP1 SSTORE POP PUSH1 0x1 DUP3 ADD SLOAD DUP2 PUSH1 0x1 ADD SSTORE PUSH1 0x2 DUP3 ADD SLOAD DUP2 PUSH1 0x2 ADD SSTORE PUSH1 0x3 DUP3 ADD PUSH0 SWAP1 SLOAD SWAP1 PUSH2 0x100 EXP SWAP1 DIV PUSH1 0xFF AND DUP2 PUSH1 0x3 ADD PUSH0 PUSH2 0x100 EXP DUP2 SLOAD DUP2 PUSH1 0xFF MUL NOT AND SWAP1 DUP4 ISZERO ISZERO MUL OR SWAP1 SSTORE POP POP POP CALLER PUSH20 0xFFFFFFFFFFFFFFFFFFFFFFFFFFFFFFFFFFFFFFFF AND DUP2 PUSH32 0xA3941CFA07EECF2734875AB71CEA0E47395BE644DA6E17B039A7E29EFBA74EF9 DUP6 DUP9 TIMESTAMP PUSH1 0x40 MLOAD PUSH2 0x17D6 SWAP4 SWAP3 SWAP2 SWAP1 PUSH2 0x2B94 JUMP JUMPDEST PUSH1 0x40 MLOAD DUP1 SWAP2 SUB SWAP1 LOG3 POP POP POP POP POP JUMP JUMPDEST PUSH2 0x1388 DUP2 JUMP JUMPDEST PUSH1 0x60 PUSH0 PUSH1 0x6 PUSH0 DUP5 DUP2 MSTORE PUSH1 0x20 ADD SWAP1 DUP2 MSTORE PUSH1 0x20 ADD PUSH0 KECCAK256 DUP1 SLOAD PUSH2 0x180A SWAP1 PUSH2 0x295D JUMP JUMPDEST SWAP1 POP GT PUSH2 0x184C JUMPI PUSH1 0x40 MLOAD PUSH32 0x8C379A000000000000000000000000000000000000000000000000000000000 DUP2 MSTORE PUSH1 0x4 ADD PUSH2 0x1843 SWAP1 PUSH2 0x2C13 JUMP JUMPDEST PUSH1 0x40 MLOAD DUP1 SWAP2 SUB SWAP1 REVERT JUMPDEST PUSH1 0x6 PUSH0 DUP4 DUP2 MSTORE PUSH1 0x20 ADD SWAP1 DUP2 MSTORE PUSH1 0x20 ADD PUSH0 KECCAK256 PUSH1 0x40 MLOAD PUSH1 0x20 ADD PUSH2 0x186D SWAP2 SWAP1 PUSH2 0x2D17 JUMP JUMPDEST PUSH1 0x40 MLOAD PUSH1 0x20 DUP2 DUP4 SUB SUB DUP2 MSTORE SWAP1 PUSH1 0x40 MSTORE SWAP1 POP SWAP2 SWAP1 POP JUMP JUMPDEST PUSH0 PUSH1 0x4 PUSH0 DUP4 DUP2 MSTORE PUSH1 0x20 ADD SWAP1 DUP2 MSTORE PUSH1 0x20 ADD PUSH0 KECCAK256 SLOAD SWAP1 POP SWAP2 SWAP1 POP JUMP JUMPDEST PUSH0 SLOAD DUP2 JUMP JUMPDEST PUSH32 0x0 DUP2 JUMP JUMPDEST PUSH1 0x60 PUSH1 0x7 PUSH0 DUP4 PUSH20 0xFFFFFFFFFFFFFFFFFFFFFFFFFFFFFFFFFFFFFFFF AND PUSH20 0xFFFFFFFFFFFFFFFFFFFFFFFFFFFFFFFFFFFFFFFF AND DUP2 MSTORE PUSH1 0x20 ADD SWAP1 DUP2 MSTORE PUSH1 0x20 ADD PUSH0 KECCAK256 DUP1 SLOAD DUP1 PUSH1 0x20 MUL PUSH1 0x20 ADD PUSH1 0x40 MLOAD SWAP1 DUP2 ADD PUSH1 0x40 MSTORE DUP1 SWAP3 SWAP2 SWAP1 DUP2 DUP2 MSTORE PUSH1 0x20 ADD PUSH0 SWAP1 JUMPDEST DUP3 DUP3 LT ISZERO PUSH2 0x19D6 JUMPI DUP4 DUP3 SWAP1 PUSH0 MSTORE PUSH1 0x20 PUSH0 KECCAK256 SWAP1 PUSH1 0x4 MUL ADD PUSH1 0x40 MLOAD DUP1 PUSH1 0x80 ADD PUSH1 0x40 MSTORE SWAP1 DUP2 PUSH0 DUP3 ADD PUSH0 SWAP1 SLOAD SWAP1 PUSH2 0x100 EXP SWAP1 DIV PUSH20 0xFFFFFFFFFFFFFFFFFFFFFFFFFFFFFFFFFFFFFFFF AND PUSH20 0xFFFFFFFFFFFFFFFFFFFFFFFFFFFFFFFFFFFFFFFF AND PUSH20 0xFFFFFFFFFFFFFFFFFFFFFFFFFFFFFFFFFFFFFFFF AND DUP2 MSTORE PUSH1 0x20 ADD PUSH1 0x1 DUP3 ADD SLOAD DUP2 MSTORE PUSH1 0x20 ADD PUSH1 0x2 DUP3 ADD SLOAD DUP2 MSTORE PUSH1 0x20 ADD PUSH1 0x3 DUP3 ADD PUSH0 SWAP1 SLOAD SWAP1 PUSH2 0x100 EXP SWAP1 DIV PUSH1 0xFF AND ISZERO ISZERO ISZERO ISZERO DUP2 MSTORE POP POP DUP2 MSTORE PUSH1 0x20 ADD SWAP1 PUSH1 0x1 ADD SWAP1 PUSH2 0x1924 JUMP JUMPDEST POP POP POP POP SWAP1 POP SWAP2 SWAP1 POP JUMP JUMPDEST PUSH1 0x3 PUSH1 0x20 MSTORE DUP1 PUSH0 MSTORE PUSH1 0x40 PUSH0 KECCAK256 PUSH0 SWAP2 POP SWAP1 POP DUP1 PUSH0 ADD PUSH0 SWAP1 SLOAD SWAP1 PUSH2 0x100 EXP SWAP1 DIV PUSH20 0xFFFFFFFFFFFFFFFFFFFFFFFFFFFFFFFFFFFFFFFF AND SWAP1 DUP1 PUSH1 0x1 ADD SLOAD SWAP1 DUP1 PUSH1 0x2 ADD SLOAD SWAP1 DUP1 PUSH1 0x3 ADD PUSH0 SWAP1 SLOAD SWAP1 PUSH2 0x100 EXP SWAP1 DIV PUSH1 0xFF AND SWAP1 POP DUP5 JUMP JUMPDEST PUSH32 0x0 PUSH20 0xFFFFFFFFFFFFFFFFFFFFFFFFFFFFFFFFFFFFFFFF AND PUSH4 0x6352211E DUP3 PUSH1 0x40 MLOAD DUP3 PUSH4 0xFFFFFFFF AND PUSH1 0xE0 SHL DUP2 MSTORE PUSH1 0x4 ADD PUSH2 0x1A91 SWAP2 SWAP1 PUSH2 0x1FF7 JUMP JUMPDEST PUSH1 0x20 PUSH1 0x40 MLOAD DUP1 DUP4 SUB DUP2 DUP7 GAS STATICCALL ISZERO DUP1 ISZERO PUSH2 0x1AAC JUMPI RETURNDATASIZE PUSH0 DUP1 RETURNDATACOPY RETURNDATASIZE PUSH0 REVERT JUMPDEST POP POP POP POP PUSH1 0x40 MLOAD RETURNDATASIZE PUSH1 0x1F NOT PUSH1 0x1F DUP3 ADD AND DUP3 ADD DUP1 PUSH1 0x40 MSTORE POP DUP2 ADD SWAP1 PUSH2 0x1AD0 SWAP2 SWAP1 PUSH2 0x265A JUMP JUMPDEST PUSH20 0xFFFFFFFFFFFFFFFFFFFFFFFFFFFFFFFFFFFFFFFF AND CALLER PUSH20 0xFFFFFFFFFFFFFFFFFFFFFFFFFFFFFFFFFFFFFFFF AND EQ PUSH2 0x1B3F JUMPI CALLER PUSH1 0x40 MLOAD PUSH32 0x928730CC00000000000000000000000000000000000000000000000000000000 DUP2 MSTORE PUSH1 0x4 ADD PUSH2 0x1B36 SWAP2 SWAP1 PUSH2 0x286E JUMP JUMPDEST PUSH1 0x40 MLOAD DUP1 SWAP2 SUB SWAP1 REVERT JUMPDEST PUSH1 0x3 PUSH0 DUP3 DUP2 MSTORE PUSH1 0x20 ADD SWAP1 DUP2 MSTORE PUSH1 0x20 ADD PUSH0 KECCAK256 PUSH1 0x3 ADD PUSH0 SWAP1 SLOAD SWAP1 PUSH2 0x100 EXP SWAP1 DIV PUSH1 0xFF AND PUSH2 0x1B96 JUMPI PUSH1 0x40 MLOAD PUSH32 0x80CB55E200000000000000000000000000000000000000000000000000000000 DUP2 MSTORE PUSH1 0x4 ADD PUSH1 0x40 MLOAD DUP1 SWAP2 SUB SWAP1 REVERT JUMPDEST PUSH0 PUSH1 0x3 PUSH0 DUP4 DUP2 MSTORE PUSH1 0x20 ADD SWAP1 DUP2 MSTORE PUSH1 0x20 ADD PUSH0 KECCAK256 PUSH1 0x3 ADD PUSH0 PUSH2 0x100 EXP DUP2 SLOAD DUP2 PUSH1 0xFF MUL NOT AND SWAP1 DUP4 ISZERO ISZERO MUL OR SWAP1 SSTORE POP CALLER PUSH20 0xFFFFFFFFFFFFFFFFFFFFFFFFFFFFFFFFFFFFFFFF AND DUP2 PUSH32 0x25331CBADF10D7FDE7BA3CB8E4A9CEB748C5C0A5F37F23DA51CE1A4142FC8C00 TIMESTAMP PUSH1 0x40 MLOAD PUSH2 0x1C08 SWAP2 SWAP1 PUSH2 0x1FF7 JUMP JUMPDEST PUSH1 0x40 MLOAD DUP1 SWAP2 SUB SWAP1 LOG3 POP JUMP JUMPDEST PUSH1 0x5 PUSH1 0x20 MSTORE DUP1 PUSH0 MSTORE PUSH1 0x40 PUSH0 KECCAK256 PUSH0 SWAP2 POP SWAP1 POP SLOAD DUP2 JUMP JUMPDEST PUSH0 DUP2 GT PUSH2 0x1C6A JUMPI PUSH1 0x40 MLOAD PUSH32 0x8C379A000000000000000000000000000000000000000000000000000000000 DUP2 MSTORE PUSH1 0x4 ADD PUSH2 0x1C61 SWAP1 PUSH2 0x2D82 JUMP JUMPDEST PUSH1 0x40 MLOAD DUP1 SWAP2 SUB SWAP1 REVERT JUMPDEST PUSH1 0x5 PUSH0 CALLER PUSH20 0xFFFFFFFFFFFFFFFFFFFFFFFFFFFFFFFFFFFFFFFF AND PUSH20 0xFFFFFFFFFFFFFFFFFFFFFFFFFFFFFFFFFFFFFFFF AND DUP2 MSTORE PUSH1 0x20 ADD SWAP1 DUP2 MSTORE PUSH1 0x20 ADD PUSH0 KECCAK256 SLOAD DUP2 GT ISZERO PUSH2 0x1D2B JUMPI DUP1 PUSH1 0x5 PUSH0 CALLER PUSH20 0xFFFFFFFFFFFFFFFFFFFFFFFFFFFFFFFFFFFFFFFF AND PUSH20 0xFFFFFFFFFFFFFFFFFFFFFFFFFFFFFFFFFFFFFFFF AND DUP2 MSTORE PUSH1 0x20 ADD SWAP1 DUP2 MSTORE PUSH1 0x20 ADD PUSH0 KECCAK256 SLOAD PUSH1 0x40 MLOAD PUSH32 0x3EB8B5400000000000000000000000000000000000000000000000000000000 DUP2 MSTORE PUSH1 0x4 ADD PUSH2 0x1D22 SWAP3 SWAP2 SWAP1 PUSH2 0x2521 JUMP JUMPDEST PUSH1 0x40 MLOAD DUP1 SWAP2 SUB SWAP1 REVERT JUMPDEST DUP2 PUSH20 0xFFFFFFFFFFFFFFFFFFFFFFFFFFFFFFFFFFFFFFFF AND PUSH2 0x8FC DUP3 SWAP1 DUP2 ISZERO MUL SWAP1 PUSH1 0x40 MLOAD PUSH0 PUSH1 0x40 MLOAD DUP1 DUP4 SUB DUP2 DUP6 DUP9 DUP9 CALL SWAP4 POP POP POP POP ISZERO DUP1 ISZERO PUSH2 0x1D6E JUMPI RETURNDATASIZE PUSH0 DUP1 RETURNDATACOPY RETURNDATASIZE PUSH0 REVERT JUMPDEST POP DUP1 PUSH1 0x5 PUSH0 CALLER PUSH20 0xFFFFFFFFFFFFFFFFFFFFFFFFFFFFFFFFFFFFFFFF AND PUSH20 0xFFFFFFFFFFFFFFFFFFFFFFFFFFFFFFFFFFFFFFFF AND DUP2 MSTORE PUSH1 0x20 ADD SWAP1 DUP2 MSTORE PUSH1 0x20 ADD PUSH0 KECCAK256 PUSH0 DUP3 DUP3 SLOAD PUSH2 0x1DBB SWAP2 SWAP1 PUSH2 0x2613 JUMP JUMPDEST SWAP3 POP POP DUP2 SWAP1 SSTORE POP DUP2 PUSH20 0xFFFFFFFFFFFFFFFFFFFFFFFFFFFFFFFFFFFFFFFF AND PUSH32 0x6141B54B56B8A52A8C6F5CD2A857F6117B18FFBF4D46BD3106F300A839CBF5EA DUP3 PUSH1 0x40 MLOAD PUSH2 0x1E08 SWAP2 SWAP1 PUSH2 0x1FF7 JUMP JUMPDEST PUSH1 0x40 MLOAD DUP1 SWAP2 SUB SWAP1 LOG2 POP POP JUMP JUMPDEST DUP1 PUSH1 0x6 PUSH0 DUP5 DUP2 MSTORE PUSH1 0x20 ADD SWAP1 DUP2 MSTORE PUSH1 0x20 ADD PUSH0 KECCAK256 SWAP1 DUP2 PUSH2 0x1E32 SWAP2 SWAP1 PUSH2 0x2F22 JUMP JUMPDEST POP POP POP JUMP JUMPDEST PUSH0 PUSH1 0x40 MLOAD SWAP1 POP SWAP1 JUMP JUMPDEST PUSH0 DUP1 REVERT JUMPDEST PUSH0 DUP1 REVERT JUMPDEST PUSH0 DUP2 SWAP1 POP SWAP2 SWAP1 POP JUMP JUMPDEST PUSH2 0x1E5A DUP2 PUSH2 0x1E48 JUMP JUMPDEST DUP2 EQ PUSH2 0x1E64 JUMPI PUSH0 DUP1 REVERT JUMPDEST POP JUMP JUMPDEST PUSH0 DUP2 CALLDATALOAD SWAP1 POP PUSH2 0x1E75 DUP2 PUSH2 0x1E51 JUMP JUMPDEST SWAP3 SWAP2 POP POP JUMP JUMPDEST PUSH0 PUSH1 0x20 DUP3 DUP5 SUB SLT ISZERO PUSH2 0x1E90 JUMPI PUSH2 0x1E8F PUSH2 0x1E40 JUMP JUMPDEST JUMPDEST PUSH0 PUSH2 0x1E9D DUP5 DUP3 DUP6 ADD PUSH2 0x1E67 JUMP JUMPDEST SWAP2 POP POP SWAP3 SWAP2 POP POP JUMP JUMPDEST PUSH0 DUP2 MLOAD SWAP1 POP SWAP2 SWAP1 POP JUMP JUMPDEST PUSH0 DUP3 DUP3 MSTORE PUSH1 0x20 DUP3 ADD SWAP1 POP SWAP3 SWAP2 POP POP JUMP JUMPDEST PUSH0 JUMPDEST DUP4 DUP2 LT ISZERO PUSH2 0x1EDD JUMPI DUP1 DUP3 ADD MLOAD DUP2 DUP5 ADD MSTORE PUSH1 0x20 DUP2 ADD SWAP1 POP PUSH2 0x1EC2 JUMP JUMPDEST PUSH0 DUP5 DUP5 ADD MSTORE POP POP POP POP JUMP JUMPDEST PUSH0 PUSH1 0x1F NOT PUSH1 0x1F DUP4 ADD AND SWAP1 POP SWAP2 SWAP1 POP JUMP JUMPDEST PUSH0 PUSH2 0x1F02 DUP3 PUSH2 0x1EA6 JUMP JUMPDEST PUSH2 0x1F0C DUP2 DUP6 PUSH2 0x1EB0 JUMP JUMPDEST SWAP4 POP PUSH2 0x1F1C DUP2 DUP6 PUSH1 0x20 DUP7 ADD PUSH2 0x1EC0 JUMP JUMPDEST PUSH2 0x1F25 DUP2 PUSH2 0x1EE8 JUMP JUMPDEST DUP5 ADD SWAP2 POP POP SWAP3 SWAP2 POP POP JUMP JUMPDEST PUSH0 PUSH1 0x20 DUP3 ADD SWAP1 POP DUP2 DUP2 SUB PUSH0 DUP4 ADD MSTORE PUSH2 0x1F48 DUP2 DUP5 PUSH2 0x1EF8 JUMP JUMPDEST SWAP1 POP SWAP3 SWAP2 POP POP JUMP JUMPDEST PUSH0 PUSH20 0xFFFFFFFFFFFFFFFFFFFFFFFFFFFFFFFFFFFFFFFF DUP3 AND SWAP1 POP SWAP2 SWAP1 POP JUMP JUMPDEST PUSH0 PUSH2 0x1F79 DUP3 PUSH2 0x1F50 JUMP JUMPDEST SWAP1 POP SWAP2 SWAP1 POP JUMP JUMPDEST PUSH2 0x1F89 DUP2 PUSH2 0x1F6F JUMP JUMPDEST DUP2 EQ PUSH2 0x1F93 JUMPI PUSH0 DUP1 REVERT JUMPDEST POP JUMP JUMPDEST PUSH0 DUP2 CALLDATALOAD SWAP1 POP PUSH2 0x1FA4 DUP2 PUSH2 0x1F80 JUMP JUMPDEST SWAP3 SWAP2 POP POP JUMP JUMPDEST PUSH0 DUP1 PUSH1 0x40 DUP4 DUP6 SUB SLT ISZERO PUSH2 0x1FC0 JUMPI PUSH2 0x1FBF PUSH2 0x1E40 JUMP JUMPDEST JUMPDEST PUSH0 PUSH2 0x1FCD DUP6 DUP3 DUP7 ADD PUSH2 0x1F96 JUMP JUMPDEST SWAP3 POP POP PUSH1 0x20 PUSH2 0x1FDE DUP6 DUP3 DUP7 ADD PUSH2 0x1E67 JUMP JUMPDEST SWAP2 POP POP SWAP3 POP SWAP3 SWAP1 POP JUMP JUMPDEST PUSH2 0x1FF1 DUP2 PUSH2 0x1E48 JUMP JUMPDEST DUP3 MSTORE POP POP JUMP JUMPDEST PUSH0 PUSH1 0x20 DUP3 ADD SWAP1 POP PUSH2 0x200A PUSH0 DUP4 ADD DUP5 PUSH2 0x1FE8 JUMP JUMPDEST SWAP3 SWAP2 POP POP JUMP JUMPDEST PUSH0 DUP2 SWAP1 POP SWAP2 SWAP1 POP JUMP JUMPDEST PUSH0 PUSH2 0x2033 PUSH2 0x202E PUSH2 0x2029 DUP5 PUSH2 0x1F50 JUMP JUMPDEST PUSH2 0x2010 JUMP JUMPDEST PUSH2 0x1F50 JUMP JUMPDEST SWAP1 POP SWAP2 SWAP1 POP JUMP JUMPDEST PUSH0 PUSH2 0x2044 DUP3 PUSH2 0x2019 JUMP JUMPDEST SWAP1 POP SWAP2 SWAP1 POP JUMP JUMPDEST PUSH0 PUSH2 0x2055 DUP3 PUSH2 0x203A JUMP JUMPDEST SWAP1 POP SWAP2 SWAP1 POP JUMP JUMPDEST PUSH2 0x2065 DUP2 PUSH2 0x204B JUMP JUMPDEST DUP3 MSTORE POP POP JUMP JUMPDEST PUSH0 PUSH1 0x20 DUP3 ADD SWAP1 POP PUSH2 0x207E PUSH0 DUP4 ADD DUP5 PUSH2 0x205C JUMP JUMPDEST SWAP3 SWAP2 POP POP JUMP JUMPDEST PUSH0 PUSH2 0x208E DUP3 PUSH2 0x1F50 JUMP JUMPDEST SWAP1 POP SWAP2 SWAP1 POP JUMP JUMPDEST PUSH2 0x209E DUP2 PUSH2 0x2084 JUMP JUMPDEST DUP3 MSTORE POP POP JUMP JUMPDEST PUSH0 PUSH1 0x20 DUP3 ADD SWAP1 POP PUSH2 0x20B7 PUSH0 DUP4 ADD DUP5 PUSH2 0x2095 JUMP JUMPDEST SWAP3 SWAP2 POP POP JUMP JUMPDEST PUSH0 DUP2 ISZERO ISZERO SWAP1 POP SWAP2 SWAP1 POP JUMP JUMPDEST PUSH2 0x20D1 DUP2 PUSH2 0x20BD JUMP JUMPDEST DUP3 MSTORE POP POP JUMP JUMPDEST PUSH0 PUSH1 0x20 DUP3 ADD SWAP1 POP PUSH2 0x20EA PUSH0 DUP4 ADD DUP5 PUSH2 0x20C8 JUMP JUMPDEST SWAP3 SWAP2 POP POP JUMP JUMPDEST PUSH0 PUSH16 0xFFFFFFFFFFFFFFFFFFFFFFFFFFFFFFFF DUP3 AND SWAP1 POP SWAP2 SWAP1 POP JUMP JUMPDEST PUSH2 0x2114 DUP2 PUSH2 0x20F0 JUMP JUMPDEST DUP2 EQ PUSH2 0x211E JUMPI PUSH0 DUP1 REVERT JUMPDEST POP JUMP JUMPDEST PUSH0 DUP2 CALLDATALOAD SWAP1 POP PUSH2 0x212F DUP2 PUSH2 0x210B JUMP JUMPDEST SWAP3 SWAP2 POP POP JUMP JUMPDEST PUSH0 DUP1 REVERT JUMPDEST PUSH0 DUP1 REVERT JUMPDEST PUSH32 0x4E487B7100000000000000000000000000000000000000000000000000000000 PUSH0 MSTORE PUSH1 0x41 PUSH1 0x4 MSTORE PUSH1 0x24 PUSH0 REVERT JUMPDEST PUSH2 0x2173 DUP3 PUSH2 0x1EE8 JUMP JUMPDEST DUP2 ADD DUP2 DUP2 LT PUSH8 0xFFFFFFFFFFFFFFFF DUP3 GT OR ISZERO PUSH2 0x2192 JUMPI PUSH2 0x2191 PUSH2 0x213D JUMP JUMPDEST JUMPDEST DUP1 PUSH1 0x40 MSTORE POP POP POP JUMP JUMPDEST PUSH0 PUSH2 0x21A4 PUSH2 0x1E37 JUMP JUMPDEST SWAP1 POP PUSH2 0x21B0 DUP3 DUP3 PUSH2 0x216A JUMP JUMPDEST SWAP2 SWAP1 POP JUMP JUMPDEST PUSH0 PUSH8 0xFFFFFFFFFFFFFFFF DUP3 GT ISZERO PUSH2 0x21CF JUMPI PUSH2 0x21CE PUSH2 0x213D JUMP JUMPDEST JUMPDEST PUSH2 0x21D8 DUP3 PUSH2 0x1EE8 JUMP JUMPDEST SWAP1 POP PUSH1 0x20 DUP2 ADD SWAP1 POP SWAP2 SWAP1 POP JUMP JUMPDEST DUP3 DUP2 DUP4 CALLDATACOPY PUSH0 DUP4 DUP4 ADD MSTORE POP POP POP JUMP JUMPDEST PUSH0 PUSH2 0x2205 PUSH2 0x2200 DUP5 PUSH2 0x21B5 JUMP JUMPDEST PUSH2 0x219B JUMP JUMPDEST SWAP1 POP DUP3 DUP2 MSTORE PUSH1 0x20 DUP2 ADD DUP5 DUP5 DUP5 ADD GT ISZERO PUSH2 0x2221 JUMPI PUSH2 0x2220 PUSH2 0x2139 JUMP JUMPDEST JUMPDEST PUSH2 0x222C DUP5 DUP3 DUP6 PUSH2 0x21E5 JUMP JUMPDEST POP SWAP4 SWAP3 POP POP POP JUMP JUMPDEST PUSH0 DUP3 PUSH1 0x1F DUP4 ADD SLT PUSH2 0x2248 JUMPI PUSH2 0x2247 PUSH2 0x2135 JUMP JUMPDEST JUMPDEST DUP2 CALLDATALOAD PUSH2 0x2258 DUP5 DUP3 PUSH1 0x20 DUP7 ADD PUSH2 0x21F3 JUMP JUMPDEST SWAP2 POP POP SWAP3 SWAP2 POP POP JUMP JUMPDEST PUSH0 DUP1 PUSH1 0x40 DUP4 DUP6 SUB SLT ISZERO PUSH2 0x2277 JUMPI PUSH2 0x2276 PUSH2 0x1E40 JUMP JUMPDEST JUMPDEST PUSH0 PUSH2 0x2284 DUP6 DUP3 DUP7 ADD PUSH2 0x2121 JUMP JUMPDEST SWAP3 POP POP PUSH1 0x20 DUP4 ADD CALLDATALOAD PUSH8 0xFFFFFFFFFFFFFFFF DUP2 GT ISZERO PUSH2 0x22A5 JUMPI PUSH2 0x22A4 PUSH2 0x1E44 JUMP JUMPDEST JUMPDEST PUSH2 0x22B1 DUP6 DUP3 DUP7 ADD PUSH2 0x2234 JUMP JUMPDEST SWAP2 POP POP SWAP3 POP SWAP3 SWAP1 POP JUMP JUMPDEST PUSH0 PUSH2 0x22C5 DUP3 PUSH2 0x203A JUMP JUMPDEST SWAP1 POP SWAP2 SWAP1 POP JUMP JUMPDEST PUSH2 0x22D5 DUP2 PUSH2 0x22BB JUMP JUMPDEST DUP3 MSTORE POP POP JUMP JUMPDEST PUSH0 PUSH1 0x20 DUP3 ADD SWAP1 POP PUSH2 0x22EE PUSH0 DUP4 ADD DUP5 PUSH2 0x22CC JUMP JUMPDEST SWAP3 SWAP2 POP POP JUMP JUMPDEST PUSH0 PUSH1 0x20 DUP3 DUP5 SUB SLT ISZERO PUSH2 0x2309 JUMPI PUSH2 0x2308 PUSH2 0x1E40 JUMP JUMPDEST JUMPDEST PUSH0 PUSH2 0x2316 DUP5 DUP3 DUP6 ADD PUSH2 0x1F96 JUMP JUMPDEST SWAP2 POP POP SWAP3 SWAP2 POP POP JUMP JUMPDEST PUSH0 DUP2 MLOAD SWAP1 POP SWAP2 SWAP1 POP JUMP JUMPDEST PUSH0 DUP3 DUP3 MSTORE PUSH1 0x20 DUP3 ADD SWAP1 POP SWAP3 SWAP2 POP POP JUMP JUMPDEST PUSH0 DUP2 SWAP1 POP PUSH1 0x20 DUP3 ADD SWAP1 POP SWAP2 SWAP1 POP JUMP JUMPDEST PUSH2 0x2351 DUP2 PUSH2 0x1F6F JUMP JUMPDEST DUP3 MSTORE POP POP JUMP JUMPDEST PUSH2 0x2360 DUP2 PUSH2 0x1E48 JUMP JUMPDEST DUP3 MSTORE POP POP JUMP JUMPDEST PUSH2 0x236F DUP2 PUSH2 0x20BD JUMP JUMPDEST DUP3 MSTORE POP POP JUMP JUMPDEST PUSH1 0x80 DUP3 ADD PUSH0 DUP3 ADD MLOAD PUSH2 0x2389 PUSH0 DUP6 ADD DUP3 PUSH2 0x2348 JUMP JUMPDEST POP PUSH1 0x20 DUP3 ADD MLOAD PUSH2 0x239C PUSH1 0x20 DUP6 ADD DUP3 PUSH2 0x2357 JUMP JUMPDEST POP PUSH1 0x40 DUP3 ADD MLOAD PUSH2 0x23AF PUSH1 0x40 DUP6 ADD DUP3 PUSH2 0x2357 JUMP JUMPDEST POP PUSH1 0x60 DUP3 ADD MLOAD PUSH2 0x23C2 PUSH1 0x60 DUP6 ADD DUP3 PUSH2 0x2366 JUMP JUMPDEST POP POP POP POP JUMP JUMPDEST PUSH0 PUSH2 0x23D3 DUP4 DUP4 PUSH2 0x2375 JUMP JUMPDEST PUSH1 0x80 DUP4 ADD SWAP1 POP SWAP3 SWAP2 POP POP JUMP JUMPDEST PUSH0 PUSH1 0x20 DUP3 ADD SWAP1 POP SWAP2 SWAP1 POP JUMP JUMPDEST PUSH0 PUSH2 0x23F5 DUP3 PUSH2 0x231F JUMP JUMPDEST PUSH2 0x23FF DUP2 DUP6 PUSH2 0x2329 JUMP JUMPDEST SWAP4 POP PUSH2 0x240A DUP4 PUSH2 0x2339 JUMP JUMPDEST DUP1 PUSH0 JUMPDEST DUP4 DUP2 LT ISZERO PUSH2 0x243A JUMPI DUP2 MLOAD PUSH2 0x2421 DUP9 DUP3 PUSH2 0x23C8 JUMP JUMPDEST SWAP8 POP PUSH2 0x242C DUP4 PUSH2 0x23DF JUMP JUMPDEST SWAP3 POP POP PUSH1 0x1 DUP2 ADD SWAP1 POP PUSH2 0x240D JUMP JUMPDEST POP DUP6 SWAP4 POP POP POP POP SWAP3 SWAP2 POP POP JUMP JUMPDEST PUSH0 PUSH1 0x20 DUP3 ADD SWAP1 POP DUP2 DUP2 SUB PUSH0 DUP4 ADD MSTORE PUSH2 0x245F DUP2 DUP5 PUSH2 0x23EB JUMP JUMPDEST SWAP1 POP SWAP3 SWAP2 POP POP JUMP JUMPDEST PUSH2 0x2470 DUP2 PUSH2 0x1F6F JUMP JUMPDEST DUP3 MSTORE POP POP JUMP JUMPDEST PUSH0 PUSH1 0x80 DUP3 ADD SWAP1 POP PUSH2 0x2489 PUSH0 DUP4 ADD DUP8 PUSH2 0x2467 JUMP JUMPDEST PUSH2 0x2496 PUSH1 0x20 DUP4 ADD DUP7 PUSH2 0x1FE8 JUMP JUMPDEST PUSH2 0x24A3 PUSH1 0x40 DUP4 ADD DUP6 PUSH2 0x1FE8 JUMP JUMPDEST PUSH2 0x24B0 PUSH1 0x60 DUP4 ADD DUP5 PUSH2 0x20C8 JUMP JUMPDEST SWAP6 SWAP5 POP POP POP POP POP JUMP JUMPDEST PUSH2 0x24C2 DUP2 PUSH2 0x2084 JUMP JUMPDEST DUP2 EQ PUSH2 0x24CC JUMPI PUSH0 DUP1 REVERT JUMPDEST POP JUMP JUMPDEST PUSH0 DUP2 CALLDATALOAD SWAP1 POP PUSH2 0x24DD DUP2 PUSH2 0x24B9 JUMP JUMPDEST SWAP3 SWAP2 POP POP JUMP JUMPDEST PUSH0 DUP1 PUSH1 0x40 DUP4 DUP6 SUB SLT ISZERO PUSH2 0x24F9 JUMPI PUSH2 0x24F8 PUSH2 0x1E40 JUMP JUMPDEST JUMPDEST PUSH0 PUSH2 0x2506 DUP6 DUP3 DUP7 ADD PUSH2 0x24CF JUMP JUMPDEST SWAP3 POP POP PUSH1 0x20 PUSH2 0x2517 DUP6 DUP3 DUP7 ADD PUSH2 0x1E67 JUMP JUMPDEST SWAP2 POP POP SWAP3 POP SWAP3 SWAP1 POP JUMP JUMPDEST PUSH0 PUSH1 0x40 DUP3 ADD SWAP1 POP PUSH2 0x2534 PUSH0 DUP4 ADD DUP6 PUSH2 0x1FE8 JUMP JUMPDEST PUSH2 0x2541 PUSH1 0x20 DUP4 ADD DUP5 PUSH2 0x1FE8 JUMP JUMPDEST SWAP4 SWAP3 POP POP POP JUMP JUMPDEST PUSH32 0x4E487B7100000000000000000000000000000000000000000000000000000000 PUSH0 MSTORE PUSH1 0x11 PUSH1 0x4 MSTORE PUSH1 0x24 PUSH0 REVERT JUMPDEST PUSH0 PUSH2 0x257F DUP3 PUSH2 0x1E48 JUMP JUMPDEST SWAP2 POP PUSH2 0x258A DUP4 PUSH2 0x1E48 JUMP JUMPDEST SWAP3 POP DUP3 DUP3 MUL PUSH2 0x2598 DUP2 PUSH2 0x1E48 JUMP JUMPDEST SWAP2 POP DUP3 DUP3 DIV DUP5 EQ DUP4 ISZERO OR PUSH2 0x25AF JUMPI PUSH2 0x25AE PUSH2 0x2548 JUMP JUMPDEST JUMPDEST POP SWAP3 SWAP2 POP POP JUMP JUMPDEST PUSH32 0x4E487B7100000000000000000000000000000000000000000000000000000000 PUSH0 MSTORE PUSH1 0x12 PUSH1 0x4 MSTORE PUSH1 0x24 PUSH0 REVERT JUMPDEST PUSH0 PUSH2 0x25ED DUP3 PUSH2 0x1E48 JUMP JUMPDEST SWAP2 POP PUSH2 0x25F8 DUP4 PUSH2 0x1E48 JUMP JUMPDEST SWAP3 POP DUP3 PUSH2 0x2608 JUMPI PUSH2 0x2607 PUSH2 0x25B6 JUMP JUMPDEST JUMPDEST DUP3 DUP3 DIV SWAP1 POP SWAP3 SWAP2 POP POP JUMP JUMPDEST PUSH0 PUSH2 0x261D DUP3 PUSH2 0x1E48 JUMP JUMPDEST SWAP2 POP PUSH2 0x2628 DUP4 PUSH2 0x1E48 JUMP JUMPDEST SWAP3 POP DUP3 DUP3 SUB SWAP1 POP DUP2 DUP2 GT ISZERO PUSH2 0x2640 JUMPI PUSH2 0x263F PUSH2 0x2548 JUMP JUMPDEST JUMPDEST SWAP3 SWAP2 POP POP JUMP JUMPDEST PUSH0 DUP2 MLOAD SWAP1 POP PUSH2 0x2654 DUP2 PUSH2 0x1F80 JUMP JUMPDEST SWAP3 SWAP2 POP POP JUMP JUMPDEST PUSH0 PUSH1 0x20 DUP3 DUP5 SUB SLT ISZERO PUSH2 0x266F JUMPI PUSH2 0x266E PUSH2 0x1E40 JUMP JUMPDEST JUMPDEST PUSH0 PUSH2 0x267C DUP5 DUP3 DUP6 ADD PUSH2 0x2646 JUMP JUMPDEST SWAP2 POP POP SWAP3 SWAP2 POP POP JUMP JUMPDEST PUSH32 0x53656C6C6572206E6F206C6F6E676572206F776E73204E465400000000000000 PUSH0 DUP3 ADD MSTORE POP JUMP JUMPDEST PUSH0 PUSH2 0x26B9 PUSH1 0x19 DUP4 PUSH2 0x1EB0 JUMP JUMPDEST SWAP2 POP PUSH2 0x26C4 DUP3 PUSH2 0x2685 JUMP JUMPDEST PUSH1 0x20 DUP3 ADD SWAP1 POP SWAP2 SWAP1 POP JUMP JUMPDEST PUSH0 PUSH1 0x20 DUP3 ADD SWAP1 POP DUP2 DUP2 SUB PUSH0 DUP4 ADD MSTORE PUSH2 0x26E6 DUP2 PUSH2 0x26AD JUMP JUMPDEST SWAP1 POP SWAP2 SWAP1 POP JUMP JUMPDEST PUSH0 PUSH1 0x40 DUP3 ADD SWAP1 POP PUSH2 0x2700 PUSH0 DUP4 ADD DUP6 PUSH2 0x2467 JUMP JUMPDEST PUSH2 0x270D PUSH1 0x20 DUP4 ADD DUP5 PUSH2 0x2467 JUMP JUMPDEST SWAP4 SWAP3 POP POP POP JUMP JUMPDEST PUSH2 0x271D DUP2 PUSH2 0x20BD JUMP JUMPDEST DUP2 EQ PUSH2 0x2727 JUMPI PUSH0 DUP1 REVERT JUMPDEST POP JUMP JUMPDEST PUSH0 DUP2 MLOAD SWAP1 POP PUSH2 0x2738 DUP2 PUSH2 0x2714 JUMP JUMPDEST SWAP3 SWAP2 POP POP JUMP JUMPDEST PUSH0 PUSH1 0x20 DUP3 DUP5 SUB SLT ISZERO PUSH2 0x2753 JUMPI PUSH2 0x2752 PUSH2 0x1E40 JUMP JUMPDEST JUMPDEST PUSH0 PUSH2 0x2760 DUP5 DUP3 DUP6 ADD PUSH2 0x272A JUMP JUMPDEST SWAP2 POP POP SWAP3 SWAP2 POP POP JUMP JUMPDEST PUSH32 0x4E6F7420617070726F7665640000000000000000000000000000000000000000 PUSH0 DUP3 ADD MSTORE POP JUMP JUMPDEST PUSH0 PUSH2 0x279D PUSH1 0xC DUP4 PUSH2 0x1EB0 JUMP JUMPDEST SWAP2 POP PUSH2 0x27A8 DUP3 PUSH2 0x2769 JUMP JUMPDEST PUSH1 0x20 DUP3 ADD SWAP1 POP SWAP2 SWAP1 POP JUMP JUMPDEST PUSH0 PUSH1 0x20 DUP3 ADD SWAP1 POP DUP2 DUP2 SUB PUSH0 DUP4 ADD MSTORE PUSH2 0x27CA DUP2 PUSH2 0x2791 JUMP JUMPDEST SWAP1 POP SWAP2 SWAP1 POP JUMP JUMPDEST PUSH0 PUSH2 0x27DB DUP3 PUSH2 0x1E48 JUMP JUMPDEST SWAP2 POP PUSH2 0x27E6 DUP4 PUSH2 0x1E48 JUMP JUMPDEST SWAP3 POP DUP3 DUP3 ADD SWAP1 POP DUP1 DUP3 GT ISZERO PUSH2 0x27FE JUMPI PUSH2 0x27FD PUSH2 0x2548 JUMP JUMPDEST JUMPDEST SWAP3 SWAP2 POP POP JUMP JUMPDEST PUSH0 PUSH1 0x60 DUP3 ADD SWAP1 POP PUSH2 0x2817 PUSH0 DUP4 ADD DUP7 PUSH2 0x2467 JUMP JUMPDEST PUSH2 0x2824 PUSH1 0x20 DUP4 ADD DUP6 PUSH2 0x2467 JUMP JUMPDEST PUSH2 0x2831 PUSH1 0x40 DUP4 ADD DUP5 PUSH2 0x1FE8 JUMP JUMPDEST SWAP5 SWAP4 POP POP POP POP JUMP JUMPDEST PUSH0 PUSH1 0x60 DUP3 ADD SWAP1 POP PUSH2 0x284C PUSH0 DUP4 ADD DUP7 PUSH2 0x1FE8 JUMP JUMPDEST PUSH2 0x2859 PUSH1 0x20 DUP4 ADD DUP6 PUSH2 0x1FE8 JUMP JUMPDEST PUSH2 0x2866 PUSH1 0x40 DUP4 ADD DUP5 PUSH2 0x1FE8 JUMP JUMPDEST SWAP5 SWAP4 POP POP POP POP JUMP JUMPDEST PUSH0 PUSH1 0x20 DUP3 ADD SWAP1 POP PUSH2 0x2881 PUSH0 DUP4 ADD DUP5 PUSH2 0x2467 JUMP JUMPDEST SWAP3 SWAP2 POP POP JUMP JUMPDEST PUSH0 DUP2 SWAP1 POP SWAP3 SWAP2 POP POP JUMP JUMPDEST POP JUMP JUMPDEST PUSH0 PUSH2 0x289F PUSH0 DUP4 PUSH2 0x2887 JUMP JUMPDEST SWAP2 POP PUSH2 0x28AA DUP3 PUSH2 0x2891 JUMP JUMPDEST PUSH0 DUP3 ADD SWAP1 POP SWAP2 SWAP1 POP JUMP JUMPDEST PUSH0 PUSH2 0x28BE DUP3 PUSH2 0x2894 JUMP JUMPDEST SWAP2 POP DUP2 SWAP1 POP SWAP2 SWAP1 POP JUMP JUMPDEST PUSH32 0x5472616E73666572206661696C65640000000000000000000000000000000000 PUSH0 DUP3 ADD MSTORE POP JUMP JUMPDEST PUSH0 PUSH2 0x28FC PUSH1 0xF DUP4 PUSH2 0x1EB0 JUMP JUMPDEST SWAP2 POP PUSH2 0x2907 DUP3 PUSH2 0x28C8 JUMP JUMPDEST PUSH1 0x20 DUP3 ADD SWAP1 POP SWAP2 SWAP1 POP JUMP JUMPDEST PUSH0 PUSH1 0x20 DUP3 ADD SWAP1 POP DUP2 DUP2 SUB PUSH0 DUP4 ADD MSTORE PUSH2 0x2929 DUP2 PUSH2 0x28F0 JUMP JUMPDEST SWAP1 POP SWAP2 SWAP1 POP JUMP JUMPDEST PUSH32 0x4E487B7100000000000000000000000000000000000000000000000000000000 PUSH0 MSTORE PUSH1 0x22 PUSH1 0x4 MSTORE PUSH1 0x24 PUSH0 REVERT JUMPDEST PUSH0 PUSH1 0x2 DUP3 DIV SWAP1 POP PUSH1 0x1 DUP3 AND DUP1 PUSH2 0x2974 JUMPI PUSH1 0x7F DUP3 AND SWAP2 POP JUMPDEST PUSH1 0x20 DUP3 LT DUP2 SUB PUSH2 0x2987 JUMPI PUSH2 0x2986 PUSH2 0x2930 JUMP JUMPDEST JUMPDEST POP SWAP2 SWAP1 POP JUMP JUMPDEST PUSH0 PUSH1 0x40 DUP3 ADD SWAP1 POP PUSH2 0x29A0 PUSH0 DUP4 ADD DUP6 PUSH2 0x2467 JUMP JUMPDEST PUSH2 0x29AD PUSH1 0x20 DUP4 ADD DUP5 PUSH2 0x1FE8 JUMP JUMPDEST SWAP4 SWAP3 POP POP POP JUMP JUMPDEST PUSH0 DUP2 MLOAD SWAP1 POP PUSH2 0x29C2 DUP2 PUSH2 0x1E51 JUMP JUMPDEST SWAP3 SWAP2 POP POP JUMP JUMPDEST PUSH0 PUSH1 0x20 DUP3 DUP5 SUB SLT ISZERO PUSH2 0x29DD JUMPI PUSH2 0x29DC PUSH2 0x1E40 JUMP JUMPDEST JUMPDEST PUSH0 PUSH2 0x29EA DUP5 DUP3 DUP6 ADD PUSH2 0x29B4 JUMP JUMPDEST SWAP2 POP POP SWAP3 SWAP2 POP POP JUMP JUMPDEST PUSH32 0x436F6D6D697373696F6E20746F6F206869676800000000000000000000000000 PUSH0 DUP3 ADD MSTORE POP JUMP JUMPDEST PUSH0 PUSH2 0x2A27 PUSH1 0x13 DUP4 PUSH2 0x1EB0 JUMP JUMPDEST SWAP2 POP PUSH2 0x2A32 DUP3 PUSH2 0x29F3 JUMP JUMPDEST PUSH1 0x20 DUP3 ADD SWAP1 POP SWAP2 SWAP1 POP JUMP JUMPDEST PUSH0 PUSH1 0x20 DUP3 ADD SWAP1 POP DUP2 DUP2 SUB PUSH0 DUP4 ADD MSTORE PUSH2 0x2A54 DUP2 PUSH2 0x2A1B JUMP JUMPDEST SWAP1 POP SWAP2 SWAP1 POP JUMP JUMPDEST PUSH32 0x5072696365206D757374206265203E2030000000000000000000000000000000 PUSH0 DUP3 ADD MSTORE POP JUMP JUMPDEST PUSH0 PUSH2 0x2A8F PUSH1 0x11 DUP4 PUSH2 0x1EB0 JUMP JUMPDEST SWAP2 POP PUSH2 0x2A9A DUP3 PUSH2 0x2A5B JUMP JUMPDEST PUSH1 0x20 DUP3 ADD SWAP1 POP SWAP2 SWAP1 POP JUMP JUMPDEST PUSH0 PUSH1 0x20 DUP3 ADD SWAP1 POP DUP2 DUP2 SUB PUSH0 DUP4 ADD MSTORE PUSH2 0x2ABC DUP2 PUSH2 0x2A83 JUMP JUMPDEST SWAP1 POP SWAP2 SWAP1 POP JUMP JUMPDEST PUSH0 DUP2 SWAP1 POP SWAP2 SWAP1 POP JUMP JUMPDEST PUSH2 0x2ADD PUSH2 0x2AD8 DUP3 PUSH2 0x1E48 JUMP JUMPDEST PUSH2 0x2AC3 JUMP JUMPDEST DUP3 MSTORE POP POP JUMP JUMPDEST PUSH0 DUP2 PUSH1 0x60 SHL SWAP1 POP SWAP2 SWAP1 POP JUMP JUMPDEST PUSH0 PUSH2 0x2AF9 DUP3 PUSH2 0x2AE3 JUMP JUMPDEST SWAP1 POP SWAP2 SWAP1 POP JUMP JUMPDEST PUSH0 PUSH2 0x2B0A DUP3 PUSH2 0x2AEF JUMP JUMPDEST SWAP1 POP SWAP2 SWAP1 POP JUMP JUMPDEST PUSH2 0x2B22 PUSH2 0x2B1D DUP3 PUSH2 0x1F6F JUMP JUMPDEST PUSH2 0x2B00 JUMP JUMPDEST DUP3 MSTORE POP POP JUMP JUMPDEST PUSH0 PUSH2 0x2B33 DUP3 DUP7 PUSH2 0x2ACC JUMP JUMPDEST PUSH1 0x20 DUP3 ADD SWAP2 POP PUSH2 0x2B43 DUP3 DUP6 PUSH2 0x2B11 JUMP JUMPDEST PUSH1 0x14 DUP3 ADD SWAP2 POP PUSH2 0x2B53 DUP3 DUP5 PUSH2 0x2ACC JUMP JUMPDEST PUSH1 0x20 DUP3 ADD SWAP2 POP DUP2 SWAP1 POP SWAP5 SWAP4 POP POP POP POP JUMP JUMPDEST PUSH0 PUSH2 0x2B7E PUSH2 0x2B79 PUSH2 0x2B74 DUP5 PUSH2 0x20F0 JUMP JUMPDEST PUSH2 0x2010 JUMP JUMPDEST PUSH2 0x1E48 JUMP JUMPDEST SWAP1 POP SWAP2 SWAP1 POP JUMP JUMPDEST PUSH2 0x2B8E DUP2 PUSH2 0x2B64 JUMP JUMPDEST DUP3 MSTORE POP POP JUMP JUMPDEST PUSH0 PUSH1 0x60 DUP3 ADD SWAP1 POP PUSH2 0x2BA7 PUSH0 DUP4 ADD DUP7 PUSH2 0x1FE8 JUMP JUMPDEST PUSH2 0x2BB4 PUSH1 0x20 DUP4 ADD DUP6 PUSH2 0x2B85 JUMP JUMPDEST PUSH2 0x2BC1 PUSH1 0x40 DUP4 ADD DUP5 PUSH2 0x1FE8 JUMP JUMPDEST SWAP5 SWAP4 POP POP POP POP JUMP JUMPDEST PUSH32 0x5552492073657420746F20746865206E756C6C20616464726573730000000000 PUSH0 DUP3 ADD MSTORE POP JUMP JUMPDEST PUSH0 PUSH2 0x2BFD PUSH1 0x1B DUP4 PUSH2 0x1EB0 JUMP JUMPDEST SWAP2 POP PUSH2 0x2C08 DUP3 PUSH2 0x2BC9 JUMP JUMPDEST PUSH1 0x20 DUP3 ADD SWAP1 POP SWAP2 SWAP1 POP JUMP JUMPDEST PUSH0 PUSH1 0x20 DUP3 ADD SWAP1 POP DUP2 DUP2 SUB PUSH0 DUP4 ADD MSTORE PUSH2 0x2C2A DUP2 PUSH2 0x2BF1 JUMP JUMPDEST SWAP1 POP SWAP2 SWAP1 POP JUMP JUMPDEST PUSH0 DUP2 SWAP1 POP SWAP3 SWAP2 POP POP JUMP JUMPDEST PUSH32 0x697066733A2F2F00000000000000000000000000000000000000000000000000 PUSH0 DUP3 ADD MSTORE POP JUMP JUMPDEST PUSH0 PUSH2 0x2C6F PUSH1 0x7 DUP4 PUSH2 0x2C31 JUMP JUMPDEST SWAP2 POP PUSH2 0x2C7A DUP3 PUSH2 0x2C3B JUMP JUMPDEST PUSH1 0x7 DUP3 ADD SWAP1 POP SWAP2 SWAP1 POP JUMP JUMPDEST PUSH0 DUP2 SWAP1 POP DUP2 PUSH0 MSTORE PUSH1 0x20 PUSH0 KECCAK256 SWAP1 POP SWAP2 SWAP1 POP JUMP JUMPDEST PUSH0 DUP2 SLOAD PUSH2 0x2CA3 DUP2 PUSH2 0x295D JUMP JUMPDEST PUSH2 0x2CAD DUP2 DUP7 PUSH2 0x2C31 JUMP JUMPDEST SWAP5 POP PUSH1 0x1 DUP3 AND PUSH0 DUP2 EQ PUSH2 0x2CC7 JUMPI PUSH1 0x1 DUP2 EQ PUSH2 0x2CDC JUMPI PUSH2 0x2D0E JUMP JUMPDEST PUSH1 0xFF NOT DUP4 AND DUP7 MSTORE DUP2 ISZERO ISZERO DUP3 MUL DUP7 ADD SWAP4 POP PUSH2 0x2D0E JUMP JUMPDEST PUSH2 0x2CE5 DUP6 PUSH2 0x2C85 JUMP JUMPDEST PUSH0 JUMPDEST DUP4 DUP2 LT ISZERO PUSH2 0x2D06 JUMPI DUP2 SLOAD DUP2 DUP10 ADD MSTORE PUSH1 0x1 DUP3 ADD SWAP2 POP PUSH1 0x20 DUP2 ADD SWAP1 POP PUSH2 0x2CE7 JUMP JUMPDEST DUP4 DUP9 ADD SWAP6 POP POP POP JUMPDEST POP POP POP SWAP3 SWAP2 POP POP JUMP JUMPDEST PUSH0 PUSH2 0x2D21 DUP3 PUSH2 0x2C63 JUMP JUMPDEST SWAP2 POP PUSH2 0x2D2D DUP3 DUP5 PUSH2 0x2C97 JUMP JUMPDEST SWAP2 POP DUP2 SWAP1 POP SWAP3 SWAP2 POP POP JUMP JUMPDEST PUSH32 0x416D6F756E74206D757374206265203E20300000000000000000000000000000 PUSH0 DUP3 ADD MSTORE POP JUMP JUMPDEST PUSH0 PUSH2 0x2D6C PUSH1 0x12 DUP4 PUSH2 0x1EB0 JUMP JUMPDEST SWAP2 POP PUSH2 0x2D77 DUP3 PUSH2 0x2D38 JUMP JUMPDEST PUSH1 0x20 DUP3 ADD SWAP1 POP SWAP2 SWAP1 POP JUMP JUMPDEST PUSH0 PUSH1 0x20 DUP3 ADD SWAP1 POP DUP2 DUP2 SUB PUSH0 DUP4 ADD MSTORE PUSH2 0x2D99 DUP2 PUSH2 0x2D60 JUMP JUMPDEST SWAP1 POP SWAP2 SWAP1 POP JUMP JUMPDEST PUSH0 PUSH1 0x20 PUSH1 0x1F DUP4 ADD DIV SWAP1 POP SWAP2 SWAP1 POP JUMP JUMPDEST PUSH0 DUP3 DUP3 SHL SWAP1 POP SWAP3 SWAP2 POP POP JUMP JUMPDEST PUSH0 PUSH1 0x8 DUP4 MUL PUSH2 0x2DEA PUSH32 0xFFFFFFFFFFFFFFFFFFFFFFFFFFFFFFFFFFFFFFFFFFFFFFFFFFFFFFFFFFFFFFFF DUP3 PUSH2 0x2DAF JUMP JUMPDEST PUSH2 0x2DF4 DUP7 DUP4 PUSH2 0x2DAF JUMP JUMPDEST SWAP6 POP DUP1 NOT DUP5 AND SWAP4 POP DUP1 DUP7 AND DUP5 OR SWAP3 POP POP POP SWAP4 SWAP3 POP POP POP JUMP JUMPDEST PUSH0 PUSH2 0x2E26 PUSH2 0x2E21 PUSH2 0x2E1C DUP5 PUSH2 0x1E48 JUMP JUMPDEST PUSH2 0x2010 JUMP JUMPDEST PUSH2 0x1E48 JUMP JUMPDEST SWAP1 POP SWAP2 SWAP1 POP JUMP JUMPDEST PUSH0 DUP2 SWAP1 POP SWAP2 SWAP1 POP JUMP JUMPDEST PUSH2 0x2E3F DUP4 PUSH2 0x2E0C JUMP JUMPDEST PUSH2 0x2E53 PUSH2 0x2E4B DUP3 PUSH2 0x2E2D JUMP JUMPDEST DUP5 DUP5 SLOAD PUSH2 0x2DBB JUMP JUMPDEST DUP3 SSTORE POP POP POP POP JUMP JUMPDEST PUSH0 SWAP1 JUMP JUMPDEST PUSH2 0x2E67 PUSH2 0x2E5B JUMP JUMPDEST PUSH2 0x2E72 DUP2 DUP5 DUP5 PUSH2 0x2E36 JUMP JUMPDEST POP POP POP JUMP JUMPDEST JUMPDEST DUP2 DUP2 LT ISZERO PUSH2 0x2E95 JUMPI PUSH2 0x2E8A PUSH0 DUP3 PUSH2 0x2E5F JUMP JUMPDEST PUSH1 0x1 DUP2 ADD SWAP1 POP PUSH2 0x2E78 JUMP JUMPDEST POP POP JUMP JUMPDEST PUSH1 0x1F DUP3 GT ISZERO PUSH2 0x2EDA JUMPI PUSH2 0x2EAB DUP2 PUSH2 0x2C85 JUMP JUMPDEST PUSH2 0x2EB4 DUP5 PUSH2 0x2DA0 JUMP JUMPDEST DUP2 ADD PUSH1 0x20 DUP6 LT ISZERO PUSH2 0x2EC3 JUMPI DUP2 SWAP1 POP JUMPDEST PUSH2 0x2ED7 PUSH2 0x2ECF DUP6 PUSH2 0x2DA0 JUMP JUMPDEST DUP4 ADD DUP3 PUSH2 0x2E77 JUMP JUMPDEST POP POP JUMPDEST POP POP POP JUMP JUMPDEST PUSH0 DUP3 DUP3 SHR SWAP1 POP SWAP3 SWAP2 POP POP JUMP JUMPDEST PUSH0 PUSH2 0x2EFA PUSH0 NOT DUP5 PUSH1 0x8 MUL PUSH2 0x2EDF JUMP JUMPDEST NOT DUP1 DUP4 AND SWAP2 POP POP SWAP3 SWAP2 POP POP JUMP JUMPDEST PUSH0 PUSH2 0x2F12 DUP4 DUP4 PUSH2 0x2EEB JUMP JUMPDEST SWAP2 POP DUP3 PUSH1 0x2 MUL DUP3 OR SWAP1 POP SWAP3 SWAP2 POP POP JUMP JUMPDEST PUSH2 0x2F2B DUP3 PUSH2 0x1EA6 JUMP JUMPDEST PUSH8 0xFFFFFFFFFFFFFFFF DUP2 GT ISZERO PUSH2 0x2F44 JUMPI PUSH2 0x2F43 PUSH2 0x213D JUMP JUMPDEST JUMPDEST PUSH2 0x2F4E DUP3 SLOAD PUSH2 0x295D JUMP JUMPDEST PUSH2 0x2F59 DUP3 DUP3 DUP6 PUSH2 0x2E99 JUMP JUMPDEST PUSH0 PUSH1 0x20 SWAP1 POP PUSH1 0x1F DUP4 GT PUSH1 0x1 DUP2 EQ PUSH2 0x2F8A JUMPI PUSH0 DUP5 ISZERO PUSH2 0x2F78 JUMPI DUP3 DUP8 ADD MLOAD SWAP1 POP JUMPDEST PUSH2 0x2F82 DUP6 DUP3 PUSH2 0x2F07 JUMP JUMPDEST DUP7 SSTORE POP PUSH2 0x2FE9 JUMP JUMPDEST PUSH1 0x1F NOT DUP5 AND PUSH2 0x2F98 DUP7 PUSH2 0x2C85 JUMP JUMPDEST PUSH0 JUMPDEST DUP3 DUP2 LT ISZERO PUSH2 0x2FBF JUMPI DUP5 DUP10 ADD MLOAD DUP3 SSTORE PUSH1 0x1 DUP3 ADD SWAP2 POP PUSH1 0x20 DUP6 ADD SWAP5 POP PUSH1 0x20 DUP2 ADD SWAP1 POP PUSH2 0x2F9A JUMP JUMPDEST DUP7 DUP4 LT ISZERO PUSH2 0x2FDC JUMPI DUP5 DUP10 ADD MLOAD PUSH2 0x2FD8 PUSH1 0x1F DUP10 AND DUP3 PUSH2 0x2EEB JUMP JUMPDEST DUP4 SSTORE POP JUMPDEST PUSH1 0x1 PUSH1 0x2 DUP9 MUL ADD DUP9 SSTORE POP POP POP JUMPDEST POP POP POP POP POP POP JUMP INVALID LOG2 PUSH5 0x6970667358 0x22 SLT KECCAK256 PUSH4 0x2CC9EB46 0xE9 PUSH27 0xFE0301FE78C06CDF952D1460A82A843804CAB84D49AE23A066473 PUSH16 0x6C634300081600330000000000000000 "
				},
				"gasEstimates": {
					"creation": {
						"codeDepositCost": "2465400",
						"executionCost": "infinite",
						"totalCost": "infinite"
					},
					"external": {
						"MAX_COMMISSION()": "370",
						"cancelListing(uint256)": "37932",
						"commissionPercent()": "2492",
						"createListing(uint128,string)": "infinite",
						"deleteListing(uint256)": "infinite",
						"fileHash()": "infinite",
						"getListingId(uint256)": "infinite",
						"getListingsBySeller(address)": "infinite",
						"isTokenListed(uint256)": "5116",
						"listings(uint256)": "infinite",
						"nftContract()": "infinite",
						"nftEnumerable()": "infinite",
						"owner()": "infinite",
						"pendingWithdrawals(address)": "2912",
						"purchaseListing(uint256)": "infinite",
						"setCommissionPercent(uint256)": "infinite",
						"tokenCounter()": "2535",
						"tokenOfOwnerByIndex(address,uint256)": "infinite",
						"tokenURI(uint256)": "infinite",
						"withdraw(address,uint256)": "infinite",
						"withdrawFunds()": "infinite"
					},
					"internal": {
						"_setTokenURI(uint256,string memory)": "infinite"
					}
				},
				"methodIdentifiers": {
					"MAX_COMMISSION()": "ae97dde8",
					"cancelListing(uint256)": "305a67a8",
					"commissionPercent()": "77d3550b",
					"createListing(uint128,string)": "ab473460",
					"deleteListing(uint256)": "e6282c6e",
					"fileHash()": "24c8c698",
					"getListingId(uint256)": "cc85a55b",
					"getListingsBySeller(address)": "d8cba251",
					"isTokenListed(uint256)": "9b83cddc",
					"listings(uint256)": "de74e57b",
					"nftContract()": "d56d229d",
					"nftEnumerable()": "51e61b25",
					"owner()": "8da5cb5b",
					"pendingWithdrawals(address)": "f3f43703",
					"purchaseListing(uint256)": "169d5a7d",
					"setCommissionPercent(uint256)": "404a9ab8",
					"tokenCounter()": "d082e381",
					"tokenOfOwnerByIndex(address,uint256)": "2f745c59",
					"tokenURI(uint256)": "c87b56dd",
					"withdraw(address,uint256)": "f3fef3a3",
					"withdrawFunds()": "24600fc3"
				}
			},
			"storageLayout": {
				"storage": [
					{
						"astId": 225,
						"contract": "contracts/Orders.sol:Marketplace",
						"label": "tokenCounter",
						"offset": 0,
						"slot": "0",
						"type": "t_uint256"
					},
					{
						"astId": 228,
						"contract": "contracts/Orders.sol:Marketplace",
						"label": "commissionPercent",
						"offset": 0,
						"slot": "1",
						"type": "t_uint256"
					},
					{
						"astId": 235,
						"contract": "contracts/Orders.sol:Marketplace",
						"label": "fileHash",
						"offset": 0,
						"slot": "2",
						"type": "t_string_storage"
					},
					{
						"astId": 241,
						"contract": "contracts/Orders.sol:Marketplace",
						"label": "listings",
						"offset": 0,
						"slot": "3",
						"type": "t_mapping(t_uint256,t_struct(Listing)219_storage)"
					},
					{
						"astId": 246,
						"contract": "contracts/Orders.sol:Marketplace",
						"label": "tokenToListingId",
						"offset": 0,
						"slot": "4",
						"type": "t_mapping(t_uint256,t_uint256)"
					},
					{
						"astId": 251,
						"contract": "contracts/Orders.sol:Marketplace",
						"label": "pendingWithdrawals",
						"offset": 0,
						"slot": "5",
						"type": "t_mapping(t_address,t_uint256)"
					},
					{
						"astId": 256,
						"contract": "contracts/Orders.sol:Marketplace",
						"label": "_tokenURIs",
						"offset": 0,
						"slot": "6",
						"type": "t_mapping(t_uint256,t_string_storage)"
					},
					{
						"astId": 271,
						"contract": "contracts/Orders.sol:Marketplace",
						"label": "sellerListings",
						"offset": 0,
						"slot": "7",
						"type": "t_mapping(t_address,t_array(t_struct(Listing)219_storage)dyn_storage)"
					}
				],
				"types": {
					"t_address": {
						"encoding": "inplace",
						"label": "address",
						"numberOfBytes": "20"
					},
					"t_array(t_struct(Listing)219_storage)dyn_storage": {
						"base": "t_struct(Listing)219_storage",
						"encoding": "dynamic_array",
						"label": "struct Marketplace.Listing[]",
						"numberOfBytes": "32"
					},
					"t_bool": {
						"encoding": "inplace",
						"label": "bool",
						"numberOfBytes": "1"
					},
					"t_mapping(t_address,t_array(t_struct(Listing)219_storage)dyn_storage)": {
						"encoding": "mapping",
						"key": "t_address",
						"label": "mapping(address => struct Marketplace.Listing[])",
						"numberOfBytes": "32",
						"value": "t_array(t_struct(Listing)219_storage)dyn_storage"
					},
					"t_mapping(t_address,t_uint256)": {
						"encoding": "mapping",
						"key": "t_address",
						"label": "mapping(address => uint256)",
						"numberOfBytes": "32",
						"value": "t_uint256"
					},
					"t_mapping(t_uint256,t_string_storage)": {
						"encoding": "mapping",
						"key": "t_uint256",
						"label": "mapping(uint256 => string)",
						"numberOfBytes": "32",
						"value": "t_string_storage"
					},
					"t_mapping(t_uint256,t_struct(Listing)219_storage)": {
						"encoding": "mapping",
						"key": "t_uint256",
						"label": "mapping(uint256 => struct Marketplace.Listing)",
						"numberOfBytes": "32",
						"value": "t_struct(Listing)219_storage"
					},
					"t_mapping(t_uint256,t_uint256)": {
						"encoding": "mapping",
						"key": "t_uint256",
						"label": "mapping(uint256 => uint256)",
						"numberOfBytes": "32",
						"value": "t_uint256"
					},
					"t_string_storage": {
						"encoding": "bytes",
						"label": "string",
						"numberOfBytes": "32"
					},
					"t_struct(Listing)219_storage": {
						"encoding": "inplace",
						"label": "struct Marketplace.Listing",
						"members": [
							{
								"astId": 212,
								"contract": "contracts/Orders.sol:Marketplace",
								"label": "seller",
								"offset": 0,
								"slot": "0",
								"type": "t_address"
							},
							{
								"astId": 214,
								"contract": "contracts/Orders.sol:Marketplace",
								"label": "tokenId",
								"offset": 0,
								"slot": "1",
								"type": "t_uint256"
							},
							{
								"astId": 216,
								"contract": "contracts/Orders.sol:Marketplace",
								"label": "price",
								"offset": 0,
								"slot": "2",
								"type": "t_uint256"
							},
							{
								"astId": 218,
								"contract": "contracts/Orders.sol:Marketplace",
								"label": "isActive",
								"offset": 0,
								"slot": "3",
								"type": "t_bool"
							}
						],
						"numberOfBytes": "128"
					},
					"t_uint256": {
						"encoding": "inplace",
						"label": "uint256",
						"numberOfBytes": "32"
					}
				}
			},
			"userdoc": {
				"errors": {
					"AlreadyListed()": [
						{
							"notice": "Error thrown when the token is already listed."
						}
					],
					"CannotBuyOwnListing()": [
						{
							"notice": "Error thrown when the caller is trying to buy their own listing."
						}
					],
					"InsufficientFunds(uint256,uint256)": [
						{
							"notice": "Error thrown when the caller does not have enough funds to withdraw."
						}
					],
					"InsufficientPayment(uint256,uint256)": [
						{
							"notice": "Error thrown when the payment is insufficient."
						}
					],
					"NotActive()": [
						{
							"notice": "Error thrown when the listing is not active."
						}
					],
					"NotApproved()": [
						{
							"notice": "Error thrown when the caller is not approved to interact with the marketplace."
						}
					],
					"NotEnoughFunds()": [
						{
							"notice": "Error thrown when the caller does not have enough funds."
						}
					],
					"NotOwner(address)": [
						{
							"notice": "Error thrown when the caller is not the owner of the marketplace."
						}
					],
					"NotSeller(address)": [
						{
							"notice": "Error thrown when the caller is not the seller."
						}
					],
					"NotTokenOwner(address)": [
						{
							"notice": "Error thrown when the caller is not the owner of the token."
						}
					]
				},
				"events": {
					"CommissionUpdated(uint256)": {
						"notice": "Event emitted when the marketplace commission is updated."
					},
					"FundsWithdrawn(uint256,address)": {
						"notice": "Event emitted when funds are withdrawn."
					},
					"ListingCancelled(uint256,address)": {
						"notice": "Event emitted when a listing is cancelled."
					},
					"ListingCreated(uint256,address,uint256,uint256,uint256)": {
						"notice": "Event emitted when a new listing is created."
					},
					"NFTDelete(uint256,address,uint256)": {
						"notice": "Event emitted when an NFT is deleted."
					},
					"PurchaseCompleted(uint256,address,uint256,uint256,uint256)": {
						"notice": "Event emitted when an NFT is purchased."
					}
				},
				"kind": "user",
				"methods": {
					"MAX_COMMISSION()": {
						"notice": "Maximum commission percentage allowed (50%)."
					},
					"cancelListing(uint256)": {
						"notice": "Cancels an active listing."
					},
					"commissionPercent()": {
						"notice": "Commission percentage charged by the marketplace (in basis points, 100 = 1%)."
					},
					"fileHash()": {
						"notice": "Hash of the stored file"
					},
					"getListingId(uint256)": {
						"notice": "Gets the listing ID for a token if it exists."
					},
					"getListingsBySeller(address)": {
						"notice": "Gets all listings for a given seller."
					},
					"isTokenListed(uint256)": {
						"notice": "Checks if a token is currently listed."
					},
					"nftContract()": {
						"notice": "Interface for the ERC721 token contract."
					},
					"nftEnumerable()": {
						"notice": "Interface for enumerable ERC721 functionality."
					},
					"owner()": {
						"notice": "Owner of the marketplace."
					},
					"purchaseListing(uint256)": {
						"notice": "Purchases an NFT from an active listing."
					},
					"setCommissionPercent(uint256)": {
						"notice": "Updates the marketplace commission percentage."
					},
					"tokenCounter()": {
						"notice": "Counter for listing IDs."
					},
					"tokenOfOwnerByIndex(address,uint256)": {
						"notice": "Returns the token ID owned by `_owner` at a specific `index`."
					},
					"tokenURI(uint256)": {
						"notice": "Returns the URI for an NFT."
					},
					"withdraw(address,uint256)": {
						"notice": "Allows a user to withdraw their pending funds."
					},
					"withdrawFunds()": {
						"notice": "Withdraws pending funds."
					}
				},
				"version": 1
			}
		}
	}
}