{
	"smart-contract/contracts/payments.sol": {
		"Payments": {
			"abi": [
				{
					"inputs": [
						{
							"internalType": "address",
							"name": "",
							"type": "address"
						}
					],
					"name": "balances",
					"outputs": [
						{
							"internalType": "uint256",
							"name": "totalPayments",
							"type": "uint256"
						}
					],
					"stateMutability": "view",
					"type": "function"
				},
				{
					"inputs": [
						{
							"internalType": "address",
							"name": "_addr",
							"type": "address"
						},
						{
							"internalType": "uint256",
							"name": "_index",
							"type": "uint256"
						}
					],
					"name": "getPayment",
					"outputs": [
						{
							"components": [
								{
									"internalType": "uint256",
									"name": "amount",
									"type": "uint256"
								},
								{
									"internalType": "uint256",
									"name": "timestamp",
									"type": "uint256"
								},
								{
									"internalType": "address",
									"name": "from",
									"type": "address"
								},
								{
									"internalType": "string",
									"name": "message",
									"type": "string"
								}
							],
							"internalType": "struct Payments.Payment",
							"name": "",
							"type": "tuple"
						}
					],
					"stateMutability": "view",
					"type": "function"
				},
				{
					"inputs": [
						{
							"internalType": "string",
							"name": "message",
							"type": "string"
						}
					],
					"name": "pay",
					"outputs": [],
					"stateMutability": "payable",
					"type": "function"
				}
			],
			"devdoc": {
				"kind": "dev",
				"methods": {},
				"version": 1
			},
			"evm": {
				"assembly": "    /* \"smart-contract/contracts/payments.sol\":79:937  contract Payments {... */\n  mstore(0x40, 0x80)\n  callvalue\n  dup1\n  iszero\n  tag_1\n  jumpi\n  0x00\n  dup1\n  revert\ntag_1:\n  pop\n  dataSize(sub_0)\n  dup1\n  dataOffset(sub_0)\n  0x00\n  codecopy\n  0x00\n  return\nstop\n\nsub_0: assembly {\n        /* \"smart-contract/contracts/payments.sol\":79:937  contract Payments {... */\n      mstore(0x40, 0x80)\n      jumpi(tag_1, lt(calldatasize, 0x04))\n      shr(0xe0, calldataload(0x00))\n      dup1\n      0x27e235e3\n      eq\n      tag_2\n      jumpi\n      dup1\n      0x2b66d72e\n      eq\n      tag_3\n      jumpi\n      dup1\n      0x977a767c\n      eq\n      tag_4\n      jumpi\n    tag_1:\n      0x00\n      dup1\n      revert\n        /* \"smart-contract/contracts/payments.sol\":334:377  mapping(address => Balance) public balances */\n    tag_2:\n      callvalue\n      dup1\n      iszero\n      tag_5\n      jumpi\n      0x00\n      dup1\n      revert\n    tag_5:\n      pop\n      tag_6\n      0x04\n      dup1\n      calldatasize\n      sub\n      dup2\n      add\n      swap1\n      tag_7\n      swap2\n      swap1\n      tag_8\n      jump\t// in\n    tag_7:\n      tag_9\n      jump\t// in\n    tag_6:\n      mload(0x40)\n      tag_10\n      swap2\n      swap1\n      tag_11\n      jump\t// in\n    tag_10:\n      mload(0x40)\n      dup1\n      swap2\n      sub\n      swap1\n      return\n        /* \"smart-contract/contracts/payments.sol\":536:932  function pay(string memory message) public payable {... */\n    tag_3:\n      tag_12\n      0x04\n      dup1\n      calldatasize\n      sub\n      dup2\n      add\n      swap1\n      tag_13\n      swap2\n      swap1\n      tag_14\n      jump\t// in\n    tag_13:\n      tag_15\n      jump\t// in\n    tag_12:\n      stop\n        /* \"smart-contract/contracts/payments.sol\":386:528  function getPayment(address _addr, uint _index) public view returns(Payment memory) {... */\n    tag_4:\n      callvalue\n      dup1\n      iszero\n      tag_16\n      jumpi\n      0x00\n      dup1\n      revert\n    tag_16:\n      pop\n      tag_17\n      0x04\n      dup1\n      calldatasize\n      sub\n      dup2\n      add\n      swap1\n      tag_18\n      swap2\n      swap1\n      tag_19\n      jump\t// in\n    tag_18:\n      tag_20\n      jump\t// in\n    tag_17:\n      mload(0x40)\n      tag_21\n      swap2\n      swap1\n      tag_22\n      jump\t// in\n    tag_21:\n      mload(0x40)\n      dup1\n      swap2\n      sub\n      swap1\n      return\n        /* \"smart-contract/contracts/payments.sol\":334:377  mapping(address => Balance) public balances */\n    tag_9:\n      mstore(0x20, 0x00)\n      dup1\n      0x00\n      mstore\n      keccak256(0x00, 0x40)\n      0x00\n      swap2\n      pop\n      swap1\n      pop\n      dup1\n      0x00\n      add\n      sload\n      swap1\n      pop\n      dup2\n      jump\t// out\n        /* \"smart-contract/contracts/payments.sol\":536:932  function pay(string memory message) public payable {... */\n    tag_15:\n        /* \"smart-contract/contracts/payments.sol\":598:613  uint paymentNum */\n      0x00\n        /* \"smart-contract/contracts/payments.sol\":616:624  balances */\n      dup1\n        /* \"smart-contract/contracts/payments.sol\":616:636  balances[msg.sender] */\n      0x00\n        /* \"smart-contract/contracts/payments.sol\":625:635  msg.sender */\n      caller\n        /* \"smart-contract/contracts/payments.sol\":616:636  balances[msg.sender] */\n      0xffffffffffffffffffffffffffffffffffffffff\n      and\n      0xffffffffffffffffffffffffffffffffffffffff\n      and\n      dup2\n      mstore\n      0x20\n      add\n      swap1\n      dup2\n      mstore\n      0x20\n      add\n      0x00\n      keccak256\n        /* \"smart-contract/contracts/payments.sol\":616:650  balances[msg.sender].totalPayments */\n      0x00\n      add\n      sload\n        /* \"smart-contract/contracts/payments.sol\":598:650  uint paymentNum = balances[msg.sender].totalPayments */\n      swap1\n      pop\n        /* \"smart-contract/contracts/payments.sol\":661:669  balances */\n      0x00\n        /* \"smart-contract/contracts/payments.sol\":661:681  balances[msg.sender] */\n      dup1\n        /* \"smart-contract/contracts/payments.sol\":670:680  msg.sender */\n      caller\n        /* \"smart-contract/contracts/payments.sol\":661:681  balances[msg.sender] */\n      0xffffffffffffffffffffffffffffffffffffffff\n      and\n      0xffffffffffffffffffffffffffffffffffffffff\n      and\n      dup2\n      mstore\n      0x20\n      add\n      swap1\n      dup2\n      mstore\n      0x20\n      add\n      0x00\n      keccak256\n        /* \"smart-contract/contracts/payments.sol\":661:695  balances[msg.sender].totalPayments */\n      0x00\n      add\n      0x00\n        /* \"smart-contract/contracts/payments.sol\":661:697  balances[msg.sender].totalPayments++ */\n      dup2\n      sload\n      dup1\n      swap3\n      swap2\n      swap1\n      tag_24\n      swap1\n      tag_25\n      jump\t// in\n    tag_24:\n      swap2\n      swap1\n      pop\n      sstore\n      pop\n        /* \"smart-contract/contracts/payments.sol\":710:735  Payment memory newPayment */\n      0x00\n        /* \"smart-contract/contracts/payments.sol\":738:857  Payment(... */\n      mload(0x40)\n      dup1\n      0x80\n      add\n      0x40\n      mstore\n      dup1\n        /* \"smart-contract/contracts/payments.sol\":760:769  msg.value */\n      callvalue\n        /* \"smart-contract/contracts/payments.sol\":738:857  Payment(... */\n      dup2\n      mstore\n      0x20\n      add\n        /* \"smart-contract/contracts/payments.sol\":784:799  block.timestamp */\n      timestamp\n        /* \"smart-contract/contracts/payments.sol\":738:857  Payment(... */\n      dup2\n      mstore\n      0x20\n      add\n        /* \"smart-contract/contracts/payments.sol\":814:824  msg.sender */\n      caller\n        /* \"smart-contract/contracts/payments.sol\":738:857  Payment(... */\n      0xffffffffffffffffffffffffffffffffffffffff\n      and\n      dup2\n      mstore\n      0x20\n      add\n        /* \"smart-contract/contracts/payments.sol\":839:846  message */\n      dup5\n        /* \"smart-contract/contracts/payments.sol\":738:857  Payment(... */\n      dup2\n      mstore\n      pop\n        /* \"smart-contract/contracts/payments.sol\":710:857  Payment memory newPayment = Payment(... */\n      swap1\n      pop\n        /* \"smart-contract/contracts/payments.sol\":914:924  newPayment */\n      dup1\n        /* \"smart-contract/contracts/payments.sol\":870:878  balances */\n      0x00\n        /* \"smart-contract/contracts/payments.sol\":870:890  balances[msg.sender] */\n      dup1\n        /* \"smart-contract/contracts/payments.sol\":879:889  msg.sender */\n      caller\n        /* \"smart-contract/contracts/payments.sol\":870:890  balances[msg.sender] */\n      0xffffffffffffffffffffffffffffffffffffffff\n      and\n      0xffffffffffffffffffffffffffffffffffffffff\n      and\n      dup2\n      mstore\n      0x20\n      add\n      swap1\n      dup2\n      mstore\n      0x20\n      add\n      0x00\n      keccak256\n        /* \"smart-contract/contracts/payments.sol\":870:899  balances[msg.sender].payments */\n      0x01\n      add\n        /* \"smart-contract/contracts/payments.sol\":870:911  balances[msg.sender].payments[paymentNum] */\n      0x00\n        /* \"smart-contract/contracts/payments.sol\":900:910  paymentNum */\n      dup5\n        /* \"smart-contract/contracts/payments.sol\":870:911  balances[msg.sender].payments[paymentNum] */\n      dup2\n      mstore\n      0x20\n      add\n      swap1\n      dup2\n      mstore\n      0x20\n      add\n      0x00\n      keccak256\n        /* \"smart-contract/contracts/payments.sol\":870:924  balances[msg.sender].payments[paymentNum] = newPayment */\n      0x00\n      dup3\n      add\n      mload\n      dup2\n      0x00\n      add\n      sstore\n      0x20\n      dup3\n      add\n      mload\n      dup2\n      0x01\n      add\n      sstore\n      0x40\n      dup3\n      add\n      mload\n      dup2\n      0x02\n      add\n      exp(0x0100, 0x00)\n      dup2\n      sload\n      dup2\n      0xffffffffffffffffffffffffffffffffffffffff\n      mul\n      not\n      and\n      swap1\n      dup4\n      0xffffffffffffffffffffffffffffffffffffffff\n      and\n      mul\n      or\n      swap1\n      sstore\n      pop\n      0x60\n      dup3\n      add\n      mload\n      dup2\n      0x03\n      add\n      swap1\n      dup2\n      tag_26\n      swap2\n      swap1\n      tag_27\n      jump\t// in\n    tag_26:\n      pop\n      swap1\n      pop\n      pop\n        /* \"smart-contract/contracts/payments.sol\":587:932  {... */\n      pop\n      pop\n        /* \"smart-contract/contracts/payments.sol\":536:932  function pay(string memory message) public payable {... */\n      pop\n      jump\t// out\n        /* \"smart-contract/contracts/payments.sol\":386:528  function getPayment(address _addr, uint _index) public view returns(Payment memory) {... */\n    tag_20:\n        /* \"smart-contract/contracts/payments.sol\":454:468  Payment memory */\n      tag_28\n      tag_29\n      jump\t// in\n    tag_28:\n        /* \"smart-contract/contracts/payments.sol\":488:496  balances */\n      0x00\n        /* \"smart-contract/contracts/payments.sol\":488:503  balances[_addr] */\n      dup1\n        /* \"smart-contract/contracts/payments.sol\":497:502  _addr */\n      dup5\n        /* \"smart-contract/contracts/payments.sol\":488:503  balances[_addr] */\n      0xffffffffffffffffffffffffffffffffffffffff\n      and\n      0xffffffffffffffffffffffffffffffffffffffff\n      and\n      dup2\n      mstore\n      0x20\n      add\n      swap1\n      dup2\n      mstore\n      0x20\n      add\n      0x00\n      keccak256\n        /* \"smart-contract/contracts/payments.sol\":488:512  balances[_addr].payments */\n      0x01\n      add\n        /* \"smart-contract/contracts/payments.sol\":488:520  balances[_addr].payments[_index] */\n      0x00\n        /* \"smart-contract/contracts/payments.sol\":513:519  _index */\n      dup4\n        /* \"smart-contract/contracts/payments.sol\":488:520  balances[_addr].payments[_index] */\n      dup2\n      mstore\n      0x20\n      add\n      swap1\n      dup2\n      mstore\n      0x20\n      add\n      0x00\n      keccak256\n        /* \"smart-contract/contracts/payments.sol\":481:520  return balances[_addr].payments[_index] */\n      mload(0x40)\n      dup1\n      0x80\n      add\n      0x40\n      mstore\n      swap1\n      dup2\n      0x00\n      dup3\n      add\n      sload\n      dup2\n      mstore\n      0x20\n      add\n      0x01\n      dup3\n      add\n      sload\n      dup2\n      mstore\n      0x20\n      add\n      0x02\n      dup3\n      add\n      0x00\n      swap1\n      sload\n      swap1\n      0x0100\n      exp\n      swap1\n      div\n      0xffffffffffffffffffffffffffffffffffffffff\n      and\n      0xffffffffffffffffffffffffffffffffffffffff\n      and\n      0xffffffffffffffffffffffffffffffffffffffff\n      and\n      dup2\n      mstore\n      0x20\n      add\n      0x03\n      dup3\n      add\n      dup1\n      sload\n      tag_31\n      swap1\n      tag_32\n      jump\t// in\n    tag_31:\n      dup1\n      0x1f\n      add\n      0x20\n      dup1\n      swap2\n      div\n      mul\n      0x20\n      add\n      mload(0x40)\n      swap1\n      dup2\n      add\n      0x40\n      mstore\n      dup1\n      swap3\n      swap2\n      swap1\n      dup2\n      dup2\n      mstore\n      0x20\n      add\n      dup3\n      dup1\n      sload\n      tag_33\n      swap1\n      tag_32\n      jump\t// in\n    tag_33:\n      dup1\n      iszero\n      tag_34\n      jumpi\n      dup1\n      0x1f\n      lt\n      tag_35\n      jumpi\n      0x0100\n      dup1\n      dup4\n      sload\n      div\n      mul\n      dup4\n      mstore\n      swap2\n      0x20\n      add\n      swap2\n      jump(tag_34)\n    tag_35:\n      dup3\n      add\n      swap2\n      swap1\n      0x00\n      mstore\n      keccak256(0x00, 0x20)\n      swap1\n    tag_36:\n      dup2\n      sload\n      dup2\n      mstore\n      swap1\n      0x01\n      add\n      swap1\n      0x20\n      add\n      dup1\n      dup4\n      gt\n      tag_36\n      jumpi\n      dup3\n      swap1\n      sub\n      0x1f\n      and\n      dup3\n      add\n      swap2\n    tag_34:\n      pop\n      pop\n      pop\n      pop\n      pop\n      dup2\n      mstore\n      pop\n      pop\n      swap1\n      pop\n        /* \"smart-contract/contracts/payments.sol\":386:528  function getPayment(address _addr, uint _index) public view returns(Payment memory) {... */\n      swap3\n      swap2\n      pop\n      pop\n      jump\t// out\n    tag_29:\n      mload(0x40)\n      dup1\n      0x80\n      add\n      0x40\n      mstore\n      dup1\n      0x00\n      dup2\n      mstore\n      0x20\n      add\n      0x00\n      dup2\n      mstore\n      0x20\n      add\n      and(0xffffffffffffffffffffffffffffffffffffffff, 0x00)\n      dup2\n      mstore\n      0x20\n      add\n      0x60\n      dup2\n      mstore\n      pop\n      swap1\n      jump\t// out\n        /* \"#utility.yul\":7:82   */\n    tag_37:\n        /* \"#utility.yul\":40:46   */\n      0x00\n        /* \"#utility.yul\":73:75   */\n      0x40\n        /* \"#utility.yul\":67:76   */\n      mload\n        /* \"#utility.yul\":57:76   */\n      swap1\n      pop\n        /* \"#utility.yul\":7:82   */\n      swap1\n      jump\t// out\n        /* \"#utility.yul\":88:205   */\n    tag_38:\n        /* \"#utility.yul\":197:198   */\n      0x00\n        /* \"#utility.yul\":194:195   */\n      dup1\n        /* \"#utility.yul\":187:199   */\n      revert\n        /* \"#utility.yul\":211:328   */\n    tag_39:\n        /* \"#utility.yul\":320:321   */\n      0x00\n        /* \"#utility.yul\":317:318   */\n      dup1\n        /* \"#utility.yul\":310:322   */\n      revert\n        /* \"#utility.yul\":334:460   */\n    tag_40:\n        /* \"#utility.yul\":371:378   */\n      0x00\n        /* \"#utility.yul\":411:453   */\n      0xffffffffffffffffffffffffffffffffffffffff\n        /* \"#utility.yul\":404:409   */\n      dup3\n        /* \"#utility.yul\":400:454   */\n      and\n        /* \"#utility.yul\":389:454   */\n      swap1\n      pop\n        /* \"#utility.yul\":334:460   */\n      swap2\n      swap1\n      pop\n      jump\t// out\n        /* \"#utility.yul\":466:562   */\n    tag_41:\n        /* \"#utility.yul\":503:510   */\n      0x00\n        /* \"#utility.yul\":532:556   */\n      tag_88\n        /* \"#utility.yul\":550:555   */\n      dup3\n        /* \"#utility.yul\":532:556   */\n      tag_40\n      jump\t// in\n    tag_88:\n        /* \"#utility.yul\":521:556   */\n      swap1\n      pop\n        /* \"#utility.yul\":466:562   */\n      swap2\n      swap1\n      pop\n      jump\t// out\n        /* \"#utility.yul\":568:690   */\n    tag_42:\n        /* \"#utility.yul\":641:665   */\n      tag_90\n        /* \"#utility.yul\":659:664   */\n      dup2\n        /* \"#utility.yul\":641:665   */\n      tag_41\n      jump\t// in\n    tag_90:\n        /* \"#utility.yul\":634:639   */\n      dup2\n        /* \"#utility.yul\":631:666   */\n      eq\n        /* \"#utility.yul\":621:684   */\n      tag_91\n      jumpi\n        /* \"#utility.yul\":680:681   */\n      0x00\n        /* \"#utility.yul\":677:678   */\n      dup1\n        /* \"#utility.yul\":670:682   */\n      revert\n        /* \"#utility.yul\":621:684   */\n    tag_91:\n        /* \"#utility.yul\":568:690   */\n      pop\n      jump\t// out\n        /* \"#utility.yul\":696:835   */\n    tag_43:\n        /* \"#utility.yul\":742:747   */\n      0x00\n        /* \"#utility.yul\":780:786   */\n      dup2\n        /* \"#utility.yul\":767:787   */\n      calldataload\n        /* \"#utility.yul\":758:787   */\n      swap1\n      pop\n        /* \"#utility.yul\":796:829   */\n      tag_93\n        /* \"#utility.yul\":823:828   */\n      dup2\n        /* \"#utility.yul\":796:829   */\n      tag_42\n      jump\t// in\n    tag_93:\n        /* \"#utility.yul\":696:835   */\n      swap3\n      swap2\n      pop\n      pop\n      jump\t// out\n        /* \"#utility.yul\":841:1170   */\n    tag_8:\n        /* \"#utility.yul\":900:906   */\n      0x00\n        /* \"#utility.yul\":949:951   */\n      0x20\n        /* \"#utility.yul\":937:946   */\n      dup3\n        /* \"#utility.yul\":928:935   */\n      dup5\n        /* \"#utility.yul\":924:947   */\n      sub\n        /* \"#utility.yul\":920:952   */\n      slt\n        /* \"#utility.yul\":917:1036   */\n      iszero\n      tag_95\n      jumpi\n        /* \"#utility.yul\":955:1034   */\n      tag_96\n      tag_38\n      jump\t// in\n    tag_96:\n        /* \"#utility.yul\":917:1036   */\n    tag_95:\n        /* \"#utility.yul\":1075:1076   */\n      0x00\n        /* \"#utility.yul\":1100:1153   */\n      tag_97\n        /* \"#utility.yul\":1145:1152   */\n      dup5\n        /* \"#utility.yul\":1136:1142   */\n      dup3\n        /* \"#utility.yul\":1125:1134   */\n      dup6\n        /* \"#utility.yul\":1121:1143   */\n      add\n        /* \"#utility.yul\":1100:1153   */\n      tag_43\n      jump\t// in\n    tag_97:\n        /* \"#utility.yul\":1090:1153   */\n      swap2\n      pop\n        /* \"#utility.yul\":1046:1163   */\n      pop\n        /* \"#utility.yul\":841:1170   */\n      swap3\n      swap2\n      pop\n      pop\n      jump\t// out\n        /* \"#utility.yul\":1176:1253   */\n    tag_44:\n        /* \"#utility.yul\":1213:1220   */\n      0x00\n        /* \"#utility.yul\":1242:1247   */\n      dup2\n        /* \"#utility.yul\":1231:1247   */\n      swap1\n      pop\n        /* \"#utility.yul\":1176:1253   */\n      swap2\n      swap1\n      pop\n      jump\t// out\n        /* \"#utility.yul\":1259:1377   */\n    tag_45:\n        /* \"#utility.yul\":1346:1370   */\n      tag_100\n        /* \"#utility.yul\":1364:1369   */\n      dup2\n        /* \"#utility.yul\":1346:1370   */\n      tag_44\n      jump\t// in\n    tag_100:\n        /* \"#utility.yul\":1341:1344   */\n      dup3\n        /* \"#utility.yul\":1334:1371   */\n      mstore\n        /* \"#utility.yul\":1259:1377   */\n      pop\n      pop\n      jump\t// out\n        /* \"#utility.yul\":1383:1605   */\n    tag_11:\n        /* \"#utility.yul\":1476:1480   */\n      0x00\n        /* \"#utility.yul\":1514:1516   */\n      0x20\n        /* \"#utility.yul\":1503:1512   */\n      dup3\n        /* \"#utility.yul\":1499:1517   */\n      add\n        /* \"#utility.yul\":1491:1517   */\n      swap1\n      pop\n        /* \"#utility.yul\":1527:1598   */\n      tag_102\n        /* \"#utility.yul\":1595:1596   */\n      0x00\n        /* \"#utility.yul\":1584:1593   */\n      dup4\n        /* \"#utility.yul\":1580:1597   */\n      add\n        /* \"#utility.yul\":1571:1577   */\n      dup5\n        /* \"#utility.yul\":1527:1598   */\n      tag_45\n      jump\t// in\n    tag_102:\n        /* \"#utility.yul\":1383:1605   */\n      swap3\n      swap2\n      pop\n      pop\n      jump\t// out\n        /* \"#utility.yul\":1611:1728   */\n    tag_46:\n        /* \"#utility.yul\":1720:1721   */\n      0x00\n        /* \"#utility.yul\":1717:1718   */\n      dup1\n        /* \"#utility.yul\":1710:1722   */\n      revert\n        /* \"#utility.yul\":1734:1851   */\n    tag_47:\n        /* \"#utility.yul\":1843:1844   */\n      0x00\n        /* \"#utility.yul\":1840:1841   */\n      dup1\n        /* \"#utility.yul\":1833:1845   */\n      revert\n        /* \"#utility.yul\":1857:1959   */\n    tag_48:\n        /* \"#utility.yul\":1898:1904   */\n      0x00\n        /* \"#utility.yul\":1949:1951   */\n      0x1f\n        /* \"#utility.yul\":1945:1952   */\n      not\n        /* \"#utility.yul\":1940:1942   */\n      0x1f\n        /* \"#utility.yul\":1933:1938   */\n      dup4\n        /* \"#utility.yul\":1929:1943   */\n      add\n        /* \"#utility.yul\":1925:1953   */\n      and\n        /* \"#utility.yul\":1915:1953   */\n      swap1\n      pop\n        /* \"#utility.yul\":1857:1959   */\n      swap2\n      swap1\n      pop\n      jump\t// out\n        /* \"#utility.yul\":1965:2145   */\n    tag_49:\n        /* \"#utility.yul\":2013:2090   */\n      0x4e487b7100000000000000000000000000000000000000000000000000000000\n        /* \"#utility.yul\":2010:2011   */\n      0x00\n        /* \"#utility.yul\":2003:2091   */\n      mstore\n        /* \"#utility.yul\":2110:2114   */\n      0x41\n        /* \"#utility.yul\":2107:2108   */\n      0x04\n        /* \"#utility.yul\":2100:2115   */\n      mstore\n        /* \"#utility.yul\":2134:2138   */\n      0x24\n        /* \"#utility.yul\":2131:2132   */\n      0x00\n        /* \"#utility.yul\":2124:2139   */\n      revert\n        /* \"#utility.yul\":2151:2432   */\n    tag_50:\n        /* \"#utility.yul\":2234:2261   */\n      tag_108\n        /* \"#utility.yul\":2256:2260   */\n      dup3\n        /* \"#utility.yul\":2234:2261   */\n      tag_48\n      jump\t// in\n    tag_108:\n        /* \"#utility.yul\":2226:2232   */\n      dup2\n        /* \"#utility.yul\":2222:2262   */\n      add\n        /* \"#utility.yul\":2364:2370   */\n      dup2\n        /* \"#utility.yul\":2352:2362   */\n      dup2\n        /* \"#utility.yul\":2349:2371   */\n      lt\n        /* \"#utility.yul\":2328:2346   */\n      0xffffffffffffffff\n        /* \"#utility.yul\":2316:2326   */\n      dup3\n        /* \"#utility.yul\":2313:2347   */\n      gt\n        /* \"#utility.yul\":2310:2372   */\n      or\n        /* \"#utility.yul\":2307:2395   */\n      iszero\n      tag_109\n      jumpi\n        /* \"#utility.yul\":2375:2393   */\n      tag_110\n      tag_49\n      jump\t// in\n    tag_110:\n        /* \"#utility.yul\":2307:2395   */\n    tag_109:\n        /* \"#utility.yul\":2415:2425   */\n      dup1\n        /* \"#utility.yul\":2411:2413   */\n      0x40\n        /* \"#utility.yul\":2404:2426   */\n      mstore\n        /* \"#utility.yul\":2194:2432   */\n      pop\n        /* \"#utility.yul\":2151:2432   */\n      pop\n      pop\n      jump\t// out\n        /* \"#utility.yul\":2438:2567   */\n    tag_51:\n        /* \"#utility.yul\":2472:2478   */\n      0x00\n        /* \"#utility.yul\":2499:2519   */\n      tag_112\n      tag_37\n      jump\t// in\n    tag_112:\n        /* \"#utility.yul\":2489:2519   */\n      swap1\n      pop\n        /* \"#utility.yul\":2528:2561   */\n      tag_113\n        /* \"#utility.yul\":2556:2560   */\n      dup3\n        /* \"#utility.yul\":2548:2554   */\n      dup3\n        /* \"#utility.yul\":2528:2561   */\n      tag_50\n      jump\t// in\n    tag_113:\n        /* \"#utility.yul\":2438:2567   */\n      swap2\n      swap1\n      pop\n      jump\t// out\n        /* \"#utility.yul\":2573:2881   */\n    tag_52:\n        /* \"#utility.yul\":2635:2639   */\n      0x00\n        /* \"#utility.yul\":2725:2743   */\n      0xffffffffffffffff\n        /* \"#utility.yul\":2717:2723   */\n      dup3\n        /* \"#utility.yul\":2714:2744   */\n      gt\n        /* \"#utility.yul\":2711:2767   */\n      iszero\n      tag_115\n      jumpi\n        /* \"#utility.yul\":2747:2765   */\n      tag_116\n      tag_49\n      jump\t// in\n    tag_116:\n        /* \"#utility.yul\":2711:2767   */\n    tag_115:\n        /* \"#utility.yul\":2785:2814   */\n      tag_117\n        /* \"#utility.yul\":2807:2813   */\n      dup3\n        /* \"#utility.yul\":2785:2814   */\n      tag_48\n      jump\t// in\n    tag_117:\n        /* \"#utility.yul\":2777:2814   */\n      swap1\n      pop\n        /* \"#utility.yul\":2869:2873   */\n      0x20\n        /* \"#utility.yul\":2863:2867   */\n      dup2\n        /* \"#utility.yul\":2859:2874   */\n      add\n        /* \"#utility.yul\":2851:2874   */\n      swap1\n      pop\n        /* \"#utility.yul\":2573:2881   */\n      swap2\n      swap1\n      pop\n      jump\t// out\n        /* \"#utility.yul\":2887:3033   */\n    tag_53:\n        /* \"#utility.yul\":2984:2990   */\n      dup3\n        /* \"#utility.yul\":2979:2982   */\n      dup2\n        /* \"#utility.yul\":2974:2977   */\n      dup4\n        /* \"#utility.yul\":2961:2991   */\n      calldatacopy\n        /* \"#utility.yul\":3025:3026   */\n      0x00\n        /* \"#utility.yul\":3016:3022   */\n      dup4\n        /* \"#utility.yul\":3011:3014   */\n      dup4\n        /* \"#utility.yul\":3007:3023   */\n      add\n        /* \"#utility.yul\":3000:3027   */\n      mstore\n        /* \"#utility.yul\":2887:3033   */\n      pop\n      pop\n      pop\n      jump\t// out\n        /* \"#utility.yul\":3039:3464   */\n    tag_54:\n        /* \"#utility.yul\":3117:3122   */\n      0x00\n        /* \"#utility.yul\":3142:3208   */\n      tag_120\n        /* \"#utility.yul\":3158:3207   */\n      tag_121\n        /* \"#utility.yul\":3200:3206   */\n      dup5\n        /* \"#utility.yul\":3158:3207   */\n      tag_52\n      jump\t// in\n    tag_121:\n        /* \"#utility.yul\":3142:3208   */\n      tag_51\n      jump\t// in\n    tag_120:\n        /* \"#utility.yul\":3133:3208   */\n      swap1\n      pop\n        /* \"#utility.yul\":3231:3237   */\n      dup3\n        /* \"#utility.yul\":3224:3229   */\n      dup2\n        /* \"#utility.yul\":3217:3238   */\n      mstore\n        /* \"#utility.yul\":3269:3273   */\n      0x20\n        /* \"#utility.yul\":3262:3267   */\n      dup2\n        /* \"#utility.yul\":3258:3274   */\n      add\n        /* \"#utility.yul\":3307:3310   */\n      dup5\n        /* \"#utility.yul\":3298:3304   */\n      dup5\n        /* \"#utility.yul\":3293:3296   */\n      dup5\n        /* \"#utility.yul\":3289:3305   */\n      add\n        /* \"#utility.yul\":3286:3311   */\n      gt\n        /* \"#utility.yul\":3283:3395   */\n      iszero\n      tag_122\n      jumpi\n        /* \"#utility.yul\":3314:3393   */\n      tag_123\n      tag_47\n      jump\t// in\n    tag_123:\n        /* \"#utility.yul\":3283:3395   */\n    tag_122:\n        /* \"#utility.yul\":3404:3458   */\n      tag_124\n        /* \"#utility.yul\":3451:3457   */\n      dup5\n        /* \"#utility.yul\":3446:3449   */\n      dup3\n        /* \"#utility.yul\":3441:3444   */\n      dup6\n        /* \"#utility.yul\":3404:3458   */\n      tag_53\n      jump\t// in\n    tag_124:\n        /* \"#utility.yul\":3123:3464   */\n      pop\n        /* \"#utility.yul\":3039:3464   */\n      swap4\n      swap3\n      pop\n      pop\n      pop\n      jump\t// out\n        /* \"#utility.yul\":3484:3824   */\n    tag_55:\n        /* \"#utility.yul\":3540:3545   */\n      0x00\n        /* \"#utility.yul\":3589:3592   */\n      dup3\n        /* \"#utility.yul\":3582:3586   */\n      0x1f\n        /* \"#utility.yul\":3574:3580   */\n      dup4\n        /* \"#utility.yul\":3570:3587   */\n      add\n        /* \"#utility.yul\":3566:3593   */\n      slt\n        /* \"#utility.yul\":3556:3678   */\n      tag_126\n      jumpi\n        /* \"#utility.yul\":3597:3676   */\n      tag_127\n      tag_46\n      jump\t// in\n    tag_127:\n        /* \"#utility.yul\":3556:3678   */\n    tag_126:\n        /* \"#utility.yul\":3714:3720   */\n      dup2\n        /* \"#utility.yul\":3701:3721   */\n      calldataload\n        /* \"#utility.yul\":3739:3818   */\n      tag_128\n        /* \"#utility.yul\":3814:3817   */\n      dup5\n        /* \"#utility.yul\":3806:3812   */\n      dup3\n        /* \"#utility.yul\":3799:3803   */\n      0x20\n        /* \"#utility.yul\":3791:3797   */\n      dup7\n        /* \"#utility.yul\":3787:3804   */\n      add\n        /* \"#utility.yul\":3739:3818   */\n      tag_54\n      jump\t// in\n    tag_128:\n        /* \"#utility.yul\":3730:3818   */\n      swap2\n      pop\n        /* \"#utility.yul\":3546:3824   */\n      pop\n        /* \"#utility.yul\":3484:3824   */\n      swap3\n      swap2\n      pop\n      pop\n      jump\t// out\n        /* \"#utility.yul\":3830:4339   */\n    tag_14:\n        /* \"#utility.yul\":3899:3905   */\n      0x00\n        /* \"#utility.yul\":3948:3950   */\n      0x20\n        /* \"#utility.yul\":3936:3945   */\n      dup3\n        /* \"#utility.yul\":3927:3934   */\n      dup5\n        /* \"#utility.yul\":3923:3946   */\n      sub\n        /* \"#utility.yul\":3919:3951   */\n      slt\n        /* \"#utility.yul\":3916:4035   */\n      iszero\n      tag_130\n      jumpi\n        /* \"#utility.yul\":3954:4033   */\n      tag_131\n      tag_38\n      jump\t// in\n    tag_131:\n        /* \"#utility.yul\":3916:4035   */\n    tag_130:\n        /* \"#utility.yul\":4102:4103   */\n      0x00\n        /* \"#utility.yul\":4091:4100   */\n      dup3\n        /* \"#utility.yul\":4087:4104   */\n      add\n        /* \"#utility.yul\":4074:4105   */\n      calldataload\n        /* \"#utility.yul\":4132:4150   */\n      0xffffffffffffffff\n        /* \"#utility.yul\":4124:4130   */\n      dup2\n        /* \"#utility.yul\":4121:4151   */\n      gt\n        /* \"#utility.yul\":4118:4235   */\n      iszero\n      tag_132\n      jumpi\n        /* \"#utility.yul\":4154:4233   */\n      tag_133\n      tag_39\n      jump\t// in\n    tag_133:\n        /* \"#utility.yul\":4118:4235   */\n    tag_132:\n        /* \"#utility.yul\":4259:4322   */\n      tag_134\n        /* \"#utility.yul\":4314:4321   */\n      dup5\n        /* \"#utility.yul\":4305:4311   */\n      dup3\n        /* \"#utility.yul\":4294:4303   */\n      dup6\n        /* \"#utility.yul\":4290:4312   */\n      add\n        /* \"#utility.yul\":4259:4322   */\n      tag_55\n      jump\t// in\n    tag_134:\n        /* \"#utility.yul\":4249:4322   */\n      swap2\n      pop\n        /* \"#utility.yul\":4045:4332   */\n      pop\n        /* \"#utility.yul\":3830:4339   */\n      swap3\n      swap2\n      pop\n      pop\n      jump\t// out\n        /* \"#utility.yul\":4345:4467   */\n    tag_56:\n        /* \"#utility.yul\":4418:4442   */\n      tag_136\n        /* \"#utility.yul\":4436:4441   */\n      dup2\n        /* \"#utility.yul\":4418:4442   */\n      tag_44\n      jump\t// in\n    tag_136:\n        /* \"#utility.yul\":4411:4416   */\n      dup2\n        /* \"#utility.yul\":4408:4443   */\n      eq\n        /* \"#utility.yul\":4398:4461   */\n      tag_137\n      jumpi\n        /* \"#utility.yul\":4457:4458   */\n      0x00\n        /* \"#utility.yul\":4454:4455   */\n      dup1\n        /* \"#utility.yul\":4447:4459   */\n      revert\n        /* \"#utility.yul\":4398:4461   */\n    tag_137:\n        /* \"#utility.yul\":4345:4467   */\n      pop\n      jump\t// out\n        /* \"#utility.yul\":4473:4612   */\n    tag_57:\n        /* \"#utility.yul\":4519:4524   */\n      0x00\n        /* \"#utility.yul\":4557:4563   */\n      dup2\n        /* \"#utility.yul\":4544:4564   */\n      calldataload\n        /* \"#utility.yul\":4535:4564   */\n      swap1\n      pop\n        /* \"#utility.yul\":4573:4606   */\n      tag_139\n        /* \"#utility.yul\":4600:4605   */\n      dup2\n        /* \"#utility.yul\":4573:4606   */\n      tag_56\n      jump\t// in\n    tag_139:\n        /* \"#utility.yul\":4473:4612   */\n      swap3\n      swap2\n      pop\n      pop\n      jump\t// out\n        /* \"#utility.yul\":4618:5092   */\n    tag_19:\n        /* \"#utility.yul\":4686:4692   */\n      0x00\n        /* \"#utility.yul\":4694:4700   */\n      dup1\n        /* \"#utility.yul\":4743:4745   */\n      0x40\n        /* \"#utility.yul\":4731:4740   */\n      dup4\n        /* \"#utility.yul\":4722:4729   */\n      dup6\n        /* \"#utility.yul\":4718:4741   */\n      sub\n        /* \"#utility.yul\":4714:4746   */\n      slt\n        /* \"#utility.yul\":4711:4830   */\n      iszero\n      tag_141\n      jumpi\n        /* \"#utility.yul\":4749:4828   */\n      tag_142\n      tag_38\n      jump\t// in\n    tag_142:\n        /* \"#utility.yul\":4711:4830   */\n    tag_141:\n        /* \"#utility.yul\":4869:4870   */\n      0x00\n        /* \"#utility.yul\":4894:4947   */\n      tag_143\n        /* \"#utility.yul\":4939:4946   */\n      dup6\n        /* \"#utility.yul\":4930:4936   */\n      dup3\n        /* \"#utility.yul\":4919:4928   */\n      dup7\n        /* \"#utility.yul\":4915:4937   */\n      add\n        /* \"#utility.yul\":4894:4947   */\n      tag_43\n      jump\t// in\n    tag_143:\n        /* \"#utility.yul\":4884:4947   */\n      swap3\n      pop\n        /* \"#utility.yul\":4840:4957   */\n      pop\n        /* \"#utility.yul\":4996:4998   */\n      0x20\n        /* \"#utility.yul\":5022:5075   */\n      tag_144\n        /* \"#utility.yul\":5067:5074   */\n      dup6\n        /* \"#utility.yul\":5058:5064   */\n      dup3\n        /* \"#utility.yul\":5047:5056   */\n      dup7\n        /* \"#utility.yul\":5043:5065   */\n      add\n        /* \"#utility.yul\":5022:5075   */\n      tag_57\n      jump\t// in\n    tag_144:\n        /* \"#utility.yul\":5012:5075   */\n      swap2\n      pop\n        /* \"#utility.yul\":4967:5085   */\n      pop\n        /* \"#utility.yul\":4618:5092   */\n      swap3\n      pop\n      swap3\n      swap1\n      pop\n      jump\t// out\n        /* \"#utility.yul\":5098:5206   */\n    tag_58:\n        /* \"#utility.yul\":5175:5199   */\n      tag_146\n        /* \"#utility.yul\":5193:5198   */\n      dup2\n        /* \"#utility.yul\":5175:5199   */\n      tag_44\n      jump\t// in\n    tag_146:\n        /* \"#utility.yul\":5170:5173   */\n      dup3\n        /* \"#utility.yul\":5163:5200   */\n      mstore\n        /* \"#utility.yul\":5098:5206   */\n      pop\n      pop\n      jump\t// out\n        /* \"#utility.yul\":5212:5320   */\n    tag_59:\n        /* \"#utility.yul\":5289:5313   */\n      tag_148\n        /* \"#utility.yul\":5307:5312   */\n      dup2\n        /* \"#utility.yul\":5289:5313   */\n      tag_41\n      jump\t// in\n    tag_148:\n        /* \"#utility.yul\":5284:5287   */\n      dup3\n        /* \"#utility.yul\":5277:5314   */\n      mstore\n        /* \"#utility.yul\":5212:5320   */\n      pop\n      pop\n      jump\t// out\n        /* \"#utility.yul\":5326:5425   */\n    tag_60:\n        /* \"#utility.yul\":5378:5384   */\n      0x00\n        /* \"#utility.yul\":5412:5417   */\n      dup2\n        /* \"#utility.yul\":5406:5418   */\n      mload\n        /* \"#utility.yul\":5396:5418   */\n      swap1\n      pop\n        /* \"#utility.yul\":5326:5425   */\n      swap2\n      swap1\n      pop\n      jump\t// out\n        /* \"#utility.yul\":5431:5590   */\n    tag_61:\n        /* \"#utility.yul\":5505:5516   */\n      0x00\n        /* \"#utility.yul\":5539:5545   */\n      dup3\n        /* \"#utility.yul\":5534:5537   */\n      dup3\n        /* \"#utility.yul\":5527:5546   */\n      mstore\n        /* \"#utility.yul\":5579:5583   */\n      0x20\n        /* \"#utility.yul\":5574:5577   */\n      dup3\n        /* \"#utility.yul\":5570:5584   */\n      add\n        /* \"#utility.yul\":5555:5584   */\n      swap1\n      pop\n        /* \"#utility.yul\":5431:5590   */\n      swap3\n      swap2\n      pop\n      pop\n      jump\t// out\n        /* \"#utility.yul\":5596:5842   */\n    tag_62:\n        /* \"#utility.yul\":5677:5678   */\n      0x00\n        /* \"#utility.yul\":5687:5800   */\n    tag_152:\n        /* \"#utility.yul\":5701:5707   */\n      dup4\n        /* \"#utility.yul\":5698:5699   */\n      dup2\n        /* \"#utility.yul\":5695:5708   */\n      lt\n        /* \"#utility.yul\":5687:5800   */\n      iszero\n      tag_154\n      jumpi\n        /* \"#utility.yul\":5786:5787   */\n      dup1\n        /* \"#utility.yul\":5781:5784   */\n      dup3\n        /* \"#utility.yul\":5777:5788   */\n      add\n        /* \"#utility.yul\":5771:5789   */\n      mload\n        /* \"#utility.yul\":5767:5768   */\n      dup2\n        /* \"#utility.yul\":5762:5765   */\n      dup5\n        /* \"#utility.yul\":5758:5769   */\n      add\n        /* \"#utility.yul\":5751:5790   */\n      mstore\n        /* \"#utility.yul\":5723:5725   */\n      0x20\n        /* \"#utility.yul\":5720:5721   */\n      dup2\n        /* \"#utility.yul\":5716:5726   */\n      add\n        /* \"#utility.yul\":5711:5726   */\n      swap1\n      pop\n        /* \"#utility.yul\":5687:5800   */\n      jump(tag_152)\n    tag_154:\n        /* \"#utility.yul\":5834:5835   */\n      0x00\n        /* \"#utility.yul\":5825:5831   */\n      dup5\n        /* \"#utility.yul\":5820:5823   */\n      dup5\n        /* \"#utility.yul\":5816:5832   */\n      add\n        /* \"#utility.yul\":5809:5836   */\n      mstore\n        /* \"#utility.yul\":5658:5842   */\n      pop\n        /* \"#utility.yul\":5596:5842   */\n      pop\n      pop\n      pop\n      jump\t// out\n        /* \"#utility.yul\":5848:6205   */\n    tag_63:\n        /* \"#utility.yul\":5926:5929   */\n      0x00\n        /* \"#utility.yul\":5954:5993   */\n      tag_156\n        /* \"#utility.yul\":5987:5992   */\n      dup3\n        /* \"#utility.yul\":5954:5993   */\n      tag_60\n      jump\t// in\n    tag_156:\n        /* \"#utility.yul\":6009:6070   */\n      tag_157\n        /* \"#utility.yul\":6063:6069   */\n      dup2\n        /* \"#utility.yul\":6058:6061   */\n      dup6\n        /* \"#utility.yul\":6009:6070   */\n      tag_61\n      jump\t// in\n    tag_157:\n        /* \"#utility.yul\":6002:6070   */\n      swap4\n      pop\n        /* \"#utility.yul\":6079:6144   */\n      tag_158\n        /* \"#utility.yul\":6137:6143   */\n      dup2\n        /* \"#utility.yul\":6132:6135   */\n      dup6\n        /* \"#utility.yul\":6125:6129   */\n      0x20\n        /* \"#utility.yul\":6118:6123   */\n      dup7\n        /* \"#utility.yul\":6114:6130   */\n      add\n        /* \"#utility.yul\":6079:6144   */\n      tag_62\n      jump\t// in\n    tag_158:\n        /* \"#utility.yul\":6169:6198   */\n      tag_159\n        /* \"#utility.yul\":6191:6197   */\n      dup2\n        /* \"#utility.yul\":6169:6198   */\n      tag_48\n      jump\t// in\n    tag_159:\n        /* \"#utility.yul\":6164:6167   */\n      dup5\n        /* \"#utility.yul\":6160:6199   */\n      add\n        /* \"#utility.yul\":6153:6199   */\n      swap2\n      pop\n        /* \"#utility.yul\":5930:6205   */\n      pop\n        /* \"#utility.yul\":5848:6205   */\n      swap3\n      swap2\n      pop\n      pop\n      jump\t// out\n        /* \"#utility.yul\":6269:7229   */\n    tag_64:\n        /* \"#utility.yul\":6384:6387   */\n      0x00\n        /* \"#utility.yul\":6420:6424   */\n      0x80\n        /* \"#utility.yul\":6415:6418   */\n      dup4\n        /* \"#utility.yul\":6411:6425   */\n      add\n        /* \"#utility.yul\":6509:6513   */\n      0x00\n        /* \"#utility.yul\":6502:6507   */\n      dup4\n        /* \"#utility.yul\":6498:6514   */\n      add\n        /* \"#utility.yul\":6492:6515   */\n      mload\n        /* \"#utility.yul\":6528:6591   */\n      tag_161\n        /* \"#utility.yul\":6585:6589   */\n      0x00\n        /* \"#utility.yul\":6580:6583   */\n      dup7\n        /* \"#utility.yul\":6576:6590   */\n      add\n        /* \"#utility.yul\":6562:6574   */\n      dup3\n        /* \"#utility.yul\":6528:6591   */\n      tag_58\n      jump\t// in\n    tag_161:\n        /* \"#utility.yul\":6435:6601   */\n      pop\n        /* \"#utility.yul\":6688:6692   */\n      0x20\n        /* \"#utility.yul\":6681:6686   */\n      dup4\n        /* \"#utility.yul\":6677:6693   */\n      add\n        /* \"#utility.yul\":6671:6694   */\n      mload\n        /* \"#utility.yul\":6707:6770   */\n      tag_162\n        /* \"#utility.yul\":6764:6768   */\n      0x20\n        /* \"#utility.yul\":6759:6762   */\n      dup7\n        /* \"#utility.yul\":6755:6769   */\n      add\n        /* \"#utility.yul\":6741:6753   */\n      dup3\n        /* \"#utility.yul\":6707:6770   */\n      tag_58\n      jump\t// in\n    tag_162:\n        /* \"#utility.yul\":6611:6780   */\n      pop\n        /* \"#utility.yul\":6862:6866   */\n      0x40\n        /* \"#utility.yul\":6855:6860   */\n      dup4\n        /* \"#utility.yul\":6851:6867   */\n      add\n        /* \"#utility.yul\":6845:6868   */\n      mload\n        /* \"#utility.yul\":6881:6944   */\n      tag_163\n        /* \"#utility.yul\":6938:6942   */\n      0x40\n        /* \"#utility.yul\":6933:6936   */\n      dup7\n        /* \"#utility.yul\":6929:6943   */\n      add\n        /* \"#utility.yul\":6915:6927   */\n      dup3\n        /* \"#utility.yul\":6881:6944   */\n      tag_59\n      jump\t// in\n    tag_163:\n        /* \"#utility.yul\":6790:6954   */\n      pop\n        /* \"#utility.yul\":7039:7043   */\n      0x60\n        /* \"#utility.yul\":7032:7037   */\n      dup4\n        /* \"#utility.yul\":7028:7044   */\n      add\n        /* \"#utility.yul\":7022:7045   */\n      mload\n        /* \"#utility.yul\":7092:7095   */\n      dup5\n        /* \"#utility.yul\":7086:7090   */\n      dup3\n        /* \"#utility.yul\":7082:7096   */\n      sub\n        /* \"#utility.yul\":7075:7079   */\n      0x60\n        /* \"#utility.yul\":7070:7073   */\n      dup7\n        /* \"#utility.yul\":7066:7080   */\n      add\n        /* \"#utility.yul\":7059:7097   */\n      mstore\n        /* \"#utility.yul\":7118:7191   */\n      tag_164\n        /* \"#utility.yul\":7186:7190   */\n      dup3\n        /* \"#utility.yul\":7172:7184   */\n      dup3\n        /* \"#utility.yul\":7118:7191   */\n      tag_63\n      jump\t// in\n    tag_164:\n        /* \"#utility.yul\":7110:7191   */\n      swap2\n      pop\n        /* \"#utility.yul\":6964:7202   */\n      pop\n        /* \"#utility.yul\":7219:7223   */\n      dup1\n        /* \"#utility.yul\":7212:7223   */\n      swap2\n      pop\n        /* \"#utility.yul\":6389:7229   */\n      pop\n        /* \"#utility.yul\":6269:7229   */\n      swap3\n      swap2\n      pop\n      pop\n      jump\t// out\n        /* \"#utility.yul\":7235:7600   */\n    tag_22:\n        /* \"#utility.yul\":7374:7378   */\n      0x00\n        /* \"#utility.yul\":7412:7414   */\n      0x20\n        /* \"#utility.yul\":7401:7410   */\n      dup3\n        /* \"#utility.yul\":7397:7415   */\n      add\n        /* \"#utility.yul\":7389:7415   */\n      swap1\n      pop\n        /* \"#utility.yul\":7461:7470   */\n      dup2\n        /* \"#utility.yul\":7455:7459   */\n      dup2\n        /* \"#utility.yul\":7451:7471   */\n      sub\n        /* \"#utility.yul\":7447:7448   */\n      0x00\n        /* \"#utility.yul\":7436:7445   */\n      dup4\n        /* \"#utility.yul\":7432:7449   */\n      add\n        /* \"#utility.yul\":7425:7472   */\n      mstore\n        /* \"#utility.yul\":7489:7593   */\n      tag_166\n        /* \"#utility.yul\":7588:7592   */\n      dup2\n        /* \"#utility.yul\":7579:7585   */\n      dup5\n        /* \"#utility.yul\":7489:7593   */\n      tag_64\n      jump\t// in\n    tag_166:\n        /* \"#utility.yul\":7481:7593   */\n      swap1\n      pop\n        /* \"#utility.yul\":7235:7600   */\n      swap3\n      swap2\n      pop\n      pop\n      jump\t// out\n        /* \"#utility.yul\":7606:7786   */\n    tag_65:\n        /* \"#utility.yul\":7654:7731   */\n      0x4e487b7100000000000000000000000000000000000000000000000000000000\n        /* \"#utility.yul\":7651:7652   */\n      0x00\n        /* \"#utility.yul\":7644:7732   */\n      mstore\n        /* \"#utility.yul\":7751:7755   */\n      0x11\n        /* \"#utility.yul\":7748:7749   */\n      0x04\n        /* \"#utility.yul\":7741:7756   */\n      mstore\n        /* \"#utility.yul\":7775:7779   */\n      0x24\n        /* \"#utility.yul\":7772:7773   */\n      0x00\n        /* \"#utility.yul\":7765:7780   */\n      revert\n        /* \"#utility.yul\":7792:8025   */\n    tag_25:\n        /* \"#utility.yul\":7831:7834   */\n      0x00\n        /* \"#utility.yul\":7854:7878   */\n      tag_169\n        /* \"#utility.yul\":7872:7877   */\n      dup3\n        /* \"#utility.yul\":7854:7878   */\n      tag_44\n      jump\t// in\n    tag_169:\n        /* \"#utility.yul\":7845:7878   */\n      swap2\n      pop\n        /* \"#utility.yul\":7900:7966   */\n      0xffffffffffffffffffffffffffffffffffffffffffffffffffffffffffffffff\n        /* \"#utility.yul\":7893:7898   */\n      dup3\n        /* \"#utility.yul\":7890:7967   */\n      sub\n        /* \"#utility.yul\":7887:7990   */\n      tag_170\n      jumpi\n        /* \"#utility.yul\":7970:7988   */\n      tag_171\n      tag_65\n      jump\t// in\n    tag_171:\n        /* \"#utility.yul\":7887:7990   */\n    tag_170:\n        /* \"#utility.yul\":8017:8018   */\n      0x01\n        /* \"#utility.yul\":8010:8015   */\n      dup3\n        /* \"#utility.yul\":8006:8019   */\n      add\n        /* \"#utility.yul\":7999:8019   */\n      swap1\n      pop\n        /* \"#utility.yul\":7792:8025   */\n      swap2\n      swap1\n      pop\n      jump\t// out\n        /* \"#utility.yul\":8031:8211   */\n    tag_66:\n        /* \"#utility.yul\":8079:8156   */\n      0x4e487b7100000000000000000000000000000000000000000000000000000000\n        /* \"#utility.yul\":8076:8077   */\n      0x00\n        /* \"#utility.yul\":8069:8157   */\n      mstore\n        /* \"#utility.yul\":8176:8180   */\n      0x22\n        /* \"#utility.yul\":8173:8174   */\n      0x04\n        /* \"#utility.yul\":8166:8181   */\n      mstore\n        /* \"#utility.yul\":8200:8204   */\n      0x24\n        /* \"#utility.yul\":8197:8198   */\n      0x00\n        /* \"#utility.yul\":8190:8205   */\n      revert\n        /* \"#utility.yul\":8217:8537   */\n    tag_32:\n        /* \"#utility.yul\":8261:8267   */\n      0x00\n        /* \"#utility.yul\":8298:8299   */\n      0x02\n        /* \"#utility.yul\":8292:8296   */\n      dup3\n        /* \"#utility.yul\":8288:8300   */\n      div\n        /* \"#utility.yul\":8278:8300   */\n      swap1\n      pop\n        /* \"#utility.yul\":8345:8346   */\n      0x01\n        /* \"#utility.yul\":8339:8343   */\n      dup3\n        /* \"#utility.yul\":8335:8347   */\n      and\n        /* \"#utility.yul\":8366:8384   */\n      dup1\n        /* \"#utility.yul\":8356:8437   */\n      tag_174\n      jumpi\n        /* \"#utility.yul\":8422:8426   */\n      0x7f\n        /* \"#utility.yul\":8414:8420   */\n      dup3\n        /* \"#utility.yul\":8410:8427   */\n      and\n        /* \"#utility.yul\":8400:8427   */\n      swap2\n      pop\n        /* \"#utility.yul\":8356:8437   */\n    tag_174:\n        /* \"#utility.yul\":8484:8486   */\n      0x20\n        /* \"#utility.yul\":8476:8482   */\n      dup3\n        /* \"#utility.yul\":8473:8487   */\n      lt\n        /* \"#utility.yul\":8453:8471   */\n      dup2\n        /* \"#utility.yul\":8450:8488   */\n      sub\n        /* \"#utility.yul\":8447:8531   */\n      tag_175\n      jumpi\n        /* \"#utility.yul\":8503:8521   */\n      tag_176\n      tag_66\n      jump\t// in\n    tag_176:\n        /* \"#utility.yul\":8447:8531   */\n    tag_175:\n        /* \"#utility.yul\":8268:8537   */\n      pop\n        /* \"#utility.yul\":8217:8537   */\n      swap2\n      swap1\n      pop\n      jump\t// out\n        /* \"#utility.yul\":8543:8684   */\n    tag_67:\n        /* \"#utility.yul\":8592:8596   */\n      0x00\n        /* \"#utility.yul\":8615:8618   */\n      dup2\n        /* \"#utility.yul\":8607:8618   */\n      swap1\n      pop\n        /* \"#utility.yul\":8638:8641   */\n      dup2\n        /* \"#utility.yul\":8635:8636   */\n      0x00\n        /* \"#utility.yul\":8628:8642   */\n      mstore\n        /* \"#utility.yul\":8672:8676   */\n      0x20\n        /* \"#utility.yul\":8669:8670   */\n      0x00\n        /* \"#utility.yul\":8659:8677   */\n      keccak256\n        /* \"#utility.yul\":8651:8677   */\n      swap1\n      pop\n        /* \"#utility.yul\":8543:8684   */\n      swap2\n      swap1\n      pop\n      jump\t// out\n        /* \"#utility.yul\":8690:8783   */\n    tag_68:\n        /* \"#utility.yul\":8727:8733   */\n      0x00\n        /* \"#utility.yul\":8774:8776   */\n      0x20\n        /* \"#utility.yul\":8769:8771   */\n      0x1f\n        /* \"#utility.yul\":8762:8767   */\n      dup4\n        /* \"#utility.yul\":8758:8772   */\n      add\n        /* \"#utility.yul\":8754:8777   */\n      div\n        /* \"#utility.yul\":8744:8777   */\n      swap1\n      pop\n        /* \"#utility.yul\":8690:8783   */\n      swap2\n      swap1\n      pop\n      jump\t// out\n        /* \"#utility.yul\":8789:8896   */\n    tag_69:\n        /* \"#utility.yul\":8833:8841   */\n      0x00\n        /* \"#utility.yul\":8883:8888   */\n      dup3\n        /* \"#utility.yul\":8877:8881   */\n      dup3\n        /* \"#utility.yul\":8873:8889   */\n      shl\n        /* \"#utility.yul\":8852:8889   */\n      swap1\n      pop\n        /* \"#utility.yul\":8789:8896   */\n      swap3\n      swap2\n      pop\n      pop\n      jump\t// out\n        /* \"#utility.yul\":8902:9295   */\n    tag_70:\n        /* \"#utility.yul\":8971:8977   */\n      0x00\n        /* \"#utility.yul\":9021:9022   */\n      0x08\n        /* \"#utility.yul\":9009:9019   */\n      dup4\n        /* \"#utility.yul\":9005:9023   */\n      mul\n        /* \"#utility.yul\":9044:9141   */\n      tag_181\n        /* \"#utility.yul\":9074:9140   */\n      0xffffffffffffffffffffffffffffffffffffffffffffffffffffffffffffffff\n        /* \"#utility.yul\":9063:9072   */\n      dup3\n        /* \"#utility.yul\":9044:9141   */\n      tag_69\n      jump\t// in\n    tag_181:\n        /* \"#utility.yul\":9162:9201   */\n      tag_182\n        /* \"#utility.yul\":9192:9200   */\n      dup7\n        /* \"#utility.yul\":9181:9190   */\n      dup4\n        /* \"#utility.yul\":9162:9201   */\n      tag_69\n      jump\t// in\n    tag_182:\n        /* \"#utility.yul\":9150:9201   */\n      swap6\n      pop\n        /* \"#utility.yul\":9234:9238   */\n      dup1\n        /* \"#utility.yul\":9230:9239   */\n      not\n        /* \"#utility.yul\":9223:9228   */\n      dup5\n        /* \"#utility.yul\":9219:9240   */\n      and\n        /* \"#utility.yul\":9210:9240   */\n      swap4\n      pop\n        /* \"#utility.yul\":9283:9287   */\n      dup1\n        /* \"#utility.yul\":9273:9281   */\n      dup7\n        /* \"#utility.yul\":9269:9288   */\n      and\n        /* \"#utility.yul\":9262:9267   */\n      dup5\n        /* \"#utility.yul\":9259:9289   */\n      or\n        /* \"#utility.yul\":9249:9289   */\n      swap3\n      pop\n        /* \"#utility.yul\":8978:9295   */\n      pop\n      pop\n        /* \"#utility.yul\":8902:9295   */\n      swap4\n      swap3\n      pop\n      pop\n      pop\n      jump\t// out\n        /* \"#utility.yul\":9301:9361   */\n    tag_71:\n        /* \"#utility.yul\":9329:9332   */\n      0x00\n        /* \"#utility.yul\":9350:9355   */\n      dup2\n        /* \"#utility.yul\":9343:9355   */\n      swap1\n      pop\n        /* \"#utility.yul\":9301:9361   */\n      swap2\n      swap1\n      pop\n      jump\t// out\n        /* \"#utility.yul\":9367:9509   */\n    tag_72:\n        /* \"#utility.yul\":9417:9426   */\n      0x00\n        /* \"#utility.yul\":9450:9503   */\n      tag_185\n        /* \"#utility.yul\":9468:9502   */\n      tag_186\n        /* \"#utility.yul\":9477:9501   */\n      tag_187\n        /* \"#utility.yul\":9495:9500   */\n      dup5\n        /* \"#utility.yul\":9477:9501   */\n      tag_44\n      jump\t// in\n    tag_187:\n        /* \"#utility.yul\":9468:9502   */\n      tag_71\n      jump\t// in\n    tag_186:\n        /* \"#utility.yul\":9450:9503   */\n      tag_44\n      jump\t// in\n    tag_185:\n        /* \"#utility.yul\":9437:9503   */\n      swap1\n      pop\n        /* \"#utility.yul\":9367:9509   */\n      swap2\n      swap1\n      pop\n      jump\t// out\n        /* \"#utility.yul\":9515:9590   */\n    tag_73:\n        /* \"#utility.yul\":9558:9561   */\n      0x00\n        /* \"#utility.yul\":9579:9584   */\n      dup2\n        /* \"#utility.yul\":9572:9584   */\n      swap1\n      pop\n        /* \"#utility.yul\":9515:9590   */\n      swap2\n      swap1\n      pop\n      jump\t// out\n        /* \"#utility.yul\":9596:9865   */\n    tag_74:\n        /* \"#utility.yul\":9706:9745   */\n      tag_190\n        /* \"#utility.yul\":9737:9744   */\n      dup4\n        /* \"#utility.yul\":9706:9745   */\n      tag_72\n      jump\t// in\n    tag_190:\n        /* \"#utility.yul\":9767:9858   */\n      tag_191\n        /* \"#utility.yul\":9816:9857   */\n      tag_192\n        /* \"#utility.yul\":9840:9856   */\n      dup3\n        /* \"#utility.yul\":9816:9857   */\n      tag_73\n      jump\t// in\n    tag_192:\n        /* \"#utility.yul\":9808:9814   */\n      dup5\n        /* \"#utility.yul\":9801:9805   */\n      dup5\n        /* \"#utility.yul\":9795:9806   */\n      sload\n        /* \"#utility.yul\":9767:9858   */\n      tag_70\n      jump\t// in\n    tag_191:\n        /* \"#utility.yul\":9761:9765   */\n      dup3\n        /* \"#utility.yul\":9754:9859   */\n      sstore\n        /* \"#utility.yul\":9672:9865   */\n      pop\n        /* \"#utility.yul\":9596:9865   */\n      pop\n      pop\n      pop\n      jump\t// out\n        /* \"#utility.yul\":9871:9944   */\n    tag_75:\n        /* \"#utility.yul\":9916:9919   */\n      0x00\n        /* \"#utility.yul\":9871:9944   */\n      swap1\n      jump\t// out\n        /* \"#utility.yul\":9950:10139   */\n    tag_76:\n        /* \"#utility.yul\":10027:10059   */\n      tag_195\n      tag_75\n      jump\t// in\n    tag_195:\n        /* \"#utility.yul\":10068:10133   */\n      tag_196\n        /* \"#utility.yul\":10126:10132   */\n      dup2\n        /* \"#utility.yul\":10118:10124   */\n      dup5\n        /* \"#utility.yul\":10112:10116   */\n      dup5\n        /* \"#utility.yul\":10068:10133   */\n      tag_74\n      jump\t// in\n    tag_196:\n        /* \"#utility.yul\":10003:10139   */\n      pop\n        /* \"#utility.yul\":9950:10139   */\n      pop\n      pop\n      jump\t// out\n        /* \"#utility.yul\":10145:10331   */\n    tag_77:\n        /* \"#utility.yul\":10205:10325   */\n    tag_198:\n        /* \"#utility.yul\":10222:10225   */\n      dup2\n        /* \"#utility.yul\":10215:10220   */\n      dup2\n        /* \"#utility.yul\":10212:10226   */\n      lt\n        /* \"#utility.yul\":10205:10325   */\n      iszero\n      tag_200\n      jumpi\n        /* \"#utility.yul\":10276:10315   */\n      tag_201\n        /* \"#utility.yul\":10313:10314   */\n      0x00\n        /* \"#utility.yul\":10306:10311   */\n      dup3\n        /* \"#utility.yul\":10276:10315   */\n      tag_76\n      jump\t// in\n    tag_201:\n        /* \"#utility.yul\":10249:10250   */\n      0x01\n        /* \"#utility.yul\":10242:10247   */\n      dup2\n        /* \"#utility.yul\":10238:10251   */\n      add\n        /* \"#utility.yul\":10229:10251   */\n      swap1\n      pop\n        /* \"#utility.yul\":10205:10325   */\n      jump(tag_198)\n    tag_200:\n        /* \"#utility.yul\":10145:10331   */\n      pop\n      pop\n      jump\t// out\n        /* \"#utility.yul\":10337:10880   */\n    tag_78:\n        /* \"#utility.yul\":10438:10440   */\n      0x1f\n        /* \"#utility.yul\":10433:10436   */\n      dup3\n        /* \"#utility.yul\":10430:10441   */\n      gt\n        /* \"#utility.yul\":10427:10873   */\n      iszero\n      tag_203\n      jumpi\n        /* \"#utility.yul\":10472:10510   */\n      tag_204\n        /* \"#utility.yul\":10504:10509   */\n      dup2\n        /* \"#utility.yul\":10472:10510   */\n      tag_67\n      jump\t// in\n    tag_204:\n        /* \"#utility.yul\":10556:10585   */\n      tag_205\n        /* \"#utility.yul\":10574:10584   */\n      dup5\n        /* \"#utility.yul\":10556:10585   */\n      tag_68\n      jump\t// in\n    tag_205:\n        /* \"#utility.yul\":10546:10554   */\n      dup2\n        /* \"#utility.yul\":10542:10586   */\n      add\n        /* \"#utility.yul\":10739:10741   */\n      0x20\n        /* \"#utility.yul\":10727:10737   */\n      dup6\n        /* \"#utility.yul\":10724:10742   */\n      lt\n        /* \"#utility.yul\":10721:10770   */\n      iszero\n      tag_206\n      jumpi\n        /* \"#utility.yul\":10760:10768   */\n      dup2\n        /* \"#utility.yul\":10745:10768   */\n      swap1\n      pop\n        /* \"#utility.yul\":10721:10770   */\n    tag_206:\n        /* \"#utility.yul\":10783:10863   */\n      tag_207\n        /* \"#utility.yul\":10839:10861   */\n      tag_208\n        /* \"#utility.yul\":10857:10860   */\n      dup6\n        /* \"#utility.yul\":10839:10861   */\n      tag_68\n      jump\t// in\n    tag_208:\n        /* \"#utility.yul\":10829:10837   */\n      dup4\n        /* \"#utility.yul\":10825:10862   */\n      add\n        /* \"#utility.yul\":10812:10823   */\n      dup3\n        /* \"#utility.yul\":10783:10863   */\n      tag_77\n      jump\t// in\n    tag_207:\n        /* \"#utility.yul\":10442:10873   */\n      pop\n      pop\n        /* \"#utility.yul\":10427:10873   */\n    tag_203:\n        /* \"#utility.yul\":10337:10880   */\n      pop\n      pop\n      pop\n      jump\t// out\n        /* \"#utility.yul\":10886:11003   */\n    tag_79:\n        /* \"#utility.yul\":10940:10948   */\n      0x00\n        /* \"#utility.yul\":10990:10995   */\n      dup3\n        /* \"#utility.yul\":10984:10988   */\n      dup3\n        /* \"#utility.yul\":10980:10996   */\n      shr\n        /* \"#utility.yul\":10959:10996   */\n      swap1\n      pop\n        /* \"#utility.yul\":10886:11003   */\n      swap3\n      swap2\n      pop\n      pop\n      jump\t// out\n        /* \"#utility.yul\":11009:11178   */\n    tag_80:\n        /* \"#utility.yul\":11053:11059   */\n      0x00\n        /* \"#utility.yul\":11086:11137   */\n      tag_211\n        /* \"#utility.yul\":11134:11135   */\n      0x00\n        /* \"#utility.yul\":11130:11136   */\n      not\n        /* \"#utility.yul\":11122:11127   */\n      dup5\n        /* \"#utility.yul\":11119:11120   */\n      0x08\n        /* \"#utility.yul\":11115:11128   */\n      mul\n        /* \"#utility.yul\":11086:11137   */\n      tag_79\n      jump\t// in\n    tag_211:\n        /* \"#utility.yul\":11082:11138   */\n      not\n        /* \"#utility.yul\":11167:11171   */\n      dup1\n        /* \"#utility.yul\":11161:11165   */\n      dup4\n        /* \"#utility.yul\":11157:11172   */\n      and\n        /* \"#utility.yul\":11147:11172   */\n      swap2\n      pop\n        /* \"#utility.yul\":11060:11178   */\n      pop\n        /* \"#utility.yul\":11009:11178   */\n      swap3\n      swap2\n      pop\n      pop\n      jump\t// out\n        /* \"#utility.yul\":11183:11478   */\n    tag_81:\n        /* \"#utility.yul\":11259:11263   */\n      0x00\n        /* \"#utility.yul\":11405:11434   */\n      tag_213\n        /* \"#utility.yul\":11430:11433   */\n      dup4\n        /* \"#utility.yul\":11424:11428   */\n      dup4\n        /* \"#utility.yul\":11405:11434   */\n      tag_80\n      jump\t// in\n    tag_213:\n        /* \"#utility.yul\":11397:11434   */\n      swap2\n      pop\n        /* \"#utility.yul\":11467:11470   */\n      dup3\n        /* \"#utility.yul\":11464:11465   */\n      0x02\n        /* \"#utility.yul\":11460:11471   */\n      mul\n        /* \"#utility.yul\":11454:11458   */\n      dup3\n        /* \"#utility.yul\":11451:11472   */\n      or\n        /* \"#utility.yul\":11443:11472   */\n      swap1\n      pop\n        /* \"#utility.yul\":11183:11478   */\n      swap3\n      swap2\n      pop\n      pop\n      jump\t// out\n        /* \"#utility.yul\":11483:12878   */\n    tag_27:\n        /* \"#utility.yul\":11600:11637   */\n      tag_215\n        /* \"#utility.yul\":11633:11636   */\n      dup3\n        /* \"#utility.yul\":11600:11637   */\n      tag_60\n      jump\t// in\n    tag_215:\n        /* \"#utility.yul\":11702:11720   */\n      0xffffffffffffffff\n        /* \"#utility.yul\":11694:11700   */\n      dup2\n        /* \"#utility.yul\":11691:11721   */\n      gt\n        /* \"#utility.yul\":11688:11744   */\n      iszero\n      tag_216\n      jumpi\n        /* \"#utility.yul\":11724:11742   */\n      tag_217\n      tag_49\n      jump\t// in\n    tag_217:\n        /* \"#utility.yul\":11688:11744   */\n    tag_216:\n        /* \"#utility.yul\":11768:11806   */\n      tag_218\n        /* \"#utility.yul\":11800:11804   */\n      dup3\n        /* \"#utility.yul\":11794:11805   */\n      sload\n        /* \"#utility.yul\":11768:11806   */\n      tag_32\n      jump\t// in\n    tag_218:\n        /* \"#utility.yul\":11853:11920   */\n      tag_219\n        /* \"#utility.yul\":11913:11919   */\n      dup3\n        /* \"#utility.yul\":11905:11911   */\n      dup3\n        /* \"#utility.yul\":11899:11903   */\n      dup6\n        /* \"#utility.yul\":11853:11920   */\n      tag_78\n      jump\t// in\n    tag_219:\n        /* \"#utility.yul\":11947:11948   */\n      0x00\n        /* \"#utility.yul\":11971:11975   */\n      0x20\n        /* \"#utility.yul\":11958:11975   */\n      swap1\n      pop\n        /* \"#utility.yul\":12003:12005   */\n      0x1f\n        /* \"#utility.yul\":11995:12001   */\n      dup4\n        /* \"#utility.yul\":11992:12006   */\n      gt\n        /* \"#utility.yul\":12020:12021   */\n      0x01\n        /* \"#utility.yul\":12015:12633   */\n      dup2\n      eq\n      tag_221\n      jumpi\n        /* \"#utility.yul\":12677:12678   */\n      0x00\n        /* \"#utility.yul\":12694:12700   */\n      dup5\n        /* \"#utility.yul\":12691:12768   */\n      iszero\n      tag_222\n      jumpi\n        /* \"#utility.yul\":12743:12752   */\n      dup3\n        /* \"#utility.yul\":12738:12741   */\n      dup8\n        /* \"#utility.yul\":12734:12753   */\n      add\n        /* \"#utility.yul\":12728:12754   */\n      mload\n        /* \"#utility.yul\":12719:12754   */\n      swap1\n      pop\n        /* \"#utility.yul\":12691:12768   */\n    tag_222:\n        /* \"#utility.yul\":12794:12861   */\n      tag_223\n        /* \"#utility.yul\":12854:12860   */\n      dup6\n        /* \"#utility.yul\":12847:12852   */\n      dup3\n        /* \"#utility.yul\":12794:12861   */\n      tag_81\n      jump\t// in\n    tag_223:\n        /* \"#utility.yul\":12788:12792   */\n      dup7\n        /* \"#utility.yul\":12781:12862   */\n      sstore\n        /* \"#utility.yul\":12650:12872   */\n      pop\n        /* \"#utility.yul\":11985:12872   */\n      jump(tag_220)\n        /* \"#utility.yul\":12015:12633   */\n    tag_221:\n        /* \"#utility.yul\":12067:12071   */\n      0x1f\n        /* \"#utility.yul\":12063:12072   */\n      not\n        /* \"#utility.yul\":12055:12061   */\n      dup5\n        /* \"#utility.yul\":12051:12073   */\n      and\n        /* \"#utility.yul\":12101:12138   */\n      tag_224\n        /* \"#utility.yul\":12133:12137   */\n      dup7\n        /* \"#utility.yul\":12101:12138   */\n      tag_67\n      jump\t// in\n    tag_224:\n        /* \"#utility.yul\":12160:12161   */\n      0x00\n        /* \"#utility.yul\":12174:12382   */\n    tag_225:\n        /* \"#utility.yul\":12188:12195   */\n      dup3\n        /* \"#utility.yul\":12185:12186   */\n      dup2\n        /* \"#utility.yul\":12182:12196   */\n      lt\n        /* \"#utility.yul\":12174:12382   */\n      iszero\n      tag_227\n      jumpi\n        /* \"#utility.yul\":12267:12276   */\n      dup5\n        /* \"#utility.yul\":12262:12265   */\n      dup10\n        /* \"#utility.yul\":12258:12277   */\n      add\n        /* \"#utility.yul\":12252:12278   */\n      mload\n        /* \"#utility.yul\":12244:12250   */\n      dup3\n        /* \"#utility.yul\":12237:12279   */\n      sstore\n        /* \"#utility.yul\":12318:12319   */\n      0x01\n        /* \"#utility.yul\":12310:12316   */\n      dup3\n        /* \"#utility.yul\":12306:12320   */\n      add\n        /* \"#utility.yul\":12296:12320   */\n      swap2\n      pop\n        /* \"#utility.yul\":12365:12367   */\n      0x20\n        /* \"#utility.yul\":12354:12363   */\n      dup6\n        /* \"#utility.yul\":12350:12368   */\n      add\n        /* \"#utility.yul\":12337:12368   */\n      swap5\n      pop\n        /* \"#utility.yul\":12211:12215   */\n      0x20\n        /* \"#utility.yul\":12208:12209   */\n      dup2\n        /* \"#utility.yul\":12204:12216   */\n      add\n        /* \"#utility.yul\":12199:12216   */\n      swap1\n      pop\n        /* \"#utility.yul\":12174:12382   */\n      jump(tag_225)\n    tag_227:\n        /* \"#utility.yul\":12410:12416   */\n      dup7\n        /* \"#utility.yul\":12401:12408   */\n      dup4\n        /* \"#utility.yul\":12398:12417   */\n      lt\n        /* \"#utility.yul\":12395:12574   */\n      iszero\n      tag_228\n      jumpi\n        /* \"#utility.yul\":12468:12477   */\n      dup5\n        /* \"#utility.yul\":12463:12466   */\n      dup10\n        /* \"#utility.yul\":12459:12478   */\n      add\n        /* \"#utility.yul\":12453:12479   */\n      mload\n        /* \"#utility.yul\":12511:12559   */\n      tag_229\n        /* \"#utility.yul\":12553:12557   */\n      0x1f\n        /* \"#utility.yul\":12545:12551   */\n      dup10\n        /* \"#utility.yul\":12541:12558   */\n      and\n        /* \"#utility.yul\":12530:12539   */\n      dup3\n        /* \"#utility.yul\":12511:12559   */\n      tag_80\n      jump\t// in\n    tag_229:\n        /* \"#utility.yul\":12503:12509   */\n      dup4\n        /* \"#utility.yul\":12496:12560   */\n      sstore\n        /* \"#utility.yul\":12418:12574   */\n      pop\n        /* \"#utility.yul\":12395:12574   */\n    tag_228:\n        /* \"#utility.yul\":12620:12621   */\n      0x01\n        /* \"#utility.yul\":12616:12617   */\n      0x02\n        /* \"#utility.yul\":12608:12614   */\n      dup9\n        /* \"#utility.yul\":12604:12618   */\n      mul\n        /* \"#utility.yul\":12600:12622   */\n      add\n        /* \"#utility.yul\":12594:12598   */\n      dup9\n        /* \"#utility.yul\":12587:12623   */\n      sstore\n        /* \"#utility.yul\":12022:12633   */\n      pop\n      pop\n      pop\n        /* \"#utility.yul\":11985:12872   */\n    tag_220:\n      pop\n        /* \"#utility.yul\":11575:12878   */\n      pop\n      pop\n      pop\n        /* \"#utility.yul\":11483:12878   */\n      pop\n      pop\n      jump\t// out\n\n    auxdata: 0xa26469706673582212206e81b6c18e1b4da80e38844cee271916797e9d7907eabb8a4a72113ce9f0d61664736f6c63430008160033\n}\n",
				"bytecode": {
					"linkReferences": {},
					"object": "608060405234801561000f575f80fd5b50610b518061001d5f395ff3fe608060405260043610610033575f3560e01c806327e235e3146100375780632b66d72e14610073578063977a767c1461008f575b5f80fd5b348015610042575f80fd5b5061005d6004803603810190610058919061047f565b6100cb565b60405161006a91906104c2565b60405180910390f35b61008d60048036038101906100889190610617565b6100e4565b005b34801561009a575f80fd5b506100b560048036038101906100b09190610688565b610278565b6040516100c291906107be565b60405180910390f35b5f602052805f5260405f205f91509050805f0154905081565b5f805f3373ffffffffffffffffffffffffffffffffffffffff1673ffffffffffffffffffffffffffffffffffffffff1681526020019081526020015f205f015490505f803373ffffffffffffffffffffffffffffffffffffffff1673ffffffffffffffffffffffffffffffffffffffff1681526020019081526020015f205f015f8154809291906101749061080b565b91905055505f60405180608001604052803481526020014281526020013373ffffffffffffffffffffffffffffffffffffffff168152602001848152509050805f803373ffffffffffffffffffffffffffffffffffffffff1673ffffffffffffffffffffffffffffffffffffffff1681526020019081526020015f206001015f8481526020019081526020015f205f820151815f0155602082015181600101556040820151816002015f6101000a81548173ffffffffffffffffffffffffffffffffffffffff021916908373ffffffffffffffffffffffffffffffffffffffff160217905550606082015181600301908161026f9190610a4c565b50905050505050565b6102806103d9565b5f808473ffffffffffffffffffffffffffffffffffffffff1673ffffffffffffffffffffffffffffffffffffffff1681526020019081526020015f206001015f8381526020019081526020015f206040518060800160405290815f820154815260200160018201548152602001600282015f9054906101000a900473ffffffffffffffffffffffffffffffffffffffff1673ffffffffffffffffffffffffffffffffffffffff1673ffffffffffffffffffffffffffffffffffffffff1681526020016003820180546103519061087f565b80601f016020809104026020016040519081016040528092919081815260200182805461037d9061087f565b80156103c85780601f1061039f576101008083540402835291602001916103c8565b820191905f5260205f20905b8154815290600101906020018083116103ab57829003601f168201915b505050505081525050905092915050565b60405180608001604052805f81526020015f81526020015f73ffffffffffffffffffffffffffffffffffffffff168152602001606081525090565b5f604051905090565b5f80fd5b5f80fd5b5f73ffffffffffffffffffffffffffffffffffffffff82169050919050565b5f61044e82610425565b9050919050565b61045e81610444565b8114610468575f80fd5b50565b5f8135905061047981610455565b92915050565b5f602082840312156104945761049361041d565b5b5f6104a18482850161046b565b91505092915050565b5f819050919050565b6104bc816104aa565b82525050565b5f6020820190506104d55f8301846104b3565b92915050565b5f80fd5b5f80fd5b5f601f19601f8301169050919050565b7f4e487b71000000000000000000000000000000000000000000000000000000005f52604160045260245ffd5b610529826104e3565b810181811067ffffffffffffffff82111715610548576105476104f3565b5b80604052505050565b5f61055a610414565b90506105668282610520565b919050565b5f67ffffffffffffffff821115610585576105846104f3565b5b61058e826104e3565b9050602081019050919050565b828183375f83830152505050565b5f6105bb6105b68461056b565b610551565b9050828152602081018484840111156105d7576105d66104df565b5b6105e284828561059b565b509392505050565b5f82601f8301126105fe576105fd6104db565b5b813561060e8482602086016105a9565b91505092915050565b5f6020828403121561062c5761062b61041d565b5b5f82013567ffffffffffffffff81111561064957610648610421565b5b610655848285016105ea565b91505092915050565b610667816104aa565b8114610671575f80fd5b50565b5f813590506106828161065e565b92915050565b5f806040838503121561069e5761069d61041d565b5b5f6106ab8582860161046b565b92505060206106bc85828601610674565b9150509250929050565b6106cf816104aa565b82525050565b6106de81610444565b82525050565b5f81519050919050565b5f82825260208201905092915050565b5f5b8381101561071b578082015181840152602081019050610700565b5f8484015250505050565b5f610730826106e4565b61073a81856106ee565b935061074a8185602086016106fe565b610753816104e3565b840191505092915050565b5f608083015f8301516107735f8601826106c6565b50602083015161078660208601826106c6565b50604083015161079960408601826106d5565b50606083015184820360608601526107b18282610726565b9150508091505092915050565b5f6020820190508181035f8301526107d6818461075e565b905092915050565b7f4e487b71000000000000000000000000000000000000000000000000000000005f52601160045260245ffd5b5f610815826104aa565b91507fffffffffffffffffffffffffffffffffffffffffffffffffffffffffffffffff8203610847576108466107de565b5b600182019050919050565b7f4e487b71000000000000000000000000000000000000000000000000000000005f52602260045260245ffd5b5f600282049050600182168061089657607f821691505b6020821081036108a9576108a8610852565b5b50919050565b5f819050815f5260205f209050919050565b5f6020601f8301049050919050565b5f82821b905092915050565b5f6008830261090b7fffffffffffffffffffffffffffffffffffffffffffffffffffffffffffffffff826108d0565b61091586836108d0565b95508019841693508086168417925050509392505050565b5f819050919050565b5f61095061094b610946846104aa565b61092d565b6104aa565b9050919050565b5f819050919050565b61096983610936565b61097d61097582610957565b8484546108dc565b825550505050565b5f90565b610991610985565b61099c818484610960565b505050565b5b818110156109bf576109b45f82610989565b6001810190506109a2565b5050565b601f821115610a04576109d5816108af565b6109de846108c1565b810160208510156109ed578190505b610a016109f9856108c1565b8301826109a1565b50505b505050565b5f82821c905092915050565b5f610a245f1984600802610a09565b1980831691505092915050565b5f610a3c8383610a15565b9150826002028217905092915050565b610a55826106e4565b67ffffffffffffffff811115610a6e57610a6d6104f3565b5b610a78825461087f565b610a838282856109c3565b5f60209050601f831160018114610ab4575f8415610aa2578287015190505b610aac8582610a31565b865550610b13565b601f198416610ac2866108af565b5f5b82811015610ae957848901518255600182019150602085019450602081019050610ac4565b86831015610b065784890151610b02601f891682610a15565b8355505b6001600288020188555050505b50505050505056fea26469706673582212206e81b6c18e1b4da80e38844cee271916797e9d7907eabb8a4a72113ce9f0d61664736f6c63430008160033",
					"opcodes": "PUSH1 0x80 PUSH1 0x40 MSTORE CALLVALUE DUP1 ISZERO PUSH2 0xF JUMPI PUSH0 DUP1 REVERT JUMPDEST POP PUSH2 0xB51 DUP1 PUSH2 0x1D PUSH0 CODECOPY PUSH0 RETURN INVALID PUSH1 0x80 PUSH1 0x40 MSTORE PUSH1 0x4 CALLDATASIZE LT PUSH2 0x33 JUMPI PUSH0 CALLDATALOAD PUSH1 0xE0 SHR DUP1 PUSH4 0x27E235E3 EQ PUSH2 0x37 JUMPI DUP1 PUSH4 0x2B66D72E EQ PUSH2 0x73 JUMPI DUP1 PUSH4 0x977A767C EQ PUSH2 0x8F JUMPI JUMPDEST PUSH0 DUP1 REVERT JUMPDEST CALLVALUE DUP1 ISZERO PUSH2 0x42 JUMPI PUSH0 DUP1 REVERT JUMPDEST POP PUSH2 0x5D PUSH1 0x4 DUP1 CALLDATASIZE SUB DUP2 ADD SWAP1 PUSH2 0x58 SWAP2 SWAP1 PUSH2 0x47F JUMP JUMPDEST PUSH2 0xCB JUMP JUMPDEST PUSH1 0x40 MLOAD PUSH2 0x6A SWAP2 SWAP1 PUSH2 0x4C2 JUMP JUMPDEST PUSH1 0x40 MLOAD DUP1 SWAP2 SUB SWAP1 RETURN JUMPDEST PUSH2 0x8D PUSH1 0x4 DUP1 CALLDATASIZE SUB DUP2 ADD SWAP1 PUSH2 0x88 SWAP2 SWAP1 PUSH2 0x617 JUMP JUMPDEST PUSH2 0xE4 JUMP JUMPDEST STOP JUMPDEST CALLVALUE DUP1 ISZERO PUSH2 0x9A JUMPI PUSH0 DUP1 REVERT JUMPDEST POP PUSH2 0xB5 PUSH1 0x4 DUP1 CALLDATASIZE SUB DUP2 ADD SWAP1 PUSH2 0xB0 SWAP2 SWAP1 PUSH2 0x688 JUMP JUMPDEST PUSH2 0x278 JUMP JUMPDEST PUSH1 0x40 MLOAD PUSH2 0xC2 SWAP2 SWAP1 PUSH2 0x7BE JUMP JUMPDEST PUSH1 0x40 MLOAD DUP1 SWAP2 SUB SWAP1 RETURN JUMPDEST PUSH0 PUSH1 0x20 MSTORE DUP1 PUSH0 MSTORE PUSH1 0x40 PUSH0 KECCAK256 PUSH0 SWAP2 POP SWAP1 POP DUP1 PUSH0 ADD SLOAD SWAP1 POP DUP2 JUMP JUMPDEST PUSH0 DUP1 PUSH0 CALLER PUSH20 0xFFFFFFFFFFFFFFFFFFFFFFFFFFFFFFFFFFFFFFFF AND PUSH20 0xFFFFFFFFFFFFFFFFFFFFFFFFFFFFFFFFFFFFFFFF AND DUP2 MSTORE PUSH1 0x20 ADD SWAP1 DUP2 MSTORE PUSH1 0x20 ADD PUSH0 KECCAK256 PUSH0 ADD SLOAD SWAP1 POP PUSH0 DUP1 CALLER PUSH20 0xFFFFFFFFFFFFFFFFFFFFFFFFFFFFFFFFFFFFFFFF AND PUSH20 0xFFFFFFFFFFFFFFFFFFFFFFFFFFFFFFFFFFFFFFFF AND DUP2 MSTORE PUSH1 0x20 ADD SWAP1 DUP2 MSTORE PUSH1 0x20 ADD PUSH0 KECCAK256 PUSH0 ADD PUSH0 DUP2 SLOAD DUP1 SWAP3 SWAP2 SWAP1 PUSH2 0x174 SWAP1 PUSH2 0x80B JUMP JUMPDEST SWAP2 SWAP1 POP SSTORE POP PUSH0 PUSH1 0x40 MLOAD DUP1 PUSH1 0x80 ADD PUSH1 0x40 MSTORE DUP1 CALLVALUE DUP2 MSTORE PUSH1 0x20 ADD TIMESTAMP DUP2 MSTORE PUSH1 0x20 ADD CALLER PUSH20 0xFFFFFFFFFFFFFFFFFFFFFFFFFFFFFFFFFFFFFFFF AND DUP2 MSTORE PUSH1 0x20 ADD DUP5 DUP2 MSTORE POP SWAP1 POP DUP1 PUSH0 DUP1 CALLER PUSH20 0xFFFFFFFFFFFFFFFFFFFFFFFFFFFFFFFFFFFFFFFF AND PUSH20 0xFFFFFFFFFFFFFFFFFFFFFFFFFFFFFFFFFFFFFFFF AND DUP2 MSTORE PUSH1 0x20 ADD SWAP1 DUP2 MSTORE PUSH1 0x20 ADD PUSH0 KECCAK256 PUSH1 0x1 ADD PUSH0 DUP5 DUP2 MSTORE PUSH1 0x20 ADD SWAP1 DUP2 MSTORE PUSH1 0x20 ADD PUSH0 KECCAK256 PUSH0 DUP3 ADD MLOAD DUP2 PUSH0 ADD SSTORE PUSH1 0x20 DUP3 ADD MLOAD DUP2 PUSH1 0x1 ADD SSTORE PUSH1 0x40 DUP3 ADD MLOAD DUP2 PUSH1 0x2 ADD PUSH0 PUSH2 0x100 EXP DUP2 SLOAD DUP2 PUSH20 0xFFFFFFFFFFFFFFFFFFFFFFFFFFFFFFFFFFFFFFFF MUL NOT AND SWAP1 DUP4 PUSH20 0xFFFFFFFFFFFFFFFFFFFFFFFFFFFFFFFFFFFFFFFF AND MUL OR SWAP1 SSTORE POP PUSH1 0x60 DUP3 ADD MLOAD DUP2 PUSH1 0x3 ADD SWAP1 DUP2 PUSH2 0x26F SWAP2 SWAP1 PUSH2 0xA4C JUMP JUMPDEST POP SWAP1 POP POP POP POP POP JUMP JUMPDEST PUSH2 0x280 PUSH2 0x3D9 JUMP JUMPDEST PUSH0 DUP1 DUP5 PUSH20 0xFFFFFFFFFFFFFFFFFFFFFFFFFFFFFFFFFFFFFFFF AND PUSH20 0xFFFFFFFFFFFFFFFFFFFFFFFFFFFFFFFFFFFFFFFF AND DUP2 MSTORE PUSH1 0x20 ADD SWAP1 DUP2 MSTORE PUSH1 0x20 ADD PUSH0 KECCAK256 PUSH1 0x1 ADD PUSH0 DUP4 DUP2 MSTORE PUSH1 0x20 ADD SWAP1 DUP2 MSTORE PUSH1 0x20 ADD PUSH0 KECCAK256 PUSH1 0x40 MLOAD DUP1 PUSH1 0x80 ADD PUSH1 0x40 MSTORE SWAP1 DUP2 PUSH0 DUP3 ADD SLOAD DUP2 MSTORE PUSH1 0x20 ADD PUSH1 0x1 DUP3 ADD SLOAD DUP2 MSTORE PUSH1 0x20 ADD PUSH1 0x2 DUP3 ADD PUSH0 SWAP1 SLOAD SWAP1 PUSH2 0x100 EXP SWAP1 DIV PUSH20 0xFFFFFFFFFFFFFFFFFFFFFFFFFFFFFFFFFFFFFFFF AND PUSH20 0xFFFFFFFFFFFFFFFFFFFFFFFFFFFFFFFFFFFFFFFF AND PUSH20 0xFFFFFFFFFFFFFFFFFFFFFFFFFFFFFFFFFFFFFFFF AND DUP2 MSTORE PUSH1 0x20 ADD PUSH1 0x3 DUP3 ADD DUP1 SLOAD PUSH2 0x351 SWAP1 PUSH2 0x87F JUMP JUMPDEST DUP1 PUSH1 0x1F ADD PUSH1 0x20 DUP1 SWAP2 DIV MUL PUSH1 0x20 ADD PUSH1 0x40 MLOAD SWAP1 DUP2 ADD PUSH1 0x40 MSTORE DUP1 SWAP3 SWAP2 SWAP1 DUP2 DUP2 MSTORE PUSH1 0x20 ADD DUP3 DUP1 SLOAD PUSH2 0x37D SWAP1 PUSH2 0x87F JUMP JUMPDEST DUP1 ISZERO PUSH2 0x3C8 JUMPI DUP1 PUSH1 0x1F LT PUSH2 0x39F JUMPI PUSH2 0x100 DUP1 DUP4 SLOAD DIV MUL DUP4 MSTORE SWAP2 PUSH1 0x20 ADD SWAP2 PUSH2 0x3C8 JUMP JUMPDEST DUP3 ADD SWAP2 SWAP1 PUSH0 MSTORE PUSH1 0x20 PUSH0 KECCAK256 SWAP1 JUMPDEST DUP2 SLOAD DUP2 MSTORE SWAP1 PUSH1 0x1 ADD SWAP1 PUSH1 0x20 ADD DUP1 DUP4 GT PUSH2 0x3AB JUMPI DUP3 SWAP1 SUB PUSH1 0x1F AND DUP3 ADD SWAP2 JUMPDEST POP POP POP POP POP DUP2 MSTORE POP POP SWAP1 POP SWAP3 SWAP2 POP POP JUMP JUMPDEST PUSH1 0x40 MLOAD DUP1 PUSH1 0x80 ADD PUSH1 0x40 MSTORE DUP1 PUSH0 DUP2 MSTORE PUSH1 0x20 ADD PUSH0 DUP2 MSTORE PUSH1 0x20 ADD PUSH0 PUSH20 0xFFFFFFFFFFFFFFFFFFFFFFFFFFFFFFFFFFFFFFFF AND DUP2 MSTORE PUSH1 0x20 ADD PUSH1 0x60 DUP2 MSTORE POP SWAP1 JUMP JUMPDEST PUSH0 PUSH1 0x40 MLOAD SWAP1 POP SWAP1 JUMP JUMPDEST PUSH0 DUP1 REVERT JUMPDEST PUSH0 DUP1 REVERT JUMPDEST PUSH0 PUSH20 0xFFFFFFFFFFFFFFFFFFFFFFFFFFFFFFFFFFFFFFFF DUP3 AND SWAP1 POP SWAP2 SWAP1 POP JUMP JUMPDEST PUSH0 PUSH2 0x44E DUP3 PUSH2 0x425 JUMP JUMPDEST SWAP1 POP SWAP2 SWAP1 POP JUMP JUMPDEST PUSH2 0x45E DUP2 PUSH2 0x444 JUMP JUMPDEST DUP2 EQ PUSH2 0x468 JUMPI PUSH0 DUP1 REVERT JUMPDEST POP JUMP JUMPDEST PUSH0 DUP2 CALLDATALOAD SWAP1 POP PUSH2 0x479 DUP2 PUSH2 0x455 JUMP JUMPDEST SWAP3 SWAP2 POP POP JUMP JUMPDEST PUSH0 PUSH1 0x20 DUP3 DUP5 SUB SLT ISZERO PUSH2 0x494 JUMPI PUSH2 0x493 PUSH2 0x41D JUMP JUMPDEST JUMPDEST PUSH0 PUSH2 0x4A1 DUP5 DUP3 DUP6 ADD PUSH2 0x46B JUMP JUMPDEST SWAP2 POP POP SWAP3 SWAP2 POP POP JUMP JUMPDEST PUSH0 DUP2 SWAP1 POP SWAP2 SWAP1 POP JUMP JUMPDEST PUSH2 0x4BC DUP2 PUSH2 0x4AA JUMP JUMPDEST DUP3 MSTORE POP POP JUMP JUMPDEST PUSH0 PUSH1 0x20 DUP3 ADD SWAP1 POP PUSH2 0x4D5 PUSH0 DUP4 ADD DUP5 PUSH2 0x4B3 JUMP JUMPDEST SWAP3 SWAP2 POP POP JUMP JUMPDEST PUSH0 DUP1 REVERT JUMPDEST PUSH0 DUP1 REVERT JUMPDEST PUSH0 PUSH1 0x1F NOT PUSH1 0x1F DUP4 ADD AND SWAP1 POP SWAP2 SWAP1 POP JUMP JUMPDEST PUSH32 0x4E487B7100000000000000000000000000000000000000000000000000000000 PUSH0 MSTORE PUSH1 0x41 PUSH1 0x4 MSTORE PUSH1 0x24 PUSH0 REVERT JUMPDEST PUSH2 0x529 DUP3 PUSH2 0x4E3 JUMP JUMPDEST DUP2 ADD DUP2 DUP2 LT PUSH8 0xFFFFFFFFFFFFFFFF DUP3 GT OR ISZERO PUSH2 0x548 JUMPI PUSH2 0x547 PUSH2 0x4F3 JUMP JUMPDEST JUMPDEST DUP1 PUSH1 0x40 MSTORE POP POP POP JUMP JUMPDEST PUSH0 PUSH2 0x55A PUSH2 0x414 JUMP JUMPDEST SWAP1 POP PUSH2 0x566 DUP3 DUP3 PUSH2 0x520 JUMP JUMPDEST SWAP2 SWAP1 POP JUMP JUMPDEST PUSH0 PUSH8 0xFFFFFFFFFFFFFFFF DUP3 GT ISZERO PUSH2 0x585 JUMPI PUSH2 0x584 PUSH2 0x4F3 JUMP JUMPDEST JUMPDEST PUSH2 0x58E DUP3 PUSH2 0x4E3 JUMP JUMPDEST SWAP1 POP PUSH1 0x20 DUP2 ADD SWAP1 POP SWAP2 SWAP1 POP JUMP JUMPDEST DUP3 DUP2 DUP4 CALLDATACOPY PUSH0 DUP4 DUP4 ADD MSTORE POP POP POP JUMP JUMPDEST PUSH0 PUSH2 0x5BB PUSH2 0x5B6 DUP5 PUSH2 0x56B JUMP JUMPDEST PUSH2 0x551 JUMP JUMPDEST SWAP1 POP DUP3 DUP2 MSTORE PUSH1 0x20 DUP2 ADD DUP5 DUP5 DUP5 ADD GT ISZERO PUSH2 0x5D7 JUMPI PUSH2 0x5D6 PUSH2 0x4DF JUMP JUMPDEST JUMPDEST PUSH2 0x5E2 DUP5 DUP3 DUP6 PUSH2 0x59B JUMP JUMPDEST POP SWAP4 SWAP3 POP POP POP JUMP JUMPDEST PUSH0 DUP3 PUSH1 0x1F DUP4 ADD SLT PUSH2 0x5FE JUMPI PUSH2 0x5FD PUSH2 0x4DB JUMP JUMPDEST JUMPDEST DUP2 CALLDATALOAD PUSH2 0x60E DUP5 DUP3 PUSH1 0x20 DUP7 ADD PUSH2 0x5A9 JUMP JUMPDEST SWAP2 POP POP SWAP3 SWAP2 POP POP JUMP JUMPDEST PUSH0 PUSH1 0x20 DUP3 DUP5 SUB SLT ISZERO PUSH2 0x62C JUMPI PUSH2 0x62B PUSH2 0x41D JUMP JUMPDEST JUMPDEST PUSH0 DUP3 ADD CALLDATALOAD PUSH8 0xFFFFFFFFFFFFFFFF DUP2 GT ISZERO PUSH2 0x649 JUMPI PUSH2 0x648 PUSH2 0x421 JUMP JUMPDEST JUMPDEST PUSH2 0x655 DUP5 DUP3 DUP6 ADD PUSH2 0x5EA JUMP JUMPDEST SWAP2 POP POP SWAP3 SWAP2 POP POP JUMP JUMPDEST PUSH2 0x667 DUP2 PUSH2 0x4AA JUMP JUMPDEST DUP2 EQ PUSH2 0x671 JUMPI PUSH0 DUP1 REVERT JUMPDEST POP JUMP JUMPDEST PUSH0 DUP2 CALLDATALOAD SWAP1 POP PUSH2 0x682 DUP2 PUSH2 0x65E JUMP JUMPDEST SWAP3 SWAP2 POP POP JUMP JUMPDEST PUSH0 DUP1 PUSH1 0x40 DUP4 DUP6 SUB SLT ISZERO PUSH2 0x69E JUMPI PUSH2 0x69D PUSH2 0x41D JUMP JUMPDEST JUMPDEST PUSH0 PUSH2 0x6AB DUP6 DUP3 DUP7 ADD PUSH2 0x46B JUMP JUMPDEST SWAP3 POP POP PUSH1 0x20 PUSH2 0x6BC DUP6 DUP3 DUP7 ADD PUSH2 0x674 JUMP JUMPDEST SWAP2 POP POP SWAP3 POP SWAP3 SWAP1 POP JUMP JUMPDEST PUSH2 0x6CF DUP2 PUSH2 0x4AA JUMP JUMPDEST DUP3 MSTORE POP POP JUMP JUMPDEST PUSH2 0x6DE DUP2 PUSH2 0x444 JUMP JUMPDEST DUP3 MSTORE POP POP JUMP JUMPDEST PUSH0 DUP2 MLOAD SWAP1 POP SWAP2 SWAP1 POP JUMP JUMPDEST PUSH0 DUP3 DUP3 MSTORE PUSH1 0x20 DUP3 ADD SWAP1 POP SWAP3 SWAP2 POP POP JUMP JUMPDEST PUSH0 JUMPDEST DUP4 DUP2 LT ISZERO PUSH2 0x71B JUMPI DUP1 DUP3 ADD MLOAD DUP2 DUP5 ADD MSTORE PUSH1 0x20 DUP2 ADD SWAP1 POP PUSH2 0x700 JUMP JUMPDEST PUSH0 DUP5 DUP5 ADD MSTORE POP POP POP POP JUMP JUMPDEST PUSH0 PUSH2 0x730 DUP3 PUSH2 0x6E4 JUMP JUMPDEST PUSH2 0x73A DUP2 DUP6 PUSH2 0x6EE JUMP JUMPDEST SWAP4 POP PUSH2 0x74A DUP2 DUP6 PUSH1 0x20 DUP7 ADD PUSH2 0x6FE JUMP JUMPDEST PUSH2 0x753 DUP2 PUSH2 0x4E3 JUMP JUMPDEST DUP5 ADD SWAP2 POP POP SWAP3 SWAP2 POP POP JUMP JUMPDEST PUSH0 PUSH1 0x80 DUP4 ADD PUSH0 DUP4 ADD MLOAD PUSH2 0x773 PUSH0 DUP7 ADD DUP3 PUSH2 0x6C6 JUMP JUMPDEST POP PUSH1 0x20 DUP4 ADD MLOAD PUSH2 0x786 PUSH1 0x20 DUP7 ADD DUP3 PUSH2 0x6C6 JUMP JUMPDEST POP PUSH1 0x40 DUP4 ADD MLOAD PUSH2 0x799 PUSH1 0x40 DUP7 ADD DUP3 PUSH2 0x6D5 JUMP JUMPDEST POP PUSH1 0x60 DUP4 ADD MLOAD DUP5 DUP3 SUB PUSH1 0x60 DUP7 ADD MSTORE PUSH2 0x7B1 DUP3 DUP3 PUSH2 0x726 JUMP JUMPDEST SWAP2 POP POP DUP1 SWAP2 POP POP SWAP3 SWAP2 POP POP JUMP JUMPDEST PUSH0 PUSH1 0x20 DUP3 ADD SWAP1 POP DUP2 DUP2 SUB PUSH0 DUP4 ADD MSTORE PUSH2 0x7D6 DUP2 DUP5 PUSH2 0x75E JUMP JUMPDEST SWAP1 POP SWAP3 SWAP2 POP POP JUMP JUMPDEST PUSH32 0x4E487B7100000000000000000000000000000000000000000000000000000000 PUSH0 MSTORE PUSH1 0x11 PUSH1 0x4 MSTORE PUSH1 0x24 PUSH0 REVERT JUMPDEST PUSH0 PUSH2 0x815 DUP3 PUSH2 0x4AA JUMP JUMPDEST SWAP2 POP PUSH32 0xFFFFFFFFFFFFFFFFFFFFFFFFFFFFFFFFFFFFFFFFFFFFFFFFFFFFFFFFFFFFFFFF DUP3 SUB PUSH2 0x847 JUMPI PUSH2 0x846 PUSH2 0x7DE JUMP JUMPDEST JUMPDEST PUSH1 0x1 DUP3 ADD SWAP1 POP SWAP2 SWAP1 POP JUMP JUMPDEST PUSH32 0x4E487B7100000000000000000000000000000000000000000000000000000000 PUSH0 MSTORE PUSH1 0x22 PUSH1 0x4 MSTORE PUSH1 0x24 PUSH0 REVERT JUMPDEST PUSH0 PUSH1 0x2 DUP3 DIV SWAP1 POP PUSH1 0x1 DUP3 AND DUP1 PUSH2 0x896 JUMPI PUSH1 0x7F DUP3 AND SWAP2 POP JUMPDEST PUSH1 0x20 DUP3 LT DUP2 SUB PUSH2 0x8A9 JUMPI PUSH2 0x8A8 PUSH2 0x852 JUMP JUMPDEST JUMPDEST POP SWAP2 SWAP1 POP JUMP JUMPDEST PUSH0 DUP2 SWAP1 POP DUP2 PUSH0 MSTORE PUSH1 0x20 PUSH0 KECCAK256 SWAP1 POP SWAP2 SWAP1 POP JUMP JUMPDEST PUSH0 PUSH1 0x20 PUSH1 0x1F DUP4 ADD DIV SWAP1 POP SWAP2 SWAP1 POP JUMP JUMPDEST PUSH0 DUP3 DUP3 SHL SWAP1 POP SWAP3 SWAP2 POP POP JUMP JUMPDEST PUSH0 PUSH1 0x8 DUP4 MUL PUSH2 0x90B PUSH32 0xFFFFFFFFFFFFFFFFFFFFFFFFFFFFFFFFFFFFFFFFFFFFFFFFFFFFFFFFFFFFFFFF DUP3 PUSH2 0x8D0 JUMP JUMPDEST PUSH2 0x915 DUP7 DUP4 PUSH2 0x8D0 JUMP JUMPDEST SWAP6 POP DUP1 NOT DUP5 AND SWAP4 POP DUP1 DUP7 AND DUP5 OR SWAP3 POP POP POP SWAP4 SWAP3 POP POP POP JUMP JUMPDEST PUSH0 DUP2 SWAP1 POP SWAP2 SWAP1 POP JUMP JUMPDEST PUSH0 PUSH2 0x950 PUSH2 0x94B PUSH2 0x946 DUP5 PUSH2 0x4AA JUMP JUMPDEST PUSH2 0x92D JUMP JUMPDEST PUSH2 0x4AA JUMP JUMPDEST SWAP1 POP SWAP2 SWAP1 POP JUMP JUMPDEST PUSH0 DUP2 SWAP1 POP SWAP2 SWAP1 POP JUMP JUMPDEST PUSH2 0x969 DUP4 PUSH2 0x936 JUMP JUMPDEST PUSH2 0x97D PUSH2 0x975 DUP3 PUSH2 0x957 JUMP JUMPDEST DUP5 DUP5 SLOAD PUSH2 0x8DC JUMP JUMPDEST DUP3 SSTORE POP POP POP POP JUMP JUMPDEST PUSH0 SWAP1 JUMP JUMPDEST PUSH2 0x991 PUSH2 0x985 JUMP JUMPDEST PUSH2 0x99C DUP2 DUP5 DUP5 PUSH2 0x960 JUMP JUMPDEST POP POP POP JUMP JUMPDEST JUMPDEST DUP2 DUP2 LT ISZERO PUSH2 0x9BF JUMPI PUSH2 0x9B4 PUSH0 DUP3 PUSH2 0x989 JUMP JUMPDEST PUSH1 0x1 DUP2 ADD SWAP1 POP PUSH2 0x9A2 JUMP JUMPDEST POP POP JUMP JUMPDEST PUSH1 0x1F DUP3 GT ISZERO PUSH2 0xA04 JUMPI PUSH2 0x9D5 DUP2 PUSH2 0x8AF JUMP JUMPDEST PUSH2 0x9DE DUP5 PUSH2 0x8C1 JUMP JUMPDEST DUP2 ADD PUSH1 0x20 DUP6 LT ISZERO PUSH2 0x9ED JUMPI DUP2 SWAP1 POP JUMPDEST PUSH2 0xA01 PUSH2 0x9F9 DUP6 PUSH2 0x8C1 JUMP JUMPDEST DUP4 ADD DUP3 PUSH2 0x9A1 JUMP JUMPDEST POP POP JUMPDEST POP POP POP JUMP JUMPDEST PUSH0 DUP3 DUP3 SHR SWAP1 POP SWAP3 SWAP2 POP POP JUMP JUMPDEST PUSH0 PUSH2 0xA24 PUSH0 NOT DUP5 PUSH1 0x8 MUL PUSH2 0xA09 JUMP JUMPDEST NOT DUP1 DUP4 AND SWAP2 POP POP SWAP3 SWAP2 POP POP JUMP JUMPDEST PUSH0 PUSH2 0xA3C DUP4 DUP4 PUSH2 0xA15 JUMP JUMPDEST SWAP2 POP DUP3 PUSH1 0x2 MUL DUP3 OR SWAP1 POP SWAP3 SWAP2 POP POP JUMP JUMPDEST PUSH2 0xA55 DUP3 PUSH2 0x6E4 JUMP JUMPDEST PUSH8 0xFFFFFFFFFFFFFFFF DUP2 GT ISZERO PUSH2 0xA6E JUMPI PUSH2 0xA6D PUSH2 0x4F3 JUMP JUMPDEST JUMPDEST PUSH2 0xA78 DUP3 SLOAD PUSH2 0x87F JUMP JUMPDEST PUSH2 0xA83 DUP3 DUP3 DUP6 PUSH2 0x9C3 JUMP JUMPDEST PUSH0 PUSH1 0x20 SWAP1 POP PUSH1 0x1F DUP4 GT PUSH1 0x1 DUP2 EQ PUSH2 0xAB4 JUMPI PUSH0 DUP5 ISZERO PUSH2 0xAA2 JUMPI DUP3 DUP8 ADD MLOAD SWAP1 POP JUMPDEST PUSH2 0xAAC DUP6 DUP3 PUSH2 0xA31 JUMP JUMPDEST DUP7 SSTORE POP PUSH2 0xB13 JUMP JUMPDEST PUSH1 0x1F NOT DUP5 AND PUSH2 0xAC2 DUP7 PUSH2 0x8AF JUMP JUMPDEST PUSH0 JUMPDEST DUP3 DUP2 LT ISZERO PUSH2 0xAE9 JUMPI DUP5 DUP10 ADD MLOAD DUP3 SSTORE PUSH1 0x1 DUP3 ADD SWAP2 POP PUSH1 0x20 DUP6 ADD SWAP5 POP PUSH1 0x20 DUP2 ADD SWAP1 POP PUSH2 0xAC4 JUMP JUMPDEST DUP7 DUP4 LT ISZERO PUSH2 0xB06 JUMPI DUP5 DUP10 ADD MLOAD PUSH2 0xB02 PUSH1 0x1F DUP10 AND DUP3 PUSH2 0xA15 JUMP JUMPDEST DUP4 SSTORE POP JUMPDEST PUSH1 0x1 PUSH1 0x2 DUP9 MUL ADD DUP9 SSTORE POP POP POP JUMPDEST POP POP POP POP POP POP JUMP INVALID LOG2 PUSH5 0x6970667358 0x22 SLT KECCAK256 PUSH15 0x81B6C18E1B4DA80E38844CEE271916 PUSH26 0x7E9D7907EABB8A4A72113CE9F0D61664736F6C63430008160033 "
				},
				"gasEstimates": {
					"creation": {
						"codeDepositCost": "579400",
						"executionCost": "611",
						"totalCost": "580011"
					},
					"external": {
						"balances(address)": "2792",
						"getPayment(address,uint256)": "infinite",
						"pay(string)": "infinite"
					}
				},
				"methodIdentifiers": {
					"balances(address)": "27e235e3",
					"getPayment(address,uint256)": "977a767c",
					"pay(string)": "2b66d72e"
				}
			},
			"storageLayout": {
				"storage": [
					{
						"astId": 23,
						"contract": "smart-contract/contracts/payments.sol:Payments",
						"label": "balances",
						"offset": 0,
						"slot": "0",
						"type": "t_mapping(t_address,t_struct(Balance)18_storage)"
					}
				],
				"types": {
					"t_address": {
						"encoding": "inplace",
						"label": "address",
						"numberOfBytes": "20"
					},
					"t_mapping(t_address,t_struct(Balance)18_storage)": {
						"encoding": "mapping",
						"key": "t_address",
						"label": "mapping(address => struct Payments.Balance)",
						"numberOfBytes": "32",
						"value": "t_struct(Balance)18_storage"
					},
					"t_mapping(t_uint256,t_struct(Payment)10_storage)": {
						"encoding": "mapping",
						"key": "t_uint256",
						"label": "mapping(uint256 => struct Payments.Payment)",
						"numberOfBytes": "32",
						"value": "t_struct(Payment)10_storage"
					},
					"t_string_storage": {
						"encoding": "bytes",
						"label": "string",
						"numberOfBytes": "32"
					},
					"t_struct(Balance)18_storage": {
						"encoding": "inplace",
						"label": "struct Payments.Balance",
						"members": [
							{
								"astId": 12,
								"contract": "smart-contract/contracts/payments.sol:Payments",
								"label": "totalPayments",
								"offset": 0,
								"slot": "0",
								"type": "t_uint256"
							},
							{
								"astId": 17,
								"contract": "smart-contract/contracts/payments.sol:Payments",
								"label": "payments",
								"offset": 0,
								"slot": "1",
								"type": "t_mapping(t_uint256,t_struct(Payment)10_storage)"
							}
						],
						"numberOfBytes": "64"
					},
					"t_struct(Payment)10_storage": {
						"encoding": "inplace",
						"label": "struct Payments.Payment",
						"members": [
							{
								"astId": 3,
								"contract": "smart-contract/contracts/payments.sol:Payments",
								"label": "amount",
								"offset": 0,
								"slot": "0",
								"type": "t_uint256"
							},
							{
								"astId": 5,
								"contract": "smart-contract/contracts/payments.sol:Payments",
								"label": "timestamp",
								"offset": 0,
								"slot": "1",
								"type": "t_uint256"
							},
							{
								"astId": 7,
								"contract": "smart-contract/contracts/payments.sol:Payments",
								"label": "from",
								"offset": 0,
								"slot": "2",
								"type": "t_address"
							},
							{
								"astId": 9,
								"contract": "smart-contract/contracts/payments.sol:Payments",
								"label": "message",
								"offset": 0,
								"slot": "3",
								"type": "t_string_storage"
							}
						],
						"numberOfBytes": "128"
					},
					"t_uint256": {
						"encoding": "inplace",
						"label": "uint256",
						"numberOfBytes": "32"
					}
				}
			},
			"userdoc": {
				"kind": "user",
				"methods": {},
				"version": 1
			}
		}
	}
}